{
  "contractName": "FeatureWeighted",
  "abi": [
    {
      "constant": false,
      "inputs": [
        {
          "name": "_proposalId",
          "type": "uint256"
        },
        {
          "name": "_paramInt",
          "type": "uint256[]"
        },
        {
          "name": "_paramBytes32",
          "type": "bytes32[]"
        },
        {
          "name": "_paramAddress",
          "type": "address[]"
        },
        {
          "name": "_GBTPayableTokenAmount",
          "type": "uint256"
        }
      ],
      "name": "addVerdictOption",
      "outputs": [],
      "payable": false,
      "stateMutability": "nonpayable",
      "type": "function"
    },
    {
      "constant": false,
      "inputs": [
        {
          "name": "_proposalId",
          "type": "uint256"
        }
      ],
      "name": "giveReward_afterFinalDecision",
      "outputs": [],
      "payable": false,
      "stateMutability": "nonpayable",
      "type": "function"
    },
    {
      "constant": false,
      "inputs": [
        {
          "name": "_GBTcontractAddress",
          "type": "address"
        }
      ],
      "name": "changeGBTtokenAddress",
      "outputs": [],
      "payable": false,
      "stateMutability": "nonpayable",
      "type": "function"
    },
    {
      "constant": false,
      "inputs": [],
      "name": "FeatureWeightedInitiate",
      "outputs": [],
      "payable": false,
      "stateMutability": "nonpayable",
      "type": "function"
    },
    {
      "constant": false,
      "inputs": [
        {
          "name": "_BTContractAddress",
          "type": "address"
        },
        {
          "name": "_SVTcontractAddress",
          "type": "address"
        },
        {
          "name": "_GDcontractAddress",
          "type": "address"
        },
        {
          "name": "_MRcontractAddress",
          "type": "address"
        },
        {
          "name": "_PCcontractAddress",
          "type": "address"
        }
      ],
      "name": "changeAllContractsAddress",
      "outputs": [],
      "payable": false,
      "stateMutability": "nonpayable",
      "type": "function"
    },
    {
      "constant": false,
      "inputs": [
        {
          "name": "_proposalId",
          "type": "uint256"
        },
        {
          "name": "_featureArray",
          "type": "uint256[]"
        }
      ],
      "name": "addProposalFeature",
      "outputs": [],
      "payable": false,
      "stateMutability": "nonpayable",
      "type": "function"
    },
    {
      "constant": true,
      "inputs": [
        {
          "name": "_proposalId",
          "type": "uint256"
        },
        {
          "name": "_roleId",
          "type": "uint256"
        },
        {
          "name": "_optionIndex",
          "type": "uint256"
        }
      ],
      "name": "getProposalVoteAndTokenCountByRoleId",
      "outputs": [
        {
          "name": "totalVotes",
          "type": "uint256"
        },
        {
          "name": "totalToken",
          "type": "uint256"
        }
      ],
      "payable": false,
      "stateMutability": "view",
      "type": "function"
    },
    {
      "constant": false,
      "inputs": [
        {
          "name": "_memberAddress",
          "type": "address"
        },
        {
          "name": "_proposalId",
          "type": "uint256"
        },
        {
          "name": "_voteLength",
          "type": "uint256"
        }
      ],
      "name": "setVoteId_againstMember",
      "outputs": [],
      "payable": false,
      "stateMutability": "nonpayable",
      "type": "function"
    },
    {
      "constant": true,
      "inputs": [
        {
          "name": "_voteid",
          "type": "uint256"
        }
      ],
      "name": "getVoteDetailByid",
      "outputs": [
        {
          "name": "voter",
          "type": "address"
        },
        {
          "name": "proposalId",
          "type": "uint256"
        },
        {
          "name": "optionChosen",
          "type": "uint256[]"
        },
        {
          "name": "dateSubmit",
          "type": "uint256"
        },
        {
          "name": "voterTokens",
          "type": "uint256"
        },
        {
          "name": "voteStakeGBT",
          "type": "uint256"
        },
        {
          "name": "voteValue",
          "type": "uint256"
        }
      ],
      "payable": false,
      "stateMutability": "view",
      "type": "function"
    },
    {
      "constant": true,
      "inputs": [],
      "name": "allVotesTotal",
      "outputs": [
        {
          "name": "",
          "type": "uint256"
        }
      ],
      "payable": false,
      "stateMutability": "view",
      "type": "function"
    },
    {
      "constant": false,
      "inputs": [
        {
          "name": "_proposalId",
          "type": "uint256"
        },
        {
          "name": "_optionChosen",
          "type": "uint256[]"
        },
        {
          "name": "_GBTPayableTokenAmount",
          "type": "uint256"
        }
      ],
      "name": "proposalVoting",
      "outputs": [],
      "payable": false,
      "stateMutability": "nonpayable",
      "type": "function"
    },
    {
      "constant": true,
      "inputs": [],
      "name": "getTotalVotes",
      "outputs": [
        {
          "name": "votesTotal",
          "type": "uint256"
        }
      ],
      "payable": false,
      "stateMutability": "view",
      "type": "function"
    },
    {
      "constant": true,
      "inputs": [
        {
          "name": "_proposalId",
          "type": "uint256"
        },
        {
          "name": "_roleId",
          "type": "uint256"
        },
        {
          "name": "_optionIndex",
          "type": "uint256"
        }
      ],
      "name": "getVotesbyOption_againstProposal",
      "outputs": [
        {
          "name": "totalVotes",
          "type": "uint256"
        }
      ],
      "payable": false,
      "stateMutability": "view",
      "type": "function"
    },
    {
      "constant": false,
      "inputs": [
        {
          "name": "_proposalId",
          "type": "uint256"
        }
      ],
      "name": "closeProposalVote",
      "outputs": [],
      "payable": false,
      "stateMutability": "nonpayable",
      "type": "function"
    },
    {
      "constant": true,
      "inputs": [],
      "name": "masterAddress",
      "outputs": [
        {
          "name": "",
          "type": "address"
        }
      ],
      "payable": false,
      "stateMutability": "view",
      "type": "function"
    },
    {
      "constant": false,
      "inputs": [
        {
          "name": "_masterContractAddress",
          "type": "address"
        }
      ],
      "name": "changeMasterAddress",
      "outputs": [],
      "payable": false,
      "stateMutability": "nonpayable",
      "type": "function"
    },
    {
      "constant": true,
      "inputs": [
        {
          "name": "_memberAddress",
          "type": "address"
        },
        {
          "name": "_proposalId",
          "type": "uint256"
        }
      ],
      "name": "getVoteId_againstMember",
      "outputs": [
        {
          "name": "voteId",
          "type": "uint256"
        }
      ],
      "payable": false,
      "stateMutability": "view",
      "type": "function"
    },
    {
      "constant": true,
      "inputs": [],
      "name": "votingTypeName",
      "outputs": [
        {
          "name": "",
          "type": "string"
        }
      ],
      "payable": false,
      "stateMutability": "view",
      "type": "function"
    }
  ],
  "bytecode": "0x6060604052341561000f57600080fd5b61591c806200001f6000396000f3006060604052600436106100fc576000357c0100000000000000000000000000000000000000000000000000000000900463ffffffff16806307a88848146101015780630a256ae1146101ed5780630df34cdb14610210578063214a9cf7146102495780632e95cfb91461025e578063414a8380146103135780634a261ce31461037657806361a0c020146103c657806366cf51de1461041157806379098c64146104df57806389d92241146105085780639a0e7d6614610574578063a17d5b0a1461059d578063c46994ce146105e6578063d365a08e14610609578063d46655f41461065e578063eef83a4b14610697578063f8eb64b2146106ed575b600080fd5b341561010c57600080fd5b6101eb600480803590602001909190803590602001908201803590602001908080602002602001604051908101604052809392919081815260200183836020028082843782019150505050505091908035906020019082018035906020019080806020026020016040519081016040528093929190818152602001838360200280828437820191505050505050919080359060200190820180359060200190808060200260200160405190810160405280939291908181526020018383602002808284378201915050505050509190803590602001909190505061077b565b005b34156101f857600080fd5b61020e600480803590602001909190505061094f565b005b341561021b57600080fd5b610247600480803573ffffffffffffffffffffffffffffffffffffffff169060200190919050506113d2565b005b341561025457600080fd5b61025c611567565b005b341561026957600080fd5b610311600480803573ffffffffffffffffffffffffffffffffffffffff1690602001909190803573ffffffffffffffffffffffffffffffffffffffff1690602001909190803573ffffffffffffffffffffffffffffffffffffffff1690602001909190803573ffffffffffffffffffffffffffffffffffffffff1690602001909190803573ffffffffffffffffffffffffffffffffffffffff16906020019091905050611754565b005b341561031e57600080fd5b6103746004808035906020019091908035906020019082018035906020019080806020026020016040519081016040528093929190818152602001838360200280828437820191505050505050919050506119f1565b005b341561038157600080fd5b6103a96004808035906020019091908035906020019091908035906020019091905050611a88565b604051808381526020018281526020019250505060405180910390f35b34156103d157600080fd5b61040f600480803573ffffffffffffffffffffffffffffffffffffffff16906020019091908035906020019091908035906020019091905050611af6565b005b341561041c57600080fd5b6104326004808035906020019091905050611b50565b604051808873ffffffffffffffffffffffffffffffffffffffff1673ffffffffffffffffffffffffffffffffffffffff16815260200187815260200180602001868152602001858152602001848152602001838152602001828103825287818151815260200191508051906020019060200280838360005b838110156104c55780820151818401526020810190506104aa565b505050509050019850505050505050505060405180910390f35b34156104ea57600080fd5b6104f2611cd2565b6040518082815260200191505060405180910390f35b341561051357600080fd5b610572600480803590602001909190803590602001908201803590602001908080602002602001604051908101604052809392919081815260200183836020028082843782019150505050505091908035906020019091905050611cd8565b005b341561057f57600080fd5b610587612b9c565b6040518082815260200191505060405180910390f35b34156105a857600080fd5b6105d06004808035906020019091908035906020019091908035906020019091905050612ba9565b6040518082815260200191505060405180910390f35b34156105f157600080fd5b6106076004808035906020019091905050612bec565b005b341561061457600080fd5b61061c612d33565b604051808273ffffffffffffffffffffffffffffffffffffffff1673ffffffffffffffffffffffffffffffffffffffff16815260200191505060405180910390f35b341561066957600080fd5b610695600480803573ffffffffffffffffffffffffffffffffffffffff16906020019091905050612d59565b005b34156106a257600080fd5b6106d7600480803573ffffffffffffffffffffffffffffffffffffffff16906020019091908035906020019091905050612f76565b6040518082815260200191505060405180910390f35b34156106f857600080fd5b610700612fd1565b6040518080602001828103825283818151815260200191508051906020019080838360005b83811015610740578082015181840152602081019050610725565b50505050905090810190601f16801561076d5780820380516001836020036101000a031916815260200191505b509250505060405180910390f35b601160009054906101000a900473ffffffffffffffffffffffffffffffffffffffff1673ffffffffffffffffffffffffffffffffffffffff16634f2a173886336002888888886040518863ffffffff167c0100000000000000000000000000000000000000000000000000000000028152600401808881526020018773ffffffffffffffffffffffffffffffffffffffff1673ffffffffffffffffffffffffffffffffffffffff168152602001868152602001806020018060200180602001858152602001848103845288818151815260200191508051906020019060200280838360005b8381101561087b578082015181840152602081019050610860565b50505050905001848103835287818151815260200191508051906020019060200280838360005b838110156108bd5780820151818401526020810190506108a2565b50505050905001848103825286818151815260200191508051906020019060200280838360005b838110156108ff5780820151818401526020810190506108e4565b505050509050019a5050505050505050505050600060405180830381600087803b151561092b57600080fd5b6102c65a03f1151561093c57600080fd5b5050506109488161306f565b5050505050565b600080600080600080600080600080600660009054906101000a900473ffffffffffffffffffffffffffffffffffffffff16600f60006101000a81548173ffffffffffffffffffffffffffffffffffffffff021916908373ffffffffffffffffffffffffffffffffffffffff160217905550601460008c8152602001908152602001600020805490509250600f60009054906101000a900473ffffffffffffffffffffffffffffffffffffffff1673ffffffffffffffffffffffffffffffffffffffff1663ec9ccfff8c600060405160a001526040518263ffffffff167c01000000000000000000000000000000000000000000000000000000000281526004018082815260200191505060a060405180830381600087803b1515610a7357600080fd5b6102c65a03f11515610a8457600080fd5b505050604051805190602001805190602001805190602001805190602001805190509091929350909192509091505080945050600091505b600f60009054906101000a900473ffffffffffffffffffffffffffffffffffffffff1673ffffffffffffffffffffffffffffffffffffffff166393a6b05f8c6000604051602001526040518263ffffffff167c010000000000000000000000000000000000000000000000000000000002815260040180828152602001915050602060405180830381600087803b1515610b5557600080fd5b6102c65a03f11515610b6657600080fd5b50505060405180519050821015610fb357600f60009054906101000a900473ffffffffffffffffffffffffffffffffffffffff1673ffffffffffffffffffffffffffffffffffffffff166372a5f4d48c846000604051602001526040518363ffffffff167c01000000000000000000000000000000000000000000000000000000000281526004018083815260200182815260200192505050602060405180830381600087803b1515610c1857600080fd5b6102c65a03f11515610c2957600080fd5b5050506040518051905090508360ff16600382815481101515610c4857fe5b90600052602060002090600702016002016000815481101515610c6757fe5b9060005260206000209001541415610caa57610ca38a600383815481101515610c8c57fe5b9060005260206000209060070201600601546132fa565b9950610fa6565b610d9989610d94600384815481101515610cc057fe5b906000526020600020906007020160050154610d8f610ce160016064613318565b600f60009054906101000a900473ffffffffffffffffffffffffffffffffffffffff1673ffffffffffffffffffffffffffffffffffffffff1663ad3208466000604051602001526040518163ffffffff167c0100000000000000000000000000000000000000000000000000000000028152600401602060405180830381600087803b1515610d6f57600080fd5b6102c65a03f11515610d8057600080fd5b50505060405180519050613353565b613318565b6132fa565b9850610e8b600382815481101515610dad57fe5b906000526020600020906007020160050154610e866001610e81610dd360016064613318565b600f60009054906101000a900473ffffffffffffffffffffffffffffffffffffffff1673ffffffffffffffffffffffffffffffffffffffff1663ad3208466000604051602001526040518163ffffffff167c0100000000000000000000000000000000000000000000000000000000028152600401602060405180830381600087803b1515610e6157600080fd5b6102c65a03f11515610e7257600080fd5b50505060405180519050613353565b61336e565b613318565b9450600f60009054906101000a900473ffffffffffffffffffffffffffffffffffffffff1673ffffffffffffffffffffffffffffffffffffffff1663649db80b600383815481101515610eda57fe5b906000526020600020906007020160000160009054906101000a900473ffffffffffffffffffffffffffffffffffffffff16876040518363ffffffff167c0100000000000000000000000000000000000000000000000000000000028152600401808373ffffffffffffffffffffffffffffffffffffffff1673ffffffffffffffffffffffffffffffffffffffff16815260200182815260200192505050600060405180830381600087803b1515610f9157600080fd5b6102c65a03f11515610fa257600080fd5b5050505b8180600101925050610abc565b600091505b600f60009054906101000a900473ffffffffffffffffffffffffffffffffffffffff1673ffffffffffffffffffffffffffffffffffffffff1663ad8750418c6000604051602001526040518263ffffffff167c010000000000000000000000000000000000000000000000000000000002815260040180828152602001915050602060405180830381600087803b151561105157600080fd5b6102c65a03f1151561106257600080fd5b50505060405180519050821015611154578360ff16821415156111475761114488600f60009054906101000a900473ffffffffffffffffffffffffffffffffffffffff1673ffffffffffffffffffffffffffffffffffffffff16630ecc69c18e866000604051602001526040518363ffffffff167c01000000000000000000000000000000000000000000000000000000000281526004018083815260200182815260200192505050602060405180830381600087803b151561112457600080fd5b6102c65a03f1151561113557600080fd5b505050604051805190506132fa565b97505b8180600101925050610fb8565b61121c600f60009054906101000a900473ffffffffffffffffffffffffffffffffffffffff1673ffffffffffffffffffffffffffffffffffffffff1663c066ea868d876000604051602001526040518363ffffffff167c0100000000000000000000000000000000000000000000000000000000028152600401808381526020018260ff16815260200192505050602060405180830381600087803b15156111fb57600080fd5b6102c65a03f1151561120c57600080fd5b505050604051805190508b6132fa565b9650611228888a6132fa565b955060008460ff1611156112fa576112f387600f60009054906101000a900473ffffffffffffffffffffffffffffffffffffffff1673ffffffffffffffffffffffffffffffffffffffff1663ba63453f8e6000604051602001526040518263ffffffff167c010000000000000000000000000000000000000000000000000000000002815260040180828152602001915050602060405180830381600087803b15156112d357600080fd5b6102c65a03f115156112e457600080fd5b505050604051805190506132fa565b96506113ba565b6113b786600f60009054906101000a900473ffffffffffffffffffffffffffffffffffffffff1673ffffffffffffffffffffffffffffffffffffffff16633a0fcafc8e6000604051602001526040518263ffffffff167c010000000000000000000000000000000000000000000000000000000002815260040180828152602001915050602060405180830381600087803b151561139757600080fd5b6102c65a03f115156113a857600080fd5b505050604051805190506132fa565b95505b6113c58b8789613387565b5050505050505050505050565b600b60009054906101000a900473ffffffffffffffffffffffffffffffffffffffff16601360006101000a81548173ffffffffffffffffffffffffffffffffffffffff021916908373ffffffffffffffffffffffffffffffffffffffff1602179055506001601360009054906101000a900473ffffffffffffffffffffffffffffffffffffffff1673ffffffffffffffffffffffffffffffffffffffff16638f16c41c336000604051602001526040518263ffffffff167c0100000000000000000000000000000000000000000000000000000000028152600401808273ffffffffffffffffffffffffffffffffffffffff1673ffffffffffffffffffffffffffffffffffffffff168152602001915050602060405180830381600087803b15156114fc57600080fd5b6102c65a03f1151561150d57600080fd5b5050506040518051905014151561152357600080fd5b80600960006101000a81548173ffffffffffffffffffffffffffffffffffffffff021916908373ffffffffffffffffffffffffffffffffffffffff16021790555050565b600080601360149054906101000a900460ff1660ff1614151561158957600080fd5b6003805480600101828161159d91906156a0565b9160005260206000209060070201600060e060405190810160405280600073ffffffffffffffffffffffffffffffffffffffff168152602001600081526020018580548060200260200160405190810160405280929190818152602001828054801561162857602002820191906000526020600020905b815481526020019060010190808311611614575b5050505050815260200142815260200160008152602001600081526020016000815250909190915060008201518160000160006101000a81548173ffffffffffffffffffffffffffffffffffffffff021916908373ffffffffffffffffffffffffffffffffffffffff1602179055506020820151816001015560408201518160020190805190602001906116bd9291906156d2565b50606082015181600301556080820151816004015560a0820151816005015560c082015181600601555050506040805190810160405280601781526020017f4665617475726520576569676874656420566f74696e670000000000000000008152506005908051906020019061173492919061571f565b506001601360146101000a81548160ff021916908360ff16021790555050565b600b60009054906101000a900473ffffffffffffffffffffffffffffffffffffffff16601360006101000a81548173ffffffffffffffffffffffffffffffffffffffff021916908373ffffffffffffffffffffffffffffffffffffffff1602179055506001601360009054906101000a900473ffffffffffffffffffffffffffffffffffffffff1673ffffffffffffffffffffffffffffffffffffffff16638f16c41c336000604051602001526040518263ffffffff167c0100000000000000000000000000000000000000000000000000000000028152600401808273ffffffffffffffffffffffffffffffffffffffff1673ffffffffffffffffffffffffffffffffffffffff168152602001915050602060405180830381600087803b151561187e57600080fd5b6102c65a03f1151561188f57600080fd5b505050604051805190501415156118a557600080fd5b84600a60006101000a81548173ffffffffffffffffffffffffffffffffffffffff021916908373ffffffffffffffffffffffffffffffffffffffff16021790555083600c60006101000a81548173ffffffffffffffffffffffffffffffffffffffff021916908373ffffffffffffffffffffffffffffffffffffffff16021790555082600660006101000a81548173ffffffffffffffffffffffffffffffffffffffff021916908373ffffffffffffffffffffffffffffffffffffffff16021790555081600760006101000a81548173ffffffffffffffffffffffffffffffffffffffff021916908373ffffffffffffffffffffffffffffffffffffffff16021790555080600860006101000a81548173ffffffffffffffffffffffffffffffffffffffff021916908373ffffffffffffffffffffffffffffffffffffffff1602179055505050505050565b6000806014600085815260200190815260200160002080549050141515611a1757600080fd5b600090505b8151811015611a8357601460008481526020019081526020016000208054806001018281611a4a919061579f565b916000526020600020900160008484815181101515611a6557fe5b90602001906020020151909190915055508080600101915050611a1c565b505050565b600080600080868152602001908152602001600020600001600085815260200190815260200160002060008481526020019081526020016000205491506000808681526020019081526020016000206001016000858152602001908152602001600020549050935093915050565b80600260008573ffffffffffffffffffffffffffffffffffffffff1673ffffffffffffffffffffffffffffffffffffffff168152602001908152602001600020600084815260200190815260200160002081905550505050565b600080611b5b6157cb565b600080600080600388815481101515611b7057fe5b906000526020600020906007020160000160009054906101000a900473ffffffffffffffffffffffffffffffffffffffff16600389815481101515611bb157fe5b90600052602060002090600702016001015460038a815481101515611bd257fe5b906000526020600020906007020160020160038b815481101515611bf257fe5b90600052602060002090600702016003015460038c815481101515611c1357fe5b90600052602060002090600702016004015460038d815481101515611c3457fe5b90600052602060002090600702016005015460038e815481101515611c5557fe5b90600052602060002090600702016006015484805480602002602001604051908101604052809291908181526020018280548015611cb257602002820191906000526020600020905b815481526020019060010190808311611c9e575b505050505094509650965096509650965096509650919395979092949650565b60045481565b600080600080600080600080600660009054906101000a900473ffffffffffffffffffffffffffffffffffffffff16600f60006101000a81548173ffffffffffffffffffffffffffffffffffffffff021916908373ffffffffffffffffffffffffffffffffffffffff160217905550600760009054906101000a900473ffffffffffffffffffffffffffffffffffffffff16600d60006101000a81548173ffffffffffffffffffffffffffffffffffffffff021916908373ffffffffffffffffffffffffffffffffffffffff160217905550600860009054906101000a900473ffffffffffffffffffffffffffffffffffffffff16600e60006101000a81548173ffffffffffffffffffffffffffffffffffffffff021916908373ffffffffffffffffffffffffffffffffffffffff160217905550600c60009054906101000a900473ffffffffffffffffffffffffffffffffffffffff16601160006101000a81548173ffffffffffffffffffffffffffffffffffffffff021916908373ffffffffffffffffffffffffffffffffffffffff160217905550601460008c8152602001908152602001600020805490509250600f60009054906101000a900473ffffffffffffffffffffffffffffffffffffffff1673ffffffffffffffffffffffffffffffffffffffff1663ec9ccfff8c600060405160a001526040518263ffffffff167c01000000000000000000000000000000000000000000000000000000000281526004018082815260200191505060a060405180830381600087803b1515611f2257600080fd5b6102c65a03f11515611f3357600080fd5b505050604051805190602001805190602001805190602001805190602001805190508460ff1694508360ff1693508260ff1692509050508096508198508297505050506000600f60009054906101000a900473ffffffffffffffffffffffffffffffffffffffff1673ffffffffffffffffffffffffffffffffffffffff166335c42dbb336000604051602001526040518263ffffffff167c0100000000000000000000000000000000000000000000000000000000028152600401808273ffffffffffffffffffffffffffffffffffffffff1673ffffffffffffffffffffffffffffffffffffffff168152602001915050602060405180830381600087803b151561203d57600080fd5b6102c65a03f1151561204e57600080fd5b505050604051805190501415801561211957506002600f60009054906101000a900473ffffffffffffffffffffffffffffffffffffffff1673ffffffffffffffffffffffffffffffffffffffff1663401853b78d6000604051602001526040518263ffffffff167c010000000000000000000000000000000000000000000000000000000002815260040180828152602001915050602060405180830381600087803b15156120fc57600080fd5b6102c65a03f1151561210d57600080fd5b50505060405180519050145b80156121e557506121e060018401600f60009054906101000a900473ffffffffffffffffffffffffffffffffffffffff1673ffffffffffffffffffffffffffffffffffffffff16639a2243ec8e6000604051602001526040518263ffffffff167c010000000000000000000000000000000000000000000000000000000002815260040180828152602001915050602060405180830381600087803b15156121c057600080fd5b6102c65a03f115156121d157600080fd5b50505060405180519050613318565b8a5111155b15156121f057600080fd5b600e60009054906101000a900473ffffffffffffffffffffffffffffffffffffffff1673ffffffffffffffffffffffffffffffffffffffff16639deeab2086886000604051602001526040518363ffffffff167c01000000000000000000000000000000000000000000000000000000000281526004018083815260200182815260200192505050602060405180830381600087803b151561229157600080fd5b6102c65a03f115156122a257600080fd5b50505060405180519050600d60009054906101000a900473ffffffffffffffffffffffffffffffffffffffff1673ffffffffffffffffffffffffffffffffffffffff1663beae32ba336000604051602001526040518263ffffffff167c0100000000000000000000000000000000000000000000000000000000028152600401808273ffffffffffffffffffffffffffffffffffffffff1673ffffffffffffffffffffffffffffffffffffffff168152602001915050602060405180830381600087803b151561237157600080fd5b6102c65a03f1151561238257600080fd5b5050506040518051905014151561239857600080fd5b60008614156124a357600091505b895182101561249e5761246c600f60009054906101000a900473ffffffffffffffffffffffffffffffffffffffff1673ffffffffffffffffffffffffffffffffffffffff16639a2243ec8d6000604051602001526040518263ffffffff167c010000000000000000000000000000000000000000000000000000000002815260040180828152602001915050602060405180830381600087803b151561244b57600080fd5b6102c65a03f1151561245c57600080fd5b5050506040518051905084614349565b8a8381518110151561247a57fe5b906020019060200201511115151561249157600080fd5b81806001019250506123a6565b6124ed565b838a60008151811015156124b357fe5b9060200190602002015114806124e1575060008a60008151811015156124d557fe5b90602001906020020151145b15156124ec57600080fd5b5b6000600260003373ffffffffffffffffffffffffffffffffffffffff1673ffffffffffffffffffffffffffffffffffffffff16815260200190815260200160002060008d8152602001908152602001600020541415612b825761254e612b9c565b965061255d8b878c868b614365565b601160009054906101000a900473ffffffffffffffffffffffffffffffffffffffff1673ffffffffffffffffffffffffffffffffffffffff1663ceeb6f1b338d8c6000604051602001526040518463ffffffff167c0100000000000000000000000000000000000000000000000000000000028152600401808473ffffffffffffffffffffffffffffffffffffffff1673ffffffffffffffffffffffffffffffffffffffff1681526020018381526020018281526020019350505050602060405180830381600087803b151561263257600080fd5b6102c65a03f1151561264357600080fd5b50505060405180519050905061283d6000808d81526020019081526020016000206001016000600d60009054906101000a900473ffffffffffffffffffffffffffffffffffffffff1673ffffffffffffffffffffffffffffffffffffffff1663beae32ba336000604051602001526040518263ffffffff167c0100000000000000000000000000000000000000000000000000000000028152600401808273ffffffffffffffffffffffffffffffffffffffff1673ffffffffffffffffffffffffffffffffffffffff168152602001915050602060405180830381600087803b151561272e57600080fd5b6102c65a03f1151561273f57600080fd5b50505060405180519050815260200190815260200160002054600f60009054906101000a900473ffffffffffffffffffffffffffffffffffffffff1673ffffffffffffffffffffffffffffffffffffffff166335c42dbb336000604051602001526040518263ffffffff167c0100000000000000000000000000000000000000000000000000000000028152600401808273ffffffffffffffffffffffffffffffffffffffff1673ffffffffffffffffffffffffffffffffffffffff168152602001915050602060405180830381600087803b151561281d57600080fd5b6102c65a03f1151561282e57600080fd5b505050604051805190506132fa565b6000808d81526020019081526020016000206001016000600d60009054906101000a900473ffffffffffffffffffffffffffffffffffffffff1673ffffffffffffffffffffffffffffffffffffffff1663beae32ba336000604051602001526040518263ffffffff167c0100000000000000000000000000000000000000000000000000000000028152600401808273ffffffffffffffffffffffffffffffffffffffff1673ffffffffffffffffffffffffffffffffffffffff168152602001915050602060405180830381600087803b151561291957600080fd5b6102c65a03f1151561292a57600080fd5b5050506040518051905081526020019081526020016000208190555086600260003373ffffffffffffffffffffffffffffffffffffffff1673ffffffffffffffffffffffffffffffffffffffff16815260200190815260200160002060008d815260200190815260200160002081905550600160008c81526020019081526020016000206000600d60009054906101000a900473ffffffffffffffffffffffffffffffffffffffff1673ffffffffffffffffffffffffffffffffffffffff1663beae32ba336000604051602001526040518263ffffffff167c0100000000000000000000000000000000000000000000000000000000028152600401808273ffffffffffffffffffffffffffffffffffffffff1673ffffffffffffffffffffffffffffffffffffffff168152602001915050602060405180830381600087803b1515612a7557600080fd5b6102c65a03f11515612a8657600080fd5b5050506040518051905081526020019081526020016000208054806001018281612ab0919061579f565b916000526020600020900160008990919091505550600f60009054906101000a900473ffffffffffffffffffffffffffffffffffffffff1673ffffffffffffffffffffffffffffffffffffffff1663d207287f8c896040518363ffffffff167c01000000000000000000000000000000000000000000000000000000000281526004018083815260200182815260200192505050600060405180830381600087803b1515612b5d57600080fd5b6102c65a03f11515612b6e57600080fd5b505050612b7d8b8b8b846149c5565b612b8f565b612b8e8b8b858c614bbf565b5b5050505050505050505050565b6000600380549050905090565b6000806000858152602001908152602001600020600001600084815260200190815260200160002060008381526020019081526020016000205490509392505050565b600c60009054906101000a900473ffffffffffffffffffffffffffffffffffffffff16601160006101000a81548173ffffffffffffffffffffffffffffffffffffffff021916908373ffffffffffffffffffffffffffffffffffffffff160217905550601160009054906101000a900473ffffffffffffffffffffffffffffffffffffffff1673ffffffffffffffffffffffffffffffffffffffff1663d9aa6f19336002846040518463ffffffff167c0100000000000000000000000000000000000000000000000000000000028152600401808473ffffffffffffffffffffffffffffffffffffffff1673ffffffffffffffffffffffffffffffffffffffff1681526020018381526020018281526020019350505050600060405180830381600087803b1515612d1c57600080fd5b6102c65a03f11515612d2d57600080fd5b50505050565b600b60009054906101000a900473ffffffffffffffffffffffffffffffffffffffff1681565b6000600b60009054906101000a900473ffffffffffffffffffffffffffffffffffffffff1673ffffffffffffffffffffffffffffffffffffffff161415612de05780600b60006101000a81548173ffffffffffffffffffffffffffffffffffffffff021916908373ffffffffffffffffffffffffffffffffffffffff160217905550612f73565b600b60009054906101000a900473ffffffffffffffffffffffffffffffffffffffff16601360006101000a81548173ffffffffffffffffffffffffffffffffffffffff021916908373ffffffffffffffffffffffffffffffffffffffff1602179055506001601360009054906101000a900473ffffffffffffffffffffffffffffffffffffffff1673ffffffffffffffffffffffffffffffffffffffff16638f16c41c336000604051602001526040518263ffffffff167c0100000000000000000000000000000000000000000000000000000000028152600401808273ffffffffffffffffffffffffffffffffffffffff1673ffffffffffffffffffffffffffffffffffffffff168152602001915050602060405180830381600087803b1515612f0a57600080fd5b6102c65a03f11515612f1b57600080fd5b50505060405180519050141515612f3157600080fd5b80600b60006101000a81548173ffffffffffffffffffffffffffffffffffffffff021916908373ffffffffffffffffffffffffffffffffffffffff1602179055505b50565b6000600260008473ffffffffffffffffffffffffffffffffffffffff1673ffffffffffffffffffffffffffffffffffffffff168152602001908152602001600020600083815260200190815260200160002054905092915050565b60058054600181600116156101000203166002900480601f0160208091040260200160405190810160405280929190818152602001828054600181600116156101000203166002900480156130675780601f1061303c57610100808354040283529160200191613067565b820191906000526020600020905b81548152906001019060200180831161304a57829003601f168201915b505050505081565b600a60009054906101000a900473ffffffffffffffffffffffffffffffffffffffff16601260006101000a81548173ffffffffffffffffffffffffffffffffffffffff021916908373ffffffffffffffffffffffffffffffffffffffff160217905550600660009054906101000a900473ffffffffffffffffffffffffffffffffffffffff16600f60006101000a81548173ffffffffffffffffffffffffffffffffffffffff021916908373ffffffffffffffffffffffffffffffffffffffff160217905550600f60009054906101000a900473ffffffffffffffffffffffffffffffffffffffff1673ffffffffffffffffffffffffffffffffffffffff1663ed1eee716000604051602001526040518163ffffffff167c0100000000000000000000000000000000000000000000000000000000028152600401602060405180830381600087803b15156131c357600080fd5b6102c65a03f115156131d457600080fd5b5050506040518051905081101515156131ec57600080fd5b601260009054906101000a900473ffffffffffffffffffffffffffffffffffffffff1673ffffffffffffffffffffffffffffffffffffffff1663a9059cbb600960009054906101000a900473ffffffffffffffffffffffffffffffffffffffff16836000604051602001526040518363ffffffff167c0100000000000000000000000000000000000000000000000000000000028152600401808373ffffffffffffffffffffffffffffffffffffffff1673ffffffffffffffffffffffffffffffffffffffff16815260200182815260200192505050602060405180830381600087803b15156132db57600080fd5b6102c65a03f115156132ec57600080fd5b505050604051805190505050565b600080828401905083811015151561330e57fe5b8091505092915050565b600080600084141561332d576000915061334c565b828402905082848281151561333e57fe5b0414151561334857fe5b8091505b5092915050565b600080828481151561336157fe5b0490508091505092915050565b600082821115151561337c57fe5b818303905092915050565b6000806000806000806000806000600f60009054906101000a900473ffffffffffffffffffffffffffffffffffffffff1673ffffffffffffffffffffffffffffffffffffffff1663ec9ccfff8d600060405160a001526040518263ffffffff167c01000000000000000000000000000000000000000000000000000000000281526004018082815260200191505060a060405180830381600087803b151561342e57600080fd5b6102c65a03f1151561343f57600080fd5b505050604051805190602001805190602001805190602001805190602001805190509091929350909192509091505080975050600f60009054906101000a900473ffffffffffffffffffffffffffffffffffffffff1673ffffffffffffffffffffffffffffffffffffffff16633152fbd4600060405160c001526040518163ffffffff167c010000000000000000000000000000000000000000000000000000000002815260040160c060405180830381600087803b151561350057600080fd5b6102c65a03f1151561351157600080fd5b5050506040518051906020018051906020018051906020018051906020018051906020018051905090919293945090919293509091509050809650819750505060008760ff161115613aeb5761362361361d600f60009054906101000a900473ffffffffffffffffffffffffffffffffffffffff1673ffffffffffffffffffffffffffffffffffffffff16633a0fcafc8f6000604051602001526040518263ffffffff167c010000000000000000000000000000000000000000000000000000000002815260040180828152602001915050602060405180830381600087803b15156135fc57600080fd5b6102c65a03f1151561360d57600080fd5b505050604051805190508d613318565b8b613353565b98506136e2600f60009054906101000a900473ffffffffffffffffffffffffffffffffffffffff1673ffffffffffffffffffffffffffffffffffffffff16633a0fcafc8e6000604051602001526040518263ffffffff167c010000000000000000000000000000000000000000000000000000000002815260040180828152602001915050602060405180830381600087803b15156136c157600080fd5b6102c65a03f115156136d257600080fd5b505050604051805190508a6132fa565b9750600f60009054906101000a900473ffffffffffffffffffffffffffffffffffffffff1673ffffffffffffffffffffffffffffffffffffffff1663649db80b600f60009054906101000a900473ffffffffffffffffffffffffffffffffffffffff1673ffffffffffffffffffffffffffffffffffffffff166317826ac48f6000604051602001526040518263ffffffff167c010000000000000000000000000000000000000000000000000000000002815260040180828152602001915050602060405180830381600087803b15156137bb57600080fd5b6102c65a03f115156137cc57600080fd5b505050604051805190508a6040518363ffffffff167c0100000000000000000000000000000000000000000000000000000000028152600401808373ffffffffffffffffffffffffffffffffffffffff1673ffffffffffffffffffffffffffffffffffffffff16815260200182815260200192505050600060405180830381600087803b151561385b57600080fd5b6102c65a03f1151561386c57600080fd5b505050600f60009054906101000a900473ffffffffffffffffffffffffffffffffffffffff1673ffffffffffffffffffffffffffffffffffffffff1663e28d879f8d896000604051602001526040518363ffffffff167c0100000000000000000000000000000000000000000000000000000000028152600401808381526020018260ff16815260200192505050602060405180830381600087803b151561391357600080fd5b6102c65a03f1151561392457600080fd5b505050604051805190509350600f60009054906101000a900473ffffffffffffffffffffffffffffffffffffffff1673ffffffffffffffffffffffffffffffffffffffff16630ecc69c18d896000604051602001526040518363ffffffff167c0100000000000000000000000000000000000000000000000000000000028152600401808381526020018260ff16815260200192505050602060405180830381600087803b15156139d457600080fd5b6102c65a03f115156139e557600080fd5b505050604051805190509250613a046139fe848d613318565b8b613353565b9850613a10838a6132fa565b9750600f60009054906101000a900473ffffffffffffffffffffffffffffffffffffffff1673ffffffffffffffffffffffffffffffffffffffff1663649db80b858a6040518363ffffffff167c0100000000000000000000000000000000000000000000000000000000028152600401808373ffffffffffffffffffffffffffffffffffffffff1673ffffffffffffffffffffffffffffffffffffffff16815260200182815260200192505050600060405180830381600087803b1515613ad657600080fd5b6102c65a03f11515613ae757600080fd5b5050505b600091505b600f60009054906101000a900473ffffffffffffffffffffffffffffffffffffffff1673ffffffffffffffffffffffffffffffffffffffff166393a6b05f8d6000604051602001526040518263ffffffff167c010000000000000000000000000000000000000000000000000000000002815260040180828152602001915050602060405180830381600087803b1515613b8957600080fd5b6102c65a03f11515613b9a57600080fd5b5050506040518051905082101561428c57600f60009054906101000a900473ffffffffffffffffffffffffffffffffffffffff1673ffffffffffffffffffffffffffffffffffffffff166372a5f4d48d846000604051602001526040518363ffffffff167c01000000000000000000000000000000000000000000000000000000000281526004018083815260200182815260200192505050602060405180830381600087803b1515613c4c57600080fd5b6102c65a03f11515613c5d57600080fd5b5050506040518051905090506000613c79828e8a60ff16615028565b14151561403e57613cb3613cad600383815481101515613c9557fe5b9060005260206000209060070201600601548d613318565b8b613353565b9850613cdf600382815481101515613cc757fe5b9060005260206000209060070201600501548a6132fa565b9750600f60009054906101000a900473ffffffffffffffffffffffffffffffffffffffff1673ffffffffffffffffffffffffffffffffffffffff1663649db80b600383815481101515613d2e57fe5b906000526020600020906007020160000160009054906101000a900473ffffffffffffffffffffffffffffffffffffffff168a6040518363ffffffff167c0100000000000000000000000000000000000000000000000000000000028152600401808373ffffffffffffffffffffffffffffffffffffffff1673ffffffffffffffffffffffffffffffffffffffff16815260200182815260200192505050600060405180830381600087803b1515613de557600080fd5b6102c65a03f11515613df657600080fd5b505050600f60009054906101000a900473ffffffffffffffffffffffffffffffffffffffff1673ffffffffffffffffffffffffffffffffffffffff16630dfa263a600383815481101515613e4657fe5b906000526020600020906007020160000160009054906101000a900473ffffffffffffffffffffffffffffffffffffffff16613fa1600f60009054906101000a900473ffffffffffffffffffffffffffffffffffffffff1673ffffffffffffffffffffffffffffffffffffffff16631b3b74f1600387815481101515613ec857fe5b906000526020600020906007020160000160009054906101000a900473ffffffffffffffffffffffffffffffffffffffff166000604051602001526040518263ffffffff167c0100000000000000000000000000000000000000000000000000000000028152600401808273ffffffffffffffffffffffffffffffffffffffff1673ffffffffffffffffffffffffffffffffffffffff168152602001915050602060405180830381600087803b1515613f8057600080fd5b6102c65a03f11515613f9157600080fd5b505050604051805190508a6132fa565b6040518363ffffffff167c0100000000000000000000000000000000000000000000000000000000028152600401808373ffffffffffffffffffffffffffffffffffffffff1673ffffffffffffffffffffffffffffffffffffffff16815260200182815260200192505050600060405180830381600087803b151561402557600080fd5b6102c65a03f1151561403657600080fd5b50505061427f565b600f60009054906101000a900473ffffffffffffffffffffffffffffffffffffffff1673ffffffffffffffffffffffffffffffffffffffff16630dfa263a60038381548110151561408b57fe5b906000526020600020906007020160000160009054906101000a900473ffffffffffffffffffffffffffffffffffffffff166141e6600f60009054906101000a900473ffffffffffffffffffffffffffffffffffffffff1673ffffffffffffffffffffffffffffffffffffffff16631b3b74f160038781548110151561410d57fe5b906000526020600020906007020160000160009054906101000a900473ffffffffffffffffffffffffffffffffffffffff166000604051602001526040518263ffffffff167c0100000000000000000000000000000000000000000000000000000000028152600401808273ffffffffffffffffffffffffffffffffffffffff1673ffffffffffffffffffffffffffffffffffffffff168152602001915050602060405180830381600087803b15156141c557600080fd5b6102c65a03f115156141d657600080fd5b505050604051805190508961336e565b6040518363ffffffff167c0100000000000000000000000000000000000000000000000000000000028152600401808373ffffffffffffffffffffffffffffffffffffffff1673ffffffffffffffffffffffffffffffffffffffff16815260200182815260200192505050600060405180830381600087803b151561426a57600080fd5b6102c65a03f1151561427b57600080fd5b5050505b8180600101925050613af0565b600f60009054906101000a900473ffffffffffffffffffffffffffffffffffffffff1673ffffffffffffffffffffffffffffffffffffffff1663ebd0e3138d896040518363ffffffff167c0100000000000000000000000000000000000000000000000000000000028152600401808381526020018260ff16815260200192505050600060405180830381600087803b151561432757600080fd5b6102c65a03f1151561433857600080fd5b505050505050505050505050505050565b60008183101561435b5781905061435f565b8290505b92915050565b600080600080600088141561474e57600093505b86518410156147495760009250600f60009054906101000a900473ffffffffffffffffffffffffffffffffffffffff1673ffffffffffffffffffffffffffffffffffffffff1663e28d879f8a866000604051602001526040518363ffffffff167c01000000000000000000000000000000000000000000000000000000000281526004018083815260200182815260200192505050602060405180830381600087803b151561442757600080fd5b6102c65a03f1151561443857600080fd5b5050506040518051905073ffffffffffffffffffffffffffffffffffffffff163373ffffffffffffffffffffffffffffffffffffffff161415151561447c57600080fd5b6001840191505b838601821115156144be576144af8388848151811015156144a057fe5b906020019060200201516132fa565b92508180600101925050614483565b6144d26144cc846064613318565b87613353565b905061460b6000808b81526020019081526020016000206000016000600d60009054906101000a900473ffffffffffffffffffffffffffffffffffffffff1673ffffffffffffffffffffffffffffffffffffffff1663beae32ba336000604051602001526040518263ffffffff167c0100000000000000000000000000000000000000000000000000000000028152600401808273ffffffffffffffffffffffffffffffffffffffff1673ffffffffffffffffffffffffffffffffffffffff168152602001915050602060405180830381600087803b15156145b357600080fd5b6102c65a03f115156145c457600080fd5b505050604051805190508152602001908152602001600020600089878151811015156145ec57fe5b90602001906020020151815260200190815260200160002054826132fa565b6000808b81526020019081526020016000206000016000600d60009054906101000a900473ffffffffffffffffffffffffffffffffffffffff1673ffffffffffffffffffffffffffffffffffffffff1663beae32ba336000604051602001526040518263ffffffff167c0100000000000000000000000000000000000000000000000000000000028152600401808273ffffffffffffffffffffffffffffffffffffffff1673ffffffffffffffffffffffffffffffffffffffff168152602001915050602060405180830381600087803b15156146e757600080fd5b6102c65a03f115156146f857600080fd5b5050506040518051905081526020019081526020016000206000898781518110151561472057fe5b906020019060200201518152602001908152602001600020819055506001868501019350614379565b6149ba565b6148876000808b81526020019081526020016000206000016000600d60009054906101000a900473ffffffffffffffffffffffffffffffffffffffff1673ffffffffffffffffffffffffffffffffffffffff1663beae32ba336000604051602001526040518263ffffffff167c0100000000000000000000000000000000000000000000000000000000028152600401808273ffffffffffffffffffffffffffffffffffffffff1673ffffffffffffffffffffffffffffffffffffffff168152602001915050602060405180830381600087803b151561482d57600080fd5b6102c65a03f1151561483e57600080fd5b505050604051805190508152602001908152602001600020600089600081518110151561486757fe5b9060200190602002015181526020019081526020016000205460016132fa565b6000808b81526020019081526020016000206000016000600d60009054906101000a900473ffffffffffffffffffffffffffffffffffffffff1673ffffffffffffffffffffffffffffffffffffffff1663beae32ba336000604051602001526040518263ffffffff167c0100000000000000000000000000000000000000000000000000000000028152600401808273ffffffffffffffffffffffffffffffffffffffff1673ffffffffffffffffffffffffffffffffffffffff168152602001915050602060405180830381600087803b151561496357600080fd5b6102c65a03f1151561497457600080fd5b505050604051805190508152602001908152602001600020600089600081518110151561499d57fe5b906020019060200201518152602001908152602001600020819055505b505050505050505050565b6149cd61511b565b50600380548060010182816149e291906156a0565b9160005260206000209060070201600060e0604051908101604052803373ffffffffffffffffffffffffffffffffffffffff168152602001888152602001878152602001428152602001600f60009054906101000a900473ffffffffffffffffffffffffffffffffffffffff1673ffffffffffffffffffffffffffffffffffffffff166335c42dbb336000604051602001526040518263ffffffff167c0100000000000000000000000000000000000000000000000000000000028152600401808273ffffffffffffffffffffffffffffffffffffffff1673ffffffffffffffffffffffffffffffffffffffff168152602001915050602060405180830381600087803b1515614af157600080fd5b6102c65a03f11515614b0257600080fd5b50505060405180519050815260200186815260200185815250909190915060008201518160000160006101000a81548173ffffffffffffffffffffffffffffffffffffffff021916908373ffffffffffffffffffffffffffffffffffffffff160217905550602082015181600101556040820151816002019080519060200190614b8d9291906156d2565b50606082015181600301556080820151816004015560a0820151816005015560c0820151816006015550505050505050565b600080600080600760009054906101000a900473ffffffffffffffffffffffffffffffffffffffff16600d60006101000a81548173ffffffffffffffffffffffffffffffffffffffff021916908373ffffffffffffffffffffffffffffffffffffffff160217905550600660009054906101000a900473ffffffffffffffffffffffffffffffffffffffff16600f60006101000a81548173ffffffffffffffffffffffffffffffffffffffff021916908373ffffffffffffffffffffffffffffffffffffffff160217905550600c60009054906101000a900473ffffffffffffffffffffffffffffffffffffffff16601160006101000a81548173ffffffffffffffffffffffffffffffffffffffff021916908373ffffffffffffffffffffffffffffffffffffffff160217905550600260003373ffffffffffffffffffffffffffffffffffffffff1673ffffffffffffffffffffffffffffffffffffffff1681526020019081526020016000206000898152602001908152602001600020549350600384815481101515614d5057fe5b90600052602060002090600702016002019250600f60009054906101000a900473ffffffffffffffffffffffffffffffffffffffff1673ffffffffffffffffffffffffffffffffffffffff1663ec9ccfff89600060405160a001526040518263ffffffff167c01000000000000000000000000000000000000000000000000000000000281526004018082815260200191505060a060405180830381600087803b1515614dfc57600080fd5b6102c65a03f11515614e0d57600080fd5b5050506040518051906020018051906020018051906020018051906020018051905090919293508360ff16935090915090505080925050614ea0888385805480602002602001604051908101604052809291908181526020018280548015614e9457602002820191906000526020600020905b815481526020019060010190808311614e80575b5050505050878a615136565b614ead8883898988614365565b86600385815481101515614ebd57fe5b90600052602060002090600702016002019080519060200190614ee19291906157df565b50601160009054906101000a900473ffffffffffffffffffffffffffffffffffffffff1673ffffffffffffffffffffffffffffffffffffffff1663ceeb6f1b338a886000604051602001526040518463ffffffff167c0100000000000000000000000000000000000000000000000000000000028152600401808473ffffffffffffffffffffffffffffffffffffffff1673ffffffffffffffffffffffffffffffffffffffff1681526020018381526020018281526020019350505050602060405180830381600087803b1515614fb757600080fd5b6102c65a03f11515614fc857600080fd5b50505060405180519050905084600385815481101515614fe457fe5b9060005260206000209060070201600501819055508060038581548110151561500957fe5b9060005260206000209060070201600601819055505050505050505050565b60008060008060008060038981548110151561504057fe5b9060005260206000209060070201600201945060146000898152602001908152602001600020805490509350600092505b848054905083101561510f576000915086858481548110151561509057fe5b9060005260206000209001541415156150a857600080fd5b6001830190505b828401811115156150ec576150dd8286838154811015156150cc57fe5b9060005260206000209001546132fa565b915080806001019150506150af565b6151006150fa836064613318565b85613353565b95506001848401019250615071565b50505050509392505050565b600061512a60045460016132fa565b90508060048190555090565b600080600080600088141561542957600093505b865184101561542457600092506001840191505b838501821115156151995761518a83888481518110151561517b57fe5b906020019060200201516132fa565b9250818060010192505061515e565b6151ad6151a7846064613318565b86613353565b90506152e66000808b81526020019081526020016000206000016000600d60009054906101000a900473ffffffffffffffffffffffffffffffffffffffff1673ffffffffffffffffffffffffffffffffffffffff1663beae32ba336000604051602001526040518263ffffffff167c0100000000000000000000000000000000000000000000000000000000028152600401808273ffffffffffffffffffffffffffffffffffffffff1673ffffffffffffffffffffffffffffffffffffffff168152602001915050602060405180830381600087803b151561528e57600080fd5b6102c65a03f1151561529f57600080fd5b505050604051805190508152602001908152602001600020600089878151811015156152c757fe5b906020019060200201518152602001908152602001600020548261336e565b6000808b81526020019081526020016000206000016000600d60009054906101000a900473ffffffffffffffffffffffffffffffffffffffff1673ffffffffffffffffffffffffffffffffffffffff1663beae32ba336000604051602001526040518263ffffffff167c0100000000000000000000000000000000000000000000000000000000028152600401808273ffffffffffffffffffffffffffffffffffffffff1673ffffffffffffffffffffffffffffffffffffffff168152602001915050602060405180830381600087803b15156153c257600080fd5b6102c65a03f115156153d357600080fd5b505050604051805190508152602001908152602001600020600089878151811015156153fb57fe5b90602001906020020151815260200190815260200160002081905550600185850101935061514a565b615695565b6155626000808b81526020019081526020016000206000016000600d60009054906101000a900473ffffffffffffffffffffffffffffffffffffffff1673ffffffffffffffffffffffffffffffffffffffff1663beae32ba336000604051602001526040518263ffffffff167c0100000000000000000000000000000000000000000000000000000000028152600401808273ffffffffffffffffffffffffffffffffffffffff1673ffffffffffffffffffffffffffffffffffffffff168152602001915050602060405180830381600087803b151561550857600080fd5b6102c65a03f1151561551957600080fd5b505050604051805190508152602001908152602001600020600089600081518110151561554257fe5b90602001906020020151815260200190815260200160002054600161336e565b6000808b81526020019081526020016000206000016000600d60009054906101000a900473ffffffffffffffffffffffffffffffffffffffff1673ffffffffffffffffffffffffffffffffffffffff1663beae32ba336000604051602001526040518263ffffffff167c0100000000000000000000000000000000000000000000000000000000028152600401808273ffffffffffffffffffffffffffffffffffffffff1673ffffffffffffffffffffffffffffffffffffffff168152602001915050602060405180830381600087803b151561563e57600080fd5b6102c65a03f1151561564f57600080fd5b505050604051805190508152602001908152602001600020600089600081518110151561567857fe5b906020019060200201518152602001908152602001600020819055505b505050505050505050565b8154818355818115116156cd576007028160070283600052602060002091820191016156cc919061582c565b5b505050565b82805482825590600052602060002090810192821561570e579160200282015b8281111561570d5782518255916020019190600101906156f2565b5b50905061571b91906158aa565b5090565b828054600181600116156101000203166002900490600052602060002090601f016020900481019282601f1061576057805160ff191683800117855561578e565b8280016001018555821561578e579182015b8281111561578d578251825591602001919060010190615772565b5b50905061579b91906158aa565b5090565b8154818355818115116157c6578183600052602060002091820191016157c591906158aa565b5b505050565b602060405190810160405280600081525090565b82805482825590600052602060002090810192821561581b579160200282015b8281111561581a5782518255916020019190600101906157ff565b5b50905061582891906158aa565b5090565b6158a791905b808211156158a357600080820160006101000a81549073ffffffffffffffffffffffffffffffffffffffff0219169055600182016000905560028201600061587a91906158cf565b600382016000905560048201600090556005820160009055600682016000905550600701615832565b5090565b90565b6158cc91905b808211156158c85760008160009055506001016158b0565b5090565b90565b50805460008255906000526020600020908101906158ed91906158aa565b505600a165627a7a7230582009bc8963cc1a13e0adbc3c92ddf96e539ea918f7c2be47d0f4d9e6c413bbf9630029",
  "source": "/* Copyright (C) 2017 GovBlocks.io\r\n\r\n  This program is free software: you can redistribute it and/or modify\r\n    it under the terms of the GNU General Public License as published by\r\n    the Free Software Foundation, either version 3 of the License, or\r\n    (at your option) any later version.\r\n\r\n  This program is distributed in the hope that it will be useful,\r\n    but WITHOUT ANY WARRANTY; without even the implied warranty of\r\n    MERCHANTABILITY or FITNESS FOR A PARTICULAR PURPOSE.  See the\r\n    GNU General Public License for more details.\r\n\r\n  You should have received a copy of the GNU General Public License\r\n    along with this program.  If not, see http://www.gnu.org/licenses/ */\r\n\r\n\r\npragma solidity ^0.4.8;\r\nimport \"./VotingType.sol\";\r\nimport \"./GovernanceData.sol\";\r\nimport  \"./StandardVotingType.sol\";\r\nimport \"./Master.sol\";\r\n// import \"./BasicToken.sol\";\r\nimport \"./zeppelin-solidity/contracts/token/BasicToken.sol\";\r\n\r\ncontract FeatureWeighted is VotingType\r\n{\r\n    using SafeMath for uint;\r\n    address GDAddress;\r\n    address MRAddress;\r\n    address PCAddress;\r\n    address GBTAddress;\r\n    address BTAddress;\r\n    address public masterAddress;\r\n    address SVTAddress;\r\n    MemberRoles MR;\r\n    ProposalCategory PC;\r\n    GovernanceData GD;\r\n    MintableToken MT;\r\n    StandardVotingType SVT;\r\n    BasicToken BT;\r\n    Master MS;\r\n    uint8 constructorCheck;\r\n    mapping(uint=>uint[]) allProposalFeatures;\r\n\r\n    function FeatureWeightedInitiate()\r\n    {\r\n        require(constructorCheck == 0);\r\n        uint[] option;\r\n        allVotes.push(proposalVote(0x00,0,option,now,0,0,0));\r\n        votingTypeName = \"Feature Weighted Voting\";\r\n        constructorCheck = 1;\r\n    }\r\n\r\n    modifier onlyInternal {\r\n        MS=Master(masterAddress);\r\n        require(MS.isInternal(msg.sender) == 1);\r\n        _; \r\n    }\r\n\r\n    /// @dev Change master's contract address\r\n    function changeMasterAddress(address _masterContractAddress)\r\n    {\r\n        if(masterAddress == 0x000)\r\n            masterAddress = _masterContractAddress;\r\n        else\r\n        {\r\n            MS=Master(masterAddress);\r\n            require(MS.isInternal(msg.sender) == 1);\r\n                masterAddress = _masterContractAddress;\r\n        }\r\n    }\r\n\r\n    function changeAllContractsAddress(address _BTContractAddress,address _SVTcontractAddress,address _GDcontractAddress, address _MRcontractAddress, address _PCcontractAddress) onlyInternal\r\n    {\r\n        BTAddress = _BTContractAddress;\r\n        SVTAddress = _SVTcontractAddress;\r\n        GDAddress = _GDcontractAddress;\r\n        MRAddress = _MRcontractAddress;\r\n        PCAddress = _PCcontractAddress;\r\n    }\r\n\r\n    /// @dev Changes GBT contract Address. //NEW\r\n    function changeGBTtokenAddress(address _GBTcontractAddress) onlyInternal\r\n    {\r\n        GBTAddress = _GBTcontractAddress;\r\n    }\r\n\r\n    /// @dev Some amount to be paid while using GovBlocks contract service - Approve the contract to spend money on behalf of msg.sender\r\n    function payableGBTTokensFeatureWeighted(uint _TokenAmount) internal\r\n    {\r\n        BT=BasicToken(BTAddress);\r\n        GD=GovernanceData(GDAddress);\r\n        require(_TokenAmount >= GD.GBTStakeValue());\r\n        BT.transfer(GBTAddress,_TokenAmount);\r\n    }\r\n\r\n    function getTotalVotes()  constant returns (uint votesTotal)\r\n    {\r\n        return(allVotes.length);\r\n    }\r\n\r\n    function increaseTotalVotes() internal returns (uint _totalVotes)\r\n    {\r\n        _totalVotes = SafeMath.add(allVotesTotal,1);  \r\n        allVotesTotal=_totalVotes;\r\n    } \r\n\r\n    function getVoteDetailByid(uint _voteid) public constant returns(address voter,uint proposalId,uint[] optionChosen,uint dateSubmit,uint voterTokens,uint voteStakeGBT,uint voteValue)\r\n    {\r\n        return(allVotes[_voteid].voter,allVotes[_voteid].proposalId,allVotes[_voteid].optionChosen,allVotes[_voteid].dateSubmit,allVotes[_voteid].voterTokens,allVotes[_voteid].voteStakeGBT,allVotes[_voteid].voteValue);\r\n    }\r\n\r\n    /// @dev Get the vote count for options of proposal when giving Proposal id and Option index.\r\n    function getProposalVoteAndTokenCountByRoleId(uint _proposalId,uint _roleId,uint _optionIndex) constant returns(uint totalVotes,uint totalToken)\r\n    {\r\n        totalVotes = allProposalVoteAndTokenCount[_proposalId].totalVoteCount[_roleId][_optionIndex];\r\n        totalToken = allProposalVoteAndTokenCount[_proposalId].totalTokenCount[_roleId];\r\n    }\r\n\r\n    function addProposalFeature(uint _proposalId,uint[] _featureArray) \r\n    {\r\n        require(allProposalFeatures[_proposalId].length == 0);\r\n        for(uint i=0; i<_featureArray.length; i++)\r\n        {\r\n            allProposalFeatures[_proposalId].push(_featureArray[i]);\r\n        }    \r\n    }\r\n\r\n    function getMaxLength(uint _verdictOptions,uint _featureLength) internal returns (uint maxLength)\r\n    {\r\n        if(_verdictOptions < _featureLength)\r\n            maxLength = _featureLength;\r\n        else\r\n            maxLength = _verdictOptions;\r\n    }\r\n\r\n    function addInTotalVotes(uint _proposalId,uint[] _optionChosen,uint _GBTPayableTokenAmount,uint _finalVoteValue) internal\r\n    {\r\n        increaseTotalVotes();\r\n        allVotes.push(proposalVote(msg.sender,_proposalId,_optionChosen,now,GD.getBalanceOfMember(msg.sender),_GBTPayableTokenAmount,_finalVoteValue));\r\n    }\r\n\r\n    function addVerdictOption(uint _proposalId,uint[] _paramInt,bytes32[] _paramBytes32,address[] _paramAddress,uint _GBTPayableTokenAmount)\r\n    {\r\n        SVT.addVerdictOptionSVT(_proposalId,msg.sender,2,_paramInt,_paramBytes32,_paramAddress,_GBTPayableTokenAmount);\r\n        payableGBTTokensFeatureWeighted(_GBTPayableTokenAmount);\r\n    }\r\n\r\n    function proposalVoting(uint _proposalId,uint[] _optionChosen,uint _GBTPayableTokenAmount)\r\n    {    \r\n        GD=GovernanceData(GDAddress);\r\n        MR=MemberRoles(MRAddress);\r\n        PC=ProposalCategory(PCAddress);\r\n        SVT=StandardVotingType(SVTAddress);\r\n\r\n        uint voteValue; uint voteLength;\r\n        uint currentVotingId; uint category; uint intermediateVerdict;\r\n        uint featureLength = allProposalFeatures[_proposalId].length;\r\n        (category,currentVotingId,intermediateVerdict,,) = GD.getProposalDetailsById2(_proposalId);\r\n\r\n        require(GD.getBalanceOfMember(msg.sender) != 0 && GD.getProposalStatus(_proposalId) == 2 && _optionChosen.length <=  SafeMath.mul(featureLength+1,GD.getTotalVerdictOptions(_proposalId)));\r\n        require(MR.getMemberRoleIdByAddress(msg.sender) == PC.getRoleSequencAtIndex(category,currentVotingId));\r\n\r\n        if(currentVotingId == 0)\r\n        {\r\n            for(uint i=0; i<_optionChosen.length; i++)\r\n            {\r\n                require(_optionChosen[i] <= getMaxLength(GD.getTotalVerdictOptions(_proposalId),featureLength));\r\n            }\r\n        }   \r\n        else\r\n            require(_optionChosen[0]==intermediateVerdict || _optionChosen[0]==0);\r\n\r\n        if(AddressProposalVote[msg.sender][_proposalId] == 0)\r\n        {\r\n            voteLength = getTotalVotes();\r\n            submitAndUpdateNewMemberVote(_proposalId,currentVotingId,_optionChosen,featureLength,voteLength);\r\n            uint finalVoteValue = SVT.setVoteValue_givenByMember(msg.sender,_proposalId,_GBTPayableTokenAmount);\r\n            allProposalVoteAndTokenCount[_proposalId].totalTokenCount[MR.getMemberRoleIdByAddress(msg.sender)] = SafeMath.add(allProposalVoteAndTokenCount[_proposalId].totalTokenCount[MR.getMemberRoleIdByAddress(msg.sender)],GD.getBalanceOfMember(msg.sender));\r\n            AddressProposalVote[msg.sender][_proposalId] = voteLength;\r\n            ProposalRoleVote[_proposalId][MR.getMemberRoleIdByAddress(msg.sender)].push(voteLength);\r\n            GD.setVoteIdAgainstProposal(_proposalId,voteLength);\r\n            addInTotalVotes(_proposalId,_optionChosen,_GBTPayableTokenAmount,finalVoteValue);\r\n\r\n        }\r\n        else \r\n            changeMemberVote(_proposalId,_optionChosen,featureLength,_GBTPayableTokenAmount);\r\n    }\r\n\r\n    function changeMemberVote(uint _proposalId,uint[] _optionChosen,uint featureLength,uint _GBTPayableTokenAmount) internal\r\n    {\r\n        MR=MemberRoles(MRAddress);\r\n        GD=GovernanceData(GDAddress);\r\n        SVT=StandardVotingType(SVTAddress);\r\n\r\n        uint voteId = AddressProposalVote[msg.sender][_proposalId];\r\n        uint[] optionChosen = allVotes[voteId].optionChosen;\r\n        uint currentVotingId;\r\n        (,currentVotingId,,,) = GD.getProposalDetailsById2(_proposalId);\r\n\r\n        revertChangesInMemberVote(_proposalId,currentVotingId,optionChosen,voteId,featureLength);\r\n        submitAndUpdateNewMemberVote(_proposalId,currentVotingId,_optionChosen,featureLength,voteId);\r\n        allVotes[voteId].optionChosen = _optionChosen;\r\n        \r\n        uint finalVoteValue = SVT.setVoteValue_givenByMember(msg.sender,_proposalId,_GBTPayableTokenAmount);\r\n        allVotes[voteId].voteStakeGBT = _GBTPayableTokenAmount;\r\n        allVotes[voteId].voteValue = finalVoteValue;\r\n\r\n    }\r\n\r\n    function revertChangesInMemberVote(uint _proposalId,uint currentVotingId,uint[] optionChosen,uint voteId,uint featureLength) internal\r\n    {\r\n        if(currentVotingId == 0)\r\n        {\r\n            for(uint i=0; i<optionChosen.length; i=i+featureLength+1)\r\n            {\r\n                uint sum =0;      \r\n                for(uint j=i+1; j<=featureLength+i; j++)\r\n                {\r\n                    sum = SafeMath.add(sum,optionChosen[j]);\r\n                }\r\n                uint voteValue = SafeMath.div(SafeMath.mul(sum,100),featureLength);\r\n                allProposalVoteAndTokenCount[_proposalId].totalVoteCount[MR.getMemberRoleIdByAddress(msg.sender)][optionChosen[i]] = SafeMath.sub(allProposalVoteAndTokenCount[_proposalId].totalVoteCount[MR.getMemberRoleIdByAddress(msg.sender)][optionChosen[i]],voteValue);  \r\n            }\r\n        }\r\n        else\r\n        {\r\n            allProposalVoteAndTokenCount[_proposalId].totalVoteCount[MR.getMemberRoleIdByAddress(msg.sender)][optionChosen[0]] = SafeMath.sub(allProposalVoteAndTokenCount[_proposalId].totalVoteCount[MR.getMemberRoleIdByAddress(msg.sender)][optionChosen[0]],1);\r\n        }\r\n    }\r\n\r\n    function submitAndUpdateNewMemberVote(uint _proposalId,uint currentVotingId,uint[] _optionChosen,uint _featureLength,uint _voteId) internal\r\n    {\r\n        if(currentVotingId == 0)\r\n        {\r\n            for(uint i=0; i<_optionChosen.length; i=i+_featureLength+1)\r\n            {\r\n                uint sum =0;\r\n                require(msg.sender != GD.getOptionAddressByProposalId(_proposalId,i));\r\n\r\n                for(uint j=i+1; j<=_featureLength+i; j++)\r\n                {\r\n                    sum = SafeMath.add(sum,_optionChosen[j]);\r\n                }\r\n                uint voteValue = SafeMath.div(SafeMath.mul(sum,100),_featureLength);\r\n                allProposalVoteAndTokenCount[_proposalId].totalVoteCount[MR.getMemberRoleIdByAddress(msg.sender)][_optionChosen[i]] = SafeMath.add(allProposalVoteAndTokenCount[_proposalId].totalVoteCount[MR.getMemberRoleIdByAddress(msg.sender)][_optionChosen[i]],voteValue);\r\n            }\r\n        }  \r\n        else\r\n        {\r\n            allProposalVoteAndTokenCount[_proposalId].totalVoteCount[MR.getMemberRoleIdByAddress(msg.sender)][_optionChosen[0]] = SafeMath.add(allProposalVoteAndTokenCount[_proposalId].totalVoteCount[MR.getMemberRoleIdByAddress(msg.sender)][_optionChosen[0]],1);\r\n        }\r\n    }\r\n\r\n    function closeProposalVote(uint _proposalId)\r\n    {\r\n        SVT=StandardVotingType(SVTAddress);\r\n        SVT.closeProposalVoteSVT(msg.sender,2,_proposalId);\r\n    }\r\n     \r\n    function giveReward_afterFinalDecision(uint _proposalId) public\r\n    {\r\n        GD=GovernanceData(GDAddress);\r\n        uint voteValueFavour; uint voterStake; uint wrongOptionStake;\r\n        uint totalVoteValue; uint totalTokenToDistribute;uint returnTokens;\r\n        uint8 finalVerdict;  \r\n        uint _featureLength = allProposalFeatures[_proposalId].length;\r\n\r\n        (,,,finalVerdict,) = GD.getProposalDetailsById2(_proposalId);\r\n\r\n        for(uint i=0; i<GD.getTotalVoteLengthAgainstProposal(_proposalId); i++)\r\n        {\r\n            uint voteid = GD.getVoteIdByProposalId(_proposalId,i);\r\n            if(allVotes[voteid].optionChosen[0] == finalVerdict)\r\n            {\r\n                voteValueFavour = SafeMath.add(voteValueFavour,allVotes[voteid].voteValue);\r\n            }\r\n            else\r\n            {\r\n                voterStake = SafeMath.add(voterStake,SafeMath.mul(allVotes[voteid].voteStakeGBT,(SafeMath.div(SafeMath.mul(1,100),GD.globalRiskFactor()))));\r\n                returnTokens = SafeMath.mul(allVotes[voteid].voteStakeGBT,(SafeMath.sub(1,(SafeMath.div(SafeMath.mul(1,100),GD.globalRiskFactor())))));\r\n                GD.transferBackGBTtoken(allVotes[voteid].voter,returnTokens);\r\n            }\r\n\r\n            // uint voteid = GD.getVoteIdByProposalId(_proposalId,i);\r\n            // for(uint j=0; j<allVotes[voteid].verdictChosen.length; j=i+_featureLength+1)\r\n            // {\r\n            //     if(allVotes[voteid].verdictChosen[j] == finalVerdict)\r\n            //     {\r\n            //         voteValueFavour = SafeMath.add(voteValueFavour,allVotes[voteid].voteValue)+getOptionValue1(voteid,_proposalId,j);\r\n            //     }\r\n            //     else\r\n            //     {\r\n            //         voterStake = SafeMath.add(voterStake,SafeMath.mul(allVotes[voteid].voteStakeGBT,(SafeMath.div(SafeMath.mul(1,100),GD.globalRiskFactor())))) + getOptionValue1(voteid,_proposalId,j);\r\n            //         returnTokens = SafeMath.mul(allVotes[voteid].voteStakeGBT,(SafeMath.sub(1,(SafeMath.div(SafeMath.mul(1,100),GD.globalRiskFactor())))));\r\n            //         GD.transferBackGBTtoken(allVotes[voteid].voter,returnTokens);\r\n            //     }\r\n            // }\r\n        }\r\n\r\n        for(i=0; i<GD.getOptionAddedAddressLength(_proposalId); i++)\r\n        {\r\n            if(i!= finalVerdict)  \r\n                wrongOptionStake = SafeMath.add(wrongOptionStake,GD.getOptionStakeByProposalId(_proposalId,i));\r\n        }\r\n\r\n        totalVoteValue = SafeMath.add(GD.getOptionValueByProposalId(_proposalId,finalVerdict),voteValueFavour);\r\n        totalTokenToDistribute = SafeMath.add(wrongOptionStake,voterStake);\r\n\r\n        if(finalVerdict>0)\r\n            totalVoteValue = SafeMath.add(totalVoteValue,GD.getProposalValue(_proposalId));\r\n        else\r\n            totalTokenToDistribute = SafeMath.add(totalTokenToDistribute,GD.getProposalStake(_proposalId));\r\n\r\n        distributeReward(_proposalId,totalTokenToDistribute,totalVoteValue);\r\n    }\r\n\r\n    function distributeReward(uint _proposalId,uint _totalTokenToDistribute,uint _totalVoteValue) internal\r\n    {\r\n        uint reward;uint transferToken;\r\n        uint8 finalVerdict;\r\n        (,,,finalVerdict,) = GD.getProposalDetailsById2(_proposalId);\r\n         uint addMemberPoints; uint subMemberPoints;\r\n        (,,addMemberPoints,,,subMemberPoints)=GD.getMemberReputationPoints();\r\n\r\n        if(finalVerdict > 0)\r\n        {\r\n            reward = SafeMath.div(SafeMath.mul(GD.getProposalStake(_proposalId),_totalTokenToDistribute),_totalVoteValue);\r\n            transferToken = SafeMath.add(GD.getProposalStake(_proposalId),reward);\r\n            GD.transferBackGBTtoken(GD.getProposalOwner(_proposalId),transferToken);\r\n\r\n            address verdictOwner = GD.getOptionAddressByProposalId(_proposalId,finalVerdict);\r\n            uint verdictStake = GD.getOptionStakeByProposalId(_proposalId,finalVerdict);\r\n            reward = SafeMath.div(SafeMath.mul(verdictStake,_totalTokenToDistribute),_totalVoteValue);\r\n            transferToken = SafeMath.add(verdictStake,reward);\r\n            GD.transferBackGBTtoken(verdictOwner,transferToken);\r\n        }\r\n\r\n        for(uint i=0; i<GD.getTotalVoteLengthAgainstProposal(_proposalId); i++)\r\n        {\r\n            uint voteid = GD.getVoteIdByProposalId(_proposalId,i);\r\n            if(getOptionValue(voteid,_proposalId,finalVerdict) != 0)\r\n            {\r\n                reward = SafeMath.div(SafeMath.mul(allVotes[voteid].voteValue,_totalTokenToDistribute),_totalVoteValue);\r\n                transferToken = SafeMath.add(allVotes[voteid].voteStakeGBT,reward);\r\n                GD.transferBackGBTtoken(allVotes[voteid].voter,transferToken);\r\n                GD.updateMemberReputation1(allVotes[voteid].voter,SafeMath.add(GD.getMemberReputation(allVotes[voteid].voter),addMemberPoints));\r\n            }\r\n            else\r\n            {\r\n                GD.updateMemberReputation1(allVotes[voteid].voter,SafeMath.sub(GD.getMemberReputation(allVotes[voteid].voter),subMemberPoints));\r\n            }  \r\n        }\r\n        GD.updateMemberReputation(_proposalId,finalVerdict);\r\n    }\r\n\r\n    function getOptionValue(uint _voteid,uint _proposalId,uint _finalVerdict) internal returns (uint optionValue)\r\n    {\r\n        uint[] _optionChosen = allVotes[_voteid].optionChosen;\r\n        uint _featureLength = allProposalFeatures[_proposalId].length;\r\n\r\n        for(uint i=0; i<_optionChosen.length; i=i+_featureLength+1)\r\n        {\r\n            uint sum=0;\r\n            require(_optionChosen[i] == _finalVerdict);\r\n                for(uint j=i+1; j<=_featureLength+i; j++)\r\n                {\r\n                    sum = SafeMath.add(sum,_optionChosen[j]);\r\n                }\r\n                optionValue = SafeMath.div(SafeMath.mul(sum,100),_featureLength);\r\n        }\r\n    }\r\n\r\n    function getOptionValue1(uint _voteid,uint _proposalId,uint _optionIndex) internal returns (uint optionValue)\r\n    {   \r\n        uint[] _optionChosen = allVotes[_voteid].optionChosen;\r\n        uint _featureLength = allProposalFeatures[_proposalId].length; uint sum;\r\n\r\n        for(uint j=_optionIndex+1; j<=_featureLength+_optionIndex; j++)\r\n        {\r\n            sum = SafeMath.add(sum,_optionChosen[j]);\r\n        }\r\n        optionValue = SafeMath.div(SafeMath.mul(sum,100),_featureLength);\r\n    }\r\n}\r\n",
  "sourcePath": "D:\\RUCHITA\\Govblocks-Git\\contracts\\FeatureWeighted.sol",
  "compiler": {
    "name": "solc",
    "version": "0.4.18+commit.9cf6e910.Emscripten.clang"
  },
  "schemaVersion": "1.0.1",
  "updatedAt": "2018-01-30T10:36:00.271Z"
}