{
  "contractName": "FeatureWeighted",
  "abi": [
    {
      "constant": false,
      "inputs": [
        {
          "name": "_G1ContractAddress",
          "type": "address"
        }
      ],
      "name": "changeGovernanceAddress",
      "outputs": [],
      "payable": false,
      "stateMutability": "nonpayable",
      "type": "function"
    },
    {
      "constant": false,
      "inputs": [
        {
          "name": "_proposalId",
          "type": "uint256"
        }
      ],
      "name": "giveReward_afterFinalDecision",
      "outputs": [],
      "payable": false,
      "stateMutability": "nonpayable",
      "type": "function"
    },
    {
      "constant": false,
      "inputs": [
        {
          "name": "_GBTcontractAddress",
          "type": "address"
        }
      ],
      "name": "changeGBTtokenAddress",
      "outputs": [],
      "payable": false,
      "stateMutability": "nonpayable",
      "type": "function"
    },
    {
      "constant": false,
      "inputs": [],
      "name": "FeatureWeightedInitiate",
      "outputs": [],
      "payable": false,
      "stateMutability": "nonpayable",
      "type": "function"
    },
    {
      "constant": false,
      "inputs": [
        {
          "name": "_BTContractAddress",
          "type": "address"
        },
        {
          "name": "_SVTcontractAddress",
          "type": "address"
        },
        {
          "name": "_GDcontractAddress",
          "type": "address"
        },
        {
          "name": "_MRcontractAddress",
          "type": "address"
        },
        {
          "name": "_PCcontractAddress",
          "type": "address"
        }
      ],
      "name": "changeAllContractsAddress",
      "outputs": [],
      "payable": false,
      "stateMutability": "nonpayable",
      "type": "function"
    },
    {
      "constant": false,
      "inputs": [
        {
          "name": "_proposalId",
          "type": "uint256"
        },
        {
          "name": "_featureArray",
          "type": "uint256[]"
        }
      ],
      "name": "addProposalFeature",
      "outputs": [],
      "payable": false,
      "stateMutability": "nonpayable",
      "type": "function"
    },
    {
      "constant": true,
      "inputs": [
        {
          "name": "_proposalId",
          "type": "uint256"
        },
        {
          "name": "_roleId",
          "type": "uint256"
        },
        {
          "name": "_optionIndex",
          "type": "uint256"
        }
      ],
      "name": "getProposalVoteAndTokenCountByRoleId",
      "outputs": [
        {
          "name": "totalVotes",
          "type": "uint256"
        },
        {
          "name": "totalToken",
          "type": "uint256"
        }
      ],
      "payable": false,
      "stateMutability": "view",
      "type": "function"
    },
    {
      "constant": false,
      "inputs": [
        {
          "name": "_memberAddress",
          "type": "address"
        },
        {
          "name": "_proposalId",
          "type": "uint256"
        },
        {
          "name": "_voteLength",
          "type": "uint256"
        }
      ],
      "name": "setVoteId_againstMember",
      "outputs": [],
      "payable": false,
      "stateMutability": "nonpayable",
      "type": "function"
    },
    {
      "constant": true,
      "inputs": [
        {
          "name": "_voteid",
          "type": "uint256"
        }
      ],
      "name": "getVoteDetailByid",
      "outputs": [
        {
          "name": "voter",
          "type": "address"
        },
        {
          "name": "proposalId",
          "type": "uint256"
        },
        {
          "name": "optionChosen",
          "type": "uint256[]"
        },
        {
          "name": "dateSubmit",
          "type": "uint256"
        },
        {
          "name": "voterTokens",
          "type": "uint256"
        },
        {
          "name": "voteStakeGBT",
          "type": "uint256"
        },
        {
          "name": "voteValue",
          "type": "uint256"
        }
      ],
      "payable": false,
      "stateMutability": "view",
      "type": "function"
    },
    {
      "constant": true,
      "inputs": [],
      "name": "allVotesTotal",
      "outputs": [
        {
          "name": "",
          "type": "uint256"
        }
      ],
      "payable": false,
      "stateMutability": "view",
      "type": "function"
    },
    {
      "constant": false,
      "inputs": [
        {
          "name": "_proposalId",
          "type": "uint256"
        },
        {
          "name": "_optionChosen",
          "type": "uint256[]"
        },
        {
          "name": "_GBTPayableTokenAmount",
          "type": "uint256"
        }
      ],
      "name": "proposalVoting",
      "outputs": [],
      "payable": false,
      "stateMutability": "nonpayable",
      "type": "function"
    },
    {
      "constant": true,
      "inputs": [],
      "name": "getTotalVotes",
      "outputs": [
        {
          "name": "votesTotal",
          "type": "uint256"
        }
      ],
      "payable": false,
      "stateMutability": "view",
      "type": "function"
    },
    {
      "constant": false,
      "inputs": [
        {
          "name": "_proposalId",
          "type": "uint256"
        },
        {
          "name": "_paramInt",
          "type": "uint256[]"
        },
        {
          "name": "_paramBytes32",
          "type": "bytes32[]"
        },
        {
          "name": "_paramAddress",
          "type": "address[]"
        },
        {
          "name": "_GBTPayableTokenAmount",
          "type": "uint256"
        },
        {
          "name": "_optionHash",
          "type": "string"
        }
      ],
      "name": "addVerdictOption",
      "outputs": [],
      "payable": false,
      "stateMutability": "nonpayable",
      "type": "function"
    },
    {
      "constant": true,
      "inputs": [
        {
          "name": "_proposalId",
          "type": "uint256"
        },
        {
          "name": "_roleId",
          "type": "uint256"
        },
        {
          "name": "_optionIndex",
          "type": "uint256"
        }
      ],
      "name": "getVotesbyOption_againstProposal",
      "outputs": [
        {
          "name": "totalVotes",
          "type": "uint256"
        }
      ],
      "payable": false,
      "stateMutability": "view",
      "type": "function"
    },
    {
      "constant": false,
      "inputs": [
        {
          "name": "_proposalId",
          "type": "uint256"
        }
      ],
      "name": "closeProposalVote",
      "outputs": [],
      "payable": false,
      "stateMutability": "nonpayable",
      "type": "function"
    },
    {
      "constant": true,
      "inputs": [],
      "name": "masterAddress",
      "outputs": [
        {
          "name": "",
          "type": "address"
        }
      ],
      "payable": false,
      "stateMutability": "view",
      "type": "function"
    },
    {
      "constant": false,
      "inputs": [
        {
          "name": "_masterContractAddress",
          "type": "address"
        }
      ],
      "name": "changeMasterAddress",
      "outputs": [],
      "payable": false,
      "stateMutability": "nonpayable",
      "type": "function"
    },
    {
      "constant": true,
      "inputs": [
        {
          "name": "_memberAddress",
          "type": "address"
        },
        {
          "name": "_proposalId",
          "type": "uint256"
        }
      ],
      "name": "getVoteId_againstMember",
      "outputs": [
        {
          "name": "voteId",
          "type": "uint256"
        }
      ],
      "payable": false,
      "stateMutability": "view",
      "type": "function"
    },
    {
      "constant": true,
      "inputs": [],
      "name": "votingTypeName",
      "outputs": [
        {
          "name": "",
          "type": "string"
        }
      ],
      "payable": false,
      "stateMutability": "view",
      "type": "function"
    }
  ],
  "bytecode": "0x6060604052341561000f57600080fd5b615b8c806200001f6000396000f300606060405260043610610107576000357c0100000000000000000000000000000000000000000000000000000000900463ffffffff1680630636769e1461010c5780630a256ae1146101455780630df34cdb14610168578063214a9cf7146101a15780632e95cfb9146101b6578063414a83801461026b5780634a261ce3146102ce57806361a0c0201461031e57806366cf51de1461036957806379098c641461043757806389d92241146104605780639a0e7d66146104cc5780639f216e8e146104f5578063a17d5b0a14610624578063c46994ce1461066d578063d365a08e14610690578063d46655f4146106e5578063eef83a4b1461071e578063f8eb64b214610774575b600080fd5b341561011757600080fd5b610143600480803573ffffffffffffffffffffffffffffffffffffffff16906020019091905050610802565b005b341561015057600080fd5b6101666004808035906020019091905050610846565b005b341561017357600080fd5b61019f600480803573ffffffffffffffffffffffffffffffffffffffff1690602001909190505061132c565b005b34156101ac57600080fd5b6101b46114c1565b005b34156101c157600080fd5b610269600480803573ffffffffffffffffffffffffffffffffffffffff1690602001909190803573ffffffffffffffffffffffffffffffffffffffff1690602001909190803573ffffffffffffffffffffffffffffffffffffffff1690602001909190803573ffffffffffffffffffffffffffffffffffffffff1690602001909190803573ffffffffffffffffffffffffffffffffffffffff169060200190919050506116ac565b005b341561027657600080fd5b6102cc600480803590602001909190803590602001908201803590602001908080602002602001604051908101604052809392919081815260200183836020028082843782019150505050505091905050611949565b005b34156102d957600080fd5b61030160048080359060200190919080359060200190919080359060200190919050506119e0565b604051808381526020018281526020019250505060405180910390f35b341561032957600080fd5b610367600480803573ffffffffffffffffffffffffffffffffffffffff16906020019091908035906020019091908035906020019091905050611a4e565b005b341561037457600080fd5b61038a6004808035906020019091905050611aa8565b604051808873ffffffffffffffffffffffffffffffffffffffff1673ffffffffffffffffffffffffffffffffffffffff16815260200187815260200180602001868152602001858152602001848152602001838152602001828103825287818151815260200191508051906020019060200280838360005b8381101561041d578082015181840152602081019050610402565b505050509050019850505050505050505060405180910390f35b341561044257600080fd5b61044a611c2a565b6040518082815260200191505060405180910390f35b341561046b57600080fd5b6104ca600480803590602001909190803590602001908201803590602001908080602002602001604051908101604052809392919081815260200183836020028082843782019150505050505091908035906020019091905050611c30565b005b34156104d757600080fd5b6104df612bca565b6040518082815260200191505060405180910390f35b341561050057600080fd5b610622600480803590602001909190803590602001908201803590602001908080602002602001604051908101604052809392919081815260200183836020028082843782019150505050505091908035906020019082018035906020019080806020026020016040519081016040528093929190818152602001838360200280828437820191505050505050919080359060200190820180359060200190808060200260200160405190810160405280939291908181526020018383602002808284378201915050505050509190803590602001909190803590602001908201803590602001908080601f01602080910402602001604051908101604052809392919081815260200183838082843782019150505050505091905050612bd7565b005b341561062f57600080fd5b6106576004808035906020019091908035906020019091908035906020019091905050612e19565b6040518082815260200191505060405180910390f35b341561067857600080fd5b61068e6004808035906020019091905050612e5c565b005b341561069b57600080fd5b6106a3612fa3565b604051808273ffffffffffffffffffffffffffffffffffffffff1673ffffffffffffffffffffffffffffffffffffffff16815260200191505060405180910390f35b34156106f057600080fd5b61071c600480803573ffffffffffffffffffffffffffffffffffffffff16906020019091905050612fc9565b005b341561072957600080fd5b61075e600480803573ffffffffffffffffffffffffffffffffffffffff169060200190919080359060200190919050506131e6565b6040518082815260200191505060405180910390f35b341561077f57600080fd5b610787613241565b6040518080602001828103825283818151815260200191508051906020019080838360005b838110156107c75780820151818401526020810190506107ac565b50505050905090810190601f1680156107f45780820380516001836020036101000a031916815260200191505b509250505060405180910390f35b80600d60006101000a81548173ffffffffffffffffffffffffffffffffffffffff021916908373ffffffffffffffffffffffffffffffffffffffff16021790555050565b600080600080600080600080600080600660009054906101000a900473ffffffffffffffffffffffffffffffffffffffff16601160006101000a81548173ffffffffffffffffffffffffffffffffffffffff021916908373ffffffffffffffffffffffffffffffffffffffff160217905550600d60009054906101000a900473ffffffffffffffffffffffffffffffffffffffff16600e60006101000a81548173ffffffffffffffffffffffffffffffffffffffff021916908373ffffffffffffffffffffffffffffffffffffffff160217905550601560008c8152602001908152602001600020805490509250601160009054906101000a900473ffffffffffffffffffffffffffffffffffffffff1673ffffffffffffffffffffffffffffffffffffffff1663ec9ccfff8c600060405160a001526040518263ffffffff167c01000000000000000000000000000000000000000000000000000000000281526004018082815260200191505060a060405180830381600087803b15156109cd57600080fd5b6102c65a03f115156109de57600080fd5b505050604051805190602001805190602001805190602001805190602001805190509091929350909192509091505080945050600091505b601160009054906101000a900473ffffffffffffffffffffffffffffffffffffffff1673ffffffffffffffffffffffffffffffffffffffff166393a6b05f8c6000604051602001526040518263ffffffff167c010000000000000000000000000000000000000000000000000000000002815260040180828152602001915050602060405180830381600087803b1515610aaf57600080fd5b6102c65a03f11515610ac057600080fd5b50505060405180519050821015610f0d57601160009054906101000a900473ffffffffffffffffffffffffffffffffffffffff1673ffffffffffffffffffffffffffffffffffffffff166372a5f4d48c846000604051602001526040518363ffffffff167c01000000000000000000000000000000000000000000000000000000000281526004018083815260200182815260200192505050602060405180830381600087803b1515610b7257600080fd5b6102c65a03f11515610b8357600080fd5b5050506040518051905090508360ff16600382815481101515610ba257fe5b90600052602060002090600702016002016000815481101515610bc157fe5b9060005260206000209001541415610c0457610bfd8a600383815481101515610be657fe5b9060005260206000209060070201600601546132df565b9950610f00565b610cf389610cee600384815481101515610c1a57fe5b906000526020600020906007020160050154610ce9610c3b600160646132fd565b601160009054906101000a900473ffffffffffffffffffffffffffffffffffffffff1673ffffffffffffffffffffffffffffffffffffffff1663ad3208466000604051602001526040518163ffffffff167c0100000000000000000000000000000000000000000000000000000000028152600401602060405180830381600087803b1515610cc957600080fd5b6102c65a03f11515610cda57600080fd5b50505060405180519050613338565b6132fd565b6132df565b9850610de5600382815481101515610d0757fe5b906000526020600020906007020160050154610de06001610ddb610d2d600160646132fd565b601160009054906101000a900473ffffffffffffffffffffffffffffffffffffffff1673ffffffffffffffffffffffffffffffffffffffff1663ad3208466000604051602001526040518163ffffffff167c0100000000000000000000000000000000000000000000000000000000028152600401602060405180830381600087803b1515610dbb57600080fd5b6102c65a03f11515610dcc57600080fd5b50505060405180519050613338565b613353565b6132fd565b9450600e60009054906101000a900473ffffffffffffffffffffffffffffffffffffffff1673ffffffffffffffffffffffffffffffffffffffff1663649db80b600383815481101515610e3457fe5b906000526020600020906007020160000160009054906101000a900473ffffffffffffffffffffffffffffffffffffffff16876040518363ffffffff167c0100000000000000000000000000000000000000000000000000000000028152600401808373ffffffffffffffffffffffffffffffffffffffff1673ffffffffffffffffffffffffffffffffffffffff16815260200182815260200192505050600060405180830381600087803b1515610eeb57600080fd5b6102c65a03f11515610efc57600080fd5b5050505b8180600101925050610a16565b600091505b601160009054906101000a900473ffffffffffffffffffffffffffffffffffffffff1673ffffffffffffffffffffffffffffffffffffffff1663ad8750418c6000604051602001526040518263ffffffff167c010000000000000000000000000000000000000000000000000000000002815260040180828152602001915050602060405180830381600087803b1515610fab57600080fd5b6102c65a03f11515610fbc57600080fd5b505050604051805190508210156110ae578360ff16821415156110a15761109e88601160009054906101000a900473ffffffffffffffffffffffffffffffffffffffff1673ffffffffffffffffffffffffffffffffffffffff16630ecc69c18e866000604051602001526040518363ffffffff167c01000000000000000000000000000000000000000000000000000000000281526004018083815260200182815260200192505050602060405180830381600087803b151561107e57600080fd5b6102c65a03f1151561108f57600080fd5b505050604051805190506132df565b97505b8180600101925050610f12565b611176601160009054906101000a900473ffffffffffffffffffffffffffffffffffffffff1673ffffffffffffffffffffffffffffffffffffffff1663c066ea868d876000604051602001526040518363ffffffff167c0100000000000000000000000000000000000000000000000000000000028152600401808381526020018260ff16815260200192505050602060405180830381600087803b151561115557600080fd5b6102c65a03f1151561116657600080fd5b505050604051805190508b6132df565b9650611182888a6132df565b955060008460ff1611156112545761124d87601160009054906101000a900473ffffffffffffffffffffffffffffffffffffffff1673ffffffffffffffffffffffffffffffffffffffff1663ba63453f8e6000604051602001526040518263ffffffff167c010000000000000000000000000000000000000000000000000000000002815260040180828152602001915050602060405180830381600087803b151561122d57600080fd5b6102c65a03f1151561123e57600080fd5b505050604051805190506132df565b9650611314565b61131186601160009054906101000a900473ffffffffffffffffffffffffffffffffffffffff1673ffffffffffffffffffffffffffffffffffffffff16633a0fcafc8e6000604051602001526040518263ffffffff167c010000000000000000000000000000000000000000000000000000000002815260040180828152602001915050602060405180830381600087803b15156112f157600080fd5b6102c65a03f1151561130257600080fd5b505050604051805190506132df565b95505b61131f8b878961336c565b5050505050505050505050565b600b60009054906101000a900473ffffffffffffffffffffffffffffffffffffffff16601460006101000a81548173ffffffffffffffffffffffffffffffffffffffff021916908373ffffffffffffffffffffffffffffffffffffffff1602179055506001601460009054906101000a900473ffffffffffffffffffffffffffffffffffffffff1673ffffffffffffffffffffffffffffffffffffffff16638f16c41c336000604051602001526040518263ffffffff167c0100000000000000000000000000000000000000000000000000000000028152600401808273ffffffffffffffffffffffffffffffffffffffff1673ffffffffffffffffffffffffffffffffffffffff168152602001915050602060405180830381600087803b151561145657600080fd5b6102c65a03f1151561146757600080fd5b5050506040518051905014151561147d57600080fd5b80600960006101000a81548173ffffffffffffffffffffffffffffffffffffffff021916908373ffffffffffffffffffffffffffffffffffffffff16021790555050565b6000806014809054906101000a900460ff1660ff161415156114e257600080fd5b600380548060010182816114f69190615910565b9160005260206000209060070201600060e060405190810160405280600073ffffffffffffffffffffffffffffffffffffffff168152602001600081526020018580548060200260200160405190810160405280929190818152602001828054801561158157602002820191906000526020600020905b81548152602001906001019080831161156d575b5050505050815260200142815260200160008152602001600081526020016000815250909190915060008201518160000160006101000a81548173ffffffffffffffffffffffffffffffffffffffff021916908373ffffffffffffffffffffffffffffffffffffffff160217905550602082015181600101556040820151816002019080519060200190611616929190615942565b50606082015181600301556080820151816004015560a0820151816005015560c082015181600601555050506040805190810160405280601781526020017f4665617475726520576569676874656420566f74696e670000000000000000008152506005908051906020019061168d92919061598f565b5060016014806101000a81548160ff021916908360ff16021790555050565b600b60009054906101000a900473ffffffffffffffffffffffffffffffffffffffff16601460006101000a81548173ffffffffffffffffffffffffffffffffffffffff021916908373ffffffffffffffffffffffffffffffffffffffff1602179055506001601460009054906101000a900473ffffffffffffffffffffffffffffffffffffffff1673ffffffffffffffffffffffffffffffffffffffff16638f16c41c336000604051602001526040518263ffffffff167c0100000000000000000000000000000000000000000000000000000000028152600401808273ffffffffffffffffffffffffffffffffffffffff1673ffffffffffffffffffffffffffffffffffffffff168152602001915050602060405180830381600087803b15156117d657600080fd5b6102c65a03f115156117e757600080fd5b505050604051805190501415156117fd57600080fd5b84600a60006101000a81548173ffffffffffffffffffffffffffffffffffffffff021916908373ffffffffffffffffffffffffffffffffffffffff16021790555083600c60006101000a81548173ffffffffffffffffffffffffffffffffffffffff021916908373ffffffffffffffffffffffffffffffffffffffff16021790555082600660006101000a81548173ffffffffffffffffffffffffffffffffffffffff021916908373ffffffffffffffffffffffffffffffffffffffff16021790555081600760006101000a81548173ffffffffffffffffffffffffffffffffffffffff021916908373ffffffffffffffffffffffffffffffffffffffff16021790555080600860006101000a81548173ffffffffffffffffffffffffffffffffffffffff021916908373ffffffffffffffffffffffffffffffffffffffff1602179055505050505050565b600080601560008581526020019081526020016000208054905014151561196f57600080fd5b600090505b81518110156119db576015600084815260200190815260200160002080548060010182816119a29190615a0f565b9160005260206000209001600084848151811015156119bd57fe5b90602001906020020151909190915055508080600101915050611974565b505050565b600080600080868152602001908152602001600020600001600085815260200190815260200160002060008481526020019081526020016000205491506000808681526020019081526020016000206001016000858152602001908152602001600020549050935093915050565b80600260008573ffffffffffffffffffffffffffffffffffffffff1673ffffffffffffffffffffffffffffffffffffffff168152602001908152602001600020600084815260200190815260200160002081905550505050565b600080611ab3615a3b565b600080600080600388815481101515611ac857fe5b906000526020600020906007020160000160009054906101000a900473ffffffffffffffffffffffffffffffffffffffff16600389815481101515611b0957fe5b90600052602060002090600702016001015460038a815481101515611b2a57fe5b906000526020600020906007020160020160038b815481101515611b4a57fe5b90600052602060002090600702016003015460038c815481101515611b6b57fe5b90600052602060002090600702016004015460038d815481101515611b8c57fe5b90600052602060002090600702016005015460038e815481101515611bad57fe5b90600052602060002090600702016006015484805480602002602001604051908101604052809291908181526020018280548015611c0a57602002820191906000526020600020905b815481526020019060010190808311611bf6575b505050505094509650965096509650965096509650919395979092949650565b60045481565b600080600080600080600080600660009054906101000a900473ffffffffffffffffffffffffffffffffffffffff16601160006101000a81548173ffffffffffffffffffffffffffffffffffffffff021916908373ffffffffffffffffffffffffffffffffffffffff160217905550600760009054906101000a900473ffffffffffffffffffffffffffffffffffffffff16600f60006101000a81548173ffffffffffffffffffffffffffffffffffffffff021916908373ffffffffffffffffffffffffffffffffffffffff160217905550600860009054906101000a900473ffffffffffffffffffffffffffffffffffffffff16601060006101000a81548173ffffffffffffffffffffffffffffffffffffffff021916908373ffffffffffffffffffffffffffffffffffffffff160217905550600c60009054906101000a900473ffffffffffffffffffffffffffffffffffffffff16601260006101000a81548173ffffffffffffffffffffffffffffffffffffffff021916908373ffffffffffffffffffffffffffffffffffffffff160217905550601560008c8152602001908152602001600020805490509250601160009054906101000a900473ffffffffffffffffffffffffffffffffffffffff1673ffffffffffffffffffffffffffffffffffffffff1663ec9ccfff8c600060405160a001526040518263ffffffff167c01000000000000000000000000000000000000000000000000000000000281526004018082815260200191505060a060405180830381600087803b1515611e7a57600080fd5b6102c65a03f11515611e8b57600080fd5b505050604051805190602001805190602001805190602001805190602001805190508460ff1694508360ff1693508260ff1692509050508096508198508297505050506000601160009054906101000a900473ffffffffffffffffffffffffffffffffffffffff1673ffffffffffffffffffffffffffffffffffffffff166335c42dbb336000604051602001526040518263ffffffff167c0100000000000000000000000000000000000000000000000000000000028152600401808273ffffffffffffffffffffffffffffffffffffffff1673ffffffffffffffffffffffffffffffffffffffff168152602001915050602060405180830381600087803b1515611f9557600080fd5b6102c65a03f11515611fa657600080fd5b505050604051805190501415801561207157506002601160009054906101000a900473ffffffffffffffffffffffffffffffffffffffff1673ffffffffffffffffffffffffffffffffffffffff1663401853b78d6000604051602001526040518263ffffffff167c010000000000000000000000000000000000000000000000000000000002815260040180828152602001915050602060405180830381600087803b151561205457600080fd5b6102c65a03f1151561206557600080fd5b50505060405180519050145b8015612140575061213b60018401601160009054906101000a900473ffffffffffffffffffffffffffffffffffffffff1673ffffffffffffffffffffffffffffffffffffffff16639a2243ec8e6000604051602001526040518263ffffffff167c010000000000000000000000000000000000000000000000000000000002815260040180828152602001915050602060405180830381600087803b151561211857600080fd5b6102c65a03f1151561212957600080fd5b5050506040518051905060ff166132fd565b8a5111155b151561214b57600080fd5b601060009054906101000a900473ffffffffffffffffffffffffffffffffffffffff1673ffffffffffffffffffffffffffffffffffffffff16639deeab2086886000604051602001526040518363ffffffff167c01000000000000000000000000000000000000000000000000000000000281526004018083815260200182815260200192505050602060405180830381600087803b15156121ec57600080fd5b6102c65a03f115156121fd57600080fd5b50505060405180519050600f60009054906101000a900473ffffffffffffffffffffffffffffffffffffffff1673ffffffffffffffffffffffffffffffffffffffff1663beae32ba336000604051602001526040518263ffffffff167c0100000000000000000000000000000000000000000000000000000000028152600401808273ffffffffffffffffffffffffffffffffffffffff1673ffffffffffffffffffffffffffffffffffffffff168152602001915050602060405180830381600087803b15156122cc57600080fd5b6102c65a03f115156122dd57600080fd5b505050604051805190501415156122f357600080fd5b600086141561240157600091505b89518210156123fc576123ca601160009054906101000a900473ffffffffffffffffffffffffffffffffffffffff1673ffffffffffffffffffffffffffffffffffffffff16639a2243ec8d6000604051602001526040518263ffffffff167c010000000000000000000000000000000000000000000000000000000002815260040180828152602001915050602060405180830381600087803b15156123a657600080fd5b6102c65a03f115156123b757600080fd5b5050506040518051905060ff168461432e565b8a838151811015156123d857fe5b90602001906020020151111515156123ef57600080fd5b8180600101925050612301565b61244b565b838a600081518110151561241157fe5b90602001906020020151148061243f575060008a600081518110151561243357fe5b90602001906020020151145b151561244a57600080fd5b5b6000600260003373ffffffffffffffffffffffffffffffffffffffff1673ffffffffffffffffffffffffffffffffffffffff16815260200190815260200160002060008d8152602001908152602001600020541415612bb0576124ac612bca565b96506124bb8b878c868b61434a565b601260009054906101000a900473ffffffffffffffffffffffffffffffffffffffff1673ffffffffffffffffffffffffffffffffffffffff1663ceeb6f1b338d8c6000604051602001526040518463ffffffff167c0100000000000000000000000000000000000000000000000000000000028152600401808473ffffffffffffffffffffffffffffffffffffffff1673ffffffffffffffffffffffffffffffffffffffff1681526020018381526020018281526020019350505050602060405180830381600087803b151561259057600080fd5b6102c65a03f115156125a157600080fd5b50505060405180519050905061279b6000808d81526020019081526020016000206001016000600f60009054906101000a900473ffffffffffffffffffffffffffffffffffffffff1673ffffffffffffffffffffffffffffffffffffffff1663beae32ba336000604051602001526040518263ffffffff167c0100000000000000000000000000000000000000000000000000000000028152600401808273ffffffffffffffffffffffffffffffffffffffff1673ffffffffffffffffffffffffffffffffffffffff168152602001915050602060405180830381600087803b151561268c57600080fd5b6102c65a03f1151561269d57600080fd5b50505060405180519050815260200190815260200160002054601160009054906101000a900473ffffffffffffffffffffffffffffffffffffffff1673ffffffffffffffffffffffffffffffffffffffff166335c42dbb336000604051602001526040518263ffffffff167c0100000000000000000000000000000000000000000000000000000000028152600401808273ffffffffffffffffffffffffffffffffffffffff1673ffffffffffffffffffffffffffffffffffffffff168152602001915050602060405180830381600087803b151561277b57600080fd5b6102c65a03f1151561278c57600080fd5b505050604051805190506132df565b6000808d81526020019081526020016000206001016000600f60009054906101000a900473ffffffffffffffffffffffffffffffffffffffff1673ffffffffffffffffffffffffffffffffffffffff1663beae32ba336000604051602001526040518263ffffffff167c0100000000000000000000000000000000000000000000000000000000028152600401808273ffffffffffffffffffffffffffffffffffffffff1673ffffffffffffffffffffffffffffffffffffffff168152602001915050602060405180830381600087803b151561287757600080fd5b6102c65a03f1151561288857600080fd5b5050506040518051905081526020019081526020016000208190555086600260003373ffffffffffffffffffffffffffffffffffffffff1673ffffffffffffffffffffffffffffffffffffffff16815260200190815260200160002060008d815260200190815260200160002081905550600160008c81526020019081526020016000206000600f60009054906101000a900473ffffffffffffffffffffffffffffffffffffffff1673ffffffffffffffffffffffffffffffffffffffff1663beae32ba336000604051602001526040518263ffffffff167c0100000000000000000000000000000000000000000000000000000000028152600401808273ffffffffffffffffffffffffffffffffffffffff1673ffffffffffffffffffffffffffffffffffffffff168152602001915050602060405180830381600087803b15156129d357600080fd5b6102c65a03f115156129e457600080fd5b5050506040518051905081526020019081526020016000208054806001018281612a0e9190615a0f565b916000526020600020900160008990919091505550601160009054906101000a900473ffffffffffffffffffffffffffffffffffffffff1673ffffffffffffffffffffffffffffffffffffffff1663d207287f8c896040518363ffffffff167c01000000000000000000000000000000000000000000000000000000000281526004018083815260200182815260200192505050600060405180830381600087803b1515612abb57600080fd5b6102c65a03f11515612acc57600080fd5b505050601160009054906101000a900473ffffffffffffffffffffffffffffffffffffffff1673ffffffffffffffffffffffffffffffffffffffff16631a9da4af336040518263ffffffff167c0100000000000000000000000000000000000000000000000000000000028152600401808273ffffffffffffffffffffffffffffffffffffffff1673ffffffffffffffffffffffffffffffffffffffff168152602001915050600060405180830381600087803b1515612b8b57600080fd5b6102c65a03f11515612b9c57600080fd5b505050612bab8b8b8b846149aa565b612bbd565b612bbc8b8b858c614ba4565b5b5050505050505050505050565b6000600380549050905090565b601260009054906101000a900473ffffffffffffffffffffffffffffffffffffffff1673ffffffffffffffffffffffffffffffffffffffff1663922a3b5f8733600289898989896040518963ffffffff167c0100000000000000000000000000000000000000000000000000000000028152600401808981526020018873ffffffffffffffffffffffffffffffffffffffff1673ffffffffffffffffffffffffffffffffffffffff1681526020018781526020018060200180602001806020018681526020018060200185810385528a818151815260200191508051906020019060200280838360005b83811015612cdc578082015181840152602081019050612cc1565b50505050905001858103845289818151815260200191508051906020019060200280838360005b83811015612d1e578082015181840152602081019050612d03565b50505050905001858103835288818151815260200191508051906020019060200280838360005b83811015612d60578082015181840152602081019050612d45565b50505050905001858103825286818151815260200191508051906020019080838360005b83811015612d9f578082015181840152602081019050612d84565b50505050905090810190601f168015612dcc5780820380516001836020036101000a031916815260200191505b509c50505050505050505050505050600060405180830381600087803b1515612df457600080fd5b6102c65a03f11515612e0557600080fd5b505050612e118261500d565b505050505050565b6000806000858152602001908152602001600020600001600084815260200190815260200160002060008381526020019081526020016000205490509392505050565b600c60009054906101000a900473ffffffffffffffffffffffffffffffffffffffff16601260006101000a81548173ffffffffffffffffffffffffffffffffffffffff021916908373ffffffffffffffffffffffffffffffffffffffff160217905550601260009054906101000a900473ffffffffffffffffffffffffffffffffffffffff1673ffffffffffffffffffffffffffffffffffffffff1663d9aa6f19336002846040518463ffffffff167c0100000000000000000000000000000000000000000000000000000000028152600401808473ffffffffffffffffffffffffffffffffffffffff1673ffffffffffffffffffffffffffffffffffffffff1681526020018381526020018281526020019350505050600060405180830381600087803b1515612f8c57600080fd5b6102c65a03f11515612f9d57600080fd5b50505050565b600b60009054906101000a900473ffffffffffffffffffffffffffffffffffffffff1681565b6000600b60009054906101000a900473ffffffffffffffffffffffffffffffffffffffff1673ffffffffffffffffffffffffffffffffffffffff1614156130505780600b60006101000a81548173ffffffffffffffffffffffffffffffffffffffff021916908373ffffffffffffffffffffffffffffffffffffffff1602179055506131e3565b600b60009054906101000a900473ffffffffffffffffffffffffffffffffffffffff16601460006101000a81548173ffffffffffffffffffffffffffffffffffffffff021916908373ffffffffffffffffffffffffffffffffffffffff1602179055506001601460009054906101000a900473ffffffffffffffffffffffffffffffffffffffff1673ffffffffffffffffffffffffffffffffffffffff16638f16c41c336000604051602001526040518263ffffffff167c0100000000000000000000000000000000000000000000000000000000028152600401808273ffffffffffffffffffffffffffffffffffffffff1673ffffffffffffffffffffffffffffffffffffffff168152602001915050602060405180830381600087803b151561317a57600080fd5b6102c65a03f1151561318b57600080fd5b505050604051805190501415156131a157600080fd5b80600b60006101000a81548173ffffffffffffffffffffffffffffffffffffffff021916908373ffffffffffffffffffffffffffffffffffffffff1602179055505b50565b6000600260008473ffffffffffffffffffffffffffffffffffffffff1673ffffffffffffffffffffffffffffffffffffffff168152602001908152602001600020600083815260200190815260200160002054905092915050565b60058054600181600116156101000203166002900480601f0160208091040260200160405190810160405280929190818152602001828054600181600116156101000203166002900480156132d75780601f106132ac576101008083540402835291602001916132d7565b820191906000526020600020905b8154815290600101906020018083116132ba57829003601f168201915b505050505081565b60008082840190508381101515156132f357fe5b8091505092915050565b60008060008414156133125760009150613331565b828402905082848281151561332357fe5b0414151561332d57fe5b8091505b5092915050565b600080828481151561334657fe5b0490508091505092915050565b600082821115151561336157fe5b818303905092915050565b6000806000806000806000806000601160009054906101000a900473ffffffffffffffffffffffffffffffffffffffff1673ffffffffffffffffffffffffffffffffffffffff1663ec9ccfff8d600060405160a001526040518263ffffffff167c01000000000000000000000000000000000000000000000000000000000281526004018082815260200191505060a060405180830381600087803b151561341357600080fd5b6102c65a03f1151561342457600080fd5b505050604051805190602001805190602001805190602001805190602001805190509091929350909192509091505080975050601160009054906101000a900473ffffffffffffffffffffffffffffffffffffffff1673ffffffffffffffffffffffffffffffffffffffff16633152fbd4600060405160c001526040518163ffffffff167c010000000000000000000000000000000000000000000000000000000002815260040160c060405180830381600087803b15156134e557600080fd5b6102c65a03f115156134f657600080fd5b5050506040518051906020018051906020018051906020018051906020018051906020018051905090919293945090919293509091509050809650819750505060008760ff161115613ad057613608613602601160009054906101000a900473ffffffffffffffffffffffffffffffffffffffff1673ffffffffffffffffffffffffffffffffffffffff16633a0fcafc8f6000604051602001526040518263ffffffff167c010000000000000000000000000000000000000000000000000000000002815260040180828152602001915050602060405180830381600087803b15156135e157600080fd5b6102c65a03f115156135f257600080fd5b505050604051805190508d6132fd565b8b613338565b98506136c7601160009054906101000a900473ffffffffffffffffffffffffffffffffffffffff1673ffffffffffffffffffffffffffffffffffffffff16633a0fcafc8e6000604051602001526040518263ffffffff167c010000000000000000000000000000000000000000000000000000000002815260040180828152602001915050602060405180830381600087803b15156136a657600080fd5b6102c65a03f115156136b757600080fd5b505050604051805190508a6132df565b9750600e60009054906101000a900473ffffffffffffffffffffffffffffffffffffffff1673ffffffffffffffffffffffffffffffffffffffff1663649db80b601160009054906101000a900473ffffffffffffffffffffffffffffffffffffffff1673ffffffffffffffffffffffffffffffffffffffff166317826ac48f6000604051602001526040518263ffffffff167c010000000000000000000000000000000000000000000000000000000002815260040180828152602001915050602060405180830381600087803b15156137a057600080fd5b6102c65a03f115156137b157600080fd5b505050604051805190508a6040518363ffffffff167c0100000000000000000000000000000000000000000000000000000000028152600401808373ffffffffffffffffffffffffffffffffffffffff1673ffffffffffffffffffffffffffffffffffffffff16815260200182815260200192505050600060405180830381600087803b151561384057600080fd5b6102c65a03f1151561385157600080fd5b505050601160009054906101000a900473ffffffffffffffffffffffffffffffffffffffff1673ffffffffffffffffffffffffffffffffffffffff1663e28d879f8d896000604051602001526040518363ffffffff167c0100000000000000000000000000000000000000000000000000000000028152600401808381526020018260ff16815260200192505050602060405180830381600087803b15156138f857600080fd5b6102c65a03f1151561390957600080fd5b505050604051805190509350601160009054906101000a900473ffffffffffffffffffffffffffffffffffffffff1673ffffffffffffffffffffffffffffffffffffffff16630ecc69c18d896000604051602001526040518363ffffffff167c0100000000000000000000000000000000000000000000000000000000028152600401808381526020018260ff16815260200192505050602060405180830381600087803b15156139b957600080fd5b6102c65a03f115156139ca57600080fd5b5050506040518051905092506139e96139e3848d6132fd565b8b613338565b98506139f5838a6132df565b9750600e60009054906101000a900473ffffffffffffffffffffffffffffffffffffffff1673ffffffffffffffffffffffffffffffffffffffff1663649db80b858a6040518363ffffffff167c0100000000000000000000000000000000000000000000000000000000028152600401808373ffffffffffffffffffffffffffffffffffffffff1673ffffffffffffffffffffffffffffffffffffffff16815260200182815260200192505050600060405180830381600087803b1515613abb57600080fd5b6102c65a03f11515613acc57600080fd5b5050505b600091505b601160009054906101000a900473ffffffffffffffffffffffffffffffffffffffff1673ffffffffffffffffffffffffffffffffffffffff166393a6b05f8d6000604051602001526040518263ffffffff167c010000000000000000000000000000000000000000000000000000000002815260040180828152602001915050602060405180830381600087803b1515613b6e57600080fd5b6102c65a03f11515613b7f57600080fd5b5050506040518051905082101561427157601160009054906101000a900473ffffffffffffffffffffffffffffffffffffffff1673ffffffffffffffffffffffffffffffffffffffff166372a5f4d48d846000604051602001526040518363ffffffff167c01000000000000000000000000000000000000000000000000000000000281526004018083815260200182815260200192505050602060405180830381600087803b1515613c3157600080fd5b6102c65a03f11515613c4257600080fd5b5050506040518051905090506000613c5e828e8a60ff16615298565b14151561402357613c98613c92600383815481101515613c7a57fe5b9060005260206000209060070201600601548d6132fd565b8b613338565b9850613cc4600382815481101515613cac57fe5b9060005260206000209060070201600501548a6132df565b9750600e60009054906101000a900473ffffffffffffffffffffffffffffffffffffffff1673ffffffffffffffffffffffffffffffffffffffff1663649db80b600383815481101515613d1357fe5b906000526020600020906007020160000160009054906101000a900473ffffffffffffffffffffffffffffffffffffffff168a6040518363ffffffff167c0100000000000000000000000000000000000000000000000000000000028152600401808373ffffffffffffffffffffffffffffffffffffffff1673ffffffffffffffffffffffffffffffffffffffff16815260200182815260200192505050600060405180830381600087803b1515613dca57600080fd5b6102c65a03f11515613ddb57600080fd5b505050600e60009054906101000a900473ffffffffffffffffffffffffffffffffffffffff1673ffffffffffffffffffffffffffffffffffffffff16630dfa263a600383815481101515613e2b57fe5b906000526020600020906007020160000160009054906101000a900473ffffffffffffffffffffffffffffffffffffffff16613f86601160009054906101000a900473ffffffffffffffffffffffffffffffffffffffff1673ffffffffffffffffffffffffffffffffffffffff16631b3b74f1600387815481101515613ead57fe5b906000526020600020906007020160000160009054906101000a900473ffffffffffffffffffffffffffffffffffffffff166000604051602001526040518263ffffffff167c0100000000000000000000000000000000000000000000000000000000028152600401808273ffffffffffffffffffffffffffffffffffffffff1673ffffffffffffffffffffffffffffffffffffffff168152602001915050602060405180830381600087803b1515613f6557600080fd5b6102c65a03f11515613f7657600080fd5b505050604051805190508a6132df565b6040518363ffffffff167c0100000000000000000000000000000000000000000000000000000000028152600401808373ffffffffffffffffffffffffffffffffffffffff1673ffffffffffffffffffffffffffffffffffffffff16815260200182815260200192505050600060405180830381600087803b151561400a57600080fd5b6102c65a03f1151561401b57600080fd5b505050614264565b600e60009054906101000a900473ffffffffffffffffffffffffffffffffffffffff1673ffffffffffffffffffffffffffffffffffffffff16630dfa263a60038381548110151561407057fe5b906000526020600020906007020160000160009054906101000a900473ffffffffffffffffffffffffffffffffffffffff166141cb601160009054906101000a900473ffffffffffffffffffffffffffffffffffffffff1673ffffffffffffffffffffffffffffffffffffffff16631b3b74f16003878154811015156140f257fe5b906000526020600020906007020160000160009054906101000a900473ffffffffffffffffffffffffffffffffffffffff166000604051602001526040518263ffffffff167c0100000000000000000000000000000000000000000000000000000000028152600401808273ffffffffffffffffffffffffffffffffffffffff1673ffffffffffffffffffffffffffffffffffffffff168152602001915050602060405180830381600087803b15156141aa57600080fd5b6102c65a03f115156141bb57600080fd5b5050506040518051905089613353565b6040518363ffffffff167c0100000000000000000000000000000000000000000000000000000000028152600401808373ffffffffffffffffffffffffffffffffffffffff1673ffffffffffffffffffffffffffffffffffffffff16815260200182815260200192505050600060405180830381600087803b151561424f57600080fd5b6102c65a03f1151561426057600080fd5b5050505b8180600101925050613ad5565b600e60009054906101000a900473ffffffffffffffffffffffffffffffffffffffff1673ffffffffffffffffffffffffffffffffffffffff1663ebd0e3138d896040518363ffffffff167c0100000000000000000000000000000000000000000000000000000000028152600401808381526020018260ff16815260200192505050600060405180830381600087803b151561430c57600080fd5b6102c65a03f1151561431d57600080fd5b505050505050505050505050505050565b60008183101561434057819050614344565b8290505b92915050565b600080600080600088141561473357600093505b865184101561472e5760009250601160009054906101000a900473ffffffffffffffffffffffffffffffffffffffff1673ffffffffffffffffffffffffffffffffffffffff1663e28d879f8a866000604051602001526040518363ffffffff167c01000000000000000000000000000000000000000000000000000000000281526004018083815260200182815260200192505050602060405180830381600087803b151561440c57600080fd5b6102c65a03f1151561441d57600080fd5b5050506040518051905073ffffffffffffffffffffffffffffffffffffffff163373ffffffffffffffffffffffffffffffffffffffff161415151561446157600080fd5b6001840191505b838601821115156144a35761449483888481518110151561448557fe5b906020019060200201516132df565b92508180600101925050614468565b6144b76144b18460646132fd565b87613338565b90506145f06000808b81526020019081526020016000206000016000600f60009054906101000a900473ffffffffffffffffffffffffffffffffffffffff1673ffffffffffffffffffffffffffffffffffffffff1663beae32ba336000604051602001526040518263ffffffff167c0100000000000000000000000000000000000000000000000000000000028152600401808273ffffffffffffffffffffffffffffffffffffffff1673ffffffffffffffffffffffffffffffffffffffff168152602001915050602060405180830381600087803b151561459857600080fd5b6102c65a03f115156145a957600080fd5b505050604051805190508152602001908152602001600020600089878151811015156145d157fe5b90602001906020020151815260200190815260200160002054826132df565b6000808b81526020019081526020016000206000016000600f60009054906101000a900473ffffffffffffffffffffffffffffffffffffffff1673ffffffffffffffffffffffffffffffffffffffff1663beae32ba336000604051602001526040518263ffffffff167c0100000000000000000000000000000000000000000000000000000000028152600401808273ffffffffffffffffffffffffffffffffffffffff1673ffffffffffffffffffffffffffffffffffffffff168152602001915050602060405180830381600087803b15156146cc57600080fd5b6102c65a03f115156146dd57600080fd5b5050506040518051905081526020019081526020016000206000898781518110151561470557fe5b90602001906020020151815260200190815260200160002081905550600186850101935061435e565b61499f565b61486c6000808b81526020019081526020016000206000016000600f60009054906101000a900473ffffffffffffffffffffffffffffffffffffffff1673ffffffffffffffffffffffffffffffffffffffff1663beae32ba336000604051602001526040518263ffffffff167c0100000000000000000000000000000000000000000000000000000000028152600401808273ffffffffffffffffffffffffffffffffffffffff1673ffffffffffffffffffffffffffffffffffffffff168152602001915050602060405180830381600087803b151561481257600080fd5b6102c65a03f1151561482357600080fd5b505050604051805190508152602001908152602001600020600089600081518110151561484c57fe5b9060200190602002015181526020019081526020016000205460016132df565b6000808b81526020019081526020016000206000016000600f60009054906101000a900473ffffffffffffffffffffffffffffffffffffffff1673ffffffffffffffffffffffffffffffffffffffff1663beae32ba336000604051602001526040518263ffffffff167c0100000000000000000000000000000000000000000000000000000000028152600401808273ffffffffffffffffffffffffffffffffffffffff1673ffffffffffffffffffffffffffffffffffffffff168152602001915050602060405180830381600087803b151561494857600080fd5b6102c65a03f1151561495957600080fd5b505050604051805190508152602001908152602001600020600089600081518110151561498257fe5b906020019060200201518152602001908152602001600020819055505b505050505050505050565b6149b261538b565b50600380548060010182816149c79190615910565b9160005260206000209060070201600060e0604051908101604052803373ffffffffffffffffffffffffffffffffffffffff168152602001888152602001878152602001428152602001601160009054906101000a900473ffffffffffffffffffffffffffffffffffffffff1673ffffffffffffffffffffffffffffffffffffffff166335c42dbb336000604051602001526040518263ffffffff167c0100000000000000000000000000000000000000000000000000000000028152600401808273ffffffffffffffffffffffffffffffffffffffff1673ffffffffffffffffffffffffffffffffffffffff168152602001915050602060405180830381600087803b1515614ad657600080fd5b6102c65a03f11515614ae757600080fd5b50505060405180519050815260200186815260200185815250909190915060008201518160000160006101000a81548173ffffffffffffffffffffffffffffffffffffffff021916908373ffffffffffffffffffffffffffffffffffffffff160217905550602082015181600101556040820151816002019080519060200190614b72929190615942565b50606082015181600301556080820151816004015560a0820151816005015560c0820151816006015550505050505050565b600080600080600760009054906101000a900473ffffffffffffffffffffffffffffffffffffffff16600f60006101000a81548173ffffffffffffffffffffffffffffffffffffffff021916908373ffffffffffffffffffffffffffffffffffffffff160217905550600660009054906101000a900473ffffffffffffffffffffffffffffffffffffffff16601160006101000a81548173ffffffffffffffffffffffffffffffffffffffff021916908373ffffffffffffffffffffffffffffffffffffffff160217905550600c60009054906101000a900473ffffffffffffffffffffffffffffffffffffffff16601260006101000a81548173ffffffffffffffffffffffffffffffffffffffff021916908373ffffffffffffffffffffffffffffffffffffffff160217905550600260003373ffffffffffffffffffffffffffffffffffffffff1673ffffffffffffffffffffffffffffffffffffffff1681526020019081526020016000206000898152602001908152602001600020549350600384815481101515614d3557fe5b90600052602060002090600702016002019250601160009054906101000a900473ffffffffffffffffffffffffffffffffffffffff1673ffffffffffffffffffffffffffffffffffffffff1663ec9ccfff89600060405160a001526040518263ffffffff167c01000000000000000000000000000000000000000000000000000000000281526004018082815260200191505060a060405180830381600087803b1515614de157600080fd5b6102c65a03f11515614df257600080fd5b5050506040518051906020018051906020018051906020018051906020018051905090919293508360ff16935090915090505080925050614e85888385805480602002602001604051908101604052809291908181526020018280548015614e7957602002820191906000526020600020905b815481526020019060010190808311614e65575b5050505050878a6153a6565b614e92888389898861434a565b86600385815481101515614ea257fe5b90600052602060002090600702016002019080519060200190614ec6929190615a4f565b50601260009054906101000a900473ffffffffffffffffffffffffffffffffffffffff1673ffffffffffffffffffffffffffffffffffffffff1663ceeb6f1b338a886000604051602001526040518463ffffffff167c0100000000000000000000000000000000000000000000000000000000028152600401808473ffffffffffffffffffffffffffffffffffffffff1673ffffffffffffffffffffffffffffffffffffffff1681526020018381526020018281526020019350505050602060405180830381600087803b1515614f9c57600080fd5b6102c65a03f11515614fad57600080fd5b50505060405180519050905084600385815481101515614fc957fe5b90600052602060002090600702016005018190555080600385815481101515614fee57fe5b9060005260206000209060070201600601819055505050505050505050565b600a60009054906101000a900473ffffffffffffffffffffffffffffffffffffffff16601360006101000a81548173ffffffffffffffffffffffffffffffffffffffff021916908373ffffffffffffffffffffffffffffffffffffffff160217905550600660009054906101000a900473ffffffffffffffffffffffffffffffffffffffff16601160006101000a81548173ffffffffffffffffffffffffffffffffffffffff021916908373ffffffffffffffffffffffffffffffffffffffff160217905550601160009054906101000a900473ffffffffffffffffffffffffffffffffffffffff1673ffffffffffffffffffffffffffffffffffffffff1663ed1eee716000604051602001526040518163ffffffff167c0100000000000000000000000000000000000000000000000000000000028152600401602060405180830381600087803b151561516157600080fd5b6102c65a03f1151561517257600080fd5b50505060405180519050811015151561518a57600080fd5b601360009054906101000a900473ffffffffffffffffffffffffffffffffffffffff1673ffffffffffffffffffffffffffffffffffffffff1663a9059cbb600960009054906101000a900473ffffffffffffffffffffffffffffffffffffffff16836000604051602001526040518363ffffffff167c0100000000000000000000000000000000000000000000000000000000028152600401808373ffffffffffffffffffffffffffffffffffffffff1673ffffffffffffffffffffffffffffffffffffffff16815260200182815260200192505050602060405180830381600087803b151561527957600080fd5b6102c65a03f1151561528a57600080fd5b505050604051805190505050565b6000806000806000806003898154811015156152b057fe5b9060005260206000209060070201600201945060156000898152602001908152602001600020805490509350600092505b848054905083101561537f576000915086858481548110151561530057fe5b90600052602060002090015414151561531857600080fd5b6001830190505b8284018111151561535c5761534d82868381548110151561533c57fe5b9060005260206000209001546132df565b9150808060010191505061531f565b61537061536a8360646132fd565b85613338565b955060018484010192506152e1565b50505050509392505050565b600061539a60045460016132df565b90508060048190555090565b600080600080600088141561569957600093505b865184101561569457600092506001840191505b83850182111515615409576153fa8388848151811015156153eb57fe5b906020019060200201516132df565b925081806001019250506153ce565b61541d6154178460646132fd565b86613338565b90506155566000808b81526020019081526020016000206000016000600f60009054906101000a900473ffffffffffffffffffffffffffffffffffffffff1673ffffffffffffffffffffffffffffffffffffffff1663beae32ba336000604051602001526040518263ffffffff167c0100000000000000000000000000000000000000000000000000000000028152600401808273ffffffffffffffffffffffffffffffffffffffff1673ffffffffffffffffffffffffffffffffffffffff168152602001915050602060405180830381600087803b15156154fe57600080fd5b6102c65a03f1151561550f57600080fd5b5050506040518051905081526020019081526020016000206000898781518110151561553757fe5b9060200190602002015181526020019081526020016000205482613353565b6000808b81526020019081526020016000206000016000600f60009054906101000a900473ffffffffffffffffffffffffffffffffffffffff1673ffffffffffffffffffffffffffffffffffffffff1663beae32ba336000604051602001526040518263ffffffff167c0100000000000000000000000000000000000000000000000000000000028152600401808273ffffffffffffffffffffffffffffffffffffffff1673ffffffffffffffffffffffffffffffffffffffff168152602001915050602060405180830381600087803b151561563257600080fd5b6102c65a03f1151561564357600080fd5b5050506040518051905081526020019081526020016000206000898781518110151561566b57fe5b9060200190602002015181526020019081526020016000208190555060018585010193506153ba565b615905565b6157d26000808b81526020019081526020016000206000016000600f60009054906101000a900473ffffffffffffffffffffffffffffffffffffffff1673ffffffffffffffffffffffffffffffffffffffff1663beae32ba336000604051602001526040518263ffffffff167c0100000000000000000000000000000000000000000000000000000000028152600401808273ffffffffffffffffffffffffffffffffffffffff1673ffffffffffffffffffffffffffffffffffffffff168152602001915050602060405180830381600087803b151561577857600080fd5b6102c65a03f1151561578957600080fd5b50505060405180519050815260200190815260200160002060008960008151811015156157b257fe5b906020019060200201518152602001908152602001600020546001613353565b6000808b81526020019081526020016000206000016000600f60009054906101000a900473ffffffffffffffffffffffffffffffffffffffff1673ffffffffffffffffffffffffffffffffffffffff1663beae32ba336000604051602001526040518263ffffffff167c0100000000000000000000000000000000000000000000000000000000028152600401808273ffffffffffffffffffffffffffffffffffffffff1673ffffffffffffffffffffffffffffffffffffffff168152602001915050602060405180830381600087803b15156158ae57600080fd5b6102c65a03f115156158bf57600080fd5b50505060405180519050815260200190815260200160002060008960008151811015156158e857fe5b906020019060200201518152602001908152602001600020819055505b505050505050505050565b81548183558181151161593d5760070281600702836000526020600020918201910161593c9190615a9c565b5b505050565b82805482825590600052602060002090810192821561597e579160200282015b8281111561597d578251825591602001919060010190615962565b5b50905061598b9190615b1a565b5090565b828054600181600116156101000203166002900490600052602060002090601f016020900481019282601f106159d057805160ff19168380011785556159fe565b828001600101855582156159fe579182015b828111156159fd5782518255916020019190600101906159e2565b5b509050615a0b9190615b1a565b5090565b815481835581811511615a3657818360005260206000209182019101615a359190615b1a565b5b505050565b602060405190810160405280600081525090565b828054828255906000526020600020908101928215615a8b579160200282015b82811115615a8a578251825591602001919060010190615a6f565b5b509050615a989190615b1a565b5090565b615b1791905b80821115615b1357600080820160006101000a81549073ffffffffffffffffffffffffffffffffffffffff02191690556001820160009055600282016000615aea9190615b3f565b600382016000905560048201600090556005820160009055600682016000905550600701615aa2565b5090565b90565b615b3c91905b80821115615b38576000816000905550600101615b20565b5090565b90565b5080546000825590600052602060002090810190615b5d9190615b1a565b505600a165627a7a7230582005800f9a7ed26a91af882bc0e4a8d32ba0db1b8e332382a5afee4562e901e73b0029",
  "source": "/* Copyright (C) 2017 GovBlocks.io\r\n\r\n  This program is free software: you can redistribute it and/or modify\r\n    it under the terms of the GNU General Public License as published by\r\n    the Free Software Foundation, either version 3 of the License, or\r\n    (at your option) any later version.\r\n\r\n  This program is distributed in the hope that it will be useful,\r\n    but WITHOUT ANY WARRANTY; without even the implied warranty of\r\n    MERCHANTABILITY or FITNESS FOR A PARTICULAR PURPOSE.  See the\r\n    GNU General Public License for more details.\r\n\r\n  You should have received a copy of the GNU General Public License\r\n    along with this program.  If not, see http://www.gnu.org/licenses/ */\r\n\r\n\r\npragma solidity ^0.4.8;\r\nimport \"./VotingType.sol\";\r\nimport \"./GovernanceData.sol\";\r\nimport \"./StandardVotingType.sol\";\r\nimport \"./Master.sol\";\r\nimport \"./Governance.sol\";\r\n// import \"./BasicToken.sol\";\r\nimport \"./zeppelin-solidity/contracts/token/BasicToken.sol\";\r\n\r\ncontract FeatureWeighted is VotingType\r\n{\r\n    using SafeMath for uint;\r\n    address GDAddress;\r\n    address MRAddress;\r\n    address PCAddress;\r\n    address GBTAddress;\r\n    address BTAddress;\r\n    address public masterAddress;\r\n    address SVTAddress;\r\n    address G1Address;\r\n    Governance G1;\r\n    MemberRoles MR;\r\n    ProposalCategory PC;\r\n    GovernanceData GD;\r\n    StandardVotingType SVT;\r\n    BasicToken BT;\r\n    Master MS;\r\n    uint8 constructorCheck;\r\n    mapping(uint=>uint[]) allProposalFeatures;\r\n\r\n    function FeatureWeightedInitiate()\r\n    {\r\n        require(constructorCheck == 0);\r\n        uint[] option;\r\n        allVotes.push(proposalVote(0x00,0,option,now,0,0,0));\r\n        votingTypeName = \"Feature Weighted Voting\";\r\n        constructorCheck = 1;\r\n    }\r\n\r\n    modifier onlyInternal {\r\n        MS=Master(masterAddress);\r\n        require(MS.isInternal(msg.sender) == 1);\r\n        _; \r\n    }\r\n\r\n    /// @dev Change master's contract address\r\n    function changeMasterAddress(address _masterContractAddress)\r\n    {\r\n        if(masterAddress == 0x000)\r\n            masterAddress = _masterContractAddress;\r\n        else\r\n        {\r\n            MS=Master(masterAddress);\r\n            require(MS.isInternal(msg.sender) == 1);\r\n                masterAddress = _masterContractAddress;\r\n        }\r\n    }\r\n\r\n    function changeAllContractsAddress(address _BTContractAddress,address _SVTcontractAddress,address _GDcontractAddress, address _MRcontractAddress, address _PCcontractAddress) onlyInternal\r\n    {\r\n        BTAddress = _BTContractAddress;\r\n        SVTAddress = _SVTcontractAddress;\r\n        GDAddress = _GDcontractAddress;\r\n        MRAddress = _MRcontractAddress;\r\n        PCAddress = _PCcontractAddress;\r\n    }\r\n\r\n    function changeGovernanceAddress(address _G1ContractAddress)\r\n    {\r\n        G1Address = _G1ContractAddress;\r\n    }\r\n\r\n    /// @dev Changes GBT contract Address. //NEW\r\n    function changeGBTtokenAddress(address _GBTcontractAddress) onlyInternal\r\n    {\r\n        GBTAddress = _GBTcontractAddress;\r\n    }\r\n\r\n    /// @dev Some amount to be paid while using GovBlocks contract service - Approve the contract to spend money on behalf of msg.sender\r\n    function payableGBTTokensFeatureWeighted(uint _TokenAmount) internal\r\n    {\r\n        BT=BasicToken(BTAddress);\r\n        GD=GovernanceData(GDAddress);\r\n        require(_TokenAmount >= GD.GBTStakeValue());\r\n        BT.transfer(GBTAddress,_TokenAmount);\r\n    }\r\n\r\n    function getTotalVotes()  constant returns (uint votesTotal)\r\n    {\r\n        return(allVotes.length);\r\n    }\r\n\r\n    function increaseTotalVotes() internal returns (uint _totalVotes)\r\n    {\r\n        _totalVotes = SafeMath.add(allVotesTotal,1);  \r\n        allVotesTotal=_totalVotes;\r\n    } \r\n\r\n    function getVoteDetailByid(uint _voteid) public constant returns(address voter,uint proposalId,uint[] optionChosen,uint dateSubmit,uint voterTokens,uint voteStakeGBT,uint voteValue)\r\n    {\r\n        return(allVotes[_voteid].voter,allVotes[_voteid].proposalId,allVotes[_voteid].optionChosen,allVotes[_voteid].dateSubmit,allVotes[_voteid].voterTokens,allVotes[_voteid].voteStakeGBT,allVotes[_voteid].voteValue);\r\n    }\r\n\r\n    /// @dev Get the vote count for options of proposal when giving Proposal id and Option index.\r\n    function getProposalVoteAndTokenCountByRoleId(uint _proposalId,uint _roleId,uint _optionIndex) constant returns(uint totalVotes,uint totalToken)\r\n    {\r\n        totalVotes = allProposalVoteAndTokenCount[_proposalId].totalVoteCount[_roleId][_optionIndex];\r\n        totalToken = allProposalVoteAndTokenCount[_proposalId].totalTokenCount[_roleId];\r\n    }\r\n\r\n    function addProposalFeature(uint _proposalId,uint[] _featureArray) \r\n    {\r\n        require(allProposalFeatures[_proposalId].length == 0);\r\n        for(uint i=0; i<_featureArray.length; i++)\r\n        {\r\n            allProposalFeatures[_proposalId].push(_featureArray[i]);\r\n        }    \r\n    }\r\n\r\n    function getMaxLength(uint _verdictOptions,uint _featureLength) internal returns (uint maxLength)\r\n    {\r\n        if(_verdictOptions < _featureLength)\r\n            maxLength = _featureLength;\r\n        else\r\n            maxLength = _verdictOptions;\r\n    }\r\n\r\n    function addInAllVotes(uint _proposalId,uint[] _optionChosen,uint _GBTPayableTokenAmount,uint _finalVoteValue) internal\r\n    {\r\n        increaseTotalVotes();\r\n        allVotes.push(proposalVote(msg.sender,_proposalId,_optionChosen,now,GD.getBalanceOfMember(msg.sender),_GBTPayableTokenAmount,_finalVoteValue));\r\n    }\r\n\r\n    function addVerdictOption(uint _proposalId,uint[] _paramInt,bytes32[] _paramBytes32,address[] _paramAddress,uint _GBTPayableTokenAmount,string _optionHash)\r\n    {\r\n        SVT.addVerdictOptionSVT(_proposalId,msg.sender,2,_paramInt,_paramBytes32,_paramAddress,_GBTPayableTokenAmount,_optionHash);\r\n        payableGBTTokensFeatureWeighted(_GBTPayableTokenAmount);\r\n    }\r\n\r\n    function proposalVoting(uint _proposalId,uint[] _optionChosen,uint _GBTPayableTokenAmount)\r\n    {    \r\n        GD=GovernanceData(GDAddress);\r\n        MR=MemberRoles(MRAddress);\r\n        PC=ProposalCategory(PCAddress);\r\n        SVT=StandardVotingType(SVTAddress);\r\n\r\n        uint voteValue; uint voteLength;\r\n        uint currentVotingId; uint category; uint intermediateVerdict;\r\n        uint featureLength = allProposalFeatures[_proposalId].length;\r\n        (category,currentVotingId,intermediateVerdict,,) = GD.getProposalDetailsById2(_proposalId);\r\n\r\n        require(GD.getBalanceOfMember(msg.sender) != 0 && GD.getProposalStatus(_proposalId) == 2 && _optionChosen.length <=  SafeMath.mul(featureLength+1,GD.getTotalVerdictOptions(_proposalId)));\r\n        require(MR.getMemberRoleIdByAddress(msg.sender) == PC.getRoleSequencAtIndex(category,currentVotingId));\r\n\r\n        if(currentVotingId == 0)\r\n        {\r\n            for(uint i=0; i<_optionChosen.length; i++)\r\n            {\r\n                require(_optionChosen[i] <= getMaxLength(GD.getTotalVerdictOptions(_proposalId),featureLength));\r\n            }\r\n        }   \r\n        else\r\n            require(_optionChosen[0]==intermediateVerdict || _optionChosen[0]==0);\r\n\r\n        if(AddressProposalVote[msg.sender][_proposalId] == 0)\r\n        {\r\n            voteLength = getTotalVotes();\r\n            submitAndUpdateNewMemberVote(_proposalId,currentVotingId,_optionChosen,featureLength,voteLength);\r\n            uint finalVoteValue = SVT.setVoteValue_givenByMember(msg.sender,_proposalId,_GBTPayableTokenAmount);\r\n            allProposalVoteAndTokenCount[_proposalId].totalTokenCount[MR.getMemberRoleIdByAddress(msg.sender)] = SafeMath.add(allProposalVoteAndTokenCount[_proposalId].totalTokenCount[MR.getMemberRoleIdByAddress(msg.sender)],GD.getBalanceOfMember(msg.sender));\r\n            AddressProposalVote[msg.sender][_proposalId] = voteLength;\r\n            ProposalRoleVote[_proposalId][MR.getMemberRoleIdByAddress(msg.sender)].push(voteLength);\r\n            GD.setVoteIdAgainstProposal(_proposalId,voteLength);\r\n            GD.addInTotalVotes(msg.sender);\r\n            addInAllVotes(_proposalId,_optionChosen,_GBTPayableTokenAmount,finalVoteValue);\r\n\r\n        }\r\n        else \r\n            changeMemberVote(_proposalId,_optionChosen,featureLength,_GBTPayableTokenAmount);\r\n    }\r\n\r\n    function changeMemberVote(uint _proposalId,uint[] _optionChosen,uint featureLength,uint _GBTPayableTokenAmount) internal\r\n    {\r\n        MR=MemberRoles(MRAddress);\r\n        GD=GovernanceData(GDAddress);\r\n        SVT=StandardVotingType(SVTAddress);\r\n\r\n        uint voteId = AddressProposalVote[msg.sender][_proposalId];\r\n        uint[] optionChosen = allVotes[voteId].optionChosen;\r\n        uint currentVotingId;\r\n        (,currentVotingId,,,) = GD.getProposalDetailsById2(_proposalId);\r\n\r\n        revertChangesInMemberVote(_proposalId,currentVotingId,optionChosen,voteId,featureLength);\r\n        submitAndUpdateNewMemberVote(_proposalId,currentVotingId,_optionChosen,featureLength,voteId);\r\n        allVotes[voteId].optionChosen = _optionChosen;\r\n        \r\n        uint finalVoteValue = SVT.setVoteValue_givenByMember(msg.sender,_proposalId,_GBTPayableTokenAmount);\r\n        allVotes[voteId].voteStakeGBT = _GBTPayableTokenAmount;\r\n        allVotes[voteId].voteValue = finalVoteValue;\r\n\r\n    }\r\n\r\n    function revertChangesInMemberVote(uint _proposalId,uint currentVotingId,uint[] optionChosen,uint voteId,uint featureLength) internal\r\n    {\r\n        if(currentVotingId == 0)\r\n        {\r\n            for(uint i=0; i<optionChosen.length; i=i+featureLength+1)\r\n            {\r\n                uint sum =0;      \r\n                for(uint j=i+1; j<=featureLength+i; j++)\r\n                {\r\n                    sum = SafeMath.add(sum,optionChosen[j]);\r\n                }\r\n                uint voteValue = SafeMath.div(SafeMath.mul(sum,100),featureLength);\r\n                allProposalVoteAndTokenCount[_proposalId].totalVoteCount[MR.getMemberRoleIdByAddress(msg.sender)][optionChosen[i]] = SafeMath.sub(allProposalVoteAndTokenCount[_proposalId].totalVoteCount[MR.getMemberRoleIdByAddress(msg.sender)][optionChosen[i]],voteValue);  \r\n            }\r\n        }\r\n        else\r\n        {\r\n            allProposalVoteAndTokenCount[_proposalId].totalVoteCount[MR.getMemberRoleIdByAddress(msg.sender)][optionChosen[0]] = SafeMath.sub(allProposalVoteAndTokenCount[_proposalId].totalVoteCount[MR.getMemberRoleIdByAddress(msg.sender)][optionChosen[0]],1);\r\n        }\r\n    }\r\n\r\n    function submitAndUpdateNewMemberVote(uint _proposalId,uint currentVotingId,uint[] _optionChosen,uint _featureLength,uint _voteId) internal\r\n    {\r\n        if(currentVotingId == 0)\r\n        {\r\n            for(uint i=0; i<_optionChosen.length; i=i+_featureLength+1)\r\n            {\r\n                uint sum =0;\r\n                require(msg.sender != GD.getOptionAddressByProposalId(_proposalId,i));\r\n\r\n                for(uint j=i+1; j<=_featureLength+i; j++)\r\n                {\r\n                    sum = SafeMath.add(sum,_optionChosen[j]);\r\n                }\r\n                uint voteValue = SafeMath.div(SafeMath.mul(sum,100),_featureLength);\r\n                allProposalVoteAndTokenCount[_proposalId].totalVoteCount[MR.getMemberRoleIdByAddress(msg.sender)][_optionChosen[i]] = SafeMath.add(allProposalVoteAndTokenCount[_proposalId].totalVoteCount[MR.getMemberRoleIdByAddress(msg.sender)][_optionChosen[i]],voteValue);\r\n            }\r\n        }  \r\n        else\r\n        {\r\n            allProposalVoteAndTokenCount[_proposalId].totalVoteCount[MR.getMemberRoleIdByAddress(msg.sender)][_optionChosen[0]] = SafeMath.add(allProposalVoteAndTokenCount[_proposalId].totalVoteCount[MR.getMemberRoleIdByAddress(msg.sender)][_optionChosen[0]],1);\r\n        }\r\n    }\r\n\r\n    function closeProposalVote(uint _proposalId)\r\n    {\r\n        SVT=StandardVotingType(SVTAddress);\r\n        SVT.closeProposalVoteSVT(msg.sender,2,_proposalId);\r\n    }\r\n     \r\n    function giveReward_afterFinalDecision(uint _proposalId) public\r\n    {\r\n        GD=GovernanceData(GDAddress);\r\n        G1=Governance(G1Address);\r\n\r\n        uint voteValueFavour; uint voterStake; uint wrongOptionStake;\r\n        uint totalVoteValue; uint totalTokenToDistribute;uint returnTokens;\r\n        uint8 finalVerdict;  \r\n        uint _featureLength = allProposalFeatures[_proposalId].length;\r\n\r\n        (,,,finalVerdict,) = GD.getProposalDetailsById2(_proposalId);\r\n\r\n        for(uint i=0; i<GD.getTotalVoteLengthAgainstProposal(_proposalId); i++)\r\n        {\r\n            uint voteid = GD.getVoteIdByProposalId(_proposalId,i);\r\n            if(allVotes[voteid].optionChosen[0] == finalVerdict)\r\n            {\r\n                voteValueFavour = SafeMath.add(voteValueFavour,allVotes[voteid].voteValue);\r\n            }\r\n            else\r\n            {\r\n                voterStake = SafeMath.add(voterStake,SafeMath.mul(allVotes[voteid].voteStakeGBT,(SafeMath.div(SafeMath.mul(1,100),GD.globalRiskFactor()))));\r\n                returnTokens = SafeMath.mul(allVotes[voteid].voteStakeGBT,(SafeMath.sub(1,(SafeMath.div(SafeMath.mul(1,100),GD.globalRiskFactor())))));\r\n                G1.transferBackGBTtoken(allVotes[voteid].voter,returnTokens);\r\n            }\r\n\r\n            // uint voteid = GD.getVoteIdByProposalId(_proposalId,i);\r\n            // for(uint j=0; j<allVotes[voteid].verdictChosen.length; j=i+_featureLength+1)\r\n            // {\r\n            //     if(allVotes[voteid].verdictChosen[j] == finalVerdict)\r\n            //     {\r\n            //         voteValueFavour = SafeMath.add(voteValueFavour,allVotes[voteid].voteValue)+getOptionValue1(voteid,_proposalId,j);\r\n            //     }\r\n            //     else\r\n            //     {\r\n            //         voterStake = SafeMath.add(voterStake,SafeMath.mul(allVotes[voteid].voteStakeGBT,(SafeMath.div(SafeMath.mul(1,100),GD.globalRiskFactor())))) + getOptionValue1(voteid,_proposalId,j);\r\n            //         returnTokens = SafeMath.mul(allVotes[voteid].voteStakeGBT,(SafeMath.sub(1,(SafeMath.div(SafeMath.mul(1,100),GD.globalRiskFactor())))));\r\n            //         GD.transferBackGBTtoken(allVotes[voteid].voter,returnTokens);\r\n            //     }\r\n            // }\r\n        }\r\n\r\n        for(i=0; i<GD.getOptionAddedAddressLength(_proposalId); i++)\r\n        {\r\n            if(i!= finalVerdict)  \r\n                wrongOptionStake = SafeMath.add(wrongOptionStake,GD.getOptionStakeByProposalId(_proposalId,i));\r\n        }\r\n\r\n        totalVoteValue = SafeMath.add(GD.getOptionValueByProposalId(_proposalId,finalVerdict),voteValueFavour);\r\n        totalTokenToDistribute = SafeMath.add(wrongOptionStake,voterStake);\r\n\r\n        if(finalVerdict>0)\r\n            totalVoteValue = SafeMath.add(totalVoteValue,GD.getProposalValue(_proposalId));\r\n        else\r\n            totalTokenToDistribute = SafeMath.add(totalTokenToDistribute,GD.getProposalStake(_proposalId));\r\n\r\n        distributeReward(_proposalId,totalTokenToDistribute,totalVoteValue);\r\n    }\r\n\r\n    function distributeReward(uint _proposalId,uint _totalTokenToDistribute,uint _totalVoteValue) internal\r\n    {\r\n        uint reward;uint transferToken;\r\n        uint8 finalVerdict;\r\n        (,,,finalVerdict,) = GD.getProposalDetailsById2(_proposalId);\r\n         uint addMemberPoints; uint subMemberPoints;\r\n        (,,addMemberPoints,,,subMemberPoints)=GD.getMemberReputationPoints();\r\n\r\n        if(finalVerdict > 0)\r\n        {\r\n            reward = SafeMath.div(SafeMath.mul(GD.getProposalStake(_proposalId),_totalTokenToDistribute),_totalVoteValue);\r\n            transferToken = SafeMath.add(GD.getProposalStake(_proposalId),reward);\r\n            G1.transferBackGBTtoken(GD.getProposalOwner(_proposalId),transferToken);\r\n\r\n            address verdictOwner = GD.getOptionAddressByProposalId(_proposalId,finalVerdict);\r\n            uint verdictStake = GD.getOptionStakeByProposalId(_proposalId,finalVerdict);\r\n            reward = SafeMath.div(SafeMath.mul(verdictStake,_totalTokenToDistribute),_totalVoteValue);\r\n            transferToken = SafeMath.add(verdictStake,reward);\r\n            G1.transferBackGBTtoken(verdictOwner,transferToken);\r\n        }\r\n\r\n        for(uint i=0; i<GD.getTotalVoteLengthAgainstProposal(_proposalId); i++)\r\n        {\r\n            uint voteid = GD.getVoteIdByProposalId(_proposalId,i);\r\n            if(getOptionValue(voteid,_proposalId,finalVerdict) != 0)\r\n            {\r\n                reward = SafeMath.div(SafeMath.mul(allVotes[voteid].voteValue,_totalTokenToDistribute),_totalVoteValue);\r\n                transferToken = SafeMath.add(allVotes[voteid].voteStakeGBT,reward);\r\n                G1.transferBackGBTtoken(allVotes[voteid].voter,transferToken);\r\n                G1.updateMemberReputation1(allVotes[voteid].voter,SafeMath.add(GD.getMemberReputation(allVotes[voteid].voter),addMemberPoints));\r\n            }\r\n            else\r\n            {\r\n                G1.updateMemberReputation1(allVotes[voteid].voter,SafeMath.sub(GD.getMemberReputation(allVotes[voteid].voter),subMemberPoints));\r\n            }  \r\n        }\r\n        G1.updateMemberReputation(_proposalId,finalVerdict);\r\n    }\r\n\r\n    function getOptionValue(uint _voteid,uint _proposalId,uint _finalVerdict) internal returns (uint optionValue)\r\n    {\r\n        uint[] _optionChosen = allVotes[_voteid].optionChosen;\r\n        uint _featureLength = allProposalFeatures[_proposalId].length;\r\n\r\n        for(uint i=0; i<_optionChosen.length; i=i+_featureLength+1)\r\n        {\r\n            uint sum=0;\r\n            require(_optionChosen[i] == _finalVerdict);\r\n                for(uint j=i+1; j<=_featureLength+i; j++)\r\n                {\r\n                    sum = SafeMath.add(sum,_optionChosen[j]);\r\n                }\r\n                optionValue = SafeMath.div(SafeMath.mul(sum,100),_featureLength);\r\n        }\r\n    }\r\n\r\n    function getOptionValue1(uint _voteid,uint _proposalId,uint _optionIndex) internal returns (uint optionValue)\r\n    {   \r\n        uint[] _optionChosen = allVotes[_voteid].optionChosen;\r\n        uint _featureLength = allProposalFeatures[_proposalId].length; uint sum;\r\n\r\n        for(uint j=_optionIndex+1; j<=_featureLength+_optionIndex; j++)\r\n        {\r\n            sum = SafeMath.add(sum,_optionChosen[j]);\r\n        }\r\n        optionValue = SafeMath.div(SafeMath.mul(sum,100),_featureLength);\r\n    }\r\n}\r\n",
  "sourcePath": "D:\\RUCHITA\\Govblocks-Git\\contracts\\FeatureWeighted.sol",
  "compiler": {
    "name": "solc",
    "version": "0.4.18+commit.9cf6e910.Emscripten.clang"
  },
  "schemaVersion": "1.0.1",
  "updatedAt": "2018-01-31T14:00:03.676Z"
}