{
  "contractName": "GovernanceData",
  "abi": [
    {
      "constant": false,
      "inputs": [
        {
          "name": "_proposalId",
          "type": "uint256"
        }
      ],
      "name": "getProposalFinalVerdictDetails",
      "outputs": [
        {
          "name": "paramint",
          "type": "uint256"
        },
        {
          "name": "parambytes32",
          "type": "bytes32"
        },
        {
          "name": "paramaddress",
          "type": "address"
        }
      ],
      "payable": false,
      "stateMutability": "nonpayable",
      "type": "function"
    },
    {
      "constant": false,
      "inputs": [
        {
          "name": "_proposalId",
          "type": "uint256"
        },
        {
          "name": "index",
          "type": "uint256"
        },
        {
          "name": "parameterName",
          "type": "bytes32"
        },
        {
          "name": "_paramInt",
          "type": "uint256[]"
        }
      ],
      "name": "setParameterDetails1",
      "outputs": [],
      "payable": false,
      "stateMutability": "nonpayable",
      "type": "function"
    },
    {
      "constant": false,
      "inputs": [
        {
          "name": "_GBTcontractAddress",
          "type": "address"
        }
      ],
      "name": "changeGBTtokenAddress",
      "outputs": [],
      "payable": false,
      "stateMutability": "nonpayable",
      "type": "function"
    },
    {
      "constant": false,
      "inputs": [
        {
          "name": "_proposalId",
          "type": "uint256"
        },
        {
          "name": "_paramInt",
          "type": "uint256[]"
        },
        {
          "name": "_paramBytes32",
          "type": "bytes32[]"
        },
        {
          "name": "_paramAddress",
          "type": "address[]"
        },
        {
          "name": "_verdictOptions",
          "type": "uint8"
        }
      ],
      "name": "setProposalCategoryParams1",
      "outputs": [],
      "payable": false,
      "stateMutability": "nonpayable",
      "type": "function"
    },
    {
      "constant": true,
      "inputs": [
        {
          "name": "_proposalId",
          "type": "uint256"
        },
        {
          "name": "_optionIndex",
          "type": "uint256"
        }
      ],
      "name": "getOptionStakeByProposalId",
      "outputs": [
        {
          "name": "optionStake",
          "type": "uint256"
        }
      ],
      "payable": false,
      "stateMutability": "view",
      "type": "function"
    },
    {
      "constant": false,
      "inputs": [
        {
          "name": "_id",
          "type": "uint256"
        },
        {
          "name": "_status",
          "type": "uint8"
        }
      ],
      "name": "updateProposalStatus",
      "outputs": [],
      "payable": false,
      "stateMutability": "nonpayable",
      "type": "function"
    },
    {
      "constant": true,
      "inputs": [],
      "name": "membershipScalingFactor",
      "outputs": [
        {
          "name": "",
          "type": "uint256"
        }
      ],
      "payable": false,
      "stateMutability": "view",
      "type": "function"
    },
    {
      "constant": false,
      "inputs": [
        {
          "name": "_scalingWeight",
          "type": "uint256"
        }
      ],
      "name": "changeScalingWeight",
      "outputs": [],
      "payable": false,
      "stateMutability": "nonpayable",
      "type": "function"
    },
    {
      "constant": true,
      "inputs": [
        {
          "name": "_proposalId",
          "type": "uint256"
        }
      ],
      "name": "getProposalOwner",
      "outputs": [
        {
          "name": "",
          "type": "address"
        }
      ],
      "payable": false,
      "stateMutability": "view",
      "type": "function"
    },
    {
      "constant": false,
      "inputs": [
        {
          "name": "_proposalId",
          "type": "uint256"
        },
        {
          "name": "index",
          "type": "uint256"
        },
        {
          "name": "parameterName",
          "type": "bytes32"
        },
        {
          "name": "_paramAddress",
          "type": "address[]"
        }
      ],
      "name": "setParameterDetails3",
      "outputs": [],
      "payable": false,
      "stateMutability": "nonpayable",
      "type": "function"
    },
    {
      "constant": false,
      "inputs": [
        {
          "name": "_memberAddress",
          "type": "address"
        }
      ],
      "name": "addInTotalVotes",
      "outputs": [],
      "payable": false,
      "stateMutability": "nonpayable",
      "type": "function"
    },
    {
      "constant": true,
      "inputs": [
        {
          "name": "_memberAddress",
          "type": "address"
        }
      ],
      "name": "getMemberReputation",
      "outputs": [
        {
          "name": "memberPoints",
          "type": "uint256"
        }
      ],
      "payable": false,
      "stateMutability": "view",
      "type": "function"
    },
    {
      "constant": false,
      "inputs": [
        {
          "name": "_proposalId",
          "type": "uint256"
        },
        {
          "name": "_proposalComplexityLevel",
          "type": "uint8"
        }
      ],
      "name": "setProposalLevel",
      "outputs": [],
      "payable": false,
      "stateMutability": "nonpayable",
      "type": "function"
    },
    {
      "constant": false,
      "inputs": [
        {
          "name": "_BTcontractAddress",
          "type": "address"
        },
        {
          "name": "_MTContractAddress",
          "type": "address"
        }
      ],
      "name": "changeAllContractsAddress",
      "outputs": [],
      "payable": false,
      "stateMutability": "nonpayable",
      "type": "function"
    },
    {
      "constant": false,
      "inputs": [
        {
          "name": "_proposalId",
          "type": "uint256"
        },
        {
          "name": "_status",
          "type": "uint8"
        }
      ],
      "name": "pushInProposalStatus",
      "outputs": [],
      "payable": false,
      "stateMutability": "nonpayable",
      "type": "function"
    },
    {
      "constant": true,
      "inputs": [],
      "name": "proposalVoteClosingTime",
      "outputs": [
        {
          "name": "",
          "type": "uint256"
        }
      ],
      "payable": false,
      "stateMutability": "view",
      "type": "function"
    },
    {
      "constant": false,
      "inputs": [
        {
          "name": "_proposalId",
          "type": "uint256"
        },
        {
          "name": "_levelReward",
          "type": "uint256[]"
        }
      ],
      "name": "setProposalPriority",
      "outputs": [],
      "payable": false,
      "stateMutability": "nonpayable",
      "type": "function"
    },
    {
      "constant": true,
      "inputs": [],
      "name": "getMemberReputationPoints",
      "outputs": [
        {
          "name": "addProposalOwnPoints",
          "type": "uint256"
        },
        {
          "name": "addOptionOwnPoints",
          "type": "uint256"
        },
        {
          "name": "addMemPoints",
          "type": "uint256"
        },
        {
          "name": "subProposalOwnPoints",
          "type": "uint256"
        },
        {
          "name": "subOptionOwnPoints",
          "type": "uint256"
        },
        {
          "name": "subMemPoints",
          "type": "uint256"
        }
      ],
      "payable": false,
      "stateMutability": "view",
      "type": "function"
    },
    {
      "constant": true,
      "inputs": [
        {
          "name": "_memberAddress",
          "type": "address"
        }
      ],
      "name": "getBalanceOfMember",
      "outputs": [
        {
          "name": "totalBalance",
          "type": "uint256"
        }
      ],
      "payable": false,
      "stateMutability": "view",
      "type": "function"
    },
    {
      "constant": false,
      "inputs": [
        {
          "name": "_proposalDescHash",
          "type": "string"
        },
        {
          "name": "_categoryId",
          "type": "uint8"
        },
        {
          "name": "_votingTypeAddress",
          "type": "address"
        }
      ],
      "name": "addNewProposal",
      "outputs": [],
      "payable": false,
      "stateMutability": "nonpayable",
      "type": "function"
    },
    {
      "constant": true,
      "inputs": [
        {
          "name": "_proposalId",
          "type": "uint256"
        }
      ],
      "name": "getProposalStake",
      "outputs": [
        {
          "name": "proposalStake",
          "type": "uint256"
        }
      ],
      "payable": false,
      "stateMutability": "view",
      "type": "function"
    },
    {
      "constant": true,
      "inputs": [
        {
          "name": "_proposalId",
          "type": "uint256"
        }
      ],
      "name": "getProposalStatus",
      "outputs": [
        {
          "name": "proposalStatus",
          "type": "uint256"
        }
      ],
      "payable": false,
      "stateMutability": "view",
      "type": "function"
    },
    {
      "constant": true,
      "inputs": [
        {
          "name": "_proposalId",
          "type": "uint256"
        }
      ],
      "name": "checkProposalVoteClosing",
      "outputs": [
        {
          "name": "closeValue",
          "type": "uint8"
        }
      ],
      "payable": false,
      "stateMutability": "view",
      "type": "function"
    },
    {
      "constant": false,
      "inputs": [
        {
          "name": "_proposalId",
          "type": "uint256"
        },
        {
          "name": "index",
          "type": "uint256"
        },
        {
          "name": "parameterName",
          "type": "bytes32"
        },
        {
          "name": "_paramBytes32",
          "type": "bytes32[]"
        }
      ],
      "name": "setParameterDetails2",
      "outputs": [],
      "payable": false,
      "stateMutability": "nonpayable",
      "type": "function"
    },
    {
      "constant": false,
      "inputs": [
        {
          "name": "_votingTypeId",
          "type": "uint256"
        },
        {
          "name": "_votingTypeAddress",
          "type": "address"
        }
      ],
      "name": "editVotingType",
      "outputs": [],
      "payable": false,
      "stateMutability": "nonpayable",
      "type": "function"
    },
    {
      "constant": false,
      "inputs": [
        {
          "name": "_quorumPercentage",
          "type": "uint256"
        }
      ],
      "name": "changeQuorumPercentage",
      "outputs": [],
      "payable": false,
      "stateMutability": "nonpayable",
      "type": "function"
    },
    {
      "constant": false,
      "inputs": [
        {
          "name": "_membershipScalingFactor",
          "type": "uint256"
        }
      ],
      "name": "changeMembershipScalingFator",
      "outputs": [],
      "payable": false,
      "stateMutability": "nonpayable",
      "type": "function"
    },
    {
      "constant": true,
      "inputs": [],
      "name": "quorumPercentage",
      "outputs": [
        {
          "name": "",
          "type": "uint256"
        }
      ],
      "payable": false,
      "stateMutability": "view",
      "type": "function"
    },
    {
      "constant": true,
      "inputs": [
        {
          "name": "_memberAddress",
          "type": "address"
        }
      ],
      "name": "getTotalProposal",
      "outputs": [
        {
          "name": "",
          "type": "uint256"
        }
      ],
      "payable": false,
      "stateMutability": "view",
      "type": "function"
    },
    {
      "constant": false,
      "inputs": [
        {
          "name": "_proposalId",
          "type": "uint256"
        },
        {
          "name": "_options",
          "type": "uint8"
        }
      ],
      "name": "setTotalOptions",
      "outputs": [],
      "payable": false,
      "stateMutability": "nonpayable",
      "type": "function"
    },
    {
      "constant": true,
      "inputs": [
        {
          "name": "_votingTypeId",
          "type": "uint256"
        }
      ],
      "name": "getVotingTypeDetailsById",
      "outputs": [
        {
          "name": "votingTypeId",
          "type": "uint256"
        },
        {
          "name": "VTName",
          "type": "bytes32"
        },
        {
          "name": "VTAddress",
          "type": "address"
        }
      ],
      "payable": false,
      "stateMutability": "view",
      "type": "function"
    },
    {
      "constant": true,
      "inputs": [
        {
          "name": "_proposalId",
          "type": "uint256"
        },
        {
          "name": "_optionIndex",
          "type": "uint256"
        }
      ],
      "name": "getOptionDescByProposalId",
      "outputs": [
        {
          "name": "",
          "type": "string"
        }
      ],
      "payable": false,
      "stateMutability": "view",
      "type": "function"
    },
    {
      "constant": true,
      "inputs": [
        {
          "name": "_memberAddress",
          "type": "address"
        }
      ],
      "name": "getTotalOption",
      "outputs": [
        {
          "name": "",
          "type": "uint256"
        }
      ],
      "payable": false,
      "stateMutability": "view",
      "type": "function"
    },
    {
      "constant": false,
      "inputs": [
        {
          "name": "_proposalId",
          "type": "uint256"
        },
        {
          "name": "_proposalValue",
          "type": "uint256"
        }
      ],
      "name": "setProposalValue",
      "outputs": [],
      "payable": false,
      "stateMutability": "nonpayable",
      "type": "function"
    },
    {
      "constant": false,
      "inputs": [
        {
          "name": "_proposalId",
          "type": "uint256"
        },
        {
          "name": "_memberAddress",
          "type": "address"
        },
        {
          "name": "_stakeValue",
          "type": "uint256"
        },
        {
          "name": "_optionValue",
          "type": "uint256"
        },
        {
          "name": "_optionHash",
          "type": "string"
        }
      ],
      "name": "setOptionAddressAndStake",
      "outputs": [],
      "payable": false,
      "stateMutability": "nonpayable",
      "type": "function"
    },
    {
      "constant": true,
      "inputs": [
        {
          "name": "_memberAddress",
          "type": "address"
        }
      ],
      "name": "getTotalVotesAgainstMember",
      "outputs": [
        {
          "name": "",
          "type": "uint256"
        }
      ],
      "payable": false,
      "stateMutability": "view",
      "type": "function"
    },
    {
      "constant": false,
      "inputs": [
        {
          "name": "_id",
          "type": "uint256"
        },
        {
          "name": "_status",
          "type": "uint8"
        }
      ],
      "name": "changeProposalStatus",
      "outputs": [],
      "payable": false,
      "stateMutability": "nonpayable",
      "type": "function"
    },
    {
      "constant": true,
      "inputs": [
        {
          "name": "_proposalId",
          "type": "uint256"
        },
        {
          "name": "_voteArrayIndex",
          "type": "uint256"
        }
      ],
      "name": "getVoteIdByProposalId",
      "outputs": [
        {
          "name": "voteId",
          "type": "uint256"
        }
      ],
      "payable": false,
      "stateMutability": "view",
      "type": "function"
    },
    {
      "constant": false,
      "inputs": [
        {
          "name": "_memberAddress",
          "type": "address"
        },
        {
          "name": "_repPoints",
          "type": "uint256"
        }
      ],
      "name": "setMemberReputation",
      "outputs": [],
      "payable": false,
      "stateMutability": "nonpayable",
      "type": "function"
    },
    {
      "constant": true,
      "inputs": [],
      "name": "pendingProposalStart",
      "outputs": [
        {
          "name": "",
          "type": "uint256"
        }
      ],
      "payable": false,
      "stateMutability": "view",
      "type": "function"
    },
    {
      "constant": true,
      "inputs": [
        {
          "name": "_proposalId",
          "type": "uint256"
        },
        {
          "name": "_optionIndex",
          "type": "uint256"
        }
      ],
      "name": "getOptionAddedDetails",
      "outputs": [
        {
          "name": "optionStake",
          "type": "uint256"
        },
        {
          "name": "optionValue",
          "type": "uint256"
        },
        {
          "name": "memberAddress",
          "type": "address"
        }
      ],
      "payable": false,
      "stateMutability": "view",
      "type": "function"
    },
    {
      "constant": true,
      "inputs": [
        {
          "name": "_proposalId",
          "type": "uint256"
        }
      ],
      "name": "getProposalCategory",
      "outputs": [
        {
          "name": "categoryId",
          "type": "uint8"
        }
      ],
      "payable": false,
      "stateMutability": "view",
      "type": "function"
    },
    {
      "constant": true,
      "inputs": [
        {
          "name": "_proposalId",
          "type": "uint256"
        }
      ],
      "name": "getTotalVoteArrayAgainstProposal",
      "outputs": [
        {
          "name": "totalVotes",
          "type": "uint256[]"
        }
      ],
      "payable": false,
      "stateMutability": "view",
      "type": "function"
    },
    {
      "constant": true,
      "inputs": [],
      "name": "getProposalLength",
      "outputs": [
        {
          "name": "",
          "type": "uint256"
        }
      ],
      "payable": false,
      "stateMutability": "view",
      "type": "function"
    },
    {
      "constant": true,
      "inputs": [
        {
          "name": "_memberAddress",
          "type": "address"
        }
      ],
      "name": "getMemberDetails",
      "outputs": [
        {
          "name": "memberReputation",
          "type": "uint256"
        },
        {
          "name": "totalProposal",
          "type": "uint256"
        },
        {
          "name": "proposalStake",
          "type": "uint256"
        },
        {
          "name": "totalOption",
          "type": "uint256"
        },
        {
          "name": "optionStake",
          "type": "uint256"
        },
        {
          "name": "totalVotes",
          "type": "uint256"
        }
      ],
      "payable": false,
      "stateMutability": "view",
      "type": "function"
    },
    {
      "constant": false,
      "inputs": [
        {
          "name": "_proposalId",
          "type": "uint256"
        },
        {
          "name": "_memberStake",
          "type": "uint256"
        }
      ],
      "name": "setProposalStake",
      "outputs": [],
      "payable": false,
      "stateMutability": "nonpayable",
      "type": "function"
    },
    {
      "constant": false,
      "inputs": [
        {
          "name": "_proposalId",
          "type": "uint256"
        }
      ],
      "name": "storeProposalVersion",
      "outputs": [],
      "payable": false,
      "stateMutability": "nonpayable",
      "type": "function"
    },
    {
      "constant": false,
      "inputs": [
        {
          "name": "_proposalId",
          "type": "uint256"
        },
        {
          "name": "_categoryId",
          "type": "uint8"
        }
      ],
      "name": "setProposalCategory",
      "outputs": [],
      "payable": false,
      "stateMutability": "nonpayable",
      "type": "function"
    },
    {
      "constant": true,
      "inputs": [
        {
          "name": "_proposalId",
          "type": "uint256"
        }
      ],
      "name": "getTotalVoteLengthAgainstProposal",
      "outputs": [
        {
          "name": "totalVotesLength",
          "type": "uint256"
        }
      ],
      "payable": false,
      "stateMutability": "view",
      "type": "function"
    },
    {
      "constant": true,
      "inputs": [],
      "name": "scalingWeight",
      "outputs": [
        {
          "name": "",
          "type": "uint256"
        }
      ],
      "payable": false,
      "stateMutability": "view",
      "type": "function"
    },
    {
      "constant": true,
      "inputs": [
        {
          "name": "_proposalId",
          "type": "uint256"
        }
      ],
      "name": "getTotalVerdictOptions",
      "outputs": [
        {
          "name": "verdictOptions",
          "type": "uint8"
        }
      ],
      "payable": false,
      "stateMutability": "view",
      "type": "function"
    },
    {
      "constant": false,
      "inputs": [
        {
          "name": "_id",
          "type": "uint256"
        },
        {
          "name": "_proposalDescHash",
          "type": "string"
        }
      ],
      "name": "updateProposal",
      "outputs": [],
      "payable": false,
      "stateMutability": "nonpayable",
      "type": "function"
    },
    {
      "constant": false,
      "inputs": [
        {
          "name": "_addProposalOwnerPoints",
          "type": "uint256"
        },
        {
          "name": "_addOptionOwnerPoints",
          "type": "uint256"
        },
        {
          "name": "_addMemberPoints",
          "type": "uint256"
        },
        {
          "name": "_subProposalOwnerPoints",
          "type": "uint256"
        },
        {
          "name": "_subOptionOwnerPoints",
          "type": "uint256"
        },
        {
          "name": "_subMemberPoints",
          "type": "uint256"
        }
      ],
      "name": "changeMemberReputationPoints",
      "outputs": [],
      "payable": false,
      "stateMutability": "nonpayable",
      "type": "function"
    },
    {
      "constant": true,
      "inputs": [
        {
          "name": "_proposalId",
          "type": "uint256"
        }
      ],
      "name": "getProposalOptions",
      "outputs": [
        {
          "name": "paramsInt",
          "type": "uint256[]"
        },
        {
          "name": "paramsBytes",
          "type": "bytes32[]"
        },
        {
          "name": "paramsAddress",
          "type": "address[]"
        },
        {
          "name": "verdictOptions",
          "type": "uint8"
        }
      ],
      "payable": false,
      "stateMutability": "view",
      "type": "function"
    },
    {
      "constant": true,
      "inputs": [],
      "name": "getTotalTokenInSupply",
      "outputs": [
        {
          "name": "_totalSupplyToken",
          "type": "uint256"
        }
      ],
      "payable": false,
      "stateMutability": "view",
      "type": "function"
    },
    {
      "constant": true,
      "inputs": [
        {
          "name": "_proposalId",
          "type": "uint256"
        }
      ],
      "name": "getProposalValueAndStake",
      "outputs": [
        {
          "name": "proposalValue",
          "type": "uint256"
        },
        {
          "name": "proposalStake",
          "type": "uint256"
        }
      ],
      "payable": false,
      "stateMutability": "view",
      "type": "function"
    },
    {
      "constant": true,
      "inputs": [],
      "name": "globalRiskFactor",
      "outputs": [
        {
          "name": "",
          "type": "uint256"
        }
      ],
      "payable": false,
      "stateMutability": "view",
      "type": "function"
    },
    {
      "constant": false,
      "inputs": [
        {
          "name": "_proposalId",
          "type": "uint256"
        }
      ],
      "name": "addInitialOptionDetails",
      "outputs": [],
      "payable": false,
      "stateMutability": "nonpayable",
      "type": "function"
    },
    {
      "constant": true,
      "inputs": [
        {
          "name": "_proposalId",
          "type": "uint256"
        }
      ],
      "name": "getOptionAddedAddressLength",
      "outputs": [
        {
          "name": "length",
          "type": "uint256"
        }
      ],
      "payable": false,
      "stateMutability": "view",
      "type": "function"
    },
    {
      "constant": false,
      "inputs": [
        {
          "name": "_TokenAmount",
          "type": "uint256"
        }
      ],
      "name": "payableGBTTokens",
      "outputs": [],
      "payable": false,
      "stateMutability": "nonpayable",
      "type": "function"
    },
    {
      "constant": false,
      "inputs": [
        {
          "name": "_votingTypeName",
          "type": "bytes32"
        },
        {
          "name": "_votingTypeAddress",
          "type": "address"
        }
      ],
      "name": "setVotingTypeDetails",
      "outputs": [],
      "payable": false,
      "stateMutability": "nonpayable",
      "type": "function"
    },
    {
      "constant": true,
      "inputs": [
        {
          "name": "_proposalId",
          "type": "uint256"
        }
      ],
      "name": "getProposalValue",
      "outputs": [
        {
          "name": "proposalValue",
          "type": "uint256"
        }
      ],
      "payable": false,
      "stateMutability": "view",
      "type": "function"
    },
    {
      "constant": true,
      "inputs": [
        {
          "name": "_proposalId",
          "type": "uint256"
        },
        {
          "name": "_optionIndex",
          "type": "uint256"
        }
      ],
      "name": "getOptionValueByProposalId",
      "outputs": [
        {
          "name": "optionValue",
          "type": "uint256"
        }
      ],
      "payable": false,
      "stateMutability": "view",
      "type": "function"
    },
    {
      "constant": true,
      "inputs": [
        {
          "name": "_proposalId",
          "type": "uint256"
        },
        {
          "name": "_versionNum",
          "type": "uint256"
        }
      ],
      "name": "getProposalDetailsByIdAndVersion",
      "outputs": [
        {
          "name": "versionNum",
          "type": "uint256"
        },
        {
          "name": "proposalDescHash",
          "type": "string"
        },
        {
          "name": "date_add",
          "type": "uint256"
        }
      ],
      "payable": false,
      "stateMutability": "view",
      "type": "function"
    },
    {
      "constant": false,
      "inputs": [
        {
          "name": "_GBTStakeValue",
          "type": "uint256"
        }
      ],
      "name": "changeGBTStakeValue",
      "outputs": [],
      "payable": false,
      "stateMutability": "nonpayable",
      "type": "function"
    },
    {
      "constant": false,
      "inputs": [
        {
          "name": "_proposalId",
          "type": "uint256"
        },
        {
          "name": "_currVotingStatus",
          "type": "uint8"
        },
        {
          "name": "_intermediateVerdict",
          "type": "uint8"
        },
        {
          "name": "_finalVerdict",
          "type": "uint8"
        }
      ],
      "name": "updateProposalDetails",
      "outputs": [],
      "payable": false,
      "stateMutability": "nonpayable",
      "type": "function"
    },
    {
      "constant": true,
      "inputs": [
        {
          "name": "_proposalId",
          "type": "uint256"
        }
      ],
      "name": "getProposalDetailsById3",
      "outputs": [
        {
          "name": "proposalIndex",
          "type": "uint256"
        },
        {
          "name": "proposalDescHash",
          "type": "string"
        },
        {
          "name": "dateAdded",
          "type": "uint256"
        },
        {
          "name": "propStatus",
          "type": "string"
        },
        {
          "name": "propCategory",
          "type": "uint256"
        },
        {
          "name": "totalVotes",
          "type": "uint256"
        },
        {
          "name": "totalOption",
          "type": "uint8"
        }
      ],
      "payable": false,
      "stateMutability": "view",
      "type": "function"
    },
    {
      "constant": true,
      "inputs": [
        {
          "name": "_proposalId",
          "type": "uint256"
        },
        {
          "name": "_parameterName",
          "type": "bytes32"
        }
      ],
      "name": "getProposalFinalDecisionByParameter",
      "outputs": [
        {
          "name": "intParameter",
          "type": "uint256"
        },
        {
          "name": "bytesParameter",
          "type": "bytes32"
        },
        {
          "name": "addressParameter",
          "type": "address"
        }
      ],
      "payable": false,
      "stateMutability": "view",
      "type": "function"
    },
    {
      "constant": false,
      "inputs": [
        {
          "name": "_proposalId",
          "type": "uint256"
        },
        {
          "name": "_voteId",
          "type": "uint256"
        }
      ],
      "name": "setVoteIdAgainstProposal",
      "outputs": [],
      "payable": false,
      "stateMutability": "nonpayable",
      "type": "function"
    },
    {
      "constant": false,
      "inputs": [
        {
          "name": "_masterContractAddress",
          "type": "address"
        }
      ],
      "name": "changeMasterAddress",
      "outputs": [],
      "payable": false,
      "stateMutability": "nonpayable",
      "type": "function"
    },
    {
      "constant": false,
      "inputs": [],
      "name": "GovernanceDataInitiate",
      "outputs": [],
      "payable": false,
      "stateMutability": "nonpayable",
      "type": "function"
    },
    {
      "constant": true,
      "inputs": [
        {
          "name": "_proposalId",
          "type": "uint256"
        },
        {
          "name": "_optionIndex",
          "type": "uint256"
        }
      ],
      "name": "getOptionAddressByProposalId",
      "outputs": [
        {
          "name": "memberAddress",
          "type": "address"
        }
      ],
      "payable": false,
      "stateMutability": "view",
      "type": "function"
    },
    {
      "constant": false,
      "inputs": [],
      "name": "changePendingProposalStart",
      "outputs": [],
      "payable": false,
      "stateMutability": "nonpayable",
      "type": "function"
    },
    {
      "constant": false,
      "inputs": [
        {
          "name": "_riskFactor",
          "type": "uint256"
        }
      ],
      "name": "changeGlobalRiskFactor",
      "outputs": [],
      "payable": false,
      "stateMutability": "nonpayable",
      "type": "function"
    },
    {
      "constant": true,
      "inputs": [
        {
          "name": "_proposalId",
          "type": "uint256"
        },
        {
          "name": "_rewardIndex",
          "type": "uint256"
        }
      ],
      "name": "getProposalRewardAndComplexity",
      "outputs": [
        {
          "name": "reward",
          "type": "uint256"
        }
      ],
      "payable": false,
      "stateMutability": "view",
      "type": "function"
    },
    {
      "constant": true,
      "inputs": [],
      "name": "getVotingTypeLength",
      "outputs": [
        {
          "name": "",
          "type": "uint256"
        }
      ],
      "payable": false,
      "stateMutability": "view",
      "type": "function"
    },
    {
      "constant": true,
      "inputs": [
        {
          "name": "_proposalId",
          "type": "uint256"
        }
      ],
      "name": "getProposalDetailsById2",
      "outputs": [
        {
          "name": "category",
          "type": "uint8"
        },
        {
          "name": "currentVotingId",
          "type": "uint8"
        },
        {
          "name": "intermediateVerdict",
          "type": "uint8"
        },
        {
          "name": "finalVerdict",
          "type": "uint8"
        },
        {
          "name": "votingTypeAddress",
          "type": "address"
        }
      ],
      "payable": false,
      "stateMutability": "view",
      "type": "function"
    },
    {
      "constant": true,
      "inputs": [],
      "name": "GBTStakeValue",
      "outputs": [
        {
          "name": "",
          "type": "uint256"
        }
      ],
      "payable": false,
      "stateMutability": "view",
      "type": "function"
    },
    {
      "constant": true,
      "inputs": [
        {
          "name": "_votingTypeId",
          "type": "uint256"
        }
      ],
      "name": "getVotingTypeAddress",
      "outputs": [
        {
          "name": "",
          "type": "address"
        }
      ],
      "payable": false,
      "stateMutability": "view",
      "type": "function"
    },
    {
      "constant": false,
      "inputs": [
        {
          "name": "_proposalId",
          "type": "uint256"
        },
        {
          "name": "_memberAddress",
          "type": "address"
        }
      ],
      "name": "addTotalProposal",
      "outputs": [],
      "payable": false,
      "stateMutability": "nonpayable",
      "type": "function"
    },
    {
      "constant": true,
      "inputs": [
        {
          "name": "_proposalId",
          "type": "uint256"
        }
      ],
      "name": "getProposalDetailsById1",
      "outputs": [
        {
          "name": "owner",
          "type": "address"
        },
        {
          "name": "proposalDescHash",
          "type": "string"
        },
        {
          "name": "date_add",
          "type": "uint256"
        },
        {
          "name": "date_upd",
          "type": "uint256"
        },
        {
          "name": "versionNum",
          "type": "uint256"
        },
        {
          "name": "propStatus",
          "type": "uint256"
        }
      ],
      "payable": false,
      "stateMutability": "view",
      "type": "function"
    },
    {
      "constant": false,
      "inputs": [
        {
          "name": "_proposalId",
          "type": "uint256"
        },
        {
          "name": "_memberAddress",
          "type": "address"
        }
      ],
      "name": "setCategorizedBy",
      "outputs": [],
      "payable": false,
      "stateMutability": "nonpayable",
      "type": "function"
    }
  ],
  "bytecode": "0x6060604052341561000f57600080fd5b6155268061001e6000396000f3006060604052600436106103bc576000357c0100000000000000000000000000000000000000000000000000000000900463ffffffff16806307176b94146103c15780630c0a04ef1461043a5780630df34cdb146104b35780630e0d09bf146104ec5780630ecc69c1146105db5780630fab929a1461061b57806311aadbfb1461064a5780631655517f1461067357806317826ac4146106965780631a42a641146106f95780631a9da4af146107725780631b3b74f1146107ab5780631c4eb959146107f857806325f81ccb1461082757806326a4ffe91461087f578063281ee79f146108ae5780632f86a4b1146108d75780633152fbd41461093a57806335c42dbb14610986578063394ae310146109d35780633a0fcafc14610a5b578063401853b714610a9257806340b2723b14610ac957806341e2f97814610b065780634704891014610b7f578063489c16d014610bc15780634dec2bcc14610be45780634fa76ec914610c075780635197bb4e14610c3057806360a4d79e14610c7d5780636188d1ad14610cac578063641e2c9314610d255780636742b23814610dca57806367d0969114610e17578063697579b914610e435780636bc5b59914610eda578063707b852714610f2757806372a5f4d414610f565780637974d2dd14610f965780637cd8055a14610fd85780637d0d174d146110015780637fd6e5101461107b5780638234c14a146110b85780638263a9381461113057806383fd0954146111595780638cf5d7e3146111c957806392630e52146111f557806392d05e0b1461121857806393a6b05f1461124757806393e4a4f51461127e5780639a2243ec146112a75780639f2b05d4146112e4578063a1a584301461134a578063a1bd71b91461139a578063a5d8ba89146114af578063a95889bf146114d8578063ad32084614611516578063ad51f8241461153f578063ad87504114611562578063b5e230e714611599578063b6323dd0146115bc578063ba63453f14611602578063c066ea8614611639578063cac86e9614611679578063cbc87e581461172c578063cd25becd1461174f578063cd6b44e314611796578063cf8d7bc1146118c7578063d207287f1461194d578063d46655f414611979578063dda2e871146119b2578063e28d879f146119c7578063e7030a6714611a33578063e780306414611a48578063e7d6bf2814611a6b578063ec7d465c14611aab578063ec9ccfff14611ad4578063ed1eee7114611b6b578063f0d2921e14611b94578063f403c55714611bf7578063f65ad75014611c39578063fea95a6a14611d24575b600080fd5b34156103cc57600080fd5b6103e26004808035906020019091905050611d66565b6040518084815260200183600019166000191681526020018273ffffffffffffffffffffffffffffffffffffffff1673ffffffffffffffffffffffffffffffffffffffff168152602001935050505060405180910390f35b341561044557600080fd5b6104b160048080359060200190919080359060200190919080356000191690602001909190803590602001908201803590602001908080602002602001604051908101604052809392919081815260200183836020028082843782019150505050505091905050611efc565b005b34156104be57600080fd5b6104ea600480803573ffffffffffffffffffffffffffffffffffffffff16906020019091905050611f5d565b005b34156104f757600080fd5b6105d9600480803590602001909190803590602001908201803590602001908080602002602001604051908101604052809392919081815260200183836020028082843782019150505050505091908035906020019082018035906020019080806020026020016040519081016040528093929190818152602001838360200280828437820191505050505050919080359060200190820180359060200190808060200260200160405190810160405280939291908181526020018383602002808284378201915050505050509190803560ff16906020019091905050611fa1565b005b34156105e657600080fd5b6106056004808035906020019091908035906020019091905050612142565b6040518082815260200191505060405180910390f35b341561062657600080fd5b610648600480803590602001909190803560ff1690602001909190505061217b565b005b341561065557600080fd5b61065d6121dd565b6040518082815260200191505060405180910390f35b341561067e57600080fd5b61069460048080359060200190919050506121e3565b005b34156106a157600080fd5b6106b760048080359060200190919050506121ed565b604051808273ffffffffffffffffffffffffffffffffffffffff1673ffffffffffffffffffffffffffffffffffffffff16815260200191505060405180910390f35b341561070457600080fd5b61077060048080359060200190919080359060200190919080356000191690602001909190803590602001908201803590602001908080602002602001604051908101604052809392919081815260200183836020028082843782019150505050505091905050612237565b005b341561077d57600080fd5b6107a9600480803573ffffffffffffffffffffffffffffffffffffffff169060200190919050506122d2565b005b34156107b657600080fd5b6107e2600480803573ffffffffffffffffffffffffffffffffffffffff1690602001909190505061235b565b6040518082815260200191505060405180910390f35b341561080357600080fd5b610825600480803590602001909190803560ff169060200190919050506123a4565b005b341561083257600080fd5b61087d600480803573ffffffffffffffffffffffffffffffffffffffff1690602001909190803573ffffffffffffffffffffffffffffffffffffffff169060200190919050506123d7565b005b341561088a57600080fd5b6108ac600480803590602001909190803560ff1690602001909190505061245d565b005b34156108b957600080fd5b6108c16124ca565b6040518082815260200191505060405180910390f35b34156108e257600080fd5b6109386004808035906020019091908035906020019082018035906020019080806020026020016040519081016040528093929190818152602001838360200280828437820191505050505050919050506124d0565b005b341561094557600080fd5b61094d612545565b60405180878152602001868152602001858152602001848152602001838152602001828152602001965050505050505060405180910390f35b341561099157600080fd5b6109bd600480803573ffffffffffffffffffffffffffffffffffffffff16906020019091905050612574565b6040518082815260200191505060405180910390f35b34156109de57600080fd5b610a59600480803590602001908201803590602001908080601f0160208091040260200160405190810160405280939291908181526020018383808284378201915050505050509190803560ff1690602001909190803573ffffffffffffffffffffffffffffffffffffffff169060200190919050506126c0565b005b3415610a6657600080fd5b610a7c600480803590602001909190505061292d565b6040518082815260200191505060405180910390f35b3415610a9d57600080fd5b610ab36004808035906020019091905050612957565b6040518082815260200191505060405180910390f35b3415610ad457600080fd5b610aea6004808035906020019091905050612991565b604051808260ff1660ff16815260200191505060405180910390f35b3415610b1157600080fd5b610b7d600480803590602001909190803590602001909190803560001916906020019091908035906020019082018035906020019080806020026020016040519081016040528093929190818152602001838360200280828437820191505050505050919050506129d6565b005b3415610b8a57600080fd5b610bbf600480803590602001909190803573ffffffffffffffffffffffffffffffffffffffff16906020019091905050612a3b565b005b3415610bcc57600080fd5b610be26004808035906020019091905050612a9e565b005b3415610bef57600080fd5b610c056004808035906020019091905050612aa8565b005b3415610c1257600080fd5b610c1a612ab2565b6040518082815260200191505060405180910390f35b3415610c3b57600080fd5b610c67600480803573ffffffffffffffffffffffffffffffffffffffff16906020019091905050612ab8565b6040518082815260200191505060405180910390f35b3415610c8857600080fd5b610caa600480803590602001909190803560ff16906020019091905050612b04565b005b3415610cb757600080fd5b610ccd6004808035906020019091905050612b37565b6040518084815260200183600019166000191681526020018273ffffffffffffffffffffffffffffffffffffffff1673ffffffffffffffffffffffffffffffffffffffff168152602001935050505060405180910390f35b3415610d3057600080fd5b610d4f6004808035906020019091908035906020019091905050612bac565b6040518080602001828103825283818151815260200191508051906020019080838360005b83811015610d8f578082015181840152602081019050610d74565b50505050905090810190601f168015610dbc5780820380516001836020036101000a031916815260200191505b509250505060405180910390f35b3415610dd557600080fd5b610e01600480803573ffffffffffffffffffffffffffffffffffffffff16906020019091905050612c83565b6040518082815260200191505060405180910390f35b3415610e2257600080fd5b610e416004808035906020019091908035906020019091905050612ccc565b005b3415610e4e57600080fd5b610ed8600480803590602001909190803573ffffffffffffffffffffffffffffffffffffffff1690602001909190803590602001909190803590602001909190803590602001908201803590602001908080601f01602080910402602001604051908101604052809392919081815260200183838082843782019150505050505091905050612cf5565b005b3415610ee557600080fd5b610f11600480803573ffffffffffffffffffffffffffffffffffffffff16906020019091905050612f56565b6040518082815260200191505060405180910390f35b3415610f3257600080fd5b610f54600480803590602001909190803560ff16906020019091905050612f9f565b005b3415610f6157600080fd5b610f806004808035906020019091908035906020019091905050612ff7565b6040518082815260200191505060405180910390f35b3415610fa157600080fd5b610fd6600480803573ffffffffffffffffffffffffffffffffffffffff1690602001909190803590602001909190505061302d565b005b3415610fe357600080fd5b610feb613075565b6040518082815260200191505060405180910390f35b341561100c57600080fd5b61102b600480803590602001909190803590602001909190505061307b565b604051808481526020018381526020018273ffffffffffffffffffffffffffffffffffffffff1673ffffffffffffffffffffffffffffffffffffffff168152602001935050505060405180910390f35b341561108657600080fd5b61109c600480803590602001909190505061313a565b604051808260ff1660ff16815260200191505060405180910390f35b34156110c357600080fd5b6110d96004808035906020019091905050613171565b6040518080602001828103825283818151815260200191508051906020019060200280838360005b8381101561111c578082015181840152602081019050611101565b505050509050019250505060405180910390f35b341561113b57600080fd5b6111436131e2565b6040518082815260200191505060405180910390f35b341561116457600080fd5b611190600480803573ffffffffffffffffffffffffffffffffffffffff169060200190919050506131ef565b60405180878152602001868152602001858152602001848152602001838152602001828152602001965050505050505060405180910390f35b34156111d457600080fd5b6111f360048080359060200190919080359060200190919050506132eb565b005b341561120057600080fd5b6112166004808035906020019091905050613314565b005b341561122357600080fd5b611245600480803590602001909190803560ff169060200190919050506134a9565b005b341561125257600080fd5b61126860048080359060200190919050506134e6565b6040518082815260200191505060405180910390f35b341561128957600080fd5b611291613506565b6040518082815260200191505060405180910390f35b34156112b257600080fd5b6112c8600480803590602001909190505061350c565b604051808260ff1660ff16815260200191505060405180910390f35b34156112ef57600080fd5b611348600480803590602001909190803590602001908201803590602001908080601f01602080910402602001604051908101604052809392919081815260200183838082843782019150505050505091905050613539565b005b341561135557600080fd5b6113986004808035906020019091908035906020019091908035906020019091908035906020019091908035906020019091908035906020019091905050613600565b005b34156113a557600080fd5b6113bb6004808035906020019091905050613632565b604051808060200180602001806020018560ff1660ff168152602001848103845288818151815260200191508051906020019060200280838360005b838110156114125780820151818401526020810190506113f7565b50505050905001848103835287818151815260200191508051906020019060200280838360005b83811015611454578082015181840152602081019050611439565b50505050905001848103825286818151815260200191508051906020019060200280838360005b8381101561149657808201518184015260208101905061147b565b5050505090500197505050505050505060405180910390f35b34156114ba57600080fd5b6114c26137f1565b6040518082815260200191505060405180910390f35b34156114e357600080fd5b6114f96004808035906020019091905050613904565b604051808381526020018281526020019250505060405180910390f35b341561152157600080fd5b611529613952565b6040518082815260200191505060405180910390f35b341561154a57600080fd5b6115606004808035906020019091905050613958565b005b341561156d57600080fd5b6115836004808035906020019091905050613ce6565b6040518082815260200191505060405180910390f35b34156115a457600080fd5b6115ba6004808035906020019091905050613d09565b005b34156115c757600080fd5b61160060048080356000191690602001909190803573ffffffffffffffffffffffffffffffffffffffff16906020019091905050613e8b565b005b341561160d57600080fd5b6116236004808035906020019091905050613f89565b6040518082815260200191505060405180910390f35b341561164457600080fd5b6116636004808035906020019091908035906020019091905050613fb3565b6040518082815260200191505060405180910390f35b341561168457600080fd5b6116a36004808035906020019091908035906020019091905050613fec565b6040518084815260200180602001838152602001828103825284818151815260200191508051906020019080838360005b838110156116ef5780820151818401526020810190506116d4565b50505050905090810190601f16801561171c5780820380516001836020036101000a031916815260200191505b5094505050505060405180910390f35b341561173757600080fd5b61174d6004808035906020019091905050614136565b005b341561175a57600080fd5b611794600480803590602001909190803560ff1690602001909190803560ff1690602001909190803560ff16906020019091905050614140565b005b34156117a157600080fd5b6117b760048080359060200190919050506141f1565b6040518088815260200180602001878152602001806020018681526020018581526020018460ff1660ff168152602001838103835289818151815260200191508051906020019080838360005b8381101561181f578082015181840152602081019050611804565b50505050905090810190601f16801561184c5780820380516001836020036101000a031916815260200191505b50838103825287818151815260200191508051906020019080838360005b8381101561188557808201518184015260208101905061186a565b50505050905090810190601f1680156118b25780820380516001836020036101000a031916815260200191505b50995050505050505050505060405180910390f35b34156118d257600080fd5b6118f5600480803590602001909190803560001916906020019091905050614456565b6040518084815260200183600019166000191681526020018273ffffffffffffffffffffffffffffffffffffffff1673ffffffffffffffffffffffffffffffffffffffff168152602001935050505060405180910390f35b341561195857600080fd5b61197760048080359060200190919080359060200190919050506144be565b005b341561198457600080fd5b6119b0600480803573ffffffffffffffffffffffffffffffffffffffff169060200190919050506144fc565b005b34156119bd57600080fd5b6119c56144ff565b005b34156119d257600080fd5b6119f16004808035906020019091908035906020019091905050614532565b604051808273ffffffffffffffffffffffffffffffffffffffff1673ffffffffffffffffffffffffffffffffffffffff16815260200191505060405180910390f35b3415611a3e57600080fd5b611a4661458b565b005b3415611a5357600080fd5b611a69600480803590602001909190505061461c565b005b3415611a7657600080fd5b611a956004808035906020019091908035906020019091905050614626565b6040518082815260200191505060405180910390f35b3415611ab657600080fd5b611abe61465f565b6040518082815260200191505060405180910390f35b3415611adf57600080fd5b611af5600480803590602001909190505061466c565b604051808660ff1660ff1681526020018560ff1660ff1681526020018460ff1660ff1681526020018360ff1660ff1681526020018273ffffffffffffffffffffffffffffffffffffffff1673ffffffffffffffffffffffffffffffffffffffff1681526020019550505050505060405180910390f35b3415611b7657600080fd5b611b7e614780565b6040518082815260200191505060405180910390f35b3415611b9f57600080fd5b611bb56004808035906020019091905050614786565b604051808273ffffffffffffffffffffffffffffffffffffffff1673ffffffffffffffffffffffffffffffffffffffff16815260200191505060405180910390f35b3415611c0257600080fd5b611c37600480803590602001909190803573ffffffffffffffffffffffffffffffffffffffff169060200190919050506147d0565b005b3415611c4457600080fd5b611c5a600480803590602001909190505061483a565b604051808773ffffffffffffffffffffffffffffffffffffffff1673ffffffffffffffffffffffffffffffffffffffff16815260200180602001868152602001858152602001848152602001838152602001828103825287818151815260200191508051906020019080838360005b83811015611ce4578082015181840152602081019050611cc9565b50505050905090810190601f168015611d115780820380516001836020036101000a031916815260200191505b5097505050505050505060405180910390f35b3415611d2f57600080fd5b611d64600480803590602001909190803573ffffffffffffffffffffffffffffffffffffffff16906020019091905050614a06565b005b6000806000806000601b86815481101515611d7d57fe5b906000526020600020906007020160040160039054906101000a900460ff1660ff169150601b86815481101515611db057fe5b906000526020600020906007020160040160049054906101000a900460ff1660ff16905060006001600088815260200190815260200160002060010180549050141515611e29576001600087815260200190815260200160002060010181815481101515611e1a57fe5b90600052602060002090015494505b60006001600088815260200190815260200160002060020180549050141515611e7e576001600087815260200190815260200160002060020181815481101515611e6f57fe5b90600052602060002090015493505b60006001600088815260200190815260200160002060030180549050141515611ef3576001600087815260200190815260200160002060030181815481101515611ec457fe5b906000526020600020900160009054906101000a900473ffffffffffffffffffffffffffffffffffffffff1692505b50509193909250565b8083815181101515611f0a57fe5b906020019060200201516000808681526020019081526020016000206000016000858152602001908152602001600020600084600019166000191681526020019081526020016000208190555050505050565b80601d60006101000a81548173ffffffffffffffffffffffffffffffffffffffff021916908373ffffffffffffffffffffffffffffffffffffffff16021790555050565b6000611fad8683612b04565b600090505b845181101561201c57600160008781526020019081526020016000206001018054806001018281611fe39190614fa3565b916000526020600020900160008784815181101515611ffe57fe5b90602001906020020151909190915055508080600101915050611fb2565b600090505b8351811015612091576001600087815260200190815260200160002060020180548060010182816120529190614fcf565b91600052602060002090016000868481518110151561206d57fe5b90602001906020020151909190915090600019169055508080600101915050612021565b600090505b825181101561213a576001600087815260200190815260200160002060030180548060010182816120c79190614ffb565b9160005260206000209001600085848151811015156120e257fe5b90602001906020020151909190916101000a81548173ffffffffffffffffffffffffffffffffffffffff021916908373ffffffffffffffffffffffffffffffffffffffff160217905550508080600101915050612096565b505050505050565b6000600160008481526020019081526020016000206007018281548110151561216757fe5b906000526020600020900154905092915050565b80601b8381548110151561218b57fe5b906000526020600020906007020160040160026101000a81548160ff021916908360ff16021790555042601b838154811015156121c457fe5b9060005260206000209060070201600301819055505050565b60115481565b8060128190555050565b6000601b828154811015156121fe57fe5b906000526020600020906007020160000160009054906101000a900473ffffffffffffffffffffffffffffffffffffffff169050919050565b808381518110151561224557fe5b9060200190602002015160008086815260200190815260200160002060020160008581526020019081526020016000206000846000191660001916815260200190815260200160002060006101000a81548173ffffffffffffffffffffffffffffffffffffffff021916908373ffffffffffffffffffffffffffffffffffffffff16021790555050505050565b6001600b60008373ffffffffffffffffffffffffffffffffffffffff1673ffffffffffffffffffffffffffffffffffffffff1681526020019081526020016000205401600b60008373ffffffffffffffffffffffffffffffffffffffff1673ffffffffffffffffffffffffffffffffffffffff1681526020019081526020016000208190555050565b6000600560008373ffffffffffffffffffffffffffffffffffffffff1673ffffffffffffffffffffffffffffffffffffffff168152602001908152602001600020549050919050565b806004600084815260200190815260200160002060000160006101000a81548160ff021916908360ff1602179055505050565b80601f60006101000a81548173ffffffffffffffffffffffffffffffffffffffff021916908373ffffffffffffffffffffffffffffffffffffffff16021790555081601e60006101000a81548173ffffffffffffffffffffffffffffffffffffffff021916908373ffffffffffffffffffffffffffffffffffffffff1602179055505050565b6003600083815260200190815260200160002080548060010182816124829190615027565b9160005260206000209060020201600060408051908101604052808560ff16815260200142815250909190915060008201518160000155602082015181600101555050505050565b600c5481565b60008090505b8151811015612540576004600084815260200190815260200160002060010180548060010182816125079190614fa3565b91600052602060002090016000848481518110151561252257fe5b906020019060200201519091909150555080806001019150506124d6565b505050565b600080600080600080601354601454601554601654601754601854955095509550955095509550909192939495565b6000601f60009054906101000a900473ffffffffffffffffffffffffffffffffffffffff16602160006101000a81548173ffffffffffffffffffffffffffffffffffffffff021916908373ffffffffffffffffffffffffffffffffffffffff160217905550602160009054906101000a900473ffffffffffffffffffffffffffffffffffffffff1673ffffffffffffffffffffffffffffffffffffffff166370a08231836000604051602001526040518263ffffffff167c0100000000000000000000000000000000000000000000000000000000028152600401808273ffffffffffffffffffffffffffffffffffffffff1673ffffffffffffffffffffffffffffffffffffffff168152602001915050602060405180830381600087803b151561269e57600080fd5b6102c65a03f115156126af57600080fd5b505050604051805190509050919050565b601b80548060010182816126d49190615059565b916000526020600020906007020160006101a0604051908101604052803373ffffffffffffffffffffffffffffffffffffffff168152602001878152602001428152602001428152602001600060ff168152602001600060ff168152602001600060ff1681526020018660ff168152602001600060ff168152602001600060ff1681526020018573ffffffffffffffffffffffffffffffffffffffff168152602001600081526020016000815250909190915060008201518160000160006101000a81548173ffffffffffffffffffffffffffffffffffffffff021916908373ffffffffffffffffffffffffffffffffffffffff16021790555060208201518160010190805190602001906127ea92919061508b565b50604082015181600201556060820151816003015560808201518160040160006101000a81548160ff021916908360ff16021790555060a08201518160040160016101000a81548160ff021916908360ff16021790555060c08201518160040160026101000a81548160ff021916908360ff16021790555060e08201518160040160036101000a81548160ff021916908360ff1602179055506101008201518160040160046101000a81548160ff021916908360ff1602179055506101208201518160040160056101000a81548160ff021916908360ff1602179055506101408201518160040160066101000a81548173ffffffffffffffffffffffffffffffffffffffff021916908373ffffffffffffffffffffffffffffffffffffffff16021790555061016082015181600501556101808201518160060155505050505050565b6000601b8281548110151561293e57fe5b9060005260206000209060070201600601549050919050565b6000601b8281548110151561296857fe5b906000526020600020906007020160040160029054906101000a900460ff1660ff169050919050565b6000426129c0601b848154811015156129a657fe5b906000526020600020906007020160030154600c54614a5f565b111515156129cd57600080fd5b60019050919050565b80838151811015156129e457fe5b90602001906020020151600080868152602001908152602001600020600101600085815260200190815260200160002060008460001916600019168152602001908152602001600020816000191690555050505050565b80601c83815481101515612a4b57fe5b906000526020600020906002020160010160006101000a81548173ffffffffffffffffffffffffffffffffffffffff021916908373ffffffffffffffffffffffffffffffffffffffff1602179055505050565b80600d8190555050565b8060118190555050565b600d5481565b6000600860008373ffffffffffffffffffffffffffffffffffffffff1673ffffffffffffffffffffffffffffffffffffffff168152602001908152602001600020805490509050919050565b806001600084815260200190815260200160002060040160006101000a81548160ff021916908360ff1602179055505050565b6000806000839250601c84815481101515612b4e57fe5b9060005260206000209060020201600001549150601c84815481101515612b7157fe5b906000526020600020906002020160010160009054906101000a900473ffffffffffffffffffffffffffffffffffffffff1690509193909250565b612bb461510b565b6001600084815260200190815260200160002060080182815481101515612bd757fe5b90600052602060002090018054600181600116156101000203166002900480601f016020809104026020016040519081016040528092919081815260200182805460018160011615610100020316600290048015612c765780601f10612c4b57610100808354040283529160200191612c76565b820191906000526020600020905b815481529060010190602001808311612c5957829003601f168201915b5050505050905092915050565b6000600960008373ffffffffffffffffffffffffffffffffffffffff1673ffffffffffffffffffffffffffffffffffffffff168152602001908152602001600020549050919050565b80601b83815481101515612cdc57fe5b9060005260206000209060070201600501819055505050565b600160008681526020019081526020016000206005018054806001018281612d1d9190614ffb565b9160005260206000209001600086909190916101000a81548173ffffffffffffffffffffffffffffffffffffffff021916908373ffffffffffffffffffffffffffffffffffffffff16021790555050600160008681526020019081526020016000206006018054806001018281612d949190614fa3565b916000526020600020900160008490919091505550600160008681526020019081526020016000206007018054806001018281612dd19190614fa3565b916000526020600020900160008590919091505550600160008681526020019081526020016000206008018054806001018281612e0e919061511f565b916000526020600020900160008390919091509080519060200190612e3492919061514b565b5050612e80600960008673ffffffffffffffffffffffffffffffffffffffff1673ffffffffffffffffffffffffffffffffffffffff168152602001908152602001600020546001614a5f565b600960008673ffffffffffffffffffffffffffffffffffffffff1673ffffffffffffffffffffffffffffffffffffffff16815260200190815260200160002081905550612f0c600a60008673ffffffffffffffffffffffffffffffffffffffff1673ffffffffffffffffffffffffffffffffffffffff1681526020019081526020016000205484614a5f565b600a60008673ffffffffffffffffffffffffffffffffffffffff1673ffffffffffffffffffffffffffffffffffffffff168152602001908152602001600020819055505050505050565b6000600b60008373ffffffffffffffffffffffffffffffffffffffff1673ffffffffffffffffffffffffffffffffffffffff168152602001908152602001600020549050919050565b6000601b83815481101515612fb057fe5b906000526020600020906007020160040160039054906101000a900460ff1660ff1614151515612fdf57600080fd5b612fe9828261245d565b612ff3828261217b565b5050565b6000600660008481526020019081526020016000208281548110151561301957fe5b906000526020600020900154905092915050565b80600560008473ffffffffffffffffffffffffffffffffffffffff1673ffffffffffffffffffffffffffffffffffffffff168152602001908152602001600020819055505050565b600e5481565b600080600060016000868152602001908152602001600020600701848154811015156130a357fe5b906000526020600020900154925060016000868152602001908152602001600020600601848154811015156130d457fe5b9060005260206000209001549150600160008681526020019081526020016000206005018481548110151561310557fe5b906000526020600020900160009054906101000a900473ffffffffffffffffffffffffffffffffffffffff1690509250925092565b6000601b8281548110151561314b57fe5b906000526020600020906007020160040160039054906101000a900460ff169050919050565b6131796151cb565b600660008381526020019081526020016000208054806020026020016040519081016040528092919081815260200182805480156131d657602002820191906000526020600020905b8154815260200190600101908083116131c2575b50505050509050919050565b6000601b80549050905090565b6000806000806000806132018761235b565b9550600860008873ffffffffffffffffffffffffffffffffffffffff1673ffffffffffffffffffffffffffffffffffffffff16815260200190815260200160002080549050945061325187614a7d565b9350600960008873ffffffffffffffffffffffffffffffffffffffff1673ffffffffffffffffffffffffffffffffffffffff168152602001908152602001600020549250600a60008873ffffffffffffffffffffffffffffffffffffffff1673ffffffffffffffffffffffffffffffffffffffff1681526020019081526020016000205491506132e087612f56565b905091939550919395565b80601b838154811015156132fb57fe5b9060005260206000209060070201600601819055505050565b60026000828152602001908152602001600020805480600101828161333991906151df565b91600052602060002090600302016000606060405190810160405280601b8681548110151561336457fe5b906000526020600020906007020160040160009054906101000a900460ff1660ff168152602001601b8681548110151561339a57fe5b90600052602060002090600702016001018054600181600116156101000203166002900480601f01602080910402602001604051908101604052809291908181526020018280546001816001161561010002031660029004801561343f5780601f106134145761010080835404028352916020019161343f565b820191906000526020600020905b81548152906001019060200180831161342257829003601f168201915b50505050508152602001601b8681548110151561345857fe5b906000526020600020906007020160020154815250909190915060008201518160000155602082015181600101908051906020019061349892919061508b565b506040820151816002015550505050565b80601b838154811015156134b957fe5b906000526020600020906007020160040160036101000a81548160ff021916908360ff1602179055505050565b600060066000838152602001908152602001600020805490509050919050565b60125481565b60006001600083815260200190815260200160002060040160009054906101000a900460ff169050919050565b80601b8381548110151561354957fe5b9060005260206000209060070201600101908051906020019061356d92919061514b565b5042601b8381548110151561357e57fe5b9060005260206000209060070201600301819055506001601b838154811015156135a457fe5b906000526020600020906007020160040160009054906101000a900460ff1601601b838154811015156135d357fe5b906000526020600020906007020160040160006101000a81548160ff021916908360ff1602179055505050565b856013819055508460148190555083601581905550826016819055508160178190555080601881905550505050505050565b61363a6151cb565b613642615211565b61364a615225565b60006001600086815260200190815260200160002060010160016000878152602001908152602001600020600201600160008881526020019081526020016000206003016001600089815260200190815260200160002060040160009054906101000a900460ff16838054806020026020016040519081016040528092919081815260200182805480156136fd57602002820191906000526020600020905b8154815260200190600101908083116136e9575b505050505093508280548060200260200160405190810160405280929190818152602001828054801561375357602002820191906000526020600020905b8154600019168152602001906001019080831161373b575b50505050509250818054806020026020016040519081016040528092919081815260200182805480156137db57602002820191906000526020600020905b8160009054906101000a900473ffffffffffffffffffffffffffffffffffffffff1673ffffffffffffffffffffffffffffffffffffffff1681526020019060010190808311613791575b5050505050915093509350935093509193509193565b6000601e60009054906101000a900473ffffffffffffffffffffffffffffffffffffffff16602160006101000a81548173ffffffffffffffffffffffffffffffffffffffff021916908373ffffffffffffffffffffffffffffffffffffffff160217905550602160009054906101000a900473ffffffffffffffffffffffffffffffffffffffff1673ffffffffffffffffffffffffffffffffffffffff166318160ddd6000604051602001526040518163ffffffff167c0100000000000000000000000000000000000000000000000000000000028152600401602060405180830381600087803b15156138e457600080fd5b6102c65a03f115156138f557600080fd5b50505060405180519050905090565b600080601b8381548110151561391657fe5b9060005260206000209060070201600501549150601b8381548110151561393957fe5b9060005260206000209060070201600601549050915091565b60105481565b600060016000838152602001908152602001600020600501805490501415613ce3576001600082815260200190815260200160002060050180548060010182816139a29190614ffb565b9160005260206000209001600080909190916101000a81548173ffffffffffffffffffffffffffffffffffffffff021916908373ffffffffffffffffffffffffffffffffffffffff16021790555050600160008281526020019081526020016000206006018054806001018281613a199190614fa3565b916000526020600020900160008090919091505550600160008281526020019081526020016000206007018054806001018281613a569190614fa3565b9160005260206000209001600080909190915055506000806000838152602001908152602001600020600001600080815260200190815260200160002060007f64656e7900000000000000000000000000000000000000000000000000000000600019168152602001908152602001600020819055507f64656e7900000000000000000000000000000000000000000000000000000000600080838152602001908152602001600020600101600080815260200190815260200160002060007f64656e790000000000000000000000000000000000000000000000000000000060001916815260200190815260200160002081600019169055506000806000838152602001908152602001600020600201600080815260200190815260200160002060007f64656e790000000000000000000000000000000000000000000000000000000060001916815260200190815260200160002060006101000a81548173ffffffffffffffffffffffffffffffffffffffff021916908373ffffffffffffffffffffffffffffffffffffffff160217905550600160008281526020019081526020016000206001018054806001018281613c139190614fa3565b916000526020600020900160008090919091505550600160008281526020019081526020016000206002018054806001018281613c509190614fcf565b916000526020600020900160008090919091509060001916905550600160008281526020019081526020016000206003018054806001018281613c939190614ffb565b9160005260206000209001600080909190916101000a81548173ffffffffffffffffffffffffffffffffffffffff021916908373ffffffffffffffffffffffffffffffffffffffff160217905550505b50565b600060016000838152602001908152602001600020600501805490509050919050565b601e60009054906101000a900473ffffffffffffffffffffffffffffffffffffffff16602160006101000a81548173ffffffffffffffffffffffffffffffffffffffff021916908373ffffffffffffffffffffffffffffffffffffffff160217905550600f548110151515613d7d57600080fd5b602160009054906101000a900473ffffffffffffffffffffffffffffffffffffffff1673ffffffffffffffffffffffffffffffffffffffff1663a9059cbb601d60009054906101000a900473ffffffffffffffffffffffffffffffffffffffff16836000604051602001526040518363ffffffff167c0100000000000000000000000000000000000000000000000000000000028152600401808373ffffffffffffffffffffffffffffffffffffffff1673ffffffffffffffffffffffffffffffffffffffff16815260200182815260200192505050602060405180830381600087803b1515613e6c57600080fd5b6102c65a03f11515613e7d57600080fd5b505050604051805190505050565b601c8054806001018281613e9f9190615239565b916000526020600020906002020160006040805190810160405280866000191681526020018573ffffffffffffffffffffffffffffffffffffffff1681525090919091506000820151816000019060001916905560208201518160010160006101000a81548173ffffffffffffffffffffffffffffffffffffffff021916908373ffffffffffffffffffffffffffffffffffffffff16021790555050505081600760008373ffffffffffffffffffffffffffffffffffffffff1673ffffffffffffffffffffffffffffffffffffffff16815260200190815260200160002081600019169055505050565b6000601b82815481101515613f9a57fe5b9060005260206000209060070201600501549050919050565b60006001600084815260200190815260200160002060060182815481101515613fd857fe5b906000526020600020900154905092915050565b6000613ff661510b565b6000600260008681526020019081526020016000208481548110151561401857fe5b906000526020600020906003020160000154600260008781526020019081526020016000208581548110151561404a57fe5b9060005260206000209060030201600101600260008881526020019081526020016000208681548110151561407b57fe5b906000526020600020906003020160020154818054600181600116156101000203166002900480601f0160208091040260200160405190810160405280929190818152602001828054600181600116156101000203166002900480156141225780601f106140f757610100808354040283529160200191614122565b820191906000526020600020905b81548152906001019060200180831161410557829003601f168201915b505050505091509250925092509250925092565b80600f8190555050565b82601b8581548110151561415057fe5b906000526020600020906007020160040160016101000a81548160ff021916908360ff16021790555081601b8581548110151561418957fe5b906000526020600020906007020160040160056101000a81548160ff021916908360ff16021790555080601b858154811015156141c257fe5b906000526020600020906007020160040160046101000a81548160ff021916908360ff16021790555050505050565b60006141fb61510b565b600061420561510b565b600080600087601b8981548110151561421a57fe5b9060005260206000209060070201600101601b8a81548110151561423a57fe5b906000526020600020906007020160020154601a601b8c81548110151561425d57fe5b906000526020600020906007020160040160029054906101000a900460ff1660ff1681548110151561428b57fe5b9060005260206000209001601b8c8154811015156142a557fe5b906000526020600020906007020160040160039054906101000a900460ff16600660008e815260200190815260200160002080549050600160008f815260200190815260200160002060040160009054906101000a900460ff16858054600181600116156101000203166002900480601f0160208091040260200160405190810160405280929190818152602001828054600181600116156101000203166002900480156143945780601f1061436957610100808354040283529160200191614394565b820191906000526020600020905b81548152906001019060200180831161437757829003601f168201915b50505050509550838054600181600116156101000203166002900480601f0160208091040260200160405190810160405280929190818152602001828054600181600116156101000203166002900480156144305780601f1061440557610100808354040283529160200191614430565b820191906000526020600020905b81548152906001019060200180831161441357829003601f168201915b505050505093508260ff1692509650965096509650965096509650919395979092949650565b600080600080601b8681548110151561446b57fe5b906000526020600020906007020160040160049054906101000a900460ff1660ff16905061449a868683614aef565b93506144a7868683614b3a565b92506144b4868683614b85565b9150509250925092565b6006600083815260200190815260200160002080548060010182816144e39190614fa3565b9160005260206000209001600083909190915055505050565b50565b600060195414151561451057600080fd5b614518614bf0565b614520614c2a565b614528614f47565b6001601981905550565b6000600160008481526020019081526020016000206005018281548110151561455757fe5b906000526020600020900160009054906101000a900473ffffffffffffffffffffffffffffffffffffffff16905092915050565b6000806000600e549250601b8054905091508290505b81811015614606576003601b828154811015156145ba57fe5b906000526020600020906007020160040160029054906101000a900460ff1660ff1611156145f4576145ed836001614a5f565b92506145f9565b614606565b80806001019150506145a1565b82811415156146175780600e819055505b505050565b8060108190555050565b6000600460008481526020019081526020016000206001018281548110151561464b57fe5b906000526020600020900154905092915050565b6000601c80549050905090565b6000806000806000601b8681548110151561468357fe5b906000526020600020906007020160040160039054906101000a900460ff16601b878154811015156146b157fe5b906000526020600020906007020160040160019054906101000a900460ff16601b888154811015156146df57fe5b906000526020600020906007020160040160059054906101000a900460ff16601b8981548110151561470d57fe5b906000526020600020906007020160040160049054906101000a900460ff16601b8a81548110151561473b57fe5b906000526020600020906007020160040160069054906101000a900473ffffffffffffffffffffffffffffffffffffffff169450945094509450945091939590929450565b600f5481565b6000601c8281548110151561479757fe5b906000526020600020906002020160010160009054906101000a900473ffffffffffffffffffffffffffffffffffffffff169050919050565b600860008273ffffffffffffffffffffffffffffffffffffffff1673ffffffffffffffffffffffffffffffffffffffff16815260200190815260200160002080548060010182816148219190614fa3565b9160005260206000209001600084909190915055505050565b600061484461510b565b600080600080601b8781548110151561485957fe5b906000526020600020906007020160000160009054906101000a900473ffffffffffffffffffffffffffffffffffffffff16601b8881548110151561489a57fe5b9060005260206000209060070201600101601b898154811015156148ba57fe5b906000526020600020906007020160020154601b8a8154811015156148db57fe5b906000526020600020906007020160030154601b8b8154811015156148fc57fe5b906000526020600020906007020160040160009054906101000a900460ff16601b8c81548110151561492a57fe5b906000526020600020906007020160040160029054906101000a900460ff16848054600181600116156101000203166002900480601f0160208091040260200160405190810160405280929190818152602001828054600181600116156101000203166002900480156149de5780601f106149b3576101008083540402835291602001916149de565b820191906000526020600020905b8154815290600101906020018083116149c157829003601f168201915b505050505094508160ff1691508060ff16905095509550955095509550955091939550919395565b806001600084815260200190815260200160002060000160006101000a81548173ffffffffffffffffffffffffffffffffffffffff021916908373ffffffffffffffffffffffffffffffffffffffff1602179055505050565b6000808284019050838110151515614a7357fe5b8091505092915050565b600080600090505b600860008473ffffffffffffffffffffffffffffffffffffffff1673ffffffffffffffffffffffffffffffffffffffff16815260200190815260200160002080549050811015614ae957614ad881614f79565b820191508080600101915050614a85565b50919050565b60008060008581526020019081526020016000206000016000838152602001908152602001600020600084600019166000191681526020019081526020016000205490509392505050565b60008060008581526020019081526020016000206001016000838152602001908152602001600020600084600019166000191681526020019081526020016000205490509392505050565b600080600085815260200190815260200160002060020160008381526020019081526020016000206000846000191660001916815260200190815260200160002060009054906101000a900473ffffffffffffffffffffffffffffffffffffffff1690509392505050565b6014600c819055506000600e819055506019600d81905550600a600f81905550600560108190555060016011819055506001601281905550565b601a8054806001018281614c3e919061511f565b916000526020600020900160006040805190810160405280601481526020017f447261667420666f722064697363757373696f6e00000000000000000000000081525090919091509080519060200190614c9992919061514b565b5050601a8054806001018281614caf919061511f565b916000526020600020900160006040805190810160405280601a81526020017f447261667420526561647920666f72207375626d697373696f6e00000000000081525090919091509080519060200190614d0a92919061514b565b5050601a8054806001018281614d20919061511f565b916000526020600020900160006040805190810160405280600e81526020017f566f74696e67207374617274656400000000000000000000000000000000000081525090919091509080519060200190614d7b92919061514b565b5050601a8054806001018281614d91919061511f565b91600052602060002090016000606060405190810160405280602f81526020017f50726f706f73616c204465636973696f6e202d2041636365707465642062792081526020017f4d616a6f7269747920566f74696e67000000000000000000000000000000000081525090919091509080519060200190614e1392919061514b565b5050601a8054806001018281614e29919061511f565b91600052602060002090016000606060405190810160405280602f81526020017f50726f706f73616c204465636973696f6e202d2052656a65637465642062792081526020017f4d616a6f7269747920766f74696e67000000000000000000000000000000000081525090919091509080519060200190614eab92919061514b565b5050601a8054806001018281614ec1919061511f565b91600052602060002090016000606060405190810160405280602681526020017f50726f706f73616c2044656e6965642c205468726573686f6c64206e6f74207281526020017f656163686564000000000000000000000000000000000000000000000000000081525090919091509080519060200190614f4392919061514b565b5050565b600560138190555060056014819055506001601581905550600160168190555060016017819055506001601881905550565b6000601b82815481101515614f8a57fe5b9060005260206000209060070201600601549050919050565b815481835581811511614fca57818360005260206000209182019101614fc9919061526b565b5b505050565b815481835581811511614ff657818360005260206000209182019101614ff59190615290565b5b505050565b81548183558181151161502257818360005260206000209182019101615021919061526b565b5b505050565b8154818355818115116150545760020281600202836000526020600020918201910161505391906152b5565b5b505050565b8154818355818115116150865760070281600702836000526020600020918201910161508591906152e4565b5b505050565b828054600181600116156101000203166002900490600052602060002090601f016020900481019282601f106150cc57805160ff19168380011785556150fa565b828001600101855582156150fa579182015b828111156150f95782518255916020019190600101906150de565b5b509050615107919061526b565b5090565b602060405190810160405280600081525090565b8154818355818115116151465781836000526020600020918201910161514591906153f9565b5b505050565b828054600181600116156101000203166002900490600052602060002090601f016020900481019282601f1061518c57805160ff19168380011785556151ba565b828001600101855582156151ba579182015b828111156151b957825182559160200191906001019061519e565b5b5090506151c7919061526b565b5090565b602060405190810160405280600081525090565b81548183558181151161520c5760030281600302836000526020600020918201910161520b9190615425565b5b505050565b602060405190810160405280600081525090565b602060405190810160405280600081525090565b815481835581811511615266576002028160020283600052602060002091820191016152659190615464565b5b505050565b61528d91905b80821115615289576000816000905550600101615271565b5090565b90565b6152b291905b808211156152ae576000816000905550600101615296565b5090565b90565b6152e191905b808211156152dd576000808201600090556001820160009055506002016152bb565b5090565b90565b6153f691905b808211156153f257600080820160006101000a81549073ffffffffffffffffffffffffffffffffffffffff021916905560018201600061532a91906154b2565b600282016000905560038201600090556004820160006101000a81549060ff02191690556004820160016101000a81549060ff02191690556004820160026101000a81549060ff02191690556004820160036101000a81549060ff02191690556004820160046101000a81549060ff02191690556004820160056101000a81549060ff02191690556004820160066101000a81549073ffffffffffffffffffffffffffffffffffffffff021916905560058201600090556006820160009055506007016152ea565b5090565b90565b61542291905b8082111561541e576000818161541591906154b2565b506001016153ff565b5090565b90565b61546191905b8082111561545d5760008082016000905560018201600061544c91906154b2565b60028201600090555060030161542b565b5090565b90565b6154af91905b808211156154ab576000808201600090556001820160006101000a81549073ffffffffffffffffffffffffffffffffffffffff02191690555060020161546a565b5090565b90565b50805460018160011615610100020316600290046000825580601f106154d857506154f7565b601f0160209004906000526020600020908101906154f6919061526b565b5b505600a165627a7a72305820e7a2a381f78d8e53a74b34c3541f84e7adc9a60873833b6a09637987b0e9dae90029",
  "source": "/* Copyright (C) 2017 GovBlocks.io\r\n\r\n  This program is free software: you can redistribute it and/or modify\r\n    it under the terms of the GNU General Public License as published by\r\n    the Free Software Foundation, either version 3 of the License, or\r\n    (at your option) any later version.\r\n\r\n  This program is distributed in the hope that it will be useful,\r\n    but WITHOUT ANY WARRANTY; without even the implied warranty of\r\n    MERCHANTABILITY or FITNESS FOR A PARTICULAR PURPOSE.  See the\r\n    GNU General Public License for more details.\r\n\r\n  You should have received a copy of the GNU General Public License\r\n    along with this program.  If not, see http://www.gnu.org/licenses/ */\r\n\r\n\r\npragma solidity ^0.4.8;\r\nimport \"./zeppelin-solidity/contracts/token/BasicToken.sol\";\r\nimport \"./zeppelin-solidity/contracts/token/MintableToken.sol\";\r\n// import \"./BasicToken.sol\";\r\n// import \"./MintableToken.sol\";\r\n// import \"./Master.sol\";\r\n// import \"./Pool.sol\";\r\n\r\ncontract GovernanceData {\r\n    using SafeMath for uint;\r\n    struct proposal{\r\n        address owner;\r\n        string proposalDescHash;\r\n        uint date_add;\r\n        uint date_upd;\r\n        uint8 versionNum;\r\n        uint8 currVotingStatus;\r\n        uint8 propStatus;  \r\n        uint8 category;\r\n        uint8 finalVerdict;\r\n        uint8 currentVerdict;\r\n        address votingTypeAddress;\r\n        uint proposalValue;\r\n        uint proposalStake;\r\n    }\r\n\r\n    struct proposalCategory{\r\n        address categorizedBy;\r\n        uint[] paramInt;\r\n        bytes32[] paramBytes32;\r\n        address[] paramAddress;\r\n        uint8 verdictOptions;\r\n        address[] optionAddedByAddress;\r\n        uint[] valueOfOption;\r\n        uint[] stakeOnOption;\r\n        string[] optionDescHash;\r\n    }\r\n\r\n    struct proposalCategoryParams\r\n    {\r\n        mapping(uint=>mapping(bytes32=>uint)) optionNameIntValue;\r\n        mapping(uint=>mapping(bytes32=>bytes32)) optionNameBytesValue;\r\n        mapping(uint=>mapping(bytes32=>address)) optionNameAddressValue;\r\n    }\r\n\r\n    mapping(uint=>proposalCategoryParams) allProposalCategoryParams;\r\n\r\n    struct proposalVersionData{\r\n        uint versionNum;\r\n        string proposalDescHash;\r\n        uint date_add;\r\n    }\r\n\r\n    struct Status{\r\n        uint statusId;\r\n        uint date;\r\n    }\r\n    \r\n    struct proposalPriority \r\n    {\r\n        uint8 complexityLevel;\r\n        uint[] levelReward;\r\n    }\r\n\r\n   \r\n    struct votingTypeDetails\r\n    {\r\n        bytes32 votingTypeName;\r\n        address votingTypeAddress;\r\n    }\r\n\r\n    mapping(uint=>proposalCategory) allProposalCategory;\r\n    mapping(uint=>proposalVersionData[]) proposalVersions;\r\n    mapping(uint=>Status[]) proposalStatus;\r\n    mapping(uint=>proposalPriority) allProposalPriority;\r\n    mapping(address=>uint) allMemberReputationByAddress;\r\n    mapping(uint=>uint[]) totalVotesAgainstProposal;\r\n    mapping(address=>bytes32) votingTypeNameByAddress;\r\n    mapping(address=>uint[]) allProposalMember; // Proposal Against Member\r\n    mapping(address=>uint) allProposalOption; // Total Options against Member\r\n    mapping(address=>uint) totalOptionStake; // total Optionstake Against member\r\n    mapping(address=>uint) totalVotesAgainstMember; // Total Votes given by member till now..\r\n\r\n    uint public proposalVoteClosingTime;\r\n    uint public quorumPercentage;\r\n    uint public pendingProposalStart;\r\n    uint public GBTStakeValue; \r\n    uint public globalRiskFactor; \r\n    uint public membershipScalingFactor;\r\n    uint public scalingWeight;\r\n    uint addProposalOwnerPoints;\r\n    uint addOptionOwnerPoints;\r\n    uint addMemberPoints;\r\n    uint subProposalOwnerPoints;\r\n    uint subOptionOwnerPoints;\r\n    uint subMemberPoints;\r\n    uint constructorCheck;\r\n\r\n    string[]  status;\r\n    proposal[] allProposal;\r\n    votingTypeDetails[] allVotingTypeDetails;\r\n\r\n    address GBTAddress;\r\n    address BTAddress;\r\n    address MTAddress;\r\n    // address masterAddress;\r\n    address owner;\r\n    BasicToken BT;\r\n    MintableToken MT;\r\n    // Master MS;\r\n    // Pool P1;\r\n\r\n    modifier onlyInternal {\r\n        // MS=Master(masterAddress);\r\n        // require(MS.isInternal(msg.sender) == 1);\r\n        \r\n        _; \r\n    }\r\n    \r\n     modifier onlyOwner {\r\n        // MS=Master(masterAddress);\r\n        // require(MS.isOwner(msg.sender) == 1);\r\n        _; \r\n    }\r\n    \r\n    function GovernanceDataInitiate() \r\n    {\r\n        require(constructorCheck == 0);\r\n            setGlobalParameters();\r\n            addStatus();\r\n            addMemberReputationPoints();\r\n            constructorCheck =1;\r\n    }\r\n    \r\n    /// @dev Add points to add or subtract in memberReputation when proposal/option/vote gets denied or accepted.\r\n    function addMemberReputationPoints() internal\r\n    {\r\n        addProposalOwnerPoints = 5;\r\n        addOptionOwnerPoints = 5;\r\n        addMemberPoints = 1;\r\n        subProposalOwnerPoints = 1;\r\n        subOptionOwnerPoints = 1;\r\n        subMemberPoints = 1;\r\n    }\r\n\r\n    /// @dev Change points to add or subtract in memberReputation when proposal/option/vote gets denied or accepted.\r\n    function changeMemberReputationPoints(uint _addProposalOwnerPoints,uint  _addOptionOwnerPoints, uint _addMemberPoints,uint _subProposalOwnerPoints,uint  _subOptionOwnerPoints, uint _subMemberPoints) onlyOwner\r\n    {\r\n        addProposalOwnerPoints = _addProposalOwnerPoints;\r\n        addOptionOwnerPoints= _addOptionOwnerPoints;\r\n        addMemberPoints = _addMemberPoints;\r\n        subProposalOwnerPoints = _subProposalOwnerPoints;\r\n        subOptionOwnerPoints= _subOptionOwnerPoints;\r\n        subMemberPoints = _subMemberPoints;\r\n    }\r\n\r\n    /// @dev Get points to proceed with updating the member reputation level.\r\n    function getMemberReputationPoints() constant returns(uint addProposalOwnPoints,uint addOptionOwnPoints,uint addMemPoints,uint subProposalOwnPoints,uint subOptionOwnPoints,uint subMemPoints)\r\n    {\r\n        return (addProposalOwnerPoints,addOptionOwnerPoints,addMemberPoints,subProposalOwnerPoints,subOptionOwnerPoints,subMemberPoints);\r\n    } \r\n\r\n\r\n    /// @dev add status.\r\n    function addStatus() internal\r\n    {\r\n        status.push(\"Draft for discussion\"); \r\n        status.push(\"Draft Ready for submission\");\r\n        status.push(\"Voting started\"); \r\n        status.push(\"Proposal Decision - Accepted by Majority Voting\"); \r\n        status.push(\"Proposal Decision - Rejected by Majority voting\"); \r\n        status.push(\"Proposal Denied, Threshold not reached\"); \r\n    }\r\n\r\n    /// @dev Set Parameters value that will help in Distributing reward.\r\n    function setGlobalParameters() internal\r\n    {\r\n        proposalVoteClosingTime = 20;\r\n        pendingProposalStart=0;\r\n        quorumPercentage=25;\r\n        GBTStakeValue=10;\r\n        globalRiskFactor=5;\r\n        membershipScalingFactor=1;\r\n        scalingWeight=1;\r\n    }\r\n\r\n    /// @dev Change master's contract address\r\n    function changeMasterAddress(address _masterContractAddress) \r\n    {\r\n        // if(masterAddress == 0x000)\r\n        //     masterAddress = _masterContractAddress;\r\n        // else\r\n        // {\r\n        //     MS=Master(masterAddress);\r\n        //     require(MS.isInternal(msg.sender) == 1);\r\n        //         masterAddress = _masterContractAddress;\r\n        // }\r\n    }\r\n\r\n    /// @dev change all contract's addresses.\r\n    function changeAllContractsAddress(address _BTcontractAddress,address _MTContractAddress) onlyInternal\r\n    {\r\n        MTAddress = _MTContractAddress;\r\n        BTAddress = _BTcontractAddress;\r\n    }\r\n\r\n    // function changePoolAddress(address _poolAddress)\r\n    // {\r\n    //     PAddress = _poolAddress;\r\n    // }\r\n\r\n    /// @dev Changes GBT contract Address. //NEW\r\n    function changeGBTtokenAddress(address _GBTcontractAddress) onlyInternal\r\n    {\r\n        GBTAddress = _GBTcontractAddress;\r\n    }\r\n\r\n    /// @dev Checks if voting time of a given proposal should be closed or not. \r\n    function checkProposalVoteClosing(uint _proposalId) onlyInternal constant returns(uint8 closeValue) \r\n    {\r\n        require(SafeMath.add(allProposal[_proposalId].date_upd,proposalVoteClosingTime) <= now);\r\n        closeValue=1;\r\n    }\r\n\r\n    /// @dev Set Vote Id against given proposal.\r\n    function setVoteIdAgainstProposal(uint _proposalId,uint _voteId) onlyInternal\r\n    {\r\n        totalVotesAgainstProposal[_proposalId].push(_voteId);\r\n    }\r\n\r\n    /// @dev Set all the voting type names and thier addresses.\r\n    function setVotingTypeDetails(bytes32 _votingTypeName,address _votingTypeAddress) onlyOwner\r\n    {\r\n        allVotingTypeDetails.push(votingTypeDetails(_votingTypeName,_votingTypeAddress)); \r\n        votingTypeNameByAddress[_votingTypeAddress] = _votingTypeName;\r\n    }\r\n\r\n    function editVotingType(uint _votingTypeId,address _votingTypeAddress)\r\n    {\r\n        allVotingTypeDetails[_votingTypeId].votingTypeAddress = _votingTypeAddress;\r\n    }\r\n    \r\n    function setTotalOptions(uint _proposalId,uint8 _options)\r\n    {\r\n        allProposalCategory[_proposalId].verdictOptions = _options;\r\n    }\r\n\r\n    /// @dev Set the Deatils of added verdict i.e. Verdict Stake, Verdict value and Address of the member whoever added the verdict.\r\n    function setOptionAddressAndStake(uint _proposalId,address _memberAddress,uint _stakeValue,uint _optionValue,string _optionHash) onlyInternal\r\n    {\r\n        allProposalCategory[_proposalId].optionAddedByAddress.push(_memberAddress);\r\n        allProposalCategory[_proposalId].valueOfOption.push(_optionValue);\r\n        allProposalCategory[_proposalId].stakeOnOption.push(_stakeValue);\r\n        allProposalCategory[_proposalId].optionDescHash.push(_optionHash);\r\n        allProposalOption[_memberAddress] = SafeMath.add(allProposalOption[_memberAddress],1);\r\n        totalOptionStake[_memberAddress] = SafeMath.add(totalOptionStake[_memberAddress],_stakeValue);\r\n    }\r\n\r\n    function setProposalCategory(uint _proposalId,uint8 _categoryId)\r\n    {\r\n        allProposal[_proposalId].category = _categoryId;\r\n    }\r\n\r\n    function setProposalStake(uint _proposalId,uint _memberStake)\r\n    {\r\n        allProposal[_proposalId].proposalStake = _memberStake;\r\n    }\r\n\r\n    function setProposalValue(uint _proposalId,uint _proposalValue)\r\n    {\r\n        allProposal[_proposalId].proposalValue = _proposalValue;\r\n    }\r\n\r\n    /// @dev Some amount to be paid while using GovBlocks contract service - Approve the contract to spend money on behalf of msg.sender\r\n    function payableGBTTokens(uint _TokenAmount) onlyInternal\r\n    {\r\n        BT=BasicToken(BTAddress);\r\n        require(_TokenAmount >= GBTStakeValue);\r\n        BT.transfer(GBTAddress,_TokenAmount);\r\n    }\r\n\r\n    /// @dev Updates  status of an existing proposal.\r\n    function updateProposalStatus(uint _id ,uint8 _status) onlyInternal\r\n    {\r\n        allProposal[_id].propStatus = _status;\r\n        allProposal[_id].date_upd = now;\r\n    }\r\n\r\n    /// @dev Stores the status information of a given proposal.\r\n    function pushInProposalStatus(uint _proposalId , uint8 _status) onlyInternal\r\n    {\r\n        proposalStatus[_proposalId].push(Status(_status,now));\r\n    }\r\n\r\n    /// @dev As bydefault first option is alwayd deny option. One time configurable.\r\n    function addInitialOptionDetails(uint _proposalId) onlyInternal\r\n    {\r\n        if(allProposalCategory[_proposalId].optionAddedByAddress.length == 0)\r\n        {\r\n            allProposalCategory[_proposalId].optionAddedByAddress.push(0x00);\r\n            allProposalCategory[_proposalId].valueOfOption.push(0);\r\n            allProposalCategory[_proposalId].stakeOnOption.push(0);\r\n\r\n            allProposalCategoryParams[_proposalId].optionNameIntValue[0][\"deny\"] = 0;\r\n            allProposalCategoryParams[_proposalId].optionNameBytesValue[0][\"deny\"] = \"deny\";\r\n            allProposalCategoryParams[_proposalId].optionNameAddressValue[0][\"deny\"] = 0x00;\r\n\r\n            allProposalCategory[_proposalId].paramInt.push(0);\r\n            allProposalCategory[_proposalId].paramBytes32.push(\"\");\r\n            allProposalCategory[_proposalId].paramAddress.push(0x00);\r\n        }\r\n    }\r\n\r\n    function setProposalPriority(uint _proposalId,uint[] _levelReward)\r\n    {\r\n         for(uint i=0; i<_levelReward.length; i++)\r\n          {\r\n              allProposalPriority[_proposalId].levelReward.push(_levelReward[i]);\r\n          }  \r\n    }\r\n\r\n    function setCategorizedBy(uint _proposalId,address _memberAddress)\r\n    {\r\n        allProposalCategory[_proposalId].categorizedBy = _memberAddress;\r\n    }\r\n\r\n    function setProposalLevel(uint _proposalId,uint8 _proposalComplexityLevel)\r\n    {\r\n         allProposalPriority[_proposalId].complexityLevel = _proposalComplexityLevel;\r\n    }\r\n\r\n    /// @dev Change pending proposal start variable\r\n    function changePendingProposalStart() onlyInternal\r\n    {\r\n        uint pendingPS = pendingProposalStart;\r\n        uint proposalLength = allProposal.length;\r\n        for(uint j=pendingPS; j<proposalLength; j++)\r\n        {\r\n            if(allProposal[j].propStatus > 3)\r\n                pendingPS = SafeMath.add(pendingPS,1);\r\n            else\r\n                break;\r\n        }\r\n        if(j!=pendingPS)\r\n        {\r\n            pendingProposalStart = j;\r\n        }\r\n    }\r\n\r\n    /// @dev Changes the status of a given proposal.\r\n    function changeProposalStatus(uint _id,uint8 _status) onlyInternal\r\n    {\r\n        require(allProposal[_id].category != 0);\r\n        pushInProposalStatus(_id,_status);\r\n        updateProposalStatus(_id,_status);\r\n    }\r\n\r\n    /// @dev Change Variables that helps in Calculation of reward distribution. Risk Factor, GBT Stak Value, Scaling Factor,Scaling weight.\r\n    function changeGlobalRiskFactor(uint _riskFactor) onlyOwner\r\n    {\r\n        globalRiskFactor = _riskFactor;\r\n    }\r\n\r\n    function changeGBTStakeValue(uint _GBTStakeValue) onlyOwner\r\n    {\r\n        GBTStakeValue = _GBTStakeValue;\r\n    }\r\n\r\n    function changeMembershipScalingFator(uint _membershipScalingFactor) onlyOwner\r\n    {\r\n        membershipScalingFactor = _membershipScalingFactor;\r\n    }\r\n\r\n    function changeScalingWeight(uint _scalingWeight) onlyOwner\r\n    {\r\n        scalingWeight = _scalingWeight;\r\n    }\r\n\r\n    /// @dev Change quoram percentage. Value required to proposal pass.\r\n    function changeQuorumPercentage(uint _quorumPercentage) onlyOwner\r\n    {\r\n        quorumPercentage = _quorumPercentage;\r\n    }\r\n\r\n    /// @dev Updating proposal's Major details (Called from close proposal Vote).\r\n    function updateProposalDetails(uint _proposalId,uint8 _currVotingStatus, uint8 _intermediateVerdict,uint8 _finalVerdict) onlyInternal \r\n    {\r\n        allProposal[_proposalId].currVotingStatus = _currVotingStatus;\r\n        allProposal[_proposalId].currentVerdict = _intermediateVerdict;\r\n        allProposal[_proposalId].finalVerdict = _finalVerdict;\r\n    }\r\n\r\n    function setMemberReputation(address _memberAddress,uint _repPoints)\r\n    {\r\n        allMemberReputationByAddress[_memberAddress] = _repPoints;\r\n    }\r\n\r\n    /// @dev Stores the information of a given version number of a given proposal. Maintains the record of all the versions of a proposal.\r\n    function storeProposalVersion(uint _proposalId) onlyInternal \r\n    {\r\n        proposalVersions[_proposalId].push(proposalVersionData(allProposal[_proposalId].versionNum,allProposal[_proposalId].proposalDescHash,allProposal[_proposalId].date_add));            \r\n    }\r\n\r\n    /// @dev Edits the details of an existing proposal and creates new version.\r\n    function updateProposal(uint _id,string _proposalDescHash) onlyInternal\r\n    {\r\n        allProposal[_id].proposalDescHash = _proposalDescHash;\r\n        allProposal[_id].date_upd = now;\r\n        allProposal[_id].versionNum = allProposal[_id].versionNum+1;\r\n    }\r\n     \r\n    function setProposalCategoryParams1(uint _proposalId,uint[] _paramInt,bytes32[] _paramBytes32,address[] _paramAddress,uint8 _verdictOptions) onlyInternal\r\n    {\r\n      uint i;\r\n      setTotalOptions(_proposalId,_verdictOptions);\r\n      for(i=0;i<_paramInt.length;i++)\r\n      {\r\n          allProposalCategory[_proposalId].paramInt.push(_paramInt[i]);\r\n      }\r\n\r\n      for(i=0;i<_paramBytes32.length;i++)\r\n      {\r\n          allProposalCategory[_proposalId].paramBytes32.push(_paramBytes32[i]);\r\n      }\r\n\r\n      for(i=0;i<_paramAddress.length;i++)\r\n      {\r\n          allProposalCategory[_proposalId].paramAddress.push(_paramAddress[i]);\r\n      }   \r\n    }\r\n\r\n    function getVotingTypeLength() public constant returns(uint) \r\n    {\r\n        return allVotingTypeDetails.length;\r\n    }\r\n\r\n    function getVotingTypeDetailsById(uint _votingTypeId) public constant returns(uint votingTypeId,bytes32 VTName,address VTAddress)\r\n    {\r\n        votingTypeId = _votingTypeId;\r\n        VTName = allVotingTypeDetails[_votingTypeId].votingTypeName;\r\n        VTAddress = allVotingTypeDetails[_votingTypeId].votingTypeAddress;\r\n    }\r\n\r\n    function getVotingTypeAddress(uint _votingTypeId)constant returns (address)\r\n    {\r\n        return allVotingTypeDetails[_votingTypeId].votingTypeAddress;\r\n    }\r\n\r\n    /// @dev Fetch user balance when giving member address.\r\n    function getBalanceOfMember(address _memberAddress) public constant returns (uint totalBalance)\r\n    {\r\n        BT=BasicToken(MTAddress);\r\n        totalBalance = BT.balanceOf(_memberAddress);\r\n    }\r\n\r\n    /// @dev Fetch details of proposal by giving proposal Id\r\n    function getProposalDetailsById1(uint _proposalId) public constant returns (address owner,string proposalDescHash,uint date_add,uint date_upd,uint versionNum,uint propStatus)\r\n    {\r\n        return (allProposal[_proposalId].owner,allProposal[_proposalId].proposalDescHash,allProposal[_proposalId].date_add,allProposal[_proposalId].date_upd,allProposal[_proposalId].versionNum,allProposal[_proposalId].propStatus);\r\n    }\r\n\r\n    /// @dev Get the category, of given proposal. \r\n    function getProposalDetailsById2(uint _proposalId) public constant returns(uint8 category,uint8 currentVotingId,uint8 intermediateVerdict,uint8 finalVerdict,address votingTypeAddress) \r\n    {\r\n        return (allProposal[_proposalId].category,allProposal[_proposalId].currVotingStatus,allProposal[_proposalId].currentVerdict,allProposal[_proposalId].finalVerdict,allProposal[_proposalId].votingTypeAddress); \r\n    }\r\n\r\n    /// @dev Get member address who created the proposal.\r\n    function getProposalOwner(uint _proposalId) public constant returns(address)\r\n    {\r\n        return allProposal[_proposalId].owner;\r\n    }\r\n\r\n    /// @dev Gets version details of a given proposal id.\r\n    function getProposalDetailsByIdAndVersion(uint _proposalId,uint _versionNum) public constant returns( uint versionNum,string proposalDescHash,uint date_add)\r\n    {\r\n        return (proposalVersions[_proposalId][_versionNum].versionNum,proposalVersions[_proposalId][_versionNum].proposalDescHash,proposalVersions[_proposalId][_versionNum].date_add);\r\n    }\r\n   \r\n    /// @dev Get proposal Reward and complexity level Against proposal\r\n    function getProposalRewardAndComplexity(uint _proposalId,uint _rewardIndex) public constant returns (uint reward)\r\n    {\r\n      reward = allProposalPriority[_proposalId].levelReward[_rewardIndex];\r\n    }\r\n\r\n    /// @dev Get the category parameters given against a proposal after categorizing the proposal.\r\n    function getProposalOptions(uint _proposalId) constant returns(uint[] paramsInt,bytes32[] paramsBytes,address[] paramsAddress,uint8 verdictOptions)\r\n    {\r\n        return (allProposalCategory[_proposalId].paramInt,allProposalCategory[_proposalId].paramBytes32,allProposalCategory[_proposalId].paramAddress,allProposalCategory[_proposalId].verdictOptions);\r\n    }\r\n\r\n    /// @dev Get Total number of verdict options against proposal.\r\n    function getTotalVerdictOptions(uint _proposalId) constant returns(uint8 verdictOptions)\r\n    {\r\n        verdictOptions = allProposalCategory[_proposalId].verdictOptions;\r\n    }\r\n\r\n    /// @dev Get Current Status of proposal when given proposal Id\r\n    function getProposalStatus(uint _proposalId) constant returns (uint proposalStatus)\r\n    {\r\n        proposalStatus = allProposal[_proposalId].propStatus;\r\n    }\r\n\r\n    function getProposalCategory(uint _proposalId) constant returns(uint8 categoryId)\r\n    {\r\n        return allProposal[_proposalId].category;\r\n    }\r\n\r\n    /// @dev fetch the parameter details for the final verdict (Final Verdict - Option having maximum votes)\r\n    function getProposalFinalVerdictDetails(uint _proposalId) public returns(uint paramint, bytes32 parambytes32,address paramaddress)\r\n    {\r\n        uint category = allProposal[_proposalId].category;\r\n        uint verdictChosen = allProposal[_proposalId].finalVerdict;\r\n\r\n        if(allProposalCategory[_proposalId].paramInt.length != 0)\r\n        {\r\n             paramint = allProposalCategory[_proposalId].paramInt[verdictChosen];\r\n        }\r\n\r\n        if(allProposalCategory[_proposalId].paramBytes32.length != 0)\r\n        {\r\n            parambytes32 = allProposalCategory[_proposalId].paramBytes32[verdictChosen];\r\n        }\r\n\r\n        if(allProposalCategory[_proposalId].paramAddress.length != 0)\r\n        {\r\n            paramaddress = allProposalCategory[_proposalId].paramAddress[verdictChosen];\r\n        }  \r\n    }\r\n    \r\n    /// @dev Get the number of tokens already distributed among members.\r\n    function getTotalTokenInSupply() constant returns(uint _totalSupplyToken)\r\n    {\r\n        BT=BasicToken(BTAddress);\r\n        _totalSupplyToken = BT.totalSupply();\r\n    }\r\n\r\n    /// @dev Member Reputation is set according to if Member's Decision is Final decision.\r\n    function getMemberReputation(address _memberAddress) constant returns(uint memberPoints)\r\n    {\r\n        memberPoints = allMemberReputationByAddress[_memberAddress];\r\n    }\r\n\r\n    /// @dev Get proposal Value and Member Stake on that proposal\r\n    function getProposalValueAndStake(uint _proposalId) constant returns(uint proposalValue,uint proposalStake)\r\n    {\r\n        proposalValue = allProposal[_proposalId].proposalValue;\r\n        proposalStake = allProposal[_proposalId].proposalStake;\r\n    }\r\n\r\n    /// @dev Get proposal Value when given proposal Id.\r\n    function getProposalValue(uint _proposalId) constant  returns(uint proposalValue) \r\n    {\r\n        proposalValue = allProposal[_proposalId].proposalValue;\r\n    }\r\n\r\n    /// @dev Get proposal Stake by member when given proposal Id.\r\n    function getProposalStake(uint _proposalId) constant returns(uint proposalStake)\r\n    {\r\n        proposalStake = allProposal[_proposalId].proposalStake;\r\n    }\r\n\r\n    /// @dev Fetch Total length of Member address array That added number of verdicts against proposal.\r\n    function getOptionAddedAddressLength(uint _proposalId) constant returns(uint length)\r\n    {\r\n        return  allProposalCategory[_proposalId].optionAddedByAddress.length;\r\n    }\r\n\r\n    function getOptionDescByProposalId(uint _proposalId,uint _optionIndex) constant returns(string)\r\n    {\r\n        return allProposalCategory[_proposalId].optionDescHash[_optionIndex];\r\n    }\r\n\r\n    /// @dev Get the Stake of verdict when given Proposal Id and Verdict index.\r\n    function getOptionStakeByProposalId(uint _proposalId,uint _optionIndex) constant returns(uint optionStake)\r\n    {\r\n        optionStake = allProposalCategory[_proposalId].stakeOnOption[_optionIndex];\r\n    }\r\n\r\n    /// @dev Get the value of verdict when given Proposal Id and Verdict Index.\r\n    function getOptionValueByProposalId(uint _proposalId,uint _optionIndex) constant returns(uint optionValue)\r\n    {\r\n        optionValue = allProposalCategory[_proposalId].valueOfOption[_optionIndex];\r\n    }\r\n\r\n    /// @dev Get the Address of member whosoever added the verdict when given Proposal Id and Verdict Index.\r\n    function getOptionAddressByProposalId(uint _proposalId,uint _optionIndex) constant returns(address memberAddress)\r\n    {\r\n        memberAddress = allProposalCategory[_proposalId].optionAddedByAddress[_optionIndex];\r\n    }\r\n\r\n    /// @dev Get the Value, stake and Address of the member whosoever added that verdict option.\r\n    function getOptionAddedDetails(uint _proposalId,uint _optionIndex) constant returns(uint optionStake,uint optionValue,address memberAddress)\r\n    {\r\n        optionStake = allProposalCategory[_proposalId].stakeOnOption[_optionIndex];\r\n        optionValue = allProposalCategory[_proposalId].valueOfOption[_optionIndex];\r\n        memberAddress = allProposalCategory[_proposalId].optionAddedByAddress[_optionIndex];\r\n    }\r\n\r\n    /// @dev Get Total votes against a proposal when given proposal id.\r\n    function getTotalVoteLengthAgainstProposal(uint _proposalId) constant returns(uint totalVotesLength)\r\n    {\r\n        totalVotesLength =  totalVotesAgainstProposal[_proposalId].length;\r\n    }\r\n\r\n    /// @dev Get Array of All vote id's against a given proposal when given _proposalId.\r\n    function getTotalVoteArrayAgainstProposal(uint _proposalId) constant returns(uint[] totalVotes)\r\n    {\r\n        return totalVotesAgainstProposal[_proposalId];\r\n    }\r\n\r\n    /// @dev Get Vote id one by one against a proposal when given proposal Id and Index to traverse vote array.\r\n    function getVoteIdByProposalId(uint _proposalId,uint _voteArrayIndex) constant returns (uint voteId)\r\n    {\r\n        voteId = totalVotesAgainstProposal[_proposalId][_voteArrayIndex];\r\n    }\r\n\r\n    /// @dev Fetch the parameter details for final option won (Final Verdict) when giving Proposal ID and Parameter Name Against proposal.\r\n    function getProposalFinalDecisionByParameter(uint _proposalId,bytes32 _parameterName) constant returns (uint intParameter,bytes32 bytesParameter,address addressParameter)\r\n    {   \r\n        uint _finalVerdict = allProposal[_proposalId].finalVerdict;\r\n        intParameter = getParameterDetails1(_proposalId,_parameterName,_finalVerdict);\r\n        bytesParameter = getParameterDetails2(_proposalId,_parameterName,_finalVerdict);\r\n        addressParameter = getParameterDetails3(_proposalId,_parameterName,_finalVerdict);\r\n    }\r\n\r\n    /// @dev Fetch the Integer parameter details by parameter name against the final option.\r\n    function getParameterDetails1(uint _proposalId,bytes32 _parameterName,uint finalOption) internal returns (uint intParameter)\r\n    {   \r\n        intParameter = allProposalCategoryParams[_proposalId].optionNameIntValue[finalOption][_parameterName];\r\n    }\r\n\r\n    /// @dev Fetch the Bytes parameter details by parameter name against the final option.\r\n    function getParameterDetails2(uint _proposalId,bytes32 _parameterName,uint finalOption) internal returns (bytes32 bytesParameter)\r\n    {   \r\n        bytesParameter = allProposalCategoryParams[_proposalId].optionNameBytesValue[finalOption][_parameterName];\r\n    }\r\n\r\n    /// @dev Fetch the Address parameter details by parameter name against the final option.\r\n    function getParameterDetails3(uint _proposalId,bytes32 _parameterName,uint finalOption) internal returns (address addressParameter)\r\n    {   \r\n        addressParameter = allProposalCategoryParams[_proposalId].optionNameAddressValue[finalOption][_parameterName];\r\n    }\r\n\r\n    function setParameterDetails1(uint _proposalId,uint index,bytes32 parameterName,uint[] _paramInt)\r\n    {\r\n        allProposalCategoryParams[_proposalId].optionNameIntValue[index][parameterName] = _paramInt[index];\r\n    }\r\n\r\n    function setParameterDetails2(uint _proposalId,uint index,bytes32 parameterName,bytes32[] _paramBytes32)\r\n    {\r\n        allProposalCategoryParams[_proposalId].optionNameBytesValue[index][parameterName] = _paramBytes32[index];\r\n    }\r\n\r\n    function setParameterDetails3(uint _proposalId,uint index,bytes32 parameterName,address[] _paramAddress)\r\n    {\r\n        allProposalCategoryParams[_proposalId].optionNameAddressValue[index][parameterName] = _paramAddress[index];  \r\n    }\r\n\r\n    function getProposalLength()constant returns(uint)\r\n    {  \r\n        return (allProposal.length);\r\n    } \r\n\r\n    function getProposalDetailsById3(uint _proposalId) constant returns(uint proposalIndex,string proposalDescHash,uint dateAdded,string propStatus,uint propCategory,uint totalVotes,uint8 totalOption)\r\n    {\r\n        return (_proposalId,allProposal[_proposalId].proposalDescHash,allProposal[_proposalId].date_add,status[allProposal[_proposalId].propStatus],allProposal[_proposalId].category,totalVotesAgainstProposal[_proposalId].length,allProposalCategory[_proposalId].verdictOptions);\r\n    }  \r\n\r\n    function getMemberDetails(address _memberAddress) constant returns(uint memberReputation, uint totalProposal,uint proposalStake,uint totalOption,uint optionStake,uint totalVotes)\r\n    {\r\n        memberReputation = getMemberReputation(_memberAddress);\r\n        totalProposal = allProposalMember[_memberAddress].length;\r\n        proposalStake = getProposalStakeByMember(_memberAddress);\r\n        totalOption = allProposalOption[_memberAddress];\r\n        optionStake = totalOptionStake[_memberAddress];\r\n        totalVotes = getTotalVotesAgainstMember(_memberAddress);\r\n    }\r\n\r\n    function getStakeByProposal(uint _proposalId)internal constant returns(uint stake)\r\n    {\r\n        return allProposal[_proposalId].proposalStake;\r\n    }\r\n\r\n    function getProposalStakeByMember(address _memberAddress)internal constant returns(uint stakeValueProposal)\r\n    {\r\n        for(uint i=0; i<allProposalMember[_memberAddress].length; i++)\r\n        {\r\n            stakeValueProposal = stakeValueProposal + getStakeByProposal(i);\r\n        }\r\n    }\r\n\r\n    function getTotalOption(address _memberAddress)constant returns(uint)\r\n    {\r\n        return allProposalOption[_memberAddress];\r\n    }\r\n\r\n    function addInTotalVotes(address _memberAddress)\r\n    {\r\n        totalVotesAgainstMember[_memberAddress] = totalVotesAgainstMember[_memberAddress] + 1;\r\n    }\r\n\r\n    function getTotalVotesAgainstMember(address _memberAddress) constant returns(uint)\r\n    {\r\n        return totalVotesAgainstMember[_memberAddress];\r\n    }\r\n\r\n    function addTotalProposal(uint _proposalId,address _memberAddress)\r\n    {\r\n        allProposalMember[_memberAddress].push(_proposalId);\r\n    }\r\n\r\n    function getTotalProposal(address _memberAddress) constant returns(uint)\r\n    {\r\n        return allProposalMember[_memberAddress].length;\r\n    }\r\n\r\n    function addNewProposal(string _proposalDescHash,uint8 _categoryId,address _votingTypeAddress)\r\n    {\r\n        allProposal.push(proposal(msg.sender,_proposalDescHash,now,now,0,0,0,_categoryId,0,0,_votingTypeAddress,0,0));               \r\n    }\r\n\r\n}  \r\n\r\n\r\n\r\n\r\n",
  "sourcePath": "D:\\RUCHITA\\Govblocks-Git\\contracts\\GovernanceData.sol",
  "compiler": {
    "name": "solc",
    "version": "0.4.18+commit.9cf6e910.Emscripten.clang"
  },
  "schemaVersion": "1.0.1",
  "updatedAt": "2018-01-31T14:00:03.709Z"
}