{
  "contractName": "GovernanceData",
  "abi": [
    {
      "constant": false,
      "inputs": [
        {
          "name": "_MTContractAddress",
          "type": "address"
        },
        {
          "name": "_BTcontractAddress",
          "type": "address"
        },
        {
          "name": "_MRcontractAddress",
          "type": "address"
        },
        {
          "name": "_PCcontractAddress",
          "type": "address"
        }
      ],
      "name": "changeAllContractsAddress",
      "outputs": [],
      "payable": false,
      "stateMutability": "nonpayable",
      "type": "function"
    },
    {
      "constant": false,
      "inputs": [
        {
          "name": "_proposalId",
          "type": "uint256"
        }
      ],
      "name": "getProposalFinalVerdictDetails",
      "outputs": [
        {
          "name": "paramint",
          "type": "uint256"
        },
        {
          "name": "parambytes32",
          "type": "bytes32"
        },
        {
          "name": "paramaddress",
          "type": "address"
        }
      ],
      "payable": false,
      "stateMutability": "nonpayable",
      "type": "function"
    },
    {
      "constant": false,
      "inputs": [
        {
          "name": "_GBTcontractAddress",
          "type": "address"
        }
      ],
      "name": "changeGBTtokenAddress",
      "outputs": [],
      "payable": false,
      "stateMutability": "nonpayable",
      "type": "function"
    },
    {
      "constant": false,
      "inputs": [
        {
          "name": "_voterAddress",
          "type": "address"
        },
        {
          "name": "_voterPoints",
          "type": "uint256"
        }
      ],
      "name": "updateMemberReputation1",
      "outputs": [],
      "payable": false,
      "stateMutability": "nonpayable",
      "type": "function"
    },
    {
      "constant": true,
      "inputs": [
        {
          "name": "_proposalId",
          "type": "uint256"
        },
        {
          "name": "_optionIndex",
          "type": "uint256"
        }
      ],
      "name": "getOptionStakeByProposalId",
      "outputs": [
        {
          "name": "optionStake",
          "type": "uint256"
        }
      ],
      "payable": false,
      "stateMutability": "view",
      "type": "function"
    },
    {
      "constant": true,
      "inputs": [],
      "name": "membershipScalingFactor",
      "outputs": [
        {
          "name": "",
          "type": "uint256"
        }
      ],
      "payable": false,
      "stateMutability": "view",
      "type": "function"
    },
    {
      "constant": false,
      "inputs": [
        {
          "name": "_scalingWeight",
          "type": "uint256"
        }
      ],
      "name": "changeScalingWeight",
      "outputs": [],
      "payable": false,
      "stateMutability": "nonpayable",
      "type": "function"
    },
    {
      "constant": true,
      "inputs": [
        {
          "name": "_proposalId",
          "type": "uint256"
        }
      ],
      "name": "getProposalOwner",
      "outputs": [
        {
          "name": "",
          "type": "address"
        }
      ],
      "payable": false,
      "stateMutability": "view",
      "type": "function"
    },
    {
      "constant": true,
      "inputs": [
        {
          "name": "_memberAddress",
          "type": "address"
        }
      ],
      "name": "getMemberReputation",
      "outputs": [
        {
          "name": "memberPoints",
          "type": "uint256"
        }
      ],
      "payable": false,
      "stateMutability": "view",
      "type": "function"
    },
    {
      "constant": true,
      "inputs": [],
      "name": "proposalVoteClosingTime",
      "outputs": [
        {
          "name": "",
          "type": "uint256"
        }
      ],
      "payable": false,
      "stateMutability": "view",
      "type": "function"
    },
    {
      "constant": false,
      "inputs": [
        {
          "name": "_memberAddress",
          "type": "address"
        }
      ],
      "name": "isOwner",
      "outputs": [
        {
          "name": "checkOwner",
          "type": "uint256"
        }
      ],
      "payable": false,
      "stateMutability": "nonpayable",
      "type": "function"
    },
    {
      "constant": true,
      "inputs": [],
      "name": "getMemberReputationPoints",
      "outputs": [
        {
          "name": "addProposalOwnPoints",
          "type": "uint256"
        },
        {
          "name": "addOptionOwnPoints",
          "type": "uint256"
        },
        {
          "name": "addMemPoints",
          "type": "uint256"
        },
        {
          "name": "subProposalOwnPoints",
          "type": "uint256"
        },
        {
          "name": "subOptionOwnPoints",
          "type": "uint256"
        },
        {
          "name": "subMemPoints",
          "type": "uint256"
        }
      ],
      "payable": false,
      "stateMutability": "view",
      "type": "function"
    },
    {
      "constant": true,
      "inputs": [
        {
          "name": "_proposalId",
          "type": "uint256"
        }
      ],
      "name": "getProposalCategoryParams",
      "outputs": [
        {
          "name": "paramsInt",
          "type": "uint256[]"
        },
        {
          "name": "paramsBytes",
          "type": "bytes32[]"
        },
        {
          "name": "paramsAddress",
          "type": "address[]"
        },
        {
          "name": "verdictOptions",
          "type": "uint8"
        }
      ],
      "payable": false,
      "stateMutability": "view",
      "type": "function"
    },
    {
      "constant": true,
      "inputs": [
        {
          "name": "_memberAddress",
          "type": "address"
        }
      ],
      "name": "getBalanceOfMember",
      "outputs": [
        {
          "name": "totalBalance",
          "type": "uint256"
        }
      ],
      "payable": false,
      "stateMutability": "view",
      "type": "function"
    },
    {
      "constant": false,
      "inputs": [
        {
          "name": "_proposalDescHash",
          "type": "string"
        },
        {
          "name": "_votingTypeId",
          "type": "uint256"
        },
        {
          "name": "_categoryId",
          "type": "uint8"
        },
        {
          "name": "_TokenAmount",
          "type": "uint256"
        }
      ],
      "name": "addNewProposal",
      "outputs": [],
      "payable": false,
      "stateMutability": "nonpayable",
      "type": "function"
    },
    {
      "constant": true,
      "inputs": [
        {
          "name": "_proposalId",
          "type": "uint256"
        }
      ],
      "name": "getProposalStake",
      "outputs": [
        {
          "name": "proposalStake",
          "type": "uint256"
        }
      ],
      "payable": false,
      "stateMutability": "view",
      "type": "function"
    },
    {
      "constant": true,
      "inputs": [
        {
          "name": "_proposalId",
          "type": "uint256"
        }
      ],
      "name": "getProposalStatus",
      "outputs": [
        {
          "name": "proposalStatus",
          "type": "uint256"
        }
      ],
      "payable": false,
      "stateMutability": "view",
      "type": "function"
    },
    {
      "constant": true,
      "inputs": [
        {
          "name": "_proposalId",
          "type": "uint256"
        }
      ],
      "name": "checkProposalVoteClosing",
      "outputs": [
        {
          "name": "closeValue",
          "type": "uint8"
        }
      ],
      "payable": false,
      "stateMutability": "view",
      "type": "function"
    },
    {
      "constant": true,
      "inputs": [
        {
          "name": "",
          "type": "uint256"
        }
      ],
      "name": "status",
      "outputs": [
        {
          "name": "",
          "type": "string"
        }
      ],
      "payable": false,
      "stateMutability": "view",
      "type": "function"
    },
    {
      "constant": false,
      "inputs": [
        {
          "name": "_category",
          "type": "uint256"
        },
        {
          "name": "_proposalId",
          "type": "uint256"
        },
        {
          "name": "_paramInt",
          "type": "uint256[]"
        },
        {
          "name": "_paramBytes32",
          "type": "bytes32[]"
        },
        {
          "name": "_paramAddress",
          "type": "address[]"
        },
        {
          "name": "_verdictOptions",
          "type": "uint8"
        }
      ],
      "name": "setProposalCategoryParams",
      "outputs": [],
      "payable": false,
      "stateMutability": "nonpayable",
      "type": "function"
    },
    {
      "constant": false,
      "inputs": [
        {
          "name": "_quorumPercentage",
          "type": "uint256"
        }
      ],
      "name": "changeQuorumPercentage",
      "outputs": [],
      "payable": false,
      "stateMutability": "nonpayable",
      "type": "function"
    },
    {
      "constant": false,
      "inputs": [
        {
          "name": "_membershipScalingFactor",
          "type": "uint256"
        }
      ],
      "name": "changeMembershipScalingFator",
      "outputs": [],
      "payable": false,
      "stateMutability": "nonpayable",
      "type": "function"
    },
    {
      "constant": true,
      "inputs": [],
      "name": "quorumPercentage",
      "outputs": [
        {
          "name": "",
          "type": "uint256"
        }
      ],
      "payable": false,
      "stateMutability": "view",
      "type": "function"
    },
    {
      "constant": false,
      "inputs": [
        {
          "name": "_proposalId",
          "type": "uint256"
        },
        {
          "name": "_TokenAmount",
          "type": "uint256"
        }
      ],
      "name": "openProposalForVoting",
      "outputs": [],
      "payable": false,
      "stateMutability": "nonpayable",
      "type": "function"
    },
    {
      "constant": true,
      "inputs": [
        {
          "name": "_votingTypeId",
          "type": "uint256"
        }
      ],
      "name": "getVotingTypeDetailsById",
      "outputs": [
        {
          "name": "votingTypeId",
          "type": "uint256"
        },
        {
          "name": "VTName",
          "type": "bytes32"
        },
        {
          "name": "VTAddress",
          "type": "address"
        }
      ],
      "payable": false,
      "stateMutability": "view",
      "type": "function"
    },
    {
      "constant": false,
      "inputs": [
        {
          "name": "_memberAddress",
          "type": "address"
        },
        {
          "name": "_value",
          "type": "uint256"
        }
      ],
      "name": "transferBackGBTtoken",
      "outputs": [],
      "payable": false,
      "stateMutability": "nonpayable",
      "type": "function"
    },
    {
      "constant": false,
      "inputs": [
        {
          "name": "_id",
          "type": "uint256"
        },
        {
          "name": "_status",
          "type": "uint8"
        }
      ],
      "name": "changeProposalStatus",
      "outputs": [],
      "payable": false,
      "stateMutability": "nonpayable",
      "type": "function"
    },
    {
      "constant": true,
      "inputs": [
        {
          "name": "_proposalId",
          "type": "uint256"
        },
        {
          "name": "_voteArrayIndex",
          "type": "uint256"
        }
      ],
      "name": "getVoteIdByProposalId",
      "outputs": [
        {
          "name": "voteId",
          "type": "uint256"
        }
      ],
      "payable": false,
      "stateMutability": "view",
      "type": "function"
    },
    {
      "constant": true,
      "inputs": [],
      "name": "pendingProposalStart",
      "outputs": [
        {
          "name": "",
          "type": "uint256"
        }
      ],
      "payable": false,
      "stateMutability": "view",
      "type": "function"
    },
    {
      "constant": true,
      "inputs": [
        {
          "name": "_proposalId",
          "type": "uint256"
        },
        {
          "name": "_optionIndex",
          "type": "uint256"
        }
      ],
      "name": "getOptionAddedDetails",
      "outputs": [
        {
          "name": "optionStake",
          "type": "uint256"
        },
        {
          "name": "optionValue",
          "type": "uint256"
        },
        {
          "name": "memberAddress",
          "type": "address"
        }
      ],
      "payable": false,
      "stateMutability": "view",
      "type": "function"
    },
    {
      "constant": true,
      "inputs": [
        {
          "name": "_proposalId",
          "type": "uint256"
        }
      ],
      "name": "getTotalVoteArrayAgainstProposal",
      "outputs": [
        {
          "name": "totalVotes",
          "type": "uint256[]"
        }
      ],
      "payable": false,
      "stateMutability": "view",
      "type": "function"
    },
    {
      "constant": true,
      "inputs": [],
      "name": "getProposalLength",
      "outputs": [
        {
          "name": "",
          "type": "uint256"
        }
      ],
      "payable": false,
      "stateMutability": "view",
      "type": "function"
    },
    {
      "constant": true,
      "inputs": [],
      "name": "owner",
      "outputs": [
        {
          "name": "",
          "type": "address"
        }
      ],
      "payable": false,
      "stateMutability": "view",
      "type": "function"
    },
    {
      "constant": true,
      "inputs": [
        {
          "name": "_proposalId",
          "type": "uint256"
        }
      ],
      "name": "getTotalVoteLengthAgainstProposal",
      "outputs": [
        {
          "name": "totalVotesLength",
          "type": "uint256"
        }
      ],
      "payable": false,
      "stateMutability": "view",
      "type": "function"
    },
    {
      "constant": true,
      "inputs": [],
      "name": "scalingWeight",
      "outputs": [
        {
          "name": "",
          "type": "uint256"
        }
      ],
      "payable": false,
      "stateMutability": "view",
      "type": "function"
    },
    {
      "constant": true,
      "inputs": [
        {
          "name": "_proposalId",
          "type": "uint256"
        }
      ],
      "name": "getTotalVerdictOptions",
      "outputs": [
        {
          "name": "verdictOptions",
          "type": "uint256"
        }
      ],
      "payable": false,
      "stateMutability": "view",
      "type": "function"
    },
    {
      "constant": false,
      "inputs": [
        {
          "name": "_proposalId",
          "type": "uint256"
        },
        {
          "name": "_categoryId",
          "type": "uint8"
        },
        {
          "name": "_proposalComplexityLevel",
          "type": "uint8"
        },
        {
          "name": "_levelReward",
          "type": "uint256[]"
        }
      ],
      "name": "categorizeProposal",
      "outputs": [],
      "payable": false,
      "stateMutability": "nonpayable",
      "type": "function"
    },
    {
      "constant": false,
      "inputs": [
        {
          "name": "_addProposalOwnerPoints",
          "type": "uint256"
        },
        {
          "name": "_addOptionOwnerPoints",
          "type": "uint256"
        },
        {
          "name": "_addMemberPoints",
          "type": "uint256"
        },
        {
          "name": "_subProposalOwnerPoints",
          "type": "uint256"
        },
        {
          "name": "_subOptionOwnerPoints",
          "type": "uint256"
        },
        {
          "name": "_subMemberPoints",
          "type": "uint256"
        }
      ],
      "name": "changeMemberReputationPoints",
      "outputs": [],
      "payable": false,
      "stateMutability": "nonpayable",
      "type": "function"
    },
    {
      "constant": true,
      "inputs": [],
      "name": "getTotalTokenInSupply",
      "outputs": [
        {
          "name": "_totalSupplyToken",
          "type": "uint256"
        }
      ],
      "payable": false,
      "stateMutability": "view",
      "type": "function"
    },
    {
      "constant": false,
      "inputs": [
        {
          "name": "_memberAddress",
          "type": "address"
        }
      ],
      "name": "changeOwner",
      "outputs": [],
      "payable": false,
      "stateMutability": "nonpayable",
      "type": "function"
    },
    {
      "constant": true,
      "inputs": [
        {
          "name": "_proposalId",
          "type": "uint256"
        }
      ],
      "name": "getProposalValueAndStake",
      "outputs": [
        {
          "name": "proposalValue",
          "type": "uint256"
        },
        {
          "name": "proposalStake",
          "type": "uint256"
        }
      ],
      "payable": false,
      "stateMutability": "view",
      "type": "function"
    },
    {
      "constant": true,
      "inputs": [],
      "name": "globalRiskFactor",
      "outputs": [
        {
          "name": "",
          "type": "uint256"
        }
      ],
      "payable": false,
      "stateMutability": "view",
      "type": "function"
    },
    {
      "constant": true,
      "inputs": [
        {
          "name": "_proposalId",
          "type": "uint256"
        }
      ],
      "name": "getOptionAddedAddressLength",
      "outputs": [
        {
          "name": "length",
          "type": "uint256"
        }
      ],
      "payable": false,
      "stateMutability": "view",
      "type": "function"
    },
    {
      "constant": false,
      "inputs": [
        {
          "name": "_votingTypeName",
          "type": "bytes32"
        },
        {
          "name": "_votingTypeAddress",
          "type": "address"
        }
      ],
      "name": "setVotingTypeDetails",
      "outputs": [],
      "payable": false,
      "stateMutability": "nonpayable",
      "type": "function"
    },
    {
      "constant": false,
      "inputs": [
        {
          "name": "_proposalId",
          "type": "uint256"
        },
        {
          "name": "_memberAddress",
          "type": "address"
        },
        {
          "name": "_stakeValue",
          "type": "uint256"
        },
        {
          "name": "_optionValue",
          "type": "uint256"
        }
      ],
      "name": "setProposalVerdictAddressAndStakeValue",
      "outputs": [],
      "payable": false,
      "stateMutability": "nonpayable",
      "type": "function"
    },
    {
      "constant": true,
      "inputs": [
        {
          "name": "_proposalId",
          "type": "uint256"
        }
      ],
      "name": "getProposalValue",
      "outputs": [
        {
          "name": "proposalValue",
          "type": "uint256"
        }
      ],
      "payable": false,
      "stateMutability": "view",
      "type": "function"
    },
    {
      "constant": false,
      "inputs": [
        {
          "name": "_proposalId",
          "type": "uint256"
        },
        {
          "name": "_proposalDescHash",
          "type": "string"
        }
      ],
      "name": "editProposal",
      "outputs": [],
      "payable": false,
      "stateMutability": "nonpayable",
      "type": "function"
    },
    {
      "constant": true,
      "inputs": [
        {
          "name": "_proposalId",
          "type": "uint256"
        },
        {
          "name": "_optionIndex",
          "type": "uint256"
        }
      ],
      "name": "getOptionValueByProposalId",
      "outputs": [
        {
          "name": "optionValue",
          "type": "uint256"
        }
      ],
      "payable": false,
      "stateMutability": "view",
      "type": "function"
    },
    {
      "constant": true,
      "inputs": [
        {
          "name": "_proposalId",
          "type": "uint256"
        },
        {
          "name": "_versionNum",
          "type": "uint256"
        }
      ],
      "name": "getProposalDetailsByIdAndVersion",
      "outputs": [
        {
          "name": "versionNum",
          "type": "uint256"
        },
        {
          "name": "proposalDescHash",
          "type": "string"
        },
        {
          "name": "date_add",
          "type": "uint256"
        }
      ],
      "payable": false,
      "stateMutability": "view",
      "type": "function"
    },
    {
      "constant": false,
      "inputs": [
        {
          "name": "_GBTStakeValue",
          "type": "uint256"
        }
      ],
      "name": "changeGBTStakeValue",
      "outputs": [],
      "payable": false,
      "stateMutability": "nonpayable",
      "type": "function"
    },
    {
      "constant": false,
      "inputs": [
        {
          "name": "_proposalId",
          "type": "uint256"
        },
        {
          "name": "_currVotingStatus",
          "type": "uint8"
        },
        {
          "name": "_intermediateVerdict",
          "type": "uint8"
        },
        {
          "name": "_finalVerdict",
          "type": "uint8"
        }
      ],
      "name": "updateProposalDetails",
      "outputs": [],
      "payable": false,
      "stateMutability": "nonpayable",
      "type": "function"
    },
    {
      "constant": true,
      "inputs": [
        {
          "name": "_proposalId",
          "type": "uint256"
        }
      ],
      "name": "getProposalDetailsById3",
      "outputs": [
        {
          "name": "proposalIndex",
          "type": "uint256"
        },
        {
          "name": "proposalDescHash",
          "type": "string"
        },
        {
          "name": "dateAdded",
          "type": "uint256"
        },
        {
          "name": "propStatus",
          "type": "string"
        },
        {
          "name": "propCategory",
          "type": "uint256"
        },
        {
          "name": "totalVotes",
          "type": "uint256"
        },
        {
          "name": "totalOption",
          "type": "uint8"
        }
      ],
      "payable": false,
      "stateMutability": "view",
      "type": "function"
    },
    {
      "constant": true,
      "inputs": [
        {
          "name": "_proposalId",
          "type": "uint256"
        },
        {
          "name": "_parameterName",
          "type": "bytes32"
        }
      ],
      "name": "getProposalFinalDecisionByParameter",
      "outputs": [
        {
          "name": "intParameter",
          "type": "uint256"
        },
        {
          "name": "bytesParameter",
          "type": "bytes32"
        },
        {
          "name": "addressParameter",
          "type": "address"
        }
      ],
      "payable": false,
      "stateMutability": "view",
      "type": "function"
    },
    {
      "constant": false,
      "inputs": [
        {
          "name": "_proposalId",
          "type": "uint256"
        },
        {
          "name": "_voteId",
          "type": "uint256"
        }
      ],
      "name": "setVoteIdAgainstProposal",
      "outputs": [],
      "payable": false,
      "stateMutability": "nonpayable",
      "type": "function"
    },
    {
      "constant": true,
      "inputs": [],
      "name": "masterAddress",
      "outputs": [
        {
          "name": "",
          "type": "address"
        }
      ],
      "payable": false,
      "stateMutability": "view",
      "type": "function"
    },
    {
      "constant": false,
      "inputs": [
        {
          "name": "_masterContractAddress",
          "type": "address"
        }
      ],
      "name": "changeMasterAddress",
      "outputs": [],
      "payable": false,
      "stateMutability": "nonpayable",
      "type": "function"
    },
    {
      "constant": false,
      "inputs": [],
      "name": "GovernanceDataInitiate",
      "outputs": [],
      "payable": false,
      "stateMutability": "nonpayable",
      "type": "function"
    },
    {
      "constant": true,
      "inputs": [
        {
          "name": "_proposalId",
          "type": "uint256"
        },
        {
          "name": "_optionIndex",
          "type": "uint256"
        }
      ],
      "name": "getOptionAddressByProposalId",
      "outputs": [
        {
          "name": "memberAddress",
          "type": "address"
        }
      ],
      "payable": false,
      "stateMutability": "view",
      "type": "function"
    },
    {
      "constant": false,
      "inputs": [],
      "name": "changePendingProposalStart",
      "outputs": [],
      "payable": false,
      "stateMutability": "nonpayable",
      "type": "function"
    },
    {
      "constant": false,
      "inputs": [
        {
          "name": "_riskFactor",
          "type": "uint256"
        }
      ],
      "name": "changeGlobalRiskFactor",
      "outputs": [],
      "payable": false,
      "stateMutability": "nonpayable",
      "type": "function"
    },
    {
      "constant": true,
      "inputs": [
        {
          "name": "_proposalId",
          "type": "uint256"
        },
        {
          "name": "_rewardIndex",
          "type": "uint256"
        }
      ],
      "name": "getProposalRewardAndComplexity",
      "outputs": [
        {
          "name": "reward",
          "type": "uint256"
        }
      ],
      "payable": false,
      "stateMutability": "view",
      "type": "function"
    },
    {
      "constant": false,
      "inputs": [
        {
          "name": "_proposalId",
          "type": "uint256"
        },
        {
          "name": "_finalVerdict",
          "type": "uint256"
        }
      ],
      "name": "updateMemberReputation",
      "outputs": [],
      "payable": false,
      "stateMutability": "nonpayable",
      "type": "function"
    },
    {
      "constant": true,
      "inputs": [],
      "name": "getVotingTypeLength",
      "outputs": [
        {
          "name": "",
          "type": "uint256"
        }
      ],
      "payable": false,
      "stateMutability": "view",
      "type": "function"
    },
    {
      "constant": true,
      "inputs": [
        {
          "name": "_proposalId",
          "type": "uint256"
        }
      ],
      "name": "getProposalDetailsById2",
      "outputs": [
        {
          "name": "category",
          "type": "uint8"
        },
        {
          "name": "currentVotingId",
          "type": "uint8"
        },
        {
          "name": "intermediateVerdict",
          "type": "uint8"
        },
        {
          "name": "finalVerdict",
          "type": "uint8"
        },
        {
          "name": "votingTypeAddress",
          "type": "address"
        }
      ],
      "payable": false,
      "stateMutability": "view",
      "type": "function"
    },
    {
      "constant": true,
      "inputs": [],
      "name": "GBTStakeValue",
      "outputs": [
        {
          "name": "",
          "type": "uint256"
        }
      ],
      "payable": false,
      "stateMutability": "view",
      "type": "function"
    },
    {
      "constant": false,
      "inputs": [
        {
          "name": "newOwner",
          "type": "address"
        }
      ],
      "name": "transferOwnership",
      "outputs": [],
      "payable": false,
      "stateMutability": "nonpayable",
      "type": "function"
    },
    {
      "constant": true,
      "inputs": [
        {
          "name": "_proposalId",
          "type": "uint256"
        }
      ],
      "name": "getProposalDetailsById1",
      "outputs": [
        {
          "name": "owner",
          "type": "address"
        },
        {
          "name": "proposalDescHash",
          "type": "string"
        },
        {
          "name": "date_add",
          "type": "uint256"
        },
        {
          "name": "date_upd",
          "type": "uint256"
        },
        {
          "name": "versionNum",
          "type": "uint256"
        },
        {
          "name": "propStatus",
          "type": "uint256"
        }
      ],
      "payable": false,
      "stateMutability": "view",
      "type": "function"
    },
    {
      "constant": false,
      "inputs": [
        {
          "name": "_votingTypeId",
          "type": "uint256[]"
        },
        {
          "name": "_votingTypeAddress",
          "type": "address[]"
        }
      ],
      "name": "editVotingTypeDetails",
      "outputs": [],
      "payable": false,
      "stateMutability": "nonpayable",
      "type": "function"
    },
    {
      "anonymous": false,
      "inputs": [
        {
          "indexed": true,
          "name": "previousOwner",
          "type": "address"
        },
        {
          "indexed": true,
          "name": "newOwner",
          "type": "address"
        }
      ],
      "name": "OwnershipTransferred",
      "type": "event"
    }
  ],
  "bytecode": "0x6060604052336000806101000a81548173ffffffffffffffffffffffffffffffffffffffff021916908373ffffffffffffffffffffffffffffffffffffffff16021790555061830780620000546000396000f300606060405260043610610322576000357c0100000000000000000000000000000000000000000000000000000000900463ffffffff168063013b44411461032757806307176b94146103bd5780630df34cdb146104365780630dfa263a1461046f5780630ecc69c1146104b157806311aadbfb146104f15780631655517f1461051a57806317826ac41461053d5780631b3b74f1146105a0578063281ee79f146105ed5780632f54bf6e146106165780633152fbd41461066357806334a3210a146106af57806335c42dbb146107c457806336043be6146108115780633a0fcafc1461088c578063401853b7146108c357806340b2723b146108fa57806342d21ef71461093757806347dc106e146109d3578063489c16d014610acb5780634dec2bcc14610aee5780634fa76ec914610b1157806360c0fddd14610b3a5780636188d1ad14610b66578063649db80b14610bdf578063707b852714610c2157806372a5f4d414610c505780637cd8055a14610c905780637d0d174d14610cb95780638234c14a14610d335780638263a93814610dab5780638da5cb5b14610dd457806393a6b05f14610e2957806393e4a4f514610e605780639a2243ec14610e895780639af62a8b14610ec0578063a1a5843014610f3b578063a5d8ba8914610f8b578063a6f9dae114610fb4578063a95889bf14610fed578063ad3208461461102b578063ad87504114611054578063b6323dd01461108b578063b7cc057e146110d1578063ba63453f14611125578063bfae21721461115c578063c066ea86146111c2578063cac86e9614611202578063cbc87e58146112b5578063cd25becd146112d8578063cd6b44e31461131f578063cf8d7bc114611450578063d207287f146114d6578063d365a08e14611502578063d46655f414611557578063dda2e87114611590578063e28d879f146115a5578063e7030a6714611611578063e780306414611626578063e7d6bf2814611649578063ebd0e31314611689578063ec7d465c146116b5578063ec9ccfff146116de578063ed1eee7114611775578063f2fde38b1461179e578063f65ad750146117d7578063f9406e82146118c2575b600080fd5b341561033257600080fd5b6103bb600480803573ffffffffffffffffffffffffffffffffffffffff1690602001909190803573ffffffffffffffffffffffffffffffffffffffff1690602001909190803573ffffffffffffffffffffffffffffffffffffffff1690602001909190803573ffffffffffffffffffffffffffffffffffffffff1690602001909190505061195c565b005b34156103c857600080fd5b6103de6004808035906020019091905050611bb7565b6040518084815260200183600019166000191681526020018273ffffffffffffffffffffffffffffffffffffffff1673ffffffffffffffffffffffffffffffffffffffff168152602001935050505060405180910390f35b341561044157600080fd5b61046d600480803573ffffffffffffffffffffffffffffffffffffffff16906020019091905050611d4d565b005b341561047a57600080fd5b6104af600480803573ffffffffffffffffffffffffffffffffffffffff16906020019091908035906020019091905050611ee2565b005b34156104bc57600080fd5b6104db600480803590602001909190803590602001909190505061207b565b6040518082815260200191505060405180910390f35b34156104fc57600080fd5b6105046120b4565b6040518082815260200191505060405180910390f35b341561052557600080fd5b61053b60048080359060200190919050506120ba565b005b341561054857600080fd5b61055e6004808035906020019091905050612215565b604051808273ffffffffffffffffffffffffffffffffffffffff1673ffffffffffffffffffffffffffffffffffffffff16815260200191505060405180910390f35b34156105ab57600080fd5b6105d7600480803573ffffffffffffffffffffffffffffffffffffffff1690602001909190505061225f565b6040518082815260200191505060405180910390f35b34156105f857600080fd5b6106006122a8565b6040518082815260200191505060405180910390f35b341561062157600080fd5b61064d600480803573ffffffffffffffffffffffffffffffffffffffff169060200190919050506122ae565b6040518082815260200191505060405180910390f35b341561066e57600080fd5b610676612314565b60405180878152602001868152602001858152602001848152602001838152602001828152602001965050505050505060405180910390f35b34156106ba57600080fd5b6106d06004808035906020019091905050612343565b604051808060200180602001806020018560ff1660ff168152602001848103845288818151815260200191508051906020019060200280838360005b8381101561072757808201518184015260208101905061070c565b50505050905001848103835287818151815260200191508051906020019060200280838360005b8381101561076957808201518184015260208101905061074e565b50505050905001848103825286818151815260200191508051906020019060200280838360005b838110156107ab578082015181840152602081019050610790565b5050505090500197505050505050505060405180910390f35b34156107cf57600080fd5b6107fb600480803573ffffffffffffffffffffffffffffffffffffffff16906020019091905050612502565b6040518082815260200191505060405180910390f35b341561081c57600080fd5b61088a600480803590602001908201803590602001908080601f0160208091040260200160405190810160405280939291908181526020018383808284378201915050505050509190803590602001909190803560ff1690602001909190803590602001909190505061264e565b005b341561089757600080fd5b6108ad6004808035906020019091905050612bee565b6040518082815260200191505060405180910390f35b34156108ce57600080fd5b6108e46004808035906020019091905050612c18565b6040518082815260200191505060405180910390f35b341561090557600080fd5b61091b6004808035906020019091905050612c52565b604051808260ff1660ff16815260200191505060405180910390f35b341561094257600080fd5b6109586004808035906020019091905050612de8565b6040518080602001828103825283818151815260200191508051906020019080838360005b8381101561099857808201518184015260208101905061097d565b50505050905090810190601f1680156109c55780820380516001836020036101000a031916815260200191505b509250505060405180910390f35b34156109de57600080fd5b610ac9600480803590602001909190803590602001909190803590602001908201803590602001908080602002602001604051908101604052809392919081815260200183836020028082843782019150505050505091908035906020019082018035906020019080806020026020016040519081016040528093929190818152602001838360200280828437820191505050505050919080359060200190820180359060200190808060200260200160405190810160405280939291908181526020018383602002808284378201915050505050509190803560ff16906020019091905050612ea4565b005b3415610ad657600080fd5b610aec6004808035906020019091905050613579565b005b3415610af957600080fd5b610b0f60048080359060200190919050506136d4565b005b3415610b1c57600080fd5b610b2461382f565b6040518082815260200191505060405180910390f35b3415610b4557600080fd5b610b646004808035906020019091908035906020019091905050613835565b005b3415610b7157600080fd5b610b876004808035906020019091905050613c3d565b6040518084815260200183600019166000191681526020018273ffffffffffffffffffffffffffffffffffffffff1673ffffffffffffffffffffffffffffffffffffffff168152602001935050505060405180910390f35b3415610bea57600080fd5b610c1f600480803573ffffffffffffffffffffffffffffffffffffffff16906020019091908035906020019091905050613cb2565b005b3415610c2c57600080fd5b610c4e600480803590602001909190803560ff16906020019091905050613f53565b005b3415610c5b57600080fd5b610c7a60048080359060200190919080359060200190919050506140fc565b6040518082815260200191505060405180910390f35b3415610c9b57600080fd5b610ca3614132565b6040518082815260200191505060405180910390f35b3415610cc457600080fd5b610ce36004808035906020019091908035906020019091905050614138565b604051808481526020018381526020018273ffffffffffffffffffffffffffffffffffffffff1673ffffffffffffffffffffffffffffffffffffffff168152602001935050505060405180910390f35b3415610d3e57600080fd5b610d5460048080359060200190919050506141f7565b6040518080602001828103825283818151815260200191508051906020019060200280838360005b83811015610d97578082015181840152602081019050610d7c565b505050509050019250505060405180910390f35b3415610db657600080fd5b610dbe614268565b6040518082815260200191505060405180910390f35b3415610ddf57600080fd5b610de7614275565b604051808273ffffffffffffffffffffffffffffffffffffffff1673ffffffffffffffffffffffffffffffffffffffff16815260200191505060405180910390f35b3415610e3457600080fd5b610e4a600480803590602001909190505061429a565b6040518082815260200191505060405180910390f35b3415610e6b57600080fd5b610e736142ba565b6040518082815260200191505060405180910390f35b3415610e9457600080fd5b610eaa60048080359060200190919050506142c0565b6040518082815260200191505060405180910390f35b3415610ecb57600080fd5b610f39600480803590602001909190803560ff1690602001909190803560ff16906020019091908035906020019082018035906020019080806020026020016040519081016040528093929190818152602001838360200280828437820191505050505050919050506142f0565b005b3415610f4657600080fd5b610f896004808035906020019091908035906020019091908035906020019091908035906020019091908035906020019091908035906020019091905050614671565b005b3415610f9657600080fd5b610f9e6147f4565b6040518082815260200191505060405180910390f35b3415610fbf57600080fd5b610feb600480803573ffffffffffffffffffffffffffffffffffffffff16906020019091905050614907565b005b3415610ff857600080fd5b61100e6004808035906020019091905050614a64565b604051808381526020018281526020019250505060405180910390f35b341561103657600080fd5b61103e614ab2565b6040518082815260200191505060405180910390f35b341561105f57600080fd5b6110756004808035906020019091905050614ab8565b6040518082815260200191505060405180910390f35b341561109657600080fd5b6110cf60048080356000191690602001909190803573ffffffffffffffffffffffffffffffffffffffff16906020019091905050614adb565b005b34156110dc57600080fd5b611123600480803590602001909190803573ffffffffffffffffffffffffffffffffffffffff16906020019091908035906020019091908035906020019091905050614d2a565b005b341561113057600080fd5b6111466004808035906020019091905050614f72565b6040518082815260200191505060405180910390f35b341561116757600080fd5b6111c0600480803590602001909190803590602001908201803590602001908080601f01602080910402602001604051908101604052809392919081815260200183838082843782019150505050505091905050614f9c565b005b34156111cd57600080fd5b6111ec60048080359060200190919080359060200190919050506151a8565b6040518082815260200191505060405180910390f35b341561120d57600080fd5b61122c60048080359060200190919080359060200190919050506151e1565b6040518084815260200180602001838152602001828103825284818151815260200191508051906020019080838360005b8381101561127857808201518184015260208101905061125d565b50505050905090810190601f1680156112a55780820380516001836020036101000a031916815260200191505b5094505050505060405180910390f35b34156112c057600080fd5b6112d6600480803590602001909190505061532b565b005b34156112e357600080fd5b61131d600480803590602001909190803560ff1690602001909190803560ff1690602001909190803560ff16906020019091905050615486565b005b341561132a57600080fd5b6113406004808035906020019091905050615688565b6040518088815260200180602001878152602001806020018681526020018581526020018460ff1660ff168152602001838103835289818151815260200191508051906020019080838360005b838110156113a857808201518184015260208101905061138d565b50505050905090810190601f1680156113d55780820380516001836020036101000a031916815260200191505b50838103825287818151815260200191508051906020019080838360005b8381101561140e5780820151818401526020810190506113f3565b50505050905090810190601f16801561143b5780820380516001836020036101000a031916815260200191505b50995050505050505050505060405180910390f35b341561145b57600080fd5b61147e6004808035906020019091908035600019169060200190919050506158ed565b6040518084815260200183600019166000191681526020018273ffffffffffffffffffffffffffffffffffffffff1673ffffffffffffffffffffffffffffffffffffffff168152602001935050505060405180910390f35b34156114e157600080fd5b6115006004808035906020019091908035906020019091905050615955565b005b341561150d57600080fd5b611515615ae4565b604051808273ffffffffffffffffffffffffffffffffffffffff1673ffffffffffffffffffffffffffffffffffffffff16815260200191505060405180910390f35b341561156257600080fd5b61158e600480803573ffffffffffffffffffffffffffffffffffffffff16906020019091905050615b0a565b005b341561159b57600080fd5b6115a3615d27565b005b34156115b057600080fd5b6115cf6004808035906020019091908035906020019091905050615d5a565b604051808273ffffffffffffffffffffffffffffffffffffffff1673ffffffffffffffffffffffffffffffffffffffff16815260200191505060405180910390f35b341561161c57600080fd5b611624615db3565b005b341561163157600080fd5b6116476004808035906020019091905050615f95565b005b341561165457600080fd5b61167360048080359060200190919080359060200190919050506160f0565b6040518082815260200191505060405180910390f35b341561169457600080fd5b6116b36004808035906020019091908035906020019091905050616129565b005b34156116c057600080fd5b6116c8616457565b6040518082815260200191505060405180910390f35b34156116e957600080fd5b6116ff6004808035906020019091905050616464565b604051808660ff1660ff1681526020018560ff1660ff1681526020018460ff1660ff1681526020018360ff1660ff1681526020018273ffffffffffffffffffffffffffffffffffffffff1673ffffffffffffffffffffffffffffffffffffffff1681526020019550505050505060405180910390f35b341561178057600080fd5b611788616578565b6040518082815260200191505060405180910390f35b34156117a957600080fd5b6117d5600480803573ffffffffffffffffffffffffffffffffffffffff1690602001909190505061657e565b005b34156117e257600080fd5b6117f860048080359060200190919050506167c9565b604051808773ffffffffffffffffffffffffffffffffffffffff1673ffffffffffffffffffffffffffffffffffffffff16815260200180602001868152602001858152602001848152602001838152602001828103825287818151815260200191508051906020019080838360005b83811015611882578082015181840152602081019050611867565b50505050905090810190601f1680156118af5780820380516001836020036101000a031916815260200191505b5097505050505050505060405180910390f35b34156118cd57600080fd5b61195a60048080359060200190820180359060200190808060200260200160405190810160405280939291908181526020018383602002808284378201915050505050509190803590602001908201803590602001908080602002602001604051908101604052809392919081815260200183836020028082843782019150505050505091905050616995565b005b601f60009054906101000a900473ffffffffffffffffffffffffffffffffffffffff16602460006101000a81548173ffffffffffffffffffffffffffffffffffffffff021916908373ffffffffffffffffffffffffffffffffffffffff1602179055506001602460009054906101000a900473ffffffffffffffffffffffffffffffffffffffff1673ffffffffffffffffffffffffffffffffffffffff16638f16c41c336000604051602001526040518263ffffffff167c0100000000000000000000000000000000000000000000000000000000028152600401808273ffffffffffffffffffffffffffffffffffffffff1673ffffffffffffffffffffffffffffffffffffffff168152602001915050602060405180830381600087803b1515611a8657600080fd5b6102c65a03f11515611a9757600080fd5b50505060405180519050141515611aad57600080fd5b83601e60006101000a81548173ffffffffffffffffffffffffffffffffffffffff021916908373ffffffffffffffffffffffffffffffffffffffff16021790555082601b60006101000a81548173ffffffffffffffffffffffffffffffffffffffff021916908373ffffffffffffffffffffffffffffffffffffffff16021790555081601c60006101000a81548173ffffffffffffffffffffffffffffffffffffffff021916908373ffffffffffffffffffffffffffffffffffffffff16021790555080601d60006101000a81548173ffffffffffffffffffffffffffffffffffffffff021916908373ffffffffffffffffffffffffffffffffffffffff16021790555050505050565b6000806000806000601886815481101515611bce57fe5b906000526020600020906007020160040160039054906101000a900460ff1660ff169150601886815481101515611c0157fe5b906000526020600020906007020160040160049054906101000a900460ff1660ff16905060006002600088815260200190815260200160002060010180549050141515611c7a576002600087815260200190815260200160002060010181815481101515611c6b57fe5b90600052602060002090015494505b60006002600088815260200190815260200160002060020180549050141515611ccf576002600087815260200190815260200160002060020181815481101515611cc057fe5b90600052602060002090015493505b60006002600088815260200190815260200160002060030180549050141515611d44576002600087815260200190815260200160002060030181815481101515611d1557fe5b906000526020600020900160009054906101000a900473ffffffffffffffffffffffffffffffffffffffff1692505b50509193909250565b601f60009054906101000a900473ffffffffffffffffffffffffffffffffffffffff16602460006101000a81548173ffffffffffffffffffffffffffffffffffffffff021916908373ffffffffffffffffffffffffffffffffffffffff1602179055506001602460009054906101000a900473ffffffffffffffffffffffffffffffffffffffff1673ffffffffffffffffffffffffffffffffffffffff16638f16c41c336000604051602001526040518263ffffffff167c0100000000000000000000000000000000000000000000000000000000028152600401808273ffffffffffffffffffffffffffffffffffffffff1673ffffffffffffffffffffffffffffffffffffffff168152602001915050602060405180830381600087803b1515611e7757600080fd5b6102c65a03f11515611e8857600080fd5b50505060405180519050141515611e9e57600080fd5b80601a60006101000a81548173ffffffffffffffffffffffffffffffffffffffff021916908373ffffffffffffffffffffffffffffffffffffffff16021790555050565b601f60009054906101000a900473ffffffffffffffffffffffffffffffffffffffff16602460006101000a81548173ffffffffffffffffffffffffffffffffffffffff021916908373ffffffffffffffffffffffffffffffffffffffff1602179055506001602460009054906101000a900473ffffffffffffffffffffffffffffffffffffffff1673ffffffffffffffffffffffffffffffffffffffff16638f16c41c336000604051602001526040518263ffffffff167c0100000000000000000000000000000000000000000000000000000000028152600401808273ffffffffffffffffffffffffffffffffffffffff1673ffffffffffffffffffffffffffffffffffffffff168152602001915050602060405180830381600087803b151561200c57600080fd5b6102c65a03f1151561201d57600080fd5b5050506040518051905014151561203357600080fd5b80600660008473ffffffffffffffffffffffffffffffffffffffff1673ffffffffffffffffffffffffffffffffffffffff168152602001908152602001600020819055505050565b600060026000848152602001908152602001600020600701828154811015156120a057fe5b906000526020600020900154905092915050565b600e5481565b601f60009054906101000a900473ffffffffffffffffffffffffffffffffffffffff16602460006101000a81548173ffffffffffffffffffffffffffffffffffffffff021916908373ffffffffffffffffffffffffffffffffffffffff1602179055506001602460009054906101000a900473ffffffffffffffffffffffffffffffffffffffff1673ffffffffffffffffffffffffffffffffffffffff16632f54bf6e336000604051602001526040518263ffffffff167c0100000000000000000000000000000000000000000000000000000000028152600401808273ffffffffffffffffffffffffffffffffffffffff1673ffffffffffffffffffffffffffffffffffffffff168152602001915050602060405180830381600087803b15156121e457600080fd5b6102c65a03f115156121f557600080fd5b5050506040518051905014151561220b57600080fd5b80600f8190555050565b600060188281548110151561222657fe5b906000526020600020906007020160000160009054906101000a900473ffffffffffffffffffffffffffffffffffffffff169050919050565b6000600660008373ffffffffffffffffffffffffffffffffffffffff1673ffffffffffffffffffffffffffffffffffffffff168152602001908152602001600020549050919050565b60095481565b60008173ffffffffffffffffffffffffffffffffffffffff166000809054906101000a900473ffffffffffffffffffffffffffffffffffffffff1673ffffffffffffffffffffffffffffffffffffffff1614151561230b57600080fd5b60019050919050565b600080600080600080601054601154601254601354601454601554955095509550955095509550909192939495565b61234b617d84565b612353617d98565b61235b617dac565b60006002600086815260200190815260200160002060010160026000878152602001908152602001600020600201600260008881526020019081526020016000206003016002600089815260200190815260200160002060040160009054906101000a900460ff168380548060200260200160405190810160405280929190818152602001828054801561240e57602002820191906000526020600020905b8154815260200190600101908083116123fa575b505050505093508280548060200260200160405190810160405280929190818152602001828054801561246457602002820191906000526020600020905b8154600019168152602001906001019080831161244c575b50505050509250818054806020026020016040519081016040528092919081815260200182805480156124ec57602002820191906000526020600020905b8160009054906101000a900473ffffffffffffffffffffffffffffffffffffffff1673ffffffffffffffffffffffffffffffffffffffff16815260200190600101908083116124a2575b5050505050915093509350935093509193509193565b6000601e60009054906101000a900473ffffffffffffffffffffffffffffffffffffffff16602060006101000a81548173ffffffffffffffffffffffffffffffffffffffff021916908373ffffffffffffffffffffffffffffffffffffffff160217905550602060009054906101000a900473ffffffffffffffffffffffffffffffffffffffff1673ffffffffffffffffffffffffffffffffffffffff166370a08231836000604051602001526040518263ffffffff167c0100000000000000000000000000000000000000000000000000000000028152600401808273ffffffffffffffffffffffffffffffffffffffff1673ffffffffffffffffffffffffffffffffffffffff168152602001915050602060405180830381600087803b151561262c57600080fd5b6102c65a03f1151561263d57600080fd5b505050604051805190509050919050565b600080600061265c33612502565b1415151561266957600080fd5b6001600660003373ffffffffffffffffffffffffffffffffffffffff1673ffffffffffffffffffffffffffffffffffffffff168152602001908152602001600020819055506019858154811015156126bd57fe5b906000526020600020906002020160010160009054906101000a900473ffffffffffffffffffffffffffffffffffffffff169150601880549050905060008460ff16111561297c57601880548060010182816127199190617dc0565b916000526020600020906007020160006101a0604051908101604052803373ffffffffffffffffffffffffffffffffffffffff1681526020018a8152602001428152602001428152602001600060ff168152602001600060ff168152602001600060ff1681526020018860ff168152602001600060ff168152602001600060ff1681526020018673ffffffffffffffffffffffffffffffffffffffff168152602001600081526020016000815250909190915060008201518160000160006101000a81548173ffffffffffffffffffffffffffffffffffffffff021916908373ffffffffffffffffffffffffffffffffffffffff160217905550602082015181600101908051906020019061282f929190617df2565b50604082015181600201556060820151816003015560808201518160040160006101000a81548160ff021916908360ff16021790555060a08201518160040160016101000a81548160ff021916908360ff16021790555060c08201518160040160026101000a81548160ff021916908360ff16021790555060e08201518160040160036101000a81548160ff021916908360ff1602179055506101008201518160040160046101000a81548160ff021916908360ff1602179055506101208201518160040160056101000a81548160ff021916908360ff1602179055506101408201518160040160066101000a81548173ffffffffffffffffffffffffffffffffffffffff021916908373ffffffffffffffffffffffffffffffffffffffff160217905550610160820151816005015561018082015181600601555050506129778184613835565b612be6565b601880548060010182816129909190617dc0565b916000526020600020906007020160006101a0604051908101604052803373ffffffffffffffffffffffffffffffffffffffff1681526020018a8152602001428152602001428152602001600060ff168152602001600060ff168152602001600060ff168152602001600060ff168152602001600060ff168152602001600060ff1681526020018673ffffffffffffffffffffffffffffffffffffffff168152602001600081526020016000815250909190915060008201518160000160006101000a81548173ffffffffffffffffffffffffffffffffffffffff021916908373ffffffffffffffffffffffffffffffffffffffff1602179055506020820151816001019080519060200190612aa7929190617df2565b50604082015181600201556060820151816003015560808201518160040160006101000a81548160ff021916908360ff16021790555060a08201518160040160016101000a81548160ff021916908360ff16021790555060c08201518160040160026101000a81548160ff021916908360ff16021790555060e08201518160040160036101000a81548160ff021916908360ff1602179055506101008201518160040160046101000a81548160ff021916908360ff1602179055506101208201518160040160056101000a81548160ff021916908360ff1602179055506101408201518160040160066101000a81548173ffffffffffffffffffffffffffffffffffffffff021916908373ffffffffffffffffffffffffffffffffffffffff160217905550610160820151816005015561018082015181600601555050505b505050505050565b6000601882815481101515612bff57fe5b9060005260206000209060070201600601549050919050565b6000601882815481101515612c2957fe5b906000526020600020906007020160040160029054906101000a900460ff1660ff169050919050565b6000601f60009054906101000a900473ffffffffffffffffffffffffffffffffffffffff16602460006101000a81548173ffffffffffffffffffffffffffffffffffffffff021916908373ffffffffffffffffffffffffffffffffffffffff1602179055506001602460009054906101000a900473ffffffffffffffffffffffffffffffffffffffff1673ffffffffffffffffffffffffffffffffffffffff16638f16c41c336000604051602001526040518263ffffffff167c0100000000000000000000000000000000000000000000000000000000028152600401808273ffffffffffffffffffffffffffffffffffffffff1673ffffffffffffffffffffffffffffffffffffffff168152602001915050602060405180830381600087803b1515612d7e57600080fd5b6102c65a03f11515612d8f57600080fd5b50505060405180519050141515612da557600080fd5b42612dd2601884815481101515612db857fe5b906000526020600020906007020160030154600954616ba5565b11151515612ddf57600080fd5b60019050919050565b601781815481101515612df757fe5b90600052602060002090016000915090508054600181600116156101000203166002900480601f016020809104026020016040519081016040528092919081815260200182805460018160011615610100020316600290048015612e9c5780601f10612e7157610100808354040283529160200191612e9c565b820191906000526020600020905b815481529060010190602001808311612e7f57829003601f168201915b505050505081565b6000806000806000601f60009054906101000a900473ffffffffffffffffffffffffffffffffffffffff16602460006101000a81548173ffffffffffffffffffffffffffffffffffffffff021916908373ffffffffffffffffffffffffffffffffffffffff1602179055506001602460009054906101000a900473ffffffffffffffffffffffffffffffffffffffff1673ffffffffffffffffffffffffffffffffffffffff16638f16c41c336000604051602001526040518263ffffffff167c0100000000000000000000000000000000000000000000000000000000028152600401808273ffffffffffffffffffffffffffffffffffffffff1673ffffffffffffffffffffffffffffffffffffffff168152602001915050602060405180830381600087803b1515612fd657600080fd5b6102c65a03f11515612fe757600080fd5b50505060405180519050141515612ffd57600080fd5b61300a8a8a8a8a8a616bc3565b601d60009054906101000a900473ffffffffffffffffffffffffffffffffffffffff16602360006101000a81548173ffffffffffffffffffffffffffffffffffffffff021916908373ffffffffffffffffffffffffffffffffffffffff160217905550602360009054906101000a900473ffffffffffffffffffffffffffffffffffffffff1673ffffffffffffffffffffffffffffffffffffffff1663b0a4aaee8c600060405161012001526040518263ffffffff167c01000000000000000000000000000000000000000000000000000000000281526004018082815260200191505061012060405180830381600087803b151561310857600080fd5b6102c65a03f1151561311957600080fd5b50505060405180519060200180519060200180519060200180519060200180519060200180519060200180519060200180519060200180519050909192939495969750909192939495965090919293949550909192939450905050809550819650829750505050600090505b8460ff168110156132ba57602360009054906101000a900473ffffffffffffffffffffffffffffffffffffffff1673ffffffffffffffffffffffffffffffffffffffff1663713656298c836000604051602001526040518363ffffffff167c01000000000000000000000000000000000000000000000000000000000281526004018083815260200182815260200192505050602060405180830381600087803b151561323157600080fd5b6102c65a03f1151561324257600080fd5b505050604051805190509150888181518110151561325c57fe5b90602001906020020151600160008c8152602001908152602001600020600001600060018401815260200190815260200160002060008460001916600019168152602001908152602001600020819055508080600101915050613185565b600090505b8360ff168110156133f857602360009054906101000a900473ffffffffffffffffffffffffffffffffffffffff1673ffffffffffffffffffffffffffffffffffffffff1663d7fa79ac8c836000604051602001526040518363ffffffff167c01000000000000000000000000000000000000000000000000000000000281526004018083815260200182815260200192505050602060405180830381600087803b151561336b57600080fd5b6102c65a03f1151561337c57600080fd5b505050604051805190509150878181518110151561339657fe5b90602001906020020151600160008c8152602001908152602001600020600101600060018401815260200190815260200160002060008460001916600019168152602001908152602001600020816000191690555080806001019150506132bf565b600090505b8260ff1681101561356c57602360009054906101000a900473ffffffffffffffffffffffffffffffffffffffff1673ffffffffffffffffffffffffffffffffffffffff1663dfa4afc68c836000604051602001526040518363ffffffff167c01000000000000000000000000000000000000000000000000000000000281526004018083815260200182815260200192505050602060405180830381600087803b15156134a957600080fd5b6102c65a03f115156134ba57600080fd5b50505060405180519050915086818151811015156134d457fe5b90602001906020020151600160008c815260200190815260200160002060020160006001840181526020019081526020016000206000846000191660001916815260200190815260200160002060006101000a81548173ffffffffffffffffffffffffffffffffffffffff021916908373ffffffffffffffffffffffffffffffffffffffff16021790555080806001019150506133fd565b5050505050505050505050565b601f60009054906101000a900473ffffffffffffffffffffffffffffffffffffffff16602460006101000a81548173ffffffffffffffffffffffffffffffffffffffff021916908373ffffffffffffffffffffffffffffffffffffffff1602179055506001602460009054906101000a900473ffffffffffffffffffffffffffffffffffffffff1673ffffffffffffffffffffffffffffffffffffffff16632f54bf6e336000604051602001526040518263ffffffff167c0100000000000000000000000000000000000000000000000000000000028152600401808273ffffffffffffffffffffffffffffffffffffffff1673ffffffffffffffffffffffffffffffffffffffff168152602001915050602060405180830381600087803b15156136a357600080fd5b6102c65a03f115156136b457600080fd5b505050604051805190501415156136ca57600080fd5b80600a8190555050565b601f60009054906101000a900473ffffffffffffffffffffffffffffffffffffffff16602460006101000a81548173ffffffffffffffffffffffffffffffffffffffff021916908373ffffffffffffffffffffffffffffffffffffffff1602179055506001602460009054906101000a900473ffffffffffffffffffffffffffffffffffffffff1673ffffffffffffffffffffffffffffffffffffffff16632f54bf6e336000604051602001526040518263ffffffff167c0100000000000000000000000000000000000000000000000000000000028152600401808273ffffffffffffffffffffffffffffffffffffffff1673ffffffffffffffffffffffffffffffffffffffff168152602001915050602060405180830381600087803b15156137fe57600080fd5b6102c65a03f1151561380f57600080fd5b5050506040518051905014151561382557600080fd5b80600e8190555050565b600a5481565b601f60009054906101000a900473ffffffffffffffffffffffffffffffffffffffff16602460006101000a81548173ffffffffffffffffffffffffffffffffffffffff021916908373ffffffffffffffffffffffffffffffffffffffff1602179055506001602460009054906101000a900473ffffffffffffffffffffffffffffffffffffffff1673ffffffffffffffffffffffffffffffffffffffff16632f54bf6e336000604051602001526040518263ffffffff167c0100000000000000000000000000000000000000000000000000000000028152600401808273ffffffffffffffffffffffffffffffffffffffff1673ffffffffffffffffffffffffffffffffffffffff168152602001915050602060405180830381600087803b151561395f57600080fd5b6102c65a03f1151561397057600080fd5b5050506040518051905014151561398657600080fd5b601d60009054906101000a900473ffffffffffffffffffffffffffffffffffffffff16602360006101000a81548173ffffffffffffffffffffffffffffffffffffffff021916908373ffffffffffffffffffffffffffffffffffffffff16021790555060006018838154811015156139fa57fe5b906000526020600020906007020160040160039054906101000a900460ff1660ff1614151515613a2957600080fd5b602360009054906101000a900473ffffffffffffffffffffffffffffffffffffffff1673ffffffffffffffffffffffffffffffffffffffff166373f231e7601884815481101515613a7657fe5b906000526020600020906007020160040160039054906101000a900460ff166000604051602001526040518263ffffffff167c0100000000000000000000000000000000000000000000000000000000028152600401808260ff168152602001915050602060405180830381600087803b1515613af257600080fd5b6102c65a03f11515613b0357600080fd5b5050506040518051905060ff168110158015613c055750602360009054906101000a900473ffffffffffffffffffffffffffffffffffffffff1673ffffffffffffffffffffffffffffffffffffffff166354dacca7601884815481101515613b6757fe5b906000526020600020906007020160040160039054906101000a900460ff166000604051602001526040518263ffffffff167c0100000000000000000000000000000000000000000000000000000000028152600401808260ff168152602001915050602060405180830381600087803b1515613be357600080fd5b6102c65a03f11515613bf457600080fd5b5050506040518051905060ff168111155b1515613c1057600080fd5b613c1981616d89565b613c238282616f0b565b613c2e826002616fd5565b613c39826002617042565b5050565b6000806000839250601984815481101515613c5457fe5b9060005260206000209060020201600001549150601984815481101515613c7757fe5b906000526020600020906002020160010160009054906101000a900473ffffffffffffffffffffffffffffffffffffffff1690509193909250565b601f60009054906101000a900473ffffffffffffffffffffffffffffffffffffffff16602460006101000a81548173ffffffffffffffffffffffffffffffffffffffff021916908373ffffffffffffffffffffffffffffffffffffffff1602179055506001602460009054906101000a900473ffffffffffffffffffffffffffffffffffffffff1673ffffffffffffffffffffffffffffffffffffffff16638f16c41c336000604051602001526040518263ffffffff167c0100000000000000000000000000000000000000000000000000000000028152600401808273ffffffffffffffffffffffffffffffffffffffff1673ffffffffffffffffffffffffffffffffffffffff168152602001915050602060405180830381600087803b1515613ddc57600080fd5b6102c65a03f11515613ded57600080fd5b50505060405180519050141515613e0357600080fd5b601b60009054906101000a900473ffffffffffffffffffffffffffffffffffffffff16602060006101000a81548173ffffffffffffffffffffffffffffffffffffffff021916908373ffffffffffffffffffffffffffffffffffffffff160217905550602060009054906101000a900473ffffffffffffffffffffffffffffffffffffffff1673ffffffffffffffffffffffffffffffffffffffff1663a9059cbb83836000604051602001526040518363ffffffff167c0100000000000000000000000000000000000000000000000000000000028152600401808373ffffffffffffffffffffffffffffffffffffffff1673ffffffffffffffffffffffffffffffffffffffff16815260200182815260200192505050602060405180830381600087803b1515613f3357600080fd5b6102c65a03f11515613f4457600080fd5b50505060405180519050505050565b601f60009054906101000a900473ffffffffffffffffffffffffffffffffffffffff16602460006101000a81548173ffffffffffffffffffffffffffffffffffffffff021916908373ffffffffffffffffffffffffffffffffffffffff1602179055506001602460009054906101000a900473ffffffffffffffffffffffffffffffffffffffff1673ffffffffffffffffffffffffffffffffffffffff16638f16c41c336000604051602001526040518263ffffffff167c0100000000000000000000000000000000000000000000000000000000028152600401808273ffffffffffffffffffffffffffffffffffffffff1673ffffffffffffffffffffffffffffffffffffffff168152602001915050602060405180830381600087803b151561407d57600080fd5b6102c65a03f1151561408e57600080fd5b505050604051805190501415156140a457600080fd5b60006018838154811015156140b557fe5b906000526020600020906007020160040160039054906101000a900460ff1660ff16141515156140e457600080fd5b6140ee8282616fd5565b6140f88282617042565b5050565b6000600760008481526020019081526020016000208281548110151561411e57fe5b906000526020600020900154905092915050565b600b5481565b6000806000600260008681526020019081526020016000206007018481548110151561416057fe5b9060005260206000209001549250600260008681526020019081526020016000206006018481548110151561419157fe5b906000526020600020900154915060026000868152602001908152602001600020600501848154811015156141c257fe5b906000526020600020900160009054906101000a900473ffffffffffffffffffffffffffffffffffffffff1690509250925092565b6141ff617d84565b6007600083815260200190815260200160002080548060200260200160405190810160405280929190818152602001828054801561425c57602002820191906000526020600020905b815481526020019060010190808311614248575b50505050509050919050565b6000601880549050905090565b6000809054906101000a900473ffffffffffffffffffffffffffffffffffffffff1681565b600060076000838152602001908152602001600020805490509050919050565b600f5481565b60006002600083815260200190815260200160002060040160009054906101000a900460ff1660ff169050919050565b601c60009054906101000a900473ffffffffffffffffffffffffffffffffffffffff16602260006101000a81548173ffffffffffffffffffffffffffffffffffffffff021916908373ffffffffffffffffffffffffffffffffffffffff160217905550601d60009054906101000a900473ffffffffffffffffffffffffffffffffffffffff16602360006101000a81548173ffffffffffffffffffffffffffffffffffffffff021916908373ffffffffffffffffffffffffffffffffffffffff160217905550602260009054906101000a900473ffffffffffffffffffffffffffffffffffffffff1673ffffffffffffffffffffffffffffffffffffffff16639914aa8c6000604051602001526040518163ffffffff167c0100000000000000000000000000000000000000000000000000000000028152600401602060405180830381600087803b151561444457600080fd5b6102c65a03f1151561445557600080fd5b50505060405180519050602260009054906101000a900473ffffffffffffffffffffffffffffffffffffffff1673ffffffffffffffffffffffffffffffffffffffff1663beae32ba336000604051602001526040518263ffffffff167c0100000000000000000000000000000000000000000000000000000000028152600401808273ffffffffffffffffffffffffffffffffffffffff1673ffffffffffffffffffffffffffffffffffffffff168152602001915050602060405180830381600087803b151561452457600080fd5b6102c65a03f1151561453557600080fd5b5050506040518051905014151561454b57600080fd5b600160188581548110151561455c57fe5b906000526020600020906007020160040160029054906101000a900460ff1660ff1614806145ba5750600060188581548110151561459657fe5b906000526020600020906007020160040160029054906101000a900460ff1660ff16145b15156145c557600080fd5b6145d4848460ff1684846170a4565b6145dd84617281565b336002600086815260200190815260200160002060000160006101000a81548173ffffffffffffffffffffffffffffffffffffffff021916908373ffffffffffffffffffffffffffffffffffffffff1602179055508260188581548110151561464257fe5b906000526020600020906007020160040160036101000a81548160ff021916908360ff16021790555050505050565b601f60009054906101000a900473ffffffffffffffffffffffffffffffffffffffff16602460006101000a81548173ffffffffffffffffffffffffffffffffffffffff021916908373ffffffffffffffffffffffffffffffffffffffff1602179055506001602460009054906101000a900473ffffffffffffffffffffffffffffffffffffffff1673ffffffffffffffffffffffffffffffffffffffff16632f54bf6e336000604051602001526040518263ffffffff167c0100000000000000000000000000000000000000000000000000000000028152600401808273ffffffffffffffffffffffffffffffffffffffff1673ffffffffffffffffffffffffffffffffffffffff168152602001915050602060405180830381600087803b151561479b57600080fd5b6102c65a03f115156147ac57600080fd5b505050604051805190501415156147c257600080fd5b856010819055508460118190555083601281905550826013819055508160148190555080601581905550505050505050565b6000601b60009054906101000a900473ffffffffffffffffffffffffffffffffffffffff16602060006101000a81548173ffffffffffffffffffffffffffffffffffffffff021916908373ffffffffffffffffffffffffffffffffffffffff160217905550602060009054906101000a900473ffffffffffffffffffffffffffffffffffffffff1673ffffffffffffffffffffffffffffffffffffffff166318160ddd6000604051602001526040518163ffffffff167c0100000000000000000000000000000000000000000000000000000000028152600401602060405180830381600087803b15156148e757600080fd5b6102c65a03f115156148f857600080fd5b50505060405180519050905090565b601f60009054906101000a900473ffffffffffffffffffffffffffffffffffffffff16602460006101000a81548173ffffffffffffffffffffffffffffffffffffffff021916908373ffffffffffffffffffffffffffffffffffffffff1602179055506001602460009054906101000a900473ffffffffffffffffffffffffffffffffffffffff1673ffffffffffffffffffffffffffffffffffffffff16632f54bf6e336000604051602001526040518263ffffffff167c0100000000000000000000000000000000000000000000000000000000028152600401808273ffffffffffffffffffffffffffffffffffffffff1673ffffffffffffffffffffffffffffffffffffffff168152602001915050602060405180830381600087803b1515614a3157600080fd5b6102c65a03f11515614a4257600080fd5b50505060405180519050141515614a5857600080fd5b614a618161657e565b50565b600080601883815481101515614a7657fe5b9060005260206000209060070201600501549150601883815481101515614a9957fe5b9060005260206000209060070201600601549050915091565b600d5481565b600060026000838152602001908152602001600020600501805490509050919050565b601f60009054906101000a900473ffffffffffffffffffffffffffffffffffffffff16602460006101000a81548173ffffffffffffffffffffffffffffffffffffffff021916908373ffffffffffffffffffffffffffffffffffffffff1602179055506001602460009054906101000a900473ffffffffffffffffffffffffffffffffffffffff1673ffffffffffffffffffffffffffffffffffffffff16632f54bf6e336000604051602001526040518263ffffffff167c0100000000000000000000000000000000000000000000000000000000028152600401808273ffffffffffffffffffffffffffffffffffffffff1673ffffffffffffffffffffffffffffffffffffffff168152602001915050602060405180830381600087803b1515614c0557600080fd5b6102c65a03f11515614c1657600080fd5b50505060405180519050141515614c2c57600080fd5b60198054806001018281614c409190617e72565b916000526020600020906002020160006040805190810160405280866000191681526020018573ffffffffffffffffffffffffffffffffffffffff1681525090919091506000820151816000019060001916905560208201518160010160006101000a81548173ffffffffffffffffffffffffffffffffffffffff021916908373ffffffffffffffffffffffffffffffffffffffff16021790555050505081600860008373ffffffffffffffffffffffffffffffffffffffff1673ffffffffffffffffffffffffffffffffffffffff16815260200190815260200160002081600019169055505050565b601f60009054906101000a900473ffffffffffffffffffffffffffffffffffffffff16602460006101000a81548173ffffffffffffffffffffffffffffffffffffffff021916908373ffffffffffffffffffffffffffffffffffffffff1602179055506001602460009054906101000a900473ffffffffffffffffffffffffffffffffffffffff1673ffffffffffffffffffffffffffffffffffffffff16638f16c41c336000604051602001526040518263ffffffff167c0100000000000000000000000000000000000000000000000000000000028152600401808273ffffffffffffffffffffffffffffffffffffffff1673ffffffffffffffffffffffffffffffffffffffff168152602001915050602060405180830381600087803b1515614e5457600080fd5b6102c65a03f11515614e6557600080fd5b50505060405180519050141515614e7b57600080fd5b600260008581526020019081526020016000206005018054806001018281614ea39190617ea4565b9160005260206000209001600085909190916101000a81548173ffffffffffffffffffffffffffffffffffffffff021916908373ffffffffffffffffffffffffffffffffffffffff16021790555050600260008581526020019081526020016000206006018054806001018281614f1a9190617ed0565b916000526020600020900160008390919091505550600260008581526020019081526020016000206007018054806001018281614f579190617ed0565b91600052602060002090016000849091909150555050505050565b6000601882815481101515614f8357fe5b9060005260206000209060070201600501549050919050565b6000601f60009054906101000a900473ffffffffffffffffffffffffffffffffffffffff16602460006101000a81548173ffffffffffffffffffffffffffffffffffffffff021916908373ffffffffffffffffffffffffffffffffffffffff1602179055506001602460009054906101000a900473ffffffffffffffffffffffffffffffffffffffff1673ffffffffffffffffffffffffffffffffffffffff16632f54bf6e336000604051602001526040518263ffffffff167c0100000000000000000000000000000000000000000000000000000000028152600401808273ffffffffffffffffffffffffffffffffffffffff1673ffffffffffffffffffffffffffffffffffffffff168152602001915050602060405180830381600087803b15156150c857600080fd5b6102c65a03f115156150d957600080fd5b505050604051805190501415156150ef57600080fd5b6150f883617612565b61510283836177a7565b61510d836001613f53565b600060188481548110151561511e57fe5b906000526020600020906007020160040160039054906101000a900460ff1660ff1611151561514c57600080fd5b61515583616464565b8460ff1694509091925090915090505080915050600060188481548110151561517a57fe5b906000526020600020906007020160040160036101000a81548160ff021916908360ff160217905550505050565b600060026000848152602001908152602001600020600601828154811015156151cd57fe5b906000526020600020900154905092915050565b60006151eb617efc565b6000600360008681526020019081526020016000208481548110151561520d57fe5b906000526020600020906003020160000154600360008781526020019081526020016000208581548110151561523f57fe5b9060005260206000209060030201600101600360008881526020019081526020016000208681548110151561527057fe5b906000526020600020906003020160020154818054600181600116156101000203166002900480601f0160208091040260200160405190810160405280929190818152602001828054600181600116156101000203166002900480156153175780601f106152ec57610100808354040283529160200191615317565b820191906000526020600020905b8154815290600101906020018083116152fa57829003601f168201915b505050505091509250925092509250925092565b601f60009054906101000a900473ffffffffffffffffffffffffffffffffffffffff16602460006101000a81548173ffffffffffffffffffffffffffffffffffffffff021916908373ffffffffffffffffffffffffffffffffffffffff1602179055506001602460009054906101000a900473ffffffffffffffffffffffffffffffffffffffff1673ffffffffffffffffffffffffffffffffffffffff16632f54bf6e336000604051602001526040518263ffffffff167c0100000000000000000000000000000000000000000000000000000000028152600401808273ffffffffffffffffffffffffffffffffffffffff1673ffffffffffffffffffffffffffffffffffffffff168152602001915050602060405180830381600087803b151561545557600080fd5b6102c65a03f1151561546657600080fd5b5050506040518051905014151561547c57600080fd5b80600c8190555050565b601f60009054906101000a900473ffffffffffffffffffffffffffffffffffffffff16602460006101000a81548173ffffffffffffffffffffffffffffffffffffffff021916908373ffffffffffffffffffffffffffffffffffffffff1602179055506001602460009054906101000a900473ffffffffffffffffffffffffffffffffffffffff1673ffffffffffffffffffffffffffffffffffffffff16638f16c41c336000604051602001526040518263ffffffff167c0100000000000000000000000000000000000000000000000000000000028152600401808273ffffffffffffffffffffffffffffffffffffffff1673ffffffffffffffffffffffffffffffffffffffff168152602001915050602060405180830381600087803b15156155b057600080fd5b6102c65a03f115156155c157600080fd5b505050604051805190501415156155d757600080fd5b826018858154811015156155e757fe5b906000526020600020906007020160040160016101000a81548160ff021916908360ff1602179055508160188581548110151561562057fe5b906000526020600020906007020160040160056101000a81548160ff021916908360ff1602179055508060188581548110151561565957fe5b906000526020600020906007020160040160046101000a81548160ff021916908360ff16021790555050505050565b6000615692617efc565b600061569c617efc565b6000806000876018898154811015156156b157fe5b906000526020600020906007020160010160188a8154811015156156d157fe5b906000526020600020906007020160020154601760188c8154811015156156f457fe5b906000526020600020906007020160040160029054906101000a900460ff1660ff1681548110151561572257fe5b906000526020600020900160188c81548110151561573c57fe5b906000526020600020906007020160040160039054906101000a900460ff16600760008e815260200190815260200160002080549050600260008f815260200190815260200160002060040160009054906101000a900460ff16858054600181600116156101000203166002900480601f01602080910402602001604051908101604052809291908181526020018280546001816001161561010002031660029004801561582b5780601f106158005761010080835404028352916020019161582b565b820191906000526020600020905b81548152906001019060200180831161580e57829003601f168201915b50505050509550838054600181600116156101000203166002900480601f0160208091040260200160405190810160405280929190818152602001828054600181600116156101000203166002900480156158c75780601f1061589c576101008083540402835291602001916158c7565b820191906000526020600020905b8154815290600101906020018083116158aa57829003601f168201915b505050505093508260ff1692509650965096509650965096509650919395979092949650565b60008060008060188681548110151561590257fe5b906000526020600020906007020160040160049054906101000a900460ff1660ff16905061593186868361786e565b935061593e8686836178ba565b925061594b868683617906565b9150509250925092565b601f60009054906101000a900473ffffffffffffffffffffffffffffffffffffffff16602460006101000a81548173ffffffffffffffffffffffffffffffffffffffff021916908373ffffffffffffffffffffffffffffffffffffffff1602179055506001602460009054906101000a900473ffffffffffffffffffffffffffffffffffffffff1673ffffffffffffffffffffffffffffffffffffffff16638f16c41c336000604051602001526040518263ffffffff167c0100000000000000000000000000000000000000000000000000000000028152600401808273ffffffffffffffffffffffffffffffffffffffff1673ffffffffffffffffffffffffffffffffffffffff168152602001915050602060405180830381600087803b1515615a7f57600080fd5b6102c65a03f11515615a9057600080fd5b50505060405180519050141515615aa657600080fd5b600760008381526020019081526020016000208054806001018281615acb9190617ed0565b9160005260206000209001600083909190915055505050565b601f60009054906101000a900473ffffffffffffffffffffffffffffffffffffffff1681565b6000601f60009054906101000a900473ffffffffffffffffffffffffffffffffffffffff1673ffffffffffffffffffffffffffffffffffffffff161415615b915780601f60006101000a81548173ffffffffffffffffffffffffffffffffffffffff021916908373ffffffffffffffffffffffffffffffffffffffff160217905550615d24565b601f60009054906101000a900473ffffffffffffffffffffffffffffffffffffffff16602460006101000a81548173ffffffffffffffffffffffffffffffffffffffff021916908373ffffffffffffffffffffffffffffffffffffffff1602179055506001602460009054906101000a900473ffffffffffffffffffffffffffffffffffffffff1673ffffffffffffffffffffffffffffffffffffffff16638f16c41c336000604051602001526040518263ffffffff167c0100000000000000000000000000000000000000000000000000000000028152600401808273ffffffffffffffffffffffffffffffffffffffff1673ffffffffffffffffffffffffffffffffffffffff168152602001915050602060405180830381600087803b1515615cbb57600080fd5b6102c65a03f11515615ccc57600080fd5b50505060405180519050141515615ce257600080fd5b80601f60006101000a81548173ffffffffffffffffffffffffffffffffffffffff021916908373ffffffffffffffffffffffffffffffffffffffff1602179055505b50565b6000601654141515615d3857600080fd5b615d40617972565b615d486179ac565b615d50617cc9565b6001601681905550565b60006002600084815260200190815260200160002060050182815481101515615d7f57fe5b906000526020600020900160009054906101000a900473ffffffffffffffffffffffffffffffffffffffff16905092915050565b6000806000601f60009054906101000a900473ffffffffffffffffffffffffffffffffffffffff16602460006101000a81548173ffffffffffffffffffffffffffffffffffffffff021916908373ffffffffffffffffffffffffffffffffffffffff1602179055506001602460009054906101000a900473ffffffffffffffffffffffffffffffffffffffff1673ffffffffffffffffffffffffffffffffffffffff16638f16c41c336000604051602001526040518263ffffffff167c0100000000000000000000000000000000000000000000000000000000028152600401808273ffffffffffffffffffffffffffffffffffffffff1673ffffffffffffffffffffffffffffffffffffffff168152602001915050602060405180830381600087803b1515615ee257600080fd5b6102c65a03f11515615ef357600080fd5b50505060405180519050141515615f0957600080fd5b600b54925060188054905091508290505b81811015615f7f576003601882815481101515615f3357fe5b906000526020600020906007020160040160029054906101000a900460ff1660ff161115615f6d57615f66836001616ba5565b9250615f72565b615f7f565b8080600101915050615f1a565b8281141515615f905780600b819055505b505050565b601f60009054906101000a900473ffffffffffffffffffffffffffffffffffffffff16602460006101000a81548173ffffffffffffffffffffffffffffffffffffffff021916908373ffffffffffffffffffffffffffffffffffffffff1602179055506001602460009054906101000a900473ffffffffffffffffffffffffffffffffffffffff1673ffffffffffffffffffffffffffffffffffffffff16632f54bf6e336000604051602001526040518263ffffffff167c0100000000000000000000000000000000000000000000000000000000028152600401808273ffffffffffffffffffffffffffffffffffffffff1673ffffffffffffffffffffffffffffffffffffffff168152602001915050602060405180830381600087803b15156160bf57600080fd5b6102c65a03f115156160d057600080fd5b505050604051805190501415156160e657600080fd5b80600d8190555050565b6000600560008481526020019081526020016000206001018281548110151561611557fe5b906000526020600020900154905092915050565b600080600080600080600080601f60009054906101000a900473ffffffffffffffffffffffffffffffffffffffff16602460006101000a81548173ffffffffffffffffffffffffffffffffffffffff021916908373ffffffffffffffffffffffffffffffffffffffff1602179055506001602460009054906101000a900473ffffffffffffffffffffffffffffffffffffffff1673ffffffffffffffffffffffffffffffffffffffff16638f16c41c336000604051602001526040518263ffffffff167c0100000000000000000000000000000000000000000000000000000000028152600401808273ffffffffffffffffffffffffffffffffffffffff1673ffffffffffffffffffffffffffffffffffffffff168152602001915050602060405180830381600087803b151561625f57600080fd5b6102c65a03f1151561627057600080fd5b5050506040518051905014151561628657600080fd5b61628f8a612215565b975061629b8a8a615d5a565b96506162a5612314565b9091925050809650819750829850839950505050506000891115616372576162d56162cf8961225f565b87616ba5565b600660008a73ffffffffffffffffffffffffffffffffffffffff1673ffffffffffffffffffffffffffffffffffffffff1681526020019081526020016000208190555061632a6163248861225f565b86616ba5565b600660008973ffffffffffffffffffffffffffffffffffffffff1673ffffffffffffffffffffffffffffffffffffffff1681526020019081526020016000208190555061644b565b61638461637e8961225f565b85617cfb565b600660008a73ffffffffffffffffffffffffffffffffffffffff1673ffffffffffffffffffffffffffffffffffffffff16815260200190815260200160002081905550600091505b6163d58a614ab8565b82101561644a576163e68a83615d5a565b90506163fa6163f48261225f565b84617cfb565b600660008373ffffffffffffffffffffffffffffffffffffffff1673ffffffffffffffffffffffffffffffffffffffff1681526020019081526020016000208190555081806001019250506163cc565b5b50505050505050505050565b6000601980549050905090565b600080600080600060188681548110151561647b57fe5b906000526020600020906007020160040160039054906101000a900460ff166018878154811015156164a957fe5b906000526020600020906007020160040160019054906101000a900460ff166018888154811015156164d757fe5b906000526020600020906007020160040160059054906101000a900460ff1660188981548110151561650557fe5b906000526020600020906007020160040160049054906101000a900460ff1660188a81548110151561653357fe5b906000526020600020906007020160040160069054906101000a900473ffffffffffffffffffffffffffffffffffffffff169450945094509450945091939590929450565b600c5481565b601f60009054906101000a900473ffffffffffffffffffffffffffffffffffffffff16602460006101000a81548173ffffffffffffffffffffffffffffffffffffffff021916908373ffffffffffffffffffffffffffffffffffffffff1602179055506001602460009054906101000a900473ffffffffffffffffffffffffffffffffffffffff1673ffffffffffffffffffffffffffffffffffffffff16632f54bf6e336000604051602001526040518263ffffffff167c0100000000000000000000000000000000000000000000000000000000028152600401808273ffffffffffffffffffffffffffffffffffffffff1673ffffffffffffffffffffffffffffffffffffffff168152602001915050602060405180830381600087803b15156166a857600080fd5b6102c65a03f115156166b957600080fd5b505050604051805190501415156166cf57600080fd5b600073ffffffffffffffffffffffffffffffffffffffff168173ffffffffffffffffffffffffffffffffffffffff161415151561670b57600080fd5b8073ffffffffffffffffffffffffffffffffffffffff166000809054906101000a900473ffffffffffffffffffffffffffffffffffffffff1673ffffffffffffffffffffffffffffffffffffffff167f8be0079c531659141344cd1fd0a4f28419497f9722a3daafe3b4186f6b6457e060405160405180910390a3806000806101000a81548173ffffffffffffffffffffffffffffffffffffffff021916908373ffffffffffffffffffffffffffffffffffffffff16021790555050565b60006167d3617efc565b6000806000806018878154811015156167e857fe5b906000526020600020906007020160000160009054906101000a900473ffffffffffffffffffffffffffffffffffffffff1660188881548110151561682957fe5b906000526020600020906007020160010160188981548110151561684957fe5b90600052602060002090600702016002015460188a81548110151561686a57fe5b90600052602060002090600702016003015460188b81548110151561688b57fe5b906000526020600020906007020160040160009054906101000a900460ff1660188c8154811015156168b957fe5b906000526020600020906007020160040160029054906101000a900460ff16848054600181600116156101000203166002900480601f01602080910402602001604051908101604052809291908181526020018280546001816001161561010002031660029004801561696d5780601f106169425761010080835404028352916020019161696d565b820191906000526020600020905b81548152906001019060200180831161695057829003601f168201915b505050505094508160ff1691508060ff16905095509550955095509550955091939550919395565b6000601f60009054906101000a900473ffffffffffffffffffffffffffffffffffffffff16602460006101000a81548173ffffffffffffffffffffffffffffffffffffffff021916908373ffffffffffffffffffffffffffffffffffffffff1602179055506001602460009054906101000a900473ffffffffffffffffffffffffffffffffffffffff1673ffffffffffffffffffffffffffffffffffffffff16632f54bf6e336000604051602001526040518263ffffffff167c0100000000000000000000000000000000000000000000000000000000028152600401808273ffffffffffffffffffffffffffffffffffffffff1673ffffffffffffffffffffffffffffffffffffffff168152602001915050602060405180830381600087803b1515616ac157600080fd5b6102c65a03f11515616ad257600080fd5b50505060405180519050141515616ae857600080fd5b81518351141515616af857600080fd5b600090505b8151811015616ba0578181815181101515616b1457fe5b9060200190602002015160198483815181101515616b2e57fe5b90602001906020020151815481101515616b4457fe5b906000526020600020906002020160010160006101000a81548173ffffffffffffffffffffffffffffffffffffffff021916908373ffffffffffffffffffffffffffffffffffffffff1602179055508080600101915050616afd565b505050565b6000808284019050838110151515616bb957fe5b8091505092915050565b6000816002600088815260200190815260200160002060040160006101000a81548160ff021916908360ff160217905550600090505b8451811015616c6357600260008781526020019081526020016000206001018054806001018281616c2a9190617ed0565b916000526020600020900160008784815181101515616c4557fe5b90602001906020020151909190915055508080600101915050616bf9565b600090505b8351811015616cd857600260008781526020019081526020016000206002018054806001018281616c999190617f10565b916000526020600020900160008684815181101515616cb457fe5b90602001906020020151909190915090600019169055508080600101915050616c68565b600090505b8251811015616d8157600260008781526020019081526020016000206003018054806001018281616d0e9190617ea4565b916000526020600020900160008584815181101515616d2957fe5b90602001906020020151909190916101000a81548173ffffffffffffffffffffffffffffffffffffffff021916908373ffffffffffffffffffffffffffffffffffffffff160217905550508080600101915050616cdd565b505050505050565b601b60009054906101000a900473ffffffffffffffffffffffffffffffffffffffff16602060006101000a81548173ffffffffffffffffffffffffffffffffffffffff021916908373ffffffffffffffffffffffffffffffffffffffff160217905550600c548110151515616dfd57600080fd5b602060009054906101000a900473ffffffffffffffffffffffffffffffffffffffff1673ffffffffffffffffffffffffffffffffffffffff1663a9059cbb601a60009054906101000a900473ffffffffffffffffffffffffffffffffffffffff16836000604051602001526040518363ffffffff167c0100000000000000000000000000000000000000000000000000000000028152600401808373ffffffffffffffffffffffffffffffffffffffff1673ffffffffffffffffffffffffffffffffffffffff16815260200182815260200192505050602060405180830381600087803b1515616eec57600080fd5b6102c65a03f11515616efd57600080fd5b505050604051805190505050565b60008060008084601887815481101515616f2157fe5b906000526020600020906007020160060181905550616f49616f423361225f565b6001617d14565b9350616f78616f6b616f64616f5d33612502565b6064617d2e565b6064617d2e565b616f736147f4565b617d69565b9250616f8683600e54617d14565b9150616fa6616f97600d5486617d2e565b616fa18785617d2e565b617d2e565b905080601887815481101515616fb857fe5b906000526020600020906007020160050181905550505050505050565b600460008381526020019081526020016000208054806001018281616ffa9190617f3c565b9160005260206000209060020201600060408051908101604052808560ff16815260200142815250909190915060008201518160000155602082015181600101555050505050565b8060188381548110151561705257fe5b906000526020600020906007020160040160026101000a81548160ff021916908360ff1602179055504260188381548110151561708b57fe5b9060005260206000209060070201600301819055505050565b600080601d60009054906101000a900473ffffffffffffffffffffffffffffffffffffffff16602360006101000a81548173ffffffffffffffffffffffffffffffffffffffff021916908373ffffffffffffffffffffffffffffffffffffffff160217905550602360009054906101000a900473ffffffffffffffffffffffffffffffffffffffff1673ffffffffffffffffffffffffffffffffffffffff166318b0211b866000604051602001526040518263ffffffff167c010000000000000000000000000000000000000000000000000000000002815260040180828152602001915050602060405180830381600087803b15156171a357600080fd5b6102c65a03f115156171b457600080fd5b505050604051805190509150600083511415156171db578251821415156171da57600080fd5b5b836005600088815260200190815260200160002060000160006101000a81548160ff021916908360ff160217905550600090505b8251811015617279576005600087815260200190815260200160002060010180548060010182816172409190617ed0565b91600052602060002090016000858481518110151561725b57fe5b9060200190602002015190919091505550808060010191505061720f565b505050505050565b60006002600083815260200190815260200160002060050180549050141561760f576002600082815260200190815260200160002060050180548060010182816172cb9190617ea4565b9160005260206000209001600080909190916101000a81548173ffffffffffffffffffffffffffffffffffffffff021916908373ffffffffffffffffffffffffffffffffffffffff160217905550506002600082815260200190815260200160002060060180548060010182816173429190617ed0565b91600052602060002090016000809091909150555060026000828152602001908152602001600020600701805480600101828161737f9190617ed0565b916000526020600020900160008090919091505550600060016000838152602001908152602001600020600001600080815260200190815260200160002060007f64656e7900000000000000000000000000000000000000000000000000000000600019168152602001908152602001600020819055507f64656e790000000000000000000000000000000000000000000000000000000060016000838152602001908152602001600020600101600080815260200190815260200160002060007f64656e79000000000000000000000000000000000000000000000000000000006000191681526020019081526020016000208160001916905550600060016000838152602001908152602001600020600201600080815260200190815260200160002060007f64656e790000000000000000000000000000000000000000000000000000000060001916815260200190815260200160002060006101000a81548173ffffffffffffffffffffffffffffffffffffffff021916908373ffffffffffffffffffffffffffffffffffffffff16021790555060026000828152602001908152602001600020600101805480600101828161753f9190617ed0565b91600052602060002090016000809091909150555060026000828152602001908152602001600020600201805480600101828161757c9190617f10565b9160005260206000209001600080909190915090600019169055506002600082815260200190815260200160002060030180548060010182816175bf9190617ea4565b9160005260206000209001600080909190916101000a81548173ffffffffffffffffffffffffffffffffffffffff021916908373ffffffffffffffffffffffffffffffffffffffff160217905550505b50565b6003600082815260200190815260200160002080548060010182816176379190617f6e565b9160005260206000209060030201600060606040519081016040528060188681548110151561766257fe5b906000526020600020906007020160040160009054906101000a900460ff1660ff16815260200160188681548110151561769857fe5b90600052602060002090600702016001018054600181600116156101000203166002900480601f01602080910402602001604051908101604052809291908181526020018280546001816001161561010002031660029004801561773d5780601f106177125761010080835404028352916020019161773d565b820191906000526020600020905b81548152906001019060200180831161772057829003601f168201915b5050505050815260200160188681548110151561775657fe5b9060005260206000209060070201600201548152509091909150600082015181600001556020820151816001019080519060200190617796929190617df2565b506040820151816002015550505050565b806018838154811015156177b757fe5b906000526020600020906007020160010190805190602001906177db929190617fa0565b50426018838154811015156177ec57fe5b906000526020600020906007020160030181905550600160188381548110151561781257fe5b906000526020600020906007020160040160009054906101000a900460ff160160188381548110151561784157fe5b906000526020600020906007020160040160006101000a81548160ff021916908360ff1602179055505050565b6000600160008581526020019081526020016000206000016000838152602001908152602001600020600084600019166000191681526020019081526020016000205490509392505050565b6000600160008581526020019081526020016000206001016000838152602001908152602001600020600084600019166000191681526020019081526020016000205490509392505050565b60006001600085815260200190815260200160002060020160008381526020019081526020016000206000846000191660001916815260200190815260200160002060009054906101000a900473ffffffffffffffffffffffffffffffffffffffff1690509392505050565b60146009819055506000600b819055506019600a81905550600a600c819055506005600d819055506001600e819055506001600f81905550565b601780548060010182816179c09190618020565b916000526020600020900160006040805190810160405280601481526020017f447261667420666f722064697363757373696f6e00000000000000000000000081525090919091509080519060200190617a1b929190617fa0565b505060178054806001018281617a319190618020565b916000526020600020900160006040805190810160405280601a81526020017f447261667420526561647920666f72207375626d697373696f6e00000000000081525090919091509080519060200190617a8c929190617fa0565b505060178054806001018281617aa29190618020565b916000526020600020900160006040805190810160405280600e81526020017f566f74696e67207374617274656400000000000000000000000000000000000081525090919091509080519060200190617afd929190617fa0565b505060178054806001018281617b139190618020565b91600052602060002090016000606060405190810160405280602f81526020017f50726f706f73616c204465636973696f6e202d2041636365707465642062792081526020017f4d616a6f7269747920566f74696e67000000000000000000000000000000000081525090919091509080519060200190617b95929190617fa0565b505060178054806001018281617bab9190618020565b91600052602060002090016000606060405190810160405280602f81526020017f50726f706f73616c204465636973696f6e202d2052656a65637465642062792081526020017f4d616a6f7269747920766f74696e67000000000000000000000000000000000081525090919091509080519060200190617c2d929190617fa0565b505060178054806001018281617c439190618020565b91600052602060002090016000606060405190810160405280602681526020017f50726f706f73616c2044656e6965642c205468726573686f6c64206e6f74207281526020017f656163686564000000000000000000000000000000000000000000000000000081525090919091509080519060200190617cc5929190617fa0565b5050565b600560108190555060056011819055506001601281905550600160138190555060016014819055506001601581905550565b6000828211151515617d0957fe5b818303905092915050565b600081831015617d245781617d26565b825b905092915050565b6000806000841415617d435760009150617d62565b8284029050828482811515617d5457fe5b04141515617d5e57fe5b8091505b5092915050565b6000808284811515617d7757fe5b0490508091505092915050565b602060405190810160405280600081525090565b602060405190810160405280600081525090565b602060405190810160405280600081525090565b815481835581811511617ded57600702816007028360005260206000209182019101617dec919061804c565b5b505050565b828054600181600116156101000203166002900490600052602060002090601f016020900481019282601f10617e3357805160ff1916838001178555617e61565b82800160010185558215617e61579182015b82811115617e60578251825591602001919060010190617e45565b5b509050617e6e9190618161565b5090565b815481835581811511617e9f57600202816002028360005260206000209182019101617e9e9190618186565b5b505050565b815481835581811511617ecb57818360005260206000209182019101617eca9190618161565b5b505050565b815481835581811511617ef757818360005260206000209182019101617ef69190618161565b5b505050565b602060405190810160405280600081525090565b815481835581811511617f3757818360005260206000209182019101617f3691906181d4565b5b505050565b815481835581811511617f6957600202816002028360005260206000209182019101617f6891906181f9565b5b505050565b815481835581811511617f9b57600302816003028360005260206000209182019101617f9a9190618228565b5b505050565b828054600181600116156101000203166002900490600052602060002090601f016020900481019282601f10617fe157805160ff191683800117855561800f565b8280016001018555821561800f579182015b8281111561800e578251825591602001919060010190617ff3565b5b50905061801c9190618161565b5090565b815481835581811511618047578183600052602060002091820191016180469190618267565b5b505050565b61815e91905b8082111561815a57600080820160006101000a81549073ffffffffffffffffffffffffffffffffffffffff02191690556001820160006180929190618293565b600282016000905560038201600090556004820160006101000a81549060ff02191690556004820160016101000a81549060ff02191690556004820160026101000a81549060ff02191690556004820160036101000a81549060ff02191690556004820160046101000a81549060ff02191690556004820160056101000a81549060ff02191690556004820160066101000a81549073ffffffffffffffffffffffffffffffffffffffff02191690556005820160009055600682016000905550600701618052565b5090565b90565b61818391905b8082111561817f576000816000905550600101618167565b5090565b90565b6181d191905b808211156181cd576000808201600090556001820160006101000a81549073ffffffffffffffffffffffffffffffffffffffff02191690555060020161818c565b5090565b90565b6181f691905b808211156181f25760008160009055506001016181da565b5090565b90565b61822591905b80821115618221576000808201600090556001820160009055506002016181ff565b5090565b90565b61826491905b808211156182605760008082016000905560018201600061824f9190618293565b60028201600090555060030161822e565b5090565b90565b61829091905b8082111561828c57600081816182839190618293565b5060010161826d565b5090565b90565b50805460018160011615610100020316600290046000825580601f106182b957506182d8565b601f0160209004906000526020600020908101906182d79190618161565b5b505600a165627a7a723058209edb33a7d43442de7b7eb2d753cfd13358d33dace76d92dc120d1a2cb42e7dd50029",
  "source": "/* Copyright (C) 2017 GovBlocks.io\r\n\r\n  This program is free software: you can redistribute it and/or modify\r\n    it under the terms of the GNU General Public License as published by\r\n    the Free Software Foundation, either version 3 of the License, or\r\n    (at your option) any later version.\r\n\r\n  This program is distributed in the hope that it will be useful,\r\n    but WITHOUT ANY WARRANTY; without even the implied warranty of\r\n    MERCHANTABILITY or FITNESS FOR A PARTICULAR PURPOSE.  See the\r\n    GNU General Public License for more details.\r\n\r\n  You should have received a copy of the GNU General Public License\r\n    along with this program.  If not, see http://www.gnu.org/licenses/ */\r\n\r\n\r\npragma solidity ^0.4.8;\r\nimport \"./zeppelin-solidity/contracts/token/BasicToken.sol\";\r\nimport \"./zeppelin-solidity/contracts/token/MintableToken.sol\";\r\nimport \"./zeppelin-solidity/contracts/math/Math.sol\";\r\nimport \"./MemberRoles.sol\";\r\nimport \"./ProposalCategory.sol\";\r\n// import \"./BasicToken.sol\";\r\n// import \"./MintableToken.sol\";\r\n// import \"./Math.sol\";\r\nimport \"./Master.sol\";\r\n\r\ncontract GovernanceData is Ownable{\r\n    using SafeMath for uint;\r\n    struct proposal{\r\n        address owner;\r\n        string proposalDescHash;\r\n        uint date_add;\r\n        uint date_upd;\r\n        uint8 versionNum;\r\n        uint8 currVotingStatus;\r\n        uint8 propStatus;  \r\n        uint8 category;\r\n        uint8 finalVerdict;\r\n        uint8 currentVerdict;\r\n        address votingTypeAddress;\r\n        uint proposalValue;\r\n        uint proposalStake;\r\n    }\r\n\r\n    struct proposalCategory{\r\n        address categorizedBy;\r\n        uint[] paramInt;\r\n        bytes32[] paramBytes32;\r\n        address[] paramAddress;\r\n        uint8 verdictOptions;\r\n        address[] optionAddedByAddress;\r\n        uint[] valueOfOption;\r\n        uint[] stakeOnOption;\r\n    }\r\n\r\n    struct proposalCategoryParams\r\n    {\r\n        mapping(uint=>mapping(bytes32=>uint)) optionNameIntValue;\r\n        mapping(uint=>mapping(bytes32=>bytes32)) optionNameBytesValue;\r\n        mapping(uint=>mapping(bytes32=>address)) optionNameAddressValue;\r\n    }\r\n\r\n    mapping(uint=>proposalCategoryParams) allProposalCategoryParams;\r\n\r\n    struct proposalVersionData{\r\n        uint versionNum;\r\n        string proposalDescHash;\r\n        uint date_add;\r\n    }\r\n\r\n    struct Status{\r\n        uint statusId;\r\n        uint date;\r\n    }\r\n    \r\n    struct proposalPriority \r\n    {\r\n        uint8 complexityLevel;\r\n        uint[] levelReward;\r\n    }\r\n\r\n    function GovernanceDataInitiate() \r\n    {\r\n        require(constructorCheck == 0);\r\n        setGlobalParameters();\r\n        addStatus();\r\n        addMemberReputationPoints();\r\n        constructorCheck = 1;\r\n    }\r\n\r\n    struct votingTypeDetails\r\n    {\r\n        bytes32 votingTypeName;\r\n        address votingTypeAddress;\r\n    }\r\n\r\n    mapping(uint=>proposalCategory) allProposalCategory;\r\n    mapping(uint=>proposalVersionData[]) proposalVersions;\r\n    mapping(uint=>Status[]) proposalStatus;\r\n    mapping(uint=>proposalPriority) allProposalPriority;\r\n    mapping(address=>uint) allMemberReputationByAddress;\r\n    mapping(uint=>uint[]) totalVotesAgainstProposal;\r\n    mapping(address=>bytes32) votingTypeNameByAddress;\r\n\r\n    uint public proposalVoteClosingTime;\r\n    uint public quorumPercentage;\r\n    uint public pendingProposalStart;\r\n    uint public GBTStakeValue; \r\n    uint public globalRiskFactor; \r\n    uint public membershipScalingFactor;\r\n    uint public scalingWeight;\r\n    uint addProposalOwnerPoints;\r\n    uint addOptionOwnerPoints;\r\n    uint addMemberPoints;\r\n    uint subProposalOwnerPoints;\r\n    uint subOptionOwnerPoints;\r\n    uint subMemberPoints;\r\n    uint constructorCheck;\r\n\r\n    string[] public status;\r\n    proposal[] allProposal;\r\n    votingTypeDetails[] allVotingTypeDetails;\r\n\r\n    address GBTAddress;\r\n    address BTAddress;\r\n    address MRAddress;\r\n    address PCAddress;\r\n    address MTAddress;\r\n    address public masterAddress;\r\n    BasicToken BT;\r\n    MintableToken MT;\r\n    MemberRoles MR;\r\n    ProposalCategory Pcategory;\r\n    Master MS;\r\n\r\n    modifier onlyInternal {\r\n        MS=Master(masterAddress);\r\n        require(MS.isInternal(msg.sender) == 1);\r\n        _; \r\n    }\r\n     modifier onlyOwner{\r\n        MS=Master(masterAddress);\r\n        require(MS.isOwner(msg.sender) == 1);\r\n        _; \r\n    }\r\n    \r\n    /// @dev Add points to add or subtract in memberReputation when proposal/option/vote gets denied or accepted.\r\n    function addMemberReputationPoints() internal\r\n    {\r\n        addProposalOwnerPoints = 5;\r\n        addOptionOwnerPoints = 5;\r\n        addMemberPoints = 1;\r\n        subProposalOwnerPoints = 1;\r\n        subOptionOwnerPoints = 1;\r\n        subMemberPoints = 1;\r\n    }\r\n\r\n    /// @dev Change points to add or subtract in memberReputation when proposal/option/vote gets denied or accepted.\r\n    function changeMemberReputationPoints(uint _addProposalOwnerPoints,uint  _addOptionOwnerPoints, uint _addMemberPoints,uint _subProposalOwnerPoints,uint  _subOptionOwnerPoints, uint _subMemberPoints) onlyOwner\r\n    {\r\n        addProposalOwnerPoints = _addProposalOwnerPoints;\r\n        addOptionOwnerPoints= _addOptionOwnerPoints;\r\n        addMemberPoints = _addMemberPoints;\r\n        subProposalOwnerPoints = _subProposalOwnerPoints;\r\n        subOptionOwnerPoints= _subOptionOwnerPoints;\r\n        subMemberPoints = _subMemberPoints;\r\n    }\r\n\r\n    /// @dev Get points to proceed with updating the member reputation level.\r\n    function getMemberReputationPoints() constant returns(uint addProposalOwnPoints,uint addOptionOwnPoints,uint addMemPoints,uint subProposalOwnPoints,uint subOptionOwnPoints,uint subMemPoints)\r\n    {\r\n        return (addProposalOwnerPoints,addOptionOwnerPoints,addMemberPoints,subProposalOwnerPoints,subOptionOwnerPoints,subMemberPoints);\r\n    } \r\n\r\n    /// @dev Check if the member who wants to change in contracts, is owner.\r\n    function isOwner(address _memberAddress) returns(uint checkOwner) \r\n    {\r\n        require(owner == _memberAddress);\r\n            checkOwner=1;\r\n    }\r\n\r\n    /// @dev Change current owner.\r\n    function changeOwner(address _memberAddress) onlyOwner public\r\n    {\r\n        transferOwnership(_memberAddress);\r\n    }\r\n\r\n    /// @dev add status.\r\n    function addStatus() internal\r\n    {\r\n        status.push(\"Draft for discussion\"); \r\n        status.push(\"Draft Ready for submission\");\r\n        status.push(\"Voting started\"); \r\n        status.push(\"Proposal Decision - Accepted by Majority Voting\"); \r\n        status.push(\"Proposal Decision - Rejected by Majority voting\"); \r\n        status.push(\"Proposal Denied, Threshold not reached\"); \r\n    }\r\n\r\n    /// @dev Set Parameters value that will help in Distributing reward.\r\n    function setGlobalParameters() internal\r\n    {\r\n        proposalVoteClosingTime = 20;\r\n        pendingProposalStart=0;\r\n        quorumPercentage=25;\r\n        GBTStakeValue=10;\r\n        globalRiskFactor=5;\r\n        membershipScalingFactor=1;\r\n        scalingWeight=1;\r\n    }\r\n\r\n    /// @dev Change master's contract address\r\n    function changeMasterAddress(address _masterContractAddress) \r\n    {\r\n        if(masterAddress == 0x000)\r\n            masterAddress = _masterContractAddress;\r\n        else\r\n        {\r\n            MS=Master(masterAddress);\r\n            require(MS.isInternal(msg.sender) == 1);\r\n                masterAddress = _masterContractAddress;\r\n        }\r\n    }\r\n\r\n    /// @dev change all contract's addresses.\r\n    function changeAllContractsAddress(address _MTContractAddress,address _BTcontractAddress, address _MRcontractAddress, address _PCcontractAddress) onlyInternal\r\n    {\r\n        MTAddress = _MTContractAddress;\r\n        BTAddress = _BTcontractAddress;\r\n        MRAddress = _MRcontractAddress;\r\n        PCAddress = _PCcontractAddress;\r\n    }\r\n\r\n    /// @dev Changes GBT contract Address. //NEW\r\n    function changeGBTtokenAddress(address _GBTcontractAddress) onlyInternal\r\n    {\r\n        GBTAddress = _GBTcontractAddress;\r\n    }\r\n\r\n    /// @dev Checks if voting time of a given proposal should be closed or not. \r\n    function checkProposalVoteClosing(uint _proposalId) onlyInternal constant returns(uint8 closeValue) \r\n    {\r\n        require(SafeMath.add(allProposal[_proposalId].date_upd,proposalVoteClosingTime) <= now);\r\n        closeValue=1;\r\n    }\r\n\r\n    /// @dev Changes the status of a given proposal to open it for voting. // wil get called when we submit the proposal on submit button\r\n    function openProposalForVoting(uint _proposalId,uint _TokenAmount) onlyOwner public\r\n    {\r\n        Pcategory = ProposalCategory(PCAddress);\r\n        require(allProposal[_proposalId].category != 0);\r\n        require(_TokenAmount >= Pcategory.getMinStake(allProposal[_proposalId].category) && _TokenAmount <= Pcategory.getMaxStake(allProposal[_proposalId].category));\r\n\r\n        payableGBTTokens(_TokenAmount);\r\n        setProposalValue(_proposalId,_TokenAmount);\r\n        pushInProposalStatus(_proposalId,2);\r\n        updateProposalStatus(_proposalId,2);\r\n    }\r\n\r\n    /// @dev Calculate the proposal value to distribute it later - Distribute amount depends upon the final decision against proposal.\r\n    function setProposalValue(uint _proposalId,uint _memberStake) internal\r\n    {\r\n        allProposal[_proposalId].proposalStake = _memberStake;\r\n        uint memberLevel = Math.max256(getMemberReputation(msg.sender),1);\r\n        uint tokensHeld = SafeMath.div((SafeMath.mul(SafeMath.mul(getBalanceOfMember(msg.sender),100),100)),getTotalTokenInSupply());\r\n        uint maxValue= Math.max256(tokensHeld,membershipScalingFactor);\r\n\r\n        uint finalProposalValue = SafeMath.mul(SafeMath.mul(globalRiskFactor,memberLevel),SafeMath.mul(_memberStake,maxValue));\r\n        allProposal[_proposalId].proposalValue = finalProposalValue;\r\n    }\r\n\r\n    /// @dev Set Vote Id against given proposal.\r\n    function setVoteIdAgainstProposal(uint _proposalId,uint _voteId) onlyInternal\r\n    {\r\n        totalVotesAgainstProposal[_proposalId].push(_voteId);\r\n    }\r\n\r\n    /// @dev Set all the voting type names and thier addresses.\r\n    function setVotingTypeDetails(bytes32 _votingTypeName,address _votingTypeAddress) onlyOwner\r\n    {\r\n        allVotingTypeDetails.push(votingTypeDetails(_votingTypeName,_votingTypeAddress)); \r\n        votingTypeNameByAddress[_votingTypeAddress] = _votingTypeName;\r\n    }\r\n    \r\n    /// @dev Set proposal Category Parameters while adding verdict options from any voting type.\r\n    function setProposalCategoryParams(uint _category,uint _proposalId,uint[] _paramInt,bytes32[] _paramBytes32,address[] _paramAddress,uint8 _verdictOptions) onlyInternal\r\n    {\r\n        setProposalCategoryParams1(_proposalId,_paramInt,_paramBytes32,_paramAddress,_verdictOptions);\r\n        Pcategory=ProposalCategory(PCAddress);\r\n\r\n         uint8 paramInt; uint8 paramBytes32; uint8 paramAddress;bytes32 parameterName; uint j;\r\n        (,,,,paramInt,paramBytes32,paramAddress,,) = Pcategory.getCategoryDetails(_category);\r\n        \r\n        for(j=0; j<paramInt; j++)\r\n        {\r\n            parameterName = Pcategory.getCategoryParamNameUint(_category,j);\r\n            allProposalCategoryParams[_proposalId].optionNameIntValue[j+1][parameterName] = _paramInt[j];\r\n        }\r\n\r\n        for(j=0; j<paramBytes32; j++)\r\n        {\r\n            parameterName = Pcategory.getCategoryParamNameBytes(_category,j); \r\n            allProposalCategoryParams[_proposalId].optionNameBytesValue[j+1][parameterName] = _paramBytes32[j];\r\n        }\r\n\r\n        for(j=0; j<paramAddress; j++)\r\n        {\r\n            parameterName = Pcategory.getCategoryParamNameAddress(_category,j); \r\n            allProposalCategoryParams[_proposalId].optionNameAddressValue[j+1][parameterName] = _paramAddress[j];  \r\n        }\r\n    }\r\n\r\n    /// @dev Set parameters against category.\r\n    function setProposalCategoryParams1(uint _proposalId,uint[] _paramInt,bytes32[] _paramBytes32,address[] _paramAddress,uint8 _verdictOptions) internal\r\n    {\r\n        uint i;\r\n        allProposalCategory[_proposalId].verdictOptions = _verdictOptions;\r\n        for(i=0;i<_paramInt.length;i++)\r\n        {\r\n            allProposalCategory[_proposalId].paramInt.push(_paramInt[i]);\r\n        }\r\n\r\n        for(i=0;i<_paramBytes32.length;i++)\r\n        {\r\n            allProposalCategory[_proposalId].paramBytes32.push(_paramBytes32[i]);\r\n        }\r\n\r\n        for(i=0;i<_paramAddress.length;i++)\r\n        {\r\n            allProposalCategory[_proposalId].paramAddress.push(_paramAddress[i]);\r\n        }   \r\n    }\r\n\r\n    /// @dev Set the Deatils of added verdict i.e. Verdict Stake, Verdict value and Address of the member whoever added the verdict.\r\n    function setProposalVerdictAddressAndStakeValue(uint _proposalId,address _memberAddress,uint _stakeValue,uint _optionValue) onlyInternal\r\n    {\r\n        allProposalCategory[_proposalId].optionAddedByAddress.push(_memberAddress);\r\n        allProposalCategory[_proposalId].valueOfOption.push(_optionValue);\r\n        allProposalCategory[_proposalId].stakeOnOption.push(_stakeValue);\r\n    }\r\n\r\n    /// @dev Some amount to be paid while using GovBlocks contract service - Approve the contract to spend money on behalf of msg.sender\r\n    function payableGBTTokens(uint _TokenAmount) internal\r\n    {\r\n        // MT=MintableToken(GBTAddress);\r\n        // require(_TokenAmount >= GBTStakeValue);\r\n        // MT.transferFrom(msg.sender,GBTAddress,_TokenAmount);\r\n        BT=BasicToken(BTAddress);\r\n        require(_TokenAmount >= GBTStakeValue);\r\n        BT.transfer(GBTAddress,_TokenAmount);\r\n    }\r\n\r\n    /// @dev Updates  status of an existing proposal.\r\n    function updateProposalStatus(uint _id ,uint8 _status) internal\r\n    {\r\n        allProposal[_id].propStatus = _status;\r\n        allProposal[_id].date_upd = now;\r\n    }\r\n\r\n    /// @dev Stores the status information of a given proposal.\r\n    function pushInProposalStatus(uint _proposalId , uint8 _status) internal\r\n    {\r\n        proposalStatus[_proposalId].push(Status(_status,now));\r\n    }\r\n\r\n    /// @dev Creates a new proposal.\r\n    function addNewProposal(string _proposalDescHash,uint _votingTypeId,uint8 _categoryId,uint _TokenAmount) public\r\n    {\r\n        require(getBalanceOfMember(msg.sender) != 0);\r\n        allMemberReputationByAddress[msg.sender]=1;\r\n        address votingTypeAddress = allVotingTypeDetails[_votingTypeId].votingTypeAddress;\r\n        uint _proposalId = allProposal.length;\r\n\r\n        if(_categoryId > 0)\r\n        {\r\n            allProposal.push(proposal(msg.sender,_proposalDescHash,now,now,0,0,0,_categoryId,0,0,votingTypeAddress,0,0));               \r\n            openProposalForVoting(_proposalId,_TokenAmount);\r\n        }\r\n        else\r\n            allProposal.push(proposal(msg.sender,_proposalDescHash,now,now,0,0,0,0,0,0,votingTypeAddress,0,0));   \r\n    }\r\n\r\n    /// @dev As bydefault first option is alwayd deny option. One time configurable.\r\n    function addInitialOptionDetails(uint _proposalId) internal\r\n    {\r\n        if(allProposalCategory[_proposalId].optionAddedByAddress.length == 0)\r\n        {\r\n            allProposalCategory[_proposalId].optionAddedByAddress.push(0x00);\r\n            allProposalCategory[_proposalId].valueOfOption.push(0);\r\n            allProposalCategory[_proposalId].stakeOnOption.push(0);\r\n\r\n            allProposalCategoryParams[_proposalId].optionNameIntValue[0][\"deny\"] = 0;\r\n            allProposalCategoryParams[_proposalId].optionNameBytesValue[0][\"deny\"] = \"deny\";\r\n            allProposalCategoryParams[_proposalId].optionNameAddressValue[0][\"deny\"] = 0x00;\r\n\r\n            allProposalCategory[_proposalId].paramInt.push(0);\r\n            allProposalCategory[_proposalId].paramBytes32.push(\"\");\r\n            allProposalCategory[_proposalId].paramAddress.push(0x00);\r\n        }\r\n    }\r\n\r\n    /// @dev categorizing proposal to proceed further.\r\n    function categorizeProposal(uint _proposalId , uint8 _categoryId,uint8 _proposalComplexityLevel,uint[] _levelReward) public\r\n    {\r\n        MR = MemberRoles(MRAddress);\r\n        Pcategory=ProposalCategory(PCAddress);\r\n        require(MR.getMemberRoleIdByAddress(msg.sender) == MR.getAuthorizedMemberId());\r\n        require(allProposal[_proposalId].propStatus == 1 || allProposal[_proposalId].propStatus == 0);\r\n\r\n        addComplexityLevelAndReward(_proposalId,_categoryId,_proposalComplexityLevel,_levelReward);\r\n        addInitialOptionDetails(_proposalId);\r\n        allProposalCategory[_proposalId].categorizedBy = msg.sender;\r\n        allProposal[_proposalId].category = _categoryId;\r\n    }\r\n\r\n    /// @dev Proposal's complexity level and reward is added \r\n    function addComplexityLevelAndReward(uint _proposalId,uint _category,uint8 _proposalComplexityLevel,uint[] _levelReward) internal\r\n    {\r\n        Pcategory=ProposalCategory(PCAddress);\r\n        uint votingLength = Pcategory.getRoleSequencLength(_category);\r\n        if(_levelReward.length != 0)\r\n            require(votingLength == _levelReward.length);\r\n            allProposalPriority[_proposalId].complexityLevel = _proposalComplexityLevel;\r\n            for(uint i=0; i<_levelReward.length; i++)\r\n            {\r\n                allProposalPriority[_proposalId].levelReward.push(_levelReward[i]);\r\n            }       \r\n    }\r\n\r\n    /// @dev Transfer reward after Final Proposal Decision.\r\n    function transferBackGBTtoken(address _memberAddress, uint _value) onlyInternal\r\n    {\r\n        BT=BasicToken(BTAddress);\r\n        BT.transfer(_memberAddress,_value);\r\n    }\r\n\r\n    /// @dev Change pending proposal start variable\r\n    function changePendingProposalStart() onlyInternal\r\n    {\r\n        uint pendingPS = pendingProposalStart;\r\n        uint proposalLength = allProposal.length;\r\n        for(uint j=pendingPS; j<proposalLength; j++)\r\n        {\r\n            if(allProposal[j].propStatus > 3)\r\n                pendingPS = SafeMath.add(pendingPS,1);\r\n            else\r\n                break;\r\n        }\r\n        if(j!=pendingPS)\r\n        {\r\n            pendingProposalStart = j;\r\n        }\r\n    }\r\n\r\n    /// @dev Changes the status of a given proposal.\r\n    function changeProposalStatus(uint _id,uint8 _status) onlyInternal\r\n    {\r\n        require(allProposal[_id].category != 0);\r\n        pushInProposalStatus(_id,_status);\r\n        updateProposalStatus(_id,_status);\r\n    }\r\n\r\n    /// @dev Change Variables that helps in Calculation of reward distribution. Risk Factor, GBT Stak Value, Scaling Factor,Scaling weight.\r\n    function changeGlobalRiskFactor(uint _riskFactor) onlyOwner\r\n    {\r\n        globalRiskFactor = _riskFactor;\r\n    }\r\n\r\n    function changeGBTStakeValue(uint _GBTStakeValue) onlyOwner\r\n    {\r\n        GBTStakeValue = _GBTStakeValue;\r\n    }\r\n\r\n    function changeMembershipScalingFator(uint _membershipScalingFactor) onlyOwner\r\n    {\r\n        membershipScalingFactor = _membershipScalingFactor;\r\n    }\r\n\r\n    function changeScalingWeight(uint _scalingWeight) onlyOwner\r\n    {\r\n        scalingWeight = _scalingWeight;\r\n    }\r\n\r\n    /// @dev Change quoram percentage. Value required to proposal pass.\r\n    function changeQuorumPercentage(uint _quorumPercentage) onlyOwner\r\n    {\r\n        quorumPercentage = _quorumPercentage;\r\n    }\r\n\r\n    /// @dev Updating proposal's Major details (Called from close proposal Vote).\r\n    function updateProposalDetails(uint _proposalId,uint8 _currVotingStatus, uint8 _intermediateVerdict,uint8 _finalVerdict) onlyInternal \r\n    {\r\n        allProposal[_proposalId].currVotingStatus = _currVotingStatus;\r\n        allProposal[_proposalId].currentVerdict = _intermediateVerdict;\r\n        allProposal[_proposalId].finalVerdict = _finalVerdict;\r\n    }\r\n\r\n    /// @dev AFter the proposal final decision, member reputation will get updated.\r\n    function updateMemberReputation(uint _proposalId,uint _finalVerdict) onlyInternal\r\n    {\r\n        address _proposalOwner =  getProposalOwner(_proposalId);\r\n        address _finalOptionOwner = getOptionAddressByProposalId(_proposalId,_finalVerdict);\r\n        uint addProposalOwnerPoints; uint addOptionOwnerPoints; uint subProposalOwnerPoints; uint subOptionOwnerPoints;\r\n        (addProposalOwnerPoints,addOptionOwnerPoints,,subProposalOwnerPoints,subOptionOwnerPoints,)=getMemberReputationPoints();\r\n\r\n        if(_finalVerdict>0)\r\n        {\r\n            allMemberReputationByAddress[_proposalOwner] = SafeMath.add(getMemberReputation(_proposalOwner),addProposalOwnerPoints);\r\n            allMemberReputationByAddress[_finalOptionOwner] = SafeMath.add(getMemberReputation(_finalOptionOwner),addOptionOwnerPoints); \r\n        }\r\n        else\r\n        {\r\n            allMemberReputationByAddress[_proposalOwner] = SafeMath.sub(getMemberReputation(_proposalOwner),subProposalOwnerPoints);\r\n            for(uint i=0; i<getOptionAddedAddressLength(_proposalId); i++)\r\n            {\r\n                address memberAddress = getOptionAddressByProposalId(_proposalId,i);\r\n                allMemberReputationByAddress[memberAddress] = SafeMath.sub(getMemberReputation(memberAddress),subOptionOwnerPoints);\r\n            }\r\n        }   \r\n    }\r\n\r\n    /// @dev Afer proposal Final Decision, Member reputation will get updated.\r\n    function updateMemberReputation1(address _voterAddress,uint _voterPoints) onlyInternal\r\n    {\r\n        allMemberReputationByAddress[_voterAddress] = _voterPoints;\r\n    }\r\n\r\n    /// @dev Edits a proposal and Only owner of a proposal can edit it.\r\n    function editProposal(uint _proposalId ,string _proposalDescHash) onlyOwner public\r\n    {\r\n        storeProposalVersion(_proposalId);\r\n        updateProposal(_proposalId,_proposalDescHash);\r\n        changeProposalStatus(_proposalId,1);\r\n        \r\n        require(allProposal[_proposalId].category > 0);\r\n            uint category;\r\n            (category,,,,) = getProposalDetailsById2(_proposalId); \r\n            allProposal[_proposalId].category = 0;\r\n    }\r\n\r\n    /// @dev Edit details of a type of voting.\r\n    function editVotingTypeDetails(uint[] _votingTypeId, address[] _votingTypeAddress) onlyOwner\r\n    {\r\n        require(_votingTypeId.length == _votingTypeAddress.length);\r\n        for(uint i=0; i<_votingTypeAddress.length; i++)\r\n        {\r\n            allVotingTypeDetails[_votingTypeId[i]].votingTypeAddress = _votingTypeAddress[i];\r\n        }\r\n    }\r\n\r\n    /// @dev Stores the information of a given version number of a given proposal. Maintains the record of all the versions of a proposal.\r\n    function storeProposalVersion(uint _proposalId) internal \r\n    {\r\n        proposalVersions[_proposalId].push(proposalVersionData(allProposal[_proposalId].versionNum,allProposal[_proposalId].proposalDescHash,allProposal[_proposalId].date_add));            \r\n    }\r\n\r\n    /// @dev Edits the details of an existing proposal and creates new version.\r\n    function updateProposal(uint _id,string _proposalDescHash) internal\r\n    {\r\n        allProposal[_id].proposalDescHash = _proposalDescHash;\r\n        allProposal[_id].date_upd = now;\r\n        allProposal[_id].versionNum = allProposal[_id].versionNum+1;\r\n    }\r\n    \r\n    function getVotingTypeLength() public constant returns(uint) \r\n    {\r\n        return allVotingTypeDetails.length;\r\n    }\r\n\r\n    function getVotingTypeDetailsById(uint _votingTypeId) public constant returns(uint votingTypeId,bytes32 VTName,address VTAddress)\r\n    {\r\n        votingTypeId = _votingTypeId;\r\n        VTName = allVotingTypeDetails[_votingTypeId].votingTypeName;\r\n        VTAddress = allVotingTypeDetails[_votingTypeId].votingTypeAddress;\r\n    }\r\n\r\n    /// @dev Fetch user balance when giving member address.\r\n    function getBalanceOfMember(address _memberAddress) public constant returns (uint totalBalance)\r\n    {\r\n        BT=BasicToken(MTAddress);\r\n        totalBalance = BT.balanceOf(_memberAddress);\r\n    }\r\n\r\n    /// @dev Fetch details of proposal by giving proposal Id\r\n    function getProposalDetailsById1(uint _proposalId) public constant returns (address owner,string proposalDescHash,uint date_add,uint date_upd,uint versionNum,uint propStatus)\r\n    {\r\n        return (allProposal[_proposalId].owner,allProposal[_proposalId].proposalDescHash,allProposal[_proposalId].date_add,allProposal[_proposalId].date_upd,allProposal[_proposalId].versionNum,allProposal[_proposalId].propStatus);\r\n    }\r\n\r\n    /// @dev Get the category, of given proposal. \r\n    function getProposalDetailsById2(uint _proposalId) public constant returns(uint8 category,uint8 currentVotingId,uint8 intermediateVerdict,uint8 finalVerdict,address votingTypeAddress) \r\n    {\r\n        return (allProposal[_proposalId].category,allProposal[_proposalId].currVotingStatus,allProposal[_proposalId].currentVerdict,allProposal[_proposalId].finalVerdict,allProposal[_proposalId].votingTypeAddress); \r\n    }\r\n\r\n    /// @dev Get member address who created the proposal.\r\n    function getProposalOwner(uint _proposalId) public constant returns(address)\r\n    {\r\n        return allProposal[_proposalId].owner;\r\n    }\r\n\r\n    /// @dev Gets version details of a given proposal id.\r\n    function getProposalDetailsByIdAndVersion(uint _proposalId,uint _versionNum) public constant returns( uint versionNum,string proposalDescHash,uint date_add)\r\n    {\r\n        return (proposalVersions[_proposalId][_versionNum].versionNum,proposalVersions[_proposalId][_versionNum].proposalDescHash,proposalVersions[_proposalId][_versionNum].date_add);\r\n    }\r\n   \r\n    /// @dev Get proposal Reward and complexity level Against proposal\r\n    function getProposalRewardAndComplexity(uint _proposalId,uint _rewardIndex) public constant returns (uint reward)\r\n    {\r\n      reward = allProposalPriority[_proposalId].levelReward[_rewardIndex];\r\n    }\r\n\r\n    /// @dev Get the category parameters given against a proposal after categorizing the proposal.\r\n    function getProposalCategoryParams(uint _proposalId) constant returns(uint[] paramsInt,bytes32[] paramsBytes,address[] paramsAddress,uint8 verdictOptions)\r\n    {\r\n        return (allProposalCategory[_proposalId].paramInt,allProposalCategory[_proposalId].paramBytes32,allProposalCategory[_proposalId].paramAddress,allProposalCategory[_proposalId].verdictOptions);\r\n    }\r\n\r\n    /// @dev Get Total number of verdict options against proposal.\r\n    function getTotalVerdictOptions(uint _proposalId) constant returns(uint verdictOptions)\r\n    {\r\n        verdictOptions = allProposalCategory[_proposalId].verdictOptions;\r\n    }\r\n\r\n    /// @dev Get Current Status of proposal when given proposal Id\r\n    function getProposalStatus(uint _proposalId) constant returns (uint proposalStatus)\r\n    {\r\n        proposalStatus = allProposal[_proposalId].propStatus;\r\n    }\r\n\r\n    /// @dev fetch the parameter details for the final verdict (Final Verdict - Option having maximum votes)\r\n    function getProposalFinalVerdictDetails(uint _proposalId) public returns(uint paramint, bytes32 parambytes32,address paramaddress)\r\n    {\r\n        uint category = allProposal[_proposalId].category;\r\n        uint verdictChosen = allProposal[_proposalId].finalVerdict;\r\n\r\n        if(allProposalCategory[_proposalId].paramInt.length != 0)\r\n        {\r\n             paramint = allProposalCategory[_proposalId].paramInt[verdictChosen];\r\n        }\r\n\r\n        if(allProposalCategory[_proposalId].paramBytes32.length != 0)\r\n        {\r\n            parambytes32 = allProposalCategory[_proposalId].paramBytes32[verdictChosen];\r\n        }\r\n\r\n        if(allProposalCategory[_proposalId].paramAddress.length != 0)\r\n        {\r\n            paramaddress = allProposalCategory[_proposalId].paramAddress[verdictChosen];\r\n        }  \r\n    }\r\n    \r\n    /// @dev Get the number of tokens already distributed among members.\r\n    function getTotalTokenInSupply() constant returns(uint _totalSupplyToken)\r\n    {\r\n        BT=BasicToken(BTAddress);\r\n        _totalSupplyToken = BT.totalSupply();\r\n    }\r\n\r\n    /// @dev Member Reputation is set according to if Member's Decision is Final decision.\r\n    function getMemberReputation(address _memberAddress) constant returns(uint memberPoints)\r\n    {\r\n        memberPoints = allMemberReputationByAddress[_memberAddress];\r\n    }\r\n\r\n    /// @dev Get proposal Value and Member Stake on that proposal\r\n    function getProposalValueAndStake(uint _proposalId) constant returns(uint proposalValue,uint proposalStake)\r\n    {\r\n        proposalValue = allProposal[_proposalId].proposalValue;\r\n        proposalStake = allProposal[_proposalId].proposalStake;\r\n    }\r\n\r\n    /// @dev Get proposal Value when given proposal Id.\r\n    function getProposalValue(uint _proposalId) constant  returns(uint proposalValue) \r\n    {\r\n        proposalValue = allProposal[_proposalId].proposalValue;\r\n    }\r\n\r\n    /// @dev Get proposal Stake by member when given proposal Id.\r\n    function getProposalStake(uint _proposalId) constant returns(uint proposalStake)\r\n    {\r\n        proposalStake = allProposal[_proposalId].proposalStake;\r\n    }\r\n\r\n    /// @dev Fetch Total length of Member address array That added number of verdicts against proposal.\r\n    function getOptionAddedAddressLength(uint _proposalId) constant returns(uint length)\r\n    {\r\n        return  allProposalCategory[_proposalId].optionAddedByAddress.length;\r\n    }\r\n\r\n    /// @dev Get the Stake of verdict when given Proposal Id and Verdict index.\r\n    function getOptionStakeByProposalId(uint _proposalId,uint _optionIndex) constant returns(uint optionStake)\r\n    {\r\n        optionStake = allProposalCategory[_proposalId].stakeOnOption[_optionIndex];\r\n    }\r\n\r\n    /// @dev Get the value of verdict when given Proposal Id and Verdict Index.\r\n    function getOptionValueByProposalId(uint _proposalId,uint _optionIndex) constant returns(uint optionValue)\r\n    {\r\n        optionValue = allProposalCategory[_proposalId].valueOfOption[_optionIndex];\r\n    }\r\n\r\n    /// @dev Get the Address of member whosoever added the verdict when given Proposal Id and Verdict Index.\r\n    function getOptionAddressByProposalId(uint _proposalId,uint _optionIndex) constant returns(address memberAddress)\r\n    {\r\n        memberAddress = allProposalCategory[_proposalId].optionAddedByAddress[_optionIndex];\r\n    }\r\n\r\n    /// @dev Get the Value, stake and Address of the member whosoever added that verdict option.\r\n    function getOptionAddedDetails(uint _proposalId,uint _optionIndex) constant returns(uint optionStake,uint optionValue,address memberAddress)\r\n    {\r\n        optionStake = allProposalCategory[_proposalId].stakeOnOption[_optionIndex];\r\n        optionValue = allProposalCategory[_proposalId].valueOfOption[_optionIndex];\r\n        memberAddress = allProposalCategory[_proposalId].optionAddedByAddress[_optionIndex];\r\n    }\r\n\r\n    /// @dev Get Total votes against a proposal when given proposal id.\r\n    function getTotalVoteLengthAgainstProposal(uint _proposalId) constant returns(uint totalVotesLength)\r\n    {\r\n        totalVotesLength =  totalVotesAgainstProposal[_proposalId].length;\r\n    }\r\n\r\n    /// @dev Get Array of All vote id's against a given proposal when given _proposalId.\r\n    function getTotalVoteArrayAgainstProposal(uint _proposalId) constant returns(uint[] totalVotes)\r\n    {\r\n        return totalVotesAgainstProposal[_proposalId];\r\n    }\r\n\r\n    /// @dev Get Vote id one by one against a proposal when given proposal Id and Index to traverse vote array.\r\n    function getVoteIdByProposalId(uint _proposalId,uint _voteArrayIndex) constant returns (uint voteId)\r\n    {\r\n        voteId = totalVotesAgainstProposal[_proposalId][_voteArrayIndex];\r\n    }\r\n\r\n    /// @dev Fetch the parameter details for final option won (Final Verdict) when giving Proposal ID and Parameter Name Against proposal.\r\n    function getProposalFinalDecisionByParameter(uint _proposalId,bytes32 _parameterName) constant returns (uint intParameter,bytes32 bytesParameter,address addressParameter)\r\n    {   \r\n        uint _finalVerdict = allProposal[_proposalId].finalVerdict;\r\n        intParameter = getParameterDetails1(_proposalId,_parameterName,_finalVerdict);\r\n        bytesParameter = getParameterDetails2(_proposalId,_parameterName,_finalVerdict);\r\n        addressParameter = getParameterDetails3(_proposalId,_parameterName,_finalVerdict);\r\n    }\r\n\r\n    /// @dev Fetch the Integer parameter details by parameter name against the final option.\r\n    function getParameterDetails1(uint _proposalId,bytes32 _parameterName,uint finalOption) internal returns (uint intParameter)\r\n    {   \r\n        intParameter = allProposalCategoryParams[_proposalId].optionNameIntValue[finalOption][_parameterName];\r\n    }\r\n\r\n    /// @dev Fetch the Bytes parameter details by parameter name against the final option.\r\n    function getParameterDetails2(uint _proposalId,bytes32 _parameterName,uint finalOption) internal returns (bytes32 bytesParameter)\r\n    {   \r\n        bytesParameter = allProposalCategoryParams[_proposalId].optionNameBytesValue[finalOption][_parameterName];\r\n    }\r\n\r\n    /// @dev Fetch the Address parameter details by parameter name against the final option.\r\n    function getParameterDetails3(uint _proposalId,bytes32 _parameterName,uint finalOption) internal returns (address addressParameter)\r\n    {   \r\n        addressParameter = allProposalCategoryParams[_proposalId].optionNameAddressValue[finalOption][_parameterName];\r\n    }\r\n\r\n    function getProposalLength()constant returns(uint)\r\n    {  \r\n        return (allProposal.length);\r\n    } \r\n\r\n    function getProposalDetailsById3(uint _proposalId) constant returns(uint proposalIndex,string proposalDescHash,uint dateAdded,string propStatus,uint propCategory,uint totalVotes,uint8 totalOption)\r\n    {\r\n        return (_proposalId,allProposal[_proposalId].proposalDescHash,allProposal[_proposalId].date_add,status[allProposal[_proposalId].propStatus],allProposal[_proposalId].category,totalVotesAgainstProposal[_proposalId].length,allProposalCategory[_proposalId].verdictOptions);\r\n    }  \r\n}  \r\n\r\n\r\n\r\n\r\n",
  "sourcePath": "D:\\RUCHITA\\Govblocks-Git\\contracts\\GovernanceData.sol",
  "compiler": {
    "name": "solc",
    "version": "0.4.18+commit.9cf6e910.Emscripten.clang"
  },
  "schemaVersion": "1.0.1",
  "updatedAt": "2018-01-30T10:36:01.060Z"
}