{
  "contractName": "Governance",
  "abi": [
    {
      "constant": false,
      "inputs": [
        {
          "name": "_BTContractAddress",
          "type": "address"
        },
        {
          "name": "_GDContractAddress",
          "type": "address"
        },
        {
          "name": "_MRContractAddress",
          "type": "address"
        },
        {
          "name": "_PCContractAddress",
          "type": "address"
        }
      ],
      "name": "changeAllContractsAddress",
      "outputs": [],
      "payable": false,
      "stateMutability": "nonpayable",
      "type": "function"
    },
    {
      "constant": false,
      "inputs": [
        {
          "name": "_voterAddress",
          "type": "address"
        },
        {
          "name": "_voterPoints",
          "type": "uint256"
        }
      ],
      "name": "updateMemberReputation1",
      "outputs": [],
      "payable": false,
      "stateMutability": "nonpayable",
      "type": "function"
    },
    {
      "constant": false,
      "inputs": [
        {
          "name": "_category",
          "type": "uint256"
        },
        {
          "name": "_proposalId",
          "type": "uint256"
        },
        {
          "name": "_paramInt",
          "type": "uint256[]"
        },
        {
          "name": "_paramBytes32",
          "type": "bytes32[]"
        },
        {
          "name": "_paramAddress",
          "type": "address[]"
        },
        {
          "name": "_verdictOptions",
          "type": "uint8"
        }
      ],
      "name": "setProposalCategoryParams",
      "outputs": [],
      "payable": false,
      "stateMutability": "nonpayable",
      "type": "function"
    },
    {
      "constant": false,
      "inputs": [
        {
          "name": "_proposalId",
          "type": "uint256"
        },
        {
          "name": "_TokenAmount",
          "type": "uint256"
        }
      ],
      "name": "openProposalForVoting",
      "outputs": [],
      "payable": false,
      "stateMutability": "nonpayable",
      "type": "function"
    },
    {
      "constant": false,
      "inputs": [
        {
          "name": "_memberAddress",
          "type": "address"
        },
        {
          "name": "_value",
          "type": "uint256"
        }
      ],
      "name": "transferBackGBTtoken",
      "outputs": [],
      "payable": false,
      "stateMutability": "nonpayable",
      "type": "function"
    },
    {
      "constant": false,
      "inputs": [
        {
          "name": "_proposalId",
          "type": "uint256"
        },
        {
          "name": "_categoryId",
          "type": "uint8"
        },
        {
          "name": "_proposalComplexityLevel",
          "type": "uint8"
        },
        {
          "name": "_levelReward",
          "type": "uint256[]"
        }
      ],
      "name": "categorizeProposal",
      "outputs": [],
      "payable": false,
      "stateMutability": "nonpayable",
      "type": "function"
    },
    {
      "constant": false,
      "inputs": [
        {
          "name": "_proposalDescHash",
          "type": "string"
        },
        {
          "name": "_votingTypeId",
          "type": "uint256"
        },
        {
          "name": "_categoryId",
          "type": "uint8"
        },
        {
          "name": "_TokenAmount",
          "type": "uint256"
        }
      ],
      "name": "createProposal",
      "outputs": [],
      "payable": false,
      "stateMutability": "nonpayable",
      "type": "function"
    },
    {
      "constant": false,
      "inputs": [
        {
          "name": "_proposalId",
          "type": "uint256"
        },
        {
          "name": "_proposalDescHash",
          "type": "string"
        }
      ],
      "name": "editProposal",
      "outputs": [],
      "payable": false,
      "stateMutability": "nonpayable",
      "type": "function"
    },
    {
      "constant": false,
      "inputs": [
        {
          "name": "_MasterAddress",
          "type": "address"
        }
      ],
      "name": "changeMasterAddress",
      "outputs": [],
      "payable": false,
      "stateMutability": "nonpayable",
      "type": "function"
    },
    {
      "constant": false,
      "inputs": [
        {
          "name": "_proposalId",
          "type": "uint256"
        },
        {
          "name": "_finalVerdict",
          "type": "uint256"
        }
      ],
      "name": "updateMemberReputation",
      "outputs": [],
      "payable": false,
      "stateMutability": "nonpayable",
      "type": "function"
    }
  ],
  "bytecode": "0x6060604052341561000f57600080fd5b614a0d8061001e6000396000f3006060604052600436106100a4576000357c0100000000000000000000000000000000000000000000000000000000900463ffffffff168063013b4441146100a95780630dfa263a1461013f57806347dc106e1461018157806360c0fddd14610279578063649db80b146102a55780639af62a8b146102e7578063a2fe730314610362578063bfae2172146103dd578063d46655f414610443578063ebd0e3131461047c575b600080fd5b34156100b457600080fd5b61013d600480803573ffffffffffffffffffffffffffffffffffffffff1690602001909190803573ffffffffffffffffffffffffffffffffffffffff1690602001909190803573ffffffffffffffffffffffffffffffffffffffff1690602001909190803573ffffffffffffffffffffffffffffffffffffffff169060200190919050506104a8565b005b341561014a57600080fd5b61017f600480803573ffffffffffffffffffffffffffffffffffffffff169060200190919080359060200190919050506105b1565b005b341561018c57600080fd5b610277600480803590602001909190803590602001909190803590602001908201803590602001908080602002602001604051908101604052809392919081815260200183836020028082843782019150505050505091908035906020019082018035906020019080806020026020016040519081016040528093929190818152602001838360200280828437820191505050505050919080359060200190820180359060200190808060200260200160405190810160405280939291908181526020018383602002808284378201915050505050509190803560ff16906020019091905050610840565b005b341561028457600080fd5b6102a360048080359060200190919080359060200190919050506112b4565b005b34156102b057600080fd5b6102e5600480803573ffffffffffffffffffffffffffffffffffffffff16906020019091908035906020019091905050611a95565b005b34156102f257600080fd5b610360600480803590602001909190803560ff1690602001909190803560ff1690602001909190803590602001908201803590602001908080602002602001604051908101604052809392919081815260200183836020028082843782019150505050505091905050611d36565b005b341561036d57600080fd5b6103db600480803590602001908201803590602001908080601f0160208091040260200160405190810160405280939291908181526020018383808284378201915050505050509190803590602001909190803560ff169060200190919080359060200190919050506123b6565b005b34156103e857600080fd5b610441600480803590602001909190803590602001908201803590602001908080601f01602080910402602001604051908101604052809392919081815260200183838082843782019150505050505091905050612c26565b005b341561044e57600080fd5b61047a600480803573ffffffffffffffffffffffffffffffffffffffff169060200190919050506131b7565b005b341561048757600080fd5b6104a660048080359060200190919080359060200190919050506133d4565b005b83600460006101000a81548173ffffffffffffffffffffffffffffffffffffffff021916908373ffffffffffffffffffffffffffffffffffffffff160217905550826000806101000a81548173ffffffffffffffffffffffffffffffffffffffff021916908373ffffffffffffffffffffffffffffffffffffffff16021790555080600160006101000a81548173ffffffffffffffffffffffffffffffffffffffff021916908373ffffffffffffffffffffffffffffffffffffffff16021790555081600260006101000a81548173ffffffffffffffffffffffffffffffffffffffff021916908373ffffffffffffffffffffffffffffffffffffffff16021790555050505050565b600360009054906101000a900473ffffffffffffffffffffffffffffffffffffffff16600560006101000a81548173ffffffffffffffffffffffffffffffffffffffff021916908373ffffffffffffffffffffffffffffffffffffffff1602179055506001600560009054906101000a900473ffffffffffffffffffffffffffffffffffffffff1673ffffffffffffffffffffffffffffffffffffffff16638f16c41c336000604051602001526040518263ffffffff167c0100000000000000000000000000000000000000000000000000000000028152600401808273ffffffffffffffffffffffffffffffffffffffff1673ffffffffffffffffffffffffffffffffffffffff168152602001915050602060405180830381600087803b15156106db57600080fd5b6102c65a03f115156106ec57600080fd5b5050506040518051905014151561070257600080fd5b6000809054906101000a900473ffffffffffffffffffffffffffffffffffffffff16600860006101000a81548173ffffffffffffffffffffffffffffffffffffffff021916908373ffffffffffffffffffffffffffffffffffffffff160217905550600860009054906101000a900473ffffffffffffffffffffffffffffffffffffffff1673ffffffffffffffffffffffffffffffffffffffff16637974d2dd83836040518363ffffffff167c0100000000000000000000000000000000000000000000000000000000028152600401808373ffffffffffffffffffffffffffffffffffffffff1673ffffffffffffffffffffffffffffffffffffffff16815260200182815260200192505050600060405180830381600087803b151561082857600080fd5b6102c65a03f1151561083957600080fd5b5050505050565b6000806000806000600360009054906101000a900473ffffffffffffffffffffffffffffffffffffffff16600560006101000a81548173ffffffffffffffffffffffffffffffffffffffff021916908373ffffffffffffffffffffffffffffffffffffffff1602179055506001600560009054906101000a900473ffffffffffffffffffffffffffffffffffffffff1673ffffffffffffffffffffffffffffffffffffffff16638f16c41c336000604051602001526040518263ffffffff167c0100000000000000000000000000000000000000000000000000000000028152600401808273ffffffffffffffffffffffffffffffffffffffff1673ffffffffffffffffffffffffffffffffffffffff168152602001915050602060405180830381600087803b151561097257600080fd5b6102c65a03f1151561098357600080fd5b5050506040518051905014151561099957600080fd5b6000809054906101000a900473ffffffffffffffffffffffffffffffffffffffff16600860006101000a81548173ffffffffffffffffffffffffffffffffffffffff021916908373ffffffffffffffffffffffffffffffffffffffff160217905550600160009054906101000a900473ffffffffffffffffffffffffffffffffffffffff16600760006101000a81548173ffffffffffffffffffffffffffffffffffffffff021916908373ffffffffffffffffffffffffffffffffffffffff160217905550600860009054906101000a900473ffffffffffffffffffffffffffffffffffffffff1673ffffffffffffffffffffffffffffffffffffffff16630e0d09bf8b8b8b8b8b6040518663ffffffff167c0100000000000000000000000000000000000000000000000000000000028152600401808681526020018060200180602001806020018560ff1660ff168152602001848103845288818151815260200191508051906020019060200280838360005b83811015610b29578082015181840152602081019050610b0e565b50505050905001848103835287818151815260200191508051906020019060200280838360005b83811015610b6b578082015181840152602081019050610b50565b50505050905001848103825286818151815260200191508051906020019060200280838360005b83811015610bad578082015181840152602081019050610b92565b5050505090500198505050505050505050600060405180830381600087803b1515610bd757600080fd5b6102c65a03f11515610be857600080fd5b505050600760009054906101000a900473ffffffffffffffffffffffffffffffffffffffff1673ffffffffffffffffffffffffffffffffffffffff1663b0a4aaee8c600060405161012001526040518263ffffffff167c01000000000000000000000000000000000000000000000000000000000281526004018082815260200191505061012060405180830381600087803b1515610c8657600080fd5b6102c65a03f11515610c9757600080fd5b50505060405180519060200180519060200180519060200180519060200180519060200180519060200180519060200180519060200180519050909192939495969750909192939495965090919293949550909192939450905050809550819650829750505050600090505b8460ff16811015610ee157600760009054906101000a900473ffffffffffffffffffffffffffffffffffffffff1673ffffffffffffffffffffffffffffffffffffffff1663713656298c836000604051602001526040518363ffffffff167c01000000000000000000000000000000000000000000000000000000000281526004018083815260200182815260200192505050602060405180830381600087803b1515610daf57600080fd5b6102c65a03f11515610dc057600080fd5b505050604051805190509150600860009054906101000a900473ffffffffffffffffffffffffffffffffffffffff1673ffffffffffffffffffffffffffffffffffffffff16630c0a04ef8b60018401858d6040518563ffffffff167c010000000000000000000000000000000000000000000000000000000002815260040180858152602001848152602001836000191660001916815260200180602001828103825283818151815260200191508051906020019060200280838360005b83811015610e99578082015181840152602081019050610e7e565b5050505090500195505050505050600060405180830381600087803b1515610ec057600080fd5b6102c65a03f11515610ed157600080fd5b5050508080600101915050610d03565b600090505b8360ff168110156110c457600760009054906101000a900473ffffffffffffffffffffffffffffffffffffffff1673ffffffffffffffffffffffffffffffffffffffff1663d7fa79ac8c836000604051602001526040518363ffffffff167c01000000000000000000000000000000000000000000000000000000000281526004018083815260200182815260200192505050602060405180830381600087803b1515610f9257600080fd5b6102c65a03f11515610fa357600080fd5b505050604051805190509150600860009054906101000a900473ffffffffffffffffffffffffffffffffffffffff1673ffffffffffffffffffffffffffffffffffffffff166341e2f9788b60018401858c6040518563ffffffff167c010000000000000000000000000000000000000000000000000000000002815260040180858152602001848152602001836000191660001916815260200180602001828103825283818151815260200191508051906020019060200280838360005b8381101561107c578082015181840152602081019050611061565b5050505090500195505050505050600060405180830381600087803b15156110a357600080fd5b6102c65a03f115156110b457600080fd5b5050508080600101915050610ee6565b600090505b8260ff168110156112a757600760009054906101000a900473ffffffffffffffffffffffffffffffffffffffff1673ffffffffffffffffffffffffffffffffffffffff1663dfa4afc68c836000604051602001526040518363ffffffff167c01000000000000000000000000000000000000000000000000000000000281526004018083815260200182815260200192505050602060405180830381600087803b151561117557600080fd5b6102c65a03f1151561118657600080fd5b505050604051805190509150600860009054906101000a900473ffffffffffffffffffffffffffffffffffffffff1673ffffffffffffffffffffffffffffffffffffffff16631a42a6418b60018401858b6040518563ffffffff167c010000000000000000000000000000000000000000000000000000000002815260040180858152602001848152602001836000191660001916815260200180602001828103825283818151815260200191508051906020019060200280838360005b8381101561125f578082015181840152602081019050611244565b5050505090500195505050505050600060405180830381600087803b151561128657600080fd5b6102c65a03f1151561129757600080fd5b50505080806001019150506110c9565b5050505050505050505050565b600360009054906101000a900473ffffffffffffffffffffffffffffffffffffffff16600560006101000a81548173ffffffffffffffffffffffffffffffffffffffff021916908373ffffffffffffffffffffffffffffffffffffffff1602179055506001600560009054906101000a900473ffffffffffffffffffffffffffffffffffffffff1673ffffffffffffffffffffffffffffffffffffffff16632f54bf6e336000604051602001526040518263ffffffff167c0100000000000000000000000000000000000000000000000000000000028152600401808273ffffffffffffffffffffffffffffffffffffffff1673ffffffffffffffffffffffffffffffffffffffff168152602001915050602060405180830381600087803b15156113de57600080fd5b6102c65a03f115156113ef57600080fd5b5050506040518051905014151561140557600080fd5b600160009054906101000a900473ffffffffffffffffffffffffffffffffffffffff16600760006101000a81548173ffffffffffffffffffffffffffffffffffffffff021916908373ffffffffffffffffffffffffffffffffffffffff1602179055506000809054906101000a900473ffffffffffffffffffffffffffffffffffffffff16600860006101000a81548173ffffffffffffffffffffffffffffffffffffffff021916908373ffffffffffffffffffffffffffffffffffffffff1602179055506000600860009054906101000a900473ffffffffffffffffffffffffffffffffffffffff1673ffffffffffffffffffffffffffffffffffffffff16637fd6e510846000604051602001526040518263ffffffff167c010000000000000000000000000000000000000000000000000000000002815260040180828152602001915050602060405180830381600087803b151561156557600080fd5b6102c65a03f1151561157657600080fd5b5050506040518051905060ff161415151561159057600080fd5b600760009054906101000a900473ffffffffffffffffffffffffffffffffffffffff1673ffffffffffffffffffffffffffffffffffffffff166373f231e7600860009054906101000a900473ffffffffffffffffffffffffffffffffffffffff1673ffffffffffffffffffffffffffffffffffffffff16637fd6e510856000604051602001526040518263ffffffff167c010000000000000000000000000000000000000000000000000000000002815260040180828152602001915050602060405180830381600087803b151561166757600080fd5b6102c65a03f1151561167857600080fd5b505050604051805190506000604051602001526040518263ffffffff167c0100000000000000000000000000000000000000000000000000000000028152600401808260ff168152602001915050602060405180830381600087803b15156116df57600080fd5b6102c65a03f115156116f057600080fd5b5050506040518051905060ff1681101580156118785750600760009054906101000a900473ffffffffffffffffffffffffffffffffffffffff1673ffffffffffffffffffffffffffffffffffffffff166354dacca7600860009054906101000a900473ffffffffffffffffffffffffffffffffffffffff1673ffffffffffffffffffffffffffffffffffffffff16637fd6e510856000604051602001526040518263ffffffff167c010000000000000000000000000000000000000000000000000000000002815260040180828152602001915050602060405180830381600087803b15156117de57600080fd5b6102c65a03f115156117ef57600080fd5b505050604051805190506000604051602001526040518263ffffffff167c0100000000000000000000000000000000000000000000000000000000028152600401808260ff168152602001915050602060405180830381600087803b151561185657600080fd5b6102c65a03f1151561186757600080fd5b5050506040518051905060ff168111155b151561188357600080fd5b600860009054906101000a900473ffffffffffffffffffffffffffffffffffffffff1673ffffffffffffffffffffffffffffffffffffffff1663b5e230e7826040518263ffffffff167c010000000000000000000000000000000000000000000000000000000002815260040180828152602001915050600060405180830381600087803b151561191357600080fd5b6102c65a03f1151561192457600080fd5b5050506119318282614089565b600860009054906101000a900473ffffffffffffffffffffffffffffffffffffffff1673ffffffffffffffffffffffffffffffffffffffff166326a4ffe98360026040518363ffffffff167c0100000000000000000000000000000000000000000000000000000000028152600401808381526020018260ff16815260200192505050600060405180830381600087803b15156119cd57600080fd5b6102c65a03f115156119de57600080fd5b505050600860009054906101000a900473ffffffffffffffffffffffffffffffffffffffff1673ffffffffffffffffffffffffffffffffffffffff16630fab929a8360026040518363ffffffff167c0100000000000000000000000000000000000000000000000000000000028152600401808381526020018260ff16815260200192505050600060405180830381600087803b1515611a7d57600080fd5b6102c65a03f11515611a8e57600080fd5b5050505050565b600360009054906101000a900473ffffffffffffffffffffffffffffffffffffffff16600560006101000a81548173ffffffffffffffffffffffffffffffffffffffff021916908373ffffffffffffffffffffffffffffffffffffffff1602179055506001600560009054906101000a900473ffffffffffffffffffffffffffffffffffffffff1673ffffffffffffffffffffffffffffffffffffffff16638f16c41c336000604051602001526040518263ffffffff167c0100000000000000000000000000000000000000000000000000000000028152600401808273ffffffffffffffffffffffffffffffffffffffff1673ffffffffffffffffffffffffffffffffffffffff168152602001915050602060405180830381600087803b1515611bbf57600080fd5b6102c65a03f11515611bd057600080fd5b50505060405180519050141515611be657600080fd5b600460009054906101000a900473ffffffffffffffffffffffffffffffffffffffff16600960006101000a81548173ffffffffffffffffffffffffffffffffffffffff021916908373ffffffffffffffffffffffffffffffffffffffff160217905550600960009054906101000a900473ffffffffffffffffffffffffffffffffffffffff1673ffffffffffffffffffffffffffffffffffffffff1663a9059cbb83836000604051602001526040518363ffffffff167c0100000000000000000000000000000000000000000000000000000000028152600401808373ffffffffffffffffffffffffffffffffffffffff1673ffffffffffffffffffffffffffffffffffffffff16815260200182815260200192505050602060405180830381600087803b1515611d1657600080fd5b6102c65a03f11515611d2757600080fd5b50505060405180519050505050565b600260009054906101000a900473ffffffffffffffffffffffffffffffffffffffff16600660006101000a81548173ffffffffffffffffffffffffffffffffffffffff021916908373ffffffffffffffffffffffffffffffffffffffff160217905550600160009054906101000a900473ffffffffffffffffffffffffffffffffffffffff16600760006101000a81548173ffffffffffffffffffffffffffffffffffffffff021916908373ffffffffffffffffffffffffffffffffffffffff1602179055506000809054906101000a900473ffffffffffffffffffffffffffffffffffffffff16600860006101000a81548173ffffffffffffffffffffffffffffffffffffffff021916908373ffffffffffffffffffffffffffffffffffffffff160217905550600660009054906101000a900473ffffffffffffffffffffffffffffffffffffffff1673ffffffffffffffffffffffffffffffffffffffff16639914aa8c6000604051602001526040518163ffffffff167c0100000000000000000000000000000000000000000000000000000000028152600401602060405180830381600087803b1515611eec57600080fd5b6102c65a03f11515611efd57600080fd5b50505060405180519050600660009054906101000a900473ffffffffffffffffffffffffffffffffffffffff1673ffffffffffffffffffffffffffffffffffffffff1663beae32ba336000604051602001526040518263ffffffff167c0100000000000000000000000000000000000000000000000000000000028152600401808273ffffffffffffffffffffffffffffffffffffffff1673ffffffffffffffffffffffffffffffffffffffff168152602001915050602060405180830381600087803b1515611fcc57600080fd5b6102c65a03f11515611fdd57600080fd5b50505060405180519050141515611ff357600080fd5b6001600860009054906101000a900473ffffffffffffffffffffffffffffffffffffffff1673ffffffffffffffffffffffffffffffffffffffff1663401853b7866000604051602001526040518263ffffffff167c010000000000000000000000000000000000000000000000000000000002815260040180828152602001915050602060405180830381600087803b151561208e57600080fd5b6102c65a03f1151561209f57600080fd5b50505060405180519050148061216857506000600860009054906101000a900473ffffffffffffffffffffffffffffffffffffffff1673ffffffffffffffffffffffffffffffffffffffff1663401853b7866000604051602001526040518263ffffffff167c010000000000000000000000000000000000000000000000000000000002815260040180828152602001915050602060405180830381600087803b151561214b57600080fd5b6102c65a03f1151561215c57600080fd5b50505060405180519050145b151561217357600080fd5b612182848460ff16848461465e565b600860009054906101000a900473ffffffffffffffffffffffffffffffffffffffff1673ffffffffffffffffffffffffffffffffffffffff1663ad51f824856040518263ffffffff167c010000000000000000000000000000000000000000000000000000000002815260040180828152602001915050600060405180830381600087803b151561221257600080fd5b6102c65a03f1151561222357600080fd5b505050600860009054906101000a900473ffffffffffffffffffffffffffffffffffffffff1673ffffffffffffffffffffffffffffffffffffffff1663fea95a6a85336040518363ffffffff167c0100000000000000000000000000000000000000000000000000000000028152600401808381526020018273ffffffffffffffffffffffffffffffffffffffff1673ffffffffffffffffffffffffffffffffffffffff16815260200192505050600060405180830381600087803b15156122ea57600080fd5b6102c65a03f115156122fb57600080fd5b505050600860009054906101000a900473ffffffffffffffffffffffffffffffffffffffff1673ffffffffffffffffffffffffffffffffffffffff166392d05e0b85856040518363ffffffff167c0100000000000000000000000000000000000000000000000000000000028152600401808381526020018260ff1660ff16815260200192505050600060405180830381600087803b151561239c57600080fd5b6102c65a03f115156123ad57600080fd5b50505050505050565b6000809054906101000a900473ffffffffffffffffffffffffffffffffffffffff16600860006101000a81548173ffffffffffffffffffffffffffffffffffffffff021916908373ffffffffffffffffffffffffffffffffffffffff1602179055506000600860009054906101000a900473ffffffffffffffffffffffffffffffffffffffff1673ffffffffffffffffffffffffffffffffffffffff166335c42dbb336000604051602001526040518263ffffffff167c0100000000000000000000000000000000000000000000000000000000028152600401808273ffffffffffffffffffffffffffffffffffffffff1673ffffffffffffffffffffffffffffffffffffffff168152602001915050602060405180830381600087803b15156124df57600080fd5b6102c65a03f115156124f057600080fd5b505050604051805190501415151561250757600080fd5b600860009054906101000a900473ffffffffffffffffffffffffffffffffffffffff1673ffffffffffffffffffffffffffffffffffffffff16637974d2dd3360016040518363ffffffff167c0100000000000000000000000000000000000000000000000000000000028152600401808373ffffffffffffffffffffffffffffffffffffffff1673ffffffffffffffffffffffffffffffffffffffff16815260200182815260200192505050600060405180830381600087803b15156125cc57600080fd5b6102c65a03f115156125dd57600080fd5b505050600860009054906101000a900473ffffffffffffffffffffffffffffffffffffffff1673ffffffffffffffffffffffffffffffffffffffff1663f403c557600860009054906101000a900473ffffffffffffffffffffffffffffffffffffffff1673ffffffffffffffffffffffffffffffffffffffff16638263a9386000604051602001526040518163ffffffff167c0100000000000000000000000000000000000000000000000000000000028152600401602060405180830381600087803b15156126ac57600080fd5b6102c65a03f115156126bd57600080fd5b50505060405180519050336040518363ffffffff167c0100000000000000000000000000000000000000000000000000000000028152600401808381526020018273ffffffffffffffffffffffffffffffffffffffff1673ffffffffffffffffffffffffffffffffffffffff16815260200192505050600060405180830381600087803b151561274c57600080fd5b6102c65a03f1151561275d57600080fd5b50505060008260ff161115612a2157600860009054906101000a900473ffffffffffffffffffffffffffffffffffffffff1673ffffffffffffffffffffffffffffffffffffffff1663394ae3108584600860009054906101000a900473ffffffffffffffffffffffffffffffffffffffff1673ffffffffffffffffffffffffffffffffffffffff1663f0d2921e886000604051602001526040518263ffffffff167c010000000000000000000000000000000000000000000000000000000002815260040180828152602001915050602060405180830381600087803b151561284557600080fd5b6102c65a03f1151561285657600080fd5b505050604051805190506040518463ffffffff167c010000000000000000000000000000000000000000000000000000000002815260040180806020018460ff1660ff1681526020018373ffffffffffffffffffffffffffffffffffffffff1673ffffffffffffffffffffffffffffffffffffffff168152602001828103825285818151815260200191508051906020019080838360005b838110156129095780820151818401526020810190506128ee565b50505050905090810190601f1680156129365780820380516001836020036101000a031916815260200191505b50945050505050600060405180830381600087803b151561295657600080fd5b6102c65a03f1151561296757600080fd5b505050612a1c600860009054906101000a900473ffffffffffffffffffffffffffffffffffffffff1673ffffffffffffffffffffffffffffffffffffffff16638263a9386000604051602001526040518163ffffffff167c0100000000000000000000000000000000000000000000000000000000028152600401602060405180830381600087803b15156129fb57600080fd5b6102c65a03f11515612a0c57600080fd5b50505060405180519050826112b4565b612c20565b600860009054906101000a900473ffffffffffffffffffffffffffffffffffffffff1673ffffffffffffffffffffffffffffffffffffffff1663394ae3108584600860009054906101000a900473ffffffffffffffffffffffffffffffffffffffff1673ffffffffffffffffffffffffffffffffffffffff1663f0d2921e886000604051602001526040518263ffffffff167c010000000000000000000000000000000000000000000000000000000002815260040180828152602001915050602060405180830381600087803b1515612afa57600080fd5b6102c65a03f11515612b0b57600080fd5b505050604051805190506040518463ffffffff167c010000000000000000000000000000000000000000000000000000000002815260040180806020018460ff1660ff1681526020018373ffffffffffffffffffffffffffffffffffffffff1673ffffffffffffffffffffffffffffffffffffffff168152602001828103825285818151815260200191508051906020019080838360005b83811015612bbe578082015181840152602081019050612ba3565b50505050905090810190601f168015612beb5780820380516001836020036101000a031916815260200191505b50945050505050600060405180830381600087803b1515612c0b57600080fd5b6102c65a03f11515612c1c57600080fd5b5050505b50505050565b600360009054906101000a900473ffffffffffffffffffffffffffffffffffffffff16600560006101000a81548173ffffffffffffffffffffffffffffffffffffffff021916908373ffffffffffffffffffffffffffffffffffffffff1602179055506001600560009054906101000a900473ffffffffffffffffffffffffffffffffffffffff1673ffffffffffffffffffffffffffffffffffffffff16632f54bf6e336000604051602001526040518263ffffffff167c0100000000000000000000000000000000000000000000000000000000028152600401808273ffffffffffffffffffffffffffffffffffffffff1673ffffffffffffffffffffffffffffffffffffffff168152602001915050602060405180830381600087803b1515612d5057600080fd5b6102c65a03f11515612d6157600080fd5b50505060405180519050141515612d7757600080fd5b6000809054906101000a900473ffffffffffffffffffffffffffffffffffffffff16600860006101000a81548173ffffffffffffffffffffffffffffffffffffffff021916908373ffffffffffffffffffffffffffffffffffffffff160217905550600860009054906101000a900473ffffffffffffffffffffffffffffffffffffffff1673ffffffffffffffffffffffffffffffffffffffff166392630e52836040518263ffffffff167c010000000000000000000000000000000000000000000000000000000002815260040180828152602001915050600060405180830381600087803b1515612e6957600080fd5b6102c65a03f11515612e7a57600080fd5b505050600860009054906101000a900473ffffffffffffffffffffffffffffffffffffffff1673ffffffffffffffffffffffffffffffffffffffff16639f2b05d483836040518363ffffffff167c01000000000000000000000000000000000000000000000000000000000281526004018083815260200180602001828103825283818151815260200191508051906020019080838360005b83811015612f2e578082015181840152602081019050612f13565b50505050905090810190601f168015612f5b5780820380516001836020036101000a031916815260200191505b509350505050600060405180830381600087803b1515612f7a57600080fd5b6102c65a03f11515612f8b57600080fd5b505050600860009054906101000a900473ffffffffffffffffffffffffffffffffffffffff1673ffffffffffffffffffffffffffffffffffffffff1663707b85278360016040518363ffffffff167c0100000000000000000000000000000000000000000000000000000000028152600401808381526020018260ff16815260200192505050600060405180830381600087803b151561302a57600080fd5b6102c65a03f1151561303b57600080fd5b5050506000600860009054906101000a900473ffffffffffffffffffffffffffffffffffffffff1673ffffffffffffffffffffffffffffffffffffffff16637fd6e510846000604051602001526040518263ffffffff167c010000000000000000000000000000000000000000000000000000000002815260040180828152602001915050602060405180830381600087803b15156130d957600080fd5b6102c65a03f115156130ea57600080fd5b5050506040518051905060ff1611151561310357600080fd5b600860009054906101000a900473ffffffffffffffffffffffffffffffffffffffff1673ffffffffffffffffffffffffffffffffffffffff166392d05e0b8360006040518363ffffffff167c0100000000000000000000000000000000000000000000000000000000028152600401808381526020018260ff16815260200192505050600060405180830381600087803b151561319f57600080fd5b6102c65a03f115156131b057600080fd5b5050505050565b6000600360009054906101000a900473ffffffffffffffffffffffffffffffffffffffff1673ffffffffffffffffffffffffffffffffffffffff16141561323e5780600360006101000a81548173ffffffffffffffffffffffffffffffffffffffff021916908373ffffffffffffffffffffffffffffffffffffffff1602179055506133d1565b600360009054906101000a900473ffffffffffffffffffffffffffffffffffffffff16600560006101000a81548173ffffffffffffffffffffffffffffffffffffffff021916908373ffffffffffffffffffffffffffffffffffffffff1602179055506001600560009054906101000a900473ffffffffffffffffffffffffffffffffffffffff1673ffffffffffffffffffffffffffffffffffffffff16638f16c41c336000604051602001526040518263ffffffff167c0100000000000000000000000000000000000000000000000000000000028152600401808273ffffffffffffffffffffffffffffffffffffffff1673ffffffffffffffffffffffffffffffffffffffff168152602001915050602060405180830381600087803b151561336857600080fd5b6102c65a03f1151561337957600080fd5b5050506040518051905014151561338f57600080fd5b80600360006101000a81548173ffffffffffffffffffffffffffffffffffffffff021916908373ffffffffffffffffffffffffffffffffffffffff1602179055505b50565b600080600080600080600080600360009054906101000a900473ffffffffffffffffffffffffffffffffffffffff16600560006101000a81548173ffffffffffffffffffffffffffffffffffffffff021916908373ffffffffffffffffffffffffffffffffffffffff1602179055506001600560009054906101000a900473ffffffffffffffffffffffffffffffffffffffff1673ffffffffffffffffffffffffffffffffffffffff16638f16c41c336000604051602001526040518263ffffffff167c0100000000000000000000000000000000000000000000000000000000028152600401808273ffffffffffffffffffffffffffffffffffffffff1673ffffffffffffffffffffffffffffffffffffffff168152602001915050602060405180830381600087803b151561350a57600080fd5b6102c65a03f1151561351b57600080fd5b5050506040518051905014151561353157600080fd5b6000809054906101000a900473ffffffffffffffffffffffffffffffffffffffff16600860006101000a81548173ffffffffffffffffffffffffffffffffffffffff021916908373ffffffffffffffffffffffffffffffffffffffff160217905550600860009054906101000a900473ffffffffffffffffffffffffffffffffffffffff1673ffffffffffffffffffffffffffffffffffffffff166317826ac48b6000604051602001526040518263ffffffff167c010000000000000000000000000000000000000000000000000000000002815260040180828152602001915050602060405180830381600087803b151561362c57600080fd5b6102c65a03f1151561363d57600080fd5b505050604051805190509750600860009054906101000a900473ffffffffffffffffffffffffffffffffffffffff1673ffffffffffffffffffffffffffffffffffffffff1663e28d879f8b8b6000604051602001526040518363ffffffff167c01000000000000000000000000000000000000000000000000000000000281526004018083815260200182815260200192505050602060405180830381600087803b15156136ea57600080fd5b6102c65a03f115156136fb57600080fd5b505050604051805190509650600860009054906101000a900473ffffffffffffffffffffffffffffffffffffffff1673ffffffffffffffffffffffffffffffffffffffff16633152fbd4600060405160c001526040518163ffffffff167c010000000000000000000000000000000000000000000000000000000002815260040160c060405180830381600087803b151561379557600080fd5b6102c65a03f115156137a657600080fd5b505050604051805190602001805190602001805190602001805190602001805190602001805190509091925050809650819750829850839950505050506000891115613b7157600860009054906101000a900473ffffffffffffffffffffffffffffffffffffffff1673ffffffffffffffffffffffffffffffffffffffff16637974d2dd89613914600860009054906101000a900473ffffffffffffffffffffffffffffffffffffffff1673ffffffffffffffffffffffffffffffffffffffff16631b3b74f18d6000604051602001526040518263ffffffff167c0100000000000000000000000000000000000000000000000000000000028152600401808273ffffffffffffffffffffffffffffffffffffffff1673ffffffffffffffffffffffffffffffffffffffff168152602001915050602060405180830381600087803b15156138f357600080fd5b6102c65a03f1151561390457600080fd5b505050604051805190508a61493a565b6040518363ffffffff167c0100000000000000000000000000000000000000000000000000000000028152600401808373ffffffffffffffffffffffffffffffffffffffff1673ffffffffffffffffffffffffffffffffffffffff16815260200182815260200192505050600060405180830381600087803b151561399857600080fd5b6102c65a03f115156139a957600080fd5b505050600860009054906101000a900473ffffffffffffffffffffffffffffffffffffffff1673ffffffffffffffffffffffffffffffffffffffff16637974d2dd88613ad4600860009054906101000a900473ffffffffffffffffffffffffffffffffffffffff1673ffffffffffffffffffffffffffffffffffffffff16631b3b74f18c6000604051602001526040518263ffffffff167c0100000000000000000000000000000000000000000000000000000000028152600401808273ffffffffffffffffffffffffffffffffffffffff1673ffffffffffffffffffffffffffffffffffffffff168152602001915050602060405180830381600087803b1515613ab357600080fd5b6102c65a03f11515613ac457600080fd5b505050604051805190508961493a565b6040518363ffffffff167c0100000000000000000000000000000000000000000000000000000000028152600401808373ffffffffffffffffffffffffffffffffffffffff1673ffffffffffffffffffffffffffffffffffffffff16815260200182815260200192505050600060405180830381600087803b1515613b5857600080fd5b6102c65a03f11515613b6957600080fd5b50505061407d565b600860009054906101000a900473ffffffffffffffffffffffffffffffffffffffff1673ffffffffffffffffffffffffffffffffffffffff16637974d2dd89613c99600860009054906101000a900473ffffffffffffffffffffffffffffffffffffffff1673ffffffffffffffffffffffffffffffffffffffff16631b3b74f18d6000604051602001526040518263ffffffff167c0100000000000000000000000000000000000000000000000000000000028152600401808273ffffffffffffffffffffffffffffffffffffffff1673ffffffffffffffffffffffffffffffffffffffff168152602001915050602060405180830381600087803b1515613c7857600080fd5b6102c65a03f11515613c8957600080fd5b5050506040518051905088614958565b6040518363ffffffff167c0100000000000000000000000000000000000000000000000000000000028152600401808373ffffffffffffffffffffffffffffffffffffffff1673ffffffffffffffffffffffffffffffffffffffff16815260200182815260200192505050600060405180830381600087803b1515613d1d57600080fd5b6102c65a03f11515613d2e57600080fd5b505050600091505b600860009054906101000a900473ffffffffffffffffffffffffffffffffffffffff1673ffffffffffffffffffffffffffffffffffffffff1663ad8750418b6000604051602001526040518263ffffffff167c010000000000000000000000000000000000000000000000000000000002815260040180828152602001915050602060405180830381600087803b1515613dcf57600080fd5b6102c65a03f11515613de057600080fd5b5050506040518051905082101561407c57600860009054906101000a900473ffffffffffffffffffffffffffffffffffffffff1673ffffffffffffffffffffffffffffffffffffffff1663e28d879f8b846000604051602001526040518363ffffffff167c01000000000000000000000000000000000000000000000000000000000281526004018083815260200182815260200192505050602060405180830381600087803b1515613e9257600080fd5b6102c65a03f11515613ea357600080fd5b505050604051805190509050600860009054906101000a900473ffffffffffffffffffffffffffffffffffffffff1673ffffffffffffffffffffffffffffffffffffffff16637974d2dd82613fd7600860009054906101000a900473ffffffffffffffffffffffffffffffffffffffff1673ffffffffffffffffffffffffffffffffffffffff16631b3b74f1866000604051602001526040518263ffffffff167c0100000000000000000000000000000000000000000000000000000000028152600401808273ffffffffffffffffffffffffffffffffffffffff1673ffffffffffffffffffffffffffffffffffffffff168152602001915050602060405180830381600087803b1515613fb657600080fd5b6102c65a03f11515613fc757600080fd5b5050506040518051905087614958565b6040518363ffffffff167c0100000000000000000000000000000000000000000000000000000000028152600401808373ffffffffffffffffffffffffffffffffffffffff1673ffffffffffffffffffffffffffffffffffffffff16815260200182815260200192505050600060405180830381600087803b151561405b57600080fd5b6102c65a03f1151561406c57600080fd5b5050508180600101925050613d36565b5b50505050505050505050565b6000806000806000809054906101000a900473ffffffffffffffffffffffffffffffffffffffff16600860006101000a81548173ffffffffffffffffffffffffffffffffffffffff021916908373ffffffffffffffffffffffffffffffffffffffff160217905550600860009054906101000a900473ffffffffffffffffffffffffffffffffffffffff1673ffffffffffffffffffffffffffffffffffffffff16638cf5d7e387876040518363ffffffff167c01000000000000000000000000000000000000000000000000000000000281526004018083815260200182815260200192505050600060405180830381600087803b151561418957600080fd5b6102c65a03f1151561419a57600080fd5b505050614287600860009054906101000a900473ffffffffffffffffffffffffffffffffffffffff1673ffffffffffffffffffffffffffffffffffffffff16631b3b74f1336000604051602001526040518263ffffffff167c0100000000000000000000000000000000000000000000000000000000028152600401808273ffffffffffffffffffffffffffffffffffffffff1673ffffffffffffffffffffffffffffffffffffffff168152602001915050602060405180830381600087803b151561426557600080fd5b6102c65a03f1151561427657600080fd5b505050604051805190506001614971565b935061442e614380614379600860009054906101000a900473ffffffffffffffffffffffffffffffffffffffff1673ffffffffffffffffffffffffffffffffffffffff166335c42dbb336000604051602001526040518263ffffffff167c0100000000000000000000000000000000000000000000000000000000028152600401808273ffffffffffffffffffffffffffffffffffffffff1673ffffffffffffffffffffffffffffffffffffffff168152602001915050602060405180830381600087803b151561435757600080fd5b6102c65a03f1151561436857600080fd5b50505060405180519050606461498b565b606461498b565b600860009054906101000a900473ffffffffffffffffffffffffffffffffffffffff1673ffffffffffffffffffffffffffffffffffffffff1663a5d8ba896000604051602001526040518163ffffffff167c0100000000000000000000000000000000000000000000000000000000028152600401602060405180830381600087803b151561440e57600080fd5b6102c65a03f1151561441f57600080fd5b505050604051805190506149c6565b92506144e283600860009054906101000a900473ffffffffffffffffffffffffffffffffffffffff1673ffffffffffffffffffffffffffffffffffffffff166311aadbfb6000604051602001526040518163ffffffff167c0100000000000000000000000000000000000000000000000000000000028152600401602060405180830381600087803b15156144c257600080fd5b6102c65a03f115156144d357600080fd5b50505060405180519050614971565b91506145a8614599600860009054906101000a900473ffffffffffffffffffffffffffffffffffffffff1673ffffffffffffffffffffffffffffffffffffffff1663ad3208466000604051602001526040518163ffffffff167c0100000000000000000000000000000000000000000000000000000000028152600401602060405180830381600087803b151561457857600080fd5b6102c65a03f1151561458957600080fd5b505050604051805190508661498b565b6145a3878561498b565b61498b565b9050600860009054906101000a900473ffffffffffffffffffffffffffffffffffffffff1673ffffffffffffffffffffffffffffffffffffffff166367d0969187836040518363ffffffff167c01000000000000000000000000000000000000000000000000000000000281526004018083815260200182815260200192505050600060405180830381600087803b151561464257600080fd5b6102c65a03f1151561465357600080fd5b505050505050505050565b6000600160009054906101000a900473ffffffffffffffffffffffffffffffffffffffff16600760006101000a81548173ffffffffffffffffffffffffffffffffffffffff021916908373ffffffffffffffffffffffffffffffffffffffff160217905550600760009054906101000a900473ffffffffffffffffffffffffffffffffffffffff1673ffffffffffffffffffffffffffffffffffffffff166318b0211b856000604051602001526040518263ffffffff167c010000000000000000000000000000000000000000000000000000000002815260040180828152602001915050602060405180830381600087803b151561475c57600080fd5b6102c65a03f1151561476d57600080fd5b505050604051805190509050600082511415156147945781518114151561479357600080fd5b5b600860009054906101000a900473ffffffffffffffffffffffffffffffffffffffff1673ffffffffffffffffffffffffffffffffffffffff16631c4eb95986856040518363ffffffff167c0100000000000000000000000000000000000000000000000000000000028152600401808381526020018260ff1660ff16815260200192505050600060405180830381600087803b151561483257600080fd5b6102c65a03f1151561484357600080fd5b505050600860009054906101000a900473ffffffffffffffffffffffffffffffffffffffff1673ffffffffffffffffffffffffffffffffffffffff16632f86a4b186846040518363ffffffff167c01000000000000000000000000000000000000000000000000000000000281526004018083815260200180602001828103825283818151815260200191508051906020019060200280838360005b838110156148fa5780820151818401526020810190506148df565b505050509050019350505050600060405180830381600087803b151561491f57600080fd5b6102c65a03f1151561493057600080fd5b5050505050505050565b600080828401905083811015151561494e57fe5b8091505092915050565b600082821115151561496657fe5b818303905092915050565b6000818310156149815781614983565b825b905092915050565b60008060008414156149a057600091506149bf565b82840290508284828115156149b157fe5b041415156149bb57fe5b8091505b5092915050565b60008082848115156149d457fe5b04905080915050929150505600a165627a7a723058202488e4110401ef373f30dd9d9063dc1d49135d8b0a27f4c98e564cb4349b71b30029",
  "source": "/* Copyright (C) 2017 GovBlocks.io\r\n\r\n  This program is free software: you can redistribute it and/or modify\r\n    it under the terms of the GNU General Public License as published by\r\n    the Free Software Foundation, either version 3 of the License, or\r\n    (at your option) any later version.\r\n\r\n  This program is distributed in the hope that it will be useful,\r\n    but WITHOUT ANY WARRANTY; without even the implied warranty of\r\n    MERCHANTABILITY or FITNESS FOR A PARTICULAR PURPOSE.  See the\r\n    GNU General Public License for more details.\r\n\r\n  You should have received a copy of the GNU General Public License\r\n    along with this program.  If not, see http://www.gnu.org/licenses/ */\r\n\r\n\r\npragma solidity ^0.4.8;\r\nimport \"./GovernanceData.sol\";\r\nimport \"./ProposalCategory.sol\";\r\nimport \"./MemberRoles.sol\";\r\nimport \"./Master.sol\";\r\n// import \"./BasicToken.sol\";\r\n// import \"./SafeMath.sol\";\r\n// import \"./Math.sol\";\r\nimport \"./zeppelin-solidity/contracts/token/BasicToken.sol\";\r\nimport \"./zeppelin-solidity/contracts/math/SafeMath.sol\";\r\nimport \"./zeppelin-solidity/contracts/math/Math.sol\";\r\n\r\ncontract Governance {\r\n    \r\n  using SafeMath for uint;\r\n  using Math for uint;\r\n  address GDAddress;\r\n  address PCAddress;\r\n  address MRAddress;\r\n  address masterAddress;\r\n  address BTAddress;\r\n  Master MS;\r\n  MemberRoles MR;\r\n  ProposalCategory PC;\r\n  GovernanceData GD;\r\n  BasicToken BT;\r\n\r\n    modifier onlyInternal {\r\n        MS=Master(masterAddress);\r\n        require(MS.isInternal(msg.sender) == 1);\r\n        _; \r\n    }\r\n     modifier onlyOwner{\r\n        MS=Master(masterAddress);\r\n        require(MS.isOwner(msg.sender) == 1);\r\n        _; \r\n    }\r\n\r\n  function changeAllContractsAddress(address _BTContractAddress,address _GDContractAddress,address _MRContractAddress,address _PCContractAddress)\r\n  {\r\n     BTAddress = _BTContractAddress;\r\n     GDAddress = _GDContractAddress;\r\n     PCAddress = _PCContractAddress;\r\n     MRAddress = _MRContractAddress;\r\n  }\r\n\r\n  function changeMasterAddress(address _MasterAddress)\r\n  {\r\n    if(masterAddress == 0x000)\r\n        masterAddress = _MasterAddress;\r\n    else\r\n    {\r\n        MS=Master(masterAddress);\r\n        require(MS.isInternal(msg.sender) == 1);\r\n          masterAddress = _MasterAddress;\r\n    }\r\n  }\r\n  \r\n  /// @dev Transfer reward after Final Proposal Decision.\r\n  function transferBackGBTtoken(address _memberAddress, uint _value) onlyInternal\r\n  {\r\n      BT=BasicToken(BTAddress);\r\n      BT.transfer(_memberAddress,_value);\r\n  }\r\n\r\n  function openProposalForVoting(uint _proposalId,uint _TokenAmount) onlyOwner public\r\n  {\r\n      PC = ProposalCategory(PCAddress);\r\n      GD=GovernanceData(GDAddress);\r\n      // P1 = Pool(PAddress);\r\n\r\n      require(GD.getProposalCategory(_proposalId) != 0);\r\n      require(_TokenAmount >= PC.getMinStake(GD.getProposalCategory(_proposalId)) && _TokenAmount <= PC.getMaxStake(GD.getProposalCategory(_proposalId)));\r\n\r\n      GD.payableGBTTokens(_TokenAmount);\r\n      setProposalValue(_proposalId,_TokenAmount);\r\n      GD.pushInProposalStatus(_proposalId,2);\r\n      GD.updateProposalStatus(_proposalId,2);\r\n      // P1.closeProposalOraclise(_proposalId,Pcategory.getClosingTimeByIndex(allProposal[_proposalId].category,));\r\n  }\r\n\r\n  /// @dev Edits a proposal and Only owner of a proposal can edit it.\r\n  function editProposal(uint _proposalId ,string _proposalDescHash) onlyOwner public\r\n  {\r\n      GD=GovernanceData(GDAddress);\r\n      GD.storeProposalVersion(_proposalId);\r\n      GD.updateProposal(_proposalId,_proposalDescHash);\r\n      GD.changeProposalStatus(_proposalId,1);\r\n      \r\n      require(GD.getProposalCategory(_proposalId) > 0);\r\n        GD.setProposalCategory(_proposalId,0);\r\n  }\r\n\r\n  /// @dev Calculate the proposal value to distribute it later - Distribute amount depends upon the final decision against proposal.\r\n  function setProposalValue(uint _proposalId,uint _memberStake) internal\r\n  {\r\n      GD=GovernanceData(GDAddress);\r\n      GD.setProposalStake(_proposalId,_memberStake);\r\n      uint memberLevel = Math.max256(GD.getMemberReputation(msg.sender),1);\r\n      uint tokensHeld = SafeMath.div((SafeMath.mul(SafeMath.mul(GD.getBalanceOfMember(msg.sender),100),100)),GD.getTotalTokenInSupply());\r\n      uint maxValue= Math.max256(tokensHeld,GD.membershipScalingFactor());\r\n\r\n      uint finalProposalValue = SafeMath.mul(SafeMath.mul(GD.globalRiskFactor(),memberLevel),SafeMath.mul(_memberStake,maxValue));\r\n      GD.setProposalValue(_proposalId,finalProposalValue);\r\n  }\r\n\r\n  function setProposalCategoryParams(uint _category,uint _proposalId,uint[] _paramInt,bytes32[] _paramBytes32,address[] _paramAddress,uint8 _verdictOptions) onlyInternal\r\n  {\r\n      GD=GovernanceData(GDAddress);\r\n      PC=ProposalCategory(PCAddress);\r\n      GD.setProposalCategoryParams1(_proposalId,_paramInt,_paramBytes32,_paramAddress,_verdictOptions);\r\n\r\n      uint8 paramInt; uint8 paramBytes32; uint8 paramAddress;bytes32 parameterName; uint j;\r\n      (,,,,paramInt,paramBytes32,paramAddress,,) = PC.getCategoryDetails(_category);\r\n      \r\n      for(j=0; j<paramInt; j++)\r\n      {\r\n          parameterName = PC.getCategoryParamNameUint(_category,j);\r\n          GD.setParameterDetails1(_proposalId,j+1,parameterName,_paramInt);\r\n          // allProposalCategoryParams[_proposalId].optionNameIntValue[j+1][parameterName] = _paramInt[j];\r\n      }\r\n\r\n      for(j=0; j<paramBytes32; j++)\r\n      {\r\n          parameterName = PC.getCategoryParamNameBytes(_category,j); \r\n          GD.setParameterDetails2(_proposalId,j+1,parameterName,_paramBytes32);\r\n          // allProposalCategoryParams[_proposalId].optionNameBytesValue[j+1][parameterName] = _paramBytes32[j];\r\n      }\r\n\r\n      for(j=0; j<paramAddress; j++)\r\n      {\r\n          parameterName = PC.getCategoryParamNameAddress(_category,j);\r\n          GD.setParameterDetails3(_proposalId,j+1,parameterName,_paramAddress); \r\n          // allProposalCategoryParams[_proposalId].optionNameAddressValue[j+1][parameterName] = _paramAddress[j];  \r\n      }\r\n  }\r\n\r\n  /// @dev categorizing proposal to proceed further.\r\n  function categorizeProposal(uint _proposalId , uint8 _categoryId,uint8 _proposalComplexityLevel,uint[] _levelReward) public\r\n  {\r\n      MR = MemberRoles(MRAddress);\r\n      PC = ProposalCategory(PCAddress);\r\n      GD = GovernanceData(GDAddress);\r\n\r\n      require(MR.getMemberRoleIdByAddress(msg.sender) == MR.getAuthorizedMemberId());\r\n      require(GD.getProposalStatus(_proposalId) == 1 || GD.getProposalStatus(_proposalId) == 0);\r\n\r\n      addComplexityLevelAndReward(_proposalId,_categoryId,_proposalComplexityLevel,_levelReward);\r\n      GD.addInitialOptionDetails(_proposalId);\r\n      GD.setCategorizedBy(_proposalId,msg.sender);\r\n      GD.setProposalCategory(_proposalId,_categoryId);\r\n  }\r\n\r\n  /// @dev Proposal's complexity level and reward is added \r\n  function addComplexityLevelAndReward(uint _proposalId,uint _category,uint8 _proposalComplexityLevel,uint[] _levelReward) internal\r\n  {\r\n      PC=ProposalCategory(PCAddress);\r\n      uint votingLength = PC.getRoleSequencLength(_category);\r\n      if(_levelReward.length != 0)\r\n        require(votingLength == _levelReward.length);\r\n          GD.setProposalLevel(_proposalId,_proposalComplexityLevel);\r\n          GD.setProposalPriority(_proposalId,_levelReward); \r\n  }\r\n\r\n /// @dev Creates a new proposal.\r\n  function createProposal(string _proposalDescHash,uint _votingTypeId,uint8 _categoryId,uint _TokenAmount) public\r\n  {\r\n      GD=GovernanceData(GDAddress);\r\n\r\n      require(GD.getBalanceOfMember(msg.sender) != 0);\r\n      GD.setMemberReputation(msg.sender,1);\r\n      GD.addTotalProposal(GD.getProposalLength(),msg.sender);\r\n\r\n      if(_categoryId > 0)\r\n      {\r\n          GD.addNewProposal(_proposalDescHash,_categoryId,GD.getVotingTypeAddress(_votingTypeId));\r\n          openProposalForVoting(GD.getProposalLength(),_TokenAmount);\r\n      }\r\n      else\r\n          GD.addNewProposal(_proposalDescHash,_categoryId,GD.getVotingTypeAddress(_votingTypeId));          \r\n  }\r\n\r\n  /// @dev AFter the proposal final decision, member reputation will get updated.\r\n  function updateMemberReputation(uint _proposalId,uint _finalVerdict) onlyInternal\r\n  {\r\n    GD=GovernanceData(GDAddress);\r\n    address _proposalOwner =  GD.getProposalOwner(_proposalId);\r\n    address _finalOptionOwner = GD.getOptionAddressByProposalId(_proposalId,_finalVerdict);\r\n    uint addProposalOwnerPoints; uint addOptionOwnerPoints; uint subProposalOwnerPoints; uint subOptionOwnerPoints;\r\n    (addProposalOwnerPoints,addOptionOwnerPoints,,subProposalOwnerPoints,subOptionOwnerPoints,)= GD.getMemberReputationPoints();\r\n\r\n    if(_finalVerdict>0)\r\n    {\r\n        GD.setMemberReputation(_proposalOwner,SafeMath.add(GD.getMemberReputation(_proposalOwner),addProposalOwnerPoints));\r\n        GD.setMemberReputation(_finalOptionOwner,SafeMath.add(GD.getMemberReputation(_finalOptionOwner),addOptionOwnerPoints)); \r\n    }\r\n    else\r\n    {\r\n        GD.setMemberReputation(_proposalOwner,SafeMath.sub(GD.getMemberReputation(_proposalOwner),subProposalOwnerPoints));\r\n        for(uint i=0; i<GD.getOptionAddedAddressLength(_proposalId); i++)\r\n        {\r\n            address memberAddress = GD.getOptionAddressByProposalId(_proposalId,i);\r\n            GD.setMemberReputation(memberAddress,SafeMath.sub(GD.getMemberReputation(memberAddress),subOptionOwnerPoints));\r\n        }\r\n    }   \r\n  }\r\n\r\n  /// @dev Afer proposal Final Decision, Member reputation will get updated.\r\n  function updateMemberReputation1(address _voterAddress,uint _voterPoints) onlyInternal\r\n  {\r\n     GD=GovernanceData(GDAddress);\r\n     GD.setMemberReputation(_voterAddress,_voterPoints);\r\n  }\r\n\r\n\r\n\r\n\r\n\r\n\r\n\r\n\r\n\r\n\r\n\r\n}",
  "sourcePath": "D:\\RUCHITA\\Govblocks-Git\\contracts\\Governance.sol",
  "compiler": {
    "name": "solc",
    "version": "0.4.18+commit.9cf6e910.Emscripten.clang"
  },
  "schemaVersion": "1.0.1",
  "updatedAt": "2018-01-31T14:00:04.251Z"
}