{
  "contractName": "Master",
  "abi": [
    {
      "constant": false,
      "inputs": [],
      "name": "changeOtherAddress",
      "outputs": [],
      "payable": false,
      "stateMutability": "nonpayable",
      "type": "function"
    },
    {
      "constant": false,
      "inputs": [],
      "name": "switchToRecentVersion",
      "outputs": [],
      "payable": false,
      "stateMutability": "nonpayable",
      "type": "function"
    },
    {
      "constant": false,
      "inputs": [
        {
          "name": "_tokenAddress",
          "type": "address"
        }
      ],
      "name": "changeGBTAddress",
      "outputs": [],
      "payable": false,
      "stateMutability": "nonpayable",
      "type": "function"
    },
    {
      "constant": true,
      "inputs": [
        {
          "name": "_ownerAddress",
          "type": "address"
        }
      ],
      "name": "isOwner",
      "outputs": [
        {
          "name": "check",
          "type": "uint256"
        }
      ],
      "payable": false,
      "stateMutability": "view",
      "type": "function"
    },
    {
      "constant": false,
      "inputs": [],
      "name": "GovBlocksOwner",
      "outputs": [],
      "payable": false,
      "stateMutability": "nonpayable",
      "type": "function"
    },
    {
      "constant": true,
      "inputs": [
        {
          "name": "",
          "type": "address"
        }
      ],
      "name": "contracts_active",
      "outputs": [
        {
          "name": "",
          "type": "uint256"
        }
      ],
      "payable": false,
      "stateMutability": "view",
      "type": "function"
    },
    {
      "constant": true,
      "inputs": [
        {
          "name": "",
          "type": "uint256"
        },
        {
          "name": "",
          "type": "uint256"
        }
      ],
      "name": "allContractVersions",
      "outputs": [
        {
          "name": "name",
          "type": "bytes32"
        },
        {
          "name": "contractAddress",
          "type": "address"
        }
      ],
      "payable": false,
      "stateMutability": "view",
      "type": "function"
    },
    {
      "constant": true,
      "inputs": [],
      "name": "owner",
      "outputs": [
        {
          "name": "",
          "type": "address"
        }
      ],
      "payable": false,
      "stateMutability": "view",
      "type": "function"
    },
    {
      "constant": true,
      "inputs": [
        {
          "name": "_contractAdd",
          "type": "address"
        }
      ],
      "name": "isInternal",
      "outputs": [
        {
          "name": "check",
          "type": "uint256"
        }
      ],
      "payable": false,
      "stateMutability": "view",
      "type": "function"
    },
    {
      "constant": false,
      "inputs": [
        {
          "name": "_contractAddresses",
          "type": "address[]"
        }
      ],
      "name": "addNewVersion",
      "outputs": [],
      "payable": false,
      "stateMutability": "nonpayable",
      "type": "function"
    },
    {
      "constant": false,
      "inputs": [
        {
          "name": "_masterAddress",
          "type": "address"
        }
      ],
      "name": "changeMasterAddress",
      "outputs": [],
      "payable": false,
      "stateMutability": "nonpayable",
      "type": "function"
    },
    {
      "constant": true,
      "inputs": [],
      "name": "versionLength",
      "outputs": [
        {
          "name": "",
          "type": "uint256"
        }
      ],
      "payable": false,
      "stateMutability": "view",
      "type": "function"
    },
    {
      "constant": false,
      "inputs": [
        {
          "name": "_version",
          "type": "uint256"
        }
      ],
      "name": "changeAddressInMaster",
      "outputs": [],
      "payable": false,
      "stateMutability": "nonpayable",
      "type": "function"
    },
    {
      "constant": false,
      "inputs": [
        {
          "name": "newOwner",
          "type": "address"
        }
      ],
      "name": "transferOwnership",
      "outputs": [],
      "payable": false,
      "stateMutability": "nonpayable",
      "type": "function"
    },
    {
      "inputs": [],
      "payable": false,
      "stateMutability": "nonpayable",
      "type": "constructor"
    },
    {
      "anonymous": false,
      "inputs": [
        {
          "indexed": true,
          "name": "previousOwner",
          "type": "address"
        },
        {
          "indexed": true,
          "name": "newOwner",
          "type": "address"
        }
      ],
      "name": "OwnershipTransferred",
      "type": "event"
    }
  ],
  "bytecode": "0x6060604052341561000f57600080fd5b336000806101000a81548173ffffffffffffffffffffffffffffffffffffffff021916908373ffffffffffffffffffffffffffffffffffffffff16021790555030600d60006101000a81548173ffffffffffffffffffffffffffffffffffffffff021916908373ffffffffffffffffffffffffffffffffffffffff160217905550600060046000600d60009054906101000a900473ffffffffffffffffffffffffffffffffffffffff1673ffffffffffffffffffffffffffffffffffffffff1673ffffffffffffffffffffffffffffffffffffffff168152602001908152602001600020819055506001600460003073ffffffffffffffffffffffffffffffffffffffff1673ffffffffffffffffffffffffffffffffffffffff16815260200190815260200160002081905550600060018190555061366e806101536000396000f3006060604052600436106100d0576000357c0100000000000000000000000000000000000000000000000000000000900463ffffffff1680630cd090d6146100d55780630d89247d146100ea578063284e4175146100ff5780632f54bf6e146101385780634e8043f71461018557806367fdaf261461019a5780637396343a146101e75780638da5cb5b146102625780638f16c41c146102b7578063a97ea79414610304578063d46655f41461035e578063d57fe1af14610397578063e18efeec146103c0578063f2fde38b146103e3575b600080fd5b34156100e057600080fd5b6100e861041c565b005b34156100f557600080fd5b6100fd611616565b005b341561010a57600080fd5b610136600480803573ffffffffffffffffffffffffffffffffffffffff169060200190919050506116da565b005b341561014357600080fd5b61016f600480803573ffffffffffffffffffffffffffffffffffffffff16906020019091905050611d8f565b6040518082815260200191505060405180910390f35b341561019057600080fd5b610198611df3565b005b34156101a557600080fd5b6101d1600480803573ffffffffffffffffffffffffffffffffffffffff16906020019091905050611e7d565b6040518082815260200191505060405180910390f35b34156101f257600080fd5b6102116004808035906020019091908035906020019091905050611e95565b6040518083600019166000191681526020018273ffffffffffffffffffffffffffffffffffffffff1673ffffffffffffffffffffffffffffffffffffffff1681526020019250505060405180910390f35b341561026d57600080fd5b610275611ef5565b604051808273ffffffffffffffffffffffffffffffffffffffff1673ffffffffffffffffffffffffffffffffffffffff16815260200191505060405180910390f35b34156102c257600080fd5b6102ee600480803573ffffffffffffffffffffffffffffffffffffffff16906020019091905050611f1a565b6040518082815260200191505060405180910390f35b341561030f57600080fd5b61035c600480803590602001908201803590602001908080602002602001604051908101604052809392919081815260200183836020028082843782019150505050505091905050611fc8565b005b341561036957600080fd5b610395600480803573ffffffffffffffffffffffffffffffffffffffff16906020019091905050612325565b005b34156103a257600080fd5b6103aa612ab5565b6040518082815260200191505060405180910390f35b34156103cb57600080fd5b6103e16004808035906020019091905050612abb565b005b34156103ee57600080fd5b61041a600480803573ffffffffffffffffffffffffffffffffffffffff1690602001909190505061312a565b005b6001600460003373ffffffffffffffffffffffffffffffffffffffff1673ffffffffffffffffffffffffffffffffffffffff1681526020019081526020016000205414806104b657503373ffffffffffffffffffffffffffffffffffffffff166000809054906101000a900473ffffffffffffffffffffffffffffffffffffffff1673ffffffffffffffffffffffffffffffffffffffff16145b15156104c157600080fd5b600560009054906101000a900473ffffffffffffffffffffffffffffffffffffffff16601260006101000a81548173ffffffffffffffffffffffffffffffffffffffff021916908373ffffffffffffffffffffffffffffffffffffffff160217905550601260009054906101000a900473ffffffffffffffffffffffffffffffffffffffff1673ffffffffffffffffffffffffffffffffffffffff166325f81ccb600960009054906101000a900473ffffffffffffffffffffffffffffffffffffffff16600860009054906101000a900473ffffffffffffffffffffffffffffffffffffffff166040518363ffffffff167c0100000000000000000000000000000000000000000000000000000000028152600401808373ffffffffffffffffffffffffffffffffffffffff1673ffffffffffffffffffffffffffffffffffffffff1681526020018273ffffffffffffffffffffffffffffffffffffffff1673ffffffffffffffffffffffffffffffffffffffff16815260200192505050600060405180830381600087803b151561065857600080fd5b6102c65a03f1151561066957600080fd5b505050600a60009054906101000a900473ffffffffffffffffffffffffffffffffffffffff16601760006101000a81548173ffffffffffffffffffffffffffffffffffffffff021916908373ffffffffffffffffffffffffffffffffffffffff160217905550601760009054906101000a900473ffffffffffffffffffffffffffffffffffffffff1673ffffffffffffffffffffffffffffffffffffffff16632e95cfb9600960009054906101000a900473ffffffffffffffffffffffffffffffffffffffff16600e60009054906101000a900473ffffffffffffffffffffffffffffffffffffffff16600560009054906101000a900473ffffffffffffffffffffffffffffffffffffffff16600660009054906101000a900473ffffffffffffffffffffffffffffffffffffffff16600760009054906101000a900473ffffffffffffffffffffffffffffffffffffffff166040518663ffffffff167c0100000000000000000000000000000000000000000000000000000000028152600401808673ffffffffffffffffffffffffffffffffffffffff1673ffffffffffffffffffffffffffffffffffffffff1681526020018573ffffffffffffffffffffffffffffffffffffffff1673ffffffffffffffffffffffffffffffffffffffff1681526020018473ffffffffffffffffffffffffffffffffffffffff1673ffffffffffffffffffffffffffffffffffffffff1681526020018373ffffffffffffffffffffffffffffffffffffffff1673ffffffffffffffffffffffffffffffffffffffff1681526020018273ffffffffffffffffffffffffffffffffffffffff1673ffffffffffffffffffffffffffffffffffffffff16815260200195505050505050600060405180830381600087803b151561090557600080fd5b6102c65a03f1151561091657600080fd5b505050600b60009054906101000a900473ffffffffffffffffffffffffffffffffffffffff16601860006101000a81548173ffffffffffffffffffffffffffffffffffffffff021916908373ffffffffffffffffffffffffffffffffffffffff160217905550601860009054906101000a900473ffffffffffffffffffffffffffffffffffffffff1673ffffffffffffffffffffffffffffffffffffffff16632e95cfb9600960009054906101000a900473ffffffffffffffffffffffffffffffffffffffff16600e60009054906101000a900473ffffffffffffffffffffffffffffffffffffffff16600560009054906101000a900473ffffffffffffffffffffffffffffffffffffffff16600660009054906101000a900473ffffffffffffffffffffffffffffffffffffffff16600760009054906101000a900473ffffffffffffffffffffffffffffffffffffffff166040518663ffffffff167c0100000000000000000000000000000000000000000000000000000000028152600401808673ffffffffffffffffffffffffffffffffffffffff1673ffffffffffffffffffffffffffffffffffffffff1681526020018573ffffffffffffffffffffffffffffffffffffffff1673ffffffffffffffffffffffffffffffffffffffff1681526020018473ffffffffffffffffffffffffffffffffffffffff1673ffffffffffffffffffffffffffffffffffffffff1681526020018373ffffffffffffffffffffffffffffffffffffffff1673ffffffffffffffffffffffffffffffffffffffff1681526020018273ffffffffffffffffffffffffffffffffffffffff1673ffffffffffffffffffffffffffffffffffffffff16815260200195505050505050600060405180830381600087803b1515610bb257600080fd5b6102c65a03f11515610bc357600080fd5b505050600c60009054906101000a900473ffffffffffffffffffffffffffffffffffffffff16601960006101000a81548173ffffffffffffffffffffffffffffffffffffffff021916908373ffffffffffffffffffffffffffffffffffffffff160217905550601960009054906101000a900473ffffffffffffffffffffffffffffffffffffffff1673ffffffffffffffffffffffffffffffffffffffff16632e95cfb9600960009054906101000a900473ffffffffffffffffffffffffffffffffffffffff16600e60009054906101000a900473ffffffffffffffffffffffffffffffffffffffff16600560009054906101000a900473ffffffffffffffffffffffffffffffffffffffff16600660009054906101000a900473ffffffffffffffffffffffffffffffffffffffff16600760009054906101000a900473ffffffffffffffffffffffffffffffffffffffff166040518663ffffffff167c0100000000000000000000000000000000000000000000000000000000028152600401808673ffffffffffffffffffffffffffffffffffffffff1673ffffffffffffffffffffffffffffffffffffffff1681526020018573ffffffffffffffffffffffffffffffffffffffff1673ffffffffffffffffffffffffffffffffffffffff1681526020018473ffffffffffffffffffffffffffffffffffffffff1673ffffffffffffffffffffffffffffffffffffffff1681526020018373ffffffffffffffffffffffffffffffffffffffff1673ffffffffffffffffffffffffffffffffffffffff1681526020018273ffffffffffffffffffffffffffffffffffffffff1673ffffffffffffffffffffffffffffffffffffffff16815260200195505050505050600060405180830381600087803b1515610e5f57600080fd5b6102c65a03f11515610e7057600080fd5b505050600e60009054906101000a900473ffffffffffffffffffffffffffffffffffffffff16601a60006101000a81548173ffffffffffffffffffffffffffffffffffffffff021916908373ffffffffffffffffffffffffffffffffffffffff160217905550601a60009054906101000a900473ffffffffffffffffffffffffffffffffffffffff1673ffffffffffffffffffffffffffffffffffffffff1663013b4441600960009054906101000a900473ffffffffffffffffffffffffffffffffffffffff16600560009054906101000a900473ffffffffffffffffffffffffffffffffffffffff16600660009054906101000a900473ffffffffffffffffffffffffffffffffffffffff16600760009054906101000a900473ffffffffffffffffffffffffffffffffffffffff166040518563ffffffff167c0100000000000000000000000000000000000000000000000000000000028152600401808573ffffffffffffffffffffffffffffffffffffffff1673ffffffffffffffffffffffffffffffffffffffff1681526020018473ffffffffffffffffffffffffffffffffffffffff1673ffffffffffffffffffffffffffffffffffffffff1681526020018373ffffffffffffffffffffffffffffffffffffffff1673ffffffffffffffffffffffffffffffffffffffff1681526020018273ffffffffffffffffffffffffffffffffffffffff1673ffffffffffffffffffffffffffffffffffffffff168152602001945050505050600060405180830381600087803b15156110b657600080fd5b6102c65a03f115156110c757600080fd5b505050601a60009054906101000a900473ffffffffffffffffffffffffffffffffffffffff1673ffffffffffffffffffffffffffffffffffffffff1663f41e8241600a60009054906101000a900473ffffffffffffffffffffffffffffffffffffffff16600b60009054906101000a900473ffffffffffffffffffffffffffffffffffffffff16600c60009054906101000a900473ffffffffffffffffffffffffffffffffffffffff166040518463ffffffff167c0100000000000000000000000000000000000000000000000000000000028152600401808473ffffffffffffffffffffffffffffffffffffffff1673ffffffffffffffffffffffffffffffffffffffff1681526020018373ffffffffffffffffffffffffffffffffffffffff1673ffffffffffffffffffffffffffffffffffffffff1681526020018273ffffffffffffffffffffffffffffffffffffffff1673ffffffffffffffffffffffffffffffffffffffff1681526020019350505050600060405180830381600087803b151561125457600080fd5b6102c65a03f1151561126557600080fd5b505050601060009054906101000a900473ffffffffffffffffffffffffffffffffffffffff16601160006101000a81548173ffffffffffffffffffffffffffffffffffffffff021916908373ffffffffffffffffffffffffffffffffffffffff160217905550601160009054906101000a900473ffffffffffffffffffffffffffffffffffffffff1673ffffffffffffffffffffffffffffffffffffffff1663013b4441600960009054906101000a900473ffffffffffffffffffffffffffffffffffffffff16600560009054906101000a900473ffffffffffffffffffffffffffffffffffffffff16600660009054906101000a900473ffffffffffffffffffffffffffffffffffffffff16600760009054906101000a900473ffffffffffffffffffffffffffffffffffffffff166040518563ffffffff167c0100000000000000000000000000000000000000000000000000000000028152600401808573ffffffffffffffffffffffffffffffffffffffff1673ffffffffffffffffffffffffffffffffffffffff1681526020018473ffffffffffffffffffffffffffffffffffffffff1673ffffffffffffffffffffffffffffffffffffffff1681526020018373ffffffffffffffffffffffffffffffffffffffff1673ffffffffffffffffffffffffffffffffffffffff1681526020018273ffffffffffffffffffffffffffffffffffffffff1673ffffffffffffffffffffffffffffffffffffffff168152602001945050505050600060405180830381600087803b15156114ab57600080fd5b6102c65a03f115156114bc57600080fd5b505050600760009054906101000a900473ffffffffffffffffffffffffffffffffffffffff16601460006101000a81548173ffffffffffffffffffffffffffffffffffffffff021916908373ffffffffffffffffffffffffffffffffffffffff160217905550601460009054906101000a900473ffffffffffffffffffffffffffffffffffffffff1673ffffffffffffffffffffffffffffffffffffffff1663d6b10861600660009054906101000a900473ffffffffffffffffffffffffffffffffffffffff166040518263ffffffff167c0100000000000000000000000000000000000000000000000000000000028152600401808273ffffffffffffffffffffffffffffffffffffffff1673ffffffffffffffffffffffffffffffffffffffff168152602001915050600060405180830381600087803b151561160057600080fd5b6102c65a03f1151561161157600080fd5b505050565b60006001600460003373ffffffffffffffffffffffffffffffffffffffff1673ffffffffffffffffffffffffffffffffffffffff1681526020019081526020016000205414806116b257503373ffffffffffffffffffffffffffffffffffffffff166000809054906101000a900473ffffffffffffffffffffffffffffffffffffffff1673ffffffffffffffffffffffffffffffffffffffff16145b15156116bd57600080fd5b600180540390506116ce428261327f565b6116d781612abb565b50565b6000809054906101000a900473ffffffffffffffffffffffffffffffffffffffff1673ffffffffffffffffffffffffffffffffffffffff163373ffffffffffffffffffffffffffffffffffffffff1614806117825750600f60009054906101000a900473ffffffffffffffffffffffffffffffffffffffff1673ffffffffffffffffffffffffffffffffffffffff163373ffffffffffffffffffffffffffffffffffffffff16145b151561178d57600080fd5b600560009054906101000a900473ffffffffffffffffffffffffffffffffffffffff16601260006101000a81548173ffffffffffffffffffffffffffffffffffffffff021916908373ffffffffffffffffffffffffffffffffffffffff160217905550601260009054906101000a900473ffffffffffffffffffffffffffffffffffffffff1673ffffffffffffffffffffffffffffffffffffffff16630df34cdb826040518263ffffffff167c0100000000000000000000000000000000000000000000000000000000028152600401808273ffffffffffffffffffffffffffffffffffffffff1673ffffffffffffffffffffffffffffffffffffffff168152602001915050600060405180830381600087803b15156118ac57600080fd5b6102c65a03f115156118bd57600080fd5b505050600a60009054906101000a900473ffffffffffffffffffffffffffffffffffffffff16601760006101000a81548173ffffffffffffffffffffffffffffffffffffffff021916908373ffffffffffffffffffffffffffffffffffffffff160217905550601760009054906101000a900473ffffffffffffffffffffffffffffffffffffffff1673ffffffffffffffffffffffffffffffffffffffff16630df34cdb826040518263ffffffff167c0100000000000000000000000000000000000000000000000000000000028152600401808273ffffffffffffffffffffffffffffffffffffffff1673ffffffffffffffffffffffffffffffffffffffff168152602001915050600060405180830381600087803b15156119df57600080fd5b6102c65a03f115156119f057600080fd5b505050600b60009054906101000a900473ffffffffffffffffffffffffffffffffffffffff16601860006101000a81548173ffffffffffffffffffffffffffffffffffffffff021916908373ffffffffffffffffffffffffffffffffffffffff160217905550601860009054906101000a900473ffffffffffffffffffffffffffffffffffffffff1673ffffffffffffffffffffffffffffffffffffffff16630df34cdb826040518263ffffffff167c0100000000000000000000000000000000000000000000000000000000028152600401808273ffffffffffffffffffffffffffffffffffffffff1673ffffffffffffffffffffffffffffffffffffffff168152602001915050600060405180830381600087803b1515611b1257600080fd5b6102c65a03f11515611b2357600080fd5b505050600c60009054906101000a900473ffffffffffffffffffffffffffffffffffffffff16601960006101000a81548173ffffffffffffffffffffffffffffffffffffffff021916908373ffffffffffffffffffffffffffffffffffffffff160217905550601960009054906101000a900473ffffffffffffffffffffffffffffffffffffffff1673ffffffffffffffffffffffffffffffffffffffff16630df34cdb826040518263ffffffff167c0100000000000000000000000000000000000000000000000000000000028152600401808273ffffffffffffffffffffffffffffffffffffffff1673ffffffffffffffffffffffffffffffffffffffff168152602001915050600060405180830381600087803b1515611c4557600080fd5b6102c65a03f11515611c5657600080fd5b505050600e60009054906101000a900473ffffffffffffffffffffffffffffffffffffffff16601a60006101000a81548173ffffffffffffffffffffffffffffffffffffffff021916908373ffffffffffffffffffffffffffffffffffffffff160217905550601a60009054906101000a900473ffffffffffffffffffffffffffffffffffffffff1673ffffffffffffffffffffffffffffffffffffffff16630df34cdb826040518263ffffffff167c0100000000000000000000000000000000000000000000000000000000028152600401808273ffffffffffffffffffffffffffffffffffffffff1673ffffffffffffffffffffffffffffffffffffffff168152602001915050600060405180830381600087803b1515611d7857600080fd5b6102c65a03f11515611d8957600080fd5b50505050565b60008090508173ffffffffffffffffffffffffffffffffffffffff166000809054906101000a900473ffffffffffffffffffffffffffffffffffffffff1673ffffffffffffffffffffffffffffffffffffffff161415611dee57600190505b919050565b6000600f60009054906101000a900473ffffffffffffffffffffffffffffffffffffffff1673ffffffffffffffffffffffffffffffffffffffff16141515611e3a57600080fd5b33600f60006101000a81548173ffffffffffffffffffffffffffffffffffffffff021916908373ffffffffffffffffffffffffffffffffffffffff160217905550565b60046020528060005260406000206000915090505481565b600360205281600052604060002081815481101515611eb057fe5b9060005260206000209060020201600091509150508060000154908060010160009054906101000a900473ffffffffffffffffffffffffffffffffffffffff16905082565b6000809054906101000a900473ffffffffffffffffffffffffffffffffffffffff1681565b60008090506001600460003373ffffffffffffffffffffffffffffffffffffffff1673ffffffffffffffffffffffffffffffffffffffff168152602001908152602001600020541480611fb957503373ffffffffffffffffffffffffffffffffffffffff166000809054906101000a900473ffffffffffffffffffffffffffffffffffffffff1673ffffffffffffffffffffffffffffffffffffffff16145b15611fc357600190505b919050565b60008060009054906101000a900473ffffffffffffffffffffffffffffffffffffffff1673ffffffffffffffffffffffffffffffffffffffff163373ffffffffffffffffffffffffffffffffffffffff1614151561202557600080fd5b6001549050612036600182016132d8565b612083817f4d61737465720000000000000000000000000000000000000000000000000000600d60009054906101000a900473ffffffffffffffffffffffffffffffffffffffff166132e2565b6120c6817f476f7665726e616e6365446174610000000000000000000000000000000000008460008151811015156120b757fe5b906020019060200201516132e2565b612109817f4d656d626572526f6c65730000000000000000000000000000000000000000008460018151811015156120fa57fe5b906020019060200201516132e2565b61214c817f50726f706f73616c43617465676f72790000000000000000000000000000000084600281518110151561213d57fe5b906020019060200201516132e2565b61218f817f4d696e7461626c65546f6b656e0000000000000000000000000000000000000084600381518110151561218057fe5b906020019060200201516132e2565b6121d2817f4261736963546f6b656e000000000000000000000000000000000000000000008460048151811015156121c357fe5b906020019060200201516132e2565b612215817f53696d706c65566f74696e67000000000000000000000000000000000000000084600581518110151561220657fe5b906020019060200201516132e2565b612258817f52616e6b4261736564566f74696e67000000000000000000000000000000000084600681518110151561224957fe5b906020019060200201516132e2565b61229b817f466561747572655765696768746564000000000000000000000000000000000084600781518110151561228c57fe5b906020019060200201516132e2565b6122de817f5374616e64617264566f74696e675479706500000000000000000000000000008460088151811015156122cf57fe5b906020019060200201516132e2565b612321817f476f7665726e616e63650000000000000000000000000000000000000000000084600981518110151561231257fe5b906020019060200201516132e2565b5050565b6000809054906101000a900473ffffffffffffffffffffffffffffffffffffffff1673ffffffffffffffffffffffffffffffffffffffff163373ffffffffffffffffffffffffffffffffffffffff1614151561238057600080fd5b600560009054906101000a900473ffffffffffffffffffffffffffffffffffffffff16601260006101000a81548173ffffffffffffffffffffffffffffffffffffffff021916908373ffffffffffffffffffffffffffffffffffffffff160217905550601260009054906101000a900473ffffffffffffffffffffffffffffffffffffffff1673ffffffffffffffffffffffffffffffffffffffff1663d46655f4826040518263ffffffff167c0100000000000000000000000000000000000000000000000000000000028152600401808273ffffffffffffffffffffffffffffffffffffffff1673ffffffffffffffffffffffffffffffffffffffff168152602001915050600060405180830381600087803b151561249f57600080fd5b6102c65a03f115156124b057600080fd5b505050600a60009054906101000a900473ffffffffffffffffffffffffffffffffffffffff16601760006101000a81548173ffffffffffffffffffffffffffffffffffffffff021916908373ffffffffffffffffffffffffffffffffffffffff160217905550601760009054906101000a900473ffffffffffffffffffffffffffffffffffffffff1673ffffffffffffffffffffffffffffffffffffffff1663d46655f4826040518263ffffffff167c0100000000000000000000000000000000000000000000000000000000028152600401808273ffffffffffffffffffffffffffffffffffffffff1673ffffffffffffffffffffffffffffffffffffffff168152602001915050600060405180830381600087803b15156125d257600080fd5b6102c65a03f115156125e357600080fd5b505050600b60009054906101000a900473ffffffffffffffffffffffffffffffffffffffff16601860006101000a81548173ffffffffffffffffffffffffffffffffffffffff021916908373ffffffffffffffffffffffffffffffffffffffff160217905550601860009054906101000a900473ffffffffffffffffffffffffffffffffffffffff1673ffffffffffffffffffffffffffffffffffffffff1663d46655f4826040518263ffffffff167c0100000000000000000000000000000000000000000000000000000000028152600401808273ffffffffffffffffffffffffffffffffffffffff1673ffffffffffffffffffffffffffffffffffffffff168152602001915050600060405180830381600087803b151561270557600080fd5b6102c65a03f1151561271657600080fd5b505050600c60009054906101000a900473ffffffffffffffffffffffffffffffffffffffff16601960006101000a81548173ffffffffffffffffffffffffffffffffffffffff021916908373ffffffffffffffffffffffffffffffffffffffff160217905550601960009054906101000a900473ffffffffffffffffffffffffffffffffffffffff1673ffffffffffffffffffffffffffffffffffffffff1663d46655f4826040518263ffffffff167c0100000000000000000000000000000000000000000000000000000000028152600401808273ffffffffffffffffffffffffffffffffffffffff1673ffffffffffffffffffffffffffffffffffffffff168152602001915050600060405180830381600087803b151561283857600080fd5b6102c65a03f1151561284957600080fd5b505050600e60009054906101000a900473ffffffffffffffffffffffffffffffffffffffff16601a60006101000a81548173ffffffffffffffffffffffffffffffffffffffff021916908373ffffffffffffffffffffffffffffffffffffffff160217905550601a60009054906101000a900473ffffffffffffffffffffffffffffffffffffffff1673ffffffffffffffffffffffffffffffffffffffff1663d46655f4826040518263ffffffff167c0100000000000000000000000000000000000000000000000000000000028152600401808273ffffffffffffffffffffffffffffffffffffffff1673ffffffffffffffffffffffffffffffffffffffff168152602001915050600060405180830381600087803b151561296b57600080fd5b6102c65a03f1151561297c57600080fd5b505050601060009054906101000a900473ffffffffffffffffffffffffffffffffffffffff16601160006101000a81548173ffffffffffffffffffffffffffffffffffffffff021916908373ffffffffffffffffffffffffffffffffffffffff160217905550601160009054906101000a900473ffffffffffffffffffffffffffffffffffffffff1673ffffffffffffffffffffffffffffffffffffffff1663d46655f4826040518263ffffffff167c0100000000000000000000000000000000000000000000000000000000028152600401808273ffffffffffffffffffffffffffffffffffffffff1673ffffffffffffffffffffffffffffffffffffffff168152602001915050600060405180830381600087803b1515612a9e57600080fd5b6102c65a03f11515612aaf57600080fd5b50505050565b60015481565b6001600460003373ffffffffffffffffffffffffffffffffffffffff1673ffffffffffffffffffffffffffffffffffffffff168152602001908152602001600020541480612b5557503373ffffffffffffffffffffffffffffffffffffffff166000809054906101000a900473ffffffffffffffffffffffffffffffffffffffff1673ffffffffffffffffffffffffffffffffffffffff16145b1515612b6057600080fd5b612b69816133aa565b600360008281526020019081526020016000206001815481101515612b8a57fe5b906000526020600020906002020160010160009054906101000a900473ffffffffffffffffffffffffffffffffffffffff16600560006101000a81548173ffffffffffffffffffffffffffffffffffffffff021916908373ffffffffffffffffffffffffffffffffffffffff160217905550600360008281526020019081526020016000206002815481101515612c1d57fe5b906000526020600020906002020160010160009054906101000a900473ffffffffffffffffffffffffffffffffffffffff16600660006101000a81548173ffffffffffffffffffffffffffffffffffffffff021916908373ffffffffffffffffffffffffffffffffffffffff160217905550600360008281526020019081526020016000206003815481101515612cb057fe5b906000526020600020906002020160010160009054906101000a900473ffffffffffffffffffffffffffffffffffffffff16600760006101000a81548173ffffffffffffffffffffffffffffffffffffffff021916908373ffffffffffffffffffffffffffffffffffffffff160217905550600360008281526020019081526020016000206004815481101515612d4357fe5b906000526020600020906002020160010160009054906101000a900473ffffffffffffffffffffffffffffffffffffffff16600860006101000a81548173ffffffffffffffffffffffffffffffffffffffff021916908373ffffffffffffffffffffffffffffffffffffffff160217905550600360008281526020019081526020016000206005815481101515612dd657fe5b906000526020600020906002020160010160009054906101000a900473ffffffffffffffffffffffffffffffffffffffff16600960006101000a81548173ffffffffffffffffffffffffffffffffffffffff021916908373ffffffffffffffffffffffffffffffffffffffff160217905550600360008281526020019081526020016000206006815481101515612e6957fe5b906000526020600020906002020160010160009054906101000a900473ffffffffffffffffffffffffffffffffffffffff16600a60006101000a81548173ffffffffffffffffffffffffffffffffffffffff021916908373ffffffffffffffffffffffffffffffffffffffff160217905550600360008281526020019081526020016000206007815481101515612efc57fe5b906000526020600020906002020160010160009054906101000a900473ffffffffffffffffffffffffffffffffffffffff16600b60006101000a81548173ffffffffffffffffffffffffffffffffffffffff021916908373ffffffffffffffffffffffffffffffffffffffff160217905550600360008281526020019081526020016000206008815481101515612f8f57fe5b906000526020600020906002020160010160009054906101000a900473ffffffffffffffffffffffffffffffffffffffff16600c60006101000a81548173ffffffffffffffffffffffffffffffffffffffff021916908373ffffffffffffffffffffffffffffffffffffffff16021790555060036000828152602001908152602001600020600981548110151561302257fe5b906000526020600020906002020160010160009054906101000a900473ffffffffffffffffffffffffffffffffffffffff16600e60006101000a81548173ffffffffffffffffffffffffffffffffffffffff021916908373ffffffffffffffffffffffffffffffffffffffff16021790555060036000828152602001908152602001600020600a8154811015156130b557fe5b906000526020600020906002020160010160009054906101000a900473ffffffffffffffffffffffffffffffffffffffff16601060006101000a81548173ffffffffffffffffffffffffffffffffffffffff021916908373ffffffffffffffffffffffffffffffffffffffff16021790555050565b6000809054906101000a900473ffffffffffffffffffffffffffffffffffffffff1673ffffffffffffffffffffffffffffffffffffffff163373ffffffffffffffffffffffffffffffffffffffff1614151561318557600080fd5b600073ffffffffffffffffffffffffffffffffffffffff168173ffffffffffffffffffffffffffffffffffffffff16141515156131c157600080fd5b8073ffffffffffffffffffffffffffffffffffffffff166000809054906101000a900473ffffffffffffffffffffffffffffffffffffffff1673ffffffffffffffffffffffffffffffffffffffff167f8be0079c531659141344cd1fd0a4f28419497f9722a3daafe3b4186f6b6457e060405160405180910390a3806000806101000a81548173ffffffffffffffffffffffffffffffffffffffff021916908373ffffffffffffffffffffffffffffffffffffffff16021790555050565b600280548060010182816132939190613561565b91600052602060002090600202016000604080519081016040528086815260200185815250909190915060008201518160000155602082015181600101555050505050565b8060018190555050565b6003600084815260200190815260200160002080548060010182816133079190613593565b916000526020600020906002020160006040805190810160405280866000191681526020018573ffffffffffffffffffffffffffffffffffffffff1681525090919091506000820151816000019060001916905560208201518160010160006101000a81548173ffffffffffffffffffffffffffffffffffffffff021916908373ffffffffffffffffffffffffffffffffffffffff160217905550505050505050565b6133b581600161341b565b6133c081600261341b565b6133cb81600361341b565b6133d681600461341b565b6133e181600561341b565b6133ec81600661341b565b6133f781600761341b565b61340281600861341b565b61340d81600961341b565b61341881600a61341b565b50565b60008090506000831115613430576001830390505b600060046000600360008581526020019081526020016000208581548110151561345657fe5b906000526020600020906002020160010160009054906101000a900473ffffffffffffffffffffffffffffffffffffffff1673ffffffffffffffffffffffffffffffffffffffff1673ffffffffffffffffffffffffffffffffffffffff1681526020019081526020016000208190555060016004600060036000878152602001908152602001600020858154811015156134ec57fe5b906000526020600020906002020160010160009054906101000a900473ffffffffffffffffffffffffffffffffffffffff1673ffffffffffffffffffffffffffffffffffffffff1673ffffffffffffffffffffffffffffffffffffffff16815260200190815260200160002081905550505050565b81548183558181151161358e5760020281600202836000526020600020918201910161358d91906135c5565b5b505050565b8154818355818115116135c0576002028160020283600052602060002091820191016135bf91906135f4565b5b505050565b6135f191905b808211156135ed576000808201600090556001820160009055506002016135cb565b5090565b90565b61363f91905b8082111561363b576000808201600090556001820160006101000a81549073ffffffffffffffffffffffffffffffffffffffff0219169055506002016135fa565b5090565b905600a165627a7a723058202df0698a1d5c56b16f54148fc82fb9850fc0689ddb47a4060f86f38fea2fe1930029",
  "source": "/* Copyright (C) 2017 GovBlocks.io\r\n\r\n  This program is free software: you can redistribute it and/or modify\r\n    it under the terms of the GNU General Public License as published by\r\n    the Free Software Foundation, either version 3 of the License, or\r\n    (at your option) any later version.\r\n\r\n  This program is distributed in the hope that it will be useful,\r\n    but WITHOUT ANY WARRANTY; without even the implied warranty of\r\n    MERCHANTABILITY or FITNESS FOR A PARTICULAR PURPOSE.  See the\r\n    GNU General Public License for more details.\r\n\r\n  You should have received a copy of the GNU General Public License\r\n    along with this program.  If not, see http://www.gnu.org/licenses/ */\r\n    \r\npragma solidity ^0.4.8;\r\n\r\nimport \"./GovernanceData.sol\";\r\nimport \"./SimpleVoting.sol\";\r\nimport \"./RankBasedVoting.sol\";\r\nimport \"./FeatureWeighted.sol\";\r\nimport \"./MemberRoles.sol\";\r\nimport \"./ProposalCategory.sol\";\r\nimport \"./StandardVotingType.sol\";\r\nimport \"./Governance.sol\";\r\nimport \"./zeppelin-solidity/contracts/token/MintableToken.sol\";\r\nimport \"./zeppelin-solidity/contracts/token/BasicToken.sol\";\r\n// import \"./MintableToken.sol\";\r\n// import \"./BasicToken.sol\";\r\n\r\ncontract Master is Ownable {\r\n\r\n    struct contractDetails{\r\n        bytes32 name;\r\n        address contractAddress;\r\n    }\r\n\r\n    struct changeVersion{\r\n        uint date_implement;\r\n        uint versionNo;\r\n    }\r\n\r\n    uint  public versionLength;\r\n    changeVersion[]  contractChangeDate;\r\n    mapping(uint=>contractDetails[]) public allContractVersions;\r\n    mapping(address=>uint) public contracts_active;\r\n    \r\n    address governanceDataAddress;\r\n    address memberRolesAddress;\r\n    address proposalCategoryAddress;\r\n    address mintableTokenAddress;\r\n    address basicTokenAddress;\r\n    address simpleVotingAddress;\r\n    address rankBasedVotingAddress;\r\n    address featureWeightedAddress;\r\n    address masterAddress;\r\n    address standardVotingTypeAddress;\r\n    address GBTOwner;\r\n    address governanceAddress;\r\n    Governance G1;\r\n    GovernanceData GD;\r\n    MemberRoles MR;\r\n    ProposalCategory PC;\r\n    MintableToken MT;\r\n    BasicToken BT;\r\n    SimpleVoting SV;\r\n    RankBasedVoting RB;\r\n    FeatureWeighted FW;\r\n    StandardVotingType SVT;\r\n\r\n    /// @dev Constructor\r\n    function Master()\r\n    {\r\n        masterAddress=address(this);\r\n        contracts_active[masterAddress]=0;\r\n        contracts_active[address(this)]=1;\r\n        versionLength =0;\r\n    }\r\n   \r\n    modifier onlyGBTOwner\r\n    {\r\n      require(msg.sender == owner || msg.sender == GBTOwner);\r\n      _;\r\n    }\r\n\r\n    modifier onlyInternal \r\n    {\r\n        require(contracts_active[msg.sender] == 1 || owner==msg.sender);\r\n        _; \r\n    }\r\n\r\n    function GovBlocksOwner()\r\n    {\r\n        require(GBTOwner == 0x00);\r\n        GBTOwner = msg.sender;\r\n    }\r\n\r\n    function isInternal(address _contractAdd) constant returns(uint check)\r\n    {\r\n        check=0;\r\n        if(contracts_active[msg.sender] == 1 || owner==msg.sender)\r\n            check=1;\r\n    }\r\n\r\n    function isOwner(address _ownerAddress) constant returns(uint check)\r\n    {\r\n        check=0;\r\n        if(owner == _ownerAddress)\r\n            check=1;\r\n    }\r\n\r\n    /// @dev Creates a new version of contract addresses.\r\n    function addNewVersion(address[] _contractAddresses) onlyOwner\r\n    {\r\n        uint versionNo = versionLength;\r\n        setVersionLength(versionNo+1);\r\n        \r\n        addContractDetails(versionNo,\"Master\",masterAddress);\r\n        addContractDetails(versionNo,\"GovernanceData\",_contractAddresses[0]);\r\n        addContractDetails(versionNo,\"MemberRoles\",_contractAddresses[1]);\r\n        addContractDetails(versionNo,\"ProposalCategory\",_contractAddresses[2]);\r\n        addContractDetails(versionNo,\"MintableToken\",_contractAddresses[3]); \r\n        addContractDetails(versionNo,\"BasicToken\",_contractAddresses[4]); \r\n        addContractDetails(versionNo,\"SimpleVoting\",_contractAddresses[5]);\r\n        addContractDetails(versionNo,\"RankBasedVoting\",_contractAddresses[6]); \r\n        addContractDetails(versionNo,\"FeatureWeighted\",_contractAddresses[7]); \r\n        addContractDetails(versionNo,\"StandardVotingType\",_contractAddresses[8]); \r\n        addContractDetails(versionNo,\"Governance\",_contractAddresses[9]); \r\n    }\r\n\r\n    /// @dev Adds Contract's name  and its ethereum address in a given version.\r\n    function addContractDetails(uint _versionNo,bytes32 _contractName,address _contractAddresse) internal\r\n    {\r\n        allContractVersions[_versionNo].push(contractDetails(_contractName,_contractAddresse));        \r\n    }\r\n\r\n    /// @dev Changes all reference contract addresses in master \r\n    function changeAddressInMaster(uint _version) onlyInternal\r\n    {\r\n        changeAllAddress(_version);\r\n        governanceDataAddress = allContractVersions[_version][1].contractAddress;\r\n        memberRolesAddress = allContractVersions[_version][2].contractAddress;\r\n        proposalCategoryAddress = allContractVersions[_version][3].contractAddress;\r\n        mintableTokenAddress = allContractVersions[_version][4].contractAddress;\r\n        basicTokenAddress = allContractVersions[_version][5].contractAddress;\r\n        simpleVotingAddress = allContractVersions[_version][6].contractAddress;\r\n        rankBasedVotingAddress = allContractVersions[_version][7].contractAddress;\r\n        featureWeightedAddress = allContractVersions[_version][8].contractAddress;\r\n        standardVotingTypeAddress = allContractVersions[_version][9].contractAddress;\r\n        governanceAddress = allContractVersions[_version][10].contractAddress;\r\n\r\n    }\r\n\r\n    /// @dev Sets the older version contract address as inactive and the latest one as active.\r\n    function changeAllAddress(uint version) internal\r\n    {\r\n        addRemoveAddress(version,1);\r\n        addRemoveAddress(version,2);\r\n        addRemoveAddress(version,3);\r\n        addRemoveAddress(version,4);\r\n        addRemoveAddress(version,5);\r\n        addRemoveAddress(version,6);\r\n        addRemoveAddress(version,7);\r\n        addRemoveAddress(version,8);\r\n        addRemoveAddress(version,9);\r\n        addRemoveAddress(version,10);\r\n    }\r\n\r\n    /// @dev Deactivates address of a contract from last version.\r\n    function addRemoveAddress(uint _version,uint _index) internal\r\n    {\r\n        uint version_old=0;\r\n        if(_version>0)\r\n            version_old=_version-1;\r\n        contracts_active[allContractVersions[version_old][_index].contractAddress]=0;\r\n        contracts_active[allContractVersions[_version][_index].contractAddress]=1;\r\n    }\r\n\r\n    /// @dev Links all contracts to master.sol by passing address of Master contract to the functions of other contracts.\r\n    function changeMasterAddress(address _masterAddress) onlyOwner\r\n    {\r\n        GD=GovernanceData(governanceDataAddress);\r\n        GD.changeMasterAddress(_masterAddress);\r\n                             \r\n        SV=SimpleVoting(simpleVotingAddress);\r\n        SV.changeMasterAddress(_masterAddress);\r\n\r\n        RB=RankBasedVoting(rankBasedVotingAddress);\r\n        RB.changeMasterAddress(_masterAddress);\r\n\r\n        FW=FeatureWeighted(featureWeightedAddress);\r\n        FW.changeMasterAddress(_masterAddress);\r\n\r\n        SVT=StandardVotingType(standardVotingTypeAddress);\r\n        SVT.changeMasterAddress(_masterAddress);\r\n\r\n        G1=Governance(governanceAddress);\r\n        G1.changeMasterAddress(_masterAddress);\r\n    }\r\n\r\n   /// @dev Link contracts to one another.\r\n   function changeOtherAddress() onlyInternal\r\n   {  \r\n        GD=GovernanceData(governanceDataAddress);\r\n        GD.changeAllContractsAddress(basicTokenAddress,mintableTokenAddress);\r\n\r\n        SV=SimpleVoting(simpleVotingAddress);\r\n        SV.changeAllContractsAddress(basicTokenAddress,standardVotingTypeAddress,governanceDataAddress,memberRolesAddress,proposalCategoryAddress);\r\n\r\n        RB=RankBasedVoting(rankBasedVotingAddress);\r\n        RB.changeAllContractsAddress(basicTokenAddress,standardVotingTypeAddress,governanceDataAddress,memberRolesAddress,proposalCategoryAddress);\r\n\r\n        FW=FeatureWeighted(featureWeightedAddress);\r\n        FW.changeAllContractsAddress(basicTokenAddress,standardVotingTypeAddress,governanceDataAddress,memberRolesAddress,proposalCategoryAddress);\r\n\r\n        SVT=StandardVotingType(standardVotingTypeAddress);\r\n        SVT.changeAllContractsAddress(basicTokenAddress,governanceDataAddress,memberRolesAddress,proposalCategoryAddress);\r\n        SVT.changeOtherContractAddress(simpleVotingAddress,rankBasedVotingAddress,featureWeightedAddress);\r\n        \r\n        G1=Governance(governanceAddress);\r\n        G1.changeAllContractsAddress(basicTokenAddress,governanceDataAddress,memberRolesAddress,proposalCategoryAddress);\r\n   \r\n        PC=ProposalCategory(proposalCategoryAddress);\r\n        PC.changeAllContractsAddress(memberRolesAddress);\r\n   }\r\n\r\n    /// @dev Change GBT token address all contracts\r\n    function changeGBTAddress(address _tokenAddress) onlyGBTOwner\r\n    {\r\n        GD=GovernanceData(governanceDataAddress);\r\n        GD.changeGBTtokenAddress(_tokenAddress);\r\n        \r\n        SV=SimpleVoting(simpleVotingAddress);\r\n        SV.changeGBTtokenAddress(_tokenAddress);\r\n\r\n        RB=RankBasedVoting(rankBasedVotingAddress);\r\n        RB.changeGBTtokenAddress(_tokenAddress);\r\n\r\n        FW=FeatureWeighted(featureWeightedAddress);\r\n        FW.changeGBTtokenAddress(_tokenAddress);\r\n\r\n        SVT=StandardVotingType(standardVotingTypeAddress);\r\n        SVT.changeGBTtokenAddress(_tokenAddress);\r\n    }\r\n\r\n    /// @dev Switch to the recent version of contracts. (Last one)\r\n    function switchToRecentVersion() onlyInternal\r\n    {\r\n        uint version = versionLength-1;\r\n        addInContractChangeDate(now,version);\r\n        changeAddressInMaster(version);\r\n    }\r\n\r\n    /// @dev Stores the date when version of contracts get switched.\r\n    function addInContractChangeDate(uint _date , uint _versionNo) internal\r\n    {\r\n        contractChangeDate.push(changeVersion(_date,_versionNo));\r\n    }\r\n  \r\n    /// @dev Sets the length of version.\r\n    function setVersionLength(uint _length) internal\r\n    {\r\n        versionLength = _length;\r\n    }\r\n\r\n}\r\n",
  "sourcePath": "D:\\RUCHITA\\Govblocks-Git\\contracts\\Master.sol",
  "compiler": {
    "name": "solc",
    "version": "0.4.18+commit.9cf6e910.Emscripten.clang"
  },
  "schemaVersion": "1.0.1",
  "updatedAt": "2018-01-31T14:00:03.629Z"
}