{
  "contractName": "ProposalCategory",
  "abi": [
    {
      "constant": true,
      "inputs": [
        {
          "name": "_categoryId",
          "type": "uint256"
        },
        {
          "name": "_index",
          "type": "uint256"
        }
      ],
      "name": "getClosingTimeByIndex",
      "outputs": [
        {
          "name": "closeTime",
          "type": "uint256"
        }
      ],
      "payable": false,
      "stateMutability": "view",
      "type": "function"
    },
    {
      "constant": true,
      "inputs": [
        {
          "name": "_categoryId",
          "type": "uint256"
        },
        {
          "name": "_index",
          "type": "uint8"
        }
      ],
      "name": "getCategoryData1",
      "outputs": [
        {
          "name": "index",
          "type": "uint256"
        },
        {
          "name": "roleName",
          "type": "bytes32"
        },
        {
          "name": "majorityVote",
          "type": "uint256"
        },
        {
          "name": "closingTime",
          "type": "uint24"
        }
      ],
      "payable": false,
      "stateMutability": "view",
      "type": "function"
    },
    {
      "constant": true,
      "inputs": [
        {
          "name": "_categoryId",
          "type": "uint256"
        },
        {
          "name": "_index",
          "type": "uint256"
        }
      ],
      "name": "getRoleMajorityVote",
      "outputs": [
        {
          "name": "majorityVote",
          "type": "uint256"
        }
      ],
      "payable": false,
      "stateMutability": "view",
      "type": "function"
    },
    {
      "constant": true,
      "inputs": [
        {
          "name": "_categoryId",
          "type": "uint256"
        }
      ],
      "name": "getClosingTimeLength",
      "outputs": [
        {
          "name": "closingTimeLength",
          "type": "uint256"
        }
      ],
      "payable": false,
      "stateMutability": "view",
      "type": "function"
    },
    {
      "constant": true,
      "inputs": [
        {
          "name": "_categoryId",
          "type": "uint256"
        }
      ],
      "name": "getRoleSequencLength",
      "outputs": [
        {
          "name": "roleLength",
          "type": "uint256"
        }
      ],
      "payable": false,
      "stateMutability": "view",
      "type": "function"
    },
    {
      "constant": true,
      "inputs": [
        {
          "name": "_categoryId",
          "type": "uint256"
        }
      ],
      "name": "getRoleMajorityVotelength",
      "outputs": [
        {
          "name": "majorityVoteLength",
          "type": "uint256"
        }
      ],
      "payable": false,
      "stateMutability": "view",
      "type": "function"
    },
    {
      "constant": true,
      "inputs": [
        {
          "name": "_categoryId",
          "type": "uint8"
        }
      ],
      "name": "getCategoryName",
      "outputs": [
        {
          "name": "",
          "type": "string"
        }
      ],
      "payable": false,
      "stateMutability": "view",
      "type": "function"
    },
    {
      "constant": true,
      "inputs": [
        {
          "name": "_categoryId",
          "type": "uint256"
        }
      ],
      "name": "getMaxStake",
      "outputs": [
        {
          "name": "",
          "type": "uint8"
        }
      ],
      "payable": false,
      "stateMutability": "view",
      "type": "function"
    },
    {
      "constant": true,
      "inputs": [
        {
          "name": "_categoryId",
          "type": "uint256"
        },
        {
          "name": "_index",
          "type": "uint256"
        }
      ],
      "name": "getCategoryParamNameUint",
      "outputs": [
        {
          "name": "",
          "type": "bytes32"
        }
      ],
      "payable": false,
      "stateMutability": "view",
      "type": "function"
    },
    {
      "constant": true,
      "inputs": [
        {
          "name": "_categoryId",
          "type": "uint256"
        }
      ],
      "name": "getMinStake",
      "outputs": [
        {
          "name": "",
          "type": "uint8"
        }
      ],
      "payable": false,
      "stateMutability": "view",
      "type": "function"
    },
    {
      "constant": false,
      "inputs": [
        {
          "name": "_categoryId",
          "type": "uint256"
        },
        {
          "name": "_uintParamName",
          "type": "bytes32[]"
        },
        {
          "name": "_bytesParamName",
          "type": "bytes32[]"
        },
        {
          "name": "_addressParamName",
          "type": "bytes32[]"
        },
        {
          "name": "_uintParameterDescHash",
          "type": "string"
        },
        {
          "name": "_bytesParameterDescHash",
          "type": "string"
        },
        {
          "name": "_addressParameterDescHash",
          "type": "string"
        }
      ],
      "name": "addCategoryParamsNameAndDesc",
      "outputs": [],
      "payable": false,
      "stateMutability": "nonpayable",
      "type": "function"
    },
    {
      "constant": true,
      "inputs": [],
      "name": "owner",
      "outputs": [
        {
          "name": "",
          "type": "address"
        }
      ],
      "payable": false,
      "stateMutability": "view",
      "type": "function"
    },
    {
      "constant": true,
      "inputs": [
        {
          "name": "_categoryId",
          "type": "uint256"
        },
        {
          "name": "_index",
          "type": "uint256"
        }
      ],
      "name": "getRoleSequencAtIndex",
      "outputs": [
        {
          "name": "roleId",
          "type": "uint256"
        }
      ],
      "payable": false,
      "stateMutability": "view",
      "type": "function"
    },
    {
      "constant": true,
      "inputs": [
        {
          "name": "_categoryId",
          "type": "uint256"
        }
      ],
      "name": "getCategoryDetails",
      "outputs": [
        {
          "name": "cateId",
          "type": "uint256"
        },
        {
          "name": "categoryName",
          "type": "string"
        },
        {
          "name": "functionName",
          "type": "string"
        },
        {
          "name": "contractAt",
          "type": "address"
        },
        {
          "name": "paramInt",
          "type": "uint8"
        },
        {
          "name": "paramBytes32",
          "type": "uint8"
        },
        {
          "name": "paramAddress",
          "type": "uint8"
        },
        {
          "name": "memberRoleSequence",
          "type": "uint8[]"
        },
        {
          "name": "memberRoleMajorityVote",
          "type": "uint256[]"
        }
      ],
      "payable": false,
      "stateMutability": "view",
      "type": "function"
    },
    {
      "constant": false,
      "inputs": [
        {
          "name": "_MRAddress",
          "type": "address"
        }
      ],
      "name": "ProposalCategoryInitiate",
      "outputs": [],
      "payable": false,
      "stateMutability": "nonpayable",
      "type": "function"
    },
    {
      "constant": false,
      "inputs": [
        {
          "name": "_categoryName",
          "type": "string"
        },
        {
          "name": "_functionName",
          "type": "string"
        },
        {
          "name": "_contractAt",
          "type": "address"
        },
        {
          "name": "_paramInt",
          "type": "uint8"
        },
        {
          "name": "_paramBytes32",
          "type": "uint8"
        },
        {
          "name": "_paramAddress",
          "type": "uint8"
        },
        {
          "name": "_memberRoleSequence",
          "type": "uint8[]"
        },
        {
          "name": "_memberRoleMajorityVote",
          "type": "uint256[]"
        },
        {
          "name": "_closingTime",
          "type": "uint24[]"
        },
        {
          "name": "_minStake",
          "type": "uint8"
        },
        {
          "name": "_maxStake",
          "type": "uint8"
        }
      ],
      "name": "addNewCategory",
      "outputs": [],
      "payable": false,
      "stateMutability": "nonpayable",
      "type": "function"
    },
    {
      "constant": true,
      "inputs": [
        {
          "name": "_categoryId",
          "type": "uint256"
        }
      ],
      "name": "getCategoryParamHashBytes",
      "outputs": [
        {
          "name": "",
          "type": "string"
        }
      ],
      "payable": false,
      "stateMutability": "view",
      "type": "function"
    },
    {
      "constant": false,
      "inputs": [
        {
          "name": "_MRContractAddress",
          "type": "address"
        }
      ],
      "name": "changeAllContractsAddress",
      "outputs": [],
      "payable": false,
      "stateMutability": "nonpayable",
      "type": "function"
    },
    {
      "constant": true,
      "inputs": [
        {
          "name": "_categoryId",
          "type": "uint256"
        },
        {
          "name": "_index",
          "type": "uint256"
        }
      ],
      "name": "getCategoryParamNameBytes",
      "outputs": [
        {
          "name": "",
          "type": "bytes32"
        }
      ],
      "payable": false,
      "stateMutability": "view",
      "type": "function"
    },
    {
      "constant": false,
      "inputs": [
        {
          "name": "_proposalId",
          "type": "uint256"
        },
        {
          "name": "_categoryId",
          "type": "uint256"
        }
      ],
      "name": "actionAfterProposalPass",
      "outputs": [],
      "payable": false,
      "stateMutability": "nonpayable",
      "type": "function"
    },
    {
      "constant": true,
      "inputs": [
        {
          "name": "_categoryId",
          "type": "uint256"
        },
        {
          "name": "_index",
          "type": "uint256"
        }
      ],
      "name": "getCategoryParamNameAddress",
      "outputs": [
        {
          "name": "",
          "type": "bytes32"
        }
      ],
      "payable": false,
      "stateMutability": "view",
      "type": "function"
    },
    {
      "constant": true,
      "inputs": [
        {
          "name": "",
          "type": "uint256"
        }
      ],
      "name": "allCategory",
      "outputs": [
        {
          "name": "categoryName",
          "type": "string"
        },
        {
          "name": "functionName",
          "type": "string"
        },
        {
          "name": "contractAt",
          "type": "address"
        },
        {
          "name": "paramInt",
          "type": "uint8"
        },
        {
          "name": "paramBytes32",
          "type": "uint8"
        },
        {
          "name": "paramAddress",
          "type": "uint8"
        },
        {
          "name": "minStake",
          "type": "uint8"
        },
        {
          "name": "maxStake",
          "type": "uint8"
        }
      ],
      "payable": false,
      "stateMutability": "view",
      "type": "function"
    },
    {
      "constant": true,
      "inputs": [
        {
          "name": "_categoryId",
          "type": "uint256"
        }
      ],
      "name": "getCategoryParamHashUint",
      "outputs": [
        {
          "name": "",
          "type": "string"
        }
      ],
      "payable": false,
      "stateMutability": "view",
      "type": "function"
    },
    {
      "constant": true,
      "inputs": [
        {
          "name": "_categoryId",
          "type": "uint256"
        }
      ],
      "name": "getCategoryParamHashAddress",
      "outputs": [
        {
          "name": "",
          "type": "string"
        }
      ],
      "payable": false,
      "stateMutability": "view",
      "type": "function"
    },
    {
      "constant": false,
      "inputs": [
        {
          "name": "newOwner",
          "type": "address"
        }
      ],
      "name": "transferOwnership",
      "outputs": [],
      "payable": false,
      "stateMutability": "nonpayable",
      "type": "function"
    },
    {
      "constant": true,
      "inputs": [],
      "name": "getCategoriesLength",
      "outputs": [
        {
          "name": "length",
          "type": "uint256"
        }
      ],
      "payable": false,
      "stateMutability": "view",
      "type": "function"
    },
    {
      "constant": false,
      "inputs": [
        {
          "name": "_categoryId",
          "type": "uint256"
        },
        {
          "name": "_functionName",
          "type": "string"
        },
        {
          "name": "_contractAt",
          "type": "address"
        },
        {
          "name": "_paramInt",
          "type": "uint8"
        },
        {
          "name": "_paramBytes32",
          "type": "uint8"
        },
        {
          "name": "_paramAddress",
          "type": "uint8"
        },
        {
          "name": "_memberRoleSequence",
          "type": "uint8[]"
        },
        {
          "name": "_memberRoleMajorityVote",
          "type": "uint256[]"
        },
        {
          "name": "_closingTime",
          "type": "uint24[]"
        },
        {
          "name": "_minStake",
          "type": "uint8"
        },
        {
          "name": "_maxStake",
          "type": "uint8"
        }
      ],
      "name": "updateCategory",
      "outputs": [],
      "payable": false,
      "stateMutability": "nonpayable",
      "type": "function"
    },
    {
      "anonymous": false,
      "inputs": [
        {
          "indexed": true,
          "name": "previousOwner",
          "type": "address"
        },
        {
          "indexed": true,
          "name": "newOwner",
          "type": "address"
        }
      ],
      "name": "OwnershipTransferred",
      "type": "event"
    }
  ],
  "bytecode": "0x6060604052336000806101000a81548173ffffffffffffffffffffffffffffffffffffffff021916908373ffffffffffffffffffffffffffffffffffffffff1602179055506139a0806100536000396000f30060606040526004361061015f576000357c0100000000000000000000000000000000000000000000000000000000900463ffffffff16806302685f61146101645780630292b028146101a457806302e929c81461020e5780630c55ecd81461024e57806318b0211b1461028557806325be5de3146102bc5780633f9a61e0146102f357806354dacca71461039257806371365629146103cf57806373f231e7146104175780637cb719ae146104545780638da5cb5b146106005780639deeab2014610655578063b0a4aaee14610695578063b3f4ccb11461088e578063be0bdb57146108c7578063c150d22314610a82578063d6b1086114610b1e578063d7fa79ac14610b57578063db0c4f7914610b9f578063dfa4afc614610bcb578063dff5f32214610c13578063e4d9afdb14610dc9578063e62ddb7214610e65578063f2fde38b14610f01578063f6d9615f14610f3a578063fd1c9bde14610f63575b600080fd5b341561016f57600080fd5b61018e60048080359060200190919080359060200190919050506110e4565b6040518082815260200191505060405180910390f35b34156101af57600080fd5b6101d1600480803590602001909190803560ff16906020019091905050611145565b6040518085815260200184600019166000191681526020018381526020018262ffffff1662ffffff16815260200194505050505060405180910390f35b341561021957600080fd5b610238600480803590602001909190803590602001909190505061135a565b6040518082815260200191505060405180910390f35b341561025957600080fd5b61026f600480803590602001909190505061139d565b6040518082815260200191505060405180910390f35b341561029057600080fd5b6102a660048080359060200190919050506113ca565b6040518082815260200191505060405180910390f35b34156102c757600080fd5b6102dd60048080359060200190919050506113f7565b6040518082815260200191505060405180910390f35b34156102fe57600080fd5b610317600480803560ff16906020019091905050611424565b6040518080602001828103825283818151815260200191508051906020019080838360005b8381101561035757808201518184015260208101905061033c565b50505050905090810190601f1680156103845780820380516001836020036101000a031916815260200191505b509250505060405180910390f35b341561039d57600080fd5b6103b360048080359060200190919050506114ef565b604051808260ff1660ff16815260200191505060405180910390f35b34156103da57600080fd5b6103f96004808035906020019091908035906020019091905050611526565b60405180826000191660001916815260200191505060405180910390f35b341561042257600080fd5b6104386004808035906020019091905050611569565b604051808260ff1660ff16815260200191505060405180910390f35b341561045f57600080fd5b6105fe600480803590602001909190803590602001908201803590602001908080602002602001604051908101604052809392919081815260200183836020028082843782019150505050505091908035906020019082018035906020019080806020026020016040519081016040528093929190818152602001838360200280828437820191505050505050919080359060200190820180359060200190808060200260200160405190810160405280939291908181526020018383602002808284378201915050505050509190803590602001908201803590602001908080601f0160208091040260200160405190810160405280939291908181526020018383808284378201915050505050509190803590602001908201803590602001908080601f0160208091040260200160405190810160405280939291908181526020018383808284378201915050505050509190803590602001908201803590602001908080601f016020809104026020016040519081016040528093929190818152602001838380828437820191505050505050919050506115a0565b005b341561060b57600080fd5b610613611775565b604051808273ffffffffffffffffffffffffffffffffffffffff1673ffffffffffffffffffffffffffffffffffffffff16815260200191505060405180910390f35b341561066057600080fd5b61067f600480803590602001909190803590602001909190505061179a565b6040518082815260200191505060405180910390f35b34156106a057600080fd5b6106b660048080359060200190919050506117f4565b604051808a815260200180602001806020018973ffffffffffffffffffffffffffffffffffffffff1673ffffffffffffffffffffffffffffffffffffffff1681526020018860ff1660ff1681526020018760ff1660ff1681526020018660ff1660ff168152602001806020018060200185810385528d818151815260200191508051906020019080838360005b8381101561075e578082015181840152602081019050610743565b50505050905090810190601f16801561078b5780820380516001836020036101000a031916815260200191505b5085810384528c818151815260200191508051906020019080838360005b838110156107c45780820151818401526020810190506107a9565b50505050905090810190601f1680156107f15780820380516001836020036101000a031916815260200191505b50858103835287818151815260200191508051906020019060200280838360005b8381101561082d578082015181840152602081019050610812565b50505050905001858103825286818151815260200191508051906020019060200280838360005b8381101561086f578082015181840152602081019050610854565b505050509050019d505050505050505050505050505060405180910390f35b341561089957600080fd5b6108c5600480803573ffffffffffffffffffffffffffffffffffffffff16906020019091905050611b7d565b005b34156108d257600080fd5b610a80600480803590602001908201803590602001908080601f0160208091040260200160405190810160405280939291908181526020018383808284378201915050505050509190803590602001908201803590602001908080601f0160208091040260200160405190810160405280939291908181526020018383808284378201915050505050509190803573ffffffffffffffffffffffffffffffffffffffff1690602001909190803560ff1690602001909190803560ff1690602001909190803560ff1690602001909190803590602001908201803590602001908080602002602001604051908101604052809392919081815260200183836020028082843782019150505050505091908035906020019082018035906020019080806020026020016040519081016040528093929190818152602001838360200280828437820191505050505050919080359060200190820180359060200190808060200260200160405190810160405280939291908181526020018383602002808284378201915050505050509190803560ff1690602001909190803560ff16906020019091905050611dbd565b005b3415610a8d57600080fd5b610aa36004808035906020019091905050612060565b6040518080602001828103825283818151815260200191508051906020019080838360005b83811015610ae3578082015181840152602081019050610ac8565b50505050905090810190601f168015610b105780820380516001836020036101000a031916815260200191505b509250505060405180910390f35b3415610b2957600080fd5b610b55600480803573ffffffffffffffffffffffffffffffffffffffff16906020019091905050612128565b005b3415610b6257600080fd5b610b81600480803590602001909190803590602001909190505061216c565b60405180826000191660001916815260200191505060405180910390f35b3415610baa57600080fd5b610bc960048080359060200190919080359060200190919050506121af565b005b3415610bd657600080fd5b610bf560048080359060200190919080359060200190919050506122f9565b60405180826000191660001916815260200191505060405180910390f35b3415610c1e57600080fd5b610c34600480803590602001909190505061233c565b6040518080602001806020018973ffffffffffffffffffffffffffffffffffffffff1673ffffffffffffffffffffffffffffffffffffffff1681526020018860ff1660ff1681526020018760ff1660ff1681526020018660ff1660ff1681526020018560ff1660ff1681526020018460ff1660ff16815260200183810383528b818154600181600116156101000203166002900481526020019150805460018160011615610100020316600290048015610d2f5780601f10610d0457610100808354040283529160200191610d2f565b820191906000526020600020905b815481529060010190602001808311610d1257829003601f168201915b505083810382528a818154600181600116156101000203166002900481526020019150805460018160011615610100020316600290048015610db25780601f10610d8757610100808354040283529160200191610db2565b820191906000526020600020905b815481529060010190602001808311610d9557829003601f168201915b50509a505050505050505050505060405180910390f35b3415610dd457600080fd5b610dea60048080359060200190919050506123f2565b6040518080602001828103825283818151815260200191508051906020019080838360005b83811015610e2a578082015181840152602081019050610e0f565b50505050905090810190601f168015610e575780820380516001836020036101000a031916815260200191505b509250505060405180910390f35b3415610e7057600080fd5b610e8660048080359060200190919050506124ba565b6040518080602001828103825283818151815260200191508051906020019080838360005b83811015610ec6578082015181840152602081019050610eab565b50505050905090810190601f168015610ef35780820380516001836020036101000a031916815260200191505b509250505060405180910390f35b3415610f0c57600080fd5b610f38600480803573ffffffffffffffffffffffffffffffffffffffff16906020019091905050612582565b005b3415610f4557600080fd5b610f4d6126d7565b6040518082815260200191505060405180910390f35b3415610f6e57600080fd5b6110e2600480803590602001909190803590602001908201803590602001908080601f0160208091040260200160405190810160405280939291908181526020018383808284378201915050505050509190803573ffffffffffffffffffffffffffffffffffffffff1690602001909190803560ff1690602001909190803560ff1690602001909190803560ff1690602001909190803590602001908201803590602001908080602002602001604051908101604052809392919081815260200183836020028082843782019150505050505091908035906020019082018035906020019080806020026020016040519081016040528093929190818152602001838360200280828437820191505050505050919080359060200190820180359060200190808060200260200160405190810160405280939291908181526020018383602002808284378201915050505050509190803560ff1690602001909190803560ff169060200190919050506126e4565b005b60006001838154811015156110f557fe5b90600052602060002090600702016005018281548110151561111357fe5b90600052602060002090600a91828204019190066003029054906101000a900462ffffff1662ffffff16905092915050565b600080600080600660009054906101000a900473ffffffffffffffffffffffffffffffffffffffff16600560006101000a81548173ffffffffffffffffffffffffffffffffffffffff021916908373ffffffffffffffffffffffffffffffffffffffff1602179055508460ff169350600560009054906101000a900473ffffffffffffffffffffffffffffffffffffffff1673ffffffffffffffffffffffffffffffffffffffff16631ee10b3660018881548110151561120157fe5b90600052602060002090600702016003018760ff1681548110151561122257fe5b90600052602060002090602091828204019190069054906101000a900460ff166000604051602001526040518263ffffffff167c0100000000000000000000000000000000000000000000000000000000028152600401808260ff168152602001915050602060405180830381600087803b151561129f57600080fd5b6102c65a03f115156112b057600080fd5b5050506040518051905092506001868154811015156112cb57fe5b90600052602060002090600702016004018560ff168154811015156112ec57fe5b906000526020600020900154915060018681548110151561130957fe5b90600052602060002090600702016005018560ff1681548110151561132a57fe5b90600052602060002090600a91828204019190066003029054906101000a900462ffffff16905092959194509250565b600060018381548110151561136b57fe5b90600052602060002090600702016004018281548110151561138957fe5b906000526020600020900154905092915050565b60006001828154811015156113ae57fe5b9060005260206000209060070201600501805490509050919050565b60006001828154811015156113db57fe5b9060005260206000209060070201600301805490509050919050565b600060018281548110151561140857fe5b9060005260206000209060070201600401805490509050919050565b61142c613180565b60018260ff1681548110151561143e57fe5b90600052602060002090600702016000018054600181600116156101000203166002900480601f0160208091040260200160405190810160405280929190818152602001828054600181600116156101000203166002900480156114e35780601f106114b8576101008083540402835291602001916114e3565b820191906000526020600020905b8154815290600101906020018083116114c657829003601f168201915b50505050509050919050565b600060018281548110151561150057fe5b906000526020600020906007020160060160019054906101000a900460ff169050919050565b600060028381548110151561153757fe5b90600052602060002090600202016000018281548110151561155557fe5b906000526020600020900154905092915050565b600060018281548110151561157a57fe5b906000526020600020906007020160060160009054906101000a900460ff169050919050565b6000809054906101000a900473ffffffffffffffffffffffffffffffffffffffff1673ffffffffffffffffffffffffffffffffffffffff163373ffffffffffffffffffffffffffffffffffffffff161415156115fb57600080fd5b6002805480600101828161160f9190613194565b9160005260206000209060020201600060408051908101604052808a815260200187815250909190915060008201518160000190805190602001906116559291906131c6565b506020820151816001019080519060200190611672929190613219565b505050506003805480600101828161168a9190613194565b91600052602060002090600202016000604080519081016040528089815260200186815250909190915060008201518160000190805190602001906116d09291906131c6565b5060208201518160010190805190602001906116ed929190613219565b50505050600480548060010182816117059190613194565b916000526020600020906002020160006040805190810160405280888152602001858152509091909150600082015181600001908051906020019061174b9291906131c6565b506020820151816001019080519060200190611768929190613219565b5050505050505050505050565b6000809054906101000a900473ffffffffffffffffffffffffffffffffffffffff1681565b60006001838154811015156117ab57fe5b9060005260206000209060070201600301828154811015156117c957fe5b90600052602060002090602091828204019190069054906101000a900460ff1660ff16905092915050565b60006117fe613180565b611806613180565b600080600080611814613299565b61181c6132ad565b89985060018a81548110151561182e57fe5b90600052602060002090600702016000018054600181600116156101000203166002900480601f0160208091040260200160405190810160405280929190818152602001828054600181600116156101000203166002900480156118d35780601f106118a8576101008083540402835291602001916118d3565b820191906000526020600020905b8154815290600101906020018083116118b657829003601f168201915b5050505050975060018a8154811015156118e957fe5b90600052602060002090600702016001018054600181600116156101000203166002900480601f01602080910402602001604051908101604052809291908181526020018280546001816001161561010002031660029004801561198e5780601f106119635761010080835404028352916020019161198e565b820191906000526020600020905b81548152906001019060200180831161197157829003601f168201915b5050505050965060018a8154811015156119a457fe5b906000526020600020906007020160020160009054906101000a900473ffffffffffffffffffffffffffffffffffffffff16955060018a8154811015156119e757fe5b906000526020600020906007020160020160149054906101000a900460ff16945060018a815481101515611a1757fe5b906000526020600020906007020160020160159054906101000a900460ff16935060018a815481101515611a4757fe5b906000526020600020906007020160020160169054906101000a900460ff16925060018a815481101515611a7757fe5b9060005260206000209060070201600301805480602002602001604051908101604052809291908181526020018280548015611af857602002820191906000526020600020906000905b82829054906101000a900460ff1660ff1681526020019060010190602082600001049283019260010382029150808411611ac15790505b5050505050915060018a815481101515611b0e57fe5b9060005260206000209060070201600401805480602002602001604051908101604052809291908181526020018280548015611b6957602002820191906000526020600020905b815481526020019060010190808311611b55575b505050505090509193959799909294969850565b6000600280549050148015611b9757506000600380549050145b8015611ba857506000600480549050145b1515611bb357600080fd5b60028054806001018281611bc79190613194565b9160005260206000209060020201600060408051908101604052806000604051805910611bf15750595b90808252806020026020018201604052508152602001602060405190810160405280600081525081525090919091506000820151816000019080519060200190611c3c9291906131c6565b506020820151816001019080519060200190611c59929190613219565b5050505060038054806001018281611c719190613194565b9160005260206000209060020201600060408051908101604052806000604051805910611c9b5750595b90808252806020026020018201604052508152602001602060405190810160405280600081525081525090919091506000820151816000019080519060200190611ce69291906131c6565b506020820151816001019080519060200190611d03929190613219565b5050505060048054806001018281611d1b9190613194565b9160005260206000209060020201600060408051908101604052806000604051805910611d455750595b90808252806020026020018201604052508152602001602060405190810160405280600081525081525090919091506000820151816000019080519060200190611d909291906131c6565b506020820151816001019080519060200190611dad929190613219565b50505050611dba81612b6d565b50565b6000809054906101000a900473ffffffffffffffffffffffffffffffffffffffff1673ffffffffffffffffffffffffffffffffffffffff163373ffffffffffffffffffffffffffffffffffffffff16141515611e1857600080fd5b83518551148015611e2a575082518551145b1515611e3557600080fd5b60018054806001018281611e4991906132c1565b91600052602060002090600702016000610160604051908101604052808f81526020018e81526020018d73ffffffffffffffffffffffffffffffffffffffff1681526020018c60ff1681526020018b60ff1681526020018a60ff1681526020018981526020018881526020018781526020018660ff1681526020018560ff1681525090919091506000820151816000019080519060200190611eec929190613219565b506020820151816001019080519060200190611f09929190613219565b5060408201518160020160006101000a81548173ffffffffffffffffffffffffffffffffffffffff021916908373ffffffffffffffffffffffffffffffffffffffff16021790555060608201518160020160146101000a81548160ff021916908360ff16021790555060808201518160020160156101000a81548160ff021916908360ff16021790555060a08201518160020160166101000a81548160ff021916908360ff16021790555060c0820151816003019080519060200190611fd09291906132f3565b5060e0820151816004019080519060200190611fed92919061339a565b5061010082015181600501908051906020019061200b9291906133e7565b506101208201518160060160006101000a81548160ff021916908360ff1602179055506101408201518160060160016101000a81548160ff021916908360ff1602179055505050505050505050505050505050565b612068613180565b60038281548110151561207757fe5b90600052602060002090600202016001018054600181600116156101000203166002900480601f01602080910402602001604051908101604052809291908181526020018280546001816001161561010002031660029004801561211c5780601f106120f15761010080835404028352916020019161211c565b820191906000526020600020905b8154815290600101906020018083116120ff57829003601f168201915b50505050509050919050565b80600660006101000a81548173ffffffffffffffffffffffffffffffffffffffff021916908373ffffffffffffffffffffffffffffffffffffffff16021790555050565b600060038381548110151561217d57fe5b90600052602060002090600202016000018281548110151561219b57fe5b906000526020600020900154905092915050565b60006121ba826117f4565b909192939495969750909192939495965090919293949550909192935090919250909150905050809150508073ffffffffffffffffffffffffffffffffffffffff1660018381548110151561220b57fe5b906000526020600020906007020160010160405180828054600181600116156101000203166002900480156122775780601f10612255576101008083540402835291820191612277565b820191906000526020600020905b815481529060010190602001808311612263575b505091505060405180910390207c01000000000000000000000000000000000000000000000000000000009004846040518263ffffffff167c01000000000000000000000000000000000000000000000000000000000281526004018082815260200191505060006040518083038160008761646e5a03f19250505050505050565b600060048381548110151561230a57fe5b90600052602060002090600202016000018281548110151561232857fe5b906000526020600020900154905092915050565b60018181548110151561234b57fe5b9060005260206000209060070201600091509050806000019080600101908060020160009054906101000a900473ffffffffffffffffffffffffffffffffffffffff16908060020160149054906101000a900460ff16908060020160159054906101000a900460ff16908060020160169054906101000a900460ff16908060060160009054906101000a900460ff16908060060160019054906101000a900460ff16905088565b6123fa613180565b60028281548110151561240957fe5b90600052602060002090600202016001018054600181600116156101000203166002900480601f0160208091040260200160405190810160405280929190818152602001828054600181600116156101000203166002900480156124ae5780601f10612483576101008083540402835291602001916124ae565b820191906000526020600020905b81548152906001019060200180831161249157829003601f168201915b50505050509050919050565b6124c2613180565b6004828154811015156124d157fe5b90600052602060002090600202016001018054600181600116156101000203166002900480601f0160208091040260200160405190810160405280929190818152602001828054600181600116156101000203166002900480156125765780601f1061254b57610100808354040283529160200191612576565b820191906000526020600020905b81548152906001019060200180831161255957829003601f168201915b50505050509050919050565b6000809054906101000a900473ffffffffffffffffffffffffffffffffffffffff1673ffffffffffffffffffffffffffffffffffffffff163373ffffffffffffffffffffffffffffffffffffffff161415156125dd57600080fd5b600073ffffffffffffffffffffffffffffffffffffffff168173ffffffffffffffffffffffffffffffffffffffff161415151561261957600080fd5b8073ffffffffffffffffffffffffffffffffffffffff166000809054906101000a900473ffffffffffffffffffffffffffffffffffffffff1673ffffffffffffffffffffffffffffffffffffffff167f8be0079c531659141344cd1fd0a4f28419497f9722a3daafe3b4186f6b6457e060405160405180910390a3806000806101000a81548173ffffffffffffffffffffffffffffffffffffffff021916908373ffffffffffffffffffffffffffffffffffffffff16021790555050565b6000600180549050905090565b60008060009054906101000a900473ffffffffffffffffffffffffffffffffffffffff1673ffffffffffffffffffffffffffffffffffffffff163373ffffffffffffffffffffffffffffffffffffffff1614151561274157600080fd5b84518651148015612753575083518651145b151561275e57600080fd5b8a60018d81548110151561276e57fe5b90600052602060002090600702016001019080519060200190612792929190613494565b508960018d8154811015156127a357fe5b906000526020600020906007020160020160006101000a81548173ffffffffffffffffffffffffffffffffffffffff021916908373ffffffffffffffffffffffffffffffffffffffff1602179055508860018d81548110151561280257fe5b906000526020600020906007020160020160146101000a81548160ff021916908360ff1602179055508760018d81548110151561283b57fe5b906000526020600020906007020160020160156101000a81548160ff021916908360ff1602179055508660018d81548110151561287457fe5b906000526020600020906007020160020160166101000a81548160ff021916908360ff1602179055508260018d8154811015156128ad57fe5b906000526020600020906007020160060160006101000a81548160ff021916908360ff1602179055508160018d8154811015156128e657fe5b906000526020600020906007020160060160016101000a81548160ff021916908360ff160217905550855160405180591061291e5750595b908082528060200260200182016040525060018d81548110151561293e57fe5b90600052602060002090600702016003019080519060200190612962929190613514565b5084516040518059106129725750595b908082528060200260200182016040525060018d81548110151561299257fe5b906000526020600020906007020160040190805190602001906129b69291906135bb565b5083516040518059106129c65750595b908082528060200260200182016040525060018d8154811015156129e657fe5b90600052602060002090600702016005019080519060200190612a0a929190613608565b50600090505b8551811015612b5f578581815181101515612a2757fe5b9060200190602002015160018d815481101515612a4057fe5b906000526020600020906007020160030182815481101515612a5e57fe5b90600052602060002090602091828204019190066101000a81548160ff021916908360ff1602179055508481815181101515612a9657fe5b9060200190602002015160018d815481101515612aaf57fe5b906000526020600020906007020160040182815481101515612acd57fe5b9060005260206000209001819055508381815181101515612aea57fe5b9060200190602002015160018d815481101515612b0357fe5b906000526020600020906007020160050182815481101515612b2157fe5b90600052602060002090600a91828204019190066003026101000a81548162ffffff021916908362ffffff1602179055508080600101915050612a10565b505050505050505050505050565b60018054806001018281612b8191906132c1565b91600052602060002090600702016000610160604051908101604052806040805190810160405280600d81526020017f556e63617465676f72697a656400000000000000000000000000000000000000815250815260200160206040519081016040528060008152508152602001600073ffffffffffffffffffffffffffffffffffffffff168152602001600060ff168152602001600060ff168152602001600060ff1681526020016000604051805910612c395750595b908082528060200260200182016040525081526020016000604051805910612c5e5750595b908082528060200260200182016040525081526020016000604051805910612c835750595b90808252806020026020018201604052508152602001600060ff168152602001600060ff1681525090919091506000820151816000019080519060200190612ccc929190613219565b506020820151816001019080519060200190612ce9929190613219565b5060408201518160020160006101000a81548173ffffffffffffffffffffffffffffffffffffffff021916908373ffffffffffffffffffffffffffffffffffffffff16021790555060608201518160020160146101000a81548160ff021916908360ff16021790555060808201518160020160156101000a81548160ff021916908360ff16021790555060a08201518160020160166101000a81548160ff021916908360ff16021790555060c0820151816003019080519060200190612db09291906132f3565b5060e0820151816004019080519060200190612dcd92919061339a565b50610100820151816005019080519060200190612deb9291906133e7565b506101208201518160060160006101000a81548160ff021916908360ff1602179055506101408201518160060160016101000a81548160ff021916908360ff16021790555050505060018054806001018281612e4791906132c1565b91600052602060002090600702016000610160604051908101604052806040805190810160405280601381526020017f416464206e6577206d656d62657220726f6c650000000000000000000000000081525081526020016040805190810160405280601981526020017f6164644e65774d656d626572526f6c65286279746573333229000000000000008152508152602001600073ffffffffffffffffffffffffffffffffffffffff168152602001600060ff168152602001600160ff168152602001600060ff1681526020016000604051805910612f245750595b908082528060200260200182016040525081526020016000604051805910612f495750595b908082528060200260200182016040525081526020016000604051805910612f6e5750595b90808252806020026020018201604052508152602001600060ff168152602001600a60ff1681525090919091506000820151816000019080519060200190612fb7929190613219565b506020820151816001019080519060200190612fd4929190613219565b5060408201518160020160006101000a81548173ffffffffffffffffffffffffffffffffffffffff021916908373ffffffffffffffffffffffffffffffffffffffff16021790555060608201518160020160146101000a81548160ff021916908360ff16021790555060808201518160020160156101000a81548160ff021916908360ff16021790555060a08201518160020160166101000a81548160ff021916908360ff16021790555060c082015181600301908051906020019061309b9291906132f3565b5060e08201518160040190805190602001906130b892919061339a565b506101008201518160050190805190602001906130d69291906133e7565b506101208201518160060160006101000a81548160ff021916908360ff1602179055506101408201518160060160016101000a81548160ff021916908360ff1602179055505050508060018081548110151561312e57fe5b906000526020600020906007020160020160006101000a81548173ffffffffffffffffffffffffffffffffffffffff021916908373ffffffffffffffffffffffffffffffffffffffff16021790555050565b602060405190810160405280600081525090565b8154818355818115116131c1576002028160020283600052602060002091820191016131c091906136b5565b5b505050565b828054828255906000526020600020908101928215613208579160200282015b828111156132075782518290600019169055916020019190600101906131e6565b5b50905061321591906136f4565b5090565b828054600181600116156101000203166002900490600052602060002090601f016020900481019282601f1061325a57805160ff1916838001178555613288565b82800160010185558215613288579182015b8281111561328757825182559160200191906001019061326c565b5b5090506132959190613719565b5090565b602060405190810160405280600081525090565b602060405190810160405280600081525090565b8154818355818115116132ee576007028160070283600052602060002091820191016132ed919061373e565b5b505050565b82805482825590600052602060002090601f016020900481019282156133895791602002820160005b8382111561335a57835183826101000a81548160ff021916908360ff160217905550926020019260010160208160000104928301926001030261331c565b80156133875782816101000a81549060ff021916905560010160208160000104928301926001030261335a565b505b5090506133969190613838565b5090565b8280548282559060005260206000209081019282156133d6579160200282015b828111156133d55782518255916020019190600101906133ba565b5b5090506133e39190613719565b5090565b82805482825590600052602060002090600901600a900481019282156134835791602002820160005b8382111561345257835183826101000a81548162ffffff021916908362ffffff1602179055509260200192600301602081600201049283019260010302613410565b80156134815782816101000a81549062ffffff0219169055600301602081600201049283019260010302613452565b505b5090506134909190613868565b5090565b828054600181600116156101000203166002900490600052602060002090601f016020900481019282601f106134d557805160ff1916838001178555613503565b82800160010185558215613503579182015b828111156135025782518255916020019190600101906134e7565b5b5090506135109190613719565b5090565b82805482825590600052602060002090601f016020900481019282156135aa5791602002820160005b8382111561357b57835183826101000a81548160ff021916908360ff160217905550926020019260010160208160000104928301926001030261353d565b80156135a85782816101000a81549060ff021916905560010160208160000104928301926001030261357b565b505b5090506135b79190613838565b5090565b8280548282559060005260206000209081019282156135f7579160200282015b828111156135f65782518255916020019190600101906135db565b5b5090506136049190613719565b5090565b82805482825590600052602060002090600901600a900481019282156136a45791602002820160005b8382111561367357835183826101000a81548162ffffff021916908362ffffff1602179055509260200192600301602081600201049283019260010302613631565b80156136a25782816101000a81549062ffffff0219169055600301602081600201049283019260010302613673565b505b5090506136b19190613868565b5090565b6136f191905b808211156136ed57600080820160006136d4919061389a565b6001820160006136e491906138bb565b506002016136bb565b5090565b90565b61371691905b808211156137125760008160009055506001016136fa565b5090565b90565b61373b91905b8082111561373757600081600090555060010161371f565b5090565b90565b61383591905b80821115613831576000808201600061375d91906138bb565b60018201600061376d91906138bb565b6002820160006101000a81549073ffffffffffffffffffffffffffffffffffffffff02191690556002820160146101000a81549060ff02191690556002820160156101000a81549060ff02191690556002820160166101000a81549060ff02191690556003820160006137e09190613903565b6004820160006137f0919061392b565b600582016000613800919061394c565b6006820160006101000a81549060ff02191690556006820160016101000a81549060ff021916905550600701613744565b5090565b90565b61386591905b8082111561386157600081816101000a81549060ff02191690555060010161383e565b5090565b90565b61389791905b8082111561389357600081816101000a81549062ffffff02191690555060010161386e565b5090565b90565b50805460008255906000526020600020908101906138b891906136f4565b50565b50805460018160011615610100020316600290046000825580601f106138e15750613900565b601f0160209004906000526020600020908101906138ff9190613719565b5b50565b50805460008255601f0160209004906000526020600020908101906139289190613719565b50565b50805460008255906000526020600020908101906139499190613719565b50565b50805460008255600901600a9004906000526020600020908101906139719190613719565b505600a165627a7a7230582095f557cc280b96c0806a1945946942cd008b3b6043eee88fe97be598917af4fd0029",
  "source": "/* Copyright (C) 2017 GovBlocks.io\r\n\r\n  This program is free software: you can redistribute it and/or modify\r\n    it under the terms of the GNU General Public License as published by\r\n    the Free Software Foundation, either version 3 of the License, or\r\n    (at your option) any later version.\r\n\r\n  This program is distributed in the hope that it will be useful,\r\n    but WITHOUT ANY WARRANTY; without even the implied warranty of\r\n    MERCHANTABILITY or FITNESS FOR A PARTICULAR PURPOSE.  See the\r\n    GNU General Public License for more details.\r\n\r\n  You should have received a copy of the GNU General Public License\r\n    along with this program.  If not, see http://www.gnu.org/licenses/ */\r\npragma solidity ^0.4.8;\r\n// import \"./Ownable.sol\";\r\nimport \"./MemberRoles.sol\";\r\nimport \"./zeppelin-solidity/contracts/ownership/Ownable.sol\";\r\n\r\ncontract ProposalCategory is Ownable\r\n{\r\n    struct category{\r\n        string categoryName;\r\n        string functionName;\r\n        address contractAt;\r\n        uint8 paramInt;\r\n        uint8 paramBytes32;\r\n        uint8 paramAddress;\r\n        uint8[] memberRoleSequence;\r\n        uint[] memberRoleMajorityVote;\r\n        uint24[] closingTime;\r\n        uint8 minStake;\r\n        uint8 maxStake;\r\n    }\r\n\r\n    struct categoryParams\r\n    {\r\n        bytes32[] parameterName;\r\n        string parameterDescHash;\r\n    }\r\n\r\n    category[] public allCategory;\r\n\r\n    categoryParams[] uintParam;\r\n    categoryParams[] bytesParam;\r\n    categoryParams[] addressParam;\r\n    MemberRoles MR;\r\n    address MRAddress;\r\n\r\n    function changeAllContractsAddress(address _MRContractAddress)\r\n    {\r\n        MRAddress = _MRContractAddress;\r\n    }\r\n\r\n    function ProposalCategoryInitiate(address _MRAddress)\r\n    {\r\n        require(uintParam.length == 0 && bytesParam.length == 0 && addressParam.length == 0);\r\n        uintParam.push(categoryParams(new bytes32[](0),\"\"));\r\n        bytesParam.push(categoryParams(new bytes32[](0),\"\"));\r\n        addressParam.push(categoryParams(new bytes32[](0),\"\"));\r\n        addCategory(_MRAddress);\r\n    }\r\n\r\n    function addCategory(address _MRAddress) internal\r\n    {\r\n        allCategory.push(category(\"Uncategorized\",\"\",0x00,0,0,0,new uint8[](0),new uint[](0),new uint24[](0),0,0));\r\n        allCategory.push(category(\"Add new member role\",\"addNewMemberRole(bytes32)\",0x00,0,1,0,new uint8[](0),new uint[](0),new uint24[](0),0,10));\r\n        allCategory[1].contractAt = _MRAddress;\r\n    }\r\n\r\n    function getCategoryData1(uint _categoryId,uint8 _index) constant returns(uint index,bytes32 roleName,uint majorityVote,uint24 closingTime)\r\n    {\r\n        MR=MemberRoles(MRAddress);\r\n        index = _index;\r\n        roleName = MR.getMemberRoleNameById(allCategory[_categoryId].memberRoleSequence[_index]);\r\n        majorityVote = allCategory[_categoryId].memberRoleMajorityVote[_index];\r\n        closingTime =  allCategory[_categoryId].closingTime[_index];\r\n    }\r\n\r\n    function getMinStake(uint _categoryId)constant returns(uint8)\r\n    {\r\n        return allCategory[_categoryId].minStake;\r\n    }\r\n\r\n    function getMaxStake(uint _categoryId) constant returns(uint8)\r\n    {\r\n        return allCategory[_categoryId].maxStake;\r\n    }\r\n\r\n    function getCategoryName(uint8 _categoryId)constant returns(string)\r\n    {\r\n        return allCategory[_categoryId].categoryName;\r\n    }\r\n\r\n    /// @dev Get the integer parameterName when given Category Id and parameterIndex\r\n    function getCategoryParamNameUint(uint _categoryId,uint _index)constant returns(bytes32)\r\n    {\r\n        return uintParam[_categoryId].parameterName[_index];\r\n    }\r\n\r\n    /// @dev Get the Bytes parameterName when given Category Id and parameterIndex\r\n    function getCategoryParamNameBytes(uint _categoryId,uint _index)constant returns(bytes32)\r\n    {\r\n        return bytesParam[_categoryId].parameterName[_index];\r\n    }\r\n\r\n    /// @dev Get the Address parameterName when given Category Id and parameterIndex\r\n    function getCategoryParamNameAddress(uint _categoryId,uint _index)constant returns(bytes32)\r\n    {\r\n        return addressParam[_categoryId].parameterName[_index];\r\n    }\r\n\r\n    /// @dev Get the Address parameterName when given Category Id and parameterIndex\r\n    function getCategoryParamHashUint(uint _categoryId)constant returns(string)\r\n    {\r\n        return uintParam[_categoryId].parameterDescHash;\r\n    }\r\n\r\n    /// @dev Get the Address parameterName when given Category Id and parameterIndex\r\n    function getCategoryParamHashBytes(uint _categoryId)constant returns(string)\r\n    {\r\n        return bytesParam[_categoryId].parameterDescHash;\r\n    }\r\n\r\n    /// @dev Get the Address parameterName when given Category Id and parameterIndex\r\n    function getCategoryParamHashAddress(uint _categoryId)constant returns(string)\r\n    {\r\n        return addressParam[_categoryId].parameterDescHash;\r\n    }\r\n\r\n    /// @dev Gets the total number of categories.\r\n    function getCategoriesLength() constant returns (uint length)\r\n    {\r\n        length = allCategory.length;\r\n    }\r\n\r\n    /// @dev Gets category details by category id.\r\n    function getCategoryDetails(uint _categoryId) public constant returns (uint cateId,string categoryName,string functionName,address contractAt,uint8 paramInt,uint8 paramBytes32,uint8 paramAddress,uint8[] memberRoleSequence,uint[] memberRoleMajorityVote)\r\n    {    \r\n        cateId = _categoryId;\r\n        categoryName = allCategory[_categoryId].categoryName;\r\n        functionName = allCategory[_categoryId].functionName;\r\n        contractAt = allCategory[_categoryId].contractAt;\r\n        paramInt = allCategory[_categoryId].paramInt;\r\n        paramBytes32 = allCategory[_categoryId].paramBytes32;\r\n        paramAddress = allCategory[_categoryId].paramAddress;\r\n        memberRoleSequence = allCategory[_categoryId].memberRoleSequence;\r\n        memberRoleMajorityVote = allCategory[_categoryId].memberRoleMajorityVote;\r\n    } \r\n    \r\n    /// @dev Get majority vote value for each voting level.\r\n    function getRoleMajorityVote(uint _categoryId,uint _index) constant returns(uint majorityVote)\r\n    {\r\n        return allCategory[_categoryId].memberRoleMajorityVote[_index];\r\n    }\r\n    \r\n    function getRoleMajorityVotelength(uint _categoryId) constant returns(uint majorityVoteLength)\r\n    {\r\n        return allCategory[_categoryId].memberRoleMajorityVote.length;\r\n    }\r\n\r\n    function getClosingTimeLength(uint _categoryId) constant returns(uint closingTimeLength)\r\n    {\r\n        return allCategory[_categoryId].closingTime.length;\r\n    }\r\n\r\n    function getClosingTimeByIndex(uint _categoryId,uint _index) constant returns(uint closeTime)\r\n    {\r\n        return allCategory[_categoryId].closingTime[_index];\r\n    }\r\n\r\n    /// @dev Get the length of voting levels against given proposal.\r\n    function getRoleSequencLength(uint _categoryId) constant returns(uint roleLength)\r\n    {\r\n        return allCategory[_categoryId].memberRoleSequence.length;\r\n    }\r\n    /// @dev Get the next Roleid to cast vote against proposal, according to the sequence defined.\r\n    function getRoleSequencAtIndex(uint _categoryId,uint _index) constant returns(uint roleId)\r\n    {\r\n        return allCategory[_categoryId].memberRoleSequence[_index];\r\n    }\r\n    /// @dev Adds a new category and Category Function Parameter names..\r\n    function addNewCategory(string _categoryName,string _functionName,address _contractAt,uint8 _paramInt,uint8 _paramBytes32,uint8 _paramAddress,uint8[] _memberRoleSequence,uint[] _memberRoleMajorityVote,uint24[] _closingTime,uint8 _minStake,uint8 _maxStake) onlyOwner\r\n    {\r\n        require(_memberRoleSequence.length == _memberRoleMajorityVote.length && _memberRoleSequence.length == _closingTime.length);\r\n        allCategory.push(category(_categoryName,_functionName,_contractAt,_paramInt,_paramBytes32,_paramAddress,_memberRoleSequence,_memberRoleMajorityVote,_closingTime,_minStake,_maxStake));\r\n    }\r\n    /// @dev Saving descriptions against various parameters required for category.\r\n    function addCategoryParamsNameAndDesc(uint _categoryId,bytes32[] _uintParamName,bytes32[] _bytesParamName,bytes32[] _addressParamName,string _uintParameterDescHash,string _bytesParameterDescHash,string _addressParameterDescHash) onlyOwner\r\n    {\r\n        uintParam.push(categoryParams(_uintParamName,_uintParameterDescHash));\r\n        bytesParam.push(categoryParams(_bytesParamName,_bytesParameterDescHash));\r\n        addressParam.push(categoryParams(_addressParamName,_addressParameterDescHash));\r\n    }\r\n\r\n    /// @dev Updates a category details\r\n    function updateCategory(uint _categoryId,string _functionName,address _contractAt,uint8 _paramInt,uint8 _paramBytes32,uint8 _paramAddress,uint8[] _memberRoleSequence,uint[] _memberRoleMajorityVote,uint24[] _closingTime,uint8 _minStake,uint8 _maxStake) onlyOwner\r\n    {\r\n        require(_memberRoleSequence.length == _memberRoleMajorityVote.length && _memberRoleSequence.length == _closingTime.length);\r\n        allCategory[_categoryId].functionName = _functionName;\r\n        allCategory[_categoryId].contractAt = _contractAt;\r\n        allCategory[_categoryId].paramInt = _paramInt;\r\n        allCategory[_categoryId].paramBytes32 = _paramBytes32; \r\n        allCategory[_categoryId].paramAddress = _paramAddress;\r\n        allCategory[_categoryId].minStake = _minStake;\r\n        allCategory[_categoryId].maxStake = _maxStake;\r\n\r\n        allCategory[_categoryId].memberRoleSequence=new uint8[](_memberRoleSequence.length);\r\n        allCategory[_categoryId].memberRoleMajorityVote=new uint[](_memberRoleMajorityVote.length);\r\n        allCategory[_categoryId].closingTime = new uint24[](_closingTime.length);\r\n\r\n        for(uint i=0; i<_memberRoleSequence.length; i++)\r\n        {\r\n            allCategory[_categoryId].memberRoleSequence[i] =_memberRoleSequence[i];\r\n            allCategory[_categoryId].memberRoleMajorityVote[i] = _memberRoleMajorityVote[i];\r\n            allCategory[_categoryId].closingTime[i] = _closingTime[i];\r\n        }\r\n    }\r\n\r\n    /// @dev function to be called after proposal pass\r\n    function actionAfterProposalPass(uint _proposalId,uint _categoryId) public\r\n    {\r\n        address contractAt;\r\n        (,,,contractAt,,,,,) = getCategoryDetails(_categoryId);\r\n        contractAt.call(bytes4(sha3(allCategory[_categoryId].functionName)),_proposalId);\r\n    }\r\n\r\n    // /// @dev Change the category parameters name against category. // \r\n    // function changeCategoryParametersName(uint _categoryId,bytes32[] _uintParamName,bytes32[] _bytesParamName,bytes32[] _addressParamName) onlyOwner\r\n    // {   \r\n    //     uintParam[_categoryId].parameterName=new bytes32[](_uintParamName.length); \r\n    //     bytesParam[_categoryId].parameterName=new bytes32[](_bytesParamName.length); \r\n    //     addressParam[_categoryId].parameterName=new bytes32[](_addressParamName.length); \r\n        \r\n    //     for(uint i=0; i<_uintParamName.length; i++)\r\n    //     {\r\n    //         uintParam[_categoryId].parameterName[i]=_uintParamName[i]; \r\n    //     }\r\n            \r\n    //     for(i=0; i<_uintParamName.length; i++)\r\n    //     {\r\n    //         bytesParam[_categoryId].parameterName[i]=_bytesParamName[i];\r\n    //     }\r\n        \r\n    //     for(i=0; i<_uintParamName.length; i++)\r\n    //     {\r\n    //         addressParam[_categoryId].parameterName[i]=_addressParamName[i];\r\n    //     }\r\n    // }\r\n\r\n\r\n}",
  "sourcePath": "D:\\RUCHITA\\Govblocks-Git\\contracts\\ProposalCategory.sol",
  "compiler": {
    "name": "solc",
    "version": "0.4.18+commit.9cf6e910.Emscripten.clang"
  },
  "schemaVersion": "1.0.1",
  "updatedAt": "2018-01-30T10:36:00.120Z"
}