{
  "contractName": "RankBasedVoting",
  "abi": [
    {
      "constant": false,
      "inputs": [
        {
          "name": "_TokenAmount",
          "type": "uint256"
        }
      ],
      "name": "payableGBTTokensRankBasedVoting",
      "outputs": [],
      "payable": false,
      "stateMutability": "nonpayable",
      "type": "function"
    },
    {
      "constant": false,
      "inputs": [
        {
          "name": "_proposalId",
          "type": "uint256"
        },
        {
          "name": "_paramInt",
          "type": "uint256[]"
        },
        {
          "name": "_paramBytes32",
          "type": "bytes32[]"
        },
        {
          "name": "_paramAddress",
          "type": "address[]"
        },
        {
          "name": "_GBTPayableTokenAmount",
          "type": "uint256"
        }
      ],
      "name": "addVerdictOption",
      "outputs": [],
      "payable": false,
      "stateMutability": "nonpayable",
      "type": "function"
    },
    {
      "constant": false,
      "inputs": [
        {
          "name": "_proposalId",
          "type": "uint256"
        }
      ],
      "name": "giveReward_afterFinalDecision",
      "outputs": [],
      "payable": false,
      "stateMutability": "nonpayable",
      "type": "function"
    },
    {
      "constant": false,
      "inputs": [
        {
          "name": "_GBTcontractAddress",
          "type": "address"
        }
      ],
      "name": "changeGBTtokenAddress",
      "outputs": [],
      "payable": false,
      "stateMutability": "nonpayable",
      "type": "function"
    },
    {
      "constant": false,
      "inputs": [
        {
          "name": "_BTContractAddress",
          "type": "address"
        },
        {
          "name": "_StandardVotingAddress",
          "type": "address"
        },
        {
          "name": "_GDcontractAddress",
          "type": "address"
        },
        {
          "name": "_MRcontractAddress",
          "type": "address"
        },
        {
          "name": "_PCcontractAddress",
          "type": "address"
        }
      ],
      "name": "changeAllContractsAddress",
      "outputs": [],
      "payable": false,
      "stateMutability": "nonpayable",
      "type": "function"
    },
    {
      "constant": true,
      "inputs": [
        {
          "name": "_proposalId",
          "type": "uint256"
        },
        {
          "name": "_roleId",
          "type": "uint256"
        },
        {
          "name": "_optionIndex",
          "type": "uint256"
        }
      ],
      "name": "getProposalVoteAndTokenCountByRoleId",
      "outputs": [
        {
          "name": "totalVotes",
          "type": "uint256"
        },
        {
          "name": "totalToken",
          "type": "uint256"
        }
      ],
      "payable": false,
      "stateMutability": "view",
      "type": "function"
    },
    {
      "constant": false,
      "inputs": [
        {
          "name": "_memberAddress",
          "type": "address"
        },
        {
          "name": "_proposalId",
          "type": "uint256"
        },
        {
          "name": "_voteLength",
          "type": "uint256"
        }
      ],
      "name": "setVoteId_againstMember",
      "outputs": [],
      "payable": false,
      "stateMutability": "nonpayable",
      "type": "function"
    },
    {
      "constant": false,
      "inputs": [],
      "name": "RankBasedVotingInitiate",
      "outputs": [],
      "payable": false,
      "stateMutability": "nonpayable",
      "type": "function"
    },
    {
      "constant": true,
      "inputs": [
        {
          "name": "_voteid",
          "type": "uint256"
        }
      ],
      "name": "getVoteDetailByid",
      "outputs": [
        {
          "name": "voter",
          "type": "address"
        },
        {
          "name": "proposalId",
          "type": "uint256"
        },
        {
          "name": "optionChosen",
          "type": "uint256[]"
        },
        {
          "name": "dateSubmit",
          "type": "uint256"
        },
        {
          "name": "voterTokens",
          "type": "uint256"
        },
        {
          "name": "voteStakeGBT",
          "type": "uint256"
        },
        {
          "name": "voteValue",
          "type": "uint256"
        }
      ],
      "payable": false,
      "stateMutability": "view",
      "type": "function"
    },
    {
      "constant": true,
      "inputs": [],
      "name": "allVotesTotal",
      "outputs": [
        {
          "name": "",
          "type": "uint256"
        }
      ],
      "payable": false,
      "stateMutability": "view",
      "type": "function"
    },
    {
      "constant": false,
      "inputs": [
        {
          "name": "_proposalId",
          "type": "uint256"
        },
        {
          "name": "_optionChosen",
          "type": "uint256[]"
        },
        {
          "name": "_GBTPayableTokenAmount",
          "type": "uint256"
        }
      ],
      "name": "proposalVoting",
      "outputs": [],
      "payable": false,
      "stateMutability": "nonpayable",
      "type": "function"
    },
    {
      "constant": true,
      "inputs": [],
      "name": "getTotalVotes",
      "outputs": [
        {
          "name": "votesTotal",
          "type": "uint256"
        }
      ],
      "payable": false,
      "stateMutability": "view",
      "type": "function"
    },
    {
      "constant": true,
      "inputs": [
        {
          "name": "_proposalId",
          "type": "uint256"
        },
        {
          "name": "_roleId",
          "type": "uint256"
        },
        {
          "name": "_optionIndex",
          "type": "uint256"
        }
      ],
      "name": "getVotesbyOption_againstProposal",
      "outputs": [
        {
          "name": "totalVotes",
          "type": "uint256"
        }
      ],
      "payable": false,
      "stateMutability": "view",
      "type": "function"
    },
    {
      "constant": false,
      "inputs": [
        {
          "name": "_proposalId",
          "type": "uint256"
        }
      ],
      "name": "closeProposalVote",
      "outputs": [],
      "payable": false,
      "stateMutability": "nonpayable",
      "type": "function"
    },
    {
      "constant": true,
      "inputs": [],
      "name": "masterAddress",
      "outputs": [
        {
          "name": "",
          "type": "address"
        }
      ],
      "payable": false,
      "stateMutability": "view",
      "type": "function"
    },
    {
      "constant": false,
      "inputs": [
        {
          "name": "_masterContractAddress",
          "type": "address"
        }
      ],
      "name": "changeMasterAddress",
      "outputs": [],
      "payable": false,
      "stateMutability": "nonpayable",
      "type": "function"
    },
    {
      "constant": true,
      "inputs": [
        {
          "name": "_memberAddress",
          "type": "address"
        },
        {
          "name": "_proposalId",
          "type": "uint256"
        }
      ],
      "name": "getVoteId_againstMember",
      "outputs": [
        {
          "name": "voteId",
          "type": "uint256"
        }
      ],
      "payable": false,
      "stateMutability": "view",
      "type": "function"
    },
    {
      "constant": true,
      "inputs": [],
      "name": "votingTypeName",
      "outputs": [
        {
          "name": "",
          "type": "string"
        }
      ],
      "payable": false,
      "stateMutability": "view",
      "type": "function"
    }
  ],
  "bytecode": "0x6060604052341561000f57600080fd5b6156ac806200001f6000396000f3006060604052600436106100fc576000357c0100000000000000000000000000000000000000000000000000000000900463ffffffff16806301984c171461010157806307a88848146101245780630a256ae1146102105780630df34cdb146102335780632e95cfb91461026c5780634a261ce31461032157806361a0c02014610371578063628f56fd146103bc57806366cf51de146103d157806379098c641461049f57806389d92241146104c85780639a0e7d6614610534578063a17d5b0a1461055d578063c46994ce146105a6578063d365a08e146105c9578063d46655f41461061e578063eef83a4b14610657578063f8eb64b2146106ad575b600080fd5b341561010c57600080fd5b610122600480803590602001909190505061073b565b005b341561012f57600080fd5b61020e60048080359060200190919080359060200190820180359060200190808060200260200160405190810160405280939291908181526020018383602002808284378201915050505050509190803590602001908201803590602001908080602002602001604051908101604052809392919081815260200183836020028082843782019150505050505091908035906020019082018035906020019080806020026020016040519081016040528093929190818152602001838360200280828437820191505050505050919080359060200190919050506109c6565b005b341561021b57600080fd5b6102316004808035906020019091905050610b9a565b005b341561023e57600080fd5b61026a600480803573ffffffffffffffffffffffffffffffffffffffff16906020019091905050611602565b005b341561027757600080fd5b61031f600480803573ffffffffffffffffffffffffffffffffffffffff1690602001909190803573ffffffffffffffffffffffffffffffffffffffff1690602001909190803573ffffffffffffffffffffffffffffffffffffffff1690602001909190803573ffffffffffffffffffffffffffffffffffffffff1690602001909190803573ffffffffffffffffffffffffffffffffffffffff16906020019091905050611797565b005b341561032c57600080fd5b6103546004808035906020019091908035906020019091908035906020019091905050611a34565b604051808381526020018281526020019250505060405180910390f35b341561037c57600080fd5b6103ba600480803573ffffffffffffffffffffffffffffffffffffffff16906020019091908035906020019091908035906020019091905050611aa2565b005b34156103c757600080fd5b6103cf611afc565b005b34156103dc57600080fd5b6103f26004808035906020019091905050611ce9565b604051808873ffffffffffffffffffffffffffffffffffffffff1673ffffffffffffffffffffffffffffffffffffffff16815260200187815260200180602001868152602001858152602001848152602001838152602001828103825287818151815260200191508051906020019060200280838360005b8381101561048557808201518184015260208101905061046a565b505050509050019850505050505050505060405180910390f35b34156104aa57600080fd5b6104b2611e6b565b6040518082815260200191505060405180910390f35b34156104d357600080fd5b610532600480803590602001909190803590602001908201803590602001908080602002602001604051908101604052809392919081815260200183836020028082843782019150505050505091908035906020019091905050611e71565b005b341561053f57600080fd5b610547612d03565b6040518082815260200191505060405180910390f35b341561056857600080fd5b6105906004808035906020019091908035906020019091908035906020019091905050612d10565b6040518082815260200191505060405180910390f35b34156105b157600080fd5b6105c76004808035906020019091905050612d53565b005b34156105d457600080fd5b6105dc612e9a565b604051808273ffffffffffffffffffffffffffffffffffffffff1673ffffffffffffffffffffffffffffffffffffffff16815260200191505060405180910390f35b341561062957600080fd5b610655600480803573ffffffffffffffffffffffffffffffffffffffff16906020019091905050612ec0565b005b341561066257600080fd5b610697600480803573ffffffffffffffffffffffffffffffffffffffff169060200190919080359060200190919050506130dd565b6040518082815260200191505060405180910390f35b34156106b857600080fd5b6106c0613138565b6040518080602001828103825283818151815260200191508051906020019080838360005b838110156107005780820151818401526020810190506106e5565b50505050905090810190601f16801561072d5780820380516001836020036101000a031916815260200191505b509250505060405180910390f35b600a60009054906101000a900473ffffffffffffffffffffffffffffffffffffffff16600e60006101000a81548173ffffffffffffffffffffffffffffffffffffffff021916908373ffffffffffffffffffffffffffffffffffffffff160217905550600660009054906101000a900473ffffffffffffffffffffffffffffffffffffffff16601160006101000a81548173ffffffffffffffffffffffffffffffffffffffff021916908373ffffffffffffffffffffffffffffffffffffffff160217905550601160009054906101000a900473ffffffffffffffffffffffffffffffffffffffff1673ffffffffffffffffffffffffffffffffffffffff1663ed1eee716000604051602001526040518163ffffffff167c0100000000000000000000000000000000000000000000000000000000028152600401602060405180830381600087803b151561088f57600080fd5b6102c65a03f115156108a057600080fd5b5050506040518051905081101515156108b857600080fd5b600e60009054906101000a900473ffffffffffffffffffffffffffffffffffffffff1673ffffffffffffffffffffffffffffffffffffffff1663a9059cbb600960009054906101000a900473ffffffffffffffffffffffffffffffffffffffff16836000604051602001526040518363ffffffff167c0100000000000000000000000000000000000000000000000000000000028152600401808373ffffffffffffffffffffffffffffffffffffffff1673ffffffffffffffffffffffffffffffffffffffff16815260200182815260200192505050602060405180830381600087803b15156109a757600080fd5b6102c65a03f115156109b857600080fd5b505050604051805190505050565b601260009054906101000a900473ffffffffffffffffffffffffffffffffffffffff1673ffffffffffffffffffffffffffffffffffffffff16634f2a173886336001888888886040518863ffffffff167c0100000000000000000000000000000000000000000000000000000000028152600401808881526020018773ffffffffffffffffffffffffffffffffffffffff1673ffffffffffffffffffffffffffffffffffffffff168152602001868152602001806020018060200180602001858152602001848103845288818151815260200191508051906020019060200280838360005b83811015610ac6578082015181840152602081019050610aab565b50505050905001848103835287818151815260200191508051906020019060200280838360005b83811015610b08578082015181840152602081019050610aed565b50505050905001848103825286818151815260200191508051906020019060200280838360005b83811015610b4a578082015181840152602081019050610b2f565b505050509050019a5050505050505050505050600060405180830381600087803b1515610b7657600080fd5b6102c65a03f11515610b8757600080fd5b505050610b938161073b565b5050505050565b6000806000806000806000806000600660009054906101000a900473ffffffffffffffffffffffffffffffffffffffff16601160006101000a81548173ffffffffffffffffffffffffffffffffffffffff021916908373ffffffffffffffffffffffffffffffffffffffff160217905550601160009054906101000a900473ffffffffffffffffffffffffffffffffffffffff1673ffffffffffffffffffffffffffffffffffffffff1663ec9ccfff8b600060405160a001526040518263ffffffff167c01000000000000000000000000000000000000000000000000000000000281526004018082815260200191505060a060405180830381600087803b1515610ca457600080fd5b6102c65a03f11515610cb557600080fd5b505050604051805190602001805190602001805190602001805190602001805190509091929350909192509091505080935050600091505b601160009054906101000a900473ffffffffffffffffffffffffffffffffffffffff1673ffffffffffffffffffffffffffffffffffffffff166393a6b05f8b6000604051602001526040518263ffffffff167c010000000000000000000000000000000000000000000000000000000002815260040180828152602001915050602060405180830381600087803b1515610d8657600080fd5b6102c65a03f11515610d9757600080fd5b505050604051805190508210156111e457601160009054906101000a900473ffffffffffffffffffffffffffffffffffffffff1673ffffffffffffffffffffffffffffffffffffffff166372a5f4d48b846000604051602001526040518363ffffffff167c01000000000000000000000000000000000000000000000000000000000281526004018083815260200182815260200192505050602060405180830381600087803b1515610e4957600080fd5b6102c65a03f11515610e5a57600080fd5b5050506040518051905090508260ff16600382815481101515610e7957fe5b90600052602060002090600702016002016000815481101515610e9857fe5b9060005260206000209001541415610edb57610ed489600383815481101515610ebd57fe5b9060005260206000209060070201600601546131d6565b98506111d7565b610fca88610fc5600384815481101515610ef157fe5b906000526020600020906007020160050154610fc0610f12600160646131f4565b601160009054906101000a900473ffffffffffffffffffffffffffffffffffffffff1673ffffffffffffffffffffffffffffffffffffffff1663ad3208466000604051602001526040518163ffffffff167c0100000000000000000000000000000000000000000000000000000000028152600401602060405180830381600087803b1515610fa057600080fd5b6102c65a03f11515610fb157600080fd5b5050506040518051905061322f565b6131f4565b6131d6565b97506110bc600382815481101515610fde57fe5b9060005260206000209060070201600501546110b760016110b2611004600160646131f4565b601160009054906101000a900473ffffffffffffffffffffffffffffffffffffffff1673ffffffffffffffffffffffffffffffffffffffff1663ad3208466000604051602001526040518163ffffffff167c0100000000000000000000000000000000000000000000000000000000028152600401602060405180830381600087803b151561109257600080fd5b6102c65a03f115156110a357600080fd5b5050506040518051905061322f565b61324a565b6131f4565b9550601160009054906101000a900473ffffffffffffffffffffffffffffffffffffffff1673ffffffffffffffffffffffffffffffffffffffff1663649db80b60038381548110151561110b57fe5b906000526020600020906007020160000160009054906101000a900473ffffffffffffffffffffffffffffffffffffffff16886040518363ffffffff167c0100000000000000000000000000000000000000000000000000000000028152600401808373ffffffffffffffffffffffffffffffffffffffff1673ffffffffffffffffffffffffffffffffffffffff16815260200182815260200192505050600060405180830381600087803b15156111c257600080fd5b6102c65a03f115156111d357600080fd5b5050505b8180600101925050610ced565b600091505b601160009054906101000a900473ffffffffffffffffffffffffffffffffffffffff1673ffffffffffffffffffffffffffffffffffffffff1663ad8750418b6000604051602001526040518263ffffffff167c010000000000000000000000000000000000000000000000000000000002815260040180828152602001915050602060405180830381600087803b151561128257600080fd5b6102c65a03f1151561129357600080fd5b50505060405180519050821015611385578260ff16821415156113785761137587601160009054906101000a900473ffffffffffffffffffffffffffffffffffffffff1673ffffffffffffffffffffffffffffffffffffffff16630ecc69c18d866000604051602001526040518363ffffffff167c01000000000000000000000000000000000000000000000000000000000281526004018083815260200182815260200192505050602060405180830381600087803b151561135557600080fd5b6102c65a03f1151561136657600080fd5b505050604051805190506131d6565b96505b81806001019250506111e9565b61144d601160009054906101000a900473ffffffffffffffffffffffffffffffffffffffff1673ffffffffffffffffffffffffffffffffffffffff1663c066ea868c866000604051602001526040518363ffffffff167c0100000000000000000000000000000000000000000000000000000000028152600401808381526020018260ff16815260200192505050602060405180830381600087803b151561142c57600080fd5b6102c65a03f1151561143d57600080fd5b505050604051805190508a6131d6565b945061145987896131d6565b935060008360ff16111561152b5761152485601160009054906101000a900473ffffffffffffffffffffffffffffffffffffffff1673ffffffffffffffffffffffffffffffffffffffff1663ba63453f8d6000604051602001526040518263ffffffff167c010000000000000000000000000000000000000000000000000000000002815260040180828152602001915050602060405180830381600087803b151561150457600080fd5b6102c65a03f1151561151557600080fd5b505050604051805190506131d6565b94506115eb565b6115e884601160009054906101000a900473ffffffffffffffffffffffffffffffffffffffff1673ffffffffffffffffffffffffffffffffffffffff16633a0fcafc8d6000604051602001526040518263ffffffff167c010000000000000000000000000000000000000000000000000000000002815260040180828152602001915050602060405180830381600087803b15156115c857600080fd5b6102c65a03f115156115d957600080fd5b505050604051805190506131d6565b93505b6115f68a8587613263565b50505050505050505050565b600b60009054906101000a900473ffffffffffffffffffffffffffffffffffffffff16601360006101000a81548173ffffffffffffffffffffffffffffffffffffffff021916908373ffffffffffffffffffffffffffffffffffffffff1602179055506001601360009054906101000a900473ffffffffffffffffffffffffffffffffffffffff1673ffffffffffffffffffffffffffffffffffffffff16638f16c41c336000604051602001526040518263ffffffff167c0100000000000000000000000000000000000000000000000000000000028152600401808273ffffffffffffffffffffffffffffffffffffffff1673ffffffffffffffffffffffffffffffffffffffff168152602001915050602060405180830381600087803b151561172c57600080fd5b6102c65a03f1151561173d57600080fd5b5050506040518051905014151561175357600080fd5b80600960006101000a81548173ffffffffffffffffffffffffffffffffffffffff021916908373ffffffffffffffffffffffffffffffffffffffff16021790555050565b600b60009054906101000a900473ffffffffffffffffffffffffffffffffffffffff16601360006101000a81548173ffffffffffffffffffffffffffffffffffffffff021916908373ffffffffffffffffffffffffffffffffffffffff1602179055506001601360009054906101000a900473ffffffffffffffffffffffffffffffffffffffff1673ffffffffffffffffffffffffffffffffffffffff16638f16c41c336000604051602001526040518263ffffffff167c0100000000000000000000000000000000000000000000000000000000028152600401808273ffffffffffffffffffffffffffffffffffffffff1673ffffffffffffffffffffffffffffffffffffffff168152602001915050602060405180830381600087803b15156118c157600080fd5b6102c65a03f115156118d257600080fd5b505050604051805190501415156118e857600080fd5b84600a60006101000a81548173ffffffffffffffffffffffffffffffffffffffff021916908373ffffffffffffffffffffffffffffffffffffffff16021790555083600c60006101000a81548173ffffffffffffffffffffffffffffffffffffffff021916908373ffffffffffffffffffffffffffffffffffffffff16021790555082600660006101000a81548173ffffffffffffffffffffffffffffffffffffffff021916908373ffffffffffffffffffffffffffffffffffffffff16021790555081600760006101000a81548173ffffffffffffffffffffffffffffffffffffffff021916908373ffffffffffffffffffffffffffffffffffffffff16021790555080600860006101000a81548173ffffffffffffffffffffffffffffffffffffffff021916908373ffffffffffffffffffffffffffffffffffffffff1602179055505050505050565b600080600080868152602001908152602001600020600001600085815260200190815260200160002060008481526020019081526020016000205491506000808681526020019081526020016000206001016000858152602001908152602001600020549050935093915050565b80600260008573ffffffffffffffffffffffffffffffffffffffff1673ffffffffffffffffffffffffffffffffffffffff168152602001908152602001600020600084815260200190815260200160002081905550505050565b600080601260149054906101000a900460ff1660ff16141515611b1e57600080fd5b60038054806001018281611b329190615430565b9160005260206000209060070201600060e060405190810160405280600073ffffffffffffffffffffffffffffffffffffffff1681526020016000815260200185805480602002602001604051908101604052809291908181526020018280548015611bbd57602002820191906000526020600020905b815481526020019060010190808311611ba9575b5050505050815260200142815260200160008152602001600081526020016000815250909190915060008201518160000160006101000a81548173ffffffffffffffffffffffffffffffffffffffff021916908373ffffffffffffffffffffffffffffffffffffffff160217905550602082015181600101556040820151816002019080519060200190611c52929190615462565b50606082015181600301556080820151816004015560a0820151816005015560c082015181600601555050506040805190810160405280601481526020017f52616e6b696e6720426173656420566f74696e6700000000000000000000000081525060059080519060200190611cc99291906154af565b506001601260146101000a81548160ff021916908360ff16021790555050565b600080611cf461552f565b600080600080600388815481101515611d0957fe5b906000526020600020906007020160000160009054906101000a900473ffffffffffffffffffffffffffffffffffffffff16600389815481101515611d4a57fe5b90600052602060002090600702016001015460038a815481101515611d6b57fe5b906000526020600020906007020160020160038b815481101515611d8b57fe5b90600052602060002090600702016003015460038c815481101515611dac57fe5b90600052602060002090600702016004015460038d815481101515611dcd57fe5b90600052602060002090600702016005015460038e815481101515611dee57fe5b90600052602060002090600702016006015484805480602002602001604051908101604052809291908181526020018280548015611e4b57602002820191906000526020600020905b815481526020019060010190808311611e37575b505050505094509650965096509650965096509650919395979092949650565b60045481565b6000806000806000806000600660009054906101000a900473ffffffffffffffffffffffffffffffffffffffff16601160006101000a81548173ffffffffffffffffffffffffffffffffffffffff021916908373ffffffffffffffffffffffffffffffffffffffff160217905550600760009054906101000a900473ffffffffffffffffffffffffffffffffffffffff16600d60006101000a81548173ffffffffffffffffffffffffffffffffffffffff021916908373ffffffffffffffffffffffffffffffffffffffff160217905550600860009054906101000a900473ffffffffffffffffffffffffffffffffffffffff16600f60006101000a81548173ffffffffffffffffffffffffffffffffffffffff021916908373ffffffffffffffffffffffffffffffffffffffff160217905550600c60009054906101000a900473ffffffffffffffffffffffffffffffffffffffff16601260006101000a81548173ffffffffffffffffffffffffffffffffffffffff021916908373ffffffffffffffffffffffffffffffffffffffff160217905550601160009054906101000a900473ffffffffffffffffffffffffffffffffffffffff1673ffffffffffffffffffffffffffffffffffffffff1663ec9ccfff8b600060405160a001526040518263ffffffff167c01000000000000000000000000000000000000000000000000000000000281526004018082815260200191505060a060405180830381600087803b15156120a157600080fd5b6102c65a03f115156120b257600080fd5b50505060405180519060200180519060200180519060200180519060200180519050905050809750819950829850505050601160009054906101000a900473ffffffffffffffffffffffffffffffffffffffff1673ffffffffffffffffffffffffffffffffffffffff166334a3210a8b6000604051608001526040518263ffffffff167c010000000000000000000000000000000000000000000000000000000002815260040180828152602001915050608060405180830381600087803b151561217c57600080fd5b6102c65a03f1151561218d57600080fd5b50505060405180519060200180519060200180519060200180519050909192509091509050809450506000601160009054906101000a900473ffffffffffffffffffffffffffffffffffffffff1673ffffffffffffffffffffffffffffffffffffffff166335c42dbb336000604051602001526040518263ffffffff167c0100000000000000000000000000000000000000000000000000000000028152600401808273ffffffffffffffffffffffffffffffffffffffff1673ffffffffffffffffffffffffffffffffffffffff168152602001915050602060405180830381600087803b151561227d57600080fd5b6102c65a03f1151561228e57600080fd5b505050604051805190501415801561235957506002601160009054906101000a900473ffffffffffffffffffffffffffffffffffffffff1673ffffffffffffffffffffffffffffffffffffffff1663401853b78c6000604051602001526040518263ffffffff167c010000000000000000000000000000000000000000000000000000000002815260040180828152602001915050602060405180830381600087803b151561233c57600080fd5b6102c65a03f1151561234d57600080fd5b50505060405180519050145b151561236457600080fd5b600f60009054906101000a900473ffffffffffffffffffffffffffffffffffffffff1673ffffffffffffffffffffffffffffffffffffffff16639deeab2087896000604051602001526040518363ffffffff167c0100000000000000000000000000000000000000000000000000000000028152600401808360ff1681526020018260ff16815260200192505050602060405180830381600087803b151561240b57600080fd5b6102c65a03f1151561241c57600080fd5b50505060405180519050600d60009054906101000a900473ffffffffffffffffffffffffffffffffffffffff1673ffffffffffffffffffffffffffffffffffffffff1663beae32ba336000604051602001526040518263ffffffff167c0100000000000000000000000000000000000000000000000000000000028152600401808273ffffffffffffffffffffffffffffffffffffffff1673ffffffffffffffffffffffffffffffffffffffff168152602001915050602060405180830381600087803b15156124eb57600080fd5b6102c65a03f115156124fc57600080fd5b5050506040518051905014801561251757508360ff16895111155b151561252257600080fd5b60008760ff16141561266957600092505b8851831015612664578360ff16898481518110151561254e57fe5b9060200190602002015110801561264c5750601160009054906101000a900473ffffffffffffffffffffffffffffffffffffffff1673ffffffffffffffffffffffffffffffffffffffff1663e28d879f8b856000604051602001526040518363ffffffff167c01000000000000000000000000000000000000000000000000000000000281526004018083815260200182815260200192505050602060405180830381600087803b151561260157600080fd5b6102c65a03f1151561261257600080fd5b5050506040518051905073ffffffffffffffffffffffffffffffffffffffff163373ffffffffffffffffffffffffffffffffffffffff1614155b151561265757600080fd5b8280600101935050612533565b6126b6565b8460ff1689600081518110151561267c57fe5b9060200190602002015114806126aa5750600089600081518110151561269e57fe5b90602001906020020151145b15156126b557600080fd5b5b60006126c2338c6130dd565b1415612ceb576126d0612d03565b91506126e48a8860ff168b8760ff16614353565b601260009054906101000a900473ffffffffffffffffffffffffffffffffffffffff1673ffffffffffffffffffffffffffffffffffffffff1663ceeb6f1b338c8b6000604051602001526040518463ffffffff167c0100000000000000000000000000000000000000000000000000000000028152600401808473ffffffffffffffffffffffffffffffffffffffff1673ffffffffffffffffffffffffffffffffffffffff1681526020018381526020018281526020019350505050602060405180830381600087803b15156127b957600080fd5b6102c65a03f115156127ca57600080fd5b5050506040518051905090506129c46000808c81526020019081526020016000206001016000600d60009054906101000a900473ffffffffffffffffffffffffffffffffffffffff1673ffffffffffffffffffffffffffffffffffffffff1663beae32ba336000604051602001526040518263ffffffff167c0100000000000000000000000000000000000000000000000000000000028152600401808273ffffffffffffffffffffffffffffffffffffffff1673ffffffffffffffffffffffffffffffffffffffff168152602001915050602060405180830381600087803b15156128b557600080fd5b6102c65a03f115156128c657600080fd5b50505060405180519050815260200190815260200160002054601160009054906101000a900473ffffffffffffffffffffffffffffffffffffffff1673ffffffffffffffffffffffffffffffffffffffff166335c42dbb336000604051602001526040518263ffffffff167c0100000000000000000000000000000000000000000000000000000000028152600401808273ffffffffffffffffffffffffffffffffffffffff1673ffffffffffffffffffffffffffffffffffffffff168152602001915050602060405180830381600087803b15156129a457600080fd5b6102c65a03f115156129b557600080fd5b505050604051805190506131d6565b6000808c81526020019081526020016000206001016000600d60009054906101000a900473ffffffffffffffffffffffffffffffffffffffff1673ffffffffffffffffffffffffffffffffffffffff1663beae32ba336000604051602001526040518263ffffffff167c0100000000000000000000000000000000000000000000000000000000028152600401808273ffffffffffffffffffffffffffffffffffffffff1673ffffffffffffffffffffffffffffffffffffffff168152602001915050602060405180830381600087803b1515612aa057600080fd5b6102c65a03f11515612ab157600080fd5b50505060405180519050815260200190815260200160002081905550612ad8338b84611aa2565b600160008b81526020019081526020016000206000600d60009054906101000a900473ffffffffffffffffffffffffffffffffffffffff1673ffffffffffffffffffffffffffffffffffffffff1663beae32ba336000604051602001526040518263ffffffff167c0100000000000000000000000000000000000000000000000000000000028152600401808273ffffffffffffffffffffffffffffffffffffffff1673ffffffffffffffffffffffffffffffffffffffff168152602001915050602060405180830381600087803b1515612bb257600080fd5b6102c65a03f11515612bc357600080fd5b5050506040518051905081526020019081526020016000208054806001018281612bed9190615543565b916000526020600020900160008490919091505550836014600084815260200190815260200160002060006101000a81548160ff021916908360ff160217905550601160009054906101000a900473ffffffffffffffffffffffffffffffffffffffff1673ffffffffffffffffffffffffffffffffffffffff1663d207287f8b846040518363ffffffff167c01000000000000000000000000000000000000000000000000000000000281526004018083815260200182815260200192505050600060405180830381600087803b1515612cc657600080fd5b6102c65a03f11515612cd757600080fd5b505050612ce68a8a8a84614615565b612cf7565b612cf68a8a8a61480f565b5b50505050505050505050565b6000600380549050905090565b6000806000858152602001908152602001600020600001600084815260200190815260200160002060008381526020019081526020016000205490509392505050565b600c60009054906101000a900473ffffffffffffffffffffffffffffffffffffffff16601260006101000a81548173ffffffffffffffffffffffffffffffffffffffff021916908373ffffffffffffffffffffffffffffffffffffffff160217905550601260009054906101000a900473ffffffffffffffffffffffffffffffffffffffff1673ffffffffffffffffffffffffffffffffffffffff1663d9aa6f19336001846040518463ffffffff167c0100000000000000000000000000000000000000000000000000000000028152600401808473ffffffffffffffffffffffffffffffffffffffff1673ffffffffffffffffffffffffffffffffffffffff1681526020018381526020018281526020019350505050600060405180830381600087803b1515612e8357600080fd5b6102c65a03f11515612e9457600080fd5b50505050565b600b60009054906101000a900473ffffffffffffffffffffffffffffffffffffffff1681565b6000600b60009054906101000a900473ffffffffffffffffffffffffffffffffffffffff1673ffffffffffffffffffffffffffffffffffffffff161415612f475780600b60006101000a81548173ffffffffffffffffffffffffffffffffffffffff021916908373ffffffffffffffffffffffffffffffffffffffff1602179055506130da565b600b60009054906101000a900473ffffffffffffffffffffffffffffffffffffffff16601360006101000a81548173ffffffffffffffffffffffffffffffffffffffff021916908373ffffffffffffffffffffffffffffffffffffffff1602179055506001601360009054906101000a900473ffffffffffffffffffffffffffffffffffffffff1673ffffffffffffffffffffffffffffffffffffffff16638f16c41c336000604051602001526040518263ffffffff167c0100000000000000000000000000000000000000000000000000000000028152600401808273ffffffffffffffffffffffffffffffffffffffff1673ffffffffffffffffffffffffffffffffffffffff168152602001915050602060405180830381600087803b151561307157600080fd5b6102c65a03f1151561308257600080fd5b5050506040518051905014151561309857600080fd5b80600b60006101000a81548173ffffffffffffffffffffffffffffffffffffffff021916908373ffffffffffffffffffffffffffffffffffffffff1602179055505b50565b6000600260008473ffffffffffffffffffffffffffffffffffffffff1673ffffffffffffffffffffffffffffffffffffffff168152602001908152602001600020600083815260200190815260200160002054905092915050565b60058054600181600116156101000203166002900480601f0160208091040260200160405190810160405280929190818152602001828054600181600116156101000203166002900480156131ce5780601f106131a3576101008083540402835291602001916131ce565b820191906000526020600020905b8154815290600101906020018083116131b157829003601f168201915b505050505081565b60008082840190508381101515156131ea57fe5b8091505092915050565b60008060008414156132095760009150613228565b828402905082848281151561321a57fe5b0414151561322457fe5b8091505b5092915050565b600080828481151561323d57fe5b0490508091505092915050565b600082821115151561325857fe5b818303905092915050565b6000806000806000806000806000601160009054906101000a900473ffffffffffffffffffffffffffffffffffffffff1673ffffffffffffffffffffffffffffffffffffffff1663ec9ccfff8d600060405160a001526040518263ffffffff167c01000000000000000000000000000000000000000000000000000000000281526004018082815260200191505060a060405180830381600087803b151561330a57600080fd5b6102c65a03f1151561331b57600080fd5b505050604051805190602001805190602001805190602001805190602001805190509091929350909192509091505080975050601160009054906101000a900473ffffffffffffffffffffffffffffffffffffffff1673ffffffffffffffffffffffffffffffffffffffff16633152fbd4600060405160c001526040518163ffffffff167c010000000000000000000000000000000000000000000000000000000002815260040160c060405180830381600087803b15156133dc57600080fd5b6102c65a03f115156133ed57600080fd5b5050506040518051906020018051906020018051906020018051906020018051906020018051905090919293945090919293509091509050809650819750505060008760ff161115613a7f576134ff6134f9601160009054906101000a900473ffffffffffffffffffffffffffffffffffffffff1673ffffffffffffffffffffffffffffffffffffffff16633a0fcafc8f6000604051602001526040518263ffffffff167c010000000000000000000000000000000000000000000000000000000002815260040180828152602001915050602060405180830381600087803b15156134d857600080fd5b6102c65a03f115156134e957600080fd5b505050604051805190508d6131f4565b8b61322f565b98506135be601160009054906101000a900473ffffffffffffffffffffffffffffffffffffffff1673ffffffffffffffffffffffffffffffffffffffff16633a0fcafc8e6000604051602001526040518263ffffffff167c010000000000000000000000000000000000000000000000000000000002815260040180828152602001915050602060405180830381600087803b151561359d57600080fd5b6102c65a03f115156135ae57600080fd5b505050604051805190508a6131d6565b9750601160009054906101000a900473ffffffffffffffffffffffffffffffffffffffff1673ffffffffffffffffffffffffffffffffffffffff1663649db80b601160009054906101000a900473ffffffffffffffffffffffffffffffffffffffff1673ffffffffffffffffffffffffffffffffffffffff166317826ac48f6000604051602001526040518263ffffffff167c010000000000000000000000000000000000000000000000000000000002815260040180828152602001915050602060405180830381600087803b151561369757600080fd5b6102c65a03f115156136a857600080fd5b505050604051805190508a6040518363ffffffff167c0100000000000000000000000000000000000000000000000000000000028152600401808373ffffffffffffffffffffffffffffffffffffffff1673ffffffffffffffffffffffffffffffffffffffff16815260200182815260200192505050600060405180830381600087803b151561373757600080fd5b6102c65a03f1151561374857600080fd5b50505061381c613816601160009054906101000a900473ffffffffffffffffffffffffffffffffffffffff1673ffffffffffffffffffffffffffffffffffffffff16630ecc69c18f8b6000604051602001526040518363ffffffff167c0100000000000000000000000000000000000000000000000000000000028152600401808381526020018260ff16815260200192505050602060405180830381600087803b15156137f557600080fd5b6102c65a03f1151561380657600080fd5b505050604051805190508d6131f4565b8b61322f565b98506138e6601160009054906101000a900473ffffffffffffffffffffffffffffffffffffffff1673ffffffffffffffffffffffffffffffffffffffff16630ecc69c18e8a6000604051602001526040518363ffffffff167c0100000000000000000000000000000000000000000000000000000000028152600401808381526020018260ff16815260200192505050602060405180830381600087803b15156138c557600080fd5b6102c65a03f115156138d657600080fd5b505050604051805190508a6131d6565b9750601160009054906101000a900473ffffffffffffffffffffffffffffffffffffffff1673ffffffffffffffffffffffffffffffffffffffff1663649db80b601160009054906101000a900473ffffffffffffffffffffffffffffffffffffffff1673ffffffffffffffffffffffffffffffffffffffff1663e28d879f8f8b6000604051602001526040518363ffffffff167c0100000000000000000000000000000000000000000000000000000000028152600401808381526020018260ff16815260200192505050602060405180830381600087803b15156139ca57600080fd5b6102c65a03f115156139db57600080fd5b505050604051805190508a6040518363ffffffff167c0100000000000000000000000000000000000000000000000000000000028152600401808373ffffffffffffffffffffffffffffffffffffffff1673ffffffffffffffffffffffffffffffffffffffff16815260200182815260200192505050600060405180830381600087803b1515613a6a57600080fd5b6102c65a03f11515613a7b57600080fd5b5050505b600093505b601160009054906101000a900473ffffffffffffffffffffffffffffffffffffffff1673ffffffffffffffffffffffffffffffffffffffff166393a6b05f8d6000604051602001526040518263ffffffff167c010000000000000000000000000000000000000000000000000000000002815260040180828152602001915050602060405180830381600087803b1515613b1d57600080fd5b6102c65a03f11515613b2e57600080fd5b5050506040518051905084101561429657601160009054906101000a900473ffffffffffffffffffffffffffffffffffffffff1673ffffffffffffffffffffffffffffffffffffffff166372a5f4d48d866000604051602001526040518363ffffffff167c01000000000000000000000000000000000000000000000000000000000281526004018083815260200182815260200192505050602060405180830381600087803b1515613be057600080fd5b6102c65a03f11515613bf157600080fd5b505050604051805190509250600091505b600383815481101515613c1157fe5b906000526020600020906007020160020180549050821015614289578660ff16600384815481101515613c4057fe5b906000526020600020906007020160020183815481101515613c5e57fe5b906000526020600020900154141561403b57613c7b838d84614d33565b9050613cb0613caa600385815481101515613c9257fe5b9060005260206000209060070201600601548d6131f4565b8b61322f565b9850613cdc600384815481101515613cc457fe5b9060005260206000209060070201600501548a6131d6565b9750601160009054906101000a900473ffffffffffffffffffffffffffffffffffffffff1673ffffffffffffffffffffffffffffffffffffffff1663649db80b600385815481101515613d2b57fe5b906000526020600020906007020160000160009054906101000a900473ffffffffffffffffffffffffffffffffffffffff168a6040518363ffffffff167c0100000000000000000000000000000000000000000000000000000000028152600401808373ffffffffffffffffffffffffffffffffffffffff1673ffffffffffffffffffffffffffffffffffffffff16815260200182815260200192505050600060405180830381600087803b1515613de257600080fd5b6102c65a03f11515613df357600080fd5b505050601160009054906101000a900473ffffffffffffffffffffffffffffffffffffffff1673ffffffffffffffffffffffffffffffffffffffff16630dfa263a600385815481101515613e4357fe5b906000526020600020906007020160000160009054906101000a900473ffffffffffffffffffffffffffffffffffffffff16613f9e89601160009054906101000a900473ffffffffffffffffffffffffffffffffffffffff1673ffffffffffffffffffffffffffffffffffffffff16631b3b74f160038a815481101515613ec657fe5b906000526020600020906007020160000160009054906101000a900473ffffffffffffffffffffffffffffffffffffffff166000604051602001526040518263ffffffff167c0100000000000000000000000000000000000000000000000000000000028152600401808273ffffffffffffffffffffffffffffffffffffffff1673ffffffffffffffffffffffffffffffffffffffff168152602001915050602060405180830381600087803b1515613f7e57600080fd5b6102c65a03f11515613f8f57600080fd5b505050604051805190506131d6565b6040518363ffffffff167c0100000000000000000000000000000000000000000000000000000000028152600401808373ffffffffffffffffffffffffffffffffffffffff1673ffffffffffffffffffffffffffffffffffffffff16815260200182815260200192505050600060405180830381600087803b151561402257600080fd5b6102c65a03f1151561403357600080fd5b50505061427c565b601160009054906101000a900473ffffffffffffffffffffffffffffffffffffffff1673ffffffffffffffffffffffffffffffffffffffff16630dfa263a60038581548110151561408857fe5b906000526020600020906007020160000160009054906101000a900473ffffffffffffffffffffffffffffffffffffffff166141e3601160009054906101000a900473ffffffffffffffffffffffffffffffffffffffff1673ffffffffffffffffffffffffffffffffffffffff16631b3b74f160038981548110151561410a57fe5b906000526020600020906007020160000160009054906101000a900473ffffffffffffffffffffffffffffffffffffffff166000604051602001526040518263ffffffff167c0100000000000000000000000000000000000000000000000000000000028152600401808273ffffffffffffffffffffffffffffffffffffffff1673ffffffffffffffffffffffffffffffffffffffff168152602001915050602060405180830381600087803b15156141c257600080fd5b6102c65a03f115156141d357600080fd5b505050604051805190508961324a565b6040518363ffffffff167c0100000000000000000000000000000000000000000000000000000000028152600401808373ffffffffffffffffffffffffffffffffffffffff1673ffffffffffffffffffffffffffffffffffffffff16815260200182815260200192505050600060405180830381600087803b151561426757600080fd5b6102c65a03f1151561427857600080fd5b5050505b8180600101925050613c02565b8380600101945050613a84565b601160009054906101000a900473ffffffffffffffffffffffffffffffffffffffff1673ffffffffffffffffffffffffffffffffffffffff1663ebd0e3138d896040518363ffffffff167c0100000000000000000000000000000000000000000000000000000000028152600401808381526020018260ff16815260200192505050600060405180830381600087803b151561433157600080fd5b6102c65a03f1151561434257600080fd5b505050505050505050505050505050565b600080600080600d60009054906101000a900473ffffffffffffffffffffffffffffffffffffffff1673ffffffffffffffffffffffffffffffffffffffff1663beae32ba336000604051602001526040518263ffffffff167c0100000000000000000000000000000000000000000000000000000000028152600401808273ffffffffffffffffffffffffffffffffffffffff1673ffffffffffffffffffffffffffffffffffffffff168152602001915050602060405180830381600087803b151561441e57600080fd5b6102c65a03f1151561442f57600080fd5b505050604051805190509350600087141561455d57600092505b85518310156144745761446582614460878661324a565b6131d6565b91508280600101935050614449565b600092505b85518310156145585761449f614499614492878661324a565b60646131f4565b8361322f565b90506144f96000808a81526020019081526020016000206000016000868152602001908152602001600020600088868151811015156144da57fe5b90602001906020020151815260200190815260200160002054826131d6565b6000808a815260200190815260200160002060000160008681526020019081526020016000206000888681518110151561452f57fe5b906020019060200201518152602001908152602001600020819055508280600101935050614479565b61460b565b6145b76000808a81526020019081526020016000206000016000868152602001908152602001600020600088600081518110151561459757fe5b9060200190602002015181526020019081526020016000205460016131d6565b6000808a8152602001908152602001600020600001600086815260200190815260200160002060008860008151811015156145ee57fe5b906020019060200201518152602001908152602001600020819055505b5050505050505050565b61461d614e93565b50600380548060010182816146329190615430565b9160005260206000209060070201600060e0604051908101604052803373ffffffffffffffffffffffffffffffffffffffff168152602001888152602001878152602001428152602001601160009054906101000a900473ffffffffffffffffffffffffffffffffffffffff1673ffffffffffffffffffffffffffffffffffffffff166335c42dbb336000604051602001526040518263ffffffff167c0100000000000000000000000000000000000000000000000000000000028152600401808273ffffffffffffffffffffffffffffffffffffffff1673ffffffffffffffffffffffffffffffffffffffff168152602001915050602060405180830381600087803b151561474157600080fd5b6102c65a03f1151561475257600080fd5b50505060405180519050815260200186815260200185815250909190915060008201518160000160006101000a81548173ffffffffffffffffffffffffffffffffffffffff021916908373ffffffffffffffffffffffffffffffffffffffff1602179055506020820151816001015560408201518160020190805190602001906147dd929190615462565b50606082015181600301556080820151816004015560a0820151816005015560c0820151816006015550505050505050565b6000806000806000600760009054906101000a900473ffffffffffffffffffffffffffffffffffffffff16600d60006101000a81548173ffffffffffffffffffffffffffffffffffffffff021916908373ffffffffffffffffffffffffffffffffffffffff160217905550600660009054906101000a900473ffffffffffffffffffffffffffffffffffffffff16601160006101000a81548173ffffffffffffffffffffffffffffffffffffffff021916908373ffffffffffffffffffffffffffffffffffffffff160217905550600c60009054906101000a900473ffffffffffffffffffffffffffffffffffffffff16601260006101000a81548173ffffffffffffffffffffffffffffffffffffffff021916908373ffffffffffffffffffffffffffffffffffffffff16021790555061494a33896130dd565b945060038581548110151561495b57fe5b90600052602060002090600702016002019350601160009054906101000a900473ffffffffffffffffffffffffffffffffffffffff1673ffffffffffffffffffffffffffffffffffffffff166334a3210a896000604051608001526040518263ffffffff167c010000000000000000000000000000000000000000000000000000000002815260040180828152602001915050608060405180830381600087803b1515614a0757600080fd5b6102c65a03f11515614a1857600080fd5b5050506040518051906020018051906020018051906020018051905090919250909150905080935050601160009054906101000a900473ffffffffffffffffffffffffffffffffffffffff1673ffffffffffffffffffffffffffffffffffffffff1663ec9ccfff89600060405160a001526040518263ffffffff167c01000000000000000000000000000000000000000000000000000000000281526004018082815260200191505060a060405180830381600087803b1515614ada57600080fd5b6102c65a03f11515614aeb57600080fd5b5050506040518051906020018051906020018051906020018051906020018051905090919293509091509050508092505086600386815481101515614b2c57fe5b90600052602060002090600702016002019080519060200190614b5092919061556f565b50826014600087815260200190815260200160002060006101000a81548160ff021916908360ff160217905550614bdb888360ff1686805480602002602001604051908101604052809291908181526020018280548015614bd057602002820191906000526020600020905b815481526020019060010190808311614bbc575b505050505088614eae565b614bed888360ff16898660ff16614353565b601260009054906101000a900473ffffffffffffffffffffffffffffffffffffffff1673ffffffffffffffffffffffffffffffffffffffff1663ceeb6f1b338a896000604051602001526040518463ffffffff167c0100000000000000000000000000000000000000000000000000000000028152600401808473ffffffffffffffffffffffffffffffffffffffff1673ffffffffffffffffffffffffffffffffffffffff1681526020018381526020018281526020019350505050602060405180830381600087803b1515614cc257600080fd5b6102c65a03f11515614cd357600080fd5b50505060405180519050905085600386815481101515614cef57fe5b90600052602060002090600702016005018190555080600386815481101515614d1457fe5b9060005260206000209060070201600601819055505050505050505050565b6000806000806000600388815481101515614d4a57fe5b90600052602060002090600702016002019350601160009054906101000a900473ffffffffffffffffffffffffffffffffffffffff1673ffffffffffffffffffffffffffffffffffffffff166334a3210a886000604051608001526040518263ffffffff167c010000000000000000000000000000000000000000000000000000000002815260040180828152602001915050608060405180830381600087803b1515614df657600080fd5b6102c65a03f11515614e0757600080fd5b5050506040518051906020018051906020018051906020018051905090919250909150905080935050600091505b8380549050821015614e6657614e5781614e528560ff168561324a565b6131d6565b90508180600101925050614e35565b614e86614e80614e798560ff168961324a565b60646131f4565b8261322f565b9450505050509392505050565b6000614ea260045460016131d6565b90508060048190555090565b60008060008060008714156151ba576014600086815260200190815260200160002060009054906101000a900460ff1660ff169350600092505b8551831015614f1357614f0482614eff868661324a565b6131d6565b91508280600101935050614ee8565b600092505b85518310156151b557614f3e614f38614f31868661324a565b60646131f4565b8361322f565b90506150776000808a81526020019081526020016000206000016000600d60009054906101000a900473ffffffffffffffffffffffffffffffffffffffff1673ffffffffffffffffffffffffffffffffffffffff1663beae32ba336000604051602001526040518263ffffffff167c0100000000000000000000000000000000000000000000000000000000028152600401808273ffffffffffffffffffffffffffffffffffffffff1673ffffffffffffffffffffffffffffffffffffffff168152602001915050602060405180830381600087803b151561501f57600080fd5b6102c65a03f1151561503057600080fd5b5050506040518051905081526020019081526020016000206000888681518110151561505857fe5b906020019060200201518152602001908152602001600020548261324a565b6000808a81526020019081526020016000206000016000600d60009054906101000a900473ffffffffffffffffffffffffffffffffffffffff1673ffffffffffffffffffffffffffffffffffffffff1663beae32ba336000604051602001526040518263ffffffff167c0100000000000000000000000000000000000000000000000000000000028152600401808273ffffffffffffffffffffffffffffffffffffffff1673ffffffffffffffffffffffffffffffffffffffff168152602001915050602060405180830381600087803b151561515357600080fd5b6102c65a03f1151561516457600080fd5b5050506040518051905081526020019081526020016000206000888681518110151561518c57fe5b906020019060200201518152602001908152602001600020819055508280600101935050614f18565b615426565b6152f36000808a81526020019081526020016000206000016000600d60009054906101000a900473ffffffffffffffffffffffffffffffffffffffff1673ffffffffffffffffffffffffffffffffffffffff1663beae32ba336000604051602001526040518263ffffffff167c0100000000000000000000000000000000000000000000000000000000028152600401808273ffffffffffffffffffffffffffffffffffffffff1673ffffffffffffffffffffffffffffffffffffffff168152602001915050602060405180830381600087803b151561529957600080fd5b6102c65a03f115156152aa57600080fd5b50505060405180519050815260200190815260200160002060008860008151811015156152d357fe5b90602001906020020151815260200190815260200160002054600161324a565b6000808a81526020019081526020016000206000016000600d60009054906101000a900473ffffffffffffffffffffffffffffffffffffffff1673ffffffffffffffffffffffffffffffffffffffff1663beae32ba336000604051602001526040518263ffffffff167c0100000000000000000000000000000000000000000000000000000000028152600401808273ffffffffffffffffffffffffffffffffffffffff1673ffffffffffffffffffffffffffffffffffffffff168152602001915050602060405180830381600087803b15156153cf57600080fd5b6102c65a03f115156153e057600080fd5b505050604051805190508152602001908152602001600020600088600081518110151561540957fe5b906020019060200201518152602001908152602001600020819055505b5050505050505050565b81548183558181151161545d5760070281600702836000526020600020918201910161545c91906155bc565b5b505050565b82805482825590600052602060002090810192821561549e579160200282015b8281111561549d578251825591602001919060010190615482565b5b5090506154ab919061563a565b5090565b828054600181600116156101000203166002900490600052602060002090601f016020900481019282601f106154f057805160ff191683800117855561551e565b8280016001018555821561551e579182015b8281111561551d578251825591602001919060010190615502565b5b50905061552b919061563a565b5090565b602060405190810160405280600081525090565b81548183558181151161556a57818360005260206000209182019101615569919061563a565b5b505050565b8280548282559060005260206000209081019282156155ab579160200282015b828111156155aa57825182559160200191906001019061558f565b5b5090506155b8919061563a565b5090565b61563791905b8082111561563357600080820160006101000a81549073ffffffffffffffffffffffffffffffffffffffff0219169055600182016000905560028201600061560a919061565f565b6003820160009055600482016000905560058201600090556006820160009055506007016155c2565b5090565b90565b61565c91905b80821115615658576000816000905550600101615640565b5090565b90565b508054600082559060005260206000209081019061567d919061563a565b505600a165627a7a7230582032d79e61e72dfeedab36fce8034ed2fbc0047e7794bdb0bc9a604010aa771b1e0029",
  "source": "/* Copyright (C) 2017 GovBlocks.io\r\n\r\n  This program is free software: you can redistribute it and/or modify\r\n    it under the terms of the GNU General Public License as published by\r\n    the Free Software Foundation, either version 3 of the License, or\r\n    (at your option) any later version.\r\n\r\n  This program is distributed in the hope that it will be useful,\r\n    but WITHOUT ANY WARRANTY; without even the implied warranty of\r\n    MERCHANTABILITY or FITNESS FOR A PARTICULAR PURPOSE.  See the\r\n    GNU General Public License for more details.\r\n\r\n  You should have received a copy of the GNU General Public License\r\n    along with this program.  If not, see http://www.gnu.org/licenses/ */\r\n\r\n\r\npragma solidity ^0.4.8;\r\nimport \"./VotingType.sol\";\r\nimport \"./GovernanceData.sol\";\r\nimport \"./StandardVotingType.sol\";\r\n// import \"./SafeMath.sol\";\r\nimport \"./MemberRoles.sol\";\r\nimport \"./ProposalCategory.sol\";\r\n// import \"./BasicToken.sol\";\r\n// import \"./MintableToken.sol\";\r\n// import \"./Math.sol\";\r\nimport \"./Master.sol\";\r\nimport \"./zeppelin-solidity/contracts/token/BasicToken.sol\";\r\nimport \"./zeppelin-solidity/contracts/token/MintableToken.sol\";\r\nimport \"./zeppelin-solidity/contracts/math/Math.sol\";\r\nimport \"./zeppelin-solidity/contracts/math/SafeMath.sol\";\r\n\r\ncontract RankBasedVoting is VotingType\r\n{\r\n    using SafeMath for uint;\r\n    address GDAddress;\r\n    address MRAddress;\r\n    address PCAddress;\r\n    address GBTAddress;\r\n    address BTAddress;\r\n    address public masterAddress;\r\n    address SVTAddress;\r\n    MemberRoles MR;\r\n    BasicToken BT;\r\n    ProposalCategory PC;\r\n    MintableToken MT;\r\n    GovernanceData  GD;\r\n    StandardVotingType SVT;\r\n    uint8 constructorCheck;\r\n    Master MS;\r\n    mapping (uint=>uint8) verdictOptionsByVoteId;\r\n     \r\n    function RankBasedVotingInitiate()\r\n    {\r\n        require(constructorCheck == 0 );\r\n        uint[] option;\r\n        allVotes.push(proposalVote(0x00,0,option,now,0,0,0));\r\n        votingTypeName = \"Ranking Based Voting\";\r\n        constructorCheck = 1;\r\n    }\r\n\r\n    modifier onlyInternal {\r\n        MS=Master(masterAddress);\r\n        require(MS.isInternal(msg.sender) == 1);\r\n        _; \r\n    }\r\n\r\n    /// @dev Change master's contract address\r\n    function changeMasterAddress(address _masterContractAddress)\r\n    {\r\n        if(masterAddress == 0x000)\r\n            masterAddress = _masterContractAddress;\r\n        else\r\n        {\r\n            MS=Master(masterAddress);\r\n            require(MS.isInternal(msg.sender) == 1);\r\n                masterAddress = _masterContractAddress;\r\n        }\r\n    }\r\n\r\n    /// @dev Some amount to be paid while using GovBlocks contract service - Approve the contract to spend money on behalf of msg.sender\r\n    function payableGBTTokensRankBasedVoting(uint _TokenAmount) public\r\n    {\r\n        BT=BasicToken(BTAddress);\r\n        GD=GovernanceData(GDAddress);\r\n        require(_TokenAmount >= GD.GBTStakeValue());\r\n        BT.transfer(GBTAddress,_TokenAmount);\r\n    }\r\n\r\n    function changeAllContractsAddress(address _BTContractAddress,address _StandardVotingAddress,address _GDcontractAddress, address _MRcontractAddress, address _PCcontractAddress) onlyInternal\r\n    {\r\n        BTAddress = _BTContractAddress;\r\n        SVTAddress = _StandardVotingAddress;\r\n        GDAddress = _GDcontractAddress;\r\n        MRAddress = _MRcontractAddress;\r\n        PCAddress = _PCcontractAddress;\r\n    }\r\n\r\n    /// @dev Changes GBT contract Address. //NEW\r\n    function changeGBTtokenAddress(address _GBTcontractAddress) onlyInternal\r\n    {\r\n        GBTAddress = _GBTcontractAddress;\r\n    }\r\n\r\n    function getTotalVotes() constant returns (uint votesTotal)\r\n    {\r\n        return(allVotes.length);\r\n    }\r\n\r\n    function increaseTotalVotes() internal returns (uint _totalVotes)\r\n    {\r\n        _totalVotes = SafeMath.add(allVotesTotal,1);  \r\n        allVotesTotal=_totalVotes;\r\n    }\r\n\r\n    function getVoteDetailByid(uint _voteid) public constant returns(address voter,uint proposalId,uint[] optionChosen,uint dateSubmit,uint voterTokens,uint voteStakeGBT,uint voteValue)\r\n    {\r\n        return(allVotes[_voteid].voter,allVotes[_voteid].proposalId,allVotes[_voteid].optionChosen,allVotes[_voteid].dateSubmit,allVotes[_voteid].voterTokens,allVotes[_voteid].voteStakeGBT,allVotes[_voteid].voteValue);\r\n    }\r\n\r\n    /// @dev Get the vote count for options of proposal when giving Proposal id and Option index.\r\n    function getProposalVoteAndTokenCountByRoleId(uint _proposalId,uint _roleId,uint _optionIndex) constant returns(uint totalVotes,uint totalToken)\r\n    {\r\n        totalVotes = allProposalVoteAndTokenCount[_proposalId].totalVoteCount[_roleId][_optionIndex];\r\n        totalToken = allProposalVoteAndTokenCount[_proposalId].totalTokenCount[_roleId];\r\n    }\r\n\r\n    function addInTotalVotes(uint _proposalId,uint[] _optionChosen,uint _GBTPayableTokenAmount,uint _finalVoteValue) internal\r\n    {\r\n        increaseTotalVotes();\r\n        allVotes.push(proposalVote(msg.sender,_proposalId,_optionChosen,now,GD.getBalanceOfMember(msg.sender),_GBTPayableTokenAmount,_finalVoteValue));\r\n    }\r\n\r\n    function addVerdictOption(uint _proposalId,uint[] _paramInt,bytes32[] _paramBytes32,address[] _paramAddress,uint _GBTPayableTokenAmount)\r\n    {\r\n        SVT.addVerdictOptionSVT(_proposalId,msg.sender,1,_paramInt,_paramBytes32,_paramAddress,_GBTPayableTokenAmount);\r\n        payableGBTTokensRankBasedVoting(_GBTPayableTokenAmount);\r\n    }\r\n\r\n    function proposalVoting(uint _proposalId,uint[] _optionChosen,uint _GBTPayableTokenAmount)\r\n    {    \r\n        GD=GovernanceData(GDAddress);\r\n        MR=MemberRoles(MRAddress);\r\n        PC=ProposalCategory(PCAddress);\r\n        SVT=StandardVotingType(SVTAddress);\r\n\r\n        uint8 currentVotingId; uint8 category; uint8 intermediateVerdict;\r\n        uint8 verdictOptions;\r\n        (category,currentVotingId,intermediateVerdict,,) = GD.getProposalDetailsById2(_proposalId);\r\n        (,,,verdictOptions) = GD.getProposalCategoryParams(_proposalId);\r\n\r\n        require(GD.getBalanceOfMember(msg.sender) != 0 && GD.getProposalStatus(_proposalId) == 2);\r\n        require(MR.getMemberRoleIdByAddress(msg.sender) == PC.getRoleSequencAtIndex(category,currentVotingId) && _optionChosen.length <= verdictOptions);\r\n\r\n        if(currentVotingId == 0)\r\n        {   \r\n            for(uint i=0; i<_optionChosen.length; i++)\r\n            {\r\n                require(_optionChosen[i] < verdictOptions && msg.sender != GD.getOptionAddressByProposalId(_proposalId,i));\r\n            }\r\n        }   \r\n        else\r\n            require(_optionChosen[0]==intermediateVerdict || _optionChosen[0]==0);\r\n\r\n        if(getVoteId_againstMember(msg.sender,_proposalId) == 0)\r\n        {\r\n            uint votelength = getTotalVotes();\r\n            submitAndUpdateNewMemberVote(_proposalId,currentVotingId,_optionChosen,verdictOptions);\r\n            uint finalVoteValue = SVT.setVoteValue_givenByMember(msg.sender,_proposalId,_GBTPayableTokenAmount);\r\n            allProposalVoteAndTokenCount[_proposalId].totalTokenCount[MR.getMemberRoleIdByAddress(msg.sender)] = SafeMath.add(allProposalVoteAndTokenCount[_proposalId].totalTokenCount[MR.getMemberRoleIdByAddress(msg.sender)],GD.getBalanceOfMember(msg.sender));\r\n            setVoteId_againstMember(msg.sender,_proposalId,votelength);\r\n            ProposalRoleVote[_proposalId][MR.getMemberRoleIdByAddress(msg.sender)].push(votelength);\r\n            verdictOptionsByVoteId[votelength] = verdictOptions;\r\n            GD.setVoteIdAgainstProposal(_proposalId,votelength);\r\n            addInTotalVotes(_proposalId,_optionChosen,_GBTPayableTokenAmount,finalVoteValue);\r\n        }\r\n        else \r\n            changeMemberVote(_proposalId,_optionChosen,_GBTPayableTokenAmount);\r\n    }\r\n\r\n    function changeMemberVote(uint _proposalId,uint[] _optionChosen,uint _GBTPayableTokenAmount) internal\r\n    {\r\n        MR=MemberRoles(MRAddress);\r\n        GD=GovernanceData(GDAddress);\r\n        SVT=StandardVotingType(SVTAddress);\r\n\r\n        uint voteId = getVoteId_againstMember(msg.sender,_proposalId);\r\n        uint[] optionChosen = allVotes[voteId].optionChosen;\r\n\r\n        uint8 verdictOptions; \r\n        (,,,verdictOptions) = GD.getProposalCategoryParams(_proposalId);\r\n        uint8 currentVotingId;\r\n        (,currentVotingId,,,) = GD.getProposalDetailsById2(_proposalId);\r\n\r\n        allVotes[voteId].optionChosen = _optionChosen;\r\n        verdictOptionsByVoteId[voteId] = verdictOptions;\r\n        revertChangesInMemberVote(_proposalId,currentVotingId,optionChosen,voteId);\r\n        submitAndUpdateNewMemberVote(_proposalId,currentVotingId,_optionChosen,verdictOptions);\r\n\r\n        uint finalVoteValue = SVT.setVoteValue_givenByMember(msg.sender,_proposalId,_GBTPayableTokenAmount);\r\n        allVotes[voteId].voteStakeGBT = _GBTPayableTokenAmount;\r\n        allVotes[voteId].voteValue = finalVoteValue;\r\n    }\r\n\r\n    function revertChangesInMemberVote(uint _proposalId,uint _currentVotingId,uint[] _optionChosen,uint _voteId) internal\r\n    {\r\n        if(_currentVotingId == 0)\r\n        {\r\n            uint previousVerdictOptions = verdictOptionsByVoteId[_voteId];\r\n            for(uint i=0; i<_optionChosen.length; i++)\r\n            {\r\n                uint sum = SafeMath.add(sum,(SafeMath.sub(previousVerdictOptions,i)));\r\n            }\r\n\r\n            for(i=0; i<_optionChosen.length; i++)\r\n            {\r\n                uint voteValue = SafeMath.div(SafeMath.mul(SafeMath.sub(previousVerdictOptions,i),100),sum);\r\n                allProposalVoteAndTokenCount[_proposalId].totalVoteCount[MR.getMemberRoleIdByAddress(msg.sender)][_optionChosen[i]] = SafeMath.sub(allProposalVoteAndTokenCount[_proposalId].totalVoteCount[MR.getMemberRoleIdByAddress(msg.sender)][_optionChosen[i]],voteValue);\r\n            }\r\n        }\r\n        else\r\n        {\r\n            allProposalVoteAndTokenCount[_proposalId].totalVoteCount[MR.getMemberRoleIdByAddress(msg.sender)][_optionChosen[0]] = SafeMath.sub(allProposalVoteAndTokenCount[_proposalId].totalVoteCount[MR.getMemberRoleIdByAddress(msg.sender)][_optionChosen[0]],1);\r\n        }\r\n       \r\n    }\r\n\r\n    function submitAndUpdateNewMemberVote(uint _proposalId,uint _currentVotingId,uint[] _optionChosen,uint _verdictOptions) internal\r\n    {\r\n        uint roleId = MR.getMemberRoleIdByAddress(msg.sender);\r\n\r\n        if(_currentVotingId == 0)\r\n        {\r\n            for(uint i=0; i<_optionChosen.length; i++)\r\n            {\r\n                uint sum = SafeMath.add(sum,(SafeMath.sub(_verdictOptions ,i)));\r\n            }\r\n\r\n            for(i=0; i<_optionChosen.length; i++)\r\n            {\r\n                uint voteValue = SafeMath.div(SafeMath.mul(SafeMath.sub(_verdictOptions,i),100),sum);\r\n                allProposalVoteAndTokenCount[_proposalId].totalVoteCount[roleId][_optionChosen[i]] = SafeMath.add(allProposalVoteAndTokenCount[_proposalId].totalVoteCount[roleId][_optionChosen[i]],voteValue);\r\n            }\r\n        } \r\n        else\r\n        {   \r\n            allProposalVoteAndTokenCount[_proposalId].totalVoteCount[roleId][_optionChosen[0]] = SafeMath.add(allProposalVoteAndTokenCount[_proposalId].totalVoteCount[roleId][_optionChosen[0]],1);\r\n        }\r\n    }  \r\n\r\n    function closeProposalVote(uint _proposalId)\r\n    {\r\n        SVT=StandardVotingType(SVTAddress);\r\n        SVT.closeProposalVoteSVT(msg.sender,1,_proposalId);\r\n    }\r\n\r\n    function giveReward_afterFinalDecision(uint _proposalId) public\r\n    {\r\n        GD=GovernanceData(GDAddress);\r\n        uint voteValueFavour; uint voterStake; uint wrongOptionStake; uint returnTokens;\r\n        uint totalVoteValue; uint totalTokenToDistribute;\r\n        uint8 finalVerdict; \r\n        (,,,finalVerdict,) = GD.getProposalDetailsById2(_proposalId);\r\n\r\n\r\n        for(uint i=0; i<GD.getTotalVoteLengthAgainstProposal(_proposalId); i++)\r\n        {\r\n            uint voteid = GD.getVoteIdByProposalId(_proposalId,i);\r\n            if(allVotes[voteid].optionChosen[0] == finalVerdict)\r\n            {\r\n                voteValueFavour = SafeMath.add(voteValueFavour,allVotes[voteid].voteValue);\r\n            }\r\n            else\r\n            {\r\n                voterStake = SafeMath.add(voterStake,SafeMath.mul(allVotes[voteid].voteStakeGBT,(SafeMath.div(SafeMath.mul(1,100),GD.globalRiskFactor()))));\r\n                returnTokens = SafeMath.mul(allVotes[voteid].voteStakeGBT,(SafeMath.sub(1,(SafeMath.div(SafeMath.mul(1,100),GD.globalRiskFactor())))));\r\n                GD.transferBackGBTtoken(allVotes[voteid].voter,returnTokens);\r\n            }\r\n\r\n            // uint voteid = GD.getVoteIdByProposalId(_proposalId,i);\r\n            // for(uint j=0; j<allVotes[voteid].verdictChosen.length; j++)\r\n            // {\r\n            //     if(allVotes[voteid].verdictChosen[j] == finalVerdict)\r\n            //     {\r\n            //         voteValueFavour = SafeMath.add(voteValueFavour,allVotes[voteid].voteValue)+getOptionValue(voteid,_proposalId,j);\r\n            //     }\r\n            //     else\r\n            //     {\r\n            //         voterStake = SafeMath.add(voterStake,SafeMath.mul(allVotes[voteid].voteStakeGBT,(SafeMath.div(SafeMath.mul(1,100),GD.globalRiskFactor())))) + getOptionValue(voteid,_proposalId,j);\r\n            //         returnTokens = SafeMath.mul(allVotes[voteid].voteStakeGBT,(SafeMath.sub(1,(SafeMath.div(SafeMath.mul(1,100),GD.globalRiskFactor())))));\r\n            //         GD.transferBackGBTtoken(allVotes[voteid].voter,returnTokens);\r\n            //     }\r\n            // }\r\n        }\r\n\r\n        for(i=0; i<GD.getOptionAddedAddressLength(_proposalId); i++)\r\n        {\r\n            if(i!= finalVerdict)         \r\n                wrongOptionStake = SafeMath.add(wrongOptionStake,GD.getOptionStakeByProposalId(_proposalId,i));\r\n        }\r\n\r\n        totalVoteValue = SafeMath.add(GD.getOptionValueByProposalId(_proposalId,finalVerdict),voteValueFavour);\r\n        totalTokenToDistribute = SafeMath.add(wrongOptionStake,voterStake);\r\n\r\n        if(finalVerdict>0)\r\n            totalVoteValue = SafeMath.add(totalVoteValue,GD.getProposalValue(_proposalId));\r\n        else\r\n            totalTokenToDistribute = SafeMath.add(totalTokenToDistribute,GD.getProposalStake(_proposalId));\r\n\r\n        distributeReward(_proposalId,totalTokenToDistribute,totalVoteValue);\r\n    }\r\n\r\n    function distributeReward(uint _proposalId,uint _totalTokenToDistribute,uint _totalVoteValue) internal\r\n    {\r\n        uint reward;uint transferToken;\r\n        uint8 finalVerdict;\r\n        (,,,finalVerdict,) = GD.getProposalDetailsById2(_proposalId);\r\n        uint addMemberPoints; uint subMemberPoints;\r\n        (,,addMemberPoints,,,subMemberPoints)=GD.getMemberReputationPoints();\r\n\r\n        if(finalVerdict > 0)\r\n        {\r\n            reward = SafeMath.div(SafeMath.mul(GD.getProposalStake(_proposalId),_totalTokenToDistribute),_totalVoteValue);\r\n            transferToken = SafeMath.add(GD.getProposalStake(_proposalId),reward);\r\n            GD.transferBackGBTtoken(GD.getProposalOwner(_proposalId),transferToken);\r\n\r\n            reward = SafeMath.div(SafeMath.mul(GD.getOptionStakeByProposalId(_proposalId,finalVerdict),_totalTokenToDistribute),_totalVoteValue);\r\n            transferToken = SafeMath.add(GD.getOptionStakeByProposalId(_proposalId,finalVerdict),reward);\r\n            GD.transferBackGBTtoken(GD.getOptionAddressByProposalId(_proposalId,finalVerdict),transferToken);\r\n        }\r\n\r\n        for(uint i=0; i<GD.getTotalVoteLengthAgainstProposal(_proposalId); i++)\r\n        {\r\n            uint voteid = GD.getVoteIdByProposalId(_proposalId,i);\r\n            for(uint j=0; j<allVotes[voteid].optionChosen.length; j++)\r\n            {\r\n                if(allVotes[voteid].optionChosen[j] == finalVerdict)\r\n                {\r\n                    uint optionValue = getOptionValue(voteid,_proposalId,j);\r\n                    reward = SafeMath.div(SafeMath.mul(allVotes[voteid].voteValue,_totalTokenToDistribute),_totalVoteValue);\r\n                    transferToken = SafeMath.add(allVotes[voteid].voteStakeGBT,reward);\r\n                    GD.transferBackGBTtoken(allVotes[voteid].voter,transferToken);\r\n                    GD.updateMemberReputation1(allVotes[voteid].voter,SafeMath.add(addMemberPoints,GD.getMemberReputation(allVotes[voteid].voter)));\r\n                }\r\n                else\r\n                {\r\n                    GD.updateMemberReputation1(allVotes[voteid].voter,SafeMath.sub(GD.getMemberReputation(allVotes[voteid].voter),subMemberPoints));\r\n                }\r\n                    \r\n            }        \r\n        }\r\n        GD.updateMemberReputation(_proposalId,finalVerdict);\r\n    }\r\n\r\n    function getOptionValue(uint voteid,uint _proposalId,uint _optionIndex) internal returns (uint optionValue)\r\n    {\r\n        uint[] _optionChosen = allVotes[voteid].optionChosen;\r\n        uint8 _verdictOptions; \r\n        (,,,_verdictOptions) = GD.getProposalCategoryParams(_proposalId);\r\n\r\n        for(uint i=0; i<_optionChosen.length; i++)\r\n        {\r\n            uint sum = SafeMath.add(sum,(SafeMath.sub(_verdictOptions ,i)));\r\n        }\r\n        optionValue = SafeMath.div(SafeMath.mul(SafeMath.sub(_verdictOptions,_optionIndex),100),sum);\r\n    }\r\n\r\n}\r\n",
  "sourcePath": "D:\\RUCHITA\\Govblocks-Git\\contracts\\RankBasedVoting.sol",
  "compiler": {
    "name": "solc",
    "version": "0.4.18+commit.9cf6e910.Emscripten.clang"
  },
  "schemaVersion": "1.0.1",
  "updatedAt": "2018-01-30T10:36:00.396Z"
}