{
  "contractName": "RankBasedVoting",
  "abi": [
    {
      "constant": false,
      "inputs": [
        {
          "name": "_TokenAmount",
          "type": "uint256"
        }
      ],
      "name": "payableGBTTokensRankBasedVoting",
      "outputs": [],
      "payable": false,
      "stateMutability": "nonpayable",
      "type": "function"
    },
    {
      "constant": false,
      "inputs": [
        {
          "name": "_G1ContractAddress",
          "type": "address"
        }
      ],
      "name": "changeGovernanceAddress",
      "outputs": [],
      "payable": false,
      "stateMutability": "nonpayable",
      "type": "function"
    },
    {
      "constant": false,
      "inputs": [
        {
          "name": "_proposalId",
          "type": "uint256"
        }
      ],
      "name": "giveReward_afterFinalDecision",
      "outputs": [],
      "payable": false,
      "stateMutability": "nonpayable",
      "type": "function"
    },
    {
      "constant": false,
      "inputs": [
        {
          "name": "_GBTcontractAddress",
          "type": "address"
        }
      ],
      "name": "changeGBTtokenAddress",
      "outputs": [],
      "payable": false,
      "stateMutability": "nonpayable",
      "type": "function"
    },
    {
      "constant": false,
      "inputs": [
        {
          "name": "_BTContractAddress",
          "type": "address"
        },
        {
          "name": "_StandardVotingAddress",
          "type": "address"
        },
        {
          "name": "_GDcontractAddress",
          "type": "address"
        },
        {
          "name": "_MRcontractAddress",
          "type": "address"
        },
        {
          "name": "_PCcontractAddress",
          "type": "address"
        }
      ],
      "name": "changeAllContractsAddress",
      "outputs": [],
      "payable": false,
      "stateMutability": "nonpayable",
      "type": "function"
    },
    {
      "constant": true,
      "inputs": [
        {
          "name": "_proposalId",
          "type": "uint256"
        },
        {
          "name": "_roleId",
          "type": "uint256"
        },
        {
          "name": "_optionIndex",
          "type": "uint256"
        }
      ],
      "name": "getProposalVoteAndTokenCountByRoleId",
      "outputs": [
        {
          "name": "totalVotes",
          "type": "uint256"
        },
        {
          "name": "totalToken",
          "type": "uint256"
        }
      ],
      "payable": false,
      "stateMutability": "view",
      "type": "function"
    },
    {
      "constant": false,
      "inputs": [
        {
          "name": "_memberAddress",
          "type": "address"
        },
        {
          "name": "_proposalId",
          "type": "uint256"
        },
        {
          "name": "_voteLength",
          "type": "uint256"
        }
      ],
      "name": "setVoteId_againstMember",
      "outputs": [],
      "payable": false,
      "stateMutability": "nonpayable",
      "type": "function"
    },
    {
      "constant": false,
      "inputs": [],
      "name": "RankBasedVotingInitiate",
      "outputs": [],
      "payable": false,
      "stateMutability": "nonpayable",
      "type": "function"
    },
    {
      "constant": true,
      "inputs": [
        {
          "name": "_voteid",
          "type": "uint256"
        }
      ],
      "name": "getVoteDetailByid",
      "outputs": [
        {
          "name": "voter",
          "type": "address"
        },
        {
          "name": "proposalId",
          "type": "uint256"
        },
        {
          "name": "optionChosen",
          "type": "uint256[]"
        },
        {
          "name": "dateSubmit",
          "type": "uint256"
        },
        {
          "name": "voterTokens",
          "type": "uint256"
        },
        {
          "name": "voteStakeGBT",
          "type": "uint256"
        },
        {
          "name": "voteValue",
          "type": "uint256"
        }
      ],
      "payable": false,
      "stateMutability": "view",
      "type": "function"
    },
    {
      "constant": true,
      "inputs": [],
      "name": "allVotesTotal",
      "outputs": [
        {
          "name": "",
          "type": "uint256"
        }
      ],
      "payable": false,
      "stateMutability": "view",
      "type": "function"
    },
    {
      "constant": false,
      "inputs": [
        {
          "name": "_proposalId",
          "type": "uint256"
        },
        {
          "name": "_optionChosen",
          "type": "uint256[]"
        },
        {
          "name": "_GBTPayableTokenAmount",
          "type": "uint256"
        }
      ],
      "name": "proposalVoting",
      "outputs": [],
      "payable": false,
      "stateMutability": "nonpayable",
      "type": "function"
    },
    {
      "constant": true,
      "inputs": [],
      "name": "getTotalVotes",
      "outputs": [
        {
          "name": "votesTotal",
          "type": "uint256"
        }
      ],
      "payable": false,
      "stateMutability": "view",
      "type": "function"
    },
    {
      "constant": false,
      "inputs": [
        {
          "name": "_proposalId",
          "type": "uint256"
        },
        {
          "name": "_paramInt",
          "type": "uint256[]"
        },
        {
          "name": "_paramBytes32",
          "type": "bytes32[]"
        },
        {
          "name": "_paramAddress",
          "type": "address[]"
        },
        {
          "name": "_GBTPayableTokenAmount",
          "type": "uint256"
        },
        {
          "name": "_optionHash",
          "type": "string"
        }
      ],
      "name": "addVerdictOption",
      "outputs": [],
      "payable": false,
      "stateMutability": "nonpayable",
      "type": "function"
    },
    {
      "constant": true,
      "inputs": [
        {
          "name": "_proposalId",
          "type": "uint256"
        },
        {
          "name": "_roleId",
          "type": "uint256"
        },
        {
          "name": "_optionIndex",
          "type": "uint256"
        }
      ],
      "name": "getVotesbyOption_againstProposal",
      "outputs": [
        {
          "name": "totalVotes",
          "type": "uint256"
        }
      ],
      "payable": false,
      "stateMutability": "view",
      "type": "function"
    },
    {
      "constant": false,
      "inputs": [
        {
          "name": "_proposalId",
          "type": "uint256"
        }
      ],
      "name": "closeProposalVote",
      "outputs": [],
      "payable": false,
      "stateMutability": "nonpayable",
      "type": "function"
    },
    {
      "constant": true,
      "inputs": [],
      "name": "masterAddress",
      "outputs": [
        {
          "name": "",
          "type": "address"
        }
      ],
      "payable": false,
      "stateMutability": "view",
      "type": "function"
    },
    {
      "constant": false,
      "inputs": [
        {
          "name": "_masterContractAddress",
          "type": "address"
        }
      ],
      "name": "changeMasterAddress",
      "outputs": [],
      "payable": false,
      "stateMutability": "nonpayable",
      "type": "function"
    },
    {
      "constant": true,
      "inputs": [
        {
          "name": "_memberAddress",
          "type": "address"
        },
        {
          "name": "_proposalId",
          "type": "uint256"
        }
      ],
      "name": "getVoteId_againstMember",
      "outputs": [
        {
          "name": "voteId",
          "type": "uint256"
        }
      ],
      "payable": false,
      "stateMutability": "view",
      "type": "function"
    },
    {
      "constant": true,
      "inputs": [],
      "name": "votingTypeName",
      "outputs": [
        {
          "name": "",
          "type": "string"
        }
      ],
      "payable": false,
      "stateMutability": "view",
      "type": "function"
    }
  ],
  "bytecode": "0x6060604052341561000f57600080fd5b61597b806200001f6000396000f300606060405260043610610107576000357c0100000000000000000000000000000000000000000000000000000000900463ffffffff16806301984c171461010c5780630636769e1461012f5780630a256ae1146101685780630df34cdb1461018b5780632e95cfb9146101c45780634a261ce31461027957806361a0c020146102c9578063628f56fd1461031457806366cf51de1461032957806379098c64146103f757806389d92241146104205780639a0e7d661461048c5780639f216e8e146104b5578063a17d5b0a146105e4578063c46994ce1461062d578063d365a08e14610650578063d46655f4146106a5578063eef83a4b146106de578063f8eb64b214610734575b600080fd5b341561011757600080fd5b61012d60048080359060200190919050506107c2565b005b341561013a57600080fd5b610166600480803573ffffffffffffffffffffffffffffffffffffffff16906020019091905050610a4d565b005b341561017357600080fd5b6101896004808035906020019091905050610a91565b005b341561019657600080fd5b6101c2600480803573ffffffffffffffffffffffffffffffffffffffff169060200190919050506114f9565b005b34156101cf57600080fd5b610277600480803573ffffffffffffffffffffffffffffffffffffffff1690602001909190803573ffffffffffffffffffffffffffffffffffffffff1690602001909190803573ffffffffffffffffffffffffffffffffffffffff1690602001909190803573ffffffffffffffffffffffffffffffffffffffff1690602001909190803573ffffffffffffffffffffffffffffffffffffffff1690602001909190505061168e565b005b341561028457600080fd5b6102ac600480803590602001909190803590602001909190803590602001909190505061192b565b604051808381526020018281526020019250505060405180910390f35b34156102d457600080fd5b610312600480803573ffffffffffffffffffffffffffffffffffffffff16906020019091908035906020019091908035906020019091905050611999565b005b341561031f57600080fd5b6103276119f3565b005b341561033457600080fd5b61034a6004808035906020019091905050611be0565b604051808873ffffffffffffffffffffffffffffffffffffffff1673ffffffffffffffffffffffffffffffffffffffff16815260200187815260200180602001868152602001858152602001848152602001838152602001828103825287818151815260200191508051906020019060200280838360005b838110156103dd5780820151818401526020810190506103c2565b505050509050019850505050505050505060405180910390f35b341561040257600080fd5b61040a611d62565b6040518082815260200191505060405180910390f35b341561042b57600080fd5b61048a600480803590602001909190803590602001908201803590602001908080602002602001604051908101604052809392919081815260200183836020028082843782019150505050505091908035906020019091905050611d68565b005b341561049757600080fd5b61049f612cca565b6040518082815260200191505060405180910390f35b34156104c057600080fd5b6105e2600480803590602001909190803590602001908201803590602001908080602002602001604051908101604052809392919081815260200183836020028082843782019150505050505091908035906020019082018035906020019080806020026020016040519081016040528093929190818152602001838360200280828437820191505050505050919080359060200190820180359060200190808060200260200160405190810160405280939291908181526020018383602002808284378201915050505050509190803590602001909190803590602001908201803590602001908080601f01602080910402602001604051908101604052809392919081815260200183838082843782019150505050505091905050612cd7565b005b34156105ef57600080fd5b6106176004808035906020019091908035906020019091908035906020019091905050612f19565b6040518082815260200191505060405180910390f35b341561063857600080fd5b61064e6004808035906020019091905050612f5c565b005b341561065b57600080fd5b6106636130a3565b604051808273ffffffffffffffffffffffffffffffffffffffff1673ffffffffffffffffffffffffffffffffffffffff16815260200191505060405180910390f35b34156106b057600080fd5b6106dc600480803573ffffffffffffffffffffffffffffffffffffffff169060200190919050506130c9565b005b34156106e957600080fd5b61071e600480803573ffffffffffffffffffffffffffffffffffffffff169060200190919080359060200190919050506132e6565b6040518082815260200191505060405180910390f35b341561073f57600080fd5b610747613341565b6040518080602001828103825283818151815260200191508051906020019080838360005b8381101561078757808201518184015260208101905061076c565b50505050905090810190601f1680156107b45780820380516001836020036101000a031916815260200191505b509250505060405180910390f35b600a60009054906101000a900473ffffffffffffffffffffffffffffffffffffffff16601060006101000a81548173ffffffffffffffffffffffffffffffffffffffff021916908373ffffffffffffffffffffffffffffffffffffffff160217905550600660009054906101000a900473ffffffffffffffffffffffffffffffffffffffff16601260006101000a81548173ffffffffffffffffffffffffffffffffffffffff021916908373ffffffffffffffffffffffffffffffffffffffff160217905550601260009054906101000a900473ffffffffffffffffffffffffffffffffffffffff1673ffffffffffffffffffffffffffffffffffffffff1663ed1eee716000604051602001526040518163ffffffff167c0100000000000000000000000000000000000000000000000000000000028152600401602060405180830381600087803b151561091657600080fd5b6102c65a03f1151561092757600080fd5b50505060405180519050811015151561093f57600080fd5b601060009054906101000a900473ffffffffffffffffffffffffffffffffffffffff1673ffffffffffffffffffffffffffffffffffffffff1663a9059cbb600960009054906101000a900473ffffffffffffffffffffffffffffffffffffffff16836000604051602001526040518363ffffffff167c0100000000000000000000000000000000000000000000000000000000028152600401808373ffffffffffffffffffffffffffffffffffffffff1673ffffffffffffffffffffffffffffffffffffffff16815260200182815260200192505050602060405180830381600087803b1515610a2e57600080fd5b6102c65a03f11515610a3f57600080fd5b505050604051805190505050565b80600c60006101000a81548173ffffffffffffffffffffffffffffffffffffffff021916908373ffffffffffffffffffffffffffffffffffffffff16021790555050565b6000806000806000806000806000600660009054906101000a900473ffffffffffffffffffffffffffffffffffffffff16601260006101000a81548173ffffffffffffffffffffffffffffffffffffffff021916908373ffffffffffffffffffffffffffffffffffffffff160217905550601260009054906101000a900473ffffffffffffffffffffffffffffffffffffffff1673ffffffffffffffffffffffffffffffffffffffff1663ec9ccfff8b600060405160a001526040518263ffffffff167c01000000000000000000000000000000000000000000000000000000000281526004018082815260200191505060a060405180830381600087803b1515610b9b57600080fd5b6102c65a03f11515610bac57600080fd5b505050604051805190602001805190602001805190602001805190602001805190509091929350909192509091505080935050600091505b601260009054906101000a900473ffffffffffffffffffffffffffffffffffffffff1673ffffffffffffffffffffffffffffffffffffffff166393a6b05f8b6000604051602001526040518263ffffffff167c010000000000000000000000000000000000000000000000000000000002815260040180828152602001915050602060405180830381600087803b1515610c7d57600080fd5b6102c65a03f11515610c8e57600080fd5b505050604051805190508210156110db57601260009054906101000a900473ffffffffffffffffffffffffffffffffffffffff1673ffffffffffffffffffffffffffffffffffffffff166372a5f4d48b846000604051602001526040518363ffffffff167c01000000000000000000000000000000000000000000000000000000000281526004018083815260200182815260200192505050602060405180830381600087803b1515610d4057600080fd5b6102c65a03f11515610d5157600080fd5b5050506040518051905090508260ff16600382815481101515610d7057fe5b90600052602060002090600702016002016000815481101515610d8f57fe5b9060005260206000209001541415610dd257610dcb89600383815481101515610db457fe5b9060005260206000209060070201600601546133df565b98506110ce565b610ec188610ebc600384815481101515610de857fe5b906000526020600020906007020160050154610eb7610e09600160646133fd565b601260009054906101000a900473ffffffffffffffffffffffffffffffffffffffff1673ffffffffffffffffffffffffffffffffffffffff1663ad3208466000604051602001526040518163ffffffff167c0100000000000000000000000000000000000000000000000000000000028152600401602060405180830381600087803b1515610e9757600080fd5b6102c65a03f11515610ea857600080fd5b50505060405180519050613438565b6133fd565b6133df565b9750610fb3600382815481101515610ed557fe5b906000526020600020906007020160050154610fae6001610fa9610efb600160646133fd565b601260009054906101000a900473ffffffffffffffffffffffffffffffffffffffff1673ffffffffffffffffffffffffffffffffffffffff1663ad3208466000604051602001526040518163ffffffff167c0100000000000000000000000000000000000000000000000000000000028152600401602060405180830381600087803b1515610f8957600080fd5b6102c65a03f11515610f9a57600080fd5b50505060405180519050613438565b613453565b6133fd565b9550600f60009054906101000a900473ffffffffffffffffffffffffffffffffffffffff1673ffffffffffffffffffffffffffffffffffffffff1663649db80b60038381548110151561100257fe5b906000526020600020906007020160000160009054906101000a900473ffffffffffffffffffffffffffffffffffffffff16886040518363ffffffff167c0100000000000000000000000000000000000000000000000000000000028152600401808373ffffffffffffffffffffffffffffffffffffffff1673ffffffffffffffffffffffffffffffffffffffff16815260200182815260200192505050600060405180830381600087803b15156110b957600080fd5b6102c65a03f115156110ca57600080fd5b5050505b8180600101925050610be4565b600091505b601260009054906101000a900473ffffffffffffffffffffffffffffffffffffffff1673ffffffffffffffffffffffffffffffffffffffff1663ad8750418b6000604051602001526040518263ffffffff167c010000000000000000000000000000000000000000000000000000000002815260040180828152602001915050602060405180830381600087803b151561117957600080fd5b6102c65a03f1151561118a57600080fd5b5050506040518051905082101561127c578260ff168214151561126f5761126c87601260009054906101000a900473ffffffffffffffffffffffffffffffffffffffff1673ffffffffffffffffffffffffffffffffffffffff16630ecc69c18d866000604051602001526040518363ffffffff167c01000000000000000000000000000000000000000000000000000000000281526004018083815260200182815260200192505050602060405180830381600087803b151561124c57600080fd5b6102c65a03f1151561125d57600080fd5b505050604051805190506133df565b96505b81806001019250506110e0565b611344601260009054906101000a900473ffffffffffffffffffffffffffffffffffffffff1673ffffffffffffffffffffffffffffffffffffffff1663c066ea868c866000604051602001526040518363ffffffff167c0100000000000000000000000000000000000000000000000000000000028152600401808381526020018260ff16815260200192505050602060405180830381600087803b151561132357600080fd5b6102c65a03f1151561133457600080fd5b505050604051805190508a6133df565b945061135087896133df565b935060008360ff1611156114225761141b85601260009054906101000a900473ffffffffffffffffffffffffffffffffffffffff1673ffffffffffffffffffffffffffffffffffffffff1663ba63453f8d6000604051602001526040518263ffffffff167c010000000000000000000000000000000000000000000000000000000002815260040180828152602001915050602060405180830381600087803b15156113fb57600080fd5b6102c65a03f1151561140c57600080fd5b505050604051805190506133df565b94506114e2565b6114df84601260009054906101000a900473ffffffffffffffffffffffffffffffffffffffff1673ffffffffffffffffffffffffffffffffffffffff16633a0fcafc8d6000604051602001526040518263ffffffff167c010000000000000000000000000000000000000000000000000000000002815260040180828152602001915050602060405180830381600087803b15156114bf57600080fd5b6102c65a03f115156114d057600080fd5b505050604051805190506133df565b93505b6114ed8a858761346c565b50505050505050505050565b600b60009054906101000a900473ffffffffffffffffffffffffffffffffffffffff16601460006101000a81548173ffffffffffffffffffffffffffffffffffffffff021916908373ffffffffffffffffffffffffffffffffffffffff1602179055506001601460009054906101000a900473ffffffffffffffffffffffffffffffffffffffff1673ffffffffffffffffffffffffffffffffffffffff16638f16c41c336000604051602001526040518263ffffffff167c0100000000000000000000000000000000000000000000000000000000028152600401808273ffffffffffffffffffffffffffffffffffffffff1673ffffffffffffffffffffffffffffffffffffffff168152602001915050602060405180830381600087803b151561162357600080fd5b6102c65a03f1151561163457600080fd5b5050506040518051905014151561164a57600080fd5b80600960006101000a81548173ffffffffffffffffffffffffffffffffffffffff021916908373ffffffffffffffffffffffffffffffffffffffff16021790555050565b600b60009054906101000a900473ffffffffffffffffffffffffffffffffffffffff16601460006101000a81548173ffffffffffffffffffffffffffffffffffffffff021916908373ffffffffffffffffffffffffffffffffffffffff1602179055506001601460009054906101000a900473ffffffffffffffffffffffffffffffffffffffff1673ffffffffffffffffffffffffffffffffffffffff16638f16c41c336000604051602001526040518263ffffffff167c0100000000000000000000000000000000000000000000000000000000028152600401808273ffffffffffffffffffffffffffffffffffffffff1673ffffffffffffffffffffffffffffffffffffffff168152602001915050602060405180830381600087803b15156117b857600080fd5b6102c65a03f115156117c957600080fd5b505050604051805190501415156117df57600080fd5b84600a60006101000a81548173ffffffffffffffffffffffffffffffffffffffff021916908373ffffffffffffffffffffffffffffffffffffffff16021790555083600d60006101000a81548173ffffffffffffffffffffffffffffffffffffffff021916908373ffffffffffffffffffffffffffffffffffffffff16021790555082600660006101000a81548173ffffffffffffffffffffffffffffffffffffffff021916908373ffffffffffffffffffffffffffffffffffffffff16021790555081600760006101000a81548173ffffffffffffffffffffffffffffffffffffffff021916908373ffffffffffffffffffffffffffffffffffffffff16021790555080600860006101000a81548173ffffffffffffffffffffffffffffffffffffffff021916908373ffffffffffffffffffffffffffffffffffffffff1602179055505050505050565b600080600080868152602001908152602001600020600001600085815260200190815260200160002060008481526020019081526020016000205491506000808681526020019081526020016000206001016000858152602001908152602001600020549050935093915050565b80600260008573ffffffffffffffffffffffffffffffffffffffff1673ffffffffffffffffffffffffffffffffffffffff168152602001908152602001600020600084815260200190815260200160002081905550505050565b600080601360149054906101000a900460ff1660ff16141515611a1557600080fd5b60038054806001018281611a2991906156ff565b9160005260206000209060070201600060e060405190810160405280600073ffffffffffffffffffffffffffffffffffffffff1681526020016000815260200185805480602002602001604051908101604052809291908181526020018280548015611ab457602002820191906000526020600020905b815481526020019060010190808311611aa0575b5050505050815260200142815260200160008152602001600081526020016000815250909190915060008201518160000160006101000a81548173ffffffffffffffffffffffffffffffffffffffff021916908373ffffffffffffffffffffffffffffffffffffffff160217905550602082015181600101556040820151816002019080519060200190611b49929190615731565b50606082015181600301556080820151816004015560a0820151816005015560c082015181600601555050506040805190810160405280601481526020017f52616e6b696e6720426173656420566f74696e6700000000000000000000000081525060059080519060200190611bc092919061577e565b506001601360146101000a81548160ff021916908360ff16021790555050565b600080611beb6157fe565b600080600080600388815481101515611c0057fe5b906000526020600020906007020160000160009054906101000a900473ffffffffffffffffffffffffffffffffffffffff16600389815481101515611c4157fe5b90600052602060002090600702016001015460038a815481101515611c6257fe5b906000526020600020906007020160020160038b815481101515611c8257fe5b90600052602060002090600702016003015460038c815481101515611ca357fe5b90600052602060002090600702016004015460038d815481101515611cc457fe5b90600052602060002090600702016005015460038e815481101515611ce557fe5b90600052602060002090600702016006015484805480602002602001604051908101604052809291908181526020018280548015611d4257602002820191906000526020600020905b815481526020019060010190808311611d2e575b505050505094509650965096509650965096509650919395979092949650565b60045481565b6000806000806000806000600660009054906101000a900473ffffffffffffffffffffffffffffffffffffffff16601260006101000a81548173ffffffffffffffffffffffffffffffffffffffff021916908373ffffffffffffffffffffffffffffffffffffffff160217905550600760009054906101000a900473ffffffffffffffffffffffffffffffffffffffff16600e60006101000a81548173ffffffffffffffffffffffffffffffffffffffff021916908373ffffffffffffffffffffffffffffffffffffffff160217905550600860009054906101000a900473ffffffffffffffffffffffffffffffffffffffff16601160006101000a81548173ffffffffffffffffffffffffffffffffffffffff021916908373ffffffffffffffffffffffffffffffffffffffff160217905550600d60009054906101000a900473ffffffffffffffffffffffffffffffffffffffff16601360006101000a81548173ffffffffffffffffffffffffffffffffffffffff021916908373ffffffffffffffffffffffffffffffffffffffff160217905550601260009054906101000a900473ffffffffffffffffffffffffffffffffffffffff1673ffffffffffffffffffffffffffffffffffffffff1663ec9ccfff8b600060405160a001526040518263ffffffff167c01000000000000000000000000000000000000000000000000000000000281526004018082815260200191505060a060405180830381600087803b1515611f9857600080fd5b6102c65a03f11515611fa957600080fd5b50505060405180519060200180519060200180519060200180519060200180519050905050809750819950829850505050601260009054906101000a900473ffffffffffffffffffffffffffffffffffffffff1673ffffffffffffffffffffffffffffffffffffffff1663a1bd71b98b6000604051608001526040518263ffffffff167c010000000000000000000000000000000000000000000000000000000002815260040180828152602001915050608060405180830381600087803b151561207357600080fd5b6102c65a03f1151561208457600080fd5b50505060405180519060200180519060200180519060200180519050909192509091509050809450506000601260009054906101000a900473ffffffffffffffffffffffffffffffffffffffff1673ffffffffffffffffffffffffffffffffffffffff166335c42dbb336000604051602001526040518263ffffffff167c0100000000000000000000000000000000000000000000000000000000028152600401808273ffffffffffffffffffffffffffffffffffffffff1673ffffffffffffffffffffffffffffffffffffffff168152602001915050602060405180830381600087803b151561217457600080fd5b6102c65a03f1151561218557600080fd5b505050604051805190501415801561225057506002601260009054906101000a900473ffffffffffffffffffffffffffffffffffffffff1673ffffffffffffffffffffffffffffffffffffffff1663401853b78c6000604051602001526040518263ffffffff167c010000000000000000000000000000000000000000000000000000000002815260040180828152602001915050602060405180830381600087803b151561223357600080fd5b6102c65a03f1151561224457600080fd5b50505060405180519050145b151561225b57600080fd5b601160009054906101000a900473ffffffffffffffffffffffffffffffffffffffff1673ffffffffffffffffffffffffffffffffffffffff16639deeab2087896000604051602001526040518363ffffffff167c0100000000000000000000000000000000000000000000000000000000028152600401808360ff1681526020018260ff16815260200192505050602060405180830381600087803b151561230257600080fd5b6102c65a03f1151561231357600080fd5b50505060405180519050600e60009054906101000a900473ffffffffffffffffffffffffffffffffffffffff1673ffffffffffffffffffffffffffffffffffffffff1663beae32ba336000604051602001526040518263ffffffff167c0100000000000000000000000000000000000000000000000000000000028152600401808273ffffffffffffffffffffffffffffffffffffffff1673ffffffffffffffffffffffffffffffffffffffff168152602001915050602060405180830381600087803b15156123e257600080fd5b6102c65a03f115156123f357600080fd5b5050506040518051905014801561240e57508360ff16895111155b151561241957600080fd5b60008760ff16141561256057600092505b885183101561255b578360ff16898481518110151561244557fe5b906020019060200201511080156125435750601260009054906101000a900473ffffffffffffffffffffffffffffffffffffffff1673ffffffffffffffffffffffffffffffffffffffff1663e28d879f8b856000604051602001526040518363ffffffff167c01000000000000000000000000000000000000000000000000000000000281526004018083815260200182815260200192505050602060405180830381600087803b15156124f857600080fd5b6102c65a03f1151561250957600080fd5b5050506040518051905073ffffffffffffffffffffffffffffffffffffffff163373ffffffffffffffffffffffffffffffffffffffff1614155b151561254e57600080fd5b828060010193505061242a565b6125ad565b8460ff1689600081518110151561257357fe5b9060200190602002015114806125a15750600089600081518110151561259557fe5b90602001906020020151145b15156125ac57600080fd5b5b60006125b9338c6132e6565b1415612cb2576125c7612cca565b91506125db8a8860ff168b8760ff16614622565b601360009054906101000a900473ffffffffffffffffffffffffffffffffffffffff1673ffffffffffffffffffffffffffffffffffffffff1663ceeb6f1b338c8b6000604051602001526040518463ffffffff167c0100000000000000000000000000000000000000000000000000000000028152600401808473ffffffffffffffffffffffffffffffffffffffff1673ffffffffffffffffffffffffffffffffffffffff1681526020018381526020018281526020019350505050602060405180830381600087803b15156126b057600080fd5b6102c65a03f115156126c157600080fd5b5050506040518051905090506128bb6000808c81526020019081526020016000206001016000600e60009054906101000a900473ffffffffffffffffffffffffffffffffffffffff1673ffffffffffffffffffffffffffffffffffffffff1663beae32ba336000604051602001526040518263ffffffff167c0100000000000000000000000000000000000000000000000000000000028152600401808273ffffffffffffffffffffffffffffffffffffffff1673ffffffffffffffffffffffffffffffffffffffff168152602001915050602060405180830381600087803b15156127ac57600080fd5b6102c65a03f115156127bd57600080fd5b50505060405180519050815260200190815260200160002054601260009054906101000a900473ffffffffffffffffffffffffffffffffffffffff1673ffffffffffffffffffffffffffffffffffffffff166335c42dbb336000604051602001526040518263ffffffff167c0100000000000000000000000000000000000000000000000000000000028152600401808273ffffffffffffffffffffffffffffffffffffffff1673ffffffffffffffffffffffffffffffffffffffff168152602001915050602060405180830381600087803b151561289b57600080fd5b6102c65a03f115156128ac57600080fd5b505050604051805190506133df565b6000808c81526020019081526020016000206001016000600e60009054906101000a900473ffffffffffffffffffffffffffffffffffffffff1673ffffffffffffffffffffffffffffffffffffffff1663beae32ba336000604051602001526040518263ffffffff167c0100000000000000000000000000000000000000000000000000000000028152600401808273ffffffffffffffffffffffffffffffffffffffff1673ffffffffffffffffffffffffffffffffffffffff168152602001915050602060405180830381600087803b151561299757600080fd5b6102c65a03f115156129a857600080fd5b505050604051805190508152602001908152602001600020819055506129cf338b84611999565b600160008b81526020019081526020016000206000600e60009054906101000a900473ffffffffffffffffffffffffffffffffffffffff1673ffffffffffffffffffffffffffffffffffffffff1663beae32ba336000604051602001526040518263ffffffff167c0100000000000000000000000000000000000000000000000000000000028152600401808273ffffffffffffffffffffffffffffffffffffffff1673ffffffffffffffffffffffffffffffffffffffff168152602001915050602060405180830381600087803b1515612aa957600080fd5b6102c65a03f11515612aba57600080fd5b5050506040518051905081526020019081526020016000208054806001018281612ae49190615812565b916000526020600020900160008490919091505550836015600084815260200190815260200160002060006101000a81548160ff021916908360ff160217905550601260009054906101000a900473ffffffffffffffffffffffffffffffffffffffff1673ffffffffffffffffffffffffffffffffffffffff1663d207287f8b846040518363ffffffff167c01000000000000000000000000000000000000000000000000000000000281526004018083815260200182815260200192505050600060405180830381600087803b1515612bbd57600080fd5b6102c65a03f11515612bce57600080fd5b505050601260009054906101000a900473ffffffffffffffffffffffffffffffffffffffff1673ffffffffffffffffffffffffffffffffffffffff16631a9da4af336040518263ffffffff167c0100000000000000000000000000000000000000000000000000000000028152600401808273ffffffffffffffffffffffffffffffffffffffff1673ffffffffffffffffffffffffffffffffffffffff168152602001915050600060405180830381600087803b1515612c8d57600080fd5b6102c65a03f11515612c9e57600080fd5b505050612cad8a8a8a846148e4565b612cbe565b612cbd8a8a8a614ade565b5b50505050505050505050565b6000600380549050905090565b601360009054906101000a900473ffffffffffffffffffffffffffffffffffffffff1673ffffffffffffffffffffffffffffffffffffffff1663922a3b5f8733600189898989896040518963ffffffff167c0100000000000000000000000000000000000000000000000000000000028152600401808981526020018873ffffffffffffffffffffffffffffffffffffffff1673ffffffffffffffffffffffffffffffffffffffff1681526020018781526020018060200180602001806020018681526020018060200185810385528a818151815260200191508051906020019060200280838360005b83811015612ddc578082015181840152602081019050612dc1565b50505050905001858103845289818151815260200191508051906020019060200280838360005b83811015612e1e578082015181840152602081019050612e03565b50505050905001858103835288818151815260200191508051906020019060200280838360005b83811015612e60578082015181840152602081019050612e45565b50505050905001858103825286818151815260200191508051906020019080838360005b83811015612e9f578082015181840152602081019050612e84565b50505050905090810190601f168015612ecc5780820380516001836020036101000a031916815260200191505b509c50505050505050505050505050600060405180830381600087803b1515612ef457600080fd5b6102c65a03f11515612f0557600080fd5b505050612f11826107c2565b505050505050565b6000806000858152602001908152602001600020600001600084815260200190815260200160002060008381526020019081526020016000205490509392505050565b600d60009054906101000a900473ffffffffffffffffffffffffffffffffffffffff16601360006101000a81548173ffffffffffffffffffffffffffffffffffffffff021916908373ffffffffffffffffffffffffffffffffffffffff160217905550601360009054906101000a900473ffffffffffffffffffffffffffffffffffffffff1673ffffffffffffffffffffffffffffffffffffffff1663d9aa6f19336001846040518463ffffffff167c0100000000000000000000000000000000000000000000000000000000028152600401808473ffffffffffffffffffffffffffffffffffffffff1673ffffffffffffffffffffffffffffffffffffffff1681526020018381526020018281526020019350505050600060405180830381600087803b151561308c57600080fd5b6102c65a03f1151561309d57600080fd5b50505050565b600b60009054906101000a900473ffffffffffffffffffffffffffffffffffffffff1681565b6000600b60009054906101000a900473ffffffffffffffffffffffffffffffffffffffff1673ffffffffffffffffffffffffffffffffffffffff1614156131505780600b60006101000a81548173ffffffffffffffffffffffffffffffffffffffff021916908373ffffffffffffffffffffffffffffffffffffffff1602179055506132e3565b600b60009054906101000a900473ffffffffffffffffffffffffffffffffffffffff16601460006101000a81548173ffffffffffffffffffffffffffffffffffffffff021916908373ffffffffffffffffffffffffffffffffffffffff1602179055506001601460009054906101000a900473ffffffffffffffffffffffffffffffffffffffff1673ffffffffffffffffffffffffffffffffffffffff16638f16c41c336000604051602001526040518263ffffffff167c0100000000000000000000000000000000000000000000000000000000028152600401808273ffffffffffffffffffffffffffffffffffffffff1673ffffffffffffffffffffffffffffffffffffffff168152602001915050602060405180830381600087803b151561327a57600080fd5b6102c65a03f1151561328b57600080fd5b505050604051805190501415156132a157600080fd5b80600b60006101000a81548173ffffffffffffffffffffffffffffffffffffffff021916908373ffffffffffffffffffffffffffffffffffffffff1602179055505b50565b6000600260008473ffffffffffffffffffffffffffffffffffffffff1673ffffffffffffffffffffffffffffffffffffffff168152602001908152602001600020600083815260200190815260200160002054905092915050565b60058054600181600116156101000203166002900480601f0160208091040260200160405190810160405280929190818152602001828054600181600116156101000203166002900480156133d75780601f106133ac576101008083540402835291602001916133d7565b820191906000526020600020905b8154815290600101906020018083116133ba57829003601f168201915b505050505081565b60008082840190508381101515156133f357fe5b8091505092915050565b60008060008414156134125760009150613431565b828402905082848281151561342357fe5b0414151561342d57fe5b8091505b5092915050565b600080828481151561344657fe5b0490508091505092915050565b600082821115151561346157fe5b818303905092915050565b6000806000806000806000806000600660009054906101000a900473ffffffffffffffffffffffffffffffffffffffff16601260006101000a81548173ffffffffffffffffffffffffffffffffffffffff021916908373ffffffffffffffffffffffffffffffffffffffff160217905550600c60009054906101000a900473ffffffffffffffffffffffffffffffffffffffff16600f60006101000a81548173ffffffffffffffffffffffffffffffffffffffff021916908373ffffffffffffffffffffffffffffffffffffffff160217905550601260009054906101000a900473ffffffffffffffffffffffffffffffffffffffff1673ffffffffffffffffffffffffffffffffffffffff1663ec9ccfff8d600060405160a001526040518263ffffffff167c01000000000000000000000000000000000000000000000000000000000281526004018082815260200191505060a060405180830381600087803b15156135d957600080fd5b6102c65a03f115156135ea57600080fd5b505050604051805190602001805190602001805190602001805190602001805190509091929350909192509091505080975050601260009054906101000a900473ffffffffffffffffffffffffffffffffffffffff1673ffffffffffffffffffffffffffffffffffffffff16633152fbd4600060405160c001526040518163ffffffff167c010000000000000000000000000000000000000000000000000000000002815260040160c060405180830381600087803b15156136ab57600080fd5b6102c65a03f115156136bc57600080fd5b5050506040518051906020018051906020018051906020018051906020018051906020018051905090919293945090919293509091509050809650819750505060008760ff161115613d4e576137ce6137c8601260009054906101000a900473ffffffffffffffffffffffffffffffffffffffff1673ffffffffffffffffffffffffffffffffffffffff16633a0fcafc8f6000604051602001526040518263ffffffff167c010000000000000000000000000000000000000000000000000000000002815260040180828152602001915050602060405180830381600087803b15156137a757600080fd5b6102c65a03f115156137b857600080fd5b505050604051805190508d6133fd565b8b613438565b985061388d601260009054906101000a900473ffffffffffffffffffffffffffffffffffffffff1673ffffffffffffffffffffffffffffffffffffffff16633a0fcafc8e6000604051602001526040518263ffffffff167c010000000000000000000000000000000000000000000000000000000002815260040180828152602001915050602060405180830381600087803b151561386c57600080fd5b6102c65a03f1151561387d57600080fd5b505050604051805190508a6133df565b9750600f60009054906101000a900473ffffffffffffffffffffffffffffffffffffffff1673ffffffffffffffffffffffffffffffffffffffff1663649db80b601260009054906101000a900473ffffffffffffffffffffffffffffffffffffffff1673ffffffffffffffffffffffffffffffffffffffff166317826ac48f6000604051602001526040518263ffffffff167c010000000000000000000000000000000000000000000000000000000002815260040180828152602001915050602060405180830381600087803b151561396657600080fd5b6102c65a03f1151561397757600080fd5b505050604051805190508a6040518363ffffffff167c0100000000000000000000000000000000000000000000000000000000028152600401808373ffffffffffffffffffffffffffffffffffffffff1673ffffffffffffffffffffffffffffffffffffffff16815260200182815260200192505050600060405180830381600087803b1515613a0657600080fd5b6102c65a03f11515613a1757600080fd5b505050613aeb613ae5601260009054906101000a900473ffffffffffffffffffffffffffffffffffffffff1673ffffffffffffffffffffffffffffffffffffffff16630ecc69c18f8b6000604051602001526040518363ffffffff167c0100000000000000000000000000000000000000000000000000000000028152600401808381526020018260ff16815260200192505050602060405180830381600087803b1515613ac457600080fd5b6102c65a03f11515613ad557600080fd5b505050604051805190508d6133fd565b8b613438565b9850613bb5601260009054906101000a900473ffffffffffffffffffffffffffffffffffffffff1673ffffffffffffffffffffffffffffffffffffffff16630ecc69c18e8a6000604051602001526040518363ffffffff167c0100000000000000000000000000000000000000000000000000000000028152600401808381526020018260ff16815260200192505050602060405180830381600087803b1515613b9457600080fd5b6102c65a03f11515613ba557600080fd5b505050604051805190508a6133df565b9750600f60009054906101000a900473ffffffffffffffffffffffffffffffffffffffff1673ffffffffffffffffffffffffffffffffffffffff1663649db80b601260009054906101000a900473ffffffffffffffffffffffffffffffffffffffff1673ffffffffffffffffffffffffffffffffffffffff1663e28d879f8f8b6000604051602001526040518363ffffffff167c0100000000000000000000000000000000000000000000000000000000028152600401808381526020018260ff16815260200192505050602060405180830381600087803b1515613c9957600080fd5b6102c65a03f11515613caa57600080fd5b505050604051805190508a6040518363ffffffff167c0100000000000000000000000000000000000000000000000000000000028152600401808373ffffffffffffffffffffffffffffffffffffffff1673ffffffffffffffffffffffffffffffffffffffff16815260200182815260200192505050600060405180830381600087803b1515613d3957600080fd5b6102c65a03f11515613d4a57600080fd5b5050505b600093505b601260009054906101000a900473ffffffffffffffffffffffffffffffffffffffff1673ffffffffffffffffffffffffffffffffffffffff166393a6b05f8d6000604051602001526040518263ffffffff167c010000000000000000000000000000000000000000000000000000000002815260040180828152602001915050602060405180830381600087803b1515613dec57600080fd5b6102c65a03f11515613dfd57600080fd5b5050506040518051905084101561456557601260009054906101000a900473ffffffffffffffffffffffffffffffffffffffff1673ffffffffffffffffffffffffffffffffffffffff166372a5f4d48d866000604051602001526040518363ffffffff167c01000000000000000000000000000000000000000000000000000000000281526004018083815260200182815260200192505050602060405180830381600087803b1515613eaf57600080fd5b6102c65a03f11515613ec057600080fd5b505050604051805190509250600091505b600383815481101515613ee057fe5b906000526020600020906007020160020180549050821015614558578660ff16600384815481101515613f0f57fe5b906000526020600020906007020160020183815481101515613f2d57fe5b906000526020600020900154141561430a57613f4a838d84615002565b9050613f7f613f79600385815481101515613f6157fe5b9060005260206000209060070201600601548d6133fd565b8b613438565b9850613fab600384815481101515613f9357fe5b9060005260206000209060070201600501548a6133df565b9750600f60009054906101000a900473ffffffffffffffffffffffffffffffffffffffff1673ffffffffffffffffffffffffffffffffffffffff1663649db80b600385815481101515613ffa57fe5b906000526020600020906007020160000160009054906101000a900473ffffffffffffffffffffffffffffffffffffffff168a6040518363ffffffff167c0100000000000000000000000000000000000000000000000000000000028152600401808373ffffffffffffffffffffffffffffffffffffffff1673ffffffffffffffffffffffffffffffffffffffff16815260200182815260200192505050600060405180830381600087803b15156140b157600080fd5b6102c65a03f115156140c257600080fd5b505050600f60009054906101000a900473ffffffffffffffffffffffffffffffffffffffff1673ffffffffffffffffffffffffffffffffffffffff16630dfa263a60038581548110151561411257fe5b906000526020600020906007020160000160009054906101000a900473ffffffffffffffffffffffffffffffffffffffff1661426d89601260009054906101000a900473ffffffffffffffffffffffffffffffffffffffff1673ffffffffffffffffffffffffffffffffffffffff16631b3b74f160038a81548110151561419557fe5b906000526020600020906007020160000160009054906101000a900473ffffffffffffffffffffffffffffffffffffffff166000604051602001526040518263ffffffff167c0100000000000000000000000000000000000000000000000000000000028152600401808273ffffffffffffffffffffffffffffffffffffffff1673ffffffffffffffffffffffffffffffffffffffff168152602001915050602060405180830381600087803b151561424d57600080fd5b6102c65a03f1151561425e57600080fd5b505050604051805190506133df565b6040518363ffffffff167c0100000000000000000000000000000000000000000000000000000000028152600401808373ffffffffffffffffffffffffffffffffffffffff1673ffffffffffffffffffffffffffffffffffffffff16815260200182815260200192505050600060405180830381600087803b15156142f157600080fd5b6102c65a03f1151561430257600080fd5b50505061454b565b600f60009054906101000a900473ffffffffffffffffffffffffffffffffffffffff1673ffffffffffffffffffffffffffffffffffffffff16630dfa263a60038581548110151561435757fe5b906000526020600020906007020160000160009054906101000a900473ffffffffffffffffffffffffffffffffffffffff166144b2601260009054906101000a900473ffffffffffffffffffffffffffffffffffffffff1673ffffffffffffffffffffffffffffffffffffffff16631b3b74f16003898154811015156143d957fe5b906000526020600020906007020160000160009054906101000a900473ffffffffffffffffffffffffffffffffffffffff166000604051602001526040518263ffffffff167c0100000000000000000000000000000000000000000000000000000000028152600401808273ffffffffffffffffffffffffffffffffffffffff1673ffffffffffffffffffffffffffffffffffffffff168152602001915050602060405180830381600087803b151561449157600080fd5b6102c65a03f115156144a257600080fd5b5050506040518051905089613453565b6040518363ffffffff167c0100000000000000000000000000000000000000000000000000000000028152600401808373ffffffffffffffffffffffffffffffffffffffff1673ffffffffffffffffffffffffffffffffffffffff16815260200182815260200192505050600060405180830381600087803b151561453657600080fd5b6102c65a03f1151561454757600080fd5b5050505b8180600101925050613ed1565b8380600101945050613d53565b600f60009054906101000a900473ffffffffffffffffffffffffffffffffffffffff1673ffffffffffffffffffffffffffffffffffffffff1663ebd0e3138d896040518363ffffffff167c0100000000000000000000000000000000000000000000000000000000028152600401808381526020018260ff16815260200192505050600060405180830381600087803b151561460057600080fd5b6102c65a03f1151561461157600080fd5b505050505050505050505050505050565b600080600080600e60009054906101000a900473ffffffffffffffffffffffffffffffffffffffff1673ffffffffffffffffffffffffffffffffffffffff1663beae32ba336000604051602001526040518263ffffffff167c0100000000000000000000000000000000000000000000000000000000028152600401808273ffffffffffffffffffffffffffffffffffffffff1673ffffffffffffffffffffffffffffffffffffffff168152602001915050602060405180830381600087803b15156146ed57600080fd5b6102c65a03f115156146fe57600080fd5b505050604051805190509350600087141561482c57600092505b8551831015614743576147348261472f8786613453565b6133df565b91508280600101935050614718565b600092505b85518310156148275761476e6147686147618786613453565b60646133fd565b83613438565b90506147c86000808a81526020019081526020016000206000016000868152602001908152602001600020600088868151811015156147a957fe5b90602001906020020151815260200190815260200160002054826133df565b6000808a81526020019081526020016000206000016000868152602001908152602001600020600088868151811015156147fe57fe5b906020019060200201518152602001908152602001600020819055508280600101935050614748565b6148da565b6148866000808a81526020019081526020016000206000016000868152602001908152602001600020600088600081518110151561486657fe5b9060200190602002015181526020019081526020016000205460016133df565b6000808a8152602001908152602001600020600001600086815260200190815260200160002060008860008151811015156148bd57fe5b906020019060200201518152602001908152602001600020819055505b5050505050505050565b6148ec615162565b506003805480600101828161490191906156ff565b9160005260206000209060070201600060e0604051908101604052803373ffffffffffffffffffffffffffffffffffffffff168152602001888152602001878152602001428152602001601260009054906101000a900473ffffffffffffffffffffffffffffffffffffffff1673ffffffffffffffffffffffffffffffffffffffff166335c42dbb336000604051602001526040518263ffffffff167c0100000000000000000000000000000000000000000000000000000000028152600401808273ffffffffffffffffffffffffffffffffffffffff1673ffffffffffffffffffffffffffffffffffffffff168152602001915050602060405180830381600087803b1515614a1057600080fd5b6102c65a03f11515614a2157600080fd5b50505060405180519050815260200186815260200185815250909190915060008201518160000160006101000a81548173ffffffffffffffffffffffffffffffffffffffff021916908373ffffffffffffffffffffffffffffffffffffffff160217905550602082015181600101556040820151816002019080519060200190614aac929190615731565b50606082015181600301556080820151816004015560a0820151816005015560c0820151816006015550505050505050565b6000806000806000600760009054906101000a900473ffffffffffffffffffffffffffffffffffffffff16600e60006101000a81548173ffffffffffffffffffffffffffffffffffffffff021916908373ffffffffffffffffffffffffffffffffffffffff160217905550600660009054906101000a900473ffffffffffffffffffffffffffffffffffffffff16601260006101000a81548173ffffffffffffffffffffffffffffffffffffffff021916908373ffffffffffffffffffffffffffffffffffffffff160217905550600d60009054906101000a900473ffffffffffffffffffffffffffffffffffffffff16601360006101000a81548173ffffffffffffffffffffffffffffffffffffffff021916908373ffffffffffffffffffffffffffffffffffffffff160217905550614c1933896132e6565b9450600385815481101515614c2a57fe5b90600052602060002090600702016002019350601260009054906101000a900473ffffffffffffffffffffffffffffffffffffffff1673ffffffffffffffffffffffffffffffffffffffff1663a1bd71b9896000604051608001526040518263ffffffff167c010000000000000000000000000000000000000000000000000000000002815260040180828152602001915050608060405180830381600087803b1515614cd657600080fd5b6102c65a03f11515614ce757600080fd5b5050506040518051906020018051906020018051906020018051905090919250909150905080935050601260009054906101000a900473ffffffffffffffffffffffffffffffffffffffff1673ffffffffffffffffffffffffffffffffffffffff1663ec9ccfff89600060405160a001526040518263ffffffff167c01000000000000000000000000000000000000000000000000000000000281526004018082815260200191505060a060405180830381600087803b1515614da957600080fd5b6102c65a03f11515614dba57600080fd5b5050506040518051906020018051906020018051906020018051906020018051905090919293509091509050508092505086600386815481101515614dfb57fe5b90600052602060002090600702016002019080519060200190614e1f92919061583e565b50826015600087815260200190815260200160002060006101000a81548160ff021916908360ff160217905550614eaa888360ff1686805480602002602001604051908101604052809291908181526020018280548015614e9f57602002820191906000526020600020905b815481526020019060010190808311614e8b575b50505050508861517d565b614ebc888360ff16898660ff16614622565b601360009054906101000a900473ffffffffffffffffffffffffffffffffffffffff1673ffffffffffffffffffffffffffffffffffffffff1663ceeb6f1b338a896000604051602001526040518463ffffffff167c0100000000000000000000000000000000000000000000000000000000028152600401808473ffffffffffffffffffffffffffffffffffffffff1673ffffffffffffffffffffffffffffffffffffffff1681526020018381526020018281526020019350505050602060405180830381600087803b1515614f9157600080fd5b6102c65a03f11515614fa257600080fd5b50505060405180519050905085600386815481101515614fbe57fe5b90600052602060002090600702016005018190555080600386815481101515614fe357fe5b9060005260206000209060070201600601819055505050505050505050565b600080600080600060038881548110151561501957fe5b90600052602060002090600702016002019350601260009054906101000a900473ffffffffffffffffffffffffffffffffffffffff1673ffffffffffffffffffffffffffffffffffffffff1663a1bd71b9886000604051608001526040518263ffffffff167c010000000000000000000000000000000000000000000000000000000002815260040180828152602001915050608060405180830381600087803b15156150c557600080fd5b6102c65a03f115156150d657600080fd5b5050506040518051906020018051906020018051906020018051905090919250909150905080935050600091505b838054905082101561513557615126816151218560ff1685613453565b6133df565b90508180600101925050615104565b61515561514f6151488560ff1689613453565b60646133fd565b82613438565b9450505050509392505050565b600061517160045460016133df565b90508060048190555090565b6000806000806000871415615489576015600086815260200190815260200160002060009054906101000a900460ff1660ff169350600092505b85518310156151e2576151d3826151ce8686613453565b6133df565b915082806001019350506151b7565b600092505b85518310156154845761520d6152076152008686613453565b60646133fd565b83613438565b90506153466000808a81526020019081526020016000206000016000600e60009054906101000a900473ffffffffffffffffffffffffffffffffffffffff1673ffffffffffffffffffffffffffffffffffffffff1663beae32ba336000604051602001526040518263ffffffff167c0100000000000000000000000000000000000000000000000000000000028152600401808273ffffffffffffffffffffffffffffffffffffffff1673ffffffffffffffffffffffffffffffffffffffff168152602001915050602060405180830381600087803b15156152ee57600080fd5b6102c65a03f115156152ff57600080fd5b5050506040518051905081526020019081526020016000206000888681518110151561532757fe5b9060200190602002015181526020019081526020016000205482613453565b6000808a81526020019081526020016000206000016000600e60009054906101000a900473ffffffffffffffffffffffffffffffffffffffff1673ffffffffffffffffffffffffffffffffffffffff1663beae32ba336000604051602001526040518263ffffffff167c0100000000000000000000000000000000000000000000000000000000028152600401808273ffffffffffffffffffffffffffffffffffffffff1673ffffffffffffffffffffffffffffffffffffffff168152602001915050602060405180830381600087803b151561542257600080fd5b6102c65a03f1151561543357600080fd5b5050506040518051905081526020019081526020016000206000888681518110151561545b57fe5b9060200190602002015181526020019081526020016000208190555082806001019350506151e7565b6156f5565b6155c26000808a81526020019081526020016000206000016000600e60009054906101000a900473ffffffffffffffffffffffffffffffffffffffff1673ffffffffffffffffffffffffffffffffffffffff1663beae32ba336000604051602001526040518263ffffffff167c0100000000000000000000000000000000000000000000000000000000028152600401808273ffffffffffffffffffffffffffffffffffffffff1673ffffffffffffffffffffffffffffffffffffffff168152602001915050602060405180830381600087803b151561556857600080fd5b6102c65a03f1151561557957600080fd5b50505060405180519050815260200190815260200160002060008860008151811015156155a257fe5b906020019060200201518152602001908152602001600020546001613453565b6000808a81526020019081526020016000206000016000600e60009054906101000a900473ffffffffffffffffffffffffffffffffffffffff1673ffffffffffffffffffffffffffffffffffffffff1663beae32ba336000604051602001526040518263ffffffff167c0100000000000000000000000000000000000000000000000000000000028152600401808273ffffffffffffffffffffffffffffffffffffffff1673ffffffffffffffffffffffffffffffffffffffff168152602001915050602060405180830381600087803b151561569e57600080fd5b6102c65a03f115156156af57600080fd5b50505060405180519050815260200190815260200160002060008860008151811015156156d857fe5b906020019060200201518152602001908152602001600020819055505b5050505050505050565b81548183558181151161572c5760070281600702836000526020600020918201910161572b919061588b565b5b505050565b82805482825590600052602060002090810192821561576d579160200282015b8281111561576c578251825591602001919060010190615751565b5b50905061577a9190615909565b5090565b828054600181600116156101000203166002900490600052602060002090601f016020900481019282601f106157bf57805160ff19168380011785556157ed565b828001600101855582156157ed579182015b828111156157ec5782518255916020019190600101906157d1565b5b5090506157fa9190615909565b5090565b602060405190810160405280600081525090565b815481835581811511615839578183600052602060002091820191016158389190615909565b5b505050565b82805482825590600052602060002090810192821561587a579160200282015b8281111561587957825182559160200191906001019061585e565b5b5090506158879190615909565b5090565b61590691905b8082111561590257600080820160006101000a81549073ffffffffffffffffffffffffffffffffffffffff021916905560018201600090556002820160006158d9919061592e565b600382016000905560048201600090556005820160009055600682016000905550600701615891565b5090565b90565b61592b91905b8082111561592757600081600090555060010161590f565b5090565b90565b508054600082559060005260206000209081019061594c9190615909565b505600a165627a7a72305820ed2c061c383565b94c783e6e3b0c77ab74e48056add645b99d35ce1371d79d250029",
  "source": "/* Copyright (C) 2017 GovBlocks.io\r\n\r\n  This program is free software: you can redistribute it and/or modify\r\n    it under the terms of the GNU General Public License as published by\r\n    the Free Software Foundation, either version 3 of the License, or\r\n    (at your option) any later version.\r\n\r\n  This program is distributed in the hope that it will be useful,\r\n    but WITHOUT ANY WARRANTY; without even the implied warranty of\r\n    MERCHANTABILITY or FITNESS FOR A PARTICULAR PURPOSE.  See the\r\n    GNU General Public License for more details.\r\n\r\n  You should have received a copy of the GNU General Public License\r\n    along with this program.  If not, see http://www.gnu.org/licenses/ */\r\n\r\n\r\npragma solidity ^0.4.8;\r\nimport \"./VotingType.sol\";\r\nimport \"./GovernanceData.sol\";\r\nimport \"./StandardVotingType.sol\";\r\nimport \"./MemberRoles.sol\";\r\nimport \"./ProposalCategory.sol\";\r\nimport \"./Governance.sol\";\r\n// import \"./BasicToken.sol\";\r\n// import \"./Math.sol\";\r\n// import \"./SafeMath.sol\";\r\nimport \"./Master.sol\";\r\nimport \"./zeppelin-solidity/contracts/token/BasicToken.sol\";\r\nimport \"./zeppelin-solidity/contracts/math/Math.sol\";\r\nimport \"./zeppelin-solidity/contracts/math/SafeMath.sol\";\r\n\r\ncontract RankBasedVoting is VotingType\r\n{\r\n    using SafeMath for uint;\r\n    address GDAddress;\r\n    address MRAddress;\r\n    address PCAddress;\r\n    address GBTAddress;\r\n    address BTAddress;\r\n    address public masterAddress;\r\n    address G1Address;\r\n    address SVTAddress;\r\n    MemberRoles MR;\r\n    Governance G1;\r\n    BasicToken BT;\r\n    ProposalCategory PC;\r\n    GovernanceData  GD;\r\n    StandardVotingType SVT;\r\n    uint8 constructorCheck;\r\n    Master MS;\r\n    mapping (uint=>uint8) verdictOptionsByVoteId;\r\n     \r\n    function RankBasedVotingInitiate()\r\n    {\r\n        require(constructorCheck == 0 );\r\n        uint[] option;\r\n        allVotes.push(proposalVote(0x00,0,option,now,0,0,0));\r\n        votingTypeName = \"Ranking Based Voting\";\r\n        constructorCheck = 1;\r\n    }\r\n\r\n    modifier onlyInternal {\r\n        MS=Master(masterAddress);\r\n        require(MS.isInternal(msg.sender) == 1);\r\n        _; \r\n    }\r\n\r\n    /// @dev Change master's contract address\r\n    function changeMasterAddress(address _masterContractAddress)\r\n    {\r\n        if(masterAddress == 0x000)\r\n            masterAddress = _masterContractAddress;\r\n        else\r\n        {\r\n            MS=Master(masterAddress);\r\n            require(MS.isInternal(msg.sender) == 1);\r\n                masterAddress = _masterContractAddress;\r\n        }\r\n    }\r\n\r\n    /// @dev Some amount to be paid while using GovBlocks contract service - Approve the contract to spend money on behalf of msg.sender\r\n    function payableGBTTokensRankBasedVoting(uint _TokenAmount) public\r\n    {\r\n        BT=BasicToken(BTAddress);\r\n        GD=GovernanceData(GDAddress);\r\n        require(_TokenAmount >= GD.GBTStakeValue());\r\n        BT.transfer(GBTAddress,_TokenAmount);\r\n    }\r\n\r\n    function changeAllContractsAddress(address _BTContractAddress,address _StandardVotingAddress,address _GDcontractAddress, address _MRcontractAddress, address _PCcontractAddress) onlyInternal\r\n    {\r\n        BTAddress = _BTContractAddress;\r\n        SVTAddress = _StandardVotingAddress;\r\n        GDAddress = _GDcontractAddress;\r\n        MRAddress = _MRcontractAddress;\r\n        PCAddress = _PCcontractAddress;\r\n    }\r\n\r\n    function changeGovernanceAddress(address _G1ContractAddress)\r\n    {\r\n        G1Address = _G1ContractAddress;\r\n    }\r\n\r\n    /// @dev Changes GBT contract Address. //NEW\r\n    function changeGBTtokenAddress(address _GBTcontractAddress) onlyInternal\r\n    {\r\n        GBTAddress = _GBTcontractAddress;\r\n    }\r\n\r\n    function getTotalVotes() constant returns (uint votesTotal)\r\n    {\r\n        return(allVotes.length);\r\n    }\r\n\r\n    function increaseTotalVotes() internal returns (uint _totalVotes)\r\n    {\r\n        _totalVotes = SafeMath.add(allVotesTotal,1);  \r\n        allVotesTotal=_totalVotes;\r\n    }\r\n\r\n    function getVoteDetailByid(uint _voteid) public constant returns(address voter,uint proposalId,uint[] optionChosen,uint dateSubmit,uint voterTokens,uint voteStakeGBT,uint voteValue)\r\n    {\r\n        return(allVotes[_voteid].voter,allVotes[_voteid].proposalId,allVotes[_voteid].optionChosen,allVotes[_voteid].dateSubmit,allVotes[_voteid].voterTokens,allVotes[_voteid].voteStakeGBT,allVotes[_voteid].voteValue);\r\n    }\r\n\r\n    /// @dev Get the vote count for options of proposal when giving Proposal id and Option index.\r\n    function getProposalVoteAndTokenCountByRoleId(uint _proposalId,uint _roleId,uint _optionIndex) constant returns(uint totalVotes,uint totalToken)\r\n    {\r\n        totalVotes = allProposalVoteAndTokenCount[_proposalId].totalVoteCount[_roleId][_optionIndex];\r\n        totalToken = allProposalVoteAndTokenCount[_proposalId].totalTokenCount[_roleId];\r\n    }\r\n\r\n    function addInAllVotes(uint _proposalId,uint[] _optionChosen,uint _GBTPayableTokenAmount,uint _finalVoteValue) internal\r\n    {\r\n        increaseTotalVotes();\r\n        allVotes.push(proposalVote(msg.sender,_proposalId,_optionChosen,now,GD.getBalanceOfMember(msg.sender),_GBTPayableTokenAmount,_finalVoteValue));\r\n    }\r\n\r\n    function addVerdictOption(uint _proposalId,uint[] _paramInt,bytes32[] _paramBytes32,address[] _paramAddress,uint _GBTPayableTokenAmount,string _optionHash)\r\n    {\r\n        SVT.addVerdictOptionSVT(_proposalId,msg.sender,1,_paramInt,_paramBytes32,_paramAddress,_GBTPayableTokenAmount,_optionHash);\r\n        payableGBTTokensRankBasedVoting(_GBTPayableTokenAmount);\r\n    }\r\n\r\n    function proposalVoting(uint _proposalId,uint[] _optionChosen,uint _GBTPayableTokenAmount)\r\n    {    \r\n        GD=GovernanceData(GDAddress);\r\n        MR=MemberRoles(MRAddress);\r\n        PC=ProposalCategory(PCAddress);\r\n        SVT=StandardVotingType(SVTAddress);\r\n\r\n        uint8 currentVotingId; uint8 category; uint8 intermediateVerdict;\r\n        uint8 verdictOptions;\r\n        (category,currentVotingId,intermediateVerdict,,) = GD.getProposalDetailsById2(_proposalId);\r\n        (,,,verdictOptions) = GD.getProposalOptions(_proposalId);\r\n\r\n        require(GD.getBalanceOfMember(msg.sender) != 0 && GD.getProposalStatus(_proposalId) == 2);\r\n        require(MR.getMemberRoleIdByAddress(msg.sender) == PC.getRoleSequencAtIndex(category,currentVotingId) && _optionChosen.length <= verdictOptions);\r\n\r\n        if(currentVotingId == 0)\r\n        {   \r\n            for(uint i=0; i<_optionChosen.length; i++)\r\n            {\r\n                require(_optionChosen[i] < verdictOptions && msg.sender != GD.getOptionAddressByProposalId(_proposalId,i));\r\n            }\r\n        }   \r\n        else\r\n            require(_optionChosen[0]==intermediateVerdict || _optionChosen[0]==0);\r\n\r\n        if(getVoteId_againstMember(msg.sender,_proposalId) == 0)\r\n        {\r\n            uint votelength = getTotalVotes();\r\n            submitAndUpdateNewMemberVote(_proposalId,currentVotingId,_optionChosen,verdictOptions);\r\n            uint finalVoteValue = SVT.setVoteValue_givenByMember(msg.sender,_proposalId,_GBTPayableTokenAmount);\r\n            allProposalVoteAndTokenCount[_proposalId].totalTokenCount[MR.getMemberRoleIdByAddress(msg.sender)] = SafeMath.add(allProposalVoteAndTokenCount[_proposalId].totalTokenCount[MR.getMemberRoleIdByAddress(msg.sender)],GD.getBalanceOfMember(msg.sender));\r\n            setVoteId_againstMember(msg.sender,_proposalId,votelength);\r\n            ProposalRoleVote[_proposalId][MR.getMemberRoleIdByAddress(msg.sender)].push(votelength);\r\n            verdictOptionsByVoteId[votelength] = verdictOptions;\r\n            GD.setVoteIdAgainstProposal(_proposalId,votelength);\r\n            GD.addInTotalVotes(msg.sender);\r\n            addInAllVotes(_proposalId,_optionChosen,_GBTPayableTokenAmount,finalVoteValue);\r\n        }\r\n        else \r\n            changeMemberVote(_proposalId,_optionChosen,_GBTPayableTokenAmount);\r\n    }\r\n\r\n    function changeMemberVote(uint _proposalId,uint[] _optionChosen,uint _GBTPayableTokenAmount) internal\r\n    {\r\n        MR=MemberRoles(MRAddress);\r\n        GD=GovernanceData(GDAddress);\r\n        SVT=StandardVotingType(SVTAddress);\r\n\r\n        uint voteId = getVoteId_againstMember(msg.sender,_proposalId);\r\n        uint[] optionChosen = allVotes[voteId].optionChosen;\r\n\r\n        uint8 verdictOptions; \r\n        (,,,verdictOptions) = GD.getProposalOptions(_proposalId);\r\n        uint8 currentVotingId;\r\n        (,currentVotingId,,,) = GD.getProposalDetailsById2(_proposalId);\r\n\r\n        allVotes[voteId].optionChosen = _optionChosen;\r\n        verdictOptionsByVoteId[voteId] = verdictOptions;\r\n        revertChangesInMemberVote(_proposalId,currentVotingId,optionChosen,voteId);\r\n        submitAndUpdateNewMemberVote(_proposalId,currentVotingId,_optionChosen,verdictOptions);\r\n\r\n        uint finalVoteValue = SVT.setVoteValue_givenByMember(msg.sender,_proposalId,_GBTPayableTokenAmount);\r\n        allVotes[voteId].voteStakeGBT = _GBTPayableTokenAmount;\r\n        allVotes[voteId].voteValue = finalVoteValue;\r\n    }\r\n\r\n    function revertChangesInMemberVote(uint _proposalId,uint _currentVotingId,uint[] _optionChosen,uint _voteId) internal\r\n    {\r\n        if(_currentVotingId == 0)\r\n        {\r\n            uint previousVerdictOptions = verdictOptionsByVoteId[_voteId];\r\n            for(uint i=0; i<_optionChosen.length; i++)\r\n            {\r\n                uint sum = SafeMath.add(sum,(SafeMath.sub(previousVerdictOptions,i)));\r\n            }\r\n\r\n            for(i=0; i<_optionChosen.length; i++)\r\n            {\r\n                uint voteValue = SafeMath.div(SafeMath.mul(SafeMath.sub(previousVerdictOptions,i),100),sum);\r\n                allProposalVoteAndTokenCount[_proposalId].totalVoteCount[MR.getMemberRoleIdByAddress(msg.sender)][_optionChosen[i]] = SafeMath.sub(allProposalVoteAndTokenCount[_proposalId].totalVoteCount[MR.getMemberRoleIdByAddress(msg.sender)][_optionChosen[i]],voteValue);\r\n            }\r\n        }\r\n        else\r\n        {\r\n            allProposalVoteAndTokenCount[_proposalId].totalVoteCount[MR.getMemberRoleIdByAddress(msg.sender)][_optionChosen[0]] = SafeMath.sub(allProposalVoteAndTokenCount[_proposalId].totalVoteCount[MR.getMemberRoleIdByAddress(msg.sender)][_optionChosen[0]],1);\r\n        }\r\n       \r\n    }\r\n\r\n    function submitAndUpdateNewMemberVote(uint _proposalId,uint _currentVotingId,uint[] _optionChosen,uint _verdictOptions) internal\r\n    {\r\n        uint roleId = MR.getMemberRoleIdByAddress(msg.sender);\r\n\r\n        if(_currentVotingId == 0)\r\n        {\r\n            for(uint i=0; i<_optionChosen.length; i++)\r\n            {\r\n                uint sum = SafeMath.add(sum,(SafeMath.sub(_verdictOptions ,i)));\r\n            }\r\n\r\n            for(i=0; i<_optionChosen.length; i++)\r\n            {\r\n                uint voteValue = SafeMath.div(SafeMath.mul(SafeMath.sub(_verdictOptions,i),100),sum);\r\n                allProposalVoteAndTokenCount[_proposalId].totalVoteCount[roleId][_optionChosen[i]] = SafeMath.add(allProposalVoteAndTokenCount[_proposalId].totalVoteCount[roleId][_optionChosen[i]],voteValue);\r\n            }\r\n        } \r\n        else\r\n        {   \r\n            allProposalVoteAndTokenCount[_proposalId].totalVoteCount[roleId][_optionChosen[0]] = SafeMath.add(allProposalVoteAndTokenCount[_proposalId].totalVoteCount[roleId][_optionChosen[0]],1);\r\n        }\r\n    }  \r\n\r\n    function closeProposalVote(uint _proposalId)\r\n    {\r\n        SVT=StandardVotingType(SVTAddress);\r\n        SVT.closeProposalVoteSVT(msg.sender,1,_proposalId);\r\n    }\r\n\r\n    function giveReward_afterFinalDecision(uint _proposalId) public\r\n    {\r\n        GD=GovernanceData(GDAddress);\r\n        uint voteValueFavour; uint voterStake; uint wrongOptionStake; uint returnTokens;\r\n        uint totalVoteValue; uint totalTokenToDistribute;\r\n        uint8 finalVerdict; \r\n        (,,,finalVerdict,) = GD.getProposalDetailsById2(_proposalId);\r\n\r\n\r\n        for(uint i=0; i<GD.getTotalVoteLengthAgainstProposal(_proposalId); i++)\r\n        {\r\n            uint voteid = GD.getVoteIdByProposalId(_proposalId,i);\r\n            if(allVotes[voteid].optionChosen[0] == finalVerdict)\r\n            {\r\n                voteValueFavour = SafeMath.add(voteValueFavour,allVotes[voteid].voteValue);\r\n            }\r\n            else\r\n            {\r\n                voterStake = SafeMath.add(voterStake,SafeMath.mul(allVotes[voteid].voteStakeGBT,(SafeMath.div(SafeMath.mul(1,100),GD.globalRiskFactor()))));\r\n                returnTokens = SafeMath.mul(allVotes[voteid].voteStakeGBT,(SafeMath.sub(1,(SafeMath.div(SafeMath.mul(1,100),GD.globalRiskFactor())))));\r\n                G1.transferBackGBTtoken(allVotes[voteid].voter,returnTokens);\r\n            }\r\n\r\n            // uint voteid = GD.getVoteIdByProposalId(_proposalId,i);\r\n            // for(uint j=0; j<allVotes[voteid].verdictChosen.length; j++)\r\n            // {\r\n            //     if(allVotes[voteid].verdictChosen[j] == finalVerdict)\r\n            //     {\r\n            //         voteValueFavour = SafeMath.add(voteValueFavour,allVotes[voteid].voteValue)+getOptionValue(voteid,_proposalId,j);\r\n            //     }\r\n            //     else\r\n            //     {\r\n            //         voterStake = SafeMath.add(voterStake,SafeMath.mul(allVotes[voteid].voteStakeGBT,(SafeMath.div(SafeMath.mul(1,100),GD.globalRiskFactor())))) + getOptionValue(voteid,_proposalId,j);\r\n            //         returnTokens = SafeMath.mul(allVotes[voteid].voteStakeGBT,(SafeMath.sub(1,(SafeMath.div(SafeMath.mul(1,100),GD.globalRiskFactor())))));\r\n            //         GD.transferBackGBTtoken(allVotes[voteid].voter,returnTokens);\r\n            //     }\r\n            // }\r\n        }\r\n\r\n        for(i=0; i<GD.getOptionAddedAddressLength(_proposalId); i++)\r\n        {\r\n            if(i!= finalVerdict)         \r\n                wrongOptionStake = SafeMath.add(wrongOptionStake,GD.getOptionStakeByProposalId(_proposalId,i));\r\n        }\r\n\r\n        totalVoteValue = SafeMath.add(GD.getOptionValueByProposalId(_proposalId,finalVerdict),voteValueFavour);\r\n        totalTokenToDistribute = SafeMath.add(wrongOptionStake,voterStake);\r\n\r\n        if(finalVerdict>0)\r\n            totalVoteValue = SafeMath.add(totalVoteValue,GD.getProposalValue(_proposalId));\r\n        else\r\n            totalTokenToDistribute = SafeMath.add(totalTokenToDistribute,GD.getProposalStake(_proposalId));\r\n\r\n        distributeReward(_proposalId,totalTokenToDistribute,totalVoteValue);\r\n    }\r\n\r\n    function distributeReward(uint _proposalId,uint _totalTokenToDistribute,uint _totalVoteValue) internal\r\n    {\r\n        GD=GovernanceData(GDAddress);\r\n        G1=Governance(G1Address);\r\n\r\n        uint reward;uint transferToken;\r\n        uint8 finalVerdict;\r\n        (,,,finalVerdict,) = GD.getProposalDetailsById2(_proposalId);\r\n        uint addMemberPoints; uint subMemberPoints;\r\n        (,,addMemberPoints,,,subMemberPoints)=GD.getMemberReputationPoints();\r\n\r\n        if(finalVerdict > 0)\r\n        {\r\n            reward = SafeMath.div(SafeMath.mul(GD.getProposalStake(_proposalId),_totalTokenToDistribute),_totalVoteValue);\r\n            transferToken = SafeMath.add(GD.getProposalStake(_proposalId),reward);\r\n            G1.transferBackGBTtoken(GD.getProposalOwner(_proposalId),transferToken);\r\n\r\n            reward = SafeMath.div(SafeMath.mul(GD.getOptionStakeByProposalId(_proposalId,finalVerdict),_totalTokenToDistribute),_totalVoteValue);\r\n            transferToken = SafeMath.add(GD.getOptionStakeByProposalId(_proposalId,finalVerdict),reward);\r\n            G1.transferBackGBTtoken(GD.getOptionAddressByProposalId(_proposalId,finalVerdict),transferToken);\r\n        }\r\n\r\n        for(uint i=0; i<GD.getTotalVoteLengthAgainstProposal(_proposalId); i++)\r\n        {\r\n            uint voteid = GD.getVoteIdByProposalId(_proposalId,i);\r\n            for(uint j=0; j<allVotes[voteid].optionChosen.length; j++)\r\n            {\r\n                if(allVotes[voteid].optionChosen[j] == finalVerdict)\r\n                {\r\n                    uint optionValue = getOptionValue(voteid,_proposalId,j);\r\n                    reward = SafeMath.div(SafeMath.mul(allVotes[voteid].voteValue,_totalTokenToDistribute),_totalVoteValue);\r\n                    transferToken = SafeMath.add(allVotes[voteid].voteStakeGBT,reward);\r\n                    G1.transferBackGBTtoken(allVotes[voteid].voter,transferToken);\r\n                    G1.updateMemberReputation1(allVotes[voteid].voter,SafeMath.add(addMemberPoints,GD.getMemberReputation(allVotes[voteid].voter)));\r\n                }\r\n                else\r\n                {\r\n                    G1.updateMemberReputation1(allVotes[voteid].voter,SafeMath.sub(GD.getMemberReputation(allVotes[voteid].voter),subMemberPoints));\r\n                }\r\n                    \r\n            }        \r\n        }\r\n        G1.updateMemberReputation(_proposalId,finalVerdict);\r\n    }\r\n\r\n    function getOptionValue(uint voteid,uint _proposalId,uint _optionIndex) internal returns (uint optionValue)\r\n    {\r\n        uint[] _optionChosen = allVotes[voteid].optionChosen;\r\n        uint8 _verdictOptions; \r\n        (,,,_verdictOptions) = GD.getProposalOptions(_proposalId);\r\n\r\n        for(uint i=0; i<_optionChosen.length; i++)\r\n        {\r\n            uint sum = SafeMath.add(sum,(SafeMath.sub(_verdictOptions ,i)));\r\n        }\r\n        optionValue = SafeMath.div(SafeMath.mul(SafeMath.sub(_verdictOptions,_optionIndex),100),sum);\r\n    }\r\n\r\n}\r\n",
  "sourcePath": "D:\\RUCHITA\\Govblocks-Git\\contracts\\RankBasedVoting.sol",
  "compiler": {
    "name": "solc",
    "version": "0.4.18+commit.9cf6e910.Emscripten.clang"
  },
  "schemaVersion": "1.0.1",
  "updatedAt": "2018-01-31T14:00:03.744Z"
}