{
  "contractName": "SimpleVoting",
  "abi": [
    {
      "constant": false,
      "inputs": [
        {
          "name": "_proposalId",
          "type": "uint256"
        },
        {
          "name": "_paramInt",
          "type": "uint256[]"
        },
        {
          "name": "_paramBytes32",
          "type": "bytes32[]"
        },
        {
          "name": "_paramAddress",
          "type": "address[]"
        },
        {
          "name": "_GBTPayableTokenAmount",
          "type": "uint256"
        }
      ],
      "name": "addVerdictOption",
      "outputs": [],
      "payable": false,
      "stateMutability": "nonpayable",
      "type": "function"
    },
    {
      "constant": false,
      "inputs": [
        {
          "name": "_proposalId",
          "type": "uint256"
        }
      ],
      "name": "giveReward_afterFinalDecision",
      "outputs": [],
      "payable": false,
      "stateMutability": "nonpayable",
      "type": "function"
    },
    {
      "constant": false,
      "inputs": [
        {
          "name": "_GBTcontractAddress",
          "type": "address"
        }
      ],
      "name": "changeGBTtokenAddress",
      "outputs": [],
      "payable": false,
      "stateMutability": "nonpayable",
      "type": "function"
    },
    {
      "constant": false,
      "inputs": [
        {
          "name": "_BTcontractAddress",
          "type": "address"
        },
        {
          "name": "_StandardVotingAddress",
          "type": "address"
        },
        {
          "name": "_GDcontractAddress",
          "type": "address"
        },
        {
          "name": "_MRcontractAddress",
          "type": "address"
        },
        {
          "name": "_PCcontractAddress",
          "type": "address"
        }
      ],
      "name": "changeAllContractsAddress",
      "outputs": [],
      "payable": false,
      "stateMutability": "nonpayable",
      "type": "function"
    },
    {
      "constant": false,
      "inputs": [],
      "name": "SimpleVotingInitiate",
      "outputs": [],
      "payable": false,
      "stateMutability": "nonpayable",
      "type": "function"
    },
    {
      "constant": true,
      "inputs": [
        {
          "name": "_proposalId",
          "type": "uint256"
        },
        {
          "name": "_roleId",
          "type": "uint256"
        },
        {
          "name": "_optionIndex",
          "type": "uint256"
        }
      ],
      "name": "getProposalVoteAndTokenCountByRoleId",
      "outputs": [
        {
          "name": "totalVotes",
          "type": "uint256"
        },
        {
          "name": "totalToken",
          "type": "uint256"
        }
      ],
      "payable": false,
      "stateMutability": "view",
      "type": "function"
    },
    {
      "constant": false,
      "inputs": [
        {
          "name": "_memberAddress",
          "type": "address"
        },
        {
          "name": "_proposalId",
          "type": "uint256"
        },
        {
          "name": "_voteLength",
          "type": "uint256"
        }
      ],
      "name": "setVoteId_againstMember",
      "outputs": [],
      "payable": false,
      "stateMutability": "nonpayable",
      "type": "function"
    },
    {
      "constant": true,
      "inputs": [
        {
          "name": "_voteid",
          "type": "uint256"
        }
      ],
      "name": "getVoteDetailByid",
      "outputs": [
        {
          "name": "voter",
          "type": "address"
        },
        {
          "name": "proposalId",
          "type": "uint256"
        },
        {
          "name": "optionChosen",
          "type": "uint256[]"
        },
        {
          "name": "dateSubmit",
          "type": "uint256"
        },
        {
          "name": "voterTokens",
          "type": "uint256"
        },
        {
          "name": "voteStakeGBT",
          "type": "uint256"
        },
        {
          "name": "voteValue",
          "type": "uint256"
        }
      ],
      "payable": false,
      "stateMutability": "view",
      "type": "function"
    },
    {
      "constant": true,
      "inputs": [],
      "name": "allVotesTotal",
      "outputs": [
        {
          "name": "",
          "type": "uint256"
        }
      ],
      "payable": false,
      "stateMutability": "view",
      "type": "function"
    },
    {
      "constant": false,
      "inputs": [
        {
          "name": "_proposalId",
          "type": "uint256"
        },
        {
          "name": "_optionChosen",
          "type": "uint256[]"
        },
        {
          "name": "_GBTPayableTokenAmount",
          "type": "uint256"
        }
      ],
      "name": "proposalVoting",
      "outputs": [],
      "payable": false,
      "stateMutability": "nonpayable",
      "type": "function"
    },
    {
      "constant": true,
      "inputs": [],
      "name": "getTotalVotes",
      "outputs": [
        {
          "name": "_votesTotal",
          "type": "uint256"
        }
      ],
      "payable": false,
      "stateMutability": "view",
      "type": "function"
    },
    {
      "constant": true,
      "inputs": [
        {
          "name": "_proposalId",
          "type": "uint256"
        },
        {
          "name": "_roleId",
          "type": "uint256"
        },
        {
          "name": "_optionIndex",
          "type": "uint256"
        }
      ],
      "name": "getVotesbyOption_againstProposal",
      "outputs": [
        {
          "name": "totalVotes",
          "type": "uint256"
        }
      ],
      "payable": false,
      "stateMutability": "view",
      "type": "function"
    },
    {
      "constant": false,
      "inputs": [
        {
          "name": "_proposalId",
          "type": "uint256"
        }
      ],
      "name": "closeProposalVote",
      "outputs": [],
      "payable": false,
      "stateMutability": "nonpayable",
      "type": "function"
    },
    {
      "constant": true,
      "inputs": [],
      "name": "masterAddress",
      "outputs": [
        {
          "name": "",
          "type": "address"
        }
      ],
      "payable": false,
      "stateMutability": "view",
      "type": "function"
    },
    {
      "constant": false,
      "inputs": [
        {
          "name": "_masterContractAddress",
          "type": "address"
        }
      ],
      "name": "changeMasterAddress",
      "outputs": [],
      "payable": false,
      "stateMutability": "nonpayable",
      "type": "function"
    },
    {
      "constant": true,
      "inputs": [
        {
          "name": "_memberAddress",
          "type": "address"
        },
        {
          "name": "_proposalId",
          "type": "uint256"
        }
      ],
      "name": "getVoteId_againstMember",
      "outputs": [
        {
          "name": "voteId",
          "type": "uint256"
        }
      ],
      "payable": false,
      "stateMutability": "view",
      "type": "function"
    },
    {
      "constant": true,
      "inputs": [],
      "name": "votingTypeName",
      "outputs": [
        {
          "name": "",
          "type": "string"
        }
      ],
      "payable": false,
      "stateMutability": "view",
      "type": "function"
    }
  ],
  "bytecode": "0x6060604052341561000f57600080fd5b61484b8061001e6000396000f3006060604052600436106100f1576000357c0100000000000000000000000000000000000000000000000000000000900463ffffffff16806307a88848146100f65780630a256ae1146101e25780630df34cdb146102055780632e95cfb91461023e57806336cd1066146102f35780634a261ce31461030857806361a0c0201461035857806366cf51de146103a357806379098c641461047157806389d922411461049a5780639a0e7d6614610506578063a17d5b0a1461052f578063c46994ce14610578578063d365a08e1461059b578063d46655f4146105f0578063eef83a4b14610629578063f8eb64b21461067f575b600080fd5b341561010157600080fd5b6101e0600480803590602001909190803590602001908201803590602001908080602002602001604051908101604052809392919081815260200183836020028082843782019150505050505091908035906020019082018035906020019080806020026020016040519081016040528093929190818152602001838360200280828437820191505050505050919080359060200190820180359060200190808060200260200160405190810160405280939291908181526020018383602002808284378201915050505050509190803590602001909190505061070d565b005b34156101ed57600080fd5b6102036004808035906020019091905050610944565b005b341561021057600080fd5b61023c600480803573ffffffffffffffffffffffffffffffffffffffff16906020019091905050611307565b005b341561024957600080fd5b6102f1600480803573ffffffffffffffffffffffffffffffffffffffff1690602001909190803573ffffffffffffffffffffffffffffffffffffffff1690602001909190803573ffffffffffffffffffffffffffffffffffffffff1690602001909190803573ffffffffffffffffffffffffffffffffffffffff1690602001909190803573ffffffffffffffffffffffffffffffffffffffff1690602001909190505061149c565b005b34156102fe57600080fd5b610306611739565b005b341561031357600080fd5b61033b6004808035906020019091908035906020019091908035906020019091905050611902565b604051808381526020018281526020019250505060405180910390f35b341561036357600080fd5b6103a1600480803573ffffffffffffffffffffffffffffffffffffffff16906020019091908035906020019091908035906020019091905050611970565b005b34156103ae57600080fd5b6103c460048080359060200190919050506119ca565b604051808873ffffffffffffffffffffffffffffffffffffffff1673ffffffffffffffffffffffffffffffffffffffff16815260200187815260200180602001868152602001858152602001848152602001838152602001828103825287818151815260200191508051906020019060200280838360005b8381101561045757808201518184015260208101905061043c565b505050509050019850505050505050505060405180910390f35b341561047c57600080fd5b610484611b4c565b6040518082815260200191505060405180910390f35b34156104a557600080fd5b610504600480803590602001909190803590602001908201803590602001908080602002602001604051908101604052809392919081815260200183836020028082843782019150505050505091908035906020019091905050611b52565b005b341561051157600080fd5b610519612a3a565b6040518082815260200191505060405180910390f35b341561053a57600080fd5b6105626004808035906020019091908035906020019091908035906020019091905050612a47565b6040518082815260200191505060405180910390f35b341561058357600080fd5b6105996004808035906020019091905050612a8a565b005b34156105a657600080fd5b6105ae612bd1565b604051808273ffffffffffffffffffffffffffffffffffffffff1673ffffffffffffffffffffffffffffffffffffffff16815260200191505060405180910390f35b34156105fb57600080fd5b610627600480803573ffffffffffffffffffffffffffffffffffffffff16906020019091905050612bf7565b005b341561063457600080fd5b610669600480803573ffffffffffffffffffffffffffffffffffffffff16906020019091908035906020019091905050612e14565b6040518082815260200191505060405180910390f35b341561068a57600080fd5b610692612e6f565b6040518080602001828103825283818151815260200191508051906020019080838360005b838110156106d25780820151818401526020810190506106b7565b50505050905090810190601f1680156106ff5780820380516001836020036101000a031916815260200191505b509250505060405180910390f35b600c60009054906101000a900473ffffffffffffffffffffffffffffffffffffffff16601160006101000a81548173ffffffffffffffffffffffffffffffffffffffff021916908373ffffffffffffffffffffffffffffffffffffffff160217905550601160009054906101000a900473ffffffffffffffffffffffffffffffffffffffff1673ffffffffffffffffffffffffffffffffffffffff16634f2a173886336000888888886040518863ffffffff167c0100000000000000000000000000000000000000000000000000000000028152600401808881526020018773ffffffffffffffffffffffffffffffffffffffff1673ffffffffffffffffffffffffffffffffffffffff168152602001868152602001806020018060200180602001858152602001848103845288818151815260200191508051906020019060200280838360005b83811015610870578082015181840152602081019050610855565b50505050905001848103835287818151815260200191508051906020019060200280838360005b838110156108b2578082015181840152602081019050610897565b50505050905001848103825286818151815260200191508051906020019060200280838360005b838110156108f45780820151818401526020810190506108d9565b505050509050019a5050505050505050505050600060405180830381600087803b151561092057600080fd5b6102c65a03f1151561093157600080fd5b50505061093d81612f0d565b5050505050565b6000806000806000806000806000806000600660009054906101000a900473ffffffffffffffffffffffffffffffffffffffff16601060006101000a81548173ffffffffffffffffffffffffffffffffffffffff021916908373ffffffffffffffffffffffffffffffffffffffff160217905550601060009054906101000a900473ffffffffffffffffffffffffffffffffffffffff1673ffffffffffffffffffffffffffffffffffffffff1663a95889bf8d6000604051604001526040518263ffffffff167c0100000000000000000000000000000000000000000000000000000000028152600401808281526020019150506040805180830381600087803b1515610a5057600080fd5b6102c65a03f11515610a6157600080fd5b505050604051805190602001805190508094508195505050601060009054906101000a900473ffffffffffffffffffffffffffffffffffffffff1673ffffffffffffffffffffffffffffffffffffffff1663ec9ccfff8d600060405160a001526040518263ffffffff167c01000000000000000000000000000000000000000000000000000000000281526004018082815260200191505060a060405180830381600087803b1515610b1257600080fd5b6102c65a03f11515610b2357600080fd5b505050604051805190602001805190602001805190602001805190602001805190509091929350909192509091508160ff1691505080955050600091505b601060009054906101000a900473ffffffffffffffffffffffffffffffffffffffff1673ffffffffffffffffffffffffffffffffffffffff166393a6b05f8d6000604051602001526040518263ffffffff167c010000000000000000000000000000000000000000000000000000000002815260040180828152602001915050602060405180830381600087803b1515610bfa57600080fd5b6102c65a03f11515610c0b57600080fd5b5050506040518051905082101561105557601060009054906101000a900473ffffffffffffffffffffffffffffffffffffffff1673ffffffffffffffffffffffffffffffffffffffff166372a5f4d48d846000604051602001526040518363ffffffff167c01000000000000000000000000000000000000000000000000000000000281526004018083815260200182815260200192505050602060405180830381600087803b1515610cbd57600080fd5b6102c65a03f11515610cce57600080fd5b50505060405180519050905084600382815481101515610cea57fe5b90600052602060002090600702016002016000815481101515610d0957fe5b9060005260206000209001541415610d4c57610d458b600383815481101515610d2e57fe5b906000526020600020906007020160060154613198565b9a50611048565b610e3b8a610e36600384815481101515610d6257fe5b906000526020600020906007020160050154610e31610d83600160646131b6565b601060009054906101000a900473ffffffffffffffffffffffffffffffffffffffff1673ffffffffffffffffffffffffffffffffffffffff1663ad3208466000604051602001526040518163ffffffff167c0100000000000000000000000000000000000000000000000000000000028152600401602060405180830381600087803b1515610e1157600080fd5b6102c65a03f11515610e2257600080fd5b505050604051805190506131f1565b6131b6565b613198565b9950610f2d600382815481101515610e4f57fe5b906000526020600020906007020160050154610f286001610f23610e75600160646131b6565b601060009054906101000a900473ffffffffffffffffffffffffffffffffffffffff1673ffffffffffffffffffffffffffffffffffffffff1663ad3208466000604051602001526040518163ffffffff167c0100000000000000000000000000000000000000000000000000000000028152600401602060405180830381600087803b1515610f0357600080fd5b6102c65a03f11515610f1457600080fd5b505050604051805190506131f1565b61320c565b6131b6565b9750601060009054906101000a900473ffffffffffffffffffffffffffffffffffffffff1673ffffffffffffffffffffffffffffffffffffffff1663649db80b600383815481101515610f7c57fe5b906000526020600020906007020160000160009054906101000a900473ffffffffffffffffffffffffffffffffffffffff168a6040518363ffffffff167c0100000000000000000000000000000000000000000000000000000000028152600401808373ffffffffffffffffffffffffffffffffffffffff1673ffffffffffffffffffffffffffffffffffffffff16815260200182815260200192505050600060405180830381600087803b151561103357600080fd5b6102c65a03f1151561104457600080fd5b5050505b8180600101925050610b61565b600091505b601060009054906101000a900473ffffffffffffffffffffffffffffffffffffffff1673ffffffffffffffffffffffffffffffffffffffff1663ad8750418d6000604051602001526040518263ffffffff167c010000000000000000000000000000000000000000000000000000000002815260040180828152602001915050602060405180830381600087803b15156110f357600080fd5b6102c65a03f1151561110457600080fd5b505050604051805190508210156111f35784821415156111e6576111e389601060009054906101000a900473ffffffffffffffffffffffffffffffffffffffff1673ffffffffffffffffffffffffffffffffffffffff16630ecc69c18f866000604051602001526040518363ffffffff167c01000000000000000000000000000000000000000000000000000000000281526004018083815260200182815260200192505050602060405180830381600087803b15156111c357600080fd5b6102c65a03f115156111d457600080fd5b50505060405180519050613198565b98505b818060010192505061105a565b6112b8601060009054906101000a900473ffffffffffffffffffffffffffffffffffffffff1673ffffffffffffffffffffffffffffffffffffffff1663c066ea868e886000604051602001526040518363ffffffff167c01000000000000000000000000000000000000000000000000000000000281526004018083815260200182815260200192505050602060405180830381600087803b151561129757600080fd5b6102c65a03f115156112a857600080fd5b505050604051805190508c613198565b96506112c4898b613198565b955060008511156112e0576112d98785613198565b96506112ed565b6112ea8684613198565b95505b6112f98c878986613225565b505050505050505050505050565b600b60009054906101000a900473ffffffffffffffffffffffffffffffffffffffff16601260006101000a81548173ffffffffffffffffffffffffffffffffffffffff021916908373ffffffffffffffffffffffffffffffffffffffff1602179055506001601260009054906101000a900473ffffffffffffffffffffffffffffffffffffffff1673ffffffffffffffffffffffffffffffffffffffff16638f16c41c336000604051602001526040518263ffffffff167c0100000000000000000000000000000000000000000000000000000000028152600401808273ffffffffffffffffffffffffffffffffffffffff1673ffffffffffffffffffffffffffffffffffffffff168152602001915050602060405180830381600087803b151561143157600080fd5b6102c65a03f1151561144257600080fd5b5050506040518051905014151561145857600080fd5b80600960006101000a81548173ffffffffffffffffffffffffffffffffffffffff021916908373ffffffffffffffffffffffffffffffffffffffff16021790555050565b600b60009054906101000a900473ffffffffffffffffffffffffffffffffffffffff16601260006101000a81548173ffffffffffffffffffffffffffffffffffffffff021916908373ffffffffffffffffffffffffffffffffffffffff1602179055506001601260009054906101000a900473ffffffffffffffffffffffffffffffffffffffff1673ffffffffffffffffffffffffffffffffffffffff16638f16c41c336000604051602001526040518263ffffffff167c0100000000000000000000000000000000000000000000000000000000028152600401808273ffffffffffffffffffffffffffffffffffffffff1673ffffffffffffffffffffffffffffffffffffffff168152602001915050602060405180830381600087803b15156115c657600080fd5b6102c65a03f115156115d757600080fd5b505050604051805190501415156115ed57600080fd5b84600a60006101000a81548173ffffffffffffffffffffffffffffffffffffffff021916908373ffffffffffffffffffffffffffffffffffffffff16021790555083600c60006101000a81548173ffffffffffffffffffffffffffffffffffffffff021916908373ffffffffffffffffffffffffffffffffffffffff16021790555082600660006101000a81548173ffffffffffffffffffffffffffffffffffffffff021916908373ffffffffffffffffffffffffffffffffffffffff16021790555081600760006101000a81548173ffffffffffffffffffffffffffffffffffffffff021916908373ffffffffffffffffffffffffffffffffffffffff16021790555080600860006101000a81548173ffffffffffffffffffffffffffffffffffffffff021916908373ffffffffffffffffffffffffffffffffffffffff1602179055505050505050565b60008060135414151561174b57600080fd5b6003805480600101828161175f919061461c565b9160005260206000209060070201600060e060405190810160405280600073ffffffffffffffffffffffffffffffffffffffff16815260200160008152602001858054806020026020016040519081016040528092919081815260200182805480156117ea57602002820191906000526020600020905b8154815260200190600101908083116117d6575b5050505050815260200142815260200160008152602001600081526020016000815250909190915060008201518160000160006101000a81548173ffffffffffffffffffffffffffffffffffffffff021916908373ffffffffffffffffffffffffffffffffffffffff16021790555060208201518160010155604082015181600201908051906020019061187f92919061464e565b50606082015181600301556080820151816004015560a0820151816005015560c082015181600601555050506040805190810160405280600d81526020017f53696d706c6520566f74696e6700000000000000000000000000000000000000815250600590805190602001906118f692919061469b565b50600160138190555050565b600080600080868152602001908152602001600020600001600085815260200190815260200160002060008481526020019081526020016000205491506000808681526020019081526020016000206001016000858152602001908152602001600020549050935093915050565b80600260008573ffffffffffffffffffffffffffffffffffffffff1673ffffffffffffffffffffffffffffffffffffffff168152602001908152602001600020600084815260200190815260200160002081905550505050565b6000806119d561471b565b6000806000806003888154811015156119ea57fe5b906000526020600020906007020160000160009054906101000a900473ffffffffffffffffffffffffffffffffffffffff16600389815481101515611a2b57fe5b90600052602060002090600702016001015460038a815481101515611a4c57fe5b906000526020600020906007020160020160038b815481101515611a6c57fe5b90600052602060002090600702016003015460038c815481101515611a8d57fe5b90600052602060002090600702016004015460038d815481101515611aae57fe5b90600052602060002090600702016005015460038e815481101515611acf57fe5b90600052602060002090600702016006015484805480602002602001604051908101604052809291908181526020018280548015611b2c57602002820191906000526020600020905b815481526020019060010190808311611b18575b505050505094509650965096509650965096509650919395979092949650565b60045481565b6000806000806000806000600660009054906101000a900473ffffffffffffffffffffffffffffffffffffffff16601060006101000a81548173ffffffffffffffffffffffffffffffffffffffff021916908373ffffffffffffffffffffffffffffffffffffffff160217905550600760009054906101000a900473ffffffffffffffffffffffffffffffffffffffff16600d60006101000a81548173ffffffffffffffffffffffffffffffffffffffff021916908373ffffffffffffffffffffffffffffffffffffffff160217905550600860009054906101000a900473ffffffffffffffffffffffffffffffffffffffff16600f60006101000a81548173ffffffffffffffffffffffffffffffffffffffff021916908373ffffffffffffffffffffffffffffffffffffffff160217905550600c60009054906101000a900473ffffffffffffffffffffffffffffffffffffffff16601160006101000a81548173ffffffffffffffffffffffffffffffffffffffff021916908373ffffffffffffffffffffffffffffffffffffffff160217905550601060009054906101000a900473ffffffffffffffffffffffffffffffffffffffff1673ffffffffffffffffffffffffffffffffffffffff1663ec9ccfff8b600060405160a001526040518263ffffffff167c01000000000000000000000000000000000000000000000000000000000281526004018082815260200191505060a060405180830381600087803b1515611d8257600080fd5b6102c65a03f11515611d9357600080fd5b505050604051805190602001805190602001805190602001805190602001805190508460ff1694508360ff1693508260ff169250905050809750819950829850505050601060009054906101000a900473ffffffffffffffffffffffffffffffffffffffff1673ffffffffffffffffffffffffffffffffffffffff166334a3210a8b6000604051608001526040518263ffffffff167c010000000000000000000000000000000000000000000000000000000002815260040180828152602001915050608060405180830381600087803b1515611e6f57600080fd5b6102c65a03f11515611e8057600080fd5b505050604051805190602001805190602001805190602001805190509091925090915090508060ff16905080945050601060009054906101000a900473ffffffffffffffffffffffffffffffffffffffff1673ffffffffffffffffffffffffffffffffffffffff1663e28d879f8b8b6000815181101515611efd57fe5b906020019060200201516000604051602001526040518363ffffffff167c01000000000000000000000000000000000000000000000000000000000281526004018083815260200182815260200192505050602060405180830381600087803b1515611f6857600080fd5b6102c65a03f11515611f7957600080fd5b5050506040518051905073ffffffffffffffffffffffffffffffffffffffff163373ffffffffffffffffffffffffffffffffffffffff1614151515611fbd57600080fd5b6000601060009054906101000a900473ffffffffffffffffffffffffffffffffffffffff1673ffffffffffffffffffffffffffffffffffffffff166335c42dbb336000604051602001526040518263ffffffff167c0100000000000000000000000000000000000000000000000000000000028152600401808273ffffffffffffffffffffffffffffffffffffffff1673ffffffffffffffffffffffffffffffffffffffff168152602001915050602060405180830381600087803b151561208457600080fd5b6102c65a03f1151561209557600080fd5b505050604051805190501415801561216057506002601060009054906101000a900473ffffffffffffffffffffffffffffffffffffffff1673ffffffffffffffffffffffffffffffffffffffff1663401853b78c6000604051602001526040518263ffffffff167c010000000000000000000000000000000000000000000000000000000002815260040180828152602001915050602060405180830381600087803b151561214357600080fd5b6102c65a03f1151561215457600080fd5b50505060405180519050145b801561216d575060018951145b151561217857600080fd5b60008714156121ad578389600081518110151561219157fe5b90602001906020020151111515156121a857600080fd5b6121f7565b848960008151811015156121bd57fe5b9060200190602002015114806121eb575060008960008151811015156121df57fe5b90602001906020020151145b15156121f657600080fd5b5b600d60009054906101000a900473ffffffffffffffffffffffffffffffffffffffff1673ffffffffffffffffffffffffffffffffffffffff1663beae32ba336000604051602001526040518263ffffffff167c0100000000000000000000000000000000000000000000000000000000028152600401808273ffffffffffffffffffffffffffffffffffffffff1673ffffffffffffffffffffffffffffffffffffffff168152602001915050602060405180830381600087803b15156122bc57600080fd5b6102c65a03f115156122cd57600080fd5b505050604051805190509250600f60009054906101000a900473ffffffffffffffffffffffffffffffffffffffff1673ffffffffffffffffffffffffffffffffffffffff16639deeab2087896000604051602001526040518363ffffffff167c01000000000000000000000000000000000000000000000000000000000281526004018083815260200182815260200192505050602060405180830381600087803b151561237a57600080fd5b6102c65a03f1151561238b57600080fd5b50505060405180519050831415156123a257600080fd5b6000600260003373ffffffffffffffffffffffffffffffffffffffff1673ffffffffffffffffffffffffffffffffffffffff16815260200190815260200160002060008c8152602001908152602001600020541415612a2257612403612a3a565b915061240d614148565b50601160009054906101000a900473ffffffffffffffffffffffffffffffffffffffff1673ffffffffffffffffffffffffffffffffffffffff1663ceeb6f1b338c8b6000604051602001526040518463ffffffff167c0100000000000000000000000000000000000000000000000000000000028152600401808473ffffffffffffffffffffffffffffffffffffffff1673ffffffffffffffffffffffffffffffffffffffff1681526020018381526020018281526020019350505050602060405180830381600087803b15156124e357600080fd5b6102c65a03f115156124f457600080fd5b50505060405180519050905061255a6000808c8152602001908152602001600020600001600085815260200190815260200160002060008b600081518110151561253a57fe5b906020019060200201518152602001908152602001600020546001613198565b6000808c8152602001908152602001600020600001600085815260200190815260200160002060008b600081518110151561259157fe5b906020019060200201518152602001908152602001600020819055506126bc6000808c8152602001908152602001600020600101600085815260200190815260200160002054601060009054906101000a900473ffffffffffffffffffffffffffffffffffffffff1673ffffffffffffffffffffffffffffffffffffffff166335c42dbb336000604051602001526040518263ffffffff167c0100000000000000000000000000000000000000000000000000000000028152600401808273ffffffffffffffffffffffffffffffffffffffff1673ffffffffffffffffffffffffffffffffffffffff168152602001915050602060405180830381600087803b151561269c57600080fd5b6102c65a03f115156126ad57600080fd5b50505060405180519050613198565b6000808c815260200190815260200160002060010160008581526020019081526020016000208190555081600260003373ffffffffffffffffffffffffffffffffffffffff1673ffffffffffffffffffffffffffffffffffffffff16815260200190815260200160002060008c815260200190815260200160002081905550600160008b815260200190815260200160002060008481526020019081526020016000208054806001018281612771919061472f565b916000526020600020900160008490919091505550601060009054906101000a900473ffffffffffffffffffffffffffffffffffffffff1673ffffffffffffffffffffffffffffffffffffffff1663d207287f8b846040518363ffffffff167c01000000000000000000000000000000000000000000000000000000000281526004018083815260200182815260200192505050600060405180830381600087803b151561281e57600080fd5b6102c65a03f1151561282f57600080fd5b50505060038054806001018281612846919061461c565b9160005260206000209060070201600060e0604051908101604052803373ffffffffffffffffffffffffffffffffffffffff1681526020018e81526020018d8152602001428152602001601060009054906101000a900473ffffffffffffffffffffffffffffffffffffffff1673ffffffffffffffffffffffffffffffffffffffff166335c42dbb336000604051602001526040518263ffffffff167c0100000000000000000000000000000000000000000000000000000000028152600401808273ffffffffffffffffffffffffffffffffffffffff1673ffffffffffffffffffffffffffffffffffffffff168152602001915050602060405180830381600087803b151561295557600080fd5b6102c65a03f1151561296657600080fd5b5050506040518051905081526020018c815260200185815250909190915060008201518160000160006101000a81548173ffffffffffffffffffffffffffffffffffffffff021916908373ffffffffffffffffffffffffffffffffffffffff1602179055506020820151816001015560408201518160020190805190602001906129f192919061464e565b50606082015181600301556080820151816004015560a0820151816005015560c08201518160060155505050612a2e565b612a2d8a8a8a614163565b5b50505050505050505050565b6000600380549050905090565b6000806000858152602001908152602001600020600001600084815260200190815260200160002060008381526020019081526020016000205490509392505050565b600c60009054906101000a900473ffffffffffffffffffffffffffffffffffffffff16601160006101000a81548173ffffffffffffffffffffffffffffffffffffffff021916908373ffffffffffffffffffffffffffffffffffffffff160217905550601160009054906101000a900473ffffffffffffffffffffffffffffffffffffffff1673ffffffffffffffffffffffffffffffffffffffff1663d9aa6f19336000846040518463ffffffff167c0100000000000000000000000000000000000000000000000000000000028152600401808473ffffffffffffffffffffffffffffffffffffffff1673ffffffffffffffffffffffffffffffffffffffff1681526020018381526020018281526020019350505050600060405180830381600087803b1515612bba57600080fd5b6102c65a03f11515612bcb57600080fd5b50505050565b600b60009054906101000a900473ffffffffffffffffffffffffffffffffffffffff1681565b6000600b60009054906101000a900473ffffffffffffffffffffffffffffffffffffffff1673ffffffffffffffffffffffffffffffffffffffff161415612c7e5780600b60006101000a81548173ffffffffffffffffffffffffffffffffffffffff021916908373ffffffffffffffffffffffffffffffffffffffff160217905550612e11565b600b60009054906101000a900473ffffffffffffffffffffffffffffffffffffffff16601260006101000a81548173ffffffffffffffffffffffffffffffffffffffff021916908373ffffffffffffffffffffffffffffffffffffffff1602179055506001601260009054906101000a900473ffffffffffffffffffffffffffffffffffffffff1673ffffffffffffffffffffffffffffffffffffffff16638f16c41c336000604051602001526040518263ffffffff167c0100000000000000000000000000000000000000000000000000000000028152600401808273ffffffffffffffffffffffffffffffffffffffff1673ffffffffffffffffffffffffffffffffffffffff168152602001915050602060405180830381600087803b1515612da857600080fd5b6102c65a03f11515612db957600080fd5b50505060405180519050141515612dcf57600080fd5b80600b60006101000a81548173ffffffffffffffffffffffffffffffffffffffff021916908373ffffffffffffffffffffffffffffffffffffffff1602179055505b50565b6000600260008473ffffffffffffffffffffffffffffffffffffffff1673ffffffffffffffffffffffffffffffffffffffff168152602001908152602001600020600083815260200190815260200160002054905092915050565b60058054600181600116156101000203166002900480601f016020809104026020016040519081016040528092919081815260200182805460018160011615610100020316600290048015612f055780601f10612eda57610100808354040283529160200191612f05565b820191906000526020600020905b815481529060010190602001808311612ee857829003601f168201915b505050505081565b600a60009054906101000a900473ffffffffffffffffffffffffffffffffffffffff16600e60006101000a81548173ffffffffffffffffffffffffffffffffffffffff021916908373ffffffffffffffffffffffffffffffffffffffff160217905550600660009054906101000a900473ffffffffffffffffffffffffffffffffffffffff16601060006101000a81548173ffffffffffffffffffffffffffffffffffffffff021916908373ffffffffffffffffffffffffffffffffffffffff160217905550601060009054906101000a900473ffffffffffffffffffffffffffffffffffffffff1673ffffffffffffffffffffffffffffffffffffffff1663ed1eee716000604051602001526040518163ffffffff167c0100000000000000000000000000000000000000000000000000000000028152600401602060405180830381600087803b151561306157600080fd5b6102c65a03f1151561307257600080fd5b50505060405180519050811015151561308a57600080fd5b600e60009054906101000a900473ffffffffffffffffffffffffffffffffffffffff1673ffffffffffffffffffffffffffffffffffffffff1663a9059cbb600960009054906101000a900473ffffffffffffffffffffffffffffffffffffffff16836000604051602001526040518363ffffffff167c0100000000000000000000000000000000000000000000000000000000028152600401808373ffffffffffffffffffffffffffffffffffffffff1673ffffffffffffffffffffffffffffffffffffffff16815260200182815260200192505050602060405180830381600087803b151561317957600080fd5b6102c65a03f1151561318a57600080fd5b505050604051805190505050565b60008082840190508381101515156131ac57fe5b8091505092915050565b60008060008414156131cb57600091506131ea565b82840290508284828115156131dc57fe5b041415156131e657fe5b8091505b5092915050565b60008082848115156131ff57fe5b0490508091505092915050565b600082821115151561321a57fe5b818303905092915050565b6000806000806000806000601060009054906101000a900473ffffffffffffffffffffffffffffffffffffffff1673ffffffffffffffffffffffffffffffffffffffff1663ec9ccfff8c600060405160a001526040518263ffffffff167c01000000000000000000000000000000000000000000000000000000000281526004018082815260200191505060a060405180830381600087803b15156132c957600080fd5b6102c65a03f115156132da57600080fd5b505050604051805190602001805190602001805190602001805190602001805190509091929350909192509091508160ff1691505080955050601060009054906101000a900473ffffffffffffffffffffffffffffffffffffffff1673ffffffffffffffffffffffffffffffffffffffff16633152fbd4600060405160c001526040518163ffffffff167c010000000000000000000000000000000000000000000000000000000002815260040160c060405180830381600087803b15156133a157600080fd5b6102c65a03f115156133b257600080fd5b5050506040518051906020018051906020018051906020018051906020018051906020018051905090919293945090919293509091509050809450819550505060008511156138d25761340e613408898c6131b6565b8a6131f1565b965061341a8888613198565b9550601060009054906101000a900473ffffffffffffffffffffffffffffffffffffffff1673ffffffffffffffffffffffffffffffffffffffff1663649db80b601060009054906101000a900473ffffffffffffffffffffffffffffffffffffffff1673ffffffffffffffffffffffffffffffffffffffff166317826ac48e6000604051602001526040518263ffffffff167c010000000000000000000000000000000000000000000000000000000002815260040180828152602001915050602060405180830381600087803b15156134f357600080fd5b6102c65a03f1151561350457600080fd5b50505060405180519050886040518363ffffffff167c0100000000000000000000000000000000000000000000000000000000028152600401808373ffffffffffffffffffffffffffffffffffffffff1673ffffffffffffffffffffffffffffffffffffffff16815260200182815260200192505050600060405180830381600087803b151561359357600080fd5b6102c65a03f115156135a457600080fd5b50505061367561366f601060009054906101000a900473ffffffffffffffffffffffffffffffffffffffff1673ffffffffffffffffffffffffffffffffffffffff16630ecc69c18e896000604051602001526040518363ffffffff167c01000000000000000000000000000000000000000000000000000000000281526004018083815260200182815260200192505050602060405180830381600087803b151561364e57600080fd5b6102c65a03f1151561365f57600080fd5b505050604051805190508c6131b6565b8a6131f1565b965061373c601060009054906101000a900473ffffffffffffffffffffffffffffffffffffffff1673ffffffffffffffffffffffffffffffffffffffff16630ecc69c18d886000604051602001526040518363ffffffff167c01000000000000000000000000000000000000000000000000000000000281526004018083815260200182815260200192505050602060405180830381600087803b151561371b57600080fd5b6102c65a03f1151561372c57600080fd5b5050506040518051905088613198565b9550601060009054906101000a900473ffffffffffffffffffffffffffffffffffffffff1673ffffffffffffffffffffffffffffffffffffffff1663649db80b601060009054906101000a900473ffffffffffffffffffffffffffffffffffffffff1673ffffffffffffffffffffffffffffffffffffffff1663e28d879f8e896000604051602001526040518363ffffffff167c01000000000000000000000000000000000000000000000000000000000281526004018083815260200182815260200192505050602060405180830381600087803b151561381d57600080fd5b6102c65a03f1151561382e57600080fd5b50505060405180519050886040518363ffffffff167c0100000000000000000000000000000000000000000000000000000000028152600401808373ffffffffffffffffffffffffffffffffffffffff1673ffffffffffffffffffffffffffffffffffffffff16815260200182815260200192505050600060405180830381600087803b15156138bd57600080fd5b6102c65a03f115156138ce57600080fd5b5050505b600091505b601060009054906101000a900473ffffffffffffffffffffffffffffffffffffffff1673ffffffffffffffffffffffffffffffffffffffff166393a6b05f8c6000604051602001526040518263ffffffff167c010000000000000000000000000000000000000000000000000000000002815260040180828152602001915050602060405180830381600087803b151561397057600080fd5b6102c65a03f1151561398157600080fd5b5050506040518051905082101561408f57601060009054906101000a900473ffffffffffffffffffffffffffffffffffffffff1673ffffffffffffffffffffffffffffffffffffffff166372a5f4d48c846000604051602001526040518363ffffffff167c01000000000000000000000000000000000000000000000000000000000281526004018083815260200182815260200192505050602060405180830381600087803b1515613a3357600080fd5b6102c65a03f11515613a4457600080fd5b50505060405180519050905084600382815481101515613a6057fe5b90600052602060002090600702016002016000815481101515613a7f57fe5b9060005260206000209001541415613e4857613ac4613abe600383815481101515613aa657fe5b9060005260206000209060070201600601548c6131b6565b8a6131f1565b9650613af0600382815481101515613ad857fe5b90600052602060002090600702016005015488613198565b9550601060009054906101000a900473ffffffffffffffffffffffffffffffffffffffff1673ffffffffffffffffffffffffffffffffffffffff1663649db80b600383815481101515613b3f57fe5b906000526020600020906007020160000160009054906101000a900473ffffffffffffffffffffffffffffffffffffffff16886040518363ffffffff167c0100000000000000000000000000000000000000000000000000000000028152600401808373ffffffffffffffffffffffffffffffffffffffff1673ffffffffffffffffffffffffffffffffffffffff16815260200182815260200192505050600060405180830381600087803b1515613bf657600080fd5b6102c65a03f11515613c0757600080fd5b505050601060009054906101000a900473ffffffffffffffffffffffffffffffffffffffff1673ffffffffffffffffffffffffffffffffffffffff16630dfa263a600383815481101515613c5757fe5b906000526020600020906007020160000160009054906101000a900473ffffffffffffffffffffffffffffffffffffffff1686601060009054906101000a900473ffffffffffffffffffffffffffffffffffffffff1673ffffffffffffffffffffffffffffffffffffffff16631b3b74f1600387815481101515613cd757fe5b906000526020600020906007020160000160009054906101000a900473ffffffffffffffffffffffffffffffffffffffff166000604051602001526040518263ffffffff167c0100000000000000000000000000000000000000000000000000000000028152600401808273ffffffffffffffffffffffffffffffffffffffff1673ffffffffffffffffffffffffffffffffffffffff168152602001915050602060405180830381600087803b1515613d8f57600080fd5b6102c65a03f11515613da057600080fd5b50505060405180519050016040518363ffffffff167c0100000000000000000000000000000000000000000000000000000000028152600401808373ffffffffffffffffffffffffffffffffffffffff1673ffffffffffffffffffffffffffffffffffffffff16815260200182815260200192505050600060405180830381600087803b1515613e2f57600080fd5b6102c65a03f11515613e4057600080fd5b505050614082565b601060009054906101000a900473ffffffffffffffffffffffffffffffffffffffff1673ffffffffffffffffffffffffffffffffffffffff16630dfa263a600383815481101515613e9557fe5b906000526020600020906007020160000160009054906101000a900473ffffffffffffffffffffffffffffffffffffffff1685601060009054906101000a900473ffffffffffffffffffffffffffffffffffffffff1673ffffffffffffffffffffffffffffffffffffffff16631b3b74f1600387815481101515613f1557fe5b906000526020600020906007020160000160009054906101000a900473ffffffffffffffffffffffffffffffffffffffff166000604051602001526040518263ffffffff167c0100000000000000000000000000000000000000000000000000000000028152600401808273ffffffffffffffffffffffffffffffffffffffff1673ffffffffffffffffffffffffffffffffffffffff168152602001915050602060405180830381600087803b1515613fcd57600080fd5b6102c65a03f11515613fde57600080fd5b50505060405180519050036040518363ffffffff167c0100000000000000000000000000000000000000000000000000000000028152600401808373ffffffffffffffffffffffffffffffffffffffff1673ffffffffffffffffffffffffffffffffffffffff16815260200182815260200192505050600060405180830381600087803b151561406d57600080fd5b6102c65a03f1151561407e57600080fd5b5050505b81806001019250506138d7565b601060009054906101000a900473ffffffffffffffffffffffffffffffffffffffff1673ffffffffffffffffffffffffffffffffffffffff1663ebd0e3138c876040518363ffffffff167c01000000000000000000000000000000000000000000000000000000000281526004018083815260200182815260200192505050600060405180830381600087803b151561412757600080fd5b6102c65a03f1151561413857600080fd5b5050505050505050505050505050565b60006141576004546001613198565b90508060048190555090565b600080600080600760009054906101000a900473ffffffffffffffffffffffffffffffffffffffff16600d60006101000a81548173ffffffffffffffffffffffffffffffffffffffff021916908373ffffffffffffffffffffffffffffffffffffffff160217905550600d60009054906101000a900473ffffffffffffffffffffffffffffffffffffffff1673ffffffffffffffffffffffffffffffffffffffff1663beae32ba336000604051602001526040518263ffffffff167c0100000000000000000000000000000000000000000000000000000000028152600401808273ffffffffffffffffffffffffffffffffffffffff1673ffffffffffffffffffffffffffffffffffffffff168152602001915050602060405180830381600087803b151561429157600080fd5b6102c65a03f115156142a257600080fd5b505050604051805190509350600260003373ffffffffffffffffffffffffffffffffffffffff1673ffffffffffffffffffffffffffffffffffffffff168152602001908152602001600020600088815260200190815260200160002054925060038381548110151561431057fe5b9060005260206000209060070201600201915061437f6000808981526020019081526020016000206000016000868152602001908152602001600020600084600081548110151561435d57fe5b906000526020600020900154815260200190815260200160002054600161320c565b600080898152602001908152602001600020600001600086815260200190815260200160002060008460008154811015156143b657fe5b90600052602060002090015481526020019081526020016000208190555061442e6000808981526020019081526020016000206000016000868152602001908152602001600020600088600081518110151561440e57fe5b906020019060200201518152602001908152602001600020546001613198565b6000808981526020019081526020016000206000016000868152602001908152602001600020600088600081518110151561446557fe5b9060200190602002015181526020019081526020016000208190555085600081518110151561449057fe5b906020019060200201516003848154811015156144a957fe5b906000526020600020906007020160020160008154811015156144c857fe5b906000526020600020900181905550601160009054906101000a900473ffffffffffffffffffffffffffffffffffffffff1673ffffffffffffffffffffffffffffffffffffffff1663ceeb6f1b3389886000604051602001526040518463ffffffff167c0100000000000000000000000000000000000000000000000000000000028152600401808473ffffffffffffffffffffffffffffffffffffffff1673ffffffffffffffffffffffffffffffffffffffff1681526020018381526020018281526020019350505050602060405180830381600087803b15156145ac57600080fd5b6102c65a03f115156145bd57600080fd5b505050604051805190509050846003848154811015156145d957fe5b906000526020600020906007020160050181905550806003848154811015156145fe57fe5b90600052602060002090600702016006018190555050505050505050565b81548183558181151161464957600702816007028360005260206000209182019101614648919061475b565b5b505050565b82805482825590600052602060002090810192821561468a579160200282015b8281111561468957825182559160200191906001019061466e565b5b50905061469791906147d9565b5090565b828054600181600116156101000203166002900490600052602060002090601f016020900481019282601f106146dc57805160ff191683800117855561470a565b8280016001018555821561470a579182015b828111156147095782518255916020019190600101906146ee565b5b50905061471791906147d9565b5090565b602060405190810160405280600081525090565b8154818355818115116147565781836000526020600020918201910161475591906147d9565b5b505050565b6147d691905b808211156147d257600080820160006101000a81549073ffffffffffffffffffffffffffffffffffffffff021916905560018201600090556002820160006147a991906147fe565b600382016000905560048201600090556005820160009055600682016000905550600701614761565b5090565b90565b6147fb91905b808211156147f75760008160009055506001016147df565b5090565b90565b508054600082559060005260206000209081019061481c91906147d9565b505600a165627a7a723058207a239b619fc43ba43fff69db571198f601f0b0987e7098b43de4c751adf5d1e00029",
  "source": "    /* Copyright (C) 2017 GovBlocks.io\r\n\r\n  This program is free software: you can redistribute it and/or modify\r\n    it under the terms of the GNU General Public License as published by\r\n    the Free Software Foundation, either version 3 of the License, or\r\n    (at your option) any later version.\r\n\r\n  This program is distributed in the hope that it will be useful,\r\n    but WITHOUT ANY WARRANTY; without even the implied warranty of\r\n    MERCHANTABILITY or FITNESS FOR A PARTICULAR PURPOSE.  See the\r\n    GNU General Public License for more details.\r\n\r\n  You should have received a copy of the GNU General Public License\r\n    along with this program.  If not, see http://www.gnu.org/licenses/ */\r\n\r\n\r\npragma solidity ^0.4.8;\r\n\r\nimport \"./VotingType.sol\";\r\nimport \"./Master.sol\";\r\nimport \"./StandardVotingType.sol\";\r\nimport \"./GovernanceData.sol\";\r\n// import \"./BasicToken.sol\";\r\nimport \"./zeppelin-solidity/contracts/token/BasicToken.sol\";\r\n\r\n\r\ncontract SimpleVoting is VotingType\r\n{\r\n    using SafeMath for uint;\r\n    using Math for uint;\r\n    address GDAddress;\r\n    address MRAddress;\r\n    address PCAddress;\r\n    address GBTAddress;\r\n    address BTAddress;\r\n    address public masterAddress;\r\n    address SVTAddress;\r\n    MemberRoles MR;\r\n    BasicToken BT;\r\n    ProposalCategory PC;\r\n    GovernanceData GD;\r\n    StandardVotingType SVT;\r\n    Master MS;\r\n    uint constructorCheck;\r\n\r\n    modifier onlyInternal {\r\n        MS=Master(masterAddress);\r\n        require(MS.isInternal(msg.sender) == 1);\r\n        _; \r\n    }\r\n\r\n    function SimpleVotingInitiate()\r\n    {\r\n        require(constructorCheck == 0);\r\n        uint[] optionChosen;\r\n        allVotes.push(proposalVote(0x00,0,optionChosen,now,0,0,0));\r\n        votingTypeName = \"Simple Voting\";\r\n        constructorCheck =1;\r\n    }\r\n    \r\n    /// @dev Change master's contract address\r\n    function changeMasterAddress(address _masterContractAddress)\r\n    {\r\n        if(masterAddress == 0x000)\r\n            masterAddress = _masterContractAddress;\r\n        else\r\n        {\r\n            MS=Master(masterAddress);\r\n            require(MS.isInternal(msg.sender) == 1);\r\n                masterAddress = _masterContractAddress;\r\n        }\r\n    }\r\n    \r\n    /// @dev Some amount to be paid while using GovBlocks contract service - Approve the contract to spend money on behalf of msg.sender\r\n    function payableGBTTokensSimpleVoting(uint _TokenAmount) internal\r\n    {\r\n        BT=BasicToken(BTAddress);\r\n        GD=GovernanceData(GDAddress);\r\n        require(_TokenAmount >= GD.GBTStakeValue());\r\n        BT.transfer(GBTAddress,_TokenAmount);\r\n    }\r\n    \r\n    function changeAllContractsAddress(address _BTcontractAddress,address _StandardVotingAddress,address _GDcontractAddress, address _MRcontractAddress, address _PCcontractAddress) onlyInternal\r\n    {\r\n        BTAddress = _BTcontractAddress;\r\n        SVTAddress = _StandardVotingAddress;\r\n        GDAddress = _GDcontractAddress;\r\n        MRAddress = _MRcontractAddress;\r\n        PCAddress = _PCcontractAddress;\r\n    }\r\n\r\n    /// @dev Changes GBT contract Address. //NEW\r\n    function changeGBTtokenAddress(address _GBTcontractAddress) onlyInternal\r\n    {\r\n        GBTAddress = _GBTcontractAddress;\r\n    }\r\n\r\n    function getTotalVotes() constant returns (uint _votesTotal)\r\n    {\r\n        return(allVotes.length);\r\n    }\r\n\r\n    function increaseTotalVotes() internal returns (uint _totalVotes)\r\n    {\r\n        _totalVotes = SafeMath.add(allVotesTotal,1);  \r\n        allVotesTotal=_totalVotes;\r\n    } \r\n\r\n    function getVoteDetailByid(uint _voteid) public constant returns(address voter,uint proposalId,uint[] optionChosen,uint dateSubmit,uint voterTokens,uint voteStakeGBT,uint voteValue)\r\n    {\r\n        return(allVotes[_voteid].voter,allVotes[_voteid].proposalId,allVotes[_voteid].optionChosen,allVotes[_voteid].dateSubmit,allVotes[_voteid].voterTokens,allVotes[_voteid].voteStakeGBT,allVotes[_voteid].voteValue);\r\n    }\r\n\r\n    /// @dev Get the vote count for options of proposal when giving Proposal id and Option index.\r\n    function getProposalVoteAndTokenCountByRoleId(uint _proposalId,uint _roleId,uint _optionIndex) public constant returns(uint totalVotes,uint totalToken)\r\n    {\r\n        totalVotes = allProposalVoteAndTokenCount[_proposalId].totalVoteCount[_roleId][_optionIndex];\r\n        totalToken = allProposalVoteAndTokenCount[_proposalId].totalTokenCount[_roleId];\r\n    }\r\n\r\n    function addVerdictOption(uint _proposalId,uint[] _paramInt,bytes32[] _paramBytes32,address[] _paramAddress,uint _GBTPayableTokenAmount) \r\n    {\r\n        SVT=StandardVotingType(SVTAddress);\r\n        SVT.addVerdictOptionSVT(_proposalId,msg.sender,0,_paramInt,_paramBytes32,_paramAddress,_GBTPayableTokenAmount);\r\n        payableGBTTokensSimpleVoting(_GBTPayableTokenAmount);\r\n    }\r\n\r\n    function proposalVoting(uint _proposalId,uint[] _optionChosen,uint _GBTPayableTokenAmount) \r\n    {\r\n        GD=GovernanceData(GDAddress);\r\n        MR=MemberRoles(MRAddress);\r\n        PC=ProposalCategory(PCAddress);\r\n        SVT=StandardVotingType(SVTAddress);\r\n\r\n        uint currentVotingId; uint category; uint intermediateVerdict;\r\n        (category,currentVotingId,intermediateVerdict,,) = GD.getProposalDetailsById2(_proposalId);\r\n        uint verdictOptions;\r\n        (,,,verdictOptions) = GD.getProposalCategoryParams(_proposalId);\r\n        \r\n        require(msg.sender != GD.getOptionAddressByProposalId(_proposalId,_optionChosen[0]));\r\n        require(GD.getBalanceOfMember(msg.sender) != 0 && GD.getProposalStatus(_proposalId) == 2 && _optionChosen.length == 1);\r\n\r\n        if(currentVotingId == 0)\r\n            require(_optionChosen[0] <= verdictOptions);\r\n        else\r\n            require(_optionChosen[0]==intermediateVerdict || _optionChosen[0]==0);\r\n            \r\n        uint roleId = MR.getMemberRoleIdByAddress(msg.sender);\r\n        require(roleId == PC.getRoleSequencAtIndex(category,currentVotingId));\r\n\r\n        if(AddressProposalVote[msg.sender][_proposalId] == 0)\r\n        {\r\n            uint votelength = getTotalVotes();\r\n            increaseTotalVotes();\r\n            uint finalVoteValue = SVT.setVoteValue_givenByMember(msg.sender,_proposalId,_GBTPayableTokenAmount);\r\n            allProposalVoteAndTokenCount[_proposalId].totalVoteCount[roleId][_optionChosen[0]] = SafeMath.add(allProposalVoteAndTokenCount[_proposalId].totalVoteCount[roleId][_optionChosen[0]],1);\r\n            allProposalVoteAndTokenCount[_proposalId].totalTokenCount[roleId] = SafeMath.add(allProposalVoteAndTokenCount[_proposalId].totalTokenCount[roleId],GD.getBalanceOfMember(msg.sender));\r\n            AddressProposalVote[msg.sender][_proposalId] = votelength;\r\n            ProposalRoleVote[_proposalId][roleId].push(votelength);\r\n            GD.setVoteIdAgainstProposal(_proposalId,votelength);\r\n            allVotes.push(proposalVote(msg.sender,_proposalId,_optionChosen,now,GD.getBalanceOfMember(msg.sender),_GBTPayableTokenAmount,finalVoteValue));\r\n        }\r\n        else \r\n            changeMemberVote(_proposalId,_optionChosen,_GBTPayableTokenAmount);\r\n    }\r\n\r\n    function changeMemberVote(uint _proposalId,uint[] _optionChosen,uint _GBTPayableTokenAmount) internal\r\n    {\r\n        MR=MemberRoles(MRAddress); \r\n        uint roleId = MR.getMemberRoleIdByAddress(msg.sender);\r\n        uint voteId = AddressProposalVote[msg.sender][_proposalId];\r\n        uint[] optionChosen = allVotes[voteId].optionChosen;\r\n        \r\n        allProposalVoteAndTokenCount[_proposalId].totalVoteCount[roleId][optionChosen[0]] = SafeMath.sub(allProposalVoteAndTokenCount[_proposalId].totalVoteCount[roleId][optionChosen[0]],1);\r\n        allProposalVoteAndTokenCount[_proposalId].totalVoteCount[roleId][_optionChosen[0]] = SafeMath.add(allProposalVoteAndTokenCount[_proposalId].totalVoteCount[roleId][_optionChosen[0]],1);\r\n        allVotes[voteId].optionChosen[0] = _optionChosen[0];\r\n\r\n        uint finalVoteValue = SVT.setVoteValue_givenByMember(msg.sender,_proposalId,_GBTPayableTokenAmount);\r\n        allVotes[voteId].voteStakeGBT = _GBTPayableTokenAmount;\r\n        allVotes[voteId].voteValue = finalVoteValue;\r\n\r\n    }\r\n\r\n    function closeProposalVote(uint _proposalId)\r\n    {\r\n        SVT=StandardVotingType(SVTAddress);\r\n        SVT.closeProposalVoteSVT(msg.sender,0,_proposalId);\r\n    }\r\n\r\n    function giveReward_afterFinalDecision(uint _proposalId) public\r\n    {\r\n        GD=GovernanceData(GDAddress);\r\n        uint voteValueFavour; uint voterStake; uint wrongOptionStake; uint returnTokens;\r\n        uint totalVoteValue; uint totalTokenToDistribute; \r\n        uint finalVerdict; uint proposalValue; uint proposalStake; \r\n\r\n        (proposalValue,proposalStake) = GD.getProposalValueAndStake(_proposalId);\r\n        (,,,finalVerdict,) = GD.getProposalDetailsById2(_proposalId);\r\n\r\n        for(uint i=0; i<GD.getTotalVoteLengthAgainstProposal(_proposalId); i++)\r\n        {\r\n            uint voteid = GD.getVoteIdByProposalId(_proposalId,i);\r\n            if(allVotes[voteid].optionChosen[0] == finalVerdict)\r\n            {\r\n                voteValueFavour = SafeMath.add(voteValueFavour,allVotes[voteid].voteValue);\r\n            }\r\n            else\r\n            {\r\n                voterStake = SafeMath.add(voterStake,SafeMath.mul(allVotes[voteid].voteStakeGBT,(SafeMath.div(SafeMath.mul(1,100),GD.globalRiskFactor()))));\r\n                returnTokens = SafeMath.mul(allVotes[voteid].voteStakeGBT,(SafeMath.sub(1,(SafeMath.div(SafeMath.mul(1,100),GD.globalRiskFactor())))));\r\n                GD.transferBackGBTtoken(allVotes[voteid].voter,returnTokens);\r\n            }\r\n        }\r\n\r\n        for(i=0; i<GD.getOptionAddedAddressLength(_proposalId); i++)\r\n        {\r\n            if(i!= finalVerdict)         \r\n                wrongOptionStake = SafeMath.add(wrongOptionStake,GD.getOptionStakeByProposalId(_proposalId,i));\r\n        }\r\n\r\n        totalVoteValue = SafeMath.add(GD.getOptionValueByProposalId(_proposalId,finalVerdict),voteValueFavour);\r\n        totalTokenToDistribute = SafeMath.add(wrongOptionStake,voterStake);\r\n\r\n        if(finalVerdict>0)\r\n            totalVoteValue = SafeMath.add(totalVoteValue,proposalValue); // accpted\r\n        else\r\n            totalTokenToDistribute = SafeMath.add(totalTokenToDistribute,proposalStake); // denied\r\n\r\n        distributeReward(_proposalId,totalTokenToDistribute,totalVoteValue,proposalStake);\r\n    }\r\n\r\n    function distributeReward(uint _proposalId,uint _totalTokenToDistribute,uint _totalVoteValue,uint _proposalStake) internal\r\n    {\r\n        uint reward;uint transferToken;\r\n        uint finalVerdict;\r\n        (,,,finalVerdict,) = GD.getProposalDetailsById2(_proposalId);\r\n        uint addMemberPoints; uint subMemberPoints;\r\n        (,,addMemberPoints,,,subMemberPoints)=GD.getMemberReputationPoints();\r\n \r\n        if(finalVerdict > 0)\r\n        {\r\n            reward = SafeMath.div(SafeMath.mul(_proposalStake,_totalTokenToDistribute),_totalVoteValue);\r\n            transferToken = SafeMath.add(_proposalStake,reward);\r\n            GD.transferBackGBTtoken(GD.getProposalOwner(_proposalId),transferToken);\r\n\r\n            reward = SafeMath.div(SafeMath.mul(GD.getOptionStakeByProposalId(_proposalId,finalVerdict),_totalTokenToDistribute),_totalVoteValue);\r\n            transferToken = SafeMath.add(GD.getOptionStakeByProposalId(_proposalId,finalVerdict),reward);\r\n            GD.transferBackGBTtoken(GD.getOptionAddressByProposalId(_proposalId,finalVerdict),transferToken);\r\n        }\r\n\r\n        for(uint i=0; i<GD.getTotalVoteLengthAgainstProposal(_proposalId); i++)\r\n        {\r\n            uint voteid = GD.getVoteIdByProposalId(_proposalId,i);\r\n            if(allVotes[voteid].optionChosen[0] == finalVerdict)\r\n            {\r\n                reward = SafeMath.div(SafeMath.mul(allVotes[voteid].voteValue,_totalTokenToDistribute),_totalVoteValue);\r\n                transferToken = SafeMath.add(allVotes[voteid].voteStakeGBT,reward);\r\n                GD.transferBackGBTtoken(allVotes[voteid].voter,transferToken);\r\n                GD.updateMemberReputation1(allVotes[voteid].voter,(GD.getMemberReputation(allVotes[voteid].voter)+addMemberPoints));\r\n            }\r\n            else\r\n            {\r\n                GD.updateMemberReputation1(allVotes[voteid].voter,(GD.getMemberReputation(allVotes[voteid].voter)-subMemberPoints));\r\n            }\r\n               \r\n        } \r\n        GD.updateMemberReputation(_proposalId,finalVerdict);\r\n    }\r\n}\r\n",
  "sourcePath": "D:\\RUCHITA\\Govblocks-Git\\contracts\\SimpleVoting.sol",
  "compiler": {
    "name": "solc",
    "version": "0.4.18+commit.9cf6e910.Emscripten.clang"
  },
  "schemaVersion": "1.0.1",
  "updatedAt": "2018-01-30T10:36:00.514Z"
}