{
  "contractName": "StandardVotingType",
  "abi": [
    {
      "constant": false,
      "inputs": [
        {
          "name": "_BTcontractAddress",
          "type": "address"
        },
        {
          "name": "_GDcontractAddress",
          "type": "address"
        },
        {
          "name": "_MRcontractAddress",
          "type": "address"
        },
        {
          "name": "_PCcontractAddress",
          "type": "address"
        }
      ],
      "name": "changeAllContractsAddress",
      "outputs": [],
      "payable": false,
      "stateMutability": "nonpayable",
      "type": "function"
    },
    {
      "constant": false,
      "inputs": [
        {
          "name": "_GBTcontractAddress",
          "type": "address"
        }
      ],
      "name": "changeGBTtokenAddress",
      "outputs": [],
      "payable": false,
      "stateMutability": "nonpayable",
      "type": "function"
    },
    {
      "constant": false,
      "inputs": [
        {
          "name": "_proposalId",
          "type": "uint256"
        },
        {
          "name": "_memberAddress",
          "type": "address"
        },
        {
          "name": "_votingType",
          "type": "uint256"
        },
        {
          "name": "_paramInt",
          "type": "uint256[]"
        },
        {
          "name": "_paramBytes32",
          "type": "bytes32[]"
        },
        {
          "name": "_paramAddress",
          "type": "address[]"
        },
        {
          "name": "_GBTPayableTokenAmount",
          "type": "uint256"
        },
        {
          "name": "_optionDescHash",
          "type": "string"
        }
      ],
      "name": "addVerdictOptionSVT",
      "outputs": [],
      "payable": false,
      "stateMutability": "nonpayable",
      "type": "function"
    },
    {
      "constant": false,
      "inputs": [
        {
          "name": "_memberAddress",
          "type": "address"
        },
        {
          "name": "_proposalId",
          "type": "uint256"
        },
        {
          "name": "_memberStake",
          "type": "uint256"
        }
      ],
      "name": "setVoteValue_givenByMember",
      "outputs": [
        {
          "name": "finalVoteValue",
          "type": "uint256"
        }
      ],
      "payable": false,
      "stateMutability": "nonpayable",
      "type": "function"
    },
    {
      "constant": true,
      "inputs": [],
      "name": "masterAddress",
      "outputs": [
        {
          "name": "",
          "type": "address"
        }
      ],
      "payable": false,
      "stateMutability": "view",
      "type": "function"
    },
    {
      "constant": false,
      "inputs": [
        {
          "name": "_masterContractAddress",
          "type": "address"
        }
      ],
      "name": "changeMasterAddress",
      "outputs": [],
      "payable": false,
      "stateMutability": "nonpayable",
      "type": "function"
    },
    {
      "constant": false,
      "inputs": [
        {
          "name": "_memberAddress",
          "type": "address"
        },
        {
          "name": "_votingType",
          "type": "uint256"
        },
        {
          "name": "_proposalId",
          "type": "uint256"
        }
      ],
      "name": "closeProposalVoteSVT",
      "outputs": [],
      "payable": false,
      "stateMutability": "nonpayable",
      "type": "function"
    },
    {
      "constant": false,
      "inputs": [
        {
          "name": "_SVaddress",
          "type": "address"
        },
        {
          "name": "_RBaddress",
          "type": "address"
        },
        {
          "name": "_FWaddress",
          "type": "address"
        }
      ],
      "name": "changeOtherContractAddress",
      "outputs": [],
      "payable": false,
      "stateMutability": "nonpayable",
      "type": "function"
    }
  ],
  "bytecode": "0x6060604052341561000f57600080fd5b6140118061001e6000396000f30060606040526004361061008e576000357c0100000000000000000000000000000000000000000000000000000000900463ffffffff168063013b4441146100935780630df34cdb14610129578063922a3b5f14610162578063ceeb6f1b146102b9578063d365a08e14610318578063d46655f41461036d578063d9aa6f19146103a6578063f41e8241146103f1575b600080fd5b341561009e57600080fd5b610127600480803573ffffffffffffffffffffffffffffffffffffffff1690602001909190803573ffffffffffffffffffffffffffffffffffffffff1690602001909190803573ffffffffffffffffffffffffffffffffffffffff1690602001909190803573ffffffffffffffffffffffffffffffffffffffff16906020019091905050610468565b005b341561013457600080fd5b610160600480803573ffffffffffffffffffffffffffffffffffffffff169060200190919050506106c3565b005b341561016d57600080fd5b6102b7600480803590602001909190803573ffffffffffffffffffffffffffffffffffffffff1690602001909190803590602001909190803590602001908201803590602001908080602002602001604051908101604052809392919081815260200183836020028082843782019150505050505091908035906020019082018035906020019080806020026020016040519081016040528093929190818152602001838360200280828437820191505050505050919080359060200190820180359060200190808060200260200160405190810160405280939291908181526020018383602002808284378201915050505050509190803590602001909190803590602001908201803590602001908080601f01602080910402602001604051908101604052809392919081815260200183838082843782019150505050505091905050610858565b005b34156102c457600080fd5b610302600480803573ffffffffffffffffffffffffffffffffffffffff16906020019091908035906020019091908035906020019091905050611604565b6040518082815260200191505060405180910390f35b341561032357600080fd5b61032b611d3f565b604051808273ffffffffffffffffffffffffffffffffffffffff1673ffffffffffffffffffffffffffffffffffffffff16815260200191505060405180910390f35b341561037857600080fd5b6103a4600480803573ffffffffffffffffffffffffffffffffffffffff16906020019091905050611d65565b005b34156103b157600080fd5b6103ef600480803573ffffffffffffffffffffffffffffffffffffffff16906020019091908035906020019091908035906020019091905050611f82565b005b34156103fc57600080fd5b610466600480803573ffffffffffffffffffffffffffffffffffffffff1690602001909190803573ffffffffffffffffffffffffffffffffffffffff1690602001909190803573ffffffffffffffffffffffffffffffffffffffff169060200190919050506134a5565b005b600a60009054906101000a900473ffffffffffffffffffffffffffffffffffffffff16600b60006101000a81548173ffffffffffffffffffffffffffffffffffffffff021916908373ffffffffffffffffffffffffffffffffffffffff1602179055506001600b60009054906101000a900473ffffffffffffffffffffffffffffffffffffffff1673ffffffffffffffffffffffffffffffffffffffff16638f16c41c336000604051602001526040518263ffffffff167c0100000000000000000000000000000000000000000000000000000000028152600401808273ffffffffffffffffffffffffffffffffffffffff1673ffffffffffffffffffffffffffffffffffffffff168152602001915050602060405180830381600087803b151561059257600080fd5b6102c65a03f115156105a357600080fd5b505050604051805190501415156105b957600080fd5b83600760006101000a81548173ffffffffffffffffffffffffffffffffffffffff021916908373ffffffffffffffffffffffffffffffffffffffff16021790555082600360006101000a81548173ffffffffffffffffffffffffffffffffffffffff021916908373ffffffffffffffffffffffffffffffffffffffff16021790555081600460006101000a81548173ffffffffffffffffffffffffffffffffffffffff021916908373ffffffffffffffffffffffffffffffffffffffff16021790555080600560006101000a81548173ffffffffffffffffffffffffffffffffffffffff021916908373ffffffffffffffffffffffffffffffffffffffff16021790555050505050565b600a60009054906101000a900473ffffffffffffffffffffffffffffffffffffffff16600b60006101000a81548173ffffffffffffffffffffffffffffffffffffffff021916908373ffffffffffffffffffffffffffffffffffffffff1602179055506001600b60009054906101000a900473ffffffffffffffffffffffffffffffffffffffff1673ffffffffffffffffffffffffffffffffffffffff16638f16c41c336000604051602001526040518263ffffffff167c0100000000000000000000000000000000000000000000000000000000028152600401808273ffffffffffffffffffffffffffffffffffffffff1673ffffffffffffffffffffffffffffffffffffffff168152602001915050602060405180830381600087803b15156107ed57600080fd5b6102c65a03f115156107fe57600080fd5b5050506040518051905014151561081457600080fd5b80600860006101000a81548173ffffffffffffffffffffffffffffffffffffffff021916908373ffffffffffffffffffffffffffffffffffffffff16021790555050565b600080600080600a60009054906101000a900473ffffffffffffffffffffffffffffffffffffffff16600b60006101000a81548173ffffffffffffffffffffffffffffffffffffffff021916908373ffffffffffffffffffffffffffffffffffffffff1602179055506001600b60009054906101000a900473ffffffffffffffffffffffffffffffffffffffff1673ffffffffffffffffffffffffffffffffffffffff16638f16c41c336000604051602001526040518263ffffffff167c0100000000000000000000000000000000000000000000000000000000028152600401808273ffffffffffffffffffffffffffffffffffffffff1673ffffffffffffffffffffffffffffffffffffffff168152602001915050602060405180830381600087803b151561098857600080fd5b6102c65a03f1151561099957600080fd5b505050604051805190501415156109af57600080fd5b600360009054906101000a900473ffffffffffffffffffffffffffffffffffffffff16600f60006101000a81548173ffffffffffffffffffffffffffffffffffffffff021916908373ffffffffffffffffffffffffffffffffffffffff160217905550600460009054906101000a900473ffffffffffffffffffffffffffffffffffffffff16600d60006101000a81548173ffffffffffffffffffffffffffffffffffffffff021916908373ffffffffffffffffffffffffffffffffffffffff160217905550600560009054906101000a900473ffffffffffffffffffffffffffffffffffffffff16600e60006101000a81548173ffffffffffffffffffffffffffffffffffffffff021916908373ffffffffffffffffffffffffffffffffffffffff16021790555060008a1415610bab576000809054906101000a900473ffffffffffffffffffffffffffffffffffffffff16601260006101000a81548173ffffffffffffffffffffffffffffffffffffffff021916908373ffffffffffffffffffffffffffffffffffffffff160217905550601260009054906101000a900473ffffffffffffffffffffffffffffffffffffffff16601560006101000a81548173ffffffffffffffffffffffffffffffffffffffff021916908373ffffffffffffffffffffffffffffffffffffffff160217905550610d47565b60018a1415610c7f57600160009054906101000a900473ffffffffffffffffffffffffffffffffffffffff16601360006101000a81548173ffffffffffffffffffffffffffffffffffffffff021916908373ffffffffffffffffffffffffffffffffffffffff160217905550601360009054906101000a900473ffffffffffffffffffffffffffffffffffffffff16601560006101000a81548173ffffffffffffffffffffffffffffffffffffffff021916908373ffffffffffffffffffffffffffffffffffffffff160217905550610d46565b600260009054906101000a900473ffffffffffffffffffffffffffffffffffffffff16601460006101000a81548173ffffffffffffffffffffffffffffffffffffffff021916908373ffffffffffffffffffffffffffffffffffffffff160217905550601460009054906101000a900473ffffffffffffffffffffffffffffffffffffffff16601560006101000a81548173ffffffffffffffffffffffffffffffffffffffff021916908373ffffffffffffffffffffffffffffffffffffffff1602179055505b5b600f60009054906101000a900473ffffffffffffffffffffffffffffffffffffffff1673ffffffffffffffffffffffffffffffffffffffff1663ec9ccfff8d600060405160a001526040518263ffffffff167c01000000000000000000000000000000000000000000000000000000000281526004018082815260200191505060a060405180830381600087803b1515610de057600080fd5b6102c65a03f11515610df157600080fd5b5050506040518051906020018051906020018051906020018051906020018051905090919293508360ff16935090915090505080945050600084148015610eeb57506002600f60009054906101000a900473ffffffffffffffffffffffffffffffffffffffff1673ffffffffffffffffffffffffffffffffffffffff1663401853b78e6000604051602001526040518263ffffffff167c010000000000000000000000000000000000000000000000000000000002815260040180828152602001915050602060405180830381600087803b1515610ece57600080fd5b6102c65a03f11515610edf57600080fd5b50505060405180519050145b8015610fd757506000600f60009054906101000a900473ffffffffffffffffffffffffffffffffffffffff1673ffffffffffffffffffffffffffffffffffffffff166335c42dbb8d6000604051602001526040518263ffffffff167c0100000000000000000000000000000000000000000000000000000000028152600401808273ffffffffffffffffffffffffffffffffffffffff1673ffffffffffffffffffffffffffffffffffffffff168152602001915050602060405180830381600087803b1515610fb957600080fd5b6102c65a03f11515610fca57600080fd5b5050506040518051905014155b1515610fe257600080fd5b600e60009054906101000a900473ffffffffffffffffffffffffffffffffffffffff1673ffffffffffffffffffffffffffffffffffffffff16639deeab20600f60009054906101000a900473ffffffffffffffffffffffffffffffffffffffff1673ffffffffffffffffffffffffffffffffffffffff16637fd6e5108f6000604051602001526040518263ffffffff167c010000000000000000000000000000000000000000000000000000000002815260040180828152602001915050602060405180830381600087803b15156110b957600080fd5b6102c65a03f115156110ca57600080fd5b50505060405180519050866000604051602001526040518363ffffffff167c0100000000000000000000000000000000000000000000000000000000028152600401808360ff16815260200182815260200192505050602060405180830381600087803b151561113957600080fd5b6102c65a03f1151561114a57600080fd5b50505060405180519050600d60009054906101000a900473ffffffffffffffffffffffffffffffffffffffff1673ffffffffffffffffffffffffffffffffffffffff1663beae32ba8d6000604051602001526040518263ffffffff167c0100000000000000000000000000000000000000000000000000000000028152600401808273ffffffffffffffffffffffffffffffffffffffff1673ffffffffffffffffffffffffffffffffffffffff168152602001915050602060405180830381600087803b151561121957600080fd5b6102c65a03f1151561122a57600080fd5b5050506040518051905014801561132857506000601560009054906101000a900473ffffffffffffffffffffffffffffffffffffffff1673ffffffffffffffffffffffffffffffffffffffff1663eef83a4b8d8f6000604051602001526040518363ffffffff167c0100000000000000000000000000000000000000000000000000000000028152600401808373ffffffffffffffffffffffffffffffffffffffff1673ffffffffffffffffffffffffffffffffffffffff16815260200182815260200192505050602060405180830381600087803b151561130b57600080fd5b6102c65a03f1151561131c57600080fd5b50505060405180519050145b151561133357600080fd5b600e60009054906101000a900473ffffffffffffffffffffffffffffffffffffffff1673ffffffffffffffffffffffffffffffffffffffff1663b0a4aaee600f60009054906101000a900473ffffffffffffffffffffffffffffffffffffffff1673ffffffffffffffffffffffffffffffffffffffff16637fd6e5108f6000604051602001526040518263ffffffff167c010000000000000000000000000000000000000000000000000000000002815260040180828152602001915050602060405180830381600087803b151561140a57600080fd5b6102c65a03f1151561141b57600080fd5b50505060405180519050600060405161012001526040518263ffffffff167c0100000000000000000000000000000000000000000000000000000000028152600401808260ff16815260200191505061012060405180830381600087803b151561148457600080fd5b6102c65a03f1151561149557600080fd5b5050506040518051906020018051906020018051906020018051906020018051906020018051906020018051906020018051906020018051905090919293949596975090919293949596509091929394955090919293945090505080935081945082955050505088518360ff16148015611512575087518260ff16145b8015611521575086518160ff16145b156115f6576115328c8c88886136bd565b6115f58c600f60009054906101000a900473ffffffffffffffffffffffffffffffffffffffff1673ffffffffffffffffffffffffffffffffffffffff16637fd6e5108f6000604051602001526040518263ffffffff167c010000000000000000000000000000000000000000000000000000000002815260040180828152602001915050602060405180830381600087803b15156115cf57600080fd5b6102c65a03f115156115e057600080fd5b5050506040518051905060ff168b8b8b613822565b5b505050505050505050505050565b6000806000600a60009054906101000a900473ffffffffffffffffffffffffffffffffffffffff16600b60006101000a81548173ffffffffffffffffffffffffffffffffffffffff021916908373ffffffffffffffffffffffffffffffffffffffff1602179055506001600b60009054906101000a900473ffffffffffffffffffffffffffffffffffffffff1673ffffffffffffffffffffffffffffffffffffffff16638f16c41c336000604051602001526040518263ffffffff167c0100000000000000000000000000000000000000000000000000000000028152600401808273ffffffffffffffffffffffffffffffffffffffff1673ffffffffffffffffffffffffffffffffffffffff168152602001915050602060405180830381600087803b151561173357600080fd5b6102c65a03f1151561174457600080fd5b5050506040518051905014151561175a57600080fd5b600360009054906101000a900473ffffffffffffffffffffffffffffffffffffffff16600f60006101000a81548173ffffffffffffffffffffffffffffffffffffffff021916908373ffffffffffffffffffffffffffffffffffffffff160217905550600760009054906101000a900473ffffffffffffffffffffffffffffffffffffffff16601060006101000a81548173ffffffffffffffffffffffffffffffffffffffff021916908373ffffffffffffffffffffffffffffffffffffffff16021790555060008414151561193657601060009054906101000a900473ffffffffffffffffffffffffffffffffffffffff1673ffffffffffffffffffffffffffffffffffffffff1663a9059cbb600860009054906101000a900473ffffffffffffffffffffffffffffffffffffffff16866000604051602001526040518363ffffffff167c0100000000000000000000000000000000000000000000000000000000028152600401808373ffffffffffffffffffffffffffffffffffffffff1673ffffffffffffffffffffffffffffffffffffffff16815260200182815260200192505050602060405180830381600087803b151561191957600080fd5b6102c65a03f1151561192a57600080fd5b50505060405180519050505b611adb611a2d611a26600f60009054906101000a900473ffffffffffffffffffffffffffffffffffffffff1673ffffffffffffffffffffffffffffffffffffffff166335c42dbb8a6000604051602001526040518263ffffffff167c0100000000000000000000000000000000000000000000000000000000028152600401808273ffffffffffffffffffffffffffffffffffffffff1673ffffffffffffffffffffffffffffffffffffffff168152602001915050602060405180830381600087803b1515611a0457600080fd5b6102c65a03f11515611a1557600080fd5b505050604051805190506064613ad7565b6064613ad7565b600f60009054906101000a900473ffffffffffffffffffffffffffffffffffffffff1673ffffffffffffffffffffffffffffffffffffffff1663a5d8ba896000604051602001526040518163ffffffff167c0100000000000000000000000000000000000000000000000000000000028152600401602060405180830381600087803b1515611abb57600080fd5b6102c65a03f11515611acc57600080fd5b50505060405180519050613b12565b9150611c49611b9285600f60009054906101000a900473ffffffffffffffffffffffffffffffffffffffff1673ffffffffffffffffffffffffffffffffffffffff166393e4a4f56000604051602001526040518163ffffffff167c0100000000000000000000000000000000000000000000000000000000028152600401602060405180830381600087803b1515611b7257600080fd5b6102c65a03f11515611b8357600080fd5b50505060405180519050613b2d565b611c4484600f60009054906101000a900473ffffffffffffffffffffffffffffffffffffffff1673ffffffffffffffffffffffffffffffffffffffff166311aadbfb6000604051602001526040518163ffffffff167c0100000000000000000000000000000000000000000000000000000000028152600401602060405180830381600087803b1515611c2457600080fd5b6102c65a03f11515611c3557600080fd5b50505060405180519050613b2d565b613ad7565b9050611d34600f60009054906101000a900473ffffffffffffffffffffffffffffffffffffffff1673ffffffffffffffffffffffffffffffffffffffff16631b3b74f1886000604051602001526040518263ffffffff167c0100000000000000000000000000000000000000000000000000000000028152600401808273ffffffffffffffffffffffffffffffffffffffff1673ffffffffffffffffffffffffffffffffffffffff168152602001915050602060405180830381600087803b1515611d1357600080fd5b6102c65a03f11515611d2457600080fd5b5050506040518051905082613ad7565b925050509392505050565b600a60009054906101000a900473ffffffffffffffffffffffffffffffffffffffff1681565b6000600a60009054906101000a900473ffffffffffffffffffffffffffffffffffffffff1673ffffffffffffffffffffffffffffffffffffffff161415611dec5780600a60006101000a81548173ffffffffffffffffffffffffffffffffffffffff021916908373ffffffffffffffffffffffffffffffffffffffff160217905550611f7f565b600a60009054906101000a900473ffffffffffffffffffffffffffffffffffffffff16600b60006101000a81548173ffffffffffffffffffffffffffffffffffffffff021916908373ffffffffffffffffffffffffffffffffffffffff1602179055506001600b60009054906101000a900473ffffffffffffffffffffffffffffffffffffffff1673ffffffffffffffffffffffffffffffffffffffff16638f16c41c336000604051602001526040518263ffffffff167c0100000000000000000000000000000000000000000000000000000000028152600401808273ffffffffffffffffffffffffffffffffffffffff1673ffffffffffffffffffffffffffffffffffffffff168152602001915050602060405180830381600087803b1515611f1657600080fd5b6102c65a03f11515611f2757600080fd5b50505060405180519050141515611f3d57600080fd5b80600a60006101000a81548173ffffffffffffffffffffffffffffffffffffffff021916908373ffffffffffffffffffffffffffffffffffffffff1602179055505b50565b6000806000806000806000806000600a60009054906101000a900473ffffffffffffffffffffffffffffffffffffffff16600b60006101000a81548173ffffffffffffffffffffffffffffffffffffffff021916908373ffffffffffffffffffffffffffffffffffffffff1602179055506001600b60009054906101000a900473ffffffffffffffffffffffffffffffffffffffff1673ffffffffffffffffffffffffffffffffffffffff16638f16c41c336000604051602001526040518263ffffffff167c0100000000000000000000000000000000000000000000000000000000028152600401808273ffffffffffffffffffffffffffffffffffffffff1673ffffffffffffffffffffffffffffffffffffffff168152602001915050602060405180830381600087803b15156120ba57600080fd5b6102c65a03f115156120cb57600080fd5b505050604051805190501415156120e157600080fd5b600360009054906101000a900473ffffffffffffffffffffffffffffffffffffffff16600f60006101000a81548173ffffffffffffffffffffffffffffffffffffffff021916908373ffffffffffffffffffffffffffffffffffffffff160217905550600460009054906101000a900473ffffffffffffffffffffffffffffffffffffffff16600d60006101000a81548173ffffffffffffffffffffffffffffffffffffffff021916908373ffffffffffffffffffffffffffffffffffffffff160217905550600560009054906101000a900473ffffffffffffffffffffffffffffffffffffffff16600e60006101000a81548173ffffffffffffffffffffffffffffffffffffffff021916908373ffffffffffffffffffffffffffffffffffffffff16021790555060008b14156122dd576000809054906101000a900473ffffffffffffffffffffffffffffffffffffffff16601260006101000a81548173ffffffffffffffffffffffffffffffffffffffff021916908373ffffffffffffffffffffffffffffffffffffffff160217905550601260009054906101000a900473ffffffffffffffffffffffffffffffffffffffff16601560006101000a81548173ffffffffffffffffffffffffffffffffffffffff021916908373ffffffffffffffffffffffffffffffffffffffff160217905550612479565b60018b14156123b157600160009054906101000a900473ffffffffffffffffffffffffffffffffffffffff16601360006101000a81548173ffffffffffffffffffffffffffffffffffffffff021916908373ffffffffffffffffffffffffffffffffffffffff160217905550601360009054906101000a900473ffffffffffffffffffffffffffffffffffffffff16601560006101000a81548173ffffffffffffffffffffffffffffffffffffffff021916908373ffffffffffffffffffffffffffffffffffffffff160217905550612478565b600260009054906101000a900473ffffffffffffffffffffffffffffffffffffffff16601460006101000a81548173ffffffffffffffffffffffffffffffffffffffff021916908373ffffffffffffffffffffffffffffffffffffffff160217905550601460009054906101000a900473ffffffffffffffffffffffffffffffffffffffff16601560006101000a81548173ffffffffffffffffffffffffffffffffffffffff021916908373ffffffffffffffffffffffffffffffffffffffff1602179055505b5b600f60009054906101000a900473ffffffffffffffffffffffffffffffffffffffff1673ffffffffffffffffffffffffffffffffffffffff1663ec9ccfff8b600060405160a001526040518263ffffffff167c01000000000000000000000000000000000000000000000000000000000281526004018082815260200191505060a060405180830381600087803b151561251257600080fd5b6102c65a03f1151561252357600080fd5b50505060405180519060200180519060200180519060200180519060200180519050909150905050809a508199505050600f60009054906101000a900473ffffffffffffffffffffffffffffffffffffffff1673ffffffffffffffffffffffffffffffffffffffff16639a2243ec8b6000604051602001526040518263ffffffff167c010000000000000000000000000000000000000000000000000000000002815260040180828152602001915050602060405180830381600087803b15156125ec57600080fd5b6102c65a03f115156125fd57600080fd5b5050506040518051905096506001600f60009054906101000a900473ffffffffffffffffffffffffffffffffffffffff1673ffffffffffffffffffffffffffffffffffffffff166340b2723b8c6000604051602001526040518263ffffffff167c010000000000000000000000000000000000000000000000000000000002815260040180828152602001915050602060405180830381600087803b15156126a457600080fd5b6102c65a03f115156126b557600080fd5b5050506040518051905060ff161415156126ce57600080fd5b600d60009054906101000a900473ffffffffffffffffffffffffffffffffffffffff1673ffffffffffffffffffffffffffffffffffffffff1663beae32ba8d6000604051602001526040518263ffffffff167c0100000000000000000000000000000000000000000000000000000000028152600401808273ffffffffffffffffffffffffffffffffffffffff1673ffffffffffffffffffffffffffffffffffffffff168152602001915050602060405180830381600087803b151561279357600080fd5b6102c65a03f115156127a457600080fd5b50505060405180519050915060009550600090505b8660ff168160ff161015612a3e5761289785601560009054906101000a900473ffffffffffffffffffffffffffffffffffffffff1673ffffffffffffffffffffffffffffffffffffffff1663a17d5b0a8d86866000604051602001526040518463ffffffff167c0100000000000000000000000000000000000000000000000000000000028152600401808481526020018381526020018260ff1681526020019350505050602060405180830381600087803b151561287757600080fd5b6102c65a03f1151561288857600080fd5b50505060405180519050613b47565b9450601560009054906101000a900473ffffffffffffffffffffffffffffffffffffffff1673ffffffffffffffffffffffffffffffffffffffff1663a17d5b0a8b84846000604051602001526040518463ffffffff167c0100000000000000000000000000000000000000000000000000000000028152600401808481526020018381526020018260ff1681526020019350505050602060405180830381600087803b151561294557600080fd5b6102c65a03f1151561295657600080fd5b50505060405180519050601560009054906101000a900473ffffffffffffffffffffffffffffffffffffffff1673ffffffffffffffffffffffffffffffffffffffff1663a17d5b0a8c858a6000604051602001526040518463ffffffff167c0100000000000000000000000000000000000000000000000000000000028152600401808481526020018381526020018260ff1681526020019350505050602060405180830381600087803b1515612a0c57600080fd5b6102c65a03f11515612a1d57600080fd5b505050604051805190501015612a31578095505b80806001019150506127b9565b601560009054906101000a900473ffffffffffffffffffffffffffffffffffffffff1673ffffffffffffffffffffffffffffffffffffffff1663a17d5b0a8b84896000604051602001526040518463ffffffff167c0100000000000000000000000000000000000000000000000000000000028152600401808481526020018381526020018260ff1681526020019350505050602060405180830381600087803b1515612aea57600080fd5b6102c65a03f11515612afb57600080fd5b505050604051805190509350600e60009054906101000a900473ffffffffffffffffffffffffffffffffffffffff1673ffffffffffffffffffffffffffffffffffffffff166302e929c8898b6000604051602001526040518363ffffffff167c0100000000000000000000000000000000000000000000000000000000028152600401808360ff1681526020018260ff16815260200192505050602060405180830381600087803b1515612bae57600080fd5b6102c65a03f11515612bbf57600080fd5b50505060405180519050925082612be0612bda866064613ad7565b87613b12565b10151561327f5760018901985060008660ff16111561306257600e60009054906101000a900473ffffffffffffffffffffffffffffffffffffffff1673ffffffffffffffffffffffffffffffffffffffff166318b0211b896000604051602001526040518263ffffffff167c0100000000000000000000000000000000000000000000000000000000028152600401808260ff168152602001915050602060405180830381600087803b1515612c9557600080fd5b6102c65a03f11515612ca657600080fd5b505050604051805190508960ff161015612d8b57600f60009054906101000a900473ffffffffffffffffffffffffffffffffffffffff1673ffffffffffffffffffffffffffffffffffffffff1663cd25becd8b8b8960006040518563ffffffff167c0100000000000000000000000000000000000000000000000000000000028152600401808581526020018460ff1660ff1681526020018360ff1660ff1681526020018260ff168152602001945050505050600060405180830381600087803b1515612d7257600080fd5b6102c65a03f11515612d8357600080fd5b50505061305d565b600f60009054906101000a900473ffffffffffffffffffffffffffffffffffffffff1673ffffffffffffffffffffffffffffffffffffffff1663cd25becd8b8b898a6040518563ffffffff167c0100000000000000000000000000000000000000000000000000000000028152600401808581526020018460ff1660ff1681526020018360ff1660ff1681526020018260ff1660ff168152602001945050505050600060405180830381600087803b1515612e4557600080fd5b6102c65a03f11515612e5657600080fd5b505050600f60009054906101000a900473ffffffffffffffffffffffffffffffffffffffff1673ffffffffffffffffffffffffffffffffffffffff1663707b85278b60036040518363ffffffff167c0100000000000000000000000000000000000000000000000000000000028152600401808381526020018260ff16815260200192505050600060405180830381600087803b1515612ef557600080fd5b6102c65a03f11515612f0657600080fd5b505050600e60009054906101000a900473ffffffffffffffffffffffffffffffffffffffff1673ffffffffffffffffffffffffffffffffffffffff1663db0c4f798b8a6040518363ffffffff167c0100000000000000000000000000000000000000000000000000000000028152600401808381526020018260ff16815260200192505050600060405180830381600087803b1515612fa457600080fd5b6102c65a03f11515612fb557600080fd5b505050601560009054906101000a900473ffffffffffffffffffffffffffffffffffffffff1673ffffffffffffffffffffffffffffffffffffffff16630a256ae18b6040518263ffffffff167c010000000000000000000000000000000000000000000000000000000002815260040180828152602001915050600060405180830381600087803b151561304857600080fd5b6102c65a03f1151561305957600080fd5b5050505b61327a565b600f60009054906101000a900473ffffffffffffffffffffffffffffffffffffffff1673ffffffffffffffffffffffffffffffffffffffff1663cd25becd8b8b898a6040518563ffffffff167c0100000000000000000000000000000000000000000000000000000000028152600401808581526020018460ff1660ff1681526020018360ff1660ff1681526020018260ff1660ff168152602001945050505050600060405180830381600087803b151561311c57600080fd5b6102c65a03f1151561312d57600080fd5b505050600f60009054906101000a900473ffffffffffffffffffffffffffffffffffffffff1673ffffffffffffffffffffffffffffffffffffffff1663707b85278b60046040518363ffffffff167c0100000000000000000000000000000000000000000000000000000000028152600401808381526020018260ff16815260200192505050600060405180830381600087803b15156131cc57600080fd5b6102c65a03f115156131dd57600080fd5b505050600f60009054906101000a900473ffffffffffffffffffffffffffffffffffffffff1673ffffffffffffffffffffffffffffffffffffffff1663e7030a676040518163ffffffff167c0100000000000000000000000000000000000000000000000000000000028152600401600060405180830381600087803b151561326557600080fd5b6102c65a03f1151561327657600080fd5b5050505b613497565b600f60009054906101000a900473ffffffffffffffffffffffffffffffffffffffff1673ffffffffffffffffffffffffffffffffffffffff1663cd25becd8b8b898a6040518563ffffffff167c0100000000000000000000000000000000000000000000000000000000028152600401808581526020018460ff1660ff1681526020018360ff1660ff1681526020018260ff1660ff168152602001945050505050600060405180830381600087803b151561333957600080fd5b6102c65a03f1151561334a57600080fd5b505050600f60009054906101000a900473ffffffffffffffffffffffffffffffffffffffff1673ffffffffffffffffffffffffffffffffffffffff1663707b85278b60056040518363ffffffff167c0100000000000000000000000000000000000000000000000000000000028152600401808381526020018260ff16815260200192505050600060405180830381600087803b15156133e957600080fd5b6102c65a03f115156133fa57600080fd5b505050600f60009054906101000a900473ffffffffffffffffffffffffffffffffffffffff1673ffffffffffffffffffffffffffffffffffffffff1663e7030a676040518163ffffffff167c0100000000000000000000000000000000000000000000000000000000028152600401600060405180830381600087803b151561348257600080fd5b6102c65a03f1151561349357600080fd5b5050505b505050505050505050505050565b600a60009054906101000a900473ffffffffffffffffffffffffffffffffffffffff16600b60006101000a81548173ffffffffffffffffffffffffffffffffffffffff021916908373ffffffffffffffffffffffffffffffffffffffff1602179055506001600b60009054906101000a900473ffffffffffffffffffffffffffffffffffffffff1673ffffffffffffffffffffffffffffffffffffffff16638f16c41c336000604051602001526040518263ffffffff167c0100000000000000000000000000000000000000000000000000000000028152600401808273ffffffffffffffffffffffffffffffffffffffff1673ffffffffffffffffffffffffffffffffffffffff168152602001915050602060405180830381600087803b15156135cf57600080fd5b6102c65a03f115156135e057600080fd5b505050604051805190501415156135f657600080fd5b826000806101000a81548173ffffffffffffffffffffffffffffffffffffffff021916908373ffffffffffffffffffffffffffffffffffffffff16021790555081600160006101000a81548173ffffffffffffffffffffffffffffffffffffffff021916908373ffffffffffffffffffffffffffffffffffffffff16021790555080600260006101000a81548173ffffffffffffffffffffffffffffffffffffffff021916908373ffffffffffffffffffffffffffffffffffffffff160217905550505050565b600f60009054906101000a900473ffffffffffffffffffffffffffffffffffffffff1673ffffffffffffffffffffffffffffffffffffffff1663697579b9858585613709888a89613b65565b866040518663ffffffff167c0100000000000000000000000000000000000000000000000000000000028152600401808681526020018573ffffffffffffffffffffffffffffffffffffffff1673ffffffffffffffffffffffffffffffffffffffff16815260200184815260200183815260200180602001828103825283818151815260200191508051906020019080838360005b838110156137b957808201518184015260208101905061379e565b50505050905090810190601f1680156137e65780820380516001836020036101000a031916815260200191505b509650505050505050600060405180830381600087803b151561380857600080fd5b6102c65a03f1151561381957600080fd5b50505050505050565b600960009054906101000a900473ffffffffffffffffffffffffffffffffffffffff16600c60006101000a81548173ffffffffffffffffffffffffffffffffffffffff021916908373ffffffffffffffffffffffffffffffffffffffff160217905550600c60009054906101000a900473ffffffffffffffffffffffffffffffffffffffff1673ffffffffffffffffffffffffffffffffffffffff166347dc106e85878686866001600f60009054906101000a900473ffffffffffffffffffffffffffffffffffffffff1673ffffffffffffffffffffffffffffffffffffffff16639a2243ec8e6000604051602001526040518263ffffffff167c010000000000000000000000000000000000000000000000000000000002815260040180828152602001915050602060405180830381600087803b151561396357600080fd5b6102c65a03f1151561397457600080fd5b50505060405180519050016040518763ffffffff167c0100000000000000000000000000000000000000000000000000000000028152600401808781526020018681526020018060200180602001806020018560ff1660ff168152602001848103845288818151815260200191508051906020019060200280838360005b83811015613a0d5780820151818401526020810190506139f2565b50505050905001848103835287818151815260200191508051906020019060200280838360005b83811015613a4f578082015181840152602081019050613a34565b50505050905001848103825286818151815260200191508051906020019060200280838360005b83811015613a91578082015181840152602081019050613a76565b505050509050019950505050505050505050600060405180830381600087803b1515613abc57600080fd5b6102c65a03f11515613acd57600080fd5b5050505050505050565b6000806000841415613aec5760009150613b0b565b8284029050828482811515613afd57fe5b04141515613b0757fe5b8091505b5092915050565b6000808284811515613b2057fe5b0490508091505092915050565b600081831015613b3d5781613b3f565b825b905092915050565b6000808284019050838110151515613b5b57fe5b8091505092915050565b600080600080600360009054906101000a900473ffffffffffffffffffffffffffffffffffffffff16600f60006101000a81548173ffffffffffffffffffffffffffffffffffffffff021916908373ffffffffffffffffffffffffffffffffffffffff160217905550613cb8600f60009054906101000a900473ffffffffffffffffffffffffffffffffffffffff1673ffffffffffffffffffffffffffffffffffffffff16631b3b74f1896000604051602001526040518263ffffffff167c0100000000000000000000000000000000000000000000000000000000028152600401808273ffffffffffffffffffffffffffffffffffffffff1673ffffffffffffffffffffffffffffffffffffffff168152602001915050602060405180830381600087803b1515613c9657600080fd5b6102c65a03f11515613ca757600080fd5b505050604051805190506001613b2d565b9250613e5f613db1613daa600f60009054906101000a900473ffffffffffffffffffffffffffffffffffffffff1673ffffffffffffffffffffffffffffffffffffffff166335c42dbb8b6000604051602001526040518263ffffffff167c0100000000000000000000000000000000000000000000000000000000028152600401808273ffffffffffffffffffffffffffffffffffffffff1673ffffffffffffffffffffffffffffffffffffffff168152602001915050602060405180830381600087803b1515613d8857600080fd5b6102c65a03f11515613d9957600080fd5b505050604051805190506064613ad7565b6064613ad7565b600f60009054906101000a900473ffffffffffffffffffffffffffffffffffffffff1673ffffffffffffffffffffffffffffffffffffffff1663a5d8ba896000604051602001526040518163ffffffff167c0100000000000000000000000000000000000000000000000000000000028152600401602060405180830381600087803b1515613e3f57600080fd5b6102c65a03f11515613e5057600080fd5b50505060405180519050613b12565b9150613f1382600f60009054906101000a900473ffffffffffffffffffffffffffffffffffffffff1673ffffffffffffffffffffffffffffffffffffffff166311aadbfb6000604051602001526040518163ffffffff167c0100000000000000000000000000000000000000000000000000000000028152600401602060405180830381600087803b1515613ef357600080fd5b6102c65a03f11515613f0457600080fd5b50505060405180519050613b2d565b9050613fd9613fca600f60009054906101000a900473ffffffffffffffffffffffffffffffffffffffff1673ffffffffffffffffffffffffffffffffffffffff1663ad3208466000604051602001526040518163ffffffff167c0100000000000000000000000000000000000000000000000000000000028152600401602060405180830381600087803b1515613fa957600080fd5b6102c65a03f11515613fba57600080fd5b5050506040518051905085613ad7565b613fd48784613ad7565b613ad7565b935050505093925050505600a165627a7a72305820158d935d547a813f916f151a12b374b6a694c9bc977620725eb43d31be5b9ab60029",
  "source": "/* Copyright (C) 2017 GovBlocks.io\r\n\r\n  This program is free software: you can redistribute it and/or modify\r\n    it under the terms of the GNU General Public License as published by\r\n    the Free Software Foundation, either version 3 of the License, or\r\n    (at your option) any later version.\r\n\r\n  This program is distributed in the hope that it will be useful,\r\n    but WITHOUT ANY WARRANTY; without even the implied warranty of\r\n    MERCHANTABILITY or FITNESS FOR A PARTICULAR PURPOSE.  See the\r\n    GNU General Public License for more details.\r\n\r\n  You should have received a copy of the GNU General Public License\r\n    along with this program.  If not, see http://www.gnu.org/licenses/ */\r\n\r\n/**\r\n * @title votingType interface for All Types of voting.\r\n */\r\n\r\npragma solidity ^0.4.8;\r\nimport \"./SimpleVoting.sol\";\r\nimport \"./RankBasedVoting.sol\";\r\nimport \"./FeatureWeighted.sol\";\r\nimport \"./GovernanceData.sol\";\r\nimport \"./VotingType.sol\";\r\n// import \"./BasicToken.sol\";\r\nimport \"./Master.sol\";\r\nimport \"./Governance.sol\";\r\nimport \"./zeppelin-solidity/contracts/token/BasicToken.sol\";\r\n\r\n\r\ncontract StandardVotingType\r\n{\r\n    address SVAddress;\r\n    address RBAddress;\r\n    address FWAddress;\r\n    address GDAddress;\r\n    address MRAddress;\r\n    address PCAddress;\r\n    address VTAddress;\r\n    address BTAddress;\r\n    address GBTAddress;\r\n    address G1Address;\r\n    address public masterAddress;\r\n    Master MS;\r\n    Governance G1;\r\n    MemberRoles MR;\r\n    ProposalCategory PC;\r\n    GovernanceData  GD;\r\n    BasicToken BT;\r\n    StandardVotingType SVT;\r\n    SimpleVoting SV;\r\n    RankBasedVoting RB;\r\n    FeatureWeighted FW;\r\n    VotingType VT;\r\n\r\n    modifier onlyInternal {\r\n        MS=Master(masterAddress);\r\n        require(MS.isInternal(msg.sender) == 1);\r\n        _; \r\n    }\r\n\r\n/// @dev Change master's contract address\r\n    function changeMasterAddress(address _masterContractAddress)\r\n    {\r\n        if(masterAddress == 0x000)\r\n            masterAddress = _masterContractAddress;\r\n        else\r\n        {\r\n            MS=Master(masterAddress);\r\n            require(MS.isInternal(msg.sender) == 1);\r\n                masterAddress = _masterContractAddress;\r\n        }\r\n    }\r\n    \r\n    function changeOtherContractAddress(address _SVaddress,address _RBaddress,address _FWaddress) onlyInternal\r\n    {\r\n        SVAddress = _SVaddress;\r\n        RBAddress = _RBaddress;\r\n        FWAddress = _FWaddress;\r\n    }\r\n    \r\n    function changeAllContractsAddress(address _BTcontractAddress,address _GDcontractAddress, address _MRcontractAddress, address _PCcontractAddress) onlyInternal\r\n    {\r\n        BTAddress = _BTcontractAddress;\r\n        GDAddress = _GDcontractAddress;\r\n        MRAddress = _MRcontractAddress;\r\n        PCAddress = _PCcontractAddress;\r\n    }\r\n\r\n    /// @dev Changes GBT contract Address. \r\n    function changeGBTtokenAddress(address _GBTcontractAddress) onlyInternal\r\n    {\r\n        GBTAddress = _GBTcontractAddress;\r\n    }\r\n    \r\n    function setOptionValue_givenByMemberSVT(address _memberAddress,uint _proposalId,uint _memberStake) internal returns (uint finalOptionValue)\r\n    {\r\n        GD=GovernanceData(GDAddress);\r\n        uint memberLevel = Math.max256(GD.getMemberReputation(_memberAddress),1);\r\n        uint tokensHeld = SafeMath.div((SafeMath.mul(SafeMath.mul(GD.getBalanceOfMember(_memberAddress),100),100)),GD.getTotalTokenInSupply());\r\n        uint maxValue= Math.max256(tokensHeld,GD.membershipScalingFactor());\r\n\r\n        finalOptionValue = SafeMath.mul(SafeMath.mul(GD.globalRiskFactor(),memberLevel),SafeMath.mul(_memberStake,maxValue));\r\n    }\r\n\r\n    function setVoteValue_givenByMember(address _memberAddress,uint _proposalId,uint _memberStake) onlyInternal returns (uint finalVoteValue)\r\n    {\r\n        GD=GovernanceData(GDAddress);\r\n        BT=BasicToken(BTAddress);\r\n        \r\n        if(_memberStake != 0)\r\n            BT.transfer(GBTAddress,_memberStake);\r\n\r\n        uint tokensHeld = SafeMath.div((SafeMath.mul(SafeMath.mul(GD.getBalanceOfMember(_memberAddress),100),100)),GD.getTotalTokenInSupply());\r\n        uint value= SafeMath.mul(Math.max256(_memberStake,GD.scalingWeight()),Math.max256(tokensHeld,GD.membershipScalingFactor()));\r\n        finalVoteValue = SafeMath.mul(GD.getMemberReputation(_memberAddress),value);\r\n    }  \r\n    \r\n    function addVerdictOptionSVT(uint _proposalId,address _memberAddress,uint _votingType,uint[] _paramInt,bytes32[] _paramBytes32,address[] _paramAddress,uint _GBTPayableTokenAmount,string _optionDescHash) onlyInternal\r\n    {\r\n        GD=GovernanceData(GDAddress);\r\n        MR=MemberRoles(MRAddress);\r\n        PC=ProposalCategory(PCAddress);\r\n\r\n        if(_votingType == 0)\r\n        {\r\n           SV = SimpleVoting(SVAddress);\r\n           VT = SV;\r\n        }\r\n        else if(_votingType == 1)\r\n        {\r\n            RB = RankBasedVoting(RBAddress);\r\n            VT = RB;\r\n        } \r\n        else\r\n        {\r\n            FW = FeatureWeighted(FWAddress);\r\n            VT = FW;\r\n        }\r\n\r\n        uint currentVotingId;\r\n        (,currentVotingId,,,) = GD.getProposalDetailsById2(_proposalId);\r\n\r\n        require(currentVotingId == 0 && GD.getProposalStatus(_proposalId) == 2 && GD.getBalanceOfMember(_memberAddress) != 0);\r\n        require(MR.getMemberRoleIdByAddress(_memberAddress) == PC.getRoleSequencAtIndex(GD.getProposalCategory(_proposalId),currentVotingId) && VT.getVoteId_againstMember(_memberAddress,_proposalId) == 0 );\r\n        \r\n        uint8 paramInt; uint8 paramBytes32; uint8 paramAddress;\r\n        (,,,,paramInt,paramBytes32,paramAddress,,) = PC.getCategoryDetails(GD.getProposalCategory(_proposalId));\r\n\r\n        if(paramInt == _paramInt.length && paramBytes32 == _paramBytes32.length && paramAddress == _paramAddress.length)\r\n        {\r\n            addVerdictOptionSVT1(_proposalId,_memberAddress,_GBTPayableTokenAmount,_optionDescHash);\r\n            addVerdictOptionSVT2(_proposalId,GD.getProposalCategory(_proposalId),_paramInt,_paramBytes32,_paramAddress);\r\n        } \r\n    }\r\n\r\n    function addVerdictOptionSVT1(uint _proposalId,address _memberAddress,uint _GBTPayableTokenAmount,string _optionDescHash) internal\r\n    {\r\n        GD.setOptionAddressAndStake(_proposalId,_memberAddress,_GBTPayableTokenAmount,setOptionValue_givenByMemberSVT(_memberAddress,_proposalId,_GBTPayableTokenAmount),_optionDescHash);\r\n    }\r\n    function addVerdictOptionSVT2(uint _proposalId,uint _categoryId,uint[] _paramInt,bytes32[] _paramBytes32,address[] _paramAddress) internal\r\n    {\r\n        G1=Governance(G1Address);\r\n        G1.setProposalCategoryParams(_categoryId,_proposalId,_paramInt,_paramBytes32,_paramAddress,GD.getTotalVerdictOptions(_proposalId)+1); // MAKE +1 IN go\r\n    }\r\n    \r\n    function closeProposalVoteSVT(address _memberAddress,uint _votingType,uint _proposalId) onlyInternal\r\n    {\r\n        GD=GovernanceData(GDAddress);\r\n        MR=MemberRoles(MRAddress);\r\n        PC=ProposalCategory(PCAddress);\r\n\r\n        if(_votingType == 0)\r\n        {\r\n           SV = SimpleVoting(SVAddress);\r\n           VT = SV;\r\n        }\r\n        else if(_votingType == 1)\r\n        {\r\n            RB = RankBasedVoting(RBAddress);\r\n            VT = RB;\r\n        } \r\n        else\r\n        {\r\n            FW = FeatureWeighted(FWAddress);\r\n            VT = FW;\r\n        }\r\n\r\n        uint8 currentVotingId; uint8 category;\r\n        (category,currentVotingId,,,) = GD.getProposalDetailsById2(_proposalId);\r\n        uint8 verdictOptions = GD.getTotalVerdictOptions(_proposalId);\r\n    \r\n        require(GD.checkProposalVoteClosing(_proposalId)==1);\r\n        uint8 max; uint totalVotes; uint verdictVal; uint majorityVote;\r\n        uint roleId = MR.getMemberRoleIdByAddress(_memberAddress);\r\n\r\n        max=0;  \r\n        for(uint8 i = 0; i < verdictOptions; i++)\r\n        {\r\n            totalVotes = SafeMath.add(totalVotes,VT.getVotesbyOption_againstProposal(_proposalId,roleId,i)); \r\n            if(VT.getVotesbyOption_againstProposal(_proposalId,roleId,max) < VT.getVotesbyOption_againstProposal(_proposalId,roleId,i))\r\n            {  \r\n                max = i; \r\n            }\r\n        }\r\n        verdictVal = VT.getVotesbyOption_againstProposal(_proposalId,roleId,max);\r\n        majorityVote= PC.getRoleMajorityVote(category,currentVotingId);\r\n       \r\n        if(SafeMath.div(SafeMath.mul(verdictVal,100),totalVotes)>=majorityVote)\r\n        {   \r\n            currentVotingId = currentVotingId+1;\r\n            if(max > 0 )\r\n            {\r\n                if(currentVotingId < PC.getRoleSequencLength(category))\r\n                {\r\n                    GD.updateProposalDetails(_proposalId,currentVotingId,max,0);\r\n                } \r\n                else\r\n                {\r\n                    GD.updateProposalDetails(_proposalId,currentVotingId,max,max);\r\n                    GD.changeProposalStatus(_proposalId,3);\r\n                    PC.actionAfterProposalPass(_proposalId ,category);\r\n                    VT.giveReward_afterFinalDecision(_proposalId);\r\n                }\r\n            }\r\n            else\r\n            {\r\n                GD.updateProposalDetails(_proposalId,currentVotingId,max,max);\r\n                GD.changeProposalStatus(_proposalId,4);\r\n                GD.changePendingProposalStart();\r\n            }      \r\n        } \r\n        else\r\n        {\r\n            GD.updateProposalDetails(_proposalId,currentVotingId,max,max);\r\n            GD.changeProposalStatus(_proposalId,5);\r\n            GD.changePendingProposalStart();\r\n        } \r\n    }\r\n}\r\n\r\n\r\n\r\n\r\n\r\n\r\n",
  "sourcePath": "D:\\RUCHITA\\Govblocks-Git\\contracts\\StandardVotingType.sol",
  "compiler": {
    "name": "solc",
    "version": "0.4.18+commit.9cf6e910.Emscripten.clang"
  },
  "schemaVersion": "1.0.1",
  "updatedAt": "2018-01-31T14:00:03.762Z"
}