{
  "contractName": "StandardVotingType",
  "abi": [
    {
      "constant": false,
      "inputs": [
        {
          "name": "_BTcontractAddress",
          "type": "address"
        },
        {
          "name": "_GDcontractAddress",
          "type": "address"
        },
        {
          "name": "_MRcontractAddress",
          "type": "address"
        },
        {
          "name": "_PCcontractAddress",
          "type": "address"
        }
      ],
      "name": "changeAllContractsAddress",
      "outputs": [],
      "payable": false,
      "stateMutability": "nonpayable",
      "type": "function"
    },
    {
      "constant": false,
      "inputs": [
        {
          "name": "_GBTcontractAddress",
          "type": "address"
        }
      ],
      "name": "changeGBTtokenAddress",
      "outputs": [],
      "payable": false,
      "stateMutability": "nonpayable",
      "type": "function"
    },
    {
      "constant": true,
      "inputs": [
        {
          "name": "_proposalId",
          "type": "uint256"
        }
      ],
      "name": "getProposalVoptions",
      "outputs": [
        {
          "name": "verdictOptions",
          "type": "uint8"
        }
      ],
      "payable": false,
      "stateMutability": "view",
      "type": "function"
    },
    {
      "constant": false,
      "inputs": [
        {
          "name": "_proposalId",
          "type": "uint256"
        },
        {
          "name": "_memberAddress",
          "type": "address"
        },
        {
          "name": "_votingType",
          "type": "uint256"
        },
        {
          "name": "_paramInt",
          "type": "uint256[]"
        },
        {
          "name": "_paramBytes32",
          "type": "bytes32[]"
        },
        {
          "name": "_paramAddress",
          "type": "address[]"
        },
        {
          "name": "_GBTPayableTokenAmount",
          "type": "uint256"
        }
      ],
      "name": "addVerdictOptionSVT",
      "outputs": [],
      "payable": false,
      "stateMutability": "nonpayable",
      "type": "function"
    },
    {
      "constant": false,
      "inputs": [
        {
          "name": "_memberAddress",
          "type": "address"
        },
        {
          "name": "_proposalId",
          "type": "uint256"
        },
        {
          "name": "_memberStake",
          "type": "uint256"
        }
      ],
      "name": "setVoteValue_givenByMember",
      "outputs": [
        {
          "name": "finalVoteValue",
          "type": "uint256"
        }
      ],
      "payable": false,
      "stateMutability": "nonpayable",
      "type": "function"
    },
    {
      "constant": true,
      "inputs": [],
      "name": "masterAddress",
      "outputs": [
        {
          "name": "",
          "type": "address"
        }
      ],
      "payable": false,
      "stateMutability": "view",
      "type": "function"
    },
    {
      "constant": false,
      "inputs": [
        {
          "name": "_masterContractAddress",
          "type": "address"
        }
      ],
      "name": "changeMasterAddress",
      "outputs": [],
      "payable": false,
      "stateMutability": "nonpayable",
      "type": "function"
    },
    {
      "constant": false,
      "inputs": [
        {
          "name": "_memberAddress",
          "type": "address"
        },
        {
          "name": "_votingType",
          "type": "uint256"
        },
        {
          "name": "_proposalId",
          "type": "uint256"
        }
      ],
      "name": "closeProposalVoteSVT",
      "outputs": [],
      "payable": false,
      "stateMutability": "nonpayable",
      "type": "function"
    },
    {
      "constant": false,
      "inputs": [
        {
          "name": "_SVaddress",
          "type": "address"
        },
        {
          "name": "_RBaddress",
          "type": "address"
        },
        {
          "name": "_FWaddress",
          "type": "address"
        }
      ],
      "name": "changeOtherContractAddress",
      "outputs": [],
      "payable": false,
      "stateMutability": "nonpayable",
      "type": "function"
    }
  ],
  "bytecode": "0x6060604052341561000f57600080fd5b613d758061001e6000396000f300606060405260043610610099576000357c0100000000000000000000000000000000000000000000000000000000900463ffffffff168063013b44411461009e5780630df34cdb146101345780631f61d4cf1461016d5780634f2a1738146101aa578063ceeb6f1b146102be578063d365a08e1461031d578063d46655f414610372578063d9aa6f19146103ab578063f41e8241146103f6575b600080fd5b34156100a957600080fd5b610132600480803573ffffffffffffffffffffffffffffffffffffffff1690602001909190803573ffffffffffffffffffffffffffffffffffffffff1690602001909190803573ffffffffffffffffffffffffffffffffffffffff1690602001909190803573ffffffffffffffffffffffffffffffffffffffff1690602001909190505061046d565b005b341561013f57600080fd5b61016b600480803573ffffffffffffffffffffffffffffffffffffffff169060200190919050506106c8565b005b341561017857600080fd5b61018e600480803590602001909190505061085d565b604051808260ff1660ff16815260200191505060405180910390f35b34156101b557600080fd5b6102bc600480803590602001909190803573ffffffffffffffffffffffffffffffffffffffff16906020019091908035906020019091908035906020019082018035906020019080806020026020016040519081016040528093929190818152602001838360200280828437820191505050505050919080359060200190820180359060200190808060200260200160405190810160405280939291908181526020018383602002808284378201915050505050509190803590602001908201803590602001908080602002602001604051908101604052809392919081815260200183836020028082843782019150505050505091908035906020019091905050610937565b005b34156102c957600080fd5b610307600480803573ffffffffffffffffffffffffffffffffffffffff169060200190919080359060200190919080359060200190919050506114c7565b6040518082815260200191505060405180910390f35b341561032857600080fd5b610330611c02565b604051808273ffffffffffffffffffffffffffffffffffffffff1673ffffffffffffffffffffffffffffffffffffffff16815260200191505060405180910390f35b341561037d57600080fd5b6103a9600480803573ffffffffffffffffffffffffffffffffffffffff16906020019091905050611c28565b005b34156103b657600080fd5b6103f4600480803573ffffffffffffffffffffffffffffffffffffffff16906020019091908035906020019091908035906020019091905050611e45565b005b341561040157600080fd5b61046b600480803573ffffffffffffffffffffffffffffffffffffffff1690602001909190803573ffffffffffffffffffffffffffffffffffffffff1690602001909190803573ffffffffffffffffffffffffffffffffffffffff16906020019091905050613385565b005b600960009054906101000a900473ffffffffffffffffffffffffffffffffffffffff16600a60006101000a81548173ffffffffffffffffffffffffffffffffffffffff021916908373ffffffffffffffffffffffffffffffffffffffff1602179055506001600a60009054906101000a900473ffffffffffffffffffffffffffffffffffffffff1673ffffffffffffffffffffffffffffffffffffffff16638f16c41c336000604051602001526040518263ffffffff167c0100000000000000000000000000000000000000000000000000000000028152600401808273ffffffffffffffffffffffffffffffffffffffff1673ffffffffffffffffffffffffffffffffffffffff168152602001915050602060405180830381600087803b151561059757600080fd5b6102c65a03f115156105a857600080fd5b505050604051805190501415156105be57600080fd5b83600760006101000a81548173ffffffffffffffffffffffffffffffffffffffff021916908373ffffffffffffffffffffffffffffffffffffffff16021790555082600360006101000a81548173ffffffffffffffffffffffffffffffffffffffff021916908373ffffffffffffffffffffffffffffffffffffffff16021790555081600460006101000a81548173ffffffffffffffffffffffffffffffffffffffff021916908373ffffffffffffffffffffffffffffffffffffffff16021790555080600560006101000a81548173ffffffffffffffffffffffffffffffffffffffff021916908373ffffffffffffffffffffffffffffffffffffffff16021790555050505050565b600960009054906101000a900473ffffffffffffffffffffffffffffffffffffffff16600a60006101000a81548173ffffffffffffffffffffffffffffffffffffffff021916908373ffffffffffffffffffffffffffffffffffffffff1602179055506001600a60009054906101000a900473ffffffffffffffffffffffffffffffffffffffff1673ffffffffffffffffffffffffffffffffffffffff16638f16c41c336000604051602001526040518263ffffffff167c0100000000000000000000000000000000000000000000000000000000028152600401808273ffffffffffffffffffffffffffffffffffffffff1673ffffffffffffffffffffffffffffffffffffffff168152602001915050602060405180830381600087803b15156107f257600080fd5b6102c65a03f1151561080357600080fd5b5050506040518051905014151561081957600080fd5b80600860006101000a81548173ffffffffffffffffffffffffffffffffffffffff021916908373ffffffffffffffffffffffffffffffffffffffff16021790555050565b6000600d60009054906101000a900473ffffffffffffffffffffffffffffffffffffffff1673ffffffffffffffffffffffffffffffffffffffff166334a3210a836000604051608001526040518263ffffffff167c010000000000000000000000000000000000000000000000000000000002815260040180828152602001915050608060405180830381600087803b15156108f857600080fd5b6102c65a03f1151561090957600080fd5b5050506040518051906020018051906020018051906020018051905090919250909150905080915050919050565b6000806000806000600960009054906101000a900473ffffffffffffffffffffffffffffffffffffffff16600a60006101000a81548173ffffffffffffffffffffffffffffffffffffffff021916908373ffffffffffffffffffffffffffffffffffffffff1602179055506001600a60009054906101000a900473ffffffffffffffffffffffffffffffffffffffff1673ffffffffffffffffffffffffffffffffffffffff16638f16c41c336000604051602001526040518263ffffffff167c0100000000000000000000000000000000000000000000000000000000028152600401808273ffffffffffffffffffffffffffffffffffffffff1673ffffffffffffffffffffffffffffffffffffffff168152602001915050602060405180830381600087803b1515610a6957600080fd5b6102c65a03f11515610a7a57600080fd5b50505060405180519050141515610a9057600080fd5b600360009054906101000a900473ffffffffffffffffffffffffffffffffffffffff16600d60006101000a81548173ffffffffffffffffffffffffffffffffffffffff021916908373ffffffffffffffffffffffffffffffffffffffff160217905550600460009054906101000a900473ffffffffffffffffffffffffffffffffffffffff16600b60006101000a81548173ffffffffffffffffffffffffffffffffffffffff021916908373ffffffffffffffffffffffffffffffffffffffff160217905550600560009054906101000a900473ffffffffffffffffffffffffffffffffffffffff16600c60006101000a81548173ffffffffffffffffffffffffffffffffffffffff021916908373ffffffffffffffffffffffffffffffffffffffff16021790555060008a1415610c8c576000809054906101000a900473ffffffffffffffffffffffffffffffffffffffff16601060006101000a81548173ffffffffffffffffffffffffffffffffffffffff021916908373ffffffffffffffffffffffffffffffffffffffff160217905550601060009054906101000a900473ffffffffffffffffffffffffffffffffffffffff16601360006101000a81548173ffffffffffffffffffffffffffffffffffffffff021916908373ffffffffffffffffffffffffffffffffffffffff160217905550610e28565b60018a1415610d6057600160009054906101000a900473ffffffffffffffffffffffffffffffffffffffff16601160006101000a81548173ffffffffffffffffffffffffffffffffffffffff021916908373ffffffffffffffffffffffffffffffffffffffff160217905550601160009054906101000a900473ffffffffffffffffffffffffffffffffffffffff16601360006101000a81548173ffffffffffffffffffffffffffffffffffffffff021916908373ffffffffffffffffffffffffffffffffffffffff160217905550610e27565b600260009054906101000a900473ffffffffffffffffffffffffffffffffffffffff16601260006101000a81548173ffffffffffffffffffffffffffffffffffffffff021916908373ffffffffffffffffffffffffffffffffffffffff160217905550601260009054906101000a900473ffffffffffffffffffffffffffffffffffffffff16601360006101000a81548173ffffffffffffffffffffffffffffffffffffffff021916908373ffffffffffffffffffffffffffffffffffffffff1602179055505b5b600d60009054906101000a900473ffffffffffffffffffffffffffffffffffffffff1673ffffffffffffffffffffffffffffffffffffffff1663ec9ccfff8d600060405160a001526040518263ffffffff167c01000000000000000000000000000000000000000000000000000000000281526004018082815260200191505060a060405180830381600087803b1515610ec157600080fd5b6102c65a03f11515610ed257600080fd5b505050604051805190602001805190602001805190602001805190602001805190508460ff1694508360ff1693509091509050508095508196505050600084148015610fd157506002600d60009054906101000a900473ffffffffffffffffffffffffffffffffffffffff1673ffffffffffffffffffffffffffffffffffffffff1663401853b78e6000604051602001526040518263ffffffff167c010000000000000000000000000000000000000000000000000000000002815260040180828152602001915050602060405180830381600087803b1515610fb457600080fd5b6102c65a03f11515610fc557600080fd5b50505060405180519050145b80156110bd57506000600d60009054906101000a900473ffffffffffffffffffffffffffffffffffffffff1673ffffffffffffffffffffffffffffffffffffffff166335c42dbb8d6000604051602001526040518263ffffffff167c0100000000000000000000000000000000000000000000000000000000028152600401808273ffffffffffffffffffffffffffffffffffffffff1673ffffffffffffffffffffffffffffffffffffffff168152602001915050602060405180830381600087803b151561109f57600080fd5b6102c65a03f115156110b057600080fd5b5050506040518051905014155b15156110c857600080fd5b600c60009054906101000a900473ffffffffffffffffffffffffffffffffffffffff1673ffffffffffffffffffffffffffffffffffffffff16639deeab2086866000604051602001526040518363ffffffff167c01000000000000000000000000000000000000000000000000000000000281526004018083815260200182815260200192505050602060405180830381600087803b151561116957600080fd5b6102c65a03f1151561117a57600080fd5b50505060405180519050600b60009054906101000a900473ffffffffffffffffffffffffffffffffffffffff1673ffffffffffffffffffffffffffffffffffffffff1663beae32ba8d6000604051602001526040518263ffffffff167c0100000000000000000000000000000000000000000000000000000000028152600401808273ffffffffffffffffffffffffffffffffffffffff1673ffffffffffffffffffffffffffffffffffffffff168152602001915050602060405180830381600087803b151561124957600080fd5b6102c65a03f1151561125a57600080fd5b5050506040518051905014801561135857506000601360009054906101000a900473ffffffffffffffffffffffffffffffffffffffff1673ffffffffffffffffffffffffffffffffffffffff1663eef83a4b8d8f6000604051602001526040518363ffffffff167c0100000000000000000000000000000000000000000000000000000000028152600401808373ffffffffffffffffffffffffffffffffffffffff1673ffffffffffffffffffffffffffffffffffffffff16815260200182815260200192505050602060405180830381600087803b151561133b57600080fd5b6102c65a03f1151561134c57600080fd5b50505060405180519050145b151561136357600080fd5b600c60009054906101000a900473ffffffffffffffffffffffffffffffffffffffff1673ffffffffffffffffffffffffffffffffffffffff1663b0a4aaee86600060405161012001526040518263ffffffff167c01000000000000000000000000000000000000000000000000000000000281526004018082815260200191505061012060405180830381600087803b15156113fe57600080fd5b6102c65a03f1151561140f57600080fd5b5050506040518051906020018051906020018051906020018051906020018051906020018051906020018051906020018051906020018051905090919293949596975090919293949596509091929394955090919293945090505080935081945082955050505088518360ff1614801561148c575087518260ff16145b801561149b575086518160ff16145b156114b9576114ab8c8c8861359d565b6114b88c868b8b8b613694565b5b505050505050505050505050565b6000806000600960009054906101000a900473ffffffffffffffffffffffffffffffffffffffff16600a60006101000a81548173ffffffffffffffffffffffffffffffffffffffff021916908373ffffffffffffffffffffffffffffffffffffffff1602179055506001600a60009054906101000a900473ffffffffffffffffffffffffffffffffffffffff1673ffffffffffffffffffffffffffffffffffffffff16638f16c41c336000604051602001526040518263ffffffff167c0100000000000000000000000000000000000000000000000000000000028152600401808273ffffffffffffffffffffffffffffffffffffffff1673ffffffffffffffffffffffffffffffffffffffff168152602001915050602060405180830381600087803b15156115f657600080fd5b6102c65a03f1151561160757600080fd5b5050506040518051905014151561161d57600080fd5b600360009054906101000a900473ffffffffffffffffffffffffffffffffffffffff16600d60006101000a81548173ffffffffffffffffffffffffffffffffffffffff021916908373ffffffffffffffffffffffffffffffffffffffff160217905550600760009054906101000a900473ffffffffffffffffffffffffffffffffffffffff16600e60006101000a81548173ffffffffffffffffffffffffffffffffffffffff021916908373ffffffffffffffffffffffffffffffffffffffff1602179055506000841415156117f957600e60009054906101000a900473ffffffffffffffffffffffffffffffffffffffff1673ffffffffffffffffffffffffffffffffffffffff1663a9059cbb600860009054906101000a900473ffffffffffffffffffffffffffffffffffffffff16866000604051602001526040518363ffffffff167c0100000000000000000000000000000000000000000000000000000000028152600401808373ffffffffffffffffffffffffffffffffffffffff1673ffffffffffffffffffffffffffffffffffffffff16815260200182815260200192505050602060405180830381600087803b15156117dc57600080fd5b6102c65a03f115156117ed57600080fd5b50505060405180519050505b61199e6118f06118e9600d60009054906101000a900473ffffffffffffffffffffffffffffffffffffffff1673ffffffffffffffffffffffffffffffffffffffff166335c42dbb8a6000604051602001526040518263ffffffff167c0100000000000000000000000000000000000000000000000000000000028152600401808273ffffffffffffffffffffffffffffffffffffffff1673ffffffffffffffffffffffffffffffffffffffff168152602001915050602060405180830381600087803b15156118c757600080fd5b6102c65a03f115156118d857600080fd5b50505060405180519050606461383b565b606461383b565b600d60009054906101000a900473ffffffffffffffffffffffffffffffffffffffff1673ffffffffffffffffffffffffffffffffffffffff1663a5d8ba896000604051602001526040518163ffffffff167c0100000000000000000000000000000000000000000000000000000000028152600401602060405180830381600087803b151561197e57600080fd5b6102c65a03f1151561198f57600080fd5b50505060405180519050613876565b9150611b0c611a5585600d60009054906101000a900473ffffffffffffffffffffffffffffffffffffffff1673ffffffffffffffffffffffffffffffffffffffff166393e4a4f56000604051602001526040518163ffffffff167c0100000000000000000000000000000000000000000000000000000000028152600401602060405180830381600087803b1515611a3557600080fd5b6102c65a03f11515611a4657600080fd5b50505060405180519050613891565b611b0784600d60009054906101000a900473ffffffffffffffffffffffffffffffffffffffff1673ffffffffffffffffffffffffffffffffffffffff166311aadbfb6000604051602001526040518163ffffffff167c0100000000000000000000000000000000000000000000000000000000028152600401602060405180830381600087803b1515611ae757600080fd5b6102c65a03f11515611af857600080fd5b50505060405180519050613891565b61383b565b9050611bf7600d60009054906101000a900473ffffffffffffffffffffffffffffffffffffffff1673ffffffffffffffffffffffffffffffffffffffff16631b3b74f1886000604051602001526040518263ffffffff167c0100000000000000000000000000000000000000000000000000000000028152600401808273ffffffffffffffffffffffffffffffffffffffff1673ffffffffffffffffffffffffffffffffffffffff168152602001915050602060405180830381600087803b1515611bd657600080fd5b6102c65a03f11515611be757600080fd5b505050604051805190508261383b565b925050509392505050565b600960009054906101000a900473ffffffffffffffffffffffffffffffffffffffff1681565b6000600960009054906101000a900473ffffffffffffffffffffffffffffffffffffffff1673ffffffffffffffffffffffffffffffffffffffff161415611caf5780600960006101000a81548173ffffffffffffffffffffffffffffffffffffffff021916908373ffffffffffffffffffffffffffffffffffffffff160217905550611e42565b600960009054906101000a900473ffffffffffffffffffffffffffffffffffffffff16600a60006101000a81548173ffffffffffffffffffffffffffffffffffffffff021916908373ffffffffffffffffffffffffffffffffffffffff1602179055506001600a60009054906101000a900473ffffffffffffffffffffffffffffffffffffffff1673ffffffffffffffffffffffffffffffffffffffff16638f16c41c336000604051602001526040518263ffffffff167c0100000000000000000000000000000000000000000000000000000000028152600401808273ffffffffffffffffffffffffffffffffffffffff1673ffffffffffffffffffffffffffffffffffffffff168152602001915050602060405180830381600087803b1515611dd957600080fd5b6102c65a03f11515611dea57600080fd5b50505060405180519050141515611e0057600080fd5b80600960006101000a81548173ffffffffffffffffffffffffffffffffffffffff021916908373ffffffffffffffffffffffffffffffffffffffff1602179055505b50565b6000806000806000806000806000600960009054906101000a900473ffffffffffffffffffffffffffffffffffffffff16600a60006101000a81548173ffffffffffffffffffffffffffffffffffffffff021916908373ffffffffffffffffffffffffffffffffffffffff1602179055506001600a60009054906101000a900473ffffffffffffffffffffffffffffffffffffffff1673ffffffffffffffffffffffffffffffffffffffff16638f16c41c336000604051602001526040518263ffffffff167c0100000000000000000000000000000000000000000000000000000000028152600401808273ffffffffffffffffffffffffffffffffffffffff1673ffffffffffffffffffffffffffffffffffffffff168152602001915050602060405180830381600087803b1515611f7d57600080fd5b6102c65a03f11515611f8e57600080fd5b50505060405180519050141515611fa457600080fd5b600360009054906101000a900473ffffffffffffffffffffffffffffffffffffffff16600d60006101000a81548173ffffffffffffffffffffffffffffffffffffffff021916908373ffffffffffffffffffffffffffffffffffffffff160217905550600460009054906101000a900473ffffffffffffffffffffffffffffffffffffffff16600b60006101000a81548173ffffffffffffffffffffffffffffffffffffffff021916908373ffffffffffffffffffffffffffffffffffffffff160217905550600560009054906101000a900473ffffffffffffffffffffffffffffffffffffffff16600c60006101000a81548173ffffffffffffffffffffffffffffffffffffffff021916908373ffffffffffffffffffffffffffffffffffffffff16021790555060008b14156121a0576000809054906101000a900473ffffffffffffffffffffffffffffffffffffffff16601060006101000a81548173ffffffffffffffffffffffffffffffffffffffff021916908373ffffffffffffffffffffffffffffffffffffffff160217905550601060009054906101000a900473ffffffffffffffffffffffffffffffffffffffff16601360006101000a81548173ffffffffffffffffffffffffffffffffffffffff021916908373ffffffffffffffffffffffffffffffffffffffff16021790555061233c565b60018b141561227457600160009054906101000a900473ffffffffffffffffffffffffffffffffffffffff16601160006101000a81548173ffffffffffffffffffffffffffffffffffffffff021916908373ffffffffffffffffffffffffffffffffffffffff160217905550601160009054906101000a900473ffffffffffffffffffffffffffffffffffffffff16601360006101000a81548173ffffffffffffffffffffffffffffffffffffffff021916908373ffffffffffffffffffffffffffffffffffffffff16021790555061233b565b600260009054906101000a900473ffffffffffffffffffffffffffffffffffffffff16601260006101000a81548173ffffffffffffffffffffffffffffffffffffffff021916908373ffffffffffffffffffffffffffffffffffffffff160217905550601260009054906101000a900473ffffffffffffffffffffffffffffffffffffffff16601360006101000a81548173ffffffffffffffffffffffffffffffffffffffff021916908373ffffffffffffffffffffffffffffffffffffffff1602179055505b5b600d60009054906101000a900473ffffffffffffffffffffffffffffffffffffffff1673ffffffffffffffffffffffffffffffffffffffff1663ec9ccfff8b600060405160a001526040518263ffffffff167c01000000000000000000000000000000000000000000000000000000000281526004018082815260200191505060a060405180830381600087803b15156123d557600080fd5b6102c65a03f115156123e657600080fd5b50505060405180519060200180519060200180519060200180519060200180519050909150905050809a508199505050600d60009054906101000a900473ffffffffffffffffffffffffffffffffffffffff1673ffffffffffffffffffffffffffffffffffffffff166334a3210a8b6000604051608001526040518263ffffffff167c010000000000000000000000000000000000000000000000000000000002815260040180828152602001915050608060405180830381600087803b15156124af57600080fd5b6102c65a03f115156124c057600080fd5b50505060405180519060200180519060200180519060200180519050909192509091509050809750506001600d60009054906101000a900473ffffffffffffffffffffffffffffffffffffffff1673ffffffffffffffffffffffffffffffffffffffff166340b2723b8c6000604051602001526040518263ffffffff167c010000000000000000000000000000000000000000000000000000000002815260040180828152602001915050602060405180830381600087803b151561258457600080fd5b6102c65a03f1151561259557600080fd5b5050506040518051905060ff161415156125ae57600080fd5b600b60009054906101000a900473ffffffffffffffffffffffffffffffffffffffff1673ffffffffffffffffffffffffffffffffffffffff1663beae32ba8d6000604051602001526040518263ffffffff167c0100000000000000000000000000000000000000000000000000000000028152600401808273ffffffffffffffffffffffffffffffffffffffff1673ffffffffffffffffffffffffffffffffffffffff168152602001915050602060405180830381600087803b151561267357600080fd5b6102c65a03f1151561268457600080fd5b50505060405180519050915060009550600090505b8660ff168160ff16101561291e5761277785601360009054906101000a900473ffffffffffffffffffffffffffffffffffffffff1673ffffffffffffffffffffffffffffffffffffffff1663a17d5b0a8d86866000604051602001526040518463ffffffff167c0100000000000000000000000000000000000000000000000000000000028152600401808481526020018381526020018260ff1681526020019350505050602060405180830381600087803b151561275757600080fd5b6102c65a03f1151561276857600080fd5b505050604051805190506138ab565b9450601360009054906101000a900473ffffffffffffffffffffffffffffffffffffffff1673ffffffffffffffffffffffffffffffffffffffff1663a17d5b0a8b84846000604051602001526040518463ffffffff167c0100000000000000000000000000000000000000000000000000000000028152600401808481526020018381526020018260ff1681526020019350505050602060405180830381600087803b151561282557600080fd5b6102c65a03f1151561283657600080fd5b50505060405180519050601360009054906101000a900473ffffffffffffffffffffffffffffffffffffffff1673ffffffffffffffffffffffffffffffffffffffff1663a17d5b0a8c858a6000604051602001526040518463ffffffff167c0100000000000000000000000000000000000000000000000000000000028152600401808481526020018381526020018260ff1681526020019350505050602060405180830381600087803b15156128ec57600080fd5b6102c65a03f115156128fd57600080fd5b505050604051805190501015612911578095505b8080600101915050612699565b601360009054906101000a900473ffffffffffffffffffffffffffffffffffffffff1673ffffffffffffffffffffffffffffffffffffffff1663a17d5b0a8b84896000604051602001526040518463ffffffff167c0100000000000000000000000000000000000000000000000000000000028152600401808481526020018381526020018260ff1681526020019350505050602060405180830381600087803b15156129ca57600080fd5b6102c65a03f115156129db57600080fd5b505050604051805190509350600c60009054906101000a900473ffffffffffffffffffffffffffffffffffffffff1673ffffffffffffffffffffffffffffffffffffffff166302e929c8898b6000604051602001526040518363ffffffff167c0100000000000000000000000000000000000000000000000000000000028152600401808360ff1681526020018260ff16815260200192505050602060405180830381600087803b1515612a8e57600080fd5b6102c65a03f11515612a9f57600080fd5b50505060405180519050925082612ac0612aba86606461383b565b87613876565b10151561315f5760018901985060008660ff161115612f4257600c60009054906101000a900473ffffffffffffffffffffffffffffffffffffffff1673ffffffffffffffffffffffffffffffffffffffff166318b0211b896000604051602001526040518263ffffffff167c0100000000000000000000000000000000000000000000000000000000028152600401808260ff168152602001915050602060405180830381600087803b1515612b7557600080fd5b6102c65a03f11515612b8657600080fd5b505050604051805190508960ff161015612c6b57600d60009054906101000a900473ffffffffffffffffffffffffffffffffffffffff1673ffffffffffffffffffffffffffffffffffffffff1663cd25becd8b8b8960006040518563ffffffff167c0100000000000000000000000000000000000000000000000000000000028152600401808581526020018460ff1660ff1681526020018360ff1660ff1681526020018260ff168152602001945050505050600060405180830381600087803b1515612c5257600080fd5b6102c65a03f11515612c6357600080fd5b505050612f3d565b600d60009054906101000a900473ffffffffffffffffffffffffffffffffffffffff1673ffffffffffffffffffffffffffffffffffffffff1663cd25becd8b8b898a6040518563ffffffff167c0100000000000000000000000000000000000000000000000000000000028152600401808581526020018460ff1660ff1681526020018360ff1660ff1681526020018260ff1660ff168152602001945050505050600060405180830381600087803b1515612d2557600080fd5b6102c65a03f11515612d3657600080fd5b505050600d60009054906101000a900473ffffffffffffffffffffffffffffffffffffffff1673ffffffffffffffffffffffffffffffffffffffff1663707b85278b60036040518363ffffffff167c0100000000000000000000000000000000000000000000000000000000028152600401808381526020018260ff16815260200192505050600060405180830381600087803b1515612dd557600080fd5b6102c65a03f11515612de657600080fd5b505050600c60009054906101000a900473ffffffffffffffffffffffffffffffffffffffff1673ffffffffffffffffffffffffffffffffffffffff1663db0c4f798b8a6040518363ffffffff167c0100000000000000000000000000000000000000000000000000000000028152600401808381526020018260ff16815260200192505050600060405180830381600087803b1515612e8457600080fd5b6102c65a03f11515612e9557600080fd5b505050601360009054906101000a900473ffffffffffffffffffffffffffffffffffffffff1673ffffffffffffffffffffffffffffffffffffffff16630a256ae18b6040518263ffffffff167c010000000000000000000000000000000000000000000000000000000002815260040180828152602001915050600060405180830381600087803b1515612f2857600080fd5b6102c65a03f11515612f3957600080fd5b5050505b61315a565b600d60009054906101000a900473ffffffffffffffffffffffffffffffffffffffff1673ffffffffffffffffffffffffffffffffffffffff1663cd25becd8b8b898a6040518563ffffffff167c0100000000000000000000000000000000000000000000000000000000028152600401808581526020018460ff1660ff1681526020018360ff1660ff1681526020018260ff1660ff168152602001945050505050600060405180830381600087803b1515612ffc57600080fd5b6102c65a03f1151561300d57600080fd5b505050600d60009054906101000a900473ffffffffffffffffffffffffffffffffffffffff1673ffffffffffffffffffffffffffffffffffffffff1663707b85278b60046040518363ffffffff167c0100000000000000000000000000000000000000000000000000000000028152600401808381526020018260ff16815260200192505050600060405180830381600087803b15156130ac57600080fd5b6102c65a03f115156130bd57600080fd5b505050600d60009054906101000a900473ffffffffffffffffffffffffffffffffffffffff1673ffffffffffffffffffffffffffffffffffffffff1663e7030a676040518163ffffffff167c0100000000000000000000000000000000000000000000000000000000028152600401600060405180830381600087803b151561314557600080fd5b6102c65a03f1151561315657600080fd5b5050505b613377565b600d60009054906101000a900473ffffffffffffffffffffffffffffffffffffffff1673ffffffffffffffffffffffffffffffffffffffff1663cd25becd8b8b898a6040518563ffffffff167c0100000000000000000000000000000000000000000000000000000000028152600401808581526020018460ff1660ff1681526020018360ff1660ff1681526020018260ff1660ff168152602001945050505050600060405180830381600087803b151561321957600080fd5b6102c65a03f1151561322a57600080fd5b505050600d60009054906101000a900473ffffffffffffffffffffffffffffffffffffffff1673ffffffffffffffffffffffffffffffffffffffff1663707b85278b60056040518363ffffffff167c0100000000000000000000000000000000000000000000000000000000028152600401808381526020018260ff16815260200192505050600060405180830381600087803b15156132c957600080fd5b6102c65a03f115156132da57600080fd5b505050600d60009054906101000a900473ffffffffffffffffffffffffffffffffffffffff1673ffffffffffffffffffffffffffffffffffffffff1663e7030a676040518163ffffffff167c0100000000000000000000000000000000000000000000000000000000028152600401600060405180830381600087803b151561336257600080fd5b6102c65a03f1151561337357600080fd5b5050505b505050505050505050505050565b600960009054906101000a900473ffffffffffffffffffffffffffffffffffffffff16600a60006101000a81548173ffffffffffffffffffffffffffffffffffffffff021916908373ffffffffffffffffffffffffffffffffffffffff1602179055506001600a60009054906101000a900473ffffffffffffffffffffffffffffffffffffffff1673ffffffffffffffffffffffffffffffffffffffff16638f16c41c336000604051602001526040518263ffffffff167c0100000000000000000000000000000000000000000000000000000000028152600401808273ffffffffffffffffffffffffffffffffffffffff1673ffffffffffffffffffffffffffffffffffffffff168152602001915050602060405180830381600087803b15156134af57600080fd5b6102c65a03f115156134c057600080fd5b505050604051805190501415156134d657600080fd5b826000806101000a81548173ffffffffffffffffffffffffffffffffffffffff021916908373ffffffffffffffffffffffffffffffffffffffff16021790555081600160006101000a81548173ffffffffffffffffffffffffffffffffffffffff021916908373ffffffffffffffffffffffffffffffffffffffff16021790555080600260006101000a81548173ffffffffffffffffffffffffffffffffffffffff021916908373ffffffffffffffffffffffffffffffffffffffff160217905550505050565b600d60009054906101000a900473ffffffffffffffffffffffffffffffffffffffff1673ffffffffffffffffffffffffffffffffffffffff1663b7cc057e8484846135e98789886138c9565b6040518563ffffffff167c0100000000000000000000000000000000000000000000000000000000028152600401808581526020018473ffffffffffffffffffffffffffffffffffffffff1673ffffffffffffffffffffffffffffffffffffffff168152602001838152602001828152602001945050505050600060405180830381600087803b151561367b57600080fd5b6102c65a03f1151561368c57600080fd5b505050505050565b600d60009054906101000a900473ffffffffffffffffffffffffffffffffffffffff1673ffffffffffffffffffffffffffffffffffffffff166347dc106e858786868660016136e28d61085d565b016040518763ffffffff167c0100000000000000000000000000000000000000000000000000000000028152600401808781526020018681526020018060200180602001806020018560ff1660ff168152602001848103845288818151815260200191508051906020019060200280838360005b83811015613771578082015181840152602081019050613756565b50505050905001848103835287818151815260200191508051906020019060200280838360005b838110156137b3578082015181840152602081019050613798565b50505050905001848103825286818151815260200191508051906020019060200280838360005b838110156137f55780820151818401526020810190506137da565b505050509050019950505050505050505050600060405180830381600087803b151561382057600080fd5b6102c65a03f1151561383157600080fd5b5050505050505050565b6000806000841415613850576000915061386f565b828402905082848281151561386157fe5b0414151561386b57fe5b8091505b5092915050565b600080828481151561388457fe5b0490508091505092915050565b6000818310156138a157816138a3565b825b905092915050565b60008082840190508381101515156138bf57fe5b8091505092915050565b600080600080600360009054906101000a900473ffffffffffffffffffffffffffffffffffffffff16600d60006101000a81548173ffffffffffffffffffffffffffffffffffffffff021916908373ffffffffffffffffffffffffffffffffffffffff160217905550613a1c600d60009054906101000a900473ffffffffffffffffffffffffffffffffffffffff1673ffffffffffffffffffffffffffffffffffffffff16631b3b74f1896000604051602001526040518263ffffffff167c0100000000000000000000000000000000000000000000000000000000028152600401808273ffffffffffffffffffffffffffffffffffffffff1673ffffffffffffffffffffffffffffffffffffffff168152602001915050602060405180830381600087803b15156139fa57600080fd5b6102c65a03f11515613a0b57600080fd5b505050604051805190506001613891565b9250613bc3613b15613b0e600d60009054906101000a900473ffffffffffffffffffffffffffffffffffffffff1673ffffffffffffffffffffffffffffffffffffffff166335c42dbb8b6000604051602001526040518263ffffffff167c0100000000000000000000000000000000000000000000000000000000028152600401808273ffffffffffffffffffffffffffffffffffffffff1673ffffffffffffffffffffffffffffffffffffffff168152602001915050602060405180830381600087803b1515613aec57600080fd5b6102c65a03f11515613afd57600080fd5b50505060405180519050606461383b565b606461383b565b600d60009054906101000a900473ffffffffffffffffffffffffffffffffffffffff1673ffffffffffffffffffffffffffffffffffffffff1663a5d8ba896000604051602001526040518163ffffffff167c0100000000000000000000000000000000000000000000000000000000028152600401602060405180830381600087803b1515613ba357600080fd5b6102c65a03f11515613bb457600080fd5b50505060405180519050613876565b9150613c7782600d60009054906101000a900473ffffffffffffffffffffffffffffffffffffffff1673ffffffffffffffffffffffffffffffffffffffff166311aadbfb6000604051602001526040518163ffffffff167c0100000000000000000000000000000000000000000000000000000000028152600401602060405180830381600087803b1515613c5757600080fd5b6102c65a03f11515613c6857600080fd5b50505060405180519050613891565b9050613d3d613d2e600d60009054906101000a900473ffffffffffffffffffffffffffffffffffffffff1673ffffffffffffffffffffffffffffffffffffffff1663ad3208466000604051602001526040518163ffffffff167c0100000000000000000000000000000000000000000000000000000000028152600401602060405180830381600087803b1515613d0d57600080fd5b6102c65a03f11515613d1e57600080fd5b505050604051805190508561383b565b613d38878461383b565b61383b565b935050505093925050505600a165627a7a7230582016498f61c2b064eb7c91a57e4ee08086eb05e0b76b649f795adf2d8b88a655610029",
  "source": "/* Copyright (C) 2017 GovBlocks.io\r\n\r\n  This program is free software: you can redistribute it and/or modify\r\n    it under the terms of the GNU General Public License as published by\r\n    the Free Software Foundation, either version 3 of the License, or\r\n    (at your option) any later version.\r\n\r\n  This program is distributed in the hope that it will be useful,\r\n    but WITHOUT ANY WARRANTY; without even the implied warranty of\r\n    MERCHANTABILITY or FITNESS FOR A PARTICULAR PURPOSE.  See the\r\n    GNU General Public License for more details.\r\n\r\n  You should have received a copy of the GNU General Public License\r\n    along with this program.  If not, see http://www.gnu.org/licenses/ */\r\n\r\n/**\r\n * @title votingType interface for All Types of voting.\r\n */\r\n\r\npragma solidity ^0.4.8;\r\nimport \"./SimpleVoting.sol\";\r\nimport \"./RankBasedVoting.sol\";\r\nimport \"./FeatureWeighted.sol\";\r\nimport \"./GovernanceData.sol\";\r\nimport \"./VotingType.sol\";\r\n// import \"./BasicToken.sol\";\r\nimport \"./Master.sol\";\r\nimport \"./zeppelin-solidity/contracts/token/BasicToken.sol\";\r\n\r\n\r\ncontract StandardVotingType\r\n{\r\n    address SVAddress;\r\n    address RBAddress;\r\n    address FWAddress;\r\n    address GDAddress;\r\n    address MRAddress;\r\n    address PCAddress;\r\n    address VTAddress;\r\n    address BTAddress;\r\n    address GBTAddress;\r\n    address public masterAddress;\r\n    Master MS;\r\n    MemberRoles MR;\r\n    ProposalCategory PC;\r\n    GovernanceData  GD;\r\n    BasicToken BT;\r\n    StandardVotingType SVT;\r\n    SimpleVoting SV;\r\n    RankBasedVoting RB;\r\n    FeatureWeighted FW;\r\n    VotingType VT;\r\n\r\n    modifier onlyInternal {\r\n        MS=Master(masterAddress);\r\n        require(MS.isInternal(msg.sender) == 1);\r\n        _; \r\n    }\r\n\r\n/// @dev Change master's contract address\r\n    function changeMasterAddress(address _masterContractAddress)\r\n    {\r\n        if(masterAddress == 0x000)\r\n            masterAddress = _masterContractAddress;\r\n        else\r\n        {\r\n            MS=Master(masterAddress);\r\n            require(MS.isInternal(msg.sender) == 1);\r\n                masterAddress = _masterContractAddress;\r\n        }\r\n    }\r\n    \r\n    function changeOtherContractAddress(address _SVaddress,address _RBaddress,address _FWaddress) onlyInternal\r\n    {\r\n        SVAddress = _SVaddress;\r\n        RBAddress = _RBaddress;\r\n        FWAddress = _FWaddress;\r\n    }\r\n    \r\n    function changeAllContractsAddress(address _BTcontractAddress,address _GDcontractAddress, address _MRcontractAddress, address _PCcontractAddress) onlyInternal\r\n    {\r\n        BTAddress = _BTcontractAddress;\r\n        GDAddress = _GDcontractAddress;\r\n        MRAddress = _MRcontractAddress;\r\n        PCAddress = _PCcontractAddress;\r\n    }\r\n\r\n    /// @dev Changes GBT contract Address. \r\n    function changeGBTtokenAddress(address _GBTcontractAddress) onlyInternal\r\n    {\r\n        GBTAddress = _GBTcontractAddress;\r\n    }\r\n    \r\n    function setOptionValue_givenByMemberSVT(address _memberAddress,uint _proposalId,uint _memberStake) internal returns (uint finalOptionValue)\r\n    {\r\n        GD=GovernanceData(GDAddress);\r\n        uint memberLevel = Math.max256(GD.getMemberReputation(_memberAddress),1);\r\n        uint tokensHeld = SafeMath.div((SafeMath.mul(SafeMath.mul(GD.getBalanceOfMember(_memberAddress),100),100)),GD.getTotalTokenInSupply());\r\n        uint maxValue= Math.max256(tokensHeld,GD.membershipScalingFactor());\r\n\r\n        finalOptionValue = SafeMath.mul(SafeMath.mul(GD.globalRiskFactor(),memberLevel),SafeMath.mul(_memberStake,maxValue));\r\n    }\r\n\r\n    function setVoteValue_givenByMember(address _memberAddress,uint _proposalId,uint _memberStake) onlyInternal returns (uint finalVoteValue)\r\n    {\r\n        GD=GovernanceData(GDAddress);\r\n        BT=BasicToken(BTAddress);\r\n        \r\n        if(_memberStake != 0)\r\n            BT.transfer(GBTAddress,_memberStake);\r\n\r\n        uint tokensHeld = SafeMath.div((SafeMath.mul(SafeMath.mul(GD.getBalanceOfMember(_memberAddress),100),100)),GD.getTotalTokenInSupply());\r\n        uint value= SafeMath.mul(Math.max256(_memberStake,GD.scalingWeight()),Math.max256(tokensHeld,GD.membershipScalingFactor()));\r\n        finalVoteValue = SafeMath.mul(GD.getMemberReputation(_memberAddress),value);\r\n    }  \r\n    \r\n    function getProposalVoptions(uint _proposalId) constant returns(uint8 verdictOptions)\r\n    {  \r\n        (,,,verdictOptions) = GD.getProposalCategoryParams(_proposalId);\r\n    }\r\n\r\n    function addVerdictOptionSVT(uint _proposalId,address _memberAddress,uint _votingType,uint[] _paramInt,bytes32[] _paramBytes32,address[] _paramAddress,uint _GBTPayableTokenAmount) onlyInternal\r\n    {\r\n        GD=GovernanceData(GDAddress);\r\n        MR=MemberRoles(MRAddress);\r\n        PC=ProposalCategory(PCAddress);\r\n\r\n        if(_votingType == 0)\r\n        {\r\n           SV = SimpleVoting(SVAddress);\r\n           VT = SV;\r\n        }\r\n        else if(_votingType == 1)\r\n        {\r\n            RB = RankBasedVoting(RBAddress);\r\n            VT = RB;\r\n        } \r\n        else\r\n        {\r\n            FW = FeatureWeighted(FWAddress);\r\n            VT = FW;\r\n        }\r\n\r\n        uint _categoryId;uint currentVotingId;\r\n        (_categoryId,currentVotingId,,,) = GD.getProposalDetailsById2(_proposalId);\r\n\r\n        require(currentVotingId == 0 && GD.getProposalStatus(_proposalId) == 2 && GD.getBalanceOfMember(_memberAddress) != 0);\r\n        require(MR.getMemberRoleIdByAddress(_memberAddress) == PC.getRoleSequencAtIndex(_categoryId,currentVotingId) && VT.getVoteId_againstMember(_memberAddress,_proposalId) == 0 );\r\n        \r\n        uint8 paramInt; uint8 paramBytes32; uint8 paramAddress;\r\n        (,,,,paramInt,paramBytes32,paramAddress,,) = PC.getCategoryDetails(_categoryId);\r\n\r\n        if(paramInt == _paramInt.length && paramBytes32 == _paramBytes32.length && paramAddress == _paramAddress.length)\r\n        {\r\n            addVerdictOptionSVT1(_proposalId,_memberAddress,_GBTPayableTokenAmount);\r\n            addVerdictOptionSVT2(_proposalId,_categoryId,_paramInt,_paramBytes32,_paramAddress);\r\n        } \r\n    }\r\n\r\n    function addVerdictOptionSVT1(uint _proposalId,address _memberAddress,uint _GBTPayableTokenAmount) internal\r\n    {\r\n        GD.setProposalVerdictAddressAndStakeValue(_proposalId,_memberAddress,_GBTPayableTokenAmount,setOptionValue_givenByMemberSVT(_memberAddress,_proposalId,_GBTPayableTokenAmount));\r\n    }\r\n    function addVerdictOptionSVT2(uint _proposalId,uint _categoryId,uint[] _paramInt,bytes32[] _paramBytes32,address[] _paramAddress) internal\r\n    {\r\n        GD.setProposalCategoryParams(_categoryId,_proposalId,_paramInt,_paramBytes32,_paramAddress,getProposalVoptions(_proposalId)+1); // MAKE +1 IN go\r\n    }\r\n    \r\n    function closeProposalVoteSVT(address _memberAddress,uint _votingType,uint _proposalId) onlyInternal\r\n    {\r\n        GD=GovernanceData(GDAddress);\r\n        MR=MemberRoles(MRAddress);\r\n        PC=ProposalCategory(PCAddress);\r\n\r\n        if(_votingType == 0)\r\n        {\r\n           SV = SimpleVoting(SVAddress);\r\n           VT = SV;\r\n        }\r\n        else if(_votingType == 1)\r\n        {\r\n            RB = RankBasedVoting(RBAddress);\r\n            VT = RB;\r\n        } \r\n        else\r\n        {\r\n            FW = FeatureWeighted(FWAddress);\r\n            VT = FW;\r\n        }\r\n\r\n        uint8 currentVotingId; uint8 category;\r\n        (category,currentVotingId,,,) = GD.getProposalDetailsById2(_proposalId);\r\n        uint8 verdictOptions;\r\n        (,,,verdictOptions) = GD.getProposalCategoryParams(_proposalId);\r\n    \r\n        require(GD.checkProposalVoteClosing(_proposalId)==1);\r\n        uint8 max; uint totalVotes; uint verdictVal; uint majorityVote;\r\n        uint roleId = MR.getMemberRoleIdByAddress(_memberAddress);\r\n\r\n        max=0;  \r\n        for(uint8 i = 0; i < verdictOptions; i++)\r\n        {\r\n            totalVotes = SafeMath.add(totalVotes,VT.getVotesbyOption_againstProposal(_proposalId,roleId,i)); \r\n            if(VT.getVotesbyOption_againstProposal(_proposalId,roleId,max) < VT.getVotesbyOption_againstProposal(_proposalId,roleId,i))\r\n            {  \r\n                max = i; \r\n            }\r\n        }\r\n        verdictVal = VT.getVotesbyOption_againstProposal(_proposalId,roleId,max);\r\n        majorityVote= PC.getRoleMajorityVote(category,currentVotingId);\r\n       \r\n        if(SafeMath.div(SafeMath.mul(verdictVal,100),totalVotes)>=majorityVote)\r\n        {   \r\n            currentVotingId = currentVotingId+1;\r\n            if(max > 0 )\r\n            {\r\n                if(currentVotingId < PC.getRoleSequencLength(category))\r\n                {\r\n                    GD.updateProposalDetails(_proposalId,currentVotingId,max,0);\r\n                } \r\n                else\r\n                {\r\n                    GD.updateProposalDetails(_proposalId,currentVotingId,max,max);\r\n                    GD.changeProposalStatus(_proposalId,3);\r\n                    PC.actionAfterProposalPass(_proposalId ,category);\r\n                    VT.giveReward_afterFinalDecision(_proposalId);\r\n                }\r\n            }\r\n            else\r\n            {\r\n                GD.updateProposalDetails(_proposalId,currentVotingId,max,max);\r\n                GD.changeProposalStatus(_proposalId,4);\r\n                GD.changePendingProposalStart();\r\n            }      \r\n        } \r\n        else\r\n        {\r\n            GD.updateProposalDetails(_proposalId,currentVotingId,max,max);\r\n            GD.changeProposalStatus(_proposalId,5);\r\n            GD.changePendingProposalStart();\r\n        } \r\n    }\r\n}\r\n\r\n\r\n\r\n\r\n\r\n\r\n",
  "sourcePath": "D:\\RUCHITA\\Govblocks-Git\\contracts\\StandardVotingType.sol",
  "compiler": {
    "name": "solc",
    "version": "0.4.18+commit.9cf6e910.Emscripten.clang"
  },
  "schemaVersion": "1.0.1",
  "updatedAt": "2018-01-30T10:36:00.546Z"
}