{
  "contractName": "testData",
  "abi": [
    {
      "constant": true,
      "inputs": [
        {
          "name": "_proposalid",
          "type": "uint256"
        },
        {
          "name": "_categoryId",
          "type": "uint256"
        },
        {
          "name": "_paramInt",
          "type": "uint256[]"
        },
        {
          "name": "_paramBytes32",
          "type": "bytes32[]"
        },
        {
          "name": "_paramAddress",
          "type": "address[]"
        }
      ],
      "name": "getProposalVoteCount",
      "outputs": [
        {
          "name": "acceptABvote",
          "type": "uint256"
        },
        {
          "name": "denyABvote",
          "type": "uint256"
        },
        {
          "name": "MemberAccept",
          "type": "uint256"
        },
        {
          "name": "MemberDeny",
          "type": "uint256"
        }
      ],
      "payable": false,
      "stateMutability": "view",
      "type": "function"
    },
    {
      "constant": true,
      "inputs": [
        {
          "name": "",
          "type": "address"
        }
      ],
      "name": "totalVotes",
      "outputs": [
        {
          "name": "",
          "type": "uint256"
        }
      ],
      "payable": false,
      "stateMutability": "view",
      "type": "function"
    },
    {
      "constant": false,
      "inputs": [
        {
          "name": "_id",
          "type": "uint256"
        },
        {
          "name": "_categoryId",
          "type": "uint256"
        },
        {
          "name": "_paramInt",
          "type": "uint256[]"
        },
        {
          "name": "_paramBytes32",
          "type": "bytes32[]"
        },
        {
          "name": "_paramAddress",
          "type": "address[]"
        }
      ],
      "name": "categorizeProposal",
      "outputs": [
        {
          "name": "",
          "type": "string"
        }
      ],
      "payable": false,
      "stateMutability": "nonpayable",
      "type": "function"
    },
    {
      "constant": true,
      "inputs": [
        {
          "name": "",
          "type": "address"
        }
      ],
      "name": "advisoryBoardMembers",
      "outputs": [
        {
          "name": "",
          "type": "uint8"
        }
      ],
      "payable": false,
      "stateMutability": "view",
      "type": "function"
    },
    {
      "constant": false,
      "inputs": [
        {
          "name": "_memberAddress",
          "type": "address"
        }
      ],
      "name": "removeAdvisoryBoard",
      "outputs": [
        {
          "name": "check",
          "type": "uint256"
        }
      ],
      "payable": false,
      "stateMutability": "nonpayable",
      "type": "function"
    },
    {
      "constant": false,
      "inputs": [
        {
          "name": "_memberAddress",
          "type": "address"
        },
        {
          "name": "_categoryName",
          "type": "string"
        },
        {
          "name": "_memberVoteRequired",
          "type": "uint64"
        },
        {
          "name": "_majorityVote",
          "type": "uint16"
        },
        {
          "name": "_functionName",
          "type": "string"
        },
        {
          "name": "_contractAt",
          "type": "address"
        },
        {
          "name": "_paramInt",
          "type": "uint8"
        },
        {
          "name": "_paramBytes32",
          "type": "uint8"
        },
        {
          "name": "_paramAddress",
          "type": "uint8"
        }
      ],
      "name": "joinAdvisoryBoard",
      "outputs": [],
      "payable": false,
      "stateMutability": "nonpayable",
      "type": "function"
    },
    {
      "constant": true,
      "inputs": [
        {
          "name": "",
          "type": "uint256"
        },
        {
          "name": "_memberVoteRequired",
          "type": "uint8"
        },
        {
          "name": "_majorityVote",
          "type": "uint8"
        },
        {
          "name": "_functionName",
          "type": "string"
        },
        {
          "name": "_contractAt",
          "type": "address"
        },
        {
          "name": "_paramInt",
          "type": "uint8"
        },
        {
          "name": "_paramBytes32",
          "type": "uint8"
        },
        {
          "name": "_paramAddress",
          "type": "uint8"
        }
      ],
      "name": "status",
      "outputs": [
        {
          "name": "",
          "type": "string"
        }
      ],
      "payable": false,
      "stateMutability": "view",
      "type": "function"
    },
    {
      "constant": false,
      "inputs": [
        {
          "name": "_proposalId",
          "type": "uint256"
        },
        {
          "name": "_verdict",
          "type": "int8"
        }
      ],
      "name": "proposalVoteByABmember",
      "outputs": [],
      "payable": false,
      "stateMutability": "nonpayable",
      "type": "function"
    },
    {
      "constant": false,
      "inputs": [
        {
          "name": "_shortDesc",
          "type": "string"
        },
        {
          "name": "_longDesc",
          "type": "string"
        }
      ],
      "name": "addStatus",
      "outputs": [],
      "payable": false,
      "stateMutability": "nonpayable",
      "type": "function"
    },
    {
      "constant": true,
      "inputs": [
        {
          "name": "_voteid",
          "type": "uint256"
        }
      ],
      "name": "getVoteDetailByid",
      "outputs": [
        {
          "name": "voter",
          "type": "address"
        },
        {
          "name": "proposalId",
          "type": "uint256"
        },
        {
          "name": "verdict",
          "type": "int256"
        },
        {
          "name": "dateSubmit",
          "type": "uint256"
        },
        {
          "name": "contractAt",
          "type": "address"
        },
        {
          "name": "paramInt",
          "type": "uint16"
        },
        {
          "name": "paramBytes32",
          "type": "uint16"
        },
        {
          "name": "paramAddress",
          "type": "uint16"
        }
      ],
      "payable": false,
      "stateMutability": "view",
      "type": "function"
    },
    {
      "constant": false,
      "inputs": [
        {
          "name": "_categoryId",
          "type": "uint256"
        },
        {
          "name": "_categoryName",
          "type": "string"
        },
        {
          "name": "_memberVoteRequired",
          "type": "uint64"
        },
        {
          "name": "_majorityVote",
          "type": "uint16"
        },
        {
          "name": "_functionName",
          "type": "string"
        },
        {
          "name": "_contractAt",
          "type": "address"
        },
        {
          "name": "_paramInt",
          "type": "uint8"
        },
        {
          "name": "_paramBytes32",
          "type": "uint8"
        },
        {
          "name": "_paramAddress",
          "type": "uint8"
        }
      ],
      "name": "updateCategory",
      "outputs": [],
      "payable": false,
      "stateMutability": "nonpayable",
      "type": "function"
    },
    {
      "constant": false,
      "inputs": [
        {
          "name": "_categoryName",
          "type": "string"
        },
        {
          "name": "_memberVoteRequired",
          "type": "uint8"
        },
        {
          "name": "_majorityVote",
          "type": "uint8"
        },
        {
          "name": "_functionName",
          "type": "string"
        },
        {
          "name": "_contractAt",
          "type": "address"
        },
        {
          "name": "_paramInt",
          "type": "uint8"
        },
        {
          "name": "_paramBytes32",
          "type": "uint8"
        },
        {
          "name": "_paramAddress",
          "type": "uint8"
        }
      ],
      "name": "addNewCategory",
      "outputs": [
        {
          "name": "versionNum",
          "type": "uint256"
        },
        {
          "name": "shortDesc",
          "type": "string"
        },
        {
          "name": "longDesc",
          "type": "string"
        },
        {
          "name": "date_add",
          "type": "uint256"
        }
      ],
      "payable": false,
      "stateMutability": "nonpayable",
      "type": "function"
    },
    {
      "constant": false,
      "inputs": [
        {
          "name": "_proposalId",
          "type": "uint256"
        },
        {
          "name": "_verdict",
          "type": "int8"
        }
      ],
      "name": "proposalVoteByMember",
      "outputs": [
        {
          "name": "owner",
          "type": "address"
        },
        {
          "name": "shortDesc",
          "type": "string"
        },
        {
          "name": "longDesc",
          "type": "string"
        },
        {
          "name": "date_add",
          "type": "uint256"
        },
        {
          "name": "date_upd",
          "type": "uint256"
        },
        {
          "name": "versionNum",
          "type": "uint256"
        },
        {
          "name": "status",
          "type": "uint256"
        }
      ],
      "payable": false,
      "stateMutability": "nonpayable",
      "type": "function"
    },
    {
      "constant": false,
      "inputs": [
        {
          "name": "_id",
          "type": "uint256"
        }
      ],
      "name": "changeProposalVotingStatus",
      "outputs": [
        {
          "name": "categoryName",
          "type": "string"
        },
        {
          "name": "memberVoteRequired",
          "type": "uint8"
        },
        {
          "name": "majorityVote",
          "type": "uint8"
        },
        {
          "name": "functionName",
          "type": "string"
        },
        {
          "name": "contractAt",
          "type": "address"
        },
        {
          "name": "paramInt",
          "type": "uint8"
        },
        {
          "name": "paramBytes32",
          "type": "uint8"
        },
        {
          "name": "paramAddress",
          "type": "uint8"
        }
      ],
      "payable": false,
      "stateMutability": "nonpayable",
      "type": "function"
    },
    {
      "constant": false,
      "inputs": [
        {
          "name": "_shortDesc",
          "type": "string"
        },
        {
          "name": "_longDesc",
          "type": "string"
        }
      ],
      "name": "addNewProposal",
      "outputs": [],
      "payable": false,
      "stateMutability": "nonpayable",
      "type": "function"
    },
    {
      "constant": true,
      "inputs": [],
      "name": "getTotalVotes",
      "outputs": [
        {
          "name": "voteLength",
          "type": "uint256"
        }
      ],
      "payable": false,
      "stateMutability": "view",
      "type": "function"
    },
    {
      "constant": true,
      "inputs": [
        {
          "name": "_categoryId",
          "type": "uint256"
        }
      ],
      "name": "getCategoryDetails",
      "outputs": [
        {
          "name": "categoryName",
          "type": "string"
        },
        {
          "name": "memberVoteRequired",
          "type": "uint64"
        },
        {
          "name": "majorityVote",
          "type": "uint16"
        },
        {
          "name": "functionName",
          "type": "string"
        },
        {
          "name": "contractAt",
          "type": "address"
        },
        {
          "name": "paramInt",
          "type": "uint16"
        },
        {
          "name": "paramBytes32",
          "type": "uint16"
        },
        {
          "name": "paramAddress",
          "type": "uint16"
        }
      ],
      "payable": false,
      "stateMutability": "view",
      "type": "function"
    },
    {
      "constant": false,
      "inputs": [
        {
          "name": "_id",
          "type": "uint256"
        },
        {
          "name": "_shortDesc",
          "type": "string"
        },
        {
          "name": "_longDesc",
          "type": "string"
        }
      ],
      "name": "editProposal",
      "outputs": [],
      "payable": false,
      "stateMutability": "nonpayable",
      "type": "function"
    },
    {
      "constant": true,
      "inputs": [
        {
          "name": "_id",
          "type": "uint256"
        },
        {
          "name": "_versionNum",
          "type": "uint256"
        }
      ],
      "name": "getProposalDetailsByIdAndVersion",
      "outputs": [
        {
          "name": "versionNum",
          "type": "uint256"
        },
        {
          "name": "shortDesc",
          "type": "string"
        },
        {
          "name": "longDesc",
          "type": "string"
        },
        {
          "name": "date_add",
          "type": "uint256"
        }
      ],
      "payable": false,
      "stateMutability": "view",
      "type": "function"
    },
    {
      "constant": true,
      "inputs": [
        {
          "name": "_id",
          "type": "uint256"
        }
      ],
      "name": "getProposalDetailsById",
      "outputs": [
        {
          "name": "owner",
          "type": "address"
        },
        {
          "name": "shortDesc",
          "type": "string"
        },
        {
          "name": "longDesc",
          "type": "string"
        },
        {
          "name": "date_add",
          "type": "uint256"
        },
        {
          "name": "date_upd",
          "type": "uint256"
        },
        {
          "name": "versionNum",
          "type": "uint256"
        },
        {
          "name": "status",
          "type": "uint256"
        }
      ],
      "payable": false,
      "stateMutability": "view",
      "type": "function"
    },
    {
      "constant": true,
      "inputs": [
        {
          "name": "",
          "type": "uint256"
        }
      ],
      "name": "allCategory",
      "outputs": [
        {
          "name": "categoryName",
          "type": "string"
        },
        {
          "name": "memberVoteRequired",
          "type": "uint8"
        },
        {
          "name": "majorityVote",
          "type": "uint8"
        },
        {
          "name": "functionName",
          "type": "string"
        },
        {
          "name": "contractAt",
          "type": "address"
        },
        {
          "name": "paramInt",
          "type": "uint8"
        },
        {
          "name": "paramBytes32",
          "type": "uint8"
        },
        {
          "name": "paramAddress",
          "type": "uint8"
        }
      ],
      "payable": false,
      "stateMutability": "view",
      "type": "function"
    },
    {
      "constant": true,
      "inputs": [],
      "name": "getCategoriesLength",
      "outputs": [
        {
          "name": "length",
          "type": "uint256"
        }
      ],
      "payable": false,
      "stateMutability": "view",
      "type": "function"
    }
  ],
  "bytecode": "0x6060604052341561000f57600080fd5b61385d8061001e6000396000f300606060405260043610610128576000357c0100000000000000000000000000000000000000000000000000000000900463ffffffff1680630645b8db1461012d5780630d15fd7714610179578063235b13d1146101a257806323a670e31461028e5780632c506796146102e157806337addf571461031a57806342d21ef7146103535780634384318e146103ef5780634d94fabb1461041e57806366cf51de146104335780636b8b2c6a146104ab57806371cc52c4146105b757806373be5ea7146106b257806394b8e18c146106e157806399cb86f8146107045780639a0e7d66146107a4578063b0a4aaee146107cd578063bc34c5441461095f578063cac86e9614610a08578063d3bff2f714610b27578063dff5f32214610c7e578063f6d9615f14610e34575b600080fd5b341561013857600080fd5b61014e6004808035906020019091905050610e5d565b6040518085815260200184815260200183815260200182815260200194505050505060405180910390f35b341561018457600080fd5b61018c610ece565b6040518082815260200191505060405180910390f35b34156101ad57600080fd5b61028c6004808035906020019091908035906020019091908035906020019082018035906020019080806020026020016040519081016040528093929190818152602001838360200280828437820191505050505050919080359060200190820180359060200190808060200260200160405190810160405280939291908181526020018383602002808284378201915050505050509190803590602001908201803590602001908080602002602001604051908101604052809392919081815260200183836020028082843782019150505050505091905050610ed4565b005b341561029957600080fd5b6102c5600480803573ffffffffffffffffffffffffffffffffffffffff169060200190919050506110de565b604051808260ff1660ff16815260200191505060405180910390f35b34156102ec57600080fd5b610318600480803573ffffffffffffffffffffffffffffffffffffffff169060200190919050506110fe565b005b341561032557600080fd5b610351600480803573ffffffffffffffffffffffffffffffffffffffff169060200190919050506111b8565b005b341561035e57600080fd5b6103746004808035906020019091905050611272565b6040518080602001828103825283818151815260200191508051906020019080838360005b838110156103b4578082015181840152602081019050610399565b50505050905090810190601f1680156103e15780820380516001836020036101000a031916815260200191505b509250505060405180910390f35b34156103fa57600080fd5b61041c600480803590602001909190803560000b90602001909190505061132e565b005b341561042957600080fd5b6104316115e5565b005b341561043e57600080fd5b6104546004808035906020019091905050611b3e565b604051808573ffffffffffffffffffffffffffffffffffffffff1673ffffffffffffffffffffffffffffffffffffffff16815260200184815260200183815260200182815260200194505050505060405180910390f35b34156104b657600080fd5b6105b5600480803590602001909190803590602001908201803590602001908080601f0160208091040260200160405190810160405280939291908181526020018383808284378201915050505050509190803567ffffffffffffffff1690602001909190803561ffff1690602001909190803590602001908201803590602001908080601f0160208091040260200160405190810160405280939291908181526020018383808284378201915050505050509190803573ffffffffffffffffffffffffffffffffffffffff1690602001909190803560ff1690602001909190803560ff1690602001909190803560ff16906020019091905050611bf7565b005b34156105c257600080fd5b6106b0600480803590602001908201803590602001908080601f0160208091040260200160405190810160405280939291908181526020018383808284378201915050505050509190803560ff1690602001909190803560ff1690602001909190803590602001908201803590602001908080601f0160208091040260200160405190810160405280939291908181526020018383808284378201915050505050509190803573ffffffffffffffffffffffffffffffffffffffff1690602001909190803560ff1690602001909190803560ff1690602001909190803560ff16906020019091905050611d76565b005b34156106bd57600080fd5b6106df600480803590602001909190803560000b906020019091905050611f32565b005b34156106ec57600080fd5b61070260048080359060200190919050506121e8565b005b341561070f57600080fd5b6107a2600480803590602001908201803590602001908080601f0160208091040260200160405190810160405280939291908181526020018383808284378201915050505050509190803590602001908201803590602001908080601f0160208091040260200160405190810160405280939291908181526020018383808284378201915050505050509190505061229c565b005b34156107af57600080fd5b6107b76123d3565b6040518082815260200191505060405180910390f35b34156107d857600080fd5b6107ee60048080359060200190919050506123dd565b60405180806020018967ffffffffffffffff1667ffffffffffffffff1681526020018861ffff1661ffff168152602001806020018773ffffffffffffffffffffffffffffffffffffffff1673ffffffffffffffffffffffffffffffffffffffff1681526020018661ffff1661ffff1681526020018561ffff1661ffff1681526020018461ffff1661ffff16815260200183810383528b818151815260200191508051906020019080838360005b838110156108b657808201518184015260208101905061089b565b50505050905090810190601f1680156108e35780820380516001836020036101000a031916815260200191505b50838103825288818151815260200191508051906020019080838360005b8381101561091c578082015181840152602081019050610901565b50505050905090810190601f1680156109495780820380516001836020036101000a031916815260200191505b509a505050505050505050505060405180910390f35b341561096a57600080fd5b610a06600480803590602001909190803590602001908201803590602001908080601f0160208091040260200160405190810160405280939291908181526020018383808284378201915050505050509190803590602001908201803590602001908080601f016020809104026020016040519081016040528093929190818152602001838380828437820191505050505050919050506126b9565b005b3415610a1357600080fd5b610a32600480803590602001909190803590602001909190505061274c565b604051808581526020018060200180602001848152602001838103835286818151815260200191508051906020019080838360005b83811015610a82578082015181840152602081019050610a67565b50505050905090810190601f168015610aaf5780820380516001836020036101000a031916815260200191505b50838103825285818151815260200191508051906020019080838360005b83811015610ae8578082015181840152602081019050610acd565b50505050905090810190601f168015610b155780820380516001836020036101000a031916815260200191505b50965050505050505060405180910390f35b3415610b3257600080fd5b610b48600480803590602001909190505061296f565b604051808873ffffffffffffffffffffffffffffffffffffffff1673ffffffffffffffffffffffffffffffffffffffff1681526020018060200180602001878152602001868152602001858152602001848152602001838103835289818151815260200191508051906020019080838360005b83811015610bd6578082015181840152602081019050610bbb565b50505050905090810190601f168015610c035780820380516001836020036101000a031916815260200191505b50838103825288818151815260200191508051906020019080838360005b83811015610c3c578082015181840152602081019050610c21565b50505050905090810190601f168015610c695780820380516001836020036101000a031916815260200191505b50995050505050505050505060405180910390f35b3415610c8957600080fd5b610c9f6004808035906020019091905050612bdd565b60405180806020018960ff1660ff1681526020018860ff1660ff168152602001806020018773ffffffffffffffffffffffffffffffffffffffff1673ffffffffffffffffffffffffffffffffffffffff1681526020018660ff1660ff1681526020018560ff1660ff1681526020018460ff1660ff16815260200183810383528b818154600181600116156101000203166002900481526020019150805460018160011615610100020316600290048015610d9a5780601f10610d6f57610100808354040283529160200191610d9a565b820191906000526020600020905b815481529060010190602001808311610d7d57829003601f168201915b5050838103825288818154600181600116156101000203166002900481526020019150805460018160011615610100020316600290048015610e1d5780601f10610df257610100808354040283529160200191610e1d565b820191906000526020600020905b815481529060010190602001808311610e0057829003601f168201915b50509a505050505050505050505060405180910390f35b3415610e3f57600080fd5b610e47612c93565b6040518082815260200191505060405180910390f35b600080600080600d600086815260200190815260200160002060000154600d600087815260200190815260200160002060010154600d600088815260200190815260200160002060020154600d60008981526020019081526020016000206003015493509350935093509193509193565b600f5481565b60008060006001600660003373ffffffffffffffffffffffffffffffffffffffff1673ffffffffffffffffffffffffffffffffffffffff16815260200190815260200160002060009054906101000a900460ff1660ff16148015610f5857506000600389815481101515610f4457fe5b906000526020600020906008020160060154145b1515610f6357600080fd5b610f6c876123dd565b90919293949596509091929394955090919293945090919293509091925080935081945082955050505085518361ffff16148015610fae575084518261ffff16145b8015610fbe575083518161ffff16145b156110d45786600389815481101515610fd357fe5b9060005260206000209060080201600701819055506080604051908101604052803373ffffffffffffffffffffffffffffffffffffffff168152602001878152602001868152602001858152506000808a815260200190815260200160002060008201518160000160006101000a81548173ffffffffffffffffffffffffffffffffffffffff021916908373ffffffffffffffffffffffffffffffffffffffff160217905550602082015181600101908051906020019061109592919061316c565b5060408201518160020190805190602001906110b29291906131b9565b5060608201518160030190805190602001906110cf92919061320c565b509050505b5050505050505050565b60066020528060005260406000206000915054906101000a900460ff1681565b6001600660008373ffffffffffffffffffffffffffffffffffffffff1673ffffffffffffffffffffffffffffffffffffffff16815260200190815260200160002060009054906101000a900460ff1660ff1614151561115c57600080fd5b6000600660008373ffffffffffffffffffffffffffffffffffffffff1673ffffffffffffffffffffffffffffffffffffffff16815260200190815260200160002060006101000a81548160ff021916908360ff16021790555050565b6000600660008373ffffffffffffffffffffffffffffffffffffffff1673ffffffffffffffffffffffffffffffffffffffff16815260200190815260200160002060009054906101000a900460ff1660ff1614151561121657600080fd5b6001600660008373ffffffffffffffffffffffffffffffffffffffff1673ffffffffffffffffffffffffffffffffffffffff16815260200190815260200160002060006101000a81548160ff021916908360ff16021790555050565b60028181548110151561128157fe5b90600052602060002090016000915090508054600181600116156101000203166002900480601f0160208091040260200160405190810160405280929190818152602001828054600181600116156101000203166002900480156113265780601f106112fb57610100808354040283529160200191611326565b820191906000526020600020905b81548152906001019060200180831161130957829003601f168201915b505050505081565b60006001600660003373ffffffffffffffffffffffffffffffffffffffff1673ffffffffffffffffffffffffffffffffffffffff16815260200190815260200160002060009054906101000a900460ff1660ff161480156113af5750600160038481548110151561139b57fe5b906000526020600020906008020160060154145b15156113ba57600080fd5b6113c26123d3565b90506113cc612ca0565b600e80548060010182816113e09190613296565b916000526020600020906004020160006080604051908101604052803373ffffffffffffffffffffffffffffffffffffffff1681526020018781526020018660000b815260200142815250909190915060008201518160000160006101000a81548173ffffffffffffffffffffffffffffffffffffffff021916908373ffffffffffffffffffffffffffffffffffffffff160217905550602082015181600101556040820151816002015560608201518160030155505050600760003373ffffffffffffffffffffffffffffffffffffffff1673ffffffffffffffffffffffffffffffffffffffff16815260200190815260200160002080548060010182816114e991906132c8565b91600052602060002090016000839091909150555060096000848152602001908152602001600020805480600101828161152391906132c8565b9160005260206000209001600083909190915055508160000b600b60003373ffffffffffffffffffffffffffffffffffffffff1673ffffffffffffffffffffffffffffffffffffffff16815260200190815260200160002060008581526020019081526020016000208190555060018260000b14156115aa576115a583612cb4565b6115e0565b7fffffffffffffffffffffffffffffffffffffffffffffffffffffffffffffffff8260000b14156115df576115de83612cdc565b5b5b505050565b600280548060010182816115f991906132f4565b91600052602060002090016000606060405190810160405280602881526020017f447261667420666f722064697363757373696f6e2c206d756c7469706c65207681526020017f657273696f6e732e0000000000000000000000000000000000000000000000008152509091909150908051906020019061167b929190613320565b50506002805480600101828161169191906132f4565b916000526020600020900160006040805190810160405280601b81526020017f50656e64696e672d41647669736f727920426f61726420566f74650000000000815250909190915090805190602001906116ec929190613320565b50506002805480600101828161170291906132f4565b91600052602060002090016000606060405190810160405280603981526020017f50656e64696e672d41647669736f727920426f61726420566f7465204163636581526020017f707465642c2070656e64696e67204d656d62657220566f74650000000000000081525090919091509080519060200190611784929190613320565b50506002805480600101828161179a91906132f4565b91600052602060002090016000606060405190810160405280602281526020017f46696e616c2d41647669736f727920426f61726420566f7465204465636c696e81526020017f65640000000000000000000000000000000000000000000000000000000000008152509091909150908051906020019061181c929190613320565b50506002805480600101828161183291906132f4565b91600052602060002090016000606060405190810160405280603c81526020017f46696e616c2d41647669736f727920426f61726420566f74652041636365707481526020017f65642c204d656d62657220566f7465206e6f7420726571756972656400000000815250909190915090805190602001906118b4929190613320565b5050600280548060010182816118ca91906132f4565b91600052602060002090016000606060405190810160405280603881526020017f46696e616c2d41647669736f727920426f61726420566f74652041636365707481526020017f65642c204d656d62657220566f746520416363657074656400000000000000008152509091909150908051906020019061194c929190613320565b50506002805480600101828161196291906132f4565b91600052602060002090016000606060405190810160405280603881526020017f46696e616c2d41647669736f727920426f61726420566f74652041636365707481526020017f65642c204d656d62657220566f7465204465636c696e65640000000000000000815250909190915090805190602001906119e4929190613320565b5050600280548060010182816119fa91906132f4565b91600052602060002090016000608060405190810160405280604381526020017f46696e616c2d41647669736f727920426f61726420566f74652041636365707481526020017f65642c204d656d62657220566f74652051756f72756d206e6f7420416368696581526020017f766564000000000000000000000000000000000000000000000000000000000081525090919091509080519060200190611aa2929190613320565b505060028054806001018281611ab891906132f4565b91600052602060002090016000606060405190810160405280602581526020017f50726f706f73616c2041636365707465642c20496e73756666696369656e742081526020017f46756e647300000000000000000000000000000000000000000000000000000081525090919091509080519060200190611b3a929190613320565b5050565b600080600080600e85815481101515611b5357fe5b906000526020600020906004020160000160009054906101000a900473ffffffffffffffffffffffffffffffffffffffff16600e86815481101515611b9457fe5b906000526020600020906004020160010154600e87815481101515611bb557fe5b906000526020600020906004020160020154600e88815481101515611bd657fe5b90600052602060002090600402016003015493509350935093509193509193565b8760018a815481101515611c0757fe5b90600052602060002090600402016000019080519060200190611c2b929190613320565b508460018a815481101515611c3c57fe5b90600052602060002090600402016002019080519060200190611c60929190613320565b508360018a815481101515611c7157fe5b906000526020600020906004020160030160006101000a81548173ffffffffffffffffffffffffffffffffffffffff021916908373ffffffffffffffffffffffffffffffffffffffff1602179055508260018a815481101515611cd057fe5b906000526020600020906004020160030160146101000a81548160ff021916908360ff1602179055508160018a815481101515611d0957fe5b906000526020600020906004020160030160156101000a81548160ff021916908360ff1602179055508060018a815481101515611d4257fe5b906000526020600020906004020160030160166101000a81548160ff021916908360ff160217905550505050505050505050565b60018054806001018281611d8a91906133a0565b91600052602060002090600402016000610100604051908101604052808c81526020018b60ff1681526020018a60ff1681526020018981526020018873ffffffffffffffffffffffffffffffffffffffff1681526020018760ff1681526020018660ff1681526020018560ff1681525090919091506000820151816000019080519060200190611e1b9291906133d2565b5060208201518160010160006101000a81548160ff021916908360ff16021790555060408201518160010160016101000a81548160ff021916908360ff1602179055506060820151816002019080519060200190611e7a9291906133d2565b5060808201518160030160006101000a81548173ffffffffffffffffffffffffffffffffffffffff021916908373ffffffffffffffffffffffffffffffffffffffff16021790555060a08201518160030160146101000a81548160ff021916908360ff16021790555060c08201518160030160156101000a81548160ff021916908360ff16021790555060e08201518160030160166101000a81548160ff021916908360ff1602179055505050505050505050505050565b600080600660003373ffffffffffffffffffffffffffffffffffffffff1673ffffffffffffffffffffffffffffffffffffffff16815260200190815260200160002060009054906101000a900460ff1660ff16148015611fb257506001600384815481101515611f9e57fe5b906000526020600020906008020160060154145b1515611fbd57600080fd5b611fc56123d3565b9050611fcf612ca0565b600e8054806001018281611fe39190613296565b916000526020600020906004020160006080604051908101604052803373ffffffffffffffffffffffffffffffffffffffff1681526020018781526020018660000b815260200142815250909190915060008201518160000160006101000a81548173ffffffffffffffffffffffffffffffffffffffff021916908373ffffffffffffffffffffffffffffffffffffffff160217905550602082015181600101556040820151816002015560608201518160030155505050600860003373ffffffffffffffffffffffffffffffffffffffff1673ffffffffffffffffffffffffffffffffffffffff16815260200190815260200160002080548060010182816120ec91906132c8565b916000526020600020900160008390919091505550600a6000848152602001908152602001600020805480600101828161212691906132c8565b9160005260206000209001600083909190915055508160000b600c60003373ffffffffffffffffffffffffffffffffffffffff1673ffffffffffffffffffffffffffffffffffffffff16815260200190815260200160002060008581526020019081526020016000208190555060018260000b14156121ad576121a883612d04565b6121e3565b7fffffffffffffffffffffffffffffffffffffffffffffffffffffffffffffffff8260000b14156121e2576121e183612d2c565b5b5b505050565b3373ffffffffffffffffffffffffffffffffffffffff1660038281548110151561220e57fe5b906000526020600020906008020160000160009054906101000a900473ffffffffffffffffffffffffffffffffffffffff1673ffffffffffffffffffffffffffffffffffffffff161415806122845750600060038281548110151561226f57fe5b90600052602060002090600802016006015414155b1561228e57600080fd5b612299816001612d54565b50565b600380548060010182816122b09190613452565b91600052602060002090600802016000610100604051908101604052803373ffffffffffffffffffffffffffffffffffffffff16815260200186815260200185815260200142815260200142815260200160008152602001600081526020016000815250909190915060008201518160000160006101000a81548173ffffffffffffffffffffffffffffffffffffffff021916908373ffffffffffffffffffffffffffffffffffffffff160217905550602082015181600101908051906020019061237c9291906133d2565b5060408201518160020190805190602001906123999291906133d2565b50606082015181600301556080820151816004015560a0820151816005015560c0820151816006015560e082015181600701555050505050565b6000600f54905090565b6123e5613484565b6000806123f0613484565b60008060008060018981548110151561240557fe5b90600052602060002090600402016000018054600181600116156101000203166002900480601f0160208091040260200160405190810160405280929190818152602001828054600181600116156101000203166002900480156124aa5780601f1061247f576101008083540402835291602001916124aa565b820191906000526020600020905b81548152906001019060200180831161248d57829003601f168201915b505050505097506001898154811015156124c057fe5b906000526020600020906004020160010160009054906101000a900460ff1660ff1696506001898154811015156124f357fe5b906000526020600020906004020160010160019054906101000a900460ff1660ff16955060018981548110151561252657fe5b90600052602060002090600402016002018054600181600116156101000203166002900480601f0160208091040260200160405190810160405280929190818152602001828054600181600116156101000203166002900480156125cb5780601f106125a0576101008083540402835291602001916125cb565b820191906000526020600020905b8154815290600101906020018083116125ae57829003601f168201915b505050505094506001898154811015156125e157fe5b906000526020600020906004020160030160009054906101000a900473ffffffffffffffffffffffffffffffffffffffff16935060018981548110151561262457fe5b906000526020600020906004020160030160149054906101000a900460ff1660ff16925060018981548110151561265757fe5b906000526020600020906004020160030160159054906101000a900460ff1660ff16915060018981548110151561268a57fe5b906000526020600020906004020160030160169054906101000a900460ff1660ff169050919395975091939597565b6003838154811015156126c857fe5b906000526020600020906008020160000160009054906101000a900473ffffffffffffffffffffffffffffffffffffffff1673ffffffffffffffffffffffffffffffffffffffff163373ffffffffffffffffffffffffffffffffffffffff1614151561273357600080fd5b61273c83612d6c565b612747838383612fcc565b505050565b6000612756613484565b61275e613484565b6000600460008781526020019081526020016000208581548110151561278057fe5b90600052602060002090600402016000015460046000888152602001908152602001600020868154811015156127b257fe5b906000526020600020906004020160010160046000898152602001908152602001600020878154811015156127e357fe5b9060005260206000209060040201600201600460008a81526020019081526020016000208881548110151561281457fe5b906000526020600020906004020160030154828054600181600116156101000203166002900480601f0160208091040260200160405190810160405280929190818152602001828054600181600116156101000203166002900480156128bb5780601f10612890576101008083540402835291602001916128bb565b820191906000526020600020905b81548152906001019060200180831161289e57829003601f168201915b50505050509250818054600181600116156101000203166002900480601f0160208091040260200160405190810160405280929190818152602001828054600181600116156101000203166002900480156129575780601f1061292c57610100808354040283529160200191612957565b820191906000526020600020905b81548152906001019060200180831161293a57829003601f168201915b50505050509150935093509350935092959194509250565b6000612979613484565b612981613484565b60008060008060038881548110151561299657fe5b906000526020600020906008020160000160009054906101000a900473ffffffffffffffffffffffffffffffffffffffff166003898154811015156129d757fe5b906000526020600020906008020160010160038a8154811015156129f757fe5b906000526020600020906008020160020160038b815481101515612a1757fe5b90600052602060002090600802016003015460038c815481101515612a3857fe5b90600052602060002090600802016004015460038d815481101515612a5957fe5b90600052602060002090600802016005015460038e815481101515612a7a57fe5b906000526020600020906008020160060154858054600181600116156101000203166002900480601f016020809104026020016040519081016040528092919081815260200182805460018160011615610100020316600290048015612b215780601f10612af657610100808354040283529160200191612b21565b820191906000526020600020905b815481529060010190602001808311612b0457829003601f168201915b50505050509550848054600181600116156101000203166002900480601f016020809104026020016040519081016040528092919081815260200182805460018160011615610100020316600290048015612bbd5780601f10612b9257610100808354040283529160200191612bbd565b820191906000526020600020905b815481529060010190602001808311612ba057829003601f168201915b505050505094509650965096509650965096509650919395979092949650565b600181815481101515612bec57fe5b906000526020600020906004020160009150905080600001908060010160009054906101000a900460ff16908060010160019054906101000a900460ff169080600201908060030160009054906101000a900473ffffffffffffffffffffffffffffffffffffffff16908060030160149054906101000a900460ff16908060030160159054906101000a900460ff16908060030160169054906101000a900460ff16905088565b6000600180549050905090565b600f60008154809291906001019190505550565b6001600d60008381526020019081526020016000206000016000828254019250508190555050565b6001600d60008381526020019081526020016000206001016000828254019250508190555050565b6001600d60008381526020019081526020016000206002016000828254019250508190555050565b6001600d60008381526020019081526020016000206003016000828254019250508190555050565b612d5e82826130b4565b612d68828261311e565b5050565b600460008281526020019081526020016000208054806001018281612d919190613498565b91600052602060002090600402016000608060405190810160405280600386815481101515612dbc57fe5b9060005260206000209060080201600501548152602001600386815481101515612de257fe5b90600052602060002090600802016001018054600181600116156101000203166002900480601f016020809104026020016040519081016040528092919081815260200182805460018160011615610100020316600290048015612e875780601f10612e5c57610100808354040283529160200191612e87565b820191906000526020600020905b815481529060010190602001808311612e6a57829003601f168201915b50505050508152602001600386815481101515612ea057fe5b90600052602060002090600802016002018054600181600116156101000203166002900480601f016020809104026020016040519081016040528092919081815260200182805460018160011615610100020316600290048015612f455780601f10612f1a57610100808354040283529160200191612f45565b820191906000526020600020905b815481529060010190602001808311612f2857829003601f168201915b50505050508152602001600386815481101515612f5e57fe5b9060005260206000209060080201600301548152509091909150600082015181600001556020820151816001019080519060200190612f9e9291906133d2565b506040820151816002019080519060200190612fbb9291906133d2565b506060820151816003015550505050565b81600384815481101515612fdc57fe5b90600052602060002090600802016001019080519060200190613000929190613320565b508060038481548110151561301157fe5b90600052602060002090600802016002019080519060200190613035929190613320565b504260038481548110151561304657fe5b9060005260206000209060080201600401819055504260038481548110151561306b57fe5b906000526020600020906008020160030181905550600160038481548110151561309157fe5b906000526020600020906008020160050160008282540192505081905550505050565b6005600083815260200190815260200160002080548060010182816130d991906134ca565b91600052602060002090600202016000604080519081016040528085815260200142815250909190915060008201518160000155602082015181600101555050505050565b8060038381548110151561312e57fe5b9060005260206000209060080201600601819055504260038381548110151561315357fe5b9060005260206000209060080201600401819055505050565b8280548282559060005260206000209081019282156131a8579160200282015b828111156131a757825182559160200191906001019061318c565b5b5090506131b591906134fc565b5090565b8280548282559060005260206000209081019282156131fb579160200282015b828111156131fa5782518290600019169055916020019190600101906131d9565b5b5090506132089190613521565b5090565b828054828255906000526020600020908101928215613285579160200282015b828111156132845782518260006101000a81548173ffffffffffffffffffffffffffffffffffffffff021916908373ffffffffffffffffffffffffffffffffffffffff1602179055509160200191906001019061322c565b5b5090506132929190613546565b5090565b8154818355818115116132c3576004028160040283600052602060002091820191016132c29190613589565b5b505050565b8154818355818115116132ef578183600052602060002091820191016132ee91906134fc565b5b505050565b81548183558181151161331b5781836000526020600020918201910161331a91906135e7565b5b505050565b828054600181600116156101000203166002900490600052602060002090601f016020900481019282601f1061336157805160ff191683800117855561338f565b8280016001018555821561338f579182015b8281111561338e578251825591602001919060010190613373565b5b50905061339c91906134fc565b5090565b8154818355818115116133cd576004028160040283600052602060002091820191016133cc9190613613565b5b505050565b828054600181600116156101000203166002900490600052602060002090601f016020900481019282601f1061341357805160ff1916838001178555613441565b82800160010185558215613441579182015b82811115613440578251825591602001919060010190613425565b5b50905061344e91906134fc565b5090565b81548183558181151161347f5760080281600802836000526020600020918201910161347e91906136dd565b5b505050565b602060405190810160405280600081525090565b8154818355818115116134c5576004028160040283600052602060002091820191016134c4919061376b565b5b505050565b8154818355818115116134f7576002028160020283600052602060002091820191016134f691906137ba565b5b505050565b61351e91905b8082111561351a576000816000905550600101613502565b5090565b90565b61354391905b8082111561353f576000816000905550600101613527565b5090565b90565b61358691905b8082111561358257600081816101000a81549073ffffffffffffffffffffffffffffffffffffffff02191690555060010161354c565b5090565b90565b6135e491905b808211156135e057600080820160006101000a81549073ffffffffffffffffffffffffffffffffffffffff02191690556001820160009055600282016000905560038201600090555060040161358f565b5090565b90565b61361091905b8082111561360c576000818161360391906137e9565b506001016135ed565b5090565b90565b6136da91905b808211156136d6576000808201600061363291906137e9565b6001820160006101000a81549060ff02191690556001820160016101000a81549060ff021916905560028201600061366a91906137e9565b6003820160006101000a81549073ffffffffffffffffffffffffffffffffffffffff02191690556003820160146101000a81549060ff02191690556003820160156101000a81549060ff02191690556003820160166101000a81549060ff021916905550600401613619565b5090565b90565b61376891905b8082111561376457600080820160006101000a81549073ffffffffffffffffffffffffffffffffffffffff021916905560018201600061372391906137e9565b60028201600061373391906137e9565b60038201600090556004820160009055600582016000905560068201600090556007820160009055506008016136e3565b5090565b90565b6137b791905b808211156137b35760008082016000905560018201600061379291906137e9565b6002820160006137a291906137e9565b600382016000905550600401613771565b5090565b90565b6137e691905b808211156137e2576000808201600090556001820160009055506002016137c0565b5090565b90565b50805460018160011615610100020316600290046000825580601f1061380f575061382e565b601f01602090049060005260206000209081019061382d91906134fc565b5b505600a165627a7a72305820e62a61c6b622769d1c7afeeab4486b2ae482bfd97a6d718234552b758fed15ae0029",
  "source": "/* Copyright (C) 2017 NexusMutual.io\r\n\r\n  This program is free software: you can redistribute it and/or modify\r\n    it under the terms of the GNU General Public License as published by\r\n    the Free Software Foundation, either version 3 of the License, or\r\n    (at your option) any later version.\r\n\r\n  This program is distributed in the hope that it will be useful,\r\n    but WITHOUT ANY WARRANTY; without even the implied warranty of\r\n    MERCHANTABILITY or FITNESS FOR A PARTICULAR PURPOSE.  See the\r\n    GNU General Public License for more details.\r\n\r\n  You should have received a copy of the GNU General Public License\r\n    along with this program.  If not, see http://www.gnu.org/licenses/ */\r\n\r\n\r\npragma solidity ^0.4.8;\r\n\r\ncontract testData {\r\n\r\n    struct proposal{\r\n        address owner;\r\n        string shortDesc;\r\n        string longDesc;\r\n        uint date_add;\r\n        uint date_upd;\r\n        uint versionNum;\r\n        uint status;  \r\n        uint category;\r\n    }\r\n    struct proposalCategory{\r\n        address categorizedBy;\r\n        uint[] paramInt;\r\n        bytes32[] paramBytes32;\r\n        address[] paramAddress;\r\n    }\r\n    struct proposalVersionData{\r\n        uint versionNum;\r\n        string shortDesc;\r\n        string longDesc;\r\n        uint date_add;\r\n    }\r\n    struct Status{\r\n        uint movedTo;\r\n        uint date;\r\n    }\r\n\r\n    struct category{\r\n        string categoryName;\r\n        uint8 memberVoteRequired;\r\n        uint8 majorityVote;\r\n        string functionName;\r\n        address contractAt;\r\n        uint8 paramInt;\r\n        uint8 paramBytes32;\r\n        uint8 paramAddress;      \r\n    }\r\n     struct proposalVote {\r\n        address voter;\r\n        uint proposalId;\r\n        int verdict;\r\n        uint dateSubmit;\r\n    }\r\n\r\n    struct VoteCount {\r\n        uint acceptABvote;\r\n        uint denyABvote;\r\n        uint acceptMemberVote;\r\n        uint denyMemberVote;\r\n    } \r\n\r\n    mapping(uint=>proposalCategory) allProposalCategory;\r\n    category[] public allCategory;\r\n    string[] public status;\r\n    proposal[] allProposal;\r\n    mapping(uint=>proposalVersionData[]) proposalVersions;\r\n    mapping (uint=>Status[]) proposalStatus;\r\n    mapping (address=>uint8) public advisoryBoardMembers;\r\n\r\n    // NEW\r\n    mapping (address=>uint[])  userAdvisoryBoardVote; /// Maps the given vote Id against the given Advisory board member's address\r\n    mapping (address=>uint[])  userMemberVote; /// Maps the given vote Id against the given member's address.\r\n    mapping (uint=>uint[])  proposalAdvisoryBoardVote;  /// Adds the given voter Id(AB) against the given Proposal's Id\r\n    mapping (uint=>uint[])  proposalMemberVote; /// Adds the given voter Id(Member) against the given Proposal's Id\r\n    mapping (address=>mapping(uint=>int))  userProposalAdvisoryBoardVote; /// Records a members vote on a given proposal id as an AB member.\r\n    mapping (address=>mapping(uint=>int))  userProposalMemberVote; /// Records a members vote on a given proposal id.\r\n    mapping (uint=>VoteCount)  proposalVoteCount;\r\n    proposalVote[] allVotes;\r\n    uint public totalVotes;\r\n\r\n    /// @dev Gets the total number of categories.\r\n    function getCategoriesLength() constant returns (uint length){\r\n        length = allCategory.length;\r\n    }\r\n\r\n    /// @dev Gets the total number of votes given till date.\r\n    function getTotalVotes() public constant returns(uint voteLength)\r\n    {\r\n        voteLength = totalVotes;\r\n    }\r\n\r\n    /// @dev Increases the number of votes by 1.\r\n    function increaseTotalVotes() internal\r\n    {\r\n        totalVotes++;\r\n    }\r\n\r\n\r\n    /// @dev Changes the status of a given proposal to open it for voting.\r\n    function changeProposalVotingStatus(uint _id)\r\n    {\r\n        if(allProposal[_id].owner != msg.sender || allProposal[_id].status !=0) throw;\r\n        changeProposalStatus(_id,1);\r\n        // closeProposalOraclise(id,gd1.getClosingTime());\r\n    }\r\n\r\n    /// @dev Registers an Advisroy Board Member's vote for Proposal. _id is proposal id..\r\n    function proposalVoteByABmember(uint _proposalId , int8 _verdict) public\r\n    {\r\n        require(advisoryBoardMembers[msg.sender]==1 && allProposal[_proposalId].status == 1);\r\n        uint votelength = getTotalVotes();\r\n        increaseTotalVotes();\r\n        allVotes.push(proposalVote(msg.sender,_proposalId,_verdict,now)); \r\n        userAdvisoryBoardVote[msg.sender].push(votelength); \r\n        proposalAdvisoryBoardVote[_proposalId].push(votelength);\r\n        userProposalAdvisoryBoardVote[msg.sender][_proposalId]=_verdict;\r\n\r\n        if(_verdict==1)\r\n            proposalABacceptVote(_proposalId);\r\n        else if(_verdict==-1)\r\n            proposalABdenyVote(_proposalId);\r\n    }\r\n\r\n    /// @dev Registers an User Member's vote for Proposal. _id is proposal id...\r\n    function proposalVoteByMember(uint _proposalId , int8 _verdict) public\r\n    {\r\n        require(advisoryBoardMembers[msg.sender]==0 && allProposal[_proposalId].status == 1);  \r\n        uint votelength = getTotalVotes();\r\n        increaseTotalVotes();\r\n        allVotes.push(proposalVote(msg.sender,_proposalId,_verdict,now)); \r\n        userMemberVote[msg.sender].push(votelength); \r\n        proposalMemberVote[_proposalId].push(votelength);\r\n        userProposalMemberVote[msg.sender][_proposalId]=_verdict;\r\n\r\n        if(_verdict==1)\r\n            proposalMemberAcceptVote(_proposalId);\r\n        else if(_verdict==-1)\r\n            proposalMemberDenyVote(_proposalId);\r\n    }\r\n\r\n    /// @dev Increases the proposal's accept vote count, called when proposal is accepted by an Advisory board member.\r\n    function proposalABacceptVote(uint _proposalId) internal\r\n    {\r\n        proposalVoteCount[_proposalId].acceptABvote +=1;\r\n    }\r\n\r\n    /// @dev Increases the proposal's deny vote count, called when proposal is denied by an Advisory board member.\r\n    function proposalABdenyVote(uint _proposalId) internal\r\n    {\r\n        proposalVoteCount[_proposalId].denyABvote +=1;\r\n    }\r\n\r\n    /// @dev Increases the proposal's accept vote count, called when proposal is accepted by a member.\r\n    function proposalMemberAcceptVote(uint _proposalId) internal\r\n    {\r\n        proposalVoteCount[_proposalId].acceptMemberVote +=1;\r\n    }\r\n\r\n    /// @dev Increases the proposal's deny vote count, called when proposal is denied by a member.   \r\n    function proposalMemberDenyVote(uint _proposalId) internal\r\n    {\r\n        proposalVoteCount[_proposalId].denyMemberVote +=1;\r\n    }\r\n\r\n    /// @dev Provides Vote details of a given vote id. \r\n    function getVoteDetailByid(uint _voteid) public constant returns( address voter,uint proposalId,int verdict,uint dateSubmit)\r\n    {\r\n        return(allVotes[_voteid].voter,allVotes[_voteid].proposalId,allVotes[_voteid].verdict,allVotes[_voteid].dateSubmit);\r\n    }\r\n\r\n    /// @dev Gets the number of votes received against a given proposal.\r\n    function getProposalVoteCount(uint _proposalid) constant returns(uint acceptABvote,uint denyABvote,uint MemberAccept,uint MemberDeny)\r\n    {\r\n        return(proposalVoteCount[_proposalid].acceptABvote,proposalVoteCount[_proposalid].denyABvote,proposalVoteCount[_proposalid].acceptMemberVote,proposalVoteCount[_proposalid].denyMemberVote);\r\n    }\r\n\r\n\r\n    ///NEW\r\n\r\n\r\n    /// @dev Creates a new proposal \r\n    function addNewProposal(string _shortDesc,string _longDesc) public\r\n    {\r\n        allProposal.push(proposal(msg.sender,_shortDesc,_longDesc,now,now,0,0,0));\r\n    }\r\n\r\n    /// @dev Fetch details of proposal by giving proposal Id\r\n    function getProposalDetailsById(uint _id) public constant returns (address owner,string shortDesc,string longDesc,uint date_add,uint date_upd,uint versionNum,uint status)\r\n    {\r\n        return (allProposal[_id].owner,allProposal[_id].shortDesc,allProposal[_id].longDesc,allProposal[_id].date_add,allProposal[_id].date_upd,allProposal[_id].versionNum,allProposal[_id].status);\r\n    }\r\n      \r\n    /// @dev Edits a proposal and Only owner of a proposal can edit it.\r\n    function editProposal(uint _id , string _shortDesc, string _longDesc) public\r\n    {\r\n        require(msg.sender == allProposal[_id].owner);\r\n        {\r\n            storeProposalVersion(_id);\r\n            updateProposal(_id,_shortDesc,_longDesc);\r\n        }\r\n    }\r\n\r\n    /// @dev Stores the information of a given version number of a given proposal. Maintains the record of all the versions of a proposal.\r\n    function storeProposalVersion(uint _id) internal \r\n    {\r\n        proposalVersions[_id].push(proposalVersionData(allProposal[_id].versionNum,allProposal[_id].shortDesc,allProposal[_id].longDesc,allProposal[_id].date_add));            \r\n    }\r\n\r\n    /// @dev Edits the details of an existing proposal and creates new version.\r\n    function updateProposal(uint _id,string _shortDesc,string _longDesc) private\r\n    {\r\n        allProposal[_id].shortDesc = _shortDesc;\r\n        allProposal[_id].longDesc = _longDesc;\r\n        allProposal[_id].date_upd = now;\r\n        allProposal[_id].date_add = now;\r\n        allProposal[_id].versionNum += 1;\r\n    }\r\n\r\n    /// @dev Gets version details of a given proposal id.\r\n    function getProposalDetailsByIdAndVersion(uint _id,uint _versionNum) public constant returns( uint versionNum,string shortDesc,string longDesc,uint date_add)\r\n    {\r\n       return (proposalVersions[_id][_versionNum].versionNum,proposalVersions[_id][_versionNum].shortDesc,proposalVersions[_id][_versionNum].longDesc,proposalVersions[_id][_versionNum].date_add);\r\n    }\r\n\r\n    /// @dev Changes the status of a given proposal.\r\n    function changeProposalStatus(uint _id,uint _status) internal\r\n    {\r\n        pushInProposalStatus(_id,_status);\r\n        updateProposalStatus(_id,_status);\r\n    }\r\n\r\n    /// @dev Adds status names in array - Not generic right now\r\n    function addStatus() public\r\n    {   \r\n        status.push(\"Draft for discussion, multiple versions.\");\r\n        status.push(\"Pending-Advisory Board Vote\");\r\n        status.push(\"Pending-Advisory Board Vote Accepted, pending Member Vote\");\r\n        status.push(\"Final-Advisory Board Vote Declined\");\r\n        status.push(\"Final-Advisory Board Vote Accepted, Member Vote not required\");\r\n        status.push(\"Final-Advisory Board Vote Accepted, Member Vote Accepted\");\r\n        status.push(\"Final-Advisory Board Vote Accepted, Member Vote Declined\");\r\n        status.push(\"Final-Advisory Board Vote Accepted, Member Vote Quorum not Achieved\");\r\n        status.push(\"Proposal Accepted, Insufficient Funds\");\r\n    }\r\n   \r\n\r\n    /// @dev Updates  status of an existing proposal.\r\n    function updateProposalStatus(uint _id ,uint _status) internal\r\n    {\r\n        allProposal[_id].status = _status;\r\n        allProposal[_id].date_upd =now;\r\n    }\r\n\r\n    /// @dev Stores the status information of a given proposal.\r\n    function pushInProposalStatus(uint _id , uint _status) internal\r\n    {\r\n        proposalStatus[_id].push(Status(_status,now));\r\n    }\r\n\r\n    /// @dev Adds a new category.\r\n    function addNewCategory(string _categoryName,uint8 _memberVoteRequired,uint8 _majorityVote,string _functionName,address _contractAt,uint8 _paramInt,uint8 _paramBytes32,uint8 _paramAddress) public\r\n    {\r\n        allCategory.push(category(_categoryName,_memberVoteRequired,_majorityVote,_functionName,_contractAt,_paramInt,_paramBytes32,_paramAddress));\r\n    }\r\n\r\n    /// @dev Gets category details by category id.\r\n    function getCategoryDetails(uint _categoryId) public constant returns (string categoryName,uint64 memberVoteRequired,uint16 majorityVote,string functionName,address contractAt,uint16 paramInt,uint16 paramBytes32,uint16 paramAddress)\r\n    {    \r\n        categoryName = allCategory[_categoryId].categoryName;\r\n        memberVoteRequired = allCategory[_categoryId].memberVoteRequired;\r\n        majorityVote = allCategory[_categoryId].majorityVote;\r\n        functionName = allCategory[_categoryId].functionName;\r\n        contractAt = allCategory[_categoryId].contractAt;\r\n        paramInt = allCategory[_categoryId].paramInt;\r\n        paramBytes32 = allCategory[_categoryId].paramBytes32;\r\n        paramAddress = allCategory[_categoryId].paramAddress;\r\n    } \r\n\r\n    function updateCategory(uint _categoryId,string _categoryName,uint64 _memberVoteRequired,uint16 _majorityVote,string _functionName,address _contractAt,uint8 _paramInt,uint8 _paramBytes32,uint8 _paramAddress) public\r\n    {\r\n        allCategory[_categoryId].categoryName = _categoryName;\r\n        allCategory[_categoryId].functionName = _functionName;\r\n        allCategory[_categoryId].contractAt = _contractAt;\r\n        allCategory[_categoryId].paramInt = _paramInt;\r\n        allCategory[_categoryId].paramBytes32 = _paramBytes32; \r\n        allCategory[_categoryId].paramAddress = _paramAddress; \r\n    }\r\n\r\n    function categorizeProposal(uint _id , uint _categoryId,uint[] _paramInt,bytes32[] _paramBytes32,address[] _paramAddress) public\r\n    {\r\n        require(advisoryBoardMembers[msg.sender]==1 && allProposal[_id].status == 0);\r\n        uint16 paramInt; uint16 paramBytes32; uint16 paramAddress;\r\n        (,,,,,paramInt,paramBytes32,paramAddress) = getCategoryDetails(_categoryId);\r\n        if(paramInt == _paramInt.length && paramBytes32 == _paramBytes32.length && paramAddress == _paramAddress.length)\r\n        {\r\n            allProposal[_id].category = _categoryId;\r\n            allProposalCategory[_id]=proposalCategory(msg.sender,_paramInt,_paramBytes32,_paramAddress);\r\n        } \r\n    }\r\n\r\n    /// @dev Adds a given address as an advisory board member.\r\n    function joinAdvisoryBoard(address _memberAddress) public\r\n    {\r\n        require(advisoryBoardMembers[_memberAddress]==0);\r\n        advisoryBoardMembers[_memberAddress] = 1;\r\n    }\r\n\r\n    /// @dev Removes a given address from the advisory board.\r\n    function removeAdvisoryBoard(address _memberAddress) public\r\n    {\r\n        require(advisoryBoardMembers[_memberAddress]==1);\r\n        advisoryBoardMembers[_memberAddress] = 0;\r\n    }\r\n\r\n}  \r\n\r\n\r\n",
  "sourcePath": "D:\\GovBlocks\\CGP\\contracts\\governanceData.sol",
  "compiler": {
    "name": "solc",
    "version": "0.4.18+commit.9cf6e910.Emscripten.clang"
  },
  "schemaVersion": "1.0.1",
  "updatedAt": "2017-11-06T13:33:35.119Z"
}