{
  "contractName": "GenerateGOV",
  "abi": [
    {
      "constant": true,
      "inputs": [
        {
          "name": "_gbUserName",
          "type": "bytes32"
        }
      ],
      "name": "getAddress",
      "outputs": [
        {
          "name": "",
          "type": "address"
        }
      ],
      "payable": false,
      "stateMutability": "view",
      "type": "function"
    },
    {
      "constant": false,
      "inputs": [
        {
          "name": "_gbUserName",
          "type": "bytes32"
        }
      ],
      "name": "GenerateContract",
      "outputs": [],
      "payable": false,
      "stateMutability": "nonpayable",
      "type": "function"
    }
  ],
  "bytecode": "0x6060604052341561000f57600080fd5b619d1c8061001e6000396000f30060606040526004361061004c576000357c0100000000000000000000000000000000000000000000000000000000900463ffffffff16806321f8a72114610051578063fba8be1b146100b8575b600080fd5b341561005c57600080fd5b6100766004808035600019169060200190919050506100df565b604051808273ffffffffffffffffffffffffffffffffffffffff1673ffffffffffffffffffffffffffffffffffffffff16815260200191505060405180910390f35b34156100c357600080fd5b6100dd600480803560001916906020019091905050610123565b005b6000806000836000191660001916815260200190815260200160002060009054906101000a900473ffffffffffffffffffffffffffffffffffffffff169050919050565b61012b61019c565b604051809103906000f080151561014157600080fd5b600080836000191660001916815260200190815260200160002060006101000a81548173ffffffffffffffffffffffffffffffffffffffff021916908373ffffffffffffffffffffffffffffffffffffffff16021790555050565b604051619b44806101ad833901905600606060405234156200001057600080fd5b619b2480620000206000396000f300606060405260043610610180576000357c0100000000000000000000000000000000000000000000000000000000900463ffffffff16806309b3884f1461018557806317394344146102065780632029d5a0146102535780632fbf5c681461027f57806335f527fa146102b6578063394ecca2146103115780633cfe9b4c1461039f578063461e72af146103e65780634d2917bf1461041e5780635a2ae7b51461046b5780635b129875146104c657806367bf5d0c1461055057806370395612146105b157806383fd09541461062a5780639664f51b1461068c57806398b99d4f1461071a5780639f7320891461075f578063a2fe730314610794578063a96d0c091461080f578063ad5dd03b146108a4578063bded379f14610974578063bfae217214610a58578063cd25becd14610abe578063d46655f414610b05578063e5975e7514610b3e578063e6ead00714610b84578063e7030a6714610bd1578063ebd0e31314610be6578063eecedcb014610c12578063f88c616b14610c4b575b600080fd5b610204600480803590602001909190803590602001908201803590602001908080601f0160208091040260200160405190810160405280939291908181526020018383808284378201915050505050509190803560ff169060200190919080356000191690602001909190803560001916906020019091905050610c98565b005b341561021157600080fd5b61023d600480803573ffffffffffffffffffffffffffffffffffffffff16906020019091905050610d5c565b6040518082815260200191505060405180910390f35b341561025e57600080fd5b61027d6004808035906020019091908035906020019091905050610f1d565b005b341561028a57600080fd5b6102a06004808035906020019091905050611097565b6040518082815260200191505060405180910390f35b34156102c157600080fd5b61030f600480803590602001909190803590602001909190803590602001909190803560ff169060200190919080356000191690602001909190803560001916906020019091905050611228565b005b341561031c57600080fd5b610348600480803573ffffffffffffffffffffffffffffffffffffffff16906020019091905050611e8f565b6040518080602001828103825283818151815260200191508051906020019060200280838360005b8381101561038b578082015181840152602081019050610370565b505050509050019250505060405180910390f35b6103e4600480803590602001909190803590602001909190803560ff1690602001909190803560001916906020019091908035600019169060200190919050506120a7565b005b34156103f157600080fd5b61041c600480803590602001909190803560ff1690602001909190803590602001909190505061216b565b005b341561042957600080fd5b610455600480803573ffffffffffffffffffffffffffffffffffffffff169060200190919050506126f8565b6040518082815260200191505060405180910390f35b341561047657600080fd5b6104a2600480803573ffffffffffffffffffffffffffffffffffffffff16906020019091905050612990565b60405180848152602001838152602001828152602001935050505060405180910390f35b34156104d157600080fd5b61051e600480803590602001908201803590602001908080602002602001604051908101604052809392919081815260200183836020028082843782019150505050505091905050612dbe565b604051808681526020018581526020018481526020018381526020018281526020019550505050505060405180910390f35b341561055b57600080fd5b6105af60048080357bffffffffffffffffffffffffffffffffffffffffffffffffffffffff191690602001909190803573ffffffffffffffffffffffffffffffffffffffff16906020019091905050612fbf565b005b34156105bc57600080fd5b6105f1600480803573ffffffffffffffffffffffffffffffffffffffff1690602001909190803590602001909190505061338b565b60405180878152602001868152602001858152602001848152602001838152602001828152602001965050505050505060405180910390f35b341561063557600080fd5b610661600480803573ffffffffffffffffffffffffffffffffffffffff16906020019091905050613842565b6040518085815260200184815260200183815260200182815260200194505050505060405180910390f35b341561069757600080fd5b6106c3600480803573ffffffffffffffffffffffffffffffffffffffff16906020019091905050613958565b6040518080602001828103825283818151815260200191508051906020019060200280838360005b838110156107065780820151818401526020810190506106eb565b505050509050019250505060405180910390f35b341561072557600080fd5b61072d613b84565b604051808681526020018581526020018481526020018381526020018281526020019550505050505060405180910390f35b341561076a57600080fd5b6107926004808035906020019091908035906020019091908035906020019091905050613d6b565b005b341561079f57600080fd5b61080d600480803590602001908201803590602001908080601f0160208091040260200160405190810160405280939291908181526020018383808284378201915050505050509190803590602001909190803560ff1690602001909190803590602001909190505061401c565b005b341561081a57600080fd5b6108a2600480803590602001909190803590602001909190803590602001908201803590602001908080601f0160208091040260200160405190810160405280939291908181526020018383808284378201915050505050509190803560ff16906020019091908035600019169060200190919080356000191690602001909190505061460c565b005b610972600480803590602001908201803590602001908080601f0160208091040260200160405190810160405280939291908181526020018383808284378201915050505050509190803590602001909190803560ff1690602001909190803590602001908201803590602001908080601f0160208091040260200160405190810160405280939291908181526020018383808284378201915050505050509190803560ff169060200190919080356000191690602001909190803560001916906020019091905050614a19565b005b341561097f57600080fd5b610a56600480803590602001908201803590602001908080601f0160208091040260200160405190810160405280939291908181526020018383808284378201915050505050509190803590602001909190803560ff1690602001909190803590602001909190803590602001908201803590602001908080601f0160208091040260200160405190810160405280939291908181526020018383808284378201915050505050509190803560ff169060200190919080356000191690602001909190803560001916906020019091905050614ae1565b005b3415610a6357600080fd5b610abc600480803590602001909190803590602001908201803590602001908080601f01602080910402602001604051908101604052809392919081815260200183838082843782019150505050505091905050614d57565b005b3415610ac957600080fd5b610b03600480803590602001909190803560ff1690602001909190803560ff1690602001909190803560ff16906020019091905050615072565b005b3415610b1057600080fd5b610b3c600480803573ffffffffffffffffffffffffffffffffffffffff16906020019091905050615487565b005b3415610b4957600080fd5b610b6860048080359060200190919080359060200190919050506157fd565b604051808260ff1660ff16815260200191505060405180910390f35b3415610b8f57600080fd5b610bbb600480803573ffffffffffffffffffffffffffffffffffffffff16906020019091905050615966565b6040518082815260200191505060405180910390f35b3415610bdc57600080fd5b610be4615a97565b005b3415610bf157600080fd5b610c106004808035906020019091908035906020019091905050615ee0565b005b3415610c1d57600080fd5b610c49600480803573ffffffffffffffffffffffffffffffffffffffff16906020019091905050616e3f565b005b3415610c5657600080fd5b610c82600480803573ffffffffffffffffffffffffffffffffffffffff16906020019091905050616edf565b6040518082815260200191505060405180910390f35b6000600260009054906101000a900473ffffffffffffffffffffffffffffffffffffffff1673ffffffffffffffffffffffffffffffffffffffff1663a4821719346000604051602001526040518263ffffffff167c01000000000000000000000000000000000000000000000000000000000281526004016020604051808303818588803b1515610d2857600080fd5b6125ee5a03f11515610d3957600080fd5b50505050604051805190509050610d5486828787878761460c565b505050505050565b6000806000600660009054906101000a900473ffffffffffffffffffffffffffffffffffffffff1673ffffffffffffffffffffffffffffffffffffffff16638263a9386000604051602001526040518163ffffffff167c0100000000000000000000000000000000000000000000000000000000028152600401602060405180830381600087803b1515610def57600080fd5b6102c65a03f11515610e0057600080fd5b505050604051805190509150600090505b81811015610f1657600660009054906101000a900473ffffffffffffffffffffffffffffffffffffffff1673ffffffffffffffffffffffffffffffffffffffff166317826ac4826000604051602001526040518263ffffffff167c010000000000000000000000000000000000000000000000000000000002815260040180828152602001915050602060405180830381600087803b1515610eb257600080fd5b6102c65a03f11515610ec357600080fd5b5050506040518051905073ffffffffffffffffffffffffffffffffffffffff168473ffffffffffffffffffffffffffffffffffffffff161415610f095782806001019350505b8080600101915050610e11565b5050919050565b600160009054906101000a900473ffffffffffffffffffffffffffffffffffffffff16600360006101000a81548173ffffffffffffffffffffffffffffffffffffffff021916908373ffffffffffffffffffffffffffffffffffffffff16021790555060011515600360009054906101000a900473ffffffffffffffffffffffffffffffffffffffff1673ffffffffffffffffffffffffffffffffffffffff16638f16c41c336000604051602001526040518263ffffffff167c0100000000000000000000000000000000000000000000000000000000028152600401808273ffffffffffffffffffffffffffffffffffffffff1673ffffffffffffffffffffffffffffffffffffffff168152602001915050602060405180830381600087803b151561104957600080fd5b6102c65a03f1151561105a57600080fd5b50505060405180519050151514151561107257600080fd5b600161107e83836170af565b60ff161415611093576110928260006175cd565b5b5050565b6000806000600460009054906101000a900473ffffffffffffffffffffffffffffffffffffffff1673ffffffffffffffffffffffffffffffffffffffff1663ed4aef526000604051602001526040518163ffffffff167c0100000000000000000000000000000000000000000000000000000000028152600401602060405180830381600087803b151561112a57600080fd5b6102c65a03f1151561113b57600080fd5b505050604051805190509150600090505b8181101561122157600660009054906101000a900473ffffffffffffffffffffffffffffffffffffffff1673ffffffffffffffffffffffffffffffffffffffff1663296569cf85836000604051602001526040518363ffffffff167c01000000000000000000000000000000000000000000000000000000000281526004018083815260200182815260200192505050602060405180830381600087803b15156111f557600080fd5b6102c65a03f1151561120657600080fd5b5050506040518051905083019250808060010191505061114c565b5050919050565b6000806000806000600660009054906101000a900473ffffffffffffffffffffffffffffffffffffffff1673ffffffffffffffffffffffffffffffffffffffff1663401853b78c6000604051602001526040518263ffffffff167c010000000000000000000000000000000000000000000000000000000002815260040180828152602001915050602060405180830381600087803b15156112c957600080fd5b6102c65a03f115156112da57600080fd5b50505060405180519050141580156113a557506002600660009054906101000a900473ffffffffffffffffffffffffffffffffffffffff1673ffffffffffffffffffffffffffffffffffffffff1663401853b78c6000604051602001526040518263ffffffff167c010000000000000000000000000000000000000000000000000000000002815260040180828152602001915050602060405180830381600087803b151561138857600080fd5b6102c65a03f1151561139957600080fd5b50505060405180519050105b801561148f57503373ffffffffffffffffffffffffffffffffffffffff16600660009054906101000a900473ffffffffffffffffffffffffffffffffffffffff1673ffffffffffffffffffffffffffffffffffffffff166317826ac48c6000604051602001526040518263ffffffff167c010000000000000000000000000000000000000000000000000000000002815260040180828152602001915050602060405180830381600087803b151561145c57600080fd5b6102c65a03f1151561146d57600080fd5b5050506040518051905073ffffffffffffffffffffffffffffffffffffffff16145b151561149a57600080fd5b600560009054906101000a900473ffffffffffffffffffffffffffffffffffffffff1673ffffffffffffffffffffffffffffffffffffffff166354dacca78a6000604051602001526040518263ffffffff167c010000000000000000000000000000000000000000000000000000000002815260040180828152602001915050602060405180830381600087803b151561153357600080fd5b6102c65a03f1151561154457600080fd5b5050506040518051905060ff1688111580156116165750600560009054906101000a900473ffffffffffffffffffffffffffffffffffffffff1673ffffffffffffffffffffffffffffffffffffffff166373f231e78a6000604051602001526040518263ffffffff167c010000000000000000000000000000000000000000000000000000000002815260040180828152602001915050602060405180830381600087803b15156115f457600080fd5b6102c65a03f1151561160557600080fd5b5050506040518051905060ff168810155b151561162157600080fd5b611799600560009054906101000a900473ffffffffffffffffffffffffffffffffffffffff1673ffffffffffffffffffffffffffffffffffffffff16631a10a6158b600080604051602001526040518363ffffffff167c01000000000000000000000000000000000000000000000000000000000281526004018083815260200182815260200192505050602060405180830381600087803b15156116c557600080fd5b6102c65a03f115156116d657600080fd5b50505060405180519050600660009054906101000a900473ffffffffffffffffffffffffffffffffffffffff1673ffffffffffffffffffffffffffffffffffffffff1663e3726e808d6000604051602001526040518263ffffffff167c010000000000000000000000000000000000000000000000000000000002815260040180828152602001915050602060405180830381600087803b151561177957600080fd5b6102c65a03f1151561178a57600080fd5b505050604051805190506177e4565b9350600560009054906101000a900473ffffffffffffffffffffffffffffffffffffffff1673ffffffffffffffffffffffffffffffffffffffff1663683b35578b600660009054906101000a900473ffffffffffffffffffffffffffffffffffffffff1673ffffffffffffffffffffffffffffffffffffffff16637fd6e5108e6000604051602001526040518263ffffffff167c010000000000000000000000000000000000000000000000000000000002815260040180828152602001915050602060405180830381600087803b151561187357600080fd5b6102c65a03f1151561188457600080fd5b50505060405180519050600660009054906101000a900473ffffffffffffffffffffffffffffffffffffffff1673ffffffffffffffffffffffffffffffffffffffff16632cd739438f6000604051602001526040518263ffffffff167c010000000000000000000000000000000000000000000000000000000002815260040180828152602001915050602060405180830381600087803b151561192757600080fd5b6102c65a03f1151561193857600080fd5b505050604051805190506000604051602001526040518463ffffffff167c0100000000000000000000000000000000000000000000000000000000028152600401808481526020018360ff1681526020018260ff1681526020019350505050602060405180830381600087803b15156119b057600080fd5b6102c65a03f115156119c157600080fd5b505050604051805190509250600088141515611e8357611a93611a8c89600660009054906101000a900473ffffffffffffffffffffffffffffffffffffffff1673ffffffffffffffffffffffffffffffffffffffff1663d2918de86000604051602001526040518163ffffffff167c0100000000000000000000000000000000000000000000000000000000028152600401602060405180830381600087803b1515611a6c57600080fd5b6102c65a03f11515611a7d57600080fd5b50505060405180519050617802565b606461783d565b9150600660009054906101000a900473ffffffffffffffffffffffffffffffffffffffff1673ffffffffffffffffffffffffffffffffffffffff16638aae7599338c6000604051602001526040518363ffffffff167c0100000000000000000000000000000000000000000000000000000000028152600401808373ffffffffffffffffffffffffffffffffffffffff1673ffffffffffffffffffffffffffffffffffffffff168152602001828152602001807f500000000000000000000000000000000000000000000000000000000000000081525060200192505050602060405180830381600087803b1515611b8a57600080fd5b6102c65a03f11515611b9b57600080fd5b5050506040518051905082019050600260009054906101000a900473ffffffffffffffffffffffffffffffffffffffff1673ffffffffffffffffffffffffffffffffffffffff16638d76032633611bf28b85617858565b868b8b8b6040518763ffffffff167c0100000000000000000000000000000000000000000000000000000000028152600401808773ffffffffffffffffffffffffffffffffffffffff1673ffffffffffffffffffffffffffffffffffffffff1681526020018681526020018581526020018460ff1660ff168152602001836000191660001916815260200182600019166000191681526020019650505050505050600060405180830381600087803b1515611cac57600080fd5b6102c65a03f11515611cbd57600080fd5b505050600660009054906101000a900473ffffffffffffffffffffffffffffffffffffffff1673ffffffffffffffffffffffffffffffffffffffff1663f33ac992338c846040518463ffffffff167c0100000000000000000000000000000000000000000000000000000000028152600401808473ffffffffffffffffffffffffffffffffffffffff1673ffffffffffffffffffffffffffffffffffffffff168152602001838152602001807f50000000000000000000000000000000000000000000000000000000000000008152506020018281526020019350505050600060405180830381600087803b1515611db457600080fd5b6102c65a03f11515611dc557600080fd5b505050600660009054906101000a900473ffffffffffffffffffffffffffffffffffffffff1673ffffffffffffffffffffffffffffffffffffffff1663707b85278b60026040518363ffffffff167c0100000000000000000000000000000000000000000000000000000000028152600401808381526020018260ff16815260200192505050600060405180830381600087803b1515611e6457600080fd5b6102c65a03f11515611e7557600080fd5b505050611e828a856175cd565b5b50505050505050505050565b611e97619ae4565b600080600080600660009054906101000a900473ffffffffffffffffffffffffffffffffffffffff1673ffffffffffffffffffffffffffffffffffffffff16638263a9386000604051602001526040518163ffffffff167c0100000000000000000000000000000000000000000000000000000000028152600401602060405180830381600087803b1515611f2b57600080fd5b6102c65a03f11515611f3c57600080fd5b505050604051805190509350611f5186610d5c565b915081604051805910611f615750595b90808252806020026020018201604052509450600090505b8381101561209e57600660009054906101000a900473ffffffffffffffffffffffffffffffffffffffff1673ffffffffffffffffffffffffffffffffffffffff166317826ac4826000604051602001526040518263ffffffff167c010000000000000000000000000000000000000000000000000000000002815260040180828152602001915050602060405180830381600087803b151561201a57600080fd5b6102c65a03f1151561202b57600080fd5b5050506040518051905073ffffffffffffffffffffffffffffffffffffffff168673ffffffffffffffffffffffffffffffffffffffff1614156120915780858460ff1681518110151561207a57fe5b906020019060200201818152505082806001019350505b8080600101915050611f79565b50505050919050565b6000600260009054906101000a900473ffffffffffffffffffffffffffffffffffffffff1673ffffffffffffffffffffffffffffffffffffffff1663a4821719346000604051602001526040518263ffffffff167c01000000000000000000000000000000000000000000000000000000000281526004016020604051808303818588803b151561213757600080fd5b6125ee5a03f1151561214857600080fd5b50505050604051805190509050612163868683878787611228565b505050505050565b6000600460009054906101000a900473ffffffffffffffffffffffffffffffffffffffff1673ffffffffffffffffffffffffffffffffffffffff16639914aa8c6000604051602001526040518163ffffffff167c0100000000000000000000000000000000000000000000000000000000028152600401602060405180830381600087803b15156121fb57600080fd5b6102c65a03f1151561220c57600080fd5b50505060405180519050600460009054906101000a900473ffffffffffffffffffffffffffffffffffffffff1673ffffffffffffffffffffffffffffffffffffffff1663beae32ba336000604051602001526040518263ffffffff167c0100000000000000000000000000000000000000000000000000000000028152600401808273ffffffffffffffffffffffffffffffffffffffff1673ffffffffffffffffffffffffffffffffffffffff168152602001915050602060405180830381600087803b15156122db57600080fd5b6102c65a03f115156122ec57600080fd5b5050506040518051905014151561230257600080fd5b6001600660009054906101000a900473ffffffffffffffffffffffffffffffffffffffff1673ffffffffffffffffffffffffffffffffffffffff1663401853b7866000604051602001526040518263ffffffff167c010000000000000000000000000000000000000000000000000000000002815260040180828152602001915050602060405180830381600087803b151561239d57600080fd5b6102c65a03f115156123ae57600080fd5b50505060405180519050148061247757506000600660009054906101000a900473ffffffffffffffffffffffffffffffffffffffff1673ffffffffffffffffffffffffffffffffffffffff1663401853b7866000604051602001526040518263ffffffff167c010000000000000000000000000000000000000000000000000000000002815260040180828152602001915050602060405180830381600087803b151561245a57600080fd5b6102c65a03f1151561246b57600080fd5b50505060405180519050145b151561248257600080fd5b600260009054906101000a900473ffffffffffffffffffffffffffffffffffffffff1673ffffffffffffffffffffffffffffffffffffffff166370a082316000809054906101000a900473ffffffffffffffffffffffffffffffffffffffff166000604051602001526040518263ffffffff167c0100000000000000000000000000000000000000000000000000000000028152600401808273ffffffffffffffffffffffffffffffffffffffff1673ffffffffffffffffffffffffffffffffffffffff168152602001915050602060405180830381600087803b151561256857600080fd5b6102c65a03f1151561257957600080fd5b50505060405180519050905080821115151561259457600080fd5b600660009054906101000a900473ffffffffffffffffffffffffffffffffffffffff1673ffffffffffffffffffffffffffffffffffffffff166349d6ff8f85846040518363ffffffff167c01000000000000000000000000000000000000000000000000000000000281526004018083815260200182815260200192505050600060405180830381600087803b151561262c57600080fd5b6102c65a03f1151561263d57600080fd5b505050600660009054906101000a900473ffffffffffffffffffffffffffffffffffffffff1673ffffffffffffffffffffffffffffffffffffffff166392d05e0b85856040518363ffffffff167c0100000000000000000000000000000000000000000000000000000000028152600401808381526020018260ff1660ff16815260200192505050600060405180830381600087803b15156126de57600080fd5b6102c65a03f115156126ef57600080fd5b50505050505050565b600080600080600660009054906101000a900473ffffffffffffffffffffffffffffffffffffffff1673ffffffffffffffffffffffffffffffffffffffff16638263a9386000604051602001526040518163ffffffff167c0100000000000000000000000000000000000000000000000000000000028152600401602060405180830381600087803b151561278c57600080fd5b6102c65a03f1151561279d57600080fd5b505050604051805190509250600091505b8282101561298857600090505b600660009054906101000a900473ffffffffffffffffffffffffffffffffffffffff1673ffffffffffffffffffffffffffffffffffffffff1663f351df05836000604051602001526040518263ffffffff167c010000000000000000000000000000000000000000000000000000000002815260040180828152602001915050602060405180830381600087803b151561285457600080fd5b6102c65a03f1151561286557600080fd5b5050506040518051905081101561297b57600660009054906101000a900473ffffffffffffffffffffffffffffffffffffffff1673ffffffffffffffffffffffffffffffffffffffff1663bfe8826d83836000604051602001526040518363ffffffff167c01000000000000000000000000000000000000000000000000000000000281526004018083815260200182815260200192505050602060405180830381600087803b151561291757600080fd5b6102c65a03f1151561292857600080fd5b5050506040518051905073ffffffffffffffffffffffffffffffffffffffff168573ffffffffffffffffffffffffffffffffffffffff16141561296e5783806001019450505b80806001019150506127bb565b81806001019250506127ae565b505050919050565b600080600080600080600080600660009054906101000a900473ffffffffffffffffffffffffffffffffffffffff1673ffffffffffffffffffffffffffffffffffffffff16638263a9386000604051602001526040518163ffffffff167c0100000000000000000000000000000000000000000000000000000000028152600401602060405180830381600087803b1515612a2a57600080fd5b6102c65a03f11515612a3b57600080fd5b505050604051805190509450600090505b848160ff161015612da957600660009054906101000a900473ffffffffffffffffffffffffffffffffffffffff1673ffffffffffffffffffffffffffffffffffffffff16638aae75998a836000604051602001526040518363ffffffff167c0100000000000000000000000000000000000000000000000000000000028152600401808373ffffffffffffffffffffffffffffffffffffffff1673ffffffffffffffffffffffffffffffffffffffff1681526020018260ff168152602001807f500000000000000000000000000000000000000000000000000000000000000081525060200192505050602060405180830381600087803b1515612b4f57600080fd5b6102c65a03f11515612b6057600080fd5b5050506040518051905084019350600660009054906101000a900473ffffffffffffffffffffffffffffffffffffffff1673ffffffffffffffffffffffffffffffffffffffff16638aae75998a836000604051602001526040518363ffffffff167c0100000000000000000000000000000000000000000000000000000000028152600401808373ffffffffffffffffffffffffffffffffffffffff1673ffffffffffffffffffffffffffffffffffffffff1681526020018260ff168152602001807f530000000000000000000000000000000000000000000000000000000000000081525060200192505050602060405180830381600087803b1515612c6657600080fd5b6102c65a03f11515612c7757600080fd5b5050506040518051905083019250600660009054906101000a900473ffffffffffffffffffffffffffffffffffffffff1673ffffffffffffffffffffffffffffffffffffffff16638aae75998a836000604051602001526040518363ffffffff167c0100000000000000000000000000000000000000000000000000000000028152600401808373ffffffffffffffffffffffffffffffffffffffff1673ffffffffffffffffffffffffffffffffffffffff1681526020018260ff168152602001807f560000000000000000000000000000000000000000000000000000000000000081525060200192505050602060405180830381600087803b1515612d7d57600080fd5b6102c65a03f11515612d8e57600080fd5b50505060405180519050820191508080600101915050612a4c565b83838397509750975050505050509193909250565b6000806000806000806000600660009054906101000a900473ffffffffffffffffffffffffffffffffffffffff1673ffffffffffffffffffffffffffffffffffffffff16638263a9386000604051602001526040518163ffffffff167c0100000000000000000000000000000000000000000000000000000000028152600401602060405180830381600087803b1515612e5757600080fd5b6102c65a03f11515612e6857600080fd5b505050604051805190509650600090505b8751811015612fb457600660009054906101000a900473ffffffffffffffffffffffffffffffffffffffff1673ffffffffffffffffffffffffffffffffffffffff1663401853b78983815181101515612ece57fe5b906020019060200201516000604051602001526040518263ffffffff167c010000000000000000000000000000000000000000000000000000000002815260040180828152602001915050602060405180830381600087803b1515612f3257600080fd5b6102c65a03f11515612f4357600080fd5b5050506040518051905091506002821015612f65578580600101965050612fa7565b6002821415612f7b578480600101955050612fa6565b6003821415612f91578380600101945050612fa5565b600482101515612fa45782806001019350505b5b5b5b8080600101915050612e79565b505091939590929450565b600160009054906101000a900473ffffffffffffffffffffffffffffffffffffffff16600360006101000a81548173ffffffffffffffffffffffffffffffffffffffff021916908373ffffffffffffffffffffffffffffffffffffffff16021790555060011515600360009054906101000a900473ffffffffffffffffffffffffffffffffffffffff1673ffffffffffffffffffffffffffffffffffffffff16638f16c41c336000604051602001526040518263ffffffff167c0100000000000000000000000000000000000000000000000000000000028152600401808273ffffffffffffffffffffffffffffffffffffffff1673ffffffffffffffffffffffffffffffffffffffff168152602001915050602060405180830381600087803b15156130eb57600080fd5b6102c65a03f115156130fc57600080fd5b50505060405180519050151514151561311457600080fd5b7f4744000000000000000000000000000000000000000000000000000000000000827bffffffffffffffffffffffffffffffffffffffffffffffffffffffff191614156131a15780600660006101000a81548173ffffffffffffffffffffffffffffffffffffffff021916908373ffffffffffffffffffffffffffffffffffffffff160217905550613387565b7f4d52000000000000000000000000000000000000000000000000000000000000827bffffffffffffffffffffffffffffffffffffffffffffffffffffffff1916141561322e5780600460006101000a81548173ffffffffffffffffffffffffffffffffffffffff021916908373ffffffffffffffffffffffffffffffffffffffff160217905550613386565b7f5043000000000000000000000000000000000000000000000000000000000000827bffffffffffffffffffffffffffffffffffffffffffffffffffffffff191614156132bb5780600560006101000a81548173ffffffffffffffffffffffffffffffffffffffff021916908373ffffffffffffffffffffffffffffffffffffffff160217905550613385565b7f504c000000000000000000000000000000000000000000000000000000000000827bffffffffffffffffffffffffffffffffffffffffffffffffffffffff191614156133845780600860006101000a81548173ffffffffffffffffffffffffffffffffffffffff021916908373ffffffffffffffffffffffffffffffffffffffff160217905550806000806101000a81548173ffffffffffffffffffffffffffffffffffffffff021916908373ffffffffffffffffffffffffffffffffffffffff1602179055505b5b5b5b5050565b60008060008060008060008090505b600660009054906101000a900473ffffffffffffffffffffffffffffffffffffffff1673ffffffffffffffffffffffffffffffffffffffff1663f351df05896000604051602001526040518263ffffffff167c010000000000000000000000000000000000000000000000000000000002815260040180828152602001915050602060405180830381600087803b151561343357600080fd5b6102c65a03f1151561344457600080fd5b5050506040518051905081101561383757600660009054906101000a900473ffffffffffffffffffffffffffffffffffffffff1673ffffffffffffffffffffffffffffffffffffffff1663bfe8826d89836000604051602001526040518363ffffffff167c01000000000000000000000000000000000000000000000000000000000281526004018083815260200182815260200192505050602060405180830381600087803b15156134f657600080fd5b6102c65a03f1151561350757600080fd5b5050506040518051905073ffffffffffffffffffffffffffffffffffffffff168973ffffffffffffffffffffffffffffffffffffffff16141561382a57809550879650600660009054906101000a900473ffffffffffffffffffffffffffffffffffffffff1673ffffffffffffffffffffffffffffffffffffffff1663401853b7896000604051602001526040518263ffffffff167c010000000000000000000000000000000000000000000000000000000002815260040180828152602001915050602060405180830381600087803b15156135e357600080fd5b6102c65a03f115156135f457600080fd5b505050604051805190509450600660009054906101000a900473ffffffffffffffffffffffffffffffffffffffff1673ffffffffffffffffffffffffffffffffffffffff166322d3f8bc896000604051602001526040518263ffffffff167c010000000000000000000000000000000000000000000000000000000002815260040180828152602001915050602060405180830381600087803b151561369957600080fd5b6102c65a03f115156136aa57600080fd5b505050604051805190509350600660009054906101000a900473ffffffffffffffffffffffffffffffffffffffff1673ffffffffffffffffffffffffffffffffffffffff1663b16e0009896000604051602001526040518263ffffffff167c010000000000000000000000000000000000000000000000000000000002815260040180828152602001915050602060405180830381600087803b151561374f57600080fd5b6102c65a03f1151561376057600080fd5b505050604051805190509250600660009054906101000a900473ffffffffffffffffffffffffffffffffffffffff1673ffffffffffffffffffffffffffffffffffffffff16637fd6e510896000604051602001526040518263ffffffff167c010000000000000000000000000000000000000000000000000000000002815260040180828152602001915050602060405180830381600087803b151561380557600080fd5b6102c65a03f1151561381657600080fd5b5050506040518051905060ff169150613837565b808060010191505061339a565b509295509295509295565b600080600080600660009054906101000a900473ffffffffffffffffffffffffffffffffffffffff1673ffffffffffffffffffffffffffffffffffffffff16631b3b74f1866000604051602001526040518263ffffffff167c0100000000000000000000000000000000000000000000000000000000028152600401808273ffffffffffffffffffffffffffffffffffffffff1673ffffffffffffffffffffffffffffffffffffffff168152602001915050602060405180830381600087803b151561390d57600080fd5b6102c65a03f1151561391e57600080fd5b5050506040518051905063ffffffff16935061393985610d5c565b9250613944856126f8565b915061394f85616edf565b90509193509193565b613960619ae4565b6000806000806000600660009054906101000a900473ffffffffffffffffffffffffffffffffffffffff1673ffffffffffffffffffffffffffffffffffffffff16638263a9386000604051602001526040518163ffffffff167c0100000000000000000000000000000000000000000000000000000000028152600401602060405180830381600087803b15156139f657600080fd5b6102c65a03f11515613a0757600080fd5b50505060405180519050945060009350613a2087616edf565b925082604051805910613a305750595b90808252806020026020018201604052509550600091505b84821015613b7a57600660009054906101000a900473ffffffffffffffffffffffffffffffffffffffff1673ffffffffffffffffffffffffffffffffffffffff1663eef83a4b88846000604051602001526040518363ffffffff167c0100000000000000000000000000000000000000000000000000000000028152600401808373ffffffffffffffffffffffffffffffffffffffff1673ffffffffffffffffffffffffffffffffffffffff16815260200182815260200192505050602060405180830381600087803b1515613b1d57600080fd5b6102c65a03f11515613b2e57600080fd5b505050604051805190509050600081141515613b6d5780868560ff16815181101515613b5657fe5b906020019060200201818152505083806001019450505b8180600101925050613a48565b5050505050919050565b6000806000806000806000600660009054906101000a900473ffffffffffffffffffffffffffffffffffffffff1673ffffffffffffffffffffffffffffffffffffffff16638263a9386000604051602001526040518163ffffffff167c0100000000000000000000000000000000000000000000000000000000028152600401602060405180830381600087803b1515613c1d57600080fd5b6102c65a03f11515613c2e57600080fd5b505050604051805190509650600090505b86811015613d6257600660009054906101000a900473ffffffffffffffffffffffffffffffffffffffff1673ffffffffffffffffffffffffffffffffffffffff1663401853b7826000604051602001526040518263ffffffff167c010000000000000000000000000000000000000000000000000000000002815260040180828152602001915050602060405180830381600087803b1515613ce057600080fd5b6102c65a03f11515613cf157600080fd5b5050506040518051905091506002821015613d13578580600101965050613d55565b6002821415613d29578480600101955050613d54565b6003821415613d3f578380600101945050613d53565b600482101515613d525782806001019350505b5b5b5b8080600101915050613c3f565b50509091929394565b600160009054906101000a900473ffffffffffffffffffffffffffffffffffffffff16600360006101000a81548173ffffffffffffffffffffffffffffffffffffffff021916908373ffffffffffffffffffffffffffffffffffffffff16021790555060011515600360009054906101000a900473ffffffffffffffffffffffffffffffffffffffff1673ffffffffffffffffffffffffffffffffffffffff16638f16c41c336000604051602001526040518263ffffffff167c0100000000000000000000000000000000000000000000000000000000028152600401808273ffffffffffffffffffffffffffffffffffffffff1673ffffffffffffffffffffffffffffffffffffffff168152602001915050602060405180830381600087803b1515613e9757600080fd5b6102c65a03f11515613ea857600080fd5b505050604051805190501515141515613ec057600080fd5b600660009054906101000a900473ffffffffffffffffffffffffffffffffffffffff1673ffffffffffffffffffffffffffffffffffffffff1663beedc6e784846040518363ffffffff167c01000000000000000000000000000000000000000000000000000000000281526004018083815260200182815260200192505050600060405180830381600087803b1515613f5857600080fd5b6102c65a03f11515613f6957600080fd5b505050600660009054906101000a900473ffffffffffffffffffffffffffffffffffffffff1673ffffffffffffffffffffffffffffffffffffffff16624d041d84836040518363ffffffff167c01000000000000000000000000000000000000000000000000000000000281526004018083815260200182815260200192505050600060405180830381600087803b151561400357600080fd5b6102c65a03f1151561401457600080fd5b505050505050565b600080600660009054906101000a900473ffffffffffffffffffffffffffffffffffffffff1673ffffffffffffffffffffffffffffffffffffffff16638263a9386000604051602001526040518163ffffffff167c0100000000000000000000000000000000000000000000000000000000028152600401602060405180830381600087803b15156140ad57600080fd5b6102c65a03f115156140be57600080fd5b505050604051805190509150600660009054906101000a900473ffffffffffffffffffffffffffffffffffffffff1673ffffffffffffffffffffffffffffffffffffffff1663f0d2921e866000604051602001526040518263ffffffff167c010000000000000000000000000000000000000000000000000000000002815260040180828152602001915050602060405180830381600087803b151561416357600080fd5b6102c65a03f1151561417457600080fd5b50505060405180519050905060008460ff16111561448257600660009054906101000a900473ffffffffffffffffffffffffffffffffffffffff1673ffffffffffffffffffffffffffffffffffffffff1663bc1ab4528333898886896040518763ffffffff167c0100000000000000000000000000000000000000000000000000000000028152600401808781526020018673ffffffffffffffffffffffffffffffffffffffff1673ffffffffffffffffffffffffffffffffffffffff168152602001806020018560ff1660ff1681526020018473ffffffffffffffffffffffffffffffffffffffff1673ffffffffffffffffffffffffffffffffffffffff168152602001838152602001828103825286818151815260200191508051906020019080838360005b838110156142b757808201518184015260208101905061429c565b50505050905090810190601f1680156142e45780820380516001836020036101000a031916815260200191505b50975050505050505050600060405180830381600087803b151561430757600080fd5b6102c65a03f1151561431857600080fd5b505050600660009054906101000a900473ffffffffffffffffffffffffffffffffffffffff1673ffffffffffffffffffffffffffffffffffffffff166349d6ff8f83600560009054906101000a900473ffffffffffffffffffffffffffffffffffffffff1673ffffffffffffffffffffffffffffffffffffffff16637a4a20c5886000604051602001526040518263ffffffff167c0100000000000000000000000000000000000000000000000000000000028152600401808260ff168152602001915050602060405180830381600087803b15156143f657600080fd5b6102c65a03f1151561440757600080fd5b505050604051805190506040518363ffffffff167c01000000000000000000000000000000000000000000000000000000000281526004018083815260200182815260200192505050600060405180830381600087803b151561446957600080fd5b6102c65a03f1151561447a57600080fd5b505050614604565b600660009054906101000a900473ffffffffffffffffffffffffffffffffffffffff1673ffffffffffffffffffffffffffffffffffffffff1663b063c2c383338985426040518663ffffffff167c0100000000000000000000000000000000000000000000000000000000028152600401808681526020018573ffffffffffffffffffffffffffffffffffffffff1673ffffffffffffffffffffffffffffffffffffffff168152602001806020018473ffffffffffffffffffffffffffffffffffffffff1673ffffffffffffffffffffffffffffffffffffffff168152602001838152602001828103825285818151815260200191508051906020019080838360005b838110156145a0578082015181840152602081019050614585565b50505050905090810190601f1680156145cd5780820380516001836020036101000a031916815260200191505b509650505050505050600060405180830381600087803b15156145ef57600080fd5b6102c65a03f1151561460057600080fd5b5050505b505050505050565b600080600660009054906101000a900473ffffffffffffffffffffffffffffffffffffffff1673ffffffffffffffffffffffffffffffffffffffff166317826ac4896000604051602001526040518263ffffffff167c010000000000000000000000000000000000000000000000000000000002815260040180828152602001915050602060405180830381600087803b15156146a857600080fd5b6102c65a03f115156146b957600080fd5b5050506040518051905073ffffffffffffffffffffffffffffffffffffffff163373ffffffffffffffffffffffffffffffffffffffff161415156146fc57600080fd5b600660009054906101000a900473ffffffffffffffffffffffffffffffffffffffff1673ffffffffffffffffffffffffffffffffffffffff1663e3726e80896000604051602001526040518263ffffffff167c010000000000000000000000000000000000000000000000000000000002815260040180828152602001915050602060405180830381600087803b151561479557600080fd5b6102c65a03f115156147a657600080fd5b5050506040518051905091506147bd87600261783d565b905061488388600660009054906101000a900473ffffffffffffffffffffffffffffffffffffffff1673ffffffffffffffffffffffffffffffffffffffff16637fd6e5108b6000604051602001526040518263ffffffff167c010000000000000000000000000000000000000000000000000000000002815260040180828152602001915050602060405180830381600087803b151561485c57600080fd5b6102c65a03f1151561486d57600080fd5b5050506040518051905060ff1683888888611228565b600960009054906101000a900473ffffffffffffffffffffffffffffffffffffffff1673ffffffffffffffffffffffffffffffffffffffff16638e4ee41a89336148cd8b86617858565b8a878b8b8b6040518963ffffffff167c0100000000000000000000000000000000000000000000000000000000028152600401808981526020018873ffffffffffffffffffffffffffffffffffffffff1673ffffffffffffffffffffffffffffffffffffffff168152602001878152602001806020018681526020018560ff1660ff16815260200184600019166000191681526020018360001916600019168152602001828103825287818151815260200191508051906020019080838360005b838110156149a957808201518184015260208101905061498e565b50505050905090810190601f1680156149d65780820380516001836020036101000a031916815260200191505b509950505050505050505050600060405180830381600087803b15156149fb57600080fd5b6102c65a03f11515614a0c57600080fd5b5050505050505050505050565b6000600260009054906101000a900473ffffffffffffffffffffffffffffffffffffffff1673ffffffffffffffffffffffffffffffffffffffff1663a4821719346000604051602001526040518263ffffffff167c01000000000000000000000000000000000000000000000000000000000281526004016020604051808303818588803b1515614aa957600080fd5b6125ee5a03f11515614aba57600080fd5b50505050604051805190509050614ad78888888489898989614ae1565b5050505050505050565b6000806000429250600660009054906101000a900473ffffffffffffffffffffffffffffffffffffffff1673ffffffffffffffffffffffffffffffffffffffff16638263a9386000604051602001526040518163ffffffff167c0100000000000000000000000000000000000000000000000000000000028152600401602060405180830381600087803b1515614b7757600080fd5b6102c65a03f11515614b8857600080fd5b505050604051805190509150614b9f88600261783d565b9050614bad8b8b8b8661401c565b614bbe828a60ff1683898989611228565b600960009054906101000a900473ffffffffffffffffffffffffffffffffffffffff1673ffffffffffffffffffffffffffffffffffffffff16638e4ee41a8333614c088c86617858565b8b888c8c8c6040518963ffffffff167c0100000000000000000000000000000000000000000000000000000000028152600401808981526020018873ffffffffffffffffffffffffffffffffffffffff1673ffffffffffffffffffffffffffffffffffffffff168152602001878152602001806020018681526020018560ff1660ff16815260200184600019166000191681526020018360001916600019168152602001828103825287818151815260200191508051906020019080838360005b83811015614ce4578082015181840152602081019050614cc9565b50505050905090810190601f168015614d115780820380516001836020036101000a031916815260200191505b509950505050505050505050600060405180830381600087803b1515614d3657600080fd5b6102c65a03f11515614d4757600080fd5b5050505050505050505050505050565b600660009054906101000a900473ffffffffffffffffffffffffffffffffffffffff1673ffffffffffffffffffffffffffffffffffffffff166317826ac4836000604051602001526040518263ffffffff167c010000000000000000000000000000000000000000000000000000000002815260040180828152602001915050602060405180830381600087803b1515614df057600080fd5b6102c65a03f11515614e0157600080fd5b5050506040518051905073ffffffffffffffffffffffffffffffffffffffff163373ffffffffffffffffffffffffffffffffffffffff16141515614e4457600080fd5b614e4e8282617871565b600660009054906101000a900473ffffffffffffffffffffffffffffffffffffffff1673ffffffffffffffffffffffffffffffffffffffff1663707b85278360016040518363ffffffff167c0100000000000000000000000000000000000000000000000000000000028152600401808381526020018260ff16815260200192505050600060405180830381600087803b1515614eea57600080fd5b6102c65a03f11515614efb57600080fd5b5050506000600660009054906101000a900473ffffffffffffffffffffffffffffffffffffffff1673ffffffffffffffffffffffffffffffffffffffff16637fd6e510846000604051602001526040518263ffffffff167c010000000000000000000000000000000000000000000000000000000002815260040180828152602001915050602060405180830381600087803b1515614f9957600080fd5b6102c65a03f11515614faa57600080fd5b5050506040518051905060ff16111561506e57600660009054906101000a900473ffffffffffffffffffffffffffffffffffffffff1673ffffffffffffffffffffffffffffffffffffffff166392d05e0b8360006040518363ffffffff167c0100000000000000000000000000000000000000000000000000000000028152600401808381526020018260ff16815260200192505050600060405180830381600087803b151561505957600080fd5b6102c65a03f1151561506a57600080fd5b5050505b5050565b600160009054906101000a900473ffffffffffffffffffffffffffffffffffffffff16600360006101000a81548173ffffffffffffffffffffffffffffffffffffffff021916908373ffffffffffffffffffffffffffffffffffffffff16021790555060011515600360009054906101000a900473ffffffffffffffffffffffffffffffffffffffff1673ffffffffffffffffffffffffffffffffffffffff16638f16c41c336000604051602001526040518263ffffffff167c0100000000000000000000000000000000000000000000000000000000028152600401808273ffffffffffffffffffffffffffffffffffffffff1673ffffffffffffffffffffffffffffffffffffffff168152602001915050602060405180830381600087803b151561519e57600080fd5b6102c65a03f115156151af57600080fd5b5050506040518051905015151415156151c757600080fd5b600660009054906101000a900473ffffffffffffffffffffffffffffffffffffffff1673ffffffffffffffffffffffffffffffffffffffff1663df3e784185856040518363ffffffff167c0100000000000000000000000000000000000000000000000000000000028152600401808381526020018260ff1660ff16815260200192505050600060405180830381600087803b151561526557600080fd5b6102c65a03f1151561527657600080fd5b505050600660009054906101000a900473ffffffffffffffffffffffffffffffffffffffff1673ffffffffffffffffffffffffffffffffffffffff1663ec1ce25185846040518363ffffffff167c0100000000000000000000000000000000000000000000000000000000028152600401808381526020018260ff1660ff16815260200192505050600060405180830381600087803b151561531757600080fd5b6102c65a03f1151561532857600080fd5b505050600660009054906101000a900473ffffffffffffffffffffffffffffffffffffffff1673ffffffffffffffffffffffffffffffffffffffff1663dcd6e2dd85836040518363ffffffff167c0100000000000000000000000000000000000000000000000000000000028152600401808381526020018260ff1660ff16815260200192505050600060405180830381600087803b15156153c957600080fd5b6102c65a03f115156153da57600080fd5b505050600660009054906101000a900473ffffffffffffffffffffffffffffffffffffffff1673ffffffffffffffffffffffffffffffffffffffff1663a080d926856040518263ffffffff167c010000000000000000000000000000000000000000000000000000000002815260040180828152602001915050600060405180830381600087803b151561546d57600080fd5b6102c65a03f1151561547e57600080fd5b50505050505050565b600160009054906101000a900473ffffffffffffffffffffffffffffffffffffffff16600360006101000a81548173ffffffffffffffffffffffffffffffffffffffff021916908373ffffffffffffffffffffffffffffffffffffffff16021790555060011515600360009054906101000a900473ffffffffffffffffffffffffffffffffffffffff1673ffffffffffffffffffffffffffffffffffffffff16638f16c41c336000604051602001526040518263ffffffff167c0100000000000000000000000000000000000000000000000000000000028152600401808273ffffffffffffffffffffffffffffffffffffffff1673ffffffffffffffffffffffffffffffffffffffff168152602001915050602060405180830381600087803b15156155b357600080fd5b6102c65a03f115156155c457600080fd5b5050506040518051905015151415156155dc57600080fd5b6000600160009054906101000a900473ffffffffffffffffffffffffffffffffffffffff1673ffffffffffffffffffffffffffffffffffffffff1614156156635780600160006101000a81548173ffffffffffffffffffffffffffffffffffffffff021916908373ffffffffffffffffffffffffffffffffffffffff1602179055506157fa565b600160009054906101000a900473ffffffffffffffffffffffffffffffffffffffff16600360006101000a81548173ffffffffffffffffffffffffffffffffffffffff021916908373ffffffffffffffffffffffffffffffffffffffff16021790555060011515600360009054906101000a900473ffffffffffffffffffffffffffffffffffffffff1673ffffffffffffffffffffffffffffffffffffffff16638f16c41c336000604051602001526040518263ffffffff167c0100000000000000000000000000000000000000000000000000000000028152600401808273ffffffffffffffffffffffffffffffffffffffff1673ffffffffffffffffffffffffffffffffffffffff168152602001915050602060405180830381600087803b151561578f57600080fd5b6102c65a03f115156157a057600080fd5b5050506040518051905015151415156157b857600080fd5b80600160006101000a81548173ffffffffffffffffffffffffffffffffffffffff021916908373ffffffffffffffffffffffffffffffffffffffff1602179055505b50565b6000600160009054906101000a900473ffffffffffffffffffffffffffffffffffffffff16600360006101000a81548173ffffffffffffffffffffffffffffffffffffffff021916908373ffffffffffffffffffffffffffffffffffffffff16021790555060011515600360009054906101000a900473ffffffffffffffffffffffffffffffffffffffff1673ffffffffffffffffffffffffffffffffffffffff16638f16c41c336000604051602001526040518263ffffffff167c0100000000000000000000000000000000000000000000000000000000028152600401808273ffffffffffffffffffffffffffffffffffffffff1673ffffffffffffffffffffffffffffffffffffffff168152602001915050602060405180830381600087803b151561592b57600080fd5b6102c65a03f1151561593c57600080fd5b50505060405180519050151514151561595457600080fd5b61595e83836170af565b905092915050565b6000806000806000600a81905550600660009054906101000a900473ffffffffffffffffffffffffffffffffffffffff1673ffffffffffffffffffffffffffffffffffffffff16635b7b6d89866000604051606001526040518263ffffffff167c0100000000000000000000000000000000000000000000000000000000028152600401808273ffffffffffffffffffffffffffffffffffffffff1673ffffffffffffffffffffffffffffffffffffffff168152602001915050606060405180830381600087803b1515615a3957600080fd5b6102c65a03f11515615a4a57600080fd5b50505060405180519060200180519060200180519050809350819450829550505050615a768584617b3b565b615a8085836184f8565b615a8a8582618c7e565b600a549350505050919050565b600080600160009054906101000a900473ffffffffffffffffffffffffffffffffffffffff16600360006101000a81548173ffffffffffffffffffffffffffffffffffffffff021916908373ffffffffffffffffffffffffffffffffffffffff16021790555060011515600360009054906101000a900473ffffffffffffffffffffffffffffffffffffffff1673ffffffffffffffffffffffffffffffffffffffff16638f16c41c336000604051602001526040518263ffffffff167c0100000000000000000000000000000000000000000000000000000000028152600401808273ffffffffffffffffffffffffffffffffffffffff1673ffffffffffffffffffffffffffffffffffffffff168152602001915050602060405180830381600087803b1515615bc657600080fd5b6102c65a03f11515615bd757600080fd5b505050604051805190501515141515615bef57600080fd5b600660009054906101000a900473ffffffffffffffffffffffffffffffffffffffff1673ffffffffffffffffffffffffffffffffffffffff16637cd8055a6000604051602001526040518163ffffffff167c0100000000000000000000000000000000000000000000000000000000028152600401602060405180830381600087803b1515615c7d57600080fd5b6102c65a03f11515615c8e57600080fd5b5050506040518051905091508190505b600660009054906101000a900473ffffffffffffffffffffffffffffffffffffffff1673ffffffffffffffffffffffffffffffffffffffff16638263a9386000604051602001526040518163ffffffff167c0100000000000000000000000000000000000000000000000000000000028152600401602060405180830381600087803b1515615d2c57600080fd5b6102c65a03f11515615d3d57600080fd5b50505060405180519050811015615e2e576003600660009054906101000a900473ffffffffffffffffffffffffffffffffffffffff1673ffffffffffffffffffffffffffffffffffffffff1663401853b7836000604051602001526040518263ffffffff167c010000000000000000000000000000000000000000000000000000000002815260040180828152602001915050602060405180830381600087803b1515615de957600080fd5b6102c65a03f11515615dfa57600080fd5b505050604051805190501115615e1c57615e158260016177e4565b9150615e21565b615e2e565b8080600101915050615c9e565b8181141515615edc57600660009054906101000a900473ffffffffffffffffffffffffffffffffffffffff1673ffffffffffffffffffffffffffffffffffffffff16639fb3ae21826040518263ffffffff167c010000000000000000000000000000000000000000000000000000000002815260040180828152602001915050600060405180830381600087803b1515615ec757600080fd5b6102c65a03f11515615ed857600080fd5b5050505b5050565b600080600080600080600080600160009054906101000a900473ffffffffffffffffffffffffffffffffffffffff16600360006101000a81548173ffffffffffffffffffffffffffffffffffffffff021916908373ffffffffffffffffffffffffffffffffffffffff16021790555060011515600360009054906101000a900473ffffffffffffffffffffffffffffffffffffffff1673ffffffffffffffffffffffffffffffffffffffff16638f16c41c336000604051602001526040518263ffffffff167c0100000000000000000000000000000000000000000000000000000000028152600401808273ffffffffffffffffffffffffffffffffffffffff1673ffffffffffffffffffffffffffffffffffffffff168152602001915050602060405180830381600087803b151561601857600080fd5b6102c65a03f1151561602957600080fd5b50505060405180519050151514151561604157600080fd5b600660009054906101000a900473ffffffffffffffffffffffffffffffffffffffff1673ffffffffffffffffffffffffffffffffffffffff166317826ac48b6000604051602001526040518263ffffffff167c010000000000000000000000000000000000000000000000000000000002815260040180828152602001915050602060405180830381600087803b15156160da57600080fd5b6102c65a03f115156160eb57600080fd5b505050604051805190509750600660009054906101000a900473ffffffffffffffffffffffffffffffffffffffff1673ffffffffffffffffffffffffffffffffffffffff1663bfe8826d8b8b6000604051602001526040518363ffffffff167c01000000000000000000000000000000000000000000000000000000000281526004018083815260200182815260200192505050602060405180830381600087803b151561619857600080fd5b6102c65a03f115156161a957600080fd5b505050604051805190509650600660009054906101000a900473ffffffffffffffffffffffffffffffffffffffff1673ffffffffffffffffffffffffffffffffffffffff16633152fbd4600060405160c001526040518163ffffffff167c010000000000000000000000000000000000000000000000000000000002815260040160c060405180830381600087803b151561624357600080fd5b6102c65a03f1151561625457600080fd5b5050506040518051906020018051906020018051906020018051906020018051906020018051905090919250508096508197508298508399505050505060008911156167a357600660009054906101000a900473ffffffffffffffffffffffffffffffffffffffff1673ffffffffffffffffffffffffffffffffffffffff1663f9915f038b8a6163c3600660009054906101000a900473ffffffffffffffffffffffffffffffffffffffff1673ffffffffffffffffffffffffffffffffffffffff16631b3b74f18e6000604051602001526040518263ffffffff167c0100000000000000000000000000000000000000000000000000000000028152600401808273ffffffffffffffffffffffffffffffffffffffff1673ffffffffffffffffffffffffffffffffffffffff168152602001915050602060405180830381600087803b15156163a257600080fd5b6102c65a03f115156163b357600080fd5b505050604051805190508b61948d565b8a6040518563ffffffff167c010000000000000000000000000000000000000000000000000000000002815260040180806020018681526020018573ffffffffffffffffffffffffffffffffffffffff1673ffffffffffffffffffffffffffffffffffffffff1681526020018463ffffffff1663ffffffff1681526020018363ffffffff1663ffffffff168152602001807f43000000000000000000000000000000000000000000000000000000000000008152506020018281038252602f8152602001807f52657075746174696f6e2063726564697420666f722070726f706f73616c206f81526020017f776e6572202d204163636570746564000000000000000000000000000000000081525060400195505050505050600060405180830381600087803b15156164f557600080fd5b6102c65a03f1151561650657600080fd5b505050600660009054906101000a900473ffffffffffffffffffffffffffffffffffffffff1673ffffffffffffffffffffffffffffffffffffffff1663f9915f038b89616632600660009054906101000a900473ffffffffffffffffffffffffffffffffffffffff1673ffffffffffffffffffffffffffffffffffffffff16631b3b74f18d6000604051602001526040518263ffffffff167c0100000000000000000000000000000000000000000000000000000000028152600401808273ffffffffffffffffffffffffffffffffffffffff1673ffffffffffffffffffffffffffffffffffffffff168152602001915050602060405180830381600087803b151561661157600080fd5b6102c65a03f1151561662257600080fd5b505050604051805190508a61948d565b896040518563ffffffff167c010000000000000000000000000000000000000000000000000000000002815260040180806020018681526020018573ffffffffffffffffffffffffffffffffffffffff1673ffffffffffffffffffffffffffffffffffffffff1681526020018463ffffffff1663ffffffff1681526020018363ffffffff1663ffffffff168152602001807f4300000000000000000000000000000000000000000000000000000000000000815250602001828103825260518152602001807f52657075746174696f6e2063726564697420666f7220736f6c7574696f6e206f81526020017f776e6572202d2046696e616c20536f6c7574696f6e2073656c6563746564206281526020017f79206d616a6f7269747920766f74696e6700000000000000000000000000000081525060600195505050505050600060405180830381600087803b151561678a57600080fd5b6102c65a03f1151561679b57600080fd5b505050616e33565b600660009054906101000a900473ffffffffffffffffffffffffffffffffffffffff1673ffffffffffffffffffffffffffffffffffffffff1663f9915f038b8a6168cc600660009054906101000a900473ffffffffffffffffffffffffffffffffffffffff1673ffffffffffffffffffffffffffffffffffffffff16631b3b74f18e6000604051602001526040518263ffffffff167c0100000000000000000000000000000000000000000000000000000000028152600401808273ffffffffffffffffffffffffffffffffffffffff1673ffffffffffffffffffffffffffffffffffffffff168152602001915050602060405180830381600087803b15156168ab57600080fd5b6102c65a03f115156168bc57600080fd5b50505060405180519050896194b7565b886040518563ffffffff167c010000000000000000000000000000000000000000000000000000000002815260040180806020018681526020018573ffffffffffffffffffffffffffffffffffffffff1673ffffffffffffffffffffffffffffffffffffffff1681526020018463ffffffff1663ffffffff1681526020018363ffffffff1663ffffffff168152602001807f44000000000000000000000000000000000000000000000000000000000000008152506020018281038252602e8152602001807f52657075746174696f6e20646562697420666f722070726f706f73616c206f7781526020017f6e6572202d2052656a656374656400000000000000000000000000000000000081525060400195505050505050600060405180830381600087803b15156169fe57600080fd5b6102c65a03f11515616a0f57600080fd5b505050600091505b600660009054906101000a900473ffffffffffffffffffffffffffffffffffffffff1673ffffffffffffffffffffffffffffffffffffffff1663f351df058b6000604051602001526040518263ffffffff167c010000000000000000000000000000000000000000000000000000000002815260040180828152602001915050602060405180830381600087803b1515616ab057600080fd5b6102c65a03f11515616ac157600080fd5b50505060405180519050821015616e3257600660009054906101000a900473ffffffffffffffffffffffffffffffffffffffff1673ffffffffffffffffffffffffffffffffffffffff1663bfe8826d8b846000604051602001526040518363ffffffff167c01000000000000000000000000000000000000000000000000000000000281526004018083815260200182815260200192505050602060405180830381600087803b1515616b7357600080fd5b6102c65a03f11515616b8457600080fd5b505050604051805190509050600660009054906101000a900473ffffffffffffffffffffffffffffffffffffffff1673ffffffffffffffffffffffffffffffffffffffff1663f9915f038b83616cb9600660009054906101000a900473ffffffffffffffffffffffffffffffffffffffff1673ffffffffffffffffffffffffffffffffffffffff16631b3b74f1876000604051602001526040518263ffffffff167c0100000000000000000000000000000000000000000000000000000000028152600401808273ffffffffffffffffffffffffffffffffffffffff1673ffffffffffffffffffffffffffffffffffffffff168152602001915050602060405180830381600087803b1515616c9857600080fd5b6102c65a03f11515616ca957600080fd5b50505060405180519050886194b7565b876040518563ffffffff167c010000000000000000000000000000000000000000000000000000000002815260040180806020018681526020018573ffffffffffffffffffffffffffffffffffffffff1673ffffffffffffffffffffffffffffffffffffffff1681526020018463ffffffff1663ffffffff1681526020018363ffffffff1663ffffffff168152602001807f4400000000000000000000000000000000000000000000000000000000000000815250602001828103825260418152602001807f52657075746174696f6e20646562697420666f7220736f6c7574696f6e206f7781526020017f6e6572202d2052656a6563746564206279206d616a6f7269747920766f74696e81526020017f670000000000000000000000000000000000000000000000000000000000000081525060600195505050505050600060405180830381600087803b1515616e1157600080fd5b6102c65a03f11515616e2257600080fd5b5050508180600101925050616a17565b5b50505050505050505050565b600160009054906101000a900473ffffffffffffffffffffffffffffffffffffffff1673ffffffffffffffffffffffffffffffffffffffff163373ffffffffffffffffffffffffffffffffffffffff16141515616e9b57600080fd5b80600260006101000a81548173ffffffffffffffffffffffffffffffffffffffff021916908373ffffffffffffffffffffffffffffffffffffffff16021790555050565b600080600080600660009054906101000a900473ffffffffffffffffffffffffffffffffffffffff1673ffffffffffffffffffffffffffffffffffffffff16638263a9386000604051602001526040518163ffffffff167c0100000000000000000000000000000000000000000000000000000000028152600401602060405180830381600087803b1515616f7357600080fd5b6102c65a03f11515616f8457600080fd5b505050604051805190509250600091505b828210156170a757600660009054906101000a900473ffffffffffffffffffffffffffffffffffffffff1673ffffffffffffffffffffffffffffffffffffffff1663eef83a4b86846000604051602001526040518363ffffffff167c0100000000000000000000000000000000000000000000000000000000028152600401808373ffffffffffffffffffffffffffffffffffffffff1673ffffffffffffffffffffffffffffffffffffffff16815260200182815260200192505050602060405180830381600087803b151561706a57600080fd5b6102c65a03f1151561707b57600080fd5b50505060405180519050905060008114151561709a5783806001019450505b8180600101925050616f95565b505050919050565b6000806000806000600660009054906101000a900473ffffffffffffffffffffffffffffffffffffffff1673ffffffffffffffffffffffffffffffffffffffff1663f65ad75088600060405160a001526040518263ffffffff167c01000000000000000000000000000000000000000000000000000000000281526004018082815260200191505060a060405180830381600087803b151561715057600080fd5b6102c65a03f1151561716157600080fd5b5050506040518051906020018051906020018051906020018051906020018051905090919293509091925090508060ff1690508094508195505050600560009054906101000a900473ffffffffffffffffffffffffffffffffffffffff1673ffffffffffffffffffffffffffffffffffffffff1663f28395d6600660009054906101000a900473ffffffffffffffffffffffffffffffffffffffff1673ffffffffffffffffffffffffffffffffffffffff16637fd6e5108a6000604051602001526040518263ffffffff167c010000000000000000000000000000000000000000000000000000000002815260040180828152602001915050602060405180830381600087803b151561727357600080fd5b6102c65a03f1151561728457600080fd5b50505060405180519050600660009054906101000a900473ffffffffffffffffffffffffffffffffffffffff1673ffffffffffffffffffffffffffffffffffffffff16632cd739438b6000604051602001526040518263ffffffff167c010000000000000000000000000000000000000000000000000000000002815260040180828152602001915050602060405180830381600087803b151561732757600080fd5b6102c65a03f1151561733857600080fd5b505050604051805190506000604051606001526040518363ffffffff167c0100000000000000000000000000000000000000000000000000000000028152600401808360ff1681526020018260ff16815260200192505050606060405180830381600087803b15156173a957600080fd5b6102c65a03f115156173ba57600080fd5b5050506040518051906020018051906020018051905090915080925081935050506002831480156173ec575060028614155b1561758557426173fc85846177e4565b1115806175765750600460009054906101000a900473ffffffffffffffffffffffffffffffffffffffff1673ffffffffffffffffffffffffffffffffffffffff1663233fa5eb876000604051602001526040518263ffffffff167c010000000000000000000000000000000000000000000000000000000002815260040180828152602001915050602060405180830381600087803b151561749d57600080fd5b6102c65a03f115156174ae57600080fd5b50505060405180519050600660009054906101000a900473ffffffffffffffffffffffffffffffffffffffff1673ffffffffffffffffffffffffffffffffffffffff1663296569cf89896000604051602001526040518363ffffffff167c01000000000000000000000000000000000000000000000000000000000281526004018083815260200182815260200192505050602060405180830381600087803b151561755957600080fd5b6102c65a03f1151561756a57600080fd5b50505060405180519050145b1561758057600194505b6175c3565b60028314156175aa574261759985846177e4565b1115156175a557600194505b6175c2565b60028311156175bc57600294506175c1565b600094505b5b5b5050505092915050565b600860009054906101000a900473ffffffffffffffffffffffffffffffffffffffff1673ffffffffffffffffffffffffffffffffffffffff166336e7535f83836040518363ffffffff167c01000000000000000000000000000000000000000000000000000000000281526004018083815260200182815260200192505050600060405180830381600087803b151561766557600080fd5b6102c65a03f1151561767657600080fd5b505050600660009054906101000a900473ffffffffffffffffffffffffffffffffffffffff1673ffffffffffffffffffffffffffffffffffffffff16635d3bb56a83600660009054906101000a900473ffffffffffffffffffffffffffffffffffffffff1673ffffffffffffffffffffffffffffffffffffffff1663e3726e80866000604051602001526040518263ffffffff167c010000000000000000000000000000000000000000000000000000000002815260040180828152602001915050602060405180830381600087803b151561775157600080fd5b6102c65a03f1151561776257600080fd5b50505060405180519050846040518463ffffffff167c0100000000000000000000000000000000000000000000000000000000028152600401808481526020018381526020018281526020019350505050600060405180830381600087803b15156177cc57600080fd5b6102c65a03f115156177dd57600080fd5b5050505050565b60008082840190508381101515156177f857fe5b8091505092915050565b60008060008414156178175760009150617836565b828402905082848281151561782857fe5b0414151561783257fe5b8091505b5092915050565b600080828481151561784b57fe5b0490508091505092915050565b600082821115151561786657fe5b818303905092915050565b600660009054906101000a900473ffffffffffffffffffffffffffffffffffffffff1673ffffffffffffffffffffffffffffffffffffffff16630eed6ce283836040518363ffffffff167c01000000000000000000000000000000000000000000000000000000000281526004018083815260200180602001828103825283818151815260200191508051906020019080838360005b83811015617922578082015181840152602081019050617907565b50505050905090810190601f16801561794f5780820380516001836020036101000a031916815260200191505b509350505050600060405180830381600087803b151561796e57600080fd5b6102c65a03f1151561797f57600080fd5b505050600660009054906101000a900473ffffffffffffffffffffffffffffffffffffffff1673ffffffffffffffffffffffffffffffffffffffff16637403560583836040518363ffffffff167c01000000000000000000000000000000000000000000000000000000000281526004018083815260200180602001828103825283818151815260200191508051906020019080838360005b83811015617a33578082015181840152602081019050617a18565b50505050905090810190601f168015617a605780820380516001836020036101000a031916815260200191505b509350505050600060405180830381600087803b1515617a7f57600080fd5b6102c65a03f11515617a9057600080fd5b505050600660009054906101000a900473ffffffffffffffffffffffffffffffffffffffff1673ffffffffffffffffffffffffffffffffffffffff1663a080d926836040518263ffffffff167c010000000000000000000000000000000000000000000000000000000002815260040180828152602001915050600060405180830381600087803b1515617b2357600080fd5b6102c65a03f11515617b3457600080fd5b5050505050565b6000806000806000806000600660009054906101000a900473ffffffffffffffffffffffffffffffffffffffff1673ffffffffffffffffffffffffffffffffffffffff16638263a9386000604051602001526040518163ffffffff167c0100000000000000000000000000000000000000000000000000000000028152600401602060405180830381600087803b1515617bd457600080fd5b6102c65a03f11515617be557600080fd5b505050604051805190509650600095508790505b8681101561840857600660009054906101000a900473ffffffffffffffffffffffffffffffffffffffff1673ffffffffffffffffffffffffffffffffffffffff166317826ac4826000604051602001526040518263ffffffff167c010000000000000000000000000000000000000000000000000000000002815260040180828152602001915050602060405180830381600087803b1515617c9a57600080fd5b6102c65a03f11515617cab57600080fd5b5050506040518051905073ffffffffffffffffffffffffffffffffffffffff168973ffffffffffffffffffffffffffffffffffffffff1614156183fb57600660009054906101000a900473ffffffffffffffffffffffffffffffffffffffff1673ffffffffffffffffffffffffffffffffffffffff1663cd6b44e382600060405160a001526040518263ffffffff167c01000000000000000000000000000000000000000000000000000000000281526004018082815260200191505060a060405180830381600087803b1515617d8157600080fd5b6102c65a03f11515617d9257600080fd5b505050604051805190602001805190602001805190602001805190602001805190509091929350909192508260ff1692508160ff1691508060ff1690508096508195508297505050506002831015617de8578095505b600283118015617df85750600084115b8015617f1657506000600660009054906101000a900473ffffffffffffffffffffffffffffffffffffffff1673ffffffffffffffffffffffffffffffffffffffff16637fcc239f8b846000604051602001526040518363ffffffff167c0100000000000000000000000000000000000000000000000000000000028152600401808373ffffffffffffffffffffffffffffffffffffffff1673ffffffffffffffffffffffffffffffffffffffff168152602001828152602001807f500000000000000000000000000000000000000000000000000000000000000081525060200192505050602060405180830381600087803b1515617ef657600080fd5b6102c65a03f11515617f0757600080fd5b5050506040518051905060ff16145b156183fa576064600660009054906101000a900473ffffffffffffffffffffffffffffffffffffffff1673ffffffffffffffffffffffffffffffffffffffff1663b16e0009836000604051602001526040518263ffffffff167c010000000000000000000000000000000000000000000000000000000002815260040180828152602001915050602060405180830381600087803b1515617fb657600080fd5b6102c65a03f11515617fc757600080fd5b50505060405180519050600560009054906101000a900473ffffffffffffffffffffffffffffffffffffffff1673ffffffffffffffffffffffffffffffffffffffff16630ffdf931886000604051602001526040518263ffffffff167c010000000000000000000000000000000000000000000000000000000002815260040180828152602001915050602060405180830381600087803b151561806a57600080fd5b6102c65a03f1151561807b57600080fd5b505050604051805190500281151561808f57fe5b049150600660009054906101000a900473ffffffffffffffffffffffffffffffffffffffff1673ffffffffffffffffffffffffffffffffffffffff16638aae75998a836000604051602001526040518363ffffffff167c0100000000000000000000000000000000000000000000000000000000028152600401808373ffffffffffffffffffffffffffffffffffffffff1673ffffffffffffffffffffffffffffffffffffffff168152602001828152602001807f500000000000000000000000000000000000000000000000000000000000000081525060200192505050602060405180830381600087803b151561818757600080fd5b6102c65a03f1151561819857600080fd5b5050506040518051905082600a540101600a81905550600660009054906101000a900473ffffffffffffffffffffffffffffffffffffffff1673ffffffffffffffffffffffffffffffffffffffff16630e77d0b38a83856040518463ffffffff167c0100000000000000000000000000000000000000000000000000000000028152600401808473ffffffffffffffffffffffffffffffffffffffff1673ffffffffffffffffffffffffffffffffffffffff168152602001838152602001806020018381526020018281038252602f8152602001807f4742542052657761726420666f72206265696e672050726f706f73616c206f7781526020017f6e6572202d204163636570746564200000000000000000000000000000000000815250604001945050505050600060405180830381600087803b15156182d957600080fd5b6102c65a03f115156182ea57600080fd5b505050600660009054906101000a900473ffffffffffffffffffffffffffffffffffffffff1673ffffffffffffffffffffffffffffffffffffffff16637438f2b98a8360016040518463ffffffff167c0100000000000000000000000000000000000000000000000000000000028152600401808473ffffffffffffffffffffffffffffffffffffffff1673ffffffffffffffffffffffffffffffffffffffff168152602001838152602001807f50000000000000000000000000000000000000000000000000000000000000008152506020018260ff1681526020019350505050600060405180830381600087803b15156183e557600080fd5b6102c65a03f115156183f657600080fd5b5050505b5b8080600101915050617bf9565b6000861415618415578095505b600660009054906101000a900473ffffffffffffffffffffffffffffffffffffffff1673ffffffffffffffffffffffffffffffffffffffff1663a431b9d98a886040518363ffffffff167c0100000000000000000000000000000000000000000000000000000000028152600401808373ffffffffffffffffffffffffffffffffffffffff1673ffffffffffffffffffffffffffffffffffffffff16815260200182815260200192505050600060405180830381600087803b15156184d957600080fd5b6102c65a03f115156184ea57600080fd5b505050505050505050505050565b600080600080600080600080600080600660009054906101000a900473ffffffffffffffffffffffffffffffffffffffff1673ffffffffffffffffffffffffffffffffffffffff16638263a9386000604051602001526040518163ffffffff167c0100000000000000000000000000000000000000000000000000000000028152600401602060405180830381600087803b151561859557600080fd5b6102c65a03f115156185a657600080fd5b505050604051805190509950600097508a96505b89871015618b8b576185cc8c8861338b565b809650819750829a50839b5084995085985050505050505086831415618b7e5760028610156185f9578697505b60008511801561860857508385145b801561872657506000600660009054906101000a900473ffffffffffffffffffffffffffffffffffffffff1673ffffffffffffffffffffffffffffffffffffffff16637fcc239f8e866000604051602001526040518363ffffffff167c0100000000000000000000000000000000000000000000000000000000028152600401808373ffffffffffffffffffffffffffffffffffffffff1673ffffffffffffffffffffffffffffffffffffffff168152602001828152602001807f530000000000000000000000000000000000000000000000000000000000000081525060200192505050602060405180830381600087803b151561870657600080fd5b6102c65a03f1151561871757600080fd5b5050506040518051905060ff16145b15618b7d57606482600560009054906101000a900473ffffffffffffffffffffffffffffffffffffffff1673ffffffffffffffffffffffffffffffffffffffff1663199f48ae846000604051602001526040518263ffffffff167c010000000000000000000000000000000000000000000000000000000002815260040180828152602001915050602060405180830381600087803b15156187c757600080fd5b6102c65a03f115156187d857600080fd5b50505060405180519050028115156187ec57fe5b049850600660009054906101000a900473ffffffffffffffffffffffffffffffffffffffff1673ffffffffffffffffffffffffffffffffffffffff16638aae75998d896000604051602001526040518363ffffffff167c0100000000000000000000000000000000000000000000000000000000028152600401808373ffffffffffffffffffffffffffffffffffffffff1673ffffffffffffffffffffffffffffffffffffffff168152602001828152602001807f530000000000000000000000000000000000000000000000000000000000000081525060200192505050602060405180830381600087803b15156188e457600080fd5b6102c65a03f115156188f557600080fd5b5050506040518051905089600a540101600a81905550600660009054906101000a900473ffffffffffffffffffffffffffffffffffffffff1673ffffffffffffffffffffffffffffffffffffffff16630e77d0b38d898c6040518463ffffffff167c0100000000000000000000000000000000000000000000000000000000028152600401808473ffffffffffffffffffffffffffffffffffffffff1673ffffffffffffffffffffffffffffffffffffffff168152602001838152602001806020018381526020018281038252604e8152602001807f47425420526577617264206561726e656420666f72206265696e6720536f6c7581526020017f74696f6e206f776e6572202d2046696e616c20536f6c7574696f6e206279206d81526020017f616a6f7269747920766f74696e67000000000000000000000000000000000000815250606001945050505050600060405180830381600087803b1515618a5c57600080fd5b6102c65a03f11515618a6d57600080fd5b505050600660009054906101000a900473ffffffffffffffffffffffffffffffffffffffff1673ffffffffffffffffffffffffffffffffffffffff16637438f2b98d8960016040518463ffffffff167c0100000000000000000000000000000000000000000000000000000000028152600401808473ffffffffffffffffffffffffffffffffffffffff1673ffffffffffffffffffffffffffffffffffffffff168152602001838152602001807f53000000000000000000000000000000000000000000000000000000000000008152506020018260ff1681526020019350505050600060405180830381600087803b1515618b6857600080fd5b6102c65a03f11515618b7957600080fd5b5050505b5b86806001019750506185ba565b6000881415618b98578697505b600660009054906101000a900473ffffffffffffffffffffffffffffffffffffffff1673ffffffffffffffffffffffffffffffffffffffff1663718c9b398d8a6040518363ffffffff167c0100000000000000000000000000000000000000000000000000000000028152600401808373ffffffffffffffffffffffffffffffffffffffff1673ffffffffffffffffffffffffffffffffffffffff16815260200182815260200192505050600060405180830381600087803b1515618c5c57600080fd5b6102c65a03f11515618c6d57600080fd5b505050505050505050505050505050565b600080600080600080600080600080600660009054906101000a900473ffffffffffffffffffffffffffffffffffffffff1673ffffffffffffffffffffffffffffffffffffffff16638263a9386000604051602001526040518163ffffffff167c0100000000000000000000000000000000000000000000000000000000028152600401602060405180830381600087803b1515618d1b57600080fd5b6102c65a03f11515618d2c57600080fd5b505050604051805190509950600097508a96505b8987101561939a57618d528c886194dc565b50809650819750829850839950849a50859b505050505050506002851015618d78578697505b600084118015618d8757508386145b8015618ea557506000600660009054906101000a900473ffffffffffffffffffffffffffffffffffffffff1673ffffffffffffffffffffffffffffffffffffffff16637fcc239f8e8a6000604051602001526040518363ffffffff167c0100000000000000000000000000000000000000000000000000000000028152600401808373ffffffffffffffffffffffffffffffffffffffff1673ffffffffffffffffffffffffffffffffffffffff168152602001828152602001807f560000000000000000000000000000000000000000000000000000000000000081525060200192505050602060405180830381600087803b1515618e8557600080fd5b6102c65a03f11515618e9657600080fd5b5050506040518051905060ff16145b1561938d57600660009054906101000a900473ffffffffffffffffffffffffffffffffffffffff1673ffffffffffffffffffffffffffffffffffffffff1663b16e0009886000604051602001526040518263ffffffff167c010000000000000000000000000000000000000000000000000000000002815260040180828152602001915050602060405180830381600087803b1515618f4357600080fd5b6102c65a03f11515618f5457600080fd5b505050604051805190506064028383600560009054906101000a900473ffffffffffffffffffffffffffffffffffffffff1673ffffffffffffffffffffffffffffffffffffffff1663ce5f9a38856000604051602001526040518263ffffffff167c010000000000000000000000000000000000000000000000000000000002815260040180828152602001915050602060405180830381600087803b1515618ffc57600080fd5b6102c65a03f1151561900d57600080fd5b50505060405180519050020281151561902257fe5b049850600660009054906101000a900473ffffffffffffffffffffffffffffffffffffffff1673ffffffffffffffffffffffffffffffffffffffff16638aae75998d896000604051602001526040518363ffffffff167c0100000000000000000000000000000000000000000000000000000000028152600401808373ffffffffffffffffffffffffffffffffffffffff1673ffffffffffffffffffffffffffffffffffffffff168152602001828152602001807f560000000000000000000000000000000000000000000000000000000000000081525060200192505050602060405180830381600087803b151561911a57600080fd5b6102c65a03f1151561912b57600080fd5b5050506040518051905089600a540101600a81905550600660009054906101000a900473ffffffffffffffffffffffffffffffffffffffff1673ffffffffffffffffffffffffffffffffffffffff16630e77d0b38d898c6040518463ffffffff167c0100000000000000000000000000000000000000000000000000000000028152600401808473ffffffffffffffffffffffffffffffffffffffff1673ffffffffffffffffffffffffffffffffffffffff16815260200183815260200180602001838152602001828103825260388152602001807f47425420526577617264206561726e656420666f7220766f74696e6720696e2081526020017f6661766f7572206f662066696e616c20536f6c7574696f6e0000000000000000815250604001945050505050600060405180830381600087803b151561926c57600080fd5b6102c65a03f1151561927d57600080fd5b505050600660009054906101000a900473ffffffffffffffffffffffffffffffffffffffff1673ffffffffffffffffffffffffffffffffffffffff16637438f2b98d8960016040518463ffffffff167c0100000000000000000000000000000000000000000000000000000000028152600401808473ffffffffffffffffffffffffffffffffffffffff1673ffffffffffffffffffffffffffffffffffffffff168152602001838152602001807f56000000000000000000000000000000000000000000000000000000000000008152506020018260ff1681526020019350505050600060405180830381600087803b151561937857600080fd5b6102c65a03f1151561938957600080fd5b5050505b8680600101975050618d40565b60008814156193a7578697505b600660009054906101000a900473ffffffffffffffffffffffffffffffffffffffff1673ffffffffffffffffffffffffffffffffffffffff1663ef78e7078d8a6040518363ffffffff167c0100000000000000000000000000000000000000000000000000000000028152600401808373ffffffffffffffffffffffffffffffffffffffff1673ffffffffffffffffffffffffffffffffffffffff16815260200182815260200192505050600060405180830381600087803b151561946b57600080fd5b6102c65a03f1151561947c57600080fd5b505050505050505050505050505050565b60008082840190508363ffffffff168163ffffffff16101515156194ad57fe5b8091505092915050565b60008263ffffffff168263ffffffff16111515156194d157fe5b818303905092915050565b600080600080600080600080600660009054906101000a900473ffffffffffffffffffffffffffffffffffffffff1673ffffffffffffffffffffffffffffffffffffffff1663eef83a4b8b8b6000604051602001526040518363ffffffff167c0100000000000000000000000000000000000000000000000000000000028152600401808373ffffffffffffffffffffffffffffffffffffffff1673ffffffffffffffffffffffffffffffffffffffff16815260200182815260200192505050602060405180830381600087803b15156195b557600080fd5b6102c65a03f115156195c657600080fd5b505050604051805190509050600660009054906101000a900473ffffffffffffffffffffffffffffffffffffffff1673ffffffffffffffffffffffffffffffffffffffff1663b068892182600080604051602001526040518363ffffffff167c01000000000000000000000000000000000000000000000000000000000281526004018083815260200182815260200192505050602060405180830381600087803b151561967357600080fd5b6102c65a03f1151561968457600080fd5b505050604051805190509750600660009054906101000a900473ffffffffffffffffffffffffffffffffffffffff1673ffffffffffffffffffffffffffffffffffffffff1663401853b78a6000604051602001526040518263ffffffff167c010000000000000000000000000000000000000000000000000000000002815260040180828152602001915050602060405180830381600087803b151561972957600080fd5b6102c65a03f1151561973a57600080fd5b505050604051805190509650600660009054906101000a900473ffffffffffffffffffffffffffffffffffffffff1673ffffffffffffffffffffffffffffffffffffffff166322d3f8bc8a6000604051602001526040518263ffffffff167c010000000000000000000000000000000000000000000000000000000002815260040180828152602001915050602060405180830381600087803b15156197df57600080fd5b6102c65a03f115156197f057600080fd5b505050604051805190509550600660009054906101000a900473ffffffffffffffffffffffffffffffffffffffff1673ffffffffffffffffffffffffffffffffffffffff16633ee9363b826000604051602001526040518263ffffffff167c010000000000000000000000000000000000000000000000000000000002815260040180828152602001915050602060405180830381600087803b151561989557600080fd5b6102c65a03f115156198a657600080fd5b505050604051805190509450600660009054906101000a900473ffffffffffffffffffffffffffffffffffffffff1673ffffffffffffffffffffffffffffffffffffffff1663b16e00098a6000604051602001526040518263ffffffff167c010000000000000000000000000000000000000000000000000000000002815260040180828152602001915050602060405180830381600087803b151561994b57600080fd5b6102c65a03f1151561995c57600080fd5b505050604051805190509350600660009054906101000a900473ffffffffffffffffffffffffffffffffffffffff1673ffffffffffffffffffffffffffffffffffffffff16637fd6e5108a6000604051602001526040518263ffffffff167c010000000000000000000000000000000000000000000000000000000002815260040180828152602001915050602060405180830381600087803b1515619a0157600080fd5b6102c65a03f11515619a1257600080fd5b5050506040518051905060ff169250600660009054906101000a900473ffffffffffffffffffffffffffffffffffffffff1673ffffffffffffffffffffffffffffffffffffffff1663fd8136f28a6000604051602001526040518263ffffffff167c010000000000000000000000000000000000000000000000000000000002815260040180828152602001915050602060405180830381600087803b1515619aba57600080fd5b6102c65a03f11515619acb57600080fd5b5050506040518051905091505092959891949750929550565b6020604051908101604052806000815250905600a165627a7a723058203e93d272bd244f25e12b55bc9a771b4ada6de77502f974fd0a5a0475505a0bae0029a165627a7a723058207decc2b17954e9587669cc13f9edbee4801b87323f0ddcbab9865c2f05baf0270029",
  "source": "/* Copyright (C) 2017 GovBlocks.io\r\n\r\n  This program is free software: you can redistribute it and/or modify\r\n    it under the terms of the GNU General Public License as published by\r\n    the Free Software Foundation, either version 3 of the License, or\r\n    (at your option) any later version.\r\n\r\n  This program is distributed in the hope that it will be useful,\r\n    but WITHOUT ANY WARRANTY; without even the implied warranty of\r\n    MERCHANTABILITY or FITNESS FOR A PARTICULAR PURPOSE.  See the\r\n    GNU General Public License for more details.\r\n\r\n  You should have received a copy of the GNU General Public License\r\n    along with this program.  If not, see http://www.gnu.org/licenses/ */\r\n\r\npragma solidity ^0.4.8;\r\n\r\nimport \"./Governance.sol\";\r\n\r\ncontract GenerateGOV\r\n{\r\n    mapping(bytes32=>address) contractAddress;\r\n\r\n    /// @dev Gets address of governance contract by GovBlocks username\r\n    /// @param _gbUserName GovBlocks username\r\n    /// @return contractAddress[_gbUserName] Address of governance contract by GovBlocks username\r\n    function getAddress(bytes32 _gbUserName)constant returns(address)\r\n    {\r\n        return (contractAddress[_gbUserName]);\r\n    }\r\n    \r\n    /// @dev Generates new governance contract\r\n    /// @param _gbUserName GovBlocks username\r\n    function GenerateContract(bytes32 _gbUserName)\r\n    {\r\n        contractAddress[_gbUserName] = new Governance();\r\n    }\r\n}",
  "sourcePath": "D:\\RUCHITA\\GovBlocks-Protocol Access-Modifiers\\contracts\\GenerateGOV.sol",
  "compiler": {
    "name": "solc",
    "version": "0.4.18+commit.9cf6e910.Emscripten.clang"
  },
  "schemaVersion": "1.0.1",
  "updatedAt": "2018-04-24T10:21:38.318Z"
}