{
  "contractName": "GenerateGD",
  "abi": [
    {
      "constant": true,
      "inputs": [
        {
          "name": "_gbUserName",
          "type": "bytes32"
        }
      ],
      "name": "getAddress",
      "outputs": [
        {
          "name": "",
          "type": "address"
        }
      ],
      "payable": false,
      "stateMutability": "view",
      "type": "function"
    },
    {
      "constant": false,
      "inputs": [
        {
          "name": "_gbUserName",
          "type": "bytes32"
        }
      ],
      "name": "GenerateContract",
      "outputs": [],
      "payable": false,
      "stateMutability": "nonpayable",
      "type": "function"
    }
  ],
  "bytecode": "0x6060604052341561000f57600080fd5b6196c18061001e6000396000f30060606040526004361061004c576000357c0100000000000000000000000000000000000000000000000000000000900463ffffffff16806321f8a72114610051578063fba8be1b146100b8575b600080fd5b341561005c57600080fd5b6100766004808035600019169060200190919050506100df565b604051808273ffffffffffffffffffffffffffffffffffffffff1673ffffffffffffffffffffffffffffffffffffffff16815260200191505060405180910390f35b34156100c357600080fd5b6100dd600480803560001916906020019091905050610123565b005b6000806000836000191660001916815260200190815260200160002060009054906101000a900473ffffffffffffffffffffffffffffffffffffffff169050919050565b61012b61019c565b604051809103906000f080151561014157600080fd5b600080836000191660001916815260200190815260200160002060006101000a81548173ffffffffffffffffffffffffffffffffffffffff021916908373ffffffffffffffffffffffffffffffffffffffff16021790555050565b6040516194e9806101ad833901905600606060405234156200001057600080fd5b6194c980620000206000396000f3006060604052600436106104d9576000357c0100000000000000000000000000000000000000000000000000000000900463ffffffff1680624d041d146104de578063027397d01461050a578063033a24731461053f5780630e77d0b31461059c5780630eed6ce21461062a57806311aadbfb146106905780631655517f146106b957806317826ac4146106dc57806318ff42521461073f5780631b3b74f1146107885780632080b8b0146107e157806320e37dc41461080a57806322d3f8bc1461083f578063240aff8a14610876578063296569cf146109325780632cd739431461097257806330bd8c2e146109af5780633152fbd414610a615780633601df0b14610af55780633668b88014610b1e57806339bb960714610b4a5780633ee9363b14610b735780633fa51c1e14610baa578063401853b714610bec578063489c16d014610c2357806349d6ff8f14610c465780634adc34a314610c725780634dec2bcc14610cdd5780634fa76ec914610d005780635211086414610d2957806352301a5e14610d52578063525050e114610d8957806358e69c1914610db65780635b7b6d8914610e035780635d3bb56a14610e5e5780635f2a1d8914610e935780636188d1ad14610ebf57806361a0c02014610f3857806367bf5d0c14610f83578063707b852714610fe4578063718c9b391461101357806373114d461461105557806374035605146110b85780637438f2b91461111e57806378210a4b1461119457806379098c64146111b75780637b283a91146111e05780637cd8055a146112095780637fcc239f146112325780637fd6e510146112b65780638263a938146112f357806384e028d81461131c5780638aae75991461139057806392d05e0b1461140e57806393e4a4f51461143d5780639fb3ae2114611466578063a080d92614611489578063a33a3e80146114ac578063a431b9d91461153a578063a6647a641461157c578063ab69a71f146115a5578063ad320846146115de578063aef816e814611607578063b063c2c314611640578063b0688921146116ed578063b16e00091461172d578063b22cec8014611764578063b6323dd01461178d578063b88a802f146117d3578063bc1ab452146117e8578063beedc6e7146118a1578063bfe8826d146118cd578063c202543214611939578063cba7f2b0146119d0578063cbc87e5814611a51578063ccb787d514611a74578063cd6b44e314611a9d578063d2918de814611b67578063d31ce40d14611b90578063d3cc45a614611c08578063d46655f414611c80578063d5a3ff4214611cb9578063d83b2c0514611cfb578063dbbeeef914611d5e578063dc9324b214611dab578063dcd6e2dd14611de9578063df3e784114611e18578063e1bd427414611e47578063e20f4fc714611e84578063e231224014611ec2578063e29e0e8014611f0f578063e3726e8014611f9d578063e780306414611fd4578063ec1ce25114611ff7578063ec7d465c14612026578063ec9ccfff1461204f578063ed1eee71146120f4578063eecedcb01461211d578063eef83a4b14612156578063ef78e707146121ac578063f0d2921e146121ee578063f33ac99214612251578063f351df05146122c4578063f4159a3c146122fb578063f65ad75014612324578063f9915f03146123af578063fa0135241461247a578063fd8136f2146124bd575b600080fd5b34156104e957600080fd5b61050860048080359060200190919080359060200190919050506124f4565b005b341561051557600080fd5b61053d6004808035906020019091908035906020019091908035906020019091905050612667565b005b341561054a57600080fd5b61059a600480803573ffffffffffffffffffffffffffffffffffffffff1690602001909190803590602001909190803590602001909190803590602001909190803590602001909190505061280c565b005b34156105a757600080fd5b610628600480803573ffffffffffffffffffffffffffffffffffffffff1690602001909190803590602001909190803590602001908201803590602001908080601f016020809104026020016040519081016040528093929190818152602001838380828437820191505050505050919080359060200190919050506129c7565b005b341561063557600080fd5b61068e600480803590602001909190803590602001908201803590602001908080601f01602080910402602001604051908101604052809392919081815260200183838082843782019150505050505091905050612bde565b005b341561069b57600080fd5b6106a3612e15565b6040518082815260200191505060405180910390f35b34156106c457600080fd5b6106da6004808035906020019091905050612e1b565b005b34156106e757600080fd5b6106fd6004808035906020019091905050612e81565b604051808273ffffffffffffffffffffffffffffffffffffffff1673ffffffffffffffffffffffffffffffffffffffff16815260200191505060405180910390f35b341561074a57600080fd5b6107726004808035906020019091908035906020019091908035906020019091905050612ecb565b6040518082815260200191505060405180910390f35b341561079357600080fd5b6107bf600480803573ffffffffffffffffffffffffffffffffffffffff16906020019091905050612f13565b604051808263ffffffff1663ffffffff16815260200191505060405180910390f35b34156107ec57600080fd5b610808600480803563ffffffff16906020019091905050612fd3565b005b341561081557600080fd5b61083d6004808035906020019091908035906020019091908035906020019091905050613053565b005b341561084a57600080fd5b61086060048080359060200190919050506131ed565b6040518082815260200191505060405180910390f35b341561088157600080fd5b610930600480803573ffffffffffffffffffffffffffffffffffffffff1690602001909190803590602001909190803590602001908201803590602001908080601f0160208091040260200160405190810160405280939291908181526020018383808284378201915050505050509190803563ffffffff169060200190919080357bffffffffffffffffffffffffffffffffffffffffffffffffffffffff191690602001909190505061321c565b005b341561093d57600080fd5b61095c6004808035906020019091908035906020019091905050613486565b6040518082815260200191505060405180910390f35b341561097d57600080fd5b61099360048080359060200190919050506134b8565b604051808260ff1660ff16815260200191505060405180910390f35b34156109ba57600080fd5b6109d060048080359060200190919050506134e4565b604051808473ffffffffffffffffffffffffffffffffffffffff1673ffffffffffffffffffffffffffffffffffffffff16815260200180602001838152602001828103825284818151815260200191508051906020019060200280838360005b83811015610a4b578082015181840152602081019050610a30565b5050505090500194505050505060405180910390f35b3415610a6c57600080fd5b610a746135d1565b604051808763ffffffff1663ffffffff1681526020018663ffffffff1663ffffffff1681526020018563ffffffff1663ffffffff1681526020018463ffffffff1663ffffffff1681526020018363ffffffff1663ffffffff1681526020018263ffffffff1663ffffffff168152602001965050505050505060405180910390f35b3415610b0057600080fd5b610b1c600480803563ffffffff1690602001909190505061364d565b005b3415610b2957600080fd5b610b4860048080359060200190919080359060200190919050506136cc565b005b3415610b5557600080fd5b610b5d61384a565b6040518082815260200191505060405180910390f35b3415610b7e57600080fd5b610b946004808035906020019091905050613850565b6040518082815260200191505060405180910390f35b3415610bb557600080fd5b610bea600480803590602001909190803573ffffffffffffffffffffffffffffffffffffffff1690602001909190505061387a565b005b3415610bf757600080fd5b610c0d6004808035906020019091905050613a32565b6040518082815260200191505060405180910390f35b3415610c2e57600080fd5b610c446004808035906020019091905050613a61565b005b3415610c5157600080fd5b610c706004808035906020019091908035906020019091905050613ac7565b005b3415610c7d57600080fd5b610cb2600480803573ffffffffffffffffffffffffffffffffffffffff16906020019091908035906020019091905050613c3a565b6040518085815260200184815260200183815260200182815260200194505050505060405180910390f35b3415610ce857600080fd5b610cfe6004808035906020019091905050613cd3565b005b3415610d0b57600080fd5b610d13613d39565b6040518082815260200191505060405180910390f35b3415610d3457600080fd5b610d50600480803563ffffffff16906020019091905050613d3f565b005b3415610d5d57600080fd5b610d736004808035906020019091905050613dbf565b6040518082815260200191505060405180910390f35b3415610d9457600080fd5b610d9c613dde565b604051808215151515815260200191505060405180910390f35b3415610dc157600080fd5b610ded600480803573ffffffffffffffffffffffffffffffffffffffff16906020019091905050613df1565b6040518082815260200191505060405180910390f35b3415610e0e57600080fd5b610e3a600480803573ffffffffffffffffffffffffffffffffffffffff16906020019091905050613e3d565b60405180848152602001838152602001828152602001935050505060405180910390f35b3415610e6957600080fd5b610e916004808035906020019091908035906020019091908035906020019091905050613f18565b005b3415610e9e57600080fd5b610ebd6004808035906020019091908035906020019091905050614109565b005b3415610eca57600080fd5b610ee060048080359060200190919050506142a9565b6040518084815260200183600019166000191681526020018273ffffffffffffffffffffffffffffffffffffffff1673ffffffffffffffffffffffffffffffffffffffff168152602001935050505060405180910390f35b3415610f4357600080fd5b610f81600480803573ffffffffffffffffffffffffffffffffffffffff1690602001909190803590602001909190803590602001909190505061431e565b005b3415610f8e57600080fd5b610fe260048080357bffffffffffffffffffffffffffffffffffffffffffffffffffffffff191690602001909190803573ffffffffffffffffffffffffffffffffffffffff169060200190919050506144cd565b005b3415610fef57600080fd5b611011600480803590602001909190803560ff169060200190919050506146af565b005b341561101e57600080fd5b611053600480803573ffffffffffffffffffffffffffffffffffffffff1690602001909190803590602001909190505061488a565b005b341561106057600080fd5b6110766004808035906020019091905050614a2a565b604051808273ffffffffffffffffffffffffffffffffffffffff1673ffffffffffffffffffffffffffffffffffffffff16815260200191505060405180910390f35b34156110c357600080fd5b61111c600480803590602001909190803590602001908201803590602001908080601f01602080910402602001604051908101604052809392919081815260200183838082843782019150505050505091905050614a74565b005b341561112957600080fd5b611192600480803573ffffffffffffffffffffffffffffffffffffffff169060200190919080359060200190919080357bffffffffffffffffffffffffffffffffffffffffffffffffffffffff191690602001909190803560ff16906020019091905050614cd0565b005b341561119f57600080fd5b6111b56004808035906020019091905050614ee6565b005b34156111c257600080fd5b6111ca615045565b6040518082815260200191505060405180910390f35b34156111eb57600080fd5b6111f361504b565b6040518082815260200191505060405180910390f35b341561121457600080fd5b61121c615051565b6040518082815260200191505060405180910390f35b341561123d57600080fd5b61129a600480803573ffffffffffffffffffffffffffffffffffffffff169060200190919080359060200190919080357bffffffffffffffffffffffffffffffffffffffffffffffffffffffff1916906020019091905050615057565b604051808260ff1660ff16815260200191505060405180910390f35b34156112c157600080fd5b6112d76004808035906020019091905050615112565b604051808260ff1660ff16815260200191505060405180910390f35b34156112fe57600080fd5b61130661513e565b6040518082815260200191505060405180910390f35b341561132757600080fd5b61138e600480803563ffffffff1690602001909190803563ffffffff1690602001909190803563ffffffff1690602001909190803563ffffffff1690602001909190803563ffffffff1690602001909190803563ffffffff1690602001909190505061514b565b005b341561139b57600080fd5b6113f8600480803573ffffffffffffffffffffffffffffffffffffffff169060200190919080359060200190919080357bffffffffffffffffffffffffffffffffffffffffffffffffffffffff191690602001909190505061536d565b6040518082815260200191505060405180910390f35b341561141957600080fd5b61143b600480803590602001909190803560ff1690602001909190505061541b565b005b341561144857600080fd5b6114506155a2565b6040518082815260200191505060405180910390f35b341561147157600080fd5b61148760048080359060200190919050506155a8565b005b341561149457600080fd5b6114aa6004808035906020019091905050615707565b005b34156114b757600080fd5b611538600480803573ffffffffffffffffffffffffffffffffffffffff1690602001909190803590602001909190803590602001909190803590602001908201803590602001908080601f01602080910402602001604051908101604052809392919081815260200183838082843782019150505050505091905050615884565b005b341561154557600080fd5b61157a600480803573ffffffffffffffffffffffffffffffffffffffff16906020019091908035906020019091905050615aa2565b005b341561158757600080fd5b6115a3600480803563ffffffff16906020019091905050615c42565b005b34156115b057600080fd5b6115dc600480803573ffffffffffffffffffffffffffffffffffffffff16906020019091905050615cc2565b005b34156115e957600080fd5b6115f1615ee1565b6040518082815260200191505060405180910390f35b341561161257600080fd5b61163e600480803573ffffffffffffffffffffffffffffffffffffffff16906020019091905050615ee7565b005b341561164b57600080fd5b6116eb600480803590602001909190803573ffffffffffffffffffffffffffffffffffffffff1690602001909190803590602001908201803590602001908080601f0160208091040260200160405190810160405280939291908181526020018383808284378201915050505050509190803573ffffffffffffffffffffffffffffffffffffffff16906020019091908035906020019091905050615f87565b005b34156116f857600080fd5b61171760048080359060200190919080359060200190919050506162b2565b6040518082815260200191505060405180910390f35b341561173857600080fd5b61174e60048080359060200190919050506162f5565b6040518082815260200191505060405180910390f35b341561176f57600080fd5b611777616314565b6040518082815260200191505060405180910390f35b341561179857600080fd5b6117d160048080356000191690602001909190803573ffffffffffffffffffffffffffffffffffffffff1690602001909190505061631a565b005b34156117de57600080fd5b6117e6616525565b005b34156117f357600080fd5b61189f600480803590602001909190803573ffffffffffffffffffffffffffffffffffffffff1690602001909190803590602001908201803590602001908080601f0160208091040260200160405190810160405280939291908181526020018383808284378201915050505050509190803560ff1690602001909190803573ffffffffffffffffffffffffffffffffffffffff16906020019091908035906020019091905050616839565b005b34156118ac57600080fd5b6118cb60048080359060200190919080359060200190919050506169d1565b005b34156118d857600080fd5b6118f76004808035906020019091908035906020019091905050616b44565b604051808273ffffffffffffffffffffffffffffffffffffffff1673ffffffffffffffffffffffffffffffffffffffff16815260200191505060405180910390f35b341561194457600080fd5b6119ce600480803590602001909190803573ffffffffffffffffffffffffffffffffffffffff1690602001909190803590602001908201803590602001908080601f01602080910402602001604051908101604052809392919081815260200183838082843782019150505050505091908035906020019091908035906020019091905050616b9a565b005b34156119db57600080fd5b6119fa6004808035906020019091908035906020019091905050616dba565b6040518080602001828103825283818151815260200191508051906020019060200280838360005b83811015611a3d578082015181840152602081019050611a22565b505050509050019250505060405180910390f35b3415611a5c57600080fd5b611a726004808035906020019091905050616e3d565b005b3415611a7f57600080fd5b611a9b600480803563ffffffff16906020019091905050616ea3565b005b3415611aa857600080fd5b611abe6004808035906020019091905050616f23565b60405180868152602001806020018560ff1660ff1681526020018460ff1660ff1681526020018360ff1660ff168152602001828103825286818151815260200191508051906020019080838360005b83811015611b28578082015181840152602081019050611b0d565b50505050905090810190601f168015611b555780820380516001836020036101000a031916815260200191505b50965050505050505060405180910390f35b3415611b7257600080fd5b611b7a61708a565b6040518082815260200191505060405180910390f35b3415611b9b57600080fd5b611bb16004808035906020019091905050617090565b6040518080602001828103825283818151815260200191508051906020019060200280838360005b83811015611bf4578082015181840152602081019050611bd9565b505050509050019250505060405180910390f35b3415611c1357600080fd5b611c7e600480803590602001909190803590602001909190803590602001908201803590602001908080601f0160208091040260200160405190810160405280939291908181526020018383808284378201915050505050509190803590602001909190505061710e565b005b3415611c8b57600080fd5b611cb7600480803573ffffffffffffffffffffffffffffffffffffffff1690602001909190505061730f565b005b3415611cc457600080fd5b611cf9600480803590602001909190803573ffffffffffffffffffffffffffffffffffffffff16906020019091905050617530565b005b3415611d0657600080fd5b611d1c60048080359060200190919050506176fd565b604051808273ffffffffffffffffffffffffffffffffffffffff1673ffffffffffffffffffffffffffffffffffffffff16815260200191505060405180910390f35b3415611d6957600080fd5b611d95600480803573ffffffffffffffffffffffffffffffffffffffff16906020019091905050617747565b6040518082815260200191505060405180910390f35b3415611db657600080fd5b611dcc6004808035906020019091905050617793565b604051808381526020018281526020019250505060405180910390f35b3415611df457600080fd5b611e16600480803590602001909190803560ff169060200190919050506177cb565b005b3415611e2357600080fd5b611e45600480803590602001909190803560ff16906020019091905050617952565b005b3415611e5257600080fd5b611e686004808035906020019091905050617ad9565b604051808260ff1660ff16815260200191505060405180910390f35b3415611e8f57600080fd5b611ea56004808035906020019091905050617b05565b604051808381526020018281526020019250505060405180910390f35b3415611ecd57600080fd5b611ef9600480803573ffffffffffffffffffffffffffffffffffffffff16906020019091905050617b63565b6040518082815260200191505060405180910390f35b3415611f1a57600080fd5b611f9b600480803573ffffffffffffffffffffffffffffffffffffffff1690602001909190803590602001909190803590602001908201803590602001908080601f01602080910402602001604051908101604052809392919081815260200183838082843782019150505050505091908035906020019091905050617baf565b005b3415611fa857600080fd5b611fbe6004808035906020019091905050617dc6565b6040518082815260200191505060405180910390f35b3415611fdf57600080fd5b611ff56004808035906020019091905050617df0565b005b341561200257600080fd5b612024600480803590602001909190803560ff16906020019091905050617e56565b005b341561203157600080fd5b612039617fdd565b6040518082815260200191505060405180910390f35b341561205a57600080fd5b6120706004808035906020019091905050617fea565b604051808881526020018760ff1660ff1681526020018660ff1660ff1681526020018560ff1660ff1681526020018460ff1660ff1681526020018373ffffffffffffffffffffffffffffffffffffffff1673ffffffffffffffffffffffffffffffffffffffff16815260200182815260200197505050505050505060405180910390f35b34156120ff57600080fd5b6121076180f3565b6040518082815260200191505060405180910390f35b341561212857600080fd5b612154600480803573ffffffffffffffffffffffffffffffffffffffff169060200190919050506180f9565b005b341561216157600080fd5b612196600480803573ffffffffffffffffffffffffffffffffffffffff16906020019091908035906020019091905050618199565b6040518082815260200191505060405180910390f35b34156121b757600080fd5b6121ec600480803573ffffffffffffffffffffffffffffffffffffffff169060200190919080359060200190919050506181f4565b005b34156121f957600080fd5b61220f6004808035906020019091905050618394565b604051808273ffffffffffffffffffffffffffffffffffffffff1673ffffffffffffffffffffffffffffffffffffffff16815260200191505060405180910390f35b341561225c57600080fd5b6122c2600480803573ffffffffffffffffffffffffffffffffffffffff169060200190919080359060200190919080357bffffffffffffffffffffffffffffffffffffffffffffffffffffffff19169060200190919080359060200190919050506183de565b005b34156122cf57600080fd5b6122e560048080359060200190919050506185e0565b6040518082815260200191505060405180910390f35b341561230657600080fd5b612322600480803563ffffffff16906020019091905050618600565b005b341561232f57600080fd5b6123456004808035906020019091905050618680565b604051808681526020018573ffffffffffffffffffffffffffffffffffffffff1673ffffffffffffffffffffffffffffffffffffffff1681526020018481526020018360ff1660ff1681526020018260ff1660ff1681526020019550505050505060405180910390f35b34156123ba57600080fd5b612478600480803590602001908201803590602001908080601f0160208091040260200160405190810160405280939291908181526020018383808284378201915050505050509190803590602001909190803573ffffffffffffffffffffffffffffffffffffffff1690602001909190803563ffffffff1690602001909190803563ffffffff169060200190919080357bffffffffffffffffffffffffffffffffffffffffffffffffffffffff1916906020019091905050618744565b005b341561248557600080fd5b6124a7600480803590602001909190803560ff16906020019091905050618a0d565b6040518082815260200191505060405180910390f35b34156124c857600080fd5b6124de6004808035906020019091905050618a3d565b6040518082815260200191505060405180910390f35b601c60009054906101000a900473ffffffffffffffffffffffffffffffffffffffff16601960006101000a81548173ffffffffffffffffffffffffffffffffffffffff021916908373ffffffffffffffffffffffffffffffffffffffff16021790555060011515601960009054906101000a900473ffffffffffffffffffffffffffffffffffffffff1673ffffffffffffffffffffffffffffffffffffffff16638f16c41c336000604051602001526040518263ffffffff167c0100000000000000000000000000000000000000000000000000000000028152600401808273ffffffffffffffffffffffffffffffffffffffff1673ffffffffffffffffffffffffffffffffffffffff168152602001915050602060405180830381600087803b151561262057600080fd5b6102c65a03f1151561263157600080fd5b50505060405180519050151514151561264957600080fd5b80600080848152602001908152602001600020600101819055505050565b601c60009054906101000a900473ffffffffffffffffffffffffffffffffffffffff16601960006101000a81548173ffffffffffffffffffffffffffffffffffffffff021916908373ffffffffffffffffffffffffffffffffffffffff16021790555060011515601960009054906101000a900473ffffffffffffffffffffffffffffffffffffffff1673ffffffffffffffffffffffffffffffffffffffff16638f16c41c336000604051602001526040518263ffffffff167c0100000000000000000000000000000000000000000000000000000000028152600401808273ffffffffffffffffffffffffffffffffffffffff1673ffffffffffffffffffffffffffffffffffffffff168152602001915050602060405180830381600087803b151561279357600080fd5b6102c65a03f115156127a457600080fd5b5050506040518051905015151415156127bc57600080fd5b60046000848152602001908152602001600020600083815260200190815260200160002080548060010182816127f291906190b3565b916000526020600020900160008390919091505550505050565b601c60009054906101000a900473ffffffffffffffffffffffffffffffffffffffff16601960006101000a81548173ffffffffffffffffffffffffffffffffffffffff021916908373ffffffffffffffffffffffffffffffffffffffff16021790555060011515601960009054906101000a900473ffffffffffffffffffffffffffffffffffffffff1673ffffffffffffffffffffffffffffffffffffffff16638f16c41c336000604051602001526040518263ffffffff167c0100000000000000000000000000000000000000000000000000000000028152600401808273ffffffffffffffffffffffffffffffffffffffff1673ffffffffffffffffffffffffffffffffffffffff168152602001915050602060405180830381600087803b151561293857600080fd5b6102c65a03f1151561294957600080fd5b50505060405180519050151514151561296157600080fd5b838573ffffffffffffffffffffffffffffffffffffffff167f89eb0be5e1a1bcbad3c382ad8d3f2698ea4d54d9a179cd2368d184358ecad45185858560405180848152602001838152602001828152602001935050505060405180910390a35050505050565b601c60009054906101000a900473ffffffffffffffffffffffffffffffffffffffff16601960006101000a81548173ffffffffffffffffffffffffffffffffffffffff021916908373ffffffffffffffffffffffffffffffffffffffff16021790555060011515601960009054906101000a900473ffffffffffffffffffffffffffffffffffffffff1673ffffffffffffffffffffffffffffffffffffffff16638f16c41c336000604051602001526040518263ffffffff167c0100000000000000000000000000000000000000000000000000000000028152600401808273ffffffffffffffffffffffffffffffffffffffff1673ffffffffffffffffffffffffffffffffffffffff168152602001915050602060405180830381600087803b1515612af357600080fd5b6102c65a03f11515612b0457600080fd5b505050604051805190501515141515612b1c57600080fd5b828473ffffffffffffffffffffffffffffffffffffffff167fe5a1eff4ac9bf9f212953b084537ae0a47f6cf3c58cd3beafc042892fce0ab8a84846040518080602001838152602001828103825284818151815260200191508051906020019080838360005b83811015612b9d578082015181840152602081019050612b82565b50505050905090810190601f168015612bca5780820380516001836020036101000a031916815260200191505b50935050505060405180910390a350505050565b6000601c60009054906101000a900473ffffffffffffffffffffffffffffffffffffffff16601960006101000a81548173ffffffffffffffffffffffffffffffffffffffff021916908373ffffffffffffffffffffffffffffffffffffffff16021790555060011515601960009054906101000a900473ffffffffffffffffffffffffffffffffffffffff1673ffffffffffffffffffffffffffffffffffffffff16638f16c41c336000604051602001526040518263ffffffff167c0100000000000000000000000000000000000000000000000000000000028152600401808273ffffffffffffffffffffffffffffffffffffffff1673ffffffffffffffffffffffffffffffffffffffff168152602001915050602060405180830381600087803b1515612d0c57600080fd5b6102c65a03f11515612d1d57600080fd5b505050604051805190501515141515612d3557600080fd5b600160008085815260200190815260200160002060000160059054906101000a900460ff160190508060ff16837f76b141f6b2c4aef07d2be2f4d572eb1fe6fc483cf20b69274dad519cb5571fc184426040518080602001838152602001828103825284818151815260200191508051906020019080838360005b83811015612dcb578082015181840152602081019050612db0565b50505050905090810190601f168015612df85780820380516001836020036101000a031916815260200191505b50935050505060405180910390a3612e108382618a5c565b505050565b600c5481565b601d60009054906101000a900473ffffffffffffffffffffffffffffffffffffffff1673ffffffffffffffffffffffffffffffffffffffff163373ffffffffffffffffffffffffffffffffffffffff16141515612e7757600080fd5b80600d8190555050565b6000601682815481101515612e9257fe5b906000526020600020906003020160000160009054906101000a900473ffffffffffffffffffffffffffffffffffffffff169050919050565b600060046000858152602001908152602001600020600084815260200190815260200160002082815481101515612efe57fe5b90600052602060002090015490509392505050565b600080600260008473ffffffffffffffffffffffffffffffffffffffff1673ffffffffffffffffffffffffffffffffffffffff16815260200190815260200160002060009054906101000a900463ffffffff1663ffffffff161415612f7b5760019050612fce565b600260008373ffffffffffffffffffffffffffffffffffffffff1673ffffffffffffffffffffffffffffffffffffffff16815260200190815260200160002060009054906101000a900463ffffffff1690505b919050565b601d60009054906101000a900473ffffffffffffffffffffffffffffffffffffffff1673ffffffffffffffffffffffffffffffffffffffff163373ffffffffffffffffffffffffffffffffffffffff1614151561302f57600080fd5b80601460046101000a81548163ffffffff021916908363ffffffff16021790555050565b601c60009054906101000a900473ffffffffffffffffffffffffffffffffffffffff16601960006101000a81548173ffffffffffffffffffffffffffffffffffffffff021916908373ffffffffffffffffffffffffffffffffffffffff16021790555060011515601960009054906101000a900473ffffffffffffffffffffffffffffffffffffffff1673ffffffffffffffffffffffffffffffffffffffff16638f16c41c336000604051602001526040518263ffffffff167c0100000000000000000000000000000000000000000000000000000000028152600401808273ffffffffffffffffffffffffffffffffffffffff1673ffffffffffffffffffffffffffffffffffffffff168152602001915050602060405180830381600087803b151561317f57600080fd5b6102c65a03f1151561319057600080fd5b5050506040518051905015151415156131a857600080fd5b827f5aabd8d9f8e9341daca92ba7a308348e80ea84b99d54897bf63a7493c1eca27e8383604051808381526020018281526020019250505060405180910390a2505050565b600080600083815260200190815260200160002060000160039054906101000a900460ff1660ff169050919050565b601c60009054906101000a900473ffffffffffffffffffffffffffffffffffffffff16601960006101000a81548173ffffffffffffffffffffffffffffffffffffffff021916908373ffffffffffffffffffffffffffffffffffffffff16021790555060011515601960009054906101000a900473ffffffffffffffffffffffffffffffffffffffff1673ffffffffffffffffffffffffffffffffffffffff16638f16c41c336000604051602001526040518263ffffffff167c0100000000000000000000000000000000000000000000000000000000028152600401808273ffffffffffffffffffffffffffffffffffffffff1673ffffffffffffffffffffffffffffffffffffffff168152602001915050602060405180830381600087803b151561334857600080fd5b6102c65a03f1151561335957600080fd5b50505060405180519050151514151561337157600080fd5b838573ffffffffffffffffffffffffffffffffffffffff167fce0d3f9d027074f1f630a0dce9a86a485923d702c3e5dbdf98fc045e3046710a85858560405180806020018463ffffffff1663ffffffff168152602001837bffffffffffffffffffffffffffffffffffffffffffffffffffffffff19167bffffffffffffffffffffffffffffffffffffffffffffffffffffffff19168152602001828103825285818151815260200191508051906020019080838360005b83811015613443578082015181840152602081019050613428565b50505050905090810190601f1680156134705780820380516001836020036101000a031916815260200191505b5094505050505060405180910390a35050505050565b600060046000848152602001908152602001600020600083815260200190815260200160002080549050905092915050565b600080600083815260200190815260200160002060000160009054906101000a900460ff169050919050565b60006134ee6190df565b60006017848154811015156134ff57fe5b906000526020600020906003020160000160009054906101000a900473ffffffffffffffffffffffffffffffffffffffff1660178581548110151561354057fe5b906000526020600020906003020160010160178681548110151561356057fe5b906000526020600020906003020160020154818054806020026020016040519081016040528092919081815260200182805480156135bd57602002820191906000526020600020905b8154815260200190600101908083116135a9575b505050505091509250925092509193909250565b600080600080600080601460009054906101000a900463ffffffff1685601460089054906101000a900463ffffffff166014600c9054906101000a900463ffffffff16601460109054906101000a900463ffffffff166014809054906101000a900463ffffffff16955095509550955095509550909192939495565b601d60009054906101000a900473ffffffffffffffffffffffffffffffffffffffff1673ffffffffffffffffffffffffffffffffffffffff163373ffffffffffffffffffffffffffffffffffffffff161415156136a957600080fd5b806014806101000a81548163ffffffff021916908363ffffffff16021790555050565b601c60009054906101000a900473ffffffffffffffffffffffffffffffffffffffff16601960006101000a81548173ffffffffffffffffffffffffffffffffffffffff021916908373ffffffffffffffffffffffffffffffffffffffff16021790555060011515601960009054906101000a900473ffffffffffffffffffffffffffffffffffffffff1673ffffffffffffffffffffffffffffffffffffffff16638f16c41c336000604051602001526040518263ffffffff167c0100000000000000000000000000000000000000000000000000000000028152600401808273ffffffffffffffffffffffffffffffffffffffff1673ffffffffffffffffffffffffffffffffffffffff168152602001915050602060405180830381600087803b15156137f857600080fd5b6102c65a03f1151561380957600080fd5b50505060405180519050151514151561382157600080fd5b8060178381548110151561383157fe5b9060005260206000209060030201600201819055505050565b60135481565b600060178281548110151561386157fe5b9060005260206000209060030201600201549050919050565b601c60009054906101000a900473ffffffffffffffffffffffffffffffffffffffff16601960006101000a81548173ffffffffffffffffffffffffffffffffffffffff021916908373ffffffffffffffffffffffffffffffffffffffff16021790555060011515601960009054906101000a900473ffffffffffffffffffffffffffffffffffffffff1673ffffffffffffffffffffffffffffffffffffffff16638f16c41c336000604051602001526040518263ffffffff167c0100000000000000000000000000000000000000000000000000000000028152600401808273ffffffffffffffffffffffffffffffffffffffff1673ffffffffffffffffffffffffffffffffffffffff168152602001915050602060405180830381600087803b15156139a657600080fd5b6102c65a03f115156139b757600080fd5b5050506040518051905015151415156139cf57600080fd5b806018838154811015156139df57fe5b906000526020600020906002020160010160006101000a81548173ffffffffffffffffffffffffffffffffffffffff021916908373ffffffffffffffffffffffffffffffffffffffff1602179055505050565b600080600083815260200190815260200160002060000160019054906101000a900460ff1660ff169050919050565b601d60009054906101000a900473ffffffffffffffffffffffffffffffffffffffff1673ffffffffffffffffffffffffffffffffffffffff163373ffffffffffffffffffffffffffffffffffffffff16141515613abd57600080fd5b8060088190555050565b601c60009054906101000a900473ffffffffffffffffffffffffffffffffffffffff16601960006101000a81548173ffffffffffffffffffffffffffffffffffffffff021916908373ffffffffffffffffffffffffffffffffffffffff16021790555060011515601960009054906101000a900473ffffffffffffffffffffffffffffffffffffffff1673ffffffffffffffffffffffffffffffffffffffff16638f16c41c336000604051602001526040518263ffffffff167c0100000000000000000000000000000000000000000000000000000000028152600401808273ffffffffffffffffffffffffffffffffffffffff1673ffffffffffffffffffffffffffffffffffffffff168152602001915050602060405180830381600087803b1515613bf357600080fd5b6102c65a03f11515613c0457600080fd5b505050604051805190501515141515613c1c57600080fd5b80600080848152602001908152602001600020600301819055505050565b60008060008084613c6c87877f500000000000000000000000000000000000000000000000000000000000000061536d565b613c9788887f530000000000000000000000000000000000000000000000000000000000000061536d565b613cc289897f560000000000000000000000000000000000000000000000000000000000000061536d565b935093509350935092959194509250565b601d60009054906101000a900473ffffffffffffffffffffffffffffffffffffffff1673ffffffffffffffffffffffffffffffffffffffff163373ffffffffffffffffffffffffffffffffffffffff16141515613d2f57600080fd5b80600c8190555050565b60085481565b601d60009054906101000a900473ffffffffffffffffffffffffffffffffffffffff1673ffffffffffffffffffffffffffffffffffffffff163373ffffffffffffffffffffffffffffffffffffffff16141515613d9b57600080fd5b80601460006101000a81548163ffffffff021916908363ffffffff16021790555050565b6000806000838152602001908152602001600020600301549050919050565b600f60009054906101000a900460ff1681565b6000600760008373ffffffffffffffffffffffffffffffffffffffff1673ffffffffffffffffffffffffffffffffffffffff168152602001908152602001600020600201549050919050565b6000806000600760008573ffffffffffffffffffffffffffffffffffffffff1673ffffffffffffffffffffffffffffffffffffffff16815260200190815260200160002060000154600760008673ffffffffffffffffffffffffffffffffffffffff1673ffffffffffffffffffffffffffffffffffffffff16815260200190815260200160002060010154600760008773ffffffffffffffffffffffffffffffffffffffff1673ffffffffffffffffffffffffffffffffffffffff168152602001908152602001600020600201549250925092509193909250565b601c60009054906101000a900473ffffffffffffffffffffffffffffffffffffffff16601960006101000a81548173ffffffffffffffffffffffffffffffffffffffff021916908373ffffffffffffffffffffffffffffffffffffffff16021790555060011515601960009054906101000a900473ffffffffffffffffffffffffffffffffffffffff1673ffffffffffffffffffffffffffffffffffffffff16638f16c41c336000604051602001526040518263ffffffff167c0100000000000000000000000000000000000000000000000000000000028152600401808273ffffffffffffffffffffffffffffffffffffffff1673ffffffffffffffffffffffffffffffffffffffff168152602001915050602060405180830381600087803b151561404457600080fd5b6102c65a03f1151561405557600080fd5b50505060405180519050151514151561406d57600080fd5b8260168481548110151561407d57fe5b906000526020600020906003020160000160009054906101000a900473ffffffffffffffffffffffffffffffffffffffff1673ffffffffffffffffffffffffffffffffffffffff167ff87b3a3e8c3a749e386f69c3af3f0768950a01d20b6972838abd709fce7ed4248484604051808381526020018281526020019250505060405180910390a3505050565b601c60009054906101000a900473ffffffffffffffffffffffffffffffffffffffff16601960006101000a81548173ffffffffffffffffffffffffffffffffffffffff021916908373ffffffffffffffffffffffffffffffffffffffff16021790555060011515601960009054906101000a900473ffffffffffffffffffffffffffffffffffffffff1673ffffffffffffffffffffffffffffffffffffffff16638f16c41c336000604051602001526040518263ffffffff167c0100000000000000000000000000000000000000000000000000000000028152600401808273ffffffffffffffffffffffffffffffffffffffff1673ffffffffffffffffffffffffffffffffffffffff168152602001915050602060405180830381600087803b151561423557600080fd5b6102c65a03f1151561424657600080fd5b50505060405180519050151514151561425e57600080fd5b60178281548110151561426d57fe5b9060005260206000209060030201600101805480600101828161429091906190b3565b9160005260206000209001600083909190915055505050565b6000806000836018858154811015156142be57fe5b9060005260206000209060020201600001546018868154811015156142df57fe5b906000526020600020906002020160010160009054906101000a900473ffffffffffffffffffffffffffffffffffffffff169250925092509193909250565b601c60009054906101000a900473ffffffffffffffffffffffffffffffffffffffff16601960006101000a81548173ffffffffffffffffffffffffffffffffffffffff021916908373ffffffffffffffffffffffffffffffffffffffff16021790555060011515601960009054906101000a900473ffffffffffffffffffffffffffffffffffffffff1673ffffffffffffffffffffffffffffffffffffffff16638f16c41c336000604051602001526040518263ffffffff167c0100000000000000000000000000000000000000000000000000000000028152600401808273ffffffffffffffffffffffffffffffffffffffff1673ffffffffffffffffffffffffffffffffffffffff168152602001915050602060405180830381600087803b151561444a57600080fd5b6102c65a03f1151561445b57600080fd5b50505060405180519050151514151561447357600080fd5b80600360008573ffffffffffffffffffffffffffffffffffffffff1673ffffffffffffffffffffffffffffffffffffffff168152602001908152602001600020600084815260200190815260200160002081905550505050565b601c60009054906101000a900473ffffffffffffffffffffffffffffffffffffffff16601960006101000a81548173ffffffffffffffffffffffffffffffffffffffff021916908373ffffffffffffffffffffffffffffffffffffffff16021790555060011515601960009054906101000a900473ffffffffffffffffffffffffffffffffffffffff1673ffffffffffffffffffffffffffffffffffffffff16638f16c41c336000604051602001526040518263ffffffff167c0100000000000000000000000000000000000000000000000000000000028152600401808273ffffffffffffffffffffffffffffffffffffffff1673ffffffffffffffffffffffffffffffffffffffff168152602001915050602060405180830381600087803b15156145f957600080fd5b6102c65a03f1151561460a57600080fd5b50505060405180519050151514151561462257600080fd5b7f474f560000000000000000000000000000000000000000000000000000000000827bffffffffffffffffffffffffffffffffffffffffffffffffffffffff191614156146ab5780601b60006101000a81548173ffffffffffffffffffffffffffffffffffffffff021916908373ffffffffffffffffffffffffffffffffffffffff1602179055505b5050565b601c60009054906101000a900473ffffffffffffffffffffffffffffffffffffffff16601960006101000a81548173ffffffffffffffffffffffffffffffffffffffff021916908373ffffffffffffffffffffffffffffffffffffffff16021790555060011515601960009054906101000a900473ffffffffffffffffffffffffffffffffffffffff1673ffffffffffffffffffffffffffffffffffffffff16638f16c41c336000604051602001526040518263ffffffff167c0100000000000000000000000000000000000000000000000000000000028152600401808273ffffffffffffffffffffffffffffffffffffffff1673ffffffffffffffffffffffffffffffffffffffff168152602001915050602060405180830381600087803b15156147db57600080fd5b6102c65a03f115156147ec57600080fd5b50505060405180519050151514151561480457600080fd5b600080600084815260200190815260200160002060000160029054906101000a900460ff1660ff161415151561483957600080fd5b817f5aabd8d9f8e9341daca92ba7a308348e80ea84b99d54897bf63a7493c1eca27e8242604051808360ff1681526020018281526020019250505060405180910390a26148868282618a8e565b5050565b601c60009054906101000a900473ffffffffffffffffffffffffffffffffffffffff16601960006101000a81548173ffffffffffffffffffffffffffffffffffffffff021916908373ffffffffffffffffffffffffffffffffffffffff16021790555060011515601960009054906101000a900473ffffffffffffffffffffffffffffffffffffffff1673ffffffffffffffffffffffffffffffffffffffff16638f16c41c336000604051602001526040518263ffffffff167c0100000000000000000000000000000000000000000000000000000000028152600401808273ffffffffffffffffffffffffffffffffffffffff1673ffffffffffffffffffffffffffffffffffffffff168152602001915050602060405180830381600087803b15156149b657600080fd5b6102c65a03f115156149c757600080fd5b5050506040518051905015151415156149df57600080fd5b80600760008473ffffffffffffffffffffffffffffffffffffffff1673ffffffffffffffffffffffffffffffffffffffff168152602001908152602001600020600101819055505050565b6000601682815481101515614a3b57fe5b906000526020600020906003020160020160009054906101000a900473ffffffffffffffffffffffffffffffffffffffff169050919050565b601c60009054906101000a900473ffffffffffffffffffffffffffffffffffffffff16601960006101000a81548173ffffffffffffffffffffffffffffffffffffffff021916908373ffffffffffffffffffffffffffffffffffffffff16021790555060011515601960009054906101000a900473ffffffffffffffffffffffffffffffffffffffff1673ffffffffffffffffffffffffffffffffffffffff16638f16c41c336000604051602001526040518263ffffffff167c0100000000000000000000000000000000000000000000000000000000028152600401808273ffffffffffffffffffffffffffffffffffffffff1673ffffffffffffffffffffffffffffffffffffffff168152602001915050602060405180830381600087803b1515614ba057600080fd5b6102c65a03f11515614bb157600080fd5b505050604051805190501515141515614bc957600080fd5b601682815481101515614bd857fe5b906000526020600020906003020160000160009054906101000a900473ffffffffffffffffffffffffffffffffffffffff1673ffffffffffffffffffffffffffffffffffffffff167fcb191326b156e71a84d920401adf8a5e6d30f0be9d43f9782e7a7b255395ddea8342846040518084815260200183815260200180602001828103825283818151815260200191508051906020019080838360005b83811015614c90578082015181840152602081019050614c75565b50505050905090810190601f168015614cbd5780820380516001836020036101000a031916815260200191505b5094505050505060405180910390a25050565b601c60009054906101000a900473ffffffffffffffffffffffffffffffffffffffff16601960006101000a81548173ffffffffffffffffffffffffffffffffffffffff021916908373ffffffffffffffffffffffffffffffffffffffff16021790555060011515601960009054906101000a900473ffffffffffffffffffffffffffffffffffffffff1673ffffffffffffffffffffffffffffffffffffffff16638f16c41c336000604051602001526040518263ffffffff167c0100000000000000000000000000000000000000000000000000000000028152600401808273ffffffffffffffffffffffffffffffffffffffff1673ffffffffffffffffffffffffffffffffffffffff168152602001915050602060405180830381600087803b1515614dfc57600080fd5b6102c65a03f11515614e0d57600080fd5b505050604051805190501515141515614e2557600080fd5b80600660008673ffffffffffffffffffffffffffffffffffffffff1673ffffffffffffffffffffffffffffffffffffffff16815260200190815260200160002060008581526020019081526020016000206000847bffffffffffffffffffffffffffffffffffffffffffffffffffffffff19167bffffffffffffffffffffffffffffffffffffffffffffffffffffffff1916815260200190815260200160002060010160006101000a81548160ff021916908360ff16021790555050505050565b601c60009054906101000a900473ffffffffffffffffffffffffffffffffffffffff16601960006101000a81548173ffffffffffffffffffffffffffffffffffffffff021916908373ffffffffffffffffffffffffffffffffffffffff16021790555060011515601960009054906101000a900473ffffffffffffffffffffffffffffffffffffffff1673ffffffffffffffffffffffffffffffffffffffff16632f54bf6e336000604051602001526040518263ffffffff167c0100000000000000000000000000000000000000000000000000000000028152600401808273ffffffffffffffffffffffffffffffffffffffff1673ffffffffffffffffffffffffffffffffffffffff168152602001915050602060405180830381600087803b151561501257600080fd5b6102c65a03f1151561502357600080fd5b50505060405180519050151514151561503b57600080fd5b8060138190555050565b600e5481565b60125481565b60095481565b6000600660008573ffffffffffffffffffffffffffffffffffffffff1673ffffffffffffffffffffffffffffffffffffffff16815260200190815260200160002060008481526020019081526020016000206000837bffffffffffffffffffffffffffffffffffffffffffffffffffffffff19167bffffffffffffffffffffffffffffffffffffffffffffffffffffffff1916815260200190815260200160002060010160009054906101000a900460ff1690509392505050565b600080600083815260200190815260200160002060000160029054906101000a900460ff169050919050565b6000601680549050905090565b601c60009054906101000a900473ffffffffffffffffffffffffffffffffffffffff16601960006101000a81548173ffffffffffffffffffffffffffffffffffffffff021916908373ffffffffffffffffffffffffffffffffffffffff16021790555060011515601960009054906101000a900473ffffffffffffffffffffffffffffffffffffffff1673ffffffffffffffffffffffffffffffffffffffff16632f54bf6e336000604051602001526040518263ffffffff167c0100000000000000000000000000000000000000000000000000000000028152600401808273ffffffffffffffffffffffffffffffffffffffff1673ffffffffffffffffffffffffffffffffffffffff168152602001915050602060405180830381600087803b151561527757600080fd5b6102c65a03f1151561528857600080fd5b5050506040518051905015151415156152a057600080fd5b85601460006101000a81548163ffffffff021916908363ffffffff16021790555084601460046101000a81548163ffffffff021916908363ffffffff16021790555083601460086101000a81548163ffffffff021916908363ffffffff160217905550826014600c6101000a81548163ffffffff021916908363ffffffff16021790555081601460106101000a81548163ffffffff021916908363ffffffff160217905550806014806101000a81548163ffffffff021916908363ffffffff160217905550505050505050565b6000600660008573ffffffffffffffffffffffffffffffffffffffff1673ffffffffffffffffffffffffffffffffffffffff16815260200190815260200160002060008481526020019081526020016000206000837bffffffffffffffffffffffffffffffffffffffffffffffffffffffff19167bffffffffffffffffffffffffffffffffffffffffffffffffffffffff191681526020019081526020016000206000015490509392505050565b601c60009054906101000a900473ffffffffffffffffffffffffffffffffffffffff16601960006101000a81548173ffffffffffffffffffffffffffffffffffffffff021916908373ffffffffffffffffffffffffffffffffffffffff16021790555060011515601960009054906101000a900473ffffffffffffffffffffffffffffffffffffffff1673ffffffffffffffffffffffffffffffffffffffff16638f16c41c336000604051602001526040518263ffffffff167c0100000000000000000000000000000000000000000000000000000000028152600401808273ffffffffffffffffffffffffffffffffffffffff1673ffffffffffffffffffffffffffffffffffffffff168152602001915050602060405180830381600087803b151561554757600080fd5b6102c65a03f1151561555857600080fd5b50505060405180519050151514151561557057600080fd5b8060008084815260200190815260200160002060000160026101000a81548160ff021916908360ff1602179055505050565b600d5481565b601c60009054906101000a900473ffffffffffffffffffffffffffffffffffffffff16601960006101000a81548173ffffffffffffffffffffffffffffffffffffffff021916908373ffffffffffffffffffffffffffffffffffffffff16021790555060011515601960009054906101000a900473ffffffffffffffffffffffffffffffffffffffff1673ffffffffffffffffffffffffffffffffffffffff16638f16c41c336000604051602001526040518263ffffffff167c0100000000000000000000000000000000000000000000000000000000028152600401808273ffffffffffffffffffffffffffffffffffffffff1673ffffffffffffffffffffffffffffffffffffffff168152602001915050602060405180830381600087803b15156156d457600080fd5b6102c65a03f115156156e557600080fd5b5050506040518051905015151415156156fd57600080fd5b8060098190555050565b601c60009054906101000a900473ffffffffffffffffffffffffffffffffffffffff16601960006101000a81548173ffffffffffffffffffffffffffffffffffffffff021916908373ffffffffffffffffffffffffffffffffffffffff16021790555060011515601960009054906101000a900473ffffffffffffffffffffffffffffffffffffffff1673ffffffffffffffffffffffffffffffffffffffff16638f16c41c336000604051602001526040518263ffffffff167c0100000000000000000000000000000000000000000000000000000000028152600401808273ffffffffffffffffffffffffffffffffffffffff1673ffffffffffffffffffffffffffffffffffffffff168152602001915050602060405180830381600087803b151561583357600080fd5b6102c65a03f1151561584457600080fd5b50505060405180519050151514151561585c57600080fd5b4260168281548110151561586c57fe5b90600052602060002090600302016001018190555050565b601c60009054906101000a900473ffffffffffffffffffffffffffffffffffffffff16601960006101000a81548173ffffffffffffffffffffffffffffffffffffffff021916908373ffffffffffffffffffffffffffffffffffffffff16021790555060011515601960009054906101000a900473ffffffffffffffffffffffffffffffffffffffff1673ffffffffffffffffffffffffffffffffffffffff16638f16c41c336000604051602001526040518263ffffffff167c0100000000000000000000000000000000000000000000000000000000028152600401808273ffffffffffffffffffffffffffffffffffffffff1673ffffffffffffffffffffffffffffffffffffffff168152602001915050602060405180830381600087803b15156159b057600080fd5b6102c65a03f115156159c157600080fd5b5050506040518051905015151415156159d957600080fd5b8373ffffffffffffffffffffffffffffffffffffffff167fcb191326b156e71a84d920401adf8a5e6d30f0be9d43f9782e7a7b255395ddea8484846040518084815260200183815260200180602001828103825283818151815260200191508051906020019080838360005b83811015615a60578082015181840152602081019050615a45565b50505050905090810190601f168015615a8d5780820380516001836020036101000a031916815260200191505b5094505050505060405180910390a250505050565b601c60009054906101000a900473ffffffffffffffffffffffffffffffffffffffff16601960006101000a81548173ffffffffffffffffffffffffffffffffffffffff021916908373ffffffffffffffffffffffffffffffffffffffff16021790555060011515601960009054906101000a900473ffffffffffffffffffffffffffffffffffffffff1673ffffffffffffffffffffffffffffffffffffffff16638f16c41c336000604051602001526040518263ffffffff167c0100000000000000000000000000000000000000000000000000000000028152600401808273ffffffffffffffffffffffffffffffffffffffff1673ffffffffffffffffffffffffffffffffffffffff168152602001915050602060405180830381600087803b1515615bce57600080fd5b6102c65a03f11515615bdf57600080fd5b505050604051805190501515141515615bf757600080fd5b80600760008473ffffffffffffffffffffffffffffffffffffffff1673ffffffffffffffffffffffffffffffffffffffff168152602001908152602001600020600001819055505050565b601d60009054906101000a900473ffffffffffffffffffffffffffffffffffffffff1673ffffffffffffffffffffffffffffffffffffffff163373ffffffffffffffffffffffffffffffffffffffff16141515615c9e57600080fd5b80601460106101000a81548163ffffffff021916908363ffffffff16021790555050565b6000801515600f60009054906101000a900460ff161515141515615ce557600080fd5b81601d60006101000a81548173ffffffffffffffffffffffffffffffffffffffff021916908373ffffffffffffffffffffffffffffffffffffffff160217905550615d2e618ae5565b615d36618b2f565b615d3e618fc8565b615d697f53696d706c6520566f74696e6700000000000000000000000000000000000000600061631a565b615d947f52616e6b20426173656420566f74696e67000000000000000000000000000000600061631a565b615dbf7f4665617475726520576569676874656420566f74696e67000000000000000000600061631a565b60178054806001018281615dd391906190f3565b91600052602060002090600302016000606060405190810160405280600073ffffffffffffffffffffffffffffffffffffffff1681526020016000604051805910615e1b5750595b908082528060200260200182016040525081526020016000815250909190915060008201518160000160006101000a81548173ffffffffffffffffffffffffffffffffffffffff021916908373ffffffffffffffffffffffffffffffffffffffff1602179055506020820151816001019080519060200190615e9e929190619125565b5060408201518160020155505050615eb9600e546001619095565b905080600e819055506001600f60006101000a81548160ff0219169083151502179055505050565b600b5481565b601d60009054906101000a900473ffffffffffffffffffffffffffffffffffffffff1673ffffffffffffffffffffffffffffffffffffffff163373ffffffffffffffffffffffffffffffffffffffff16141515615f4357600080fd5b80601d60006101000a81548173ffffffffffffffffffffffffffffffffffffffff021916908373ffffffffffffffffffffffffffffffffffffffff16021790555050565b601c60009054906101000a900473ffffffffffffffffffffffffffffffffffffffff16601960006101000a81548173ffffffffffffffffffffffffffffffffffffffff021916908373ffffffffffffffffffffffffffffffffffffffff16021790555060011515601960009054906101000a900473ffffffffffffffffffffffffffffffffffffffff1673ffffffffffffffffffffffffffffffffffffffff16638f16c41c336000604051602001526040518263ffffffff167c0100000000000000000000000000000000000000000000000000000000028152600401808273ffffffffffffffffffffffffffffffffffffffff1673ffffffffffffffffffffffffffffffffffffffff168152602001915050602060405180830381600087803b15156160b357600080fd5b6102c65a03f115156160c457600080fd5b5050506040518051905015151415156160dc57600080fd5b601680548060010182816160f09190619172565b916000526020600020906003020160006060604051908101604052808873ffffffffffffffffffffffffffffffffffffffff1681526020018581526020018673ffffffffffffffffffffffffffffffffffffffff16815250909190915060008201518160000160006101000a81548173ffffffffffffffffffffffffffffffffffffffff021916908373ffffffffffffffffffffffffffffffffffffffff1602179055506020820151816001015560408201518160020160006101000a81548173ffffffffffffffffffffffffffffffffffffffff021916908373ffffffffffffffffffffffffffffffffffffffff1602179055505050508373ffffffffffffffffffffffffffffffffffffffff167fcb191326b156e71a84d920401adf8a5e6d30f0be9d43f9782e7a7b255395ddea8683866040518084815260200183815260200180602001828103825283818151815260200191508051906020019080838360005b8381101561626f578082015181840152602081019050616254565b50505050905090810190601f16801561629c5780820380516001836020036101000a031916815260200191505b5094505050505060405180910390a25050505050565b60006017838154811015156162c357fe5b9060005260206000209060030201600101828154811015156162e157fe5b906000526020600020900154905092915050565b6000806000838152602001908152602001600020600201549050919050565b60115481565b601c60009054906101000a900473ffffffffffffffffffffffffffffffffffffffff16601960006101000a81548173ffffffffffffffffffffffffffffffffffffffff021916908373ffffffffffffffffffffffffffffffffffffffff16021790555060011515601960009054906101000a900473ffffffffffffffffffffffffffffffffffffffff1673ffffffffffffffffffffffffffffffffffffffff16632f54bf6e336000604051602001526040518263ffffffff167c0100000000000000000000000000000000000000000000000000000000028152600401808273ffffffffffffffffffffffffffffffffffffffff1673ffffffffffffffffffffffffffffffffffffffff168152602001915050602060405180830381600087803b151561644657600080fd5b6102c65a03f1151561645757600080fd5b50505060405180519050151514151561646f57600080fd5b6018805480600101828161648391906191a4565b916000526020600020906002020160006040805190810160405280866000191681526020018573ffffffffffffffffffffffffffffffffffffffff1681525090919091506000820151816000019060001916905560208201518160010160006101000a81548173ffffffffffffffffffffffffffffffffffffffff021916908373ffffffffffffffffffffffffffffffffffffffff1602179055505050505050565b6000601b60009054906101000a900473ffffffffffffffffffffffffffffffffffffffff1673ffffffffffffffffffffffffffffffffffffffff1663e6ead007336000604051602001526040518263ffffffff167c0100000000000000000000000000000000000000000000000000000000028152600401808273ffffffffffffffffffffffffffffffffffffffff1673ffffffffffffffffffffffffffffffffffffffff168152602001915050602060405180830381600087803b15156165ec57600080fd5b6102c65a03f115156165fd57600080fd5b50505060405180519050905060008114151561683657601a60009054906101000a900473ffffffffffffffffffffffffffffffffffffffff1673ffffffffffffffffffffffffffffffffffffffff1663c14c0e6830836000604051602001526040518363ffffffff167c0100000000000000000000000000000000000000000000000000000000028152600401808373ffffffffffffffffffffffffffffffffffffffff1673ffffffffffffffffffffffffffffffffffffffff168152602001828152602001807f474254205374616b65202d20526563656976656400000000000000000000000081525060200192505050602060405180830381600087803b151561670857600080fd5b6102c65a03f1151561671957600080fd5b5050506040518051905050601a60009054906101000a900473ffffffffffffffffffffffffffffffffffffffff1673ffffffffffffffffffffffffffffffffffffffff1663c14c0e6833836000604051602001526040518363ffffffff167c0100000000000000000000000000000000000000000000000000000000028152600401808373ffffffffffffffffffffffffffffffffffffffff1673ffffffffffffffffffffffffffffffffffffffff168152602001828152602001807f474254205374616b6520636c61696d6564202d2052657475726e65640000000081525060200192505050602060405180830381600087803b151561681957600080fd5b6102c65a03f1151561682a57600080fd5b50505060405180519050505b50565b601c60009054906101000a900473ffffffffffffffffffffffffffffffffffffffff16601960006101000a81548173ffffffffffffffffffffffffffffffffffffffff021916908373ffffffffffffffffffffffffffffffffffffffff16021790555060011515601960009054906101000a900473ffffffffffffffffffffffffffffffffffffffff1673ffffffffffffffffffffffffffffffffffffffff16638f16c41c336000604051602001526040518263ffffffff167c0100000000000000000000000000000000000000000000000000000000028152600401808273ffffffffffffffffffffffffffffffffffffffff1673ffffffffffffffffffffffffffffffffffffffff168152602001915050602060405180830381600087803b151561696557600080fd5b6102c65a03f1151561697657600080fd5b50505060405180519050151514151561698e57600080fd5b8260008088815260200190815260200160002060000160026101000a81548160ff021916908360ff1602179055506169c98686868585615f87565b505050505050565b601c60009054906101000a900473ffffffffffffffffffffffffffffffffffffffff16601960006101000a81548173ffffffffffffffffffffffffffffffffffffffff021916908373ffffffffffffffffffffffffffffffffffffffff16021790555060011515601960009054906101000a900473ffffffffffffffffffffffffffffffffffffffff1673ffffffffffffffffffffffffffffffffffffffff16638f16c41c336000604051602001526040518263ffffffff167c0100000000000000000000000000000000000000000000000000000000028152600401808273ffffffffffffffffffffffffffffffffffffffff1673ffffffffffffffffffffffffffffffffffffffff168152602001915050602060405180830381600087803b1515616afd57600080fd5b6102c65a03f11515616b0e57600080fd5b505050604051805190501515141515616b2657600080fd5b80600080848152602001908152602001600020600201819055505050565b60006001600084815260200190815260200160002082815481101515616b6657fe5b906000526020600020900160009054906101000a900473ffffffffffffffffffffffffffffffffffffffff16905092915050565b601c60009054906101000a900473ffffffffffffffffffffffffffffffffffffffff16601960006101000a81548173ffffffffffffffffffffffffffffffffffffffff021916908373ffffffffffffffffffffffffffffffffffffffff16021790555060011515601960009054906101000a900473ffffffffffffffffffffffffffffffffffffffff1673ffffffffffffffffffffffffffffffffffffffff16638f16c41c336000604051602001526040518263ffffffff167c0100000000000000000000000000000000000000000000000000000000028152600401808273ffffffffffffffffffffffffffffffffffffffff1673ffffffffffffffffffffffffffffffffffffffff168152602001915050602060405180830381600087803b1515616cc657600080fd5b6102c65a03f11515616cd757600080fd5b505050604051805190501515141515616cef57600080fd5b8373ffffffffffffffffffffffffffffffffffffffff16857fc38f65c8c004da3a2e865d05d2b69ba4443ecf31cd58c4fe023c75ee59c42bd68585856040518080602001848152602001838152602001828103825285818151815260200191508051906020019080838360005b83811015616d77578082015181840152602081019050616d5c565b50505050905090810190601f168015616da45780820380516001836020036101000a031916815260200191505b5094505050505060405180910390a35050505050565b616dc26190df565b600460008481526020019081526020016000206000838152602001908152602001600020805480602002602001604051908101604052809291908181526020018280548015616e3057602002820191906000526020600020905b815481526020019060010190808311616e1c575b5050505050905092915050565b601d60009054906101000a900473ffffffffffffffffffffffffffffffffffffffff1673ffffffffffffffffffffffffffffffffffffffff163373ffffffffffffffffffffffffffffffffffffffff16141515616e9957600080fd5b80600a8190555050565b601d60009054906101000a900473ffffffffffffffffffffffffffffffffffffffff1673ffffffffffffffffffffffffffffffffffffffff163373ffffffffffffffffffffffffffffffffffffffff16141515616eff57600080fd5b806014600c6101000a81548163ffffffff021916908363ffffffff16021790555050565b6000616f2d6191d6565b600080600085601560008089815260200190815260200160002060000160019054906101000a900460ff1660ff16815481101515616f6757fe5b906000526020600020900160008089815260200190815260200160002060000160029054906101000a900460ff166000808a815260200190815260200160002060000160019054906101000a900460ff166000808b815260200190815260200160002060000160039054906101000a900460ff16838054600181600116156101000203166002900480601f0160208091040260200160405190810160405280929190818152602001828054600181600116156101000203166002900480156170705780601f1061704557610100808354040283529160200191617070565b820191906000526020600020905b81548152906001019060200180831161705357829003601f168201915b505050505093509450945094509450945091939590929450565b60105481565b6170986190df565b6017828154811015156170a757fe5b906000526020600020906003020160010180548060200260200160405190810160405280929190818152602001828054801561710257602002820191906000526020600020905b8154815260200190600101908083116170ee575b50505050509050919050565b601c60009054906101000a900473ffffffffffffffffffffffffffffffffffffffff16601960006101000a81548173ffffffffffffffffffffffffffffffffffffffff021916908373ffffffffffffffffffffffffffffffffffffffff16021790555060011515601960009054906101000a900473ffffffffffffffffffffffffffffffffffffffff1673ffffffffffffffffffffffffffffffffffffffff16638f16c41c336000604051602001526040518263ffffffff167c0100000000000000000000000000000000000000000000000000000000028152600401808273ffffffffffffffffffffffffffffffffffffffff1673ffffffffffffffffffffffffffffffffffffffff168152602001915050602060405180830381600087803b151561723a57600080fd5b6102c65a03f1151561724b57600080fd5b50505060405180519050151514151561726357600080fd5b82847f76b141f6b2c4aef07d2be2f4d572eb1fe6fc483cf20b69274dad519cb5571fc184846040518080602001838152602001828103825284818151815260200191508051906020019080838360005b838110156172ce5780820151818401526020810190506172b3565b50505050905090810190601f1680156172fb5780820380516001836020036101000a031916815260200191505b50935050505060405180910390a350505050565b6000601c60009054906101000a900473ffffffffffffffffffffffffffffffffffffffff1673ffffffffffffffffffffffffffffffffffffffff1614156173965780601c60006101000a81548173ffffffffffffffffffffffffffffffffffffffff021916908373ffffffffffffffffffffffffffffffffffffffff16021790555061752d565b601c60009054906101000a900473ffffffffffffffffffffffffffffffffffffffff16601960006101000a81548173ffffffffffffffffffffffffffffffffffffffff021916908373ffffffffffffffffffffffffffffffffffffffff16021790555060011515601960009054906101000a900473ffffffffffffffffffffffffffffffffffffffff1673ffffffffffffffffffffffffffffffffffffffff16638f16c41c336000604051602001526040518263ffffffff167c0100000000000000000000000000000000000000000000000000000000028152600401808273ffffffffffffffffffffffffffffffffffffffff1673ffffffffffffffffffffffffffffffffffffffff168152602001915050602060405180830381600087803b15156174c257600080fd5b6102c65a03f115156174d357600080fd5b5050506040518051905015151415156174eb57600080fd5b80601c60006101000a81548173ffffffffffffffffffffffffffffffffffffffff021916908373ffffffffffffffffffffffffffffffffffffffff1602179055505b50565b601c60009054906101000a900473ffffffffffffffffffffffffffffffffffffffff16601960006101000a81548173ffffffffffffffffffffffffffffffffffffffff021916908373ffffffffffffffffffffffffffffffffffffffff16021790555060011515601960009054906101000a900473ffffffffffffffffffffffffffffffffffffffff1673ffffffffffffffffffffffffffffffffffffffff16638f16c41c336000604051602001526040518263ffffffff167c0100000000000000000000000000000000000000000000000000000000028152600401808273ffffffffffffffffffffffffffffffffffffffff1673ffffffffffffffffffffffffffffffffffffffff168152602001915050602060405180830381600087803b151561765c57600080fd5b6102c65a03f1151561766d57600080fd5b50505060405180519050151514151561768557600080fd5b6001600083815260200190815260200160002080548060010182816176aa91906191ea565b9160005260206000209001600083909190916101000a81548173ffffffffffffffffffffffffffffffffffffffff021916908373ffffffffffffffffffffffffffffffffffffffff160217905550505050565b600060178281548110151561770e57fe5b906000526020600020906003020160000160009054906101000a900473ffffffffffffffffffffffffffffffffffffffff169050919050565b6000600760008373ffffffffffffffffffffffffffffffffffffffff1673ffffffffffffffffffffffffffffffffffffffff168152602001908152602001600020600101549050919050565b600080600080848152602001908152602001600020600201546000808581526020019081526020016000206001015491509150915091565b601c60009054906101000a900473ffffffffffffffffffffffffffffffffffffffff16601960006101000a81548173ffffffffffffffffffffffffffffffffffffffff021916908373ffffffffffffffffffffffffffffffffffffffff16021790555060011515601960009054906101000a900473ffffffffffffffffffffffffffffffffffffffff1673ffffffffffffffffffffffffffffffffffffffff16638f16c41c336000604051602001526040518263ffffffff167c0100000000000000000000000000000000000000000000000000000000028152600401808273ffffffffffffffffffffffffffffffffffffffff1673ffffffffffffffffffffffffffffffffffffffff168152602001915050602060405180830381600087803b15156178f757600080fd5b6102c65a03f1151561790857600080fd5b50505060405180519050151514151561792057600080fd5b8060008084815260200190815260200160002060000160036101000a81548160ff021916908360ff1602179055505050565b601c60009054906101000a900473ffffffffffffffffffffffffffffffffffffffff16601960006101000a81548173ffffffffffffffffffffffffffffffffffffffff021916908373ffffffffffffffffffffffffffffffffffffffff16021790555060011515601960009054906101000a900473ffffffffffffffffffffffffffffffffffffffff1673ffffffffffffffffffffffffffffffffffffffff16638f16c41c336000604051602001526040518263ffffffff167c0100000000000000000000000000000000000000000000000000000000028152600401808273ffffffffffffffffffffffffffffffffffffffff1673ffffffffffffffffffffffffffffffffffffffff168152602001915050602060405180830381600087803b1515617a7e57600080fd5b6102c65a03f11515617a8f57600080fd5b505050604051805190501515141515617aa757600080fd5b8060008084815260200190815260200160002060000160006101000a81548160ff021916908360ff1602179055505050565b600080600083815260200190815260200160002060000160049054906101000a900460ff169050919050565b60008060008084815260200190815260200160002060000160019054906101000a900460ff1660008085815260200190815260200160002060000160039054906101000a900460ff168160ff1691508060ff16905091509150915091565b6000600760008373ffffffffffffffffffffffffffffffffffffffff1673ffffffffffffffffffffffffffffffffffffffff168152602001908152602001600020600001549050919050565b601c60009054906101000a900473ffffffffffffffffffffffffffffffffffffffff16601960006101000a81548173ffffffffffffffffffffffffffffffffffffffff021916908373ffffffffffffffffffffffffffffffffffffffff16021790555060011515601960009054906101000a900473ffffffffffffffffffffffffffffffffffffffff1673ffffffffffffffffffffffffffffffffffffffff16638f16c41c336000604051602001526040518263ffffffff167c0100000000000000000000000000000000000000000000000000000000028152600401808273ffffffffffffffffffffffffffffffffffffffff1673ffffffffffffffffffffffffffffffffffffffff168152602001915050602060405180830381600087803b1515617cdb57600080fd5b6102c65a03f11515617cec57600080fd5b505050604051805190501515141515617d0457600080fd5b828473ffffffffffffffffffffffffffffffffffffffff167f447c0c0d690c4c97a998dd617b380407a8199a83eb0e8051f1e87e5da96caa0884846040518080602001838152602001828103825284818151815260200191508051906020019080838360005b83811015617d85578082015181840152602081019050617d6a565b50505050905090810190601f168015617db25780820380516001836020036101000a031916815260200191505b50935050505060405180910390a350505050565b6000601682815481101515617dd757fe5b9060005260206000209060030201600101549050919050565b601d60009054906101000a900473ffffffffffffffffffffffffffffffffffffffff1673ffffffffffffffffffffffffffffffffffffffff163373ffffffffffffffffffffffffffffffffffffffff16141515617e4c57600080fd5b80600b8190555050565b601c60009054906101000a900473ffffffffffffffffffffffffffffffffffffffff16601960006101000a81548173ffffffffffffffffffffffffffffffffffffffff021916908373ffffffffffffffffffffffffffffffffffffffff16021790555060011515601960009054906101000a900473ffffffffffffffffffffffffffffffffffffffff1673ffffffffffffffffffffffffffffffffffffffff16638f16c41c336000604051602001526040518263ffffffff167c0100000000000000000000000000000000000000000000000000000000028152600401808273ffffffffffffffffffffffffffffffffffffffff1673ffffffffffffffffffffffffffffffffffffffff168152602001915050602060405180830381600087803b1515617f8257600080fd5b6102c65a03f11515617f9357600080fd5b505050604051805190501515141515617fab57600080fd5b8060008084815260200190815260200160002060000160046101000a81548160ff021916908360ff1602179055505050565b6000601880549050905090565b6000806000806000806000876000808a815260200190815260200160002060000160029054906101000a900460ff166000808b815260200190815260200160002060000160009054906101000a900460ff166000808c815260200190815260200160002060000160049054906101000a900460ff166000808d815260200190815260200160002060000160039054906101000a900460ff1660168d81548110151561809157fe5b906000526020600020906003020160020160009054906101000a900473ffffffffffffffffffffffffffffffffffffffff16600160008f8152602001908152602001600020805490509650965096509650965096509650919395979092949650565b600a5481565b601c60009054906101000a900473ffffffffffffffffffffffffffffffffffffffff1673ffffffffffffffffffffffffffffffffffffffff163373ffffffffffffffffffffffffffffffffffffffff1614151561815557600080fd5b80601e60006101000a81548173ffffffffffffffffffffffffffffffffffffffff021916908373ffffffffffffffffffffffffffffffffffffffff16021790555050565b6000600360008473ffffffffffffffffffffffffffffffffffffffff1673ffffffffffffffffffffffffffffffffffffffff168152602001908152602001600020600083815260200190815260200160002054905092915050565b601c60009054906101000a900473ffffffffffffffffffffffffffffffffffffffff16601960006101000a81548173ffffffffffffffffffffffffffffffffffffffff021916908373ffffffffffffffffffffffffffffffffffffffff16021790555060011515601960009054906101000a900473ffffffffffffffffffffffffffffffffffffffff1673ffffffffffffffffffffffffffffffffffffffff16638f16c41c336000604051602001526040518263ffffffff167c0100000000000000000000000000000000000000000000000000000000028152600401808273ffffffffffffffffffffffffffffffffffffffff1673ffffffffffffffffffffffffffffffffffffffff168152602001915050602060405180830381600087803b151561832057600080fd5b6102c65a03f1151561833157600080fd5b50505060405180519050151514151561834957600080fd5b80600760008473ffffffffffffffffffffffffffffffffffffffff1673ffffffffffffffffffffffffffffffffffffffff168152602001908152602001600020600201819055505050565b60006018828154811015156183a557fe5b906000526020600020906002020160010160009054906101000a900473ffffffffffffffffffffffffffffffffffffffff169050919050565b601c60009054906101000a900473ffffffffffffffffffffffffffffffffffffffff16601960006101000a81548173ffffffffffffffffffffffffffffffffffffffff021916908373ffffffffffffffffffffffffffffffffffffffff16021790555060011515601960009054906101000a900473ffffffffffffffffffffffffffffffffffffffff1673ffffffffffffffffffffffffffffffffffffffff16638f16c41c336000604051602001526040518263ffffffff167c0100000000000000000000000000000000000000000000000000000000028152600401808273ffffffffffffffffffffffffffffffffffffffff1673ffffffffffffffffffffffffffffffffffffffff168152602001915050602060405180830381600087803b151561850a57600080fd5b6102c65a03f1151561851b57600080fd5b50505060405180519050151514151561853357600080fd5b80600660008673ffffffffffffffffffffffffffffffffffffffff1673ffffffffffffffffffffffffffffffffffffffff16815260200190815260200160002060008581526020019081526020016000206000847bffffffffffffffffffffffffffffffffffffffffffffffffffffffff19167bffffffffffffffffffffffffffffffffffffffffffffffffffffffff191681526020019081526020016000206000018190555050505050565b600060016000838152602001908152602001600020805490509050919050565b601d60009054906101000a900473ffffffffffffffffffffffffffffffffffffffff1673ffffffffffffffffffffffffffffffffffffffff163373ffffffffffffffffffffffffffffffffffffffff1614151561865c57600080fd5b80601460086101000a81548163ffffffff021916908363ffffffff16021790555050565b60008060008060008560168781548110151561869857fe5b906000526020600020906003020160000160009054906101000a900473ffffffffffffffffffffffffffffffffffffffff166016888154811015156186d957fe5b9060005260206000209060030201600101546000808a815260200190815260200160002060000160059054906101000a900460ff166000808b815260200190815260200160002060000160019054906101000a900460ff169450945094509450945091939590929450565b601c60009054906101000a900473ffffffffffffffffffffffffffffffffffffffff16601960006101000a81548173ffffffffffffffffffffffffffffffffffffffff021916908373ffffffffffffffffffffffffffffffffffffffff16021790555060011515601960009054906101000a900473ffffffffffffffffffffffffffffffffffffffff1673ffffffffffffffffffffffffffffffffffffffff16638f16c41c336000604051602001526040518263ffffffff167c0100000000000000000000000000000000000000000000000000000000028152600401808273ffffffffffffffffffffffffffffffffffffffff1673ffffffffffffffffffffffffffffffffffffffff168152602001915050602060405180830381600087803b151561887057600080fd5b6102c65a03f1151561888157600080fd5b50505060405180519050151514151561889957600080fd5b82600260008673ffffffffffffffffffffffffffffffffffffffff1673ffffffffffffffffffffffffffffffffffffffff16815260200190815260200160002060006101000a81548163ffffffff021916908363ffffffff160217905550848473ffffffffffffffffffffffffffffffffffffffff167fce0d3f9d027074f1f630a0dce9a86a485923d702c3e5dbdf98fc045e3046710a88858560405180806020018463ffffffff1663ffffffff168152602001837bffffffffffffffffffffffffffffffffffffffffffffffffffffffff19167bffffffffffffffffffffffffffffffffffffffffffffffffffffffff19168152602001828103825285818151815260200191508051906020019080838360005b838110156189c95780820151818401526020810190506189ae565b50505050905090810190601f1680156189f65780820380516001836020036101000a031916815260200191505b5094505050505060405180910390a3505050505050565b600080600084815260200190815260200160002060000160059054906101000a900460ff1660ff16905092915050565b6000806000838152602001908152602001600020600101549050919050565b8060008084815260200190815260200160002060000160056101000a81548160ff021916908360ff1602179055505050565b8060008084815260200190815260200160002060000160016101000a81548160ff021916908360ff16021790555042601683815481101515618acc57fe5b9060005260206000209060030201600101819055505050565b600060098190555060196008819055506000600a819055506005600b819055506001600c819055506001600d81905550601e601081905550601e6011819055506028601281905550565b60158054806001018281618b439190619216565b916000526020600020900160006040805190810160405280601481526020017f447261667420666f722064697363757373696f6e00000000000000000000000081525090919091509080519060200190618b9e929190619242565b505060158054806001018281618bb49190619216565b916000526020600020900160006040805190810160405280601a81526020017f447261667420526561647920666f72207375626d697373696f6e00000000000081525090919091509080519060200190618c0f929190619242565b505060158054806001018281618c259190619216565b916000526020600020900160006040805190810160405280600e81526020017f566f74696e67207374617274656400000000000000000000000000000000000081525090919091509080519060200190618c80929190619242565b505060158054806001018281618c969190619216565b91600052602060002090016000606060405190810160405280602f81526020017f50726f706f73616c204465636973696f6e202d2041636365707465642062792081526020017f4d616a6f7269747920566f74696e67000000000000000000000000000000000081525090919091509080519060200190618d18929190619242565b505060158054806001018281618d2e9190619216565b91600052602060002090016000606060405190810160405280602f81526020017f50726f706f73616c204465636973696f6e202d2052656a65637465642062792081526020017f4d616a6f7269747920766f74696e67000000000000000000000000000000000081525090919091509080519060200190618db0929190619242565b505060158054806001018281618dc69190619216565b91600052602060002090016000608060405190810160405280604f81526020017f50726f706f73616c204163636570746564202d204d616a6f7269747920566f7481526020017f696e67206e6f742072656163686564204275742041636365707465642062792081526020017f70726576696f757320566f74696e67000000000000000000000000000000000081525090919091509080519060200190618e6e929190619242565b505060158054806001018281618e849190619216565b91600052602060002090016000606060405190810160405280602681526020017f50726f706f73616c2044656e6965642c205468726573686f6c64206e6f74207281526020017f656163686564000000000000000000000000000000000000000000000000000081525090919091509080519060200190618f06929190619242565b505060158054806001018281618f1c9190619216565b91600052602060002090016000608060405190810160405280604981526020017f50726f706f73616c204163636570746564202d205468726573686f6c64206e6f81526020017f742072656163686564204275742041636365707465642062792050726576696f81526020017f757320566f74696e67000000000000000000000000000000000000000000000081525090919091509080519060200190618fc4929190619242565b5050565b6005601460006101000a81548163ffffffff021916908363ffffffff1602179055506005601460046101000a81548163ffffffff021916908363ffffffff1602179055506001601460086101000a81548163ffffffff021916908363ffffffff16021790555060016014600c6101000a81548163ffffffff021916908363ffffffff1602179055506001601460106101000a81548163ffffffff021916908363ffffffff16021790555060016014806101000a81548163ffffffff021916908363ffffffff160217905550565b60008082840190508381101515156190a957fe5b8091505092915050565b8154818355818115116190da578183600052602060002091820191016190d991906192c2565b5b505050565b602060405190810160405280600081525090565b8154818355818115116191205760030281600302836000526020600020918201910161911f91906192e7565b5b505050565b828054828255906000526020600020908101928215619161579160200282015b82811115619160578251825591602001919060010190619145565b5b50905061916e91906192c2565b5090565b81548183558181151161919f5760030281600302836000526020600020918201910161919e9190619345565b5b505050565b8154818355818115116191d1576002028160020283600052602060002091820191016191d091906193ba565b5b505050565b602060405190810160405280600081525090565b8154818355818115116192115781836000526020600020918201910161921091906192c2565b5b505050565b81548183558181151161923d5781836000526020600020918201910161923c9190619408565b5b505050565b828054600181600116156101000203166002900490600052602060002090601f016020900481019282601f1061928357805160ff19168380011785556192b1565b828001600101855582156192b1579182015b828111156192b0578251825591602001919060010190619295565b5b5090506192be91906192c2565b5090565b6192e491905b808211156192e05760008160009055506001016192c8565b5090565b90565b61934291905b8082111561933e57600080820160006101000a81549073ffffffffffffffffffffffffffffffffffffffff021916905560018201600061932d9190619434565b6002820160009055506003016192ed565b5090565b90565b6193b791905b808211156193b357600080820160006101000a81549073ffffffffffffffffffffffffffffffffffffffff021916905560018201600090556002820160006101000a81549073ffffffffffffffffffffffffffffffffffffffff02191690555060030161934b565b5090565b90565b61940591905b80821115619401576000808201600090556001820160006101000a81549073ffffffffffffffffffffffffffffffffffffffff0219169055506002016193c0565b5090565b90565b61943191905b8082111561942d57600081816194249190619455565b5060010161940e565b5090565b90565b508054600082559060005260206000209081019061945291906192c2565b50565b50805460018160011615610100020316600290046000825580601f1061947b575061949a565b601f01602090049060005260206000209081019061949991906192c2565b5b505600a165627a7a723058200af43967219be258926b5a222a1c5b242e3d5af8ff23691ca9b436e2e40f6b070029a165627a7a72305820a716b93d874a439a04fa3c6451e102537af3932d0f0cbbadc5450ed881dd3dd70029",
  "source": "/* Copyright (C) 2017 GovBlocks.io\r\n\r\n  This program is free software: you can redistribute it and/or modify\r\n    it under the terms of the GNU General Public License as published by\r\n    the Free Software Foundation, either version 3 of the License, or\r\n    (at your option) any later version.\r\n\r\n  This program is distributed in the hope that it will be useful,\r\n    but WITHOUT ANY WARRANTY; without even the implied warranty of\r\n    MERCHANTABILITY or FITNESS FOR A PARTICULAR PURPOSE.  See the\r\n    GNU General Public License for more details.\r\n\r\n  You should have received a copy of the GNU General Public License\r\n    along with this program.  If not, see http://www.gnu.org/licenses/ */\r\n\r\npragma solidity ^0.4.8;\r\n\r\nimport \"./governanceData.sol\";\r\n\r\ncontract GenerateGD\r\n{\r\n    mapping(bytes32=>address) contractAddress;\r\n\r\n    /// @dev Gets address of governance data contract by GovBlocks username\r\n    /// @param _gbUserName GovBlocks username\r\n    /// @return contractAddress[_gbUserName] Address of governance data contract by GovBlocks username\r\n    function getAddress(bytes32 _gbUserName)constant returns(address)\r\n    {\r\n        return (contractAddress[_gbUserName]);\r\n    }\r\n  \r\n    /// @dev Generates new governance data contract\r\n    /// @param _gbUserName GovBlocks username\r\n    function GenerateContract(bytes32 _gbUserName)\r\n    {\r\n       contractAddress[_gbUserName] = new governanceData();\r\n    }\r\n  \r\n}",
  "sourcePath": "D:\\RUCHITA\\GovBlocks-Protocol Access-Modifiers\\contracts\\GenerateGD.sol",
  "compiler": {
    "name": "solc",
    "version": "0.4.18+commit.9cf6e910.Emscripten.clang"
  },
  "schemaVersion": "1.0.1",
  "updatedAt": "2018-04-24T10:21:38.317Z"
}