{
  "contractName": "GovBlocksMaster",
  "abi": [
    {
      "constant": true,
      "inputs": [],
      "name": "getAllDappLength",
      "outputs": [
        {
          "name": "",
          "type": "uint256"
        }
      ],
      "payable": false,
      "stateMutability": "view",
      "type": "function"
    },
    {
      "constant": false,
      "inputs": [
        {
          "name": "_newGBMAddress",
          "type": "address"
        }
      ],
      "name": "updateGBMAddress",
      "outputs": [],
      "payable": false,
      "stateMutability": "nonpayable",
      "type": "function"
    },
    {
      "constant": true,
      "inputs": [
        {
          "name": "_gbUserName",
          "type": "bytes32"
        }
      ],
      "name": "getGovBlocksUserDetails",
      "outputs": [
        {
          "name": "GbUserName",
          "type": "bytes32"
        },
        {
          "name": "masterContractAddress",
          "type": "address"
        },
        {
          "name": "allContractsbyteCodeHash",
          "type": "string"
        },
        {
          "name": "allCcontractsAbiHash",
          "type": "string"
        },
        {
          "name": "versionNo",
          "type": "uint256"
        }
      ],
      "payable": false,
      "stateMutability": "view",
      "type": "function"
    },
    {
      "constant": false,
      "inputs": [
        {
          "name": "_gbUserName",
          "type": "bytes32"
        },
        {
          "name": "_newRoleName",
          "type": "bytes32"
        },
        {
          "name": "_roleDescription",
          "type": "string"
        },
        {
          "name": "_canAddMembers",
          "type": "address"
        }
      ],
      "name": "addNewMemberRoleGB",
      "outputs": [],
      "payable": false,
      "stateMutability": "nonpayable",
      "type": "function"
    },
    {
      "constant": true,
      "inputs": [
        {
          "name": "_gbUserName",
          "type": "bytes32"
        }
      ],
      "name": "getDappDescHash",
      "outputs": [
        {
          "name": "",
          "type": "string"
        }
      ],
      "payable": false,
      "stateMutability": "view",
      "type": "function"
    },
    {
      "constant": true,
      "inputs": [
        {
          "name": "_gbUserName",
          "type": "bytes32"
        }
      ],
      "name": "getDappMasterAddress",
      "outputs": [
        {
          "name": "masterAddress",
          "type": "address"
        }
      ],
      "payable": false,
      "stateMutability": "view",
      "type": "function"
    },
    {
      "constant": true,
      "inputs": [
        {
          "name": "_Address",
          "type": "address"
        }
      ],
      "name": "getGovBlocksUserDetails2",
      "outputs": [
        {
          "name": "dappName",
          "type": "bytes32"
        },
        {
          "name": "masterContractAddress",
          "type": "address"
        },
        {
          "name": "dappTokenAddress",
          "type": "address"
        }
      ],
      "payable": false,
      "stateMutability": "view",
      "type": "function"
    },
    {
      "constant": true,
      "inputs": [],
      "name": "getDappUser",
      "outputs": [
        {
          "name": "",
          "type": "string"
        }
      ],
      "payable": false,
      "stateMutability": "view",
      "type": "function"
    },
    {
      "constant": true,
      "inputs": [
        {
          "name": "_gbUserName",
          "type": "bytes32"
        }
      ],
      "name": "getDappTokenAddress",
      "outputs": [
        {
          "name": "tokenAddres",
          "type": "address"
        }
      ],
      "payable": false,
      "stateMutability": "view",
      "type": "function"
    },
    {
      "constant": true,
      "inputs": [
        {
          "name": "dAppName",
          "type": "bytes32"
        },
        {
          "name": "_memberAddress",
          "type": "address"
        }
      ],
      "name": "isAuthorizedGBOwner",
      "outputs": [
        {
          "name": "auth",
          "type": "uint256"
        }
      ],
      "payable": false,
      "stateMutability": "view",
      "type": "function"
    },
    {
      "constant": false,
      "inputs": [
        {
          "name": "_gbUserName",
          "type": "bytes32"
        },
        {
          "name": "_categoryId",
          "type": "uint256"
        },
        {
          "name": "_categoryData",
          "type": "string"
        }
      ],
      "name": "updateCategoryGB",
      "outputs": [],
      "payable": false,
      "stateMutability": "nonpayable",
      "type": "function"
    },
    {
      "constant": false,
      "inputs": [
        {
          "name": "_gbUserName",
          "type": "bytes32"
        },
        {
          "name": "_memberAddress",
          "type": "address"
        },
        {
          "name": "_memberRoleId",
          "type": "uint32"
        },
        {
          "name": "_typeOf",
          "type": "bool"
        }
      ],
      "name": "updateMemberRoleGB",
      "outputs": [],
      "payable": false,
      "stateMutability": "nonpayable",
      "type": "function"
    },
    {
      "constant": true,
      "inputs": [],
      "name": "owner",
      "outputs": [
        {
          "name": "",
          "type": "address"
        }
      ],
      "payable": false,
      "stateMutability": "view",
      "type": "function"
    },
    {
      "constant": true,
      "inputs": [
        {
          "name": "_gbUserName",
          "type": "bytes32"
        }
      ],
      "name": "getGovBlocksUserDetails1",
      "outputs": [
        {
          "name": "GbUserName",
          "type": "bytes32"
        },
        {
          "name": "masterContractAddress",
          "type": "address"
        },
        {
          "name": "dappTokenAddress",
          "type": "address"
        },
        {
          "name": "allContractsbyteCodeHash",
          "type": "string"
        },
        {
          "name": "allCcontractsAbiHash",
          "type": "string"
        },
        {
          "name": "versionNo",
          "type": "uint256"
        }
      ],
      "payable": false,
      "stateMutability": "view",
      "type": "function"
    },
    {
      "constant": true,
      "inputs": [],
      "name": "getAllDappArray",
      "outputs": [
        {
          "name": "",
          "type": "bytes32[]"
        }
      ],
      "payable": false,
      "stateMutability": "view",
      "type": "function"
    },
    {
      "constant": false,
      "inputs": [
        {
          "name": "_gbUserName",
          "type": "bytes32"
        },
        {
          "name": "_descHash",
          "type": "string"
        }
      ],
      "name": "addNewCategoryGB",
      "outputs": [],
      "payable": false,
      "stateMutability": "nonpayable",
      "type": "function"
    },
    {
      "constant": true,
      "inputs": [],
      "name": "authGBOwner",
      "outputs": [
        {
          "name": "",
          "type": "address"
        }
      ],
      "payable": false,
      "stateMutability": "view",
      "type": "function"
    },
    {
      "constant": true,
      "inputs": [
        {
          "name": "_index",
          "type": "uint256"
        }
      ],
      "name": "getGovBlocksUserDetailsByIndex",
      "outputs": [
        {
          "name": "index",
          "type": "uint256"
        },
        {
          "name": "GbUserName",
          "type": "bytes32"
        },
        {
          "name": "MasterContractAddress",
          "type": "address"
        }
      ],
      "payable": false,
      "stateMutability": "view",
      "type": "function"
    },
    {
      "constant": false,
      "inputs": [
        {
          "name": "_hash",
          "type": "string"
        }
      ],
      "name": "setDappUser",
      "outputs": [],
      "payable": false,
      "stateMutability": "nonpayable",
      "type": "function"
    },
    {
      "constant": false,
      "inputs": [
        {
          "name": "_byteCodeHash",
          "type": "string"
        },
        {
          "name": "_abiHash",
          "type": "string"
        }
      ],
      "name": "setByteCodeAndAbi",
      "outputs": [],
      "payable": false,
      "stateMutability": "nonpayable",
      "type": "function"
    },
    {
      "constant": false,
      "inputs": [
        {
          "name": "_gbUserName",
          "type": "bytes32"
        },
        {
          "name": "_newMasterAddress",
          "type": "address"
        }
      ],
      "name": "changeDappMasterAddress",
      "outputs": [],
      "payable": false,
      "stateMutability": "nonpayable",
      "type": "function"
    },
    {
      "constant": true,
      "inputs": [],
      "name": "getGBTAddress",
      "outputs": [
        {
          "name": "",
          "type": "address"
        }
      ],
      "payable": false,
      "stateMutability": "view",
      "type": "function"
    },
    {
      "constant": false,
      "inputs": [
        {
          "name": "_gbUserName",
          "type": "bytes32"
        },
        {
          "name": "_dappTokenAddress",
          "type": "address"
        }
      ],
      "name": "changeDappTokenAddress",
      "outputs": [],
      "payable": false,
      "stateMutability": "nonpayable",
      "type": "function"
    },
    {
      "constant": false,
      "inputs": [
        {
          "name": "_gbUserName",
          "type": "bytes32"
        },
        {
          "name": "_typeOf",
          "type": "bytes16"
        },
        {
          "name": "_value",
          "type": "uint32"
        }
      ],
      "name": "configureGlobalParameters",
      "outputs": [],
      "payable": false,
      "stateMutability": "nonpayable",
      "type": "function"
    },
    {
      "constant": false,
      "inputs": [
        {
          "name": "_GBTAddress",
          "type": "address"
        }
      ],
      "name": "GovBlocksMasterInit",
      "outputs": [],
      "payable": false,
      "stateMutability": "nonpayable",
      "type": "function"
    },
    {
      "constant": false,
      "inputs": [
        {
          "name": "dAppName",
          "type": "bytes32"
        },
        {
          "name": "_memberAddress",
          "type": "address"
        }
      ],
      "name": "changeAuthorizedGB",
      "outputs": [],
      "payable": false,
      "stateMutability": "nonpayable",
      "type": "function"
    },
    {
      "constant": false,
      "inputs": [
        {
          "name": "_gbUserName",
          "type": "bytes32"
        },
        {
          "name": "_dappTokenAddress",
          "type": "address"
        },
        {
          "name": "_dappDescriptionHash",
          "type": "string"
        }
      ],
      "name": "addGovBlocksUser",
      "outputs": [],
      "payable": false,
      "stateMutability": "nonpayable",
      "type": "function"
    },
    {
      "constant": true,
      "inputs": [],
      "name": "getByteCodeAndAbi",
      "outputs": [
        {
          "name": "byteCode",
          "type": "string"
        },
        {
          "name": "abiHash",
          "type": "string"
        }
      ],
      "payable": false,
      "stateMutability": "view",
      "type": "function"
    },
    {
      "constant": false,
      "inputs": [
        {
          "name": "_newOwner",
          "type": "address"
        }
      ],
      "name": "transferOwnership",
      "outputs": [],
      "payable": false,
      "stateMutability": "nonpayable",
      "type": "function"
    },
    {
      "constant": true,
      "inputs": [
        {
          "name": "_contractAddress",
          "type": "address"
        }
      ],
      "name": "getDappNameByAddress",
      "outputs": [
        {
          "name": "",
          "type": "bytes32"
        }
      ],
      "payable": false,
      "stateMutability": "view",
      "type": "function"
    },
    {
      "constant": true,
      "inputs": [
        {
          "name": "_gbIndex",
          "type": "uint256"
        }
      ],
      "name": "getAllDappById",
      "outputs": [
        {
          "name": "_gbUserName",
          "type": "bytes32"
        }
      ],
      "payable": false,
      "stateMutability": "view",
      "type": "function"
    },
    {
      "constant": false,
      "inputs": [
        {
          "name": "_GBTContractAddress",
          "type": "address"
        }
      ],
      "name": "updateGBTAddress",
      "outputs": [],
      "payable": false,
      "stateMutability": "nonpayable",
      "type": "function"
    }
  ],
  "bytecode": "0x6060604052341561000f57600080fd5b61b685806200001f6000396000f300606060405260043610610196576000357c0100000000000000000000000000000000000000000000000000000000900463ffffffff168063161540911461019b578063191eb97c146101c4578063239e7a1f146101fd578063346b4876146103525780633c20f44d146103e85780633e5e94321461048857806347e582aa146104ef5780634e3271b1146105aa578063597336e8146106385780635e7a070f1461069f5780636dfe06c6146106f95780637d89ccf41461076c5780638da5cb5b146107cc5780638e60c3df1461082157806395c4cd5b146109a95780639832272714610a1357806398750c4014610a7d578063a2b4b33514610ad2578063aeda8f1614610b4b578063b2855b7614610ba8578063b93bec8b14610c48578063b983566114610c8e578063d40189c414610ce3578063d643555314610d29578063d8bf474014610d7b578063dc6f1f5b14610db4578063dccc5d8614610dfa578063dd8ae11014610e83578063f2fde38b14610f7d578063f46de2b614610fb6578063f4d743a91461100b578063f937326e1461104a575b600080fd5b34156101a657600080fd5b6101ae611083565b6040518082815260200191505060405180910390f35b34156101cf57600080fd5b6101fb600480803573ffffffffffffffffffffffffffffffffffffffff16906020019091905050611090565b005b341561020857600080fd5b61022260048080356000191690602001909190505061127d565b6040518086600019166000191681526020018573ffffffffffffffffffffffffffffffffffffffff1673ffffffffffffffffffffffffffffffffffffffff1681526020018060200180602001848152602001838103835286818151815260200191508051906020019080838360005b838110156102ac578082015181840152602081019050610291565b50505050905090810190601f1680156102d95780820380516001836020036101000a031916815260200191505b50838103825285818151815260200191508051906020019080838360005b838110156103125780820151818401526020810190506102f7565b50505050905090810190601f16801561033f5780820380516001836020036101000a031916815260200191505b5097505050505050505060405180910390f35b341561035d57600080fd5b6103e66004808035600019169060200190919080356000191690602001909190803590602001908201803590602001908080601f0160208091040260200160405190810160405280939291908181526020018383808284378201915050505050509190803573ffffffffffffffffffffffffffffffffffffffff169060200190919050506115b0565b005b34156103f357600080fd5b61040d600480803560001916906020019091905050611977565b6040518080602001828103825283818151815260200191508051906020019080838360005b8381101561044d578082015181840152602081019050610432565b50505050905090810190601f16801561047a5780820380516001836020036101000a031916815260200191505b509250505060405180910390f35b341561049357600080fd5b6104ad600480803560001916906020019091905050611a3d565b604051808273ffffffffffffffffffffffffffffffffffffffff1673ffffffffffffffffffffffffffffffffffffffff16815260200191505060405180910390f35b34156104fa57600080fd5b610526600480803573ffffffffffffffffffffffffffffffffffffffff16906020019091905050611a85565b6040518084600019166000191681526020018373ffffffffffffffffffffffffffffffffffffffff1673ffffffffffffffffffffffffffffffffffffffff1681526020018273ffffffffffffffffffffffffffffffffffffffff1673ffffffffffffffffffffffffffffffffffffffff168152602001935050505060405180910390f35b34156105b557600080fd5b6105bd611b58565b6040518080602001828103825283818151815260200191508051906020019080838360005b838110156105fd5780820151818401526020810190506105e2565b50505050905090810190601f16801561062a5780820380516001836020036101000a031916815260200191505b509250505060405180910390f35b341561064357600080fd5b61065d600480803560001916906020019091905050611c3d565b604051808273ffffffffffffffffffffffffffffffffffffffff1673ffffffffffffffffffffffffffffffffffffffff16815260200191505060405180910390f35b34156106aa57600080fd5b6106e360048080356000191690602001909190803573ffffffffffffffffffffffffffffffffffffffff16906020019091905050611c85565b6040518082815260200191505060405180910390f35b341561070457600080fd5b61076a60048080356000191690602001909190803590602001909190803590602001908201803590602001908080601f01602080910402602001604051908101604052809392919081815260200183838082843782019150505050505091905050611d04565b005b341561077757600080fd5b6107ca60048080356000191690602001909190803573ffffffffffffffffffffffffffffffffffffffff1690602001909190803563ffffffff16906020019091908035151590602001909190505061208e565b005b34156107d757600080fd5b6107df6123f8565b604051808273ffffffffffffffffffffffffffffffffffffffff1673ffffffffffffffffffffffffffffffffffffffff16815260200191505060405180910390f35b341561082c57600080fd5b61084660048080356000191690602001909190505061241e565b6040518087600019166000191681526020018673ffffffffffffffffffffffffffffffffffffffff1673ffffffffffffffffffffffffffffffffffffffff1681526020018573ffffffffffffffffffffffffffffffffffffffff1673ffffffffffffffffffffffffffffffffffffffff1681526020018060200180602001848152602001838103835286818151815260200191508051906020019080838360005b838110156109025780820151818401526020810190506108e7565b50505050905090810190601f16801561092f5780820380516001836020036101000a031916815260200191505b50838103825285818151815260200191508051906020019080838360005b8381101561096857808201518184015260208101905061094d565b50505050905090810190601f1680156109955780820380516001836020036101000a031916815260200191505b509850505050505050505060405180910390f35b34156109b457600080fd5b6109bc61279b565b6040518080602001828103825283818151815260200191508051906020019060200280838360005b838110156109ff5780820151818401526020810190506109e4565b505050509050019250505060405180910390f35b3415610a1e57600080fd5b610a7b60048080356000191690602001909190803590602001908201803590602001908080601f016020809104026020016040519081016040528093929190818152602001838380828437820191505050505050919050506127fd565b005b3415610a8857600080fd5b610a90612a75565b604051808273ffffffffffffffffffffffffffffffffffffffff1673ffffffffffffffffffffffffffffffffffffffff16815260200191505060405180910390f35b3415610add57600080fd5b610af36004808035906020019091905050612a9b565b6040518084815260200183600019166000191681526020018273ffffffffffffffffffffffffffffffffffffffff1673ffffffffffffffffffffffffffffffffffffffff168152602001935050505060405180910390f35b3415610b5657600080fd5b610ba6600480803590602001908201803590602001908080601f01602080910402602001604051908101604052809392919081815260200183838082843782019150505050505091905050612b22565b005b3415610bb357600080fd5b610c46600480803590602001908201803590602001908080601f0160208091040260200160405190810160405280939291908181526020018383808284378201915050505050509190803590602001908201803590602001908080601f01602080910402602001604051908101604052809392919081815260200183838082843782019150505050505091905050612b79565b005b3415610c5357600080fd5b610c8c60048080356000191690602001909190803573ffffffffffffffffffffffffffffffffffffffff16906020019091905050612c07565b005b3415610c9957600080fd5b610ca1612e34565b604051808273ffffffffffffffffffffffffffffffffffffffff1673ffffffffffffffffffffffffffffffffffffffff16815260200191505060405180910390f35b3415610cee57600080fd5b610d2760048080356000191690602001909190803573ffffffffffffffffffffffffffffffffffffffff16906020019091905050612e5e565b005b3415610d3457600080fd5b610d796004808035600019169060200190919080356fffffffffffffffffffffffffffffffff191690602001909190803563ffffffff1690602001909190505061308b565b005b3415610d8657600080fd5b610db2600480803573ffffffffffffffffffffffffffffffffffffffff16906020019091905050613d3c565b005b3415610dbf57600080fd5b610df860048080356000191690602001909190803573ffffffffffffffffffffffffffffffffffffffff16906020019091905050613e11565b005b3415610e0557600080fd5b610e8160048080356000191690602001909190803573ffffffffffffffffffffffffffffffffffffffff1690602001909190803590602001908201803590602001908080601f01602080910402602001604051908101604052809392919081815260200183838082843782019150505050505091905050613faa565b005b3415610e8e57600080fd5b610e96614340565b604051808060200180602001838103835285818151815260200191508051906020019080838360005b83811015610eda578082015181840152602081019050610ebf565b50505050905090810190601f168015610f075780820380516001836020036101000a031916815260200191505b50838103825284818151815260200191508051906020019080838360005b83811015610f40578082015181840152602081019050610f25565b50505050905090810190601f168015610f6d5780820380516001836020036101000a031916815260200191505b5094505050505060405180910390f35b3415610f8857600080fd5b610fb4600480803573ffffffffffffffffffffffffffffffffffffffff16906020019091905050614494565b005b3415610fc157600080fd5b610fed600480803573ffffffffffffffffffffffffffffffffffffffff16906020019091905050614534565b60405180826000191660001916815260200191505060405180910390f35b341561101657600080fd5b61102c600480803590602001909190505061457d565b60405180826000191660001916815260200191505060405180910390f35b341561105557600080fd5b611081600480803573ffffffffffffffffffffffffffffffffffffffff169060200190919050506145a1565b005b6000600a80549050905090565b600080600460009054906101000a900473ffffffffffffffffffffffffffffffffffffffff1673ffffffffffffffffffffffffffffffffffffffff163373ffffffffffffffffffffffffffffffffffffffff161415156110ef57600080fd5b600091505b600a805490508210156112785760086000600a8481548110151561111457fe5b9060005260206000209001546000191660001916815260200190815260200160002060000160009054906101000a900473ffffffffffffffffffffffffffffffffffffffff169050806000806101000a81548173ffffffffffffffffffffffffffffffffffffffff021916908373ffffffffffffffffffffffffffffffffffffffff1602179055506000809054906101000a900473ffffffffffffffffffffffffffffffffffffffff1673ffffffffffffffffffffffffffffffffffffffff1663aef816e8846040518263ffffffff167c0100000000000000000000000000000000000000000000000000000000028152600401808273ffffffffffffffffffffffffffffffffffffffff1673ffffffffffffffffffffffffffffffffffffffff168152602001915050600060405180830381600087803b151561125757600080fd5b6102c65a03f1151561126857600080fd5b50505081806001019250506110f4565b505050565b6000806112886147cf565b6112906147cf565b60008060086000886000191660001916815260200190815260200160002060000160009054906101000a900473ffffffffffffffffffffffffffffffffffffffff16905060008173ffffffffffffffffffffffffffffffffffffffff1614156113305785600080819150602060405190810160405280600081525090602060405190810160405280600081525090809050955095509550955095506115a6565b806000806101000a81548173ffffffffffffffffffffffffffffffffffffffff021916908373ffffffffffffffffffffffffffffffffffffffff1602179055506000809054906101000a900473ffffffffffffffffffffffffffffffffffffffff1673ffffffffffffffffffffffffffffffffffffffff1663d57fe1af6000604051602001526040518163ffffffff167c0100000000000000000000000000000000000000000000000000000000028152600401602060405180830381600087803b15156113fd57600080fd5b6102c65a03f1151561140e57600080fd5b5050506040518051905061ffff1691508660086000896000191660001916815260200190815260200160002060000160009054906101000a900473ffffffffffffffffffffffffffffffffffffffff16600b600c85828054600181600116156101000203166002900480601f0160208091040260200160405190810160405280929190818152602001828054600181600116156101000203166002900480156114f85780601f106114cd576101008083540402835291602001916114f8565b820191906000526020600020905b8154815290600101906020018083116114db57829003601f168201915b50505050509250818054600181600116156101000203166002900480601f0160208091040260200160405190810160405280929190818152602001828054600181600116156101000203166002900480156115945780601f1061156957610100808354040283529160200191611594565b820191906000526020600020905b81548152906001019060200180831161157757829003601f168201915b50505050509150955095509550955095505b5091939590929450565b600080600060016115c18833611c85565b1415156115cd57600080fd5b60086000886000191660001916815260200190815260200160002060000160009054906101000a900473ffffffffffffffffffffffffffffffffffffffff169250826000806101000a81548173ffffffffffffffffffffffffffffffffffffffff021916908373ffffffffffffffffffffffffffffffffffffffff16021790555060016000809054906101000a900473ffffffffffffffffffffffffffffffffffffffff1673ffffffffffffffffffffffffffffffffffffffff1663d57fe1af6000604051602001526040518163ffffffff167c0100000000000000000000000000000000000000000000000000000000028152600401602060405180830381600087803b15156116dd57600080fd5b6102c65a03f115156116ee57600080fd5b505050604051805190500390506000809054906101000a900473ffffffffffffffffffffffffffffffffffffffff1673ffffffffffffffffffffffffffffffffffffffff1663023c2303826000604051602001526040518263ffffffff167c0100000000000000000000000000000000000000000000000000000000028152600401808261ffff1661ffff168152602001807f4d52000000000000000000000000000000000000000000000000000000000000815250602001915050602060405180830381600087803b15156117c357600080fd5b6102c65a03f115156117d457600080fd5b50505060405180519050915081600160006101000a81548173ffffffffffffffffffffffffffffffffffffffff021916908373ffffffffffffffffffffffffffffffffffffffff160217905550600160009054906101000a900473ffffffffffffffffffffffffffffffffffffffff1673ffffffffffffffffffffffffffffffffffffffff166352b38c108787876040518463ffffffff167c0100000000000000000000000000000000000000000000000000000000028152600401808460001916600019168152602001806020018373ffffffffffffffffffffffffffffffffffffffff1673ffffffffffffffffffffffffffffffffffffffff168152602001828103825284818151815260200191508051906020019080838360005b8381101561190d5780820151818401526020810190506118f2565b50505050905090810190601f16801561193a5780820380516001836020036101000a031916815260200191505b50945050505050600060405180830381600087803b151561195a57600080fd5b6102c65a03f1151561196b57600080fd5b50505050505050505050565b61197f6147cf565b6008600083600019166000191681526020019081526020016000206003018054600181600116156101000203166002900480601f016020809104026020016040519081016040528092919081815260200182805460018160011615610100020316600290048015611a315780601f10611a0657610100808354040283529160200191611a31565b820191906000526020600020905b815481529060010190602001808311611a1457829003601f168201915b50505050509050919050565b600060086000836000191660001916815260200190815260200160002060000160009054906101000a900473ffffffffffffffffffffffffffffffffffffffff169050919050565b6000806000600760008573ffffffffffffffffffffffffffffffffffffffff1673ffffffffffffffffffffffffffffffffffffffff1681526020019081526020016000205492508260086000856000191660001916815260200190815260200160002060000160009054906101000a900473ffffffffffffffffffffffffffffffffffffffff1660086000866000191660001916815260200190815260200160002060010160009054906101000a900473ffffffffffffffffffffffffffffffffffffffff169250925092509193909250565b611b606147cf565b600960003373ffffffffffffffffffffffffffffffffffffffff1673ffffffffffffffffffffffffffffffffffffffff1681526020019081526020016000208054600181600116156101000203166002900480601f016020809104026020016040519081016040528092919081815260200182805460018160011615610100020316600290048015611c335780601f10611c0857610100808354040283529160200191611c33565b820191906000526020600020905b815481529060010190602001808311611c1657829003601f168201915b5050505050905090565b600060086000836000191660001916815260200190815260200160002060010160009054906101000a900473ffffffffffffffffffffffffffffffffffffffff169050919050565b60008173ffffffffffffffffffffffffffffffffffffffff1660086000856000191660001916815260200190815260200160002060020160009054906101000a900473ffffffffffffffffffffffffffffffffffffffff1673ffffffffffffffffffffffffffffffffffffffff161415611cfe57600190505b92915050565b60008060006001611d158733611c85565b141515611d2157600080fd5b60086000876000191660001916815260200190815260200160002060000160009054906101000a900473ffffffffffffffffffffffffffffffffffffffff169250826000806101000a81548173ffffffffffffffffffffffffffffffffffffffff021916908373ffffffffffffffffffffffffffffffffffffffff16021790555060016000809054906101000a900473ffffffffffffffffffffffffffffffffffffffff1673ffffffffffffffffffffffffffffffffffffffff1663d57fe1af6000604051602001526040518163ffffffff167c0100000000000000000000000000000000000000000000000000000000028152600401602060405180830381600087803b1515611e3157600080fd5b6102c65a03f11515611e4257600080fd5b505050604051805190500390506000809054906101000a900473ffffffffffffffffffffffffffffffffffffffff1673ffffffffffffffffffffffffffffffffffffffff1663023c2303826000604051602001526040518263ffffffff167c0100000000000000000000000000000000000000000000000000000000028152600401808261ffff1661ffff168152602001807f5043000000000000000000000000000000000000000000000000000000000000815250602001915050602060405180830381600087803b1515611f1757600080fd5b6102c65a03f11515611f2857600080fd5b50505060405180519050915081600260006101000a81548173ffffffffffffffffffffffffffffffffffffffff021916908373ffffffffffffffffffffffffffffffffffffffff160217905550600260009054906101000a900473ffffffffffffffffffffffffffffffffffffffff1673ffffffffffffffffffffffffffffffffffffffff166378697e5b86866040518363ffffffff167c01000000000000000000000000000000000000000000000000000000000281526004018083815260200180602001828103825283818151815260200191508051906020019080838360005b8381101561202657808201518184015260208101905061200b565b50505050905090810190601f1680156120535780820380516001836020036101000a031916815260200191505b509350505050600060405180830381600087803b151561207257600080fd5b6102c65a03f1151561208357600080fd5b505050505050505050565b6000806000600161209f8833611c85565b1415156120ab57600080fd5b60086000886000191660001916815260200190815260200160002060000160009054906101000a900473ffffffffffffffffffffffffffffffffffffffff169250826000806101000a81548173ffffffffffffffffffffffffffffffffffffffff021916908373ffffffffffffffffffffffffffffffffffffffff16021790555060016000809054906101000a900473ffffffffffffffffffffffffffffffffffffffff1673ffffffffffffffffffffffffffffffffffffffff1663d57fe1af6000604051602001526040518163ffffffff167c0100000000000000000000000000000000000000000000000000000000028152600401602060405180830381600087803b15156121bb57600080fd5b6102c65a03f115156121cc57600080fd5b505050604051805190500390506000809054906101000a900473ffffffffffffffffffffffffffffffffffffffff1673ffffffffffffffffffffffffffffffffffffffff1663023c2303826000604051602001526040518263ffffffff167c0100000000000000000000000000000000000000000000000000000000028152600401808261ffff1661ffff168152602001807f4d52000000000000000000000000000000000000000000000000000000000000815250602001915050602060405180830381600087803b15156122a157600080fd5b6102c65a03f115156122b257600080fd5b50505060405180519050915081600160006101000a81548173ffffffffffffffffffffffffffffffffffffffff021916908373ffffffffffffffffffffffffffffffffffffffff160217905550600160009054906101000a900473ffffffffffffffffffffffffffffffffffffffff1673ffffffffffffffffffffffffffffffffffffffff1663da86adb08787876040518463ffffffff167c0100000000000000000000000000000000000000000000000000000000028152600401808473ffffffffffffffffffffffffffffffffffffffff1673ffffffffffffffffffffffffffffffffffffffff1681526020018363ffffffff1663ffffffff168152602001821515151581526020019350505050600060405180830381600087803b15156123db57600080fd5b6102c65a03f115156123ec57600080fd5b50505050505050505050565b600460009054906101000a900473ffffffffffffffffffffffffffffffffffffffff1681565b600080600061242b6147cf565b6124336147cf565b60008060086000896000191660001916815260200190815260200160002060000160009054906101000a900473ffffffffffffffffffffffffffffffffffffffff16905060008173ffffffffffffffffffffffffffffffffffffffff1614156124da57866000806000829250819150602060405190810160405280600081525090602060405190810160405280600081525090809050965096509650965096509650612791565b806000806101000a81548173ffffffffffffffffffffffffffffffffffffffff021916908373ffffffffffffffffffffffffffffffffffffffff1602179055506000809054906101000a900473ffffffffffffffffffffffffffffffffffffffff1673ffffffffffffffffffffffffffffffffffffffff1663d57fe1af6000604051602001526040518163ffffffff167c0100000000000000000000000000000000000000000000000000000000028152600401602060405180830381600087803b15156125a757600080fd5b6102c65a03f115156125b857600080fd5b5050506040518051905061ffff16915087600860008a6000191660001916815260200190815260200160002060000160009054906101000a900473ffffffffffffffffffffffffffffffffffffffff16600860008b6000191660001916815260200190815260200160002060010160009054906101000a900473ffffffffffffffffffffffffffffffffffffffff16600b600c86828054600181600116156101000203166002900480601f0160208091040260200160405190810160405280929190818152602001828054600181600116156101000203166002900480156126e15780601f106126b6576101008083540402835291602001916126e1565b820191906000526020600020905b8154815290600101906020018083116126c457829003601f168201915b50505050509250818054600181600116156101000203166002900480601f01602080910402602001604051908101604052809291908181526020018280546001816001161561010002031660029004801561277d5780601f106127525761010080835404028352916020019161277d565b820191906000526020600020905b81548152906001019060200180831161276057829003601f168201915b505050505091509650965096509650965096505b5091939550919395565b6127a36147e3565b600a8054806020026020016040519081016040528092919081815260200182805480156127f357602002820191906000526020600020905b815460001916815260200190600101908083116127db575b5050505050905090565b6000806000600161280e8633611c85565b14151561281a57600080fd5b60086000866000191660001916815260200190815260200160002060000160009054906101000a900473ffffffffffffffffffffffffffffffffffffffff169250826000806101000a81548173ffffffffffffffffffffffffffffffffffffffff021916908373ffffffffffffffffffffffffffffffffffffffff16021790555060016000809054906101000a900473ffffffffffffffffffffffffffffffffffffffff1673ffffffffffffffffffffffffffffffffffffffff1663d57fe1af6000604051602001526040518163ffffffff167c0100000000000000000000000000000000000000000000000000000000028152600401602060405180830381600087803b151561292a57600080fd5b6102c65a03f1151561293b57600080fd5b505050604051805190500390506000809054906101000a900473ffffffffffffffffffffffffffffffffffffffff1673ffffffffffffffffffffffffffffffffffffffff1663023c2303826000604051602001526040518263ffffffff167c0100000000000000000000000000000000000000000000000000000000028152600401808261ffff1661ffff168152602001807f5043000000000000000000000000000000000000000000000000000000000000815250602001915050602060405180830381600087803b1515612a1057600080fd5b6102c65a03f11515612a2157600080fd5b50505060405180519050915081600260006101000a81548173ffffffffffffffffffffffffffffffffffffffff021916908373ffffffffffffffffffffffffffffffffffffffff1602179055505050505050565b600660009054906101000a900473ffffffffffffffffffffffffffffffffffffffff1681565b600080600083600a85815481101515612ab057fe5b90600052602060002090015460086000600a88815481101515612acf57fe5b9060005260206000209001546000191660001916815260200190815260200160002060000160009054906101000a900473ffffffffffffffffffffffffffffffffffffffff169250925092509193909250565b80600960003373ffffffffffffffffffffffffffffffffffffffff1673ffffffffffffffffffffffffffffffffffffffff1681526020019081526020016000209080519060200190612b759291906147f7565b5050565b600460009054906101000a900473ffffffffffffffffffffffffffffffffffffffff1673ffffffffffffffffffffffffffffffffffffffff163373ffffffffffffffffffffffffffffffffffffffff16141515612bd557600080fd5b81600b9080519060200190612beb9291906147f7565b5080600c9080519060200190612c029291906147f7565b505050565b600060086000846000191660001916815260200190815260200160002060000160009054906101000a900473ffffffffffffffffffffffffffffffffffffffff1673ffffffffffffffffffffffffffffffffffffffff161415612d0e578060086000846000191660001916815260200190815260200160002060000160006101000a81548173ffffffffffffffffffffffffffffffffffffffff021916908373ffffffffffffffffffffffffffffffffffffffff16021790555081600760008373ffffffffffffffffffffffffffffffffffffffff1673ffffffffffffffffffffffffffffffffffffffff1681526020019081526020016000208160001916905550612e30565b60086000836000191660001916815260200190815260200160002060000160009054906101000a900473ffffffffffffffffffffffffffffffffffffffff1673ffffffffffffffffffffffffffffffffffffffff163373ffffffffffffffffffffffffffffffffffffffff161415612e2a578060086000846000191660001916815260200190815260200160002060000160006101000a81548173ffffffffffffffffffffffffffffffffffffffff021916908373ffffffffffffffffffffffffffffffffffffffff16021790555081600760008373ffffffffffffffffffffffffffffffffffffffff1673ffffffffffffffffffffffffffffffffffffffff1681526020019081526020016000208160001916905550612e2f565b600080fd5b5b5050565b6000600560009054906101000a900473ffffffffffffffffffffffffffffffffffffffff16905090565b600060086000846000191660001916815260200190815260200160002060010160009054906101000a900473ffffffffffffffffffffffffffffffffffffffff1673ffffffffffffffffffffffffffffffffffffffff161415612f65578060086000846000191660001916815260200190815260200160002060010160006101000a81548173ffffffffffffffffffffffffffffffffffffffff021916908373ffffffffffffffffffffffffffffffffffffffff16021790555081600760008373ffffffffffffffffffffffffffffffffffffffff1673ffffffffffffffffffffffffffffffffffffffff1681526020019081526020016000208160001916905550613087565b60086000836000191660001916815260200190815260200160002060000160009054906101000a900473ffffffffffffffffffffffffffffffffffffffff1673ffffffffffffffffffffffffffffffffffffffff163373ffffffffffffffffffffffffffffffffffffffff161415613081578060086000846000191660001916815260200190815260200160002060010160006101000a81548173ffffffffffffffffffffffffffffffffffffffff021916908373ffffffffffffffffffffffffffffffffffffffff16021790555081600760008373ffffffffffffffffffffffffffffffffffffffff1673ffffffffffffffffffffffffffffffffffffffff1681526020019081526020016000208160001916905550613086565b600080fd5b5b5050565b6000806000600161309c8733611c85565b1415156130a857600080fd5b60086000876000191660001916815260200190815260200160002060000160009054906101000a900473ffffffffffffffffffffffffffffffffffffffff169250826000806101000a81548173ffffffffffffffffffffffffffffffffffffffff021916908373ffffffffffffffffffffffffffffffffffffffff16021790555060016000809054906101000a900473ffffffffffffffffffffffffffffffffffffffff1673ffffffffffffffffffffffffffffffffffffffff1663d57fe1af6000604051602001526040518163ffffffff167c0100000000000000000000000000000000000000000000000000000000028152600401602060405180830381600087803b15156131b857600080fd5b6102c65a03f115156131c957600080fd5b505050604051805190500390506000809054906101000a900473ffffffffffffffffffffffffffffffffffffffff1673ffffffffffffffffffffffffffffffffffffffff1663023c2303826000604051602001526040518263ffffffff167c0100000000000000000000000000000000000000000000000000000000028152600401808261ffff1661ffff168152602001807f4744000000000000000000000000000000000000000000000000000000000000815250602001915050602060405180830381600087803b151561329e57600080fd5b6102c65a03f115156132af57600080fd5b50505060405180519050915081600360006101000a81548173ffffffffffffffffffffffffffffffffffffffff021916908373ffffffffffffffffffffffffffffffffffffffff1602179055507f41504f0000000000000000000000000000000000000000000000000000000000856fffffffffffffffffffffffffffffffff191614156133ec57600360009054906101000a900473ffffffffffffffffffffffffffffffffffffffff1673ffffffffffffffffffffffffffffffffffffffff166352110864856040518263ffffffff167c0100000000000000000000000000000000000000000000000000000000028152600401808263ffffffff1663ffffffff168152602001915050600060405180830381600087803b15156133d357600080fd5b6102c65a03f115156133e457600080fd5b505050613d34565b7f414f4f0000000000000000000000000000000000000000000000000000000000856fffffffffffffffffffffffffffffffff191614156134dc57600360009054906101000a900473ffffffffffffffffffffffffffffffffffffffff1673ffffffffffffffffffffffffffffffffffffffff16632080b8b0856040518263ffffffff167c0100000000000000000000000000000000000000000000000000000000028152600401808263ffffffff1663ffffffff168152602001915050600060405180830381600087803b15156134c357600080fd5b6102c65a03f115156134d457600080fd5b505050613d33565b7f41564d0000000000000000000000000000000000000000000000000000000000856fffffffffffffffffffffffffffffffff191614156135cc57600360009054906101000a900473ffffffffffffffffffffffffffffffffffffffff1673ffffffffffffffffffffffffffffffffffffffff1663f4159a3c856040518263ffffffff167c0100000000000000000000000000000000000000000000000000000000028152600401808263ffffffff1663ffffffff168152602001915050600060405180830381600087803b15156135b357600080fd5b6102c65a03f115156135c457600080fd5b505050613d32565b7f53504f0000000000000000000000000000000000000000000000000000000000856fffffffffffffffffffffffffffffffff191614156136bc57600360009054906101000a900473ffffffffffffffffffffffffffffffffffffffff1673ffffffffffffffffffffffffffffffffffffffff1663ccb787d5856040518263ffffffff167c0100000000000000000000000000000000000000000000000000000000028152600401808263ffffffff1663ffffffff168152602001915050600060405180830381600087803b15156136a357600080fd5b6102c65a03f115156136b457600080fd5b505050613d31565b7f534f4f0000000000000000000000000000000000000000000000000000000000856fffffffffffffffffffffffffffffffff191614156137ac57600360009054906101000a900473ffffffffffffffffffffffffffffffffffffffff1673ffffffffffffffffffffffffffffffffffffffff1663a6647a64856040518263ffffffff167c0100000000000000000000000000000000000000000000000000000000028152600401808263ffffffff1663ffffffff168152602001915050600060405180830381600087803b151561379357600080fd5b6102c65a03f115156137a457600080fd5b505050613d30565b7f53564d0000000000000000000000000000000000000000000000000000000000856fffffffffffffffffffffffffffffffff1916141561389c57600360009054906101000a900473ffffffffffffffffffffffffffffffffffffffff1673ffffffffffffffffffffffffffffffffffffffff16633601df0b856040518263ffffffff167c0100000000000000000000000000000000000000000000000000000000028152600401808263ffffffff1663ffffffff168152602001915050600060405180830381600087803b151561388357600080fd5b6102c65a03f1151561389457600080fd5b505050613d2f565b7f4742545300000000000000000000000000000000000000000000000000000000856fffffffffffffffffffffffffffffffff1916141561398657600360009054906101000a900473ffffffffffffffffffffffffffffffffffffffff1673ffffffffffffffffffffffffffffffffffffffff1663cbc87e58856040518263ffffffff167c0100000000000000000000000000000000000000000000000000000000028152600401808263ffffffff168152602001915050600060405180830381600087803b151561396d57600080fd5b6102c65a03f1151561397e57600080fd5b505050613d2e565b7f5246000000000000000000000000000000000000000000000000000000000000856fffffffffffffffffffffffffffffffff19161415613a7057600360009054906101000a900473ffffffffffffffffffffffffffffffffffffffff1673ffffffffffffffffffffffffffffffffffffffff1663e7803064856040518263ffffffff167c0100000000000000000000000000000000000000000000000000000000028152600401808263ffffffff168152602001915050600060405180830381600087803b1515613a5757600080fd5b6102c65a03f11515613a6857600080fd5b505050613d2d565b7f4d53460000000000000000000000000000000000000000000000000000000000856fffffffffffffffffffffffffffffffff19161415613b5a57600360009054906101000a900473ffffffffffffffffffffffffffffffffffffffff1673ffffffffffffffffffffffffffffffffffffffff16634dec2bcc856040518263ffffffff167c0100000000000000000000000000000000000000000000000000000000028152600401808263ffffffff168152602001915050600060405180830381600087803b1515613b4157600080fd5b6102c65a03f11515613b5257600080fd5b505050613d2c565b7f5357000000000000000000000000000000000000000000000000000000000000856fffffffffffffffffffffffffffffffff19161415613c4457600360009054906101000a900473ffffffffffffffffffffffffffffffffffffffff1673ffffffffffffffffffffffffffffffffffffffff16631655517f856040518263ffffffff167c0100000000000000000000000000000000000000000000000000000000028152600401808263ffffffff168152602001915050600060405180830381600087803b1515613c2b57600080fd5b6102c65a03f11515613c3c57600080fd5b505050613d2b565b7f5150000000000000000000000000000000000000000000000000000000000000856fffffffffffffffffffffffffffffffff19161415613d2a57600360009054906101000a900473ffffffffffffffffffffffffffffffffffffffff1673ffffffffffffffffffffffffffffffffffffffff1663489c16d0856040518263ffffffff167c0100000000000000000000000000000000000000000000000000000000028152600401808263ffffffff168152602001915050600060405180830381600087803b1515613d1557600080fd5b6102c65a03f11515613d2657600080fd5b5050505b5b5b5b5b5b5b5b5b5b5b505050505050565b6000600460009054906101000a900473ffffffffffffffffffffffffffffffffffffffff1673ffffffffffffffffffffffffffffffffffffffff16141515613d8357600080fd5b33600460006101000a81548173ffffffffffffffffffffffffffffffffffffffff021916908373ffffffffffffffffffffffffffffffffffffffff16021790555080600560006101000a81548173ffffffffffffffffffffffffffffffffffffffff021916908373ffffffffffffffffffffffffffffffffffffffff160217905550613e0e30611090565b50565b600060086000846000191660001916815260200190815260200160002060020160009054906101000a900473ffffffffffffffffffffffffffffffffffffffff1673ffffffffffffffffffffffffffffffffffffffff161415613ed0578060086000846000191660001916815260200190815260200160002060020160006101000a81548173ffffffffffffffffffffffffffffffffffffffff021916908373ffffffffffffffffffffffffffffffffffffffff160217905550613f49565b60086000836000191660001916815260200190815260200160002060020160009054906101000a900473ffffffffffffffffffffffffffffffffffffffff1673ffffffffffffffffffffffffffffffffffffffff163373ffffffffffffffffffffffffffffffffffffffff16141515613f4857600080fd5b5b8060086000846000191660001916815260200190815260200160002060020160006101000a81548173ffffffffffffffffffffffffffffffffffffffff021916908373ffffffffffffffffffffffffffffffffffffffff1602179055505050565b60008060086000866000191660001916815260200190815260200160002060000160009054906101000a900473ffffffffffffffffffffffffffffffffffffffff1673ffffffffffffffffffffffffffffffffffffffff1614151561400e57600080fd5b3084614018614877565b808373ffffffffffffffffffffffffffffffffffffffff1673ffffffffffffffffffffffffffffffffffffffff168152602001826000191660001916815260200192505050604051809103906000f080151561407357600080fd5b9050600a80548060010182816140899190614887565b9160005260206000209001600086909190915090600019169055508060086000866000191660001916815260200190815260200160002060000160006101000a81548173ffffffffffffffffffffffffffffffffffffffff021916908373ffffffffffffffffffffffffffffffffffffffff1602179055508260086000866000191660001916815260200190815260200160002060010160006101000a81548173ffffffffffffffffffffffffffffffffffffffff021916908373ffffffffffffffffffffffffffffffffffffffff1602179055508160086000866000191660001916815260200190815260200160002060030190805190602001906141909291906147f7565b5083600760008373ffffffffffffffffffffffffffffffffffffffff1673ffffffffffffffffffffffffffffffffffffffff168152602001908152602001600020816000191690555083600760008573ffffffffffffffffffffffffffffffffffffffff1673ffffffffffffffffffffffffffffffffffffffff168152602001908152602001600020816000191690555061422b8433613e11565b806000806101000a81548173ffffffffffffffffffffffffffffffffffffffff021916908373ffffffffffffffffffffffffffffffffffffffff1602179055506000809054906101000a900473ffffffffffffffffffffffffffffffffffffffff1673ffffffffffffffffffffffffffffffffffffffff166313af4035336040518263ffffffff167c0100000000000000000000000000000000000000000000000000000000028152600401808273ffffffffffffffffffffffffffffffffffffffff1673ffffffffffffffffffffffffffffffffffffffff168152602001915050600060405180830381600087803b151561432657600080fd5b6102c65a03f1151561433757600080fd5b50505050505050565b6143486147cf565b6143506147cf565b600b600c818054600181600116156101000203166002900480601f0160208091040260200160405190810160405280929190818152602001828054600181600116156101000203166002900480156143e95780601f106143be576101008083540402835291602001916143e9565b820191906000526020600020905b8154815290600101906020018083116143cc57829003601f168201915b50505050509150808054600181600116156101000203166002900480601f0160208091040260200160405190810160405280929190818152602001828054600181600116156101000203166002900480156144855780601f1061445a57610100808354040283529160200191614485565b820191906000526020600020905b81548152906001019060200180831161446857829003601f168201915b50505050509050915091509091565b600460009054906101000a900473ffffffffffffffffffffffffffffffffffffffff1673ffffffffffffffffffffffffffffffffffffffff163373ffffffffffffffffffffffffffffffffffffffff161415156144f057600080fd5b80600460006101000a81548173ffffffffffffffffffffffffffffffffffffffff021916908373ffffffffffffffffffffffffffffffffffffffff16021790555050565b6000600760008373ffffffffffffffffffffffffffffffffffffffff1673ffffffffffffffffffffffffffffffffffffffff168152602001908152602001600020549050919050565b6000600a8281548110151561458e57fe5b9060005260206000209001549050919050565b600080600460009054906101000a900473ffffffffffffffffffffffffffffffffffffffff1673ffffffffffffffffffffffffffffffffffffffff163373ffffffffffffffffffffffffffffffffffffffff1614151561460057600080fd5b82600560006101000a81548173ffffffffffffffffffffffffffffffffffffffff021916908373ffffffffffffffffffffffffffffffffffffffff160217905550600091505b600a805490508210156147ca5760086000600a8481548110151561466657fe5b9060005260206000209001546000191660001916815260200190815260200160002060000160009054906101000a900473ffffffffffffffffffffffffffffffffffffffff169050806000806101000a81548173ffffffffffffffffffffffffffffffffffffffff021916908373ffffffffffffffffffffffffffffffffffffffff1602179055506000809054906101000a900473ffffffffffffffffffffffffffffffffffffffff1673ffffffffffffffffffffffffffffffffffffffff1663284e4175846040518263ffffffff167c0100000000000000000000000000000000000000000000000000000000028152600401808273ffffffffffffffffffffffffffffffffffffffff1673ffffffffffffffffffffffffffffffffffffffff168152602001915050600060405180830381600087803b15156147a957600080fd5b6102c65a03f115156147ba57600080fd5b5050508180600101925050614646565b505050565b602060405190810160405280600081525090565b602060405190810160405280600081525090565b828054600181600116156101000203166002900490600052602060002090601f016020900481019282601f1061483857805160ff1916838001178555614866565b82800160010185558215614866579182015b8281111561486557825182559160200191906001019061484a565b5b50905061487391906148b3565b5090565b604051616d5c806148fe83390190565b8154818355818115116148ae578183600052602060002091820191016148ad91906148d8565b5b505050565b6148d591905b808211156148d15760008160009055506001016148b9565b5090565b90565b6148fa91905b808211156148f65760008160009055506001016148de565b5090565b9056006060604052341561000f57600080fd5b60405160408062006d5c83398101604052808051906020019091908051906020019091905050336000806101000a81548173ffffffffffffffffffffffffffffffffffffffff021916908373ffffffffffffffffffffffffffffffffffffffff1602179055506001600460003073ffffffffffffffffffffffffffffffffffffffff1673ffffffffffffffffffffffffffffffffffffffff16815260200190815260200160002060006101000a81548160ff02191690831515021790555060008060146101000a81548161ffff021916908361ffff16021790555081600760006101000a81548173ffffffffffffffffffffffffffffffffffffffff021916908373ffffffffffffffffffffffffffffffffffffffff16021790555080600181600019169055505050616c1480620001486000396000f30060606040526004361061015e576000357c0100000000000000000000000000000000000000000000000000000000900463ffffffff168062eb85e014610163578063023c23031461023657806306ecf884146102c75780630d89247d146102f857806313af40351461030d57806316127e64146103465780632704ee241461036d578063284e4175146103945780632f54bf6e146103cd57806367fdaf261461041e5780636f3c0b401461046f57806373aee6d5146104b65780638da5cb5b146104fc5780638f16c41c14610551578063914fc6d5146105a257806393a82683146105f75780639425e0b81461061e578063972b76c614610645578063aef816e81461069f578063b9b7ee5d146106d8578063d57fe1af1461071e578063d81fab8a1461074f578063dd970aa114610795578063e8318d89146107ea578063f1dd533e1461083b578063f2fde38b14610890578063fabec44a146108c9575b600080fd5b341561016e57600080fd5b610188600480803561ffff1690602001909190505061092d565b604051808461ffff1661ffff1681526020018060200180602001838103835285818151815260200191508051906020019060200280838360005b838110156101dd5780820151818401526020810190506101c2565b50505050905001838103825284818151815260200191508051906020019060200280838360005b8381101561021f578082015181840152602081019050610204565b505050509050019550505050505060405180910390f35b341561024157600080fd5b610285600480803561ffff169060200190919080357dffffffffffffffffffffffffffffffffffffffffffffffffffffffffffff1916906020019091905050610b9e565b604051808273ffffffffffffffffffffffffffffffffffffffff1673ffffffffffffffffffffffffffffffffffffffff16815260200191505060405180910390f35b34156102d257600080fd5b6102da610be0565b60405180826000191660001916815260200191505060405180910390f35b341561030357600080fd5b61030b610be6565b005b341561031857600080fd5b610344600480803573ffffffffffffffffffffffffffffffffffffffff16906020019091905050610e87565b005b341561035157600080fd5b61036b600480803561ffff16906020019091905050610f7d565b005b341561037857600080fd5b610392600480803561ffff16906020019091905050611000565b005b341561039f57600080fd5b6103cb600480803573ffffffffffffffffffffffffffffffffffffffff1690602001909190505061100c565b005b34156103d857600080fd5b610404600480803573ffffffffffffffffffffffffffffffffffffffff1690602001909190505061171f565b604051808215151515815260200191505060405180910390f35b341561042957600080fd5b610455600480803573ffffffffffffffffffffffffffffffffffffffff16906020019091905050611780565b604051808215151515815260200191505060405180910390f35b341561047a57600080fd5b6104b460048080610120019060098060200260405190810160405280929190826009602002808284378201915050505050919050506117a0565b005b34156104c157600080fd5b6104fa600480803573ffffffffffffffffffffffffffffffffffffffff1690602001909190803561ffff16906020019091905050611bb3565b005b341561050757600080fd5b61050f612709565b604051808273ffffffffffffffffffffffffffffffffffffffff1673ffffffffffffffffffffffffffffffffffffffff16815260200191505060405180910390f35b341561055c57600080fd5b610588600480803573ffffffffffffffffffffffffffffffffffffffff1690602001909190505061272e565b604051808215151515815260200191505060405180910390f35b34156105ad57600080fd5b6105b56127ea565b604051808273ffffffffffffffffffffffffffffffffffffffff1673ffffffffffffffffffffffffffffffffffffffff16815260200191505060405180910390f35b341561060257600080fd5b61061c600480803561ffff16906020019091905050612810565b005b341561062957600080fd5b610643600480803561ffff16906020019091905050612f75565b005b341561065057600080fd5b61069d600480803590602001908201803590602001908080602002602001604051908101604052809392919081815260200183836020028082843782019150505050505091905050615150565b005b34156106aa57600080fd5b6106d6600480803573ffffffffffffffffffffffffffffffffffffffff169060200190919050506151a1565b005b34156106e357600080fd5b61071c60048080356000191690602001909190803573ffffffffffffffffffffffffffffffffffffffff16906020019091905050615226565b005b341561072957600080fd5b610731615388565b604051808261ffff1661ffff16815260200191505060405180910390f35b341561075a57600080fd5b61079360048080356000191690602001909190803573ffffffffffffffffffffffffffffffffffffffff1690602001909190505061539c565b005b34156107a057600080fd5b6107a86154fe565b604051808273ffffffffffffffffffffffffffffffffffffffff1673ffffffffffffffffffffffffffffffffffffffff16815260200191505060405180910390f35b34156107f557600080fd5b610821600480803573ffffffffffffffffffffffffffffffffffffffff16906020019091905050615629565b604051808215151515815260200191505060405180910390f35b341561084657600080fd5b61084e615797565b604051808273ffffffffffffffffffffffffffffffffffffffff1673ffffffffffffffffffffffffffffffffffffffff16815260200191505060405180910390f35b341561089b57600080fd5b6108c7600480803573ffffffffffffffffffffffffffffffffffffffff169060200190919050506158aa565b005b34156108d457600080fd5b6108dc6159bf565b604051808361ffff1661ffff1681526020018273ffffffffffffffffffffffffffffffffffffffff1673ffffffffffffffffffffffffffffffffffffffff1681526020019250505060405180910390f35b6000610937616af3565b61093f616b07565b60008493506006805490506040518059106109575750595b9080825280602002602001820160405250925060068054905060405180591061097d5750595b90808252806020026020018201604052509150600090505b6006805490508160ff161015610b965760068160ff168154811015156109b757fe5b90600052602060002090601091828204019190066002029054906101000a90047e0100000000000000000000000000000000000000000000000000000000000002838260ff16815181101515610a0957fe5b906020019060200201907dffffffffffffffffffffffffffffffffffffffffffffffffffffffffffff191690817dffffffffffffffffffffffffffffffffffffffffffffffffffffffffffff191681525050600360008561ffff1661ffff168152602001908152602001600020600060068360ff16815481101515610a8a57fe5b90600052602060002090601091828204019190066002029054906101000a90047e01000000000000000000000000000000000000000000000000000000000000027dffffffffffffffffffffffffffffffffffffffffffffffffffffffffffff19167dffffffffffffffffffffffffffffffffffffffffffffffffffffffffffff1916815260200190815260200160002060009054906101000a900473ffffffffffffffffffffffffffffffffffffffff16828260ff16815181101515610b4d57fe5b9060200190602002019073ffffffffffffffffffffffffffffffffffffffff16908173ffffffffffffffffffffffffffffffffffffffff16815250508080600101915050610995565b509193909250565b60036020528160005260406000206020528060005260406000206000915091509054906101000a900473ffffffffffffffffffffffffffffffffffffffff1681565b60015481565b60006001600060149054906101000a900461ffff16039050600760009054906101000a900473ffffffffffffffffffffffffffffffffffffffff16600860006101000a81548173ffffffffffffffffffffffffffffffffffffffff021916908373ffffffffffffffffffffffffffffffffffffffff16021790555060008161ffff16148015610cc157506000809054906101000a900473ffffffffffffffffffffffffffffffffffffffff1673ffffffffffffffffffffffffffffffffffffffff163373ffffffffffffffffffffffffffffffffffffffff16145b80610dbd57506001600860009054906101000a900473ffffffffffffffffffffffffffffffffffffffff1673ffffffffffffffffffffffffffffffffffffffff16635e7a070f600154336000604051602001526040518363ffffffff167c01000000000000000000000000000000000000000000000000000000000281526004018083600019166000191681526020018273ffffffffffffffffffffffffffffffffffffffff1673ffffffffffffffffffffffffffffffffffffffff16815260200192505050602060405180830381600087803b1515610da057600080fd5b6102c65a03f11515610db157600080fd5b50505060405180519050145b1515610dc857600080fd5b610dd24282615a6c565b610ddb81611000565b610e72600360008361ffff1661ffff16815260200190815260200160002060007f4d530000000000000000000000000000000000000000000000000000000000007dffffffffffffffffffffffffffffffffffffffffffffffffffffffffffff1916815260200190815260200160002060009054906101000a900473ffffffffffffffffffffffffffffffffffffffff1682611bb3565b610e7b81612810565b610e8481612f75565b50565b600760009054906101000a900473ffffffffffffffffffffffffffffffffffffffff1673ffffffffffffffffffffffffffffffffffffffff163373ffffffffffffffffffffffffffffffffffffffff161480610f2f57506000809054906101000a900473ffffffffffffffffffffffffffffffffffffffff1673ffffffffffffffffffffffffffffffffffffffff163373ffffffffffffffffffffffffffffffffffffffff16145b1515610f3a57600080fd5b806000806101000a81548173ffffffffffffffffffffffffffffffffffffffff021916908373ffffffffffffffffffffffffffffffffffffffff16021790555050565b60008090505b6006805490508160ff161015610ffc57610fef8260068360ff16815481101515610fa957fe5b90600052602060002090601091828204019190066002029054906101000a90047e0100000000000000000000000000000000000000000000000000000000000002615ae2565b8080600101915050610f83565b5050565b61100981610f7d565b50565b6000600760009054906101000a900473ffffffffffffffffffffffffffffffffffffffff16600860006101000a81548173ffffffffffffffffffffffffffffffffffffffff021916908373ffffffffffffffffffffffffffffffffffffffff1602179055506001600060149054906101000a900461ffff1603905060008161ffff161480156110e757506000809054906101000a900473ffffffffffffffffffffffffffffffffffffffff1673ffffffffffffffffffffffffffffffffffffffff163373ffffffffffffffffffffffffffffffffffffffff16145b8061113f5750600760009054906101000a900473ffffffffffffffffffffffffffffffffffffffff1673ffffffffffffffffffffffffffffffffffffffff163373ffffffffffffffffffffffffffffffffffffffff16145b8061123b57506001600860009054906101000a900473ffffffffffffffffffffffffffffffffffffffff1673ffffffffffffffffffffffffffffffffffffffff16635e7a070f600154336000604051602001526040518363ffffffff167c01000000000000000000000000000000000000000000000000000000000281526004018083600019166000191681526020018273ffffffffffffffffffffffffffffffffffffffff1673ffffffffffffffffffffffffffffffffffffffff16815260200192505050602060405180830381600087803b151561121e57600080fd5b6102c65a03f1151561122f57600080fd5b50505060405180519050145b1561171b57600360008261ffff1661ffff16815260200190815260200160002060007f53560000000000000000000000000000000000000000000000000000000000007dffffffffffffffffffffffffffffffffffffffffffffffffffffffffffff1916815260200190815260200160002060009054906101000a900473ffffffffffffffffffffffffffffffffffffffff16600f60006101000a81548173ffffffffffffffffffffffffffffffffffffffff021916908373ffffffffffffffffffffffffffffffffffffffff160217905550600f60009054906101000a900473ffffffffffffffffffffffffffffffffffffffff1673ffffffffffffffffffffffffffffffffffffffff1663eecedcb0836040518263ffffffff167c0100000000000000000000000000000000000000000000000000000000028152600401808273ffffffffffffffffffffffffffffffffffffffff1673ffffffffffffffffffffffffffffffffffffffff168152602001915050600060405180830381600087803b15156113ca57600080fd5b6102c65a03f115156113db57600080fd5b505050600360008261ffff1661ffff16815260200190815260200160002060007f47560000000000000000000000000000000000000000000000000000000000007dffffffffffffffffffffffffffffffffffffffffffffffffffffffffffff1916815260200190815260200160002060009054906101000a900473ffffffffffffffffffffffffffffffffffffffff16600b60006101000a81548173ffffffffffffffffffffffffffffffffffffffff021916908373ffffffffffffffffffffffffffffffffffffffff160217905550600b60009054906101000a900473ffffffffffffffffffffffffffffffffffffffff1673ffffffffffffffffffffffffffffffffffffffff1663eecedcb0836040518263ffffffff167c0100000000000000000000000000000000000000000000000000000000028152600401808273ffffffffffffffffffffffffffffffffffffffff1673ffffffffffffffffffffffffffffffffffffffff168152602001915050600060405180830381600087803b151561156857600080fd5b6102c65a03f1151561157957600080fd5b505050600360008261ffff1661ffff16815260200190815260200160002060007f56540000000000000000000000000000000000000000000000000000000000007dffffffffffffffffffffffffffffffffffffffffffffffffffffffffffff1916815260200190815260200160002060009054906101000a900473ffffffffffffffffffffffffffffffffffffffff16601260006101000a81548173ffffffffffffffffffffffffffffffffffffffff021916908373ffffffffffffffffffffffffffffffffffffffff160217905550601260009054906101000a900473ffffffffffffffffffffffffffffffffffffffff1673ffffffffffffffffffffffffffffffffffffffff1663eecedcb0836040518263ffffffff167c0100000000000000000000000000000000000000000000000000000000028152600401808273ffffffffffffffffffffffffffffffffffffffff1673ffffffffffffffffffffffffffffffffffffffff168152602001915050600060405180830381600087803b151561170657600080fd5b6102c65a03f1151561171757600080fd5b5050505b5050565b60008173ffffffffffffffffffffffffffffffffffffffff166000809054906101000a900473ffffffffffffffffffffffffffffffffffffffff1673ffffffffffffffffffffffffffffffffffffffff16141561177b57600190505b919050565b60046020528060005260406000206000915054906101000a900460ff1681565b6000600760009054906101000a900473ffffffffffffffffffffffffffffffffffffffff16600860006101000a81548173ffffffffffffffffffffffffffffffffffffffff021916908373ffffffffffffffffffffffffffffffffffffffff1602179055506001600860009054906101000a900473ffffffffffffffffffffffffffffffffffffffff1673ffffffffffffffffffffffffffffffffffffffff16635e7a070f600154336000604051602001526040518363ffffffff167c01000000000000000000000000000000000000000000000000000000000281526004018083600019166000191681526020018273ffffffffffffffffffffffffffffffffffffffff1673ffffffffffffffffffffffffffffffffffffffff16815260200192505050602060405180830381600087803b15156118de57600080fd5b6102c65a03f115156118ef57600080fd5b5050506040518051905014151561190557600080fd5b600060149054906101000a900461ffff16905061192460018201615ccc565b61194f817f4d5300000000000000000000000000000000000000000000000000000000000030615cec565b61198d817f474400000000000000000000000000000000000000000000000000000000000084600060098110151561198357fe5b6020020151615cec565b6119cb817f4d520000000000000000000000000000000000000000000000000000000000008460016009811015156119c157fe5b6020020151615cec565b611a09817f50430000000000000000000000000000000000000000000000000000000000008460026009811015156119ff57fe5b6020020151615cec565b611a47817f5356000000000000000000000000000000000000000000000000000000000000846003600981101515611a3d57fe5b6020020151615cec565b611a85817f5242000000000000000000000000000000000000000000000000000000000000846004600981101515611a7b57fe5b6020020151615cec565b611ac3817f4657000000000000000000000000000000000000000000000000000000000000846005600981101515611ab957fe5b6020020151615cec565b611b01817f5654000000000000000000000000000000000000000000000000000000000000846006600981101515611af757fe5b6020020151615cec565b611b3f817f4756000000000000000000000000000000000000000000000000000000000000846007600981101515611b3557fe5b6020020151615cec565b611b7d817f504c000000000000000000000000000000000000000000000000000000000000846008600981101515611b7357fe5b6020020151615cec565b611baf817f4753000000000000000000000000000000000000000000000000000000000000611baa615797565b615cec565b5050565b600360008261ffff1661ffff16815260200190815260200160002060007f47440000000000000000000000000000000000000000000000000000000000007dffffffffffffffffffffffffffffffffffffffffffffffffffffffffffff1916815260200190815260200160002060009054906101000a900473ffffffffffffffffffffffffffffffffffffffff16600c60006101000a81548173ffffffffffffffffffffffffffffffffffffffff021916908373ffffffffffffffffffffffffffffffffffffffff160217905550600c60009054906101000a900473ffffffffffffffffffffffffffffffffffffffff1673ffffffffffffffffffffffffffffffffffffffff1663d46655f4836040518263ffffffff167c0100000000000000000000000000000000000000000000000000000000028152600401808273ffffffffffffffffffffffffffffffffffffffff1673ffffffffffffffffffffffffffffffffffffffff168152602001915050600060405180830381600087803b1515611d3d57600080fd5b6102c65a03f11515611d4e57600080fd5b505050600360008261ffff1661ffff16815260200190815260200160002060007f53560000000000000000000000000000000000000000000000000000000000007dffffffffffffffffffffffffffffffffffffffffffffffffffffffffffff1916815260200190815260200160002060009054906101000a900473ffffffffffffffffffffffffffffffffffffffff16600f60006101000a81548173ffffffffffffffffffffffffffffffffffffffff021916908373ffffffffffffffffffffffffffffffffffffffff160217905550600f60009054906101000a900473ffffffffffffffffffffffffffffffffffffffff1673ffffffffffffffffffffffffffffffffffffffff1663d46655f4836040518263ffffffff167c0100000000000000000000000000000000000000000000000000000000028152600401808273ffffffffffffffffffffffffffffffffffffffff1673ffffffffffffffffffffffffffffffffffffffff168152602001915050600060405180830381600087803b1515611edb57600080fd5b6102c65a03f11515611eec57600080fd5b505050600360008261ffff1661ffff16815260200190815260200160002060007f56540000000000000000000000000000000000000000000000000000000000007dffffffffffffffffffffffffffffffffffffffffffffffffffffffffffff1916815260200190815260200160002060009054906101000a900473ffffffffffffffffffffffffffffffffffffffff16601260006101000a81548173ffffffffffffffffffffffffffffffffffffffff021916908373ffffffffffffffffffffffffffffffffffffffff160217905550601260009054906101000a900473ffffffffffffffffffffffffffffffffffffffff1673ffffffffffffffffffffffffffffffffffffffff1663d46655f4836040518263ffffffff167c0100000000000000000000000000000000000000000000000000000000028152600401808273ffffffffffffffffffffffffffffffffffffffff1673ffffffffffffffffffffffffffffffffffffffff168152602001915050600060405180830381600087803b151561207957600080fd5b6102c65a03f1151561208a57600080fd5b505050600360008261ffff1661ffff16815260200190815260200160002060007f47560000000000000000000000000000000000000000000000000000000000007dffffffffffffffffffffffffffffffffffffffffffffffffffffffffffff1916815260200190815260200160002060009054906101000a900473ffffffffffffffffffffffffffffffffffffffff16600b60006101000a81548173ffffffffffffffffffffffffffffffffffffffff021916908373ffffffffffffffffffffffffffffffffffffffff160217905550600b60009054906101000a900473ffffffffffffffffffffffffffffffffffffffff1673ffffffffffffffffffffffffffffffffffffffff1663d46655f4836040518263ffffffff167c0100000000000000000000000000000000000000000000000000000000028152600401808273ffffffffffffffffffffffffffffffffffffffff1673ffffffffffffffffffffffffffffffffffffffff168152602001915050600060405180830381600087803b151561221757600080fd5b6102c65a03f1151561222857600080fd5b505050600360008261ffff1661ffff16815260200190815260200160002060007f504c0000000000000000000000000000000000000000000000000000000000007dffffffffffffffffffffffffffffffffffffffffffffffffffffffffffff1916815260200190815260200160002060009054906101000a900473ffffffffffffffffffffffffffffffffffffffff16600a60006101000a81548173ffffffffffffffffffffffffffffffffffffffff021916908373ffffffffffffffffffffffffffffffffffffffff160217905550600a60009054906101000a900473ffffffffffffffffffffffffffffffffffffffff1673ffffffffffffffffffffffffffffffffffffffff1663d46655f4836040518263ffffffff167c0100000000000000000000000000000000000000000000000000000000028152600401808273ffffffffffffffffffffffffffffffffffffffff1673ffffffffffffffffffffffffffffffffffffffff168152602001915050600060405180830381600087803b15156123b557600080fd5b6102c65a03f115156123c657600080fd5b505050600360008261ffff1661ffff16815260200190815260200160002060007f50430000000000000000000000000000000000000000000000000000000000007dffffffffffffffffffffffffffffffffffffffffffffffffffffffffffff1916815260200190815260200160002060009054906101000a900473ffffffffffffffffffffffffffffffffffffffff16600e60006101000a81548173ffffffffffffffffffffffffffffffffffffffff021916908373ffffffffffffffffffffffffffffffffffffffff160217905550600e60009054906101000a900473ffffffffffffffffffffffffffffffffffffffff1673ffffffffffffffffffffffffffffffffffffffff1663d46655f4836040518263ffffffff167c0100000000000000000000000000000000000000000000000000000000028152600401808273ffffffffffffffffffffffffffffffffffffffff1673ffffffffffffffffffffffffffffffffffffffff168152602001915050600060405180830381600087803b151561255357600080fd5b6102c65a03f1151561256457600080fd5b505050600360008261ffff1661ffff16815260200190815260200160002060007f4d520000000000000000000000000000000000000000000000000000000000007dffffffffffffffffffffffffffffffffffffffffffffffffffffffffffff1916815260200190815260200160002060009054906101000a900473ffffffffffffffffffffffffffffffffffffffff16600d60006101000a81548173ffffffffffffffffffffffffffffffffffffffff021916908373ffffffffffffffffffffffffffffffffffffffff160217905550600d60009054906101000a900473ffffffffffffffffffffffffffffffffffffffff1673ffffffffffffffffffffffffffffffffffffffff1663d46655f4836040518263ffffffff167c0100000000000000000000000000000000000000000000000000000000028152600401808273ffffffffffffffffffffffffffffffffffffffff1673ffffffffffffffffffffffffffffffffffffffff168152602001915050600060405180830381600087803b15156126f157600080fd5b6102c65a03f1151561270257600080fd5b5050505050565b6000809054906101000a900473ffffffffffffffffffffffffffffffffffffffff1681565b600060011515600460008473ffffffffffffffffffffffffffffffffffffffff1673ffffffffffffffffffffffffffffffffffffffff16815260200190815260200160002060009054906101000a900460ff16151514806127db57508173ffffffffffffffffffffffffffffffffffffffff166000809054906101000a900473ffffffffffffffffffffffffffffffffffffffff1673ffffffffffffffffffffffffffffffffffffffff16145b156127e557600190505b919050565b600760009054906101000a900473ffffffffffffffffffffffffffffffffffffffff1681565b600360008261ffff1661ffff16815260200190815260200160002060007f47440000000000000000000000000000000000000000000000000000000000007dffffffffffffffffffffffffffffffffffffffffffffffffffffffffffff1916815260200190815260200160002060009054906101000a900473ffffffffffffffffffffffffffffffffffffffff16600c60006101000a81548173ffffffffffffffffffffffffffffffffffffffff021916908373ffffffffffffffffffffffffffffffffffffffff160217905550600360008261ffff1661ffff16815260200190815260200160002060007f4d520000000000000000000000000000000000000000000000000000000000007dffffffffffffffffffffffffffffffffffffffffffffffffffffffffffff1916815260200190815260200160002060009054906101000a900473ffffffffffffffffffffffffffffffffffffffff16600d60006101000a81548173ffffffffffffffffffffffffffffffffffffffff021916908373ffffffffffffffffffffffffffffffffffffffff160217905550600360008261ffff1661ffff16815260200190815260200160002060007f50430000000000000000000000000000000000000000000000000000000000007dffffffffffffffffffffffffffffffffffffffffffffffffffffffffffff1916815260200190815260200160002060009054906101000a900473ffffffffffffffffffffffffffffffffffffffff16600e60006101000a81548173ffffffffffffffffffffffffffffffffffffffff021916908373ffffffffffffffffffffffffffffffffffffffff16021790555060001515600c60009054906101000a900473ffffffffffffffffffffffffffffffffffffffff1673ffffffffffffffffffffffffffffffffffffffff1663525050e16000604051602001526040518163ffffffff167c0100000000000000000000000000000000000000000000000000000000028152600401602060405180830381600087803b1515612b0c57600080fd5b6102c65a03f11515612b1d57600080fd5b5050506040518051905015151415612c2257600c60009054906101000a900473ffffffffffffffffffffffffffffffffffffffff1673ffffffffffffffffffffffffffffffffffffffff1663ab69a71f600760009054906101000a900473ffffffffffffffffffffffffffffffffffffffff166040518263ffffffff167c0100000000000000000000000000000000000000000000000000000000028152600401808273ffffffffffffffffffffffffffffffffffffffff1673ffffffffffffffffffffffffffffffffffffffff168152602001915050600060405180830381600087803b1515612c0d57600080fd5b6102c65a03f11515612c1e57600080fd5b5050505b60001515600d60009054906101000a900473ffffffffffffffffffffffffffffffffffffffff1673ffffffffffffffffffffffffffffffffffffffff1663525050e16000604051602001526040518163ffffffff167c0100000000000000000000000000000000000000000000000000000000028152600401602060405180830381600087803b1515612cb457600080fd5b6102c65a03f11515612cc557600080fd5b5050506040518051905015151415612dca57600d60009054906101000a900473ffffffffffffffffffffffffffffffffffffffff1673ffffffffffffffffffffffffffffffffffffffff16631341bc04600760009054906101000a900473ffffffffffffffffffffffffffffffffffffffff166040518263ffffffff167c0100000000000000000000000000000000000000000000000000000000028152600401808273ffffffffffffffffffffffffffffffffffffffff1673ffffffffffffffffffffffffffffffffffffffff168152602001915050600060405180830381600087803b1515612db557600080fd5b6102c65a03f11515612dc657600080fd5b5050505b60001515600e60009054906101000a900473ffffffffffffffffffffffffffffffffffffffff1673ffffffffffffffffffffffffffffffffffffffff1663525050e16000604051602001526040518163ffffffff167c0100000000000000000000000000000000000000000000000000000000028152600401602060405180830381600087803b1515612e5c57600080fd5b6102c65a03f11515612e6d57600080fd5b5050506040518051905015151415612f7257600e60009054906101000a900473ffffffffffffffffffffffffffffffffffffffff1673ffffffffffffffffffffffffffffffffffffffff1663b3f4ccb1600760009054906101000a900473ffffffffffffffffffffffffffffffffffffffff166040518263ffffffff167c0100000000000000000000000000000000000000000000000000000000028152600401808273ffffffffffffffffffffffffffffffffffffffff1673ffffffffffffffffffffffffffffffffffffffff168152602001915050600060405180830381600087803b1515612f5d57600080fd5b6102c65a03f11515612f6e57600080fd5b5050505b50565b60008090505b6006805490508160ff1610156150b65760011515600560007f47440000000000000000000000000000000000000000000000000000000000007dffffffffffffffffffffffffffffffffffffffffffffffffffffffffffff19168152602001908152602001600020600060068460ff16815481101515612ff757fe5b90600052602060002090601091828204019190066002029054906101000a90047e01000000000000000000000000000000000000000000000000000000000000027dffffffffffffffffffffffffffffffffffffffffffffffffffffffffffff19167dffffffffffffffffffffffffffffffffffffffffffffffffffffffffffff1916815260200190815260200160002060009054906101000a900460ff161515141561351057600360008060149054906101000a900461ffff1661ffff1661ffff168152602001908152602001600020600060068360ff168154811015156130dc57fe5b90600052602060002090601091828204019190066002029054906101000a90047e01000000000000000000000000000000000000000000000000000000000000027dffffffffffffffffffffffffffffffffffffffffffffffffffffffffffff19167dffffffffffffffffffffffffffffffffffffffffffffffffffffffffffff1916815260200190815260200160002060009054906101000a900473ffffffffffffffffffffffffffffffffffffffff1673ffffffffffffffffffffffffffffffffffffffff16600360006001600060149054906101000a900461ffff160361ffff1661ffff168152602001908152602001600020600060068460ff168154811015156131e657fe5b90600052602060002090601091828204019190066002029054906101000a90047e01000000000000000000000000000000000000000000000000000000000000027dffffffffffffffffffffffffffffffffffffffffffffffffffffffffffff19167dffffffffffffffffffffffffffffffffffffffffffffffffffffffffffff1916815260200190815260200160002060009054906101000a900473ffffffffffffffffffffffffffffffffffffffff1673ffffffffffffffffffffffffffffffffffffffff1614151561350f57600c60009054906101000a900473ffffffffffffffffffffffffffffffffffffffff1673ffffffffffffffffffffffffffffffffffffffff166367bf5d0c60068360ff1681548110151561330557fe5b90600052602060002090601091828204019190066002029054906101000a90047e0100000000000000000000000000000000000000000000000000000000000002600360008060149054906101000a900461ffff1661ffff1661ffff168152602001908152602001600020600060068660ff1681548110151561338457fe5b90600052602060002090601091828204019190066002029054906101000a90047e01000000000000000000000000000000000000000000000000000000000000027dffffffffffffffffffffffffffffffffffffffffffffffffffffffffffff19167dffffffffffffffffffffffffffffffffffffffffffffffffffffffffffff1916815260200190815260200160002060009054906101000a900473ffffffffffffffffffffffffffffffffffffffff166040518363ffffffff167c010000000000000000000000000000000000000000000000000000000002815260040180837dffffffffffffffffffffffffffffffffffffffffffffffffffffffffffff19167bffffffffffffffffffffffffffffffffffffffffffffffffffffffff191681526020018273ffffffffffffffffffffffffffffffffffffffff1673ffffffffffffffffffffffffffffffffffffffff16815260200192505050600060405180830381600087803b15156134fa57600080fd5b6102c65a03f1151561350b57600080fd5b5050505b5b60011515600560007f50430000000000000000000000000000000000000000000000000000000000007dffffffffffffffffffffffffffffffffffffffffffffffffffffffffffff19168152602001908152602001600020600060068460ff1681548110151561357c57fe5b90600052602060002090601091828204019190066002029054906101000a90047e01000000000000000000000000000000000000000000000000000000000000027dffffffffffffffffffffffffffffffffffffffffffffffffffffffffffff19167dffffffffffffffffffffffffffffffffffffffffffffffffffffffffffff1916815260200190815260200160002060009054906101000a900460ff1615151415613a9557600360008060149054906101000a900461ffff1661ffff1661ffff168152602001908152602001600020600060068360ff1681548110151561366157fe5b90600052602060002090601091828204019190066002029054906101000a90047e01000000000000000000000000000000000000000000000000000000000000027dffffffffffffffffffffffffffffffffffffffffffffffffffffffffffff19167dffffffffffffffffffffffffffffffffffffffffffffffffffffffffffff1916815260200190815260200160002060009054906101000a900473ffffffffffffffffffffffffffffffffffffffff1673ffffffffffffffffffffffffffffffffffffffff16600360006001600060149054906101000a900461ffff160361ffff1661ffff168152602001908152602001600020600060068460ff1681548110151561376b57fe5b90600052602060002090601091828204019190066002029054906101000a90047e01000000000000000000000000000000000000000000000000000000000000027dffffffffffffffffffffffffffffffffffffffffffffffffffffffffffff19167dffffffffffffffffffffffffffffffffffffffffffffffffffffffffffff1916815260200190815260200160002060009054906101000a900473ffffffffffffffffffffffffffffffffffffffff1673ffffffffffffffffffffffffffffffffffffffff16141515613a9457600e60009054906101000a900473ffffffffffffffffffffffffffffffffffffffff1673ffffffffffffffffffffffffffffffffffffffff166367bf5d0c60068360ff1681548110151561388a57fe5b90600052602060002090601091828204019190066002029054906101000a90047e0100000000000000000000000000000000000000000000000000000000000002600360008060149054906101000a900461ffff1661ffff1661ffff168152602001908152602001600020600060068660ff1681548110151561390957fe5b90600052602060002090601091828204019190066002029054906101000a90047e01000000000000000000000000000000000000000000000000000000000000027dffffffffffffffffffffffffffffffffffffffffffffffffffffffffffff19167dffffffffffffffffffffffffffffffffffffffffffffffffffffffffffff1916815260200190815260200160002060009054906101000a900473ffffffffffffffffffffffffffffffffffffffff166040518363ffffffff167c010000000000000000000000000000000000000000000000000000000002815260040180837dffffffffffffffffffffffffffffffffffffffffffffffffffffffffffff19167bffffffffffffffffffffffffffffffffffffffffffffffffffffffff191681526020018273ffffffffffffffffffffffffffffffffffffffff1673ffffffffffffffffffffffffffffffffffffffff16815260200192505050600060405180830381600087803b1515613a7f57600080fd5b6102c65a03f11515613a9057600080fd5b5050505b5b60011515600560007f53560000000000000000000000000000000000000000000000000000000000007dffffffffffffffffffffffffffffffffffffffffffffffffffffffffffff19168152602001908152602001600020600060068460ff16815481101515613b0157fe5b90600052602060002090601091828204019190066002029054906101000a90047e01000000000000000000000000000000000000000000000000000000000000027dffffffffffffffffffffffffffffffffffffffffffffffffffffffffffff19167dffffffffffffffffffffffffffffffffffffffffffffffffffffffffffff1916815260200190815260200160002060009054906101000a900460ff161515141561401a57600360008060149054906101000a900461ffff1661ffff1661ffff168152602001908152602001600020600060068360ff16815481101515613be657fe5b90600052602060002090601091828204019190066002029054906101000a90047e01000000000000000000000000000000000000000000000000000000000000027dffffffffffffffffffffffffffffffffffffffffffffffffffffffffffff19167dffffffffffffffffffffffffffffffffffffffffffffffffffffffffffff1916815260200190815260200160002060009054906101000a900473ffffffffffffffffffffffffffffffffffffffff1673ffffffffffffffffffffffffffffffffffffffff16600360006001600060149054906101000a900461ffff160361ffff1661ffff168152602001908152602001600020600060068460ff16815481101515613cf057fe5b90600052602060002090601091828204019190066002029054906101000a90047e01000000000000000000000000000000000000000000000000000000000000027dffffffffffffffffffffffffffffffffffffffffffffffffffffffffffff19167dffffffffffffffffffffffffffffffffffffffffffffffffffffffffffff1916815260200190815260200160002060009054906101000a900473ffffffffffffffffffffffffffffffffffffffff1673ffffffffffffffffffffffffffffffffffffffff1614151561401957600f60009054906101000a900473ffffffffffffffffffffffffffffffffffffffff1673ffffffffffffffffffffffffffffffffffffffff166367bf5d0c60068360ff16815481101515613e0f57fe5b90600052602060002090601091828204019190066002029054906101000a90047e0100000000000000000000000000000000000000000000000000000000000002600360008060149054906101000a900461ffff1661ffff1661ffff168152602001908152602001600020600060068660ff16815481101515613e8e57fe5b90600052602060002090601091828204019190066002029054906101000a90047e01000000000000000000000000000000000000000000000000000000000000027dffffffffffffffffffffffffffffffffffffffffffffffffffffffffffff19167dffffffffffffffffffffffffffffffffffffffffffffffffffffffffffff1916815260200190815260200160002060009054906101000a900473ffffffffffffffffffffffffffffffffffffffff166040518363ffffffff167c010000000000000000000000000000000000000000000000000000000002815260040180837dffffffffffffffffffffffffffffffffffffffffffffffffffffffffffff19167bffffffffffffffffffffffffffffffffffffffffffffffffffffffff191681526020018273ffffffffffffffffffffffffffffffffffffffff1673ffffffffffffffffffffffffffffffffffffffff16815260200192505050600060405180830381600087803b151561400457600080fd5b6102c65a03f1151561401557600080fd5b5050505b5b60011515600560007f47440000000000000000000000000000000000000000000000000000000000007dffffffffffffffffffffffffffffffffffffffffffffffffffffffffffff19168152602001908152602001600020600060068460ff1681548110151561408657fe5b90600052602060002090601091828204019190066002029054906101000a90047e01000000000000000000000000000000000000000000000000000000000000027dffffffffffffffffffffffffffffffffffffffffffffffffffffffffffff19167dffffffffffffffffffffffffffffffffffffffffffffffffffffffffffff1916815260200190815260200160002060009054906101000a900460ff161515141561459f57600360008060149054906101000a900461ffff1661ffff1661ffff168152602001908152602001600020600060068360ff1681548110151561416b57fe5b90600052602060002090601091828204019190066002029054906101000a90047e01000000000000000000000000000000000000000000000000000000000000027dffffffffffffffffffffffffffffffffffffffffffffffffffffffffffff19167dffffffffffffffffffffffffffffffffffffffffffffffffffffffffffff1916815260200190815260200160002060009054906101000a900473ffffffffffffffffffffffffffffffffffffffff1673ffffffffffffffffffffffffffffffffffffffff16600360006001600060149054906101000a900461ffff160361ffff1661ffff168152602001908152602001600020600060068460ff1681548110151561427557fe5b90600052602060002090601091828204019190066002029054906101000a90047e01000000000000000000000000000000000000000000000000000000000000027dffffffffffffffffffffffffffffffffffffffffffffffffffffffffffff19167dffffffffffffffffffffffffffffffffffffffffffffffffffffffffffff1916815260200190815260200160002060009054906101000a900473ffffffffffffffffffffffffffffffffffffffff1673ffffffffffffffffffffffffffffffffffffffff1614151561459e57600c60009054906101000a900473ffffffffffffffffffffffffffffffffffffffff1673ffffffffffffffffffffffffffffffffffffffff166367bf5d0c60068360ff1681548110151561439457fe5b90600052602060002090601091828204019190066002029054906101000a90047e0100000000000000000000000000000000000000000000000000000000000002600360008060149054906101000a900461ffff1661ffff1661ffff168152602001908152602001600020600060068660ff1681548110151561441357fe5b90600052602060002090601091828204019190066002029054906101000a90047e01000000000000000000000000000000000000000000000000000000000000027dffffffffffffffffffffffffffffffffffffffffffffffffffffffffffff19167dffffffffffffffffffffffffffffffffffffffffffffffffffffffffffff1916815260200190815260200160002060009054906101000a900473ffffffffffffffffffffffffffffffffffffffff166040518363ffffffff167c010000000000000000000000000000000000000000000000000000000002815260040180837dffffffffffffffffffffffffffffffffffffffffffffffffffffffffffff19167bffffffffffffffffffffffffffffffffffffffffffffffffffffffff191681526020018273ffffffffffffffffffffffffffffffffffffffff1673ffffffffffffffffffffffffffffffffffffffff16815260200192505050600060405180830381600087803b151561458957600080fd5b6102c65a03f1151561459a57600080fd5b5050505b5b60011515600560007f56540000000000000000000000000000000000000000000000000000000000007dffffffffffffffffffffffffffffffffffffffffffffffffffffffffffff19168152602001908152602001600020600060068460ff1681548110151561460b57fe5b90600052602060002090601091828204019190066002029054906101000a90047e01000000000000000000000000000000000000000000000000000000000000027dffffffffffffffffffffffffffffffffffffffffffffffffffffffffffff19167dffffffffffffffffffffffffffffffffffffffffffffffffffffffffffff1916815260200190815260200160002060009054906101000a900460ff1615151415614b2457600360008060149054906101000a900461ffff1661ffff1661ffff168152602001908152602001600020600060068360ff168154811015156146f057fe5b90600052602060002090601091828204019190066002029054906101000a90047e01000000000000000000000000000000000000000000000000000000000000027dffffffffffffffffffffffffffffffffffffffffffffffffffffffffffff19167dffffffffffffffffffffffffffffffffffffffffffffffffffffffffffff1916815260200190815260200160002060009054906101000a900473ffffffffffffffffffffffffffffffffffffffff1673ffffffffffffffffffffffffffffffffffffffff16600360006001600060149054906101000a900461ffff160361ffff1661ffff168152602001908152602001600020600060068460ff168154811015156147fa57fe5b90600052602060002090601091828204019190066002029054906101000a90047e01000000000000000000000000000000000000000000000000000000000000027dffffffffffffffffffffffffffffffffffffffffffffffffffffffffffff19167dffffffffffffffffffffffffffffffffffffffffffffffffffffffffffff1916815260200190815260200160002060009054906101000a900473ffffffffffffffffffffffffffffffffffffffff1673ffffffffffffffffffffffffffffffffffffffff16141515614b2357601260009054906101000a900473ffffffffffffffffffffffffffffffffffffffff1673ffffffffffffffffffffffffffffffffffffffff166367bf5d0c60068360ff1681548110151561491957fe5b90600052602060002090601091828204019190066002029054906101000a90047e0100000000000000000000000000000000000000000000000000000000000002600360008060149054906101000a900461ffff1661ffff1661ffff168152602001908152602001600020600060068660ff1681548110151561499857fe5b90600052602060002090601091828204019190066002029054906101000a90047e01000000000000000000000000000000000000000000000000000000000000027dffffffffffffffffffffffffffffffffffffffffffffffffffffffffffff19167dffffffffffffffffffffffffffffffffffffffffffffffffffffffffffff1916815260200190815260200160002060009054906101000a900473ffffffffffffffffffffffffffffffffffffffff166040518363ffffffff167c010000000000000000000000000000000000000000000000000000000002815260040180837dffffffffffffffffffffffffffffffffffffffffffffffffffffffffffff19167bffffffffffffffffffffffffffffffffffffffffffffffffffffffff191681526020018273ffffffffffffffffffffffffffffffffffffffff1673ffffffffffffffffffffffffffffffffffffffff16815260200192505050600060405180830381600087803b1515614b0e57600080fd5b6102c65a03f11515614b1f57600080fd5b5050505b5b60011515600560007f47560000000000000000000000000000000000000000000000000000000000007dffffffffffffffffffffffffffffffffffffffffffffffffffffffffffff19168152602001908152602001600020600060068460ff16815481101515614b9057fe5b90600052602060002090601091828204019190066002029054906101000a90047e01000000000000000000000000000000000000000000000000000000000000027dffffffffffffffffffffffffffffffffffffffffffffffffffffffffffff19167dffffffffffffffffffffffffffffffffffffffffffffffffffffffffffff1916815260200190815260200160002060009054906101000a900460ff16151514156150a957600360008060149054906101000a900461ffff1661ffff1661ffff168152602001908152602001600020600060068360ff16815481101515614c7557fe5b90600052602060002090601091828204019190066002029054906101000a90047e01000000000000000000000000000000000000000000000000000000000000027dffffffffffffffffffffffffffffffffffffffffffffffffffffffffffff19167dffffffffffffffffffffffffffffffffffffffffffffffffffffffffffff1916815260200190815260200160002060009054906101000a900473ffffffffffffffffffffffffffffffffffffffff1673ffffffffffffffffffffffffffffffffffffffff16600360006001600060149054906101000a900461ffff160361ffff1661ffff168152602001908152602001600020600060068460ff16815481101515614d7f57fe5b90600052602060002090601091828204019190066002029054906101000a90047e01000000000000000000000000000000000000000000000000000000000000027dffffffffffffffffffffffffffffffffffffffffffffffffffffffffffff19167dffffffffffffffffffffffffffffffffffffffffffffffffffffffffffff1916815260200190815260200160002060009054906101000a900473ffffffffffffffffffffffffffffffffffffffff1673ffffffffffffffffffffffffffffffffffffffff161415156150a857600b60009054906101000a900473ffffffffffffffffffffffffffffffffffffffff1673ffffffffffffffffffffffffffffffffffffffff166367bf5d0c60068360ff16815481101515614e9e57fe5b90600052602060002090601091828204019190066002029054906101000a90047e0100000000000000000000000000000000000000000000000000000000000002600360008060149054906101000a900461ffff1661ffff1661ffff168152602001908152602001600020600060068660ff16815481101515614f1d57fe5b90600052602060002090601091828204019190066002029054906101000a90047e01000000000000000000000000000000000000000000000000000000000000027dffffffffffffffffffffffffffffffffffffffffffffffffffffffffffff19167dffffffffffffffffffffffffffffffffffffffffffffffffffffffffffff1916815260200190815260200160002060009054906101000a900473ffffffffffffffffffffffffffffffffffffffff166040518363ffffffff167c010000000000000000000000000000000000000000000000000000000002815260040180837dffffffffffffffffffffffffffffffffffffffffffffffffffffffffffff19167bffffffffffffffffffffffffffffffffffffffffffffffffffffffff191681526020018273ffffffffffffffffffffffffffffffffffffffff1673ffffffffffffffffffffffffffffffffffffffff16815260200192505050600060405180830381600087803b151561509357600080fd5b6102c65a03f115156150a457600080fd5b5050505b5b8080600101915050612f7b565b61514c600360008461ffff1661ffff16815260200190815260200160002060007f47530000000000000000000000000000000000000000000000000000000000007dffffffffffffffffffffffffffffffffffffffffffffffffffffffffffff1916815260200190815260200160002060009054906101000a900473ffffffffffffffffffffffffffffffffffffffff1661100c565b5050565b60001515601260149054906101000a900460ff16151514151561517257600080fd5b61517b81615d9e565b615183615e42565b6001601260146101000a81548160ff02191690831515021790555050565b600760009054906101000a900473ffffffffffffffffffffffffffffffffffffffff1673ffffffffffffffffffffffffffffffffffffffff163373ffffffffffffffffffffffffffffffffffffffff161415156151fd57600080fd5b8073ffffffffffffffffffffffffffffffffffffffff16600760009054906101000a9050505050565b600115156152333361171f565b151514151561524157600080fd5b600760009054906101000a900473ffffffffffffffffffffffffffffffffffffffff16600860006101000a81548173ffffffffffffffffffffffffffffffffffffffff021916908373ffffffffffffffffffffffffffffffffffffffff160217905550600860009054906101000a900473ffffffffffffffffffffffffffffffffffffffff1673ffffffffffffffffffffffffffffffffffffffff1663d40189c483836040518363ffffffff167c01000000000000000000000000000000000000000000000000000000000281526004018083600019166000191681526020018273ffffffffffffffffffffffffffffffffffffffff1673ffffffffffffffffffffffffffffffffffffffff16815260200192505050600060405180830381600087803b151561537057600080fd5b6102c65a03f1151561538157600080fd5b5050505050565b600060149054906101000a900461ffff1681565b600115156153a93361171f565b15151415156153b757600080fd5b600760009054906101000a900473ffffffffffffffffffffffffffffffffffffffff16600860006101000a81548173ffffffffffffffffffffffffffffffffffffffff021916908373ffffffffffffffffffffffffffffffffffffffff160217905550600860009054906101000a900473ffffffffffffffffffffffffffffffffffffffff1673ffffffffffffffffffffffffffffffffffffffff1663b93bec8b83836040518363ffffffff167c01000000000000000000000000000000000000000000000000000000000281526004018083600019166000191681526020018273ffffffffffffffffffffffffffffffffffffffff1673ffffffffffffffffffffffffffffffffffffffff16815260200192505050600060405180830381600087803b15156154e657600080fd5b6102c65a03f115156154f757600080fd5b5050505050565b6000600760009054906101000a900473ffffffffffffffffffffffffffffffffffffffff16600860006101000a81548173ffffffffffffffffffffffffffffffffffffffff021916908373ffffffffffffffffffffffffffffffffffffffff160217905550600860009054906101000a900473ffffffffffffffffffffffffffffffffffffffff1673ffffffffffffffffffffffffffffffffffffffff1663597336e86001546000604051602001526040518263ffffffff167c0100000000000000000000000000000000000000000000000000000000028152600401808260001916600019168152602001915050602060405180830381600087803b151561560657600080fd5b6102c65a03f1151561561757600080fd5b50505060405180519050905080905090565b6000600760009054906101000a900473ffffffffffffffffffffffffffffffffffffffff16600860006101000a81548173ffffffffffffffffffffffffffffffffffffffff021916908373ffffffffffffffffffffffffffffffffffffffff1602179055506001600860009054906101000a900473ffffffffffffffffffffffffffffffffffffffff1673ffffffffffffffffffffffffffffffffffffffff16635e7a070f600154856000604051602001526040518363ffffffff167c01000000000000000000000000000000000000000000000000000000000281526004018083600019166000191681526020018273ffffffffffffffffffffffffffffffffffffffff1673ffffffffffffffffffffffffffffffffffffffff16815260200192505050602060405180830381600087803b151561576757600080fd5b6102c65a03f1151561577857600080fd5b5050506040518051905014151561578e57600080fd5b60019050919050565b6000600760009054906101000a900473ffffffffffffffffffffffffffffffffffffffff16600860006101000a81548173ffffffffffffffffffffffffffffffffffffffff021916908373ffffffffffffffffffffffffffffffffffffffff160217905550600860009054906101000a900473ffffffffffffffffffffffffffffffffffffffff1673ffffffffffffffffffffffffffffffffffffffff1663b98356616000604051602001526040518163ffffffff167c0100000000000000000000000000000000000000000000000000000000028152600401602060405180830381600087803b151561588a57600080fd5b6102c65a03f1151561589b57600080fd5b50505060405180519050905090565b600115156158b73361171f565b15151415156158c557600080fd5b600073ffffffffffffffffffffffffffffffffffffffff168173ffffffffffffffffffffffffffffffffffffffff161415151561590157600080fd5b8073ffffffffffffffffffffffffffffffffffffffff166000809054906101000a900473ffffffffffffffffffffffffffffffffffffffff1673ffffffffffffffffffffffffffffffffffffffff167f8be0079c531659141344cd1fd0a4f28419497f9722a3daafe3b4186f6b6457e060405160405180910390a3806000806101000a81548173ffffffffffffffffffffffffffffffffffffffff021916908373ffffffffffffffffffffffffffffffffffffffff16021790555050565b6000806001600060149054906101000a900461ffff16039150600360008361ffff1661ffff16815260200190815260200160002060007f4d530000000000000000000000000000000000000000000000000000000000007dffffffffffffffffffffffffffffffffffffffffffffffffffffffffffff1916815260200190815260200160002060009054906101000a900473ffffffffffffffffffffffffffffffffffffffff1690509091565b60028054806001018281615a809190616b1b565b9160005260206000209060020201600060408051908101604052808681526020018561ffff1681525090919091506000820151816000015560208201518160010160006101000a81548161ffff021916908361ffff1602179055505050505050565b600080905060008361ffff161115615afb576001830390505b600060046000600360008561ffff1661ffff1681526020019081526020016000206000867dffffffffffffffffffffffffffffffffffffffffffffffffffffffffffff19167dffffffffffffffffffffffffffffffffffffffffffffffffffffffffffff1916815260200190815260200160002060009054906101000a900473ffffffffffffffffffffffffffffffffffffffff1673ffffffffffffffffffffffffffffffffffffffff1673ffffffffffffffffffffffffffffffffffffffff16815260200190815260200160002060006101000a81548160ff021916908315150217905550600160046000600360008761ffff1661ffff1681526020019081526020016000206000867dffffffffffffffffffffffffffffffffffffffffffffffffffffffffffff19167dffffffffffffffffffffffffffffffffffffffffffffffffffffffffffff1916815260200190815260200160002060009054906101000a900473ffffffffffffffffffffffffffffffffffffffff1673ffffffffffffffffffffffffffffffffffffffff1673ffffffffffffffffffffffffffffffffffffffff16815260200190815260200160002060006101000a81548160ff021916908315150217905550505050565b80600060146101000a81548161ffff021916908361ffff16021790555050565b80600360008561ffff1661ffff1681526020019081526020016000206000847dffffffffffffffffffffffffffffffffffffffffffffffffffffffffffff19167dffffffffffffffffffffffffffffffffffffffffffffffffffffffffffff1916815260200190815260200160002060006101000a81548173ffffffffffffffffffffffffffffffffffffffff021916908373ffffffffffffffffffffffffffffffffffffffff160217905550505050565b60008090505b81518160ff161015615e3e5760068054806001018281615dc49190616b4d565b9160005260206000209060109182820401919006600202848460ff16815181101515615dec57fe5b90602001906020020151909190916101000a81548161ffff02191690837e0100000000000000000000000000000000000000000000000000000000000090040217905550508080600101915050615da4565b5050565b6001600560007f47440000000000000000000000000000000000000000000000000000000000007dffffffffffffffffffffffffffffffffffffffffffffffffffffffffffff1916815260200190815260200160002060007f47560000000000000000000000000000000000000000000000000000000000007dffffffffffffffffffffffffffffffffffffffffffffffffffffffffffff1916815260200190815260200160002060006101000a81548160ff0219169083151502179055506001600560007f53560000000000000000000000000000000000000000000000000000000000007dffffffffffffffffffffffffffffffffffffffffffffffffffffffffffff1916815260200190815260200160002060007f56540000000000000000000000000000000000000000000000000000000000007dffffffffffffffffffffffffffffffffffffffffffffffffffffffffffff1916815260200190815260200160002060006101000a81548160ff0219169083151502179055506001600560007f53560000000000000000000000000000000000000000000000000000000000007dffffffffffffffffffffffffffffffffffffffffffffffffffffffffffff1916815260200190815260200160002060007f47440000000000000000000000000000000000000000000000000000000000007dffffffffffffffffffffffffffffffffffffffffffffffffffffffffffff1916815260200190815260200160002060006101000a81548160ff0219169083151502179055506001600560007f53560000000000000000000000000000000000000000000000000000000000007dffffffffffffffffffffffffffffffffffffffffffffffffffffffffffff1916815260200190815260200160002060007f4d520000000000000000000000000000000000000000000000000000000000007dffffffffffffffffffffffffffffffffffffffffffffffffffffffffffff1916815260200190815260200160002060006101000a81548160ff0219169083151502179055506001600560007f53560000000000000000000000000000000000000000000000000000000000007dffffffffffffffffffffffffffffffffffffffffffffffffffffffffffff1916815260200190815260200160002060007f47560000000000000000000000000000000000000000000000000000000000007dffffffffffffffffffffffffffffffffffffffffffffffffffffffffffff1916815260200190815260200160002060006101000a81548160ff0219169083151502179055506001600560007f53560000000000000000000000000000000000000000000000000000000000007dffffffffffffffffffffffffffffffffffffffffffffffffffffffffffff1916815260200190815260200160002060007f50430000000000000000000000000000000000000000000000000000000000007dffffffffffffffffffffffffffffffffffffffffffffffffffffffffffff1916815260200190815260200160002060006101000a81548160ff0219169083151502179055506001600560007f56540000000000000000000000000000000000000000000000000000000000007dffffffffffffffffffffffffffffffffffffffffffffffffffffffffffff1916815260200190815260200160002060007f47440000000000000000000000000000000000000000000000000000000000007dffffffffffffffffffffffffffffffffffffffffffffffffffffffffffff1916815260200190815260200160002060006101000a81548160ff0219169083151502179055506001600560007f56540000000000000000000000000000000000000000000000000000000000007dffffffffffffffffffffffffffffffffffffffffffffffffffffffffffff1916815260200190815260200160002060007f4d520000000000000000000000000000000000000000000000000000000000007dffffffffffffffffffffffffffffffffffffffffffffffffffffffffffff1916815260200190815260200160002060006101000a81548160ff0219169083151502179055506001600560007f56540000000000000000000000000000000000000000000000000000000000007dffffffffffffffffffffffffffffffffffffffffffffffffffffffffffff1916815260200190815260200160002060007f50430000000000000000000000000000000000000000000000000000000000007dffffffffffffffffffffffffffffffffffffffffffffffffffffffffffff1916815260200190815260200160002060006101000a81548160ff0219169083151502179055506001600560007f56540000000000000000000000000000000000000000000000000000000000007dffffffffffffffffffffffffffffffffffffffffffffffffffffffffffff1916815260200190815260200160002060007f47560000000000000000000000000000000000000000000000000000000000007dffffffffffffffffffffffffffffffffffffffffffffffffffffffffffff1916815260200190815260200160002060006101000a81548160ff0219169083151502179055506001600560007f56540000000000000000000000000000000000000000000000000000000000007dffffffffffffffffffffffffffffffffffffffffffffffffffffffffffff1916815260200190815260200160002060007f504c0000000000000000000000000000000000000000000000000000000000007dffffffffffffffffffffffffffffffffffffffffffffffffffffffffffff1916815260200190815260200160002060006101000a81548160ff0219169083151502179055506001600560007f47560000000000000000000000000000000000000000000000000000000000007dffffffffffffffffffffffffffffffffffffffffffffffffffffffffffff1916815260200190815260200160002060007f47440000000000000000000000000000000000000000000000000000000000007dffffffffffffffffffffffffffffffffffffffffffffffffffffffffffff1916815260200190815260200160002060006101000a81548160ff0219169083151502179055506001600560007f47560000000000000000000000000000000000000000000000000000000000007dffffffffffffffffffffffffffffffffffffffffffffffffffffffffffff1916815260200190815260200160002060007f4d520000000000000000000000000000000000000000000000000000000000007dffffffffffffffffffffffffffffffffffffffffffffffffffffffffffff1916815260200190815260200160002060006101000a81548160ff0219169083151502179055506001600560007f47560000000000000000000000000000000000000000000000000000000000007dffffffffffffffffffffffffffffffffffffffffffffffffffffffffffff1916815260200190815260200160002060007f50430000000000000000000000000000000000000000000000000000000000007dffffffffffffffffffffffffffffffffffffffffffffffffffffffffffff1916815260200190815260200160002060006101000a81548160ff0219169083151502179055506001600560007f47560000000000000000000000000000000000000000000000000000000000007dffffffffffffffffffffffffffffffffffffffffffffffffffffffffffff1916815260200190815260200160002060007f504c0000000000000000000000000000000000000000000000000000000000007dffffffffffffffffffffffffffffffffffffffffffffffffffffffffffff1916815260200190815260200160002060006101000a81548160ff0219169083151502179055506001600560007f50430000000000000000000000000000000000000000000000000000000000007dffffffffffffffffffffffffffffffffffffffffffffffffffffffffffff1916815260200190815260200160002060007f4d520000000000000000000000000000000000000000000000000000000000007dffffffffffffffffffffffffffffffffffffffffffffffffffffffffffff1916815260200190815260200160002060006101000a81548160ff0219169083151502179055506001600560007f50430000000000000000000000000000000000000000000000000000000000007dffffffffffffffffffffffffffffffffffffffffffffffffffffffffffff1916815260200190815260200160002060007f47440000000000000000000000000000000000000000000000000000000000007dffffffffffffffffffffffffffffffffffffffffffffffffffffffffffff1916815260200190815260200160002060006101000a81548160ff021916908315150217905550565b602060405190810160405280600081525090565b602060405190810160405280600081525090565b815481835581811511616b4857600202816002028360005260206000209182019101616b479190616b87565b5b505050565b815481835581811511616b8257600f016010900481600f01601090048360005260206000209182019101616b819190616bc3565b5b505050565b616bc091905b80821115616bbc576000808201600090556001820160006101000a81549061ffff021916905550600201616b8d565b5090565b90565b616be591905b80821115616be1576000816000905550600101616bc9565b5090565b905600a165627a7a72305820d8a32e06de25c2373fabcab33e6f860546300e20b1670a3cecea894613afab8c0029a165627a7a723058208eca0c4addcb70a993bf6cb3c17771435f6ad68948b5005b92cc12e4022b33f80029",
  "source": "/* Copyright (C) 2017 GovBlocks.io\r\n\r\n  This program is free software: you can redistribute it and/or modify\r\n    it under the terms of the GNU General Public License as published by\r\n    the Free Software Foundation, either version 3 of the License, or\r\n    (at your option) any later version.\r\n\r\n  This program is distributed in the hope that it will be useful,\r\n    but WITHOUT ANY WARRANTY; without even the implied warranty of\r\n    MERCHANTABILITY or FITNESS FOR A PARTICULAR PURPOSE.  See the\r\n    GNU General Public License for more details.\r\n\r\n  You should have received a copy of the GNU General Public License\r\n    along with this program.  If not, see http://www.gnu.org/licenses/ */\r\n\r\n\r\npragma solidity ^0.4.8;\r\nimport \"./Master.sol\";\r\nimport \"./memberRoles.sol\";\r\nimport \"./ProposalCategory.sol\";\r\nimport \"./governanceData.sol\";\r\n\r\ncontract GovBlocksMaster \r\n{\r\n    Master MS;\r\n    memberRoles MR;\r\n    ProposalCategory PC;\r\n    governanceData GD;\r\n    address public owner;\r\n    address GBTAddress;\r\n    address public authGBOwner;\r\n\r\n    struct GBDapps\r\n    {\r\n      address masterAddress;\r\n      address tokenAddress;\r\n      address authGBAddress;\r\n      string dappDescHash;\r\n    }\r\n\r\n    mapping(address=>bytes32) govBlocksDappByAddress;\r\n    mapping(bytes32=>GBDapps) govBlocksDapps;\r\n    mapping(address=>string) govBlocksUser;\r\n    \r\n    bytes32[] allGovBlocksUsers;\r\n    string byteCodeHash;\r\n    string contractsAbiHash;\r\n\r\n    modifier onlyOwner() \r\n    {\r\n      require(msg.sender == owner);\r\n      _;\r\n    }\r\n\r\n    /// @dev Initializes GovBlocks master\r\n    /// @param _GBTAddress GBT address\r\n    function GovBlocksMasterInit(address _GBTAddress) \r\n    {\r\n      require(owner == 0x00);\r\n      owner = msg.sender; \r\n      GBTAddress = _GBTAddress;\r\n      updateGBMAddress(address(this));  \r\n    } \r\n\r\n    /// @dev Changes authorized GovBlocks owner\r\n    /// @param dAppName dApp username\r\n    /// @param _memberAddress Address of the member\r\n    function changeAuthorizedGB(bytes32 dAppName,address _memberAddress)\r\n    {\r\n      if(govBlocksDapps[dAppName].authGBAddress == 0x00)\r\n        govBlocksDapps[dAppName].authGBAddress = _memberAddress;\r\n      else\r\n        require(msg.sender == govBlocksDapps[dAppName].authGBAddress);\r\n        govBlocksDapps[dAppName].authGBAddress = _memberAddress;\r\n    }\r\n\r\n    /// @dev Checks for authorized GovBlocks owner\r\n    /// @param dAppName dApp username\r\n    /// @param _memberAddress Member's address to be checked for GovBlocks owner\r\n    /// @return auth Authentication flag\r\n    function isAuthorizedGBOwner(bytes32 dAppName,address _memberAddress)constant returns(uint auth)\r\n    {\r\n       if(govBlocksDapps[dAppName].authGBAddress == _memberAddress)\r\n          auth = 1;\r\n    } \r\n\r\n    /// @dev Transfers ownership to new owner (of GBT contract address)\r\n    /// @param _newOwner Address of new owner\r\n    function transferOwnership(address _newOwner) onlyOwner  \r\n    {\r\n      owner = _newOwner;\r\n    }\r\n\r\n    /// @dev Updates GBT contract address\r\n    /// @param _GBTContractAddress New GBT contract address\r\n    function updateGBTAddress(address _GBTContractAddress) onlyOwner\r\n    {\r\n        GBTAddress=_GBTContractAddress;\r\n        for(uint i=0;i<allGovBlocksUsers.length; i++)\r\n        {\r\n          address masterAddress = govBlocksDapps[allGovBlocksUsers[i]].masterAddress;\r\n          MS=Master(masterAddress);\r\n          MS.changeGBTAddress(_GBTContractAddress);\r\n        }  \r\n    }\r\n\r\n\r\n    /// @dev Updates GovBlocks master address\r\n    /// @param _newGBMAddress New GovBlocks master address\r\n    function updateGBMAddress(address _newGBMAddress) onlyOwner\r\n    {\r\n        for(uint i=0;i<allGovBlocksUsers.length; i++)\r\n        {\r\n            address masterAddress = govBlocksDapps[allGovBlocksUsers[i]].masterAddress;\r\n            MS=Master(masterAddress);\r\n            MS.changeGBMAddress(_newGBMAddress);\r\n        }\r\n    }\r\n\r\n    /// @dev Adds GovBlocks user\r\n    /// @param _gbUserName  GovBlocks username\r\n    /// @param _dappTokenAddress dApp token address\r\n    /// @param _dappDescriptionHash dApp description hash\r\n    function addGovBlocksUser(bytes32 _gbUserName,address _dappTokenAddress,string _dappDescriptionHash) \r\n    {\r\n        require(govBlocksDapps[_gbUserName].masterAddress==0x00);\r\n        address _newMasterAddress = new Master(address(this),_gbUserName);\r\n        allGovBlocksUsers.push(_gbUserName);  \r\n        govBlocksDapps[_gbUserName].masterAddress = _newMasterAddress;\r\n        govBlocksDapps[_gbUserName].tokenAddress = _dappTokenAddress;\r\n        govBlocksDapps[_gbUserName].dappDescHash = _dappDescriptionHash;\r\n        govBlocksDappByAddress[_newMasterAddress] = _gbUserName;\r\n        govBlocksDappByAddress[_dappTokenAddress] = _gbUserName;\r\n        changeAuthorizedGB(_gbUserName,msg.sender);\r\n        MS=Master(_newMasterAddress);\r\n        MS.setOwner(msg.sender);\r\n    }\r\n\r\n    /// @dev Changes dApp master address\r\n    /// @param _gbUserName GovBlocks username\r\n    /// @param _newMasterAddress dApp new master address\r\n    function changeDappMasterAddress(bytes32 _gbUserName,address _newMasterAddress)\r\n    {\r\n      if( govBlocksDapps[_gbUserName].masterAddress == 0x000)\r\n        {       \r\n            govBlocksDapps[_gbUserName].masterAddress = _newMasterAddress;\r\n            govBlocksDappByAddress[_newMasterAddress] = _gbUserName;\r\n        }\r\n      else\r\n        {            \r\n            if(msg.sender ==  govBlocksDapps[_gbUserName].masterAddress)\r\n                {\r\n                    govBlocksDapps[_gbUserName].masterAddress = _newMasterAddress;\r\n                govBlocksDappByAddress[_newMasterAddress] = _gbUserName;\r\n            }\r\n            else\r\n                throw;\r\n        }   \r\n    }\r\n\r\n    /// @dev Changes dApp token address\r\n    /// @param _gbUserName  GovBlocks username\r\n    /// @param _dappTokenAddress dApp new token address\r\n    function changeDappTokenAddress(bytes32 _gbUserName,address _dappTokenAddress)\r\n    {\r\n       if( govBlocksDapps[_gbUserName].tokenAddress == 0x000)\r\n       {\r\n            govBlocksDapps[_gbUserName].tokenAddress = _dappTokenAddress;\r\n            govBlocksDappByAddress[_dappTokenAddress] = _gbUserName;\r\n        }\r\n       else\r\n        {            \r\n            if(msg.sender ==  govBlocksDapps[_gbUserName].masterAddress)\r\n                {\r\n                    govBlocksDapps[_gbUserName].tokenAddress = _dappTokenAddress;\r\n                    govBlocksDappByAddress[_dappTokenAddress] = _gbUserName;\r\n            }\r\n            else\r\n                throw;\r\n        }   \r\n    }\r\n \r\n    // /// @dev Changes dApp description hash\r\n    // /// @param _gbUserName GovBlocks username\r\n    // /// @param _dappDescriptionHash dApp new description hash\r\n    // function changeDappDescHash(bytes32 _gbUserName,string _dappDescriptionHash)\r\n    // { \r\n    //     if(msg.sender ==  govBlocksDapps[_gbUserName].masterAddress)\r\n    //     {\r\n    //         govBlocksDapps[_gbUserName].dappDescHash = _dappDescriptionHash;\r\n    //     }\r\n    //     else\r\n    //         throw;\r\n    // }\r\n\r\n    /// @dev Sets byte code and abi\r\n    /// @param _byteCodeHash Byte code hash\r\n    /// @param _abiHash Abi hash\r\n    function setByteCodeAndAbi(string _byteCodeHash,string _abiHash) onlyOwner\r\n    {\r\n        byteCodeHash = _byteCodeHash;\r\n        contractsAbiHash = _abiHash;\r\n    }\r\n\r\n    /// @dev Changes all below address\r\n    /// @param _GDAddress Governance data new address\r\n    /// @param _SVAddress Standard voting new address\r\n    /// @param _GOVAddress Governance new address\r\n    // function changeAllAddress(address _GDAddress,address _SVAddress,address _GOVAddress) onlyOwner\r\n    // {\r\n    //    GDAddress = _GDAddress;\r\n    //    SVAddress = _SVAddress;\r\n    //    GOVAddress = _GOVAddress;\r\n    // }\r\n    \r\n    /// @dev Sets hash value for dApp user\r\n    /// @param _hash Hash value \r\n    function setDappUser(string _hash)\r\n    {\r\n       govBlocksUser[msg.sender] = _hash;\r\n    }\r\n\r\n    /// @dev Gets byte code and abi hash\r\n    /// @param byteCode Byte code \r\n    /// @param abiHash Application binary interface hash\r\n    function getByteCodeAndAbi()constant returns(string byteCode, string abiHash)\r\n    {\r\n      return (byteCodeHash,contractsAbiHash);\r\n    }\r\n\r\n    /// @dev Gets GovBlocks user details\r\n    /// @param _gbUserName GovBlocks username\r\n    /// @return GbUserName GovBlocks username\r\n    /// @return masterContractAddress Master contract address of dApp\r\n    /// @return allContractsbyteCodeHash All contracts byte code hash\r\n    /// @return allCcontractsAbiHash All contracts abi hash\r\n    /// @return versionNo Verson number of dApp\r\n    function getGovBlocksUserDetails(bytes32 _gbUserName) constant returns(bytes32 GbUserName,address masterContractAddress,string allContractsbyteCodeHash,string allCcontractsAbiHash,uint versionNo)\r\n    {\r\n        address master = govBlocksDapps[_gbUserName].masterAddress;\r\n        if(master == 0x00)\r\n            return(GbUserName,0x00,\"\",\"\",0);\r\n        else\r\n            MS=Master(master);\r\n            versionNo = MS.versionLength();\r\n            return (_gbUserName,govBlocksDapps[_gbUserName].masterAddress,byteCodeHash,contractsAbiHash,versionNo);\r\n    }\r\n\r\n    /// @dev Gets GovBlocks user details by index\r\n    /// @param _index Index to fetch user details\r\n    /// @return index Index\r\n    /// @return GbUserName GovBlocks username\r\n    /// @return MasterContractAddress Master contract address\r\n    function getGovBlocksUserDetailsByIndex(uint _index) constant returns(uint index,bytes32 GbUserName,address MasterContractAddress)\r\n    {\r\n       return (_index,allGovBlocksUsers[_index],govBlocksDapps[allGovBlocksUsers[_index]].masterAddress);\r\n    }\r\n\r\n    /// @dev Gets GovBlocks user details (another function)\r\n    /// @param _gbUserName GovBlocks username whose details need to be fetched\r\n    /// @return GbUserName GovBlocks username \r\n    /// @return masterContractAddress Master contract address\r\n    /// @return dappTokenAddress dApp token address\r\n    /// @return allContractsbyteCodeHash All contracts byte code hash\r\n    /// @return allCcontractsAbiHash All contract abi hash\r\n    /// @return versionNo Version number\r\n    function getGovBlocksUserDetails1(bytes32 _gbUserName)constant returns(bytes32 GbUserName,address masterContractAddress,address dappTokenAddress,string allContractsbyteCodeHash,string allCcontractsAbiHash,uint versionNo)\r\n    {\r\n        address master = govBlocksDapps[_gbUserName].masterAddress;\r\n        if(master == 0x00)\r\n            return(GbUserName,0x00,0x00,\"\",\"\",0);\r\n        else\r\n            MS=Master(master);\r\n            versionNo = MS.versionLength();\r\n            return (_gbUserName,govBlocksDapps[_gbUserName].masterAddress,govBlocksDapps[_gbUserName].tokenAddress,byteCodeHash,contractsAbiHash,versionNo);\r\n    }\r\n\r\n    /// @dev Gets GovBlocks user details (another function)\r\n    /// @param _Address Address of the dApp whose details need to be fetched\r\n    /// @return dappName dApp name\r\n    /// @return masterContractAddress Master contract address of dApp\r\n    /// @return dappTokenAddress dApp's token address\r\n    function getGovBlocksUserDetails2(address _Address)constant returns(bytes32 dappName,address masterContractAddress,address dappTokenAddress)\r\n    {\r\n       dappName = govBlocksDappByAddress[_Address];\r\n       return (dappName,govBlocksDapps[dappName].masterAddress,govBlocksDapps[dappName].tokenAddress);\r\n    }\r\n\r\n    /// @dev Gets dApp description hash\r\n    /// @param _gbUserName GovBlocks username\r\n    /// @return govBlocksDapps[_gbUserName].dappDescHash GovBlocks description hash\r\n    function getDappDescHash(bytes32 _gbUserName)constant returns(string)\r\n    {\r\n        return govBlocksDapps[_gbUserName].dappDescHash;\r\n    }\r\n\r\n    /// @dev Gets all GovBlocks users length\r\n    /// @return allGovBlocksUsers.length All GovBlocks users length\r\n    function getAllDappLength()constant returns(uint)\r\n    {\r\n       return (allGovBlocksUsers.length);\r\n    }\r\n\r\n    /// @dev Gets dApps users by index\r\n    function getAllDappById(uint _gbIndex)constant returns (bytes32 _gbUserName)\r\n    {\r\n       return (allGovBlocksUsers[_gbIndex]);\r\n    }\r\n\r\n    /// @dev Gets all dApps users\r\n    function getAllDappArray()constant returns(bytes32[])\r\n    {\r\n       return (allGovBlocksUsers);\r\n    }\r\n\r\n    /// @dev Gets dApp username\r\n    function getDappUser()constant returns (string)\r\n    {\r\n       return (govBlocksUser[msg.sender]);\r\n    }\r\n\r\n    /// @dev Gets dApp master address of dApp (username=govBlocksUser)\r\n    function getDappMasterAddress(bytes32 _gbUserName)constant returns(address masterAddress)\r\n    {\r\n        return (govBlocksDapps[_gbUserName].masterAddress);\r\n    }\r\n\r\n    /// @dev Gets dApp token address of dApp (username=govBlocksUser)\r\n    function getDappTokenAddress(bytes32 _gbUserName)constant returns(address tokenAddres)\r\n    {\r\n        return (govBlocksDapps[_gbUserName].tokenAddress);\r\n    }\r\n\r\n    /// @dev Gets dApp username by address\r\n    function getDappNameByAddress(address _contractAddress)constant returns(bytes32)\r\n    {\r\n            return govBlocksDappByAddress[_contractAddress];\r\n    }\r\n\r\n    /// @dev Gets GBT address \r\n    function getGBTAddress()constant returns(address)\r\n    {\r\n       return GBTAddress;\r\n    }\r\n\r\n    \r\n    // ACTION AFTER PROPOSAL PASS function\r\n\r\n\r\n    /// @dev Adds new member roles in GovBlocks\r\n    /// @param _gbUserName GovBlocks new username\r\n    /// @param _newRoleName GovBlocks new role name\r\n    /// @param _roleDescription GovBlocks new description hash\r\n    function addNewMemberRoleGB(bytes32 _gbUserName,bytes32 _newRoleName,string _roleDescription, address _canAddMembers) \r\n    {\r\n        require(isAuthorizedGBOwner(_gbUserName,msg.sender) == 1);\r\n        address master = govBlocksDapps[_gbUserName].masterAddress; address MRAddress;\r\n        MS=Master(master);\r\n        uint16 versionNo = MS.versionLength()-1; \r\n        MRAddress = MS.allContractVersions(versionNo,\"MR\");\r\n        MR=memberRoles(MRAddress);\r\n        MR.addNewMemberRole(_newRoleName, _roleDescription, _canAddMembers);\r\n    }\r\n\r\n    /// @dev Updates member roles in GovBlocks\r\n    /// @param _gbUserName GovBlocks new username\r\n    /// @param _memberAddress New members address\r\n    /// @param _memberRoleId New members role id\r\n    /// @param _typeOf Typeof role of the member\r\n    function updateMemberRoleGB(bytes32 _gbUserName,address _memberAddress,uint32 _memberRoleId,bool _typeOf) \r\n    {\r\n        require(isAuthorizedGBOwner(_gbUserName,msg.sender) == 1);\r\n        address master = govBlocksDapps[_gbUserName].masterAddress; address MRAddress;\r\n        MS=Master(master);\r\n        uint16 versionNo = MS.versionLength()-1; \r\n        MRAddress = MS.allContractVersions(versionNo,\"MR\");\r\n        MR=memberRoles(MRAddress);\r\n        MR.updateMemberRole(_memberAddress,_memberRoleId,_typeOf);\r\n    }\r\n    \r\n    /// @dev Adds new category in GovBlocks\r\n    /// @param _gbUserName GovBlocks username\r\n    /// @param _descHash GovBlocks description hash\r\n    function addNewCategoryGB(bytes32 _gbUserName,string _descHash) \r\n    {\r\n        require(isAuthorizedGBOwner(_gbUserName,msg.sender) == 1);\r\n        address master = govBlocksDapps[_gbUserName].masterAddress; address PCAddress;\r\n        MS=Master(master);\r\n        uint16 versionNo = MS.versionLength()-1; \r\n        PCAddress = MS.allContractVersions(versionNo,\"PC\");\r\n        PC=ProposalCategory(PCAddress);\r\n        // PC.addNewCategory(_descHash);\r\n    }\r\n\r\n    /// @dev Updates category in GovBlocks\r\n    /// @param _gbUserName GovBlocks username\r\n    /// @param _categoryId Category id \r\n    /// @param _categoryData Category data\r\n    function updateCategoryGB(bytes32 _gbUserName,uint _categoryId,string _categoryData) \r\n    {\r\n        require(isAuthorizedGBOwner(_gbUserName,msg.sender) == 1);\r\n        address master = govBlocksDapps[_gbUserName].masterAddress; address PCAddress;\r\n        MS=Master(master);\r\n        uint16 versionNo = MS.versionLength()-1; \r\n        PCAddress = MS.allContractVersions(versionNo,\"PC\");\r\n        PC=ProposalCategory(PCAddress);\r\n        PC.updateCategory(_categoryId,_categoryData);\r\n    }\r\n\r\n    /// @dev Configures global parameters for reputation weights\r\n    /// @param _gbUserName GovBlocks username\r\n    /// @param _typeOf Typeof role of the member\r\n    /// @param _value Quorum percentage value\r\n    function configureGlobalParameters(bytes32 _gbUserName,bytes16 _typeOf,uint32 _value)\r\n    {\r\n        require(isAuthorizedGBOwner(_gbUserName,msg.sender) == 1);\r\n        address master = govBlocksDapps[_gbUserName].masterAddress; address GDAddress;\r\n        MS=Master(master);\r\n        uint16 versionNo = MS.versionLength()-1; \r\n        GDAddress = MS.allContractVersions(versionNo,\"GD\");\r\n        GD=governanceData(GDAddress);\r\n\r\n        if(_typeOf == \"APO\")\r\n        {\r\n          GD.changeProposalOwnerAdd(_value);\r\n        }\r\n        else if(_typeOf == \"AOO\")\r\n        {\r\n          GD.changeSolutionOwnerAdd(_value);\r\n        }\r\n        else if(_typeOf == \"AVM\")\r\n        {\r\n          GD.changeMemberAdd(_value);\r\n        }\r\n        else if(_typeOf == \"SPO\")\r\n        {\r\n          GD.changeProposalOwnerSub(_value);\r\n        }\r\n        else if(_typeOf == \"SOO\")\r\n        {\r\n          GD.changeSolutionOwnerSub(_value);\r\n        }\r\n        else if(_typeOf == \"SVM\")\r\n        {\r\n          GD.changeMemberSub(_value);\r\n        }//\r\n        else if(_typeOf == \"GBTS\")\r\n        {\r\n          GD.changeGBTStakeValue(_value);\r\n        }\r\n        else if(_typeOf == \"RF\")\r\n        {\r\n          GD.changeGlobalRiskFactor(_value);\r\n        }\r\n         else if(_typeOf == \"MSF\")\r\n        {\r\n          GD.changeMembershipScalingFator(_value);\r\n        }\r\n        else if(_typeOf == \"SW\")\r\n        {\r\n          GD.changeScalingWeight(_value);\r\n        }\r\n        else if(_typeOf == \"QP\")\r\n        {\r\n          GD.changeQuorumPercentage(_value);\r\n        }\r\n    }\r\n}",
  "sourcePath": "D:\\RUCHITA\\GovBlocks-Protocol Access-Modifiers\\contracts\\GovBlocksMaster.sol",
  "compiler": {
    "name": "solc",
    "version": "0.4.18+commit.9cf6e910.Emscripten.clang"
  },
  "schemaVersion": "1.0.1",
  "updatedAt": "2018-04-26T12:00:44.077Z"
}