{
  "contractName": "GovBlocksMaster",
  "abi": [
    {
      "constant": true,
      "inputs": [],
      "name": "getAllDappLength",
      "outputs": [
        {
          "name": "",
          "type": "uint256"
        }
      ],
      "payable": false,
      "stateMutability": "view",
      "type": "function"
    },
    {
      "constant": true,
      "inputs": [],
      "name": "getByteCodeAndAbi",
      "outputs": [
        {
          "name": "byteCode",
          "type": "string"
        },
        {
          "name": "abiHash",
          "type": "string"
        }
      ],
      "payable": false,
      "stateMutability": "view",
      "type": "function"
    },
    {
      "constant": false,
      "inputs": [
        {
          "name": "_newGBMAddress",
          "type": "address"
        }
      ],
      "name": "updateGBMAddress",
      "outputs": [],
      "payable": false,
      "stateMutability": "nonpayable",
      "type": "function"
    },
    {
      "constant": true,
      "inputs": [
        {
          "name": "_gbUserName",
          "type": "bytes32"
        }
      ],
      "name": "getGovBlocksUserDetails",
      "outputs": [
        {
          "name": "GbUserName",
          "type": "bytes32"
        },
        {
          "name": "masterContractAddress",
          "type": "address"
        },
        {
          "name": "allContractsbyteCodeHash",
          "type": "string"
        },
        {
          "name": "allCcontractsAbiHash",
          "type": "string"
        },
        {
          "name": "versionNo",
          "type": "uint256"
        }
      ],
      "payable": false,
      "stateMutability": "view",
      "type": "function"
    },
    {
      "constant": false,
      "inputs": [
        {
          "name": "_gbUserName",
          "type": "bytes32"
        },
        {
          "name": "_newRoleName",
          "type": "bytes32"
        },
        {
          "name": "_roleDescription",
          "type": "string"
        },
        {
          "name": "_canAddMembers",
          "type": "address"
        }
      ],
      "name": "addNewMemberRoleGB",
      "outputs": [],
      "payable": false,
      "stateMutability": "nonpayable",
      "type": "function"
    },
    {
      "constant": false,
      "inputs": [
        {
          "name": "_gbUserName",
          "type": "bytes32"
        },
        {
          "name": "_memberAddress",
          "type": "address"
        },
        {
          "name": "_memberRoleId",
          "type": "uint256"
        },
        {
          "name": "_typeOf",
          "type": "uint8"
        }
      ],
      "name": "updateMemberRoleGB",
      "outputs": [],
      "payable": false,
      "stateMutability": "nonpayable",
      "type": "function"
    },
    {
      "constant": true,
      "inputs": [
        {
          "name": "_gbUserName",
          "type": "bytes32"
        }
      ],
      "name": "getDappDescHash",
      "outputs": [
        {
          "name": "",
          "type": "string"
        }
      ],
      "payable": false,
      "stateMutability": "view",
      "type": "function"
    },
    {
      "constant": true,
      "inputs": [
        {
          "name": "_gbUserName",
          "type": "bytes32"
        }
      ],
      "name": "getDappMasterAddress",
      "outputs": [
        {
          "name": "masterAddress",
          "type": "address"
        }
      ],
      "payable": false,
      "stateMutability": "view",
      "type": "function"
    },
    {
      "constant": true,
      "inputs": [
        {
          "name": "_Address",
          "type": "address"
        }
      ],
      "name": "getGovBlocksUserDetails2",
      "outputs": [
        {
          "name": "dappName",
          "type": "bytes32"
        },
        {
          "name": "masterContractAddress",
          "type": "address"
        },
        {
          "name": "dappTokenAddress",
          "type": "address"
        }
      ],
      "payable": false,
      "stateMutability": "view",
      "type": "function"
    },
    {
      "constant": true,
      "inputs": [],
      "name": "getDappUser",
      "outputs": [
        {
          "name": "",
          "type": "string"
        }
      ],
      "payable": false,
      "stateMutability": "view",
      "type": "function"
    },
    {
      "constant": true,
      "inputs": [
        {
          "name": "_gbUserName",
          "type": "bytes32"
        }
      ],
      "name": "getDappTokenAddress",
      "outputs": [
        {
          "name": "tokenAddres",
          "type": "address"
        }
      ],
      "payable": false,
      "stateMutability": "view",
      "type": "function"
    },
    {
      "constant": true,
      "inputs": [
        {
          "name": "dAppName",
          "type": "bytes32"
        },
        {
          "name": "_memberAddress",
          "type": "address"
        }
      ],
      "name": "isAuthorizedGBOwner",
      "outputs": [
        {
          "name": "auth",
          "type": "uint256"
        }
      ],
      "payable": false,
      "stateMutability": "view",
      "type": "function"
    },
    {
      "constant": false,
      "inputs": [
        {
          "name": "_gbUserName",
          "type": "bytes32"
        },
        {
          "name": "_categoryId",
          "type": "uint256"
        },
        {
          "name": "_categoryData",
          "type": "string"
        }
      ],
      "name": "updateCategoryGB",
      "outputs": [],
      "payable": false,
      "stateMutability": "nonpayable",
      "type": "function"
    },
    {
      "constant": true,
      "inputs": [],
      "name": "owner",
      "outputs": [
        {
          "name": "",
          "type": "address"
        }
      ],
      "payable": false,
      "stateMutability": "view",
      "type": "function"
    },
    {
      "constant": true,
      "inputs": [
        {
          "name": "_gbUserName",
          "type": "bytes32"
        }
      ],
      "name": "getGovBlocksUserDetails1",
      "outputs": [
        {
          "name": "GbUserName",
          "type": "bytes32"
        },
        {
          "name": "masterContractAddress",
          "type": "address"
        },
        {
          "name": "dappTokenAddress",
          "type": "address"
        },
        {
          "name": "allContractsbyteCodeHash",
          "type": "string"
        },
        {
          "name": "allCcontractsAbiHash",
          "type": "string"
        },
        {
          "name": "versionNo",
          "type": "uint256"
        }
      ],
      "payable": false,
      "stateMutability": "view",
      "type": "function"
    },
    {
      "constant": true,
      "inputs": [],
      "name": "getAllDappArray",
      "outputs": [
        {
          "name": "",
          "type": "bytes32[]"
        }
      ],
      "payable": false,
      "stateMutability": "view",
      "type": "function"
    },
    {
      "constant": false,
      "inputs": [
        {
          "name": "_gbUserName",
          "type": "bytes32"
        },
        {
          "name": "_descHash",
          "type": "string"
        }
      ],
      "name": "addNewCategoryGB",
      "outputs": [],
      "payable": false,
      "stateMutability": "nonpayable",
      "type": "function"
    },
    {
      "constant": true,
      "inputs": [],
      "name": "authGBOwner",
      "outputs": [
        {
          "name": "",
          "type": "address"
        }
      ],
      "payable": false,
      "stateMutability": "view",
      "type": "function"
    },
    {
      "constant": true,
      "inputs": [
        {
          "name": "_index",
          "type": "uint256"
        }
      ],
      "name": "getGovBlocksUserDetailsByIndex",
      "outputs": [
        {
          "name": "index",
          "type": "uint256"
        },
        {
          "name": "GbUserName",
          "type": "bytes32"
        },
        {
          "name": "MasterContractAddress",
          "type": "address"
        }
      ],
      "payable": false,
      "stateMutability": "view",
      "type": "function"
    },
    {
      "constant": false,
      "inputs": [
        {
          "name": "_hash",
          "type": "string"
        }
      ],
      "name": "setDappUser",
      "outputs": [],
      "payable": false,
      "stateMutability": "nonpayable",
      "type": "function"
    },
    {
      "constant": false,
      "inputs": [
        {
          "name": "_byteCodeHash",
          "type": "string"
        },
        {
          "name": "_abiHash",
          "type": "string"
        }
      ],
      "name": "setByteCodeAndAbi",
      "outputs": [],
      "payable": false,
      "stateMutability": "nonpayable",
      "type": "function"
    },
    {
      "constant": false,
      "inputs": [
        {
          "name": "_gbUserName",
          "type": "bytes32"
        },
        {
          "name": "_newMasterAddress",
          "type": "address"
        }
      ],
      "name": "changeDappMasterAddress",
      "outputs": [],
      "payable": false,
      "stateMutability": "nonpayable",
      "type": "function"
    },
    {
      "constant": true,
      "inputs": [],
      "name": "getGBTAddress",
      "outputs": [
        {
          "name": "",
          "type": "address"
        }
      ],
      "payable": false,
      "stateMutability": "view",
      "type": "function"
    },
    {
      "constant": false,
      "inputs": [
        {
          "name": "_gbUserName",
          "type": "bytes32"
        },
        {
          "name": "_dappTokenAddress",
          "type": "address"
        }
      ],
      "name": "changeDappTokenAddress",
      "outputs": [],
      "payable": false,
      "stateMutability": "nonpayable",
      "type": "function"
    },
    {
      "constant": false,
      "inputs": [
        {
          "name": "_gbUserName",
          "type": "bytes32"
        },
        {
          "name": "_typeOf",
          "type": "bytes16"
        },
        {
          "name": "_value",
          "type": "uint32"
        }
      ],
      "name": "configureGlobalParameters",
      "outputs": [],
      "payable": false,
      "stateMutability": "nonpayable",
      "type": "function"
    },
    {
      "constant": false,
      "inputs": [
        {
          "name": "_GBTAddress",
          "type": "address"
        }
      ],
      "name": "GovBlocksMasterInit",
      "outputs": [],
      "payable": false,
      "stateMutability": "nonpayable",
      "type": "function"
    },
    {
      "constant": false,
      "inputs": [
        {
          "name": "dAppName",
          "type": "bytes32"
        },
        {
          "name": "_memberAddress",
          "type": "address"
        }
      ],
      "name": "changeAuthorizedGB",
      "outputs": [],
      "payable": false,
      "stateMutability": "nonpayable",
      "type": "function"
    },
    {
      "constant": false,
      "inputs": [
        {
          "name": "_gbUserName",
          "type": "bytes32"
        },
        {
          "name": "_dappTokenAddress",
          "type": "address"
        },
        {
          "name": "_dappDescriptionHash",
          "type": "string"
        }
      ],
      "name": "addGovBlocksUser",
      "outputs": [],
      "payable": false,
      "stateMutability": "nonpayable",
      "type": "function"
    },
    {
      "constant": false,
      "inputs": [
        {
          "name": "_newOwner",
          "type": "address"
        }
      ],
      "name": "transferOwnership",
      "outputs": [],
      "payable": false,
      "stateMutability": "nonpayable",
      "type": "function"
    },
    {
      "constant": true,
      "inputs": [
        {
          "name": "_contractAddress",
          "type": "address"
        }
      ],
      "name": "getDappNameByAddress",
      "outputs": [
        {
          "name": "",
          "type": "bytes32"
        }
      ],
      "payable": false,
      "stateMutability": "view",
      "type": "function"
    },
    {
      "constant": true,
      "inputs": [
        {
          "name": "_gbIndex",
          "type": "uint256"
        }
      ],
      "name": "getAllDappById",
      "outputs": [
        {
          "name": "_gbUserName",
          "type": "bytes32"
        }
      ],
      "payable": false,
      "stateMutability": "view",
      "type": "function"
    },
    {
      "constant": false,
      "inputs": [
        {
          "name": "_GBTContractAddress",
          "type": "address"
        }
      ],
      "name": "updateGBTAddress",
      "outputs": [],
      "payable": false,
      "stateMutability": "nonpayable",
      "type": "function"
    }
  ],
  "bytecode": "0x6060604052341561000f57600080fd5b61b187806200001f6000396000f30060606040526004361061018b576000357c0100000000000000000000000000000000000000000000000000000000900463ffffffff1680631615409114610190578063191eb97c146101b9578063239e7a1f146101f2578063346b48761461034757806338bfdc40146103dd5780633c20f44d146104385780633e5e9432146104d857806347e582aa1461053f5780634e3271b1146105fa578063597336e8146106885780635e7a070f146106ef5780636dfe06c6146107495780638da5cb5b146107bc5780638e60c3df1461081157806395c4cd5b146109995780639832272714610a0357806398750c4014610a6d578063a2b4b33514610ac2578063aeda8f1614610b3b578063b2855b7614610b98578063b93bec8b14610c38578063b983566114610c7e578063d40189c414610cd3578063d643555314610d19578063d8bf474014610d6b578063dc6f1f5b14610da4578063dccc5d8614610dea578063f2fde38b14610e73578063f46de2b614610eac578063f4d743a914610f01578063f937326e14610f40575b600080fd5b341561019b57600080fd5b6101a3610f79565b6040518082815260200191505060405180910390f35b34156101c457600080fd5b6101f0600480803573ffffffffffffffffffffffffffffffffffffffff16906020019091905050610f86565b005b34156101fd57600080fd5b610217600480803560001916906020019091905050611173565b6040518086600019166000191681526020018573ffffffffffffffffffffffffffffffffffffffff1673ffffffffffffffffffffffffffffffffffffffff1681526020018060200180602001848152602001838103835286818151815260200191508051906020019080838360005b838110156102a1578082015181840152602081019050610286565b50505050905090810190601f1680156102ce5780820380516001836020036101000a031916815260200191505b50838103825285818151815260200191508051906020019080838360005b838110156103075780820151818401526020810190506102ec565b50505050905090810190601f1680156103345780820380516001836020036101000a031916815260200191505b5097505050505050505060405180910390f35b341561035257600080fd5b6103db6004808035600019169060200190919080356000191690602001909190803590602001908201803590602001908080601f0160208091040260200160405190810160405280939291908181526020018383808284378201915050505050509190803573ffffffffffffffffffffffffffffffffffffffff169060200190919050506114a6565b005b34156103e857600080fd5b61043660048080356000191690602001909190803573ffffffffffffffffffffffffffffffffffffffff1690602001909190803590602001909190803560ff1690602001909190505061186d565b005b341561044357600080fd5b61045d600480803560001916906020019091905050611bcd565b6040518080602001828103825283818151815260200191508051906020019080838360005b8381101561049d578082015181840152602081019050610482565b50505050905090810190601f1680156104ca5780820380516001836020036101000a031916815260200191505b509250505060405180910390f35b34156104e357600080fd5b6104fd600480803560001916906020019091905050611c93565b604051808273ffffffffffffffffffffffffffffffffffffffff1673ffffffffffffffffffffffffffffffffffffffff16815260200191505060405180910390f35b341561054a57600080fd5b610576600480803573ffffffffffffffffffffffffffffffffffffffff16906020019091905050611cdb565b6040518084600019166000191681526020018373ffffffffffffffffffffffffffffffffffffffff1673ffffffffffffffffffffffffffffffffffffffff1681526020018273ffffffffffffffffffffffffffffffffffffffff1673ffffffffffffffffffffffffffffffffffffffff168152602001935050505060405180910390f35b341561060557600080fd5b61060d611dae565b6040518080602001828103825283818151815260200191508051906020019080838360005b8381101561064d578082015181840152602081019050610632565b50505050905090810190601f16801561067a5780820380516001836020036101000a031916815260200191505b509250505060405180910390f35b341561069357600080fd5b6106ad600480803560001916906020019091905050611e93565b604051808273ffffffffffffffffffffffffffffffffffffffff1673ffffffffffffffffffffffffffffffffffffffff16815260200191505060405180910390f35b34156106fa57600080fd5b61073360048080356000191690602001909190803573ffffffffffffffffffffffffffffffffffffffff16906020019091905050611edb565b6040518082815260200191505060405180910390f35b341561075457600080fd5b6107ba60048080356000191690602001909190803590602001909190803590602001908201803590602001908080601f01602080910402602001604051908101604052809392919081815260200183838082843782019150505050505091905050611f5a565b005b34156107c757600080fd5b6107cf6122e4565b604051808273ffffffffffffffffffffffffffffffffffffffff1673ffffffffffffffffffffffffffffffffffffffff16815260200191505060405180910390f35b341561081c57600080fd5b61083660048080356000191690602001909190505061230a565b6040518087600019166000191681526020018673ffffffffffffffffffffffffffffffffffffffff1673ffffffffffffffffffffffffffffffffffffffff1681526020018573ffffffffffffffffffffffffffffffffffffffff1673ffffffffffffffffffffffffffffffffffffffff1681526020018060200180602001848152602001838103835286818151815260200191508051906020019080838360005b838110156108f25780820151818401526020810190506108d7565b50505050905090810190601f16801561091f5780820380516001836020036101000a031916815260200191505b50838103825285818151815260200191508051906020019080838360005b8381101561095857808201518184015260208101905061093d565b50505050905090810190601f1680156109855780820380516001836020036101000a031916815260200191505b509850505050505050505060405180910390f35b34156109a457600080fd5b6109ac612687565b6040518080602001828103825283818151815260200191508051906020019060200280838360005b838110156109ef5780820151818401526020810190506109d4565b505050509050019250505060405180910390f35b3415610a0e57600080fd5b610a6b60048080356000191690602001909190803590602001908201803590602001908080601f016020809104026020016040519081016040528093929190818152602001838380828437820191505050505050919050506126e9565b005b3415610a7857600080fd5b610a80612961565b604051808273ffffffffffffffffffffffffffffffffffffffff1673ffffffffffffffffffffffffffffffffffffffff16815260200191505060405180910390f35b3415610acd57600080fd5b610ae36004808035906020019091905050612987565b6040518084815260200183600019166000191681526020018273ffffffffffffffffffffffffffffffffffffffff1673ffffffffffffffffffffffffffffffffffffffff168152602001935050505060405180910390f35b3415610b4657600080fd5b610b96600480803590602001908201803590602001908080601f01602080910402602001604051908101604052809392919081815260200183838082843782019150505050505091905050612a0e565b005b3415610ba357600080fd5b610c36600480803590602001908201803590602001908080601f0160208091040260200160405190810160405280939291908181526020018383808284378201915050505050509190803590602001908201803590602001908080601f01602080910402602001604051908101604052809392919081815260200183838082843782019150505050505091905050612a65565b005b3415610c4357600080fd5b610c7c60048080356000191690602001909190803573ffffffffffffffffffffffffffffffffffffffff16906020019091905050612af3565b005b3415610c8957600080fd5b610c91612d20565b604051808273ffffffffffffffffffffffffffffffffffffffff1673ffffffffffffffffffffffffffffffffffffffff16815260200191505060405180910390f35b3415610cde57600080fd5b610d1760048080356000191690602001909190803573ffffffffffffffffffffffffffffffffffffffff16906020019091905050612d4a565b005b3415610d2457600080fd5b610d696004808035600019169060200190919080356fffffffffffffffffffffffffffffffff191690602001909190803563ffffffff16906020019091905050612f77565b005b3415610d7657600080fd5b610da2600480803573ffffffffffffffffffffffffffffffffffffffff16906020019091905050613c28565b005b3415610daf57600080fd5b610de860048080356000191690602001909190803573ffffffffffffffffffffffffffffffffffffffff16906020019091905050613cfd565b005b3415610df557600080fd5b610e7160048080356000191690602001909190803573ffffffffffffffffffffffffffffffffffffffff1690602001909190803590602001908201803590602001908080601f01602080910402602001604051908101604052809392919081815260200183838082843782019150505050505091905050613e5e565b005b3415610e7e57600080fd5b610eaa600480803573ffffffffffffffffffffffffffffffffffffffff169060200190919050506141ea565b005b3415610eb757600080fd5b610ee3600480803573ffffffffffffffffffffffffffffffffffffffff1690602001909190505061428a565b60405180826000191660001916815260200191505060405180910390f35b3415610f0c57600080fd5b610f2260048080359060200190919050506142d3565b60405180826000191660001916815260200191505060405180910390f35b3415610f4b57600080fd5b610f77600480803573ffffffffffffffffffffffffffffffffffffffff169060200190919050506142f7565b005b6000600a80549050905090565b600080600460009054906101000a900473ffffffffffffffffffffffffffffffffffffffff1673ffffffffffffffffffffffffffffffffffffffff163373ffffffffffffffffffffffffffffffffffffffff16141515610fe557600080fd5b600091505b600a8054905082101561116e5760086000600a8481548110151561100a57fe5b9060005260206000209001546000191660001916815260200190815260200160002060000160009054906101000a900473ffffffffffffffffffffffffffffffffffffffff169050806000806101000a81548173ffffffffffffffffffffffffffffffffffffffff021916908373ffffffffffffffffffffffffffffffffffffffff1602179055506000809054906101000a900473ffffffffffffffffffffffffffffffffffffffff1673ffffffffffffffffffffffffffffffffffffffff1663aef816e8846040518263ffffffff167c0100000000000000000000000000000000000000000000000000000000028152600401808273ffffffffffffffffffffffffffffffffffffffff1673ffffffffffffffffffffffffffffffffffffffff168152602001915050600060405180830381600087803b151561114d57600080fd5b6102c65a03f1151561115e57600080fd5b5050508180600101925050610fea565b505050565b60008061117e614525565b611186614525565b60008060086000886000191660001916815260200190815260200160002060000160009054906101000a900473ffffffffffffffffffffffffffffffffffffffff16905060008173ffffffffffffffffffffffffffffffffffffffff16141561122657856000808191506020604051908101604052806000815250906020604051908101604052806000815250908090509550955095509550955061149c565b806000806101000a81548173ffffffffffffffffffffffffffffffffffffffff021916908373ffffffffffffffffffffffffffffffffffffffff1602179055506000809054906101000a900473ffffffffffffffffffffffffffffffffffffffff1673ffffffffffffffffffffffffffffffffffffffff1663d57fe1af6000604051602001526040518163ffffffff167c0100000000000000000000000000000000000000000000000000000000028152600401602060405180830381600087803b15156112f357600080fd5b6102c65a03f1151561130457600080fd5b5050506040518051905061ffff1691508660086000896000191660001916815260200190815260200160002060000160009054906101000a900473ffffffffffffffffffffffffffffffffffffffff16600b600c85828054600181600116156101000203166002900480601f0160208091040260200160405190810160405280929190818152602001828054600181600116156101000203166002900480156113ee5780601f106113c3576101008083540402835291602001916113ee565b820191906000526020600020905b8154815290600101906020018083116113d157829003601f168201915b50505050509250818054600181600116156101000203166002900480601f01602080910402602001604051908101604052809291908181526020018280546001816001161561010002031660029004801561148a5780601f1061145f5761010080835404028352916020019161148a565b820191906000526020600020905b81548152906001019060200180831161146d57829003601f168201915b50505050509150955095509550955095505b5091939590929450565b600080600060016114b78833611edb565b1415156114c357600080fd5b60086000886000191660001916815260200190815260200160002060000160009054906101000a900473ffffffffffffffffffffffffffffffffffffffff169250826000806101000a81548173ffffffffffffffffffffffffffffffffffffffff021916908373ffffffffffffffffffffffffffffffffffffffff16021790555060016000809054906101000a900473ffffffffffffffffffffffffffffffffffffffff1673ffffffffffffffffffffffffffffffffffffffff1663d57fe1af6000604051602001526040518163ffffffff167c0100000000000000000000000000000000000000000000000000000000028152600401602060405180830381600087803b15156115d357600080fd5b6102c65a03f115156115e457600080fd5b505050604051805190500390506000809054906101000a900473ffffffffffffffffffffffffffffffffffffffff1673ffffffffffffffffffffffffffffffffffffffff1663023c2303826000604051602001526040518263ffffffff167c0100000000000000000000000000000000000000000000000000000000028152600401808261ffff1661ffff168152602001807f4d52000000000000000000000000000000000000000000000000000000000000815250602001915050602060405180830381600087803b15156116b957600080fd5b6102c65a03f115156116ca57600080fd5b50505060405180519050915081600160006101000a81548173ffffffffffffffffffffffffffffffffffffffff021916908373ffffffffffffffffffffffffffffffffffffffff160217905550600160009054906101000a900473ffffffffffffffffffffffffffffffffffffffff1673ffffffffffffffffffffffffffffffffffffffff166352b38c108787876040518463ffffffff167c0100000000000000000000000000000000000000000000000000000000028152600401808460001916600019168152602001806020018373ffffffffffffffffffffffffffffffffffffffff1673ffffffffffffffffffffffffffffffffffffffff168152602001828103825284818151815260200191508051906020019080838360005b838110156118035780820151818401526020810190506117e8565b50505050905090810190601f1680156118305780820380516001836020036101000a031916815260200191505b50945050505050600060405180830381600087803b151561185057600080fd5b6102c65a03f1151561186157600080fd5b50505050505050505050565b6000806000600161187e8833611edb565b14151561188a57600080fd5b60086000886000191660001916815260200190815260200160002060000160009054906101000a900473ffffffffffffffffffffffffffffffffffffffff169250826000806101000a81548173ffffffffffffffffffffffffffffffffffffffff021916908373ffffffffffffffffffffffffffffffffffffffff16021790555060016000809054906101000a900473ffffffffffffffffffffffffffffffffffffffff1673ffffffffffffffffffffffffffffffffffffffff1663d57fe1af6000604051602001526040518163ffffffff167c0100000000000000000000000000000000000000000000000000000000028152600401602060405180830381600087803b151561199a57600080fd5b6102c65a03f115156119ab57600080fd5b505050604051805190500390506000809054906101000a900473ffffffffffffffffffffffffffffffffffffffff1673ffffffffffffffffffffffffffffffffffffffff1663023c2303826000604051602001526040518263ffffffff167c0100000000000000000000000000000000000000000000000000000000028152600401808261ffff1661ffff168152602001807f4d52000000000000000000000000000000000000000000000000000000000000815250602001915050602060405180830381600087803b1515611a8057600080fd5b6102c65a03f11515611a9157600080fd5b50505060405180519050915081600160006101000a81548173ffffffffffffffffffffffffffffffffffffffff021916908373ffffffffffffffffffffffffffffffffffffffff160217905550600160009054906101000a900473ffffffffffffffffffffffffffffffffffffffff1673ffffffffffffffffffffffffffffffffffffffff16639398f0b48787876040518463ffffffff167c0100000000000000000000000000000000000000000000000000000000028152600401808473ffffffffffffffffffffffffffffffffffffffff1673ffffffffffffffffffffffffffffffffffffffff1681526020018381526020018260ff1660ff1681526020019350505050600060405180830381600087803b1515611bb057600080fd5b6102c65a03f11515611bc157600080fd5b50505050505050505050565b611bd5614525565b6008600083600019166000191681526020019081526020016000206003018054600181600116156101000203166002900480601f016020809104026020016040519081016040528092919081815260200182805460018160011615610100020316600290048015611c875780601f10611c5c57610100808354040283529160200191611c87565b820191906000526020600020905b815481529060010190602001808311611c6a57829003601f168201915b50505050509050919050565b600060086000836000191660001916815260200190815260200160002060000160009054906101000a900473ffffffffffffffffffffffffffffffffffffffff169050919050565b6000806000600760008573ffffffffffffffffffffffffffffffffffffffff1673ffffffffffffffffffffffffffffffffffffffff1681526020019081526020016000205492508260086000856000191660001916815260200190815260200160002060000160009054906101000a900473ffffffffffffffffffffffffffffffffffffffff1660086000866000191660001916815260200190815260200160002060010160009054906101000a900473ffffffffffffffffffffffffffffffffffffffff169250925092509193909250565b611db6614525565b600960003373ffffffffffffffffffffffffffffffffffffffff1673ffffffffffffffffffffffffffffffffffffffff1681526020019081526020016000208054600181600116156101000203166002900480601f016020809104026020016040519081016040528092919081815260200182805460018160011615610100020316600290048015611e895780601f10611e5e57610100808354040283529160200191611e89565b820191906000526020600020905b815481529060010190602001808311611e6c57829003601f168201915b5050505050905090565b600060086000836000191660001916815260200190815260200160002060010160009054906101000a900473ffffffffffffffffffffffffffffffffffffffff169050919050565b60008173ffffffffffffffffffffffffffffffffffffffff1660086000856000191660001916815260200190815260200160002060020160009054906101000a900473ffffffffffffffffffffffffffffffffffffffff1673ffffffffffffffffffffffffffffffffffffffff161415611f5457600190505b92915050565b60008060006001611f6b8733611edb565b141515611f7757600080fd5b60086000876000191660001916815260200190815260200160002060000160009054906101000a900473ffffffffffffffffffffffffffffffffffffffff169250826000806101000a81548173ffffffffffffffffffffffffffffffffffffffff021916908373ffffffffffffffffffffffffffffffffffffffff16021790555060016000809054906101000a900473ffffffffffffffffffffffffffffffffffffffff1673ffffffffffffffffffffffffffffffffffffffff1663d57fe1af6000604051602001526040518163ffffffff167c0100000000000000000000000000000000000000000000000000000000028152600401602060405180830381600087803b151561208757600080fd5b6102c65a03f1151561209857600080fd5b505050604051805190500390506000809054906101000a900473ffffffffffffffffffffffffffffffffffffffff1673ffffffffffffffffffffffffffffffffffffffff1663023c2303826000604051602001526040518263ffffffff167c0100000000000000000000000000000000000000000000000000000000028152600401808261ffff1661ffff168152602001807f5043000000000000000000000000000000000000000000000000000000000000815250602001915050602060405180830381600087803b151561216d57600080fd5b6102c65a03f1151561217e57600080fd5b50505060405180519050915081600260006101000a81548173ffffffffffffffffffffffffffffffffffffffff021916908373ffffffffffffffffffffffffffffffffffffffff160217905550600260009054906101000a900473ffffffffffffffffffffffffffffffffffffffff1673ffffffffffffffffffffffffffffffffffffffff166378697e5b86866040518363ffffffff167c01000000000000000000000000000000000000000000000000000000000281526004018083815260200180602001828103825283818151815260200191508051906020019080838360005b8381101561227c578082015181840152602081019050612261565b50505050905090810190601f1680156122a95780820380516001836020036101000a031916815260200191505b509350505050600060405180830381600087803b15156122c857600080fd5b6102c65a03f115156122d957600080fd5b505050505050505050565b600460009054906101000a900473ffffffffffffffffffffffffffffffffffffffff1681565b6000806000612317614525565b61231f614525565b60008060086000896000191660001916815260200190815260200160002060000160009054906101000a900473ffffffffffffffffffffffffffffffffffffffff16905060008173ffffffffffffffffffffffffffffffffffffffff1614156123c65786600080600082925081915060206040519081016040528060008152509060206040519081016040528060008152509080905096509650965096509650965061267d565b806000806101000a81548173ffffffffffffffffffffffffffffffffffffffff021916908373ffffffffffffffffffffffffffffffffffffffff1602179055506000809054906101000a900473ffffffffffffffffffffffffffffffffffffffff1673ffffffffffffffffffffffffffffffffffffffff1663d57fe1af6000604051602001526040518163ffffffff167c0100000000000000000000000000000000000000000000000000000000028152600401602060405180830381600087803b151561249357600080fd5b6102c65a03f115156124a457600080fd5b5050506040518051905061ffff16915087600860008a6000191660001916815260200190815260200160002060000160009054906101000a900473ffffffffffffffffffffffffffffffffffffffff16600860008b6000191660001916815260200190815260200160002060010160009054906101000a900473ffffffffffffffffffffffffffffffffffffffff16600b600c86828054600181600116156101000203166002900480601f0160208091040260200160405190810160405280929190818152602001828054600181600116156101000203166002900480156125cd5780601f106125a2576101008083540402835291602001916125cd565b820191906000526020600020905b8154815290600101906020018083116125b057829003601f168201915b50505050509250818054600181600116156101000203166002900480601f0160208091040260200160405190810160405280929190818152602001828054600181600116156101000203166002900480156126695780601f1061263e57610100808354040283529160200191612669565b820191906000526020600020905b81548152906001019060200180831161264c57829003601f168201915b505050505091509650965096509650965096505b5091939550919395565b61268f614539565b600a8054806020026020016040519081016040528092919081815260200182805480156126df57602002820191906000526020600020905b815460001916815260200190600101908083116126c7575b5050505050905090565b600080600060016126fa8633611edb565b14151561270657600080fd5b60086000866000191660001916815260200190815260200160002060000160009054906101000a900473ffffffffffffffffffffffffffffffffffffffff169250826000806101000a81548173ffffffffffffffffffffffffffffffffffffffff021916908373ffffffffffffffffffffffffffffffffffffffff16021790555060016000809054906101000a900473ffffffffffffffffffffffffffffffffffffffff1673ffffffffffffffffffffffffffffffffffffffff1663d57fe1af6000604051602001526040518163ffffffff167c0100000000000000000000000000000000000000000000000000000000028152600401602060405180830381600087803b151561281657600080fd5b6102c65a03f1151561282757600080fd5b505050604051805190500390506000809054906101000a900473ffffffffffffffffffffffffffffffffffffffff1673ffffffffffffffffffffffffffffffffffffffff1663023c2303826000604051602001526040518263ffffffff167c0100000000000000000000000000000000000000000000000000000000028152600401808261ffff1661ffff168152602001807f5043000000000000000000000000000000000000000000000000000000000000815250602001915050602060405180830381600087803b15156128fc57600080fd5b6102c65a03f1151561290d57600080fd5b50505060405180519050915081600260006101000a81548173ffffffffffffffffffffffffffffffffffffffff021916908373ffffffffffffffffffffffffffffffffffffffff1602179055505050505050565b600660009054906101000a900473ffffffffffffffffffffffffffffffffffffffff1681565b600080600083600a8581548110151561299c57fe5b90600052602060002090015460086000600a888154811015156129bb57fe5b9060005260206000209001546000191660001916815260200190815260200160002060000160009054906101000a900473ffffffffffffffffffffffffffffffffffffffff169250925092509193909250565b80600960003373ffffffffffffffffffffffffffffffffffffffff1673ffffffffffffffffffffffffffffffffffffffff1681526020019081526020016000209080519060200190612a6192919061454d565b5050565b600460009054906101000a900473ffffffffffffffffffffffffffffffffffffffff1673ffffffffffffffffffffffffffffffffffffffff163373ffffffffffffffffffffffffffffffffffffffff16141515612ac157600080fd5b81600b9080519060200190612ad792919061454d565b5080600c9080519060200190612aee92919061454d565b505050565b600060086000846000191660001916815260200190815260200160002060000160009054906101000a900473ffffffffffffffffffffffffffffffffffffffff1673ffffffffffffffffffffffffffffffffffffffff161415612bfa578060086000846000191660001916815260200190815260200160002060000160006101000a81548173ffffffffffffffffffffffffffffffffffffffff021916908373ffffffffffffffffffffffffffffffffffffffff16021790555081600760008373ffffffffffffffffffffffffffffffffffffffff1673ffffffffffffffffffffffffffffffffffffffff1681526020019081526020016000208160001916905550612d1c565b60086000836000191660001916815260200190815260200160002060000160009054906101000a900473ffffffffffffffffffffffffffffffffffffffff1673ffffffffffffffffffffffffffffffffffffffff163373ffffffffffffffffffffffffffffffffffffffff161415612d16578060086000846000191660001916815260200190815260200160002060000160006101000a81548173ffffffffffffffffffffffffffffffffffffffff021916908373ffffffffffffffffffffffffffffffffffffffff16021790555081600760008373ffffffffffffffffffffffffffffffffffffffff1673ffffffffffffffffffffffffffffffffffffffff1681526020019081526020016000208160001916905550612d1b565b600080fd5b5b5050565b6000600560009054906101000a900473ffffffffffffffffffffffffffffffffffffffff16905090565b600060086000846000191660001916815260200190815260200160002060010160009054906101000a900473ffffffffffffffffffffffffffffffffffffffff1673ffffffffffffffffffffffffffffffffffffffff161415612e51578060086000846000191660001916815260200190815260200160002060010160006101000a81548173ffffffffffffffffffffffffffffffffffffffff021916908373ffffffffffffffffffffffffffffffffffffffff16021790555081600760008373ffffffffffffffffffffffffffffffffffffffff1673ffffffffffffffffffffffffffffffffffffffff1681526020019081526020016000208160001916905550612f73565b60086000836000191660001916815260200190815260200160002060000160009054906101000a900473ffffffffffffffffffffffffffffffffffffffff1673ffffffffffffffffffffffffffffffffffffffff163373ffffffffffffffffffffffffffffffffffffffff161415612f6d578060086000846000191660001916815260200190815260200160002060010160006101000a81548173ffffffffffffffffffffffffffffffffffffffff021916908373ffffffffffffffffffffffffffffffffffffffff16021790555081600760008373ffffffffffffffffffffffffffffffffffffffff1673ffffffffffffffffffffffffffffffffffffffff1681526020019081526020016000208160001916905550612f72565b600080fd5b5b5050565b60008060006001612f888733611edb565b141515612f9457600080fd5b60086000876000191660001916815260200190815260200160002060000160009054906101000a900473ffffffffffffffffffffffffffffffffffffffff169250826000806101000a81548173ffffffffffffffffffffffffffffffffffffffff021916908373ffffffffffffffffffffffffffffffffffffffff16021790555060016000809054906101000a900473ffffffffffffffffffffffffffffffffffffffff1673ffffffffffffffffffffffffffffffffffffffff1663d57fe1af6000604051602001526040518163ffffffff167c0100000000000000000000000000000000000000000000000000000000028152600401602060405180830381600087803b15156130a457600080fd5b6102c65a03f115156130b557600080fd5b505050604051805190500390506000809054906101000a900473ffffffffffffffffffffffffffffffffffffffff1673ffffffffffffffffffffffffffffffffffffffff1663023c2303826000604051602001526040518263ffffffff167c0100000000000000000000000000000000000000000000000000000000028152600401808261ffff1661ffff168152602001807f4744000000000000000000000000000000000000000000000000000000000000815250602001915050602060405180830381600087803b151561318a57600080fd5b6102c65a03f1151561319b57600080fd5b50505060405180519050915081600360006101000a81548173ffffffffffffffffffffffffffffffffffffffff021916908373ffffffffffffffffffffffffffffffffffffffff1602179055507f41504f0000000000000000000000000000000000000000000000000000000000856fffffffffffffffffffffffffffffffff191614156132d857600360009054906101000a900473ffffffffffffffffffffffffffffffffffffffff1673ffffffffffffffffffffffffffffffffffffffff166352110864856040518263ffffffff167c0100000000000000000000000000000000000000000000000000000000028152600401808263ffffffff1663ffffffff168152602001915050600060405180830381600087803b15156132bf57600080fd5b6102c65a03f115156132d057600080fd5b505050613c20565b7f414f4f0000000000000000000000000000000000000000000000000000000000856fffffffffffffffffffffffffffffffff191614156133c857600360009054906101000a900473ffffffffffffffffffffffffffffffffffffffff1673ffffffffffffffffffffffffffffffffffffffff16632080b8b0856040518263ffffffff167c0100000000000000000000000000000000000000000000000000000000028152600401808263ffffffff1663ffffffff168152602001915050600060405180830381600087803b15156133af57600080fd5b6102c65a03f115156133c057600080fd5b505050613c1f565b7f41564d0000000000000000000000000000000000000000000000000000000000856fffffffffffffffffffffffffffffffff191614156134b857600360009054906101000a900473ffffffffffffffffffffffffffffffffffffffff1673ffffffffffffffffffffffffffffffffffffffff1663f4159a3c856040518263ffffffff167c0100000000000000000000000000000000000000000000000000000000028152600401808263ffffffff1663ffffffff168152602001915050600060405180830381600087803b151561349f57600080fd5b6102c65a03f115156134b057600080fd5b505050613c1e565b7f53504f0000000000000000000000000000000000000000000000000000000000856fffffffffffffffffffffffffffffffff191614156135a857600360009054906101000a900473ffffffffffffffffffffffffffffffffffffffff1673ffffffffffffffffffffffffffffffffffffffff1663ccb787d5856040518263ffffffff167c0100000000000000000000000000000000000000000000000000000000028152600401808263ffffffff1663ffffffff168152602001915050600060405180830381600087803b151561358f57600080fd5b6102c65a03f115156135a057600080fd5b505050613c1d565b7f534f4f0000000000000000000000000000000000000000000000000000000000856fffffffffffffffffffffffffffffffff1916141561369857600360009054906101000a900473ffffffffffffffffffffffffffffffffffffffff1673ffffffffffffffffffffffffffffffffffffffff1663a6647a64856040518263ffffffff167c0100000000000000000000000000000000000000000000000000000000028152600401808263ffffffff1663ffffffff168152602001915050600060405180830381600087803b151561367f57600080fd5b6102c65a03f1151561369057600080fd5b505050613c1c565b7f53564d0000000000000000000000000000000000000000000000000000000000856fffffffffffffffffffffffffffffffff1916141561378857600360009054906101000a900473ffffffffffffffffffffffffffffffffffffffff1673ffffffffffffffffffffffffffffffffffffffff16633601df0b856040518263ffffffff167c0100000000000000000000000000000000000000000000000000000000028152600401808263ffffffff1663ffffffff168152602001915050600060405180830381600087803b151561376f57600080fd5b6102c65a03f1151561378057600080fd5b505050613c1b565b7f4742545300000000000000000000000000000000000000000000000000000000856fffffffffffffffffffffffffffffffff1916141561387257600360009054906101000a900473ffffffffffffffffffffffffffffffffffffffff1673ffffffffffffffffffffffffffffffffffffffff1663cbc87e58856040518263ffffffff167c0100000000000000000000000000000000000000000000000000000000028152600401808263ffffffff168152602001915050600060405180830381600087803b151561385957600080fd5b6102c65a03f1151561386a57600080fd5b505050613c1a565b7f5246000000000000000000000000000000000000000000000000000000000000856fffffffffffffffffffffffffffffffff1916141561395c57600360009054906101000a900473ffffffffffffffffffffffffffffffffffffffff1673ffffffffffffffffffffffffffffffffffffffff1663e7803064856040518263ffffffff167c0100000000000000000000000000000000000000000000000000000000028152600401808263ffffffff168152602001915050600060405180830381600087803b151561394357600080fd5b6102c65a03f1151561395457600080fd5b505050613c19565b7f4d53460000000000000000000000000000000000000000000000000000000000856fffffffffffffffffffffffffffffffff19161415613a4657600360009054906101000a900473ffffffffffffffffffffffffffffffffffffffff1673ffffffffffffffffffffffffffffffffffffffff16634dec2bcc856040518263ffffffff167c0100000000000000000000000000000000000000000000000000000000028152600401808263ffffffff168152602001915050600060405180830381600087803b1515613a2d57600080fd5b6102c65a03f11515613a3e57600080fd5b505050613c18565b7f5357000000000000000000000000000000000000000000000000000000000000856fffffffffffffffffffffffffffffffff19161415613b3057600360009054906101000a900473ffffffffffffffffffffffffffffffffffffffff1673ffffffffffffffffffffffffffffffffffffffff16631655517f856040518263ffffffff167c0100000000000000000000000000000000000000000000000000000000028152600401808263ffffffff168152602001915050600060405180830381600087803b1515613b1757600080fd5b6102c65a03f11515613b2857600080fd5b505050613c17565b7f5150000000000000000000000000000000000000000000000000000000000000856fffffffffffffffffffffffffffffffff19161415613c1657600360009054906101000a900473ffffffffffffffffffffffffffffffffffffffff1673ffffffffffffffffffffffffffffffffffffffff1663489c16d0856040518263ffffffff167c0100000000000000000000000000000000000000000000000000000000028152600401808263ffffffff168152602001915050600060405180830381600087803b1515613c0157600080fd5b6102c65a03f11515613c1257600080fd5b5050505b5b5b5b5b5b5b5b5b5b5b505050505050565b6000600460009054906101000a900473ffffffffffffffffffffffffffffffffffffffff1673ffffffffffffffffffffffffffffffffffffffff16141515613c6f57600080fd5b33600460006101000a81548173ffffffffffffffffffffffffffffffffffffffff021916908373ffffffffffffffffffffffffffffffffffffffff16021790555080600560006101000a81548173ffffffffffffffffffffffffffffffffffffffff021916908373ffffffffffffffffffffffffffffffffffffffff160217905550613cfa30610f86565b50565b6000600660009054906101000a900473ffffffffffffffffffffffffffffffffffffffff1673ffffffffffffffffffffffffffffffffffffffff161415613d845780600660006101000a81548173ffffffffffffffffffffffffffffffffffffffff021916908373ffffffffffffffffffffffffffffffffffffffff160217905550613dfd565b60086000836000191660001916815260200190815260200160002060020160009054906101000a900473ffffffffffffffffffffffffffffffffffffffff1673ffffffffffffffffffffffffffffffffffffffff163373ffffffffffffffffffffffffffffffffffffffff16141515613dfc57600080fd5b5b8060086000846000191660001916815260200190815260200160002060020160006101000a81548173ffffffffffffffffffffffffffffffffffffffff021916908373ffffffffffffffffffffffffffffffffffffffff1602179055505050565b60008060086000866000191660001916815260200190815260200160002060000160009054906101000a900473ffffffffffffffffffffffffffffffffffffffff1673ffffffffffffffffffffffffffffffffffffffff16141515613ec257600080fd5b3084613ecc6145cd565b808373ffffffffffffffffffffffffffffffffffffffff1673ffffffffffffffffffffffffffffffffffffffff168152602001826000191660001916815260200192505050604051809103906000f0801515613f2757600080fd5b9050600a8054806001018281613f3d91906145dd565b9160005260206000209001600086909190915090600019169055508060086000866000191660001916815260200190815260200160002060000160006101000a81548173ffffffffffffffffffffffffffffffffffffffff021916908373ffffffffffffffffffffffffffffffffffffffff1602179055508260086000866000191660001916815260200190815260200160002060010160006101000a81548173ffffffffffffffffffffffffffffffffffffffff021916908373ffffffffffffffffffffffffffffffffffffffff16021790555081600860008660001916600019168152602001908152602001600020600301908051906020019061404492919061454d565b5083600760008373ffffffffffffffffffffffffffffffffffffffff1673ffffffffffffffffffffffffffffffffffffffff168152602001908152602001600020816000191690555083600760008573ffffffffffffffffffffffffffffffffffffffff1673ffffffffffffffffffffffffffffffffffffffff1681526020019081526020016000208160001916905550806000806101000a81548173ffffffffffffffffffffffffffffffffffffffff021916908373ffffffffffffffffffffffffffffffffffffffff1602179055506000809054906101000a900473ffffffffffffffffffffffffffffffffffffffff1673ffffffffffffffffffffffffffffffffffffffff166313af4035336040518263ffffffff167c0100000000000000000000000000000000000000000000000000000000028152600401808273ffffffffffffffffffffffffffffffffffffffff1673ffffffffffffffffffffffffffffffffffffffff168152602001915050600060405180830381600087803b15156141d057600080fd5b6102c65a03f115156141e157600080fd5b50505050505050565b600460009054906101000a900473ffffffffffffffffffffffffffffffffffffffff1673ffffffffffffffffffffffffffffffffffffffff163373ffffffffffffffffffffffffffffffffffffffff1614151561424657600080fd5b80600460006101000a81548173ffffffffffffffffffffffffffffffffffffffff021916908373ffffffffffffffffffffffffffffffffffffffff16021790555050565b6000600760008373ffffffffffffffffffffffffffffffffffffffff1673ffffffffffffffffffffffffffffffffffffffff168152602001908152602001600020549050919050565b6000600a828154811015156142e457fe5b9060005260206000209001549050919050565b600080600460009054906101000a900473ffffffffffffffffffffffffffffffffffffffff1673ffffffffffffffffffffffffffffffffffffffff163373ffffffffffffffffffffffffffffffffffffffff1614151561435657600080fd5b82600560006101000a81548173ffffffffffffffffffffffffffffffffffffffff021916908373ffffffffffffffffffffffffffffffffffffffff160217905550600091505b600a805490508210156145205760086000600a848154811015156143bc57fe5b9060005260206000209001546000191660001916815260200190815260200160002060000160009054906101000a900473ffffffffffffffffffffffffffffffffffffffff169050806000806101000a81548173ffffffffffffffffffffffffffffffffffffffff021916908373ffffffffffffffffffffffffffffffffffffffff1602179055506000809054906101000a900473ffffffffffffffffffffffffffffffffffffffff1673ffffffffffffffffffffffffffffffffffffffff1663284e4175846040518263ffffffff167c0100000000000000000000000000000000000000000000000000000000028152600401808273ffffffffffffffffffffffffffffffffffffffff1673ffffffffffffffffffffffffffffffffffffffff168152602001915050600060405180830381600087803b15156144ff57600080fd5b6102c65a03f1151561451057600080fd5b505050818060010192505061439c565b505050565b602060405190810160405280600081525090565b602060405190810160405280600081525090565b828054600181600116156101000203166002900490600052602060002090601f016020900481019282601f1061458e57805160ff19168380011785556145bc565b828001600101855582156145bc579182015b828111156145bb5782518255916020019190600101906145a0565b5b5090506145c99190614609565b5090565b604051616b088061465483390190565b81548183558181151161460457818360005260206000209182019101614603919061462e565b5b505050565b61462b91905b8082111561462757600081600090555060010161460f565b5090565b90565b61465091905b8082111561464c576000816000905550600101614634565b5090565b9056006060604052341561000f57600080fd5b60405160408062006b0883398101604052808051906020019091908051906020019091905050336000806101000a81548173ffffffffffffffffffffffffffffffffffffffff021916908373ffffffffffffffffffffffffffffffffffffffff1602179055506001600460003073ffffffffffffffffffffffffffffffffffffffff1673ffffffffffffffffffffffffffffffffffffffff16815260200190815260200160002060006101000a81548160ff02191690831515021790555060008060146101000a81548161ffff021916908361ffff16021790555081600760006101000a81548173ffffffffffffffffffffffffffffffffffffffff021916908373ffffffffffffffffffffffffffffffffffffffff160217905550806001816000191690555050506169c080620001486000396000f30060606040526004361061011c576000357c0100000000000000000000000000000000000000000000000000000000900463ffffffff168062eb85e014610121578063023c2303146101f457806306ecf884146102855780630d89247d146102b657806313af4035146102cb578063284e4175146103045780632f54bf6e1461033d5780636f3c0b401461038e5780638da5cb5b146103d55780638f16c41c1461042a578063914fc6d51461047b578063972b76c6146104d0578063aef816e81461052a578063b9b7ee5d14610563578063d57fe1af146105a9578063d81fab8a146105da578063dd970aa114610620578063e8318d8914610675578063f1dd533e146106c6578063f2fde38b1461071b578063fabec44a14610754575b600080fd5b341561012c57600080fd5b610146600480803561ffff169060200190919050506107b8565b604051808461ffff1661ffff1681526020018060200180602001838103835285818151815260200191508051906020019060200280838360005b8381101561019b578082015181840152602081019050610180565b50505050905001838103825284818151815260200191508051906020019060200280838360005b838110156101dd5780820151818401526020810190506101c2565b505050509050019550505050505060405180910390f35b34156101ff57600080fd5b610243600480803561ffff169060200190919080357dffffffffffffffffffffffffffffffffffffffffffffffffffffffffffff1916906020019091905050610a29565b604051808273ffffffffffffffffffffffffffffffffffffffff1673ffffffffffffffffffffffffffffffffffffffff16815260200191505060405180910390f35b341561029057600080fd5b610298610a6b565b60405180826000191660001916815260200191505060405180910390f35b34156102c157600080fd5b6102c9610a71565b005b34156102d657600080fd5b610302600480803573ffffffffffffffffffffffffffffffffffffffff16906020019091905050610d12565b005b341561030f57600080fd5b61033b600480803573ffffffffffffffffffffffffffffffffffffffff16906020019091905050610e08565b005b341561034857600080fd5b610374600480803573ffffffffffffffffffffffffffffffffffffffff1690602001909190505061151b565b604051808215151515815260200191505060405180910390f35b341561039957600080fd5b6103d3600480806101200190600980602002604051908101604052809291908260096020028082843782019150505050509190505061157c565b005b34156103e057600080fd5b6103e861198f565b604051808273ffffffffffffffffffffffffffffffffffffffff1673ffffffffffffffffffffffffffffffffffffffff16815260200191505060405180910390f35b341561043557600080fd5b610461600480803573ffffffffffffffffffffffffffffffffffffffff169060200190919050506119b4565b604051808215151515815260200191505060405180910390f35b341561048657600080fd5b61048e611a70565b604051808273ffffffffffffffffffffffffffffffffffffffff1673ffffffffffffffffffffffffffffffffffffffff16815260200191505060405180910390f35b34156104db57600080fd5b610528600480803590602001908201803590602001908080602002602001604051908101604052809392919081815260200183836020028082843782019150505050505091905050611a96565b005b341561053557600080fd5b610561600480803573ffffffffffffffffffffffffffffffffffffffff16906020019091905050611ae7565b005b341561056e57600080fd5b6105a760048080356000191690602001909190803573ffffffffffffffffffffffffffffffffffffffff16906020019091905050611b6c565b005b34156105b457600080fd5b6105bc611cce565b604051808261ffff1661ffff16815260200191505060405180910390f35b34156105e557600080fd5b61061e60048080356000191690602001909190803573ffffffffffffffffffffffffffffffffffffffff16906020019091905050611ce2565b005b341561062b57600080fd5b610633611e44565b604051808273ffffffffffffffffffffffffffffffffffffffff1673ffffffffffffffffffffffffffffffffffffffff16815260200191505060405180910390f35b341561068057600080fd5b6106ac600480803573ffffffffffffffffffffffffffffffffffffffff16906020019091905050611f6f565b604051808215151515815260200191505060405180910390f35b34156106d157600080fd5b6106d96120dd565b604051808273ffffffffffffffffffffffffffffffffffffffff1673ffffffffffffffffffffffffffffffffffffffff16815260200191505060405180910390f35b341561072657600080fd5b610752600480803573ffffffffffffffffffffffffffffffffffffffff169060200190919050506121f0565b005b341561075f57600080fd5b610767612305565b604051808361ffff1661ffff1681526020018273ffffffffffffffffffffffffffffffffffffffff1673ffffffffffffffffffffffffffffffffffffffff1681526020019250505060405180910390f35b60006107c261689f565b6107ca6168b3565b60008493506006805490506040518059106107e25750595b908082528060200260200182016040525092506006805490506040518059106108085750595b90808252806020026020018201604052509150600090505b6006805490508160ff161015610a215760068160ff1681548110151561084257fe5b90600052602060002090601091828204019190066002029054906101000a90047e0100000000000000000000000000000000000000000000000000000000000002838260ff1681518110151561089457fe5b906020019060200201907dffffffffffffffffffffffffffffffffffffffffffffffffffffffffffff191690817dffffffffffffffffffffffffffffffffffffffffffffffffffffffffffff191681525050600360008561ffff1661ffff168152602001908152602001600020600060068360ff1681548110151561091557fe5b90600052602060002090601091828204019190066002029054906101000a90047e01000000000000000000000000000000000000000000000000000000000000027dffffffffffffffffffffffffffffffffffffffffffffffffffffffffffff19167dffffffffffffffffffffffffffffffffffffffffffffffffffffffffffff1916815260200190815260200160002060009054906101000a900473ffffffffffffffffffffffffffffffffffffffff16828260ff168151811015156109d857fe5b9060200190602002019073ffffffffffffffffffffffffffffffffffffffff16908173ffffffffffffffffffffffffffffffffffffffff16815250508080600101915050610820565b509193909250565b60036020528160005260406000206020528060005260406000206000915091509054906101000a900473ffffffffffffffffffffffffffffffffffffffff1681565b60015481565b60006001600060149054906101000a900461ffff16039050600760009054906101000a900473ffffffffffffffffffffffffffffffffffffffff16600860006101000a81548173ffffffffffffffffffffffffffffffffffffffff021916908373ffffffffffffffffffffffffffffffffffffffff16021790555060008161ffff16148015610b4c57506000809054906101000a900473ffffffffffffffffffffffffffffffffffffffff1673ffffffffffffffffffffffffffffffffffffffff163373ffffffffffffffffffffffffffffffffffffffff16145b80610c4857506001600860009054906101000a900473ffffffffffffffffffffffffffffffffffffffff1673ffffffffffffffffffffffffffffffffffffffff16635e7a070f600154336000604051602001526040518363ffffffff167c01000000000000000000000000000000000000000000000000000000000281526004018083600019166000191681526020018273ffffffffffffffffffffffffffffffffffffffff1673ffffffffffffffffffffffffffffffffffffffff16815260200192505050602060405180830381600087803b1515610c2b57600080fd5b6102c65a03f11515610c3c57600080fd5b50505060405180519050145b1515610c5357600080fd5b610c5d42826123b2565b610c6681612428565b610cfd600360008361ffff1661ffff16815260200190815260200160002060007f4d530000000000000000000000000000000000000000000000000000000000007dffffffffffffffffffffffffffffffffffffffffffffffffffffffffffff1916815260200190815260200160002060009054906101000a900473ffffffffffffffffffffffffffffffffffffffff1682612434565b610d0681612f8a565b610d0f816136ef565b50565b600760009054906101000a900473ffffffffffffffffffffffffffffffffffffffff1673ffffffffffffffffffffffffffffffffffffffff163373ffffffffffffffffffffffffffffffffffffffff161480610dba57506000809054906101000a900473ffffffffffffffffffffffffffffffffffffffff1673ffffffffffffffffffffffffffffffffffffffff163373ffffffffffffffffffffffffffffffffffffffff16145b1515610dc557600080fd5b806000806101000a81548173ffffffffffffffffffffffffffffffffffffffff021916908373ffffffffffffffffffffffffffffffffffffffff16021790555050565b6000600760009054906101000a900473ffffffffffffffffffffffffffffffffffffffff16600860006101000a81548173ffffffffffffffffffffffffffffffffffffffff021916908373ffffffffffffffffffffffffffffffffffffffff1602179055506001600060149054906101000a900461ffff1603905060008161ffff16148015610ee357506000809054906101000a900473ffffffffffffffffffffffffffffffffffffffff1673ffffffffffffffffffffffffffffffffffffffff163373ffffffffffffffffffffffffffffffffffffffff16145b80610f3b5750600760009054906101000a900473ffffffffffffffffffffffffffffffffffffffff1673ffffffffffffffffffffffffffffffffffffffff163373ffffffffffffffffffffffffffffffffffffffff16145b8061103757506001600860009054906101000a900473ffffffffffffffffffffffffffffffffffffffff1673ffffffffffffffffffffffffffffffffffffffff16635e7a070f600154336000604051602001526040518363ffffffff167c01000000000000000000000000000000000000000000000000000000000281526004018083600019166000191681526020018273ffffffffffffffffffffffffffffffffffffffff1673ffffffffffffffffffffffffffffffffffffffff16815260200192505050602060405180830381600087803b151561101a57600080fd5b6102c65a03f1151561102b57600080fd5b50505060405180519050145b1561151757600360008261ffff1661ffff16815260200190815260200160002060007f53560000000000000000000000000000000000000000000000000000000000007dffffffffffffffffffffffffffffffffffffffffffffffffffffffffffff1916815260200190815260200160002060009054906101000a900473ffffffffffffffffffffffffffffffffffffffff16600f60006101000a81548173ffffffffffffffffffffffffffffffffffffffff021916908373ffffffffffffffffffffffffffffffffffffffff160217905550600f60009054906101000a900473ffffffffffffffffffffffffffffffffffffffff1673ffffffffffffffffffffffffffffffffffffffff1663eecedcb0836040518263ffffffff167c0100000000000000000000000000000000000000000000000000000000028152600401808273ffffffffffffffffffffffffffffffffffffffff1673ffffffffffffffffffffffffffffffffffffffff168152602001915050600060405180830381600087803b15156111c657600080fd5b6102c65a03f115156111d757600080fd5b505050600360008261ffff1661ffff16815260200190815260200160002060007f47560000000000000000000000000000000000000000000000000000000000007dffffffffffffffffffffffffffffffffffffffffffffffffffffffffffff1916815260200190815260200160002060009054906101000a900473ffffffffffffffffffffffffffffffffffffffff16600b60006101000a81548173ffffffffffffffffffffffffffffffffffffffff021916908373ffffffffffffffffffffffffffffffffffffffff160217905550600b60009054906101000a900473ffffffffffffffffffffffffffffffffffffffff1673ffffffffffffffffffffffffffffffffffffffff1663eecedcb0836040518263ffffffff167c0100000000000000000000000000000000000000000000000000000000028152600401808273ffffffffffffffffffffffffffffffffffffffff1673ffffffffffffffffffffffffffffffffffffffff168152602001915050600060405180830381600087803b151561136457600080fd5b6102c65a03f1151561137557600080fd5b505050600360008261ffff1661ffff16815260200190815260200160002060007f56540000000000000000000000000000000000000000000000000000000000007dffffffffffffffffffffffffffffffffffffffffffffffffffffffffffff1916815260200190815260200160002060009054906101000a900473ffffffffffffffffffffffffffffffffffffffff16601260006101000a81548173ffffffffffffffffffffffffffffffffffffffff021916908373ffffffffffffffffffffffffffffffffffffffff160217905550601260009054906101000a900473ffffffffffffffffffffffffffffffffffffffff1673ffffffffffffffffffffffffffffffffffffffff1663eecedcb0836040518263ffffffff167c0100000000000000000000000000000000000000000000000000000000028152600401808273ffffffffffffffffffffffffffffffffffffffff1673ffffffffffffffffffffffffffffffffffffffff168152602001915050600060405180830381600087803b151561150257600080fd5b6102c65a03f1151561151357600080fd5b5050505b5050565b60008173ffffffffffffffffffffffffffffffffffffffff166000809054906101000a900473ffffffffffffffffffffffffffffffffffffffff1673ffffffffffffffffffffffffffffffffffffffff16141561157757600190505b919050565b6000600760009054906101000a900473ffffffffffffffffffffffffffffffffffffffff16600860006101000a81548173ffffffffffffffffffffffffffffffffffffffff021916908373ffffffffffffffffffffffffffffffffffffffff1602179055506001600860009054906101000a900473ffffffffffffffffffffffffffffffffffffffff1673ffffffffffffffffffffffffffffffffffffffff16635e7a070f600154336000604051602001526040518363ffffffff167c01000000000000000000000000000000000000000000000000000000000281526004018083600019166000191681526020018273ffffffffffffffffffffffffffffffffffffffff1673ffffffffffffffffffffffffffffffffffffffff16815260200192505050602060405180830381600087803b15156116ba57600080fd5b6102c65a03f115156116cb57600080fd5b505050604051805190501415156116e157600080fd5b600060149054906101000a900461ffff169050611700600182016158ca565b61172b817f4d53000000000000000000000000000000000000000000000000000000000000306158ea565b611769817f474400000000000000000000000000000000000000000000000000000000000084600060098110151561175f57fe5b60200201516158ea565b6117a7817f4d5200000000000000000000000000000000000000000000000000000000000084600160098110151561179d57fe5b60200201516158ea565b6117e5817f50430000000000000000000000000000000000000000000000000000000000008460026009811015156117db57fe5b60200201516158ea565b611823817f535600000000000000000000000000000000000000000000000000000000000084600360098110151561181957fe5b60200201516158ea565b611861817f524200000000000000000000000000000000000000000000000000000000000084600460098110151561185757fe5b60200201516158ea565b61189f817f465700000000000000000000000000000000000000000000000000000000000084600560098110151561189557fe5b60200201516158ea565b6118dd817f56540000000000000000000000000000000000000000000000000000000000008460066009811015156118d357fe5b60200201516158ea565b61191b817f475600000000000000000000000000000000000000000000000000000000000084600760098110151561191157fe5b60200201516158ea565b611959817f504c00000000000000000000000000000000000000000000000000000000000084600860098110151561194f57fe5b60200201516158ea565b61198b817f47530000000000000000000000000000000000000000000000000000000000006119866120dd565b6158ea565b5050565b6000809054906101000a900473ffffffffffffffffffffffffffffffffffffffff1681565b600060011515600460008473ffffffffffffffffffffffffffffffffffffffff1673ffffffffffffffffffffffffffffffffffffffff16815260200190815260200160002060009054906101000a900460ff1615151480611a6157508173ffffffffffffffffffffffffffffffffffffffff166000809054906101000a900473ffffffffffffffffffffffffffffffffffffffff1673ffffffffffffffffffffffffffffffffffffffff16145b15611a6b57600190505b919050565b600760009054906101000a900473ffffffffffffffffffffffffffffffffffffffff1681565b60001515601260149054906101000a900460ff161515141515611ab857600080fd5b611ac18161599c565b611ac9615a40565b6001601260146101000a81548160ff02191690831515021790555050565b600760009054906101000a900473ffffffffffffffffffffffffffffffffffffffff1673ffffffffffffffffffffffffffffffffffffffff163373ffffffffffffffffffffffffffffffffffffffff16141515611b4357600080fd5b8073ffffffffffffffffffffffffffffffffffffffff16600760009054906101000a9050505050565b60011515611b793361151b565b1515141515611b8757600080fd5b600760009054906101000a900473ffffffffffffffffffffffffffffffffffffffff16600860006101000a81548173ffffffffffffffffffffffffffffffffffffffff021916908373ffffffffffffffffffffffffffffffffffffffff160217905550600860009054906101000a900473ffffffffffffffffffffffffffffffffffffffff1673ffffffffffffffffffffffffffffffffffffffff1663d40189c483836040518363ffffffff167c01000000000000000000000000000000000000000000000000000000000281526004018083600019166000191681526020018273ffffffffffffffffffffffffffffffffffffffff1673ffffffffffffffffffffffffffffffffffffffff16815260200192505050600060405180830381600087803b1515611cb657600080fd5b6102c65a03f11515611cc757600080fd5b5050505050565b600060149054906101000a900461ffff1681565b60011515611cef3361151b565b1515141515611cfd57600080fd5b600760009054906101000a900473ffffffffffffffffffffffffffffffffffffffff16600860006101000a81548173ffffffffffffffffffffffffffffffffffffffff021916908373ffffffffffffffffffffffffffffffffffffffff160217905550600860009054906101000a900473ffffffffffffffffffffffffffffffffffffffff1673ffffffffffffffffffffffffffffffffffffffff1663b93bec8b83836040518363ffffffff167c01000000000000000000000000000000000000000000000000000000000281526004018083600019166000191681526020018273ffffffffffffffffffffffffffffffffffffffff1673ffffffffffffffffffffffffffffffffffffffff16815260200192505050600060405180830381600087803b1515611e2c57600080fd5b6102c65a03f11515611e3d57600080fd5b5050505050565b6000600760009054906101000a900473ffffffffffffffffffffffffffffffffffffffff16600860006101000a81548173ffffffffffffffffffffffffffffffffffffffff021916908373ffffffffffffffffffffffffffffffffffffffff160217905550600860009054906101000a900473ffffffffffffffffffffffffffffffffffffffff1673ffffffffffffffffffffffffffffffffffffffff1663597336e86001546000604051602001526040518263ffffffff167c0100000000000000000000000000000000000000000000000000000000028152600401808260001916600019168152602001915050602060405180830381600087803b1515611f4c57600080fd5b6102c65a03f11515611f5d57600080fd5b50505060405180519050905080905090565b6000600760009054906101000a900473ffffffffffffffffffffffffffffffffffffffff16600860006101000a81548173ffffffffffffffffffffffffffffffffffffffff021916908373ffffffffffffffffffffffffffffffffffffffff1602179055506001600860009054906101000a900473ffffffffffffffffffffffffffffffffffffffff1673ffffffffffffffffffffffffffffffffffffffff16635e7a070f600154856000604051602001526040518363ffffffff167c01000000000000000000000000000000000000000000000000000000000281526004018083600019166000191681526020018273ffffffffffffffffffffffffffffffffffffffff1673ffffffffffffffffffffffffffffffffffffffff16815260200192505050602060405180830381600087803b15156120ad57600080fd5b6102c65a03f115156120be57600080fd5b505050604051805190501415156120d457600080fd5b60019050919050565b6000600760009054906101000a900473ffffffffffffffffffffffffffffffffffffffff16600860006101000a81548173ffffffffffffffffffffffffffffffffffffffff021916908373ffffffffffffffffffffffffffffffffffffffff160217905550600860009054906101000a900473ffffffffffffffffffffffffffffffffffffffff1673ffffffffffffffffffffffffffffffffffffffff1663b98356616000604051602001526040518163ffffffff167c0100000000000000000000000000000000000000000000000000000000028152600401602060405180830381600087803b15156121d057600080fd5b6102c65a03f115156121e157600080fd5b50505060405180519050905090565b600115156121fd3361151b565b151514151561220b57600080fd5b600073ffffffffffffffffffffffffffffffffffffffff168173ffffffffffffffffffffffffffffffffffffffff161415151561224757600080fd5b8073ffffffffffffffffffffffffffffffffffffffff166000809054906101000a900473ffffffffffffffffffffffffffffffffffffffff1673ffffffffffffffffffffffffffffffffffffffff167f8be0079c531659141344cd1fd0a4f28419497f9722a3daafe3b4186f6b6457e060405160405180910390a3806000806101000a81548173ffffffffffffffffffffffffffffffffffffffff021916908373ffffffffffffffffffffffffffffffffffffffff16021790555050565b6000806001600060149054906101000a900461ffff16039150600360008361ffff1661ffff16815260200190815260200160002060007f4d530000000000000000000000000000000000000000000000000000000000007dffffffffffffffffffffffffffffffffffffffffffffffffffffffffffff1916815260200190815260200160002060009054906101000a900473ffffffffffffffffffffffffffffffffffffffff1690509091565b600280548060010182816123c691906168c7565b9160005260206000209060020201600060408051908101604052808681526020018561ffff1681525090919091506000820151816000015560208201518160010160006101000a81548161ffff021916908361ffff1602179055505050505050565b61243181616632565b50565b600360008261ffff1661ffff16815260200190815260200160002060007f47440000000000000000000000000000000000000000000000000000000000007dffffffffffffffffffffffffffffffffffffffffffffffffffffffffffff1916815260200190815260200160002060009054906101000a900473ffffffffffffffffffffffffffffffffffffffff16600c60006101000a81548173ffffffffffffffffffffffffffffffffffffffff021916908373ffffffffffffffffffffffffffffffffffffffff160217905550600c60009054906101000a900473ffffffffffffffffffffffffffffffffffffffff1673ffffffffffffffffffffffffffffffffffffffff1663d46655f4836040518263ffffffff167c0100000000000000000000000000000000000000000000000000000000028152600401808273ffffffffffffffffffffffffffffffffffffffff1673ffffffffffffffffffffffffffffffffffffffff168152602001915050600060405180830381600087803b15156125be57600080fd5b6102c65a03f115156125cf57600080fd5b505050600360008261ffff1661ffff16815260200190815260200160002060007f53560000000000000000000000000000000000000000000000000000000000007dffffffffffffffffffffffffffffffffffffffffffffffffffffffffffff1916815260200190815260200160002060009054906101000a900473ffffffffffffffffffffffffffffffffffffffff16600f60006101000a81548173ffffffffffffffffffffffffffffffffffffffff021916908373ffffffffffffffffffffffffffffffffffffffff160217905550600f60009054906101000a900473ffffffffffffffffffffffffffffffffffffffff1673ffffffffffffffffffffffffffffffffffffffff1663d46655f4836040518263ffffffff167c0100000000000000000000000000000000000000000000000000000000028152600401808273ffffffffffffffffffffffffffffffffffffffff1673ffffffffffffffffffffffffffffffffffffffff168152602001915050600060405180830381600087803b151561275c57600080fd5b6102c65a03f1151561276d57600080fd5b505050600360008261ffff1661ffff16815260200190815260200160002060007f56540000000000000000000000000000000000000000000000000000000000007dffffffffffffffffffffffffffffffffffffffffffffffffffffffffffff1916815260200190815260200160002060009054906101000a900473ffffffffffffffffffffffffffffffffffffffff16601260006101000a81548173ffffffffffffffffffffffffffffffffffffffff021916908373ffffffffffffffffffffffffffffffffffffffff160217905550601260009054906101000a900473ffffffffffffffffffffffffffffffffffffffff1673ffffffffffffffffffffffffffffffffffffffff1663d46655f4836040518263ffffffff167c0100000000000000000000000000000000000000000000000000000000028152600401808273ffffffffffffffffffffffffffffffffffffffff1673ffffffffffffffffffffffffffffffffffffffff168152602001915050600060405180830381600087803b15156128fa57600080fd5b6102c65a03f1151561290b57600080fd5b505050600360008261ffff1661ffff16815260200190815260200160002060007f47560000000000000000000000000000000000000000000000000000000000007dffffffffffffffffffffffffffffffffffffffffffffffffffffffffffff1916815260200190815260200160002060009054906101000a900473ffffffffffffffffffffffffffffffffffffffff16600b60006101000a81548173ffffffffffffffffffffffffffffffffffffffff021916908373ffffffffffffffffffffffffffffffffffffffff160217905550600b60009054906101000a900473ffffffffffffffffffffffffffffffffffffffff1673ffffffffffffffffffffffffffffffffffffffff1663d46655f4836040518263ffffffff167c0100000000000000000000000000000000000000000000000000000000028152600401808273ffffffffffffffffffffffffffffffffffffffff1673ffffffffffffffffffffffffffffffffffffffff168152602001915050600060405180830381600087803b1515612a9857600080fd5b6102c65a03f11515612aa957600080fd5b505050600360008261ffff1661ffff16815260200190815260200160002060007f504c0000000000000000000000000000000000000000000000000000000000007dffffffffffffffffffffffffffffffffffffffffffffffffffffffffffff1916815260200190815260200160002060009054906101000a900473ffffffffffffffffffffffffffffffffffffffff16600a60006101000a81548173ffffffffffffffffffffffffffffffffffffffff021916908373ffffffffffffffffffffffffffffffffffffffff160217905550600a60009054906101000a900473ffffffffffffffffffffffffffffffffffffffff1673ffffffffffffffffffffffffffffffffffffffff1663d46655f4836040518263ffffffff167c0100000000000000000000000000000000000000000000000000000000028152600401808273ffffffffffffffffffffffffffffffffffffffff1673ffffffffffffffffffffffffffffffffffffffff168152602001915050600060405180830381600087803b1515612c3657600080fd5b6102c65a03f11515612c4757600080fd5b505050600360008261ffff1661ffff16815260200190815260200160002060007f50430000000000000000000000000000000000000000000000000000000000007dffffffffffffffffffffffffffffffffffffffffffffffffffffffffffff1916815260200190815260200160002060009054906101000a900473ffffffffffffffffffffffffffffffffffffffff16600e60006101000a81548173ffffffffffffffffffffffffffffffffffffffff021916908373ffffffffffffffffffffffffffffffffffffffff160217905550600e60009054906101000a900473ffffffffffffffffffffffffffffffffffffffff1673ffffffffffffffffffffffffffffffffffffffff1663d46655f4836040518263ffffffff167c0100000000000000000000000000000000000000000000000000000000028152600401808273ffffffffffffffffffffffffffffffffffffffff1673ffffffffffffffffffffffffffffffffffffffff168152602001915050600060405180830381600087803b1515612dd457600080fd5b6102c65a03f11515612de557600080fd5b505050600360008261ffff1661ffff16815260200190815260200160002060007f4d520000000000000000000000000000000000000000000000000000000000007dffffffffffffffffffffffffffffffffffffffffffffffffffffffffffff1916815260200190815260200160002060009054906101000a900473ffffffffffffffffffffffffffffffffffffffff16600d60006101000a81548173ffffffffffffffffffffffffffffffffffffffff021916908373ffffffffffffffffffffffffffffffffffffffff160217905550600d60009054906101000a900473ffffffffffffffffffffffffffffffffffffffff1673ffffffffffffffffffffffffffffffffffffffff1663d46655f4836040518263ffffffff167c0100000000000000000000000000000000000000000000000000000000028152600401808273ffffffffffffffffffffffffffffffffffffffff1673ffffffffffffffffffffffffffffffffffffffff168152602001915050600060405180830381600087803b1515612f7257600080fd5b6102c65a03f11515612f8357600080fd5b5050505050565b600360008261ffff1661ffff16815260200190815260200160002060007f47440000000000000000000000000000000000000000000000000000000000007dffffffffffffffffffffffffffffffffffffffffffffffffffffffffffff1916815260200190815260200160002060009054906101000a900473ffffffffffffffffffffffffffffffffffffffff16600c60006101000a81548173ffffffffffffffffffffffffffffffffffffffff021916908373ffffffffffffffffffffffffffffffffffffffff160217905550600360008261ffff1661ffff16815260200190815260200160002060007f4d520000000000000000000000000000000000000000000000000000000000007dffffffffffffffffffffffffffffffffffffffffffffffffffffffffffff1916815260200190815260200160002060009054906101000a900473ffffffffffffffffffffffffffffffffffffffff16600d60006101000a81548173ffffffffffffffffffffffffffffffffffffffff021916908373ffffffffffffffffffffffffffffffffffffffff160217905550600360008261ffff1661ffff16815260200190815260200160002060007f50430000000000000000000000000000000000000000000000000000000000007dffffffffffffffffffffffffffffffffffffffffffffffffffffffffffff1916815260200190815260200160002060009054906101000a900473ffffffffffffffffffffffffffffffffffffffff16600e60006101000a81548173ffffffffffffffffffffffffffffffffffffffff021916908373ffffffffffffffffffffffffffffffffffffffff16021790555060001515600c60009054906101000a900473ffffffffffffffffffffffffffffffffffffffff1673ffffffffffffffffffffffffffffffffffffffff1663525050e16000604051602001526040518163ffffffff167c0100000000000000000000000000000000000000000000000000000000028152600401602060405180830381600087803b151561328657600080fd5b6102c65a03f1151561329757600080fd5b505050604051805190501515141561339c57600c60009054906101000a900473ffffffffffffffffffffffffffffffffffffffff1673ffffffffffffffffffffffffffffffffffffffff1663ab69a71f600760009054906101000a900473ffffffffffffffffffffffffffffffffffffffff166040518263ffffffff167c0100000000000000000000000000000000000000000000000000000000028152600401808273ffffffffffffffffffffffffffffffffffffffff1673ffffffffffffffffffffffffffffffffffffffff168152602001915050600060405180830381600087803b151561338757600080fd5b6102c65a03f1151561339857600080fd5b5050505b60001515600d60009054906101000a900473ffffffffffffffffffffffffffffffffffffffff1673ffffffffffffffffffffffffffffffffffffffff1663525050e16000604051602001526040518163ffffffff167c0100000000000000000000000000000000000000000000000000000000028152600401602060405180830381600087803b151561342e57600080fd5b6102c65a03f1151561343f57600080fd5b505050604051805190501515141561354457600d60009054906101000a900473ffffffffffffffffffffffffffffffffffffffff1673ffffffffffffffffffffffffffffffffffffffff16631341bc04600760009054906101000a900473ffffffffffffffffffffffffffffffffffffffff166040518263ffffffff167c0100000000000000000000000000000000000000000000000000000000028152600401808273ffffffffffffffffffffffffffffffffffffffff1673ffffffffffffffffffffffffffffffffffffffff168152602001915050600060405180830381600087803b151561352f57600080fd5b6102c65a03f1151561354057600080fd5b5050505b60001515600e60009054906101000a900473ffffffffffffffffffffffffffffffffffffffff1673ffffffffffffffffffffffffffffffffffffffff1663525050e16000604051602001526040518163ffffffff167c0100000000000000000000000000000000000000000000000000000000028152600401602060405180830381600087803b15156135d657600080fd5b6102c65a03f115156135e757600080fd5b50505060405180519050151514156136ec57600e60009054906101000a900473ffffffffffffffffffffffffffffffffffffffff1673ffffffffffffffffffffffffffffffffffffffff1663b3f4ccb1600760009054906101000a900473ffffffffffffffffffffffffffffffffffffffff166040518263ffffffff167c0100000000000000000000000000000000000000000000000000000000028152600401808273ffffffffffffffffffffffffffffffffffffffff1673ffffffffffffffffffffffffffffffffffffffff168152602001915050600060405180830381600087803b15156136d757600080fd5b6102c65a03f115156136e857600080fd5b5050505b50565b60008090505b6006805490508160ff1610156158305760011515600560007f47440000000000000000000000000000000000000000000000000000000000007dffffffffffffffffffffffffffffffffffffffffffffffffffffffffffff19168152602001908152602001600020600060068460ff1681548110151561377157fe5b90600052602060002090601091828204019190066002029054906101000a90047e01000000000000000000000000000000000000000000000000000000000000027dffffffffffffffffffffffffffffffffffffffffffffffffffffffffffff19167dffffffffffffffffffffffffffffffffffffffffffffffffffffffffffff1916815260200190815260200160002060009054906101000a900460ff1615151415613c8a57600360008060149054906101000a900461ffff1661ffff1661ffff168152602001908152602001600020600060068360ff1681548110151561385657fe5b90600052602060002090601091828204019190066002029054906101000a90047e01000000000000000000000000000000000000000000000000000000000000027dffffffffffffffffffffffffffffffffffffffffffffffffffffffffffff19167dffffffffffffffffffffffffffffffffffffffffffffffffffffffffffff1916815260200190815260200160002060009054906101000a900473ffffffffffffffffffffffffffffffffffffffff1673ffffffffffffffffffffffffffffffffffffffff16600360006001600060149054906101000a900461ffff160361ffff1661ffff168152602001908152602001600020600060068460ff1681548110151561396057fe5b90600052602060002090601091828204019190066002029054906101000a90047e01000000000000000000000000000000000000000000000000000000000000027dffffffffffffffffffffffffffffffffffffffffffffffffffffffffffff19167dffffffffffffffffffffffffffffffffffffffffffffffffffffffffffff1916815260200190815260200160002060009054906101000a900473ffffffffffffffffffffffffffffffffffffffff1673ffffffffffffffffffffffffffffffffffffffff16141515613c8957600c60009054906101000a900473ffffffffffffffffffffffffffffffffffffffff1673ffffffffffffffffffffffffffffffffffffffff166367bf5d0c60068360ff16815481101515613a7f57fe5b90600052602060002090601091828204019190066002029054906101000a90047e0100000000000000000000000000000000000000000000000000000000000002600360008060149054906101000a900461ffff1661ffff1661ffff168152602001908152602001600020600060068660ff16815481101515613afe57fe5b90600052602060002090601091828204019190066002029054906101000a90047e01000000000000000000000000000000000000000000000000000000000000027dffffffffffffffffffffffffffffffffffffffffffffffffffffffffffff19167dffffffffffffffffffffffffffffffffffffffffffffffffffffffffffff1916815260200190815260200160002060009054906101000a900473ffffffffffffffffffffffffffffffffffffffff166040518363ffffffff167c010000000000000000000000000000000000000000000000000000000002815260040180837dffffffffffffffffffffffffffffffffffffffffffffffffffffffffffff19167bffffffffffffffffffffffffffffffffffffffffffffffffffffffff191681526020018273ffffffffffffffffffffffffffffffffffffffff1673ffffffffffffffffffffffffffffffffffffffff16815260200192505050600060405180830381600087803b1515613c7457600080fd5b6102c65a03f11515613c8557600080fd5b5050505b5b60011515600560007f50430000000000000000000000000000000000000000000000000000000000007dffffffffffffffffffffffffffffffffffffffffffffffffffffffffffff19168152602001908152602001600020600060068460ff16815481101515613cf657fe5b90600052602060002090601091828204019190066002029054906101000a90047e01000000000000000000000000000000000000000000000000000000000000027dffffffffffffffffffffffffffffffffffffffffffffffffffffffffffff19167dffffffffffffffffffffffffffffffffffffffffffffffffffffffffffff1916815260200190815260200160002060009054906101000a900460ff161515141561420f57600360008060149054906101000a900461ffff1661ffff1661ffff168152602001908152602001600020600060068360ff16815481101515613ddb57fe5b90600052602060002090601091828204019190066002029054906101000a90047e01000000000000000000000000000000000000000000000000000000000000027dffffffffffffffffffffffffffffffffffffffffffffffffffffffffffff19167dffffffffffffffffffffffffffffffffffffffffffffffffffffffffffff1916815260200190815260200160002060009054906101000a900473ffffffffffffffffffffffffffffffffffffffff1673ffffffffffffffffffffffffffffffffffffffff16600360006001600060149054906101000a900461ffff160361ffff1661ffff168152602001908152602001600020600060068460ff16815481101515613ee557fe5b90600052602060002090601091828204019190066002029054906101000a90047e01000000000000000000000000000000000000000000000000000000000000027dffffffffffffffffffffffffffffffffffffffffffffffffffffffffffff19167dffffffffffffffffffffffffffffffffffffffffffffffffffffffffffff1916815260200190815260200160002060009054906101000a900473ffffffffffffffffffffffffffffffffffffffff1673ffffffffffffffffffffffffffffffffffffffff1614151561420e57600e60009054906101000a900473ffffffffffffffffffffffffffffffffffffffff1673ffffffffffffffffffffffffffffffffffffffff166367bf5d0c60068360ff1681548110151561400457fe5b90600052602060002090601091828204019190066002029054906101000a90047e0100000000000000000000000000000000000000000000000000000000000002600360008060149054906101000a900461ffff1661ffff1661ffff168152602001908152602001600020600060068660ff1681548110151561408357fe5b90600052602060002090601091828204019190066002029054906101000a90047e01000000000000000000000000000000000000000000000000000000000000027dffffffffffffffffffffffffffffffffffffffffffffffffffffffffffff19167dffffffffffffffffffffffffffffffffffffffffffffffffffffffffffff1916815260200190815260200160002060009054906101000a900473ffffffffffffffffffffffffffffffffffffffff166040518363ffffffff167c010000000000000000000000000000000000000000000000000000000002815260040180837dffffffffffffffffffffffffffffffffffffffffffffffffffffffffffff19167bffffffffffffffffffffffffffffffffffffffffffffffffffffffff191681526020018273ffffffffffffffffffffffffffffffffffffffff1673ffffffffffffffffffffffffffffffffffffffff16815260200192505050600060405180830381600087803b15156141f957600080fd5b6102c65a03f1151561420a57600080fd5b5050505b5b60011515600560007f53560000000000000000000000000000000000000000000000000000000000007dffffffffffffffffffffffffffffffffffffffffffffffffffffffffffff19168152602001908152602001600020600060068460ff1681548110151561427b57fe5b90600052602060002090601091828204019190066002029054906101000a90047e01000000000000000000000000000000000000000000000000000000000000027dffffffffffffffffffffffffffffffffffffffffffffffffffffffffffff19167dffffffffffffffffffffffffffffffffffffffffffffffffffffffffffff1916815260200190815260200160002060009054906101000a900460ff161515141561479457600360008060149054906101000a900461ffff1661ffff1661ffff168152602001908152602001600020600060068360ff1681548110151561436057fe5b90600052602060002090601091828204019190066002029054906101000a90047e01000000000000000000000000000000000000000000000000000000000000027dffffffffffffffffffffffffffffffffffffffffffffffffffffffffffff19167dffffffffffffffffffffffffffffffffffffffffffffffffffffffffffff1916815260200190815260200160002060009054906101000a900473ffffffffffffffffffffffffffffffffffffffff1673ffffffffffffffffffffffffffffffffffffffff16600360006001600060149054906101000a900461ffff160361ffff1661ffff168152602001908152602001600020600060068460ff1681548110151561446a57fe5b90600052602060002090601091828204019190066002029054906101000a90047e01000000000000000000000000000000000000000000000000000000000000027dffffffffffffffffffffffffffffffffffffffffffffffffffffffffffff19167dffffffffffffffffffffffffffffffffffffffffffffffffffffffffffff1916815260200190815260200160002060009054906101000a900473ffffffffffffffffffffffffffffffffffffffff1673ffffffffffffffffffffffffffffffffffffffff1614151561479357600f60009054906101000a900473ffffffffffffffffffffffffffffffffffffffff1673ffffffffffffffffffffffffffffffffffffffff166367bf5d0c60068360ff1681548110151561458957fe5b90600052602060002090601091828204019190066002029054906101000a90047e0100000000000000000000000000000000000000000000000000000000000002600360008060149054906101000a900461ffff1661ffff1661ffff168152602001908152602001600020600060068660ff1681548110151561460857fe5b90600052602060002090601091828204019190066002029054906101000a90047e01000000000000000000000000000000000000000000000000000000000000027dffffffffffffffffffffffffffffffffffffffffffffffffffffffffffff19167dffffffffffffffffffffffffffffffffffffffffffffffffffffffffffff1916815260200190815260200160002060009054906101000a900473ffffffffffffffffffffffffffffffffffffffff166040518363ffffffff167c010000000000000000000000000000000000000000000000000000000002815260040180837dffffffffffffffffffffffffffffffffffffffffffffffffffffffffffff19167bffffffffffffffffffffffffffffffffffffffffffffffffffffffff191681526020018273ffffffffffffffffffffffffffffffffffffffff1673ffffffffffffffffffffffffffffffffffffffff16815260200192505050600060405180830381600087803b151561477e57600080fd5b6102c65a03f1151561478f57600080fd5b5050505b5b60011515600560007f47440000000000000000000000000000000000000000000000000000000000007dffffffffffffffffffffffffffffffffffffffffffffffffffffffffffff19168152602001908152602001600020600060068460ff1681548110151561480057fe5b90600052602060002090601091828204019190066002029054906101000a90047e01000000000000000000000000000000000000000000000000000000000000027dffffffffffffffffffffffffffffffffffffffffffffffffffffffffffff19167dffffffffffffffffffffffffffffffffffffffffffffffffffffffffffff1916815260200190815260200160002060009054906101000a900460ff1615151415614d1957600360008060149054906101000a900461ffff1661ffff1661ffff168152602001908152602001600020600060068360ff168154811015156148e557fe5b90600052602060002090601091828204019190066002029054906101000a90047e01000000000000000000000000000000000000000000000000000000000000027dffffffffffffffffffffffffffffffffffffffffffffffffffffffffffff19167dffffffffffffffffffffffffffffffffffffffffffffffffffffffffffff1916815260200190815260200160002060009054906101000a900473ffffffffffffffffffffffffffffffffffffffff1673ffffffffffffffffffffffffffffffffffffffff16600360006001600060149054906101000a900461ffff160361ffff1661ffff168152602001908152602001600020600060068460ff168154811015156149ef57fe5b90600052602060002090601091828204019190066002029054906101000a90047e01000000000000000000000000000000000000000000000000000000000000027dffffffffffffffffffffffffffffffffffffffffffffffffffffffffffff19167dffffffffffffffffffffffffffffffffffffffffffffffffffffffffffff1916815260200190815260200160002060009054906101000a900473ffffffffffffffffffffffffffffffffffffffff1673ffffffffffffffffffffffffffffffffffffffff16141515614d1857600c60009054906101000a900473ffffffffffffffffffffffffffffffffffffffff1673ffffffffffffffffffffffffffffffffffffffff166367bf5d0c60068360ff16815481101515614b0e57fe5b90600052602060002090601091828204019190066002029054906101000a90047e0100000000000000000000000000000000000000000000000000000000000002600360008060149054906101000a900461ffff1661ffff1661ffff168152602001908152602001600020600060068660ff16815481101515614b8d57fe5b90600052602060002090601091828204019190066002029054906101000a90047e01000000000000000000000000000000000000000000000000000000000000027dffffffffffffffffffffffffffffffffffffffffffffffffffffffffffff19167dffffffffffffffffffffffffffffffffffffffffffffffffffffffffffff1916815260200190815260200160002060009054906101000a900473ffffffffffffffffffffffffffffffffffffffff166040518363ffffffff167c010000000000000000000000000000000000000000000000000000000002815260040180837dffffffffffffffffffffffffffffffffffffffffffffffffffffffffffff19167bffffffffffffffffffffffffffffffffffffffffffffffffffffffff191681526020018273ffffffffffffffffffffffffffffffffffffffff1673ffffffffffffffffffffffffffffffffffffffff16815260200192505050600060405180830381600087803b1515614d0357600080fd5b6102c65a03f11515614d1457600080fd5b5050505b5b60011515600560007f56540000000000000000000000000000000000000000000000000000000000007dffffffffffffffffffffffffffffffffffffffffffffffffffffffffffff19168152602001908152602001600020600060068460ff16815481101515614d8557fe5b90600052602060002090601091828204019190066002029054906101000a90047e01000000000000000000000000000000000000000000000000000000000000027dffffffffffffffffffffffffffffffffffffffffffffffffffffffffffff19167dffffffffffffffffffffffffffffffffffffffffffffffffffffffffffff1916815260200190815260200160002060009054906101000a900460ff161515141561529e57600360008060149054906101000a900461ffff1661ffff1661ffff168152602001908152602001600020600060068360ff16815481101515614e6a57fe5b90600052602060002090601091828204019190066002029054906101000a90047e01000000000000000000000000000000000000000000000000000000000000027dffffffffffffffffffffffffffffffffffffffffffffffffffffffffffff19167dffffffffffffffffffffffffffffffffffffffffffffffffffffffffffff1916815260200190815260200160002060009054906101000a900473ffffffffffffffffffffffffffffffffffffffff1673ffffffffffffffffffffffffffffffffffffffff16600360006001600060149054906101000a900461ffff160361ffff1661ffff168152602001908152602001600020600060068460ff16815481101515614f7457fe5b90600052602060002090601091828204019190066002029054906101000a90047e01000000000000000000000000000000000000000000000000000000000000027dffffffffffffffffffffffffffffffffffffffffffffffffffffffffffff19167dffffffffffffffffffffffffffffffffffffffffffffffffffffffffffff1916815260200190815260200160002060009054906101000a900473ffffffffffffffffffffffffffffffffffffffff1673ffffffffffffffffffffffffffffffffffffffff1614151561529d57601260009054906101000a900473ffffffffffffffffffffffffffffffffffffffff1673ffffffffffffffffffffffffffffffffffffffff166367bf5d0c60068360ff1681548110151561509357fe5b90600052602060002090601091828204019190066002029054906101000a90047e0100000000000000000000000000000000000000000000000000000000000002600360008060149054906101000a900461ffff1661ffff1661ffff168152602001908152602001600020600060068660ff1681548110151561511257fe5b90600052602060002090601091828204019190066002029054906101000a90047e01000000000000000000000000000000000000000000000000000000000000027dffffffffffffffffffffffffffffffffffffffffffffffffffffffffffff19167dffffffffffffffffffffffffffffffffffffffffffffffffffffffffffff1916815260200190815260200160002060009054906101000a900473ffffffffffffffffffffffffffffffffffffffff166040518363ffffffff167c010000000000000000000000000000000000000000000000000000000002815260040180837dffffffffffffffffffffffffffffffffffffffffffffffffffffffffffff19167bffffffffffffffffffffffffffffffffffffffffffffffffffffffff191681526020018273ffffffffffffffffffffffffffffffffffffffff1673ffffffffffffffffffffffffffffffffffffffff16815260200192505050600060405180830381600087803b151561528857600080fd5b6102c65a03f1151561529957600080fd5b5050505b5b60011515600560007f47560000000000000000000000000000000000000000000000000000000000007dffffffffffffffffffffffffffffffffffffffffffffffffffffffffffff19168152602001908152602001600020600060068460ff1681548110151561530a57fe5b90600052602060002090601091828204019190066002029054906101000a90047e01000000000000000000000000000000000000000000000000000000000000027dffffffffffffffffffffffffffffffffffffffffffffffffffffffffffff19167dffffffffffffffffffffffffffffffffffffffffffffffffffffffffffff1916815260200190815260200160002060009054906101000a900460ff161515141561582357600360008060149054906101000a900461ffff1661ffff1661ffff168152602001908152602001600020600060068360ff168154811015156153ef57fe5b90600052602060002090601091828204019190066002029054906101000a90047e01000000000000000000000000000000000000000000000000000000000000027dffffffffffffffffffffffffffffffffffffffffffffffffffffffffffff19167dffffffffffffffffffffffffffffffffffffffffffffffffffffffffffff1916815260200190815260200160002060009054906101000a900473ffffffffffffffffffffffffffffffffffffffff1673ffffffffffffffffffffffffffffffffffffffff16600360006001600060149054906101000a900461ffff160361ffff1661ffff168152602001908152602001600020600060068460ff168154811015156154f957fe5b90600052602060002090601091828204019190066002029054906101000a90047e01000000000000000000000000000000000000000000000000000000000000027dffffffffffffffffffffffffffffffffffffffffffffffffffffffffffff19167dffffffffffffffffffffffffffffffffffffffffffffffffffffffffffff1916815260200190815260200160002060009054906101000a900473ffffffffffffffffffffffffffffffffffffffff1673ffffffffffffffffffffffffffffffffffffffff1614151561582257600b60009054906101000a900473ffffffffffffffffffffffffffffffffffffffff1673ffffffffffffffffffffffffffffffffffffffff166367bf5d0c60068360ff1681548110151561561857fe5b90600052602060002090601091828204019190066002029054906101000a90047e0100000000000000000000000000000000000000000000000000000000000002600360008060149054906101000a900461ffff1661ffff1661ffff168152602001908152602001600020600060068660ff1681548110151561569757fe5b90600052602060002090601091828204019190066002029054906101000a90047e01000000000000000000000000000000000000000000000000000000000000027dffffffffffffffffffffffffffffffffffffffffffffffffffffffffffff19167dffffffffffffffffffffffffffffffffffffffffffffffffffffffffffff1916815260200190815260200160002060009054906101000a900473ffffffffffffffffffffffffffffffffffffffff166040518363ffffffff167c010000000000000000000000000000000000000000000000000000000002815260040180837dffffffffffffffffffffffffffffffffffffffffffffffffffffffffffff19167bffffffffffffffffffffffffffffffffffffffffffffffffffffffff191681526020018273ffffffffffffffffffffffffffffffffffffffff1673ffffffffffffffffffffffffffffffffffffffff16815260200192505050600060405180830381600087803b151561580d57600080fd5b6102c65a03f1151561581e57600080fd5b5050505b5b80806001019150506136f5565b6158c6600360008461ffff1661ffff16815260200190815260200160002060007f47530000000000000000000000000000000000000000000000000000000000007dffffffffffffffffffffffffffffffffffffffffffffffffffffffffffff1916815260200190815260200160002060009054906101000a900473ffffffffffffffffffffffffffffffffffffffff16610e08565b5050565b80600060146101000a81548161ffff021916908361ffff16021790555050565b80600360008561ffff1661ffff1681526020019081526020016000206000847dffffffffffffffffffffffffffffffffffffffffffffffffffffffffffff19167dffffffffffffffffffffffffffffffffffffffffffffffffffffffffffff1916815260200190815260200160002060006101000a81548173ffffffffffffffffffffffffffffffffffffffff021916908373ffffffffffffffffffffffffffffffffffffffff160217905550505050565b60008090505b81518160ff161015615a3c57600680548060010182816159c291906168f9565b9160005260206000209060109182820401919006600202848460ff168151811015156159ea57fe5b90602001906020020151909190916101000a81548161ffff02191690837e01000000000000000000000000000000000000000000000000000000000000900402179055505080806001019150506159a2565b5050565b6001600560007f53560000000000000000000000000000000000000000000000000000000000007dffffffffffffffffffffffffffffffffffffffffffffffffffffffffffff1916815260200190815260200160002060007f56540000000000000000000000000000000000000000000000000000000000007dffffffffffffffffffffffffffffffffffffffffffffffffffffffffffff1916815260200190815260200160002060006101000a81548160ff0219169083151502179055506001600560007f53560000000000000000000000000000000000000000000000000000000000007dffffffffffffffffffffffffffffffffffffffffffffffffffffffffffff1916815260200190815260200160002060007f47440000000000000000000000000000000000000000000000000000000000007dffffffffffffffffffffffffffffffffffffffffffffffffffffffffffff1916815260200190815260200160002060006101000a81548160ff0219169083151502179055506001600560007f53560000000000000000000000000000000000000000000000000000000000007dffffffffffffffffffffffffffffffffffffffffffffffffffffffffffff1916815260200190815260200160002060007f4d520000000000000000000000000000000000000000000000000000000000007dffffffffffffffffffffffffffffffffffffffffffffffffffffffffffff1916815260200190815260200160002060006101000a81548160ff0219169083151502179055506001600560007f53560000000000000000000000000000000000000000000000000000000000007dffffffffffffffffffffffffffffffffffffffffffffffffffffffffffff1916815260200190815260200160002060007f47560000000000000000000000000000000000000000000000000000000000007dffffffffffffffffffffffffffffffffffffffffffffffffffffffffffff1916815260200190815260200160002060006101000a81548160ff0219169083151502179055506001600560007f53560000000000000000000000000000000000000000000000000000000000007dffffffffffffffffffffffffffffffffffffffffffffffffffffffffffff1916815260200190815260200160002060007f50430000000000000000000000000000000000000000000000000000000000007dffffffffffffffffffffffffffffffffffffffffffffffffffffffffffff1916815260200190815260200160002060006101000a81548160ff0219169083151502179055506001600560007f56540000000000000000000000000000000000000000000000000000000000007dffffffffffffffffffffffffffffffffffffffffffffffffffffffffffff1916815260200190815260200160002060007f47440000000000000000000000000000000000000000000000000000000000007dffffffffffffffffffffffffffffffffffffffffffffffffffffffffffff1916815260200190815260200160002060006101000a81548160ff0219169083151502179055506001600560007f56540000000000000000000000000000000000000000000000000000000000007dffffffffffffffffffffffffffffffffffffffffffffffffffffffffffff1916815260200190815260200160002060007f4d520000000000000000000000000000000000000000000000000000000000007dffffffffffffffffffffffffffffffffffffffffffffffffffffffffffff1916815260200190815260200160002060006101000a81548160ff0219169083151502179055506001600560007f56540000000000000000000000000000000000000000000000000000000000007dffffffffffffffffffffffffffffffffffffffffffffffffffffffffffff1916815260200190815260200160002060007f50430000000000000000000000000000000000000000000000000000000000007dffffffffffffffffffffffffffffffffffffffffffffffffffffffffffff1916815260200190815260200160002060006101000a81548160ff0219169083151502179055506001600560007f56540000000000000000000000000000000000000000000000000000000000007dffffffffffffffffffffffffffffffffffffffffffffffffffffffffffff1916815260200190815260200160002060007f47560000000000000000000000000000000000000000000000000000000000007dffffffffffffffffffffffffffffffffffffffffffffffffffffffffffff1916815260200190815260200160002060006101000a81548160ff0219169083151502179055506001600560007f56540000000000000000000000000000000000000000000000000000000000007dffffffffffffffffffffffffffffffffffffffffffffffffffffffffffff1916815260200190815260200160002060007f504c0000000000000000000000000000000000000000000000000000000000007dffffffffffffffffffffffffffffffffffffffffffffffffffffffffffff1916815260200190815260200160002060006101000a81548160ff0219169083151502179055506001600560007f47560000000000000000000000000000000000000000000000000000000000007dffffffffffffffffffffffffffffffffffffffffffffffffffffffffffff1916815260200190815260200160002060007f47440000000000000000000000000000000000000000000000000000000000007dffffffffffffffffffffffffffffffffffffffffffffffffffffffffffff1916815260200190815260200160002060006101000a81548160ff0219169083151502179055506001600560007f47560000000000000000000000000000000000000000000000000000000000007dffffffffffffffffffffffffffffffffffffffffffffffffffffffffffff1916815260200190815260200160002060007f4d520000000000000000000000000000000000000000000000000000000000007dffffffffffffffffffffffffffffffffffffffffffffffffffffffffffff1916815260200190815260200160002060006101000a81548160ff0219169083151502179055506001600560007f47560000000000000000000000000000000000000000000000000000000000007dffffffffffffffffffffffffffffffffffffffffffffffffffffffffffff1916815260200190815260200160002060007f50430000000000000000000000000000000000000000000000000000000000007dffffffffffffffffffffffffffffffffffffffffffffffffffffffffffff1916815260200190815260200160002060006101000a81548160ff0219169083151502179055506001600560007f47560000000000000000000000000000000000000000000000000000000000007dffffffffffffffffffffffffffffffffffffffffffffffffffffffffffff1916815260200190815260200160002060007f504c0000000000000000000000000000000000000000000000000000000000007dffffffffffffffffffffffffffffffffffffffffffffffffffffffffffff1916815260200190815260200160002060006101000a81548160ff0219169083151502179055506001600560007f50430000000000000000000000000000000000000000000000000000000000007dffffffffffffffffffffffffffffffffffffffffffffffffffffffffffff1916815260200190815260200160002060007f4d520000000000000000000000000000000000000000000000000000000000007dffffffffffffffffffffffffffffffffffffffffffffffffffffffffffff1916815260200190815260200160002060006101000a81548160ff0219169083151502179055506001600560007f50430000000000000000000000000000000000000000000000000000000000007dffffffffffffffffffffffffffffffffffffffffffffffffffffffffffff1916815260200190815260200160002060007f47440000000000000000000000000000000000000000000000000000000000007dffffffffffffffffffffffffffffffffffffffffffffffffffffffffffff1916815260200190815260200160002060006101000a81548160ff021916908315150217905550565b60008090505b6006805490508160ff1610156166b1576166a48260068360ff1681548110151561665e57fe5b90600052602060002090601091828204019190066002029054906101000a90047e01000000000000000000000000000000000000000000000000000000000000026166b5565b8080600101915050616638565b5050565b600080905060008361ffff1611156166ce576001830390505b600060046000600360008561ffff1661ffff1681526020019081526020016000206000867dffffffffffffffffffffffffffffffffffffffffffffffffffffffffffff19167dffffffffffffffffffffffffffffffffffffffffffffffffffffffffffff1916815260200190815260200160002060009054906101000a900473ffffffffffffffffffffffffffffffffffffffff1673ffffffffffffffffffffffffffffffffffffffff1673ffffffffffffffffffffffffffffffffffffffff16815260200190815260200160002060006101000a81548160ff021916908315150217905550600160046000600360008761ffff1661ffff1681526020019081526020016000206000867dffffffffffffffffffffffffffffffffffffffffffffffffffffffffffff19167dffffffffffffffffffffffffffffffffffffffffffffffffffffffffffff1916815260200190815260200160002060009054906101000a900473ffffffffffffffffffffffffffffffffffffffff1673ffffffffffffffffffffffffffffffffffffffff1673ffffffffffffffffffffffffffffffffffffffff16815260200190815260200160002060006101000a81548160ff021916908315150217905550505050565b602060405190810160405280600081525090565b602060405190810160405280600081525090565b8154818355818115116168f4576002028160020283600052602060002091820191016168f39190616933565b5b505050565b81548183558181151161692e57600f016010900481600f0160109004836000526020600020918201910161692d919061696f565b5b505050565b61696c91905b80821115616968576000808201600090556001820160006101000a81549061ffff021916905550600201616939565b5090565b90565b61699191905b8082111561698d576000816000905550600101616975565b5090565b905600a165627a7a72305820ba445bc491e20fd6d14f9d1d45591b7ffe2a32887134bd033e11c974095a69630029a165627a7a72305820edf72454a1a0118a6d003e9e788e08430ebd4ae7b110bd84068de2dc184bad740029",
  "source": "/* Copyright (C) 2017 GovBlocks.io\r\n\r\n  This program is free software: you can redistribute it and/or modify\r\n    it under the terms of the GNU General Public License as published by\r\n    the Free Software Foundation, either version 3 of the License, or\r\n    (at your option) any later version.\r\n\r\n  This program is distributed in the hope that it will be useful,\r\n    but WITHOUT ANY WARRANTY; without even the implied warranty of\r\n    MERCHANTABILITY or FITNESS FOR A PARTICULAR PURPOSE.  See the\r\n    GNU General Public License for more details.\r\n\r\n  You should have received a copy of the GNU General Public License\r\n    along with this program.  If not, see http://www.gnu.org/licenses/ */\r\n\r\n\r\npragma solidity ^0.4.8;\r\nimport \"./Master.sol\";\r\nimport \"./memberRoles.sol\";\r\nimport \"./ProposalCategory.sol\";\r\nimport \"./governanceData.sol\";\r\n\r\ncontract GovBlocksMaster \r\n{\r\n    Master MS;\r\n    memberRoles MR;\r\n    ProposalCategory PC;\r\n    governanceData GD;\r\n    address public owner;\r\n    address GBTAddress;\r\n    address public authGBOwner;\r\n\r\n    struct GBDapps\r\n    {\r\n      address masterAddress;\r\n      address tokenAddress;\r\n      address authGBAddress;\r\n      string dappDescHash;\r\n    }\r\n\r\n    mapping(address=>bytes32) govBlocksDappByAddress;\r\n    mapping(bytes32=>GBDapps) govBlocksDapps;\r\n    mapping(address=>string) govBlocksUser;\r\n    \r\n    bytes32[] allGovBlocksUsers;\r\n    string byteCodeHash;\r\n    string contractsAbiHash;\r\n\r\n    modifier onlyOwner() \r\n    {\r\n      require(msg.sender == owner);\r\n      _;\r\n    }\r\n\r\n    /// @dev Initializes GovBlocks master\r\n    /// @param _GBTAddress GBT address\r\n    function GovBlocksMasterInit(address _GBTAddress) \r\n    {\r\n      require(owner == 0x00);\r\n      owner = msg.sender; \r\n      GBTAddress = _GBTAddress;\r\n      updateGBMAddress(address(this));  \r\n    } \r\n\r\n    /// @dev Changes authorized GovBlocks owner\r\n    /// @param dAppName dApp username\r\n    /// @param _memberAddress Address of the member\r\n    function changeAuthorizedGB(bytes32 dAppName,address _memberAddress)\r\n    {\r\n      if(authGBOwner == 0x00)\r\n        authGBOwner = _memberAddress;\r\n      else\r\n        require(msg.sender == govBlocksDapps[dAppName].authGBAddress);\r\n        govBlocksDapps[dAppName].authGBAddress = _memberAddress;\r\n    }\r\n\r\n    /// @dev Checks for authorized GovBlocks owner\r\n    /// @param dAppName dApp username\r\n    /// @param _memberAddress Member's address to be checked for GovBlocks owner\r\n    /// @return auth Authentication flag\r\n    function isAuthorizedGBOwner(bytes32 dAppName,address _memberAddress)constant returns(uint auth)\r\n    {\r\n       if(govBlocksDapps[dAppName].authGBAddress == _memberAddress)\r\n          auth = 1;\r\n    } \r\n\r\n    /// @dev Transfers ownership to new owner (of GBT contract address)\r\n    /// @param _newOwner Address of new owner\r\n    function transferOwnership(address _newOwner) onlyOwner  \r\n    {\r\n      owner = _newOwner;\r\n    }\r\n\r\n    /// @dev Updates GBT contract address\r\n    /// @param _GBTContractAddress New GBT contract address\r\n    function updateGBTAddress(address _GBTContractAddress) onlyOwner\r\n    {\r\n        GBTAddress=_GBTContractAddress;\r\n        for(uint i=0;i<allGovBlocksUsers.length; i++)\r\n        {\r\n          address masterAddress = govBlocksDapps[allGovBlocksUsers[i]].masterAddress;\r\n          MS=Master(masterAddress);\r\n          MS.changeGBTAddress(_GBTContractAddress);\r\n        }  \r\n    }\r\n\r\n\r\n    /// @dev Updates GovBlocks master address\r\n    /// @param _newGBMAddress New GovBlocks master address\r\n    function updateGBMAddress(address _newGBMAddress) onlyOwner\r\n    {\r\n        for(uint i=0;i<allGovBlocksUsers.length; i++)\r\n        {\r\n            address masterAddress = govBlocksDapps[allGovBlocksUsers[i]].masterAddress;\r\n            MS=Master(masterAddress);\r\n            MS.changeGBMAddress(_newGBMAddress);\r\n        }\r\n    }\r\n\r\n    /// @dev Adds GovBlocks user\r\n    /// @param _gbUserName  GovBlocks username\r\n    /// @param _dappTokenAddress dApp token address\r\n    /// @param _dappDescriptionHash dApp description hash\r\n    function addGovBlocksUser(bytes32 _gbUserName,address _dappTokenAddress,string _dappDescriptionHash) \r\n    {\r\n        require(govBlocksDapps[_gbUserName].masterAddress==0x00);\r\n        address _newMasterAddress = new Master(address(this),_gbUserName);\r\n        allGovBlocksUsers.push(_gbUserName);  \r\n        govBlocksDapps[_gbUserName].masterAddress = _newMasterAddress;\r\n        govBlocksDapps[_gbUserName].tokenAddress = _dappTokenAddress;\r\n        govBlocksDapps[_gbUserName].dappDescHash = _dappDescriptionHash;\r\n        govBlocksDappByAddress[_newMasterAddress] = _gbUserName;\r\n        govBlocksDappByAddress[_dappTokenAddress] = _gbUserName;\r\n        MS=Master(_newMasterAddress);\r\n        MS.setOwner(msg.sender);\r\n    }\r\n\r\n    /// @dev Changes dApp master address\r\n    /// @param _gbUserName GovBlocks username\r\n    /// @param _newMasterAddress dApp new master address\r\n    function changeDappMasterAddress(bytes32 _gbUserName,address _newMasterAddress)\r\n    {\r\n      if( govBlocksDapps[_gbUserName].masterAddress == 0x000)\r\n        {       \r\n            govBlocksDapps[_gbUserName].masterAddress = _newMasterAddress;\r\n            govBlocksDappByAddress[_newMasterAddress] = _gbUserName;\r\n        }\r\n      else\r\n        {            \r\n            if(msg.sender ==  govBlocksDapps[_gbUserName].masterAddress)\r\n                {\r\n                    govBlocksDapps[_gbUserName].masterAddress = _newMasterAddress;\r\n                govBlocksDappByAddress[_newMasterAddress] = _gbUserName;\r\n            }\r\n            else\r\n                throw;\r\n        }   \r\n    }\r\n\r\n    /// @dev Changes dApp token address\r\n    /// @param _gbUserName  GovBlocks username\r\n    /// @param _dappTokenAddress dApp new token address\r\n    function changeDappTokenAddress(bytes32 _gbUserName,address _dappTokenAddress)\r\n    {\r\n       if( govBlocksDapps[_gbUserName].tokenAddress == 0x000)\r\n       {\r\n            govBlocksDapps[_gbUserName].tokenAddress = _dappTokenAddress;\r\n            govBlocksDappByAddress[_dappTokenAddress] = _gbUserName;\r\n        }\r\n       else\r\n        {            \r\n            if(msg.sender ==  govBlocksDapps[_gbUserName].masterAddress)\r\n                {\r\n                    govBlocksDapps[_gbUserName].tokenAddress = _dappTokenAddress;\r\n                    govBlocksDappByAddress[_dappTokenAddress] = _gbUserName;\r\n            }\r\n            else\r\n                throw;\r\n        }   \r\n    }\r\n \r\n    // /// @dev Changes dApp description hash\r\n    // /// @param _gbUserName GovBlocks username\r\n    // /// @param _dappDescriptionHash dApp new description hash\r\n    // function changeDappDescHash(bytes32 _gbUserName,string _dappDescriptionHash)\r\n    // { \r\n    //     if(msg.sender ==  govBlocksDapps[_gbUserName].masterAddress)\r\n    //     {\r\n    //         govBlocksDapps[_gbUserName].dappDescHash = _dappDescriptionHash;\r\n    //     }\r\n    //     else\r\n    //         throw;\r\n    // }\r\n\r\n    /// @dev Sets byte code and abi\r\n    /// @param _byteCodeHash Byte code hash\r\n    /// @param _abiHash Abi hash\r\n    function setByteCodeAndAbi(string _byteCodeHash,string _abiHash) onlyOwner\r\n    {\r\n        byteCodeHash = _byteCodeHash;\r\n        contractsAbiHash = _abiHash;\r\n    }\r\n\r\n    /// @dev Changes all below address\r\n    /// @param _GDAddress Governance data new address\r\n    /// @param _SVAddress Standard voting new address\r\n    /// @param _GOVAddress Governance new address\r\n    // function changeAllAddress(address _GDAddress,address _SVAddress,address _GOVAddress) onlyOwner\r\n    // {\r\n    //    GDAddress = _GDAddress;\r\n    //    SVAddress = _SVAddress;\r\n    //    GOVAddress = _GOVAddress;\r\n    // }\r\n    \r\n    /// @dev Sets hash value for dApp user\r\n    /// @param _hash Hash value \r\n    function setDappUser(string _hash)\r\n    {\r\n       govBlocksUser[msg.sender] = _hash;\r\n    }\r\n\r\n    // /// @dev Gets byte code and abi hash\r\n    // /// @param byteCode Byte code \r\n    // /// @param abiHash Application binary interface hash\r\n    // function getByteCodeAndAbi()constant returns(string byteCode, string abiHash)\r\n    // {\r\n    //   return (byteCodeHash,contractsAbiHash);\r\n    // }\r\n\r\n    /// @dev Gets GovBlocks user details\r\n    /// @param _gbUserName GovBlocks username\r\n    /// @return GbUserName GovBlocks username\r\n    /// @return masterContractAddress Master contract address of dApp\r\n    /// @return allContractsbyteCodeHash All contracts byte code hash\r\n    /// @return allCcontractsAbiHash All contracts abi hash\r\n    /// @return versionNo Verson number of dApp\r\n    function getGovBlocksUserDetails(bytes32 _gbUserName) constant returns(bytes32 GbUserName,address masterContractAddress,string allContractsbyteCodeHash,string allCcontractsAbiHash,uint versionNo)\r\n    {\r\n        address master = govBlocksDapps[_gbUserName].masterAddress;\r\n        if(master == 0x00)\r\n            return(GbUserName,0x00,\"\",\"\",0);\r\n        else\r\n            MS=Master(master);\r\n            versionNo = MS.versionLength();\r\n            return (_gbUserName,govBlocksDapps[_gbUserName].masterAddress,byteCodeHash,contractsAbiHash,versionNo);\r\n    }\r\n\r\n    /// @dev Gets GovBlocks user details by index\r\n    /// @param _index Index to fetch user details\r\n    /// @return index Index\r\n    /// @return GbUserName GovBlocks username\r\n    /// @return MasterContractAddress Master contract address\r\n    function getGovBlocksUserDetailsByIndex(uint _index) constant returns(uint index,bytes32 GbUserName,address MasterContractAddress)\r\n    {\r\n       return (_index,allGovBlocksUsers[_index],govBlocksDapps[allGovBlocksUsers[_index]].masterAddress);\r\n    }\r\n\r\n    /// @dev Gets GovBlocks user details (another function)\r\n    /// @param _gbUserName GovBlocks username whose details need to be fetched\r\n    /// @return GbUserName GovBlocks username \r\n    /// @return masterContractAddress Master contract address\r\n    /// @return dappTokenAddress dApp token address\r\n    /// @return allContractsbyteCodeHash All contracts byte code hash\r\n    /// @return allCcontractsAbiHash All contract abi hash\r\n    /// @return versionNo Version number\r\n    function getGovBlocksUserDetails1(bytes32 _gbUserName)constant returns(bytes32 GbUserName,address masterContractAddress,address dappTokenAddress,string allContractsbyteCodeHash,string allCcontractsAbiHash,uint versionNo)\r\n    {\r\n        address master = govBlocksDapps[_gbUserName].masterAddress;\r\n        if(master == 0x00)\r\n            return(GbUserName,0x00,0x00,\"\",\"\",0);\r\n        else\r\n            MS=Master(master);\r\n            versionNo = MS.versionLength();\r\n            return (_gbUserName,govBlocksDapps[_gbUserName].masterAddress,govBlocksDapps[_gbUserName].tokenAddress,byteCodeHash,contractsAbiHash,versionNo);\r\n    }\r\n\r\n    /// @dev Gets GovBlocks user details (another function)\r\n    /// @param _Address Address of the dApp whose details need to be fetched\r\n    /// @return dappName dApp name\r\n    /// @return masterContractAddress Master contract address of dApp\r\n    /// @return dappTokenAddress dApp's token address\r\n    function getGovBlocksUserDetails2(address _Address)constant returns(bytes32 dappName,address masterContractAddress,address dappTokenAddress)\r\n    {\r\n       dappName = govBlocksDappByAddress[_Address];\r\n       return (dappName,govBlocksDapps[dappName].masterAddress,govBlocksDapps[dappName].tokenAddress);\r\n    }\r\n\r\n    /// @dev Gets dApp description hash\r\n    /// @param _gbUserName GovBlocks username\r\n    /// @return govBlocksDapps[_gbUserName].dappDescHash GovBlocks description hash\r\n    function getDappDescHash(bytes32 _gbUserName)constant returns(string)\r\n    {\r\n        return govBlocksDapps[_gbUserName].dappDescHash;\r\n    }\r\n\r\n    /// @dev Gets all GovBlocks users length\r\n    /// @return allGovBlocksUsers.length All GovBlocks users length\r\n    function getAllDappLength()constant returns(uint)\r\n    {\r\n       return (allGovBlocksUsers.length);\r\n    }\r\n\r\n    /// @dev Gets dApps users by index\r\n    function getAllDappById(uint _gbIndex)constant returns (bytes32 _gbUserName)\r\n    {\r\n       return (allGovBlocksUsers[_gbIndex]);\r\n    }\r\n\r\n    /// @dev Gets all dApps users\r\n    function getAllDappArray()constant returns(bytes32[])\r\n    {\r\n       return (allGovBlocksUsers);\r\n    }\r\n\r\n    /// @dev Gets dApp username\r\n    function getDappUser()constant returns (string)\r\n    {\r\n       return (govBlocksUser[msg.sender]);\r\n    }\r\n\r\n    /// @dev Gets dApp master address of dApp (username=govBlocksUser)\r\n    function getDappMasterAddress(bytes32 _gbUserName)constant returns(address masterAddress)\r\n    {\r\n        return (govBlocksDapps[_gbUserName].masterAddress);\r\n    }\r\n\r\n    /// @dev Gets dApp token address of dApp (username=govBlocksUser)\r\n    function getDappTokenAddress(bytes32 _gbUserName)constant returns(address tokenAddres)\r\n    {\r\n        return (govBlocksDapps[_gbUserName].tokenAddress);\r\n    }\r\n\r\n    /// @dev Gets dApp username by address\r\n    function getDappNameByAddress(address _contractAddress)constant returns(bytes32)\r\n    {\r\n            return govBlocksDappByAddress[_contractAddress];\r\n    }\r\n\r\n    /// @dev Gets GBT address \r\n    function getGBTAddress()constant returns(address)\r\n    {\r\n       return GBTAddress;\r\n    }\r\n\r\n    \r\n    // ACTION AFTER PROPOSAL PASS function\r\n\r\n\r\n    /// @dev Adds new member roles in GovBlocks\r\n    /// @param _gbUserName GovBlocks new username\r\n    /// @param _newRoleName GovBlocks new role name\r\n    /// @param _roleDescription GovBlocks new description hash\r\n    function addNewMemberRoleGB(bytes32 _gbUserName,bytes32 _newRoleName,string _roleDescription, address _canAddMembers) \r\n    {\r\n        require(isAuthorizedGBOwner(_gbUserName,msg.sender) == 1);\r\n        address master = govBlocksDapps[_gbUserName].masterAddress; address MRAddress;\r\n        MS=Master(master);\r\n        uint16 versionNo = MS.versionLength()-1; \r\n        MRAddress = MS.allContractVersions(versionNo,\"MR\");\r\n        MR=memberRoles(MRAddress);\r\n        MR.addNewMemberRole(_newRoleName, _roleDescription, _canAddMembers);\r\n    }\r\n\r\n    /// @dev Updates member roles in GovBlocks\r\n    /// @param _gbUserName GovBlocks new username\r\n    /// @param _memberAddress New members address\r\n    /// @param _memberRoleId New members role id\r\n    /// @param _typeOf Typeof role of the member\r\n    function updateMemberRoleGB(bytes32 _gbUserName,address _memberAddress,uint _memberRoleId,uint8 _typeOf) \r\n    {\r\n        require(isAuthorizedGBOwner(_gbUserName,msg.sender) == 1);\r\n        address master = govBlocksDapps[_gbUserName].masterAddress; address MRAddress;\r\n        MS=Master(master);\r\n        uint16 versionNo = MS.versionLength()-1; \r\n        MRAddress = MS.allContractVersions(versionNo,\"MR\");\r\n        MR=memberRoles(MRAddress);\r\n        MR.updateMemberRole(_memberAddress,_memberRoleId,_typeOf);\r\n    }\r\n    \r\n    /// @dev Adds new category in GovBlocks\r\n    /// @param _gbUserName GovBlocks username\r\n    /// @param _descHash GovBlocks description hash\r\n    function addNewCategoryGB(bytes32 _gbUserName,string _descHash) \r\n    {\r\n        require(isAuthorizedGBOwner(_gbUserName,msg.sender) == 1);\r\n        address master = govBlocksDapps[_gbUserName].masterAddress; address PCAddress;\r\n        MS=Master(master);\r\n        uint16 versionNo = MS.versionLength()-1; \r\n        PCAddress = MS.allContractVersions(versionNo,\"PC\");\r\n        PC=ProposalCategory(PCAddress);\r\n        // PC.addNewCategory(_descHash);\r\n    }\r\n\r\n    /// @dev Updates category in GovBlocks\r\n    /// @param _gbUserName GovBlocks username\r\n    /// @param _categoryId Category id \r\n    /// @param _categoryData Category data\r\n    function updateCategoryGB(bytes32 _gbUserName,uint _categoryId,string _categoryData) \r\n    {\r\n        require(isAuthorizedGBOwner(_gbUserName,msg.sender) == 1);\r\n        address master = govBlocksDapps[_gbUserName].masterAddress; address PCAddress;\r\n        MS=Master(master);\r\n        uint16 versionNo = MS.versionLength()-1; \r\n        PCAddress = MS.allContractVersions(versionNo,\"PC\");\r\n        PC=ProposalCategory(PCAddress);\r\n        PC.updateCategory(_categoryId,_categoryData);\r\n    }\r\n\r\n    /// @dev Configures global parameters for reputation weights\r\n    /// @param _gbUserName GovBlocks username\r\n    /// @param _typeOf Typeof role of the member\r\n    /// @param _value Quorum percentage value\r\n    function configureGlobalParameters(bytes32 _gbUserName,bytes16 _typeOf,uint32 _value)\r\n    {\r\n        require(isAuthorizedGBOwner(_gbUserName,msg.sender) == 1);\r\n        address master = govBlocksDapps[_gbUserName].masterAddress; address GDAddress;\r\n        MS=Master(master);\r\n        uint16 versionNo = MS.versionLength()-1; \r\n        GDAddress = MS.allContractVersions(versionNo,\"GD\");\r\n        GD=governanceData(GDAddress);\r\n\r\n        if(_typeOf == \"APO\")\r\n        {\r\n          GD.changeProposalOwnerAdd(_value);\r\n        }\r\n        else if(_typeOf == \"AOO\")\r\n        {\r\n          GD.changeSolutionOwnerAdd(_value);\r\n        }\r\n        else if(_typeOf == \"AVM\")\r\n        {\r\n          GD.changeMemberAdd(_value);\r\n        }\r\n        else if(_typeOf == \"SPO\")\r\n        {\r\n          GD.changeProposalOwnerSub(_value);\r\n        }\r\n        else if(_typeOf == \"SOO\")\r\n        {\r\n          GD.changeSolutionOwnerSub(_value);\r\n        }\r\n        else if(_typeOf == \"SVM\")\r\n        {\r\n          GD.changeMemberSub(_value);\r\n        }//\r\n        else if(_typeOf == \"GBTS\")\r\n        {\r\n          GD.changeGBTStakeValue(_value);\r\n        }\r\n        else if(_typeOf == \"RF\")\r\n        {\r\n          GD.changeGlobalRiskFactor(_value);\r\n        }\r\n         else if(_typeOf == \"MSF\")\r\n        {\r\n          GD.changeMembershipScalingFator(_value);\r\n        }\r\n        else if(_typeOf == \"SW\")\r\n        {\r\n          GD.changeScalingWeight(_value);\r\n        }\r\n        else if(_typeOf == \"QP\")\r\n        {\r\n          GD.changeQuorumPercentage(_value);\r\n        }\r\n    }\r\n}",
  "sourcePath": "D:\\RUCHITA\\GovBlocks-Protocol Access-Modifiers\\contracts\\GovBlocksMaster.sol",
  "compiler": {
    "name": "solc",
    "version": "0.4.18+commit.9cf6e910.Emscripten.clang"
  },
  "schemaVersion": "1.0.1",
  "updatedAt": "2018-04-24T10:21:38.791Z"
}