{
  "contractName": "GovBlocksMaster",
  "abi": [
    {
      "constant": false,
      "inputs": [
        {
          "name": "_MasterUserAddress",
          "type": "address"
        }
      ],
      "name": "setGovBlocksMaster",
      "outputs": [],
      "payable": false,
      "stateMutability": "nonpayable",
      "type": "function"
    },
    {
      "constant": false,
      "inputs": [
        {
          "name": "_tokenAddress",
          "type": "address"
        },
        {
          "name": "_masterAddress",
          "type": "address"
        }
      ],
      "name": "addGovBlocksUser",
      "outputs": [],
      "payable": false,
      "stateMutability": "nonpayable",
      "type": "function"
    },
    {
      "constant": true,
      "inputs": [
        {
          "name": "_Id",
          "type": "uint256"
        }
      ],
      "name": "getGovBlocksUserDetails",
      "outputs": [
        {
          "name": "TokenAddress",
          "type": "address"
        },
        {
          "name": "MasterContractAddress",
          "type": "address"
        }
      ],
      "payable": false,
      "stateMutability": "view",
      "type": "function"
    },
    {
      "constant": true,
      "inputs": [],
      "name": "owner",
      "outputs": [
        {
          "name": "",
          "type": "address"
        }
      ],
      "payable": false,
      "stateMutability": "view",
      "type": "function"
    },
    {
      "constant": false,
      "inputs": [
        {
          "name": "_newOwner",
          "type": "address"
        }
      ],
      "name": "transferOwnership",
      "outputs": [],
      "payable": false,
      "stateMutability": "nonpayable",
      "type": "function"
    },
    {
      "constant": false,
      "inputs": [
        {
          "name": "_GNTContractAddress",
          "type": "address"
        }
      ],
      "name": "updateGNTAddress",
      "outputs": [],
      "payable": false,
      "stateMutability": "nonpayable",
      "type": "function"
    }
  ],
  "bytecode": "0x6060604052341561000f57600080fd5b6108b78061001e6000396000f300606060405260043610610078576000357c0100000000000000000000000000000000000000000000000000000000900463ffffffff16806339fe42ad1461007d578063798b3672146100b65780637c5e0e3e1461010e5780638da5cb5b146101a4578063f2fde38b146101f9578063f5be70a314610232575b600080fd5b341561008857600080fd5b6100b4600480803573ffffffffffffffffffffffffffffffffffffffff1690602001909190505061026b565b005b34156100c157600080fd5b61010c600480803573ffffffffffffffffffffffffffffffffffffffff1690602001909190803573ffffffffffffffffffffffffffffffffffffffff1690602001909190505061030a565b005b341561011957600080fd5b61012f6004808035906020019091905050610465565b604051808373ffffffffffffffffffffffffffffffffffffffff1673ffffffffffffffffffffffffffffffffffffffff1681526020018273ffffffffffffffffffffffffffffffffffffffff1673ffffffffffffffffffffffffffffffffffffffff1681526020019250505060405180910390f35b34156101af57600080fd5b6101b76104f3565b604051808273ffffffffffffffffffffffffffffffffffffffff1673ffffffffffffffffffffffffffffffffffffffff16815260200191505060405180910390f35b341561020457600080fd5b610230600480803573ffffffffffffffffffffffffffffffffffffffff16906020019091905050610519565b005b341561023d57600080fd5b610269600480803573ffffffffffffffffffffffffffffffffffffffff169060200190919050506105b9565b005b6000600260009054906101000a900473ffffffffffffffffffffffffffffffffffffffff1673ffffffffffffffffffffffffffffffffffffffff161415156102b257600080fd5b73ed2f74e1fb73b775e6e35720869ae7a7f4d755ad600260006101000a81548173ffffffffffffffffffffffffffffffffffffffff021916908373ffffffffffffffffffffffffffffffffffffffff16021790555050565b600260009054906101000a900473ffffffffffffffffffffffffffffffffffffffff1673ffffffffffffffffffffffffffffffffffffffff163373ffffffffffffffffffffffffffffffffffffffff1614151561036657600080fd5b6003805480600101828161037a91906107ec565b9160005260206000209060020201600060408051908101604052808673ffffffffffffffffffffffffffffffffffffffff1681526020018573ffffffffffffffffffffffffffffffffffffffff16815250909190915060008201518160000160006101000a81548173ffffffffffffffffffffffffffffffffffffffff021916908373ffffffffffffffffffffffffffffffffffffffff16021790555060208201518160010160006101000a81548173ffffffffffffffffffffffffffffffffffffffff021916908373ffffffffffffffffffffffffffffffffffffffff1602179055505050505050565b60008060038381548110151561047757fe5b906000526020600020906002020160000160009054906101000a900473ffffffffffffffffffffffffffffffffffffffff1691506003838154811015156104ba57fe5b906000526020600020906002020160010160009054906101000a900473ffffffffffffffffffffffffffffffffffffffff169050915091565b600260009054906101000a900473ffffffffffffffffffffffffffffffffffffffff1681565b600260009054906101000a900473ffffffffffffffffffffffffffffffffffffffff1673ffffffffffffffffffffffffffffffffffffffff163373ffffffffffffffffffffffffffffffffffffffff1614151561057557600080fd5b80600260006101000a81548173ffffffffffffffffffffffffffffffffffffffff021916908373ffffffffffffffffffffffffffffffffffffffff16021790555050565b6000600260009054906101000a900473ffffffffffffffffffffffffffffffffffffffff1673ffffffffffffffffffffffffffffffffffffffff163373ffffffffffffffffffffffffffffffffffffffff1614151561061757600080fd5b600090505b6003805490508110156107e85760038181548110151561063857fe5b906000526020600020906002020160010160009054906101000a900473ffffffffffffffffffffffffffffffffffffffff166000806101000a81548173ffffffffffffffffffffffffffffffffffffffff021916908373ffffffffffffffffffffffffffffffffffffffff1602179055506000809054906101000a900473ffffffffffffffffffffffffffffffffffffffff16600160006101000a81548173ffffffffffffffffffffffffffffffffffffffff021916908373ffffffffffffffffffffffffffffffffffffffff160217905550600160009054906101000a900473ffffffffffffffffffffffffffffffffffffffff1673ffffffffffffffffffffffffffffffffffffffff16639d54e9a8836040518263ffffffff167c0100000000000000000000000000000000000000000000000000000000028152600401808273ffffffffffffffffffffffffffffffffffffffff1673ffffffffffffffffffffffffffffffffffffffff168152602001915050600060405180830381600087803b15156107c757600080fd5b6102c65a03f115156107d857600080fd5b505050808060010191505061061c565b5050565b81548183558181151161081957600202816002028360005260206000209182019101610818919061081e565b5b505050565b61088891905b8082111561088457600080820160006101000a81549073ffffffffffffffffffffffffffffffffffffffff02191690556001820160006101000a81549073ffffffffffffffffffffffffffffffffffffffff021916905550600201610824565b5090565b905600a165627a7a72305820cd2987a8cd3f9b9d0ccbd461037188e286e5268f96e9ea5469a5835cd3cecb200029",
  "source": "/* Copyright (C) 2017 GovBlocks.io\r\n\r\n  This program is free software: you can redistribute it and/or modify\r\n    it under the terms of the GNU General Public License as published by\r\n    the Free Software Foundation, either version 3 of the License, or\r\n    (at your option) any later version.\r\n\r\n  This program is distributed in the hope that it will be useful,\r\n    but WITHOUT ANY WARRANTY; without even the implied warranty of\r\n    MERCHANTABILITY or FITNESS FOR A PARTICULAR PURPOSE.  See the\r\n    GNU General Public License for more details.\r\n\r\n  You should have received a copy of the GNU General Public License\r\n    along with this program.  If not, see http://www.gnu.org/licenses/ */\r\n\r\n\r\npragma solidity ^0.4.8;\r\nimport \"./Master.sol\";\r\n\r\ncontract GovBlocksMaster \r\n{\r\n    address MasterAddress;\r\n    Master MS;\r\n    address public owner;\r\n  \r\n    struct govBlocksUsers\r\n    {\r\n      address tokenAddress;\r\n      address masterAddress;\r\n    }\r\n\r\n    govBlocksUsers[] allGovBlocksUsers;\r\n\r\n    function setGovBlocksMaster(address _MasterUserAddress) \r\n    {\r\n      require(owner == 0x00);\r\n      owner = 0xed2f74e1fb73b775e6e35720869ae7a7f4d755ad;\r\n    }\r\n\r\n    modifier onlyOwner() \r\n    {\r\n      require(msg.sender == owner);\r\n      _;\r\n    }\r\n\r\n    function transferOwnership(address _newOwner) onlyOwner public \r\n    {\r\n      owner = _newOwner;\r\n    }\r\n\r\n    function updateGNTAddress(address _GNTContractAddress) onlyOwner\r\n    {\r\n        for(uint i=0; i< allGovBlocksUsers.length; i++)\r\n        {\r\n           MasterAddress = allGovBlocksUsers[i].masterAddress;\r\n           MS=Master(MasterAddress);\r\n           MS.changeGNTAddress(_GNTContractAddress);\r\n        }\r\n    }\r\n\r\n    function addGovBlocksUser(address _tokenAddress,address _masterAddress) onlyOwner\r\n    {\r\n        allGovBlocksUsers.push(govBlocksUsers(_tokenAddress,_masterAddress));   \r\n    }\r\n\r\n    function getGovBlocksUserDetails(uint _Id) constant returns(address TokenAddress,address MasterContractAddress)\r\n    {\r\n        TokenAddress = allGovBlocksUsers[_Id].tokenAddress;\r\n        MasterContractAddress = allGovBlocksUsers[_Id].masterAddress;\r\n    }\r\n\r\n}",
  "sourcePath": "D:\\2. GovBlocks Contracts\\GovBlocks Git-Master\\contracts\\GovBlocksMaster.sol",
  "compiler": {
    "name": "solc",
    "version": "0.4.18+commit.9cf6e910.Emscripten.clang"
  },
  "schemaVersion": "1.0.1",
  "updatedAt": "2018-01-10T09:40:38.594Z"
}