{
  "contractName": "GovBlocksMaster",
  "abi": [
    {
      "constant": false,
      "inputs": [
        {
          "name": "_MasterUserAddress",
          "type": "address"
        }
      ],
      "name": "setGovBlocksMaster",
      "outputs": [],
      "payable": false,
      "stateMutability": "nonpayable",
      "type": "function"
    },
    {
      "constant": false,
      "inputs": [
        {
          "name": "_tokenAddress",
          "type": "address"
        },
        {
          "name": "_masterAddress",
          "type": "address"
        }
      ],
      "name": "addGovBlocksUser",
      "outputs": [],
      "payable": false,
      "stateMutability": "nonpayable",
      "type": "function"
    },
    {
      "constant": true,
      "inputs": [
        {
          "name": "_Id",
          "type": "uint256"
        }
      ],
      "name": "getGovBlocksUserDetails",
      "outputs": [
        {
          "name": "TokenAddress",
          "type": "address"
        },
        {
          "name": "MasterContractAddress",
          "type": "address"
        }
      ],
      "payable": false,
      "stateMutability": "view",
      "type": "function"
    },
    {
      "constant": true,
      "inputs": [],
      "name": "owner",
      "outputs": [
        {
          "name": "",
          "type": "address"
        }
      ],
      "payable": false,
      "stateMutability": "view",
      "type": "function"
    },
    {
      "constant": false,
      "inputs": [
        {
          "name": "_newOwner",
          "type": "address"
        }
      ],
      "name": "transferOwnership",
      "outputs": [],
      "payable": false,
      "stateMutability": "nonpayable",
      "type": "function"
    },
    {
      "constant": false,
      "inputs": [
        {
          "name": "_GNTContractAddress",
          "type": "address"
        }
      ],
      "name": "updateGNTAddress",
      "outputs": [],
      "payable": false,
      "stateMutability": "nonpayable",
      "type": "function"
    }
  ],
  "bytecode": "0x6060604052341561000f57600080fd5b6108928061001e6000396000f300606060405260043610610078576000357c0100000000000000000000000000000000000000000000000000000000900463ffffffff16806368ecf4801461007d578063798b3672146100925780637c5e0e3e146100ea5780638da5cb5b14610180578063f2fde38b146101d5578063f5be70a31461020e575b600080fd5b341561008857600080fd5b610090610247565b005b341561009d57600080fd5b6100e8600480803573ffffffffffffffffffffffffffffffffffffffff1690602001909190803573ffffffffffffffffffffffffffffffffffffffff169060200190919050506102e5565b005b34156100f557600080fd5b61010b6004808035906020019091905050610440565b604051808373ffffffffffffffffffffffffffffffffffffffff1673ffffffffffffffffffffffffffffffffffffffff1681526020018273ffffffffffffffffffffffffffffffffffffffff1673ffffffffffffffffffffffffffffffffffffffff1681526020019250505060405180910390f35b341561018b57600080fd5b6101936104ce565b604051808273ffffffffffffffffffffffffffffffffffffffff1673ffffffffffffffffffffffffffffffffffffffff16815260200191505060405180910390f35b34156101e057600080fd5b61020c600480803573ffffffffffffffffffffffffffffffffffffffff169060200190919050506104f4565b005b341561021957600080fd5b610245600480803573ffffffffffffffffffffffffffffffffffffffff16906020019091905050610594565b005b6000600260009054906101000a900473ffffffffffffffffffffffffffffffffffffffff1673ffffffffffffffffffffffffffffffffffffffff1614151561028e57600080fd5b73ed2f74e1fb73b775e6e35720869ae7a7f4d755ad600260006101000a81548173ffffffffffffffffffffffffffffffffffffffff021916908373ffffffffffffffffffffffffffffffffffffffff160217905550565b600260009054906101000a900473ffffffffffffffffffffffffffffffffffffffff1673ffffffffffffffffffffffffffffffffffffffff163373ffffffffffffffffffffffffffffffffffffffff1614151561034157600080fd5b6003805480600101828161035591906107c7565b9160005260206000209060020201600060408051908101604052808673ffffffffffffffffffffffffffffffffffffffff1681526020018573ffffffffffffffffffffffffffffffffffffffff16815250909190915060008201518160000160006101000a81548173ffffffffffffffffffffffffffffffffffffffff021916908373ffffffffffffffffffffffffffffffffffffffff16021790555060208201518160010160006101000a81548173ffffffffffffffffffffffffffffffffffffffff021916908373ffffffffffffffffffffffffffffffffffffffff1602179055505050505050565b60008060038381548110151561045257fe5b906000526020600020906002020160000160009054906101000a900473ffffffffffffffffffffffffffffffffffffffff16915060038381548110151561049557fe5b906000526020600020906002020160010160009054906101000a900473ffffffffffffffffffffffffffffffffffffffff169050915091565b600260009054906101000a900473ffffffffffffffffffffffffffffffffffffffff1681565b600260009054906101000a900473ffffffffffffffffffffffffffffffffffffffff1673ffffffffffffffffffffffffffffffffffffffff163373ffffffffffffffffffffffffffffffffffffffff1614151561055057600080fd5b80600260006101000a81548173ffffffffffffffffffffffffffffffffffffffff021916908373ffffffffffffffffffffffffffffffffffffffff16021790555050565b6000600260009054906101000a900473ffffffffffffffffffffffffffffffffffffffff1673ffffffffffffffffffffffffffffffffffffffff163373ffffffffffffffffffffffffffffffffffffffff161415156105f257600080fd5b600090505b6003805490508110156107c35760038181548110151561061357fe5b906000526020600020906002020160010160009054906101000a900473ffffffffffffffffffffffffffffffffffffffff166000806101000a81548173ffffffffffffffffffffffffffffffffffffffff021916908373ffffffffffffffffffffffffffffffffffffffff1602179055506000809054906101000a900473ffffffffffffffffffffffffffffffffffffffff16600160006101000a81548173ffffffffffffffffffffffffffffffffffffffff021916908373ffffffffffffffffffffffffffffffffffffffff160217905550600160009054906101000a900473ffffffffffffffffffffffffffffffffffffffff1673ffffffffffffffffffffffffffffffffffffffff16639d54e9a8836040518263ffffffff167c0100000000000000000000000000000000000000000000000000000000028152600401808273ffffffffffffffffffffffffffffffffffffffff1673ffffffffffffffffffffffffffffffffffffffff168152602001915050600060405180830381600087803b15156107a257600080fd5b6102c65a03f115156107b357600080fd5b50505080806001019150506105f7565b5050565b8154818355818115116107f4576002028160020283600052602060002091820191016107f391906107f9565b5b505050565b61086391905b8082111561085f57600080820160006101000a81549073ffffffffffffffffffffffffffffffffffffffff02191690556001820160006101000a81549073ffffffffffffffffffffffffffffffffffffffff0219169055506002016107ff565b5090565b905600a165627a7a72305820c22332b487eb129ff06c2ada5be8f74c8c2961bf851754dcc292955ce35994570029",
  "source": "/* Copyright (C) 2017 GovBlocks.io\r\n\r\n  This program is free software: you can redistribute it and/or modify\r\n    it under the terms of the GNU General Public License as published by\r\n    the Free Software Foundation, either version 3 of the License, or\r\n    (at your option) any later version.\r\n\r\n  This program is distributed in the hope that it will be useful,\r\n    but WITHOUT ANY WARRANTY; without even the implied warranty of\r\n    MERCHANTABILITY or FITNESS FOR A PARTICULAR PURPOSE.  See the\r\n    GNU General Public License for more details.\r\n\r\n  You should have received a copy of the GNU General Public License\r\n    along with this program.  If not, see http://www.gnu.org/licenses/ */\r\n\r\n\r\npragma solidity ^0.4.8;\r\nimport \"./Master.sol\";\r\n\r\ncontract GovBlocksMaster \r\n{\r\n    address MasterAddress;\r\n    Master MS;\r\n    address public owner;\r\n  \r\n    struct govBlocksUsers\r\n    {\r\n      address tokenAddress;\r\n      address masterAddress;\r\n    }\r\n\r\n    govBlocksUsers[] allGovBlocksUsers;\r\n\r\n    function setGovBlocksMaster() \r\n    {\r\n      require(owner == 0x00);\r\n      owner = 0xed2f74e1fb73b775e6e35720869ae7a7f4d755ad; \r\n    } \r\n\r\n    modifier onlyOwner() \r\n    {\r\n      require(msg.sender == owner);\r\n      _;\r\n    }\r\n\r\n    function transferOwnership(address _newOwner) onlyOwner public \r\n    {\r\n      owner = _newOwner;\r\n    }\r\n\r\n    function updateGNTAddress(address _GNTContractAddress) onlyOwner\r\n    {\r\n        for(uint i=0; i< allGovBlocksUsers.length; i++)\r\n        {\r\n           MasterAddress = allGovBlocksUsers[i].masterAddress;\r\n           MS=Master(MasterAddress);\r\n           MS.changeGNTAddress(_GNTContractAddress);\r\n        }\r\n    }\r\n\r\n    function addGovBlocksUser(address _tokenAddress,address _masterAddress) onlyOwner\r\n    {\r\n        allGovBlocksUsers.push(govBlocksUsers(_tokenAddress,_masterAddress));   \r\n    }\r\n\r\n    function getGovBlocksUserDetails(uint _Id) constant returns(address TokenAddress,address MasterContractAddress)\r\n    {\r\n        TokenAddress = allGovBlocksUsers[_Id].tokenAddress;\r\n        MasterContractAddress = allGovBlocksUsers[_Id].masterAddress;\r\n    }\r\n\r\n}",
  "sourcePath": "D:\\2. GovBlocks Contracts\\GovBlocks Git-Master\\contracts\\GovBlocksMaster.sol",
  "compiler": {
    "name": "solc",
    "version": "0.4.18+commit.9cf6e910.Emscripten.clang"
  },
  "schemaVersion": "1.0.1",
  "updatedAt": "2018-01-11T12:20:43.875Z"
}