{
  "contractName": "GovBlocksMaster",
  "abi": [
    {
      "constant": false,
      "inputs": [
        {
          "name": "_masterId",
          "type": "uint256"
        }
      ],
      "name": "setGovBlocksOwnerInMaster",
      "outputs": [],
      "payable": false,
      "stateMutability": "nonpayable",
      "type": "function"
    },
    {
      "constant": false,
      "inputs": [
        {
          "name": "_masterId",
          "type": "uint256"
        },
        {
          "name": "_GBTContractAddress",
          "type": "address"
        }
      ],
      "name": "updateGBTAddress",
      "outputs": [],
      "payable": false,
      "stateMutability": "nonpayable",
      "type": "function"
    },
    {
      "constant": false,
      "inputs": [
        {
          "name": "_Id",
          "type": "uint256"
        }
      ],
      "name": "setGovBlocksMaster",
      "outputs": [
        {
          "name": "TokenAddress",
          "type": "address"
        },
        {
          "name": "MasterContractAddress",
          "type": "address"
        }
      ],
      "payable": false,
      "stateMutability": "nonpayable",
      "type": "function"
    },
    {
      "constant": false,
      "inputs": [
        {
          "name": "_tokenAddress",
          "type": "address"
        },
        {
          "name": "_masterAddress",
          "type": "address"
        }
      ],
      "name": "addGovBlocksUser",
      "outputs": [
        {
          "name": "",
          "type": "address"
        }
      ],
      "payable": false,
      "stateMutability": "nonpayable",
      "type": "function"
    },
    {
      "constant": true,
      "inputs": [
        {
          "name": "_Id",
          "type": "uint256"
        }
      ],
      "name": "getGovBlocksUserDetails",
      "outputs": [
        {
          "name": "TokenAddress",
          "type": "address"
        },
        {
          "name": "MasterContractAddress",
          "type": "address"
        }
      ],
      "payable": false,
      "stateMutability": "view",
      "type": "function"
    },
    {
      "constant": true,
      "inputs": [
        {
          "name": "_GNTContractAddress",
          "type": "address"
        }
      ],
      "name": "owner",
      "outputs": [
        {
          "name": "",
          "type": "address"
        }
      ],
      "payable": false,
      "stateMutability": "view",
      "type": "function"
    },
    {
      "constant": false,
      "inputs": [
        {
          "name": "_newOwner",
          "type": "address"
        }
      ],
      "name": "transferOwnership",
      "outputs": [],
      "payable": false,
      "stateMutability": "nonpayable",
      "type": "function"
    },
    {
      "constant": false,
      "inputs": [
        {
          "name": "_GBTContractAddress",
          "type": "address"
        }
      ],
      "name": "updateGBTAddress",
      "outputs": [],
      "payable": false,
      "stateMutability": "nonpayable",
      "type": "function"
    }
  ],
  "bytecode": "0x6060604052341561000f57600080fd5b610a828061001e6000396000f300606060405260043610610083576000357c0100000000000000000000000000000000000000000000000000000000900463ffffffff1680631d20b3ea146100885780633616fb93146100ab57806368ecf480146100ed578063798b3672146101025780637c5e0e3e1461015a5780638da5cb5b146101f0578063f2fde38b14610245575b600080fd5b341561009357600080fd5b6100a9600480803590602001909190505061027e565b005b34156100b657600080fd5b6100eb600480803590602001909190803573ffffffffffffffffffffffffffffffffffffffff16906020019091905050610458565b005b34156100f857600080fd5b61010061066a565b005b341561010d57600080fd5b610158600480803573ffffffffffffffffffffffffffffffffffffffff1690602001909190803573ffffffffffffffffffffffffffffffffffffffff16906020019091905050610708565b005b341561016557600080fd5b61017b6004808035906020019091905050610863565b604051808373ffffffffffffffffffffffffffffffffffffffff1673ffffffffffffffffffffffffffffffffffffffff1681526020018273ffffffffffffffffffffffffffffffffffffffff1673ffffffffffffffffffffffffffffffffffffffff1681526020019250505060405180910390f35b34156101fb57600080fd5b6102036108f1565b604051808273ffffffffffffffffffffffffffffffffffffffff1673ffffffffffffffffffffffffffffffffffffffff16815260200191505060405180910390f35b341561025057600080fd5b61027c600480803573ffffffffffffffffffffffffffffffffffffffff16906020019091905050610917565b005b600260009054906101000a900473ffffffffffffffffffffffffffffffffffffffff1673ffffffffffffffffffffffffffffffffffffffff163373ffffffffffffffffffffffffffffffffffffffff161415156102da57600080fd5b6003818154811015156102e957fe5b906000526020600020906002020160010160009054906101000a900473ffffffffffffffffffffffffffffffffffffffff166000806101000a81548173ffffffffffffffffffffffffffffffffffffffff021916908373ffffffffffffffffffffffffffffffffffffffff1602179055506000809054906101000a900473ffffffffffffffffffffffffffffffffffffffff16600160006101000a81548173ffffffffffffffffffffffffffffffffffffffff021916908373ffffffffffffffffffffffffffffffffffffffff160217905550600160009054906101000a900473ffffffffffffffffffffffffffffffffffffffff1673ffffffffffffffffffffffffffffffffffffffff16634e8043f76040518163ffffffff167c0100000000000000000000000000000000000000000000000000000000028152600401600060405180830381600087803b151561044157600080fd5b6102c65a03f1151561045257600080fd5b50505050565b600260009054906101000a900473ffffffffffffffffffffffffffffffffffffffff1673ffffffffffffffffffffffffffffffffffffffff163373ffffffffffffffffffffffffffffffffffffffff161415156104b457600080fd5b6003828154811015156104c357fe5b906000526020600020906002020160010160009054906101000a900473ffffffffffffffffffffffffffffffffffffffff166000806101000a81548173ffffffffffffffffffffffffffffffffffffffff021916908373ffffffffffffffffffffffffffffffffffffffff1602179055506000809054906101000a900473ffffffffffffffffffffffffffffffffffffffff16600160006101000a81548173ffffffffffffffffffffffffffffffffffffffff021916908373ffffffffffffffffffffffffffffffffffffffff160217905550600160009054906101000a900473ffffffffffffffffffffffffffffffffffffffff1673ffffffffffffffffffffffffffffffffffffffff1663284e4175826040518263ffffffff167c0100000000000000000000000000000000000000000000000000000000028152600401808273ffffffffffffffffffffffffffffffffffffffff1673ffffffffffffffffffffffffffffffffffffffff168152602001915050600060405180830381600087803b151561065257600080fd5b6102c65a03f1151561066357600080fd5b5050505050565b6000600260009054906101000a900473ffffffffffffffffffffffffffffffffffffffff1673ffffffffffffffffffffffffffffffffffffffff161415156106b157600080fd5b73ed2f74e1fb73b775e6e35720869ae7a7f4d755ad600260006101000a81548173ffffffffffffffffffffffffffffffffffffffff021916908373ffffffffffffffffffffffffffffffffffffffff160217905550565b600260009054906101000a900473ffffffffffffffffffffffffffffffffffffffff1673ffffffffffffffffffffffffffffffffffffffff163373ffffffffffffffffffffffffffffffffffffffff1614151561076457600080fd5b6003805480600101828161077891906109b7565b9160005260206000209060020201600060408051908101604052808673ffffffffffffffffffffffffffffffffffffffff1681526020018573ffffffffffffffffffffffffffffffffffffffff16815250909190915060008201518160000160006101000a81548173ffffffffffffffffffffffffffffffffffffffff021916908373ffffffffffffffffffffffffffffffffffffffff16021790555060208201518160010160006101000a81548173ffffffffffffffffffffffffffffffffffffffff021916908373ffffffffffffffffffffffffffffffffffffffff1602179055505050505050565b60008060038381548110151561087557fe5b906000526020600020906002020160000160009054906101000a900473ffffffffffffffffffffffffffffffffffffffff1691506003838154811015156108b857fe5b906000526020600020906002020160010160009054906101000a900473ffffffffffffffffffffffffffffffffffffffff169050915091565b600260009054906101000a900473ffffffffffffffffffffffffffffffffffffffff1681565b600260009054906101000a900473ffffffffffffffffffffffffffffffffffffffff1673ffffffffffffffffffffffffffffffffffffffff163373ffffffffffffffffffffffffffffffffffffffff1614151561097357600080fd5b80600260006101000a81548173ffffffffffffffffffffffffffffffffffffffff021916908373ffffffffffffffffffffffffffffffffffffffff16021790555050565b8154818355818115116109e4576002028160020283600052602060002091820191016109e391906109e9565b5b505050565b610a5391905b80821115610a4f57600080820160006101000a81549073ffffffffffffffffffffffffffffffffffffffff02191690556001820160006101000a81549073ffffffffffffffffffffffffffffffffffffffff0219169055506002016109ef565b5090565b905600a165627a7a72305820d3e238dcb621f912be6fe4745a571b2d7789502d5899515f38a67df19be2af2a0029",
  "source": "/* Copyright (C) 2017 GovBlocks.io\r\n\r\n  This program is free software: you can redistribute it and/or modify\r\n    it under the terms of the GNU General Public License as published by\r\n    the Free Software Foundation, either version 3 of the License, or\r\n    (at your option) any later version.\r\n\r\n  This program is distributed in the hope that it will be useful,\r\n    but WITHOUT ANY WARRANTY; without even the implied warranty of\r\n    MERCHANTABILITY or FITNESS FOR A PARTICULAR PURPOSE.  See the\r\n    GNU General Public License for more details.\r\n\r\n  You should have received a copy of the GNU General Public License\r\n    along with this program.  If not, see http://www.gnu.org/licenses/ */\r\n\r\n\r\npragma solidity ^0.4.8;\r\nimport \"./Master.sol\";\r\n\r\ncontract GovBlocksMaster \r\n{\r\n    address MasterAddress;\r\n    Master MS;\r\n    address public owner;\r\n  \r\n    struct govBlocksUsers\r\n    {\r\n      address tokenAddress;\r\n      address masterAddress;\r\n    }\r\n\r\n    govBlocksUsers[] allGovBlocksUsers;\r\n\r\n\r\n    function setGovBlocksMaster() \r\n    {\r\n      require(owner == 0x00);\r\n      owner = 0xed2f74e1fb73b775e6e35720869ae7a7f4d755ad; \r\n    } \r\n    \r\n    modifier onlyOwner() \r\n    {\r\n      require(msg.sender == owner);\r\n      _;\r\n    }\r\n\r\n    function transferOwnership(address _newOwner) onlyOwner  \r\n    {\r\n      owner = _newOwner;\r\n    }\r\n\r\n    function updateGBTAddress(uint _masterId,address _GBTContractAddress) onlyOwner\r\n    {\r\n        MasterAddress = allGovBlocksUsers[_masterId].masterAddress;\r\n        MS=Master(MasterAddress);\r\n        MS.changeGBTAddress(_GBTContractAddress);\r\n    }\r\n\r\n    function setGovBlocksOwnerInMaster(uint _masterId) onlyOwner\r\n    {\r\n        MasterAddress = allGovBlocksUsers[_masterId].masterAddress;\r\n        MS=Master(MasterAddress);\r\n        MS.GovBlocksOwner();\r\n    }\r\n\r\n    function addGovBlocksUser(address _tokenAddress,address _masterAddress) onlyOwner\r\n    {\r\n        allGovBlocksUsers.push(govBlocksUsers(_tokenAddress,_masterAddress));   \r\n    }\r\n\r\n    function getGovBlocksUserDetails(uint _Id) constant returns(address TokenAddress,address MasterContractAddress)\r\n    {\r\n        TokenAddress = allGovBlocksUsers[_Id].tokenAddress;\r\n        MasterContractAddress = allGovBlocksUsers[_Id].masterAddress;\r\n    }\r\n\r\n}",
  "sourcePath": "D:\\2. GovBlocks\\GovBlocks Git-Master\\contracts\\GovBlocksMaster.sol",
  "compiler": {
    "name": "solc",
    "version": "0.4.18+commit.9cf6e910.Emscripten.clang"
  },
  "schemaVersion": "1.0.1",
  "updatedAt": "2018-01-29T07:39:51.389Z"
}