{
  "contractName": "governance",
  "abi": [
    {
      "constant": false,
      "inputs": [
        {
          "name": "_proposalId",
          "type": "uint256"
        }
      ],
      "name": "updateCategory_memberVote",
      "outputs": [],
      "payable": false,
      "stateMutability": "nonpayable",
      "type": "function"
    },
    {
      "constant": false,
      "inputs": [
        {
          "name": "_contractAddress",
          "type": "address"
        }
      ],
      "name": "changeGovernanceDataAddress",
      "outputs": [],
      "payable": false,
      "stateMutability": "nonpayable",
      "type": "function"
    }
  ],
  "bytecode": "0x6060604052341561000f57600080fd5b6103408061001e6000396000f30060606040526004361061004c576000357c0100000000000000000000000000000000000000000000000000000000900463ffffffff1680638042ad9e14610051578063ad41769a14610074575b600080fd5b341561005c57600080fd5b61007260048080359060200190919050506100ad565b005b341561007f57600080fd5b6100ab600480803573ffffffffffffffffffffffffffffffffffffffff1690602001909190505061026f565b005b60008060009054906101000a900473ffffffffffffffffffffffffffffffffffffffff16600160006101000a81548173ffffffffffffffffffffffffffffffffffffffff021916908373ffffffffffffffffffffffffffffffffffffffff160217905550600160009054906101000a900473ffffffffffffffffffffffffffffffffffffffff1673ffffffffffffffffffffffffffffffffffffffff16637fd6e510836000604051602001526040518263ffffffff167c010000000000000000000000000000000000000000000000000000000002815260040180828152602001915050602060405180830381600087803b15156101aa57600080fd5b6102c65a03f115156101bb57600080fd5b505050604051805190509050600160009054906101000a900473ffffffffffffffffffffffffffffffffffffffff1673ffffffffffffffffffffffffffffffffffffffff1663d171325b826040518263ffffffff167c010000000000000000000000000000000000000000000000000000000002815260040180828152602001915050600060405180830381600087803b151561025757600080fd5b6102c65a03f1151561026857600080fd5b5050505050565b806000806101000a81548173ffffffffffffffffffffffffffffffffffffffff021916908373ffffffffffffffffffffffffffffffffffffffff1602179055506000809054906101000a900473ffffffffffffffffffffffffffffffffffffffff16600160006101000a81548173ffffffffffffffffffffffffffffffffffffffff021916908373ffffffffffffffffffffffffffffffffffffffff160217905550505600a165627a7a72305820f53ee9ca74d4311fb42c5277db3653e59acc5e588eb1e1dfc92829b5accbaac20029",
  "source": "/* Copyright (C) 2017 NexusMutual.io\r\n\r\n  This program is free software: you can redistribute it and/or modify\r\n    it under the terms of the GNU General Public License as published by\r\n    the Free Software Foundation, either version 3 of the License, or\r\n    (at your option) any later version.\r\n\r\n  This program is distributed in the hope that it will be useful,\r\n    but WITHOUT ANY WARRANTY; without even the implied warranty of\r\n    MERCHANTABILITY or FITNESS FOR A PARTICULAR PURPOSE.  See the\r\n    GNU General Public License for more details.\r\n\r\n  You should have received a copy of the GNU General Public License\r\n    along with this program.  If not, see http://www.gnu.org/licenses/ */\r\n\r\n\r\npragma solidity ^0.4.8;\r\n\r\ncontract governanceData {\r\n\r\n    struct proposal{\r\n        address owner;\r\n        string shortDesc;\r\n        string longDesc;\r\n        uint date_add;\r\n        uint date_upd;\r\n        uint versionNum;\r\n        uint status;  \r\n        uint category;\r\n        int finalVerdict;\r\n    }\r\n    struct proposalCategory{\r\n        address categorizedBy;\r\n        uint8[] paramInt;\r\n        bytes32[] paramBytes32;\r\n        address[] paramAddress;\r\n    }\r\n    struct proposalVersionData{\r\n        uint versionNum;\r\n        string shortDesc;\r\n        string longDesc;\r\n        uint date_add;\r\n    }\r\n    struct Status{\r\n        uint movedTo;\r\n        uint date;\r\n    }\r\n\r\n    struct category{\r\n        string categoryName;\r\n        uint8 memberVoteRequired;\r\n        uint8 majorityVote;\r\n        string functionName;\r\n        address contractAt;\r\n        uint8 paramInt;\r\n        uint8 paramBytes32;\r\n        uint8 paramAddress;      \r\n    }\r\n     struct proposalVote {\r\n        address voter;\r\n        uint proposalId;\r\n        int verdict;\r\n        uint dateSubmit;\r\n    }\r\n\r\n    struct VoteCount {\r\n        uint acceptABvote;\r\n        uint denyABvote;\r\n        uint acceptMemberVote;\r\n        uint denyMemberVote;\r\n    } \r\n    address public owner;\r\n    function governanceData () \r\n    {\r\n        owner = msg.sender;\r\n        addCategory();\r\n        addStatus();\r\n        //new\r\n        proposalVoteClosingTime = 60;\r\n        pendingProposalStart=0;\r\n        quorumPercentage=25;\r\n        //new\r\n    }\r\n\r\n    //new\r\n    uint public proposalVoteClosingTime;\r\n    uint public quorumPercentage;\r\n    uint public pendingProposalStart;\r\n    uint public memberCounter;\r\n    //new\r\n\r\n    mapping(uint=>proposalCategory) allProposalCategory;\r\n    category[] public allCategory;\r\n    string[] public status;\r\n    proposal[] allProposal;\r\n    mapping(uint=>proposalVersionData[]) proposalVersions;\r\n    mapping (uint=>Status[]) proposalStatus;\r\n    mapping (address=>uint8) public advisoryBoardMembers;\r\n    mapping (address=>uint[])  userAdvisoryBoardVote; /// Maps the given vote Id against the given Advisory board member's address\r\n    mapping (address=>uint[])  userMemberVote; /// Maps the given vote Id against the given member's address.\r\n    mapping (uint=>uint[])  proposalAdvisoryBoardVote;  /// Adds the given voter Id(AB) against the given Proposal's Id\r\n    mapping (uint=>uint[])  proposalMemberVote; /// Adds the given voter Id(Member) against the given Proposal's Id\r\n    mapping (address=>mapping(uint=>int))  userProposalAdvisoryBoardVote; /// Records a members vote on a given proposal id as an AB member.\r\n    mapping (address=>mapping(uint=>int))  userProposalMemberVote; /// Records a members vote on a given proposal id.\r\n    mapping (uint=>VoteCount)  proposalVoteCount;\r\n    proposalVote[] allVotes;\r\n    uint public totalVotes;\r\n\r\n    //new\r\n    /// @dev Increases the count of NXM Members by 1 (called whenever a new Member is added).\r\n    function incMemberCounter() internal\r\n    {\r\n        memberCounter++;\r\n    }\r\n\r\n    /// @dev Decreases the count of NXM Members by 1 (called when a member is removed i.e. NXM tokens of a member is 0).\r\n    function decMemberCounter() internal\r\n    {\r\n        memberCounter--;\r\n    }\r\n\r\n    /// @dev Gets the Quorum Percentage.\r\n    function getQuorumPerc() public constant returns(uint percentage) \r\n    {\r\n        percentage = quorumPercentage;\r\n    }\r\n\r\n    /// @dev Changes the Quorum Percentage.\r\n    function changeQuorumPercentage(uint _percentage) public  \r\n    {\r\n        quorumPercentage = _percentage;\r\n    }\r\n\r\n    /// @dev Changes the status of a given proposal to open it for voting. // wil get called when we submit the proposal\r\n    function openProposalForVoting(uint _proposalId) public\r\n    {\r\n        require(allProposal[_proposalId].owner == msg.sender || allProposal[_proposalId].status ==0);\r\n        allProposal[_proposalId].status = 1;\r\n        // closeProposalOraclise(id,gd1.getClosingTime());\r\n    }\r\n\r\n    /// @dev Changes the time(in seconds) after which proposal voting is closed.\r\n    function changeProposalVoteClosingTime(uint _closingTime) public\r\n    {\r\n        proposalVoteClosingTime = _closingTime;   \r\n    }\r\n\r\n    // function changeClosingTime(uint _closingTime) public\r\n    // {\r\n    //     uint proposalLength = allProposal.length;\r\n    //     uint pendingProposalStart = getPendingProposalStart();\r\n    //     for(uint i=pendingProposalStart; i<len ;i++)\r\n    //     {\r\n    //         require(allProposal[i].date_upd + _closingTime <= now);\r\n    //         closeProposalVote(i);\r\n    //         // }\r\n    //         // else\r\n    //         // {\r\n    //         //     uint64 timeleft = uint64(gd1.getProposalDateUpd(i)+_time -now);\r\n    //         //     p1=pool(poolAd);\r\n    //         //     p1.closeProposalOraclise(i,timeleft);\r\n    //         // }\r\n    //     }\r\n    // }   \r\n\r\n    function getPendingProposalStart() returns(uint pendingPS) \r\n    {\r\n        pendingPS = pendingProposalStart;\r\n    }\r\n    \r\n    /// @dev Checks if voting time of a given proposal should be closed or not. \r\n    function checkProposalVoteClosing(uint _proposalId) constant returns(uint8 closeValue)\r\n    {\r\n        require((allProposal[_proposalId].date_upd + proposalVoteClosingTime <= now && allProposal[_proposalId].status == 1)|| allProposal[_proposalId].status == 2);\r\n        closeValue=1;\r\n    }\r\n\r\n    /// @dev proposal should gets closed.\r\n    function closeProposalVote(uint _proposalId)\r\n    {\r\n        if(checkProposalVoteClosing(_proposalId)==1) /// either status == 1 or status == 2 thats why Closing ==1\r\n        {\r\n            uint acceptABvote;\r\n            uint denyABvote;\r\n            uint acceptMemberVote;\r\n            uint denyMemberVote;\r\n            uint8 majorityVote;\r\n            uint8 memberVoteRequired;\r\n            uint category = allProposal[_proposalId].category;\r\n            uint totalMember = memberCounter; \r\n\r\n            (,memberVoteRequired,majorityVote,,,,,) = getCategoryDetails(category);\r\n            if(allProposal[_proposalId].status==1)  // // pending advisory board vote\r\n            {\r\n                (acceptABvote,denyABvote,,) = getProposalVoteCount(_proposalId);\r\n                \r\n                if(acceptABvote*100/(acceptABvote+denyABvote)>=majorityVote) /// if proposal accepted% >=majority % (by Advisory board)\r\n                {    \r\n                    if(memberVoteRequired==1) /// Member vote required \r\n                    {\r\n                        changeProposalStatus(_proposalId,2);\r\n                        // p1.closeProposalOraclise(id,gd1.getClosingTime());\r\n                    }\r\n                    else /// Member vote not required\r\n                    {\r\n                        changeProposalStatus(_proposalId,4);\r\n                        actionAfterProposalPass(_proposalId , category);\r\n                    }\r\n                } // when AB votes are not enough . /// if proposal is denied\r\n                else\r\n                {\r\n                    changeProposalStatus(_proposalId,3);\r\n                    allProposal[_proposalId].finalVerdict = -1;\r\n                    actionAfterProposalPass(_proposalId , category); // TEMPORARY \r\n                }\r\n            }\r\n            else if(allProposal[_proposalId].status==2) /// pending member vote\r\n            {\r\n                (,,acceptMemberVote,denyMemberVote) = getProposalVoteCount(_proposalId);\r\n                /// when Member Vote Quorum not Achieved\r\n                if((acceptMemberVote+denyMemberVote)*100/totalMember < getQuorumPerc()) \r\n                {\r\n                    changeProposalStatus(_proposalId,7);\r\n                    allProposal[_proposalId].finalVerdict = 1;\r\n                    actionAfterProposalPass(_proposalId , category);\r\n                }\r\n                /// if proposal accepted% >=majority % (by Members)\r\n                else if(acceptMemberVote*100/(acceptMemberVote+denyMemberVote)>=majorityVote)\r\n                {\r\n                    changeProposalStatus(_proposalId,5);\r\n                    allProposal[_proposalId].finalVerdict = 1;\r\n                    actionAfterProposalPass(_proposalId , category);\r\n                }\r\n                /// if proposal is denied\r\n                else\r\n                {\r\n                    changeProposalStatus(_proposalId,6);\r\n                    allProposal[_proposalId].finalVerdict = -1;    \r\n                }\r\n            }\r\n        } \r\n        uint pendingPS = pendingProposalStart;\r\n        uint proposalLength = allProposal.length;\r\n        for(uint j=pendingPS; j<proposalLength; j++)\r\n        {\r\n            if(allProposal[j].status > 2)\r\n                pendingPS += 1;\r\n            else\r\n                break;\r\n        }\r\n        if(j!=pendingPS)\r\n        {\r\n            changePendingProposalStart(j);\r\n        }\r\n        \r\n    }\r\n\r\n    /// @dev Change pending proposal start variable\r\n    function changePendingProposalStart(uint _pendingPS) internal\r\n    {\r\n        pendingProposalStart = _pendingPS;\r\n    }\r\n\r\n    function actionAfterProposalPass(uint256 _proposalId,uint _categoryId) public\r\n    {\r\n        address contractAt = allCategory[_categoryId].contractAt;\r\n        // string  functionName = allCategory[_categoryId].functionName;\r\n        // string functionName = \"updateCategory_memberVote(uint)\";\r\n        contractAt.call(bytes4(sha3(allCategory[_categoryId].functionName)),_proposalId);\r\n    }\r\n\r\n    function updateCategoryMVR(uint _categoryId) \r\n    {\r\n        allCategory[_categoryId].memberVoteRequired = 1;\r\n    }\r\n    //new\r\n\r\n\r\n\r\n\r\n    /// @dev Check if the member who wants to change in contracts, is owner.\r\n    function isOwner(address _memberAddress) constant returns(uint checkOwner)\r\n    {\r\n        checkOwner=0;\r\n        if(owner == _memberAddress)\r\n            checkOwner=1;\r\n    }\r\n\r\n    /// @dev Change current owner\r\n    function changeOwner(address _memberAddress) public\r\n    {\r\n        if(owner == msg.sender)\r\n            owner = _memberAddress;\r\n    }\r\n\r\n    /// @dev Gets the total number of categories.\r\n    function getCategoriesLength() constant returns (uint length){\r\n        length = allCategory.length;\r\n    }\r\n\r\n    /// @dev Gets the total number of votes given till date.\r\n    function getTotalVotes() public constant returns(uint voteLength)\r\n    {\r\n        voteLength = totalVotes;\r\n    }\r\n\r\n    /// @dev Increases the number of votes by 1.\r\n    function increaseTotalVotes() internal\r\n    {\r\n        totalVotes++;\r\n    }\r\n\r\n    /// @dev Registers an Advisroy Board Member's vote for Proposal. _id is proposal id..\r\n    function proposalVoteByABmember(uint _proposalId , int8 _verdict) public\r\n    {\r\n        require(advisoryBoardMembers[msg.sender]==1 && allProposal[_proposalId].status == 1);\r\n        uint votelength = getTotalVotes();\r\n        increaseTotalVotes();\r\n        allVotes.push(proposalVote(msg.sender,_proposalId,_verdict,now)); \r\n        userAdvisoryBoardVote[msg.sender].push(votelength); \r\n        proposalAdvisoryBoardVote[_proposalId].push(votelength);\r\n        userProposalAdvisoryBoardVote[msg.sender][_proposalId]=_verdict;\r\n\r\n        if(_verdict==1)\r\n            proposalABacceptVote(_proposalId);\r\n        else if(_verdict==-1)\r\n            proposalABdenyVote(_proposalId);\r\n    }\r\n\r\n    /// @dev Registers an User Member's vote for Proposal. _id is proposal id...\r\n    function proposalVoteByMember(uint _proposalId , int8 _verdict) public\r\n    {\r\n        require(advisoryBoardMembers[msg.sender]==0 && allProposal[_proposalId].status == 1);  \r\n        uint votelength = getTotalVotes();\r\n        increaseTotalVotes();\r\n        allVotes.push(proposalVote(msg.sender,_proposalId,_verdict,now)); \r\n        userMemberVote[msg.sender].push(votelength); \r\n        proposalMemberVote[_proposalId].push(votelength);\r\n        userProposalMemberVote[msg.sender][_proposalId]=_verdict;\r\n\r\n        if(_verdict==1)\r\n            proposalMemberAcceptVote(_proposalId);\r\n        else if(_verdict==-1)\r\n            proposalMemberDenyVote(_proposalId);\r\n    }\r\n\r\n    /// @dev Increases the proposal's accept vote count, called when proposal is accepted by an Advisory board member.\r\n    function proposalABacceptVote(uint _proposalId) internal\r\n    {\r\n        proposalVoteCount[_proposalId].acceptABvote +=1;\r\n    }\r\n\r\n    /// @dev Increases the proposal's deny vote count, called when proposal is denied by an Advisory board member.\r\n    function proposalABdenyVote(uint _proposalId) internal\r\n    {\r\n        proposalVoteCount[_proposalId].denyABvote +=1;\r\n    }\r\n\r\n    /// @dev Increases the proposal's accept vote count, called when proposal is accepted by a member.\r\n    function proposalMemberAcceptVote(uint _proposalId) internal\r\n    {\r\n        proposalVoteCount[_proposalId].acceptMemberVote +=1;\r\n    }\r\n\r\n    /// @dev Increases the proposal's deny vote count, called when proposal is denied by a member.   \r\n    function proposalMemberDenyVote(uint _proposalId) internal\r\n    {\r\n        proposalVoteCount[_proposalId].denyMemberVote +=1;\r\n    }\r\n\r\n    /// @dev Provides Vote details of a given vote id. \r\n    function getVoteDetailByid(uint _voteid) public constant returns( address voter,uint proposalId,int verdict,uint dateSubmit)\r\n    {\r\n        return(allVotes[_voteid].voter,allVotes[_voteid].proposalId,allVotes[_voteid].verdict,allVotes[_voteid].dateSubmit);\r\n    }\r\n\r\n    /// @dev Gets the number of votes received against a given proposal.\r\n    function getProposalVoteCount(uint _proposalid) constant returns(uint acceptABvote,uint denyABvote,uint MemberAccept,uint MemberDeny)\r\n    {\r\n        return(proposalVoteCount[_proposalid].acceptABvote,proposalVoteCount[_proposalid].denyABvote,proposalVoteCount[_proposalid].acceptMemberVote,proposalVoteCount[_proposalid].denyMemberVote);\r\n    }\r\n\r\n    /// @dev Creates a new proposal \r\n    function addNewProposal(string _shortDesc,string _longDesc) public\r\n    {\r\n        allProposal.push(proposal(msg.sender,_shortDesc,_longDesc,now,now,0,0,0,0));\r\n    }\r\n\r\n    /// @dev Fetch details of proposal by giving proposal Id\r\n    function getProposalDetailsById(uint _id) public constant returns (address owner,string shortDesc,string longDesc,uint date_add,uint date_upd,uint versionNum,uint status)\r\n    {\r\n        return (allProposal[_id].owner,allProposal[_id].shortDesc,allProposal[_id].longDesc,allProposal[_id].date_add,allProposal[_id].date_upd,allProposal[_id].versionNum,allProposal[_id].status);\r\n    }\r\n     \r\n    function getProposalCategory (uint _proposalid) public constant returns(uint category) \r\n    {\r\n        category = allProposal[_proposalid].category; \r\n    }\r\n        \r\n    /// @dev Edits a proposal and Only owner of a proposal can edit it.\r\n    function editProposal(uint _id , string _shortDesc, string _longDesc) public\r\n    {\r\n        require(msg.sender == allProposal[_id].owner);\r\n        {\r\n            storeProposalVersion(_id);\r\n            updateProposal(_id,_shortDesc,_longDesc);\r\n            allProposal[_id].category = 0;\r\n            allProposalCategory[_id].paramInt.push(0);\r\n            allProposalCategory[_id].paramBytes32.push(\"\");\r\n            allProposalCategory[_id].paramAddress.push(0);\r\n        }\r\n    }\r\n\r\n    /// @dev Stores the information of a given version number of a given proposal. Maintains the record of all the versions of a proposal.\r\n    function storeProposalVersion(uint _id) internal \r\n    {\r\n        proposalVersions[_id].push(proposalVersionData(allProposal[_id].versionNum,allProposal[_id].shortDesc,allProposal[_id].longDesc,allProposal[_id].date_add));            \r\n    }\r\n\r\n    /// @dev Edits the details of an existing proposal and creates new version.\r\n    function updateProposal(uint _id,string _shortDesc,string _longDesc) internal\r\n    {\r\n        allProposal[_id].shortDesc = _shortDesc;\r\n        allProposal[_id].longDesc = _longDesc;\r\n        allProposal[_id].date_upd = now;\r\n        allProposal[_id].versionNum += 1;\r\n    }\r\n\r\n    /// @dev Gets version details of a given proposal id.\r\n    function getProposalDetailsByIdAndVersion(uint _id,uint _versionNum) public constant returns( uint versionNum,string shortDesc,string longDesc,uint date_add)\r\n    {\r\n       return (proposalVersions[_id][_versionNum].versionNum,proposalVersions[_id][_versionNum].shortDesc,proposalVersions[_id][_versionNum].longDesc,proposalVersions[_id][_versionNum].date_add);\r\n    }\r\n\r\n    /// @dev Changes the status of a given proposal.\r\n    function changeProposalStatus(uint _id,uint _status) public\r\n    {\r\n        require(allProposal[_id].category != 0);\r\n        pushInProposalStatus(_id,_status);\r\n        updateProposalStatus(_id,_status);\r\n    }\r\n\r\n    /// @dev Adds status names in array - Not generic right now\r\n    function addStatus() internal\r\n    {   \r\n        status.push(\"Draft for discussion, multiple versions.\");\r\n        status.push(\"Pending-Advisory Board Vote\");\r\n        status.push(\"Pending-Advisory Board Vote Accepted, pending Member Vote\");\r\n        status.push(\"Final-Advisory Board Vote Declined\");\r\n        status.push(\"Final-Advisory Board Vote Accepted, Member Vote not required\");\r\n        status.push(\"Final-Advisory Board Vote Accepted, Member Vote Accepted\");\r\n        status.push(\"Final-Advisory Board Vote Accepted, Member Vote Declined\");\r\n        status.push(\"Final-Advisory Board Vote Accepted, Member Vote Quorum not Achieved\");\r\n        status.push(\"Proposal Accepted, Insufficient Funds\");\r\n    }\r\n\r\n    /// @dev Adds category names -\r\n    function addCategory() internal\r\n    {   \r\n        allCategory.push(category(\"Uncategorised\",0,0,\"\",0,0,0,0));\r\n        allCategory.push(category(\"Filter member proposals as necessary(which are put to a member vote)\",0,60,\"\",0,0,0,0));\r\n        allCategory.push(category(\"Implement run-off and close new business\",1,80,\"\",0,0,0,0));\r\n        allCategory.push(category(\"Burn fraudulent claim assessor tokens\",0,80,\"\",0,0,0,0));\r\n        allCategory.push(category(\"Pause Claim Assessors ability to assess claims for 3 days.Can only be done once a month\",0,60,\"\",0,0,0,0));\r\n        allCategory.push(category(\"Changes to Capital Model\",1,60,\"\",0,0,0,0));\r\n        allCategory.push(category(\"Changes to Pricing\",1,60,\"\",0,0,0,0));\r\n        allCategory.push(category(\"Engage in external services up to the greater of $50,000USD or 2% of MCR\",0,80,\"\",0,0,0,0));\r\n        allCategory.push(category(\"Engage in external services over the greater of $50,000USD or 2% of MCR\",1,60,\"\",0,0,0,0));\r\n        allCategory.push(category(\"Changes to remuneration and/or membership of Advisory Board\",1,60,\"\",0,0,0,0));\r\n        allCategory.push(category(\"Release new smart contract code as necessary to fix bugs/weaknesses or deliver enhancements/new products\",1,60,\"\",0,0,0,0));\r\n        allCategory.push(category(\"Any change to authorities\",1,80,\"\",0,0,0,0));\r\n        allCategory.push(category(\"Any other item specifically described\",1,80,\"\",0,0,0,0));\r\n    }\r\n\r\n    /// @dev Updates  status of an existing proposal.\r\n    function updateProposalStatus(uint _id ,uint _status) internal\r\n    {\r\n        allProposal[_id].status = _status;\r\n        allProposal[_id].date_upd =now;\r\n    }\r\n\r\n    /// @dev Stores the status information of a given proposal.\r\n    function pushInProposalStatus(uint _id , uint _status) internal\r\n    {\r\n        proposalStatus[_id].push(Status(_status,now));\r\n    }\r\n\r\n    /// @dev Adds a new category.\r\n    function addNewCategory(string _categoryName,uint8 _memberVoteRequired,uint8 _majorityVote,string _functionName,address _contractAt,uint8 _paramInt,uint8 _paramBytes32,uint8 _paramAddress) public\r\n    {\r\n        allCategory.push(category(_categoryName,_memberVoteRequired,_majorityVote,_functionName,_contractAt,_paramInt,_paramBytes32,_paramAddress));\r\n    }\r\n\r\n    /// @dev Gets category details by category id.\r\n    function getCategoryDetails(uint _categoryId) public constant returns (string categoryName,uint8 memberVoteRequired,uint8 majorityVote,string functionName,address contractAt,uint8 paramInt,uint8 paramBytes32,uint8 paramAddress)\r\n    {    \r\n        categoryName = allCategory[_categoryId].categoryName;\r\n        memberVoteRequired = allCategory[_categoryId].memberVoteRequired;\r\n        majorityVote = allCategory[_categoryId].majorityVote;\r\n        functionName = allCategory[_categoryId].functionName;\r\n        contractAt = allCategory[_categoryId].contractAt;\r\n        paramInt = allCategory[_categoryId].paramInt;\r\n        paramBytes32 = allCategory[_categoryId].paramBytes32;\r\n        paramAddress = allCategory[_categoryId].paramAddress;\r\n    } \r\n\r\n    function updateCategory(uint _categoryId,string _categoryName,uint64 _memberVoteRequired,uint16 _majorityVote,string _functionName,address _contractAt,uint8 _paramInt,uint8 _paramBytes32,uint8 _paramAddress) public\r\n    {\r\n        allCategory[_categoryId].categoryName = _categoryName;\r\n        allCategory[_categoryId].functionName = _functionName;\r\n        allCategory[_categoryId].contractAt = _contractAt;\r\n        allCategory[_categoryId].paramInt = _paramInt;\r\n        allCategory[_categoryId].paramBytes32 = _paramBytes32; \r\n        allCategory[_categoryId].paramAddress = _paramAddress; \r\n    }\r\n\r\n    function categorizeProposal(uint _id , uint _categoryId,uint8[] _paramInt,bytes32[] _paramBytes32,address[] _paramAddress) public\r\n    {\r\n        require(advisoryBoardMembers[msg.sender]==1 && allProposal[_id].status == 0);\r\n        uint8 paramInt; uint8 paramBytes32; uint8 paramAddress;\r\n        (,,,,,paramInt,paramBytes32,paramAddress) = getCategoryDetails(_categoryId);\r\n\r\n        if(paramInt == _paramInt.length && paramBytes32 == _paramBytes32.length && paramAddress == _paramAddress.length)\r\n        {\r\n            allProposal[_id].category = _categoryId;\r\n            allProposalCategory[_id]=proposalCategory(msg.sender,_paramInt,_paramBytes32,_paramAddress);\r\n        } \r\n    }\r\n\r\n    /// @dev Adds a given address as an advisory board member.\r\n    function joinAdvisoryBoard(address _memberAddress) public\r\n    {\r\n        require(advisoryBoardMembers[_memberAddress]==0 && isOwner(msg.sender) == 1);\r\n        advisoryBoardMembers[_memberAddress] = 1;\r\n    }\r\n\r\n    /// @dev Removes a given address from the advisory board.\r\n    function removeAdvisoryBoard(address _memberAddress) public\r\n    {\r\n        require(advisoryBoardMembers[_memberAddress]==1 && isOwner(msg.sender) == 1);\r\n        advisoryBoardMembers[_memberAddress] = 0;\r\n    }\r\n\r\n}  \r\n\r\ncontract governance \r\n{\r\n   address governanceDataAddress;\r\n    governanceData gd1;\r\n    function changeGovernanceDataAddress(address _contractAddress) public\r\n    {\r\n        governanceDataAddress = _contractAddress;\r\n        gd1=governanceData(governanceDataAddress);\r\n    }\r\n    \r\n    function updateCategory_memberVote(uint256 _proposalId) \r\n    {\r\n        gd1=governanceData(governanceDataAddress);\r\n        uint _categoryId = gd1.getProposalCategory(_proposalId);\r\n        gd1.updateCategoryMVR(_categoryId);\r\n    }\r\n    \r\n}\r\n\r\n\r\n",
  "sourcePath": "D:\\GovBlocks\\CGP\\contracts\\governanceData.sol",
  "compiler": {
    "name": "solc",
    "version": "0.4.18+commit.9cf6e910.Emscripten.clang"
  },
  "schemaVersion": "1.0.1",
  "updatedAt": "2017-11-07T14:22:04.680Z"
}