{
  "contractName": "governanceData",
  "abi": [
    {
      "constant": true,
      "inputs": [
        {
          "name": "_proposalid",
          "type": "uint256"
        }
      ],
      "name": "getProposalVoteCount",
      "outputs": [
        {
          "name": "acceptABvote",
          "type": "uint256"
        },
        {
          "name": "denyABvote",
          "type": "uint256"
        },
        {
          "name": "MemberAccept",
          "type": "uint256"
        },
        {
          "name": "MemberDeny",
          "type": "uint256"
        }
      ],
      "payable": false,
      "stateMutability": "view",
      "type": "function"
    },
    {
      "constant": true,
      "inputs": [
        {
          "name": "_shortDesc",
          "type": "string"
        },
        {
          "name": "_longDesc",
          "type": "string"
        }
      ],
      "name": "totalVotes",
      "outputs": [
        {
          "name": "",
          "type": "uint256"
        }
      ],
      "payable": false,
      "stateMutability": "view",
      "type": "function"
    },
    {
      "constant": false,
      "inputs": [
        {
          "name": "_proposalId",
          "type": "uint256"
        },
        {
          "name": "_shortDesc",
          "type": "string"
        },
        {
          "name": "_longDesc",
          "type": "string"
        }
      ],
      "name": "openProposalForVoting",
      "outputs": [
        {
          "name": "",
          "type": "uint8"
        }
      ],
      "payable": false,
      "stateMutability": "nonpayable",
      "type": "function"
    },
    {
      "constant": true,
      "inputs": [
        {
          "name": "",
          "type": "address"
        },
        {
          "name": "_shortDesc",
          "type": "string"
        },
        {
          "name": "_longDesc",
          "type": "string"
        }
      ],
      "name": "advisoryBoardMembers",
      "outputs": [
        {
          "name": "",
          "type": "uint8"
        }
      ],
      "payable": false,
      "stateMutability": "view",
      "type": "function"
    },
    {
      "constant": true,
      "inputs": [
        {
          "name": "_memberAddress",
          "type": "address"
        },
        {
          "name": "_versionNum",
          "type": "uint256"
        }
      ],
      "name": "proposalVoteClosingTime",
      "outputs": [
        {
          "name": "",
          "type": "uint256"
        },
        {
          "name": "shortDesc",
          "type": "string"
        },
        {
          "name": "longDesc",
          "type": "string"
        },
        {
          "name": "date_add",
          "type": "uint256"
        }
      ],
      "payable": false,
      "stateMutability": "view",
      "type": "function"
    },
    {
      "constant": false,
      "inputs": [
        {
          "name": "_memberAddress",
          "type": "address"
        }
      ],
      "name": "removeAdvisoryBoard",
      "outputs": [
        {
          "name": "owner",
          "type": "address"
        },
        {
          "name": "shortDesc",
          "type": "string"
        },
        {
          "name": "longDesc",
          "type": "string"
        },
        {
          "name": "date_add",
          "type": "uint256"
        },
        {
          "name": "date_upd",
          "type": "uint256"
        },
        {
          "name": "versionNum",
          "type": "uint256"
        }
      ],
      "payable": false,
      "stateMutability": "nonpayable",
      "type": "function"
    },
    {
      "constant": true,
      "inputs": [
        {
          "name": "_memberAddress",
          "type": "address"
        },
        {
          "name": "_categoryId",
          "type": "uint256"
        },
        {
          "name": "_paramInt",
          "type": "uint8[]"
        },
        {
          "name": "_paramBytes32",
          "type": "bytes32[]"
        },
        {
          "name": "_paramAddress",
          "type": "address[]"
        }
      ],
      "name": "isOwner",
      "outputs": [
        {
          "name": "checkOwner",
          "type": "uint256"
        }
      ],
      "payable": false,
      "stateMutability": "view",
      "type": "function"
    },
    {
      "constant": false,
      "inputs": [
        {
          "name": "_memberAddress",
          "type": "address"
        }
      ],
      "name": "joinAdvisoryBoard",
      "outputs": [
        {
          "name": "",
          "type": "string"
        }
      ],
      "payable": false,
      "stateMutability": "nonpayable",
      "type": "function"
    },
    {
      "constant": false,
      "inputs": [
        {
          "name": "_id",
          "type": "uint256"
        },
        {
          "name": "_categoryId",
          "type": "uint256"
        },
        {
          "name": "_paramInt",
          "type": "uint8[]"
        },
        {
          "name": "_paramBytes32",
          "type": "bytes32[]"
        },
        {
          "name": "_paramAddress",
          "type": "address[]"
        }
      ],
      "name": "categorizeProposal",
      "outputs": [],
      "payable": false,
      "stateMutability": "nonpayable",
      "type": "function"
    },
    {
      "constant": true,
      "inputs": [
        {
          "name": "_proposalId",
          "type": "uint256"
        }
      ],
      "name": "checkProposalVoteClosing",
      "outputs": [
        {
          "name": "closeValue",
          "type": "uint8"
        },
        {
          "name": "proposalId",
          "type": "uint256"
        },
        {
          "name": "verdict",
          "type": "int256"
        },
        {
          "name": "dateSubmit",
          "type": "uint256"
        }
      ],
      "payable": false,
      "stateMutability": "view",
      "type": "function"
    },
    {
      "constant": true,
      "inputs": [
        {
          "name": "",
          "type": "uint256"
        },
        {
          "name": "_categoryName",
          "type": "string"
        },
        {
          "name": "_memberVoteRequired",
          "type": "uint64"
        },
        {
          "name": "_majorityVote",
          "type": "uint16"
        },
        {
          "name": "_functionName",
          "type": "string"
        },
        {
          "name": "_contractAt",
          "type": "address"
        },
        {
          "name": "_paramInt",
          "type": "uint8"
        },
        {
          "name": "_paramBytes32",
          "type": "uint8"
        },
        {
          "name": "_paramAddress",
          "type": "uint8"
        }
      ],
      "name": "status",
      "outputs": [
        {
          "name": "",
          "type": "string"
        }
      ],
      "payable": false,
      "stateMutability": "view",
      "type": "function"
    },
    {
      "constant": false,
      "inputs": [
        {
          "name": "_proposalId",
          "type": "uint256"
        },
        {
          "name": "_verdict",
          "type": "int8"
        },
        {
          "name": "_majorityVote",
          "type": "uint8"
        },
        {
          "name": "_functionName",
          "type": "string"
        },
        {
          "name": "_contractAt",
          "type": "address"
        },
        {
          "name": "_paramInt",
          "type": "uint8"
        },
        {
          "name": "_paramBytes32",
          "type": "uint8"
        },
        {
          "name": "_paramAddress",
          "type": "uint8"
        }
      ],
      "name": "proposalVoteByABmember",
      "outputs": [],
      "payable": false,
      "stateMutability": "nonpayable",
      "type": "function"
    },
    {
      "constant": false,
      "inputs": [
        {
          "name": "_percentage",
          "type": "uint256"
        },
        {
          "name": "_verdict",
          "type": "int8"
        }
      ],
      "name": "changeQuorumPercentage",
      "outputs": [],
      "payable": false,
      "stateMutability": "nonpayable",
      "type": "function"
    },
    {
      "constant": true,
      "inputs": [
        {
          "name": "_proposalid",
          "type": "uint256"
        }
      ],
      "name": "quorumPercentage",
      "outputs": [
        {
          "name": "",
          "type": "uint256"
        }
      ],
      "payable": false,
      "stateMutability": "view",
      "type": "function"
    },
    {
      "constant": true,
      "inputs": [
        {
          "name": "_voteid",
          "type": "uint256"
        }
      ],
      "name": "getVoteDetailByid",
      "outputs": [
        {
          "name": "voter",
          "type": "address"
        },
        {
          "name": "proposalId",
          "type": "uint256"
        },
        {
          "name": "verdict",
          "type": "int256"
        },
        {
          "name": "dateSubmit",
          "type": "uint256"
        }
      ],
      "payable": false,
      "stateMutability": "view",
      "type": "function"
    },
    {
      "constant": false,
      "inputs": [
        {
          "name": "_categoryId",
          "type": "uint256"
        },
        {
          "name": "_categoryName",
          "type": "string"
        },
        {
          "name": "_memberVoteRequired",
          "type": "uint64"
        },
        {
          "name": "_majorityVote",
          "type": "uint16"
        },
        {
          "name": "_functionName",
          "type": "string"
        },
        {
          "name": "_contractAt",
          "type": "address"
        },
        {
          "name": "_paramInt",
          "type": "uint8"
        },
        {
          "name": "_paramBytes32",
          "type": "uint8"
        },
        {
          "name": "_paramAddress",
          "type": "uint8"
        }
      ],
      "name": "updateCategory",
      "outputs": [],
      "payable": false,
      "stateMutability": "nonpayable",
      "type": "function"
    },
    {
      "constant": false,
      "inputs": [
        {
          "name": "_closingTime",
          "type": "uint256"
        },
        {
          "name": "_longDesc",
          "type": "string"
        }
      ],
      "name": "changeProposalVoteClosingTime",
      "outputs": [],
      "payable": false,
      "stateMutability": "nonpayable",
      "type": "function"
    },
    {
      "constant": false,
      "inputs": [
        {
          "name": "_categoryName",
          "type": "string"
        },
        {
          "name": "_memberVoteRequired",
          "type": "uint8"
        },
        {
          "name": "_majorityVote",
          "type": "uint8"
        },
        {
          "name": "_functionName",
          "type": "string"
        },
        {
          "name": "_contractAt",
          "type": "address"
        },
        {
          "name": "_paramInt",
          "type": "uint8"
        },
        {
          "name": "_paramBytes32",
          "type": "uint8"
        },
        {
          "name": "_paramAddress",
          "type": "uint8"
        }
      ],
      "name": "addNewCategory",
      "outputs": [
        {
          "name": "voteLength",
          "type": "uint256"
        }
      ],
      "payable": false,
      "stateMutability": "nonpayable",
      "type": "function"
    },
    {
      "constant": false,
      "inputs": [
        {
          "name": "_proposalId",
          "type": "uint256"
        },
        {
          "name": "_verdict",
          "type": "int8"
        }
      ],
      "name": "proposalVoteByMember",
      "outputs": [],
      "payable": false,
      "stateMutability": "nonpayable",
      "type": "function"
    },
    {
      "constant": true,
      "inputs": [
        {
          "name": "_categoryId",
          "type": "uint256"
        }
      ],
      "name": "pendingProposalStart",
      "outputs": [
        {
          "name": "",
          "type": "uint256"
        },
        {
          "name": "memberVoteRequired",
          "type": "uint8"
        },
        {
          "name": "majorityVote",
          "type": "uint8"
        },
        {
          "name": "functionName",
          "type": "string"
        },
        {
          "name": "contractAt",
          "type": "address"
        },
        {
          "name": "paramInt",
          "type": "uint8"
        },
        {
          "name": "paramBytes32",
          "type": "uint8"
        },
        {
          "name": "paramAddress",
          "type": "uint8"
        }
      ],
      "payable": false,
      "stateMutability": "view",
      "type": "function"
    },
    {
      "constant": true,
      "inputs": [
        {
          "name": "_id",
          "type": "uint256"
        },
        {
          "name": "_shortDesc",
          "type": "string"
        },
        {
          "name": "_longDesc",
          "type": "string"
        }
      ],
      "name": "memberCounter",
      "outputs": [
        {
          "name": "",
          "type": "uint256"
        }
      ],
      "payable": false,
      "stateMutability": "view",
      "type": "function"
    },
    {
      "constant": true,
      "inputs": [
        {
          "name": "_proposalid",
          "type": "uint256"
        },
        {
          "name": "_status",
          "type": "uint256"
        }
      ],
      "name": "getProposalCategory",
      "outputs": [
        {
          "name": "category",
          "type": "uint256"
        }
      ],
      "payable": false,
      "stateMutability": "view",
      "type": "function"
    },
    {
      "constant": false,
      "inputs": [
        {
          "name": "_id",
          "type": "uint256"
        },
        {
          "name": "_versionNum",
          "type": "uint256"
        }
      ],
      "name": "addStatusAndCategory",
      "outputs": [
        {
          "name": "",
          "type": "address"
        },
        {
          "name": "shortDesc",
          "type": "string"
        },
        {
          "name": "longDesc",
          "type": "string"
        },
        {
          "name": "date_add",
          "type": "uint256"
        }
      ],
      "payable": false,
      "stateMutability": "nonpayable",
      "type": "function"
    },
    {
      "constant": true,
      "inputs": [
        {
          "name": "_shortDesc",
          "type": "string"
        },
        {
          "name": "_longDesc",
          "type": "string"
        }
      ],
      "name": "owner",
      "outputs": [
        {
          "name": "",
          "type": "address"
        },
        {
          "name": "shortDesc",
          "type": "string"
        },
        {
          "name": "longDesc",
          "type": "string"
        },
        {
          "name": "date_add",
          "type": "uint256"
        },
        {
          "name": "date_upd",
          "type": "uint256"
        },
        {
          "name": "versionNum",
          "type": "uint256"
        },
        {
          "name": "status",
          "type": "uint256"
        }
      ],
      "payable": false,
      "stateMutability": "view",
      "type": "function"
    },
    {
      "constant": false,
      "inputs": [
        {
          "name": "_shortDesc",
          "type": "string"
        },
        {
          "name": "_longDesc",
          "type": "string"
        }
      ],
      "name": "addNewProposal",
      "outputs": [
        {
          "name": "voteLength",
          "type": "uint256"
        },
        {
          "name": "memberVoteRequired",
          "type": "uint8"
        },
        {
          "name": "majorityVote",
          "type": "uint8"
        },
        {
          "name": "functionName",
          "type": "string"
        },
        {
          "name": "contractAt",
          "type": "address"
        },
        {
          "name": "paramInt",
          "type": "uint8"
        },
        {
          "name": "paramBytes32",
          "type": "uint8"
        },
        {
          "name": "paramAddress",
          "type": "uint8"
        }
      ],
      "payable": false,
      "stateMutability": "nonpayable",
      "type": "function"
    },
    {
      "constant": false,
      "inputs": [
        {
          "name": "_memberAddress",
          "type": "address"
        }
      ],
      "name": "changeOwner",
      "outputs": [
        {
          "name": "pendingPS",
          "type": "uint256"
        }
      ],
      "payable": false,
      "stateMutability": "nonpayable",
      "type": "function"
    },
    {
      "constant": true,
      "inputs": [
        {
          "name": "_memberAddress",
          "type": "address"
        },
        {
          "name": "_memberVoteRequired",
          "type": "uint8"
        }
      ],
      "name": "getQuorumPerc",
      "outputs": [
        {
          "name": "percentage",
          "type": "uint256"
        }
      ],
      "payable": false,
      "stateMutability": "view",
      "type": "function"
    },
    {
      "inputs": [
        {
          "name": "_categoryId",
          "type": "uint256"
        }
      ],
      "payable": false,
      "stateMutability": "view",
      "type": "function",
      "constant": true,
      "name": "getCategoryDetails",
      "outputs": [
        {
          "name": "categoryName",
          "type": "string"
        },
        {
          "name": "memberVoteRequired",
          "type": "uint8"
        },
        {
          "name": "majorityVote",
          "type": "uint8"
        },
        {
          "name": "functionName",
          "type": "string"
        },
        {
          "name": "contractAt",
          "type": "address"
        },
        {
          "name": "paramInt",
          "type": "uint8"
        },
        {
          "name": "paramBytes32",
          "type": "uint8"
        },
        {
          "name": "paramAddress",
          "type": "uint8"
        }
      ]
    },
    {
      "constant": false,
      "inputs": [
        {
          "name": "_id",
          "type": "uint256"
        },
        {
          "name": "_shortDesc",
          "type": "string"
        },
        {
          "name": "_longDesc",
          "type": "string"
        }
      ],
      "name": "editProposal",
      "outputs": [
        {
          "name": "categoryName",
          "type": "string"
        },
        {
          "name": "memberVoteRequired",
          "type": "uint8"
        },
        {
          "name": "majorityVote",
          "type": "uint8"
        },
        {
          "name": "functionName",
          "type": "string"
        },
        {
          "name": "contractAt",
          "type": "address"
        },
        {
          "name": "paramInt",
          "type": "uint8"
        },
        {
          "name": "paramBytes32",
          "type": "uint8"
        },
        {
          "name": "paramAddress",
          "type": "uint8"
        }
      ],
      "payable": false,
      "stateMutability": "nonpayable",
      "type": "function"
    },
    {
      "constant": false,
      "inputs": [
        {
          "name": "_id",
          "type": "uint256"
        },
        {
          "name": "_status",
          "type": "uint256"
        },
        {
          "name": "_longDesc",
          "type": "string"
        }
      ],
      "name": "changeProposalStatus",
      "outputs": [],
      "payable": false,
      "stateMutability": "nonpayable",
      "type": "function"
    },
    {
      "constant": false,
      "inputs": [
        {
          "name": "_proposalId",
          "type": "uint256"
        },
        {
          "name": "_status",
          "type": "uint256"
        }
      ],
      "name": "closeProposalVote",
      "outputs": [],
      "payable": false,
      "stateMutability": "nonpayable",
      "type": "function"
    },
    {
      "constant": true,
      "inputs": [
        {
          "name": "_id",
          "type": "uint256"
        },
        {
          "name": "_versionNum",
          "type": "uint256"
        }
      ],
      "name": "getProposalDetailsByIdAndVersion",
      "outputs": [
        {
          "name": "versionNum",
          "type": "uint256"
        },
        {
          "name": "shortDesc",
          "type": "string"
        },
        {
          "name": "longDesc",
          "type": "string"
        },
        {
          "name": "date_add",
          "type": "uint256"
        }
      ],
      "payable": false,
      "stateMutability": "view",
      "type": "function"
    },
    {
      "constant": false,
      "inputs": [
        {
          "name": "_categoryId",
          "type": "uint256"
        },
        {
          "name": "_versionNum",
          "type": "uint256"
        }
      ],
      "name": "updateCategoryMVR",
      "outputs": [
        {
          "name": "versionNum",
          "type": "uint256"
        },
        {
          "name": "shortDesc",
          "type": "string"
        },
        {
          "name": "longDesc",
          "type": "string"
        },
        {
          "name": "date_add",
          "type": "uint256"
        }
      ],
      "payable": false,
      "stateMutability": "nonpayable",
      "type": "function"
    },
    {
      "constant": true,
      "inputs": [
        {
          "name": "_id",
          "type": "uint256"
        }
      ],
      "name": "getProposalDetailsById",
      "outputs": [
        {
          "name": "owner",
          "type": "address"
        },
        {
          "name": "shortDesc",
          "type": "string"
        },
        {
          "name": "longDesc",
          "type": "string"
        },
        {
          "name": "date_add",
          "type": "uint256"
        },
        {
          "name": "date_upd",
          "type": "uint256"
        },
        {
          "name": "versionNum",
          "type": "uint256"
        },
        {
          "name": "status",
          "type": "uint256"
        }
      ],
      "payable": false,
      "stateMutability": "view",
      "type": "function"
    },
    {
      "constant": false,
      "inputs": [
        {
          "name": "_proposalId",
          "type": "uint256"
        },
        {
          "name": "_categoryId",
          "type": "uint256"
        }
      ],
      "name": "actionAfterProposalPass",
      "outputs": [
        {
          "name": "owner",
          "type": "address"
        },
        {
          "name": "shortDesc",
          "type": "string"
        },
        {
          "name": "longDesc",
          "type": "string"
        },
        {
          "name": "date_add",
          "type": "uint256"
        },
        {
          "name": "date_upd",
          "type": "uint256"
        },
        {
          "name": "versionNum",
          "type": "uint256"
        },
        {
          "name": "status",
          "type": "uint256"
        }
      ],
      "payable": false,
      "stateMutability": "nonpayable",
      "type": "function"
    },
    {
      "constant": true,
      "inputs": [
        {
          "name": "",
          "type": "uint256"
        },
        {
          "name": "_categoryId",
          "type": "uint256"
        }
      ],
      "name": "allCategory",
      "outputs": [
        {
          "name": "categoryName",
          "type": "string"
        },
        {
          "name": "memberVoteRequired",
          "type": "uint8"
        },
        {
          "name": "majorityVote",
          "type": "uint8"
        },
        {
          "name": "functionName",
          "type": "string"
        },
        {
          "name": "contractAt",
          "type": "address"
        },
        {
          "name": "paramInt",
          "type": "uint8"
        },
        {
          "name": "paramBytes32",
          "type": "uint8"
        },
        {
          "name": "paramAddress",
          "type": "uint8"
        }
      ],
      "payable": false,
      "stateMutability": "view",
      "type": "function"
    },
    {
      "constant": true,
      "inputs": [
        {
          "name": "",
          "type": "uint256"
        }
      ],
      "name": "getCategoriesLength",
      "outputs": [
        {
          "name": "length",
          "type": "uint256"
        },
        {
          "name": "memberVoteRequired",
          "type": "uint8"
        },
        {
          "name": "majorityVote",
          "type": "uint8"
        },
        {
          "name": "functionName",
          "type": "string"
        },
        {
          "name": "contractAt",
          "type": "address"
        },
        {
          "name": "paramInt",
          "type": "uint8"
        },
        {
          "name": "paramBytes32",
          "type": "uint8"
        },
        {
          "name": "paramAddress",
          "type": "uint8"
        }
      ],
      "payable": false,
      "stateMutability": "view",
      "type": "function"
    },
    {
      "constant": true,
      "inputs": [],
      "name": "getCategoriesLength",
      "outputs": [
        {
          "name": "length",
          "type": "uint256"
        }
      ],
      "payable": false,
      "stateMutability": "nonpayable",
      "type": "constructor"
    },
    {
      "inputs": [],
      "payable": false,
      "stateMutability": "nonpayable",
      "type": "constructor"
    }
  ],
  "bytecode": "0x606060405234156200001057600080fd5b336000806101000a81548173ffffffffffffffffffffffffffffffffffffffff021916908373ffffffffffffffffffffffffffffffffffffffff160217905550603c60018190555060006003819055506019600281905550620000866200008c64010000000002620022e6176401000000009004565b62000d84565b620000aa620000ca64010000000002620034b4176401000000009004565b620000c86200051f64010000000002620038fd176401000000009004565b565b60068054806001018281620000e0919062000a9c565b91600052602060002090600402016000610100604051908101604052806040805190810160405280600d81526020017f556e63617465676f7269736564000000000000000000000000000000000000008152508152602001600060ff168152602001600060ff16815260200160206040519081016040528060008152508152602001600073ffffffffffffffffffffffffffffffffffffffff168152602001600060ff168152602001600060ff168152602001600060ff1681525090919091506000820151816000019080519060200190620001be92919062000ad1565b5060208201518160010160006101000a81548160ff021916908360ff16021790555060408201518160010160016101000a81548160ff021916908360ff16021790555060608201518160020190805190602001906200021f92919062000ad1565b5060808201518160030160006101000a81548173ffffffffffffffffffffffffffffffffffffffff021916908373ffffffffffffffffffffffffffffffffffffffff16021790555060a08201518160030160146101000a81548160ff021916908360ff16021790555060c08201518160030160156101000a81548160ff021916908360ff16021790555060e08201518160030160166101000a81548160ff021916908360ff16021790555050505060068054806001018281620002e3919062000a9c565b9160005260206000209060040201600061010060405190810160405280608060405190810160405280604481526020017f46696c746572206d656d6265722070726f706f73616c73206173206e6563657381526020017f73617279287768696368206172652070757420746f2061206d656d626572207681526020017f6f746529000000000000000000000000000000000000000000000000000000008152508152602001600060ff168152602001603c60ff16815260200160206040519081016040528060008152508152602001600073ffffffffffffffffffffffffffffffffffffffff168152602001600060ff168152602001600060ff168152602001600060ff16815250909190915060008201518160000190805190602001906200040e92919062000ad1565b5060208201518160010160006101000a81548160ff021916908360ff16021790555060408201518160010160016101000a81548160ff021916908360ff16021790555060608201518160020190805190602001906200046f92919062000ad1565b5060808201518160030160006101000a81548173ffffffffffffffffffffffffffffffffffffffff021916908373ffffffffffffffffffffffffffffffffffffffff16021790555060a08201518160030160146101000a81548160ff021916908360ff16021790555060c08201518160030160156101000a81548160ff021916908360ff16021790555060e08201518160030160166101000a81548160ff021916908360ff160217905550505050565b6007805480600101828162000535919062000b58565b91600052602060002090016000606060405190810160405280602881526020017f447261667420666f722064697363757373696f6e2c206d756c7469706c65207681526020017f657273696f6e732e00000000000000000000000000000000000000000000000081525090919091509080519060200190620005b992919062000b87565b505060078054806001018281620005d1919062000b58565b916000526020600020900160006040805190810160405280601b81526020017f50656e64696e672d41647669736f727920426f61726420566f74650000000000815250909190915090805190602001906200062e92919062000b87565b50506007805480600101828162000646919062000b58565b91600052602060002090016000606060405190810160405280603981526020017f50656e64696e672d41647669736f727920426f61726420566f7465204163636581526020017f707465642c2070656e64696e67204d656d62657220566f74650000000000000081525090919091509080519060200190620006ca92919062000b87565b505060078054806001018281620006e2919062000b58565b91600052602060002090016000606060405190810160405280602281526020017f46696e616c2d41647669736f727920426f61726420566f7465204465636c696e81526020017f6564000000000000000000000000000000000000000000000000000000000000815250909190915090805190602001906200076692919062000b87565b5050600780548060010182816200077e919062000b58565b91600052602060002090016000606060405190810160405280603c81526020017f46696e616c2d41647669736f727920426f61726420566f74652041636365707481526020017f65642c204d656d62657220566f7465206e6f7420726571756972656400000000815250909190915090805190602001906200080292919062000b87565b5050600780548060010182816200081a919062000b58565b91600052602060002090016000606060405190810160405280603881526020017f46696e616c2d41647669736f727920426f61726420566f74652041636365707481526020017f65642c204d656d62657220566f74652041636365707465640000000000000000815250909190915090805190602001906200089e92919062000b87565b505060078054806001018281620008b6919062000b58565b91600052602060002090016000606060405190810160405280603881526020017f46696e616c2d41647669736f727920426f61726420566f74652041636365707481526020017f65642c204d656d62657220566f7465204465636c696e65640000000000000000815250909190915090805190602001906200093a92919062000b87565b50506007805480600101828162000952919062000b58565b91600052602060002090016000608060405190810160405280604381526020017f46696e616c2d41647669736f727920426f61726420566f74652041636365707481526020017f65642c204d656d62657220566f74652051756f72756d206e6f7420416368696581526020017f766564000000000000000000000000000000000000000000000000000000000081525090919091509080519060200190620009fc92919062000b87565b50506007805480600101828162000a14919062000b58565b91600052602060002090016000606060405190810160405280602581526020017f50726f706f73616c2041636365707465642c20496e73756666696369656e742081526020017f46756e64730000000000000000000000000000000000000000000000000000008152509091909150908051906020019062000a9892919062000b87565b5050565b81548183558181151162000acc5760040281600402836000526020600020918201910162000acb919062000c0e565b5b505050565b828054600181600116156101000203166002900490600052602060002090601f016020900481019282601f1062000b1457805160ff191683800117855562000b45565b8280016001018555821562000b45579182015b8281111562000b4457825182559160200191906001019062000b27565b5b50905062000b54919062000cdf565b5090565b81548183558181151162000b825781836000526020600020918201910162000b81919062000d07565b5b505050565b828054600181600116156101000203166002900490600052602060002090601f016020900481019282601f1062000bca57805160ff191683800117855562000bfb565b8280016001018555821562000bfb579182015b8281111562000bfa57825182559160200191906001019062000bdd565b5b50905062000c0a919062000cdf565b5090565b62000cdc91905b8082111562000cd8576000808201600062000c31919062000d38565b6001820160006101000a81549060ff02191690556001820160016101000a81549060ff021916905560028201600062000c6b919062000d38565b6003820160006101000a81549073ffffffffffffffffffffffffffffffffffffffff02191690556003820160146101000a81549060ff02191690556003820160156101000a81549060ff02191690556003820160166101000a81549060ff02191690555060040162000c15565b5090565b90565b62000d0491905b8082111562000d0057600081600090555060010162000ce6565b5090565b90565b62000d3591905b8082111562000d31576000818162000d27919062000d38565b5060010162000d0e565b5090565b90565b50805460018160011615610100020316600290046000825580601f1062000d60575062000d81565b601f01602090049060005260206000209081019062000d80919062000cdf565b5b50565b614a508062000d946000396000f3006060604052600436106101cd576000357c0100000000000000000000000000000000000000000000000000000000900463ffffffff1680630645b8db146101d25780630d15fd771461021e57806311a1ef3e1461024757806323a670e31461026a578063281ee79f146102bd5780632c506796146102e65780632f54bf6e1461031f57806337addf571461036c5780633c975453146103a557806340b2723b1461049157806342d21ef7146104ce5780634384318e1461056a578063489c16d0146105995780634fa76ec9146105bc57806366cf51de146105e55780636b8b2c6a1461065d578063704d09a81461076957806371cc52c41461078c57806373be5ea7146108875780637cd8055a146108b65780637dd4411b146108df5780637fd6e510146109085780638bcd73171461093f5780638da5cb5b1461095457806399cb86f8146109a9578063a6f9dae114610a49578063a99adc9814610a82578063b0a4aaee14610aab578063bc34c54414610c27578063c12da3ae14610cd0578063c46994ce14610cfc578063cac86e9614610d1f578063d171325b14610e3e578063d3bff2f714610e61578063db0c4f7914610fb8578063dff5f32214610fe4578063f6d9615f1461119a575b600080fd5b34156101dd57600080fd5b6101f360048080359060200190919050506111c3565b6040518085815260200184815260200183815260200182815260200194505050505060405180910390f35b341561022957600080fd5b610231611234565b6040518082815260200191505060405180910390f35b341561025257600080fd5b610268600480803590602001909190505061123a565b005b341561027557600080fd5b6102a1600480803573ffffffffffffffffffffffffffffffffffffffff16906020019091905050611308565b604051808260ff1660ff16815260200191505060405180910390f35b34156102c857600080fd5b6102d0611328565b6040518082815260200191505060405180910390f35b34156102f157600080fd5b61031d600480803573ffffffffffffffffffffffffffffffffffffffff1690602001909190505061132e565b005b341561032a57600080fd5b610356600480803573ffffffffffffffffffffffffffffffffffffffff169060200190919050506113fc565b6040518082815260200191505060405180910390f35b341561037757600080fd5b6103a3600480803573ffffffffffffffffffffffffffffffffffffffff16906020019091905050611460565b005b34156103b057600080fd5b61048f600480803590602001909190803590602001909190803590602001908201803590602001908080602002602001604051908101604052809392919081815260200183836020028082843782019150505050505091908035906020019082018035906020019080806020026020016040519081016040528093929190818152602001838360200280828437820191505050505050919080359060200190820180359060200190808060200260200160405190810160405280939291908181526020018383602002808284378201915050505050509190505061152e565b005b341561049c57600080fd5b6104b26004808035906020019091905050611736565b604051808260ff1660ff16815260200191505060405180910390f35b34156104d957600080fd5b6104ef60048080359060200190919050506117cb565b6040518080602001828103825283818151815260200191508051906020019080838360005b8381101561052f578082015181840152602081019050610514565b50505050905090810190601f16801561055c5780820380516001836020036101000a031916815260200191505b509250505060405180910390f35b341561057557600080fd5b610597600480803590602001909190803560000b906020019091905050611887565b005b34156105a457600080fd5b6105ba6004808035906020019091905050611b95565b005b34156105c757600080fd5b6105cf611b9f565b6040518082815260200191505060405180910390f35b34156105f057600080fd5b6106066004808035906020019091905050611ba5565b604051808573ffffffffffffffffffffffffffffffffffffffff1673ffffffffffffffffffffffffffffffffffffffff16815260200184815260200183815260200182815260200194505050505060405180910390f35b341561066857600080fd5b610767600480803590602001909190803590602001908201803590602001908080601f0160208091040260200160405190810160405280939291908181526020018383808284378201915050505050509190803567ffffffffffffffff1690602001909190803561ffff1690602001909190803590602001908201803590602001908080601f0160208091040260200160405190810160405280939291908181526020018383808284378201915050505050509190803573ffffffffffffffffffffffffffffffffffffffff1690602001909190803560ff1690602001909190803560ff1690602001909190803560ff16906020019091905050611c5e565b005b341561077457600080fd5b61078a6004808035906020019091905050611ddd565b005b341561079757600080fd5b610885600480803590602001908201803590602001908080601f0160208091040260200160405190810160405280939291908181526020018383808284378201915050505050509190803560ff1690602001909190803560ff1690602001909190803590602001908201803590602001908080601f0160208091040260200160405190810160405280939291908181526020018383808284378201915050505050509190803573ffffffffffffffffffffffffffffffffffffffff1690602001909190803560ff1690602001909190803560ff1690602001909190803560ff16906020019091905050611de7565b005b341561089257600080fd5b6108b4600480803590602001909190803560000b906020019091905050611fa3565b005b34156108c157600080fd5b6108c96122b0565b6040518082815260200191505060405180910390f35b34156108ea57600080fd5b6108f26122b6565b6040518082815260200191505060405180910390f35b341561091357600080fd5b61092960048080359060200190919050506122bc565b6040518082815260200191505060405180910390f35b341561094a57600080fd5b6109526122e6565b005b341561095f57600080fd5b6109676122f8565b604051808273ffffffffffffffffffffffffffffffffffffffff1673ffffffffffffffffffffffffffffffffffffffff16815260200191505060405180910390f35b34156109b457600080fd5b610a47600480803590602001908201803590602001908080601f0160208091040260200160405190810160405280939291908181526020018383808284378201915050505050509190803590602001908201803590602001908080601f0160208091040260200160405190810160405280939291908181526020018383808284378201915050505050509190505061231d565b005b3415610a5457600080fd5b610a80600480803573ffffffffffffffffffffffffffffffffffffffff16906020019091905050612466565b005b3415610a8d57600080fd5b610a956124ff565b6040518082815260200191505060405180910390f35b3415610ab657600080fd5b610acc6004808035906020019091905050612509565b60405180806020018960ff1660ff1681526020018860ff1660ff168152602001806020018773ffffffffffffffffffffffffffffffffffffffff1673ffffffffffffffffffffffffffffffffffffffff1681526020018660ff1660ff1681526020018560ff1660ff1681526020018460ff1660ff16815260200183810383528b818151815260200191508051906020019080838360005b83811015610b7e578082015181840152602081019050610b63565b50505050905090810190601f168015610bab5780820380516001836020036101000a031916815260200191505b50838103825288818151815260200191508051906020019080838360005b83811015610be4578082015181840152602081019050610bc9565b50505050905090810190601f168015610c115780820380516001836020036101000a031916815260200191505b509a505050505050505050505060405180910390f35b3415610c3257600080fd5b610cce600480803590602001909190803590602001908201803590602001908080601f0160208091040260200160405190810160405280939291908181526020018383808284378201915050505050509190803590602001908201803590602001908080601f016020809104026020016040519081016040528093929190818152602001838380828437820191505050505050919050506127d6565b005b3415610cdb57600080fd5b610cfa60048080359060200190919080359060200190919050506129a2565b005b3415610d0757600080fd5b610d1d60048080359060200190919050506129ea565b005b3415610d2a57600080fd5b610d496004808035906020019091908035906020019091905050612d16565b604051808581526020018060200180602001848152602001838103835286818151815260200191508051906020019080838360005b83811015610d99578082015181840152602081019050610d7e565b50505050905090810190601f168015610dc65780820380516001836020036101000a031916815260200191505b50838103825285818151815260200191508051906020019080838360005b83811015610dff578082015181840152602081019050610de4565b50505050905090810190601f168015610e2c5780820380516001836020036101000a031916815260200191505b50965050505050505060405180910390f35b3415610e4957600080fd5b610e5f6004808035906020019091905050612f39565b005b3415610e6c57600080fd5b610e826004808035906020019091905050612f76565b604051808873ffffffffffffffffffffffffffffffffffffffff1673ffffffffffffffffffffffffffffffffffffffff1681526020018060200180602001878152602001868152602001858152602001848152602001838103835289818151815260200191508051906020019080838360005b83811015610f10578082015181840152602081019050610ef5565b50505050905090810190601f168015610f3d5780820380516001836020036101000a031916815260200191505b50838103825288818151815260200191508051906020019080838360005b83811015610f76578082015181840152602081019050610f5b565b50505050905090810190601f168015610fa35780820380516001836020036101000a031916815260200191505b50995050505050505050505060405180910390f35b3415610fc357600080fd5b610fe260048080359060200190919080359060200190919050506131e4565b005b3415610fef57600080fd5b611005600480803590602001909190505061333d565b60405180806020018960ff1660ff1681526020018860ff1660ff168152602001806020018773ffffffffffffffffffffffffffffffffffffffff1673ffffffffffffffffffffffffffffffffffffffff1681526020018660ff1660ff1681526020018560ff1660ff1681526020018460ff1660ff16815260200183810383528b8181546001816001161561010002031660029004815260200191508054600181600116156101000203166002900480156111005780601f106110d557610100808354040283529160200191611100565b820191906000526020600020905b8154815290600101906020018083116110e357829003601f168201915b50508381038252888181546001816001161561010002031660029004815260200191508054600181600116156101000203166002900480156111835780601f1061115857610100808354040283529160200191611183565b820191906000526020600020905b81548152906001019060200180831161116657829003601f168201915b50509a505050505050505050505060405180910390f35b34156111a557600080fd5b6111ad6133f3565b6040518082815260200191505060405180910390f35b600080600080601260008681526020019081526020016000206000015460126000878152602001908152602001600020600101546012600088815260200190815260200160002060020154601260008981526020019081526020016000206003015493509350935093509193509193565b60145481565b3373ffffffffffffffffffffffffffffffffffffffff1660088281548110151561126057fe5b906000526020600020906009020160000160009054906101000a900473ffffffffffffffffffffffffffffffffffffffff1673ffffffffffffffffffffffffffffffffffffffff1614806112d4575060006008828154811015156112c057fe5b906000526020600020906009020160060154145b15156112df57600080fd5b60016008828154811015156112f057fe5b90600052602060002090600902016006018190555050565b600b6020528060005260406000206000915054906101000a900460ff1681565b60015481565b6001600b60008373ffffffffffffffffffffffffffffffffffffffff1673ffffffffffffffffffffffffffffffffffffffff16815260200190815260200160002060009054906101000a900460ff1660ff1614801561139557506001611393336113fc565b145b15156113a057600080fd5b6000600b60008373ffffffffffffffffffffffffffffffffffffffff1673ffffffffffffffffffffffffffffffffffffffff16815260200190815260200160002060006101000a81548160ff021916908360ff16021790555050565b60008090508173ffffffffffffffffffffffffffffffffffffffff166000809054906101000a900473ffffffffffffffffffffffffffffffffffffffff1673ffffffffffffffffffffffffffffffffffffffff16141561145b57600190505b919050565b6000600b60008373ffffffffffffffffffffffffffffffffffffffff1673ffffffffffffffffffffffffffffffffffffffff16815260200190815260200160002060009054906101000a900460ff1660ff161480156114c7575060016114c5336113fc565b145b15156114d257600080fd5b6001600b60008373ffffffffffffffffffffffffffffffffffffffff1673ffffffffffffffffffffffffffffffffffffffff16815260200190815260200160002060006101000a81548160ff021916908360ff16021790555050565b60008060006001600b60003373ffffffffffffffffffffffffffffffffffffffff1673ffffffffffffffffffffffffffffffffffffffff16815260200190815260200160002060009054906101000a900460ff1660ff161480156115b25750600060088981548110151561159e57fe5b906000526020600020906009020160060154145b15156115bd57600080fd5b6115c687612509565b90919293949596509091929394955090919293945090919293509091925080935081945082955050505085518360ff16148015611606575084518260ff16145b8015611615575083518160ff16145b1561172c578660088981548110151561162a57fe5b9060005260206000209060090201600701819055506080604051908101604052803373ffffffffffffffffffffffffffffffffffffffff16815260200187815260200186815260200185815250600560008a815260200190815260200160002060008201518160000160006101000a81548173ffffffffffffffffffffffffffffffffffffffff021916908373ffffffffffffffffffffffffffffffffffffffff16021790555060208201518160010190805190602001906116ed92919061423b565b50604082015181600201908051906020019061170a9291906142e2565b506060820151816003019080519060200190611727929190614335565b509050505b5050505050505050565b60004260015460088481548110151561174b57fe5b906000526020600020906009020160040154011115801561178c5750600160088381548110151561177857fe5b906000526020600020906009020160060154145b806117b7575060026008838154811015156117a357fe5b906000526020600020906009020160060154145b15156117c257600080fd5b60019050919050565b6007818154811015156117da57fe5b90600052602060002090016000915090508054600181600116156101000203166002900480601f01602080910402602001604051908101604052809291908181526020018280546001816001161561010002031660029004801561187f5780601f106118545761010080835404028352916020019161187f565b820191906000526020600020905b81548152906001019060200180831161186257829003601f168201915b505050505081565b60006001600b60003373ffffffffffffffffffffffffffffffffffffffff1673ffffffffffffffffffffffffffffffffffffffff16815260200190815260200160002060009054906101000a900460ff1660ff16148015611908575060016008848154811015156118f457fe5b906000526020600020906009020160060154145b801561196457506000601060003373ffffffffffffffffffffffffffffffffffffffff1673ffffffffffffffffffffffffffffffffffffffff168152602001908152602001600020600085815260200190815260200160002054145b151561196f57600080fd5b601454905061197c613400565b6013805480600101828161199091906143bf565b916000526020600020906004020160006080604051908101604052803373ffffffffffffffffffffffffffffffffffffffff1681526020018781526020018660000b815260200142815250909190915060008201518160000160006101000a81548173ffffffffffffffffffffffffffffffffffffffff021916908373ffffffffffffffffffffffffffffffffffffffff160217905550602082015181600101556040820151816002015560608201518160030155505050600c60003373ffffffffffffffffffffffffffffffffffffffff1673ffffffffffffffffffffffffffffffffffffffff1681526020019081526020016000208054806001018281611a9991906143f1565b916000526020600020900160008390919091505550600e60008481526020019081526020016000208054806001018281611ad391906143f1565b9160005260206000209001600083909190915055508160000b601060003373ffffffffffffffffffffffffffffffffffffffff1673ffffffffffffffffffffffffffffffffffffffff16815260200190815260200160002060008581526020019081526020016000208190555060018260000b1415611b5a57611b5583613414565b611b90565b7fffffffffffffffffffffffffffffffffffffffffffffffffffffffffffffffff8260000b1415611b8f57611b8e8361343c565b5b5b505050565b8060028190555050565b60025481565b600080600080601385815481101515611bba57fe5b906000526020600020906004020160000160009054906101000a900473ffffffffffffffffffffffffffffffffffffffff16601386815481101515611bfb57fe5b906000526020600020906004020160010154601387815481101515611c1c57fe5b906000526020600020906004020160020154601388815481101515611c3d57fe5b90600052602060002090600402016003015493509350935093509193509193565b8760068a815481101515611c6e57fe5b90600052602060002090600402016000019080519060200190611c9292919061441d565b508460068a815481101515611ca357fe5b90600052602060002090600402016002019080519060200190611cc792919061441d565b508360068a815481101515611cd857fe5b906000526020600020906004020160030160006101000a81548173ffffffffffffffffffffffffffffffffffffffff021916908373ffffffffffffffffffffffffffffffffffffffff1602179055508260068a815481101515611d3757fe5b906000526020600020906004020160030160146101000a81548160ff021916908360ff1602179055508160068a815481101515611d7057fe5b906000526020600020906004020160030160156101000a81548160ff021916908360ff1602179055508060068a815481101515611da957fe5b906000526020600020906004020160030160166101000a81548160ff021916908360ff160217905550505050505050505050565b8060018190555050565b60068054806001018281611dfb919061449d565b91600052602060002090600402016000610100604051908101604052808c81526020018b60ff1681526020018a60ff1681526020018981526020018873ffffffffffffffffffffffffffffffffffffffff1681526020018760ff1681526020018660ff1681526020018560ff1681525090919091506000820151816000019080519060200190611e8c9291906144cf565b5060208201518160010160006101000a81548160ff021916908360ff16021790555060408201518160010160016101000a81548160ff021916908360ff1602179055506060820151816002019080519060200190611eeb9291906144cf565b5060808201518160030160006101000a81548173ffffffffffffffffffffffffffffffffffffffff021916908373ffffffffffffffffffffffffffffffffffffffff16021790555060a08201518160030160146101000a81548160ff021916908360ff16021790555060c08201518160030160156101000a81548160ff021916908360ff16021790555060e08201518160030160166101000a81548160ff021916908360ff1602179055505050505050505050505050565b600080600b60003373ffffffffffffffffffffffffffffffffffffffff1673ffffffffffffffffffffffffffffffffffffffff16815260200190815260200160002060009054906101000a900460ff1660ff161480156120235750600160088481548110151561200f57fe5b906000526020600020906009020160060154145b801561207f57506000601160003373ffffffffffffffffffffffffffffffffffffffff1673ffffffffffffffffffffffffffffffffffffffff168152602001908152602001600020600085815260200190815260200160002054145b151561208a57600080fd5b6014549050612097613400565b601380548060010182816120ab91906143bf565b916000526020600020906004020160006080604051908101604052803373ffffffffffffffffffffffffffffffffffffffff1681526020018781526020018660000b815260200142815250909190915060008201518160000160006101000a81548173ffffffffffffffffffffffffffffffffffffffff021916908373ffffffffffffffffffffffffffffffffffffffff160217905550602082015181600101556040820151816002015560608201518160030155505050600d60003373ffffffffffffffffffffffffffffffffffffffff1673ffffffffffffffffffffffffffffffffffffffff16815260200190815260200160002080548060010182816121b491906143f1565b916000526020600020900160008390919091505550600f600084815260200190815260200160002080548060010182816121ee91906143f1565b9160005260206000209001600083909190915055508160000b601160003373ffffffffffffffffffffffffffffffffffffffff1673ffffffffffffffffffffffffffffffffffffffff16815260200190815260200160002060008581526020019081526020016000208190555060018260000b14156122755761227083613464565b6122ab565b7fffffffffffffffffffffffffffffffffffffffffffffffffffffffffffffffff8260000b14156122aa576122a98361348c565b5b5b505050565b60035481565b60045481565b60006008828154811015156122cd57fe5b9060005260206000209060090201600701549050919050565b6122ee6134b4565b6122f66138fd565b565b6000809054906101000a900473ffffffffffffffffffffffffffffffffffffffff1681565b60088054806001018281612331919061454f565b91600052602060002090600902016000610120604051908101604052803373ffffffffffffffffffffffffffffffffffffffff1681526020018681526020018581526020014281526020014281526020016000815260200160008152602001600081526020016000815250909190915060008201518160000160006101000a81548173ffffffffffffffffffffffffffffffffffffffff021916908373ffffffffffffffffffffffffffffffffffffffff16021790555060208201518160010190805190602001906124049291906144cf565b5060408201518160020190805190602001906124219291906144cf565b50606082015181600301556080820151816004015560a0820151816005015560c0820151816006015560e0820151816007015561010082015181600801555050505050565b3373ffffffffffffffffffffffffffffffffffffffff166000809054906101000a900473ffffffffffffffffffffffffffffffffffffffff1673ffffffffffffffffffffffffffffffffffffffff1614156124fc57806000806101000a81548173ffffffffffffffffffffffffffffffffffffffff021916908373ffffffffffffffffffffffffffffffffffffffff1602179055505b50565b6000600254905090565b612511614581565b60008061251c614581565b60008060008060068981548110151561253157fe5b90600052602060002090600402016000018054600181600116156101000203166002900480601f0160208091040260200160405190810160405280929190818152602001828054600181600116156101000203166002900480156125d65780601f106125ab576101008083540402835291602001916125d6565b820191906000526020600020905b8154815290600101906020018083116125b957829003601f168201915b505050505097506006898154811015156125ec57fe5b906000526020600020906004020160010160009054906101000a900460ff16965060068981548110151561261c57fe5b906000526020600020906004020160010160019054906101000a900460ff16955060068981548110151561264c57fe5b90600052602060002090600402016002018054600181600116156101000203166002900480601f0160208091040260200160405190810160405280929190818152602001828054600181600116156101000203166002900480156126f15780601f106126c6576101008083540402835291602001916126f1565b820191906000526020600020905b8154815290600101906020018083116126d457829003601f168201915b5050505050945060068981548110151561270757fe5b906000526020600020906004020160030160009054906101000a900473ffffffffffffffffffffffffffffffffffffffff16935060068981548110151561274a57fe5b906000526020600020906004020160030160149054906101000a900460ff16925060068981548110151561277a57fe5b906000526020600020906004020160030160159054906101000a900460ff1691506006898154811015156127aa57fe5b906000526020600020906004020160030160169054906101000a900460ff169050919395975091939597565b6008838154811015156127e557fe5b906000526020600020906009020160000160009054906101000a900473ffffffffffffffffffffffffffffffffffffffff1673ffffffffffffffffffffffffffffffffffffffff163373ffffffffffffffffffffffffffffffffffffffff1614151561285057600080fd5b61285983613e56565b6128648383836140b6565b600060088481548110151561287557fe5b9060005260206000209060090201600701819055506005600084815260200190815260200160002060010180548060010182816128b29190614595565b91600052602060002090602091828204019190066000909190916101000a81548160ff021916908360ff1602179055505060056000848152602001908152602001600020600201805480600101828161290b91906145cf565b91600052602060002090016000809091909150906000191690555060056000848152602001908152602001600020600301805480600101828161294e91906145fb565b9160005260206000209001600080909190916101000a81548173ffffffffffffffffffffffffffffffffffffffff021916908373ffffffffffffffffffffffffffffffffffffffff16021790555050505050565b60006008838154811015156129b357fe5b906000526020600020906009020160070154141515156129d257600080fd5b6129dc8282614179565b6129e682826141e3565b5050565b60008060008060008060008060008060006001612a068d611736565b60ff161415612c965760088c815481101515612a1e57fe5b90600052602060002090600902016007015494506004549350612a4085612509565b90919293949596509091929350909192509091509050508098508197505050600160088d815481101515612a7057fe5b9060005260206000209060090201600601541415612b4557612a918c6111c3565b905050809b50819c5050508660ff168a8c0160648d02811515612ab057fe5b04101515612aef5760018660ff161415612ad457612acf8c60026129a2565b612aea565b612adf8c60046129a2565b612ae98c866131e4565b5b612b40565b612afa8c60036129a2565b7fffffffffffffffffffffffffffffffffffffffffffffffffffffffffffffffff60088d815481101515612b2a57fe5b9060005260206000209060090201600801819055505b612c95565b600260088d815481101515612b5657fe5b9060005260206000209060090201600601541415612c9457612b778c6111c3565b90919250909150809950819a505050612b8e6124ff565b8460648a8c0102811515612b9e57fe5b041015612be557612bb08c60076129a2565b600160088d815481101515612bc157fe5b906000526020600020906009020160080181905550612be08c866131e4565b612c93565b8660ff16888a0160648b02811515612bf957fe5b04101515612c4157612c0c8c60056129a2565b600160088d815481101515612c1d57fe5b906000526020600020906009020160080181905550612c3c8c866131e4565b612c92565b612c4c8c60066129a2565b7fffffffffffffffffffffffffffffffffffffffffffffffffffffffffffffffff60088d815481101515612c7c57fe5b9060005260206000209060090201600801819055505b5b5b5b5b600354925060088054905091508290505b81811015612cf5576002600882815481101515612cc057fe5b9060005260206000209060090201600601541115612ce357600183019250612ce8565b612cf5565b8080600101915050612ca7565b8281141515612d0857612d0781614231565b5b505050505050505050505050565b6000612d20614581565b612d28614581565b60006009600087815260200190815260200160002085815481101515612d4a57fe5b9060005260206000209060040201600001546009600088815260200190815260200160002086815481101515612d7c57fe5b90600052602060002090600402016001016009600089815260200190815260200160002087815481101515612dad57fe5b9060005260206000209060040201600201600960008a815260200190815260200160002088815481101515612dde57fe5b906000526020600020906004020160030154828054600181600116156101000203166002900480601f016020809104026020016040519081016040528092919081815260200182805460018160011615610100020316600290048015612e855780601f10612e5a57610100808354040283529160200191612e85565b820191906000526020600020905b815481529060010190602001808311612e6857829003601f168201915b50505050509250818054600181600116156101000203166002900480601f016020809104026020016040519081016040528092919081815260200182805460018160011615610100020316600290048015612f215780601f10612ef657610100808354040283529160200191612f21565b820191906000526020600020905b815481529060010190602001808311612f0457829003601f168201915b50505050509150935093509350935092959194509250565b6001600682815481101515612f4a57fe5b906000526020600020906004020160010160006101000a81548160ff021916908360ff16021790555050565b6000612f80614581565b612f88614581565b600080600080600888815481101515612f9d57fe5b906000526020600020906009020160000160009054906101000a900473ffffffffffffffffffffffffffffffffffffffff16600889815481101515612fde57fe5b906000526020600020906009020160010160088a815481101515612ffe57fe5b906000526020600020906009020160020160088b81548110151561301e57fe5b90600052602060002090600902016003015460088c81548110151561303f57fe5b90600052602060002090600902016004015460088d81548110151561306057fe5b90600052602060002090600902016005015460088e81548110151561308157fe5b906000526020600020906009020160060154858054600181600116156101000203166002900480601f0160208091040260200160405190810160405280929190818152602001828054600181600116156101000203166002900480156131285780601f106130fd57610100808354040283529160200191613128565b820191906000526020600020905b81548152906001019060200180831161310b57829003601f168201915b50505050509550848054600181600116156101000203166002900480601f0160208091040260200160405190810160405280929190818152602001828054600181600116156101000203166002900480156131c45780601f10613199576101008083540402835291602001916131c4565b820191906000526020600020905b8154815290600101906020018083116131a757829003601f168201915b505050505094509650965096509650965096509650919395979092949650565b60006006828154811015156131f557fe5b906000526020600020906004020160030160009054906101000a900473ffffffffffffffffffffffffffffffffffffffff1690508073ffffffffffffffffffffffffffffffffffffffff1660068381548110151561324f57fe5b906000526020600020906004020160020160405180828054600181600116156101000203166002900480156132bb5780601f106132995761010080835404028352918201916132bb565b820191906000526020600020905b8154815290600101906020018083116132a7575b505091505060405180910390207c01000000000000000000000000000000000000000000000000000000009004846040518263ffffffff167c01000000000000000000000000000000000000000000000000000000000281526004018082815260200191505060006040518083038160008761646e5a03f19250505050505050565b60068181548110151561334c57fe5b906000526020600020906004020160009150905080600001908060010160009054906101000a900460ff16908060010160019054906101000a900460ff169080600201908060030160009054906101000a900473ffffffffffffffffffffffffffffffffffffffff16908060030160149054906101000a900460ff16908060030160159054906101000a900460ff16908060030160169054906101000a900460ff16905088565b6000600680549050905090565b601460008154809291906001019190505550565b6001601260008381526020019081526020016000206000016000828254019250508190555050565b6001601260008381526020019081526020016000206001016000828254019250508190555050565b6001601260008381526020019081526020016000206002016000828254019250508190555050565b6001601260008381526020019081526020016000206003016000828254019250508190555050565b600680548060010182816134c8919061449d565b91600052602060002090600402016000610100604051908101604052806040805190810160405280600d81526020017f556e63617465676f7269736564000000000000000000000000000000000000008152508152602001600060ff168152602001600060ff16815260200160206040519081016040528060008152508152602001600073ffffffffffffffffffffffffffffffffffffffff168152602001600060ff168152602001600060ff168152602001600060ff16815250909190915060008201518160000190805190602001906135a49291906144cf565b5060208201518160010160006101000a81548160ff021916908360ff16021790555060408201518160010160016101000a81548160ff021916908360ff16021790555060608201518160020190805190602001906136039291906144cf565b5060808201518160030160006101000a81548173ffffffffffffffffffffffffffffffffffffffff021916908373ffffffffffffffffffffffffffffffffffffffff16021790555060a08201518160030160146101000a81548160ff021916908360ff16021790555060c08201518160030160156101000a81548160ff021916908360ff16021790555060e08201518160030160166101000a81548160ff021916908360ff160217905550505050600680548060010182816136c5919061449d565b9160005260206000209060040201600061010060405190810160405280608060405190810160405280604481526020017f46696c746572206d656d6265722070726f706f73616c73206173206e6563657381526020017f73617279287768696368206172652070757420746f2061206d656d626572207681526020017f6f746529000000000000000000000000000000000000000000000000000000008152508152602001600060ff168152602001603c60ff16815260200160206040519081016040528060008152508152602001600073ffffffffffffffffffffffffffffffffffffffff168152602001600060ff168152602001600060ff168152602001600060ff16815250909190915060008201518160000190805190602001906137ee9291906144cf565b5060208201518160010160006101000a81548160ff021916908360ff16021790555060408201518160010160016101000a81548160ff021916908360ff160217905550606082015181600201908051906020019061384d9291906144cf565b5060808201518160030160006101000a81548173ffffffffffffffffffffffffffffffffffffffff021916908373ffffffffffffffffffffffffffffffffffffffff16021790555060a08201518160030160146101000a81548160ff021916908360ff16021790555060c08201518160030160156101000a81548160ff021916908360ff16021790555060e08201518160030160166101000a81548160ff021916908360ff160217905550505050565b600780548060010182816139119190614627565b91600052602060002090016000606060405190810160405280602881526020017f447261667420666f722064697363757373696f6e2c206d756c7469706c65207681526020017f657273696f6e732e0000000000000000000000000000000000000000000000008152509091909150908051906020019061399392919061441d565b5050600780548060010182816139a99190614627565b916000526020600020900160006040805190810160405280601b81526020017f50656e64696e672d41647669736f727920426f61726420566f7465000000000081525090919091509080519060200190613a0492919061441d565b505060078054806001018281613a1a9190614627565b91600052602060002090016000606060405190810160405280603981526020017f50656e64696e672d41647669736f727920426f61726420566f7465204163636581526020017f707465642c2070656e64696e67204d656d62657220566f74650000000000000081525090919091509080519060200190613a9c92919061441d565b505060078054806001018281613ab29190614627565b91600052602060002090016000606060405190810160405280602281526020017f46696e616c2d41647669736f727920426f61726420566f7465204465636c696e81526020017f656400000000000000000000000000000000000000000000000000000000000081525090919091509080519060200190613b3492919061441d565b505060078054806001018281613b4a9190614627565b91600052602060002090016000606060405190810160405280603c81526020017f46696e616c2d41647669736f727920426f61726420566f74652041636365707481526020017f65642c204d656d62657220566f7465206e6f742072657175697265640000000081525090919091509080519060200190613bcc92919061441d565b505060078054806001018281613be29190614627565b91600052602060002090016000606060405190810160405280603881526020017f46696e616c2d41647669736f727920426f61726420566f74652041636365707481526020017f65642c204d656d62657220566f7465204163636570746564000000000000000081525090919091509080519060200190613c6492919061441d565b505060078054806001018281613c7a9190614627565b91600052602060002090016000606060405190810160405280603881526020017f46696e616c2d41647669736f727920426f61726420566f74652041636365707481526020017f65642c204d656d62657220566f7465204465636c696e6564000000000000000081525090919091509080519060200190613cfc92919061441d565b505060078054806001018281613d129190614627565b91600052602060002090016000608060405190810160405280604381526020017f46696e616c2d41647669736f727920426f61726420566f74652041636365707481526020017f65642c204d656d62657220566f74652051756f72756d206e6f7420416368696581526020017f766564000000000000000000000000000000000000000000000000000000000081525090919091509080519060200190613dba92919061441d565b505060078054806001018281613dd09190614627565b91600052602060002090016000606060405190810160405280602581526020017f50726f706f73616c2041636365707465642c20496e73756666696369656e742081526020017f46756e647300000000000000000000000000000000000000000000000000000081525090919091509080519060200190613e5292919061441d565b5050565b600960008281526020019081526020016000208054806001018281613e7b9190614653565b91600052602060002090600402016000608060405190810160405280600886815481101515613ea657fe5b9060005260206000209060090201600501548152602001600886815481101515613ecc57fe5b90600052602060002090600902016001018054600181600116156101000203166002900480601f016020809104026020016040519081016040528092919081815260200182805460018160011615610100020316600290048015613f715780601f10613f4657610100808354040283529160200191613f71565b820191906000526020600020905b815481529060010190602001808311613f5457829003601f168201915b50505050508152602001600886815481101515613f8a57fe5b90600052602060002090600902016002018054600181600116156101000203166002900480601f01602080910402602001604051908101604052809291908181526020018280546001816001161561010002031660029004801561402f5780601f106140045761010080835404028352916020019161402f565b820191906000526020600020905b81548152906001019060200180831161401257829003601f168201915b5050505050815260200160088681548110151561404857fe5b90600052602060002090600902016003015481525090919091506000820151816000015560208201518160010190805190602001906140889291906144cf565b5060408201518160020190805190602001906140a59291906144cf565b506060820151816003015550505050565b816008848154811015156140c657fe5b906000526020600020906009020160010190805190602001906140ea92919061441d565b50806008848154811015156140fb57fe5b9060005260206000209060090201600201908051906020019061411f92919061441d565b504260088481548110151561413057fe5b906000526020600020906009020160040181905550600160088481548110151561415657fe5b906000526020600020906009020160050160008282540192505081905550505050565b600a6000838152602001908152602001600020805480600101828161419e9190614685565b91600052602060002090600202016000604080519081016040528085815260200142815250909190915060008201518160000155602082015181600101555050505050565b806008838154811015156141f357fe5b9060005260206000209060090201600601819055504260088381548110151561421857fe5b9060005260206000209060090201600401819055505050565b8060038190555050565b82805482825590600052602060002090601f016020900481019282156142d15791602002820160005b838211156142a257835183826101000a81548160ff021916908360ff1602179055509260200192600101602081600001049283019260010302614264565b80156142cf5782816101000a81549060ff02191690556001016020816000010492830192600103026142a2565b505b5090506142de91906146b7565b5090565b828054828255906000526020600020908101928215614324579160200282015b82811115614323578251829060001916905591602001919060010190614302565b5b50905061433191906146e7565b5090565b8280548282559060005260206000209081019282156143ae579160200282015b828111156143ad5782518260006101000a81548173ffffffffffffffffffffffffffffffffffffffff021916908373ffffffffffffffffffffffffffffffffffffffff16021790555091602001919060010190614355565b5b5090506143bb919061470c565b5090565b8154818355818115116143ec576004028160040283600052602060002091820191016143eb919061474f565b5b505050565b8154818355818115116144185781836000526020600020918201910161441791906147ad565b5b505050565b828054600181600116156101000203166002900490600052602060002090601f016020900481019282601f1061445e57805160ff191683800117855561448c565b8280016001018555821561448c579182015b8281111561448b578251825591602001919060010190614470565b5b50905061449991906147ad565b5090565b8154818355818115116144ca576004028160040283600052602060002091820191016144c991906147d2565b5b505050565b828054600181600116156101000203166002900490600052602060002090601f016020900481019282601f1061451057805160ff191683800117855561453e565b8280016001018555821561453e579182015b8281111561453d578251825591602001919060010190614522565b5b50905061454b91906147ad565b5090565b81548183558181151161457c5760090281600902836000526020600020918201910161457b919061489c565b5b505050565b602060405190810160405280600081525090565b8154818355818115116145ca57601f016020900481601f016020900483600052602060002091820191016145c991906147ad565b5b505050565b8154818355818115116145f6578183600052602060002091820191016145f591906146e7565b5b505050565b8154818355818115116146225781836000526020600020918201910161462191906147ad565b5b505050565b81548183558181151161464e5781836000526020600020918201910161464d9190614932565b5b505050565b8154818355818115116146805760040281600402836000526020600020918201910161467f919061495e565b5b505050565b8154818355818115116146b2576002028160020283600052602060002091820191016146b191906149ad565b5b505050565b6146e491905b808211156146e057600081816101000a81549060ff0219169055506001016146bd565b5090565b90565b61470991905b808211156147055760008160009055506001016146ed565b5090565b90565b61474c91905b8082111561474857600081816101000a81549073ffffffffffffffffffffffffffffffffffffffff021916905550600101614712565b5090565b90565b6147aa91905b808211156147a657600080820160006101000a81549073ffffffffffffffffffffffffffffffffffffffff021916905560018201600090556002820160009055600382016000905550600401614755565b5090565b90565b6147cf91905b808211156147cb5760008160009055506001016147b3565b5090565b90565b61489991905b8082111561489557600080820160006147f191906149dc565b6001820160006101000a81549060ff02191690556001820160016101000a81549060ff021916905560028201600061482991906149dc565b6003820160006101000a81549073ffffffffffffffffffffffffffffffffffffffff02191690556003820160146101000a81549060ff02191690556003820160156101000a81549060ff02191690556003820160166101000a81549060ff0219169055506004016147d8565b5090565b90565b61492f91905b8082111561492b57600080820160006101000a81549073ffffffffffffffffffffffffffffffffffffffff02191690556001820160006148e291906149dc565b6002820160006148f291906149dc565b600382016000905560048201600090556005820160009055600682016000905560078201600090556008820160009055506009016148a2565b5090565b90565b61495b91905b80821115614957576000818161494e91906149dc565b50600101614938565b5090565b90565b6149aa91905b808211156149a65760008082016000905560018201600061498591906149dc565b60028201600061499591906149dc565b600382016000905550600401614964565b5090565b90565b6149d991905b808211156149d5576000808201600090556001820160009055506002016149b3565b5090565b90565b50805460018160011615610100020316600290046000825580601f10614a025750614a21565b601f016020900490600052602060002090810190614a2091906147ad565b5b505600a165627a7a72305820d0d80fcef6fb062d77da80082bc6afaeaeba6156eafd4abb8965b28d958d995a0029",
  "source": "/* Copyright (C) 2017 NexusMutual.io\r\n\r\n  This program is free software: you can redistribute it and/or modify\r\n    it under the terms of the GNU General Public License as published by\r\n    the Free Software Foundation, either version 3 of the License, or\r\n    (at your option) any later version.\r\n\r\n  This program is distributed in the hope that it will be useful,\r\n    but WITHOUT ANY WARRANTY; without even the implied warranty of\r\n    MERCHANTABILITY or FITNESS FOR A PARTICULAR PURPOSE.  See the\r\n    GNU General Public License for more details.\r\n\r\n  You should have received a copy of the GNU General Public License\r\n    along with this program.  If not, see http://www.gnu.org/licenses/ */\r\n\r\n\r\npragma solidity ^0.4.8;\r\n\r\ncontract governanceData {\r\n\r\n    struct proposal{\r\n        address owner;\r\n        string shortDesc;\r\n        string longDesc;\r\n        uint date_add;\r\n        uint date_upd;\r\n        uint versionNum;\r\n        uint status;  \r\n        uint category;\r\n        int finalVerdict;\r\n    }\r\n    struct proposalCategory{\r\n        address categorizedBy;\r\n        uint8[] paramInt;\r\n        bytes32[] paramBytes32;\r\n        address[] paramAddress;\r\n    }\r\n    struct proposalVersionData{\r\n        uint versionNum;\r\n        string shortDesc;\r\n        string longDesc;\r\n        uint date_add;\r\n    }\r\n    struct Status{\r\n        uint movedTo;\r\n        uint date;\r\n    }\r\n\r\n    struct category{\r\n        string categoryName;\r\n        uint8 memberVoteRequired;\r\n        uint8 majorityVote;\r\n        string functionName;\r\n        address contractAt;\r\n        uint8 paramInt;\r\n        uint8 paramBytes32;\r\n        uint8 paramAddress;      \r\n    }\r\n     struct proposalVote {\r\n        address voter;\r\n        uint proposalId;\r\n        int verdict;\r\n        uint dateSubmit;\r\n    }\r\n\r\n    struct VoteCount {\r\n        uint acceptABvote;\r\n        uint denyABvote;\r\n        uint acceptMemberVote;\r\n        uint denyMemberVote;\r\n    } \r\n    address public owner;\r\n    function governanceData () \r\n    {\r\n        owner = msg.sender;\r\n        proposalVoteClosingTime = 60;\r\n        pendingProposalStart=0;\r\n        quorumPercentage=25;\r\n        addStatusAndCategory();\r\n    }\r\n\r\n    uint public proposalVoteClosingTime;\r\n    uint public quorumPercentage;\r\n    uint public pendingProposalStart;\r\n    uint public memberCounter;\r\n    mapping(uint=>proposalCategory) allProposalCategory;\r\n    category[] public allCategory;\r\n    string[] public status;\r\n    proposal[] allProposal;\r\n    mapping(uint=>proposalVersionData[]) proposalVersions;\r\n    mapping (uint=>Status[]) proposalStatus;\r\n    mapping (address=>uint8) public advisoryBoardMembers;\r\n    mapping (address=>uint[])  userAdvisoryBoardVote; /// Maps the given vote Id against the given Advisory board member's address\r\n    mapping (address=>uint[])  userMemberVote; /// Maps the given vote Id against the given member's address.\r\n    mapping (uint=>uint[])  proposalAdvisoryBoardVote;  /// Adds the given voter Id(AB) against the given Proposal's Id\r\n    mapping (uint=>uint[])  proposalMemberVote; /// Adds the given voter Id(Member) against the given Proposal's Id\r\n    mapping (address=>mapping(uint=>int))  userProposalAdvisoryBoardVote; /// Records a members vote on a given proposal id as an AB member.\r\n    mapping (address=>mapping(uint=>int))  userProposalMemberVote; /// Records a members vote on a given proposal id.\r\n    mapping (uint=>VoteCount)  proposalVoteCount;\r\n    proposalVote[] allVotes;\r\n    uint public totalVotes;\r\n\r\n    function addStatusAndCategory () \r\n    {\r\n        addCategory();\r\n        addStatus();\r\n    }\r\n    \r\n\r\n    /// @dev Increases the count of NXM Members by 1 (called whenever a new Member is added).\r\n    function incMemberCounter() internal\r\n    {\r\n        memberCounter++;\r\n    }\r\n\r\n    /// @dev Decreases the count of NXM Members by 1 (called when a member is removed i.e. NXM tokens of a member is 0).\r\n    function decMemberCounter() internal\r\n    {\r\n        memberCounter--;\r\n    }\r\n\r\n    /// @dev Gets the Quorum Percentage.\r\n    function getQuorumPerc() public constant returns(uint percentage) \r\n    {\r\n        percentage = quorumPercentage;\r\n    }\r\n\r\n    /// @dev Changes the Quorum Percentage.\r\n    function changeQuorumPercentage(uint _percentage) public  \r\n    {\r\n        quorumPercentage = _percentage;\r\n    }\r\n\r\n    /// @dev Changes the status of a given proposal to open it for voting. // wil get called when we submit the proposal\r\n    function openProposalForVoting(uint _proposalId) public\r\n    {\r\n        require(allProposal[_proposalId].owner == msg.sender || allProposal[_proposalId].status ==0);\r\n        allProposal[_proposalId].status = 1;\r\n        // closeProposalOraclise(id,gd1.getClosingTime());\r\n    }\r\n\r\n    /// @dev Changes the time(in seconds) after which proposal voting is closed.\r\n    function changeProposalVoteClosingTime(uint _closingTime) public\r\n    {\r\n        proposalVoteClosingTime = _closingTime;   \r\n    }\r\n\r\n    /// @dev Checks if voting time of a given proposal should be closed or not. \r\n    function checkProposalVoteClosing(uint _proposalId) constant returns(uint8 closeValue)\r\n    {\r\n        require((allProposal[_proposalId].date_upd + proposalVoteClosingTime <= now && allProposal[_proposalId].status == 1)|| allProposal[_proposalId].status == 2);\r\n        closeValue=1;\r\n    }\r\n\r\n    /// @dev proposal should gets closed.\r\n    function closeProposalVote(uint _proposalId)\r\n    {\r\n        if(checkProposalVoteClosing(_proposalId)==1) /// either status == 1 or status == 2 thats why Closing ==1\r\n        {\r\n            uint acceptABvote;\r\n            uint denyABvote;\r\n            uint acceptMemberVote;\r\n            uint denyMemberVote;\r\n            uint8 majorityVote;\r\n            uint8 memberVoteRequired;\r\n            uint category = allProposal[_proposalId].category;\r\n            uint totalMember = memberCounter; \r\n\r\n            (,memberVoteRequired,majorityVote,,,,,) = getCategoryDetails(category);\r\n            if(allProposal[_proposalId].status==1)  // // pending advisory board vote\r\n            {\r\n                (acceptABvote,denyABvote,,) = getProposalVoteCount(_proposalId);\r\n                \r\n                if(acceptABvote*100/(acceptABvote+denyABvote)>=majorityVote) /// if proposal accepted% >=majority % (by Advisory board)\r\n                {    \r\n                    if(memberVoteRequired==1) /// Member vote required \r\n                    {\r\n                        changeProposalStatus(_proposalId,2);\r\n                        // p1.closeProposalOraclise(id,gd1.getClosingTime());\r\n                    }\r\n                    else /// Member vote not required\r\n                    {\r\n                        changeProposalStatus(_proposalId,4);\r\n                        actionAfterProposalPass(_proposalId , category);\r\n                    }\r\n                } // when AB votes are not enough . /// if proposal is denied\r\n                else\r\n                {\r\n                    changeProposalStatus(_proposalId,3);\r\n                    allProposal[_proposalId].finalVerdict = -1;\r\n                }\r\n            }\r\n            else if(allProposal[_proposalId].status==2) /// pending member vote\r\n            {\r\n                (,,acceptMemberVote,denyMemberVote) = getProposalVoteCount(_proposalId);\r\n                /// when Member Vote Quorum not Achieved\r\n                if((acceptMemberVote+denyMemberVote)*100/totalMember < getQuorumPerc()) \r\n                {\r\n                    changeProposalStatus(_proposalId,7);\r\n                    allProposal[_proposalId].finalVerdict = 1;\r\n                    actionAfterProposalPass(_proposalId , category);\r\n                }\r\n                /// if proposal accepted% >=majority % (by Members)\r\n                else if(acceptMemberVote*100/(acceptMemberVote+denyMemberVote)>=majorityVote)\r\n                {\r\n                    changeProposalStatus(_proposalId,5);\r\n                    allProposal[_proposalId].finalVerdict = 1;\r\n                    actionAfterProposalPass(_proposalId , category);\r\n                }\r\n                /// if proposal is denied\r\n                else\r\n                {\r\n                    changeProposalStatus(_proposalId,6);\r\n                    allProposal[_proposalId].finalVerdict = -1;    \r\n                }\r\n            }\r\n        } \r\n        uint pendingPS = pendingProposalStart;\r\n        uint proposalLength = allProposal.length;\r\n        for(uint j=pendingPS; j<proposalLength; j++)\r\n        {\r\n            if(allProposal[j].status > 2)\r\n                pendingPS += 1;\r\n            else\r\n                break;\r\n        }\r\n        if(j!=pendingPS)\r\n        {\r\n            changePendingProposalStart(j);\r\n        }\r\n        \r\n    }\r\n\r\n    /// @dev Change pending proposal start variable\r\n    function changePendingProposalStart(uint _pendingPS) internal\r\n    {\r\n        pendingProposalStart = _pendingPS;\r\n    }\r\n\r\n    function actionAfterProposalPass(uint256 _proposalId,uint _categoryId) public\r\n    {\r\n        address contractAt = allCategory[_categoryId].contractAt;\r\n        // string  functionName = allCategory[_categoryId].functionName;\r\n        // string functionName = \"updateCategory_memberVote(uint)\";\r\n        contractAt.call(bytes4(sha3(allCategory[_categoryId].functionName)),_proposalId);\r\n    }\r\n\r\n    function updateCategoryMVR(uint _categoryId) \r\n    {\r\n        allCategory[_categoryId].memberVoteRequired = 1;\r\n    }\r\n\r\n    /// @dev Check if the member who wants to change in contracts, is owner.\r\n    function isOwner(address _memberAddress) constant returns(uint checkOwner)\r\n    {\r\n        checkOwner=0;\r\n        if(owner == _memberAddress)\r\n            checkOwner=1;\r\n    }\r\n\r\n    /// @dev Change current owner\r\n    function changeOwner(address _memberAddress) public\r\n    {\r\n        if(owner == msg.sender)\r\n            owner = _memberAddress;\r\n    }\r\n\r\n    /// @dev Gets the total number of categories.\r\n    function getCategoriesLength() constant returns (uint length){\r\n        length = allCategory.length;\r\n    }\r\n\r\n    /// @dev Gets category details by category id.\r\n    function getCategoryDetails(uint _categoryId) public constant returns (string categoryName,uint8 memberVoteRequired,uint8 majorityVote,string functionName,address contractAt,uint8 paramInt,uint8 paramBytes32,uint8 paramAddress)\r\n    {    \r\n        categoryName = allCategory[_categoryId].categoryName;\r\n        memberVoteRequired = allCategory[_categoryId].memberVoteRequired;\r\n        majorityVote = allCategory[_categoryId].majorityVote;\r\n        functionName = allCategory[_categoryId].functionName;\r\n        contractAt = allCategory[_categoryId].contractAt;\r\n        paramInt = allCategory[_categoryId].paramInt;\r\n        paramBytes32 = allCategory[_categoryId].paramBytes32;\r\n        paramAddress = allCategory[_categoryId].paramAddress;\r\n    } \r\n\r\n\r\n    /// @dev Increases the number of votes by 1.\r\n    function increaseTotalVotes() internal\r\n    {\r\n        totalVotes++;\r\n    }\r\n\r\n    /// @dev Registers an Advisroy Board Member's vote for Proposal. _id is proposal id..\r\n    function proposalVoteByABmember(uint _proposalId , int8 _verdict) public\r\n    {\r\n        require(advisoryBoardMembers[msg.sender]==1 && allProposal[_proposalId].status == 1 && userProposalAdvisoryBoardVote[msg.sender][_proposalId]==0);\r\n        uint votelength = totalVotes;\r\n        increaseTotalVotes();\r\n        allVotes.push(proposalVote(msg.sender,_proposalId,_verdict,now)); \r\n        userAdvisoryBoardVote[msg.sender].push(votelength); \r\n        proposalAdvisoryBoardVote[_proposalId].push(votelength);\r\n        userProposalAdvisoryBoardVote[msg.sender][_proposalId]=_verdict;\r\n\r\n        if(_verdict==1)\r\n            proposalABacceptVote(_proposalId);\r\n        else if(_verdict==-1)\r\n            proposalABdenyVote(_proposalId);\r\n    }\r\n\r\n    /// @dev Registers an User Member's vote for Proposal. _id is proposal id...\r\n    function proposalVoteByMember(uint _proposalId , int8 _verdict) public\r\n    {\r\n        require(advisoryBoardMembers[msg.sender]==0 && allProposal[_proposalId].status == 1 && userProposalMemberVote[msg.sender][_proposalId]==0);\r\n        uint votelength = totalVotes;\r\n        increaseTotalVotes();\r\n        allVotes.push(proposalVote(msg.sender,_proposalId,_verdict,now)); \r\n        userMemberVote[msg.sender].push(votelength); \r\n        proposalMemberVote[_proposalId].push(votelength);\r\n        userProposalMemberVote[msg.sender][_proposalId]=_verdict;\r\n\r\n        if(_verdict==1)\r\n            proposalMemberAcceptVote(_proposalId);\r\n        else if(_verdict==-1)\r\n            proposalMemberDenyVote(_proposalId);\r\n    }\r\n\r\n    /// @dev Increases the proposal's accept vote count, called when proposal is accepted by an Advisory board member.\r\n    function proposalABacceptVote(uint _proposalId) internal\r\n    {\r\n        proposalVoteCount[_proposalId].acceptABvote +=1;\r\n    }\r\n\r\n    /// @dev Increases the proposal's deny vote count, called when proposal is denied by an Advisory board member.\r\n    function proposalABdenyVote(uint _proposalId) internal\r\n    {\r\n        proposalVoteCount[_proposalId].denyABvote +=1;\r\n    }\r\n\r\n    /// @dev Increases the proposal's accept vote count, called when proposal is accepted by a member.\r\n    function proposalMemberAcceptVote(uint _proposalId) internal\r\n    {\r\n        proposalVoteCount[_proposalId].acceptMemberVote +=1;\r\n    }\r\n\r\n    /// @dev Increases the proposal's deny vote count, called when proposal is denied by a member.   \r\n    function proposalMemberDenyVote(uint _proposalId) internal\r\n    {\r\n        proposalVoteCount[_proposalId].denyMemberVote +=1;\r\n    }\r\n\r\n    /// @dev Provides Vote details of a given vote id. \r\n    function getVoteDetailByid(uint _voteid) public constant returns( address voter,uint proposalId,int verdict,uint dateSubmit)\r\n    {\r\n        return(allVotes[_voteid].voter,allVotes[_voteid].proposalId,allVotes[_voteid].verdict,allVotes[_voteid].dateSubmit);\r\n    }\r\n\r\n    /// @dev Gets the number of votes received against a given proposal.\r\n    function getProposalVoteCount(uint _proposalid) constant returns(uint acceptABvote,uint denyABvote,uint MemberAccept,uint MemberDeny)\r\n    {\r\n        return(proposalVoteCount[_proposalid].acceptABvote,proposalVoteCount[_proposalid].denyABvote,proposalVoteCount[_proposalid].acceptMemberVote,proposalVoteCount[_proposalid].denyMemberVote);\r\n    }\r\n\r\n    /// @dev Creates a new proposal \r\n    function addNewProposal(string _shortDesc,string _longDesc) public\r\n    {\r\n        allProposal.push(proposal(msg.sender,_shortDesc,_longDesc,now,now,0,0,0,0));\r\n    }\r\n\r\n    /// @dev Fetch details of proposal by giving proposal Id\r\n    function getProposalDetailsById(uint _id) public constant returns (address owner,string shortDesc,string longDesc,uint date_add,uint date_upd,uint versionNum,uint status)\r\n    {\r\n        return (allProposal[_id].owner,allProposal[_id].shortDesc,allProposal[_id].longDesc,allProposal[_id].date_add,allProposal[_id].date_upd,allProposal[_id].versionNum,allProposal[_id].status);\r\n    }\r\n     \r\n    function getProposalCategory (uint _proposalid) public constant returns(uint category) \r\n    {\r\n        category = allProposal[_proposalid].category; \r\n    }\r\n        \r\n    /// @dev Edits a proposal and Only owner of a proposal can edit it.\r\n    function editProposal(uint _id , string _shortDesc, string _longDesc) public\r\n    {\r\n        require(msg.sender == allProposal[_id].owner);\r\n        {\r\n            storeProposalVersion(_id);\r\n            updateProposal(_id,_shortDesc,_longDesc);\r\n            allProposal[_id].category = 0;\r\n            allProposalCategory[_id].paramInt.push(0);\r\n            allProposalCategory[_id].paramBytes32.push(\"\");\r\n            allProposalCategory[_id].paramAddress.push(0);\r\n        }\r\n    }\r\n\r\n    /// @dev Stores the information of a given version number of a given proposal. Maintains the record of all the versions of a proposal.\r\n    function storeProposalVersion(uint _id) internal \r\n    {\r\n        proposalVersions[_id].push(proposalVersionData(allProposal[_id].versionNum,allProposal[_id].shortDesc,allProposal[_id].longDesc,allProposal[_id].date_add));            \r\n    }\r\n\r\n    /// @dev Edits the details of an existing proposal and creates new version.\r\n    function updateProposal(uint _id,string _shortDesc,string _longDesc) internal\r\n    {\r\n        allProposal[_id].shortDesc = _shortDesc;\r\n        allProposal[_id].longDesc = _longDesc;\r\n        allProposal[_id].date_upd = now;\r\n        allProposal[_id].versionNum += 1;\r\n    }\r\n\r\n    /// @dev Gets version details of a given proposal id.\r\n    function getProposalDetailsByIdAndVersion(uint _id,uint _versionNum) public constant returns( uint versionNum,string shortDesc,string longDesc,uint date_add)\r\n    {\r\n       return (proposalVersions[_id][_versionNum].versionNum,proposalVersions[_id][_versionNum].shortDesc,proposalVersions[_id][_versionNum].longDesc,proposalVersions[_id][_versionNum].date_add);\r\n    }\r\n\r\n    /// @dev Changes the status of a given proposal.\r\n    function changeProposalStatus(uint _id,uint _status) public\r\n    {\r\n        require(allProposal[_id].category != 0);\r\n        pushInProposalStatus(_id,_status);\r\n        updateProposalStatus(_id,_status);\r\n    }\r\n\r\n    /// @dev Adds status names in array - Not generic right now\r\n    function addStatus() internal\r\n    {   \r\n        status.push(\"Draft for discussion, multiple versions.\");\r\n        status.push(\"Pending-Advisory Board Vote\");\r\n        status.push(\"Pending-Advisory Board Vote Accepted, pending Member Vote\");\r\n        status.push(\"Final-Advisory Board Vote Declined\");\r\n        status.push(\"Final-Advisory Board Vote Accepted, Member Vote not required\");\r\n        status.push(\"Final-Advisory Board Vote Accepted, Member Vote Accepted\");\r\n        status.push(\"Final-Advisory Board Vote Accepted, Member Vote Declined\");\r\n        status.push(\"Final-Advisory Board Vote Accepted, Member Vote Quorum not Achieved\");\r\n        status.push(\"Proposal Accepted, Insufficient Funds\");\r\n    }\r\n\r\n    /// @dev Adds category names -\r\n    function addCategory() internal\r\n    {   \r\n        allCategory.push(category(\"Uncategorised\",0,0,\"\",0,0,0,0));\r\n        allCategory.push(category(\"Filter member proposals as necessary(which are put to a member vote)\",0,60,\"\",0,0,0,0));\r\n    }\r\n\r\n    /// @dev Updates  status of an existing proposal.\r\n    function updateProposalStatus(uint _id ,uint _status) internal\r\n    {\r\n        allProposal[_id].status = _status;\r\n        allProposal[_id].date_upd =now;\r\n    }\r\n\r\n    /// @dev Stores the status information of a given proposal.\r\n    function pushInProposalStatus(uint _id , uint _status) internal\r\n    {\r\n        proposalStatus[_id].push(Status(_status,now));\r\n    }\r\n\r\n    /// @dev Adds a new category.\r\n    function addNewCategory(string _categoryName,uint8 _memberVoteRequired,uint8 _majorityVote,string _functionName,address _contractAt,uint8 _paramInt,uint8 _paramBytes32,uint8 _paramAddress) public\r\n    {\r\n        allCategory.push(category(_categoryName,_memberVoteRequired,_majorityVote,_functionName,_contractAt,_paramInt,_paramBytes32,_paramAddress));\r\n    }\r\n\r\n    // /// @dev Gets category details by category id.\r\n    // function allCategory(uint _categoryId) public constant returns (string categoryName,uint8 memberVoteRequired,uint8 majorityVote,string functionName,address contractAt,uint8 paramInt,uint8 paramBytes32,uint8 paramAddress)\r\n    // {    \r\n    //     categoryName = allCategory[_categoryId].categoryName;\r\n    //     memberVoteRequired = allCategory[_categoryId].memberVoteRequired;\r\n    //     majorityVote = allCategory[_categoryId].majorityVote;\r\n    //     functionName = allCategory[_categoryId].functionName;\r\n    //     contractAt = allCategory[_categoryId].contractAt;\r\n    //     paramInt = allCategory[_categoryId].paramInt;\r\n    //     paramBytes32 = allCategory[_categoryId].paramBytes32;\r\n    //     paramAddress = allCategory[_categoryId].paramAddress;\r\n    // } \r\n\r\n    function updateCategory(uint _categoryId,string _categoryName,uint64 _memberVoteRequired,uint16 _majorityVote,string _functionName,address _contractAt,uint8 _paramInt,uint8 _paramBytes32,uint8 _paramAddress) public\r\n    {\r\n        allCategory[_categoryId].categoryName = _categoryName;\r\n        allCategory[_categoryId].functionName = _functionName;\r\n        allCategory[_categoryId].contractAt = _contractAt;\r\n        allCategory[_categoryId].paramInt = _paramInt;\r\n        allCategory[_categoryId].paramBytes32 = _paramBytes32; \r\n        allCategory[_categoryId].paramAddress = _paramAddress; \r\n    }\r\n\r\n    function categorizeProposal(uint _id , uint _categoryId,uint8[] _paramInt,bytes32[] _paramBytes32,address[] _paramAddress) public\r\n    {\r\n        require(advisoryBoardMembers[msg.sender]==1 && allProposal[_id].status == 0);\r\n        uint8 paramInt; uint8 paramBytes32; uint8 paramAddress;\r\n        (,,,,,paramInt,paramBytes32,paramAddress) = getCategoryDetails(_categoryId);\r\n\r\n        if(paramInt == _paramInt.length && paramBytes32 == _paramBytes32.length && paramAddress == _paramAddress.length)\r\n        {\r\n            allProposal[_id].category = _categoryId;\r\n            allProposalCategory[_id]=proposalCategory(msg.sender,_paramInt,_paramBytes32,_paramAddress);\r\n        } \r\n    }\r\n\r\n    /// @dev Adds a given address as an advisory board member.\r\n    function joinAdvisoryBoard(address _memberAddress) public\r\n    {\r\n        require(advisoryBoardMembers[_memberAddress]==0 && isOwner(msg.sender) == 1);\r\n        advisoryBoardMembers[_memberAddress] = 1;\r\n    }\r\n\r\n    /// @dev Removes a given address from the advisory board.\r\n    function removeAdvisoryBoard(address _memberAddress) public\r\n    {\r\n        require(advisoryBoardMembers[_memberAddress]==1 && isOwner(msg.sender) == 1);\r\n        advisoryBoardMembers[_memberAddress] = 0;\r\n    }\r\n\r\n}  \r\n\r\ncontract governance \r\n{\r\n   address governanceDataAddress;\r\n    governanceData gd1;\r\n    function changeGovernanceDataAddress(address _contractAddress) public\r\n    {\r\n        governanceDataAddress = _contractAddress;\r\n        gd1=governanceData(governanceDataAddress);\r\n    }\r\n    \r\n    function updateCategory_memberVote(uint256 _proposalId) \r\n    {\r\n        gd1=governanceData(governanceDataAddress);\r\n        uint _categoryId = gd1.getProposalCategory(_proposalId);\r\n        gd1.updateCategoryMVR(_categoryId);\r\n    }\r\n    \r\n}\r\n\r\n\r\n",
  "sourcePath": "D:\\GovBlocks\\CGP\\contracts\\governanceData.sol",
  "compiler": {
    "name": "solc",
    "version": "0.4.18+commit.9cf6e910.Emscripten.clang"
  },
  "schemaVersion": "1.0.1",
  "updatedAt": "2017-11-08T11:50:53.391Z"
}