{
  "contractName": "governanceData",
  "abi": [
    {
      "constant": true,
      "inputs": [
        {
          "name": "_id",
          "type": "uint256"
        }
      ],
      "name": "getProposalDetails",
      "outputs": [
        {
          "name": "owner",
          "type": "address"
        },
        {
          "name": "shortDesc",
          "type": "string"
        },
        {
          "name": "longDesc",
          "type": "string"
        },
        {
          "name": "date_add",
          "type": "uint256"
        }
      ],
      "payable": false,
      "stateMutability": "view",
      "type": "function"
    },
    {
      "constant": false,
      "inputs": [
        {
          "name": "_shortDesc",
          "type": "string"
        },
        {
          "name": "_longDesc",
          "type": "string"
        }
      ],
      "name": "addNewProposal",
      "outputs": [],
      "payable": false,
      "stateMutability": "nonpayable",
      "type": "function"
    }
  ],
  "bytecode": "0x6060604052341561000f57600080fd5b6106ef8061001e6000396000f30060606040526004361061004c576000357c0100000000000000000000000000000000000000000000000000000000900463ffffffff1680633b4d01a71461005157806399cb86f814610193575b600080fd5b341561005c57600080fd5b6100726004808035906020019091905050610233565b604051808573ffffffffffffffffffffffffffffffffffffffff1673ffffffffffffffffffffffffffffffffffffffff1681526020018060200180602001848152602001838103835286818151815260200191508051906020019080838360005b838110156100ee5780820151818401526020810190506100d3565b50505050905090810190601f16801561011b5780820380516001836020036101000a031916815260200191505b50838103825285818151815260200191508051906020019080838360005b83811015610154578082015181840152602081019050610139565b50505050905090810190601f1680156101815780820380516001836020036101000a031916815260200191505b50965050505050505060405180910390f35b341561019e57600080fd5b610231600480803590602001908201803590602001908080601f0160208091040260200160405190810160405280939291908181526020018383808284378201915050505050509190803590602001908201803590602001908080601f0160208091040260200160405190810160405280939291908181526020018383808284378201915050505050509190505061042f565b005b600061023d610522565b610245610522565b6000808581548110151561025557fe5b906000526020600020906004020160000160009054906101000a900473ffffffffffffffffffffffffffffffffffffffff1660008681548110151561029657fe5b90600052602060002090600402016001016000878154811015156102b657fe5b90600052602060002090600402016002016000888154811015156102d657fe5b906000526020600020906004020160030154828054600181600116156101000203166002900480601f01602080910402602001604051908101604052809291908181526020018280546001816001161561010002031660029004801561037d5780601f106103525761010080835404028352916020019161037d565b820191906000526020600020905b81548152906001019060200180831161036057829003601f168201915b50505050509250818054600181600116156101000203166002900480601f0160208091040260200160405190810160405280929190818152602001828054600181600116156101000203166002900480156104195780601f106103ee57610100808354040283529160200191610419565b820191906000526020600020905b8154815290600101906020018083116103fc57829003601f168201915b5050505050915093509350935093509193509193565b600080548060010182816104439190610536565b916000526020600020906004020160006080604051908101604052803373ffffffffffffffffffffffffffffffffffffffff16815260200186815260200185815260200142815250909190915060008201518160000160006101000a81548173ffffffffffffffffffffffffffffffffffffffff021916908373ffffffffffffffffffffffffffffffffffffffff16021790555060208201518160010190805190602001906104f3929190610568565b506040820151816002019080519060200190610510929190610568565b50606082015181600301555050505050565b602060405190810160405280600081525090565b8154818355818115116105635760040281600402836000526020600020918201910161056291906105e8565b5b505050565b828054600181600116156101000203166002900490600052602060002090601f016020900481019282601f106105a957805160ff19168380011785556105d7565b828001600101855582156105d7579182015b828111156105d65782518255916020019190600101906105bb565b5b5090506105e49190610656565b5090565b61065391905b8082111561064f57600080820160006101000a81549073ffffffffffffffffffffffffffffffffffffffff021916905560018201600061062e919061067b565b60028201600061063e919061067b565b6003820160009055506004016105ee565b5090565b90565b61067891905b8082111561067457600081600090555060010161065c565b5090565b90565b50805460018160011615610100020316600290046000825580601f106106a157506106c0565b601f0160209004906000526020600020908101906106bf9190610656565b5b505600a165627a7a72305820ea4ccfb11e11f9f56078996565ec5dda07fc236db0268d9fbef13733ba6463020029",
  "source": "/* Copyright (C) 2017 NexusMutual.io\r\n\r\n  This program is free software: you can redistribute it and/or modify\r\n    it under the terms of the GNU General Public License as published by\r\n    the Free Software Foundation, either version 3 of the License, or\r\n    (at your option) any later version.\r\n\r\n  This program is distributed in the hope that it will be useful,\r\n    but WITHOUT ANY WARRANTY; without even the implied warranty of\r\n    MERCHANTABILITY or FITNESS FOR A PARTICULAR PURPOSE.  See the\r\n    GNU General Public License for more details.\r\n\r\n  You should have received a copy of the GNU General Public License\r\n    along with this program.  If not, see http://www.gnu.org/licenses/ */\r\n\r\n\r\npragma solidity ^0.4.8;\r\n\r\ncontract governanceData {\r\n\r\n    struct proposal{\r\n        address owner;\r\n        string shortDesc;\r\n        string longDesc;\r\n        uint date_add;\r\n    }\r\n    proposal[] allProposal;\r\n\r\n    /// @dev Creates a new proposal \r\n    function addNewProposal(string _shortDesc,string _longDesc) public\r\n    {\r\n        allProposal.push(proposal(msg.sender,_shortDesc,_longDesc,now));\r\n    }\r\n\r\n    /// @dev Fetch details of proposal\r\n    function getProposalDetails(uint _id) public constant returns (address owner,string shortDesc,string longDesc,uint date_add)\r\n    {\r\n        return (allProposal[_id].owner,allProposal[_id].shortDesc,allProposal[_id].longDesc,allProposal[_id].date_add);\r\n    }\r\n      \r\n}\r\n\r\n\r\n\r\n        \r\n\r\n\r\n\r\n        \r\n\r\n",
  "sourcePath": "D:\\GovBlocks\\CGP\\contracts\\governanceData.sol",
  "compiler": {
    "name": "solc",
    "version": "0.4.18+commit.9cf6e910.Emscripten.clang"
  },
  "schemaVersion": "1.0.1",
  "updatedAt": "2017-11-03T10:12:42.512Z"
}