{
  "contractName": "governanceData",
  "abi": [
    {
      "constant": false,
      "inputs": [
        {
          "name": "_proposalId",
          "type": "uint256"
        },
        {
          "name": "_voteValue",
          "type": "uint256"
        }
      ],
      "name": "setProposalTotalVoteValue",
      "outputs": [],
      "payable": false,
      "stateMutability": "nonpayable",
      "type": "function"
    },
    {
      "constant": false,
      "inputs": [
        {
          "name": "_proposalId",
          "type": "uint256"
        },
        {
          "name": "_roleId",
          "type": "uint256"
        },
        {
          "name": "_voteId",
          "type": "uint256"
        }
      ],
      "name": "setVoteId_againstProposalRole",
      "outputs": [],
      "payable": false,
      "stateMutability": "nonpayable",
      "type": "function"
    },
    {
      "constant": false,
      "inputs": [
        {
          "name": "_from",
          "type": "address"
        },
        {
          "name": "_proposalId",
          "type": "uint256"
        },
        {
          "name": "_dateAdd",
          "type": "uint256"
        },
        {
          "name": "_voteStakeGBT",
          "type": "uint256"
        },
        {
          "name": "_voteId",
          "type": "uint256"
        }
      ],
      "name": "callVoteEvent",
      "outputs": [],
      "payable": false,
      "stateMutability": "nonpayable",
      "type": "function"
    },
    {
      "constant": false,
      "inputs": [
        {
          "name": "_to",
          "type": "address"
        },
        {
          "name": "_proposalId",
          "type": "uint256"
        },
        {
          "name": "_description",
          "type": "string"
        },
        {
          "name": "_amount",
          "type": "uint256"
        }
      ],
      "name": "callRewardEvent",
      "outputs": [],
      "payable": false,
      "stateMutability": "nonpayable",
      "type": "function"
    },
    {
      "constant": false,
      "inputs": [
        {
          "name": "_proposalId",
          "type": "uint256"
        },
        {
          "name": "_proposalDescHash",
          "type": "string"
        }
      ],
      "name": "storeProposalVersion",
      "outputs": [],
      "payable": false,
      "stateMutability": "nonpayable",
      "type": "function"
    },
    {
      "constant": true,
      "inputs": [],
      "name": "membershipScalingFactor",
      "outputs": [
        {
          "name": "",
          "type": "uint256"
        }
      ],
      "payable": false,
      "stateMutability": "view",
      "type": "function"
    },
    {
      "constant": false,
      "inputs": [
        {
          "name": "_scalingWeight",
          "type": "uint256"
        }
      ],
      "name": "changeScalingWeight",
      "outputs": [],
      "payable": false,
      "stateMutability": "nonpayable",
      "type": "function"
    },
    {
      "constant": true,
      "inputs": [
        {
          "name": "_proposalId",
          "type": "uint256"
        }
      ],
      "name": "getProposalOwner",
      "outputs": [
        {
          "name": "",
          "type": "address"
        }
      ],
      "payable": false,
      "stateMutability": "view",
      "type": "function"
    },
    {
      "constant": true,
      "inputs": [
        {
          "name": "_proposalId",
          "type": "uint256"
        },
        {
          "name": "_roleId",
          "type": "uint256"
        },
        {
          "name": "_index",
          "type": "uint256"
        }
      ],
      "name": "getVoteId_againstProposalRole",
      "outputs": [
        {
          "name": "",
          "type": "uint256"
        }
      ],
      "payable": false,
      "stateMutability": "view",
      "type": "function"
    },
    {
      "constant": true,
      "inputs": [
        {
          "name": "_memberAddress",
          "type": "address"
        }
      ],
      "name": "getMemberReputation",
      "outputs": [
        {
          "name": "memberPoints",
          "type": "uint32"
        }
      ],
      "payable": false,
      "stateMutability": "view",
      "type": "function"
    },
    {
      "constant": false,
      "inputs": [
        {
          "name": "_repPoints",
          "type": "uint32"
        }
      ],
      "name": "changeSolutionOwnerAdd",
      "outputs": [],
      "payable": false,
      "stateMutability": "nonpayable",
      "type": "function"
    },
    {
      "constant": false,
      "inputs": [
        {
          "name": "_proposalId",
          "type": "uint256"
        },
        {
          "name": "_proposalStatus",
          "type": "uint256"
        },
        {
          "name": "_dateAdd",
          "type": "uint256"
        }
      ],
      "name": "callProposalStatusEvent",
      "outputs": [],
      "payable": false,
      "stateMutability": "nonpayable",
      "type": "function"
    },
    {
      "constant": true,
      "inputs": [
        {
          "name": "_proposalId",
          "type": "uint256"
        }
      ],
      "name": "getProposalFinalVerdict",
      "outputs": [
        {
          "name": "finalSolutionIndex",
          "type": "uint256"
        }
      ],
      "payable": false,
      "stateMutability": "view",
      "type": "function"
    },
    {
      "constant": false,
      "inputs": [
        {
          "name": "_from",
          "type": "address"
        },
        {
          "name": "_proposalId",
          "type": "uint256"
        },
        {
          "name": "_description",
          "type": "string"
        },
        {
          "name": "_reputationPoints",
          "type": "uint32"
        },
        {
          "name": "_typeOf",
          "type": "bytes4"
        }
      ],
      "name": "callReputationEvent",
      "outputs": [],
      "payable": false,
      "stateMutability": "nonpayable",
      "type": "function"
    },
    {
      "constant": true,
      "inputs": [
        {
          "name": "_proposalId",
          "type": "uint256"
        },
        {
          "name": "_roleId",
          "type": "uint256"
        }
      ],
      "name": "getAllVoteIdsLength_byProposalRole",
      "outputs": [
        {
          "name": "length",
          "type": "uint256"
        }
      ],
      "payable": false,
      "stateMutability": "view",
      "type": "function"
    },
    {
      "constant": true,
      "inputs": [
        {
          "name": "_proposalId",
          "type": "uint256"
        }
      ],
      "name": "getProposalCurrentVotingId",
      "outputs": [
        {
          "name": "_currVotingStatus",
          "type": "uint8"
        }
      ],
      "payable": false,
      "stateMutability": "view",
      "type": "function"
    },
    {
      "constant": true,
      "inputs": [
        {
          "name": "_voteid",
          "type": "uint256"
        }
      ],
      "name": "getVoteDetailById",
      "outputs": [
        {
          "name": "voter",
          "type": "address"
        },
        {
          "name": "solutionChosen",
          "type": "uint256[]"
        },
        {
          "name": "voteValue",
          "type": "uint256"
        }
      ],
      "payable": false,
      "stateMutability": "view",
      "type": "function"
    },
    {
      "constant": true,
      "inputs": [],
      "name": "getMemberReputationPoints",
      "outputs": [
        {
          "name": "addProposalOwnPoints",
          "type": "uint32"
        },
        {
          "name": "addSolutionOwnerPoints",
          "type": "uint32"
        },
        {
          "name": "addMemPoints",
          "type": "uint32"
        },
        {
          "name": "subProposalOwnPoints",
          "type": "uint32"
        },
        {
          "name": "subSolutionOwnPoints",
          "type": "uint32"
        },
        {
          "name": "subMemPoints",
          "type": "uint32"
        }
      ],
      "payable": false,
      "stateMutability": "view",
      "type": "function"
    },
    {
      "constant": false,
      "inputs": [
        {
          "name": "_repPoints",
          "type": "uint32"
        }
      ],
      "name": "changeMemberSub",
      "outputs": [],
      "payable": false,
      "stateMutability": "nonpayable",
      "type": "function"
    },
    {
      "constant": false,
      "inputs": [
        {
          "name": "_voteId",
          "type": "uint256"
        },
        {
          "name": "_voteValue",
          "type": "uint256"
        }
      ],
      "name": "setVoteValue",
      "outputs": [],
      "payable": false,
      "stateMutability": "nonpayable",
      "type": "function"
    },
    {
      "constant": true,
      "inputs": [],
      "name": "tokenHoldingTime",
      "outputs": [
        {
          "name": "",
          "type": "uint256"
        }
      ],
      "payable": false,
      "stateMutability": "view",
      "type": "function"
    },
    {
      "constant": true,
      "inputs": [
        {
          "name": "_voteId",
          "type": "uint256"
        }
      ],
      "name": "getVoteValue",
      "outputs": [
        {
          "name": "",
          "type": "uint256"
        }
      ],
      "payable": false,
      "stateMutability": "view",
      "type": "function"
    },
    {
      "constant": false,
      "inputs": [
        {
          "name": "_votingTypeId",
          "type": "uint256"
        },
        {
          "name": "_votingTypeAddress",
          "type": "address"
        }
      ],
      "name": "editVotingTypeDetails",
      "outputs": [],
      "payable": false,
      "stateMutability": "nonpayable",
      "type": "function"
    },
    {
      "constant": true,
      "inputs": [
        {
          "name": "_proposalId",
          "type": "uint256"
        }
      ],
      "name": "getProposalStatus",
      "outputs": [
        {
          "name": "propStatus",
          "type": "uint256"
        }
      ],
      "payable": false,
      "stateMutability": "view",
      "type": "function"
    },
    {
      "constant": false,
      "inputs": [
        {
          "name": "_quorumPercentage",
          "type": "uint256"
        }
      ],
      "name": "changeQuorumPercentage",
      "outputs": [],
      "payable": false,
      "stateMutability": "nonpayable",
      "type": "function"
    },
    {
      "constant": false,
      "inputs": [
        {
          "name": "_proposalId",
          "type": "uint256"
        },
        {
          "name": "_reward",
          "type": "uint256"
        }
      ],
      "name": "setProposalIncentive",
      "outputs": [],
      "payable": false,
      "stateMutability": "nonpayable",
      "type": "function"
    },
    {
      "constant": true,
      "inputs": [
        {
          "name": "_memberAddress",
          "type": "address"
        },
        {
          "name": "_proposalId",
          "type": "uint256"
        }
      ],
      "name": "getDepositTokens_byAddressProposal",
      "outputs": [
        {
          "name": "",
          "type": "uint256"
        },
        {
          "name": "depositFor_creatingProposal",
          "type": "uint256"
        },
        {
          "name": "depositFor_proposingSolution",
          "type": "uint256"
        },
        {
          "name": "depositFor_castingVote",
          "type": "uint256"
        }
      ],
      "payable": false,
      "stateMutability": "view",
      "type": "function"
    },
    {
      "constant": false,
      "inputs": [
        {
          "name": "_membershipScalingFactor",
          "type": "uint256"
        }
      ],
      "name": "changeMembershipScalingFator",
      "outputs": [],
      "payable": false,
      "stateMutability": "nonpayable",
      "type": "function"
    },
    {
      "constant": true,
      "inputs": [],
      "name": "quorumPercentage",
      "outputs": [
        {
          "name": "",
          "type": "uint256"
        }
      ],
      "payable": false,
      "stateMutability": "view",
      "type": "function"
    },
    {
      "constant": false,
      "inputs": [
        {
          "name": "_repPoints",
          "type": "uint32"
        }
      ],
      "name": "changeProposalOwnerAdd",
      "outputs": [],
      "payable": false,
      "stateMutability": "nonpayable",
      "type": "function"
    },
    {
      "constant": true,
      "inputs": [
        {
          "name": "_proposalId",
          "type": "uint256"
        }
      ],
      "name": "getProposalIncentive",
      "outputs": [
        {
          "name": "commonIncentive",
          "type": "uint256"
        }
      ],
      "payable": false,
      "stateMutability": "view",
      "type": "function"
    },
    {
      "constant": true,
      "inputs": [],
      "name": "constructorCheck",
      "outputs": [
        {
          "name": "",
          "type": "bool"
        }
      ],
      "payable": false,
      "stateMutability": "view",
      "type": "function"
    },
    {
      "constant": true,
      "inputs": [
        {
          "name": "_memberAddress",
          "type": "address"
        }
      ],
      "name": "getLastRewardId_ofVotes",
      "outputs": [
        {
          "name": "",
          "type": "uint256"
        }
      ],
      "payable": false,
      "stateMutability": "view",
      "type": "function"
    },
    {
      "constant": true,
      "inputs": [
        {
          "name": "_memberAddress",
          "type": "address"
        }
      ],
      "name": "getAllidsOfLastReward",
      "outputs": [
        {
          "name": "lastRewardId_ofCreatedProposal",
          "type": "uint256"
        },
        {
          "name": "lastRewardid_ofSolution",
          "type": "uint256"
        },
        {
          "name": "lastRewardId_ofVote",
          "type": "uint256"
        }
      ],
      "payable": false,
      "stateMutability": "view",
      "type": "function"
    },
    {
      "constant": false,
      "inputs": [
        {
          "name": "_proposalId",
          "type": "uint256"
        },
        {
          "name": "_dateAdd",
          "type": "uint256"
        },
        {
          "name": "_closingTime",
          "type": "uint256"
        }
      ],
      "name": "callOraclizeCallEvent",
      "outputs": [],
      "payable": false,
      "stateMutability": "nonpayable",
      "type": "function"
    },
    {
      "constant": false,
      "inputs": [
        {
          "name": "_voteId",
          "type": "uint256"
        },
        {
          "name": "_value",
          "type": "uint256"
        }
      ],
      "name": "setSolutionChosen",
      "outputs": [],
      "payable": false,
      "stateMutability": "nonpayable",
      "type": "function"
    },
    {
      "constant": true,
      "inputs": [
        {
          "name": "_votingTypeId",
          "type": "uint256"
        }
      ],
      "name": "getVotingTypeDetailsById",
      "outputs": [
        {
          "name": "votingTypeId",
          "type": "uint256"
        },
        {
          "name": "VTName",
          "type": "bytes32"
        },
        {
          "name": "VTAddress",
          "type": "address"
        }
      ],
      "payable": false,
      "stateMutability": "view",
      "type": "function"
    },
    {
      "constant": false,
      "inputs": [
        {
          "name": "_memberAddress",
          "type": "address"
        },
        {
          "name": "_proposalId",
          "type": "uint256"
        },
        {
          "name": "_voteId",
          "type": "uint256"
        }
      ],
      "name": "setVoteId_againstMember",
      "outputs": [],
      "payable": false,
      "stateMutability": "nonpayable",
      "type": "function"
    },
    {
      "constant": false,
      "inputs": [
        {
          "name": "contractName",
          "type": "bytes4"
        },
        {
          "name": "contractAddress",
          "type": "address"
        }
      ],
      "name": "changeAddress",
      "outputs": [],
      "payable": false,
      "stateMutability": "nonpayable",
      "type": "function"
    },
    {
      "constant": false,
      "inputs": [
        {
          "name": "_id",
          "type": "uint256"
        },
        {
          "name": "_status",
          "type": "uint8"
        }
      ],
      "name": "changeProposalStatus",
      "outputs": [],
      "payable": false,
      "stateMutability": "nonpayable",
      "type": "function"
    },
    {
      "constant": false,
      "inputs": [
        {
          "name": "_memberAddress",
          "type": "address"
        },
        {
          "name": "_proposalId",
          "type": "uint256"
        }
      ],
      "name": "setLastRewardId_ofSolutionProposals",
      "outputs": [],
      "payable": false,
      "stateMutability": "nonpayable",
      "type": "function"
    },
    {
      "constant": true,
      "inputs": [
        {
          "name": "_proposalId",
          "type": "uint256"
        }
      ],
      "name": "getProposalVotingType",
      "outputs": [
        {
          "name": "",
          "type": "address"
        }
      ],
      "payable": false,
      "stateMutability": "view",
      "type": "function"
    },
    {
      "constant": false,
      "inputs": [
        {
          "name": "_proposalId",
          "type": "uint256"
        },
        {
          "name": "_proposalDescHash",
          "type": "string"
        }
      ],
      "name": "setProposalDetailsAfterEdit",
      "outputs": [],
      "payable": false,
      "stateMutability": "nonpayable",
      "type": "function"
    },
    {
      "constant": false,
      "inputs": [
        {
          "name": "_memberAddress",
          "type": "address"
        },
        {
          "name": "_proposalId",
          "type": "uint256"
        },
        {
          "name": "_typeOf",
          "type": "bytes4"
        },
        {
          "name": "_returnedIndex",
          "type": "uint8"
        }
      ],
      "name": "setReturnedTokensFlag",
      "outputs": [],
      "payable": false,
      "stateMutability": "nonpayable",
      "type": "function"
    },
    {
      "constant": false,
      "inputs": [
        {
          "name": "_time",
          "type": "uint256"
        }
      ],
      "name": "changeTokenHoldingTime",
      "outputs": [],
      "payable": false,
      "stateMutability": "nonpayable",
      "type": "function"
    },
    {
      "constant": true,
      "inputs": [],
      "name": "allVotesTotal",
      "outputs": [
        {
          "name": "",
          "type": "uint256"
        }
      ],
      "payable": false,
      "stateMutability": "view",
      "type": "function"
    },
    {
      "constant": true,
      "inputs": [],
      "name": "depositPercVote",
      "outputs": [
        {
          "name": "",
          "type": "uint256"
        }
      ],
      "payable": false,
      "stateMutability": "view",
      "type": "function"
    },
    {
      "constant": true,
      "inputs": [],
      "name": "pendingProposalStart",
      "outputs": [
        {
          "name": "",
          "type": "uint256"
        }
      ],
      "payable": false,
      "stateMutability": "view",
      "type": "function"
    },
    {
      "constant": true,
      "inputs": [
        {
          "name": "_memberAddress",
          "type": "address"
        },
        {
          "name": "_proposalId",
          "type": "uint256"
        },
        {
          "name": "_typeOf",
          "type": "bytes4"
        }
      ],
      "name": "getReturnedTokensFlag",
      "outputs": [
        {
          "name": "",
          "type": "uint8"
        }
      ],
      "payable": false,
      "stateMutability": "view",
      "type": "function"
    },
    {
      "constant": true,
      "inputs": [
        {
          "name": "_proposalId",
          "type": "uint256"
        }
      ],
      "name": "getProposalCategory",
      "outputs": [
        {
          "name": "categoryId",
          "type": "uint8"
        }
      ],
      "payable": false,
      "stateMutability": "view",
      "type": "function"
    },
    {
      "constant": true,
      "inputs": [],
      "name": "getProposalLength",
      "outputs": [
        {
          "name": "",
          "type": "uint256"
        }
      ],
      "payable": false,
      "stateMutability": "view",
      "type": "function"
    },
    {
      "constant": false,
      "inputs": [
        {
          "name": "_addProposalOwnerPoints",
          "type": "uint32"
        },
        {
          "name": "_addSolutionOwnerPoints",
          "type": "uint32"
        },
        {
          "name": "_addMemberPoints",
          "type": "uint32"
        },
        {
          "name": "_subProposalOwnerPoints",
          "type": "uint32"
        },
        {
          "name": "_subSolutionOwnerPoints",
          "type": "uint32"
        },
        {
          "name": "_subMemberPoints",
          "type": "uint32"
        }
      ],
      "name": "changeMemberReputationPoints",
      "outputs": [],
      "payable": false,
      "stateMutability": "nonpayable",
      "type": "function"
    },
    {
      "constant": true,
      "inputs": [
        {
          "name": "_memberAddress",
          "type": "address"
        },
        {
          "name": "_proposalId",
          "type": "uint256"
        },
        {
          "name": "_typeOf",
          "type": "bytes4"
        }
      ],
      "name": "getDepositedTokens",
      "outputs": [
        {
          "name": "",
          "type": "uint256"
        }
      ],
      "payable": false,
      "stateMutability": "view",
      "type": "function"
    },
    {
      "constant": false,
      "inputs": [
        {
          "name": "_proposalId",
          "type": "uint256"
        },
        {
          "name": "_categoryId",
          "type": "uint8"
        }
      ],
      "name": "setProposalCategory",
      "outputs": [],
      "payable": false,
      "stateMutability": "nonpayable",
      "type": "function"
    },
    {
      "constant": true,
      "inputs": [],
      "name": "scalingWeight",
      "outputs": [
        {
          "name": "",
          "type": "uint256"
        }
      ],
      "payable": false,
      "stateMutability": "view",
      "type": "function"
    },
    {
      "constant": false,
      "inputs": [
        {
          "name": "_value",
          "type": "uint256"
        }
      ],
      "name": "changePendingProposalStart",
      "outputs": [],
      "payable": false,
      "stateMutability": "nonpayable",
      "type": "function"
    },
    {
      "constant": false,
      "inputs": [
        {
          "name": "_proposalId",
          "type": "uint256"
        }
      ],
      "name": "setProposalDateUpd",
      "outputs": [],
      "payable": false,
      "stateMutability": "nonpayable",
      "type": "function"
    },
    {
      "constant": false,
      "inputs": [
        {
          "name": "_proposalOwner",
          "type": "address"
        },
        {
          "name": "_proposalId",
          "type": "uint256"
        },
        {
          "name": "_dateAdd",
          "type": "uint256"
        },
        {
          "name": "_proposalDescHash",
          "type": "string"
        }
      ],
      "name": "callProposalEvent",
      "outputs": [],
      "payable": false,
      "stateMutability": "nonpayable",
      "type": "function"
    },
    {
      "constant": false,
      "inputs": [
        {
          "name": "_memberAddress",
          "type": "address"
        },
        {
          "name": "_proposalId",
          "type": "uint256"
        }
      ],
      "name": "setLastRewardId_ofCreatedProposals",
      "outputs": [],
      "payable": false,
      "stateMutability": "nonpayable",
      "type": "function"
    },
    {
      "constant": false,
      "inputs": [
        {
          "name": "_repPoints",
          "type": "uint32"
        }
      ],
      "name": "changeSolutionOwnerSub",
      "outputs": [],
      "payable": false,
      "stateMutability": "nonpayable",
      "type": "function"
    },
    {
      "constant": false,
      "inputs": [
        {
          "name": "_GBMAddress",
          "type": "address"
        }
      ],
      "name": "GovernanceDataInitiate",
      "outputs": [],
      "payable": false,
      "stateMutability": "nonpayable",
      "type": "function"
    },
    {
      "constant": true,
      "inputs": [],
      "name": "globalRiskFactor",
      "outputs": [
        {
          "name": "",
          "type": "uint256"
        }
      ],
      "payable": false,
      "stateMutability": "view",
      "type": "function"
    },
    {
      "constant": false,
      "inputs": [
        {
          "name": "_GBMAddress",
          "type": "address"
        }
      ],
      "name": "changeGBMAddress",
      "outputs": [],
      "payable": false,
      "stateMutability": "nonpayable",
      "type": "function"
    },
    {
      "constant": false,
      "inputs": [
        {
          "name": "_proposalId",
          "type": "uint256"
        },
        {
          "name": "_memberAddress",
          "type": "address"
        },
        {
          "name": "_proposalDescHash",
          "type": "string"
        },
        {
          "name": "_votingTypeAddress",
          "type": "address"
        },
        {
          "name": "_dateAdd",
          "type": "uint256"
        }
      ],
      "name": "createProposal1",
      "outputs": [],
      "payable": false,
      "stateMutability": "nonpayable",
      "type": "function"
    },
    {
      "constant": true,
      "inputs": [
        {
          "name": "_voteId",
          "type": "uint256"
        },
        {
          "name": "_solutionChosenId",
          "type": "uint256"
        }
      ],
      "name": "getSolutionByVoteIdAndIndex",
      "outputs": [
        {
          "name": "solution",
          "type": "uint256"
        }
      ],
      "payable": false,
      "stateMutability": "view",
      "type": "function"
    },
    {
      "constant": true,
      "inputs": [
        {
          "name": "_proposalId",
          "type": "uint256"
        }
      ],
      "name": "getProposalTotalReward",
      "outputs": [
        {
          "name": "",
          "type": "uint256"
        }
      ],
      "payable": false,
      "stateMutability": "view",
      "type": "function"
    },
    {
      "constant": true,
      "inputs": [],
      "name": "depositPercSolution",
      "outputs": [
        {
          "name": "",
          "type": "uint256"
        }
      ],
      "payable": false,
      "stateMutability": "view",
      "type": "function"
    },
    {
      "constant": false,
      "inputs": [],
      "name": "claimReward",
      "outputs": [],
      "payable": false,
      "stateMutability": "nonpayable",
      "type": "function"
    },
    {
      "constant": false,
      "inputs": [
        {
          "name": "_proposalId",
          "type": "uint256"
        },
        {
          "name": "_memberAddress",
          "type": "address"
        },
        {
          "name": "_proposalDescHash",
          "type": "string"
        },
        {
          "name": "_categoryId",
          "type": "uint8"
        },
        {
          "name": "_votingTypeAddress",
          "type": "address"
        },
        {
          "name": "_dateAdd",
          "type": "uint256"
        }
      ],
      "name": "addNewProposal",
      "outputs": [],
      "payable": false,
      "stateMutability": "nonpayable",
      "type": "function"
    },
    {
      "constant": false,
      "inputs": [
        {
          "name": "_proposalId",
          "type": "uint256"
        },
        {
          "name": "_totalreward",
          "type": "uint256"
        }
      ],
      "name": "setProposalTotalReward",
      "outputs": [],
      "payable": false,
      "stateMutability": "nonpayable",
      "type": "function"
    },
    {
      "constant": true,
      "inputs": [
        {
          "name": "_proposalId",
          "type": "uint256"
        },
        {
          "name": "_Index",
          "type": "uint256"
        }
      ],
      "name": "getSolutionAddedByProposalId",
      "outputs": [
        {
          "name": "memberAddress",
          "type": "address"
        }
      ],
      "payable": false,
      "stateMutability": "view",
      "type": "function"
    },
    {
      "constant": false,
      "inputs": [
        {
          "name": "proposalId",
          "type": "uint256"
        },
        {
          "name": "solutionOwner",
          "type": "address"
        },
        {
          "name": "solutionDescHash",
          "type": "string"
        },
        {
          "name": "dateAdd",
          "type": "uint256"
        },
        {
          "name": "solutionStake",
          "type": "uint256"
        }
      ],
      "name": "callSolutionEvent",
      "outputs": [],
      "payable": false,
      "stateMutability": "nonpayable",
      "type": "function"
    },
    {
      "constant": true,
      "inputs": [
        {
          "name": "_proposalId",
          "type": "uint256"
        },
        {
          "name": "_roleId",
          "type": "uint256"
        }
      ],
      "name": "getAllVoteIds_byProposalRole",
      "outputs": [
        {
          "name": "totalVotes",
          "type": "uint256[]"
        }
      ],
      "payable": false,
      "stateMutability": "view",
      "type": "function"
    },
    {
      "constant": false,
      "inputs": [
        {
          "name": "_GBTStakeValue",
          "type": "uint256"
        }
      ],
      "name": "changeGBTStakeValue",
      "outputs": [],
      "payable": false,
      "stateMutability": "nonpayable",
      "type": "function"
    },
    {
      "constant": false,
      "inputs": [
        {
          "name": "_repPoints",
          "type": "uint32"
        }
      ],
      "name": "changeProposalOwnerSub",
      "outputs": [],
      "payable": false,
      "stateMutability": "nonpayable",
      "type": "function"
    },
    {
      "constant": true,
      "inputs": [
        {
          "name": "_proposalId",
          "type": "uint256"
        }
      ],
      "name": "getProposalDetailsById3",
      "outputs": [
        {
          "name": "proposalIndex",
          "type": "uint256"
        },
        {
          "name": "propStatus",
          "type": "string"
        },
        {
          "name": "propCategory",
          "type": "uint8"
        },
        {
          "name": "propStatusId",
          "type": "uint8"
        },
        {
          "name": "finalVerdict",
          "type": "uint8"
        }
      ],
      "payable": false,
      "stateMutability": "view",
      "type": "function"
    },
    {
      "constant": true,
      "inputs": [],
      "name": "depositPercProposal",
      "outputs": [
        {
          "name": "",
          "type": "uint256"
        }
      ],
      "payable": false,
      "stateMutability": "view",
      "type": "function"
    },
    {
      "constant": true,
      "inputs": [
        {
          "name": "_voteId",
          "type": "uint256"
        }
      ],
      "name": "getSolutionByVoteId",
      "outputs": [
        {
          "name": "solutionChosen",
          "type": "uint256[]"
        }
      ],
      "payable": false,
      "stateMutability": "view",
      "type": "function"
    },
    {
      "constant": false,
      "inputs": [
        {
          "name": "proposalId",
          "type": "uint256"
        },
        {
          "name": "versionNumber",
          "type": "uint256"
        },
        {
          "name": "proposalDescHash",
          "type": "string"
        },
        {
          "name": "dateAdd",
          "type": "uint256"
        }
      ],
      "name": "callProposalVersionEvent",
      "outputs": [],
      "payable": false,
      "stateMutability": "nonpayable",
      "type": "function"
    },
    {
      "constant": false,
      "inputs": [
        {
          "name": "_masterContractAddress",
          "type": "address"
        }
      ],
      "name": "changeMasterAddress",
      "outputs": [],
      "payable": false,
      "stateMutability": "nonpayable",
      "type": "function"
    },
    {
      "constant": false,
      "inputs": [
        {
          "name": "_proposalId",
          "type": "uint256"
        },
        {
          "name": "_memberAddress",
          "type": "address"
        }
      ],
      "name": "setSolutionAdded",
      "outputs": [],
      "payable": false,
      "stateMutability": "nonpayable",
      "type": "function"
    },
    {
      "constant": true,
      "inputs": [
        {
          "name": "_voteId",
          "type": "uint256"
        }
      ],
      "name": "getVoterAddress",
      "outputs": [
        {
          "name": "_voterAddress",
          "type": "address"
        }
      ],
      "payable": false,
      "stateMutability": "view",
      "type": "function"
    },
    {
      "constant": true,
      "inputs": [
        {
          "name": "_memberAddress",
          "type": "address"
        }
      ],
      "name": "getLastRewardId_ofSolutionProposals",
      "outputs": [
        {
          "name": "",
          "type": "uint256"
        }
      ],
      "payable": false,
      "stateMutability": "view",
      "type": "function"
    },
    {
      "constant": true,
      "inputs": [
        {
          "name": "_proposalId",
          "type": "uint256"
        }
      ],
      "name": "getProposalDetailsById4",
      "outputs": [
        {
          "name": "totalTokenToDistribute",
          "type": "uint256"
        },
        {
          "name": "totalVoteValue",
          "type": "uint256"
        }
      ],
      "payable": false,
      "stateMutability": "view",
      "type": "function"
    },
    {
      "constant": false,
      "inputs": [
        {
          "name": "_proposalId",
          "type": "uint256"
        },
        {
          "name": "_finalVerdict",
          "type": "uint8"
        }
      ],
      "name": "setProposalFinalVerdict",
      "outputs": [],
      "payable": false,
      "stateMutability": "nonpayable",
      "type": "function"
    },
    {
      "constant": false,
      "inputs": [
        {
          "name": "_proposalId",
          "type": "uint256"
        },
        {
          "name": "_currVotingStatus",
          "type": "uint8"
        }
      ],
      "name": "setProposalCurrentVotingId",
      "outputs": [],
      "payable": false,
      "stateMutability": "nonpayable",
      "type": "function"
    },
    {
      "constant": true,
      "inputs": [
        {
          "name": "_proposalId",
          "type": "uint256"
        }
      ],
      "name": "getProposalIntermediateVerdict",
      "outputs": [
        {
          "name": "",
          "type": "uint8"
        }
      ],
      "payable": false,
      "stateMutability": "view",
      "type": "function"
    },
    {
      "constant": true,
      "inputs": [
        {
          "name": "_proposalId",
          "type": "uint256"
        }
      ],
      "name": "getProposalDetailsById5",
      "outputs": [
        {
          "name": "proposalStatus",
          "type": "uint256"
        },
        {
          "name": "finalVerdict",
          "type": "uint256"
        }
      ],
      "payable": false,
      "stateMutability": "view",
      "type": "function"
    },
    {
      "constant": true,
      "inputs": [
        {
          "name": "_memberAddress",
          "type": "address"
        }
      ],
      "name": "getLastRewardId_ofCreatedProposals",
      "outputs": [
        {
          "name": "",
          "type": "uint256"
        }
      ],
      "payable": false,
      "stateMutability": "view",
      "type": "function"
    },
    {
      "constant": false,
      "inputs": [
        {
          "name": "_to",
          "type": "address"
        },
        {
          "name": "_proposalId",
          "type": "uint256"
        },
        {
          "name": "_description",
          "type": "string"
        },
        {
          "name": "_amount",
          "type": "uint256"
        }
      ],
      "name": "callPenaltyEvent",
      "outputs": [],
      "payable": false,
      "stateMutability": "nonpayable",
      "type": "function"
    },
    {
      "constant": true,
      "inputs": [
        {
          "name": "_proposalId",
          "type": "uint256"
        }
      ],
      "name": "getProposalDateUpd",
      "outputs": [
        {
          "name": "",
          "type": "uint256"
        }
      ],
      "payable": false,
      "stateMutability": "view",
      "type": "function"
    },
    {
      "constant": false,
      "inputs": [
        {
          "name": "_riskFactor",
          "type": "uint256"
        }
      ],
      "name": "changeGlobalRiskFactor",
      "outputs": [],
      "payable": false,
      "stateMutability": "nonpayable",
      "type": "function"
    },
    {
      "constant": false,
      "inputs": [
        {
          "name": "_proposalId",
          "type": "uint256"
        },
        {
          "name": "_intermediateVerdict",
          "type": "uint8"
        }
      ],
      "name": "setProposalIntermediateVerdict",
      "outputs": [],
      "payable": false,
      "stateMutability": "nonpayable",
      "type": "function"
    },
    {
      "constant": true,
      "inputs": [],
      "name": "getVotingTypeLength",
      "outputs": [
        {
          "name": "",
          "type": "uint256"
        }
      ],
      "payable": false,
      "stateMutability": "view",
      "type": "function"
    },
    {
      "constant": true,
      "inputs": [
        {
          "name": "_proposalId",
          "type": "uint256"
        }
      ],
      "name": "getProposalDetailsById2",
      "outputs": [
        {
          "name": "id",
          "type": "uint256"
        },
        {
          "name": "category",
          "type": "uint8"
        },
        {
          "name": "currentVotingId",
          "type": "uint8"
        },
        {
          "name": "intermediateVerdict",
          "type": "uint8"
        },
        {
          "name": "finalVerdict",
          "type": "uint8"
        },
        {
          "name": "votingTypeAddress",
          "type": "address"
        },
        {
          "name": "totalSolutions",
          "type": "uint256"
        }
      ],
      "payable": false,
      "stateMutability": "view",
      "type": "function"
    },
    {
      "constant": true,
      "inputs": [],
      "name": "GBTStakeValue",
      "outputs": [
        {
          "name": "",
          "type": "uint256"
        }
      ],
      "payable": false,
      "stateMutability": "view",
      "type": "function"
    },
    {
      "constant": false,
      "inputs": [
        {
          "name": "_GBTAddress",
          "type": "address"
        }
      ],
      "name": "changeGBTSAddress",
      "outputs": [],
      "payable": false,
      "stateMutability": "nonpayable",
      "type": "function"
    },
    {
      "constant": true,
      "inputs": [
        {
          "name": "_memberAddress",
          "type": "address"
        },
        {
          "name": "_proposalId",
          "type": "uint256"
        }
      ],
      "name": "getVoteId_againstMember",
      "outputs": [
        {
          "name": "voteId",
          "type": "uint256"
        }
      ],
      "payable": false,
      "stateMutability": "view",
      "type": "function"
    },
    {
      "constant": false,
      "inputs": [
        {
          "name": "_memberAddress",
          "type": "address"
        },
        {
          "name": "_voteId",
          "type": "uint256"
        }
      ],
      "name": "setLastRewardId_ofVotes",
      "outputs": [],
      "payable": false,
      "stateMutability": "nonpayable",
      "type": "function"
    },
    {
      "constant": true,
      "inputs": [
        {
          "name": "_votingTypeId",
          "type": "uint256"
        }
      ],
      "name": "getVotingTypeAddress",
      "outputs": [
        {
          "name": "votingAddress",
          "type": "address"
        }
      ],
      "payable": false,
      "stateMutability": "view",
      "type": "function"
    },
    {
      "constant": false,
      "inputs": [
        {
          "name": "_memberAddress",
          "type": "address"
        },
        {
          "name": "_proposalId",
          "type": "uint256"
        },
        {
          "name": "_typeOf",
          "type": "bytes4"
        },
        {
          "name": "_depositAmount",
          "type": "uint256"
        }
      ],
      "name": "setDepositTokens",
      "outputs": [],
      "payable": false,
      "stateMutability": "nonpayable",
      "type": "function"
    },
    {
      "constant": true,
      "inputs": [
        {
          "name": "_proposalId",
          "type": "uint256"
        }
      ],
      "name": "getTotalSolutions",
      "outputs": [
        {
          "name": "",
          "type": "uint256"
        }
      ],
      "payable": false,
      "stateMutability": "view",
      "type": "function"
    },
    {
      "constant": false,
      "inputs": [
        {
          "name": "_repPoints",
          "type": "uint32"
        }
      ],
      "name": "changeMemberAdd",
      "outputs": [],
      "payable": false,
      "stateMutability": "nonpayable",
      "type": "function"
    },
    {
      "constant": true,
      "inputs": [
        {
          "name": "_proposalId",
          "type": "uint256"
        }
      ],
      "name": "getProposalDetailsById1",
      "outputs": [
        {
          "name": "id",
          "type": "uint256"
        },
        {
          "name": "owner",
          "type": "address"
        },
        {
          "name": "date_upd",
          "type": "uint256"
        },
        {
          "name": "versionNum",
          "type": "uint8"
        },
        {
          "name": "propStatus",
          "type": "uint8"
        }
      ],
      "payable": false,
      "stateMutability": "view",
      "type": "function"
    },
    {
      "constant": false,
      "inputs": [
        {
          "name": "_description",
          "type": "string"
        },
        {
          "name": "_proposalId",
          "type": "uint256"
        },
        {
          "name": "_memberAddress",
          "type": "address"
        },
        {
          "name": "_repPoints",
          "type": "uint32"
        },
        {
          "name": "_repPointsEventLog",
          "type": "uint32"
        },
        {
          "name": "_typeOf",
          "type": "bytes4"
        }
      ],
      "name": "setMemberReputation",
      "outputs": [],
      "payable": false,
      "stateMutability": "nonpayable",
      "type": "function"
    },
    {
      "constant": true,
      "inputs": [
        {
          "name": "_proposalId",
          "type": "uint256"
        },
        {
          "name": "_versionNum",
          "type": "uint8"
        }
      ],
      "name": "getProposalVersion",
      "outputs": [
        {
          "name": "",
          "type": "uint256"
        }
      ],
      "payable": false,
      "stateMutability": "view",
      "type": "function"
    },
    {
      "constant": true,
      "inputs": [
        {
          "name": "_proposalId",
          "type": "uint256"
        }
      ],
      "name": "getProposalTotalVoteValue",
      "outputs": [
        {
          "name": "voteValue",
          "type": "uint256"
        }
      ],
      "payable": false,
      "stateMutability": "view",
      "type": "function"
    },
    {
      "anonymous": false,
      "inputs": [
        {
          "indexed": true,
          "name": "proposalOwner",
          "type": "address"
        },
        {
          "indexed": false,
          "name": "proposalId",
          "type": "uint256"
        },
        {
          "indexed": false,
          "name": "dateAdd",
          "type": "uint256"
        },
        {
          "indexed": false,
          "name": "proposalDescHash",
          "type": "string"
        }
      ],
      "name": "Proposal",
      "type": "event"
    },
    {
      "anonymous": false,
      "inputs": [
        {
          "indexed": true,
          "name": "proposalId",
          "type": "uint256"
        },
        {
          "indexed": true,
          "name": "solutionOwner",
          "type": "address"
        },
        {
          "indexed": false,
          "name": "solutionDescHash",
          "type": "string"
        },
        {
          "indexed": false,
          "name": "dateAdd",
          "type": "uint256"
        },
        {
          "indexed": false,
          "name": "solutionStake",
          "type": "uint256"
        }
      ],
      "name": "Solution",
      "type": "event"
    },
    {
      "anonymous": false,
      "inputs": [
        {
          "indexed": true,
          "name": "from",
          "type": "address"
        },
        {
          "indexed": true,
          "name": "proposalId",
          "type": "uint256"
        },
        {
          "indexed": false,
          "name": "description",
          "type": "string"
        },
        {
          "indexed": false,
          "name": "reputationPoints",
          "type": "uint32"
        },
        {
          "indexed": false,
          "name": "typeOf",
          "type": "bytes4"
        }
      ],
      "name": "Reputation",
      "type": "event"
    },
    {
      "anonymous": false,
      "inputs": [
        {
          "indexed": true,
          "name": "from",
          "type": "address"
        },
        {
          "indexed": true,
          "name": "proposalId",
          "type": "uint256"
        },
        {
          "indexed": false,
          "name": "dateAdd",
          "type": "uint256"
        },
        {
          "indexed": false,
          "name": "voteStakeGBT",
          "type": "uint256"
        },
        {
          "indexed": false,
          "name": "voteId",
          "type": "uint256"
        }
      ],
      "name": "Vote",
      "type": "event"
    },
    {
      "anonymous": false,
      "inputs": [
        {
          "indexed": true,
          "name": "to",
          "type": "address"
        },
        {
          "indexed": true,
          "name": "proposalId",
          "type": "uint256"
        },
        {
          "indexed": false,
          "name": "description",
          "type": "string"
        },
        {
          "indexed": false,
          "name": "amount",
          "type": "uint256"
        }
      ],
      "name": "Reward",
      "type": "event"
    },
    {
      "anonymous": false,
      "inputs": [
        {
          "indexed": true,
          "name": "to",
          "type": "address"
        },
        {
          "indexed": true,
          "name": "proposalId",
          "type": "uint256"
        },
        {
          "indexed": false,
          "name": "description",
          "type": "string"
        },
        {
          "indexed": false,
          "name": "amount",
          "type": "uint256"
        }
      ],
      "name": "Penalty",
      "type": "event"
    },
    {
      "anonymous": false,
      "inputs": [
        {
          "indexed": true,
          "name": "proposalOwner",
          "type": "address"
        },
        {
          "indexed": true,
          "name": "proposalId",
          "type": "uint256"
        },
        {
          "indexed": false,
          "name": "dateAdd",
          "type": "uint256"
        },
        {
          "indexed": false,
          "name": "closingTime",
          "type": "uint256"
        }
      ],
      "name": "OraclizeCall",
      "type": "event"
    },
    {
      "anonymous": false,
      "inputs": [
        {
          "indexed": true,
          "name": "proposalId",
          "type": "uint256"
        },
        {
          "indexed": false,
          "name": "proposalStatus",
          "type": "uint256"
        },
        {
          "indexed": false,
          "name": "dateAdd",
          "type": "uint256"
        }
      ],
      "name": "ProposalStatus",
      "type": "event"
    },
    {
      "anonymous": false,
      "inputs": [
        {
          "indexed": true,
          "name": "proposalId",
          "type": "uint256"
        },
        {
          "indexed": true,
          "name": "versionNumber",
          "type": "uint256"
        },
        {
          "indexed": false,
          "name": "proposalDescHash",
          "type": "string"
        },
        {
          "indexed": false,
          "name": "dateAdd",
          "type": "uint256"
        }
      ],
      "name": "ProposalVersion",
      "type": "event"
    }
  ],
  "bytecode": "0x606060405234156200001057600080fd5b61932380620000206000396000f3006060604052600436106104ce576000357c0100000000000000000000000000000000000000000000000000000000900463ffffffff1680624d041d146104d3578063027397d0146104ff578063033a2473146105345780630e77d0b3146105915780630eed6ce21461061f57806311aadbfb146106855780631655517f146106ae57806317826ac4146106d157806318ff4252146107345780631b3b74f11461077d5780632080b8b0146107d657806320e37dc4146107ff57806322d3f8bc14610834578063240aff8a1461086b578063296569cf146109275780632cd739431461096757806330bd8c2e146109a45780633152fbd414610a565780633601df0b14610aea5780633668b88014610b1357806339bb960714610b3f5780633ee9363b14610b685780633fa51c1e14610b9f578063401853b714610be1578063489c16d014610c1857806349d6ff8f14610c3b5780634adc34a314610c675780634dec2bcc14610cd25780634fa76ec914610cf55780635211086414610d1e57806352301a5e14610d47578063525050e114610d7e57806358e69c1914610dab5780635b7b6d8914610df85780635d3bb56a14610e535780635f2a1d8914610e885780636188d1ad14610eb457806361a0c02014610f2d57806367bf5d0c14610f78578063707b852714610fd9578063718c9b391461100857806373114d461461104a57806374035605146110ad5780637438f2b91461111357806378210a4b1461118957806379098c64146111ac5780637b283a91146111d55780637cd8055a146111fe5780637fcc239f146112275780637fd6e510146112ab5780638263a938146112e857806384e028d8146113115780638aae75991461138557806392d05e0b1461140357806393e4a4f5146114325780639fb3ae211461145b578063a080d9261461147e578063a33a3e80146114a1578063a431b9d91461152f578063a6647a6414611571578063ab69a71f1461159a578063ad320846146115d3578063aef816e8146115fc578063b063c2c314611635578063b0688921146116e2578063b16e000914611722578063b22cec8014611759578063b88a802f14611782578063bc1ab45214611797578063beedc6e714611850578063bfe8826d1461187c578063c2025432146118e8578063cba7f2b01461197f578063cbc87e5814611a00578063ccb787d514611a23578063cd6b44e314611a4c578063d2918de814611b16578063d31ce40d14611b3f578063d3cc45a614611bb7578063d46655f414611c2f578063d5a3ff4214611c68578063d83b2c0514611caa578063dbbeeef914611d0d578063dc9324b214611d5a578063dcd6e2dd14611d98578063df3e784114611dc7578063e1bd427414611df6578063e20f4fc714611e33578063e231224014611e71578063e29e0e8014611ebe578063e3726e8014611f4c578063e780306414611f83578063ec1ce25114611fa6578063ec7d465c14611fd5578063ec9ccfff14611ffe578063ed1eee71146120a3578063eecedcb0146120cc578063eef83a4b14612105578063ef78e7071461215b578063f0d2921e1461219d578063f33ac99214612200578063f351df0514612273578063f4159a3c146122aa578063f65ad750146122d3578063f9915f031461235e578063fa01352414612429578063fd8136f21461246c575b600080fd5b34156104de57600080fd5b6104fd60048080359060200190919080359060200190919050506124a3565b005b341561050a57600080fd5b6105326004808035906020019091908035906020019091908035906020019091905050612616565b005b341561053f57600080fd5b61058f600480803573ffffffffffffffffffffffffffffffffffffffff169060200190919080359060200190919080359060200190919080359060200190919080359060200190919050506127bb565b005b341561059c57600080fd5b61061d600480803573ffffffffffffffffffffffffffffffffffffffff1690602001909190803590602001909190803590602001908201803590602001908080601f01602080910402602001604051908101604052809392919081815260200183838082843782019150505050505091908035906020019091905050612976565b005b341561062a57600080fd5b610683600480803590602001909190803590602001908201803590602001908080601f01602080910402602001604051908101604052809392919081815260200183838082843782019150505050505091905050612b8d565b005b341561069057600080fd5b610698612dc4565b6040518082815260200191505060405180910390f35b34156106b957600080fd5b6106cf6004808035906020019091905050612dca565b005b34156106dc57600080fd5b6106f26004808035906020019091905050612e30565b604051808273ffffffffffffffffffffffffffffffffffffffff1673ffffffffffffffffffffffffffffffffffffffff16815260200191505060405180910390f35b341561073f57600080fd5b6107676004808035906020019091908035906020019091908035906020019091905050612e7a565b6040518082815260200191505060405180910390f35b341561078857600080fd5b6107b4600480803573ffffffffffffffffffffffffffffffffffffffff16906020019091905050612ec2565b604051808263ffffffff1663ffffffff16815260200191505060405180910390f35b34156107e157600080fd5b6107fd600480803563ffffffff16906020019091905050612f82565b005b341561080a57600080fd5b6108326004808035906020019091908035906020019091908035906020019091905050613002565b005b341561083f57600080fd5b610855600480803590602001909190505061319c565b6040518082815260200191505060405180910390f35b341561087657600080fd5b610925600480803573ffffffffffffffffffffffffffffffffffffffff1690602001909190803590602001909190803590602001908201803590602001908080601f0160208091040260200160405190810160405280939291908181526020018383808284378201915050505050509190803563ffffffff169060200190919080357bffffffffffffffffffffffffffffffffffffffffffffffffffffffff19169060200190919050506131cb565b005b341561093257600080fd5b6109516004808035906020019091908035906020019091905050613435565b6040518082815260200191505060405180910390f35b341561097257600080fd5b6109886004808035906020019091905050613467565b604051808260ff1660ff16815260200191505060405180910390f35b34156109af57600080fd5b6109c56004808035906020019091905050613493565b604051808473ffffffffffffffffffffffffffffffffffffffff1673ffffffffffffffffffffffffffffffffffffffff16815260200180602001838152602001828103825284818151815260200191508051906020019060200280838360005b83811015610a40578082015181840152602081019050610a25565b5050505090500194505050505060405180910390f35b3415610a6157600080fd5b610a69613580565b604051808763ffffffff1663ffffffff1681526020018663ffffffff1663ffffffff1681526020018563ffffffff1663ffffffff1681526020018463ffffffff1663ffffffff1681526020018363ffffffff1663ffffffff1681526020018263ffffffff1663ffffffff168152602001965050505050505060405180910390f35b3415610af557600080fd5b610b11600480803563ffffffff169060200190919050506135fc565b005b3415610b1e57600080fd5b610b3d600480803590602001909190803590602001909190505061367b565b005b3415610b4a57600080fd5b610b526137f9565b6040518082815260200191505060405180910390f35b3415610b7357600080fd5b610b8960048080359060200190919050506137ff565b6040518082815260200191505060405180910390f35b3415610baa57600080fd5b610bdf600480803590602001909190803573ffffffffffffffffffffffffffffffffffffffff16906020019091905050613829565b005b3415610bec57600080fd5b610c0260048080359060200190919050506139e1565b6040518082815260200191505060405180910390f35b3415610c2357600080fd5b610c396004808035906020019091905050613a10565b005b3415610c4657600080fd5b610c656004808035906020019091908035906020019091905050613a76565b005b3415610c7257600080fd5b610ca7600480803573ffffffffffffffffffffffffffffffffffffffff16906020019091908035906020019091905050613be9565b6040518085815260200184815260200183815260200182815260200194505050505060405180910390f35b3415610cdd57600080fd5b610cf36004808035906020019091905050613c82565b005b3415610d0057600080fd5b610d08613ce8565b6040518082815260200191505060405180910390f35b3415610d2957600080fd5b610d45600480803563ffffffff16906020019091905050613cee565b005b3415610d5257600080fd5b610d686004808035906020019091905050613d6e565b6040518082815260200191505060405180910390f35b3415610d8957600080fd5b610d91613d8d565b604051808215151515815260200191505060405180910390f35b3415610db657600080fd5b610de2600480803573ffffffffffffffffffffffffffffffffffffffff16906020019091905050613da0565b6040518082815260200191505060405180910390f35b3415610e0357600080fd5b610e2f600480803573ffffffffffffffffffffffffffffffffffffffff16906020019091905050613dec565b60405180848152602001838152602001828152602001935050505060405180910390f35b3415610e5e57600080fd5b610e866004808035906020019091908035906020019091908035906020019091905050613ec7565b005b3415610e9357600080fd5b610eb260048080359060200190919080359060200190919050506140b8565b005b3415610ebf57600080fd5b610ed56004808035906020019091905050614258565b6040518084815260200183600019166000191681526020018273ffffffffffffffffffffffffffffffffffffffff1673ffffffffffffffffffffffffffffffffffffffff168152602001935050505060405180910390f35b3415610f3857600080fd5b610f76600480803573ffffffffffffffffffffffffffffffffffffffff169060200190919080359060200190919080359060200190919050506142cd565b005b3415610f8357600080fd5b610fd760048080357bffffffffffffffffffffffffffffffffffffffffffffffffffffffff191690602001909190803573ffffffffffffffffffffffffffffffffffffffff1690602001909190505061447c565b005b3415610fe457600080fd5b611006600480803590602001909190803560ff1690602001909190505061465e565b005b341561101357600080fd5b611048600480803573ffffffffffffffffffffffffffffffffffffffff16906020019091908035906020019091905050614839565b005b341561105557600080fd5b61106b60048080359060200190919050506149d9565b604051808273ffffffffffffffffffffffffffffffffffffffff1673ffffffffffffffffffffffffffffffffffffffff16815260200191505060405180910390f35b34156110b857600080fd5b611111600480803590602001909190803590602001908201803590602001908080601f01602080910402602001604051908101604052809392919081815260200183838082843782019150505050505091905050614a23565b005b341561111e57600080fd5b611187600480803573ffffffffffffffffffffffffffffffffffffffff169060200190919080359060200190919080357bffffffffffffffffffffffffffffffffffffffffffffffffffffffff191690602001909190803560ff16906020019091905050614c7f565b005b341561119457600080fd5b6111aa6004808035906020019091905050614e95565b005b34156111b757600080fd5b6111bf614ff4565b6040518082815260200191505060405180910390f35b34156111e057600080fd5b6111e8614ffa565b6040518082815260200191505060405180910390f35b341561120957600080fd5b611211615000565b6040518082815260200191505060405180910390f35b341561123257600080fd5b61128f600480803573ffffffffffffffffffffffffffffffffffffffff169060200190919080359060200190919080357bffffffffffffffffffffffffffffffffffffffffffffffffffffffff1916906020019091905050615006565b604051808260ff1660ff16815260200191505060405180910390f35b34156112b657600080fd5b6112cc60048080359060200190919050506150c1565b604051808260ff1660ff16815260200191505060405180910390f35b34156112f357600080fd5b6112fb6150ed565b6040518082815260200191505060405180910390f35b341561131c57600080fd5b611383600480803563ffffffff1690602001909190803563ffffffff1690602001909190803563ffffffff1690602001909190803563ffffffff1690602001909190803563ffffffff1690602001909190803563ffffffff169060200190919050506150fa565b005b341561139057600080fd5b6113ed600480803573ffffffffffffffffffffffffffffffffffffffff169060200190919080359060200190919080357bffffffffffffffffffffffffffffffffffffffffffffffffffffffff191690602001909190505061531c565b6040518082815260200191505060405180910390f35b341561140e57600080fd5b611430600480803590602001909190803560ff169060200190919050506153ca565b005b341561143d57600080fd5b611445615551565b6040518082815260200191505060405180910390f35b341561146657600080fd5b61147c6004808035906020019091905050615557565b005b341561148957600080fd5b61149f60048080359060200190919050506156b6565b005b34156114ac57600080fd5b61152d600480803573ffffffffffffffffffffffffffffffffffffffff1690602001909190803590602001909190803590602001909190803590602001908201803590602001908080601f01602080910402602001604051908101604052809392919081815260200183838082843782019150505050505091905050615833565b005b341561153a57600080fd5b61156f600480803573ffffffffffffffffffffffffffffffffffffffff16906020019091908035906020019091905050615a51565b005b341561157c57600080fd5b611598600480803563ffffffff16906020019091905050615bf1565b005b34156115a557600080fd5b6115d1600480803573ffffffffffffffffffffffffffffffffffffffff16906020019091905050615c71565b005b34156115de57600080fd5b6115e6615e90565b6040518082815260200191505060405180910390f35b341561160757600080fd5b611633600480803573ffffffffffffffffffffffffffffffffffffffff16906020019091905050615e96565b005b341561164057600080fd5b6116e0600480803590602001909190803573ffffffffffffffffffffffffffffffffffffffff1690602001909190803590602001908201803590602001908080601f0160208091040260200160405190810160405280939291908181526020018383808284378201915050505050509190803573ffffffffffffffffffffffffffffffffffffffff16906020019091908035906020019091905050615f36565b005b34156116ed57600080fd5b61170c6004808035906020019091908035906020019091905050616261565b6040518082815260200191505060405180910390f35b341561172d57600080fd5b61174360048080359060200190919050506162a4565b6040518082815260200191505060405180910390f35b341561176457600080fd5b61176c6162c3565b6040518082815260200191505060405180910390f35b341561178d57600080fd5b6117956162c9565b005b34156117a257600080fd5b61184e600480803590602001909190803573ffffffffffffffffffffffffffffffffffffffff1690602001909190803590602001908201803590602001908080601f0160208091040260200160405190810160405280939291908181526020018383808284378201915050505050509190803560ff1690602001909190803573ffffffffffffffffffffffffffffffffffffffff169060200190919080359060200190919050506165dd565b005b341561185b57600080fd5b61187a6004808035906020019091908035906020019091905050616775565b005b341561188757600080fd5b6118a660048080359060200190919080359060200190919050506168e8565b604051808273ffffffffffffffffffffffffffffffffffffffff1673ffffffffffffffffffffffffffffffffffffffff16815260200191505060405180910390f35b34156118f357600080fd5b61197d600480803590602001909190803573ffffffffffffffffffffffffffffffffffffffff1690602001909190803590602001908201803590602001908080601f0160208091040260200160405190810160405280939291908181526020018383808284378201915050505050509190803590602001909190803590602001909190505061693e565b005b341561198a57600080fd5b6119a96004808035906020019091908035906020019091905050616b5e565b6040518080602001828103825283818151815260200191508051906020019060200280838360005b838110156119ec5780820151818401526020810190506119d1565b505050509050019250505060405180910390f35b3415611a0b57600080fd5b611a216004808035906020019091905050616be1565b005b3415611a2e57600080fd5b611a4a600480803563ffffffff16906020019091905050616c47565b005b3415611a5757600080fd5b611a6d6004808035906020019091905050616cc7565b60405180868152602001806020018560ff1660ff1681526020018460ff1660ff1681526020018360ff1660ff168152602001828103825286818151815260200191508051906020019080838360005b83811015611ad7578082015181840152602081019050611abc565b50505050905090810190601f168015611b045780820380516001836020036101000a031916815260200191505b50965050505050505060405180910390f35b3415611b2157600080fd5b611b29616e2e565b6040518082815260200191505060405180910390f35b3415611b4a57600080fd5b611b606004808035906020019091905050616e34565b6040518080602001828103825283818151815260200191508051906020019060200280838360005b83811015611ba3578082015181840152602081019050611b88565b505050509050019250505060405180910390f35b3415611bc257600080fd5b611c2d600480803590602001909190803590602001909190803590602001908201803590602001908080601f01602080910402602001604051908101604052809392919081815260200183838082843782019150505050505091908035906020019091905050616eb2565b005b3415611c3a57600080fd5b611c66600480803573ffffffffffffffffffffffffffffffffffffffff169060200190919050506170b3565b005b3415611c7357600080fd5b611ca8600480803590602001909190803573ffffffffffffffffffffffffffffffffffffffff169060200190919050506172d4565b005b3415611cb557600080fd5b611ccb60048080359060200190919050506174a1565b604051808273ffffffffffffffffffffffffffffffffffffffff1673ffffffffffffffffffffffffffffffffffffffff16815260200191505060405180910390f35b3415611d1857600080fd5b611d44600480803573ffffffffffffffffffffffffffffffffffffffff169060200190919050506174eb565b6040518082815260200191505060405180910390f35b3415611d6557600080fd5b611d7b6004808035906020019091905050617537565b604051808381526020018281526020019250505060405180910390f35b3415611da357600080fd5b611dc5600480803590602001909190803560ff1690602001909190505061756f565b005b3415611dd257600080fd5b611df4600480803590602001909190803560ff169060200190919050506176f6565b005b3415611e0157600080fd5b611e17600480803590602001909190505061787d565b604051808260ff1660ff16815260200191505060405180910390f35b3415611e3e57600080fd5b611e5460048080359060200190919050506178a9565b604051808381526020018281526020019250505060405180910390f35b3415611e7c57600080fd5b611ea8600480803573ffffffffffffffffffffffffffffffffffffffff16906020019091905050617907565b6040518082815260200191505060405180910390f35b3415611ec957600080fd5b611f4a600480803573ffffffffffffffffffffffffffffffffffffffff1690602001909190803590602001909190803590602001908201803590602001908080601f01602080910402602001604051908101604052809392919081815260200183838082843782019150505050505091908035906020019091905050617953565b005b3415611f5757600080fd5b611f6d6004808035906020019091905050617b6a565b6040518082815260200191505060405180910390f35b3415611f8e57600080fd5b611fa46004808035906020019091905050617b94565b005b3415611fb157600080fd5b611fd3600480803590602001909190803560ff16906020019091905050617bfa565b005b3415611fe057600080fd5b611fe8617d81565b6040518082815260200191505060405180910390f35b341561200957600080fd5b61201f6004808035906020019091905050617d8e565b604051808881526020018760ff1660ff1681526020018660ff1660ff1681526020018560ff1660ff1681526020018460ff1660ff1681526020018373ffffffffffffffffffffffffffffffffffffffff1673ffffffffffffffffffffffffffffffffffffffff16815260200182815260200197505050505050505060405180910390f35b34156120ae57600080fd5b6120b6617e97565b6040518082815260200191505060405180910390f35b34156120d757600080fd5b612103600480803573ffffffffffffffffffffffffffffffffffffffff16906020019091905050617e9d565b005b341561211057600080fd5b612145600480803573ffffffffffffffffffffffffffffffffffffffff16906020019091908035906020019091905050617f3d565b6040518082815260200191505060405180910390f35b341561216657600080fd5b61219b600480803573ffffffffffffffffffffffffffffffffffffffff16906020019091908035906020019091905050617f98565b005b34156121a857600080fd5b6121be6004808035906020019091905050618138565b604051808273ffffffffffffffffffffffffffffffffffffffff1673ffffffffffffffffffffffffffffffffffffffff16815260200191505060405180910390f35b341561220b57600080fd5b612271600480803573ffffffffffffffffffffffffffffffffffffffff169060200190919080359060200190919080357bffffffffffffffffffffffffffffffffffffffffffffffffffffffff1916906020019091908035906020019091905050618182565b005b341561227e57600080fd5b6122946004808035906020019091905050618384565b6040518082815260200191505060405180910390f35b34156122b557600080fd5b6122d1600480803563ffffffff169060200190919050506183a4565b005b34156122de57600080fd5b6122f46004808035906020019091905050618424565b604051808681526020018573ffffffffffffffffffffffffffffffffffffffff1673ffffffffffffffffffffffffffffffffffffffff1681526020018481526020018360ff1660ff1681526020018260ff1660ff1681526020019550505050505060405180910390f35b341561236957600080fd5b612427600480803590602001908201803590602001908080601f0160208091040260200160405190810160405280939291908181526020018383808284378201915050505050509190803590602001909190803573ffffffffffffffffffffffffffffffffffffffff1690602001909190803563ffffffff1690602001909190803563ffffffff169060200190919080357bffffffffffffffffffffffffffffffffffffffffffffffffffffffff19169060200190919050506184e8565b005b341561243457600080fd5b612456600480803590602001909190803560ff169060200190919050506187b1565b6040518082815260200191505060405180910390f35b341561247757600080fd5b61248d60048080359060200190919050506187e1565b6040518082815260200191505060405180910390f35b601c60009054906101000a900473ffffffffffffffffffffffffffffffffffffffff16601960006101000a81548173ffffffffffffffffffffffffffffffffffffffff021916908373ffffffffffffffffffffffffffffffffffffffff16021790555060011515601960009054906101000a900473ffffffffffffffffffffffffffffffffffffffff1673ffffffffffffffffffffffffffffffffffffffff16638f16c41c336000604051602001526040518263ffffffff167c0100000000000000000000000000000000000000000000000000000000028152600401808273ffffffffffffffffffffffffffffffffffffffff1673ffffffffffffffffffffffffffffffffffffffff168152602001915050602060405180830381600087803b15156125cf57600080fd5b6102c65a03f115156125e057600080fd5b5050506040518051905015151415156125f857600080fd5b80600080848152602001908152602001600020600101819055505050565b601c60009054906101000a900473ffffffffffffffffffffffffffffffffffffffff16601960006101000a81548173ffffffffffffffffffffffffffffffffffffffff021916908373ffffffffffffffffffffffffffffffffffffffff16021790555060011515601960009054906101000a900473ffffffffffffffffffffffffffffffffffffffff1673ffffffffffffffffffffffffffffffffffffffff16638f16c41c336000604051602001526040518263ffffffff167c0100000000000000000000000000000000000000000000000000000000028152600401808273ffffffffffffffffffffffffffffffffffffffff1673ffffffffffffffffffffffffffffffffffffffff168152602001915050602060405180830381600087803b151561274257600080fd5b6102c65a03f1151561275357600080fd5b50505060405180519050151514151561276b57600080fd5b60046000848152602001908152602001600020600083815260200190815260200160002080548060010182816127a19190618f0d565b916000526020600020900160008390919091505550505050565b601c60009054906101000a900473ffffffffffffffffffffffffffffffffffffffff16601960006101000a81548173ffffffffffffffffffffffffffffffffffffffff021916908373ffffffffffffffffffffffffffffffffffffffff16021790555060011515601960009054906101000a900473ffffffffffffffffffffffffffffffffffffffff1673ffffffffffffffffffffffffffffffffffffffff16638f16c41c336000604051602001526040518263ffffffff167c0100000000000000000000000000000000000000000000000000000000028152600401808273ffffffffffffffffffffffffffffffffffffffff1673ffffffffffffffffffffffffffffffffffffffff168152602001915050602060405180830381600087803b15156128e757600080fd5b6102c65a03f115156128f857600080fd5b50505060405180519050151514151561291057600080fd5b838573ffffffffffffffffffffffffffffffffffffffff167f89eb0be5e1a1bcbad3c382ad8d3f2698ea4d54d9a179cd2368d184358ecad45185858560405180848152602001838152602001828152602001935050505060405180910390a35050505050565b601c60009054906101000a900473ffffffffffffffffffffffffffffffffffffffff16601960006101000a81548173ffffffffffffffffffffffffffffffffffffffff021916908373ffffffffffffffffffffffffffffffffffffffff16021790555060011515601960009054906101000a900473ffffffffffffffffffffffffffffffffffffffff1673ffffffffffffffffffffffffffffffffffffffff16638f16c41c336000604051602001526040518263ffffffff167c0100000000000000000000000000000000000000000000000000000000028152600401808273ffffffffffffffffffffffffffffffffffffffff1673ffffffffffffffffffffffffffffffffffffffff168152602001915050602060405180830381600087803b1515612aa257600080fd5b6102c65a03f11515612ab357600080fd5b505050604051805190501515141515612acb57600080fd5b828473ffffffffffffffffffffffffffffffffffffffff167fe5a1eff4ac9bf9f212953b084537ae0a47f6cf3c58cd3beafc042892fce0ab8a84846040518080602001838152602001828103825284818151815260200191508051906020019080838360005b83811015612b4c578082015181840152602081019050612b31565b50505050905090810190601f168015612b795780820380516001836020036101000a031916815260200191505b50935050505060405180910390a350505050565b6000601c60009054906101000a900473ffffffffffffffffffffffffffffffffffffffff16601960006101000a81548173ffffffffffffffffffffffffffffffffffffffff021916908373ffffffffffffffffffffffffffffffffffffffff16021790555060011515601960009054906101000a900473ffffffffffffffffffffffffffffffffffffffff1673ffffffffffffffffffffffffffffffffffffffff16638f16c41c336000604051602001526040518263ffffffff167c0100000000000000000000000000000000000000000000000000000000028152600401808273ffffffffffffffffffffffffffffffffffffffff1673ffffffffffffffffffffffffffffffffffffffff168152602001915050602060405180830381600087803b1515612cbb57600080fd5b6102c65a03f11515612ccc57600080fd5b505050604051805190501515141515612ce457600080fd5b600160008085815260200190815260200160002060000160059054906101000a900460ff160190508060ff16837f76b141f6b2c4aef07d2be2f4d572eb1fe6fc483cf20b69274dad519cb5571fc184426040518080602001838152602001828103825284818151815260200191508051906020019080838360005b83811015612d7a578082015181840152602081019050612d5f565b50505050905090810190601f168015612da75780820380516001836020036101000a031916815260200191505b50935050505060405180910390a3612dbf8382618800565b505050565b600c5481565b601d60009054906101000a900473ffffffffffffffffffffffffffffffffffffffff1673ffffffffffffffffffffffffffffffffffffffff163373ffffffffffffffffffffffffffffffffffffffff16141515612e2657600080fd5b80600d8190555050565b6000601682815481101515612e4157fe5b906000526020600020906003020160000160009054906101000a900473ffffffffffffffffffffffffffffffffffffffff169050919050565b600060046000858152602001908152602001600020600084815260200190815260200160002082815481101515612ead57fe5b90600052602060002090015490509392505050565b600080600260008473ffffffffffffffffffffffffffffffffffffffff1673ffffffffffffffffffffffffffffffffffffffff16815260200190815260200160002060009054906101000a900463ffffffff1663ffffffff161415612f2a5760019050612f7d565b600260008373ffffffffffffffffffffffffffffffffffffffff1673ffffffffffffffffffffffffffffffffffffffff16815260200190815260200160002060009054906101000a900463ffffffff1690505b919050565b601d60009054906101000a900473ffffffffffffffffffffffffffffffffffffffff1673ffffffffffffffffffffffffffffffffffffffff163373ffffffffffffffffffffffffffffffffffffffff16141515612fde57600080fd5b80601460046101000a81548163ffffffff021916908363ffffffff16021790555050565b601c60009054906101000a900473ffffffffffffffffffffffffffffffffffffffff16601960006101000a81548173ffffffffffffffffffffffffffffffffffffffff021916908373ffffffffffffffffffffffffffffffffffffffff16021790555060011515601960009054906101000a900473ffffffffffffffffffffffffffffffffffffffff1673ffffffffffffffffffffffffffffffffffffffff16638f16c41c336000604051602001526040518263ffffffff167c0100000000000000000000000000000000000000000000000000000000028152600401808273ffffffffffffffffffffffffffffffffffffffff1673ffffffffffffffffffffffffffffffffffffffff168152602001915050602060405180830381600087803b151561312e57600080fd5b6102c65a03f1151561313f57600080fd5b50505060405180519050151514151561315757600080fd5b827f5aabd8d9f8e9341daca92ba7a308348e80ea84b99d54897bf63a7493c1eca27e8383604051808381526020018281526020019250505060405180910390a2505050565b600080600083815260200190815260200160002060000160039054906101000a900460ff1660ff169050919050565b601c60009054906101000a900473ffffffffffffffffffffffffffffffffffffffff16601960006101000a81548173ffffffffffffffffffffffffffffffffffffffff021916908373ffffffffffffffffffffffffffffffffffffffff16021790555060011515601960009054906101000a900473ffffffffffffffffffffffffffffffffffffffff1673ffffffffffffffffffffffffffffffffffffffff16638f16c41c336000604051602001526040518263ffffffff167c0100000000000000000000000000000000000000000000000000000000028152600401808273ffffffffffffffffffffffffffffffffffffffff1673ffffffffffffffffffffffffffffffffffffffff168152602001915050602060405180830381600087803b15156132f757600080fd5b6102c65a03f1151561330857600080fd5b50505060405180519050151514151561332057600080fd5b838573ffffffffffffffffffffffffffffffffffffffff167fce0d3f9d027074f1f630a0dce9a86a485923d702c3e5dbdf98fc045e3046710a85858560405180806020018463ffffffff1663ffffffff168152602001837bffffffffffffffffffffffffffffffffffffffffffffffffffffffff19167bffffffffffffffffffffffffffffffffffffffffffffffffffffffff19168152602001828103825285818151815260200191508051906020019080838360005b838110156133f25780820151818401526020810190506133d7565b50505050905090810190601f16801561341f5780820380516001836020036101000a031916815260200191505b5094505050505060405180910390a35050505050565b600060046000848152602001908152602001600020600083815260200190815260200160002080549050905092915050565b600080600083815260200190815260200160002060000160009054906101000a900460ff169050919050565b600061349d618f39565b60006017848154811015156134ae57fe5b906000526020600020906003020160000160009054906101000a900473ffffffffffffffffffffffffffffffffffffffff166017858154811015156134ef57fe5b906000526020600020906003020160010160178681548110151561350f57fe5b9060005260206000209060030201600201548180548060200260200160405190810160405280929190818152602001828054801561356c57602002820191906000526020600020905b815481526020019060010190808311613558575b505050505091509250925092509193909250565b600080600080600080601460009054906101000a900463ffffffff1685601460089054906101000a900463ffffffff166014600c9054906101000a900463ffffffff16601460109054906101000a900463ffffffff166014809054906101000a900463ffffffff16955095509550955095509550909192939495565b601d60009054906101000a900473ffffffffffffffffffffffffffffffffffffffff1673ffffffffffffffffffffffffffffffffffffffff163373ffffffffffffffffffffffffffffffffffffffff1614151561365857600080fd5b806014806101000a81548163ffffffff021916908363ffffffff16021790555050565b601c60009054906101000a900473ffffffffffffffffffffffffffffffffffffffff16601960006101000a81548173ffffffffffffffffffffffffffffffffffffffff021916908373ffffffffffffffffffffffffffffffffffffffff16021790555060011515601960009054906101000a900473ffffffffffffffffffffffffffffffffffffffff1673ffffffffffffffffffffffffffffffffffffffff16638f16c41c336000604051602001526040518263ffffffff167c0100000000000000000000000000000000000000000000000000000000028152600401808273ffffffffffffffffffffffffffffffffffffffff1673ffffffffffffffffffffffffffffffffffffffff168152602001915050602060405180830381600087803b15156137a757600080fd5b6102c65a03f115156137b857600080fd5b5050506040518051905015151415156137d057600080fd5b806017838154811015156137e057fe5b9060005260206000209060030201600201819055505050565b60135481565b600060178281548110151561381057fe5b9060005260206000209060030201600201549050919050565b601c60009054906101000a900473ffffffffffffffffffffffffffffffffffffffff16601960006101000a81548173ffffffffffffffffffffffffffffffffffffffff021916908373ffffffffffffffffffffffffffffffffffffffff16021790555060011515601960009054906101000a900473ffffffffffffffffffffffffffffffffffffffff1673ffffffffffffffffffffffffffffffffffffffff16638f16c41c336000604051602001526040518263ffffffff167c0100000000000000000000000000000000000000000000000000000000028152600401808273ffffffffffffffffffffffffffffffffffffffff1673ffffffffffffffffffffffffffffffffffffffff168152602001915050602060405180830381600087803b151561395557600080fd5b6102c65a03f1151561396657600080fd5b50505060405180519050151514151561397e57600080fd5b8060188381548110151561398e57fe5b906000526020600020906002020160010160006101000a81548173ffffffffffffffffffffffffffffffffffffffff021916908373ffffffffffffffffffffffffffffffffffffffff1602179055505050565b600080600083815260200190815260200160002060000160019054906101000a900460ff1660ff169050919050565b601d60009054906101000a900473ffffffffffffffffffffffffffffffffffffffff1673ffffffffffffffffffffffffffffffffffffffff163373ffffffffffffffffffffffffffffffffffffffff16141515613a6c57600080fd5b8060088190555050565b601c60009054906101000a900473ffffffffffffffffffffffffffffffffffffffff16601960006101000a81548173ffffffffffffffffffffffffffffffffffffffff021916908373ffffffffffffffffffffffffffffffffffffffff16021790555060011515601960009054906101000a900473ffffffffffffffffffffffffffffffffffffffff1673ffffffffffffffffffffffffffffffffffffffff16638f16c41c336000604051602001526040518263ffffffff167c0100000000000000000000000000000000000000000000000000000000028152600401808273ffffffffffffffffffffffffffffffffffffffff1673ffffffffffffffffffffffffffffffffffffffff168152602001915050602060405180830381600087803b1515613ba257600080fd5b6102c65a03f11515613bb357600080fd5b505050604051805190501515141515613bcb57600080fd5b80600080848152602001908152602001600020600301819055505050565b60008060008084613c1b87877f500000000000000000000000000000000000000000000000000000000000000061531c565b613c4688887f530000000000000000000000000000000000000000000000000000000000000061531c565b613c7189897f560000000000000000000000000000000000000000000000000000000000000061531c565b935093509350935092959194509250565b601d60009054906101000a900473ffffffffffffffffffffffffffffffffffffffff1673ffffffffffffffffffffffffffffffffffffffff163373ffffffffffffffffffffffffffffffffffffffff16141515613cde57600080fd5b80600c8190555050565b60085481565b601d60009054906101000a900473ffffffffffffffffffffffffffffffffffffffff1673ffffffffffffffffffffffffffffffffffffffff163373ffffffffffffffffffffffffffffffffffffffff16141515613d4a57600080fd5b80601460006101000a81548163ffffffff021916908363ffffffff16021790555050565b6000806000838152602001908152602001600020600301549050919050565b600f60009054906101000a900460ff1681565b6000600760008373ffffffffffffffffffffffffffffffffffffffff1673ffffffffffffffffffffffffffffffffffffffff168152602001908152602001600020600201549050919050565b6000806000600760008573ffffffffffffffffffffffffffffffffffffffff1673ffffffffffffffffffffffffffffffffffffffff16815260200190815260200160002060000154600760008673ffffffffffffffffffffffffffffffffffffffff1673ffffffffffffffffffffffffffffffffffffffff16815260200190815260200160002060010154600760008773ffffffffffffffffffffffffffffffffffffffff1673ffffffffffffffffffffffffffffffffffffffff168152602001908152602001600020600201549250925092509193909250565b601c60009054906101000a900473ffffffffffffffffffffffffffffffffffffffff16601960006101000a81548173ffffffffffffffffffffffffffffffffffffffff021916908373ffffffffffffffffffffffffffffffffffffffff16021790555060011515601960009054906101000a900473ffffffffffffffffffffffffffffffffffffffff1673ffffffffffffffffffffffffffffffffffffffff16638f16c41c336000604051602001526040518263ffffffff167c0100000000000000000000000000000000000000000000000000000000028152600401808273ffffffffffffffffffffffffffffffffffffffff1673ffffffffffffffffffffffffffffffffffffffff168152602001915050602060405180830381600087803b1515613ff357600080fd5b6102c65a03f1151561400457600080fd5b50505060405180519050151514151561401c57600080fd5b8260168481548110151561402c57fe5b906000526020600020906003020160000160009054906101000a900473ffffffffffffffffffffffffffffffffffffffff1673ffffffffffffffffffffffffffffffffffffffff167ff87b3a3e8c3a749e386f69c3af3f0768950a01d20b6972838abd709fce7ed4248484604051808381526020018281526020019250505060405180910390a3505050565b601c60009054906101000a900473ffffffffffffffffffffffffffffffffffffffff16601960006101000a81548173ffffffffffffffffffffffffffffffffffffffff021916908373ffffffffffffffffffffffffffffffffffffffff16021790555060011515601960009054906101000a900473ffffffffffffffffffffffffffffffffffffffff1673ffffffffffffffffffffffffffffffffffffffff16638f16c41c336000604051602001526040518263ffffffff167c0100000000000000000000000000000000000000000000000000000000028152600401808273ffffffffffffffffffffffffffffffffffffffff1673ffffffffffffffffffffffffffffffffffffffff168152602001915050602060405180830381600087803b15156141e457600080fd5b6102c65a03f115156141f557600080fd5b50505060405180519050151514151561420d57600080fd5b60178281548110151561421c57fe5b9060005260206000209060030201600101805480600101828161423f9190618f0d565b9160005260206000209001600083909190915055505050565b60008060008360188581548110151561426d57fe5b90600052602060002090600202016000015460188681548110151561428e57fe5b906000526020600020906002020160010160009054906101000a900473ffffffffffffffffffffffffffffffffffffffff169250925092509193909250565b601c60009054906101000a900473ffffffffffffffffffffffffffffffffffffffff16601960006101000a81548173ffffffffffffffffffffffffffffffffffffffff021916908373ffffffffffffffffffffffffffffffffffffffff16021790555060011515601960009054906101000a900473ffffffffffffffffffffffffffffffffffffffff1673ffffffffffffffffffffffffffffffffffffffff16638f16c41c336000604051602001526040518263ffffffff167c0100000000000000000000000000000000000000000000000000000000028152600401808273ffffffffffffffffffffffffffffffffffffffff1673ffffffffffffffffffffffffffffffffffffffff168152602001915050602060405180830381600087803b15156143f957600080fd5b6102c65a03f1151561440a57600080fd5b50505060405180519050151514151561442257600080fd5b80600360008573ffffffffffffffffffffffffffffffffffffffff1673ffffffffffffffffffffffffffffffffffffffff168152602001908152602001600020600084815260200190815260200160002081905550505050565b601c60009054906101000a900473ffffffffffffffffffffffffffffffffffffffff16601960006101000a81548173ffffffffffffffffffffffffffffffffffffffff021916908373ffffffffffffffffffffffffffffffffffffffff16021790555060011515601960009054906101000a900473ffffffffffffffffffffffffffffffffffffffff1673ffffffffffffffffffffffffffffffffffffffff16638f16c41c336000604051602001526040518263ffffffff167c0100000000000000000000000000000000000000000000000000000000028152600401808273ffffffffffffffffffffffffffffffffffffffff1673ffffffffffffffffffffffffffffffffffffffff168152602001915050602060405180830381600087803b15156145a857600080fd5b6102c65a03f115156145b957600080fd5b5050506040518051905015151415156145d157600080fd5b7f4756000000000000000000000000000000000000000000000000000000000000827bffffffffffffffffffffffffffffffffffffffffffffffffffffffff1916141561465a5780601b60006101000a81548173ffffffffffffffffffffffffffffffffffffffff021916908373ffffffffffffffffffffffffffffffffffffffff1602179055505b5050565b601c60009054906101000a900473ffffffffffffffffffffffffffffffffffffffff16601960006101000a81548173ffffffffffffffffffffffffffffffffffffffff021916908373ffffffffffffffffffffffffffffffffffffffff16021790555060011515601960009054906101000a900473ffffffffffffffffffffffffffffffffffffffff1673ffffffffffffffffffffffffffffffffffffffff16638f16c41c336000604051602001526040518263ffffffff167c0100000000000000000000000000000000000000000000000000000000028152600401808273ffffffffffffffffffffffffffffffffffffffff1673ffffffffffffffffffffffffffffffffffffffff168152602001915050602060405180830381600087803b151561478a57600080fd5b6102c65a03f1151561479b57600080fd5b5050506040518051905015151415156147b357600080fd5b600080600084815260200190815260200160002060000160029054906101000a900460ff1660ff16141515156147e857600080fd5b817f5aabd8d9f8e9341daca92ba7a308348e80ea84b99d54897bf63a7493c1eca27e8242604051808360ff1681526020018281526020019250505060405180910390a26148358282618832565b5050565b601c60009054906101000a900473ffffffffffffffffffffffffffffffffffffffff16601960006101000a81548173ffffffffffffffffffffffffffffffffffffffff021916908373ffffffffffffffffffffffffffffffffffffffff16021790555060011515601960009054906101000a900473ffffffffffffffffffffffffffffffffffffffff1673ffffffffffffffffffffffffffffffffffffffff16638f16c41c336000604051602001526040518263ffffffff167c0100000000000000000000000000000000000000000000000000000000028152600401808273ffffffffffffffffffffffffffffffffffffffff1673ffffffffffffffffffffffffffffffffffffffff168152602001915050602060405180830381600087803b151561496557600080fd5b6102c65a03f1151561497657600080fd5b50505060405180519050151514151561498e57600080fd5b80600760008473ffffffffffffffffffffffffffffffffffffffff1673ffffffffffffffffffffffffffffffffffffffff168152602001908152602001600020600101819055505050565b60006016828154811015156149ea57fe5b906000526020600020906003020160020160009054906101000a900473ffffffffffffffffffffffffffffffffffffffff169050919050565b601c60009054906101000a900473ffffffffffffffffffffffffffffffffffffffff16601960006101000a81548173ffffffffffffffffffffffffffffffffffffffff021916908373ffffffffffffffffffffffffffffffffffffffff16021790555060011515601960009054906101000a900473ffffffffffffffffffffffffffffffffffffffff1673ffffffffffffffffffffffffffffffffffffffff16638f16c41c336000604051602001526040518263ffffffff167c0100000000000000000000000000000000000000000000000000000000028152600401808273ffffffffffffffffffffffffffffffffffffffff1673ffffffffffffffffffffffffffffffffffffffff168152602001915050602060405180830381600087803b1515614b4f57600080fd5b6102c65a03f11515614b6057600080fd5b505050604051805190501515141515614b7857600080fd5b601682815481101515614b8757fe5b906000526020600020906003020160000160009054906101000a900473ffffffffffffffffffffffffffffffffffffffff1673ffffffffffffffffffffffffffffffffffffffff167fcb191326b156e71a84d920401adf8a5e6d30f0be9d43f9782e7a7b255395ddea8342846040518084815260200183815260200180602001828103825283818151815260200191508051906020019080838360005b83811015614c3f578082015181840152602081019050614c24565b50505050905090810190601f168015614c6c5780820380516001836020036101000a031916815260200191505b5094505050505060405180910390a25050565b601c60009054906101000a900473ffffffffffffffffffffffffffffffffffffffff16601960006101000a81548173ffffffffffffffffffffffffffffffffffffffff021916908373ffffffffffffffffffffffffffffffffffffffff16021790555060011515601960009054906101000a900473ffffffffffffffffffffffffffffffffffffffff1673ffffffffffffffffffffffffffffffffffffffff16638f16c41c336000604051602001526040518263ffffffff167c0100000000000000000000000000000000000000000000000000000000028152600401808273ffffffffffffffffffffffffffffffffffffffff1673ffffffffffffffffffffffffffffffffffffffff168152602001915050602060405180830381600087803b1515614dab57600080fd5b6102c65a03f11515614dbc57600080fd5b505050604051805190501515141515614dd457600080fd5b80600660008673ffffffffffffffffffffffffffffffffffffffff1673ffffffffffffffffffffffffffffffffffffffff16815260200190815260200160002060008581526020019081526020016000206000847bffffffffffffffffffffffffffffffffffffffffffffffffffffffff19167bffffffffffffffffffffffffffffffffffffffffffffffffffffffff1916815260200190815260200160002060010160006101000a81548160ff021916908360ff16021790555050505050565b601c60009054906101000a900473ffffffffffffffffffffffffffffffffffffffff16601960006101000a81548173ffffffffffffffffffffffffffffffffffffffff021916908373ffffffffffffffffffffffffffffffffffffffff16021790555060011515601960009054906101000a900473ffffffffffffffffffffffffffffffffffffffff1673ffffffffffffffffffffffffffffffffffffffff16632f54bf6e336000604051602001526040518263ffffffff167c0100000000000000000000000000000000000000000000000000000000028152600401808273ffffffffffffffffffffffffffffffffffffffff1673ffffffffffffffffffffffffffffffffffffffff168152602001915050602060405180830381600087803b1515614fc157600080fd5b6102c65a03f11515614fd257600080fd5b505050604051805190501515141515614fea57600080fd5b8060138190555050565b600e5481565b60125481565b60095481565b6000600660008573ffffffffffffffffffffffffffffffffffffffff1673ffffffffffffffffffffffffffffffffffffffff16815260200190815260200160002060008481526020019081526020016000206000837bffffffffffffffffffffffffffffffffffffffffffffffffffffffff19167bffffffffffffffffffffffffffffffffffffffffffffffffffffffff1916815260200190815260200160002060010160009054906101000a900460ff1690509392505050565b600080600083815260200190815260200160002060000160029054906101000a900460ff169050919050565b6000601680549050905090565b601c60009054906101000a900473ffffffffffffffffffffffffffffffffffffffff16601960006101000a81548173ffffffffffffffffffffffffffffffffffffffff021916908373ffffffffffffffffffffffffffffffffffffffff16021790555060011515601960009054906101000a900473ffffffffffffffffffffffffffffffffffffffff1673ffffffffffffffffffffffffffffffffffffffff16632f54bf6e336000604051602001526040518263ffffffff167c0100000000000000000000000000000000000000000000000000000000028152600401808273ffffffffffffffffffffffffffffffffffffffff1673ffffffffffffffffffffffffffffffffffffffff168152602001915050602060405180830381600087803b151561522657600080fd5b6102c65a03f1151561523757600080fd5b50505060405180519050151514151561524f57600080fd5b85601460006101000a81548163ffffffff021916908363ffffffff16021790555084601460046101000a81548163ffffffff021916908363ffffffff16021790555083601460086101000a81548163ffffffff021916908363ffffffff160217905550826014600c6101000a81548163ffffffff021916908363ffffffff16021790555081601460106101000a81548163ffffffff021916908363ffffffff160217905550806014806101000a81548163ffffffff021916908363ffffffff160217905550505050505050565b6000600660008573ffffffffffffffffffffffffffffffffffffffff1673ffffffffffffffffffffffffffffffffffffffff16815260200190815260200160002060008481526020019081526020016000206000837bffffffffffffffffffffffffffffffffffffffffffffffffffffffff19167bffffffffffffffffffffffffffffffffffffffffffffffffffffffff191681526020019081526020016000206000015490509392505050565b601c60009054906101000a900473ffffffffffffffffffffffffffffffffffffffff16601960006101000a81548173ffffffffffffffffffffffffffffffffffffffff021916908373ffffffffffffffffffffffffffffffffffffffff16021790555060011515601960009054906101000a900473ffffffffffffffffffffffffffffffffffffffff1673ffffffffffffffffffffffffffffffffffffffff16638f16c41c336000604051602001526040518263ffffffff167c0100000000000000000000000000000000000000000000000000000000028152600401808273ffffffffffffffffffffffffffffffffffffffff1673ffffffffffffffffffffffffffffffffffffffff168152602001915050602060405180830381600087803b15156154f657600080fd5b6102c65a03f1151561550757600080fd5b50505060405180519050151514151561551f57600080fd5b8060008084815260200190815260200160002060000160026101000a81548160ff021916908360ff1602179055505050565b600d5481565b601c60009054906101000a900473ffffffffffffffffffffffffffffffffffffffff16601960006101000a81548173ffffffffffffffffffffffffffffffffffffffff021916908373ffffffffffffffffffffffffffffffffffffffff16021790555060011515601960009054906101000a900473ffffffffffffffffffffffffffffffffffffffff1673ffffffffffffffffffffffffffffffffffffffff16638f16c41c336000604051602001526040518263ffffffff167c0100000000000000000000000000000000000000000000000000000000028152600401808273ffffffffffffffffffffffffffffffffffffffff1673ffffffffffffffffffffffffffffffffffffffff168152602001915050602060405180830381600087803b151561568357600080fd5b6102c65a03f1151561569457600080fd5b5050506040518051905015151415156156ac57600080fd5b8060098190555050565b601c60009054906101000a900473ffffffffffffffffffffffffffffffffffffffff16601960006101000a81548173ffffffffffffffffffffffffffffffffffffffff021916908373ffffffffffffffffffffffffffffffffffffffff16021790555060011515601960009054906101000a900473ffffffffffffffffffffffffffffffffffffffff1673ffffffffffffffffffffffffffffffffffffffff16638f16c41c336000604051602001526040518263ffffffff167c0100000000000000000000000000000000000000000000000000000000028152600401808273ffffffffffffffffffffffffffffffffffffffff1673ffffffffffffffffffffffffffffffffffffffff168152602001915050602060405180830381600087803b15156157e257600080fd5b6102c65a03f115156157f357600080fd5b50505060405180519050151514151561580b57600080fd5b4260168281548110151561581b57fe5b90600052602060002090600302016001018190555050565b601c60009054906101000a900473ffffffffffffffffffffffffffffffffffffffff16601960006101000a81548173ffffffffffffffffffffffffffffffffffffffff021916908373ffffffffffffffffffffffffffffffffffffffff16021790555060011515601960009054906101000a900473ffffffffffffffffffffffffffffffffffffffff1673ffffffffffffffffffffffffffffffffffffffff16638f16c41c336000604051602001526040518263ffffffff167c0100000000000000000000000000000000000000000000000000000000028152600401808273ffffffffffffffffffffffffffffffffffffffff1673ffffffffffffffffffffffffffffffffffffffff168152602001915050602060405180830381600087803b151561595f57600080fd5b6102c65a03f1151561597057600080fd5b50505060405180519050151514151561598857600080fd5b8373ffffffffffffffffffffffffffffffffffffffff167fcb191326b156e71a84d920401adf8a5e6d30f0be9d43f9782e7a7b255395ddea8484846040518084815260200183815260200180602001828103825283818151815260200191508051906020019080838360005b83811015615a0f5780820151818401526020810190506159f4565b50505050905090810190601f168015615a3c5780820380516001836020036101000a031916815260200191505b5094505050505060405180910390a250505050565b601c60009054906101000a900473ffffffffffffffffffffffffffffffffffffffff16601960006101000a81548173ffffffffffffffffffffffffffffffffffffffff021916908373ffffffffffffffffffffffffffffffffffffffff16021790555060011515601960009054906101000a900473ffffffffffffffffffffffffffffffffffffffff1673ffffffffffffffffffffffffffffffffffffffff16638f16c41c336000604051602001526040518263ffffffff167c0100000000000000000000000000000000000000000000000000000000028152600401808273ffffffffffffffffffffffffffffffffffffffff1673ffffffffffffffffffffffffffffffffffffffff168152602001915050602060405180830381600087803b1515615b7d57600080fd5b6102c65a03f11515615b8e57600080fd5b505050604051805190501515141515615ba657600080fd5b80600760008473ffffffffffffffffffffffffffffffffffffffff1673ffffffffffffffffffffffffffffffffffffffff168152602001908152602001600020600001819055505050565b601d60009054906101000a900473ffffffffffffffffffffffffffffffffffffffff1673ffffffffffffffffffffffffffffffffffffffff163373ffffffffffffffffffffffffffffffffffffffff16141515615c4d57600080fd5b80601460106101000a81548163ffffffff021916908363ffffffff16021790555050565b6000801515600f60009054906101000a900460ff161515141515615c9457600080fd5b81601d60006101000a81548173ffffffffffffffffffffffffffffffffffffffff021916908373ffffffffffffffffffffffffffffffffffffffff160217905550615cdd618889565b615ce56188d3565b615ced618d6c565b615d187f53696d706c6520566f74696e67000000000000000000000000000000000000006000618e39565b615d437f52616e6b20426173656420566f74696e670000000000000000000000000000006000618e39565b615d6e7f4665617475726520576569676874656420566f74696e670000000000000000006000618e39565b60178054806001018281615d829190618f4d565b91600052602060002090600302016000606060405190810160405280600073ffffffffffffffffffffffffffffffffffffffff1681526020016000604051805910615dca5750595b908082528060200260200182016040525081526020016000815250909190915060008201518160000160006101000a81548173ffffffffffffffffffffffffffffffffffffffff021916908373ffffffffffffffffffffffffffffffffffffffff1602179055506020820151816001019080519060200190615e4d929190618f7f565b5060408201518160020155505050615e68600e546001618eef565b905080600e819055506001600f60006101000a81548160ff0219169083151502179055505050565b600b5481565b601d60009054906101000a900473ffffffffffffffffffffffffffffffffffffffff1673ffffffffffffffffffffffffffffffffffffffff163373ffffffffffffffffffffffffffffffffffffffff16141515615ef257600080fd5b80601d60006101000a81548173ffffffffffffffffffffffffffffffffffffffff021916908373ffffffffffffffffffffffffffffffffffffffff16021790555050565b601c60009054906101000a900473ffffffffffffffffffffffffffffffffffffffff16601960006101000a81548173ffffffffffffffffffffffffffffffffffffffff021916908373ffffffffffffffffffffffffffffffffffffffff16021790555060011515601960009054906101000a900473ffffffffffffffffffffffffffffffffffffffff1673ffffffffffffffffffffffffffffffffffffffff16638f16c41c336000604051602001526040518263ffffffff167c0100000000000000000000000000000000000000000000000000000000028152600401808273ffffffffffffffffffffffffffffffffffffffff1673ffffffffffffffffffffffffffffffffffffffff168152602001915050602060405180830381600087803b151561606257600080fd5b6102c65a03f1151561607357600080fd5b50505060405180519050151514151561608b57600080fd5b6016805480600101828161609f9190618fcc565b916000526020600020906003020160006060604051908101604052808873ffffffffffffffffffffffffffffffffffffffff1681526020018581526020018673ffffffffffffffffffffffffffffffffffffffff16815250909190915060008201518160000160006101000a81548173ffffffffffffffffffffffffffffffffffffffff021916908373ffffffffffffffffffffffffffffffffffffffff1602179055506020820151816001015560408201518160020160006101000a81548173ffffffffffffffffffffffffffffffffffffffff021916908373ffffffffffffffffffffffffffffffffffffffff1602179055505050508373ffffffffffffffffffffffffffffffffffffffff167fcb191326b156e71a84d920401adf8a5e6d30f0be9d43f9782e7a7b255395ddea8683866040518084815260200183815260200180602001828103825283818151815260200191508051906020019080838360005b8381101561621e578082015181840152602081019050616203565b50505050905090810190601f16801561624b5780820380516001836020036101000a031916815260200191505b5094505050505060405180910390a25050505050565b600060178381548110151561627257fe5b90600052602060002090600302016001018281548110151561629057fe5b906000526020600020900154905092915050565b6000806000838152602001908152602001600020600201549050919050565b60115481565b6000601b60009054906101000a900473ffffffffffffffffffffffffffffffffffffffff1673ffffffffffffffffffffffffffffffffffffffff1663e6ead007336000604051602001526040518263ffffffff167c0100000000000000000000000000000000000000000000000000000000028152600401808273ffffffffffffffffffffffffffffffffffffffff1673ffffffffffffffffffffffffffffffffffffffff168152602001915050602060405180830381600087803b151561639057600080fd5b6102c65a03f115156163a157600080fd5b5050506040518051905090506000811415156165da57601a60009054906101000a900473ffffffffffffffffffffffffffffffffffffffff1673ffffffffffffffffffffffffffffffffffffffff1663c14c0e6830836000604051602001526040518363ffffffff167c0100000000000000000000000000000000000000000000000000000000028152600401808373ffffffffffffffffffffffffffffffffffffffff1673ffffffffffffffffffffffffffffffffffffffff168152602001828152602001807f474254205374616b65202d20526563656976656400000000000000000000000081525060200192505050602060405180830381600087803b15156164ac57600080fd5b6102c65a03f115156164bd57600080fd5b5050506040518051905050601a60009054906101000a900473ffffffffffffffffffffffffffffffffffffffff1673ffffffffffffffffffffffffffffffffffffffff1663c14c0e6833836000604051602001526040518363ffffffff167c0100000000000000000000000000000000000000000000000000000000028152600401808373ffffffffffffffffffffffffffffffffffffffff1673ffffffffffffffffffffffffffffffffffffffff168152602001828152602001807f474254205374616b6520636c61696d6564202d2052657475726e65640000000081525060200192505050602060405180830381600087803b15156165bd57600080fd5b6102c65a03f115156165ce57600080fd5b50505060405180519050505b50565b601c60009054906101000a900473ffffffffffffffffffffffffffffffffffffffff16601960006101000a81548173ffffffffffffffffffffffffffffffffffffffff021916908373ffffffffffffffffffffffffffffffffffffffff16021790555060011515601960009054906101000a900473ffffffffffffffffffffffffffffffffffffffff1673ffffffffffffffffffffffffffffffffffffffff16638f16c41c336000604051602001526040518263ffffffff167c0100000000000000000000000000000000000000000000000000000000028152600401808273ffffffffffffffffffffffffffffffffffffffff1673ffffffffffffffffffffffffffffffffffffffff168152602001915050602060405180830381600087803b151561670957600080fd5b6102c65a03f1151561671a57600080fd5b50505060405180519050151514151561673257600080fd5b8260008088815260200190815260200160002060000160026101000a81548160ff021916908360ff16021790555061676d8686868585615f36565b505050505050565b601c60009054906101000a900473ffffffffffffffffffffffffffffffffffffffff16601960006101000a81548173ffffffffffffffffffffffffffffffffffffffff021916908373ffffffffffffffffffffffffffffffffffffffff16021790555060011515601960009054906101000a900473ffffffffffffffffffffffffffffffffffffffff1673ffffffffffffffffffffffffffffffffffffffff16638f16c41c336000604051602001526040518263ffffffff167c0100000000000000000000000000000000000000000000000000000000028152600401808273ffffffffffffffffffffffffffffffffffffffff1673ffffffffffffffffffffffffffffffffffffffff168152602001915050602060405180830381600087803b15156168a157600080fd5b6102c65a03f115156168b257600080fd5b5050506040518051905015151415156168ca57600080fd5b80600080848152602001908152602001600020600201819055505050565b6000600160008481526020019081526020016000208281548110151561690a57fe5b906000526020600020900160009054906101000a900473ffffffffffffffffffffffffffffffffffffffff16905092915050565b601c60009054906101000a900473ffffffffffffffffffffffffffffffffffffffff16601960006101000a81548173ffffffffffffffffffffffffffffffffffffffff021916908373ffffffffffffffffffffffffffffffffffffffff16021790555060011515601960009054906101000a900473ffffffffffffffffffffffffffffffffffffffff1673ffffffffffffffffffffffffffffffffffffffff16638f16c41c336000604051602001526040518263ffffffff167c0100000000000000000000000000000000000000000000000000000000028152600401808273ffffffffffffffffffffffffffffffffffffffff1673ffffffffffffffffffffffffffffffffffffffff168152602001915050602060405180830381600087803b1515616a6a57600080fd5b6102c65a03f11515616a7b57600080fd5b505050604051805190501515141515616a9357600080fd5b8373ffffffffffffffffffffffffffffffffffffffff16857fc38f65c8c004da3a2e865d05d2b69ba4443ecf31cd58c4fe023c75ee59c42bd68585856040518080602001848152602001838152602001828103825285818151815260200191508051906020019080838360005b83811015616b1b578082015181840152602081019050616b00565b50505050905090810190601f168015616b485780820380516001836020036101000a031916815260200191505b5094505050505060405180910390a35050505050565b616b66618f39565b600460008481526020019081526020016000206000838152602001908152602001600020805480602002602001604051908101604052809291908181526020018280548015616bd457602002820191906000526020600020905b815481526020019060010190808311616bc0575b5050505050905092915050565b601d60009054906101000a900473ffffffffffffffffffffffffffffffffffffffff1673ffffffffffffffffffffffffffffffffffffffff163373ffffffffffffffffffffffffffffffffffffffff16141515616c3d57600080fd5b80600a8190555050565b601d60009054906101000a900473ffffffffffffffffffffffffffffffffffffffff1673ffffffffffffffffffffffffffffffffffffffff163373ffffffffffffffffffffffffffffffffffffffff16141515616ca357600080fd5b806014600c6101000a81548163ffffffff021916908363ffffffff16021790555050565b6000616cd1618ffe565b600080600085601560008089815260200190815260200160002060000160019054906101000a900460ff1660ff16815481101515616d0b57fe5b906000526020600020900160008089815260200190815260200160002060000160029054906101000a900460ff166000808a815260200190815260200160002060000160019054906101000a900460ff166000808b815260200190815260200160002060000160039054906101000a900460ff16838054600181600116156101000203166002900480601f016020809104026020016040519081016040528092919081815260200182805460018160011615610100020316600290048015616e145780601f10616de957610100808354040283529160200191616e14565b820191906000526020600020905b815481529060010190602001808311616df757829003601f168201915b505050505093509450945094509450945091939590929450565b60105481565b616e3c618f39565b601782815481101515616e4b57fe5b9060005260206000209060030201600101805480602002602001604051908101604052809291908181526020018280548015616ea657602002820191906000526020600020905b815481526020019060010190808311616e92575b50505050509050919050565b601c60009054906101000a900473ffffffffffffffffffffffffffffffffffffffff16601960006101000a81548173ffffffffffffffffffffffffffffffffffffffff021916908373ffffffffffffffffffffffffffffffffffffffff16021790555060011515601960009054906101000a900473ffffffffffffffffffffffffffffffffffffffff1673ffffffffffffffffffffffffffffffffffffffff16638f16c41c336000604051602001526040518263ffffffff167c0100000000000000000000000000000000000000000000000000000000028152600401808273ffffffffffffffffffffffffffffffffffffffff1673ffffffffffffffffffffffffffffffffffffffff168152602001915050602060405180830381600087803b1515616fde57600080fd5b6102c65a03f11515616fef57600080fd5b50505060405180519050151514151561700757600080fd5b82847f76b141f6b2c4aef07d2be2f4d572eb1fe6fc483cf20b69274dad519cb5571fc184846040518080602001838152602001828103825284818151815260200191508051906020019080838360005b83811015617072578082015181840152602081019050617057565b50505050905090810190601f16801561709f5780820380516001836020036101000a031916815260200191505b50935050505060405180910390a350505050565b6000601c60009054906101000a900473ffffffffffffffffffffffffffffffffffffffff1673ffffffffffffffffffffffffffffffffffffffff16141561713a5780601c60006101000a81548173ffffffffffffffffffffffffffffffffffffffff021916908373ffffffffffffffffffffffffffffffffffffffff1602179055506172d1565b601c60009054906101000a900473ffffffffffffffffffffffffffffffffffffffff16601960006101000a81548173ffffffffffffffffffffffffffffffffffffffff021916908373ffffffffffffffffffffffffffffffffffffffff16021790555060011515601960009054906101000a900473ffffffffffffffffffffffffffffffffffffffff1673ffffffffffffffffffffffffffffffffffffffff16638f16c41c336000604051602001526040518263ffffffff167c0100000000000000000000000000000000000000000000000000000000028152600401808273ffffffffffffffffffffffffffffffffffffffff1673ffffffffffffffffffffffffffffffffffffffff168152602001915050602060405180830381600087803b151561726657600080fd5b6102c65a03f1151561727757600080fd5b50505060405180519050151514151561728f57600080fd5b80601c60006101000a81548173ffffffffffffffffffffffffffffffffffffffff021916908373ffffffffffffffffffffffffffffffffffffffff1602179055505b50565b601c60009054906101000a900473ffffffffffffffffffffffffffffffffffffffff16601960006101000a81548173ffffffffffffffffffffffffffffffffffffffff021916908373ffffffffffffffffffffffffffffffffffffffff16021790555060011515601960009054906101000a900473ffffffffffffffffffffffffffffffffffffffff1673ffffffffffffffffffffffffffffffffffffffff16638f16c41c336000604051602001526040518263ffffffff167c0100000000000000000000000000000000000000000000000000000000028152600401808273ffffffffffffffffffffffffffffffffffffffff1673ffffffffffffffffffffffffffffffffffffffff168152602001915050602060405180830381600087803b151561740057600080fd5b6102c65a03f1151561741157600080fd5b50505060405180519050151514151561742957600080fd5b60016000838152602001908152602001600020805480600101828161744e9190619012565b9160005260206000209001600083909190916101000a81548173ffffffffffffffffffffffffffffffffffffffff021916908373ffffffffffffffffffffffffffffffffffffffff160217905550505050565b60006017828154811015156174b257fe5b906000526020600020906003020160000160009054906101000a900473ffffffffffffffffffffffffffffffffffffffff169050919050565b6000600760008373ffffffffffffffffffffffffffffffffffffffff1673ffffffffffffffffffffffffffffffffffffffff168152602001908152602001600020600101549050919050565b600080600080848152602001908152602001600020600201546000808581526020019081526020016000206001015491509150915091565b601c60009054906101000a900473ffffffffffffffffffffffffffffffffffffffff16601960006101000a81548173ffffffffffffffffffffffffffffffffffffffff021916908373ffffffffffffffffffffffffffffffffffffffff16021790555060011515601960009054906101000a900473ffffffffffffffffffffffffffffffffffffffff1673ffffffffffffffffffffffffffffffffffffffff16638f16c41c336000604051602001526040518263ffffffff167c0100000000000000000000000000000000000000000000000000000000028152600401808273ffffffffffffffffffffffffffffffffffffffff1673ffffffffffffffffffffffffffffffffffffffff168152602001915050602060405180830381600087803b151561769b57600080fd5b6102c65a03f115156176ac57600080fd5b5050506040518051905015151415156176c457600080fd5b8060008084815260200190815260200160002060000160036101000a81548160ff021916908360ff1602179055505050565b601c60009054906101000a900473ffffffffffffffffffffffffffffffffffffffff16601960006101000a81548173ffffffffffffffffffffffffffffffffffffffff021916908373ffffffffffffffffffffffffffffffffffffffff16021790555060011515601960009054906101000a900473ffffffffffffffffffffffffffffffffffffffff1673ffffffffffffffffffffffffffffffffffffffff16638f16c41c336000604051602001526040518263ffffffff167c0100000000000000000000000000000000000000000000000000000000028152600401808273ffffffffffffffffffffffffffffffffffffffff1673ffffffffffffffffffffffffffffffffffffffff168152602001915050602060405180830381600087803b151561782257600080fd5b6102c65a03f1151561783357600080fd5b50505060405180519050151514151561784b57600080fd5b8060008084815260200190815260200160002060000160006101000a81548160ff021916908360ff1602179055505050565b600080600083815260200190815260200160002060000160049054906101000a900460ff169050919050565b60008060008084815260200190815260200160002060000160019054906101000a900460ff1660008085815260200190815260200160002060000160039054906101000a900460ff168160ff1691508060ff16905091509150915091565b6000600760008373ffffffffffffffffffffffffffffffffffffffff1673ffffffffffffffffffffffffffffffffffffffff168152602001908152602001600020600001549050919050565b601c60009054906101000a900473ffffffffffffffffffffffffffffffffffffffff16601960006101000a81548173ffffffffffffffffffffffffffffffffffffffff021916908373ffffffffffffffffffffffffffffffffffffffff16021790555060011515601960009054906101000a900473ffffffffffffffffffffffffffffffffffffffff1673ffffffffffffffffffffffffffffffffffffffff16638f16c41c336000604051602001526040518263ffffffff167c0100000000000000000000000000000000000000000000000000000000028152600401808273ffffffffffffffffffffffffffffffffffffffff1673ffffffffffffffffffffffffffffffffffffffff168152602001915050602060405180830381600087803b1515617a7f57600080fd5b6102c65a03f11515617a9057600080fd5b505050604051805190501515141515617aa857600080fd5b828473ffffffffffffffffffffffffffffffffffffffff167f447c0c0d690c4c97a998dd617b380407a8199a83eb0e8051f1e87e5da96caa0884846040518080602001838152602001828103825284818151815260200191508051906020019080838360005b83811015617b29578082015181840152602081019050617b0e565b50505050905090810190601f168015617b565780820380516001836020036101000a031916815260200191505b50935050505060405180910390a350505050565b6000601682815481101515617b7b57fe5b9060005260206000209060030201600101549050919050565b601d60009054906101000a900473ffffffffffffffffffffffffffffffffffffffff1673ffffffffffffffffffffffffffffffffffffffff163373ffffffffffffffffffffffffffffffffffffffff16141515617bf057600080fd5b80600b8190555050565b601c60009054906101000a900473ffffffffffffffffffffffffffffffffffffffff16601960006101000a81548173ffffffffffffffffffffffffffffffffffffffff021916908373ffffffffffffffffffffffffffffffffffffffff16021790555060011515601960009054906101000a900473ffffffffffffffffffffffffffffffffffffffff1673ffffffffffffffffffffffffffffffffffffffff16638f16c41c336000604051602001526040518263ffffffff167c0100000000000000000000000000000000000000000000000000000000028152600401808273ffffffffffffffffffffffffffffffffffffffff1673ffffffffffffffffffffffffffffffffffffffff168152602001915050602060405180830381600087803b1515617d2657600080fd5b6102c65a03f11515617d3757600080fd5b505050604051805190501515141515617d4f57600080fd5b8060008084815260200190815260200160002060000160046101000a81548160ff021916908360ff1602179055505050565b6000601880549050905090565b6000806000806000806000876000808a815260200190815260200160002060000160029054906101000a900460ff166000808b815260200190815260200160002060000160009054906101000a900460ff166000808c815260200190815260200160002060000160049054906101000a900460ff166000808d815260200190815260200160002060000160039054906101000a900460ff1660168d815481101515617e3557fe5b906000526020600020906003020160020160009054906101000a900473ffffffffffffffffffffffffffffffffffffffff16600160008f8152602001908152602001600020805490509650965096509650965096509650919395979092949650565b600a5481565b601c60009054906101000a900473ffffffffffffffffffffffffffffffffffffffff1673ffffffffffffffffffffffffffffffffffffffff163373ffffffffffffffffffffffffffffffffffffffff16141515617ef957600080fd5b80601e60006101000a81548173ffffffffffffffffffffffffffffffffffffffff021916908373ffffffffffffffffffffffffffffffffffffffff16021790555050565b6000600360008473ffffffffffffffffffffffffffffffffffffffff1673ffffffffffffffffffffffffffffffffffffffff168152602001908152602001600020600083815260200190815260200160002054905092915050565b601c60009054906101000a900473ffffffffffffffffffffffffffffffffffffffff16601960006101000a81548173ffffffffffffffffffffffffffffffffffffffff021916908373ffffffffffffffffffffffffffffffffffffffff16021790555060011515601960009054906101000a900473ffffffffffffffffffffffffffffffffffffffff1673ffffffffffffffffffffffffffffffffffffffff16638f16c41c336000604051602001526040518263ffffffff167c0100000000000000000000000000000000000000000000000000000000028152600401808273ffffffffffffffffffffffffffffffffffffffff1673ffffffffffffffffffffffffffffffffffffffff168152602001915050602060405180830381600087803b15156180c457600080fd5b6102c65a03f115156180d557600080fd5b5050506040518051905015151415156180ed57600080fd5b80600760008473ffffffffffffffffffffffffffffffffffffffff1673ffffffffffffffffffffffffffffffffffffffff168152602001908152602001600020600201819055505050565b600060188281548110151561814957fe5b906000526020600020906002020160010160009054906101000a900473ffffffffffffffffffffffffffffffffffffffff169050919050565b601c60009054906101000a900473ffffffffffffffffffffffffffffffffffffffff16601960006101000a81548173ffffffffffffffffffffffffffffffffffffffff021916908373ffffffffffffffffffffffffffffffffffffffff16021790555060011515601960009054906101000a900473ffffffffffffffffffffffffffffffffffffffff1673ffffffffffffffffffffffffffffffffffffffff16638f16c41c336000604051602001526040518263ffffffff167c0100000000000000000000000000000000000000000000000000000000028152600401808273ffffffffffffffffffffffffffffffffffffffff1673ffffffffffffffffffffffffffffffffffffffff168152602001915050602060405180830381600087803b15156182ae57600080fd5b6102c65a03f115156182bf57600080fd5b5050506040518051905015151415156182d757600080fd5b80600660008673ffffffffffffffffffffffffffffffffffffffff1673ffffffffffffffffffffffffffffffffffffffff16815260200190815260200160002060008581526020019081526020016000206000847bffffffffffffffffffffffffffffffffffffffffffffffffffffffff19167bffffffffffffffffffffffffffffffffffffffffffffffffffffffff191681526020019081526020016000206000018190555050505050565b600060016000838152602001908152602001600020805490509050919050565b601d60009054906101000a900473ffffffffffffffffffffffffffffffffffffffff1673ffffffffffffffffffffffffffffffffffffffff163373ffffffffffffffffffffffffffffffffffffffff1614151561840057600080fd5b80601460086101000a81548163ffffffff021916908363ffffffff16021790555050565b60008060008060008560168781548110151561843c57fe5b906000526020600020906003020160000160009054906101000a900473ffffffffffffffffffffffffffffffffffffffff1660168881548110151561847d57fe5b9060005260206000209060030201600101546000808a815260200190815260200160002060000160059054906101000a900460ff166000808b815260200190815260200160002060000160019054906101000a900460ff169450945094509450945091939590929450565b601c60009054906101000a900473ffffffffffffffffffffffffffffffffffffffff16601960006101000a81548173ffffffffffffffffffffffffffffffffffffffff021916908373ffffffffffffffffffffffffffffffffffffffff16021790555060011515601960009054906101000a900473ffffffffffffffffffffffffffffffffffffffff1673ffffffffffffffffffffffffffffffffffffffff16638f16c41c336000604051602001526040518263ffffffff167c0100000000000000000000000000000000000000000000000000000000028152600401808273ffffffffffffffffffffffffffffffffffffffff1673ffffffffffffffffffffffffffffffffffffffff168152602001915050602060405180830381600087803b151561861457600080fd5b6102c65a03f1151561862557600080fd5b50505060405180519050151514151561863d57600080fd5b82600260008673ffffffffffffffffffffffffffffffffffffffff1673ffffffffffffffffffffffffffffffffffffffff16815260200190815260200160002060006101000a81548163ffffffff021916908363ffffffff160217905550848473ffffffffffffffffffffffffffffffffffffffff167fce0d3f9d027074f1f630a0dce9a86a485923d702c3e5dbdf98fc045e3046710a88858560405180806020018463ffffffff1663ffffffff168152602001837bffffffffffffffffffffffffffffffffffffffffffffffffffffffff19167bffffffffffffffffffffffffffffffffffffffffffffffffffffffff19168152602001828103825285818151815260200191508051906020019080838360005b8381101561876d578082015181840152602081019050618752565b50505050905090810190601f16801561879a5780820380516001836020036101000a031916815260200191505b5094505050505060405180910390a3505050505050565b600080600084815260200190815260200160002060000160059054906101000a900460ff1660ff16905092915050565b6000806000838152602001908152602001600020600101549050919050565b8060008084815260200190815260200160002060000160056101000a81548160ff021916908360ff1602179055505050565b8060008084815260200190815260200160002060000160016101000a81548160ff021916908360ff1602179055504260168381548110151561887057fe5b9060005260206000209060030201600101819055505050565b600060098190555060196008819055506000600a819055506005600b819055506001600c819055506001600d81905550601e601081905550601e6011819055506028601281905550565b601580548060010182816188e7919061903e565b916000526020600020900160006040805190810160405280601481526020017f447261667420666f722064697363757373696f6e0000000000000000000000008152509091909150908051906020019061894292919061906a565b505060158054806001018281618958919061903e565b916000526020600020900160006040805190810160405280601a81526020017f447261667420526561647920666f72207375626d697373696f6e000000000000815250909190915090805190602001906189b392919061906a565b5050601580548060010182816189c9919061903e565b916000526020600020900160006040805190810160405280600e81526020017f566f74696e67207374617274656400000000000000000000000000000000000081525090919091509080519060200190618a2492919061906a565b505060158054806001018281618a3a919061903e565b91600052602060002090016000606060405190810160405280602f81526020017f50726f706f73616c204465636973696f6e202d2041636365707465642062792081526020017f4d616a6f7269747920566f74696e67000000000000000000000000000000000081525090919091509080519060200190618abc92919061906a565b505060158054806001018281618ad2919061903e565b91600052602060002090016000606060405190810160405280602f81526020017f50726f706f73616c204465636973696f6e202d2052656a65637465642062792081526020017f4d616a6f7269747920766f74696e67000000000000000000000000000000000081525090919091509080519060200190618b5492919061906a565b505060158054806001018281618b6a919061903e565b91600052602060002090016000608060405190810160405280604f81526020017f50726f706f73616c204163636570746564202d204d616a6f7269747920566f7481526020017f696e67206e6f742072656163686564204275742041636365707465642062792081526020017f70726576696f757320566f74696e67000000000000000000000000000000000081525090919091509080519060200190618c1292919061906a565b505060158054806001018281618c28919061903e565b91600052602060002090016000606060405190810160405280602681526020017f50726f706f73616c2044656e6965642c205468726573686f6c64206e6f74207281526020017f656163686564000000000000000000000000000000000000000000000000000081525090919091509080519060200190618caa92919061906a565b505060158054806001018281618cc0919061903e565b91600052602060002090016000608060405190810160405280604981526020017f50726f706f73616c204163636570746564202d205468726573686f6c64206e6f81526020017f742072656163686564204275742041636365707465642062792050726576696f81526020017f757320566f74696e67000000000000000000000000000000000000000000000081525090919091509080519060200190618d6892919061906a565b5050565b6005601460006101000a81548163ffffffff021916908363ffffffff1602179055506005601460046101000a81548163ffffffff021916908363ffffffff1602179055506001601460086101000a81548163ffffffff021916908363ffffffff16021790555060016014600c6101000a81548163ffffffff021916908363ffffffff1602179055506001601460106101000a81548163ffffffff021916908363ffffffff16021790555060016014806101000a81548163ffffffff021916908363ffffffff160217905550565b60188054806001018281618e4d91906190ea565b916000526020600020906002020160006040805190810160405280866000191681526020018573ffffffffffffffffffffffffffffffffffffffff1681525090919091506000820151816000019060001916905560208201518160010160006101000a81548173ffffffffffffffffffffffffffffffffffffffff021916908373ffffffffffffffffffffffffffffffffffffffff1602179055505050505050565b6000808284019050838110151515618f0357fe5b8091505092915050565b815481835581811511618f3457818360005260206000209182019101618f33919061911c565b5b505050565b602060405190810160405280600081525090565b815481835581811511618f7a57600302816003028360005260206000209182019101618f799190619141565b5b505050565b828054828255906000526020600020908101928215618fbb579160200282015b82811115618fba578251825591602001919060010190618f9f565b5b509050618fc8919061911c565b5090565b815481835581811511618ff957600302816003028360005260206000209182019101618ff8919061919f565b5b505050565b602060405190810160405280600081525090565b81548183558181151161903957818360005260206000209182019101619038919061911c565b5b505050565b815481835581811511619065578183600052602060002091820191016190649190619214565b5b505050565b828054600181600116156101000203166002900490600052602060002090601f016020900481019282601f106190ab57805160ff19168380011785556190d9565b828001600101855582156190d9579182015b828111156190d85782518255916020019190600101906190bd565b5b5090506190e6919061911c565b5090565b815481835581811511619117576002028160020283600052602060002091820191016191169190619240565b5b505050565b61913e91905b8082111561913a576000816000905550600101619122565b5090565b90565b61919c91905b8082111561919857600080820160006101000a81549073ffffffffffffffffffffffffffffffffffffffff0219169055600182016000619187919061928e565b600282016000905550600301619147565b5090565b90565b61921191905b8082111561920d57600080820160006101000a81549073ffffffffffffffffffffffffffffffffffffffff021916905560018201600090556002820160006101000a81549073ffffffffffffffffffffffffffffffffffffffff0219169055506003016191a5565b5090565b90565b61923d91905b80821115619239576000818161923091906192af565b5060010161921a565b5090565b90565b61928b91905b80821115619287576000808201600090556001820160006101000a81549073ffffffffffffffffffffffffffffffffffffffff021916905550600201619246565b5090565b90565b50805460008255906000526020600020908101906192ac919061911c565b50565b50805460018160011615610100020316600290046000825580601f106192d557506192f4565b601f0160209004906000526020600020908101906192f3919061911c565b5b505600a165627a7a723058209870defa5fc9f0795603fc6065c2c3df0fbf6094fd3ad76debf7563acb6210810029",
  "source": "/* Copyright (C) 2017 GovBlocks.io\r\n\r\n  This program is free software: you can redistribute it and/or modify\r\n    it under the terms of the GNU General Public License as published by\r\n    the Free Software Foundation, either version 3 of the License, or\r\n    (at your option) any later version.\r\n\r\n  This program is distributed in the hope that it will be useful,\r\n    but WITHOUT ANY WARRANTY; without even the implied warranty of\r\n    MERCHANTABILITY or FITNESS FOR A PARTICULAR PURPOSE.  See the\r\n    GNU General Public License for more details.\r\n\r\n  You should have received a copy of the GNU General Public License\r\n    along with this program.  If not, see http://www.gnu.org/licenses/ */\r\n\r\n\r\npragma solidity ^0.4.8;\r\nimport \"./SafeMath.sol\";\r\nimport \"./Master.sol\";\r\nimport \"./GBTStandardToken.sol\";\r\nimport \"./Governance.sol\";\r\n\r\ncontract governanceData {\r\n  \r\n    event Proposal(address indexed proposalOwner,uint256 proposalId,uint256 dateAdd,string proposalDescHash);\r\n    event Solution(uint256 indexed proposalId,address indexed solutionOwner,string solutionDescHash,uint256 dateAdd,uint256 solutionStake);\r\n    event Reputation(address indexed from,uint256 indexed proposalId, string description, uint32 reputationPoints,bytes4 typeOf);\r\n    event Vote(address indexed from,uint256 indexed proposalId,uint256 dateAdd,uint256 voteStakeGBT,uint256 voteId);\r\n    event Reward(address indexed to,uint256 indexed proposalId,string description,uint256 amount);\r\n    event Penalty(address indexed to,uint256 indexed proposalId,string description,uint256 amount);\r\n    event OraclizeCall(address indexed proposalOwner,uint256 indexed proposalId,uint256 dateAdd,uint256 closingTime);    \r\n    event ProposalStatus(uint256 indexed proposalId,uint256 proposalStatus,uint256 dateAdd);\r\n    event ProposalVersion(uint256 indexed proposalId,uint256 indexed versionNumber,string proposalDescHash,uint256 dateAdd);\r\n\r\n    /// @dev Calls proposal version event\r\n    /// @param proposalId Proposal id\r\n    /// @param versionNumber Version number\r\n    /// @param proposalDescHash Proposal description hash\r\n    /// @param dateAdd Date when proposal version was added\r\n    function callProposalVersionEvent(uint256 proposalId,uint256 versionNumber,string proposalDescHash,uint256 dateAdd) onlyInternal\r\n    {\r\n        ProposalVersion(proposalId,versionNumber,proposalDescHash,dateAdd);\r\n    }\r\n\r\n    /// @dev Calls solution event\r\n    /// @param proposalId Proposal id\r\n    /// @param solutionOwner Solution owner\r\n    /// @param solutionDescHash Solution description hash\r\n    /// @param dateAdd Date the solution was added\r\n    /// @param solutionStake Stake of the solution provider\r\n    function callSolutionEvent(uint256 proposalId,address solutionOwner,string solutionDescHash,uint256 dateAdd,uint256 solutionStake) onlyInternal\r\n    {\r\n        Solution(proposalId,solutionOwner,solutionDescHash,dateAdd,solutionStake);\r\n    }\r\n\r\n    /// @dev Calls proposal event\r\n    /// @param _proposalOwner Proposal owner\r\n    /// @param _proposalId Proposal id\r\n    /// @param _dateAdd Date when proposal was added\r\n    /// @param _proposalDescHash Proposal description hash\r\n    function callProposalEvent(address _proposalOwner,uint _proposalId,uint _dateAdd,string _proposalDescHash) onlyInternal\r\n    {\r\n        Proposal(_proposalOwner,_proposalId,_dateAdd,_proposalDescHash);   \r\n    }\r\n\r\n    /// @dev Calls event to update the reputation of the member\r\n    /// @param _from Whose reputation is getting updated\r\n    /// @param _proposalId Proposal id\r\n    /// @param _description Description\r\n    /// @param _reputationPoints Reputation points\r\n    /// @param _typeOf Type of credit/debit of reputation\r\n    function callReputationEvent(address _from,uint256 _proposalId,string _description,uint32 _reputationPoints,bytes4 _typeOf) onlyInternal\r\n    {\r\n        Reputation(_from, _proposalId, _description,_reputationPoints,_typeOf);\r\n    }\r\n    \r\n    /// @dev Calls vote event\r\n    /// @param _from Whose account the vote is added\r\n    /// @param _voteId Vote id\r\n    function callVoteEvent(address _from,uint _proposalId,uint _dateAdd,uint _voteStakeGBT,uint256 _voteId) onlyInternal\r\n    {\r\n        Vote(_from,_proposalId,_dateAdd,_voteStakeGBT,_voteId);\r\n    }\r\n    \r\n    /// @dev Calls reward event\r\n    /// @param _to Address of the receiver of the award\r\n    /// @param _proposalId Proposal id\r\n    /// @param _description Description of the event\r\n    /// @param _amount Amount of reward\r\n    function callRewardEvent(address _to,uint256 _proposalId,string _description,uint256 _amount) onlyInternal \r\n    {\r\n        Reward(_to, _proposalId, _description,_amount);\r\n    }\r\n\r\n    /// @dev Calls penalty event\r\n    /// @param _to Address to whom penalty is charged\r\n    /// @param _proposalId Proposal id\r\n    /// @param _description Description of the event\r\n    /// @param _amount Amount of penalty\r\n    function callPenaltyEvent(address _to,uint256 _proposalId,string _description,uint256 _amount) onlyInternal \r\n    {\r\n        Penalty(_to, _proposalId, _description,_amount);\r\n    }\r\n\r\n    /// @dev Calls Oraclize call event\r\n    /// @param _proposalId Proposal id\r\n    /// @param _dateAdd Date proposal was added\r\n    /// @param _closingTime Closing time of the proposal\r\n    function callOraclizeCallEvent(uint256 _proposalId,uint256 _dateAdd,uint256 _closingTime) onlyInternal\r\n    {\r\n        OraclizeCall(allProposal[_proposalId].owner, _proposalId, _dateAdd,_closingTime);\r\n    }\r\n    \r\n    /// @dev Calls proposal status event\r\n    /// @param _proposalId Proposal id\r\n    /// @param _proposalStatus Proposal status\r\n    /// @param _dateAdd Date when proposal was added\r\n    function callProposalStatusEvent(uint256 _proposalId,uint _proposalStatus,uint _dateAdd) onlyInternal\r\n    {\r\n        ProposalStatus(_proposalId,_proposalStatus,_dateAdd);\r\n    }   \r\n    \r\n    using SafeMath for uint;\r\n    struct proposal\r\n    {\r\n        address owner;\r\n        uint date_upd;\r\n        address votingTypeAddress;\r\n    }\r\n\r\n    struct proposalData\r\n    {\r\n        uint8 currVotingStatus;\r\n        uint8 propStatus;  \r\n        uint8 category;\r\n        uint8 finalVerdict;\r\n        uint8 currentVerdict;\r\n        uint8 versionNumber;\r\n        uint totalVoteValue;\r\n        uint totalreward;\r\n        uint commonIncentive;\r\n    }\r\n\r\n    struct votingTypeDetails\r\n    {\r\n        bytes32 votingTypeName;\r\n        address votingTypeAddress;\r\n    }\r\n\r\n    struct proposalVote \r\n    {\r\n        address voter;\r\n        uint[] solutionChosen;\r\n        uint voteValue;\r\n    }\r\n\r\n    struct lastReward\r\n    {\r\n        uint lastReward_proposalId;\r\n        uint lastReward_solutionProposalId;\r\n        uint lastReward_voteId;\r\n    }\r\n\r\n    struct deposit\r\n    {\r\n        uint amount;\r\n        uint8 returned;\r\n    }\r\n    \r\n    mapping(uint=>proposalData) allProposalData;\r\n    mapping(uint=>address[]) allProposalSolutions;\r\n    mapping(address=>uint32) allMemberReputationByAddress;\r\n    mapping(address=>mapping(uint=>uint)) AddressProposalVote; \r\n    mapping(uint=>mapping(uint=>uint[])) ProposalRoleVote; \r\n    mapping(address=>uint[]) allProposalByMember;\r\n    mapping(address=>mapping(uint=>mapping(bytes4=>deposit))) allMemberDepositTokens;\r\n    mapping(address=>lastReward) lastRewardDetails ;\r\n\r\n    uint public quorumPercentage;\r\n    uint public pendingProposalStart;\r\n    uint public GBTStakeValue; \r\n    uint public globalRiskFactor; \r\n    uint public membershipScalingFactor;\r\n    uint public scalingWeight;\r\n    uint public allVotesTotal;\r\n    bool public constructorCheck;\r\n    uint public depositPercProposal;\r\n    uint public depositPercSolution;\r\n    uint public depositPercVote;\r\n    uint public tokenHoldingTime;\r\n    uint32 addProposalOwnerPoints;\r\n    uint32 addSolutionOwnerPoints;\r\n    uint32 addMemberPoints;\r\n    uint32 subProposalOwnerPoints;\r\n    uint32 subSolutionOwnerPoints;\r\n    uint32 subMemberPoints;\r\n    \r\n    string[]  status;\r\n    proposal[] allProposal;\r\n    proposalVote[] allVotes;\r\n    votingTypeDetails[] allVotingTypeDetails;\r\n    \r\n\r\n    Master MS;\r\n    GBTStandardToken GBTS;\r\n    Governance GOV;\r\n    address masterAddress;\r\n    address GBMAddress;\r\n    address GBTSAddress;\r\n    address constant null_address = 0x00;\r\n\r\n    modifier onlyInternal {\r\n        MS=Master(masterAddress);\r\n        require(MS.isInternal(msg.sender) == true);\r\n        _; \r\n    }\r\n    \r\n     modifier onlyOwner \r\n    {\r\n        MS=Master(masterAddress);\r\n        require(MS.isOwner(msg.sender) == true);\r\n        _; \r\n    }\r\n\r\n    modifier onlyMaster \r\n    {\r\n        require(msg.sender == masterAddress);\r\n        _; \r\n    }\r\n\r\n    modifier onlyGBM\r\n    {\r\n        require(msg.sender == GBMAddress);\r\n        _;\r\n    }\r\n    \r\n    /// @dev Changes master's contract address\r\n    /// @param _masterContractAddress New master contract address\r\n    function changeMasterAddress(address _masterContractAddress) \r\n    {\r\n        if(masterAddress == 0x000)\r\n            masterAddress = _masterContractAddress;\r\n        else\r\n        {\r\n            MS=Master(masterAddress);\r\n            require(MS.isInternal(msg.sender) == true);\r\n                masterAddress = _masterContractAddress;\r\n        }\r\n    }\r\n\r\n    /// @dev Changes GovBlocks master address\r\n    /// @param _GBMAddress new GovBlocks master address\r\n    function changeGBMAddress(address _GBMAddress) onlyGBM\r\n    {\r\n        GBMAddress = _GBMAddress;\r\n    }\r\n    \r\n    /// @dev Changes GovBlocks standard token address\r\n    /// @param _GBTAddress New GovBlocks token address\r\n    function changeGBTSAddress(address _GBTAddress) onlyMaster\r\n    {\r\n        GBTSAddress = _GBTAddress;\r\n    }  \r\n    \r\n    /// @dev Changes Global objects of the contracts || Uses latest version\r\n    /// @param contractName Contract name \r\n    /// @param contractAddress Contract addresses\r\n    function changeAddress(bytes4 contractName, address contractAddress) onlyInternal\r\n    {\r\n        if(contractName == 'GV'){\r\n          GOV = Governance(contractAddress); }\r\n    }\r\n    \r\n    /// @dev Initiates governance data\r\n    /// @param _GBMAddress GovBlocks master address\r\n    function GovernanceDataInitiate(address _GBMAddress) \r\n    {\r\n        require(constructorCheck == false);\r\n            GBMAddress = _GBMAddress;\r\n            setGlobalParameters();\r\n            addStatus();\r\n            addMemberReputationPoints();\r\n            setVotingTypeDetails(\"Simple Voting\",null_address);\r\n            setVotingTypeDetails(\"Rank Based Voting\",null_address);\r\n            setVotingTypeDetails(\"Feature Weighted Voting\",null_address);\r\n            allVotes.push(proposalVote(0X00,new uint[](0),0));\r\n            uint _totalVotes = SafeMath.add(allVotesTotal,1);  \r\n            allVotesTotal=_totalVotes;\r\n            constructorCheck=true;\r\n    }\r\n\r\n    /// @dev Adds points to add or subtract in member reputation when proposal/Solution/vote gets denied or accepted\r\n    function addMemberReputationPoints() internal\r\n    {\r\n        addProposalOwnerPoints = 5;\r\n        addSolutionOwnerPoints = 5;\r\n        addMemberPoints = 1;\r\n        subProposalOwnerPoints = 1;\r\n        subSolutionOwnerPoints = 1;\r\n        subMemberPoints = 1;\r\n    }\r\n\r\n    /// @dev Changes points to add or subtract in member reputation when proposal/Solution/vote gets denied or accepted\r\n    /// @param _addProposalOwnerPoints Add proposal owner's points\r\n    /// @param _addSolutionOwnerPoints Add Solution owner's points\r\n    /// @param _addMemberPoints Add member points\r\n    /// @param _subProposalOwnerPoints Subtract proposal owner points\r\n    /// @param _subSolutionOwnerPoints Subtract Solution owner points\r\n    /// @param _subMemberPoints Subtract member points\r\n    function changeMemberReputationPoints(uint32 _addProposalOwnerPoints,uint32  _addSolutionOwnerPoints, uint32 _addMemberPoints,uint32 _subProposalOwnerPoints,uint32  _subSolutionOwnerPoints, uint32 _subMemberPoints) onlyOwner\r\n    {\r\n        addProposalOwnerPoints = _addProposalOwnerPoints;\r\n        addSolutionOwnerPoints= _addSolutionOwnerPoints;\r\n        addMemberPoints = _addMemberPoints;\r\n        subProposalOwnerPoints = _subProposalOwnerPoints;\r\n        subSolutionOwnerPoints= _subSolutionOwnerPoints;\r\n        subMemberPoints = _subMemberPoints;\r\n    }\r\n\r\n    /// @dev Adds status \r\n    function addStatus() internal\r\n    {\r\n        status.push(\"Draft for discussion\"); // 0\r\n        status.push(\"Draft Ready for submission\"); // 1\r\n        status.push(\"Voting started\");  // 2\r\n        status.push(\"Proposal Decision - Accepted by Majority Voting\");  // 3\r\n        status.push(\"Proposal Decision - Rejected by Majority voting\"); // 4\r\n        status.push(\"Proposal Accepted - Majority Voting not reached But Accepted by previous Voting\"); // 5\r\n        status.push(\"Proposal Denied, Threshold not reached\"); // 6\r\n        status.push(\"Proposal Accepted - Threshold not reached But Accepted by Previous Voting\");  // 7\r\n    }\r\n\r\n    /// @dev Sets global parameters that will help in distributing reward\r\n    function setGlobalParameters() internal\r\n    {\r\n        pendingProposalStart=0;\r\n        quorumPercentage=25;\r\n        GBTStakeValue=0;\r\n        globalRiskFactor=5;\r\n        membershipScalingFactor=1;\r\n        scalingWeight=1;\r\n        depositPercProposal=30;\r\n        depositPercSolution=30;\r\n        depositPercVote=40;\r\n    }\r\n    \r\n\r\n\r\n// VERSION 2.0 : Last Reward Distribution details.\r\n\r\n\r\n\r\n    /// @dev Sets last rewards for proposal\r\n    /// @param _memberAddress Member address\r\n    /// @param _proposalId Proposal id\r\n    function setLastRewardId_ofCreatedProposals(address _memberAddress,uint _proposalId) onlyInternal\r\n    {\r\n        lastRewardDetails[_memberAddress].lastReward_proposalId =_proposalId;\r\n    }\r\n\r\n    /// @dev Sets last reward for solution\r\n    /// @param _memberAddress Member address\r\n    /// @param _proposalId Proposal id\r\n    function setLastRewardId_ofSolutionProposals(address _memberAddress, uint _proposalId) onlyInternal\r\n    {\r\n        lastRewardDetails[_memberAddress].lastReward_solutionProposalId = _proposalId;\r\n    }\r\n\r\n    /// @dev Sets last reward for proposal vote\r\n    /// @param _memberAddress Member address\r\n    /// @param _voteId Vote id\r\n    function setLastRewardId_ofVotes(address _memberAddress,uint _voteId) onlyInternal\r\n    {\r\n        lastRewardDetails[_memberAddress].lastReward_voteId = _voteId;\r\n    }\r\n\r\n    /// @dev Gets reward for last created proposal of member\r\n    function getLastRewardId_ofCreatedProposals(address _memberAddress) constant returns(uint)\r\n    {\r\n        return lastRewardDetails[_memberAddress].lastReward_proposalId;\r\n    }\r\n\r\n    /// @dev Gets reward for last solution created by member\r\n    function getLastRewardId_ofSolutionProposals(address _memberAddress) constant returns(uint)\r\n    {\r\n        return lastRewardDetails[_memberAddress].lastReward_solutionProposalId;\r\n    }\r\n\r\n    /// @dev Gets proposal vote created by member\r\n    function getLastRewardId_ofVotes(address _memberAddress) constant returns(uint)\r\n    {\r\n        return lastRewardDetails[_memberAddress].lastReward_voteId;\r\n    }\r\n\r\n    /// @dev Gets id of last reward of a member address\r\n    function getAllidsOfLastReward(address _memberAddress)constant returns(uint lastRewardId_ofCreatedProposal,uint lastRewardid_ofSolution,uint lastRewardId_ofVote)\r\n    {\r\n        return (lastRewardDetails[_memberAddress].lastReward_proposalId,lastRewardDetails[_memberAddress].lastReward_solutionProposalId,lastRewardDetails[_memberAddress].lastReward_voteId);\r\n    }\r\n\r\n    /// @dev Sets deposit tokens out of the total tokens when given member address, proposal id\r\n    function setDepositTokens(address _memberAddress,uint _proposalId,bytes4 _typeOf,uint _depositAmount) onlyInternal\r\n    {\r\n        allMemberDepositTokens[_memberAddress][_proposalId][_typeOf].amount = _depositAmount;\r\n    }\r\n\r\n    /// @dev Gets deposited tokens from the total token when given member address, proposal id\r\n    function getDepositedTokens(address _memberAddress,uint _proposalId,bytes4 _typeOf) constant returns(uint) \r\n    {\r\n        return allMemberDepositTokens[_memberAddress][_proposalId][_typeOf].amount;\r\n    }\r\n\r\n    /// @dev Gets returned tokens to fetch if member has claimed the reward\r\n    function getReturnedTokensFlag(address _memberAddress,uint _proposalId,bytes4 _typeOf)constant returns(uint8)\r\n    {\r\n        return allMemberDepositTokens[_memberAddress][_proposalId][_typeOf].returned;\r\n    }\r\n\r\n    /// @dev Sets returned tokens in case the member has claimed the reward\r\n    function setReturnedTokensFlag(address _memberAddress,uint _proposalId,bytes4 _typeOf,uint8 _returnedIndex) onlyInternal\r\n    {\r\n        allMemberDepositTokens[_memberAddress][_proposalId][_typeOf].returned = _returnedIndex ;\r\n    }\r\n\r\n    /// @dev user can calim the tokens rewarded them till now.\r\n    function claimReward() public\r\n    {\r\n        uint rewardToClaim = GOV.calculateMemberReward(msg.sender);\r\n        if(rewardToClaim != 0)\r\n        { \r\n            GBTS.transfer_message(address(this),rewardToClaim,\"GBT Stake - Received\");\r\n            GBTS.transfer_message(msg.sender,rewardToClaim,\"GBT Stake claimed - Returned\");\r\n        }\r\n    }\r\n\r\n\r\n\r\n// VERSION 2.0 : VOTE DETAILS \r\n\r\n\r\n    /// @dev Sets vote id against member\r\n    /// @param _memberAddress Member address\r\n    /// @param _proposalId Proposal id\r\n    /// @param _voteId Vote id\r\n    function setVoteId_againstMember(address _memberAddress,uint _proposalId,uint _voteId) onlyInternal\r\n    {\r\n        AddressProposalVote[_memberAddress][_proposalId] = _voteId;\r\n    }\r\n\r\n    /// @dev Sets vote id against proposal role\r\n    /// @param _proposalId Proposal id\r\n    /// @param _roleId Role id\r\n    /// @param _voteId Vote id\r\n    function setVoteId_againstProposalRole(uint _proposalId,uint _roleId,uint _voteId) onlyInternal\r\n    {\r\n        ProposalRoleVote[_proposalId][_roleId].push(_voteId);\r\n    }\r\n\r\n    //// @dev Sets vote value for vote id=_voteId\r\n    function setVoteValue(uint _voteId,uint _voteValue) onlyInternal\r\n    {\r\n        allVotes[_voteId].voteValue = _voteValue;\r\n    }\r\n\r\n    /// @dev Sets all the voting type names and their addresses\r\n    function setVotingTypeDetails(bytes32 _votingTypeName,address _votingTypeAddress) internal\r\n    {\r\n        allVotingTypeDetails.push(votingTypeDetails(_votingTypeName,_votingTypeAddress)); \r\n    }\r\n\r\n    /// @dev Edits voting type of voting type id=_votingTypeId and voting type address=_votingTypeAddress\r\n    function editVotingTypeDetails(uint _votingTypeId,address _votingTypeAddress) onlyInternal\r\n    {\r\n        allVotingTypeDetails[_votingTypeId].votingTypeAddress = _votingTypeAddress;\r\n    }\r\n\r\n    /// @dev Gets vote details by id\r\n    /// @param _voteid Vote id\r\n    /// @return voter Voter address\r\n    /// @return solutionChosen Solution chosen\r\n    /// @return voteValue Vote value\r\n    function getVoteDetailById(uint _voteid) public constant returns(address voter,uint[] solutionChosen,uint voteValue)\r\n    {\r\n       return(allVotes[_voteid].voter,allVotes[_voteid].solutionChosen,allVotes[_voteid].voteValue);\r\n    }\r\n\r\n    /// @dev Gets vote id against member\r\n    /// @param _memberAddress Member address\r\n    /// @param _proposalId Proposal id\r\n    /// @return voteId Vote id\r\n    function getVoteId_againstMember(address _memberAddress,uint _proposalId) constant returns(uint voteId)\r\n    {\r\n        voteId = AddressProposalVote[_memberAddress][_proposalId];\r\n    }\r\n\r\n    /// @dev Gets voter address\r\n    /// @param _voteId Vote id\r\n    /// @return _voterAddress Voter address\r\n    function getVoterAddress(uint _voteId) constant returns(address _voterAddress)\r\n    {\r\n        return (allVotes[_voteId].voter);\r\n    }\r\n    \r\n    /// @dev Gets vote array against role\r\n    /// @param _proposalId Proposal id\r\n    /// @param _roleId Role id\r\n    /// @return totalVotes Total votes count\r\n    function getAllVoteIds_byProposalRole(uint _proposalId,uint _roleId) constant returns(uint[] totalVotes)\r\n    {\r\n        return ProposalRoleVote[_proposalId][_roleId];\r\n    }\r\n\r\n    /// @dev Gets vote length\r\n    /// @param _proposalId Proposal id\r\n    /// @param _roleId Role id\r\n    /// @return length Vote length\r\n    function getAllVoteIdsLength_byProposalRole(uint _proposalId,uint _roleId)constant returns(uint length)\r\n    {\r\n        return ProposalRoleVote[_proposalId][_roleId].length;\r\n    }\r\n    \r\n    /// @dev Gets vote id of proposal id=_proposalId against role id=_roleId and index=_index\r\n    /// @param _proposalId Proposal id\r\n    /// @param _roleId Role index\r\n    /// @param _index Index for the role \r\n    function getVoteId_againstProposalRole(uint _proposalId,uint _roleId,uint _index)constant returns(uint)\r\n    {\r\n        return (ProposalRoleVote[_proposalId][_roleId][_index]);\r\n    }\r\n\r\n    /// @dev Gets vote value for vote id=_voteId\r\n    /// @param _voteId Vote id\r\n    /// @return allVotes[_voteId].voteValue All votes value\r\n    function getVoteValue(uint _voteId)constant returns(uint)\r\n    {\r\n        return (allVotes[_voteId].voteValue);\r\n    }\r\n\r\n    /// @dev Gets voting type length\r\n    function getVotingTypeLength() public constant returns(uint) \r\n    {\r\n        return allVotingTypeDetails.length;\r\n    }\r\n\r\n    /// @dev Gets voting type details by voting type id=_votingTypeId\r\n    function getVotingTypeDetailsById(uint _votingTypeId) public constant returns(uint votingTypeId,bytes32 VTName,address VTAddress)\r\n    {\r\n        return (_votingTypeId,allVotingTypeDetails[_votingTypeId].votingTypeName,allVotingTypeDetails[_votingTypeId].votingTypeAddress);\r\n    }\r\n\r\n    /// @dev Gets voting type address by voting type id=_votingTypeId\r\n    function getVotingTypeAddress(uint _votingTypeId)constant returns (address votingAddress)\r\n    {\r\n        return (allVotingTypeDetails[_votingTypeId].votingTypeAddress);\r\n    }\r\n\r\n\r\n// VERSION 2.0 : SOLUTION DETAILS\r\n\r\n\r\n      \r\n    /// @dev Sets Solution chosen by vote id\r\n    /// @param _voteId Vote id\r\n    /// @param _value Solution chosen\r\n    function setSolutionChosen(uint _voteId,uint _value) onlyInternal\r\n    {\r\n        allVotes[_voteId].solutionChosen.push(_value);\r\n    }\r\n\r\n    function setSolutionAdded(uint _proposalId,address _memberAddress) onlyInternal\r\n    {\r\n        allProposalSolutions[_proposalId].push(_memberAddress);\r\n    }\r\n\r\n    /// @dev Gets Solution chosen by vote id\r\n    /// @param _voteId Vote id\r\n    /// @return solutionChosen Solution chosen\r\n    function getSolutionByVoteId(uint _voteId) constant returns(uint[] solutionChosen)\r\n    {\r\n        return (allVotes[_voteId].solutionChosen);\r\n    }\r\n  \r\n    /// @dev Gets Solution chosen on vote id= _voteId\r\n    /// @param _voteId Vote id\r\n    /// @param _solutionChosenId Solution chosen id\r\n    /// @return solution Solution \r\n    function getSolutionByVoteIdAndIndex(uint _voteId,uint _solutionChosenId)constant returns(uint solution)\r\n    {\r\n        return (allVotes[_voteId].solutionChosen[_solutionChosenId]);\r\n    }\r\n\r\n    /// @dev Gets the address of member whosoever added the verdict when given proposal id and verdict index.\r\n    function getSolutionAddedByProposalId(uint _proposalId,uint _Index) constant returns(address memberAddress)\r\n    {\r\n        return allProposalSolutions[_proposalId][_Index];\r\n    }\r\n\r\n    \r\n\r\n// VERSION 2.0 : Configurable parameters.\r\n\r\n\r\n    /// @dev Changes risk factor that helps in calculation of reward distribution\r\n    function changeGlobalRiskFactor(uint _riskFactor) onlyGBM\r\n    {\r\n        globalRiskFactor = _riskFactor;\r\n    }\r\n\r\n    /// @dev Changes stake value that helps in calculation of reward distribution\r\n    function changeGBTStakeValue(uint _GBTStakeValue) onlyGBM \r\n    {\r\n        GBTStakeValue = _GBTStakeValue;\r\n    }\r\n\r\n    /// @dev Changes member scaling factor that helps in calculation of reward distribution\r\n    function changeMembershipScalingFator(uint _membershipScalingFactor) onlyGBM\r\n    {\r\n        membershipScalingFactor = _membershipScalingFactor;\r\n    }\r\n    \r\n    /// @dev Changes scaling weight that helps in calculation of reward distribution\r\n    function changeScalingWeight(uint _scalingWeight)  onlyGBM \r\n    {\r\n        scalingWeight = _scalingWeight;\r\n    }\r\n\r\n    /// @dev Changes quoram percentage. Value required to pass proposal.\r\n    function changeQuorumPercentage(uint _quorumPercentage) onlyGBM\r\n    {\r\n        quorumPercentage = _quorumPercentage;\r\n    }\r\n\r\n     /// @dev Gets reputation points to proceed with updating the member reputation level\r\n    function getMemberReputationPoints() constant returns(uint32 addProposalOwnPoints,uint32 addSolutionOwnerPoints,uint32 addMemPoints,uint32 subProposalOwnPoints,uint32 subSolutionOwnPoints,uint32 subMemPoints)\r\n    {\r\n        return (addProposalOwnerPoints,addSolutionOwnerPoints,addMemberPoints,subProposalOwnerPoints,subSolutionOwnerPoints,subMemberPoints);\r\n    } \r\n\r\n    /// @dev Changes proposal owner reputation points\r\n    function changeProposalOwnerAdd(uint32 _repPoints) onlyGBM\r\n    {\r\n        addProposalOwnerPoints = _repPoints;\r\n    }\r\n\r\n    /// @dev Adds proposal owner reputation points    \r\n    function changeSolutionOwnerAdd(uint32 _repPoints) onlyGBM\r\n    {\r\n        addSolutionOwnerPoints = _repPoints;\r\n    }\r\n\r\n    /// @dev Subtracts proposal owner reputation points    \r\n    function changeProposalOwnerSub(uint32 _repPoints) onlyGBM\r\n    {\r\n        subProposalOwnerPoints = _repPoints;\r\n    } \r\n    \r\n    /// @dev Subtracts solution owner reputation points    \r\n    function changeSolutionOwnerSub(uint32 _repPoints) onlyGBM\r\n    {\r\n        subSolutionOwnerPoints = _repPoints;\r\n    }\r\n\r\n    /// @dev Adds member points\r\n    function changeMemberAdd(uint32 _repPoints) onlyGBM\r\n    {\r\n        addMemberPoints = _repPoints;\r\n    }  \r\n\r\n    /// @dev Subtracts member points\r\n    function changeMemberSub(uint32 _repPoints) onlyGBM\r\n    {\r\n        subMemberPoints = _repPoints;\r\n    }  \r\n\r\n\r\n\r\n// VERSION 2.0 // PROPOSAL DETAILS\r\n\r\n\r\n\r\n    /// @dev Sets proposal category for proposal id=_proposalId\r\n    function setProposalCategory(uint _proposalId,uint8 _categoryId) onlyInternal\r\n    {\r\n        allProposalData[_proposalId].category = _categoryId;\r\n    }\r\n\r\n    /// @dev Updates status of an existing proposal(id = _id)\r\n    function updateProposalStatus(uint _id ,uint8 _status)  internal \r\n    {\r\n        allProposalData[_id].propStatus = _status;\r\n        allProposal[_id].date_upd = now;\r\n    }\r\n    \r\n    /// @dev Sets proposal incentive/reward for proposal id=_proposalId\r\n    function setProposalIncentive(uint _proposalId,uint _reward) onlyInternal\r\n    {\r\n        allProposalData[_proposalId].commonIncentive = _reward;  \r\n    }\r\n    \r\n    /// @dev Changes the status of a given proposal.\r\n    function changeProposalStatus(uint _id,uint8 _status) onlyInternal\r\n    {\r\n        require(allProposalData[_id].category != 0);\r\n        ProposalStatus(_id,_status,now);\r\n        updateProposalStatus(_id,_status);\r\n    }\r\n    \r\n    /// @dev Sets proposal current voting id\r\n    function setProposalCurrentVotingId(uint _proposalId,uint8 _currVotingStatus) onlyInternal\r\n    {\r\n        allProposalData[_proposalId].currVotingStatus = _currVotingStatus;\r\n    }\r\n\r\n    /// @dev Updates proposal's major details\r\n    function setProposalIntermediateVerdict(uint _proposalId,uint8 _intermediateVerdict) onlyInternal \r\n    {\r\n        allProposalData[_proposalId].currentVerdict = _intermediateVerdict;\r\n    }\r\n\r\n    /// @dev Sets proposal's final verdict\r\n    function setProposalFinalVerdict(uint _proposalId,uint8 _finalVerdict) onlyInternal\r\n    {\r\n        allProposalData[_proposalId].finalVerdict = _finalVerdict;\r\n    }\r\n\r\n    /// @dev Sets member reputation \r\n    function setMemberReputation(string _description,uint _proposalId,address _memberAddress,uint32 _repPoints,uint32 _repPointsEventLog,bytes4 _typeOf) onlyInternal\r\n    {\r\n        allMemberReputationByAddress[_memberAddress] = _repPoints;\r\n        Reputation(_memberAddress, _proposalId, _description,_repPointsEventLog,_typeOf);\r\n    }\r\n\r\n    /// @dev Stores the information of version number of a given proposal. Maintains the record of all the versions of a proposal.\r\n    function storeProposalVersion(uint _proposalId,string _proposalDescHash) onlyInternal \r\n    {\r\n        uint8 versionNo = allProposalData[_proposalId].versionNumber + 1;\r\n        ProposalVersion(_proposalId,versionNo,_proposalDescHash,now);\r\n        setProposalVersion(_proposalId,versionNo);\r\n    }\r\n\r\n    /// @dev Sets proposal description \r\n    function setProposalDetailsAfterEdit(uint _proposalId,string _proposalDescHash) onlyInternal\r\n    {\r\n        Proposal(allProposal[_proposalId].owner,_proposalId,now,_proposalDescHash);   \r\n    }\r\n\r\n    /// @dev Sets proposal's uploaded date\r\n    function setProposalDateUpd(uint _proposalId) onlyInternal\r\n    {\r\n        allProposal[_proposalId].date_upd = now;\r\n    }\r\n\r\n    /// @dev Sets proposal's version\r\n    function setProposalVersion(uint _proposalId,uint8 _versionNum) internal\r\n    {\r\n        allProposalData[_proposalId].versionNumber = _versionNum;\r\n    }\r\n\r\n    /// @dev Fetch details of proposal by giving proposal Id\r\n    function getProposalDetailsById1(uint _proposalId) public constant returns (uint id,address owner,uint date_upd,uint8 versionNum,uint8 propStatus)\r\n    {\r\n        return (_proposalId,allProposal[_proposalId].owner,allProposal[_proposalId].date_upd,allProposalData[_proposalId].versionNumber,allProposalData[_proposalId].propStatus);\r\n    }\r\n\r\n    /// @dev Get the category of given proposal. \r\n    function getProposalDetailsById2(uint _proposalId) public constant returns(uint id,uint8 category,uint8 currentVotingId,uint8 intermediateVerdict,uint8 finalVerdict,address votingTypeAddress,uint totalSolutions) \r\n    {\r\n        return (_proposalId,allProposalData[_proposalId].category,allProposalData[_proposalId].currVotingStatus,allProposalData[_proposalId].currentVerdict,allProposalData[_proposalId].finalVerdict,allProposal[_proposalId].votingTypeAddress,allProposalSolutions[_proposalId].length); \r\n    }\r\n\r\n    /// @dev Gets proposal details of given proposal id\r\n    function getProposalDetailsById3(uint _proposalId) constant returns(uint proposalIndex,string propStatus,uint8 propCategory,uint8 propStatusId,uint8 finalVerdict)\r\n    {\r\n        return (_proposalId,status[allProposalData[_proposalId].propStatus],allProposalData[_proposalId].category,allProposalData[_proposalId].propStatus,allProposalData[_proposalId].finalVerdict);\r\n    }\r\n\r\n    /// @dev Gets proposal details of given proposal id\r\n    function getProposalDetailsById4(uint _proposalId)constant returns(uint totalTokenToDistribute,uint totalVoteValue)\r\n    {\r\n        return(allProposalData[_proposalId].totalreward,allProposalData[_proposalId].totalVoteValue);\r\n    }\r\n\r\n    /// @dev Gets proposal details of given proposal id\r\n    function getProposalDetailsById5(uint _proposalId)public constant returns(uint proposalStatus,uint finalVerdict)\r\n    {\r\n        return (allProposalData[_proposalId].propStatus,allProposalData[_proposalId].finalVerdict);\r\n    }\r\n\r\n    /// @dev Gets date when proposal is updated\r\n    function getProposalDateUpd(uint _proposalId)constant returns(uint)\r\n    {\r\n        return allProposal[_proposalId].date_upd;\r\n    }\r\n\r\n    /// @dev Gets member address who created the proposal\r\n    function getProposalOwner(uint _proposalId) public constant returns(address)\r\n    {\r\n        return allProposal[_proposalId].owner;\r\n    }\r\n\r\n    /// @dev Gets proposal incentive\r\n    function getProposalIncentive(uint _proposalId)constant returns(uint commonIncentive)\r\n    {\r\n        return allProposalData[_proposalId].commonIncentive;\r\n    }\r\n\r\n    /// @dev Gets proposal current voting id\r\n    function getProposalCurrentVotingId(uint _proposalId)constant returns(uint8 _currVotingStatus)\r\n    {\r\n        return (allProposalData[_proposalId].currVotingStatus);\r\n    }\r\n    \r\n     function getProposalTotalReward(uint _proposalId)constant returns(uint)\r\n    {\r\n        return allProposalData[_proposalId].totalreward;\r\n    }\r\n\r\n    /// @dev Get Total number of Solutions against proposal.\r\n    function getTotalSolutions(uint _proposalId) constant returns(uint)\r\n    {\r\n        return allProposalSolutions[_proposalId].length;\r\n    }\r\n\r\n    /// @dev Get Current Status of proposal when given proposal Id\r\n    function getProposalStatus(uint _proposalId) constant returns (uint propStatus)\r\n    {\r\n        return allProposalData[_proposalId].propStatus;\r\n    }\r\n\r\n    /// @dev Gets proposal voting type when given proposal id\r\n    function getProposalVotingType(uint _proposalId)constant returns(address)\r\n    {\r\n        return (allProposal[_proposalId].votingTypeAddress);\r\n    }\r\n\r\n    /// @dev Gets proposal category when given proposal id\r\n    function getProposalCategory(uint _proposalId) constant returns(uint8 categoryId)\r\n    {\r\n        return allProposalData[_proposalId].category;\r\n    }\r\n\r\n    /// @dev If member's decision is final decision, member's reputation is set accordingly\r\n    function getMemberReputation(address _memberAddress) constant returns(uint32 memberPoints)\r\n    {\r\n        if(allMemberReputationByAddress[_memberAddress] == 0)\r\n            memberPoints = 1;\r\n        else\r\n            memberPoints = allMemberReputationByAddress[_memberAddress];\r\n    }\r\n\r\n    /// @dev Gets total vote values when given proposal id\r\n    function getProposalTotalVoteValue(uint _proposalId) constant returns(uint voteValue)\r\n    {\r\n        voteValue = allProposalData[_proposalId].totalVoteValue;\r\n    }\r\n\r\n    /// @dev Gets all proposals length\r\n    function getProposalLength()constant returns(uint)\r\n    {  \r\n        return (allProposal.length);\r\n    }  \r\n\r\n    /// @dev Get Latest updated version of proposal.\r\n    function getProposalVersion(uint _proposalId,uint8 _versionNum)constant returns(uint)\r\n    {\r\n        return allProposalData[_proposalId].versionNumber;\r\n    }\r\n\r\n    /// @dev Sets proposal's total vote value of a proposal id\r\n    function setProposalTotalVoteValue(uint _proposalId,uint _voteValue) onlyInternal\r\n    {\r\n        allProposalData[_proposalId].totalVoteValue = _voteValue;\r\n    }\r\n    \r\n    /// @dev Sets proposal's total token to distribute\r\n    function setProposalTotalReward(uint _proposalId,uint _totalreward) onlyInternal\r\n    {\r\n        allProposalData[_proposalId].totalreward = _totalreward;\r\n    }\r\n\r\n\r\n    /// @dev Changes status from pending proposal to start proposal\r\n    function changePendingProposalStart(uint _value) onlyInternal\r\n    {\r\n        pendingProposalStart = _value;\r\n    }\r\n\r\n    /// @dev Adds new proposal\r\n    function addNewProposal(uint _proposalId,address _memberAddress,string _proposalDescHash,uint8 _categoryId,address _votingTypeAddress,uint _dateAdd) onlyInternal\r\n    {\r\n        allProposalData[_proposalId].category = _categoryId;\r\n        createProposal1(_proposalId,_memberAddress,_proposalDescHash,_votingTypeAddress,_dateAdd);\r\n    }  \r\n    \r\n    /// @dev Creates new proposal\r\n    function createProposal1(uint _proposalId,address _memberAddress,string _proposalDescHash,address _votingTypeAddress,uint _dateAdd) onlyInternal\r\n    {\r\n        allProposal.push(proposal(_memberAddress,_dateAdd,_votingTypeAddress));\r\n        Proposal(_memberAddress,_proposalId,_dateAdd,_proposalDescHash);\r\n    }\r\n\r\n    /// @dev Gets final solution index won after majority voting.\r\n    function getProposalFinalVerdict(uint _proposalId) constant returns(uint finalSolutionIndex)\r\n    {\r\n        finalSolutionIndex = allProposalData[_proposalId].finalVerdict;\r\n    }\r\n\r\n    /// @dev Gets Intermidiate solution index;\r\n    function getProposalIntermediateVerdict(uint _proposalId) constant returns(uint8)\r\n    {\r\n        return allProposalData[_proposalId].currentVerdict;\r\n    }\r\n\r\n    function changeTokenHoldingTime(uint _time) onlyOwner\r\n    {\r\n       tokenHoldingTime = _time;\r\n    }\r\n\r\n    /// @dev Get total deposit tokens against member and proposal Id with type of (proposal/solution/vote); \r\n    function getDepositTokens_byAddressProposal(address _memberAddress,uint _proposalId)constant returns(uint,uint depositFor_creatingProposal,uint depositFor_proposingSolution,uint depositFor_castingVote)\r\n    {\r\n        return (_proposalId,getDepositedTokens(_memberAddress,_proposalId,\"P\"),getDepositedTokens(_memberAddress,_proposalId,\"S\"),getDepositedTokens(_memberAddress,_proposalId,\"V\"));\r\n    }\r\n\r\n\r\n// UPDATED CONTRACTS :\r\n\r\n\r\n\r\n\r\n    // /// @dev Get Array of All vote id's against a given proposal when given _proposalId.\r\n    // function getVoteArrayById(uint _proposalId) constant returns(uint id,uint[] totalVotes)\r\n    // {\r\n    //     return (_proposalId,allProposalVotes[_proposalId]);\r\n    // }\r\n\r\n    // /// @dev Get Vote id one by one against a proposal when given proposal Id and Index to traverse vote array.\r\n    // function getVoteIdById(uint _proposalId,uint _voteArrayIndex) constant returns (uint voteId)\r\n    // {\r\n    //     return (allProposalVotes[_proposalId][_voteArrayIndex]);\r\n    // }\r\n\r\n    // function setProposalAnsByAddress(uint _proposalId,address _memberAddress) onlyInternal\r\n    // {\r\n    //     allProposalOption[_memberAddress].push(_proposalId); \r\n    // }\r\n\r\n    // function getProposalAnsLength(address _memberAddress)constant returns(uint)\r\n    // {\r\n    //     return (allProposalOption[_memberAddress].length);\r\n    // }\r\n\r\n    // function getProposalAnsId(address _memberAddress, uint _optionArrayIndex)constant returns (uint) // return proposId to which option added.   {\r\n    // {\r\n    //     return (allProposalOption[_memberAddress][_optionArrayIndex]);\r\n    // }\r\n\r\n    // function getOptionIdAgainstProposalByAddress(address _memberAddress,uint _optionArrayIndex)constant returns(uint proposalId,uint optionId,uint proposalStatus,uint finalVerdict)\r\n    // {\r\n    //     proposalId = allProposalOption[_memberAddress][_optionArrayIndex];\r\n    //     optionId = allOptionDataAgainstMember[_memberAddress][proposalId];\r\n    //     proposalStatus = allProposal[proposalId].propStatus;\r\n    //     finalVerdict = allProposal[proposalId].finalVerdict;\r\n    // }\r\n\r\n    /// @dev Set the Deatils of added verdict i.e. Verdict Stake, Verdict value and Address of the member whoever added the verdict.\r\n    // function setOptionIdByAddress(uint _proposalId,address _memberAddress) onlyInternal\r\n    // {\r\n    //     allOptionDataAgainstMember[_memberAddress][_proposalId] = getTotalVerdictOptions(_proposalId);\r\n    // }\r\n\r\n    // function getOptionIdByAddress(uint _proposalId,address _memberAddress) constant returns(uint optionIndex)\r\n    // {\r\n    //     return (allOptionDataAgainstMember[_memberAddress][_proposalId]);\r\n    // }\r\n\r\n    // function setOptionAddress(uint _proposalId,address _memberAddress) onlyInternal\r\n    // {\r\n    //     allProposalCategory[_proposalId].optionAddedByAddress.push(_memberAddress);\r\n    // }\r\n\r\n    // function setOptionValue(uint _proposalId,uint _optionValue) onlyInternal\r\n    // {\r\n    //     allProposalCategory[_proposalId].valueOfOption.push(_optionValue);\r\n    // }\r\n\r\n    // function setOptionHash(uint _proposalId,string _optionHash) onlyInternal\r\n    // {\r\n    //     allProposalCategory[_proposalId].optionHash.push(_optionHash);\r\n    // }\r\n\r\n    // function setOptionDateAdded(uint _proposalId,uint _dateAdd) onlyInternal\r\n    // {\r\n    //     allProposalCategory[_proposalId].optionDateAdd.push(_dateAdd);\r\n    // }\r\n\r\n    // function getOptionDateAdded(uint _proposalId,uint _optionIndex)constant returns(uint)\r\n    // {\r\n    //     return (allProposalCategory[_proposalId].optionDateAdd[_optionIndex]);\r\n    // }\r\n\r\n    // function setProposalValue(uint _proposalId,uint _proposalValue) onlyInternal\r\n    // {\r\n    //     allProposal[_proposalId].proposalValue = _proposalValue;\r\n    // }\r\n\r\n    // /// @dev Stores the status information of a given proposal.\r\n    // function pushInProposalStatus(uint _proposalId , uint8 _status) onlyInternal\r\n    // {\r\n    //     ProposalStatus(_proposalId,_status,now);\r\n    //     // proposalStatus[_proposalId].push(Status(_status,now));\r\n    // }\r\n\r\n    // function setInitialOptionsAdded(uint _proposalId) onlyInternal\r\n    // {\r\n    //     require (initialOptionsAdded[_proposalId] == 0);\r\n    //         initialOptionsAdded[_proposalId] = 1;\r\n    // }\r\n\r\n    // function getInitialOptionsAdded(uint _proposalId) constant returns (uint)\r\n    // {\r\n    //     if(initialOptionsAdded[_proposalId] == 1)\r\n    //         return 1;\r\n    // }\r\n\r\n    // function setTotalOptions(uint _proposalId) onlyInternal\r\n    // {\r\n    //     allProposalCategory[_proposalId].verdictOptions = allProposalCategory[_proposalId].verdictOptions +1;\r\n    // }\r\n\r\n    // function setCategorizedBy(uint _proposalId,address _memberAddress) onlyInternal\r\n    // {\r\n    //     allProposalCategory[_proposalId].categorizedBy = _memberAddress;\r\n    // }\r\n\r\n    // function setProposalLevel(uint _proposalId,uint8 _proposalComplexityLevel) onlyInternal\r\n    // {\r\n    //      allProposal[_proposalId].complexityLevel = _proposalComplexityLevel;\r\n    // }\r\n\r\n    // /// @dev Get proposal Value when given proposal Id.\r\n    // function getProposalValue(uint _proposalId) constant  returns(uint proposalValue) \r\n    // {\r\n    //     proposalValue = allProposal[_proposalId].proposalValue;\r\n    // }\r\n\r\n    // /// @dev Get proposal Stake by member when given proposal Id.\r\n    // function getProposalStake(uint _proposalId) constant returns(uint proposalStake)\r\n    // {\r\n    //     proposalStake = allProposal[_proposalId].proposalStake;\r\n    // }\r\n\r\n    /// @dev Fetch Total length of Member address array That added number of verdicts against proposal.\r\n    // function getOptionAddedAddressLength(uint _proposalId) constant returns(uint length)\r\n    // {\r\n    //     return  allProposalCategory[_proposalId].optionAddedByAddress.length;\r\n    // }\r\n\r\n    // function getOptionHashByProposalId(uint _proposalId,uint _optionIndex) constant returns(string)\r\n    // {\r\n    //     return allProposalCategory[_proposalId].optionHash[_optionIndex];\r\n    // }\r\n\r\n    // /// @dev Get the Stake of verdict when given Proposal Id and Verdict index.\r\n    // function getOptionStakeById(uint _proposalId,uint _optionIndex) constant returns(uint optionStake)\r\n    // {\r\n    //     optionStake = allProposalCategory[_proposalId].stakeOnOption[_optionIndex];\r\n    // }\r\n\r\n    /// @dev Get the value of verdict when given Proposal Id and Verdict Index.\r\n    // function getOptionValueByProposalId(uint _proposalId,uint _optionIndex) constant returns(uint optionValue)\r\n    // {\r\n    //     optionValue = allProposalCategory[_proposalId].valueOfOption[_optionIndex];\r\n    // }\r\n\r\n    // function addInTotalVotes(address _memberAddress,uint _voteId)\r\n    // {\r\n    //     allMemberVotes[_memberAddress].push(_voteId);\r\n    // }\r\n\r\n    // function getVoteArrayByAddress(address _memberAddress) constant returns(uint[] totalVoteArray)\r\n    // {\r\n    //     return (allMemberVotes[_memberAddress]);\r\n    // }\r\n\r\n    // function getVoteIdByIndex(address _memberAddress,uint _index)constant returns(uint)\r\n    // {\r\n    //     return getVoteArrayByAddress[_memberAddress].length;\r\n    // }\r\n\r\n    // function addTotalProposal(uint _proposalId,address _memberAddress) onlyInternal\r\n    // {\r\n    //     allProposalMember[_memberAddress].push(_proposalId);\r\n    // }\r\n\r\n    // function getTotalProposal(address _memberAddress) constant returns(uint)\r\n    // {\r\n    //     return allProposalMember[_memberAddress].length;\r\n    // }\r\n\r\n    // function getProposalIdByAddress(address _memberAddress,uint _index)constant returns(uint)\r\n    // {\r\n    //     return (allProposalMember[_memberAddress][_index]);\r\n    // }\r\n\r\n    // function getProposalDetailsByAddress(address _memberAddress,uint _index)constant returns(uint proposalId,uint categoryId,uint finalVerdict,uint propStatus)\r\n    // {\r\n    //     proposalId = allProposalMember[_memberAddress][_index];\r\n    //     categoryId = allProposal[proposalId].category;\r\n    //     finalVerdict = allProposal[proposalId].finalVerdict;\r\n    //     proposalStatus = allProposal[proposalId].propStatus;\r\n    // }\r\n\r\n    // function getProposalTotalReward(uint _proposalId)constant returns(uint)\r\n    // {\r\n    //     return allProposal[_proposalId].totalreward;\r\n    // }\r\n\r\n    // function setProposalBlockNo(uint _proposalId,uint _blockNumber) onlyInternal\r\n    // {\r\n    //     allProposal[_proposalId].blocknumber = _blockNumber;\r\n    // }\r\n\r\n    // function setOptionReward(uint _proposalId,uint _reward,uint _optionIndex) onlyInternal\r\n    // {\r\n    //     allProposalCategory[_proposalId].rewardOption[_optionIndex] = _reward;\r\n    // }\r\n\r\n    // function getOptionReward(uint _proposalId,uint _optionIndex)constant returns(uint)\r\n    // {\r\n    //     return (allProposalCategory[_proposalId].rewardOption[_optionIndex]);\r\n    // }\r\n\r\n\r\n\r\n    // function getProposalVoteValueById(uint _proposalId) constant returns(uint propStake,uint voteValue)\r\n    // {\r\n    //     return(allProposal[_proposalId].proposalStake,allProposal[_proposalId].totalVoteValue);\r\n    // }\r\n\r\n    // function getProposalDescHash(uint _proposalId)constant returns(string)\r\n    // {\r\n    //     return (allProposal[_proposalId].proposalDescHash);\r\n    // }  \r\n    \r\n    /// @dev Set Vote Id against given proposal.\r\n    // function setVoteIdAgainstProposal(uint _proposalId,uint _voteId) onlyInternal\r\n    // {\r\n    //     allProposalVotes[_proposalId].push(_voteId);\r\n    // }\r\n\r\n    // function getVoteValuebyOption_againstProposal(uint _proposalId,uint _roleId,uint _optionIndex) constant returns(uint totalVoteValue)\r\n    // {\r\n    //     totalVoteValue = allProposalVoteAndToken[_proposalId].totalVoteCountValue[_roleId][_optionIndex];\r\n    // }\r\n\r\n    // function setProposalVoteCount(uint _proposalId,uint _roleId,uint _option,uint _finalVoteValue) onlyInternal\r\n    // {\r\n    //     allProposalVoteAndToken[_proposalId].totalVoteCountValue[_roleId][_option] = SafeMath.add(allProposalVoteAndToken[_proposalId].totalVoteCountValue[_roleId][_option],_finalVoteValue);\r\n    // }\r\n\r\n    // function setProposalTokenCount(uint _proposalId,uint _roleId,address _memberAddress) onlyInternal\r\n    // {\r\n    //     GBTS=GBTStandardToken(GBTSAddress);\r\n    //     allProposalVoteAndToken[_proposalId].totalTokenCount[_roleId] = SafeMath.add(allProposalVoteAndToken[_proposalId].totalTokenCount[_roleId],GBTS.balanceOf(_memberAddress));\r\n    // }\r\n \r\n    // function editProposalVoteCount(uint _proposalId,uint _roleId,uint _option,uint _VoteValue) onlyInternal\r\n    // {\r\n    //     allProposalVoteAndToken[_proposalId].totalVoteCountValue[_roleId][_option] = SafeMath.sub(allProposalVoteAndToken[_proposalId].totalVoteCountValue[_roleId][_option],_VoteValue);\r\n    // }\r\n\r\n    // function editProposalTokenCount(uint _proposalId,uint _roleId,address _memberAddress) onlyInternal\r\n    // {\r\n    //     GBTS=GBTStandardToken(GBTSAddress);\r\n    //     allProposalVoteAndToken[_proposalId].totalTokenCount[_roleId] = SafeMath.sub(allProposalVoteAndToken[_proposalId].totalTokenCount[_roleId],GBTS.balanceOf(_memberAddress));\r\n    // }\r\n\r\n    // /// @dev Get the vote count for options of proposal when giving Proposal id and Option index.\r\n    // function getProposalVoteAndTokenCountByRoleId(uint _proposalId,uint _roleId,uint _optionIndex) public constant returns(uint totalVoteValue,uint totalToken)\r\n    // {\r\n    //     totalVoteValue = allProposalVoteAndToken[_proposalId].totalVoteCountValue[_roleId][_optionIndex];\r\n    //     totalToken = allProposalVoteAndToken[_proposalId].totalTokenCount[_roleId];\r\n    // }\r\n\r\n    // // mapping(uint => proposalVoteAndTokenCount) allProposalVoteAndToken;\r\n    // // mapping(uint=>uint8) initialOptionsAdded; // get Option details by +1 as first option is always the deny one..\r\n    // // mapping(uint=>uint[]) allProposalVotes; // CAN OPTIMIZE THIS // Total votes againt proposal . can get this by ProposalRoleVote\r\n    \r\n    // mapping(address=>uint[]) allProposalMember; // Proposal Against Member // can get from AddressProposalVote. \r\n    // mapping(address=>uint[]) allProposalOption; // Total Proposals against Member, array contains proposalIds to which solution being provided\r\n    // mapping(address=>uint[]) allMemberVotes; // Total Votes given by member till now..\r\n    // mapping(address=>mapping(uint=>uint)) allOptionDataAgainstMember; // AddressProposalOptionId // Replaced functions using this mapping;\r\n \r\n    // struct proposalVoteAndTokenCount \r\n    // {\r\n    //     mapping(uint=>mapping(uint=>uint)) totalVoteCountValue; // PROPOSAL ROLE OPTION VOTEVALUE\r\n    //     mapping(uint=>uint) totalTokenCount;  // PROPOSAL ROLE TOKEN\r\n    // }\r\n\r\n    // struct proposalCategory\r\n    // {\r\n        // address categorizedBy;\r\n        // uint8 verdictOptions;\r\n        // address[] optionAddedByAddress;\r\n        // uint[] valueOfOption;\r\n        // uint[] stakeOnOption;\r\n        // string[] optionHash;\r\n        // uint[] optionDateAdd;\r\n        // mapping(uint=>uint) rewardOption;\r\n    // }\r\n\r\n    // struct proposalVersionData\r\n    // {\r\n    //     uint versionNum;\r\n    //     string proposalDescHash;\r\n    //     uint date_add;\r\n    // }\r\n\r\n    // struct Status\r\n    // {\r\n    //     uint statusId;\r\n    //     uint date;\r\n    // }\r\n\r\n}  \r\n\r\n \r\n\r\n",
  "sourcePath": "D:\\RUCHITA\\GovBlocks-Protocol Access-Modifiers\\contracts\\governanceData.sol",
  "compiler": {
    "name": "solc",
    "version": "0.4.18+commit.9cf6e910.Emscripten.clang"
  },
  "schemaVersion": "1.0.1",
  "updatedAt": "2018-04-26T12:00:44.249Z"
}