{
  "contractName": "Governance",
  "abi": [
    {
      "constant": false,
      "inputs": [
        {
          "name": "_proposalId",
          "type": "uint256"
        },
        {
          "name": "_solutionHash",
          "type": "string"
        },
        {
          "name": "_v",
          "type": "uint8"
        },
        {
          "name": "_r",
          "type": "bytes32"
        },
        {
          "name": "_s",
          "type": "bytes32"
        }
      ],
      "name": "submitProposalWithSolution_inEther",
      "outputs": [],
      "payable": true,
      "stateMutability": "payable",
      "type": "function"
    },
    {
      "constant": true,
      "inputs": [
        {
          "name": "_memberAddress",
          "type": "address"
        }
      ],
      "name": "getAllProposalIdsLength_byAddress",
      "outputs": [
        {
          "name": "totalProposalCount",
          "type": "uint256"
        }
      ],
      "payable": false,
      "stateMutability": "view",
      "type": "function"
    },
    {
      "constant": true,
      "inputs": [
        {
          "name": "_proposalId",
          "type": "uint256"
        }
      ],
      "name": "getAllVoteIdsLength_byProposal",
      "outputs": [
        {
          "name": "totalVotes",
          "type": "uint256"
        }
      ],
      "payable": false,
      "stateMutability": "view",
      "type": "function"
    },
    {
      "constant": false,
      "inputs": [
        {
          "name": "_proposalId",
          "type": "uint256"
        },
        {
          "name": "_categoryId",
          "type": "uint256"
        },
        {
          "name": "_proposalStake",
          "type": "uint256"
        },
        {
          "name": "_v",
          "type": "uint8"
        },
        {
          "name": "_r",
          "type": "bytes32"
        },
        {
          "name": "_s",
          "type": "bytes32"
        }
      ],
      "name": "openProposalForVoting",
      "outputs": [],
      "payable": false,
      "stateMutability": "nonpayable",
      "type": "function"
    },
    {
      "constant": true,
      "inputs": [
        {
          "name": "_memberAddress",
          "type": "address"
        }
      ],
      "name": "getAllProposalIds_byAddress",
      "outputs": [
        {
          "name": "totalProposalCreated",
          "type": "uint256[]"
        }
      ],
      "payable": false,
      "stateMutability": "view",
      "type": "function"
    },
    {
      "constant": false,
      "inputs": [
        {
          "name": "_proposalId",
          "type": "uint256"
        },
        {
          "name": "_categoryId",
          "type": "uint256"
        },
        {
          "name": "_v",
          "type": "uint8"
        },
        {
          "name": "_r",
          "type": "bytes32"
        },
        {
          "name": "_s",
          "type": "bytes32"
        }
      ],
      "name": "openProposalForVoting_inEther",
      "outputs": [],
      "payable": true,
      "stateMutability": "payable",
      "type": "function"
    },
    {
      "constant": false,
      "inputs": [
        {
          "name": "_proposalId",
          "type": "uint256"
        },
        {
          "name": "_categoryId",
          "type": "uint8"
        },
        {
          "name": "_dappIncentive",
          "type": "uint256"
        }
      ],
      "name": "categorizeProposal",
      "outputs": [],
      "payable": false,
      "stateMutability": "nonpayable",
      "type": "function"
    },
    {
      "constant": true,
      "inputs": [
        {
          "name": "_proposalId",
          "type": "uint256"
        },
        {
          "name": "_roleId",
          "type": "uint32"
        }
      ],
      "name": "checkProposalVoteClosing",
      "outputs": [
        {
          "name": "closeValue",
          "type": "uint8"
        }
      ],
      "payable": false,
      "stateMutability": "view",
      "type": "function"
    },
    {
      "constant": true,
      "inputs": [
        {
          "name": "_memberAddress",
          "type": "address"
        }
      ],
      "name": "getAllSolutionIdsLength_byAddress",
      "outputs": [
        {
          "name": "totalSolutionProposalCount",
          "type": "uint256"
        }
      ],
      "payable": false,
      "stateMutability": "view",
      "type": "function"
    },
    {
      "constant": true,
      "inputs": [
        {
          "name": "_memberAddress",
          "type": "address"
        }
      ],
      "name": "getAllDepositTokens_byAddress",
      "outputs": [
        {
          "name": "",
          "type": "uint256"
        },
        {
          "name": "",
          "type": "uint256"
        },
        {
          "name": "",
          "type": "uint256"
        }
      ],
      "payable": false,
      "stateMutability": "view",
      "type": "function"
    },
    {
      "constant": true,
      "inputs": [
        {
          "name": "_proposalsIds",
          "type": "uint256[]"
        }
      ],
      "name": "getStatusOfProposalsForMember",
      "outputs": [
        {
          "name": "proposalLength",
          "type": "uint256"
        },
        {
          "name": "draftProposals",
          "type": "uint256"
        },
        {
          "name": "pendingProposals",
          "type": "uint256"
        },
        {
          "name": "acceptedProposals",
          "type": "uint256"
        },
        {
          "name": "rejectedProposals",
          "type": "uint256"
        }
      ],
      "payable": false,
      "stateMutability": "view",
      "type": "function"
    },
    {
      "constant": false,
      "inputs": [
        {
          "name": "contractName",
          "type": "bytes4"
        },
        {
          "name": "contractAddress",
          "type": "address"
        }
      ],
      "name": "changeAddress",
      "outputs": [],
      "payable": false,
      "stateMutability": "nonpayable",
      "type": "function"
    },
    {
      "constant": true,
      "inputs": [
        {
          "name": "_memberAddress",
          "type": "address"
        },
        {
          "name": "_proposalId",
          "type": "uint256"
        }
      ],
      "name": "getSolutionId_againstAddressProposal",
      "outputs": [
        {
          "name": "proposalId",
          "type": "uint256"
        },
        {
          "name": "solutionId",
          "type": "uint256"
        },
        {
          "name": "proposalStatus",
          "type": "uint256"
        },
        {
          "name": "finalVerdict",
          "type": "uint256"
        },
        {
          "name": "totalReward",
          "type": "uint256"
        },
        {
          "name": "category",
          "type": "uint256"
        }
      ],
      "payable": false,
      "stateMutability": "view",
      "type": "function"
    },
    {
      "constant": true,
      "inputs": [
        {
          "name": "_memberAddress",
          "type": "address"
        }
      ],
      "name": "getMemberDetails",
      "outputs": [
        {
          "name": "memberReputation",
          "type": "uint256"
        },
        {
          "name": "totalProposal",
          "type": "uint256"
        },
        {
          "name": "totalSolution",
          "type": "uint256"
        },
        {
          "name": "totalVotes",
          "type": "uint256"
        }
      ],
      "payable": false,
      "stateMutability": "view",
      "type": "function"
    },
    {
      "constant": true,
      "inputs": [
        {
          "name": "_memberAddress",
          "type": "address"
        }
      ],
      "name": "getAllVoteids_byAddress",
      "outputs": [
        {
          "name": "totalVoteCasted",
          "type": "uint256[]"
        }
      ],
      "payable": false,
      "stateMutability": "view",
      "type": "function"
    },
    {
      "constant": true,
      "inputs": [],
      "name": "getStatusOfProposals",
      "outputs": [
        {
          "name": "_proposalLength",
          "type": "uint256"
        },
        {
          "name": "_draftProposals",
          "type": "uint256"
        },
        {
          "name": "_pendingProposals",
          "type": "uint256"
        },
        {
          "name": "_acceptedProposals",
          "type": "uint256"
        },
        {
          "name": "_rejectedProposals",
          "type": "uint256"
        }
      ],
      "payable": false,
      "stateMutability": "view",
      "type": "function"
    },
    {
      "constant": false,
      "inputs": [
        {
          "name": "_proposalId",
          "type": "uint256"
        },
        {
          "name": "_totalRewardToDistribute",
          "type": "uint256"
        },
        {
          "name": "_totalVoteValue",
          "type": "uint256"
        }
      ],
      "name": "setProposalDetails",
      "outputs": [],
      "payable": false,
      "stateMutability": "nonpayable",
      "type": "function"
    },
    {
      "constant": false,
      "inputs": [
        {
          "name": "_proposalDescHash",
          "type": "string"
        },
        {
          "name": "_votingTypeId",
          "type": "uint256"
        },
        {
          "name": "_categoryId",
          "type": "uint8"
        },
        {
          "name": "_dateAdd",
          "type": "uint256"
        }
      ],
      "name": "createProposal",
      "outputs": [],
      "payable": false,
      "stateMutability": "nonpayable",
      "type": "function"
    },
    {
      "constant": true,
      "inputs": [],
      "name": "getTotalIncentiveByDapp",
      "outputs": [
        {
          "name": "allIncentive",
          "type": "uint256"
        }
      ],
      "payable": false,
      "stateMutability": "view",
      "type": "function"
    },
    {
      "constant": false,
      "inputs": [
        {
          "name": "_proposalId",
          "type": "uint256"
        },
        {
          "name": "_proposalSolutionStake",
          "type": "uint256"
        },
        {
          "name": "_solutionHash",
          "type": "string"
        },
        {
          "name": "_v",
          "type": "uint8"
        },
        {
          "name": "_r",
          "type": "bytes32"
        },
        {
          "name": "_s",
          "type": "bytes32"
        }
      ],
      "name": "submitProposalWithSolution",
      "outputs": [],
      "payable": false,
      "stateMutability": "nonpayable",
      "type": "function"
    },
    {
      "constant": false,
      "inputs": [
        {
          "name": "_proposalDescHash",
          "type": "string"
        },
        {
          "name": "_votingTypeId",
          "type": "uint256"
        },
        {
          "name": "_categoryId",
          "type": "uint8"
        },
        {
          "name": "_solutionHash",
          "type": "string"
        },
        {
          "name": "_v",
          "type": "uint8"
        },
        {
          "name": "_r",
          "type": "bytes32"
        },
        {
          "name": "_s",
          "type": "bytes32"
        }
      ],
      "name": "createProposalwithSolution_inEther",
      "outputs": [],
      "payable": true,
      "stateMutability": "payable",
      "type": "function"
    },
    {
      "constant": false,
      "inputs": [
        {
          "name": "_proposalDescHash",
          "type": "string"
        },
        {
          "name": "_votingTypeId",
          "type": "uint256"
        },
        {
          "name": "_categoryId",
          "type": "uint8"
        },
        {
          "name": "_proposalSolutionStake",
          "type": "uint256"
        },
        {
          "name": "_solutionHash",
          "type": "string"
        },
        {
          "name": "_v",
          "type": "uint8"
        },
        {
          "name": "_r",
          "type": "bytes32"
        },
        {
          "name": "_s",
          "type": "bytes32"
        }
      ],
      "name": "createProposalwithSolution",
      "outputs": [],
      "payable": false,
      "stateMutability": "nonpayable",
      "type": "function"
    },
    {
      "constant": false,
      "inputs": [
        {
          "name": "_proposalId",
          "type": "uint256"
        },
        {
          "name": "_proposalDescHash",
          "type": "string"
        }
      ],
      "name": "editProposal",
      "outputs": [],
      "payable": false,
      "stateMutability": "nonpayable",
      "type": "function"
    },
    {
      "constant": false,
      "inputs": [
        {
          "name": "_proposalId",
          "type": "uint256"
        },
        {
          "name": "_roleId",
          "type": "uint32"
        }
      ],
      "name": "checkRoleVoteClosing",
      "outputs": [],
      "payable": false,
      "stateMutability": "nonpayable",
      "type": "function"
    },
    {
      "constant": false,
      "inputs": [
        {
          "name": "_proposalId",
          "type": "uint256"
        },
        {
          "name": "_currVotingStatus",
          "type": "uint8"
        },
        {
          "name": "_intermediateVerdict",
          "type": "uint8"
        },
        {
          "name": "_finalVerdict",
          "type": "uint8"
        }
      ],
      "name": "updateProposalDetails",
      "outputs": [],
      "payable": false,
      "stateMutability": "nonpayable",
      "type": "function"
    },
    {
      "constant": false,
      "inputs": [
        {
          "name": "_MasterAddress",
          "type": "address"
        }
      ],
      "name": "changeMasterAddress",
      "outputs": [],
      "payable": false,
      "stateMutability": "nonpayable",
      "type": "function"
    },
    {
      "constant": true,
      "inputs": [
        {
          "name": "_memberAddress",
          "type": "address"
        }
      ],
      "name": "calculateMemberReward",
      "outputs": [
        {
          "name": "rewardToClaim",
          "type": "uint256"
        }
      ],
      "payable": false,
      "stateMutability": "view",
      "type": "function"
    },
    {
      "constant": false,
      "inputs": [],
      "name": "changePendingProposalStart",
      "outputs": [],
      "payable": false,
      "stateMutability": "nonpayable",
      "type": "function"
    },
    {
      "constant": false,
      "inputs": [
        {
          "name": "_proposalId",
          "type": "uint256"
        },
        {
          "name": "_finalVerdict",
          "type": "uint256"
        }
      ],
      "name": "updateMemberReputation",
      "outputs": [],
      "payable": false,
      "stateMutability": "nonpayable",
      "type": "function"
    },
    {
      "constant": false,
      "inputs": [
        {
          "name": "_GBTSAddress",
          "type": "address"
        }
      ],
      "name": "changeGBTSAddress",
      "outputs": [],
      "payable": false,
      "stateMutability": "nonpayable",
      "type": "function"
    },
    {
      "constant": true,
      "inputs": [
        {
          "name": "_memberAddress",
          "type": "address"
        }
      ],
      "name": "getAllVoteIdsLength_byAddress",
      "outputs": [
        {
          "name": "totalVoteCount",
          "type": "uint256"
        }
      ],
      "payable": false,
      "stateMutability": "view",
      "type": "function"
    }
  ],
  "bytecode": "0x606060405234156200001057600080fd5b619bbe80620000206000396000f30060606040526004361061018b576000357c0100000000000000000000000000000000000000000000000000000000900463ffffffff16806309b3884f1461019057806317394344146102115780632fbf5c681461025e57806335f527fa14610295578063394ecca2146102f05780633cfe9b4c1461037e578063461e72af146103c55780634c33e67b146103fd5780634d2917bf146104495780635a2ae7b5146104965780635b129875146104f157806367bf5d0c1461057b57806370395612146105dc57806383fd0954146106555780639664f51b146106b757806398b99d4f146107455780639f7320891461078a578063a2fe7303146107bf578063a5bd13a11461083a578063a96d0c0914610863578063ad5dd03b146108f8578063bded379f146109c8578063bfae217214610aac578063c32ff29e14610b12578063cd25becd14610b44578063d46655f414610b8b578063e6ead00714610bc4578063e7030a6714610c11578063ebd0e31314610c26578063eecedcb014610c52578063f88c616b14610c8b575b600080fd5b61020f600480803590602001909190803590602001908201803590602001908080601f0160208091040260200160405190810160405280939291908181526020018383808284378201915050505050509190803560ff169060200190919080356000191690602001909190803560001916906020019091905050610cd8565b005b341561021c57600080fd5b610248600480803573ffffffffffffffffffffffffffffffffffffffff16906020019091905050610d9c565b6040518082815260200191505060405180910390f35b341561026957600080fd5b61027f6004808035906020019091905050610f5d565b6040518082815260200191505060405180910390f35b34156102a057600080fd5b6102ee600480803590602001909190803590602001909190803590602001909190803560ff1690602001909190803560001916906020019091908035600019169060200190919050506110ee565b005b34156102fb57600080fd5b610327600480803573ffffffffffffffffffffffffffffffffffffffff16906020019091905050611d55565b6040518080602001828103825283818151815260200191508051906020019060200280838360005b8381101561036a57808201518184015260208101905061034f565b505050509050019250505060405180910390f35b6103c3600480803590602001909190803590602001909190803560ff169060200190919080356000191690602001909190803560001916906020019091905050611f6d565b005b34156103d057600080fd5b6103fb600480803590602001909190803560ff16906020019091908035906020019091905050612031565b005b341561040857600080fd5b61042d600480803590602001909190803563ffffffff169060200190919050506125d4565b604051808260ff1660ff16815260200191505060405180910390f35b341561045457600080fd5b610480600480803573ffffffffffffffffffffffffffffffffffffffff1690602001909190505061273d565b6040518082815260200191505060405180910390f35b34156104a157600080fd5b6104cd600480803573ffffffffffffffffffffffffffffffffffffffff169060200190919050506129d5565b60405180848152602001838152602001828152602001935050505060405180910390f35b34156104fc57600080fd5b610549600480803590602001908201803590602001908080602002602001604051908101604052809392919081815260200183836020028082843782019150505050505091905050612e03565b604051808681526020018581526020018481526020018381526020018281526020019550505050505060405180910390f35b341561058657600080fd5b6105da60048080357bffffffffffffffffffffffffffffffffffffffffffffffffffffffff191690602001909190803573ffffffffffffffffffffffffffffffffffffffff16906020019091905050613004565b005b34156105e757600080fd5b61061c600480803573ffffffffffffffffffffffffffffffffffffffff169060200190919080359060200190919050506133d0565b60405180878152602001868152602001858152602001848152602001838152602001828152602001965050505050505060405180910390f35b341561066057600080fd5b61068c600480803573ffffffffffffffffffffffffffffffffffffffff16906020019091905050613887565b6040518085815260200184815260200183815260200182815260200194505050505060405180910390f35b34156106c257600080fd5b6106ee600480803573ffffffffffffffffffffffffffffffffffffffff1690602001909190505061399d565b6040518080602001828103825283818151815260200191508051906020019060200280838360005b83811015610731578082015181840152602081019050610716565b505050509050019250505060405180910390f35b341561075057600080fd5b610758613bc9565b604051808681526020018581526020018481526020018381526020018281526020019550505050505060405180910390f35b341561079557600080fd5b6107bd6004808035906020019091908035906020019091908035906020019091905050613db0565b005b34156107ca57600080fd5b610838600480803590602001908201803590602001908080601f0160208091040260200160405190810160405280939291908181526020018383808284378201915050505050509190803590602001909190803560ff16906020019091908035906020019091905050614061565b005b341561084557600080fd5b61084d614651565b6040518082815260200191505060405180910390f35b341561086e57600080fd5b6108f6600480803590602001909190803590602001909190803590602001908201803590602001908080601f0160208091040260200160405190810160405280939291908181526020018383808284378201915050505050509190803560ff1690602001909190803560001916906020019091908035600019169060200190919050506147d2565b005b6109c6600480803590602001908201803590602001908080601f0160208091040260200160405190810160405280939291908181526020018383808284378201915050505050509190803590602001909190803560ff1690602001909190803590602001908201803590602001908080601f0160208091040260200160405190810160405280939291908181526020018383808284378201915050505050509190803560ff169060200190919080356000191690602001909190803560001916906020019091905050614bdf565b005b34156109d357600080fd5b610aaa600480803590602001908201803590602001908080601f0160208091040260200160405190810160405280939291908181526020018383808284378201915050505050509190803590602001909190803560ff1690602001909190803590602001909190803590602001908201803590602001908080601f0160208091040260200160405190810160405280939291908181526020018383808284378201915050505050509190803560ff169060200190919080356000191690602001909190803560001916906020019091905050614ca7565b005b3415610ab757600080fd5b610b10600480803590602001909190803590602001908201803590602001908080601f01602080910402602001604051908101604052809392919081815260200183838082843782019150505050505091905050614f1d565b005b3415610b1d57600080fd5b610b42600480803590602001909190803563ffffffff16906020019091905050615238565b005b3415610b4f57600080fd5b610b89600480803590602001909190803560ff1690602001909190803560ff1690602001909190803560ff169060200190919050506153b2565b005b3415610b9657600080fd5b610bc2600480803573ffffffffffffffffffffffffffffffffffffffff169060200190919050506157c7565b005b3415610bcf57600080fd5b610bfb600480803573ffffffffffffffffffffffffffffffffffffffff169060200190919050506159e8565b6040518082815260200191505060405180910390f35b3415610c1c57600080fd5b610c24615b19565b005b3415610c3157600080fd5b610c506004808035906020019091908035906020019091905050615f62565b005b3415610c5d57600080fd5b610c89600480803573ffffffffffffffffffffffffffffffffffffffff16906020019091905050616ec1565b005b3415610c9657600080fd5b610cc2600480803573ffffffffffffffffffffffffffffffffffffffff16906020019091905050616f61565b6040518082815260200191505060405180910390f35b6000600260009054906101000a900473ffffffffffffffffffffffffffffffffffffffff1673ffffffffffffffffffffffffffffffffffffffff1663a4821719346000604051602001526040518263ffffffff167c01000000000000000000000000000000000000000000000000000000000281526004016020604051808303818588803b1515610d6857600080fd5b6125ee5a03f11515610d7957600080fd5b50505050604051805190509050610d948682878787876147d2565b505050505050565b6000806000600660009054906101000a900473ffffffffffffffffffffffffffffffffffffffff1673ffffffffffffffffffffffffffffffffffffffff16638263a9386000604051602001526040518163ffffffff167c0100000000000000000000000000000000000000000000000000000000028152600401602060405180830381600087803b1515610e2f57600080fd5b6102c65a03f11515610e4057600080fd5b505050604051805190509150600090505b81811015610f5657600660009054906101000a900473ffffffffffffffffffffffffffffffffffffffff1673ffffffffffffffffffffffffffffffffffffffff166317826ac4826000604051602001526040518263ffffffff167c010000000000000000000000000000000000000000000000000000000002815260040180828152602001915050602060405180830381600087803b1515610ef257600080fd5b6102c65a03f11515610f0357600080fd5b5050506040518051905073ffffffffffffffffffffffffffffffffffffffff168473ffffffffffffffffffffffffffffffffffffffff161415610f495782806001019350505b8080600101915050610e51565b5050919050565b6000806000600460009054906101000a900473ffffffffffffffffffffffffffffffffffffffff1673ffffffffffffffffffffffffffffffffffffffff1663ed4aef526000604051602001526040518163ffffffff167c0100000000000000000000000000000000000000000000000000000000028152600401602060405180830381600087803b1515610ff057600080fd5b6102c65a03f1151561100157600080fd5b505050604051805190509150600090505b818110156110e757600660009054906101000a900473ffffffffffffffffffffffffffffffffffffffff1673ffffffffffffffffffffffffffffffffffffffff1663296569cf85836000604051602001526040518363ffffffff167c01000000000000000000000000000000000000000000000000000000000281526004018083815260200182815260200192505050602060405180830381600087803b15156110bb57600080fd5b6102c65a03f115156110cc57600080fd5b50505060405180519050830192508080600101915050611012565b5050919050565b6000806000806000600660009054906101000a900473ffffffffffffffffffffffffffffffffffffffff1673ffffffffffffffffffffffffffffffffffffffff1663401853b78c6000604051602001526040518263ffffffff167c010000000000000000000000000000000000000000000000000000000002815260040180828152602001915050602060405180830381600087803b151561118f57600080fd5b6102c65a03f115156111a057600080fd5b505050604051805190501415801561126b57506002600660009054906101000a900473ffffffffffffffffffffffffffffffffffffffff1673ffffffffffffffffffffffffffffffffffffffff1663401853b78c6000604051602001526040518263ffffffff167c010000000000000000000000000000000000000000000000000000000002815260040180828152602001915050602060405180830381600087803b151561124e57600080fd5b6102c65a03f1151561125f57600080fd5b50505060405180519050105b801561135557503373ffffffffffffffffffffffffffffffffffffffff16600660009054906101000a900473ffffffffffffffffffffffffffffffffffffffff1673ffffffffffffffffffffffffffffffffffffffff166317826ac48c6000604051602001526040518263ffffffff167c010000000000000000000000000000000000000000000000000000000002815260040180828152602001915050602060405180830381600087803b151561132257600080fd5b6102c65a03f1151561133357600080fd5b5050506040518051905073ffffffffffffffffffffffffffffffffffffffff16145b151561136057600080fd5b600560009054906101000a900473ffffffffffffffffffffffffffffffffffffffff1673ffffffffffffffffffffffffffffffffffffffff166354dacca78a6000604051602001526040518263ffffffff167c010000000000000000000000000000000000000000000000000000000002815260040180828152602001915050602060405180830381600087803b15156113f957600080fd5b6102c65a03f1151561140a57600080fd5b5050506040518051905060ff1688111580156114dc5750600560009054906101000a900473ffffffffffffffffffffffffffffffffffffffff1673ffffffffffffffffffffffffffffffffffffffff166373f231e78a6000604051602001526040518263ffffffff167c010000000000000000000000000000000000000000000000000000000002815260040180828152602001915050602060405180830381600087803b15156114ba57600080fd5b6102c65a03f115156114cb57600080fd5b5050506040518051905060ff168810155b15156114e757600080fd5b61165f600560009054906101000a900473ffffffffffffffffffffffffffffffffffffffff1673ffffffffffffffffffffffffffffffffffffffff16631a10a6158b600080604051602001526040518363ffffffff167c01000000000000000000000000000000000000000000000000000000000281526004018083815260200182815260200192505050602060405180830381600087803b151561158b57600080fd5b6102c65a03f1151561159c57600080fd5b50505060405180519050600660009054906101000a900473ffffffffffffffffffffffffffffffffffffffff1673ffffffffffffffffffffffffffffffffffffffff1663e3726e808d6000604051602001526040518263ffffffff167c010000000000000000000000000000000000000000000000000000000002815260040180828152602001915050602060405180830381600087803b151561163f57600080fd5b6102c65a03f1151561165057600080fd5b50505060405180519050617131565b9350600560009054906101000a900473ffffffffffffffffffffffffffffffffffffffff1673ffffffffffffffffffffffffffffffffffffffff1663683b35578b600660009054906101000a900473ffffffffffffffffffffffffffffffffffffffff1673ffffffffffffffffffffffffffffffffffffffff16637fd6e5108e6000604051602001526040518263ffffffff167c010000000000000000000000000000000000000000000000000000000002815260040180828152602001915050602060405180830381600087803b151561173957600080fd5b6102c65a03f1151561174a57600080fd5b50505060405180519050600660009054906101000a900473ffffffffffffffffffffffffffffffffffffffff1673ffffffffffffffffffffffffffffffffffffffff16632cd739438f6000604051602001526040518263ffffffff167c010000000000000000000000000000000000000000000000000000000002815260040180828152602001915050602060405180830381600087803b15156117ed57600080fd5b6102c65a03f115156117fe57600080fd5b505050604051805190506000604051602001526040518463ffffffff167c0100000000000000000000000000000000000000000000000000000000028152600401808481526020018360ff1681526020018260ff1681526020019350505050602060405180830381600087803b151561187657600080fd5b6102c65a03f1151561188757600080fd5b505050604051805190509250600088141515611d495761195961195289600660009054906101000a900473ffffffffffffffffffffffffffffffffffffffff1673ffffffffffffffffffffffffffffffffffffffff1663d2918de86000604051602001526040518163ffffffff167c0100000000000000000000000000000000000000000000000000000000028152600401602060405180830381600087803b151561193257600080fd5b6102c65a03f1151561194357600080fd5b5050506040518051905061714f565b606461718a565b9150600660009054906101000a900473ffffffffffffffffffffffffffffffffffffffff1673ffffffffffffffffffffffffffffffffffffffff16638aae7599338c6000604051602001526040518363ffffffff167c0100000000000000000000000000000000000000000000000000000000028152600401808373ffffffffffffffffffffffffffffffffffffffff1673ffffffffffffffffffffffffffffffffffffffff168152602001828152602001807f500000000000000000000000000000000000000000000000000000000000000081525060200192505050602060405180830381600087803b1515611a5057600080fd5b6102c65a03f11515611a6157600080fd5b5050506040518051905082019050600260009054906101000a900473ffffffffffffffffffffffffffffffffffffffff1673ffffffffffffffffffffffffffffffffffffffff16638d76032633611ab88b856171a5565b868b8b8b6040518763ffffffff167c0100000000000000000000000000000000000000000000000000000000028152600401808773ffffffffffffffffffffffffffffffffffffffff1673ffffffffffffffffffffffffffffffffffffffff1681526020018681526020018581526020018460ff1660ff168152602001836000191660001916815260200182600019166000191681526020019650505050505050600060405180830381600087803b1515611b7257600080fd5b6102c65a03f11515611b8357600080fd5b505050600660009054906101000a900473ffffffffffffffffffffffffffffffffffffffff1673ffffffffffffffffffffffffffffffffffffffff1663f33ac992338c846040518463ffffffff167c0100000000000000000000000000000000000000000000000000000000028152600401808473ffffffffffffffffffffffffffffffffffffffff1673ffffffffffffffffffffffffffffffffffffffff168152602001838152602001807f50000000000000000000000000000000000000000000000000000000000000008152506020018281526020019350505050600060405180830381600087803b1515611c7a57600080fd5b6102c65a03f11515611c8b57600080fd5b505050600660009054906101000a900473ffffffffffffffffffffffffffffffffffffffff1673ffffffffffffffffffffffffffffffffffffffff1663707b85278b60026040518363ffffffff167c0100000000000000000000000000000000000000000000000000000000028152600401808381526020018260ff16815260200192505050600060405180830381600087803b1515611d2a57600080fd5b6102c65a03f11515611d3b57600080fd5b505050611d488a856171be565b5b50505050505050505050565b611d5d619b7e565b600080600080600660009054906101000a900473ffffffffffffffffffffffffffffffffffffffff1673ffffffffffffffffffffffffffffffffffffffff16638263a9386000604051602001526040518163ffffffff167c0100000000000000000000000000000000000000000000000000000000028152600401602060405180830381600087803b1515611df157600080fd5b6102c65a03f11515611e0257600080fd5b505050604051805190509350611e1786610d9c565b915081604051805910611e275750595b90808252806020026020018201604052509450600090505b83811015611f6457600660009054906101000a900473ffffffffffffffffffffffffffffffffffffffff1673ffffffffffffffffffffffffffffffffffffffff166317826ac4826000604051602001526040518263ffffffff167c010000000000000000000000000000000000000000000000000000000002815260040180828152602001915050602060405180830381600087803b1515611ee057600080fd5b6102c65a03f11515611ef157600080fd5b5050506040518051905073ffffffffffffffffffffffffffffffffffffffff168673ffffffffffffffffffffffffffffffffffffffff161415611f575780858460ff16815181101515611f4057fe5b906020019060200201818152505082806001019350505b8080600101915050611e3f565b50505050919050565b6000600260009054906101000a900473ffffffffffffffffffffffffffffffffffffffff1673ffffffffffffffffffffffffffffffffffffffff1663a4821719346000604051602001526040518263ffffffff167c01000000000000000000000000000000000000000000000000000000000281526004016020604051808303818588803b1515611ffd57600080fd5b6125ee5a03f1151561200e57600080fd5b505050506040518051905090506120298686838787876110ee565b505050505050565b600060011515600460009054906101000a900473ffffffffffffffffffffffffffffffffffffffff1673ffffffffffffffffffffffffffffffffffffffff1663a719c02433600460009054906101000a900473ffffffffffffffffffffffffffffffffffffffff1673ffffffffffffffffffffffffffffffffffffffff16639914aa8c6000604051602001526040518163ffffffff167c0100000000000000000000000000000000000000000000000000000000028152600401602060405180830381600087803b151561210457600080fd5b6102c65a03f1151561211557600080fd5b505050604051805190506000604051602001526040518363ffffffff167c0100000000000000000000000000000000000000000000000000000000028152600401808373ffffffffffffffffffffffffffffffffffffffff1673ffffffffffffffffffffffffffffffffffffffff1681526020018260ff1663ffffffff16815260200192505050602060405180830381600087803b15156121b557600080fd5b6102c65a03f115156121c657600080fd5b5050506040518051905015151415156121de57600080fd5b6001600660009054906101000a900473ffffffffffffffffffffffffffffffffffffffff1673ffffffffffffffffffffffffffffffffffffffff1663401853b7866000604051602001526040518263ffffffff167c010000000000000000000000000000000000000000000000000000000002815260040180828152602001915050602060405180830381600087803b151561227957600080fd5b6102c65a03f1151561228a57600080fd5b50505060405180519050148061235357506000600660009054906101000a900473ffffffffffffffffffffffffffffffffffffffff1673ffffffffffffffffffffffffffffffffffffffff1663401853b7866000604051602001526040518263ffffffff167c010000000000000000000000000000000000000000000000000000000002815260040180828152602001915050602060405180830381600087803b151561233657600080fd5b6102c65a03f1151561234757600080fd5b50505060405180519050145b151561235e57600080fd5b600260009054906101000a900473ffffffffffffffffffffffffffffffffffffffff1673ffffffffffffffffffffffffffffffffffffffff166370a082316000809054906101000a900473ffffffffffffffffffffffffffffffffffffffff166000604051602001526040518263ffffffff167c0100000000000000000000000000000000000000000000000000000000028152600401808273ffffffffffffffffffffffffffffffffffffffff1673ffffffffffffffffffffffffffffffffffffffff168152602001915050602060405180830381600087803b151561244457600080fd5b6102c65a03f1151561245557600080fd5b50505060405180519050905080821115151561247057600080fd5b600660009054906101000a900473ffffffffffffffffffffffffffffffffffffffff1673ffffffffffffffffffffffffffffffffffffffff166349d6ff8f85846040518363ffffffff167c01000000000000000000000000000000000000000000000000000000000281526004018083815260200182815260200192505050600060405180830381600087803b151561250857600080fd5b6102c65a03f1151561251957600080fd5b505050600660009054906101000a900473ffffffffffffffffffffffffffffffffffffffff1673ffffffffffffffffffffffffffffffffffffffff166392d05e0b85856040518363ffffffff167c0100000000000000000000000000000000000000000000000000000000028152600401808381526020018260ff1660ff16815260200192505050600060405180830381600087803b15156125ba57600080fd5b6102c65a03f115156125cb57600080fd5b50505050505050565b6000600160009054906101000a900473ffffffffffffffffffffffffffffffffffffffff16600360006101000a81548173ffffffffffffffffffffffffffffffffffffffff021916908373ffffffffffffffffffffffffffffffffffffffff16021790555060011515600360009054906101000a900473ffffffffffffffffffffffffffffffffffffffff1673ffffffffffffffffffffffffffffffffffffffff16638f16c41c336000604051602001526040518263ffffffff167c0100000000000000000000000000000000000000000000000000000000028152600401808273ffffffffffffffffffffffffffffffffffffffff1673ffffffffffffffffffffffffffffffffffffffff168152602001915050602060405180830381600087803b151561270257600080fd5b6102c65a03f1151561271357600080fd5b50505060405180519050151514151561272b57600080fd5b61273583836173d5565b905092915050565b600080600080600660009054906101000a900473ffffffffffffffffffffffffffffffffffffffff1673ffffffffffffffffffffffffffffffffffffffff16638263a9386000604051602001526040518163ffffffff167c0100000000000000000000000000000000000000000000000000000000028152600401602060405180830381600087803b15156127d157600080fd5b6102c65a03f115156127e257600080fd5b505050604051805190509250600091505b828210156129cd57600090505b600660009054906101000a900473ffffffffffffffffffffffffffffffffffffffff1673ffffffffffffffffffffffffffffffffffffffff1663f351df05836000604051602001526040518263ffffffff167c010000000000000000000000000000000000000000000000000000000002815260040180828152602001915050602060405180830381600087803b151561289957600080fd5b6102c65a03f115156128aa57600080fd5b505050604051805190508110156129c057600660009054906101000a900473ffffffffffffffffffffffffffffffffffffffff1673ffffffffffffffffffffffffffffffffffffffff1663bfe8826d83836000604051602001526040518363ffffffff167c01000000000000000000000000000000000000000000000000000000000281526004018083815260200182815260200192505050602060405180830381600087803b151561295c57600080fd5b6102c65a03f1151561296d57600080fd5b5050506040518051905073ffffffffffffffffffffffffffffffffffffffff168573ffffffffffffffffffffffffffffffffffffffff1614156129b35783806001019450505b8080600101915050612800565b81806001019250506127f3565b505050919050565b600080600080600080600080600660009054906101000a900473ffffffffffffffffffffffffffffffffffffffff1673ffffffffffffffffffffffffffffffffffffffff16638263a9386000604051602001526040518163ffffffff167c0100000000000000000000000000000000000000000000000000000000028152600401602060405180830381600087803b1515612a6f57600080fd5b6102c65a03f11515612a8057600080fd5b505050604051805190509450600090505b848160ff161015612dee57600660009054906101000a900473ffffffffffffffffffffffffffffffffffffffff1673ffffffffffffffffffffffffffffffffffffffff16638aae75998a836000604051602001526040518363ffffffff167c0100000000000000000000000000000000000000000000000000000000028152600401808373ffffffffffffffffffffffffffffffffffffffff1673ffffffffffffffffffffffffffffffffffffffff1681526020018260ff168152602001807f500000000000000000000000000000000000000000000000000000000000000081525060200192505050602060405180830381600087803b1515612b9457600080fd5b6102c65a03f11515612ba557600080fd5b5050506040518051905084019350600660009054906101000a900473ffffffffffffffffffffffffffffffffffffffff1673ffffffffffffffffffffffffffffffffffffffff16638aae75998a836000604051602001526040518363ffffffff167c0100000000000000000000000000000000000000000000000000000000028152600401808373ffffffffffffffffffffffffffffffffffffffff1673ffffffffffffffffffffffffffffffffffffffff1681526020018260ff168152602001807f530000000000000000000000000000000000000000000000000000000000000081525060200192505050602060405180830381600087803b1515612cab57600080fd5b6102c65a03f11515612cbc57600080fd5b5050506040518051905083019250600660009054906101000a900473ffffffffffffffffffffffffffffffffffffffff1673ffffffffffffffffffffffffffffffffffffffff16638aae75998a836000604051602001526040518363ffffffff167c0100000000000000000000000000000000000000000000000000000000028152600401808373ffffffffffffffffffffffffffffffffffffffff1673ffffffffffffffffffffffffffffffffffffffff1681526020018260ff168152602001807f560000000000000000000000000000000000000000000000000000000000000081525060200192505050602060405180830381600087803b1515612dc257600080fd5b6102c65a03f11515612dd357600080fd5b50505060405180519050820191508080600101915050612a91565b83838397509750975050505050509193909250565b6000806000806000806000600660009054906101000a900473ffffffffffffffffffffffffffffffffffffffff1673ffffffffffffffffffffffffffffffffffffffff16638263a9386000604051602001526040518163ffffffff167c0100000000000000000000000000000000000000000000000000000000028152600401602060405180830381600087803b1515612e9c57600080fd5b6102c65a03f11515612ead57600080fd5b505050604051805190509650600090505b8751811015612ff957600660009054906101000a900473ffffffffffffffffffffffffffffffffffffffff1673ffffffffffffffffffffffffffffffffffffffff1663401853b78983815181101515612f1357fe5b906020019060200201516000604051602001526040518263ffffffff167c010000000000000000000000000000000000000000000000000000000002815260040180828152602001915050602060405180830381600087803b1515612f7757600080fd5b6102c65a03f11515612f8857600080fd5b5050506040518051905091506002821015612faa578580600101965050612fec565b6002821415612fc0578480600101955050612feb565b6003821415612fd6578380600101945050612fea565b600482101515612fe95782806001019350505b5b5b5b8080600101915050612ebe565b505091939590929450565b600160009054906101000a900473ffffffffffffffffffffffffffffffffffffffff16600360006101000a81548173ffffffffffffffffffffffffffffffffffffffff021916908373ffffffffffffffffffffffffffffffffffffffff16021790555060011515600360009054906101000a900473ffffffffffffffffffffffffffffffffffffffff1673ffffffffffffffffffffffffffffffffffffffff16638f16c41c336000604051602001526040518263ffffffff167c0100000000000000000000000000000000000000000000000000000000028152600401808273ffffffffffffffffffffffffffffffffffffffff1673ffffffffffffffffffffffffffffffffffffffff168152602001915050602060405180830381600087803b151561313057600080fd5b6102c65a03f1151561314157600080fd5b50505060405180519050151514151561315957600080fd5b7f4744000000000000000000000000000000000000000000000000000000000000827bffffffffffffffffffffffffffffffffffffffffffffffffffffffff191614156131e65780600660006101000a81548173ffffffffffffffffffffffffffffffffffffffff021916908373ffffffffffffffffffffffffffffffffffffffff1602179055506133cc565b7f4d52000000000000000000000000000000000000000000000000000000000000827bffffffffffffffffffffffffffffffffffffffffffffffffffffffff191614156132735780600460006101000a81548173ffffffffffffffffffffffffffffffffffffffff021916908373ffffffffffffffffffffffffffffffffffffffff1602179055506133cb565b7f5043000000000000000000000000000000000000000000000000000000000000827bffffffffffffffffffffffffffffffffffffffffffffffffffffffff191614156133005780600560006101000a81548173ffffffffffffffffffffffffffffffffffffffff021916908373ffffffffffffffffffffffffffffffffffffffff1602179055506133ca565b7f504c000000000000000000000000000000000000000000000000000000000000827bffffffffffffffffffffffffffffffffffffffffffffffffffffffff191614156133c95780600860006101000a81548173ffffffffffffffffffffffffffffffffffffffff021916908373ffffffffffffffffffffffffffffffffffffffff160217905550806000806101000a81548173ffffffffffffffffffffffffffffffffffffffff021916908373ffffffffffffffffffffffffffffffffffffffff1602179055505b5b5b5b5050565b60008060008060008060008090505b600660009054906101000a900473ffffffffffffffffffffffffffffffffffffffff1673ffffffffffffffffffffffffffffffffffffffff1663f351df05896000604051602001526040518263ffffffff167c010000000000000000000000000000000000000000000000000000000002815260040180828152602001915050602060405180830381600087803b151561347857600080fd5b6102c65a03f1151561348957600080fd5b5050506040518051905081101561387c57600660009054906101000a900473ffffffffffffffffffffffffffffffffffffffff1673ffffffffffffffffffffffffffffffffffffffff1663bfe8826d89836000604051602001526040518363ffffffff167c01000000000000000000000000000000000000000000000000000000000281526004018083815260200182815260200192505050602060405180830381600087803b151561353b57600080fd5b6102c65a03f1151561354c57600080fd5b5050506040518051905073ffffffffffffffffffffffffffffffffffffffff168973ffffffffffffffffffffffffffffffffffffffff16141561386f57809550879650600660009054906101000a900473ffffffffffffffffffffffffffffffffffffffff1673ffffffffffffffffffffffffffffffffffffffff1663401853b7896000604051602001526040518263ffffffff167c010000000000000000000000000000000000000000000000000000000002815260040180828152602001915050602060405180830381600087803b151561362857600080fd5b6102c65a03f1151561363957600080fd5b505050604051805190509450600660009054906101000a900473ffffffffffffffffffffffffffffffffffffffff1673ffffffffffffffffffffffffffffffffffffffff166322d3f8bc896000604051602001526040518263ffffffff167c010000000000000000000000000000000000000000000000000000000002815260040180828152602001915050602060405180830381600087803b15156136de57600080fd5b6102c65a03f115156136ef57600080fd5b505050604051805190509350600660009054906101000a900473ffffffffffffffffffffffffffffffffffffffff1673ffffffffffffffffffffffffffffffffffffffff1663b16e0009896000604051602001526040518263ffffffff167c010000000000000000000000000000000000000000000000000000000002815260040180828152602001915050602060405180830381600087803b151561379457600080fd5b6102c65a03f115156137a557600080fd5b505050604051805190509250600660009054906101000a900473ffffffffffffffffffffffffffffffffffffffff1673ffffffffffffffffffffffffffffffffffffffff16637fd6e510896000604051602001526040518263ffffffff167c010000000000000000000000000000000000000000000000000000000002815260040180828152602001915050602060405180830381600087803b151561384a57600080fd5b6102c65a03f1151561385b57600080fd5b5050506040518051905060ff16915061387c565b80806001019150506133df565b509295509295509295565b600080600080600660009054906101000a900473ffffffffffffffffffffffffffffffffffffffff1673ffffffffffffffffffffffffffffffffffffffff16631b3b74f1866000604051602001526040518263ffffffff167c0100000000000000000000000000000000000000000000000000000000028152600401808273ffffffffffffffffffffffffffffffffffffffff1673ffffffffffffffffffffffffffffffffffffffff168152602001915050602060405180830381600087803b151561395257600080fd5b6102c65a03f1151561396357600080fd5b5050506040518051905063ffffffff16935061397e85610d9c565b92506139898561273d565b915061399485616f61565b90509193509193565b6139a5619b7e565b6000806000806000600660009054906101000a900473ffffffffffffffffffffffffffffffffffffffff1673ffffffffffffffffffffffffffffffffffffffff16638263a9386000604051602001526040518163ffffffff167c0100000000000000000000000000000000000000000000000000000000028152600401602060405180830381600087803b1515613a3b57600080fd5b6102c65a03f11515613a4c57600080fd5b50505060405180519050945060009350613a6587616f61565b925082604051805910613a755750595b90808252806020026020018201604052509550600091505b84821015613bbf57600660009054906101000a900473ffffffffffffffffffffffffffffffffffffffff1673ffffffffffffffffffffffffffffffffffffffff1663eef83a4b88846000604051602001526040518363ffffffff167c0100000000000000000000000000000000000000000000000000000000028152600401808373ffffffffffffffffffffffffffffffffffffffff1673ffffffffffffffffffffffffffffffffffffffff16815260200182815260200192505050602060405180830381600087803b1515613b6257600080fd5b6102c65a03f11515613b7357600080fd5b505050604051805190509050600081141515613bb25780868560ff16815181101515613b9b57fe5b906020019060200201818152505083806001019450505b8180600101925050613a8d565b5050505050919050565b6000806000806000806000600660009054906101000a900473ffffffffffffffffffffffffffffffffffffffff1673ffffffffffffffffffffffffffffffffffffffff16638263a9386000604051602001526040518163ffffffff167c0100000000000000000000000000000000000000000000000000000000028152600401602060405180830381600087803b1515613c6257600080fd5b6102c65a03f11515613c7357600080fd5b505050604051805190509650600090505b86811015613da757600660009054906101000a900473ffffffffffffffffffffffffffffffffffffffff1673ffffffffffffffffffffffffffffffffffffffff1663401853b7826000604051602001526040518263ffffffff167c010000000000000000000000000000000000000000000000000000000002815260040180828152602001915050602060405180830381600087803b1515613d2557600080fd5b6102c65a03f11515613d3657600080fd5b5050506040518051905091506002821015613d58578580600101965050613d9a565b6002821415613d6e578480600101955050613d99565b6003821415613d84578380600101945050613d98565b600482101515613d975782806001019350505b5b5b5b8080600101915050613c84565b50509091929394565b600160009054906101000a900473ffffffffffffffffffffffffffffffffffffffff16600360006101000a81548173ffffffffffffffffffffffffffffffffffffffff021916908373ffffffffffffffffffffffffffffffffffffffff16021790555060011515600360009054906101000a900473ffffffffffffffffffffffffffffffffffffffff1673ffffffffffffffffffffffffffffffffffffffff16638f16c41c336000604051602001526040518263ffffffff167c0100000000000000000000000000000000000000000000000000000000028152600401808273ffffffffffffffffffffffffffffffffffffffff1673ffffffffffffffffffffffffffffffffffffffff168152602001915050602060405180830381600087803b1515613edc57600080fd5b6102c65a03f11515613eed57600080fd5b505050604051805190501515141515613f0557600080fd5b600660009054906101000a900473ffffffffffffffffffffffffffffffffffffffff1673ffffffffffffffffffffffffffffffffffffffff1663beedc6e784846040518363ffffffff167c01000000000000000000000000000000000000000000000000000000000281526004018083815260200182815260200192505050600060405180830381600087803b1515613f9d57600080fd5b6102c65a03f11515613fae57600080fd5b505050600660009054906101000a900473ffffffffffffffffffffffffffffffffffffffff1673ffffffffffffffffffffffffffffffffffffffff16624d041d84836040518363ffffffff167c01000000000000000000000000000000000000000000000000000000000281526004018083815260200182815260200192505050600060405180830381600087803b151561404857600080fd5b6102c65a03f1151561405957600080fd5b505050505050565b600080600660009054906101000a900473ffffffffffffffffffffffffffffffffffffffff1673ffffffffffffffffffffffffffffffffffffffff16638263a9386000604051602001526040518163ffffffff167c0100000000000000000000000000000000000000000000000000000000028152600401602060405180830381600087803b15156140f257600080fd5b6102c65a03f1151561410357600080fd5b505050604051805190509150600660009054906101000a900473ffffffffffffffffffffffffffffffffffffffff1673ffffffffffffffffffffffffffffffffffffffff1663f0d2921e866000604051602001526040518263ffffffff167c010000000000000000000000000000000000000000000000000000000002815260040180828152602001915050602060405180830381600087803b15156141a857600080fd5b6102c65a03f115156141b957600080fd5b50505060405180519050905060008460ff1611156144c757600660009054906101000a900473ffffffffffffffffffffffffffffffffffffffff1673ffffffffffffffffffffffffffffffffffffffff1663bc1ab4528333898886896040518763ffffffff167c0100000000000000000000000000000000000000000000000000000000028152600401808781526020018673ffffffffffffffffffffffffffffffffffffffff1673ffffffffffffffffffffffffffffffffffffffff168152602001806020018560ff1660ff1681526020018473ffffffffffffffffffffffffffffffffffffffff1673ffffffffffffffffffffffffffffffffffffffff168152602001838152602001828103825286818151815260200191508051906020019080838360005b838110156142fc5780820151818401526020810190506142e1565b50505050905090810190601f1680156143295780820380516001836020036101000a031916815260200191505b50975050505050505050600060405180830381600087803b151561434c57600080fd5b6102c65a03f1151561435d57600080fd5b505050600660009054906101000a900473ffffffffffffffffffffffffffffffffffffffff1673ffffffffffffffffffffffffffffffffffffffff166349d6ff8f83600560009054906101000a900473ffffffffffffffffffffffffffffffffffffffff1673ffffffffffffffffffffffffffffffffffffffff16637a4a20c5886000604051602001526040518263ffffffff167c0100000000000000000000000000000000000000000000000000000000028152600401808260ff168152602001915050602060405180830381600087803b151561443b57600080fd5b6102c65a03f1151561444c57600080fd5b505050604051805190506040518363ffffffff167c01000000000000000000000000000000000000000000000000000000000281526004018083815260200182815260200192505050600060405180830381600087803b15156144ae57600080fd5b6102c65a03f115156144bf57600080fd5b505050614649565b600660009054906101000a900473ffffffffffffffffffffffffffffffffffffffff1673ffffffffffffffffffffffffffffffffffffffff1663b063c2c383338985426040518663ffffffff167c0100000000000000000000000000000000000000000000000000000000028152600401808681526020018573ffffffffffffffffffffffffffffffffffffffff1673ffffffffffffffffffffffffffffffffffffffff168152602001806020018473ffffffffffffffffffffffffffffffffffffffff1673ffffffffffffffffffffffffffffffffffffffff168152602001838152602001828103825285818151815260200191508051906020019080838360005b838110156145e55780820151818401526020810190506145ca565b50505050905090810190601f1680156146125780820380516001836020036101000a031916815260200191505b509650505050505050600060405180830381600087803b151561463457600080fd5b6102c65a03f1151561464557600080fd5b5050505b505050505050565b600080600090505b600660009054906101000a900473ffffffffffffffffffffffffffffffffffffffff1673ffffffffffffffffffffffffffffffffffffffff16638263a9386000604051602001526040518163ffffffff167c0100000000000000000000000000000000000000000000000000000000028152600401602060405180830381600087803b15156146e757600080fd5b6102c65a03f115156146f857600080fd5b505050604051805190508110156147ce57600660009054906101000a900473ffffffffffffffffffffffffffffffffffffffff1673ffffffffffffffffffffffffffffffffffffffff166352301a5e826000604051602001526040518263ffffffff167c010000000000000000000000000000000000000000000000000000000002815260040180828152602001915050602060405180830381600087803b15156147a257600080fd5b6102c65a03f115156147b357600080fd5b50505060405180519050820191508080600101915050614659565b5090565b600080600660009054906101000a900473ffffffffffffffffffffffffffffffffffffffff1673ffffffffffffffffffffffffffffffffffffffff166317826ac4896000604051602001526040518263ffffffff167c010000000000000000000000000000000000000000000000000000000002815260040180828152602001915050602060405180830381600087803b151561486e57600080fd5b6102c65a03f1151561487f57600080fd5b5050506040518051905073ffffffffffffffffffffffffffffffffffffffff163373ffffffffffffffffffffffffffffffffffffffff161415156148c257600080fd5b600660009054906101000a900473ffffffffffffffffffffffffffffffffffffffff1673ffffffffffffffffffffffffffffffffffffffff1663e3726e80896000604051602001526040518263ffffffff167c010000000000000000000000000000000000000000000000000000000002815260040180828152602001915050602060405180830381600087803b151561495b57600080fd5b6102c65a03f1151561496c57600080fd5b50505060405180519050915061498387600261718a565b9050614a4988600660009054906101000a900473ffffffffffffffffffffffffffffffffffffffff1673ffffffffffffffffffffffffffffffffffffffff16637fd6e5108b6000604051602001526040518263ffffffff167c010000000000000000000000000000000000000000000000000000000002815260040180828152602001915050602060405180830381600087803b1515614a2257600080fd5b6102c65a03f11515614a3357600080fd5b5050506040518051905060ff16838888886110ee565b600960009054906101000a900473ffffffffffffffffffffffffffffffffffffffff1673ffffffffffffffffffffffffffffffffffffffff16638e4ee41a8933614a938b866171a5565b8a878b8b8b6040518963ffffffff167c0100000000000000000000000000000000000000000000000000000000028152600401808981526020018873ffffffffffffffffffffffffffffffffffffffff1673ffffffffffffffffffffffffffffffffffffffff168152602001878152602001806020018681526020018560ff1660ff16815260200184600019166000191681526020018360001916600019168152602001828103825287818151815260200191508051906020019080838360005b83811015614b6f578082015181840152602081019050614b54565b50505050905090810190601f168015614b9c5780820380516001836020036101000a031916815260200191505b509950505050505050505050600060405180830381600087803b1515614bc157600080fd5b6102c65a03f11515614bd257600080fd5b5050505050505050505050565b6000600260009054906101000a900473ffffffffffffffffffffffffffffffffffffffff1673ffffffffffffffffffffffffffffffffffffffff1663a4821719346000604051602001526040518263ffffffff167c01000000000000000000000000000000000000000000000000000000000281526004016020604051808303818588803b1515614c6f57600080fd5b6125ee5a03f11515614c8057600080fd5b50505050604051805190509050614c9d8888888489898989614ca7565b5050505050505050565b6000806000429250600660009054906101000a900473ffffffffffffffffffffffffffffffffffffffff1673ffffffffffffffffffffffffffffffffffffffff16638263a9386000604051602001526040518163ffffffff167c0100000000000000000000000000000000000000000000000000000000028152600401602060405180830381600087803b1515614d3d57600080fd5b6102c65a03f11515614d4e57600080fd5b505050604051805190509150614d6588600261718a565b9050614d738b8b8b86614061565b614d84828a60ff16838989896110ee565b600960009054906101000a900473ffffffffffffffffffffffffffffffffffffffff1673ffffffffffffffffffffffffffffffffffffffff16638e4ee41a8333614dce8c866171a5565b8b888c8c8c6040518963ffffffff167c0100000000000000000000000000000000000000000000000000000000028152600401808981526020018873ffffffffffffffffffffffffffffffffffffffff1673ffffffffffffffffffffffffffffffffffffffff168152602001878152602001806020018681526020018560ff1660ff16815260200184600019166000191681526020018360001916600019168152602001828103825287818151815260200191508051906020019080838360005b83811015614eaa578082015181840152602081019050614e8f565b50505050905090810190601f168015614ed75780820380516001836020036101000a031916815260200191505b509950505050505050505050600060405180830381600087803b1515614efc57600080fd5b6102c65a03f11515614f0d57600080fd5b5050505050505050505050505050565b600660009054906101000a900473ffffffffffffffffffffffffffffffffffffffff1673ffffffffffffffffffffffffffffffffffffffff166317826ac4836000604051602001526040518263ffffffff167c010000000000000000000000000000000000000000000000000000000002815260040180828152602001915050602060405180830381600087803b1515614fb657600080fd5b6102c65a03f11515614fc757600080fd5b5050506040518051905073ffffffffffffffffffffffffffffffffffffffff163373ffffffffffffffffffffffffffffffffffffffff1614151561500a57600080fd5b615014828261790b565b600660009054906101000a900473ffffffffffffffffffffffffffffffffffffffff1673ffffffffffffffffffffffffffffffffffffffff1663707b85278360016040518363ffffffff167c0100000000000000000000000000000000000000000000000000000000028152600401808381526020018260ff16815260200192505050600060405180830381600087803b15156150b057600080fd5b6102c65a03f115156150c157600080fd5b5050506000600660009054906101000a900473ffffffffffffffffffffffffffffffffffffffff1673ffffffffffffffffffffffffffffffffffffffff16637fd6e510846000604051602001526040518263ffffffff167c010000000000000000000000000000000000000000000000000000000002815260040180828152602001915050602060405180830381600087803b151561515f57600080fd5b6102c65a03f1151561517057600080fd5b5050506040518051905060ff16111561523457600660009054906101000a900473ffffffffffffffffffffffffffffffffffffffff1673ffffffffffffffffffffffffffffffffffffffff166392d05e0b8360006040518363ffffffff167c0100000000000000000000000000000000000000000000000000000000028152600401808381526020018260ff16815260200192505050600060405180830381600087803b151561521f57600080fd5b6102c65a03f1151561523057600080fd5b5050505b5050565b600160009054906101000a900473ffffffffffffffffffffffffffffffffffffffff16600360006101000a81548173ffffffffffffffffffffffffffffffffffffffff021916908373ffffffffffffffffffffffffffffffffffffffff16021790555060011515600360009054906101000a900473ffffffffffffffffffffffffffffffffffffffff1673ffffffffffffffffffffffffffffffffffffffff16638f16c41c336000604051602001526040518263ffffffff167c0100000000000000000000000000000000000000000000000000000000028152600401808273ffffffffffffffffffffffffffffffffffffffff1673ffffffffffffffffffffffffffffffffffffffff168152602001915050602060405180830381600087803b151561536457600080fd5b6102c65a03f1151561537557600080fd5b50505060405180519050151514151561538d57600080fd5b600161539983836173d5565b60ff1614156153ae576153ad8260006171be565b5b5050565b600160009054906101000a900473ffffffffffffffffffffffffffffffffffffffff16600360006101000a81548173ffffffffffffffffffffffffffffffffffffffff021916908373ffffffffffffffffffffffffffffffffffffffff16021790555060011515600360009054906101000a900473ffffffffffffffffffffffffffffffffffffffff1673ffffffffffffffffffffffffffffffffffffffff16638f16c41c336000604051602001526040518263ffffffff167c0100000000000000000000000000000000000000000000000000000000028152600401808273ffffffffffffffffffffffffffffffffffffffff1673ffffffffffffffffffffffffffffffffffffffff168152602001915050602060405180830381600087803b15156154de57600080fd5b6102c65a03f115156154ef57600080fd5b50505060405180519050151514151561550757600080fd5b600660009054906101000a900473ffffffffffffffffffffffffffffffffffffffff1673ffffffffffffffffffffffffffffffffffffffff1663df3e784185856040518363ffffffff167c0100000000000000000000000000000000000000000000000000000000028152600401808381526020018260ff1660ff16815260200192505050600060405180830381600087803b15156155a557600080fd5b6102c65a03f115156155b657600080fd5b505050600660009054906101000a900473ffffffffffffffffffffffffffffffffffffffff1673ffffffffffffffffffffffffffffffffffffffff1663ec1ce25185846040518363ffffffff167c0100000000000000000000000000000000000000000000000000000000028152600401808381526020018260ff1660ff16815260200192505050600060405180830381600087803b151561565757600080fd5b6102c65a03f1151561566857600080fd5b505050600660009054906101000a900473ffffffffffffffffffffffffffffffffffffffff1673ffffffffffffffffffffffffffffffffffffffff1663dcd6e2dd85836040518363ffffffff167c0100000000000000000000000000000000000000000000000000000000028152600401808381526020018260ff1660ff16815260200192505050600060405180830381600087803b151561570957600080fd5b6102c65a03f1151561571a57600080fd5b505050600660009054906101000a900473ffffffffffffffffffffffffffffffffffffffff1673ffffffffffffffffffffffffffffffffffffffff1663a080d926856040518263ffffffff167c010000000000000000000000000000000000000000000000000000000002815260040180828152602001915050600060405180830381600087803b15156157ad57600080fd5b6102c65a03f115156157be57600080fd5b50505050505050565b6000600160009054906101000a900473ffffffffffffffffffffffffffffffffffffffff1673ffffffffffffffffffffffffffffffffffffffff16141561584e5780600160006101000a81548173ffffffffffffffffffffffffffffffffffffffff021916908373ffffffffffffffffffffffffffffffffffffffff1602179055506159e5565b600160009054906101000a900473ffffffffffffffffffffffffffffffffffffffff16600360006101000a81548173ffffffffffffffffffffffffffffffffffffffff021916908373ffffffffffffffffffffffffffffffffffffffff16021790555060011515600360009054906101000a900473ffffffffffffffffffffffffffffffffffffffff1673ffffffffffffffffffffffffffffffffffffffff16638f16c41c336000604051602001526040518263ffffffff167c0100000000000000000000000000000000000000000000000000000000028152600401808273ffffffffffffffffffffffffffffffffffffffff1673ffffffffffffffffffffffffffffffffffffffff168152602001915050602060405180830381600087803b151561597a57600080fd5b6102c65a03f1151561598b57600080fd5b5050506040518051905015151415156159a357600080fd5b80600160006101000a81548173ffffffffffffffffffffffffffffffffffffffff021916908373ffffffffffffffffffffffffffffffffffffffff1602179055505b50565b6000806000806000600a81905550600660009054906101000a900473ffffffffffffffffffffffffffffffffffffffff1673ffffffffffffffffffffffffffffffffffffffff16635b7b6d89866000604051606001526040518263ffffffff167c0100000000000000000000000000000000000000000000000000000000028152600401808273ffffffffffffffffffffffffffffffffffffffff1673ffffffffffffffffffffffffffffffffffffffff168152602001915050606060405180830381600087803b1515615abb57600080fd5b6102c65a03f11515615acc57600080fd5b50505060405180519060200180519060200180519050809350819450829550505050615af88584617bd5565b615b028583618592565b615b0c8582618d18565b600a549350505050919050565b600080600160009054906101000a900473ffffffffffffffffffffffffffffffffffffffff16600360006101000a81548173ffffffffffffffffffffffffffffffffffffffff021916908373ffffffffffffffffffffffffffffffffffffffff16021790555060011515600360009054906101000a900473ffffffffffffffffffffffffffffffffffffffff1673ffffffffffffffffffffffffffffffffffffffff16638f16c41c336000604051602001526040518263ffffffff167c0100000000000000000000000000000000000000000000000000000000028152600401808273ffffffffffffffffffffffffffffffffffffffff1673ffffffffffffffffffffffffffffffffffffffff168152602001915050602060405180830381600087803b1515615c4857600080fd5b6102c65a03f11515615c5957600080fd5b505050604051805190501515141515615c7157600080fd5b600660009054906101000a900473ffffffffffffffffffffffffffffffffffffffff1673ffffffffffffffffffffffffffffffffffffffff16637cd8055a6000604051602001526040518163ffffffff167c0100000000000000000000000000000000000000000000000000000000028152600401602060405180830381600087803b1515615cff57600080fd5b6102c65a03f11515615d1057600080fd5b5050506040518051905091508190505b600660009054906101000a900473ffffffffffffffffffffffffffffffffffffffff1673ffffffffffffffffffffffffffffffffffffffff16638263a9386000604051602001526040518163ffffffff167c0100000000000000000000000000000000000000000000000000000000028152600401602060405180830381600087803b1515615dae57600080fd5b6102c65a03f11515615dbf57600080fd5b50505060405180519050811015615eb0576003600660009054906101000a900473ffffffffffffffffffffffffffffffffffffffff1673ffffffffffffffffffffffffffffffffffffffff1663401853b7836000604051602001526040518263ffffffff167c010000000000000000000000000000000000000000000000000000000002815260040180828152602001915050602060405180830381600087803b1515615e6b57600080fd5b6102c65a03f11515615e7c57600080fd5b505050604051805190501115615e9e57615e97826001617131565b9150615ea3565b615eb0565b8080600101915050615d20565b8181141515615f5e57600660009054906101000a900473ffffffffffffffffffffffffffffffffffffffff1673ffffffffffffffffffffffffffffffffffffffff16639fb3ae21826040518263ffffffff167c010000000000000000000000000000000000000000000000000000000002815260040180828152602001915050600060405180830381600087803b1515615f4957600080fd5b6102c65a03f11515615f5a57600080fd5b5050505b5050565b600080600080600080600080600160009054906101000a900473ffffffffffffffffffffffffffffffffffffffff16600360006101000a81548173ffffffffffffffffffffffffffffffffffffffff021916908373ffffffffffffffffffffffffffffffffffffffff16021790555060011515600360009054906101000a900473ffffffffffffffffffffffffffffffffffffffff1673ffffffffffffffffffffffffffffffffffffffff16638f16c41c336000604051602001526040518263ffffffff167c0100000000000000000000000000000000000000000000000000000000028152600401808273ffffffffffffffffffffffffffffffffffffffff1673ffffffffffffffffffffffffffffffffffffffff168152602001915050602060405180830381600087803b151561609a57600080fd5b6102c65a03f115156160ab57600080fd5b5050506040518051905015151415156160c357600080fd5b600660009054906101000a900473ffffffffffffffffffffffffffffffffffffffff1673ffffffffffffffffffffffffffffffffffffffff166317826ac48b6000604051602001526040518263ffffffff167c010000000000000000000000000000000000000000000000000000000002815260040180828152602001915050602060405180830381600087803b151561615c57600080fd5b6102c65a03f1151561616d57600080fd5b505050604051805190509750600660009054906101000a900473ffffffffffffffffffffffffffffffffffffffff1673ffffffffffffffffffffffffffffffffffffffff1663bfe8826d8b8b6000604051602001526040518363ffffffff167c01000000000000000000000000000000000000000000000000000000000281526004018083815260200182815260200192505050602060405180830381600087803b151561621a57600080fd5b6102c65a03f1151561622b57600080fd5b505050604051805190509650600660009054906101000a900473ffffffffffffffffffffffffffffffffffffffff1673ffffffffffffffffffffffffffffffffffffffff16633152fbd4600060405160c001526040518163ffffffff167c010000000000000000000000000000000000000000000000000000000002815260040160c060405180830381600087803b15156162c557600080fd5b6102c65a03f115156162d657600080fd5b50505060405180519060200180519060200180519060200180519060200180519060200180519050909192505080965081975082985083995050505050600089111561682557600660009054906101000a900473ffffffffffffffffffffffffffffffffffffffff1673ffffffffffffffffffffffffffffffffffffffff1663f9915f038b8a616445600660009054906101000a900473ffffffffffffffffffffffffffffffffffffffff1673ffffffffffffffffffffffffffffffffffffffff16631b3b74f18e6000604051602001526040518263ffffffff167c0100000000000000000000000000000000000000000000000000000000028152600401808273ffffffffffffffffffffffffffffffffffffffff1673ffffffffffffffffffffffffffffffffffffffff168152602001915050602060405180830381600087803b151561642457600080fd5b6102c65a03f1151561643557600080fd5b505050604051805190508b619527565b8a6040518563ffffffff167c010000000000000000000000000000000000000000000000000000000002815260040180806020018681526020018573ffffffffffffffffffffffffffffffffffffffff1673ffffffffffffffffffffffffffffffffffffffff1681526020018463ffffffff1663ffffffff1681526020018363ffffffff1663ffffffff168152602001807f43000000000000000000000000000000000000000000000000000000000000008152506020018281038252602f8152602001807f52657075746174696f6e2063726564697420666f722070726f706f73616c206f81526020017f776e6572202d204163636570746564000000000000000000000000000000000081525060400195505050505050600060405180830381600087803b151561657757600080fd5b6102c65a03f1151561658857600080fd5b505050600660009054906101000a900473ffffffffffffffffffffffffffffffffffffffff1673ffffffffffffffffffffffffffffffffffffffff1663f9915f038b896166b4600660009054906101000a900473ffffffffffffffffffffffffffffffffffffffff1673ffffffffffffffffffffffffffffffffffffffff16631b3b74f18d6000604051602001526040518263ffffffff167c0100000000000000000000000000000000000000000000000000000000028152600401808273ffffffffffffffffffffffffffffffffffffffff1673ffffffffffffffffffffffffffffffffffffffff168152602001915050602060405180830381600087803b151561669357600080fd5b6102c65a03f115156166a457600080fd5b505050604051805190508a619527565b896040518563ffffffff167c010000000000000000000000000000000000000000000000000000000002815260040180806020018681526020018573ffffffffffffffffffffffffffffffffffffffff1673ffffffffffffffffffffffffffffffffffffffff1681526020018463ffffffff1663ffffffff1681526020018363ffffffff1663ffffffff168152602001807f4300000000000000000000000000000000000000000000000000000000000000815250602001828103825260518152602001807f52657075746174696f6e2063726564697420666f7220736f6c7574696f6e206f81526020017f776e6572202d2046696e616c20536f6c7574696f6e2073656c6563746564206281526020017f79206d616a6f7269747920766f74696e6700000000000000000000000000000081525060600195505050505050600060405180830381600087803b151561680c57600080fd5b6102c65a03f1151561681d57600080fd5b505050616eb5565b600660009054906101000a900473ffffffffffffffffffffffffffffffffffffffff1673ffffffffffffffffffffffffffffffffffffffff1663f9915f038b8a61694e600660009054906101000a900473ffffffffffffffffffffffffffffffffffffffff1673ffffffffffffffffffffffffffffffffffffffff16631b3b74f18e6000604051602001526040518263ffffffff167c0100000000000000000000000000000000000000000000000000000000028152600401808273ffffffffffffffffffffffffffffffffffffffff1673ffffffffffffffffffffffffffffffffffffffff168152602001915050602060405180830381600087803b151561692d57600080fd5b6102c65a03f1151561693e57600080fd5b5050506040518051905089619551565b886040518563ffffffff167c010000000000000000000000000000000000000000000000000000000002815260040180806020018681526020018573ffffffffffffffffffffffffffffffffffffffff1673ffffffffffffffffffffffffffffffffffffffff1681526020018463ffffffff1663ffffffff1681526020018363ffffffff1663ffffffff168152602001807f44000000000000000000000000000000000000000000000000000000000000008152506020018281038252602e8152602001807f52657075746174696f6e20646562697420666f722070726f706f73616c206f7781526020017f6e6572202d2052656a656374656400000000000000000000000000000000000081525060400195505050505050600060405180830381600087803b1515616a8057600080fd5b6102c65a03f11515616a9157600080fd5b505050600091505b600660009054906101000a900473ffffffffffffffffffffffffffffffffffffffff1673ffffffffffffffffffffffffffffffffffffffff1663f351df058b6000604051602001526040518263ffffffff167c010000000000000000000000000000000000000000000000000000000002815260040180828152602001915050602060405180830381600087803b1515616b3257600080fd5b6102c65a03f11515616b4357600080fd5b50505060405180519050821015616eb457600660009054906101000a900473ffffffffffffffffffffffffffffffffffffffff1673ffffffffffffffffffffffffffffffffffffffff1663bfe8826d8b846000604051602001526040518363ffffffff167c01000000000000000000000000000000000000000000000000000000000281526004018083815260200182815260200192505050602060405180830381600087803b1515616bf557600080fd5b6102c65a03f11515616c0657600080fd5b505050604051805190509050600660009054906101000a900473ffffffffffffffffffffffffffffffffffffffff1673ffffffffffffffffffffffffffffffffffffffff1663f9915f038b83616d3b600660009054906101000a900473ffffffffffffffffffffffffffffffffffffffff1673ffffffffffffffffffffffffffffffffffffffff16631b3b74f1876000604051602001526040518263ffffffff167c0100000000000000000000000000000000000000000000000000000000028152600401808273ffffffffffffffffffffffffffffffffffffffff1673ffffffffffffffffffffffffffffffffffffffff168152602001915050602060405180830381600087803b1515616d1a57600080fd5b6102c65a03f11515616d2b57600080fd5b5050506040518051905088619551565b876040518563ffffffff167c010000000000000000000000000000000000000000000000000000000002815260040180806020018681526020018573ffffffffffffffffffffffffffffffffffffffff1673ffffffffffffffffffffffffffffffffffffffff1681526020018463ffffffff1663ffffffff1681526020018363ffffffff1663ffffffff168152602001807f4400000000000000000000000000000000000000000000000000000000000000815250602001828103825260418152602001807f52657075746174696f6e20646562697420666f7220736f6c7574696f6e206f7781526020017f6e6572202d2052656a6563746564206279206d616a6f7269747920766f74696e81526020017f670000000000000000000000000000000000000000000000000000000000000081525060600195505050505050600060405180830381600087803b1515616e9357600080fd5b6102c65a03f11515616ea457600080fd5b5050508180600101925050616a99565b5b50505050505050505050565b600160009054906101000a900473ffffffffffffffffffffffffffffffffffffffff1673ffffffffffffffffffffffffffffffffffffffff163373ffffffffffffffffffffffffffffffffffffffff16141515616f1d57600080fd5b80600260006101000a81548173ffffffffffffffffffffffffffffffffffffffff021916908373ffffffffffffffffffffffffffffffffffffffff16021790555050565b600080600080600660009054906101000a900473ffffffffffffffffffffffffffffffffffffffff1673ffffffffffffffffffffffffffffffffffffffff16638263a9386000604051602001526040518163ffffffff167c0100000000000000000000000000000000000000000000000000000000028152600401602060405180830381600087803b1515616ff557600080fd5b6102c65a03f1151561700657600080fd5b505050604051805190509250600091505b8282101561712957600660009054906101000a900473ffffffffffffffffffffffffffffffffffffffff1673ffffffffffffffffffffffffffffffffffffffff1663eef83a4b86846000604051602001526040518363ffffffff167c0100000000000000000000000000000000000000000000000000000000028152600401808373ffffffffffffffffffffffffffffffffffffffff1673ffffffffffffffffffffffffffffffffffffffff16815260200182815260200192505050602060405180830381600087803b15156170ec57600080fd5b6102c65a03f115156170fd57600080fd5b50505060405180519050905060008114151561711c5783806001019450505b8180600101925050617017565b505050919050565b600080828401905083811015151561714557fe5b8091505092915050565b60008060008414156171645760009150617183565b828402905082848281151561717557fe5b0414151561717f57fe5b8091505b5092915050565b600080828481151561719857fe5b0490508091505092915050565b60008282111515156171b357fe5b818303905092915050565b600860009054906101000a900473ffffffffffffffffffffffffffffffffffffffff1673ffffffffffffffffffffffffffffffffffffffff166336e7535f83836040518363ffffffff167c01000000000000000000000000000000000000000000000000000000000281526004018083815260200182815260200192505050600060405180830381600087803b151561725657600080fd5b6102c65a03f1151561726757600080fd5b505050600660009054906101000a900473ffffffffffffffffffffffffffffffffffffffff1673ffffffffffffffffffffffffffffffffffffffff16635d3bb56a83600660009054906101000a900473ffffffffffffffffffffffffffffffffffffffff1673ffffffffffffffffffffffffffffffffffffffff1663e3726e80866000604051602001526040518263ffffffff167c010000000000000000000000000000000000000000000000000000000002815260040180828152602001915050602060405180830381600087803b151561734257600080fd5b6102c65a03f1151561735357600080fd5b50505060405180519050846040518463ffffffff167c0100000000000000000000000000000000000000000000000000000000028152600401808481526020018381526020018281526020019350505050600060405180830381600087803b15156173bd57600080fd5b6102c65a03f115156173ce57600080fd5b5050505050565b6000806000806000600660009054906101000a900473ffffffffffffffffffffffffffffffffffffffff1673ffffffffffffffffffffffffffffffffffffffff1663f65ad75088600060405160a001526040518263ffffffff167c01000000000000000000000000000000000000000000000000000000000281526004018082815260200191505060a060405180830381600087803b151561747657600080fd5b6102c65a03f1151561748757600080fd5b5050506040518051906020018051906020018051906020018051906020018051905090919293509091925090508060ff1690508094508195505050600560009054906101000a900473ffffffffffffffffffffffffffffffffffffffff1673ffffffffffffffffffffffffffffffffffffffff1663f28395d6600660009054906101000a900473ffffffffffffffffffffffffffffffffffffffff1673ffffffffffffffffffffffffffffffffffffffff16637fd6e5108a6000604051602001526040518263ffffffff167c010000000000000000000000000000000000000000000000000000000002815260040180828152602001915050602060405180830381600087803b151561759957600080fd5b6102c65a03f115156175aa57600080fd5b50505060405180519050600660009054906101000a900473ffffffffffffffffffffffffffffffffffffffff1673ffffffffffffffffffffffffffffffffffffffff16632cd739438b6000604051602001526040518263ffffffff167c010000000000000000000000000000000000000000000000000000000002815260040180828152602001915050602060405180830381600087803b151561764d57600080fd5b6102c65a03f1151561765e57600080fd5b505050604051805190506000604051606001526040518363ffffffff167c0100000000000000000000000000000000000000000000000000000000028152600401808360ff1681526020018260ff16815260200192505050606060405180830381600087803b15156176cf57600080fd5b6102c65a03f115156176e057600080fd5b505050604051805190602001805190602001805190509091508092508193505050600283148015617718575060028663ffffffff1614155b156178c357426177288584617131565b1115806178b45750600460009054906101000a900473ffffffffffffffffffffffffffffffffffffffff1673ffffffffffffffffffffffffffffffffffffffff166353aaf8b4876000604051602001526040518263ffffffff167c0100000000000000000000000000000000000000000000000000000000028152600401808263ffffffff1663ffffffff168152602001915050602060405180830381600087803b15156177d557600080fd5b6102c65a03f115156177e657600080fd5b50505060405180519050600660009054906101000a900473ffffffffffffffffffffffffffffffffffffffff1673ffffffffffffffffffffffffffffffffffffffff1663296569cf89896000604051602001526040518363ffffffff167c0100000000000000000000000000000000000000000000000000000000028152600401808381526020018263ffffffff16815260200192505050602060405180830381600087803b151561789757600080fd5b6102c65a03f115156178a857600080fd5b50505060405180519050145b156178be57600194505b617901565b60028314156178e857426178d78584617131565b1115156178e357600194505b617900565b60028311156178fa57600294506178ff565b600094505b5b5b5050505092915050565b600660009054906101000a900473ffffffffffffffffffffffffffffffffffffffff1673ffffffffffffffffffffffffffffffffffffffff16630eed6ce283836040518363ffffffff167c01000000000000000000000000000000000000000000000000000000000281526004018083815260200180602001828103825283818151815260200191508051906020019080838360005b838110156179bc5780820151818401526020810190506179a1565b50505050905090810190601f1680156179e95780820380516001836020036101000a031916815260200191505b509350505050600060405180830381600087803b1515617a0857600080fd5b6102c65a03f11515617a1957600080fd5b505050600660009054906101000a900473ffffffffffffffffffffffffffffffffffffffff1673ffffffffffffffffffffffffffffffffffffffff16637403560583836040518363ffffffff167c01000000000000000000000000000000000000000000000000000000000281526004018083815260200180602001828103825283818151815260200191508051906020019080838360005b83811015617acd578082015181840152602081019050617ab2565b50505050905090810190601f168015617afa5780820380516001836020036101000a031916815260200191505b509350505050600060405180830381600087803b1515617b1957600080fd5b6102c65a03f11515617b2a57600080fd5b505050600660009054906101000a900473ffffffffffffffffffffffffffffffffffffffff1673ffffffffffffffffffffffffffffffffffffffff1663a080d926836040518263ffffffff167c010000000000000000000000000000000000000000000000000000000002815260040180828152602001915050600060405180830381600087803b1515617bbd57600080fd5b6102c65a03f11515617bce57600080fd5b5050505050565b6000806000806000806000600660009054906101000a900473ffffffffffffffffffffffffffffffffffffffff1673ffffffffffffffffffffffffffffffffffffffff16638263a9386000604051602001526040518163ffffffff167c0100000000000000000000000000000000000000000000000000000000028152600401602060405180830381600087803b1515617c6e57600080fd5b6102c65a03f11515617c7f57600080fd5b505050604051805190509650600095508790505b868110156184a257600660009054906101000a900473ffffffffffffffffffffffffffffffffffffffff1673ffffffffffffffffffffffffffffffffffffffff166317826ac4826000604051602001526040518263ffffffff167c010000000000000000000000000000000000000000000000000000000002815260040180828152602001915050602060405180830381600087803b1515617d3457600080fd5b6102c65a03f11515617d4557600080fd5b5050506040518051905073ffffffffffffffffffffffffffffffffffffffff168973ffffffffffffffffffffffffffffffffffffffff16141561849557600660009054906101000a900473ffffffffffffffffffffffffffffffffffffffff1673ffffffffffffffffffffffffffffffffffffffff1663cd6b44e382600060405160a001526040518263ffffffff167c01000000000000000000000000000000000000000000000000000000000281526004018082815260200191505060a060405180830381600087803b1515617e1b57600080fd5b6102c65a03f11515617e2c57600080fd5b505050604051805190602001805190602001805190602001805190602001805190509091929350909192508260ff1692508160ff1691508060ff1690508096508195508297505050506002831015617e82578095505b600283118015617e925750600084115b8015617fb057506000600660009054906101000a900473ffffffffffffffffffffffffffffffffffffffff1673ffffffffffffffffffffffffffffffffffffffff16637fcc239f8b846000604051602001526040518363ffffffff167c0100000000000000000000000000000000000000000000000000000000028152600401808373ffffffffffffffffffffffffffffffffffffffff1673ffffffffffffffffffffffffffffffffffffffff168152602001828152602001807f500000000000000000000000000000000000000000000000000000000000000081525060200192505050602060405180830381600087803b1515617f9057600080fd5b6102c65a03f11515617fa157600080fd5b5050506040518051905060ff16145b15618494576064600660009054906101000a900473ffffffffffffffffffffffffffffffffffffffff1673ffffffffffffffffffffffffffffffffffffffff1663b16e0009836000604051602001526040518263ffffffff167c010000000000000000000000000000000000000000000000000000000002815260040180828152602001915050602060405180830381600087803b151561805057600080fd5b6102c65a03f1151561806157600080fd5b50505060405180519050600560009054906101000a900473ffffffffffffffffffffffffffffffffffffffff1673ffffffffffffffffffffffffffffffffffffffff16630ffdf931886000604051602001526040518263ffffffff167c010000000000000000000000000000000000000000000000000000000002815260040180828152602001915050602060405180830381600087803b151561810457600080fd5b6102c65a03f1151561811557600080fd5b505050604051805190500281151561812957fe5b049150600660009054906101000a900473ffffffffffffffffffffffffffffffffffffffff1673ffffffffffffffffffffffffffffffffffffffff16638aae75998a836000604051602001526040518363ffffffff167c0100000000000000000000000000000000000000000000000000000000028152600401808373ffffffffffffffffffffffffffffffffffffffff1673ffffffffffffffffffffffffffffffffffffffff168152602001828152602001807f500000000000000000000000000000000000000000000000000000000000000081525060200192505050602060405180830381600087803b151561822157600080fd5b6102c65a03f1151561823257600080fd5b5050506040518051905082600a540101600a81905550600660009054906101000a900473ffffffffffffffffffffffffffffffffffffffff1673ffffffffffffffffffffffffffffffffffffffff16630e77d0b38a83856040518463ffffffff167c0100000000000000000000000000000000000000000000000000000000028152600401808473ffffffffffffffffffffffffffffffffffffffff1673ffffffffffffffffffffffffffffffffffffffff168152602001838152602001806020018381526020018281038252602f8152602001807f4742542052657761726420666f72206265696e672050726f706f73616c206f7781526020017f6e6572202d204163636570746564200000000000000000000000000000000000815250604001945050505050600060405180830381600087803b151561837357600080fd5b6102c65a03f1151561838457600080fd5b505050600660009054906101000a900473ffffffffffffffffffffffffffffffffffffffff1673ffffffffffffffffffffffffffffffffffffffff16637438f2b98a8360016040518463ffffffff167c0100000000000000000000000000000000000000000000000000000000028152600401808473ffffffffffffffffffffffffffffffffffffffff1673ffffffffffffffffffffffffffffffffffffffff168152602001838152602001807f50000000000000000000000000000000000000000000000000000000000000008152506020018260ff1681526020019350505050600060405180830381600087803b151561847f57600080fd5b6102c65a03f1151561849057600080fd5b5050505b5b8080600101915050617c93565b60008614156184af578095505b600660009054906101000a900473ffffffffffffffffffffffffffffffffffffffff1673ffffffffffffffffffffffffffffffffffffffff1663a431b9d98a886040518363ffffffff167c0100000000000000000000000000000000000000000000000000000000028152600401808373ffffffffffffffffffffffffffffffffffffffff1673ffffffffffffffffffffffffffffffffffffffff16815260200182815260200192505050600060405180830381600087803b151561857357600080fd5b6102c65a03f1151561858457600080fd5b505050505050505050505050565b600080600080600080600080600080600660009054906101000a900473ffffffffffffffffffffffffffffffffffffffff1673ffffffffffffffffffffffffffffffffffffffff16638263a9386000604051602001526040518163ffffffff167c0100000000000000000000000000000000000000000000000000000000028152600401602060405180830381600087803b151561862f57600080fd5b6102c65a03f1151561864057600080fd5b505050604051805190509950600097508a96505b89871015618c25576186668c886133d0565b809650819750829a50839b5084995085985050505050505086831415618c18576002861015618693578697505b6000851180156186a257508385145b80156187c057506000600660009054906101000a900473ffffffffffffffffffffffffffffffffffffffff1673ffffffffffffffffffffffffffffffffffffffff16637fcc239f8e866000604051602001526040518363ffffffff167c0100000000000000000000000000000000000000000000000000000000028152600401808373ffffffffffffffffffffffffffffffffffffffff1673ffffffffffffffffffffffffffffffffffffffff168152602001828152602001807f530000000000000000000000000000000000000000000000000000000000000081525060200192505050602060405180830381600087803b15156187a057600080fd5b6102c65a03f115156187b157600080fd5b5050506040518051905060ff16145b15618c1757606482600560009054906101000a900473ffffffffffffffffffffffffffffffffffffffff1673ffffffffffffffffffffffffffffffffffffffff1663199f48ae846000604051602001526040518263ffffffff167c010000000000000000000000000000000000000000000000000000000002815260040180828152602001915050602060405180830381600087803b151561886157600080fd5b6102c65a03f1151561887257600080fd5b505050604051805190500281151561888657fe5b049850600660009054906101000a900473ffffffffffffffffffffffffffffffffffffffff1673ffffffffffffffffffffffffffffffffffffffff16638aae75998d896000604051602001526040518363ffffffff167c0100000000000000000000000000000000000000000000000000000000028152600401808373ffffffffffffffffffffffffffffffffffffffff1673ffffffffffffffffffffffffffffffffffffffff168152602001828152602001807f530000000000000000000000000000000000000000000000000000000000000081525060200192505050602060405180830381600087803b151561897e57600080fd5b6102c65a03f1151561898f57600080fd5b5050506040518051905089600a540101600a81905550600660009054906101000a900473ffffffffffffffffffffffffffffffffffffffff1673ffffffffffffffffffffffffffffffffffffffff16630e77d0b38d898c6040518463ffffffff167c0100000000000000000000000000000000000000000000000000000000028152600401808473ffffffffffffffffffffffffffffffffffffffff1673ffffffffffffffffffffffffffffffffffffffff168152602001838152602001806020018381526020018281038252604e8152602001807f47425420526577617264206561726e656420666f72206265696e6720536f6c7581526020017f74696f6e206f776e6572202d2046696e616c20536f6c7574696f6e206279206d81526020017f616a6f7269747920766f74696e67000000000000000000000000000000000000815250606001945050505050600060405180830381600087803b1515618af657600080fd5b6102c65a03f11515618b0757600080fd5b505050600660009054906101000a900473ffffffffffffffffffffffffffffffffffffffff1673ffffffffffffffffffffffffffffffffffffffff16637438f2b98d8960016040518463ffffffff167c0100000000000000000000000000000000000000000000000000000000028152600401808473ffffffffffffffffffffffffffffffffffffffff1673ffffffffffffffffffffffffffffffffffffffff168152602001838152602001807f53000000000000000000000000000000000000000000000000000000000000008152506020018260ff1681526020019350505050600060405180830381600087803b1515618c0257600080fd5b6102c65a03f11515618c1357600080fd5b5050505b5b8680600101975050618654565b6000881415618c32578697505b600660009054906101000a900473ffffffffffffffffffffffffffffffffffffffff1673ffffffffffffffffffffffffffffffffffffffff1663718c9b398d8a6040518363ffffffff167c0100000000000000000000000000000000000000000000000000000000028152600401808373ffffffffffffffffffffffffffffffffffffffff1673ffffffffffffffffffffffffffffffffffffffff16815260200182815260200192505050600060405180830381600087803b1515618cf657600080fd5b6102c65a03f11515618d0757600080fd5b505050505050505050505050505050565b600080600080600080600080600080600660009054906101000a900473ffffffffffffffffffffffffffffffffffffffff1673ffffffffffffffffffffffffffffffffffffffff16638263a9386000604051602001526040518163ffffffff167c0100000000000000000000000000000000000000000000000000000000028152600401602060405180830381600087803b1515618db557600080fd5b6102c65a03f11515618dc657600080fd5b505050604051805190509950600097508a96505b8987101561943457618dec8c88619576565b50809650819750829850839950849a50859b505050505050506002851015618e12578697505b600084118015618e2157508386145b8015618f3f57506000600660009054906101000a900473ffffffffffffffffffffffffffffffffffffffff1673ffffffffffffffffffffffffffffffffffffffff16637fcc239f8e8a6000604051602001526040518363ffffffff167c0100000000000000000000000000000000000000000000000000000000028152600401808373ffffffffffffffffffffffffffffffffffffffff1673ffffffffffffffffffffffffffffffffffffffff168152602001828152602001807f560000000000000000000000000000000000000000000000000000000000000081525060200192505050602060405180830381600087803b1515618f1f57600080fd5b6102c65a03f11515618f3057600080fd5b5050506040518051905060ff16145b1561942757600660009054906101000a900473ffffffffffffffffffffffffffffffffffffffff1673ffffffffffffffffffffffffffffffffffffffff1663b16e0009886000604051602001526040518263ffffffff167c010000000000000000000000000000000000000000000000000000000002815260040180828152602001915050602060405180830381600087803b1515618fdd57600080fd5b6102c65a03f11515618fee57600080fd5b505050604051805190506064028383600560009054906101000a900473ffffffffffffffffffffffffffffffffffffffff1673ffffffffffffffffffffffffffffffffffffffff1663ce5f9a38856000604051602001526040518263ffffffff167c010000000000000000000000000000000000000000000000000000000002815260040180828152602001915050602060405180830381600087803b151561909657600080fd5b6102c65a03f115156190a757600080fd5b5050506040518051905002028115156190bc57fe5b049850600660009054906101000a900473ffffffffffffffffffffffffffffffffffffffff1673ffffffffffffffffffffffffffffffffffffffff16638aae75998d896000604051602001526040518363ffffffff167c0100000000000000000000000000000000000000000000000000000000028152600401808373ffffffffffffffffffffffffffffffffffffffff1673ffffffffffffffffffffffffffffffffffffffff168152602001828152602001807f560000000000000000000000000000000000000000000000000000000000000081525060200192505050602060405180830381600087803b15156191b457600080fd5b6102c65a03f115156191c557600080fd5b5050506040518051905089600a540101600a81905550600660009054906101000a900473ffffffffffffffffffffffffffffffffffffffff1673ffffffffffffffffffffffffffffffffffffffff16630e77d0b38d898c6040518463ffffffff167c0100000000000000000000000000000000000000000000000000000000028152600401808473ffffffffffffffffffffffffffffffffffffffff1673ffffffffffffffffffffffffffffffffffffffff16815260200183815260200180602001838152602001828103825260388152602001807f47425420526577617264206561726e656420666f7220766f74696e6720696e2081526020017f6661766f7572206f662066696e616c20536f6c7574696f6e0000000000000000815250604001945050505050600060405180830381600087803b151561930657600080fd5b6102c65a03f1151561931757600080fd5b505050600660009054906101000a900473ffffffffffffffffffffffffffffffffffffffff1673ffffffffffffffffffffffffffffffffffffffff16637438f2b98d8960016040518463ffffffff167c0100000000000000000000000000000000000000000000000000000000028152600401808473ffffffffffffffffffffffffffffffffffffffff1673ffffffffffffffffffffffffffffffffffffffff168152602001838152602001807f56000000000000000000000000000000000000000000000000000000000000008152506020018260ff1681526020019350505050600060405180830381600087803b151561941257600080fd5b6102c65a03f1151561942357600080fd5b5050505b8680600101975050618dda565b6000881415619441578697505b600660009054906101000a900473ffffffffffffffffffffffffffffffffffffffff1673ffffffffffffffffffffffffffffffffffffffff1663ef78e7078d8a6040518363ffffffff167c0100000000000000000000000000000000000000000000000000000000028152600401808373ffffffffffffffffffffffffffffffffffffffff1673ffffffffffffffffffffffffffffffffffffffff16815260200182815260200192505050600060405180830381600087803b151561950557600080fd5b6102c65a03f1151561951657600080fd5b505050505050505050505050505050565b60008082840190508363ffffffff168163ffffffff161015151561954757fe5b8091505092915050565b60008263ffffffff168263ffffffff161115151561956b57fe5b818303905092915050565b600080600080600080600080600660009054906101000a900473ffffffffffffffffffffffffffffffffffffffff1673ffffffffffffffffffffffffffffffffffffffff1663eef83a4b8b8b6000604051602001526040518363ffffffff167c0100000000000000000000000000000000000000000000000000000000028152600401808373ffffffffffffffffffffffffffffffffffffffff1673ffffffffffffffffffffffffffffffffffffffff16815260200182815260200192505050602060405180830381600087803b151561964f57600080fd5b6102c65a03f1151561966057600080fd5b505050604051805190509050600660009054906101000a900473ffffffffffffffffffffffffffffffffffffffff1673ffffffffffffffffffffffffffffffffffffffff1663b068892182600080604051602001526040518363ffffffff167c01000000000000000000000000000000000000000000000000000000000281526004018083815260200182815260200192505050602060405180830381600087803b151561970d57600080fd5b6102c65a03f1151561971e57600080fd5b505050604051805190509750600660009054906101000a900473ffffffffffffffffffffffffffffffffffffffff1673ffffffffffffffffffffffffffffffffffffffff1663401853b78a6000604051602001526040518263ffffffff167c010000000000000000000000000000000000000000000000000000000002815260040180828152602001915050602060405180830381600087803b15156197c357600080fd5b6102c65a03f115156197d457600080fd5b505050604051805190509650600660009054906101000a900473ffffffffffffffffffffffffffffffffffffffff1673ffffffffffffffffffffffffffffffffffffffff166322d3f8bc8a6000604051602001526040518263ffffffff167c010000000000000000000000000000000000000000000000000000000002815260040180828152602001915050602060405180830381600087803b151561987957600080fd5b6102c65a03f1151561988a57600080fd5b505050604051805190509550600660009054906101000a900473ffffffffffffffffffffffffffffffffffffffff1673ffffffffffffffffffffffffffffffffffffffff16633ee9363b826000604051602001526040518263ffffffff167c010000000000000000000000000000000000000000000000000000000002815260040180828152602001915050602060405180830381600087803b151561992f57600080fd5b6102c65a03f1151561994057600080fd5b505050604051805190509450600660009054906101000a900473ffffffffffffffffffffffffffffffffffffffff1673ffffffffffffffffffffffffffffffffffffffff1663b16e00098a6000604051602001526040518263ffffffff167c010000000000000000000000000000000000000000000000000000000002815260040180828152602001915050602060405180830381600087803b15156199e557600080fd5b6102c65a03f115156199f657600080fd5b505050604051805190509350600660009054906101000a900473ffffffffffffffffffffffffffffffffffffffff1673ffffffffffffffffffffffffffffffffffffffff16637fd6e5108a6000604051602001526040518263ffffffff167c010000000000000000000000000000000000000000000000000000000002815260040180828152602001915050602060405180830381600087803b1515619a9b57600080fd5b6102c65a03f11515619aac57600080fd5b5050506040518051905060ff169250600660009054906101000a900473ffffffffffffffffffffffffffffffffffffffff1673ffffffffffffffffffffffffffffffffffffffff1663fd8136f28a6000604051602001526040518263ffffffff167c010000000000000000000000000000000000000000000000000000000002815260040180828152602001915050602060405180830381600087803b1515619b5457600080fd5b6102c65a03f11515619b6557600080fd5b5050506040518051905091505092959891949750929550565b6020604051908101604052806000815250905600a165627a7a723058205ac54e334cdfb79abc683249fa13c5188c0d02b5a7adf2585c38af31ccfb09d60029",
  "source": "/* Copyright (C) 2017 GovBlocks.io\r\n\r\n  This program is free software: you can redistribute it and/or modify\r\n    it under the terms of the GNU General Public License as published by\r\n    the Free Software Foundation, either version 3 of the License, or\r\n    (at your option) any later version.\r\n\r\n  This program is distributed in the hope that it will be useful,\r\n    but WITHOUT ANY WARRANTY; without even the implied warranty of\r\n    MERCHANTABILITY or FITNESS FOR A PARTICULAR PURPOSE.  See the\r\n    GNU General Public License for more details.\r\n\r\n  You should have received a copy of the GNU General Public License\r\n    along with this program.  If not, see http://www.gnu.org/licenses/ */\r\n\r\n\r\npragma solidity ^0.4.8;\r\nimport \"./governanceData.sol\";\r\nimport \"./ProposalCategory.sol\";\r\nimport \"./memberRoles.sol\";\r\nimport \"./Master.sol\";\r\nimport \"./BasicToken.sol\";\r\nimport \"./SafeMath.sol\";\r\nimport \"./Math.sol\";\r\nimport \"./Pool.sol\";\r\nimport \"./GBTStandardToken.sol\";\r\nimport \"./VotingType.sol\";\r\n\r\ncontract Governance {\r\n    \r\n  using SafeMath for uint;\r\n  using Math for uint;\r\n//   address GDAddress;\r\n//   address PCAddress;\r\n//   address MRAddress;\r\n//   address GBTSAddress;\r\n//   address BTAddress;\r\n  address P1Address;\r\n  address masterAddress;\r\n  GBTStandardToken GBTS;\r\n  Master MS;\r\n  memberRoles MR;\r\n  ProposalCategory PC;\r\n  governanceData GD;\r\n  BasicToken BT;\r\n  Pool P1;\r\n  VotingType VT;\r\n  uint finalRewardToDistribute;\r\n\r\n    modifier onlyInternal {\r\n        MS=Master(masterAddress);\r\n        require(MS.isInternal(msg.sender) == true);\r\n        _; \r\n    }\r\n\r\n     modifier onlyOwner{\r\n        MS=Master(masterAddress);\r\n        require(MS.isOwner(msg.sender) == true);\r\n        _; \r\n    }\r\n\r\n    modifier onlyMaster {    \r\n        require(msg.sender == masterAddress);\r\n        _; \r\n    }\r\n\r\n    // function changeAllContractsAddress(address _GDContractAddress,address _MRContractAddress,address _PCContractAddress,address _PoolContractAddress) onlyInternal\r\n    // {\r\n    //    GD = governanceData(_GDContractAddress);\r\n    //    PC = ProposalCategory(_PCContractAddress);\r\n    //    MR = memberRoles(_MRContractAddress);\r\n    //    P1 = ProposalCategory(_PoolContractAddress);\r\n    // }\r\n\r\n    /// @dev Changes Global objects of the contracts || Uses latest version\r\n    /// @param contractName Contract name \r\n    /// @param contractAddress Contract addresses\r\n    function changeAddress(bytes4 contractName, address contractAddress) onlyInternal\r\n    {\r\n        if(contractName == 'GD'){\r\n            GD = governanceData(contractAddress);\r\n        } else if(contractName == 'MR'){\r\n            MR = memberRoles(contractAddress);\r\n        } else if(contractName == 'PC'){\r\n            PC = ProposalCategory(contractAddress);\r\n        } else if(contractName == 'PL'){\r\n            P1 = Pool(contractAddress);\r\n            P1Address = contractAddress;\r\n        }\r\n    }\r\n\r\n  /// @dev Changes GBT standard token address\r\n  /// @param _GBTSAddress New GBT standard token address\r\n  function changeGBTSAddress(address _GBTSAddress) onlyMaster\r\n  {\r\n      GBTS = GBTStandardToken(_GBTSAddress);\r\n  }\r\n\r\n  /// @dev Changes master address\r\n  /// @param _MasterAddress New master address\r\n  function changeMasterAddress(address _MasterAddress)\r\n  {\r\n    if(masterAddress == 0x000)\r\n        masterAddress = _MasterAddress;\r\n    else\r\n    {\r\n        MS=Master(masterAddress);\r\n        require(MS.isInternal(msg.sender) == true);\r\n          masterAddress = _MasterAddress;\r\n    }\r\n  }\r\n  \r\n  /// @dev Creates a new proposal\r\n  /// @param _proposalDescHash Proposal description hash\r\n  /// @param _votingTypeId Voting type id\r\n  /// @param _categoryId Category id\r\n  /// @param _dateAdd Date the proposal was added\r\n  function createProposal(string _proposalDescHash,uint _votingTypeId,uint8 _categoryId,uint _dateAdd) public\r\n  {\r\n    //   GD=governanceData(GDAddress);\r\n    //   PC=ProposalCategory(PCAddress);\r\n      uint _proposalId = GD.getProposalLength();\r\n      address votingAddress = GD.getVotingTypeAddress(_votingTypeId); \r\n      if(_categoryId > 0)\r\n      {\r\n          GD.addNewProposal(_proposalId,msg.sender,_proposalDescHash,_categoryId,votingAddress,_dateAdd);\r\n          GD.setProposalIncentive(_proposalId,PC.getCatIncentive(_categoryId));\r\n      }\r\n      else\r\n          GD.createProposal1(_proposalId,msg.sender,_proposalDescHash,votingAddress,now);          \r\n  }\r\n\r\n  /// @dev Creates a new proposal (Stake in ether)\r\n  /// @param _proposalDescHash Proposal description hash\r\n  /// @param _votingTypeId Voting type id\r\n  /// @param _categoryId Category id\r\n  /// @param _solutionHash Solution hash\r\n  function createProposalwithSolution_inEther(string _proposalDescHash,uint _votingTypeId,uint8 _categoryId,string _solutionHash,uint8 _v,bytes32 _r,bytes32 _s) payable\r\n  {\r\n     uint tokenAmount = GBTS.buyToken.value(msg.value)();\r\n     createProposalwithSolution(_proposalDescHash, _votingTypeId, _categoryId, tokenAmount,_solutionHash,_v,_r,_s);\r\n  }\r\n \r\n  /// @dev Creates a new proposal\r\n  /// @param _proposalDescHash Proposal description hash\r\n  /// @param _votingTypeId Voting type id\r\n  /// @param _categoryId Category id\r\n  /// @param _proposalSolutionStake Proposal solution stake\r\n  /// @param _solutionHash Solution hash\r\n  function createProposalwithSolution(string _proposalDescHash,uint _votingTypeId,uint8 _categoryId,uint _proposalSolutionStake,string _solutionHash,uint8 _v,bytes32 _r,bytes32 _s) public\r\n  {\r\n    // GD=governanceData(GDAddress);\r\n      uint proposalDateAdd = now;\r\n      uint _proposalId = GD.getProposalLength();\r\n      uint proposalStake = SafeMath.div(_proposalSolutionStake,2);\r\n      createProposal(_proposalDescHash,_votingTypeId,_categoryId,proposalDateAdd);\r\n      openProposalForVoting(_proposalId,_categoryId,proposalStake,_v,_r,_s);\r\n      VT.addSolution(_proposalId,msg.sender,SafeMath.sub(_proposalSolutionStake,proposalStake),_solutionHash,proposalDateAdd,_v,_r,_s);\r\n    //   receiveStake(_proposalId,SafeMath.sub(_proposalSolutionStake,proposalStake),proposalDateAdd,_solutionHash,_v,_r,_s);\r\n  }\r\n\r\n  /// @dev Submit proposal with solution (Stake in ether)\r\n  /// @param _proposalId Proposal id\r\n  /// @param _solutionHash Solution hash\r\n  function submitProposalWithSolution_inEther(uint _proposalId,string _solutionHash,uint8 _v,bytes32 _r,bytes32 _s) payable\r\n  {\r\n     uint tokenAmount = GBTS.buyToken.value(msg.value)();\r\n     submitProposalWithSolution(_proposalId, tokenAmount, _solutionHash,_v,_r,_s);\r\n  }\r\n     \r\n\r\n  /// @dev Submit proposal with solution\r\n  /// @param _proposalId Proposal id\r\n  /// @param _proposalSolutionStake Proposal solution stake\r\n  /// @param _solutionHash Solution hash\r\n  function submitProposalWithSolution(uint _proposalId,uint _proposalSolutionStake,string _solutionHash,uint8 _v,bytes32 _r,bytes32 _s) public\r\n  {\r\n      //GD=governanceData(GDAddress); \r\n      require(msg.sender == GD.getProposalOwner(_proposalId));\r\n      uint proposalDateAdd = GD.getProposalDateUpd(_proposalId);\r\n      uint proposalStake = SafeMath.div(_proposalSolutionStake,2); \r\n      openProposalForVoting(_proposalId,GD.getProposalCategory(_proposalId),proposalStake,_v,_r,_s);\r\n      VT.addSolution(_proposalId,msg.sender,SafeMath.sub(_proposalSolutionStake,proposalStake),_solutionHash,proposalDateAdd,_v,_r,_s);\r\n      //receiveStake(_proposalId,SafeMath.sub(_proposalSolutionStake,proposalStake),_solutionHash,proposalDateAdd,_v,_r,_s);\r\n  }\r\n\r\n    //   /// @dev Receives stake\r\n    //   /// @param _proposalId Proposalid\r\n    //   /// @param _solutionStake Solution stake\r\n    //   /// @param _proposalDateAdd Date when proposal was added\r\n    //   /// @param _solutionHash Solution hash\r\n    //   function receiveStake(uint _proposalId,uint _solutionStake,uint _proposalDateAdd,string _solutionHash,uint8 _v,bytes32 _r,bytes32 _s) internal\r\n    //   {\r\n    //         VT=VotingType(GD.getProposalVotingType(_proposalId));\r\n    //         // GD=governanceData(GDAddress);\r\n    //         // GBTS=GBTStandardToken(GBTSAddress);\r\n    //         // PC=ProposalCategory(PCAddress);\r\n            \r\n            \r\n    //         uint remainingTime = PC.getRemainingClosingTime(_proposalId,GD.getProposalCategory(_proposalId),GD.getProposalCurrentVotingId(_proposalId));\r\n    //         uint depositAmount = ((_solutionStake*GD.depositPercSolution())/100);\r\n    //         uint finalAmount = depositAmount + GD.getDepositedTokens(msg.sender,_proposalId,'S');\r\n    //         GD.setDepositTokens(msg.sender,_proposalId,'S',finalAmount);\r\n    //         GBTS.lockToken(msg.sender,SafeMath.sub(_solutionStake,finalAmount),remainingTime,_v,_r,_s); \r\n    //         VT.addSolution(_proposalId,msg.sender,0,_solutionHash,_proposalDateAdd,_v,_r,_s);\r\n    //         GD.setSolutionAdded(_proposalId,msg.sender);\r\n    //   }\r\n\r\n  \r\n  /// @dev Categorizes proposal to proceed further. _reward is the company's incentive to distribute to end members\r\n  /// @param _proposalId Proposal id\r\n  /// @param _categoryId Category id\r\n  /// @param _dappIncentive It is the company's incentive to distribute to end members\r\n  function categorizeProposal(uint _proposalId , uint8 _categoryId,uint _dappIncentive) public\r\n  {\r\n      require(MR.checkRoleId_byAddress(msg.sender,MR.getAuthorizedMemberId()) == true);\r\n    //   require(MR.getMemberRoleIdByAddress(msg.sender) == MR.getAuthorizedMemberId());\r\n      require(GD.getProposalStatus(_proposalId) == 1 || GD.getProposalStatus(_proposalId) == 0);\r\n      uint gbtBalanceOfPool = GBTS.balanceOf(P1Address);\r\n      require (_dappIncentive <= gbtBalanceOfPool);\r\n\r\n      GD.setProposalIncentive(_proposalId,_dappIncentive);\r\n      GD.setProposalCategory(_proposalId,_categoryId);\r\n  }\r\n\r\n   /// @dev Submit proposal for voting while giving stak ein Ether.\r\n   /// @param  _proposalId Proposal id\r\n   /// @param  _categoryId Proposal category id\r\n   function openProposalForVoting_inEther(uint _proposalId,uint _categoryId,uint8 _v,bytes32 _r,bytes32 _s) payable\r\n   {\r\n     uint tokenAmount = GBTS.buyToken.value(msg.value)();\r\n     openProposalForVoting(_proposalId, _categoryId, tokenAmount,_v,_r,_s);\r\n   }\r\n\r\n\r\n  /// @dev Proposal's complexity level and reward are added\r\n  /// @param  _proposalId Proposal id\r\n  /// @param  _categoryId Proposal category id\r\n  /// @param  _proposalStake Token amount\r\n  function openProposalForVoting(uint _proposalId,uint _categoryId,uint _proposalStake,uint8 _v,bytes32 _r,bytes32 _s) public \r\n  {\r\n    //   PC = ProposalCategory(PCAddress);\r\n    //   GD = governanceData(GDAddress);\r\n    //   P1 = Pool(P1Address);\r\n    //   GBTS=GBTStandardToken(GBTSAddress); \r\n    //   uint pStatus;\r\n    //   uint pCategory;\r\n    //   (,pStatus,pCategory) = GD.getProposalDetailsById3(_proposalId);\r\n\r\n      require(GD.getProposalStatus(_proposalId) != 0 && GD.getProposalStatus(_proposalId) < 2 && GD.getProposalOwner(_proposalId) == msg.sender);\r\n      require(_proposalStake <= PC.getMaxStake(_categoryId) && _proposalStake >= PC.getMinStake(_categoryId));\r\n      uint closingTime = SafeMath.add(PC.getClosingTimeAtIndex(_categoryId,0),GD.getProposalDateUpd(_proposalId));\r\n      uint remainingTime = PC.getRemainingClosingTime(_proposalId,GD.getProposalCategory(_proposalId),GD.getProposalCurrentVotingId(_proposalId));\r\n      if(_proposalStake != 0)\r\n      {\r\n          uint depositAmount = SafeMath.div(SafeMath.mul(_proposalStake,GD.depositPercProposal()),100);\r\n          uint finalAmount = depositAmount + GD.getDepositedTokens(msg.sender,_proposalId,'P');\r\n          GBTS.lockToken(msg.sender,SafeMath.sub(_proposalStake,finalAmount),remainingTime,_v,_r,_s);\r\n          GD.setDepositTokens(msg.sender,_proposalId,'P',finalAmount);\r\n          GD.changeProposalStatus(_proposalId,2);\r\n          callOraclize(_proposalId,closingTime);   \r\n      }\r\n  }\r\n  /// @dev Call oraclize for closing proposal\r\n  /// @param _proposalId Proposal id\r\n  /// @param _closeTime Closing time of the proposal\r\n  function callOraclize(uint _proposalId,uint _closeTime) internal\r\n  {\r\n    //   GD = governanceData(GDAddress);\r\n    //   P1 = Pool(P1Address);\r\n      P1.closeProposalOraclise(_proposalId,_closeTime);\r\n      GD.callOraclizeCallEvent(_proposalId,GD.getProposalDateUpd(_proposalId),_closeTime);\r\n  }\r\n\r\n  /// @dev Edits a proposal and only owner of a proposal can edit it\r\n  /// @param _proposalId Proposal id\r\n  /// @param _proposalDescHash Proposal description hash\r\n  function editProposal(uint _proposalId ,string _proposalDescHash) public\r\n  {\r\n    //   GD=governanceData(GDAddress);\r\n      require(msg.sender == GD.getProposalOwner(_proposalId));\r\n      updateProposalDetails1(_proposalId,_proposalDescHash);\r\n      GD.changeProposalStatus(_proposalId,1);\r\n      \r\n      if(GD.getProposalCategory(_proposalId) > 0)\r\n        GD.setProposalCategory(_proposalId,0);\r\n  }\r\n\r\n   /// @dev Edits the details of an existing proposal and creates new version\r\n   /// @param _proposalId Proposal id\r\n   /// @param _proposalDescHash Proposal description hash\r\n   function updateProposalDetails1(uint _proposalId,string _proposalDescHash) internal\r\n   {\r\n        // GD=governanceData(GDAddress);\r\n        GD.storeProposalVersion(_proposalId,_proposalDescHash);\r\n        GD.setProposalDetailsAfterEdit(_proposalId,_proposalDescHash);\r\n        GD.setProposalDateUpd(_proposalId);\r\n    }\r\n\r\n  /// @dev After the proposal's final decision, member reputation will get updated\r\n  /// @param _proposalId Proposal id\r\n  /// @param _finalVerdict Final verdict \r\n  function updateMemberReputation(uint _proposalId,uint _finalVerdict) onlyInternal\r\n  {\r\n    // GD=governanceData(GDAddress);\r\n    address _proposalOwner =  GD.getProposalOwner(_proposalId);\r\n    address _finalSolutionOwner = GD.getSolutionAddedByProposalId(_proposalId,_finalVerdict);\r\n    uint32 addProposalOwnerPoints; uint32 addSolutionOwnerPoints; uint32 subProposalOwnerPoints; uint32 subSolutionOwnerPoints;\r\n    (addProposalOwnerPoints,addSolutionOwnerPoints,,subProposalOwnerPoints,subSolutionOwnerPoints,)= GD.getMemberReputationPoints();\r\n\r\n    if(_finalVerdict>0)\r\n    {\r\n        GD.setMemberReputation(\"Reputation credit for proposal owner - Accepted\",_proposalId,_proposalOwner,SafeMath.add32(GD.getMemberReputation(_proposalOwner),addProposalOwnerPoints),addProposalOwnerPoints,\"C\");\r\n        GD.setMemberReputation(\"Reputation credit for solution owner - Final Solution selected by majority voting\",_proposalId,_finalSolutionOwner,SafeMath.add32(GD.getMemberReputation(_finalSolutionOwner),addSolutionOwnerPoints),addSolutionOwnerPoints,\"C\"); \r\n    }\r\n    else\r\n    {\r\n        GD.setMemberReputation(\"Reputation debit for proposal owner - Rejected\",_proposalId,_proposalOwner,SafeMath.sub32(GD.getMemberReputation(_proposalOwner),subProposalOwnerPoints),subProposalOwnerPoints,\"D\");\r\n        for(uint i=0; i<GD.getTotalSolutions(_proposalId); i++)\r\n        {\r\n            address memberAddress = GD.getSolutionAddedByProposalId(_proposalId,i);\r\n            GD.setMemberReputation(\"Reputation debit for solution owner - Rejected by majority voting\",_proposalId,memberAddress,SafeMath.sub32(GD.getMemberReputation(memberAddress),subSolutionOwnerPoints),subSolutionOwnerPoints,\"D\");\r\n        }\r\n    }     \r\n  }\r\n\r\n   /// @dev Checks proposal for vote closing\r\n  /// @param _proposalId Proposal id\r\n  /// @param _roleId Role id\r\n  function checkProposalVoteClosing(uint _proposalId,uint32 _roleId) onlyInternal constant returns(uint8 closeValue) \r\n  {\r\n    closeValue = checkForClosing(_proposalId,_roleId);\r\n  }\r\n\r\n  /// @dev Checks proposal for vote closing\r\n  /// @param _proposalId Proposal id\r\n  /// @param _roleId Role id\r\n  function checkForClosing(uint _proposalId,uint32 _roleId) internal constant returns(uint8 closeValue) \r\n  {\r\n      uint dateUpdate;uint pStatus;uint _closingTime;uint _majorityVote;\r\n      (,,dateUpdate,,pStatus) = GD.getProposalDetailsById1(_proposalId);\r\n      (,_closingTime,_majorityVote) = PC.getCategoryData3(GD.getProposalCategory(_proposalId),GD.getProposalCurrentVotingId(_proposalId));\r\n      \r\n      if(pStatus == 2 && _roleId != 2)\r\n      {\r\n        if(SafeMath.add(dateUpdate,_closingTime) <= now || GD.getAllVoteIdsLength_byProposalRole(_proposalId,_roleId) == MR.getAllMemberLength(_roleId))\r\n          closeValue=1;\r\n      }\r\n      else if(pStatus == 2)\r\n      {\r\n         if(SafeMath.add(dateUpdate,_closingTime) <= now)\r\n              closeValue=1;\r\n      }\r\n      else if(pStatus > 2)\r\n      {\r\n         closeValue=2;\r\n      }\r\n      else\r\n      {\r\n        closeValue=0;\r\n      }\r\n  }\r\n\r\n  /// @dev Checks role for vote closing\r\n  /// @param _proposalId Proposal id\r\n  /// @param _roleId Role id\r\n  function checkRoleVoteClosing(uint _proposalId,uint32 _roleId) onlyInternal\r\n  {\r\n     if(checkForClosing(_proposalId,_roleId)==1)\r\n       callOraclize(_proposalId,0);\r\n   }\r\n\r\n  /// @dev Gets statuses of proposals for member\r\n  /// @param _proposalsIds Proposal ids\r\n  /// @return proposalLength Proposal length\r\n  /// @return draftProposals Proposal draft\r\n  /// @return pendingProposals Pending proposals\r\n  /// @return acceptedProposals Accepted proposals\r\n  /// @return rejectedProposals Rejected proposals\r\n  function getStatusOfProposalsForMember(uint[] _proposalsIds)constant returns (uint proposalLength,uint draftProposals,uint pendingProposals,uint acceptedProposals,uint rejectedProposals)\r\n    {\r\n        // GD=governanceData(GDAddress);\r\n        uint proposalStatus;\r\n        proposalLength=GD.getProposalLength();\r\n\r\n         for(uint i=0;i<_proposalsIds.length; i++)\r\n         {\r\n           proposalStatus=GD.getProposalStatus(_proposalsIds[i]);\r\n           if(proposalStatus<2)\r\n               draftProposals++;\r\n           else if(proposalStatus==2)\r\n             pendingProposals++;\r\n           else if(proposalStatus==3)\r\n             acceptedProposals++;\r\n           else if(proposalStatus>=4)\r\n             rejectedProposals++;\r\n         }\r\n   }\r\n \r\n  /// @dev Gets statuses of proposals\r\n  /// @param _proposalLength Proposal length\r\n  /// @param _draftProposals Proposal draft\r\n  /// @param _pendingProposals Pending proposals\r\n  /// @param _acceptedProposals Accepted proposals\r\n  /// @param _rejectedProposals Rejected proposals\r\n  function getStatusOfProposals()constant returns (uint _proposalLength,uint _draftProposals,uint _pendingProposals,uint _acceptedProposals,uint _rejectedProposals)\r\n  {\r\n    // GD=governanceData(GDAddress);\r\n    uint proposalStatus;\r\n    _proposalLength=GD.getProposalLength();\r\n\r\n    for(uint i=0;i<_proposalLength;i++){\r\n      proposalStatus=GD.getProposalStatus(i);\r\n      if(proposalStatus<2)\r\n          _draftProposals++;\r\n      else if(proposalStatus==2)\r\n        _pendingProposals++;\r\n      else if(proposalStatus==3)\r\n        _acceptedProposals++;\r\n      else if(proposalStatus>=4)\r\n        _rejectedProposals++;\r\n        }\r\n  }\r\n    /// @dev Changes pending proposal start variable\r\n    function changePendingProposalStart() onlyInternal\r\n    {\r\n        // GD=governanceData(GDAddress);\r\n        uint pendingPS = GD.pendingProposalStart();\r\n        for(uint j=pendingPS; j<GD.getProposalLength(); j++)\r\n        {\r\n            if(GD.getProposalStatus(j) > 3)\r\n                pendingPS = SafeMath.add(pendingPS,1);\r\n            else\r\n                break;\r\n        }\r\n        if(j!=pendingPS)\r\n        {\r\n            GD.changePendingProposalStart(j);\r\n        }\r\n    }\r\n\r\n    /// @dev Updates proposal's major details (Called from close proposal vote)\r\n    /// @param _proposalId Proposal id\r\n    /// @param _currVotingStatus Current voting status\r\n    /// @param _intermediateVerdict Intermediate verdict\r\n    /// @param _finalVerdict Final verdict\r\n    function updateProposalDetails(uint _proposalId,uint8 _currVotingStatus, uint8 _intermediateVerdict,uint8 _finalVerdict) onlyInternal \r\n    {\r\n        // GD=governanceData(GDAddress);\r\n        GD.setProposalCurrentVotingId(_proposalId,_currVotingStatus);\r\n        GD.setProposalIntermediateVerdict(_proposalId,_intermediateVerdict);\r\n        GD.setProposalFinalVerdict(_proposalId,_finalVerdict);\r\n        GD.setProposalDateUpd(_proposalId);\r\n    }\r\n\r\n    /// @dev Updating proposal details after reward being distributed\r\n    /// @param _proposalId Proposal id\r\n    /// @param _totalRewardToDistribute Total reward to be distributed\r\n    /// @param _totalVoteValue Total vote value not favourable to the solution to the proposal \r\n    function setProposalDetails(uint _proposalId,uint _totalRewardToDistribute,uint _totalVoteValue) onlyInternal\r\n    {\r\n       //GD=governanceData(GDAddress);\r\n       GD.setProposalTotalReward(_proposalId,_totalRewardToDistribute);\r\n       GD.setProposalTotalVoteValue(_proposalId,_totalVoteValue);\r\n    }\r\n\r\n    /// @dev Gets total incentive by dApp\r\n    /// @return allIncentive All proposals' incentive\r\n    function getTotalIncentiveByDapp()constant returns (uint allIncentive)\r\n    {\r\n        // GD=governanceData(GDAddress);\r\n        for(uint i=0; i<GD.getProposalLength(); i++)\r\n        {\r\n            allIncentive =  allIncentive + GD.getProposalIncentive(i);\r\n        }\r\n    }\r\n\r\n    /// @dev Calculates proposal reward \r\n    /// @param _memberAddress Member address\r\n    /// @param _lastRewardProposalId Last reward's proposal id\r\n    function calculateProposalReward(address  _memberAddress,uint _lastRewardProposalId) internal\r\n    {\r\n        // GD=governanceData(GDAddress);\r\n        uint allProposalLength = GD.getProposalLength();\r\n        uint lastIndex = 0; uint category;uint finalVredict;uint proposalStatus;uint calcReward;\r\n\r\n        for(uint i=_lastRewardProposalId; i<allProposalLength; i++)\r\n        {   \r\n            if(_memberAddress == GD.getProposalOwner(i))\r\n              {\r\n                  (,,category,proposalStatus,finalVredict) = GD.getProposalDetailsById3(i);\r\n                  if(proposalStatus< 2)\r\n                      lastIndex = i;\r\n                  if(proposalStatus > 2 && finalVredict > 0 && GD.getReturnedTokensFlag(_memberAddress,i,'P') == 0)\r\n                  {\r\n                      calcReward = (PC.getRewardPercProposal(category)*GD.getProposalTotalReward(i))/100;\r\n                      finalRewardToDistribute = finalRewardToDistribute + calcReward + GD.getDepositedTokens(_memberAddress,i,'P');\r\n                      GD.callRewardEvent(_memberAddress,i,\"GBT Reward for being Proposal owner - Accepted \",calcReward);\r\n                      GD.setReturnedTokensFlag(_memberAddress,i,'P',1);\r\n                  } \r\n              }\r\n        }\r\n\r\n        if(lastIndex == 0)\r\n           lastIndex = i;\r\n        GD.setLastRewardId_ofCreatedProposals(_memberAddress,lastIndex);\r\n    }\r\n\r\n    /// @dev Calculates solution reward\r\n    /// @param _memberAddress Member address\r\n    /// @param _lastRewardSolutionProposalId Last reward solution's proposal id\r\n    function calculateSolutionReward(address _memberAddress,uint _lastRewardSolutionProposalId) internal\r\n    {\r\n        // GD=governanceData(GDAddress);\r\n        uint allProposalLength = GD.getProposalLength(); uint calcReward;\r\n        uint lastIndex = 0;uint i;uint proposalStatus;uint finalVerdict;uint solutionId;uint proposalId;uint totalReward;uint category;\r\n        for(i=_lastRewardSolutionProposalId; i<allProposalLength; i++)\r\n        {\r\n            (proposalId,solutionId,proposalStatus,finalVerdict,totalReward,category) = getSolutionId_againstAddressProposal(_memberAddress,i);\r\n            if(proposalId == i)\r\n            {\r\n              if(proposalStatus< 2)\r\n                  lastIndex = i;\r\n\r\n              if(finalVerdict> 0 && finalVerdict == solutionId && GD.getReturnedTokensFlag(_memberAddress,proposalId,'S') == 0)\r\n              {\r\n                  calcReward = (PC.getRewardPercSolution(category)*totalReward)/100;\r\n                  finalRewardToDistribute = finalRewardToDistribute + calcReward + GD.getDepositedTokens(_memberAddress,i,'S');\r\n                  GD.callRewardEvent(_memberAddress,i,\"GBT Reward earned for being Solution owner - Final Solution by majority voting\",calcReward);\r\n                  GD.setReturnedTokensFlag(_memberAddress,i,'S',1);\r\n              }\r\n            }\r\n        }\r\n\r\n         if(lastIndex == 0)\r\n          lastIndex = i;\r\n        GD.setLastRewardId_ofSolutionProposals(_memberAddress,lastIndex);\r\n    }\r\n\r\n    /// @dev Calculates vote reward \r\n    /// @param _memberAddress Member address\r\n    /// @param _lastRewardVoteId Last reward vote id\r\n    function calculateVoteReward(address _memberAddress,uint _lastRewardVoteId) internal\r\n    {\r\n        // GD=governanceData(GDAddress);\r\n        uint allProposalLength = GD.getProposalLength(); uint calcReward;\r\n        uint lastIndex = 0;uint i;uint solutionChosen;uint proposalStatus;uint finalVredict;uint voteValue;uint totalReward;uint category;\r\n\r\n        for(i=_lastRewardVoteId; i<allProposalLength; i++)\r\n        {\r\n            (solutionChosen,proposalStatus,finalVredict,voteValue,totalReward,category,) = getVoteDetails_toCalculateReward(_memberAddress,i);\r\n            if(proposalStatus < 2)\r\n                lastIndex = i;\r\n\r\n            if(finalVredict > 0 && solutionChosen == finalVredict && GD.getReturnedTokensFlag(_memberAddress,i,'V') == 0)\r\n            {\r\n                calcReward = (PC.getRewardPercVote(category)*totalReward*voteValue)/(100*GD.getProposalTotalReward(i));\r\n                finalRewardToDistribute = finalRewardToDistribute + calcReward + GD.getDepositedTokens(_memberAddress,i,'V');\r\n                GD.callRewardEvent(_memberAddress,i,\"GBT Reward earned for voting in favour of final Solution\",calcReward);\r\n                GD.setReturnedTokensFlag(_memberAddress,i,'V',1);\r\n            }\r\n        }\r\n        if(lastIndex == 0)\r\n          lastIndex = i;\r\n        GD.setLastRewardId_ofVotes(_memberAddress,lastIndex);\r\n    }\r\n\r\n    /// @dev Gets vote details to calculate reward\r\n    /// @param _memberAddress Member address\r\n    /// @param _proposalId Proposal id\r\n    /// @return solutionChosen Solution chosen\r\n    /// @return proposalStatus Proposal status\r\n    /// @return finalVerdict Final verdict of the solution\r\n    /// @return voteValue Vote value\r\n    /// @return totalReward Total reward\r\n    /// @return category Category \r\n    /// @return totalVoteValueProposal Total vote value of proposal\r\n    function getVoteDetails_toCalculateReward(address _memberAddress,uint _proposalId) internal constant returns(uint solutionChosen,uint proposalStatus,uint finalVerdict,uint voteValue,uint totalReward,uint category,uint totalVoteValueProposal) \r\n    {\r\n        // GD=governanceData(GDAddress);\r\n        uint voteId= GD.getVoteId_againstMember(_memberAddress,_proposalId);\r\n\r\n        solutionChosen = GD.getSolutionByVoteIdAndIndex(voteId,0);\r\n        proposalStatus = GD.getProposalStatus(_proposalId);\r\n        finalVerdict = GD.getProposalFinalVerdict(_proposalId);\r\n        voteValue = GD.getVoteValue(voteId);\r\n        totalReward = GD.getProposalTotalReward(_proposalId);\r\n        category = GD.getProposalCategory(_proposalId);\r\n        totalVoteValueProposal =GD.getProposalTotalVoteValue(_proposalId);\r\n    }\r\n\r\n\r\n\r\n// VERSION 2.0 USER DETAILS :\r\n  \r\n\r\n    /// @dev Calculates member reward to be claimed\r\n    /// @param _memberAddress Member address\r\n    /// @return rewardToClaim Rewards to be claimed\r\n    function calculateMemberReward(address _memberAddress) constant returns(uint rewardToClaim)\r\n    {\r\n        // PC=ProposalCategory(PCAddress);\r\n        // GD=governanceData(GDAddress);\r\n        // GBTS=GBTStandardToken(GBTSAddress);\r\n        uint lastRewardProposalId;uint lastRewardSolutionProposalId;uint lastRewardVoteId; finalRewardToDistribute=0;\r\n        (lastRewardProposalId,lastRewardSolutionProposalId,lastRewardVoteId) = GD.getAllidsOfLastReward(_memberAddress);\r\n\r\n        calculateProposalReward(_memberAddress,lastRewardProposalId);\r\n        calculateSolutionReward(_memberAddress,lastRewardSolutionProposalId);\r\n        calculateVoteReward(_memberAddress,lastRewardVoteId);\r\n        return finalRewardToDistribute;\r\n    }\r\n\r\n    /// @dev Gets member details\r\n    /// @param _memberAddress Member address\r\n    /// @return memberReputation Member reputation\r\n    /// @return totalProposal Total number of proposals\r\n    /// @return totalSolution Total solution\r\n    /// @return totalVotes Total number of votes\r\n    function getMemberDetails(address _memberAddress) constant returns(uint memberReputation, uint totalProposal,uint totalSolution,uint totalVotes)\r\n    {\r\n        // GD=governanceData(GDAddress);\r\n        memberReputation = GD.getMemberReputation(_memberAddress);\r\n        totalProposal = getAllProposalIdsLength_byAddress(_memberAddress);\r\n        totalSolution = getAllSolutionIdsLength_byAddress(_memberAddress);\r\n        totalVotes = getAllVoteIdsLength_byAddress(_memberAddress);\r\n    }\r\n\r\n    /// @dev Gets total number of vote casted of a member\r\n    /// @param _memberAddress Member address\r\n    /// @return totalVoteCasted Total number of vote casted\r\n    function getAllVoteids_byAddress(address _memberAddress) constant returns(uint[] totalVoteCasted)\r\n    {\r\n        uint length= GD.getProposalLength(); uint8 j=0;\r\n        uint totalVoteCount = getAllVoteIdsLength_byAddress(_memberAddress);\r\n        totalVoteCasted = new uint[](totalVoteCount);\r\n        for(uint i=0; i<length; i++)\r\n        {\r\n            uint voteId = GD.getVoteId_againstMember(_memberAddress,i);\r\n            if(voteId != 0)\r\n            {\r\n                totalVoteCasted[j] = voteId;\r\n                j++;\r\n            }\r\n        }\r\n    }\r\n\r\n    /// @dev Gets all vote ids length casted by member\r\n    /// @param _memberAddress Member address\r\n    /// @return totalVoteCount Total vote count\r\n    function getAllVoteIdsLength_byAddress(address _memberAddress)constant returns(uint totalVoteCount)\r\n    {\r\n        uint length= GD.getProposalLength();\r\n        for(uint i=0; i<length; i++)\r\n        {\r\n            uint voteId = GD.getVoteId_againstMember(_memberAddress,i);\r\n            if(voteId != 0)\r\n                totalVoteCount++;\r\n        }\r\n    }\r\n\r\n     /// @dev Gets all proposal ids created by a member\r\n     /// @param _memberAddress Member address \r\n     /// @return totalProposalCreated Arrays of total proposals created by a member\r\n    function getAllProposalIds_byAddress(address _memberAddress) constant returns(uint[] totalProposalCreated)\r\n    {\r\n        uint length = GD.getProposalLength(); uint8 j;\r\n        uint proposalLength = getAllProposalIdsLength_byAddress(_memberAddress);\r\n        totalProposalCreated=new uint[](proposalLength);\r\n        for(uint i=0; i<length; i++)\r\n        {\r\n            if(_memberAddress == GD.getProposalOwner(i))\r\n            {\r\n                totalProposalCreated[j] = i;\r\n                j++;\r\n            }\r\n        }\r\n    }\r\n\r\n    /// @dev Gets total votes against a proposal when given proposal id\r\n    /// @param _proposalId Proposal id\r\n    /// @return totalVotes total votes against a proposal\r\n    function getAllVoteIdsLength_byProposal(uint _proposalId) constant returns(uint totalVotes)\r\n    {\r\n        // MR=memberRoles(MRAddress);\r\n        uint length = MR.getTotalMemberRoles();\r\n        for(uint i =0; i<length; i++)\r\n        {\r\n            totalVotes = totalVotes + GD.getAllVoteIdsLength_byProposalRole(_proposalId,i);\r\n        }\r\n    }\r\n\r\n    /// @dev Gets length of all created proposals by member\r\n    /// @param _memberAddress Member address\r\n    /// @return totalProposalCount Total proposal count\r\n    function getAllProposalIdsLength_byAddress(address _memberAddress) constant returns(uint totalProposalCount)\r\n    {\r\n        uint length = GD.getProposalLength();\r\n        for(uint i=0; i<length; i++)\r\n        {\r\n            if(_memberAddress == GD.getProposalOwner(i))\r\n                totalProposalCount++;\r\n        }\r\n    }\r\n\r\n\r\n    /// @dev Gets solutionId id against proposal of a member\r\n    /// @param _memberAddress Member address\r\n    /// @param _proposalId Proposal id\r\n    /// @return proposalId Proposal id\r\n    /// @return solutionId Solution id\r\n    /// @return proposalStatus Proposal status\r\n    /// @return finalVerdict Final verdict\r\n    /// @return totalReward Total reward \r\n    /// @return category Category\r\n    function getSolutionId_againstAddressProposal(address _memberAddress,uint _proposalId)constant returns(uint proposalId,uint solutionId,uint proposalStatus,uint finalVerdict,uint totalReward,uint category) \r\n    {\r\n        for(uint i=0; i<GD.getTotalSolutions(_proposalId); i++)\r\n        {\r\n            if(_memberAddress == GD.getSolutionAddedByProposalId(_proposalId,i))\r\n            {\r\n                solutionId = i;\r\n                proposalId = _proposalId;\r\n                proposalStatus = GD.getProposalStatus(_proposalId);\r\n                finalVerdict = GD.getProposalFinalVerdict(_proposalId);\r\n                totalReward = GD.getProposalTotalReward(_proposalId);\r\n                category = GD.getProposalCategory(_proposalId);\r\n                break;\r\n            }\r\n        } \r\n    }\r\n\r\n    //  /// @dev Gets proposal answer/solution by address\r\n    //  /// @param _memberAddress Member address\r\n    //  /// @return proposalIds Proposal ids\r\n    //  /// @return solutionIds Solution ids\r\n    //  /// @return totalSolution All soultions of a member\r\n    // function getAllSolutionIds_byAddress(address _memberAddress)constant returns(uint[] proposalIds, uint[] solutionProposalIds,uint totalSolution) \r\n    // {\r\n    //     uint length = GD.getProposalLength(); uint8 m;\r\n    //     uint solutionProposalLength =  getAllSolutionIdsLength_byAddress(_memberAddress);\r\n    //     proposalIds = new uint[](solutionProposalLength);\r\n    //     solutionProposalIds = new uint[](solutionProposalLength);\r\n    //     for(uint i=0; i<length; i++)\r\n    //     {\r\n    //         for(uint j=0; j<GD.getTotalSolutions(i); j++)\r\n    //         {\r\n    //             if(_memberAddress == GD.getSolutionAddedByProposalId(i,j))\r\n    //             {\r\n    //                 proposalIds[m] = i;\r\n    //                 solutionProposalIds[m] = j;\r\n    //                 m++;\r\n    //             }\r\n    //         }\r\n    //     }\r\n    // }\r\n\r\n    /// @dev Gets all solution ids length by address\r\n    /// @param _memberAddress Member address\r\n    /// @return totalSolutionProposalCount Total solution proposal count\r\n    function getAllSolutionIdsLength_byAddress(address _memberAddress)constant returns(uint totalSolutionProposalCount)\r\n    {\r\n        uint length = GD.getProposalLength();\r\n        for(uint i=0; i<length; i++)\r\n        {\r\n            for(uint j=0; j<GD.getTotalSolutions(i); j++)\r\n            {\r\n                if(_memberAddress == GD.getSolutionAddedByProposalId(i,j))\r\n                    totalSolutionProposalCount++;\r\n            }\r\n        }\r\n    }\r\n\r\n    /// @dev Get Total tokens deposited by member till date against all proposal.\r\n    function getAllDepositTokens_byAddress(address _memberAddress)constant returns(uint,uint,uint)\r\n    {\r\n        uint length = GD.getProposalLength();\r\n        uint depositFor_creatingProposal; uint depositFor_proposingSolution; uint depositFor_castingVote;\r\n        for(uint8 i=0; i<length; i++)\r\n        {\r\n            depositFor_creatingProposal = depositFor_creatingProposal + GD.getDepositedTokens(_memberAddress,i,\"P\");\r\n            depositFor_proposingSolution = depositFor_proposingSolution + GD.getDepositedTokens(_memberAddress,i,\"S\");\r\n            depositFor_castingVote = depositFor_castingVote + GD.getDepositedTokens(_memberAddress,i,\"V\");\r\n        }\r\n\r\n        return (depositFor_creatingProposal,depositFor_proposingSolution,depositFor_castingVote);\r\n    }\r\n\r\n}",
  "sourcePath": "D:\\RUCHITA\\GovBlocks-Protocol Access-Modifiers\\contracts\\Governance.sol",
  "compiler": {
    "name": "solc",
    "version": "0.4.18+commit.9cf6e910.Emscripten.clang"
  },
  "schemaVersion": "1.0.1",
  "updatedAt": "2018-04-26T12:00:44.133Z"
}