{
  "contractName": "governanceData",
  "abi": [
    {
      "constant": true,
      "inputs": [
        {
          "name": "_proposalid",
          "type": "uint256"
        }
      ],
      "name": "getProposalVoteCount",
      "outputs": [
        {
          "name": "acceptABvote",
          "type": "uint256"
        },
        {
          "name": "denyABvote",
          "type": "uint256"
        },
        {
          "name": "MemberAccept",
          "type": "uint256"
        },
        {
          "name": "MemberDeny",
          "type": "uint256"
        }
      ],
      "payable": false,
      "stateMutability": "view",
      "type": "function"
    },
    {
      "constant": true,
      "inputs": [
        {
          "name": "_shortDesc",
          "type": "string"
        },
        {
          "name": "_longDesc",
          "type": "string"
        }
      ],
      "name": "totalVotes",
      "outputs": [
        {
          "name": "",
          "type": "uint256"
        }
      ],
      "payable": false,
      "stateMutability": "view",
      "type": "function"
    },
    {
      "constant": true,
      "inputs": [
        {
          "name": "",
          "type": "address"
        },
        {
          "name": "_shortDesc",
          "type": "string"
        },
        {
          "name": "_longDesc",
          "type": "string"
        }
      ],
      "name": "advisoryBoardMembers",
      "outputs": [
        {
          "name": "",
          "type": "uint8"
        }
      ],
      "payable": false,
      "stateMutability": "view",
      "type": "function"
    },
    {
      "constant": false,
      "inputs": [
        {
          "name": "_memberAddress",
          "type": "address"
        },
        {
          "name": "_shortDesc",
          "type": "string"
        },
        {
          "name": "_longDesc",
          "type": "string"
        }
      ],
      "name": "removeAdvisoryBoard",
      "outputs": [],
      "payable": false,
      "stateMutability": "nonpayable",
      "type": "function"
    },
    {
      "constant": true,
      "inputs": [
        {
          "name": "_memberAddress",
          "type": "address"
        },
        {
          "name": "_versionNum",
          "type": "uint256"
        }
      ],
      "name": "isOwner",
      "outputs": [
        {
          "name": "checkOwner",
          "type": "uint256"
        },
        {
          "name": "shortDesc",
          "type": "string"
        },
        {
          "name": "longDesc",
          "type": "string"
        },
        {
          "name": "date_add",
          "type": "uint256"
        }
      ],
      "payable": false,
      "stateMutability": "view",
      "type": "function"
    },
    {
      "constant": false,
      "inputs": [
        {
          "name": "_memberAddress",
          "type": "address"
        }
      ],
      "name": "joinAdvisoryBoard",
      "outputs": [
        {
          "name": "owner",
          "type": "address"
        },
        {
          "name": "shortDesc",
          "type": "string"
        },
        {
          "name": "longDesc",
          "type": "string"
        },
        {
          "name": "date_add",
          "type": "uint256"
        },
        {
          "name": "date_upd",
          "type": "uint256"
        },
        {
          "name": "versionNum",
          "type": "uint256"
        }
      ],
      "payable": false,
      "stateMutability": "nonpayable",
      "type": "function"
    },
    {
      "constant": false,
      "inputs": [
        {
          "name": "_id",
          "type": "uint256"
        },
        {
          "name": "_categoryId",
          "type": "uint256"
        },
        {
          "name": "_paramInt",
          "type": "uint8[]"
        },
        {
          "name": "_paramBytes32",
          "type": "bytes32[]"
        },
        {
          "name": "_paramAddress",
          "type": "address[]"
        }
      ],
      "name": "categorizeProposal",
      "outputs": [],
      "payable": false,
      "stateMutability": "nonpayable",
      "type": "function"
    },
    {
      "constant": true,
      "inputs": [
        {
          "name": "",
          "type": "uint256"
        }
      ],
      "name": "status",
      "outputs": [
        {
          "name": "",
          "type": "string"
        }
      ],
      "payable": false,
      "stateMutability": "view",
      "type": "function"
    },
    {
      "constant": false,
      "inputs": [
        {
          "name": "_proposalId",
          "type": "uint256"
        },
        {
          "name": "_verdict",
          "type": "int8"
        }
      ],
      "name": "proposalVoteByABmember",
      "outputs": [],
      "payable": false,
      "stateMutability": "nonpayable",
      "type": "function"
    },
    {
      "constant": true,
      "inputs": [
        {
          "name": "_voteid",
          "type": "uint256"
        }
      ],
      "name": "getVoteDetailByid",
      "outputs": [
        {
          "name": "voter",
          "type": "address"
        },
        {
          "name": "proposalId",
          "type": "uint256"
        },
        {
          "name": "verdict",
          "type": "int256"
        },
        {
          "name": "dateSubmit",
          "type": "uint256"
        }
      ],
      "payable": false,
      "stateMutability": "view",
      "type": "function"
    },
    {
      "constant": false,
      "inputs": [
        {
          "name": "_categoryId",
          "type": "uint256"
        },
        {
          "name": "_categoryName",
          "type": "string"
        },
        {
          "name": "_memberVoteRequired",
          "type": "uint64"
        },
        {
          "name": "_majorityVote",
          "type": "uint16"
        },
        {
          "name": "_functionName",
          "type": "string"
        },
        {
          "name": "_contractAt",
          "type": "address"
        },
        {
          "name": "_paramInt",
          "type": "uint8"
        },
        {
          "name": "_paramBytes32",
          "type": "uint8"
        },
        {
          "name": "_paramAddress",
          "type": "uint8"
        }
      ],
      "name": "updateCategory",
      "outputs": [],
      "payable": false,
      "stateMutability": "nonpayable",
      "type": "function"
    },
    {
      "constant": false,
      "inputs": [
        {
          "name": "_categoryName",
          "type": "string"
        },
        {
          "name": "_memberVoteRequired",
          "type": "uint8"
        },
        {
          "name": "_majorityVote",
          "type": "uint8"
        },
        {
          "name": "_functionName",
          "type": "string"
        },
        {
          "name": "_contractAt",
          "type": "address"
        },
        {
          "name": "_paramInt",
          "type": "uint8"
        },
        {
          "name": "_paramBytes32",
          "type": "uint8"
        },
        {
          "name": "_paramAddress",
          "type": "uint8"
        }
      ],
      "name": "addNewCategory",
      "outputs": [],
      "payable": false,
      "stateMutability": "nonpayable",
      "type": "function"
    },
    {
      "constant": false,
      "inputs": [
        {
          "name": "_proposalId",
          "type": "uint256"
        },
        {
          "name": "_verdict",
          "type": "int8"
        }
      ],
      "name": "proposalVoteByMember",
      "outputs": [],
      "payable": false,
      "stateMutability": "nonpayable",
      "type": "function"
    },
    {
      "constant": true,
      "inputs": [
        {
          "name": "_proposalid",
          "type": "uint256"
        }
      ],
      "name": "getProposalCategory",
      "outputs": [
        {
          "name": "category",
          "type": "uint256"
        }
      ],
      "payable": false,
      "stateMutability": "view",
      "type": "function"
    },
    {
      "constant": true,
      "inputs": [],
      "name": "owner",
      "outputs": [
        {
          "name": "",
          "type": "address"
        }
      ],
      "payable": false,
      "stateMutability": "view",
      "type": "function"
    },
    {
      "constant": false,
      "inputs": [
        {
          "name": "_id",
          "type": "uint256"
        }
      ],
      "name": "changeProposalVotingStatus",
      "outputs": [],
      "payable": false,
      "stateMutability": "nonpayable",
      "type": "function"
    },
    {
      "constant": false,
      "inputs": [
        {
          "name": "_shortDesc",
          "type": "string"
        },
        {
          "name": "_longDesc",
          "type": "string"
        }
      ],
      "name": "addNewProposal",
      "outputs": [],
      "payable": false,
      "stateMutability": "nonpayable",
      "type": "function"
    },
    {
      "constant": true,
      "inputs": [],
      "name": "getTotalVotes",
      "outputs": [
        {
          "name": "voteLength",
          "type": "uint256"
        }
      ],
      "payable": false,
      "stateMutability": "view",
      "type": "function"
    },
    {
      "constant": false,
      "inputs": [
        {
          "name": "_memberAddress",
          "type": "address"
        }
      ],
      "name": "changeOwner",
      "outputs": [],
      "payable": false,
      "stateMutability": "nonpayable",
      "type": "function"
    },
    {
      "constant": true,
      "inputs": [
        {
          "name": "_categoryId",
          "type": "uint256"
        }
      ],
      "name": "getCategoryDetails",
      "outputs": [
        {
          "name": "categoryName",
          "type": "string"
        },
        {
          "name": "memberVoteRequired",
          "type": "uint8"
        },
        {
          "name": "majorityVote",
          "type": "uint8"
        },
        {
          "name": "functionName",
          "type": "string"
        },
        {
          "name": "contractAt",
          "type": "address"
        },
        {
          "name": "paramInt",
          "type": "uint8"
        },
        {
          "name": "paramBytes32",
          "type": "uint8"
        },
        {
          "name": "paramAddress",
          "type": "uint8"
        }
      ],
      "payable": false,
      "stateMutability": "view",
      "type": "function"
    },
    {
      "constant": false,
      "inputs": [
        {
          "name": "_id",
          "type": "uint256"
        },
        {
          "name": "_shortDesc",
          "type": "string"
        },
        {
          "name": "_longDesc",
          "type": "string"
        }
      ],
      "name": "editProposal",
      "outputs": [],
      "payable": false,
      "stateMutability": "nonpayable",
      "type": "function"
    },
    {
      "constant": false,
      "inputs": [
        {
          "name": "_id",
          "type": "uint256"
        },
        {
          "name": "_status",
          "type": "uint256"
        }
      ],
      "name": "changeProposalStatus",
      "outputs": [],
      "payable": false,
      "stateMutability": "nonpayable",
      "type": "function"
    },
    {
      "constant": true,
      "inputs": [
        {
          "name": "_id",
          "type": "uint256"
        },
        {
          "name": "_versionNum",
          "type": "uint256"
        }
      ],
      "name": "getProposalDetailsByIdAndVersion",
      "outputs": [
        {
          "name": "versionNum",
          "type": "uint256"
        },
        {
          "name": "shortDesc",
          "type": "string"
        },
        {
          "name": "longDesc",
          "type": "string"
        },
        {
          "name": "date_add",
          "type": "uint256"
        }
      ],
      "payable": false,
      "stateMutability": "view",
      "type": "function"
    },
    {
      "constant": true,
      "inputs": [
        {
          "name": "_id",
          "type": "uint256"
        }
      ],
      "name": "getProposalDetailsById",
      "outputs": [
        {
          "name": "owner",
          "type": "address"
        },
        {
          "name": "shortDesc",
          "type": "string"
        },
        {
          "name": "longDesc",
          "type": "string"
        },
        {
          "name": "date_add",
          "type": "uint256"
        },
        {
          "name": "date_upd",
          "type": "uint256"
        },
        {
          "name": "versionNum",
          "type": "uint256"
        },
        {
          "name": "status",
          "type": "uint256"
        }
      ],
      "payable": false,
      "stateMutability": "view",
      "type": "function"
    },
    {
      "constant": true,
      "inputs": [
        {
          "name": "",
          "type": "uint256"
        }
      ],
      "name": "allCategory",
      "outputs": [
        {
          "name": "categoryName",
          "type": "string"
        },
        {
          "name": "memberVoteRequired",
          "type": "uint8"
        },
        {
          "name": "majorityVote",
          "type": "uint8"
        },
        {
          "name": "functionName",
          "type": "string"
        },
        {
          "name": "contractAt",
          "type": "address"
        },
        {
          "name": "paramInt",
          "type": "uint8"
        },
        {
          "name": "paramBytes32",
          "type": "uint8"
        },
        {
          "name": "paramAddress",
          "type": "uint8"
        }
      ],
      "payable": false,
      "stateMutability": "view",
      "type": "function"
    },
    {
      "constant": true,
      "inputs": [],
      "name": "getCategoriesLength",
      "outputs": [
        {
          "name": "length",
          "type": "uint256"
        }
      ],
      "payable": false,
      "stateMutability": "view",
      "type": "function"
    },
    {
      "constant": false,
      "inputs": [
        {
          "name": "_categoryId",
          "type": "uint256"
        },
        {
          "name": "_memberVoteRequired",
          "type": "uint8"
        }
      ],
      "name": "updateCategory_memberVote",
      "outputs": [],
      "payable": false,
      "stateMutability": "nonpayable",
      "type": "function"
    },
    {
      "inputs": [],
      "payable": false,
      "stateMutability": "nonpayable",
      "type": "constructor"
    }
  ],
  "bytecode": "0x606060405234156200001057600080fd5b336000806101000a81548173ffffffffffffffffffffffffffffffffffffffff021916908373ffffffffffffffffffffffffffffffffffffffff1602179055506200006e620000926401000000000262003801176401000000009004565b6200008c62001cfe640100000000026200541f176401000000009004565b62002563565b60028054806001018281620000a891906200227b565b91600052602060002090600402016000610100604051908101604052806040805190810160405280600d81526020017f556e63617465676f7269736564000000000000000000000000000000000000008152508152602001600060ff168152602001600060ff16815260200160206040519081016040528060008152508152602001600073ffffffffffffffffffffffffffffffffffffffff168152602001600060ff168152602001600060ff168152602001600060ff168152509091909150600082015181600001908051906020019062000186929190620022b0565b5060208201518160010160006101000a81548160ff021916908360ff16021790555060408201518160010160016101000a81548160ff021916908360ff1602179055506060820151816002019080519060200190620001e7929190620022b0565b5060808201518160030160006101000a81548173ffffffffffffffffffffffffffffffffffffffff021916908373ffffffffffffffffffffffffffffffffffffffff16021790555060a08201518160030160146101000a81548160ff021916908360ff16021790555060c08201518160030160156101000a81548160ff021916908360ff16021790555060e08201518160030160166101000a81548160ff021916908360ff16021790555050505060028054806001018281620002ab91906200227b565b9160005260206000209060040201600061010060405190810160405280608060405190810160405280604481526020017f46696c746572206d656d6265722070726f706f73616c73206173206e6563657381526020017f73617279287768696368206172652070757420746f2061206d656d626572207681526020017f6f746529000000000000000000000000000000000000000000000000000000008152508152602001600060ff168152602001603c60ff16815260200160206040519081016040528060008152508152602001600073ffffffffffffffffffffffffffffffffffffffff168152602001600160ff168152602001600260ff168152602001600160ff1681525090919091506000820151816000019080519060200190620003d6929190620022b0565b5060208201518160010160006101000a81548160ff021916908360ff16021790555060408201518160010160016101000a81548160ff021916908360ff160217905550606082015181600201908051906020019062000437929190620022b0565b5060808201518160030160006101000a81548173ffffffffffffffffffffffffffffffffffffffff021916908373ffffffffffffffffffffffffffffffffffffffff16021790555060a08201518160030160146101000a81548160ff021916908360ff16021790555060c08201518160030160156101000a81548160ff021916908360ff16021790555060e08201518160030160166101000a81548160ff021916908360ff16021790555050505060028054806001018281620004fb91906200227b565b9160005260206000209060040201600061010060405190810160405280606060405190810160405280602881526020017f496d706c656d656e742072756e2d6f666620616e6420636c6f7365206e65772081526020017f627573696e6573730000000000000000000000000000000000000000000000008152508152602001600160ff168152602001605060ff16815260200160206040519081016040528060008152508152602001600073ffffffffffffffffffffffffffffffffffffffff168152602001600060ff168152602001600060ff168152602001600060ff168152509091909150600082015181600001908051906020019062000600929190620022b0565b5060208201518160010160006101000a81548160ff021916908360ff16021790555060408201518160010160016101000a81548160ff021916908360ff160217905550606082015181600201908051906020019062000661929190620022b0565b5060808201518160030160006101000a81548173ffffffffffffffffffffffffffffffffffffffff021916908373ffffffffffffffffffffffffffffffffffffffff16021790555060a08201518160030160146101000a81548160ff021916908360ff16021790555060c08201518160030160156101000a81548160ff021916908360ff16021790555060e08201518160030160166101000a81548160ff021916908360ff160217905550505050600280548060010182816200072591906200227b565b9160005260206000209060040201600061010060405190810160405280606060405190810160405280602581526020017f4275726e206672617564756c656e7420636c61696d206173736573736f72207481526020017f6f6b656e730000000000000000000000000000000000000000000000000000008152508152602001600060ff168152602001605060ff16815260200160206040519081016040528060008152508152602001600073ffffffffffffffffffffffffffffffffffffffff168152602001600060ff168152602001600060ff168152602001600060ff16815250909190915060008201518160000190805190602001906200082a929190620022b0565b5060208201518160010160006101000a81548160ff021916908360ff16021790555060408201518160010160016101000a81548160ff021916908360ff16021790555060608201518160020190805190602001906200088b929190620022b0565b5060808201518160030160006101000a81548173ffffffffffffffffffffffffffffffffffffffff021916908373ffffffffffffffffffffffffffffffffffffffff16021790555060a08201518160030160146101000a81548160ff021916908360ff16021790555060c08201518160030160156101000a81548160ff021916908360ff16021790555060e08201518160030160166101000a81548160ff021916908360ff160217905550505050600280548060010182816200094f91906200227b565b9160005260206000209060040201600061010060405190810160405280608060405190810160405280605781526020017f506175736520436c61696d204173736573736f7273206162696c69747920746f81526020017f2061737365737320636c61696d7320666f72203320646179732e43616e206f6e81526020017f6c7920626520646f6e65206f6e63652061206d6f6e74680000000000000000008152508152602001600060ff168152602001603c60ff16815260200160206040519081016040528060008152508152602001600073ffffffffffffffffffffffffffffffffffffffff168152602001600060ff168152602001600060ff168152602001600060ff168152509091909150600082015181600001908051906020019062000a7a929190620022b0565b5060208201518160010160006101000a81548160ff021916908360ff16021790555060408201518160010160016101000a81548160ff021916908360ff160217905550606082015181600201908051906020019062000adb929190620022b0565b5060808201518160030160006101000a81548173ffffffffffffffffffffffffffffffffffffffff021916908373ffffffffffffffffffffffffffffffffffffffff16021790555060a08201518160030160146101000a81548160ff021916908360ff16021790555060c08201518160030160156101000a81548160ff021916908360ff16021790555060e08201518160030160166101000a81548160ff021916908360ff1602179055505050506002805480600101828162000b9f91906200227b565b91600052602060002090600402016000610100604051908101604052806040805190810160405280601881526020017f4368616e67657320746f204361706974616c204d6f64656c00000000000000008152508152602001600160ff168152602001603c60ff16815260200160206040519081016040528060008152508152602001600073ffffffffffffffffffffffffffffffffffffffff168152602001600060ff168152602001600060ff168152602001600060ff168152509091909150600082015181600001908051906020019062000c7d929190620022b0565b5060208201518160010160006101000a81548160ff021916908360ff16021790555060408201518160010160016101000a81548160ff021916908360ff160217905550606082015181600201908051906020019062000cde929190620022b0565b5060808201518160030160006101000a81548173ffffffffffffffffffffffffffffffffffffffff021916908373ffffffffffffffffffffffffffffffffffffffff16021790555060a08201518160030160146101000a81548160ff021916908360ff16021790555060c08201518160030160156101000a81548160ff021916908360ff16021790555060e08201518160030160166101000a81548160ff021916908360ff1602179055505050506002805480600101828162000da291906200227b565b91600052602060002090600402016000610100604051908101604052806040805190810160405280601281526020017f4368616e67657320746f2050726963696e6700000000000000000000000000008152508152602001600160ff168152602001603c60ff16815260200160206040519081016040528060008152508152602001600073ffffffffffffffffffffffffffffffffffffffff168152602001600060ff168152602001600060ff168152602001600060ff168152509091909150600082015181600001908051906020019062000e80929190620022b0565b5060208201518160010160006101000a81548160ff021916908360ff16021790555060408201518160010160016101000a81548160ff021916908360ff160217905550606082015181600201908051906020019062000ee1929190620022b0565b5060808201518160030160006101000a81548173ffffffffffffffffffffffffffffffffffffffff021916908373ffffffffffffffffffffffffffffffffffffffff16021790555060a08201518160030160146101000a81548160ff021916908360ff16021790555060c08201518160030160156101000a81548160ff021916908360ff16021790555060e08201518160030160166101000a81548160ff021916908360ff1602179055505050506002805480600101828162000fa591906200227b565b9160005260206000209060040201600061010060405190810160405280608060405190810160405280604881526020017f456e6761676520696e2065787465726e616c207365727669636573207570207481526020017f6f207468652067726561746572206f66202435302c303030555344206f72203281526020017f25206f66204d43520000000000000000000000000000000000000000000000008152508152602001600060ff168152602001605060ff16815260200160206040519081016040528060008152508152602001600073ffffffffffffffffffffffffffffffffffffffff168152602001600060ff168152602001600060ff168152602001600060ff1681525090919091506000820151816000019080519060200190620010d0929190620022b0565b5060208201518160010160006101000a81548160ff021916908360ff16021790555060408201518160010160016101000a81548160ff021916908360ff160217905550606082015181600201908051906020019062001131929190620022b0565b5060808201518160030160006101000a81548173ffffffffffffffffffffffffffffffffffffffff021916908373ffffffffffffffffffffffffffffffffffffffff16021790555060a08201518160030160146101000a81548160ff021916908360ff16021790555060c08201518160030160156101000a81548160ff021916908360ff16021790555060e08201518160030160166101000a81548160ff021916908360ff16021790555050505060028054806001018281620011f591906200227b565b9160005260206000209060040201600061010060405190810160405280608060405190810160405280604781526020017f456e6761676520696e2065787465726e616c207365727669636573206f76657281526020017f207468652067726561746572206f66202435302c303030555344206f7220322581526020017f206f66204d4352000000000000000000000000000000000000000000000000008152508152602001600160ff168152602001603c60ff16815260200160206040519081016040528060008152508152602001600073ffffffffffffffffffffffffffffffffffffffff168152602001600060ff168152602001600060ff168152602001600060ff168152509091909150600082015181600001908051906020019062001320929190620022b0565b5060208201518160010160006101000a81548160ff021916908360ff16021790555060408201518160010160016101000a81548160ff021916908360ff160217905550606082015181600201908051906020019062001381929190620022b0565b5060808201518160030160006101000a81548173ffffffffffffffffffffffffffffffffffffffff021916908373ffffffffffffffffffffffffffffffffffffffff16021790555060a08201518160030160146101000a81548160ff021916908360ff16021790555060c08201518160030160156101000a81548160ff021916908360ff16021790555060e08201518160030160166101000a81548160ff021916908360ff160217905550505050600280548060010182816200144591906200227b565b9160005260206000209060040201600061010060405190810160405280606060405190810160405280603b81526020017f4368616e67657320746f2072656d756e65726174696f6e20616e642f6f72206d81526020017f656d62657273686970206f662041647669736f727920426f61726400000000008152508152602001600160ff168152602001603c60ff16815260200160206040519081016040528060008152508152602001600073ffffffffffffffffffffffffffffffffffffffff168152602001600060ff168152602001600060ff168152602001600060ff16815250909190915060008201518160000190805190602001906200154a929190620022b0565b5060208201518160010160006101000a81548160ff021916908360ff16021790555060408201518160010160016101000a81548160ff021916908360ff1602179055506060820151816002019080519060200190620015ab929190620022b0565b5060808201518160030160006101000a81548173ffffffffffffffffffffffffffffffffffffffff021916908373ffffffffffffffffffffffffffffffffffffffff16021790555060a08201518160030160146101000a81548160ff021916908360ff16021790555060c08201518160030160156101000a81548160ff021916908360ff16021790555060e08201518160030160166101000a81548160ff021916908360ff160217905550505050600280548060010182816200166f91906200227b565b916000526020600020906004020160006101006040519081016040528060a060405190810160405280606881526020017f52656c65617365206e657720736d61727420636f6e747261637420636f64652081526020017f6173206e656365737361727920746f2066697820627567732f7765616b6e657381526020017f736573206f722064656c6976657220656e68616e63656d656e74732f6e65772081526020017f70726f64756374730000000000000000000000000000000000000000000000008152508152602001600160ff168152602001603c60ff16815260200160206040519081016040528060008152508152602001600073ffffffffffffffffffffffffffffffffffffffff168152602001600060ff168152602001600060ff168152602001600060ff1681525090919091506000820151816000019080519060200190620017c0929190620022b0565b5060208201518160010160006101000a81548160ff021916908360ff16021790555060408201518160010160016101000a81548160ff021916908360ff160217905550606082015181600201908051906020019062001821929190620022b0565b5060808201518160030160006101000a81548173ffffffffffffffffffffffffffffffffffffffff021916908373ffffffffffffffffffffffffffffffffffffffff16021790555060a08201518160030160146101000a81548160ff021916908360ff16021790555060c08201518160030160156101000a81548160ff021916908360ff16021790555060e08201518160030160166101000a81548160ff021916908360ff16021790555050505060028054806001018281620018e591906200227b565b91600052602060002090600402016000610100604051908101604052806040805190810160405280601981526020017f416e79206368616e676520746f20617574686f726974696573000000000000008152508152602001600160ff168152602001605060ff16815260200160206040519081016040528060008152508152602001600073ffffffffffffffffffffffffffffffffffffffff168152602001600060ff168152602001600060ff168152602001600060ff1681525090919091506000820151816000019080519060200190620019c3929190620022b0565b5060208201518160010160006101000a81548160ff021916908360ff16021790555060408201518160010160016101000a81548160ff021916908360ff160217905550606082015181600201908051906020019062001a24929190620022b0565b5060808201518160030160006101000a81548173ffffffffffffffffffffffffffffffffffffffff021916908373ffffffffffffffffffffffffffffffffffffffff16021790555060a08201518160030160146101000a81548160ff021916908360ff16021790555060c08201518160030160156101000a81548160ff021916908360ff16021790555060e08201518160030160166101000a81548160ff021916908360ff1602179055505050506002805480600101828162001ae891906200227b565b9160005260206000209060040201600061010060405190810160405280606060405190810160405280602581526020017f416e79206f74686572206974656d207370656369666963616c6c79206465736381526020017f72696265640000000000000000000000000000000000000000000000000000008152508152602001600160ff168152602001605060ff16815260200160206040519081016040528060008152508152602001600073ffffffffffffffffffffffffffffffffffffffff168152602001600060ff168152602001600060ff168152602001600060ff168152509091909150600082015181600001908051906020019062001bed929190620022b0565b5060208201518160010160006101000a81548160ff021916908360ff16021790555060408201518160010160016101000a81548160ff021916908360ff160217905550606082015181600201908051906020019062001c4e929190620022b0565b5060808201518160030160006101000a81548173ffffffffffffffffffffffffffffffffffffffff021916908373ffffffffffffffffffffffffffffffffffffffff16021790555060a08201518160030160146101000a81548160ff021916908360ff16021790555060c08201518160030160156101000a81548160ff021916908360ff16021790555060e08201518160030160166101000a81548160ff021916908360ff160217905550505050565b6003805480600101828162001d14919062002337565b91600052602060002090016000606060405190810160405280602881526020017f447261667420666f722064697363757373696f6e2c206d756c7469706c65207681526020017f657273696f6e732e0000000000000000000000000000000000000000000000008152509091909150908051906020019062001d9892919062002366565b50506003805480600101828162001db0919062002337565b916000526020600020900160006040805190810160405280601b81526020017f50656e64696e672d41647669736f727920426f61726420566f746500000000008152509091909150908051906020019062001e0d92919062002366565b50506003805480600101828162001e25919062002337565b91600052602060002090016000606060405190810160405280603981526020017f50656e64696e672d41647669736f727920426f61726420566f7465204163636581526020017f707465642c2070656e64696e67204d656d62657220566f7465000000000000008152509091909150908051906020019062001ea992919062002366565b50506003805480600101828162001ec1919062002337565b91600052602060002090016000606060405190810160405280602281526020017f46696e616c2d41647669736f727920426f61726420566f7465204465636c696e81526020017f65640000000000000000000000000000000000000000000000000000000000008152509091909150908051906020019062001f4592919062002366565b50506003805480600101828162001f5d919062002337565b91600052602060002090016000606060405190810160405280603c81526020017f46696e616c2d41647669736f727920426f61726420566f74652041636365707481526020017f65642c204d656d62657220566f7465206e6f74207265717569726564000000008152509091909150908051906020019062001fe192919062002366565b50506003805480600101828162001ff9919062002337565b91600052602060002090016000606060405190810160405280603881526020017f46696e616c2d41647669736f727920426f61726420566f74652041636365707481526020017f65642c204d656d62657220566f74652041636365707465640000000000000000815250909190915090805190602001906200207d92919062002366565b50506003805480600101828162002095919062002337565b91600052602060002090016000606060405190810160405280603881526020017f46696e616c2d41647669736f727920426f61726420566f74652041636365707481526020017f65642c204d656d62657220566f7465204465636c696e65640000000000000000815250909190915090805190602001906200211992919062002366565b50506003805480600101828162002131919062002337565b91600052602060002090016000608060405190810160405280604381526020017f46696e616c2d41647669736f727920426f61726420566f74652041636365707481526020017f65642c204d656d62657220566f74652051756f72756d206e6f7420416368696581526020017f766564000000000000000000000000000000000000000000000000000000000081525090919091509080519060200190620021db92919062002366565b505060038054806001018281620021f3919062002337565b91600052602060002090016000606060405190810160405280602581526020017f50726f706f73616c2041636365707465642c20496e73756666696369656e742081526020017f46756e6473000000000000000000000000000000000000000000000000000000815250909190915090805190602001906200227792919062002366565b5050565b815481835581811511620022ab57600402816004028360005260206000209182019101620022aa9190620023ed565b5b505050565b828054600181600116156101000203166002900490600052602060002090601f016020900481019282601f10620022f357805160ff191683800117855562002324565b8280016001018555821562002324579182015b828111156200232357825182559160200191906001019062002306565b5b509050620023339190620024be565b5090565b8154818355818115116200236157818360005260206000209182019101620023609190620024e6565b5b505050565b828054600181600116156101000203166002900490600052602060002090601f016020900481019282601f10620023a957805160ff1916838001178555620023da565b82800160010185558215620023da579182015b82811115620023d9578251825591602001919060010190620023bc565b5b509050620023e99190620024be565b5090565b620024bb91905b80821115620024b7576000808201600062002410919062002517565b6001820160006101000a81549060ff02191690556001820160016101000a81549060ff02191690556002820160006200244a919062002517565b6003820160006101000a81549073ffffffffffffffffffffffffffffffffffffffff02191690556003820160146101000a81549060ff02191690556003820160156101000a81549060ff02191690556003820160166101000a81549060ff021916905550600401620023f4565b5090565b90565b620024e391905b80821115620024df576000816000905550600101620024c5565b5090565b90565b6200251491905b8082111562002510576000818162002506919062002517565b50600101620024ed565b5090565b90565b50805460018160011615610100020316600290046000825580601f106200253f575062002560565b601f0160209004906000526020600020908101906200255f9190620024be565b5b50565b6159fc80620025736000396000f30060606040526004361061015f576000357c0100000000000000000000000000000000000000000000000000000000900463ffffffff1680630645b8db146101645780630d15fd77146101b057806323a670e3146101d95780632c5067961461022c5780632f54bf6e1461026557806337addf57146102b25780633c975453146102eb57806342d21ef7146103d75780634384318e1461047357806366cf51de146104a25780636b8b2c6a1461051a57806371cc52c41461062657806373be5ea7146107215780637fd6e510146107505780638da5cb5b1461078757806394b8e18c146107dc57806399cb86f8146107ff5780639a0e7d661461089f578063a6f9dae1146108c8578063b0a4aaee14610901578063bc34c54414610a7d578063c12da3ae14610b26578063cac86e9614610b52578063d3bff2f714610c71578063dff5f32214610dc8578063f6d9615f14610f7e578063f8a3a4a114610fa7575b600080fd5b341561016f57600080fd5b6101856004808035906020019091905050610fd6565b6040518085815260200184815260200183815260200182815260200194505050505060405180910390f35b34156101bb57600080fd5b6101c3611047565b6040518082815260200191505060405180910390f35b34156101e457600080fd5b610210600480803573ffffffffffffffffffffffffffffffffffffffff1690602001909190505061104d565b604051808260ff1660ff16815260200191505060405180910390f35b341561023757600080fd5b610263600480803573ffffffffffffffffffffffffffffffffffffffff1690602001909190505061106d565b005b341561027057600080fd5b61029c600480803573ffffffffffffffffffffffffffffffffffffffff1690602001909190505061113b565b6040518082815260200191505060405180910390f35b34156102bd57600080fd5b6102e9600480803573ffffffffffffffffffffffffffffffffffffffff1690602001909190505061119f565b005b34156102f657600080fd5b6103d5600480803590602001909190803590602001909190803590602001908201803590602001908080602002602001604051908101604052809392919081815260200183836020028082843782019150505050505091908035906020019082018035906020019080806020026020016040519081016040528093929190818152602001838360200280828437820191505050505050919080359060200190820180359060200190808060200260200160405190810160405280939291908181526020018383602002808284378201915050505050509190505061126d565b005b34156103e257600080fd5b6103f86004808035906020019091905050611475565b6040518080602001828103825283818151815260200191508051906020019080838360005b8381101561043857808201518184015260208101905061041d565b50505050905090810190601f1680156104655780820380516001836020036101000a031916815260200191505b509250505060405180910390f35b341561047e57600080fd5b6104a0600480803590602001909190803560000b906020019091905050611531565b005b34156104ad57600080fd5b6104c360048080359060200190919050506117e8565b604051808573ffffffffffffffffffffffffffffffffffffffff1673ffffffffffffffffffffffffffffffffffffffff16815260200184815260200183815260200182815260200194505050505060405180910390f35b341561052557600080fd5b610624600480803590602001909190803590602001908201803590602001908080601f0160208091040260200160405190810160405280939291908181526020018383808284378201915050505050509190803567ffffffffffffffff1690602001909190803561ffff1690602001909190803590602001908201803590602001908080601f0160208091040260200160405190810160405280939291908181526020018383808284378201915050505050509190803573ffffffffffffffffffffffffffffffffffffffff1690602001909190803560ff1690602001909190803560ff1690602001909190803560ff169060200190919050506118a1565b005b341561063157600080fd5b61071f600480803590602001908201803590602001908080601f0160208091040260200160405190810160405280939291908181526020018383808284378201915050505050509190803560ff1690602001909190803560ff1690602001909190803590602001908201803590602001908080601f0160208091040260200160405190810160405280939291908181526020018383808284378201915050505050509190803573ffffffffffffffffffffffffffffffffffffffff1690602001909190803560ff1690602001909190803560ff1690602001909190803560ff16906020019091905050611a20565b005b341561072c57600080fd5b61074e600480803590602001909190803560000b906020019091905050611bdc565b005b341561075b57600080fd5b6107716004808035906020019091905050611e92565b6040518082815260200191505060405180910390f35b341561079257600080fd5b61079a611ebc565b604051808273ffffffffffffffffffffffffffffffffffffffff1673ffffffffffffffffffffffffffffffffffffffff16815260200191505060405180910390f35b34156107e757600080fd5b6107fd6004808035906020019091905050611ee1565b005b341561080a57600080fd5b61089d600480803590602001908201803590602001908080601f0160208091040260200160405190810160405280939291908181526020018383808284378201915050505050509190803590602001908201803590602001908080601f01602080910402602001604051908101604052809392919081815260200183838082843782019150505050505091905050611f95565b005b34156108aa57600080fd5b6108b26120cc565b6040518082815260200191505060405180910390f35b34156108d357600080fd5b6108ff600480803573ffffffffffffffffffffffffffffffffffffffff169060200190919050506120d6565b005b341561090c57600080fd5b610922600480803590602001909190505061216f565b60405180806020018960ff1660ff1681526020018860ff1660ff168152602001806020018773ffffffffffffffffffffffffffffffffffffffff1673ffffffffffffffffffffffffffffffffffffffff1681526020018660ff1660ff1681526020018560ff1660ff1681526020018460ff1660ff16815260200183810383528b818151815260200191508051906020019080838360005b838110156109d45780820151818401526020810190506109b9565b50505050905090810190601f168015610a015780820380516001836020036101000a031916815260200191505b50838103825288818151815260200191508051906020019080838360005b83811015610a3a578082015181840152602081019050610a1f565b50505050905090810190601f168015610a675780820380516001836020036101000a031916815260200191505b509a505050505050505050505060405180910390f35b3415610a8857600080fd5b610b24600480803590602001909190803590602001908201803590602001908080601f0160208091040260200160405190810160405280939291908181526020018383808284378201915050505050509190803590602001908201803590602001908080601f0160208091040260200160405190810160405280939291908181526020018383808284378201915050505050509190505061243c565b005b3415610b3157600080fd5b610b506004808035906020019091908035906020019091905050612610565b005b3415610b5d57600080fd5b610b7c6004808035906020019091908035906020019091905050612658565b604051808581526020018060200180602001848152602001838103835286818151815260200191508051906020019080838360005b83811015610bcc578082015181840152602081019050610bb1565b50505050905090810190601f168015610bf95780820380516001836020036101000a031916815260200191505b50838103825285818151815260200191508051906020019080838360005b83811015610c32578082015181840152602081019050610c17565b50505050905090810190601f168015610c5f5780820380516001836020036101000a031916815260200191505b50965050505050505060405180910390f35b3415610c7c57600080fd5b610c92600480803590602001909190505061287b565b604051808873ffffffffffffffffffffffffffffffffffffffff1673ffffffffffffffffffffffffffffffffffffffff1681526020018060200180602001878152602001868152602001858152602001848152602001838103835289818151815260200191508051906020019080838360005b83811015610d20578082015181840152602081019050610d05565b50505050905090810190601f168015610d4d5780820380516001836020036101000a031916815260200191505b50838103825288818151815260200191508051906020019080838360005b83811015610d86578082015181840152602081019050610d6b565b50505050905090810190601f168015610db35780820380516001836020036101000a031916815260200191505b50995050505050505050505060405180910390f35b3415610dd357600080fd5b610de96004808035906020019091905050612ae9565b60405180806020018960ff1660ff1681526020018860ff1660ff168152602001806020018773ffffffffffffffffffffffffffffffffffffffff1673ffffffffffffffffffffffffffffffffffffffff1681526020018660ff1660ff1681526020018560ff1660ff1681526020018460ff1660ff16815260200183810383528b818154600181600116156101000203166002900481526020019150805460018160011615610100020316600290048015610ee45780601f10610eb957610100808354040283529160200191610ee4565b820191906000526020600020905b815481529060010190602001808311610ec757829003601f168201915b5050838103825288818154600181600116156101000203166002900481526020019150805460018160011615610100020316600290048015610f675780601f10610f3c57610100808354040283529160200191610f67565b820191906000526020600020905b815481529060010190602001808311610f4a57829003601f168201915b50509a505050505050505050505060405180910390f35b3415610f8957600080fd5b610f91612b9f565b6040518082815260200191505060405180910390f35b3415610fb257600080fd5b610fd4600480803590602001909190803560ff16906020019091905050612bac565b005b600080600080600e600086815260200190815260200160002060000154600e600087815260200190815260200160002060010154600e600088815260200190815260200160002060020154600e60008981526020019081526020016000206003015493509350935093509193509193565b60105481565b60076020528060005260406000206000915054906101000a900460ff1681565b6001600760008373ffffffffffffffffffffffffffffffffffffffff1673ffffffffffffffffffffffffffffffffffffffff16815260200190815260200160002060009054906101000a900460ff1660ff161480156110d4575060016110d23361113b565b145b15156110df57600080fd5b6000600760008373ffffffffffffffffffffffffffffffffffffffff1673ffffffffffffffffffffffffffffffffffffffff16815260200190815260200160002060006101000a81548160ff021916908360ff16021790555050565b60008090508173ffffffffffffffffffffffffffffffffffffffff166000809054906101000a900473ffffffffffffffffffffffffffffffffffffffff1673ffffffffffffffffffffffffffffffffffffffff16141561119a57600190505b919050565b6000600760008373ffffffffffffffffffffffffffffffffffffffff1673ffffffffffffffffffffffffffffffffffffffff16815260200190815260200160002060009054906101000a900460ff1660ff16148015611206575060016112043361113b565b145b151561121157600080fd5b6001600760008373ffffffffffffffffffffffffffffffffffffffff1673ffffffffffffffffffffffffffffffffffffffff16815260200190815260200160002060006101000a81548160ff021916908360ff16021790555050565b60008060006001600760003373ffffffffffffffffffffffffffffffffffffffff1673ffffffffffffffffffffffffffffffffffffffff16815260200190815260200160002060009054906101000a900460ff1660ff161480156112f1575060006004898154811015156112dd57fe5b906000526020600020906008020160060154145b15156112fc57600080fd5b6113058761216f565b90919293949596509091929394955090919293945090919293509091925080935081945082955050505085518360ff16148015611345575084518260ff16145b8015611354575083518160ff16145b1561146b578660048981548110151561136957fe5b9060005260206000209060080201600701819055506080604051908101604052803373ffffffffffffffffffffffffffffffffffffffff16815260200187815260200186815260200185815250600160008a815260200190815260200160002060008201518160000160006101000a81548173ffffffffffffffffffffffffffffffffffffffff021916908373ffffffffffffffffffffffffffffffffffffffff160217905550602082015181600101908051906020019061142c929190613078565b50604082015181600201908051906020019061144992919061311f565b506060820151816003019080519060200190611466929190613172565b509050505b5050505050505050565b60038181548110151561148457fe5b90600052602060002090016000915090508054600181600116156101000203166002900480601f0160208091040260200160405190810160405280929190818152602001828054600181600116156101000203166002900480156115295780601f106114fe57610100808354040283529160200191611529565b820191906000526020600020905b81548152906001019060200180831161150c57829003601f168201915b505050505081565b60006001600760003373ffffffffffffffffffffffffffffffffffffffff1673ffffffffffffffffffffffffffffffffffffffff16815260200190815260200160002060009054906101000a900460ff1660ff161480156115b25750600160048481548110151561159e57fe5b906000526020600020906008020160060154145b15156115bd57600080fd5b6115c56120cc565b90506115cf612be9565b600f80548060010182816115e391906131fc565b916000526020600020906004020160006080604051908101604052803373ffffffffffffffffffffffffffffffffffffffff1681526020018781526020018660000b815260200142815250909190915060008201518160000160006101000a81548173ffffffffffffffffffffffffffffffffffffffff021916908373ffffffffffffffffffffffffffffffffffffffff160217905550602082015181600101556040820151816002015560608201518160030155505050600860003373ffffffffffffffffffffffffffffffffffffffff1673ffffffffffffffffffffffffffffffffffffffff16815260200190815260200160002080548060010182816116ec919061322e565b916000526020600020900160008390919091505550600a60008481526020019081526020016000208054806001018281611726919061322e565b9160005260206000209001600083909190915055508160000b600c60003373ffffffffffffffffffffffffffffffffffffffff1673ffffffffffffffffffffffffffffffffffffffff16815260200190815260200160002060008581526020019081526020016000208190555060018260000b14156117ad576117a883612bfd565b6117e3565b7fffffffffffffffffffffffffffffffffffffffffffffffffffffffffffffffff8260000b14156117e2576117e183612c25565b5b5b505050565b600080600080600f858154811015156117fd57fe5b906000526020600020906004020160000160009054906101000a900473ffffffffffffffffffffffffffffffffffffffff16600f8681548110151561183e57fe5b906000526020600020906004020160010154600f8781548110151561185f57fe5b906000526020600020906004020160020154600f8881548110151561188057fe5b90600052602060002090600402016003015493509350935093509193509193565b8760028a8154811015156118b157fe5b906000526020600020906004020160000190805190602001906118d592919061325a565b508460028a8154811015156118e657fe5b9060005260206000209060040201600201908051906020019061190a92919061325a565b508360028a81548110151561191b57fe5b906000526020600020906004020160030160006101000a81548173ffffffffffffffffffffffffffffffffffffffff021916908373ffffffffffffffffffffffffffffffffffffffff1602179055508260028a81548110151561197a57fe5b906000526020600020906004020160030160146101000a81548160ff021916908360ff1602179055508160028a8154811015156119b357fe5b906000526020600020906004020160030160156101000a81548160ff021916908360ff1602179055508060028a8154811015156119ec57fe5b906000526020600020906004020160030160166101000a81548160ff021916908360ff160217905550505050505050505050565b60028054806001018281611a3491906132da565b91600052602060002090600402016000610100604051908101604052808c81526020018b60ff1681526020018a60ff1681526020018981526020018873ffffffffffffffffffffffffffffffffffffffff1681526020018760ff1681526020018660ff1681526020018560ff1681525090919091506000820151816000019080519060200190611ac592919061330c565b5060208201518160010160006101000a81548160ff021916908360ff16021790555060408201518160010160016101000a81548160ff021916908360ff1602179055506060820151816002019080519060200190611b2492919061330c565b5060808201518160030160006101000a81548173ffffffffffffffffffffffffffffffffffffffff021916908373ffffffffffffffffffffffffffffffffffffffff16021790555060a08201518160030160146101000a81548160ff021916908360ff16021790555060c08201518160030160156101000a81548160ff021916908360ff16021790555060e08201518160030160166101000a81548160ff021916908360ff1602179055505050505050505050505050565b600080600760003373ffffffffffffffffffffffffffffffffffffffff1673ffffffffffffffffffffffffffffffffffffffff16815260200190815260200160002060009054906101000a900460ff1660ff16148015611c5c57506001600484815481101515611c4857fe5b906000526020600020906008020160060154145b1515611c6757600080fd5b611c6f6120cc565b9050611c79612be9565b600f8054806001018281611c8d91906131fc565b916000526020600020906004020160006080604051908101604052803373ffffffffffffffffffffffffffffffffffffffff1681526020018781526020018660000b815260200142815250909190915060008201518160000160006101000a81548173ffffffffffffffffffffffffffffffffffffffff021916908373ffffffffffffffffffffffffffffffffffffffff160217905550602082015181600101556040820151816002015560608201518160030155505050600960003373ffffffffffffffffffffffffffffffffffffffff1673ffffffffffffffffffffffffffffffffffffffff1681526020019081526020016000208054806001018281611d96919061322e565b916000526020600020900160008390919091505550600b60008481526020019081526020016000208054806001018281611dd0919061322e565b9160005260206000209001600083909190915055508160000b600d60003373ffffffffffffffffffffffffffffffffffffffff1673ffffffffffffffffffffffffffffffffffffffff16815260200190815260200160002060008581526020019081526020016000208190555060018260000b1415611e5757611e5283612c4d565b611e8d565b7fffffffffffffffffffffffffffffffffffffffffffffffffffffffffffffffff8260000b1415611e8c57611e8b83612c75565b5b5b505050565b6000600482815481101515611ea357fe5b9060005260206000209060080201600701549050919050565b6000809054906101000a900473ffffffffffffffffffffffffffffffffffffffff1681565b3373ffffffffffffffffffffffffffffffffffffffff16600482815481101515611f0757fe5b906000526020600020906008020160000160009054906101000a900473ffffffffffffffffffffffffffffffffffffffff1673ffffffffffffffffffffffffffffffffffffffff16141580611f7d57506000600482815481101515611f6857fe5b90600052602060002090600802016006015414155b15611f8757600080fd5b611f92816001612610565b50565b60048054806001018281611fa9919061338c565b91600052602060002090600802016000610100604051908101604052803373ffffffffffffffffffffffffffffffffffffffff16815260200186815260200185815260200142815260200142815260200160008152602001600081526020016000815250909190915060008201518160000160006101000a81548173ffffffffffffffffffffffffffffffffffffffff021916908373ffffffffffffffffffffffffffffffffffffffff160217905550602082015181600101908051906020019061207592919061330c565b50604082015181600201908051906020019061209292919061330c565b50606082015181600301556080820151816004015560a0820151816005015560c0820151816006015560e082015181600701555050505050565b6000601054905090565b3373ffffffffffffffffffffffffffffffffffffffff166000809054906101000a900473ffffffffffffffffffffffffffffffffffffffff1673ffffffffffffffffffffffffffffffffffffffff16141561216c57806000806101000a81548173ffffffffffffffffffffffffffffffffffffffff021916908373ffffffffffffffffffffffffffffffffffffffff1602179055505b50565b6121776133be565b6000806121826133be565b60008060008060028981548110151561219757fe5b90600052602060002090600402016000018054600181600116156101000203166002900480601f01602080910402602001604051908101604052809291908181526020018280546001816001161561010002031660029004801561223c5780601f106122115761010080835404028352916020019161223c565b820191906000526020600020905b81548152906001019060200180831161221f57829003601f168201915b5050505050975060028981548110151561225257fe5b906000526020600020906004020160010160009054906101000a900460ff16965060028981548110151561228257fe5b906000526020600020906004020160010160019054906101000a900460ff1695506002898154811015156122b257fe5b90600052602060002090600402016002018054600181600116156101000203166002900480601f0160208091040260200160405190810160405280929190818152602001828054600181600116156101000203166002900480156123575780601f1061232c57610100808354040283529160200191612357565b820191906000526020600020905b81548152906001019060200180831161233a57829003601f168201915b5050505050945060028981548110151561236d57fe5b906000526020600020906004020160030160009054906101000a900473ffffffffffffffffffffffffffffffffffffffff1693506002898154811015156123b057fe5b906000526020600020906004020160030160149054906101000a900460ff1692506002898154811015156123e057fe5b906000526020600020906004020160030160159054906101000a900460ff16915060028981548110151561241057fe5b906000526020600020906004020160030160169054906101000a900460ff169050919395975091939597565b600080600060048681548110151561245057fe5b906000526020600020906008020160000160009054906101000a900473ffffffffffffffffffffffffffffffffffffffff1673ffffffffffffffffffffffffffffffffffffffff163373ffffffffffffffffffffffffffffffffffffffff161415156124bb57600080fd5b6124c486612c9d565b6124cf868686612efd565b60006004878154811015156124e057fe5b90600052602060002090600802016007018190555060016000878152602001908152602001600020600101805480600101828161251d91906133d2565b91600052602060002090602091828204019190066000909190916101000a81548160ff021916908360ff16021790555050600160008781526020019081526020016000206002018054806001018281612576919061340c565b9160005260206000209001600080909190915090600019169055506001600087815260200190815260200160002060030180548060010182816125b99190613438565b9160005260206000209001600080909190916101000a81548173ffffffffffffffffffffffffffffffffffffffff021916908373ffffffffffffffffffffffffffffffffffffffff16021790555050505050505050565b600060048381548110151561262157fe5b9060005260206000209060080201600701541415151561264057600080fd5b61264a8282612fc0565b612654828261302a565b5050565b60006126626133be565b61266a6133be565b6000600560008781526020019081526020016000208581548110151561268c57fe5b90600052602060002090600402016000015460056000888152602001908152602001600020868154811015156126be57fe5b906000526020600020906004020160010160056000898152602001908152602001600020878154811015156126ef57fe5b9060005260206000209060040201600201600560008a81526020019081526020016000208881548110151561272057fe5b906000526020600020906004020160030154828054600181600116156101000203166002900480601f0160208091040260200160405190810160405280929190818152602001828054600181600116156101000203166002900480156127c75780601f1061279c576101008083540402835291602001916127c7565b820191906000526020600020905b8154815290600101906020018083116127aa57829003601f168201915b50505050509250818054600181600116156101000203166002900480601f0160208091040260200160405190810160405280929190818152602001828054600181600116156101000203166002900480156128635780601f1061283857610100808354040283529160200191612863565b820191906000526020600020905b81548152906001019060200180831161284657829003601f168201915b50505050509150935093509350935092959194509250565b60006128856133be565b61288d6133be565b6000806000806004888154811015156128a257fe5b906000526020600020906008020160000160009054906101000a900473ffffffffffffffffffffffffffffffffffffffff166004898154811015156128e357fe5b906000526020600020906008020160010160048a81548110151561290357fe5b906000526020600020906008020160020160048b81548110151561292357fe5b90600052602060002090600802016003015460048c81548110151561294457fe5b90600052602060002090600802016004015460048d81548110151561296557fe5b90600052602060002090600802016005015460048e81548110151561298657fe5b906000526020600020906008020160060154858054600181600116156101000203166002900480601f016020809104026020016040519081016040528092919081815260200182805460018160011615610100020316600290048015612a2d5780601f10612a0257610100808354040283529160200191612a2d565b820191906000526020600020905b815481529060010190602001808311612a1057829003601f168201915b50505050509550848054600181600116156101000203166002900480601f016020809104026020016040519081016040528092919081815260200182805460018160011615610100020316600290048015612ac95780601f10612a9e57610100808354040283529160200191612ac9565b820191906000526020600020905b815481529060010190602001808311612aac57829003601f168201915b505050505094509650965096509650965096509650919395979092949650565b600281815481101515612af857fe5b906000526020600020906004020160009150905080600001908060010160009054906101000a900460ff16908060010160019054906101000a900460ff169080600201908060030160009054906101000a900473ffffffffffffffffffffffffffffffffffffffff16908060030160149054906101000a900460ff16908060030160159054906101000a900460ff16908060030160169054906101000a900460ff16905088565b6000600280549050905090565b80600283815481101515612bbc57fe5b906000526020600020906004020160010160006101000a81548160ff021916908360ff1602179055505050565b601060008154809291906001019190505550565b6001600e60008381526020019081526020016000206000016000828254019250508190555050565b6001600e60008381526020019081526020016000206001016000828254019250508190555050565b6001600e60008381526020019081526020016000206002016000828254019250508190555050565b6001600e60008381526020019081526020016000206003016000828254019250508190555050565b600560008281526020019081526020016000208054806001018281612cc29190613464565b91600052602060002090600402016000608060405190810160405280600486815481101515612ced57fe5b9060005260206000209060080201600501548152602001600486815481101515612d1357fe5b90600052602060002090600802016001018054600181600116156101000203166002900480601f016020809104026020016040519081016040528092919081815260200182805460018160011615610100020316600290048015612db85780601f10612d8d57610100808354040283529160200191612db8565b820191906000526020600020905b815481529060010190602001808311612d9b57829003601f168201915b50505050508152602001600486815481101515612dd157fe5b90600052602060002090600802016002018054600181600116156101000203166002900480601f016020809104026020016040519081016040528092919081815260200182805460018160011615610100020316600290048015612e765780601f10612e4b57610100808354040283529160200191612e76565b820191906000526020600020905b815481529060010190602001808311612e5957829003601f168201915b50505050508152602001600486815481101515612e8f57fe5b9060005260206000209060080201600301548152509091909150600082015181600001556020820151816001019080519060200190612ecf92919061330c565b506040820151816002019080519060200190612eec92919061330c565b506060820151816003015550505050565b81600484815481101515612f0d57fe5b90600052602060002090600802016001019080519060200190612f3192919061325a565b5080600484815481101515612f4257fe5b90600052602060002090600802016002019080519060200190612f6692919061325a565b5042600484815481101515612f7757fe5b9060005260206000209060080201600401819055506001600484815481101515612f9d57fe5b906000526020600020906008020160050160008282540192505081905550505050565b600660008381526020019081526020016000208054806001018281612fe59190613496565b91600052602060002090600202016000604080519081016040528085815260200142815250909190915060008201518160000155602082015181600101555050505050565b8060048381548110151561303a57fe5b9060005260206000209060080201600601819055504260048381548110151561305f57fe5b9060005260206000209060080201600401819055505050565b82805482825590600052602060002090601f0160209004810192821561310e5791602002820160005b838211156130df57835183826101000a81548160ff021916908360ff16021790555092602001926001016020816000010492830192600103026130a1565b801561310c5782816101000a81549060ff02191690556001016020816000010492830192600103026130df565b505b50905061311b91906134c8565b5090565b828054828255906000526020600020908101928215613161579160200282015b8281111561316057825182906000191690559160200191906001019061313f565b5b50905061316e91906134f8565b5090565b8280548282559060005260206000209081019282156131eb579160200282015b828111156131ea5782518260006101000a81548173ffffffffffffffffffffffffffffffffffffffff021916908373ffffffffffffffffffffffffffffffffffffffff16021790555091602001919060010190613192565b5b5090506131f8919061351d565b5090565b815481835581811511613229576004028160040283600052602060002091820191016132289190613560565b5b505050565b8154818355818115116132555781836000526020600020918201910161325491906135be565b5b505050565b828054600181600116156101000203166002900490600052602060002090601f016020900481019282601f1061329b57805160ff19168380011785556132c9565b828001600101855582156132c9579182015b828111156132c85782518255916020019190600101906132ad565b5b5090506132d691906135be565b5090565b8154818355818115116133075760040281600402836000526020600020918201910161330691906135e3565b5b505050565b828054600181600116156101000203166002900490600052602060002090601f016020900481019282601f1061334d57805160ff191683800117855561337b565b8280016001018555821561337b579182015b8281111561337a57825182559160200191906001019061335f565b5b50905061338891906135be565b5090565b8154818355818115116133b9576008028160080283600052602060002091820191016133b891906136ad565b5b505050565b602060405190810160405280600081525090565b81548183558181151161340757601f016020900481601f0160209004836000526020600020918201910161340691906135be565b5b505050565b8154818355818115116134335781836000526020600020918201910161343291906134f8565b5b505050565b81548183558181151161345f5781836000526020600020918201910161345e91906135be565b5b505050565b81548183558181151161349157600402816004028360005260206000209182019101613490919061373b565b5b505050565b8154818355818115116134c3576002028160020283600052602060002091820191016134c2919061378a565b5b505050565b6134f591905b808211156134f157600081816101000a81549060ff0219169055506001016134ce565b5090565b90565b61351a91905b808211156135165760008160009055506001016134fe565b5090565b90565b61355d91905b8082111561355957600081816101000a81549073ffffffffffffffffffffffffffffffffffffffff021916905550600101613523565b5090565b90565b6135bb91905b808211156135b757600080820160006101000a81549073ffffffffffffffffffffffffffffffffffffffff021916905560018201600090556002820160009055600382016000905550600401613566565b5090565b90565b6135e091905b808211156135dc5760008160009055506001016135c4565b5090565b90565b6136aa91905b808211156136a6576000808201600061360291906137b9565b6001820160006101000a81549060ff02191690556001820160016101000a81549060ff021916905560028201600061363a91906137b9565b6003820160006101000a81549073ffffffffffffffffffffffffffffffffffffffff02191690556003820160146101000a81549060ff02191690556003820160156101000a81549060ff02191690556003820160166101000a81549060ff0219169055506004016135e9565b5090565b90565b61373891905b8082111561373457600080820160006101000a81549073ffffffffffffffffffffffffffffffffffffffff02191690556001820160006136f391906137b9565b60028201600061370391906137b9565b60038201600090556004820160009055600582016000905560068201600090556007820160009055506008016136b3565b5090565b90565b61378791905b808211156137835760008082016000905560018201600061376291906137b9565b60028201600061377291906137b9565b600382016000905550600401613741565b5090565b90565b6137b691905b808211156137b257600080820160009055600182016000905550600201613790565b5090565b90565b50805460018160011615610100020316600290046000825580601f106137df57506137fe565b601f0160209004906000526020600020908101906137fd91906135be565b5b50565b6002805480600101828161381591906132da565b91600052602060002090600402016000610100604051908101604052806040805190810160405280600d81526020017f556e63617465676f7269736564000000000000000000000000000000000000008152508152602001600060ff168152602001600060ff16815260200160206040519081016040528060008152508152602001600073ffffffffffffffffffffffffffffffffffffffff168152602001600060ff168152602001600060ff168152602001600060ff16815250909190915060008201518160000190805190602001906138f192919061330c565b5060208201518160010160006101000a81548160ff021916908360ff16021790555060408201518160010160016101000a81548160ff021916908360ff160217905550606082015181600201908051906020019061395092919061330c565b5060808201518160030160006101000a81548173ffffffffffffffffffffffffffffffffffffffff021916908373ffffffffffffffffffffffffffffffffffffffff16021790555060a08201518160030160146101000a81548160ff021916908360ff16021790555060c08201518160030160156101000a81548160ff021916908360ff16021790555060e08201518160030160166101000a81548160ff021916908360ff16021790555050505060028054806001018281613a1291906132da565b9160005260206000209060040201600061010060405190810160405280608060405190810160405280604481526020017f46696c746572206d656d6265722070726f706f73616c73206173206e6563657381526020017f73617279287768696368206172652070757420746f2061206d656d626572207681526020017f6f746529000000000000000000000000000000000000000000000000000000008152508152602001600060ff168152602001603c60ff16815260200160206040519081016040528060008152508152602001600073ffffffffffffffffffffffffffffffffffffffff168152602001600160ff168152602001600260ff168152602001600160ff1681525090919091506000820151816000019080519060200190613b3b92919061330c565b5060208201518160010160006101000a81548160ff021916908360ff16021790555060408201518160010160016101000a81548160ff021916908360ff1602179055506060820151816002019080519060200190613b9a92919061330c565b5060808201518160030160006101000a81548173ffffffffffffffffffffffffffffffffffffffff021916908373ffffffffffffffffffffffffffffffffffffffff16021790555060a08201518160030160146101000a81548160ff021916908360ff16021790555060c08201518160030160156101000a81548160ff021916908360ff16021790555060e08201518160030160166101000a81548160ff021916908360ff16021790555050505060028054806001018281613c5c91906132da565b9160005260206000209060040201600061010060405190810160405280606060405190810160405280602881526020017f496d706c656d656e742072756e2d6f666620616e6420636c6f7365206e65772081526020017f627573696e6573730000000000000000000000000000000000000000000000008152508152602001600160ff168152602001605060ff16815260200160206040519081016040528060008152508152602001600073ffffffffffffffffffffffffffffffffffffffff168152602001600060ff168152602001600060ff168152602001600060ff1681525090919091506000820151816000019080519060200190613d5f92919061330c565b5060208201518160010160006101000a81548160ff021916908360ff16021790555060408201518160010160016101000a81548160ff021916908360ff1602179055506060820151816002019080519060200190613dbe92919061330c565b5060808201518160030160006101000a81548173ffffffffffffffffffffffffffffffffffffffff021916908373ffffffffffffffffffffffffffffffffffffffff16021790555060a08201518160030160146101000a81548160ff021916908360ff16021790555060c08201518160030160156101000a81548160ff021916908360ff16021790555060e08201518160030160166101000a81548160ff021916908360ff16021790555050505060028054806001018281613e8091906132da565b9160005260206000209060040201600061010060405190810160405280606060405190810160405280602581526020017f4275726e206672617564756c656e7420636c61696d206173736573736f72207481526020017f6f6b656e730000000000000000000000000000000000000000000000000000008152508152602001600060ff168152602001605060ff16815260200160206040519081016040528060008152508152602001600073ffffffffffffffffffffffffffffffffffffffff168152602001600060ff168152602001600060ff168152602001600060ff1681525090919091506000820151816000019080519060200190613f8392919061330c565b5060208201518160010160006101000a81548160ff021916908360ff16021790555060408201518160010160016101000a81548160ff021916908360ff1602179055506060820151816002019080519060200190613fe292919061330c565b5060808201518160030160006101000a81548173ffffffffffffffffffffffffffffffffffffffff021916908373ffffffffffffffffffffffffffffffffffffffff16021790555060a08201518160030160146101000a81548160ff021916908360ff16021790555060c08201518160030160156101000a81548160ff021916908360ff16021790555060e08201518160030160166101000a81548160ff021916908360ff160217905550505050600280548060010182816140a491906132da565b9160005260206000209060040201600061010060405190810160405280608060405190810160405280605781526020017f506175736520436c61696d204173736573736f7273206162696c69747920746f81526020017f2061737365737320636c61696d7320666f72203320646179732e43616e206f6e81526020017f6c7920626520646f6e65206f6e63652061206d6f6e74680000000000000000008152508152602001600060ff168152602001603c60ff16815260200160206040519081016040528060008152508152602001600073ffffffffffffffffffffffffffffffffffffffff168152602001600060ff168152602001600060ff168152602001600060ff16815250909190915060008201518160000190805190602001906141cd92919061330c565b5060208201518160010160006101000a81548160ff021916908360ff16021790555060408201518160010160016101000a81548160ff021916908360ff160217905550606082015181600201908051906020019061422c92919061330c565b5060808201518160030160006101000a81548173ffffffffffffffffffffffffffffffffffffffff021916908373ffffffffffffffffffffffffffffffffffffffff16021790555060a08201518160030160146101000a81548160ff021916908360ff16021790555060c08201518160030160156101000a81548160ff021916908360ff16021790555060e08201518160030160166101000a81548160ff021916908360ff160217905550505050600280548060010182816142ee91906132da565b91600052602060002090600402016000610100604051908101604052806040805190810160405280601881526020017f4368616e67657320746f204361706974616c204d6f64656c00000000000000008152508152602001600160ff168152602001603c60ff16815260200160206040519081016040528060008152508152602001600073ffffffffffffffffffffffffffffffffffffffff168152602001600060ff168152602001600060ff168152602001600060ff16815250909190915060008201518160000190805190602001906143ca92919061330c565b5060208201518160010160006101000a81548160ff021916908360ff16021790555060408201518160010160016101000a81548160ff021916908360ff160217905550606082015181600201908051906020019061442992919061330c565b5060808201518160030160006101000a81548173ffffffffffffffffffffffffffffffffffffffff021916908373ffffffffffffffffffffffffffffffffffffffff16021790555060a08201518160030160146101000a81548160ff021916908360ff16021790555060c08201518160030160156101000a81548160ff021916908360ff16021790555060e08201518160030160166101000a81548160ff021916908360ff160217905550505050600280548060010182816144eb91906132da565b91600052602060002090600402016000610100604051908101604052806040805190810160405280601281526020017f4368616e67657320746f2050726963696e6700000000000000000000000000008152508152602001600160ff168152602001603c60ff16815260200160206040519081016040528060008152508152602001600073ffffffffffffffffffffffffffffffffffffffff168152602001600060ff168152602001600060ff168152602001600060ff16815250909190915060008201518160000190805190602001906145c792919061330c565b5060208201518160010160006101000a81548160ff021916908360ff16021790555060408201518160010160016101000a81548160ff021916908360ff160217905550606082015181600201908051906020019061462692919061330c565b5060808201518160030160006101000a81548173ffffffffffffffffffffffffffffffffffffffff021916908373ffffffffffffffffffffffffffffffffffffffff16021790555060a08201518160030160146101000a81548160ff021916908360ff16021790555060c08201518160030160156101000a81548160ff021916908360ff16021790555060e08201518160030160166101000a81548160ff021916908360ff160217905550505050600280548060010182816146e891906132da565b9160005260206000209060040201600061010060405190810160405280608060405190810160405280604881526020017f456e6761676520696e2065787465726e616c207365727669636573207570207481526020017f6f207468652067726561746572206f66202435302c303030555344206f72203281526020017f25206f66204d43520000000000000000000000000000000000000000000000008152508152602001600060ff168152602001605060ff16815260200160206040519081016040528060008152508152602001600073ffffffffffffffffffffffffffffffffffffffff168152602001600060ff168152602001600060ff168152602001600060ff168152509091909150600082015181600001908051906020019061481192919061330c565b5060208201518160010160006101000a81548160ff021916908360ff16021790555060408201518160010160016101000a81548160ff021916908360ff160217905550606082015181600201908051906020019061487092919061330c565b5060808201518160030160006101000a81548173ffffffffffffffffffffffffffffffffffffffff021916908373ffffffffffffffffffffffffffffffffffffffff16021790555060a08201518160030160146101000a81548160ff021916908360ff16021790555060c08201518160030160156101000a81548160ff021916908360ff16021790555060e08201518160030160166101000a81548160ff021916908360ff1602179055505050506002805480600101828161493291906132da565b9160005260206000209060040201600061010060405190810160405280608060405190810160405280604781526020017f456e6761676520696e2065787465726e616c207365727669636573206f76657281526020017f207468652067726561746572206f66202435302c303030555344206f7220322581526020017f206f66204d4352000000000000000000000000000000000000000000000000008152508152602001600160ff168152602001603c60ff16815260200160206040519081016040528060008152508152602001600073ffffffffffffffffffffffffffffffffffffffff168152602001600060ff168152602001600060ff168152602001600060ff1681525090919091506000820151816000019080519060200190614a5b92919061330c565b5060208201518160010160006101000a81548160ff021916908360ff16021790555060408201518160010160016101000a81548160ff021916908360ff1602179055506060820151816002019080519060200190614aba92919061330c565b5060808201518160030160006101000a81548173ffffffffffffffffffffffffffffffffffffffff021916908373ffffffffffffffffffffffffffffffffffffffff16021790555060a08201518160030160146101000a81548160ff021916908360ff16021790555060c08201518160030160156101000a81548160ff021916908360ff16021790555060e08201518160030160166101000a81548160ff021916908360ff16021790555050505060028054806001018281614b7c91906132da565b9160005260206000209060040201600061010060405190810160405280606060405190810160405280603b81526020017f4368616e67657320746f2072656d756e65726174696f6e20616e642f6f72206d81526020017f656d62657273686970206f662041647669736f727920426f61726400000000008152508152602001600160ff168152602001603c60ff16815260200160206040519081016040528060008152508152602001600073ffffffffffffffffffffffffffffffffffffffff168152602001600060ff168152602001600060ff168152602001600060ff1681525090919091506000820151816000019080519060200190614c7f92919061330c565b5060208201518160010160006101000a81548160ff021916908360ff16021790555060408201518160010160016101000a81548160ff021916908360ff1602179055506060820151816002019080519060200190614cde92919061330c565b5060808201518160030160006101000a81548173ffffffffffffffffffffffffffffffffffffffff021916908373ffffffffffffffffffffffffffffffffffffffff16021790555060a08201518160030160146101000a81548160ff021916908360ff16021790555060c08201518160030160156101000a81548160ff021916908360ff16021790555060e08201518160030160166101000a81548160ff021916908360ff16021790555050505060028054806001018281614da091906132da565b916000526020600020906004020160006101006040519081016040528060a060405190810160405280606881526020017f52656c65617365206e657720736d61727420636f6e747261637420636f64652081526020017f6173206e656365737361727920746f2066697820627567732f7765616b6e657381526020017f736573206f722064656c6976657220656e68616e63656d656e74732f6e65772081526020017f70726f64756374730000000000000000000000000000000000000000000000008152508152602001600160ff168152602001603c60ff16815260200160206040519081016040528060008152508152602001600073ffffffffffffffffffffffffffffffffffffffff168152602001600060ff168152602001600060ff168152602001600060ff1681525090919091506000820151816000019080519060200190614eef92919061330c565b5060208201518160010160006101000a81548160ff021916908360ff16021790555060408201518160010160016101000a81548160ff021916908360ff1602179055506060820151816002019080519060200190614f4e92919061330c565b5060808201518160030160006101000a81548173ffffffffffffffffffffffffffffffffffffffff021916908373ffffffffffffffffffffffffffffffffffffffff16021790555060a08201518160030160146101000a81548160ff021916908360ff16021790555060c08201518160030160156101000a81548160ff021916908360ff16021790555060e08201518160030160166101000a81548160ff021916908360ff1602179055505050506002805480600101828161501091906132da565b91600052602060002090600402016000610100604051908101604052806040805190810160405280601981526020017f416e79206368616e676520746f20617574686f726974696573000000000000008152508152602001600160ff168152602001605060ff16815260200160206040519081016040528060008152508152602001600073ffffffffffffffffffffffffffffffffffffffff168152602001600060ff168152602001600060ff168152602001600060ff16815250909190915060008201518160000190805190602001906150ec92919061330c565b5060208201518160010160006101000a81548160ff021916908360ff16021790555060408201518160010160016101000a81548160ff021916908360ff160217905550606082015181600201908051906020019061514b92919061330c565b5060808201518160030160006101000a81548173ffffffffffffffffffffffffffffffffffffffff021916908373ffffffffffffffffffffffffffffffffffffffff16021790555060a08201518160030160146101000a81548160ff021916908360ff16021790555060c08201518160030160156101000a81548160ff021916908360ff16021790555060e08201518160030160166101000a81548160ff021916908360ff1602179055505050506002805480600101828161520d91906132da565b9160005260206000209060040201600061010060405190810160405280606060405190810160405280602581526020017f416e79206f74686572206974656d207370656369666963616c6c79206465736381526020017f72696265640000000000000000000000000000000000000000000000000000008152508152602001600160ff168152602001605060ff16815260200160206040519081016040528060008152508152602001600073ffffffffffffffffffffffffffffffffffffffff168152602001600060ff168152602001600060ff168152602001600060ff168152509091909150600082015181600001908051906020019061531092919061330c565b5060208201518160010160006101000a81548160ff021916908360ff16021790555060408201518160010160016101000a81548160ff021916908360ff160217905550606082015181600201908051906020019061536f92919061330c565b5060808201518160030160006101000a81548173ffffffffffffffffffffffffffffffffffffffff021916908373ffffffffffffffffffffffffffffffffffffffff16021790555060a08201518160030160146101000a81548160ff021916908360ff16021790555060c08201518160030160156101000a81548160ff021916908360ff16021790555060e08201518160030160166101000a81548160ff021916908360ff160217905550505050565b600380548060010182816154339190615978565b91600052602060002090016000606060405190810160405280602881526020017f447261667420666f722064697363757373696f6e2c206d756c7469706c65207681526020017f657273696f6e732e000000000000000000000000000000000000000000000000815250909190915090805190602001906154b592919061325a565b5050600380548060010182816154cb9190615978565b916000526020600020900160006040805190810160405280601b81526020017f50656e64696e672d41647669736f727920426f61726420566f746500000000008152509091909150908051906020019061552692919061325a565b50506003805480600101828161553c9190615978565b91600052602060002090016000606060405190810160405280603981526020017f50656e64696e672d41647669736f727920426f61726420566f7465204163636581526020017f707465642c2070656e64696e67204d656d62657220566f746500000000000000815250909190915090805190602001906155be92919061325a565b5050600380548060010182816155d49190615978565b91600052602060002090016000606060405190810160405280602281526020017f46696e616c2d41647669736f727920426f61726420566f7465204465636c696e81526020017f65640000000000000000000000000000000000000000000000000000000000008152509091909150908051906020019061565692919061325a565b50506003805480600101828161566c9190615978565b91600052602060002090016000606060405190810160405280603c81526020017f46696e616c2d41647669736f727920426f61726420566f74652041636365707481526020017f65642c204d656d62657220566f7465206e6f7420726571756972656400000000815250909190915090805190602001906156ee92919061325a565b5050600380548060010182816157049190615978565b91600052602060002090016000606060405190810160405280603881526020017f46696e616c2d41647669736f727920426f61726420566f74652041636365707481526020017f65642c204d656d62657220566f746520416363657074656400000000000000008152509091909150908051906020019061578692919061325a565b50506003805480600101828161579c9190615978565b91600052602060002090016000606060405190810160405280603881526020017f46696e616c2d41647669736f727920426f61726420566f74652041636365707481526020017f65642c204d656d62657220566f7465204465636c696e656400000000000000008152509091909150908051906020019061581e92919061325a565b5050600380548060010182816158349190615978565b91600052602060002090016000608060405190810160405280604381526020017f46696e616c2d41647669736f727920426f61726420566f74652041636365707481526020017f65642c204d656d62657220566f74652051756f72756d206e6f7420416368696581526020017f7665640000000000000000000000000000000000000000000000000000000000815250909190915090805190602001906158dc92919061325a565b5050600380548060010182816158f29190615978565b91600052602060002090016000606060405190810160405280602581526020017f50726f706f73616c2041636365707465642c20496e73756666696369656e742081526020017f46756e64730000000000000000000000000000000000000000000000000000008152509091909150908051906020019061597492919061325a565b5050565b81548183558181151161599f5781836000526020600020918201910161599e91906159a4565b5b505050565b6159cd91905b808211156159c957600081816159c091906137b9565b506001016159aa565b5090565b905600a165627a7a7230582042d3206ca15003f6acd67f56ff90536a7f72367e0a64ab2309b5747ad7536be50029",
  "source": "/* Copyright (C) 2017 NexusMutual.io\r\n\r\n  This program is free software: you can redistribute it and/or modify\r\n    it under the terms of the GNU General Public License as published by\r\n    the Free Software Foundation, either version 3 of the License, or\r\n    (at your option) any later version.\r\n\r\n  This program is distributed in the hope that it will be useful,\r\n    but WITHOUT ANY WARRANTY; without even the implied warranty of\r\n    MERCHANTABILITY or FITNESS FOR A PARTICULAR PURPOSE.  See the\r\n    GNU General Public License for more details.\r\n\r\n  You should have received a copy of the GNU General Public License\r\n    along with this program.  If not, see http://www.gnu.org/licenses/ */\r\n\r\n\r\npragma solidity ^0.4.8;\r\n\r\ncontract governanceData {\r\n\r\n    struct proposal{\r\n        address owner;\r\n        string shortDesc;\r\n        string longDesc;\r\n        uint date_add;\r\n        uint date_upd;\r\n        uint versionNum;\r\n        uint status;  \r\n        uint category;\r\n    }\r\n    struct proposalCategory{\r\n        address categorizedBy;\r\n        uint8[] paramInt;\r\n        bytes32[] paramBytes32;\r\n        address[] paramAddress;\r\n    }\r\n    struct proposalVersionData{\r\n        uint versionNum;\r\n        string shortDesc;\r\n        string longDesc;\r\n        uint date_add;\r\n    }\r\n    struct Status{\r\n        uint movedTo;\r\n        uint date;\r\n    }\r\n\r\n    struct category{\r\n        string categoryName;\r\n        uint8 memberVoteRequired;\r\n        uint8 majorityVote;\r\n        string functionName;\r\n        address contractAt;\r\n        uint8 paramInt;\r\n        uint8 paramBytes32;\r\n        uint8 paramAddress;      \r\n    }\r\n     struct proposalVote {\r\n        address voter;\r\n        uint proposalId;\r\n        int verdict;\r\n        uint dateSubmit;\r\n    }\r\n\r\n    struct VoteCount {\r\n        uint acceptABvote;\r\n        uint denyABvote;\r\n        uint acceptMemberVote;\r\n        uint denyMemberVote;\r\n    } \r\n    address public owner;\r\n    function governanceData () \r\n    {\r\n        owner = msg.sender;\r\n        addCategory();\r\n        addStatus();\r\n    }\r\n\r\n    mapping(uint=>proposalCategory) allProposalCategory;\r\n    category[] public allCategory;\r\n    string[] public status;\r\n    proposal[] allProposal;\r\n    mapping(uint=>proposalVersionData[]) proposalVersions;\r\n    mapping (uint=>Status[]) proposalStatus;\r\n    mapping (address=>uint8) public advisoryBoardMembers;\r\n    mapping (address=>uint[])  userAdvisoryBoardVote; /// Maps the given vote Id against the given Advisory board member's address\r\n    mapping (address=>uint[])  userMemberVote; /// Maps the given vote Id against the given member's address.\r\n    mapping (uint=>uint[])  proposalAdvisoryBoardVote;  /// Adds the given voter Id(AB) against the given Proposal's Id\r\n    mapping (uint=>uint[])  proposalMemberVote; /// Adds the given voter Id(Member) against the given Proposal's Id\r\n    mapping (address=>mapping(uint=>int))  userProposalAdvisoryBoardVote; /// Records a members vote on a given proposal id as an AB member.\r\n    mapping (address=>mapping(uint=>int))  userProposalMemberVote; /// Records a members vote on a given proposal id.\r\n    mapping (uint=>VoteCount)  proposalVoteCount;\r\n    proposalVote[] allVotes;\r\n    uint public totalVotes;\r\n\r\n    function isOwner(address _memberAddress) constant returns(uint checkOwner)\r\n    {\r\n        checkOwner=0;\r\n        if(owner == _memberAddress)\r\n            checkOwner=1;\r\n    }\r\n\r\n    function changeOwner(address _memberAddress) public\r\n    {\r\n        if(owner == msg.sender)\r\n            owner = _memberAddress;\r\n    }\r\n\r\n    /// @dev Gets the total number of categories.\r\n    function getCategoriesLength() constant returns (uint length){\r\n        length = allCategory.length;\r\n    }\r\n\r\n    /// @dev Gets the total number of votes given till date.\r\n    function getTotalVotes() public constant returns(uint voteLength)\r\n    {\r\n        voteLength = totalVotes;\r\n    }\r\n\r\n    /// @dev Increases the number of votes by 1.\r\n    function increaseTotalVotes() internal\r\n    {\r\n        totalVotes++;\r\n    }\r\n\r\n\r\n    /// @dev Changes the status of a given proposal to open it for voting.\r\n    function changeProposalVotingStatus(uint _id)\r\n    {\r\n        if(allProposal[_id].owner != msg.sender || allProposal[_id].status !=0) throw;\r\n        changeProposalStatus(_id,1);\r\n        // closeProposalOraclise(id,gd1.getClosingTime());\r\n    }\r\n\r\n    /// @dev Registers an Advisroy Board Member's vote for Proposal. _id is proposal id..\r\n    function proposalVoteByABmember(uint _proposalId , int8 _verdict) public\r\n    {\r\n        require(advisoryBoardMembers[msg.sender]==1 && allProposal[_proposalId].status == 1);\r\n        uint votelength = getTotalVotes();\r\n        increaseTotalVotes();\r\n        allVotes.push(proposalVote(msg.sender,_proposalId,_verdict,now)); \r\n        userAdvisoryBoardVote[msg.sender].push(votelength); \r\n        proposalAdvisoryBoardVote[_proposalId].push(votelength);\r\n        userProposalAdvisoryBoardVote[msg.sender][_proposalId]=_verdict;\r\n\r\n        if(_verdict==1)\r\n            proposalABacceptVote(_proposalId);\r\n        else if(_verdict==-1)\r\n            proposalABdenyVote(_proposalId);\r\n    }\r\n\r\n    /// @dev Registers an User Member's vote for Proposal. _id is proposal id...\r\n    function proposalVoteByMember(uint _proposalId , int8 _verdict) public\r\n    {\r\n        require(advisoryBoardMembers[msg.sender]==0 && allProposal[_proposalId].status == 1);  \r\n        uint votelength = getTotalVotes();\r\n        increaseTotalVotes();\r\n        allVotes.push(proposalVote(msg.sender,_proposalId,_verdict,now)); \r\n        userMemberVote[msg.sender].push(votelength); \r\n        proposalMemberVote[_proposalId].push(votelength);\r\n        userProposalMemberVote[msg.sender][_proposalId]=_verdict;\r\n\r\n        if(_verdict==1)\r\n            proposalMemberAcceptVote(_proposalId);\r\n        else if(_verdict==-1)\r\n            proposalMemberDenyVote(_proposalId);\r\n    }\r\n\r\n    /// @dev Increases the proposal's accept vote count, called when proposal is accepted by an Advisory board member.\r\n    function proposalABacceptVote(uint _proposalId) internal\r\n    {\r\n        proposalVoteCount[_proposalId].acceptABvote +=1;\r\n    }\r\n\r\n    /// @dev Increases the proposal's deny vote count, called when proposal is denied by an Advisory board member.\r\n    function proposalABdenyVote(uint _proposalId) internal\r\n    {\r\n        proposalVoteCount[_proposalId].denyABvote +=1;\r\n    }\r\n\r\n    /// @dev Increases the proposal's accept vote count, called when proposal is accepted by a member.\r\n    function proposalMemberAcceptVote(uint _proposalId) internal\r\n    {\r\n        proposalVoteCount[_proposalId].acceptMemberVote +=1;\r\n    }\r\n\r\n    /// @dev Increases the proposal's deny vote count, called when proposal is denied by a member.   \r\n    function proposalMemberDenyVote(uint _proposalId) internal\r\n    {\r\n        proposalVoteCount[_proposalId].denyMemberVote +=1;\r\n    }\r\n\r\n    /// @dev Provides Vote details of a given vote id. \r\n    function getVoteDetailByid(uint _voteid) public constant returns( address voter,uint proposalId,int verdict,uint dateSubmit)\r\n    {\r\n        return(allVotes[_voteid].voter,allVotes[_voteid].proposalId,allVotes[_voteid].verdict,allVotes[_voteid].dateSubmit);\r\n    }\r\n\r\n    /// @dev Gets the number of votes received against a given proposal.\r\n    function getProposalVoteCount(uint _proposalid) constant returns(uint acceptABvote,uint denyABvote,uint MemberAccept,uint MemberDeny)\r\n    {\r\n        return(proposalVoteCount[_proposalid].acceptABvote,proposalVoteCount[_proposalid].denyABvote,proposalVoteCount[_proposalid].acceptMemberVote,proposalVoteCount[_proposalid].denyMemberVote);\r\n    }\r\n\r\n    /// @dev Creates a new proposal \r\n    function addNewProposal(string _shortDesc,string _longDesc) public\r\n    {\r\n        allProposal.push(proposal(msg.sender,_shortDesc,_longDesc,now,now,0,0,0));\r\n    }\r\n\r\n    /// @dev Fetch details of proposal by giving proposal Id\r\n    function getProposalDetailsById(uint _id) public constant returns (address owner,string shortDesc,string longDesc,uint date_add,uint date_upd,uint versionNum,uint status)\r\n    {\r\n        return (allProposal[_id].owner,allProposal[_id].shortDesc,allProposal[_id].longDesc,allProposal[_id].date_add,allProposal[_id].date_upd,allProposal[_id].versionNum,allProposal[_id].status);\r\n    }\r\n     \r\n    function getProposalCategory (uint _proposalid) public constant returns(uint category) \r\n    {\r\n        category = allProposal[_proposalid].category; \r\n    }\r\n        \r\n    /// @dev Edits a proposal and Only owner of a proposal can edit it.\r\n    function editProposal(uint _id , string _shortDesc, string _longDesc) public\r\n    {\r\n        uint8[] paramInt; bytes32 paramBytes32; address[] paramAddress;\r\n        require(msg.sender == allProposal[_id].owner);\r\n        {\r\n            storeProposalVersion(_id);\r\n            updateProposal(_id,_shortDesc,_longDesc);\r\n            allProposal[_id].category = 0;\r\n            allProposalCategory[_id].paramInt.push(0);\r\n            allProposalCategory[_id].paramBytes32.push(\"\");\r\n            allProposalCategory[_id].paramAddress.push(0);\r\n        }\r\n    }\r\n\r\n\r\n\r\n    /// @dev Stores the information of a given version number of a given proposal. Maintains the record of all the versions of a proposal.\r\n    function storeProposalVersion(uint _id) internal \r\n    {\r\n        proposalVersions[_id].push(proposalVersionData(allProposal[_id].versionNum,allProposal[_id].shortDesc,allProposal[_id].longDesc,allProposal[_id].date_add));            \r\n    }\r\n\r\n    /// @dev Edits the details of an existing proposal and creates new version.\r\n    function updateProposal(uint _id,string _shortDesc,string _longDesc) internal\r\n    {\r\n        allProposal[_id].shortDesc = _shortDesc;\r\n        allProposal[_id].longDesc = _longDesc;\r\n        allProposal[_id].date_upd = now;\r\n        allProposal[_id].versionNum += 1;\r\n    }\r\n\r\n    /// @dev Gets version details of a given proposal id.\r\n    function getProposalDetailsByIdAndVersion(uint _id,uint _versionNum) public constant returns( uint versionNum,string shortDesc,string longDesc,uint date_add)\r\n    {\r\n       return (proposalVersions[_id][_versionNum].versionNum,proposalVersions[_id][_versionNum].shortDesc,proposalVersions[_id][_versionNum].longDesc,proposalVersions[_id][_versionNum].date_add);\r\n    }\r\n\r\n    /// @dev Changes the status of a given proposal.\r\n    function changeProposalStatus(uint _id,uint _status) public\r\n    {\r\n        require(allProposal[_id].category != 0);\r\n        pushInProposalStatus(_id,_status);\r\n        updateProposalStatus(_id,_status);\r\n    }\r\n\r\n    /// @dev Adds status names in array - Not generic right now\r\n    function addStatus() internal\r\n    {   \r\n        status.push(\"Draft for discussion, multiple versions.\");\r\n        status.push(\"Pending-Advisory Board Vote\");\r\n        status.push(\"Pending-Advisory Board Vote Accepted, pending Member Vote\");\r\n        status.push(\"Final-Advisory Board Vote Declined\");\r\n        status.push(\"Final-Advisory Board Vote Accepted, Member Vote not required\");\r\n        status.push(\"Final-Advisory Board Vote Accepted, Member Vote Accepted\");\r\n        status.push(\"Final-Advisory Board Vote Accepted, Member Vote Declined\");\r\n        status.push(\"Final-Advisory Board Vote Accepted, Member Vote Quorum not Achieved\");\r\n        status.push(\"Proposal Accepted, Insufficient Funds\");\r\n    }\r\n\r\n    /// @dev Adds category names -\r\n    function addCategory() internal\r\n    {   \r\n        allCategory.push(category(\"Uncategorised\",0,0,\"\",0,0,0,0));\r\n        allCategory.push(category(\"Filter member proposals as necessary(which are put to a member vote)\",0,60,\"\",0,1,2,1));\r\n        allCategory.push(category(\"Implement run-off and close new business\",1,80,\"\",0,0,0,0));\r\n        allCategory.push(category(\"Burn fraudulent claim assessor tokens\",0,80,\"\",0,0,0,0));\r\n        allCategory.push(category(\"Pause Claim Assessors ability to assess claims for 3 days.Can only be done once a month\",0,60,\"\",0,0,0,0));\r\n        allCategory.push(category(\"Changes to Capital Model\",1,60,\"\",0,0,0,0));\r\n        allCategory.push(category(\"Changes to Pricing\",1,60,\"\",0,0,0,0));\r\n        allCategory.push(category(\"Engage in external services up to the greater of $50,000USD or 2% of MCR\",0,80,\"\",0,0,0,0));\r\n        allCategory.push(category(\"Engage in external services over the greater of $50,000USD or 2% of MCR\",1,60,\"\",0,0,0,0));\r\n        allCategory.push(category(\"Changes to remuneration and/or membership of Advisory Board\",1,60,\"\",0,0,0,0));\r\n        allCategory.push(category(\"Release new smart contract code as necessary to fix bugs/weaknesses or deliver enhancements/new products\",1,60,\"\",0,0,0,0));\r\n        allCategory.push(category(\"Any change to authorities\",1,80,\"\",0,0,0,0));\r\n        allCategory.push(category(\"Any other item specifically described\",1,80,\"\",0,0,0,0));\r\n    }\r\n\r\n    function updateCategory_memberVote(uint _categoryId,uint8 _memberVoteRequired) public\r\n    {\r\n        allCategory[_categoryId].memberVoteRequired = _memberVoteRequired;\r\n    }\r\n    \r\n\r\n    /// @dev Updates  status of an existing proposal.\r\n    function updateProposalStatus(uint _id ,uint _status) internal\r\n    {\r\n        allProposal[_id].status = _status;\r\n        allProposal[_id].date_upd =now;\r\n    }\r\n\r\n    /// @dev Stores the status information of a given proposal.\r\n    function pushInProposalStatus(uint _id , uint _status) internal\r\n    {\r\n        proposalStatus[_id].push(Status(_status,now));\r\n    }\r\n\r\n    /// @dev Adds a new category.\r\n    function addNewCategory(string _categoryName,uint8 _memberVoteRequired,uint8 _majorityVote,string _functionName,address _contractAt,uint8 _paramInt,uint8 _paramBytes32,uint8 _paramAddress) public\r\n    {\r\n        allCategory.push(category(_categoryName,_memberVoteRequired,_majorityVote,_functionName,_contractAt,_paramInt,_paramBytes32,_paramAddress));\r\n    }\r\n\r\n    /// @dev Gets category details by category id.\r\n    function getCategoryDetails(uint _categoryId) public constant returns (string categoryName,uint8 memberVoteRequired,uint8 majorityVote,string functionName,address contractAt,uint8 paramInt,uint8 paramBytes32,uint8 paramAddress)\r\n    {    \r\n        categoryName = allCategory[_categoryId].categoryName;\r\n        memberVoteRequired = allCategory[_categoryId].memberVoteRequired;\r\n        majorityVote = allCategory[_categoryId].majorityVote;\r\n        functionName = allCategory[_categoryId].functionName;\r\n        contractAt = allCategory[_categoryId].contractAt;\r\n        paramInt = allCategory[_categoryId].paramInt;\r\n        paramBytes32 = allCategory[_categoryId].paramBytes32;\r\n        paramAddress = allCategory[_categoryId].paramAddress;\r\n    } \r\n\r\n    function updateCategory(uint _categoryId,string _categoryName,uint64 _memberVoteRequired,uint16 _majorityVote,string _functionName,address _contractAt,uint8 _paramInt,uint8 _paramBytes32,uint8 _paramAddress) public\r\n    {\r\n        allCategory[_categoryId].categoryName = _categoryName;\r\n        allCategory[_categoryId].functionName = _functionName;\r\n        allCategory[_categoryId].contractAt = _contractAt;\r\n        allCategory[_categoryId].paramInt = _paramInt;\r\n        allCategory[_categoryId].paramBytes32 = _paramBytes32; \r\n        allCategory[_categoryId].paramAddress = _paramAddress; \r\n    }\r\n\r\n    function categorizeProposal(uint _id , uint _categoryId,uint8[] _paramInt,bytes32[] _paramBytes32,address[] _paramAddress) public\r\n    {\r\n        require(advisoryBoardMembers[msg.sender]==1 && allProposal[_id].status == 0);\r\n        uint8 paramInt; uint8 paramBytes32; uint8 paramAddress;\r\n        (,,,,,paramInt,paramBytes32,paramAddress) = getCategoryDetails(_categoryId);\r\n\r\n        if(paramInt == _paramInt.length && paramBytes32 == _paramBytes32.length && paramAddress == _paramAddress.length)\r\n        {\r\n            allProposal[_id].category = _categoryId;\r\n            allProposalCategory[_id]=proposalCategory(msg.sender,_paramInt,_paramBytes32,_paramAddress);\r\n        } \r\n    }\r\n\r\n    /// @dev Adds a given address as an advisory board member.\r\n    function joinAdvisoryBoard(address _memberAddress) public\r\n    {\r\n        require(advisoryBoardMembers[_memberAddress]==0 && isOwner(msg.sender) == 1);\r\n        advisoryBoardMembers[_memberAddress] = 1;\r\n    }\r\n\r\n    /// @dev Removes a given address from the advisory board.\r\n    function removeAdvisoryBoard(address _memberAddress) public\r\n    {\r\n        require(advisoryBoardMembers[_memberAddress]==1 && isOwner(msg.sender) == 1);\r\n        advisoryBoardMembers[_memberAddress] = 0;\r\n    }\r\n\r\n}  \r\n\r\n\r\n",
  "sourcePath": "D:\\GovBlocks\\CGP\\contracts\\governanceData.sol",
  "compiler": {
    "name": "solc",
    "version": "0.4.18+commit.9cf6e910.Emscripten.clang"
  },
  "schemaVersion": "1.0.1",
  "updatedAt": "2017-11-07T08:24:00.231Z"
}