{
  "contractName": "Master",
  "abi": [
    {
      "constant": true,
      "inputs": [
        {
          "name": "_versionNo",
          "type": "uint16"
        }
      ],
      "name": "getLatestVersionData",
      "outputs": [
        {
          "name": "versionNo",
          "type": "uint16"
        },
        {
          "name": "contractsName",
          "type": "bytes2[]"
        },
        {
          "name": "contractsAddress",
          "type": "address[]"
        }
      ],
      "payable": false,
      "stateMutability": "view",
      "type": "function"
    },
    {
      "constant": true,
      "inputs": [
        {
          "name": "",
          "type": "uint16"
        },
        {
          "name": "",
          "type": "bytes2"
        }
      ],
      "name": "allContractVersions",
      "outputs": [
        {
          "name": "",
          "type": "address"
        }
      ],
      "payable": false,
      "stateMutability": "view",
      "type": "function"
    },
    {
      "constant": true,
      "inputs": [],
      "name": "DappName",
      "outputs": [
        {
          "name": "",
          "type": "bytes32"
        }
      ],
      "payable": false,
      "stateMutability": "view",
      "type": "function"
    },
    {
      "constant": false,
      "inputs": [],
      "name": "switchToRecentVersion",
      "outputs": [],
      "payable": false,
      "stateMutability": "nonpayable",
      "type": "function"
    },
    {
      "constant": false,
      "inputs": [
        {
          "name": "_memberaddress",
          "type": "address"
        }
      ],
      "name": "setOwner",
      "outputs": [],
      "payable": false,
      "stateMutability": "nonpayable",
      "type": "function"
    },
    {
      "constant": false,
      "inputs": [
        {
          "name": "_version",
          "type": "uint16"
        }
      ],
      "name": "changeAllAddress",
      "outputs": [],
      "payable": false,
      "stateMutability": "nonpayable",
      "type": "function"
    },
    {
      "constant": false,
      "inputs": [
        {
          "name": "_version",
          "type": "uint16"
        }
      ],
      "name": "changeAddressInMaster",
      "outputs": [],
      "payable": false,
      "stateMutability": "nonpayable",
      "type": "function"
    },
    {
      "constant": false,
      "inputs": [
        {
          "name": "_tokenAddress",
          "type": "address"
        }
      ],
      "name": "changeGBTAddress",
      "outputs": [],
      "payable": false,
      "stateMutability": "nonpayable",
      "type": "function"
    },
    {
      "constant": true,
      "inputs": [
        {
          "name": "_ownerAddress",
          "type": "address"
        }
      ],
      "name": "isOwner",
      "outputs": [
        {
          "name": "check",
          "type": "bool"
        }
      ],
      "payable": false,
      "stateMutability": "view",
      "type": "function"
    },
    {
      "constant": true,
      "inputs": [
        {
          "name": "",
          "type": "address"
        }
      ],
      "name": "contracts_active",
      "outputs": [
        {
          "name": "",
          "type": "bool"
        }
      ],
      "payable": false,
      "stateMutability": "view",
      "type": "function"
    },
    {
      "constant": false,
      "inputs": [
        {
          "name": "_contractAddresses",
          "type": "address[9]"
        }
      ],
      "name": "addNewVersion",
      "outputs": [],
      "payable": false,
      "stateMutability": "nonpayable",
      "type": "function"
    },
    {
      "constant": false,
      "inputs": [
        {
          "name": "_masterAddress",
          "type": "address"
        },
        {
          "name": "version",
          "type": "uint16"
        }
      ],
      "name": "changeMasterAddress",
      "outputs": [],
      "payable": false,
      "stateMutability": "nonpayable",
      "type": "function"
    },
    {
      "constant": true,
      "inputs": [],
      "name": "owner",
      "outputs": [
        {
          "name": "",
          "type": "address"
        }
      ],
      "payable": false,
      "stateMutability": "view",
      "type": "function"
    },
    {
      "constant": true,
      "inputs": [
        {
          "name": "_address",
          "type": "address"
        }
      ],
      "name": "isInternal",
      "outputs": [
        {
          "name": "check",
          "type": "bool"
        }
      ],
      "payable": false,
      "stateMutability": "view",
      "type": "function"
    },
    {
      "constant": true,
      "inputs": [],
      "name": "GBMAddress",
      "outputs": [
        {
          "name": "",
          "type": "address"
        }
      ],
      "payable": false,
      "stateMutability": "view",
      "type": "function"
    },
    {
      "constant": false,
      "inputs": [
        {
          "name": "version",
          "type": "uint16"
        }
      ],
      "name": "callConstructorGDMRPC",
      "outputs": [],
      "payable": false,
      "stateMutability": "nonpayable",
      "type": "function"
    },
    {
      "constant": false,
      "inputs": [
        {
          "name": "version",
          "type": "uint16"
        }
      ],
      "name": "changeOtherAddress",
      "outputs": [],
      "payable": false,
      "stateMutability": "nonpayable",
      "type": "function"
    },
    {
      "constant": false,
      "inputs": [
        {
          "name": "_contracts",
          "type": "bytes2[]"
        }
      ],
      "name": "masterInit",
      "outputs": [],
      "payable": false,
      "stateMutability": "nonpayable",
      "type": "function"
    },
    {
      "constant": false,
      "inputs": [
        {
          "name": "_GBMnewAddress",
          "type": "address"
        }
      ],
      "name": "changeGBMAddress",
      "outputs": [],
      "payable": false,
      "stateMutability": "nonpayable",
      "type": "function"
    },
    {
      "constant": false,
      "inputs": [
        {
          "name": "_gbUserName",
          "type": "bytes32"
        },
        {
          "name": "_newTokenAddress",
          "type": "address"
        }
      ],
      "name": "changeDappTokenAddressin_GBM",
      "outputs": [],
      "payable": false,
      "stateMutability": "nonpayable",
      "type": "function"
    },
    {
      "constant": true,
      "inputs": [],
      "name": "versionLength",
      "outputs": [
        {
          "name": "",
          "type": "uint16"
        }
      ],
      "payable": false,
      "stateMutability": "view",
      "type": "function"
    },
    {
      "constant": false,
      "inputs": [
        {
          "name": "_gbUserName",
          "type": "bytes32"
        },
        {
          "name": "_newMasterAddress",
          "type": "address"
        }
      ],
      "name": "changeDappMasterin_GBM",
      "outputs": [],
      "payable": false,
      "stateMutability": "nonpayable",
      "type": "function"
    },
    {
      "constant": true,
      "inputs": [],
      "name": "getDappTokenAddress",
      "outputs": [
        {
          "name": "dappTokenAddress",
          "type": "address"
        }
      ],
      "payable": false,
      "stateMutability": "view",
      "type": "function"
    },
    {
      "constant": true,
      "inputs": [
        {
          "name": "_memberaddress",
          "type": "address"
        }
      ],
      "name": "isAuthGB",
      "outputs": [
        {
          "name": "check",
          "type": "bool"
        }
      ],
      "payable": false,
      "stateMutability": "view",
      "type": "function"
    },
    {
      "constant": true,
      "inputs": [],
      "name": "getGBTokenAddress",
      "outputs": [
        {
          "name": "_GBTAddress",
          "type": "address"
        }
      ],
      "payable": false,
      "stateMutability": "view",
      "type": "function"
    },
    {
      "constant": false,
      "inputs": [
        {
          "name": "newOwner",
          "type": "address"
        }
      ],
      "name": "transferOwnership",
      "outputs": [],
      "payable": false,
      "stateMutability": "nonpayable",
      "type": "function"
    },
    {
      "constant": true,
      "inputs": [],
      "name": "getCurrentVersion",
      "outputs": [
        {
          "name": "versionNo",
          "type": "uint16"
        },
        {
          "name": "MSAddress",
          "type": "address"
        }
      ],
      "payable": false,
      "stateMutability": "view",
      "type": "function"
    },
    {
      "inputs": [
        {
          "name": "_GovBlocksMasterAddress",
          "type": "address"
        },
        {
          "name": "_gbUserName",
          "type": "bytes32"
        }
      ],
      "payable": false,
      "stateMutability": "nonpayable",
      "type": "constructor"
    },
    {
      "anonymous": false,
      "inputs": [
        {
          "indexed": true,
          "name": "previousOwner",
          "type": "address"
        },
        {
          "indexed": true,
          "name": "newOwner",
          "type": "address"
        }
      ],
      "name": "OwnershipTransferred",
      "type": "event"
    }
  ],
  "bytecode": "0x6060604052341561000f57600080fd5b60405160408062006d5c83398101604052808051906020019091908051906020019091905050336000806101000a81548173ffffffffffffffffffffffffffffffffffffffff021916908373ffffffffffffffffffffffffffffffffffffffff1602179055506001600460003073ffffffffffffffffffffffffffffffffffffffff1673ffffffffffffffffffffffffffffffffffffffff16815260200190815260200160002060006101000a81548160ff02191690831515021790555060008060146101000a81548161ffff021916908361ffff16021790555081600760006101000a81548173ffffffffffffffffffffffffffffffffffffffff021916908373ffffffffffffffffffffffffffffffffffffffff16021790555080600181600019169055505050616c1480620001486000396000f30060606040526004361061015e576000357c0100000000000000000000000000000000000000000000000000000000900463ffffffff168062eb85e014610163578063023c23031461023657806306ecf884146102c75780630d89247d146102f857806313af40351461030d57806316127e64146103465780632704ee241461036d578063284e4175146103945780632f54bf6e146103cd57806367fdaf261461041e5780636f3c0b401461046f57806373aee6d5146104b65780638da5cb5b146104fc5780638f16c41c14610551578063914fc6d5146105a257806393a82683146105f75780639425e0b81461061e578063972b76c614610645578063aef816e81461069f578063b9b7ee5d146106d8578063d57fe1af1461071e578063d81fab8a1461074f578063dd970aa114610795578063e8318d89146107ea578063f1dd533e1461083b578063f2fde38b14610890578063fabec44a146108c9575b600080fd5b341561016e57600080fd5b610188600480803561ffff1690602001909190505061092d565b604051808461ffff1661ffff1681526020018060200180602001838103835285818151815260200191508051906020019060200280838360005b838110156101dd5780820151818401526020810190506101c2565b50505050905001838103825284818151815260200191508051906020019060200280838360005b8381101561021f578082015181840152602081019050610204565b505050509050019550505050505060405180910390f35b341561024157600080fd5b610285600480803561ffff169060200190919080357dffffffffffffffffffffffffffffffffffffffffffffffffffffffffffff1916906020019091905050610b9e565b604051808273ffffffffffffffffffffffffffffffffffffffff1673ffffffffffffffffffffffffffffffffffffffff16815260200191505060405180910390f35b34156102d257600080fd5b6102da610be0565b60405180826000191660001916815260200191505060405180910390f35b341561030357600080fd5b61030b610be6565b005b341561031857600080fd5b610344600480803573ffffffffffffffffffffffffffffffffffffffff16906020019091905050610e87565b005b341561035157600080fd5b61036b600480803561ffff16906020019091905050610f7d565b005b341561037857600080fd5b610392600480803561ffff16906020019091905050611000565b005b341561039f57600080fd5b6103cb600480803573ffffffffffffffffffffffffffffffffffffffff1690602001909190505061100c565b005b34156103d857600080fd5b610404600480803573ffffffffffffffffffffffffffffffffffffffff1690602001909190505061171f565b604051808215151515815260200191505060405180910390f35b341561042957600080fd5b610455600480803573ffffffffffffffffffffffffffffffffffffffff16906020019091905050611780565b604051808215151515815260200191505060405180910390f35b341561047a57600080fd5b6104b460048080610120019060098060200260405190810160405280929190826009602002808284378201915050505050919050506117a0565b005b34156104c157600080fd5b6104fa600480803573ffffffffffffffffffffffffffffffffffffffff1690602001909190803561ffff16906020019091905050611bb3565b005b341561050757600080fd5b61050f612709565b604051808273ffffffffffffffffffffffffffffffffffffffff1673ffffffffffffffffffffffffffffffffffffffff16815260200191505060405180910390f35b341561055c57600080fd5b610588600480803573ffffffffffffffffffffffffffffffffffffffff1690602001909190505061272e565b604051808215151515815260200191505060405180910390f35b34156105ad57600080fd5b6105b56127ea565b604051808273ffffffffffffffffffffffffffffffffffffffff1673ffffffffffffffffffffffffffffffffffffffff16815260200191505060405180910390f35b341561060257600080fd5b61061c600480803561ffff16906020019091905050612810565b005b341561062957600080fd5b610643600480803561ffff16906020019091905050612f75565b005b341561065057600080fd5b61069d600480803590602001908201803590602001908080602002602001604051908101604052809392919081815260200183836020028082843782019150505050505091905050615150565b005b34156106aa57600080fd5b6106d6600480803573ffffffffffffffffffffffffffffffffffffffff169060200190919050506151a1565b005b34156106e357600080fd5b61071c60048080356000191690602001909190803573ffffffffffffffffffffffffffffffffffffffff16906020019091905050615226565b005b341561072957600080fd5b610731615388565b604051808261ffff1661ffff16815260200191505060405180910390f35b341561075a57600080fd5b61079360048080356000191690602001909190803573ffffffffffffffffffffffffffffffffffffffff1690602001909190505061539c565b005b34156107a057600080fd5b6107a86154fe565b604051808273ffffffffffffffffffffffffffffffffffffffff1673ffffffffffffffffffffffffffffffffffffffff16815260200191505060405180910390f35b34156107f557600080fd5b610821600480803573ffffffffffffffffffffffffffffffffffffffff16906020019091905050615629565b604051808215151515815260200191505060405180910390f35b341561084657600080fd5b61084e615797565b604051808273ffffffffffffffffffffffffffffffffffffffff1673ffffffffffffffffffffffffffffffffffffffff16815260200191505060405180910390f35b341561089b57600080fd5b6108c7600480803573ffffffffffffffffffffffffffffffffffffffff169060200190919050506158aa565b005b34156108d457600080fd5b6108dc6159bf565b604051808361ffff1661ffff1681526020018273ffffffffffffffffffffffffffffffffffffffff1673ffffffffffffffffffffffffffffffffffffffff1681526020019250505060405180910390f35b6000610937616af3565b61093f616b07565b60008493506006805490506040518059106109575750595b9080825280602002602001820160405250925060068054905060405180591061097d5750595b90808252806020026020018201604052509150600090505b6006805490508160ff161015610b965760068160ff168154811015156109b757fe5b90600052602060002090601091828204019190066002029054906101000a90047e0100000000000000000000000000000000000000000000000000000000000002838260ff16815181101515610a0957fe5b906020019060200201907dffffffffffffffffffffffffffffffffffffffffffffffffffffffffffff191690817dffffffffffffffffffffffffffffffffffffffffffffffffffffffffffff191681525050600360008561ffff1661ffff168152602001908152602001600020600060068360ff16815481101515610a8a57fe5b90600052602060002090601091828204019190066002029054906101000a90047e01000000000000000000000000000000000000000000000000000000000000027dffffffffffffffffffffffffffffffffffffffffffffffffffffffffffff19167dffffffffffffffffffffffffffffffffffffffffffffffffffffffffffff1916815260200190815260200160002060009054906101000a900473ffffffffffffffffffffffffffffffffffffffff16828260ff16815181101515610b4d57fe5b9060200190602002019073ffffffffffffffffffffffffffffffffffffffff16908173ffffffffffffffffffffffffffffffffffffffff16815250508080600101915050610995565b509193909250565b60036020528160005260406000206020528060005260406000206000915091509054906101000a900473ffffffffffffffffffffffffffffffffffffffff1681565b60015481565b60006001600060149054906101000a900461ffff16039050600760009054906101000a900473ffffffffffffffffffffffffffffffffffffffff16600860006101000a81548173ffffffffffffffffffffffffffffffffffffffff021916908373ffffffffffffffffffffffffffffffffffffffff16021790555060008161ffff16148015610cc157506000809054906101000a900473ffffffffffffffffffffffffffffffffffffffff1673ffffffffffffffffffffffffffffffffffffffff163373ffffffffffffffffffffffffffffffffffffffff16145b80610dbd57506001600860009054906101000a900473ffffffffffffffffffffffffffffffffffffffff1673ffffffffffffffffffffffffffffffffffffffff16635e7a070f600154336000604051602001526040518363ffffffff167c01000000000000000000000000000000000000000000000000000000000281526004018083600019166000191681526020018273ffffffffffffffffffffffffffffffffffffffff1673ffffffffffffffffffffffffffffffffffffffff16815260200192505050602060405180830381600087803b1515610da057600080fd5b6102c65a03f11515610db157600080fd5b50505060405180519050145b1515610dc857600080fd5b610dd24282615a6c565b610ddb81611000565b610e72600360008361ffff1661ffff16815260200190815260200160002060007f4d530000000000000000000000000000000000000000000000000000000000007dffffffffffffffffffffffffffffffffffffffffffffffffffffffffffff1916815260200190815260200160002060009054906101000a900473ffffffffffffffffffffffffffffffffffffffff1682611bb3565b610e7b81612810565b610e8481612f75565b50565b600760009054906101000a900473ffffffffffffffffffffffffffffffffffffffff1673ffffffffffffffffffffffffffffffffffffffff163373ffffffffffffffffffffffffffffffffffffffff161480610f2f57506000809054906101000a900473ffffffffffffffffffffffffffffffffffffffff1673ffffffffffffffffffffffffffffffffffffffff163373ffffffffffffffffffffffffffffffffffffffff16145b1515610f3a57600080fd5b806000806101000a81548173ffffffffffffffffffffffffffffffffffffffff021916908373ffffffffffffffffffffffffffffffffffffffff16021790555050565b60008090505b6006805490508160ff161015610ffc57610fef8260068360ff16815481101515610fa957fe5b90600052602060002090601091828204019190066002029054906101000a90047e0100000000000000000000000000000000000000000000000000000000000002615ae2565b8080600101915050610f83565b5050565b61100981610f7d565b50565b6000600760009054906101000a900473ffffffffffffffffffffffffffffffffffffffff16600860006101000a81548173ffffffffffffffffffffffffffffffffffffffff021916908373ffffffffffffffffffffffffffffffffffffffff1602179055506001600060149054906101000a900461ffff1603905060008161ffff161480156110e757506000809054906101000a900473ffffffffffffffffffffffffffffffffffffffff1673ffffffffffffffffffffffffffffffffffffffff163373ffffffffffffffffffffffffffffffffffffffff16145b8061113f5750600760009054906101000a900473ffffffffffffffffffffffffffffffffffffffff1673ffffffffffffffffffffffffffffffffffffffff163373ffffffffffffffffffffffffffffffffffffffff16145b8061123b57506001600860009054906101000a900473ffffffffffffffffffffffffffffffffffffffff1673ffffffffffffffffffffffffffffffffffffffff16635e7a070f600154336000604051602001526040518363ffffffff167c01000000000000000000000000000000000000000000000000000000000281526004018083600019166000191681526020018273ffffffffffffffffffffffffffffffffffffffff1673ffffffffffffffffffffffffffffffffffffffff16815260200192505050602060405180830381600087803b151561121e57600080fd5b6102c65a03f1151561122f57600080fd5b50505060405180519050145b1561171b57600360008261ffff1661ffff16815260200190815260200160002060007f53560000000000000000000000000000000000000000000000000000000000007dffffffffffffffffffffffffffffffffffffffffffffffffffffffffffff1916815260200190815260200160002060009054906101000a900473ffffffffffffffffffffffffffffffffffffffff16600f60006101000a81548173ffffffffffffffffffffffffffffffffffffffff021916908373ffffffffffffffffffffffffffffffffffffffff160217905550600f60009054906101000a900473ffffffffffffffffffffffffffffffffffffffff1673ffffffffffffffffffffffffffffffffffffffff1663eecedcb0836040518263ffffffff167c0100000000000000000000000000000000000000000000000000000000028152600401808273ffffffffffffffffffffffffffffffffffffffff1673ffffffffffffffffffffffffffffffffffffffff168152602001915050600060405180830381600087803b15156113ca57600080fd5b6102c65a03f115156113db57600080fd5b505050600360008261ffff1661ffff16815260200190815260200160002060007f47560000000000000000000000000000000000000000000000000000000000007dffffffffffffffffffffffffffffffffffffffffffffffffffffffffffff1916815260200190815260200160002060009054906101000a900473ffffffffffffffffffffffffffffffffffffffff16600b60006101000a81548173ffffffffffffffffffffffffffffffffffffffff021916908373ffffffffffffffffffffffffffffffffffffffff160217905550600b60009054906101000a900473ffffffffffffffffffffffffffffffffffffffff1673ffffffffffffffffffffffffffffffffffffffff1663eecedcb0836040518263ffffffff167c0100000000000000000000000000000000000000000000000000000000028152600401808273ffffffffffffffffffffffffffffffffffffffff1673ffffffffffffffffffffffffffffffffffffffff168152602001915050600060405180830381600087803b151561156857600080fd5b6102c65a03f1151561157957600080fd5b505050600360008261ffff1661ffff16815260200190815260200160002060007f56540000000000000000000000000000000000000000000000000000000000007dffffffffffffffffffffffffffffffffffffffffffffffffffffffffffff1916815260200190815260200160002060009054906101000a900473ffffffffffffffffffffffffffffffffffffffff16601260006101000a81548173ffffffffffffffffffffffffffffffffffffffff021916908373ffffffffffffffffffffffffffffffffffffffff160217905550601260009054906101000a900473ffffffffffffffffffffffffffffffffffffffff1673ffffffffffffffffffffffffffffffffffffffff1663eecedcb0836040518263ffffffff167c0100000000000000000000000000000000000000000000000000000000028152600401808273ffffffffffffffffffffffffffffffffffffffff1673ffffffffffffffffffffffffffffffffffffffff168152602001915050600060405180830381600087803b151561170657600080fd5b6102c65a03f1151561171757600080fd5b5050505b5050565b60008173ffffffffffffffffffffffffffffffffffffffff166000809054906101000a900473ffffffffffffffffffffffffffffffffffffffff1673ffffffffffffffffffffffffffffffffffffffff16141561177b57600190505b919050565b60046020528060005260406000206000915054906101000a900460ff1681565b6000600760009054906101000a900473ffffffffffffffffffffffffffffffffffffffff16600860006101000a81548173ffffffffffffffffffffffffffffffffffffffff021916908373ffffffffffffffffffffffffffffffffffffffff1602179055506001600860009054906101000a900473ffffffffffffffffffffffffffffffffffffffff1673ffffffffffffffffffffffffffffffffffffffff16635e7a070f600154336000604051602001526040518363ffffffff167c01000000000000000000000000000000000000000000000000000000000281526004018083600019166000191681526020018273ffffffffffffffffffffffffffffffffffffffff1673ffffffffffffffffffffffffffffffffffffffff16815260200192505050602060405180830381600087803b15156118de57600080fd5b6102c65a03f115156118ef57600080fd5b5050506040518051905014151561190557600080fd5b600060149054906101000a900461ffff16905061192460018201615ccc565b61194f817f4d5300000000000000000000000000000000000000000000000000000000000030615cec565b61198d817f474400000000000000000000000000000000000000000000000000000000000084600060098110151561198357fe5b6020020151615cec565b6119cb817f4d520000000000000000000000000000000000000000000000000000000000008460016009811015156119c157fe5b6020020151615cec565b611a09817f50430000000000000000000000000000000000000000000000000000000000008460026009811015156119ff57fe5b6020020151615cec565b611a47817f5356000000000000000000000000000000000000000000000000000000000000846003600981101515611a3d57fe5b6020020151615cec565b611a85817f5242000000000000000000000000000000000000000000000000000000000000846004600981101515611a7b57fe5b6020020151615cec565b611ac3817f4657000000000000000000000000000000000000000000000000000000000000846005600981101515611ab957fe5b6020020151615cec565b611b01817f5654000000000000000000000000000000000000000000000000000000000000846006600981101515611af757fe5b6020020151615cec565b611b3f817f4756000000000000000000000000000000000000000000000000000000000000846007600981101515611b3557fe5b6020020151615cec565b611b7d817f504c000000000000000000000000000000000000000000000000000000000000846008600981101515611b7357fe5b6020020151615cec565b611baf817f4753000000000000000000000000000000000000000000000000000000000000611baa615797565b615cec565b5050565b600360008261ffff1661ffff16815260200190815260200160002060007f47440000000000000000000000000000000000000000000000000000000000007dffffffffffffffffffffffffffffffffffffffffffffffffffffffffffff1916815260200190815260200160002060009054906101000a900473ffffffffffffffffffffffffffffffffffffffff16600c60006101000a81548173ffffffffffffffffffffffffffffffffffffffff021916908373ffffffffffffffffffffffffffffffffffffffff160217905550600c60009054906101000a900473ffffffffffffffffffffffffffffffffffffffff1673ffffffffffffffffffffffffffffffffffffffff1663d46655f4836040518263ffffffff167c0100000000000000000000000000000000000000000000000000000000028152600401808273ffffffffffffffffffffffffffffffffffffffff1673ffffffffffffffffffffffffffffffffffffffff168152602001915050600060405180830381600087803b1515611d3d57600080fd5b6102c65a03f11515611d4e57600080fd5b505050600360008261ffff1661ffff16815260200190815260200160002060007f53560000000000000000000000000000000000000000000000000000000000007dffffffffffffffffffffffffffffffffffffffffffffffffffffffffffff1916815260200190815260200160002060009054906101000a900473ffffffffffffffffffffffffffffffffffffffff16600f60006101000a81548173ffffffffffffffffffffffffffffffffffffffff021916908373ffffffffffffffffffffffffffffffffffffffff160217905550600f60009054906101000a900473ffffffffffffffffffffffffffffffffffffffff1673ffffffffffffffffffffffffffffffffffffffff1663d46655f4836040518263ffffffff167c0100000000000000000000000000000000000000000000000000000000028152600401808273ffffffffffffffffffffffffffffffffffffffff1673ffffffffffffffffffffffffffffffffffffffff168152602001915050600060405180830381600087803b1515611edb57600080fd5b6102c65a03f11515611eec57600080fd5b505050600360008261ffff1661ffff16815260200190815260200160002060007f56540000000000000000000000000000000000000000000000000000000000007dffffffffffffffffffffffffffffffffffffffffffffffffffffffffffff1916815260200190815260200160002060009054906101000a900473ffffffffffffffffffffffffffffffffffffffff16601260006101000a81548173ffffffffffffffffffffffffffffffffffffffff021916908373ffffffffffffffffffffffffffffffffffffffff160217905550601260009054906101000a900473ffffffffffffffffffffffffffffffffffffffff1673ffffffffffffffffffffffffffffffffffffffff1663d46655f4836040518263ffffffff167c0100000000000000000000000000000000000000000000000000000000028152600401808273ffffffffffffffffffffffffffffffffffffffff1673ffffffffffffffffffffffffffffffffffffffff168152602001915050600060405180830381600087803b151561207957600080fd5b6102c65a03f1151561208a57600080fd5b505050600360008261ffff1661ffff16815260200190815260200160002060007f47560000000000000000000000000000000000000000000000000000000000007dffffffffffffffffffffffffffffffffffffffffffffffffffffffffffff1916815260200190815260200160002060009054906101000a900473ffffffffffffffffffffffffffffffffffffffff16600b60006101000a81548173ffffffffffffffffffffffffffffffffffffffff021916908373ffffffffffffffffffffffffffffffffffffffff160217905550600b60009054906101000a900473ffffffffffffffffffffffffffffffffffffffff1673ffffffffffffffffffffffffffffffffffffffff1663d46655f4836040518263ffffffff167c0100000000000000000000000000000000000000000000000000000000028152600401808273ffffffffffffffffffffffffffffffffffffffff1673ffffffffffffffffffffffffffffffffffffffff168152602001915050600060405180830381600087803b151561221757600080fd5b6102c65a03f1151561222857600080fd5b505050600360008261ffff1661ffff16815260200190815260200160002060007f504c0000000000000000000000000000000000000000000000000000000000007dffffffffffffffffffffffffffffffffffffffffffffffffffffffffffff1916815260200190815260200160002060009054906101000a900473ffffffffffffffffffffffffffffffffffffffff16600a60006101000a81548173ffffffffffffffffffffffffffffffffffffffff021916908373ffffffffffffffffffffffffffffffffffffffff160217905550600a60009054906101000a900473ffffffffffffffffffffffffffffffffffffffff1673ffffffffffffffffffffffffffffffffffffffff1663d46655f4836040518263ffffffff167c0100000000000000000000000000000000000000000000000000000000028152600401808273ffffffffffffffffffffffffffffffffffffffff1673ffffffffffffffffffffffffffffffffffffffff168152602001915050600060405180830381600087803b15156123b557600080fd5b6102c65a03f115156123c657600080fd5b505050600360008261ffff1661ffff16815260200190815260200160002060007f50430000000000000000000000000000000000000000000000000000000000007dffffffffffffffffffffffffffffffffffffffffffffffffffffffffffff1916815260200190815260200160002060009054906101000a900473ffffffffffffffffffffffffffffffffffffffff16600e60006101000a81548173ffffffffffffffffffffffffffffffffffffffff021916908373ffffffffffffffffffffffffffffffffffffffff160217905550600e60009054906101000a900473ffffffffffffffffffffffffffffffffffffffff1673ffffffffffffffffffffffffffffffffffffffff1663d46655f4836040518263ffffffff167c0100000000000000000000000000000000000000000000000000000000028152600401808273ffffffffffffffffffffffffffffffffffffffff1673ffffffffffffffffffffffffffffffffffffffff168152602001915050600060405180830381600087803b151561255357600080fd5b6102c65a03f1151561256457600080fd5b505050600360008261ffff1661ffff16815260200190815260200160002060007f4d520000000000000000000000000000000000000000000000000000000000007dffffffffffffffffffffffffffffffffffffffffffffffffffffffffffff1916815260200190815260200160002060009054906101000a900473ffffffffffffffffffffffffffffffffffffffff16600d60006101000a81548173ffffffffffffffffffffffffffffffffffffffff021916908373ffffffffffffffffffffffffffffffffffffffff160217905550600d60009054906101000a900473ffffffffffffffffffffffffffffffffffffffff1673ffffffffffffffffffffffffffffffffffffffff1663d46655f4836040518263ffffffff167c0100000000000000000000000000000000000000000000000000000000028152600401808273ffffffffffffffffffffffffffffffffffffffff1673ffffffffffffffffffffffffffffffffffffffff168152602001915050600060405180830381600087803b15156126f157600080fd5b6102c65a03f1151561270257600080fd5b5050505050565b6000809054906101000a900473ffffffffffffffffffffffffffffffffffffffff1681565b600060011515600460008473ffffffffffffffffffffffffffffffffffffffff1673ffffffffffffffffffffffffffffffffffffffff16815260200190815260200160002060009054906101000a900460ff16151514806127db57508173ffffffffffffffffffffffffffffffffffffffff166000809054906101000a900473ffffffffffffffffffffffffffffffffffffffff1673ffffffffffffffffffffffffffffffffffffffff16145b156127e557600190505b919050565b600760009054906101000a900473ffffffffffffffffffffffffffffffffffffffff1681565b600360008261ffff1661ffff16815260200190815260200160002060007f47440000000000000000000000000000000000000000000000000000000000007dffffffffffffffffffffffffffffffffffffffffffffffffffffffffffff1916815260200190815260200160002060009054906101000a900473ffffffffffffffffffffffffffffffffffffffff16600c60006101000a81548173ffffffffffffffffffffffffffffffffffffffff021916908373ffffffffffffffffffffffffffffffffffffffff160217905550600360008261ffff1661ffff16815260200190815260200160002060007f4d520000000000000000000000000000000000000000000000000000000000007dffffffffffffffffffffffffffffffffffffffffffffffffffffffffffff1916815260200190815260200160002060009054906101000a900473ffffffffffffffffffffffffffffffffffffffff16600d60006101000a81548173ffffffffffffffffffffffffffffffffffffffff021916908373ffffffffffffffffffffffffffffffffffffffff160217905550600360008261ffff1661ffff16815260200190815260200160002060007f50430000000000000000000000000000000000000000000000000000000000007dffffffffffffffffffffffffffffffffffffffffffffffffffffffffffff1916815260200190815260200160002060009054906101000a900473ffffffffffffffffffffffffffffffffffffffff16600e60006101000a81548173ffffffffffffffffffffffffffffffffffffffff021916908373ffffffffffffffffffffffffffffffffffffffff16021790555060001515600c60009054906101000a900473ffffffffffffffffffffffffffffffffffffffff1673ffffffffffffffffffffffffffffffffffffffff1663525050e16000604051602001526040518163ffffffff167c0100000000000000000000000000000000000000000000000000000000028152600401602060405180830381600087803b1515612b0c57600080fd5b6102c65a03f11515612b1d57600080fd5b5050506040518051905015151415612c2257600c60009054906101000a900473ffffffffffffffffffffffffffffffffffffffff1673ffffffffffffffffffffffffffffffffffffffff1663ab69a71f600760009054906101000a900473ffffffffffffffffffffffffffffffffffffffff166040518263ffffffff167c0100000000000000000000000000000000000000000000000000000000028152600401808273ffffffffffffffffffffffffffffffffffffffff1673ffffffffffffffffffffffffffffffffffffffff168152602001915050600060405180830381600087803b1515612c0d57600080fd5b6102c65a03f11515612c1e57600080fd5b5050505b60001515600d60009054906101000a900473ffffffffffffffffffffffffffffffffffffffff1673ffffffffffffffffffffffffffffffffffffffff1663525050e16000604051602001526040518163ffffffff167c0100000000000000000000000000000000000000000000000000000000028152600401602060405180830381600087803b1515612cb457600080fd5b6102c65a03f11515612cc557600080fd5b5050506040518051905015151415612dca57600d60009054906101000a900473ffffffffffffffffffffffffffffffffffffffff1673ffffffffffffffffffffffffffffffffffffffff16631341bc04600760009054906101000a900473ffffffffffffffffffffffffffffffffffffffff166040518263ffffffff167c0100000000000000000000000000000000000000000000000000000000028152600401808273ffffffffffffffffffffffffffffffffffffffff1673ffffffffffffffffffffffffffffffffffffffff168152602001915050600060405180830381600087803b1515612db557600080fd5b6102c65a03f11515612dc657600080fd5b5050505b60001515600e60009054906101000a900473ffffffffffffffffffffffffffffffffffffffff1673ffffffffffffffffffffffffffffffffffffffff1663525050e16000604051602001526040518163ffffffff167c0100000000000000000000000000000000000000000000000000000000028152600401602060405180830381600087803b1515612e5c57600080fd5b6102c65a03f11515612e6d57600080fd5b5050506040518051905015151415612f7257600e60009054906101000a900473ffffffffffffffffffffffffffffffffffffffff1673ffffffffffffffffffffffffffffffffffffffff1663b3f4ccb1600760009054906101000a900473ffffffffffffffffffffffffffffffffffffffff166040518263ffffffff167c0100000000000000000000000000000000000000000000000000000000028152600401808273ffffffffffffffffffffffffffffffffffffffff1673ffffffffffffffffffffffffffffffffffffffff168152602001915050600060405180830381600087803b1515612f5d57600080fd5b6102c65a03f11515612f6e57600080fd5b5050505b50565b60008090505b6006805490508160ff1610156150b65760011515600560007f47440000000000000000000000000000000000000000000000000000000000007dffffffffffffffffffffffffffffffffffffffffffffffffffffffffffff19168152602001908152602001600020600060068460ff16815481101515612ff757fe5b90600052602060002090601091828204019190066002029054906101000a90047e01000000000000000000000000000000000000000000000000000000000000027dffffffffffffffffffffffffffffffffffffffffffffffffffffffffffff19167dffffffffffffffffffffffffffffffffffffffffffffffffffffffffffff1916815260200190815260200160002060009054906101000a900460ff161515141561351057600360008060149054906101000a900461ffff1661ffff1661ffff168152602001908152602001600020600060068360ff168154811015156130dc57fe5b90600052602060002090601091828204019190066002029054906101000a90047e01000000000000000000000000000000000000000000000000000000000000027dffffffffffffffffffffffffffffffffffffffffffffffffffffffffffff19167dffffffffffffffffffffffffffffffffffffffffffffffffffffffffffff1916815260200190815260200160002060009054906101000a900473ffffffffffffffffffffffffffffffffffffffff1673ffffffffffffffffffffffffffffffffffffffff16600360006001600060149054906101000a900461ffff160361ffff1661ffff168152602001908152602001600020600060068460ff168154811015156131e657fe5b90600052602060002090601091828204019190066002029054906101000a90047e01000000000000000000000000000000000000000000000000000000000000027dffffffffffffffffffffffffffffffffffffffffffffffffffffffffffff19167dffffffffffffffffffffffffffffffffffffffffffffffffffffffffffff1916815260200190815260200160002060009054906101000a900473ffffffffffffffffffffffffffffffffffffffff1673ffffffffffffffffffffffffffffffffffffffff1614151561350f57600c60009054906101000a900473ffffffffffffffffffffffffffffffffffffffff1673ffffffffffffffffffffffffffffffffffffffff166367bf5d0c60068360ff1681548110151561330557fe5b90600052602060002090601091828204019190066002029054906101000a90047e0100000000000000000000000000000000000000000000000000000000000002600360008060149054906101000a900461ffff1661ffff1661ffff168152602001908152602001600020600060068660ff1681548110151561338457fe5b90600052602060002090601091828204019190066002029054906101000a90047e01000000000000000000000000000000000000000000000000000000000000027dffffffffffffffffffffffffffffffffffffffffffffffffffffffffffff19167dffffffffffffffffffffffffffffffffffffffffffffffffffffffffffff1916815260200190815260200160002060009054906101000a900473ffffffffffffffffffffffffffffffffffffffff166040518363ffffffff167c010000000000000000000000000000000000000000000000000000000002815260040180837dffffffffffffffffffffffffffffffffffffffffffffffffffffffffffff19167bffffffffffffffffffffffffffffffffffffffffffffffffffffffff191681526020018273ffffffffffffffffffffffffffffffffffffffff1673ffffffffffffffffffffffffffffffffffffffff16815260200192505050600060405180830381600087803b15156134fa57600080fd5b6102c65a03f1151561350b57600080fd5b5050505b5b60011515600560007f50430000000000000000000000000000000000000000000000000000000000007dffffffffffffffffffffffffffffffffffffffffffffffffffffffffffff19168152602001908152602001600020600060068460ff1681548110151561357c57fe5b90600052602060002090601091828204019190066002029054906101000a90047e01000000000000000000000000000000000000000000000000000000000000027dffffffffffffffffffffffffffffffffffffffffffffffffffffffffffff19167dffffffffffffffffffffffffffffffffffffffffffffffffffffffffffff1916815260200190815260200160002060009054906101000a900460ff1615151415613a9557600360008060149054906101000a900461ffff1661ffff1661ffff168152602001908152602001600020600060068360ff1681548110151561366157fe5b90600052602060002090601091828204019190066002029054906101000a90047e01000000000000000000000000000000000000000000000000000000000000027dffffffffffffffffffffffffffffffffffffffffffffffffffffffffffff19167dffffffffffffffffffffffffffffffffffffffffffffffffffffffffffff1916815260200190815260200160002060009054906101000a900473ffffffffffffffffffffffffffffffffffffffff1673ffffffffffffffffffffffffffffffffffffffff16600360006001600060149054906101000a900461ffff160361ffff1661ffff168152602001908152602001600020600060068460ff1681548110151561376b57fe5b90600052602060002090601091828204019190066002029054906101000a90047e01000000000000000000000000000000000000000000000000000000000000027dffffffffffffffffffffffffffffffffffffffffffffffffffffffffffff19167dffffffffffffffffffffffffffffffffffffffffffffffffffffffffffff1916815260200190815260200160002060009054906101000a900473ffffffffffffffffffffffffffffffffffffffff1673ffffffffffffffffffffffffffffffffffffffff16141515613a9457600e60009054906101000a900473ffffffffffffffffffffffffffffffffffffffff1673ffffffffffffffffffffffffffffffffffffffff166367bf5d0c60068360ff1681548110151561388a57fe5b90600052602060002090601091828204019190066002029054906101000a90047e0100000000000000000000000000000000000000000000000000000000000002600360008060149054906101000a900461ffff1661ffff1661ffff168152602001908152602001600020600060068660ff1681548110151561390957fe5b90600052602060002090601091828204019190066002029054906101000a90047e01000000000000000000000000000000000000000000000000000000000000027dffffffffffffffffffffffffffffffffffffffffffffffffffffffffffff19167dffffffffffffffffffffffffffffffffffffffffffffffffffffffffffff1916815260200190815260200160002060009054906101000a900473ffffffffffffffffffffffffffffffffffffffff166040518363ffffffff167c010000000000000000000000000000000000000000000000000000000002815260040180837dffffffffffffffffffffffffffffffffffffffffffffffffffffffffffff19167bffffffffffffffffffffffffffffffffffffffffffffffffffffffff191681526020018273ffffffffffffffffffffffffffffffffffffffff1673ffffffffffffffffffffffffffffffffffffffff16815260200192505050600060405180830381600087803b1515613a7f57600080fd5b6102c65a03f11515613a9057600080fd5b5050505b5b60011515600560007f53560000000000000000000000000000000000000000000000000000000000007dffffffffffffffffffffffffffffffffffffffffffffffffffffffffffff19168152602001908152602001600020600060068460ff16815481101515613b0157fe5b90600052602060002090601091828204019190066002029054906101000a90047e01000000000000000000000000000000000000000000000000000000000000027dffffffffffffffffffffffffffffffffffffffffffffffffffffffffffff19167dffffffffffffffffffffffffffffffffffffffffffffffffffffffffffff1916815260200190815260200160002060009054906101000a900460ff161515141561401a57600360008060149054906101000a900461ffff1661ffff1661ffff168152602001908152602001600020600060068360ff16815481101515613be657fe5b90600052602060002090601091828204019190066002029054906101000a90047e01000000000000000000000000000000000000000000000000000000000000027dffffffffffffffffffffffffffffffffffffffffffffffffffffffffffff19167dffffffffffffffffffffffffffffffffffffffffffffffffffffffffffff1916815260200190815260200160002060009054906101000a900473ffffffffffffffffffffffffffffffffffffffff1673ffffffffffffffffffffffffffffffffffffffff16600360006001600060149054906101000a900461ffff160361ffff1661ffff168152602001908152602001600020600060068460ff16815481101515613cf057fe5b90600052602060002090601091828204019190066002029054906101000a90047e01000000000000000000000000000000000000000000000000000000000000027dffffffffffffffffffffffffffffffffffffffffffffffffffffffffffff19167dffffffffffffffffffffffffffffffffffffffffffffffffffffffffffff1916815260200190815260200160002060009054906101000a900473ffffffffffffffffffffffffffffffffffffffff1673ffffffffffffffffffffffffffffffffffffffff1614151561401957600f60009054906101000a900473ffffffffffffffffffffffffffffffffffffffff1673ffffffffffffffffffffffffffffffffffffffff166367bf5d0c60068360ff16815481101515613e0f57fe5b90600052602060002090601091828204019190066002029054906101000a90047e0100000000000000000000000000000000000000000000000000000000000002600360008060149054906101000a900461ffff1661ffff1661ffff168152602001908152602001600020600060068660ff16815481101515613e8e57fe5b90600052602060002090601091828204019190066002029054906101000a90047e01000000000000000000000000000000000000000000000000000000000000027dffffffffffffffffffffffffffffffffffffffffffffffffffffffffffff19167dffffffffffffffffffffffffffffffffffffffffffffffffffffffffffff1916815260200190815260200160002060009054906101000a900473ffffffffffffffffffffffffffffffffffffffff166040518363ffffffff167c010000000000000000000000000000000000000000000000000000000002815260040180837dffffffffffffffffffffffffffffffffffffffffffffffffffffffffffff19167bffffffffffffffffffffffffffffffffffffffffffffffffffffffff191681526020018273ffffffffffffffffffffffffffffffffffffffff1673ffffffffffffffffffffffffffffffffffffffff16815260200192505050600060405180830381600087803b151561400457600080fd5b6102c65a03f1151561401557600080fd5b5050505b5b60011515600560007f47440000000000000000000000000000000000000000000000000000000000007dffffffffffffffffffffffffffffffffffffffffffffffffffffffffffff19168152602001908152602001600020600060068460ff1681548110151561408657fe5b90600052602060002090601091828204019190066002029054906101000a90047e01000000000000000000000000000000000000000000000000000000000000027dffffffffffffffffffffffffffffffffffffffffffffffffffffffffffff19167dffffffffffffffffffffffffffffffffffffffffffffffffffffffffffff1916815260200190815260200160002060009054906101000a900460ff161515141561459f57600360008060149054906101000a900461ffff1661ffff1661ffff168152602001908152602001600020600060068360ff1681548110151561416b57fe5b90600052602060002090601091828204019190066002029054906101000a90047e01000000000000000000000000000000000000000000000000000000000000027dffffffffffffffffffffffffffffffffffffffffffffffffffffffffffff19167dffffffffffffffffffffffffffffffffffffffffffffffffffffffffffff1916815260200190815260200160002060009054906101000a900473ffffffffffffffffffffffffffffffffffffffff1673ffffffffffffffffffffffffffffffffffffffff16600360006001600060149054906101000a900461ffff160361ffff1661ffff168152602001908152602001600020600060068460ff1681548110151561427557fe5b90600052602060002090601091828204019190066002029054906101000a90047e01000000000000000000000000000000000000000000000000000000000000027dffffffffffffffffffffffffffffffffffffffffffffffffffffffffffff19167dffffffffffffffffffffffffffffffffffffffffffffffffffffffffffff1916815260200190815260200160002060009054906101000a900473ffffffffffffffffffffffffffffffffffffffff1673ffffffffffffffffffffffffffffffffffffffff1614151561459e57600c60009054906101000a900473ffffffffffffffffffffffffffffffffffffffff1673ffffffffffffffffffffffffffffffffffffffff166367bf5d0c60068360ff1681548110151561439457fe5b90600052602060002090601091828204019190066002029054906101000a90047e0100000000000000000000000000000000000000000000000000000000000002600360008060149054906101000a900461ffff1661ffff1661ffff168152602001908152602001600020600060068660ff1681548110151561441357fe5b90600052602060002090601091828204019190066002029054906101000a90047e01000000000000000000000000000000000000000000000000000000000000027dffffffffffffffffffffffffffffffffffffffffffffffffffffffffffff19167dffffffffffffffffffffffffffffffffffffffffffffffffffffffffffff1916815260200190815260200160002060009054906101000a900473ffffffffffffffffffffffffffffffffffffffff166040518363ffffffff167c010000000000000000000000000000000000000000000000000000000002815260040180837dffffffffffffffffffffffffffffffffffffffffffffffffffffffffffff19167bffffffffffffffffffffffffffffffffffffffffffffffffffffffff191681526020018273ffffffffffffffffffffffffffffffffffffffff1673ffffffffffffffffffffffffffffffffffffffff16815260200192505050600060405180830381600087803b151561458957600080fd5b6102c65a03f1151561459a57600080fd5b5050505b5b60011515600560007f56540000000000000000000000000000000000000000000000000000000000007dffffffffffffffffffffffffffffffffffffffffffffffffffffffffffff19168152602001908152602001600020600060068460ff1681548110151561460b57fe5b90600052602060002090601091828204019190066002029054906101000a90047e01000000000000000000000000000000000000000000000000000000000000027dffffffffffffffffffffffffffffffffffffffffffffffffffffffffffff19167dffffffffffffffffffffffffffffffffffffffffffffffffffffffffffff1916815260200190815260200160002060009054906101000a900460ff1615151415614b2457600360008060149054906101000a900461ffff1661ffff1661ffff168152602001908152602001600020600060068360ff168154811015156146f057fe5b90600052602060002090601091828204019190066002029054906101000a90047e01000000000000000000000000000000000000000000000000000000000000027dffffffffffffffffffffffffffffffffffffffffffffffffffffffffffff19167dffffffffffffffffffffffffffffffffffffffffffffffffffffffffffff1916815260200190815260200160002060009054906101000a900473ffffffffffffffffffffffffffffffffffffffff1673ffffffffffffffffffffffffffffffffffffffff16600360006001600060149054906101000a900461ffff160361ffff1661ffff168152602001908152602001600020600060068460ff168154811015156147fa57fe5b90600052602060002090601091828204019190066002029054906101000a90047e01000000000000000000000000000000000000000000000000000000000000027dffffffffffffffffffffffffffffffffffffffffffffffffffffffffffff19167dffffffffffffffffffffffffffffffffffffffffffffffffffffffffffff1916815260200190815260200160002060009054906101000a900473ffffffffffffffffffffffffffffffffffffffff1673ffffffffffffffffffffffffffffffffffffffff16141515614b2357601260009054906101000a900473ffffffffffffffffffffffffffffffffffffffff1673ffffffffffffffffffffffffffffffffffffffff166367bf5d0c60068360ff1681548110151561491957fe5b90600052602060002090601091828204019190066002029054906101000a90047e0100000000000000000000000000000000000000000000000000000000000002600360008060149054906101000a900461ffff1661ffff1661ffff168152602001908152602001600020600060068660ff1681548110151561499857fe5b90600052602060002090601091828204019190066002029054906101000a90047e01000000000000000000000000000000000000000000000000000000000000027dffffffffffffffffffffffffffffffffffffffffffffffffffffffffffff19167dffffffffffffffffffffffffffffffffffffffffffffffffffffffffffff1916815260200190815260200160002060009054906101000a900473ffffffffffffffffffffffffffffffffffffffff166040518363ffffffff167c010000000000000000000000000000000000000000000000000000000002815260040180837dffffffffffffffffffffffffffffffffffffffffffffffffffffffffffff19167bffffffffffffffffffffffffffffffffffffffffffffffffffffffff191681526020018273ffffffffffffffffffffffffffffffffffffffff1673ffffffffffffffffffffffffffffffffffffffff16815260200192505050600060405180830381600087803b1515614b0e57600080fd5b6102c65a03f11515614b1f57600080fd5b5050505b5b60011515600560007f47560000000000000000000000000000000000000000000000000000000000007dffffffffffffffffffffffffffffffffffffffffffffffffffffffffffff19168152602001908152602001600020600060068460ff16815481101515614b9057fe5b90600052602060002090601091828204019190066002029054906101000a90047e01000000000000000000000000000000000000000000000000000000000000027dffffffffffffffffffffffffffffffffffffffffffffffffffffffffffff19167dffffffffffffffffffffffffffffffffffffffffffffffffffffffffffff1916815260200190815260200160002060009054906101000a900460ff16151514156150a957600360008060149054906101000a900461ffff1661ffff1661ffff168152602001908152602001600020600060068360ff16815481101515614c7557fe5b90600052602060002090601091828204019190066002029054906101000a90047e01000000000000000000000000000000000000000000000000000000000000027dffffffffffffffffffffffffffffffffffffffffffffffffffffffffffff19167dffffffffffffffffffffffffffffffffffffffffffffffffffffffffffff1916815260200190815260200160002060009054906101000a900473ffffffffffffffffffffffffffffffffffffffff1673ffffffffffffffffffffffffffffffffffffffff16600360006001600060149054906101000a900461ffff160361ffff1661ffff168152602001908152602001600020600060068460ff16815481101515614d7f57fe5b90600052602060002090601091828204019190066002029054906101000a90047e01000000000000000000000000000000000000000000000000000000000000027dffffffffffffffffffffffffffffffffffffffffffffffffffffffffffff19167dffffffffffffffffffffffffffffffffffffffffffffffffffffffffffff1916815260200190815260200160002060009054906101000a900473ffffffffffffffffffffffffffffffffffffffff1673ffffffffffffffffffffffffffffffffffffffff161415156150a857600b60009054906101000a900473ffffffffffffffffffffffffffffffffffffffff1673ffffffffffffffffffffffffffffffffffffffff166367bf5d0c60068360ff16815481101515614e9e57fe5b90600052602060002090601091828204019190066002029054906101000a90047e0100000000000000000000000000000000000000000000000000000000000002600360008060149054906101000a900461ffff1661ffff1661ffff168152602001908152602001600020600060068660ff16815481101515614f1d57fe5b90600052602060002090601091828204019190066002029054906101000a90047e01000000000000000000000000000000000000000000000000000000000000027dffffffffffffffffffffffffffffffffffffffffffffffffffffffffffff19167dffffffffffffffffffffffffffffffffffffffffffffffffffffffffffff1916815260200190815260200160002060009054906101000a900473ffffffffffffffffffffffffffffffffffffffff166040518363ffffffff167c010000000000000000000000000000000000000000000000000000000002815260040180837dffffffffffffffffffffffffffffffffffffffffffffffffffffffffffff19167bffffffffffffffffffffffffffffffffffffffffffffffffffffffff191681526020018273ffffffffffffffffffffffffffffffffffffffff1673ffffffffffffffffffffffffffffffffffffffff16815260200192505050600060405180830381600087803b151561509357600080fd5b6102c65a03f115156150a457600080fd5b5050505b5b8080600101915050612f7b565b61514c600360008461ffff1661ffff16815260200190815260200160002060007f47530000000000000000000000000000000000000000000000000000000000007dffffffffffffffffffffffffffffffffffffffffffffffffffffffffffff1916815260200190815260200160002060009054906101000a900473ffffffffffffffffffffffffffffffffffffffff1661100c565b5050565b60001515601260149054906101000a900460ff16151514151561517257600080fd5b61517b81615d9e565b615183615e42565b6001601260146101000a81548160ff02191690831515021790555050565b600760009054906101000a900473ffffffffffffffffffffffffffffffffffffffff1673ffffffffffffffffffffffffffffffffffffffff163373ffffffffffffffffffffffffffffffffffffffff161415156151fd57600080fd5b8073ffffffffffffffffffffffffffffffffffffffff16600760009054906101000a9050505050565b600115156152333361171f565b151514151561524157600080fd5b600760009054906101000a900473ffffffffffffffffffffffffffffffffffffffff16600860006101000a81548173ffffffffffffffffffffffffffffffffffffffff021916908373ffffffffffffffffffffffffffffffffffffffff160217905550600860009054906101000a900473ffffffffffffffffffffffffffffffffffffffff1673ffffffffffffffffffffffffffffffffffffffff1663d40189c483836040518363ffffffff167c01000000000000000000000000000000000000000000000000000000000281526004018083600019166000191681526020018273ffffffffffffffffffffffffffffffffffffffff1673ffffffffffffffffffffffffffffffffffffffff16815260200192505050600060405180830381600087803b151561537057600080fd5b6102c65a03f1151561538157600080fd5b5050505050565b600060149054906101000a900461ffff1681565b600115156153a93361171f565b15151415156153b757600080fd5b600760009054906101000a900473ffffffffffffffffffffffffffffffffffffffff16600860006101000a81548173ffffffffffffffffffffffffffffffffffffffff021916908373ffffffffffffffffffffffffffffffffffffffff160217905550600860009054906101000a900473ffffffffffffffffffffffffffffffffffffffff1673ffffffffffffffffffffffffffffffffffffffff1663b93bec8b83836040518363ffffffff167c01000000000000000000000000000000000000000000000000000000000281526004018083600019166000191681526020018273ffffffffffffffffffffffffffffffffffffffff1673ffffffffffffffffffffffffffffffffffffffff16815260200192505050600060405180830381600087803b15156154e657600080fd5b6102c65a03f115156154f757600080fd5b5050505050565b6000600760009054906101000a900473ffffffffffffffffffffffffffffffffffffffff16600860006101000a81548173ffffffffffffffffffffffffffffffffffffffff021916908373ffffffffffffffffffffffffffffffffffffffff160217905550600860009054906101000a900473ffffffffffffffffffffffffffffffffffffffff1673ffffffffffffffffffffffffffffffffffffffff1663597336e86001546000604051602001526040518263ffffffff167c0100000000000000000000000000000000000000000000000000000000028152600401808260001916600019168152602001915050602060405180830381600087803b151561560657600080fd5b6102c65a03f1151561561757600080fd5b50505060405180519050905080905090565b6000600760009054906101000a900473ffffffffffffffffffffffffffffffffffffffff16600860006101000a81548173ffffffffffffffffffffffffffffffffffffffff021916908373ffffffffffffffffffffffffffffffffffffffff1602179055506001600860009054906101000a900473ffffffffffffffffffffffffffffffffffffffff1673ffffffffffffffffffffffffffffffffffffffff16635e7a070f600154856000604051602001526040518363ffffffff167c01000000000000000000000000000000000000000000000000000000000281526004018083600019166000191681526020018273ffffffffffffffffffffffffffffffffffffffff1673ffffffffffffffffffffffffffffffffffffffff16815260200192505050602060405180830381600087803b151561576757600080fd5b6102c65a03f1151561577857600080fd5b5050506040518051905014151561578e57600080fd5b60019050919050565b6000600760009054906101000a900473ffffffffffffffffffffffffffffffffffffffff16600860006101000a81548173ffffffffffffffffffffffffffffffffffffffff021916908373ffffffffffffffffffffffffffffffffffffffff160217905550600860009054906101000a900473ffffffffffffffffffffffffffffffffffffffff1673ffffffffffffffffffffffffffffffffffffffff1663b98356616000604051602001526040518163ffffffff167c0100000000000000000000000000000000000000000000000000000000028152600401602060405180830381600087803b151561588a57600080fd5b6102c65a03f1151561589b57600080fd5b50505060405180519050905090565b600115156158b73361171f565b15151415156158c557600080fd5b600073ffffffffffffffffffffffffffffffffffffffff168173ffffffffffffffffffffffffffffffffffffffff161415151561590157600080fd5b8073ffffffffffffffffffffffffffffffffffffffff166000809054906101000a900473ffffffffffffffffffffffffffffffffffffffff1673ffffffffffffffffffffffffffffffffffffffff167f8be0079c531659141344cd1fd0a4f28419497f9722a3daafe3b4186f6b6457e060405160405180910390a3806000806101000a81548173ffffffffffffffffffffffffffffffffffffffff021916908373ffffffffffffffffffffffffffffffffffffffff16021790555050565b6000806001600060149054906101000a900461ffff16039150600360008361ffff1661ffff16815260200190815260200160002060007f4d530000000000000000000000000000000000000000000000000000000000007dffffffffffffffffffffffffffffffffffffffffffffffffffffffffffff1916815260200190815260200160002060009054906101000a900473ffffffffffffffffffffffffffffffffffffffff1690509091565b60028054806001018281615a809190616b1b565b9160005260206000209060020201600060408051908101604052808681526020018561ffff1681525090919091506000820151816000015560208201518160010160006101000a81548161ffff021916908361ffff1602179055505050505050565b600080905060008361ffff161115615afb576001830390505b600060046000600360008561ffff1661ffff1681526020019081526020016000206000867dffffffffffffffffffffffffffffffffffffffffffffffffffffffffffff19167dffffffffffffffffffffffffffffffffffffffffffffffffffffffffffff1916815260200190815260200160002060009054906101000a900473ffffffffffffffffffffffffffffffffffffffff1673ffffffffffffffffffffffffffffffffffffffff1673ffffffffffffffffffffffffffffffffffffffff16815260200190815260200160002060006101000a81548160ff021916908315150217905550600160046000600360008761ffff1661ffff1681526020019081526020016000206000867dffffffffffffffffffffffffffffffffffffffffffffffffffffffffffff19167dffffffffffffffffffffffffffffffffffffffffffffffffffffffffffff1916815260200190815260200160002060009054906101000a900473ffffffffffffffffffffffffffffffffffffffff1673ffffffffffffffffffffffffffffffffffffffff1673ffffffffffffffffffffffffffffffffffffffff16815260200190815260200160002060006101000a81548160ff021916908315150217905550505050565b80600060146101000a81548161ffff021916908361ffff16021790555050565b80600360008561ffff1661ffff1681526020019081526020016000206000847dffffffffffffffffffffffffffffffffffffffffffffffffffffffffffff19167dffffffffffffffffffffffffffffffffffffffffffffffffffffffffffff1916815260200190815260200160002060006101000a81548173ffffffffffffffffffffffffffffffffffffffff021916908373ffffffffffffffffffffffffffffffffffffffff160217905550505050565b60008090505b81518160ff161015615e3e5760068054806001018281615dc49190616b4d565b9160005260206000209060109182820401919006600202848460ff16815181101515615dec57fe5b90602001906020020151909190916101000a81548161ffff02191690837e0100000000000000000000000000000000000000000000000000000000000090040217905550508080600101915050615da4565b5050565b6001600560007f47440000000000000000000000000000000000000000000000000000000000007dffffffffffffffffffffffffffffffffffffffffffffffffffffffffffff1916815260200190815260200160002060007f47560000000000000000000000000000000000000000000000000000000000007dffffffffffffffffffffffffffffffffffffffffffffffffffffffffffff1916815260200190815260200160002060006101000a81548160ff0219169083151502179055506001600560007f53560000000000000000000000000000000000000000000000000000000000007dffffffffffffffffffffffffffffffffffffffffffffffffffffffffffff1916815260200190815260200160002060007f56540000000000000000000000000000000000000000000000000000000000007dffffffffffffffffffffffffffffffffffffffffffffffffffffffffffff1916815260200190815260200160002060006101000a81548160ff0219169083151502179055506001600560007f53560000000000000000000000000000000000000000000000000000000000007dffffffffffffffffffffffffffffffffffffffffffffffffffffffffffff1916815260200190815260200160002060007f47440000000000000000000000000000000000000000000000000000000000007dffffffffffffffffffffffffffffffffffffffffffffffffffffffffffff1916815260200190815260200160002060006101000a81548160ff0219169083151502179055506001600560007f53560000000000000000000000000000000000000000000000000000000000007dffffffffffffffffffffffffffffffffffffffffffffffffffffffffffff1916815260200190815260200160002060007f4d520000000000000000000000000000000000000000000000000000000000007dffffffffffffffffffffffffffffffffffffffffffffffffffffffffffff1916815260200190815260200160002060006101000a81548160ff0219169083151502179055506001600560007f53560000000000000000000000000000000000000000000000000000000000007dffffffffffffffffffffffffffffffffffffffffffffffffffffffffffff1916815260200190815260200160002060007f47560000000000000000000000000000000000000000000000000000000000007dffffffffffffffffffffffffffffffffffffffffffffffffffffffffffff1916815260200190815260200160002060006101000a81548160ff0219169083151502179055506001600560007f53560000000000000000000000000000000000000000000000000000000000007dffffffffffffffffffffffffffffffffffffffffffffffffffffffffffff1916815260200190815260200160002060007f50430000000000000000000000000000000000000000000000000000000000007dffffffffffffffffffffffffffffffffffffffffffffffffffffffffffff1916815260200190815260200160002060006101000a81548160ff0219169083151502179055506001600560007f56540000000000000000000000000000000000000000000000000000000000007dffffffffffffffffffffffffffffffffffffffffffffffffffffffffffff1916815260200190815260200160002060007f47440000000000000000000000000000000000000000000000000000000000007dffffffffffffffffffffffffffffffffffffffffffffffffffffffffffff1916815260200190815260200160002060006101000a81548160ff0219169083151502179055506001600560007f56540000000000000000000000000000000000000000000000000000000000007dffffffffffffffffffffffffffffffffffffffffffffffffffffffffffff1916815260200190815260200160002060007f4d520000000000000000000000000000000000000000000000000000000000007dffffffffffffffffffffffffffffffffffffffffffffffffffffffffffff1916815260200190815260200160002060006101000a81548160ff0219169083151502179055506001600560007f56540000000000000000000000000000000000000000000000000000000000007dffffffffffffffffffffffffffffffffffffffffffffffffffffffffffff1916815260200190815260200160002060007f50430000000000000000000000000000000000000000000000000000000000007dffffffffffffffffffffffffffffffffffffffffffffffffffffffffffff1916815260200190815260200160002060006101000a81548160ff0219169083151502179055506001600560007f56540000000000000000000000000000000000000000000000000000000000007dffffffffffffffffffffffffffffffffffffffffffffffffffffffffffff1916815260200190815260200160002060007f47560000000000000000000000000000000000000000000000000000000000007dffffffffffffffffffffffffffffffffffffffffffffffffffffffffffff1916815260200190815260200160002060006101000a81548160ff0219169083151502179055506001600560007f56540000000000000000000000000000000000000000000000000000000000007dffffffffffffffffffffffffffffffffffffffffffffffffffffffffffff1916815260200190815260200160002060007f504c0000000000000000000000000000000000000000000000000000000000007dffffffffffffffffffffffffffffffffffffffffffffffffffffffffffff1916815260200190815260200160002060006101000a81548160ff0219169083151502179055506001600560007f47560000000000000000000000000000000000000000000000000000000000007dffffffffffffffffffffffffffffffffffffffffffffffffffffffffffff1916815260200190815260200160002060007f47440000000000000000000000000000000000000000000000000000000000007dffffffffffffffffffffffffffffffffffffffffffffffffffffffffffff1916815260200190815260200160002060006101000a81548160ff0219169083151502179055506001600560007f47560000000000000000000000000000000000000000000000000000000000007dffffffffffffffffffffffffffffffffffffffffffffffffffffffffffff1916815260200190815260200160002060007f4d520000000000000000000000000000000000000000000000000000000000007dffffffffffffffffffffffffffffffffffffffffffffffffffffffffffff1916815260200190815260200160002060006101000a81548160ff0219169083151502179055506001600560007f47560000000000000000000000000000000000000000000000000000000000007dffffffffffffffffffffffffffffffffffffffffffffffffffffffffffff1916815260200190815260200160002060007f50430000000000000000000000000000000000000000000000000000000000007dffffffffffffffffffffffffffffffffffffffffffffffffffffffffffff1916815260200190815260200160002060006101000a81548160ff0219169083151502179055506001600560007f47560000000000000000000000000000000000000000000000000000000000007dffffffffffffffffffffffffffffffffffffffffffffffffffffffffffff1916815260200190815260200160002060007f504c0000000000000000000000000000000000000000000000000000000000007dffffffffffffffffffffffffffffffffffffffffffffffffffffffffffff1916815260200190815260200160002060006101000a81548160ff0219169083151502179055506001600560007f50430000000000000000000000000000000000000000000000000000000000007dffffffffffffffffffffffffffffffffffffffffffffffffffffffffffff1916815260200190815260200160002060007f4d520000000000000000000000000000000000000000000000000000000000007dffffffffffffffffffffffffffffffffffffffffffffffffffffffffffff1916815260200190815260200160002060006101000a81548160ff0219169083151502179055506001600560007f50430000000000000000000000000000000000000000000000000000000000007dffffffffffffffffffffffffffffffffffffffffffffffffffffffffffff1916815260200190815260200160002060007f47440000000000000000000000000000000000000000000000000000000000007dffffffffffffffffffffffffffffffffffffffffffffffffffffffffffff1916815260200190815260200160002060006101000a81548160ff021916908315150217905550565b602060405190810160405280600081525090565b602060405190810160405280600081525090565b815481835581811511616b4857600202816002028360005260206000209182019101616b479190616b87565b5b505050565b815481835581811511616b8257600f016010900481600f01601090048360005260206000209182019101616b819190616bc3565b5b505050565b616bc091905b80821115616bbc576000808201600090556001820160006101000a81549061ffff021916905550600201616b8d565b5090565b90565b616be591905b80821115616be1576000816000905550600101616bc9565b5090565b905600a165627a7a72305820d8a32e06de25c2373fabcab33e6f860546300e20b1670a3cecea894613afab8c0029",
  "source": "/* Copyright (C) 2017 GovBlocks.io\r\n\r\n  This program is free software: you can redistribute it and/or modify\r\n    it under the terms of the GNU General Public License as published by\r\n    the Free Software Foundation, either version 3 of the License, or\r\n    (at your option) any later version.\r\n\r\n  This program is distributed in the hope that it will be useful,\r\n    but WITHOUT ANY WARRANTY; without even the implied warranty of\r\n    MERCHANTABILITY or FITNESS FOR A PARTICULAR PURPOSE.  See the\r\n    GNU General Public License for more details.\r\n\r\n  You should have received a copy of the GNU General Public License\r\n    along with this program.  If not, see http://www.gnu.org/licenses/ */\r\n    \r\npragma solidity ^0.4.8;\r\n\r\nimport \"./governanceData.sol\";\r\nimport \"./simpleVoting.sol\";\r\nimport \"./RankBasedVoting.sol\";\r\nimport \"./FeatureWeighted.sol\";\r\nimport \"./memberRoles.sol\";\r\nimport \"./ProposalCategory.sol\";\r\nimport \"./StandardVotingType.sol\";\r\nimport \"./Governance.sol\";\r\nimport \"./Pool.sol\";\r\nimport \"./GBTStandardToken.sol\";\r\nimport \"./GovBlocksMaster.sol\";\r\nimport \"./Ownable.sol\";\r\n\r\ncontract Master is Ownable {\r\n\r\n    struct changeVersion{\r\n        uint date_implement;\r\n        uint16 versionNo;\r\n    }\r\n\r\n    uint16 public versionLength;\r\n    bytes32 public DappName;\r\n    changeVersion[]  contractChangeDate;\r\n    mapping(uint16=>mapping(bytes2=>address)) public allContractVersions;\r\n    mapping(address=>bool) public contracts_active;\r\n    // mapping(bytes2 => bytes2[]) contract_dependency;\r\n    mapping(bytes2 => mapping(bytes2 => bool)) contract_dependency_new;\r\n    bytes2[] allContractNames;\r\n    \r\n    \r\n    // address governanceDataAddress;\r\n    // address memberRolesAddress;\r\n    // address proposalCategoryAddress;\r\n    // address simpleVotingAddress;\r\n    // address rankBasedVotingAddress;\r\n    // address featureWeightedAddress;\r\n    // address masterAddress;\r\n    // address standardVotingTypeAddress;\r\n    // address governanceAddress;\r\n    // address poolAddress;\r\n    // address GBTCAddress;\r\n    // address GBTSAddress;\r\n    address public GBMAddress;\r\n    GovBlocksMaster GBM;\r\n    GBTStandardToken GBTS;\r\n    Pool P1;\r\n    Governance GOV;\r\n    governanceData GD;\r\n    memberRoles MR;\r\n    ProposalCategory PC;\r\n    simpleVoting SV;\r\n    RankBasedVoting RB;\r\n    FeatureWeighted FW;\r\n    StandardVotingType SVT;\r\n    bool constructorCheck;\r\n\r\n    /// @dev Constructor function for master\r\n    /// @param _GovBlocksMasterAddress GovBlocks master address\r\n    /// @param _gbUserName GovBlocks username\r\n    function Master(address _GovBlocksMasterAddress,bytes32 _gbUserName)\r\n    {\r\n        contracts_active[address(this)]=true;\r\n        versionLength =0;\r\n        GBMAddress = _GovBlocksMasterAddress;\r\n        DappName = _gbUserName;\r\n    }\r\n    \r\n    function masterInit(bytes2[] _contracts)\r\n    {\r\n       require(constructorCheck == false);\r\n         addContractNames(_contracts);\r\n         addContractDependencies();\r\n         constructorCheck = true;\r\n    }\r\n    \r\n    modifier onlyOwner\r\n    {  \r\n        require(isOwner(msg.sender) == true);\r\n        _; \r\n    }\r\n\r\n    modifier onlyAuthorizedGB\r\n    {\r\n        GBM=GovBlocksMaster(GBMAddress);\r\n        require(GBM.isAuthorizedGBOwner(DappName,msg.sender) == 1);\r\n        _;\r\n    }\r\n\r\n    modifier onlyInternal \r\n    {\r\n        require(contracts_active[msg.sender] == true || owner==msg.sender);\r\n        _; \r\n    }\r\n\r\n    /// @dev Checks for authorized GovBlocks owner\r\n    /// @param _memberaddress Address to be checked\r\n    /// @return check Check flag value (authorized GovBlocks owner = 1)\r\n    function isAuthGB(address _memberaddress) constant returns(bool check)\r\n    {\r\n        GBM=GovBlocksMaster(GBMAddress);\r\n        require(GBM.isAuthorizedGBOwner(DappName,_memberaddress) == 1);\r\n            check = true;\r\n    }\r\n\r\n    /// @dev Checks for internal \r\n    /// @param _address Contract address to be checked for internal\r\n    /// @return check Check flag (boolean value)\r\n    function isInternal(address _address) constant returns(bool check)\r\n    {\r\n        // check=0;\r\n        if(contracts_active[_address] == true || owner==_address)\r\n            check = true;\r\n    }\r\n\r\n    /// @dev Checks for owner \r\n    /// @param _ownerAddress Contract address to be checked for owner\r\n    /// @return check Check flag (boolean value)\r\n    function isOwner(address _ownerAddress) constant returns(bool check)\r\n    {\r\n        // check=0;\r\n        if(owner == _ownerAddress)\r\n            check = true;\r\n    }\r\n\r\n    /// @dev Sets owner \r\n    /// @param _memberaddress Contract address to be set as owner\r\n    function setOwner(address _memberaddress)\r\n    {\r\n        require(msg.sender == GBMAddress || msg.sender == owner);\r\n        owner = _memberaddress;\r\n    }\r\n    \r\n\r\n    function addContractNames(bytes2[] _contracts) internal\r\n    {\r\n        for(uint8 i=0; i<_contracts.length; i++)\r\n        {\r\n              allContractNames.push(_contracts[i]);\r\n            \r\n        }\r\n        // allContractNames.push('GD');\r\n        // allContractNames.push('MR');\r\n        // allContractNames.push('PC');\r\n        // allContractNames.push('SV');\r\n        // allContractNames.push('RB');\r\n        // allContractNames.push('FW');\r\n        // allContractNames.push('VT');\r\n        // allContractNames.push('GO');\r\n        // allContractNames.push('PL');\r\n        // allContractNames.push('GC');\r\n        // allContractNames.push('GS');\r\n    }\r\n\r\n     function addContractDependencies() internal{\r\n        // contract_dependency_new['GD']['SV'] = true;\r\n        // contract_dependency_new['GD']['RB'] = true;\r\n        // contract_dependency_new['GD']['FW'] = true;\r\n        // contract_dependency_new['GD']['FW'] = true;\r\n        contract_dependency_new['GD']['GV'] = true;\r\n        contract_dependency_new['SV']['VT'] = true;\r\n        contract_dependency_new['SV']['GD'] = true;\r\n        contract_dependency_new['SV']['MR'] = true;\r\n        contract_dependency_new['SV']['GV'] = true;\r\n        contract_dependency_new['SV']['PC'] = true;\r\n        contract_dependency_new['VT']['GD'] = true;\r\n        contract_dependency_new['VT']['MR'] = true;\r\n        contract_dependency_new['VT']['PC'] = true;\r\n        contract_dependency_new['VT']['GV'] = true;\r\n        contract_dependency_new['VT']['PL'] = true;\r\n        contract_dependency_new['GV']['GD'] = true;\r\n        contract_dependency_new['GV']['MR'] = true;\r\n        contract_dependency_new['GV']['PC'] = true;\r\n        contract_dependency_new['GV']['PL'] = true;\r\n        contract_dependency_new['PC']['MR'] = true;\r\n        contract_dependency_new['PC']['GD'] = true;\r\n    }\r\n    \r\n    /// @dev Gets GBT token address\r\n    /// @return _GBTAddress GBT token address\r\n    function getGBTokenAddress()constant returns(address _GBTAddress)\r\n    {\r\n        GBM=GovBlocksMaster(GBMAddress);\r\n        (_GBTAddress)= GBM.getGBTAddress();\r\n    }\r\n    \r\n    \r\n    /// @dev Creates a new version of contract addresses\r\n    /// @param _contractAddresses Array of nine contract addresses which will be generated\r\n    function addNewVersion(address[9] _contractAddresses) onlyAuthorizedGB\r\n    {\r\n        uint16 versionNo = versionLength;\r\n        setVersionLength(versionNo+1);\r\n        addContractDetails(versionNo,\"MS\",address(this));\r\n        addContractDetails(versionNo,\"GD\",_contractAddresses[0]);\r\n        addContractDetails(versionNo,\"MR\",_contractAddresses[1]);\r\n        addContractDetails(versionNo,\"PC\",_contractAddresses[2]); \r\n        addContractDetails(versionNo,\"SV\",_contractAddresses[3]);\r\n        addContractDetails(versionNo,\"RB\",_contractAddresses[4]); \r\n        addContractDetails(versionNo,\"FW\",_contractAddresses[5]); \r\n        addContractDetails(versionNo,\"VT\",_contractAddresses[6]); \r\n        addContractDetails(versionNo,\"GV\",_contractAddresses[7]); \r\n        addContractDetails(versionNo,\"PL\",_contractAddresses[8]); \r\n        addContractDetails(versionNo,\"GS\",getGBTokenAddress()); \r\n    }\r\n\r\n    /// @dev Adds contract's name  and its address in a given version\r\n    /// @param _versionNo Version number of the contracts\r\n    /// @param _contractName Contract name\r\n    /// @param _contractAddress Contract addresse\r\n    function addContractDetails(uint16 _versionNo,bytes2 _contractName,address _contractAddress) internal\r\n    {\r\n        allContractVersions[_versionNo][_contractName] = _contractAddress;        \r\n    }\r\n\r\n    /// @dev Switches to the recent version of contracts\r\n    function switchToRecentVersion() \r\n    {\r\n        uint16 version = versionLength-1;\r\n        GBM=GovBlocksMaster(GBMAddress);\r\n        require((version == 0 && msg.sender== owner) || GBM.isAuthorizedGBOwner(DappName,msg.sender) == 1);\r\n    \r\n        addInContractChangeDate(now,version);\r\n        changeAddressInMaster(version);\r\n        changeMasterAddress(allContractVersions[version]['MS'],version);\r\n        callConstructorGDMRPC(version);\r\n        changeOtherAddress(version);\r\n    }\r\n\r\n    /// @dev Stores the date when version of contracts get switched\r\n    /// @param _date Contract change date\r\n    /// @param _versionNo Version of the new contracts\r\n    function addInContractChangeDate(uint _date , uint16 _versionNo) internal \r\n    {\r\n        contractChangeDate.push(changeVersion(_date,_versionNo));\r\n    }\r\n\r\n    /// @dev Changes all reference contract addresses in master \r\n    /// @param _version Version of the new contracts\r\n    function changeAddressInMaster(uint16 _version)  \r\n    {\r\n        changeAllAddress(_version);\r\n        // governanceDataAddress = allContractVersions[_version]['GD'];\r\n        // memberRolesAddress = allContractVersions[_version]['MR'];\r\n        // proposalCategoryAddress = allContractVersions[_version]['PC'];\r\n        // simpleVotingAddress = allContractVersions[_version]['SV'];\r\n        // rankBasedVotingAddress = allContractVersions[_version]['RB'];\r\n        // featureWeightedAddress = allContractVersions[_version]['FW'];\r\n        // standardVotingTypeAddress = allContractVersions[_version]['SVT'];\r\n        // governanceAddress = allContractVersions[_version]['GOV'];\r\n        // poolAddress = allContractVersions[_version]['PL'];\r\n        // GBTCAddress = allContractVersions[_version]['GC'];\r\n        // GBTSAddress = allContractVersions[_version]['GS'];\r\n    }\r\n\r\n    /// @dev Sets the older versions of contract addresses as inactive and the latest one as active.\r\n    /// @param _version Version of the new contracts\r\n    function changeAllAddress(uint16 _version) \r\n    {\r\n         for(uint8 i=0; i < allContractNames.length; i++){\r\n           addRemoveAddress(_version,allContractNames[i]);\r\n        }\r\n    }\r\n\r\n    /// @dev Deactivates address of a contract from last version\r\n    /// @param _version Version of the new contracts\r\n    /// @param _contractName Contract name\r\n    function addRemoveAddress(uint16 _version,bytes2 _contractName) internal\r\n    {\r\n        uint16 version_old=0;\r\n        if(_version>0)\r\n            version_old=_version-1;\r\n        contracts_active[allContractVersions[version_old][_contractName]]=false;\r\n        contracts_active[allContractVersions[_version][_contractName]]=true;\r\n    }\r\n\r\n    /// @dev Links all contracts to master by passing address of master contract to the functions of other contracts.\r\n    /// @param _masterAddress Master address of the contracts\r\n    function changeMasterAddress(address _masterAddress,uint16 version)  \r\n    {\r\n        GD=governanceData(allContractVersions[version]['GD']);\r\n        GD.changeMasterAddress(_masterAddress);\r\n                             \r\n        SV=simpleVoting(allContractVersions[version]['SV']);\r\n        SV.changeMasterAddress(_masterAddress);\r\n\r\n        SVT=StandardVotingType(allContractVersions[version]['VT']);\r\n        SVT.changeMasterAddress(_masterAddress);\r\n\r\n        GOV=Governance(allContractVersions[version]['GV']);\r\n        GOV.changeMasterAddress(_masterAddress);\r\n\r\n        P1=Pool(allContractVersions[version]['PL']);\r\n        P1.changeMasterAddress(_masterAddress);\r\n\r\n        PC=ProposalCategory(allContractVersions[version]['PC']);\r\n        PC.changeMasterAddress(_masterAddress);\r\n\r\n        MR=memberRoles(allContractVersions[version]['MR']);\r\n        MR.changeMasterAddress(_masterAddress);\r\n    }\r\n\r\n    /// @dev Calls contructor of governance data, member roles, proposal category contracts\r\n    /// @param version Version of the new contracts\r\n    function callConstructorGDMRPC(uint16 version)  \r\n    {\r\n        GD=governanceData(allContractVersions[version]['GD']);\r\n        MR=memberRoles(allContractVersions[version]['MR']);\r\n        PC=ProposalCategory(allContractVersions[version]['PC']);\r\n\r\n        if(GD.constructorCheck() == false)\r\n            GD.GovernanceDataInitiate(GBMAddress);\r\n\r\n        if(MR.constructorCheck() == false)\r\n            MR.MemberRolesInitiate(GBMAddress);\r\n            \r\n        if(PC.constructorCheck() == false)\r\n            PC.ProposalCategoryInitiate(GBMAddress);\r\n\r\n    }\r\n\r\n   /// @dev Links contracts to one another\r\n   function changeOtherAddress(uint16 version)  \r\n   {  \r\n            uint8 i;\r\n            for( i=0; i<allContractNames.length; i++){\r\n               if(contract_dependency_new['GD'][allContractNames[i]] == true){\r\n                   if( allContractVersions[versionLength-1][allContractNames[i]] !=  allContractVersions[versionLength][allContractNames[i]]){\r\n                       GD.changeAddress(allContractNames[i], allContractVersions[versionLength][allContractNames[i]]);\r\n                   }\r\n               }\r\n            //   if(contract_dependency_new['MR'][allContractNames[i]] == true){\r\n            //       if( allContractVersions[versionLength-1][allContractNames[i]] !=  allContractVersions[versionLength][allContractNames[i]]){\r\n            //           MR.changeAddress(allContractNames[i], allContractVersions[versionLength][allContractNames[i]]);\r\n            //       }\r\n            //   }\r\n               if(contract_dependency_new['PC'][allContractNames[i]] == true){\r\n                   if( allContractVersions[versionLength-1][allContractNames[i]] !=  allContractVersions[versionLength][allContractNames[i]]){\r\n                       PC.changeAddress(allContractNames[i], allContractVersions[versionLength][allContractNames[i]]);\r\n                   }\r\n               }\r\n               if(contract_dependency_new['SV'][allContractNames[i]] == true){\r\n                   if( allContractVersions[versionLength-1][allContractNames[i]] !=  allContractVersions[versionLength][allContractNames[i]]){\r\n                       SV.changeAddress(allContractNames[i], allContractVersions[versionLength][allContractNames[i]]);\r\n                   }\r\n               }\r\n               if(contract_dependency_new['GD'][allContractNames[i]] == true){\r\n                   if( allContractVersions[versionLength-1][allContractNames[i]] !=  allContractVersions[versionLength][allContractNames[i]]){\r\n                       GD.changeAddress(allContractNames[i], allContractVersions[versionLength][allContractNames[i]]);\r\n                   }\r\n               }\r\n               if(contract_dependency_new['VT'][allContractNames[i]] == true){\r\n                   if( allContractVersions[versionLength-1][allContractNames[i]] !=  allContractVersions[versionLength][allContractNames[i]]){\r\n                       SVT.changeAddress(allContractNames[i], allContractVersions[versionLength][allContractNames[i]]);\r\n                   }\r\n               }\r\n               if(contract_dependency_new['GV'][allContractNames[i]] == true){\r\n                   if( allContractVersions[versionLength-1][allContractNames[i]] !=  allContractVersions[versionLength][allContractNames[i]]){\r\n                       GOV.changeAddress(allContractNames[i], allContractVersions[versionLength][allContractNames[i]]);\r\n                   }\r\n               }\r\n            //    if(contract_dependency_new['RB'][allContractNames[i]] == true){\r\n            //        if( allContractVersions[versionLength-1][allContractNames[i]] !=  allContractVersions[versionLength][allContractNames[i]]){\r\n            //            RB.changeAddress(allContractNames[i], allContractVersions[versionLength][allContractNames[i]]);\r\n            //        }\r\n            //    }\r\n            //    if(contract_dependency_new['FW'][allContractNames[i]] == true){\r\n            //        if( allContractVersions[versionLength-1][allContractNames[i]] !=  allContractVersions[versionLength][allContractNames[i]]){\r\n            //            FW.changeAddress(allContractNames[i], allContractVersions[versionLength][allContractNames[i]]);\r\n            //        }\r\n            //    }\r\n            //    if(contract_dependency_new['PL'][allContractNames[i]] == true){\r\n            //        if( allContractVersions[versionLength-1][allContractNames[i]] !=  allContractVersions[versionLength][allContractNames[i]]){\r\n            //            PL.changeAddress(allContractNames[i], allContractVersions[versionLength][allContractNames[i]]);\r\n            //        }\r\n            //    }\r\n            //    if(contract_dependency_new['GC'][allContractNames[i]] == true){\r\n            //        if( allContractVersions[versionLength-1][allContractNames[i]] !=  allContractVersions[versionLength][allContractNames[i]]){\r\n            //            GC.changeAddress(allContractNames[i], allContractVersions[versionLength][allContractNames[i]]);\r\n            //        }\r\n            //    }\r\n            //     if(contract_dependency_new['GS'][allContractNames[i]] == true){\r\n            //        if( allContractVersions[versionLength-1][allContractNames[i]] !=  allContractVersions[versionLength][allContractNames[i]]){\r\n            //            GS.changeAddress(allContractNames[i], allContractVersions[versionLength][allContractNames[i]]);\r\n            //        }\r\n            //    }\r\n           }\r\n        changeGBTAddress(allContractVersions[version]['GS']);\r\n   }\r\n\r\n    /// @dev Changes GBT token address in GD, SV, SVT and governance contracts\r\n    /// @param _tokenAddress Address of the GBT token\r\n    function changeGBTAddress(address _tokenAddress) \r\n    {\r\n        GBM=GovBlocksMaster(GBMAddress);\r\n        uint16 version = versionLength-1;\r\n        if((version == 0 && msg.sender== owner) || msg.sender == GBMAddress || GBM.isAuthorizedGBOwner(DappName,msg.sender) == 1)\r\n        { \r\n            SV=simpleVoting(allContractVersions[version]['SV']);\r\n            SV.changeGBTSAddress(_tokenAddress);\r\n            \r\n            GOV=Governance(allContractVersions[version]['GV']);\r\n            GOV.changeGBTSAddress(_tokenAddress);\r\n            \r\n            SVT=StandardVotingType(allContractVersions[version]['VT']);\r\n            SVT.changeGBTSAddress(_tokenAddress);\r\n        }\r\n    }\r\n\r\n    /// @dev Changes GovBlocks Master address\r\n    /// @param _GBMnewAddress New GovBlocks master address\r\n    function changeGBMAddress(address _GBMnewAddress)\r\n    {\r\n        require(msg.sender == GBMAddress);\r\n        GBMAddress == _GBMnewAddress;\r\n    }\r\n\r\n    /// @dev Changes master in GovBlocks master\r\n    /// @param _gbUserName GovBlocks username\r\n    /// @param _newMasterAddress New master address\r\n    function changeDappMasterin_GBM(bytes32 _gbUserName,address _newMasterAddress) onlyOwner\r\n    {\r\n      GBM=GovBlocksMaster(GBMAddress);\r\n      GBM.changeDappMasterAddress(_gbUserName,_newMasterAddress);\r\n    }\r\n\r\n    /// @dev Changes token address in GovBlocks master\r\n    /// @param _gbUserName GovBlocks username\r\n    /// @param _newTokenAddress New token address for dApp\r\n    function changeDappTokenAddressin_GBM(bytes32 _gbUserName,address _newTokenAddress) onlyOwner\r\n    {\r\n      GBM=GovBlocksMaster(GBMAddress);\r\n      GBM.changeDappTokenAddress(_gbUserName,_newTokenAddress);\r\n    }\r\n  \r\n    /// @dev Sets the length of version\r\n    /// @param _length Length of the version\r\n    function setVersionLength(uint16 _length) internal\r\n    {\r\n        versionLength = _length;\r\n    }\r\n\r\n    /// @dev Gets current version amd its master address\r\n    /// @return versionNo Current version number\r\n    /// @return MSAddress Master address\r\n    function getCurrentVersion() constant returns(uint16 versionNo, address MSAddress)\r\n    {\r\n       versionNo = versionLength - 1;\r\n       MSAddress = allContractVersions[versionNo]['MS'];\r\n    }\r\n\r\n    /// @dev Gets latest version name and address\r\n    /// @param _versionNo Version number\r\n    /// @return versionNo Version number\r\n    /// @return contractsName Latest version's contract names\r\n    /// @return contractsAddress Latest version's contract addresses\r\n    function getLatestVersionData(uint16 _versionNo)constant returns(uint16 versionNo,bytes2[] contractsName, address[] contractsAddress)\r\n    {\r\n       versionNo = _versionNo;\r\n       contractsName=new bytes2[](allContractNames.length);\r\n       contractsAddress=new address[](allContractNames.length);\r\n   \r\n       for(uint8 i=0; i < allContractNames.length; i++)\r\n       {\r\n           contractsName[i]=allContractNames[i];\r\n           contractsAddress[i] = allContractVersions[versionNo][allContractNames[i]];\r\n       }\r\n    }\r\n\r\n    /// @dev Changes dApp token in GovBlocks master\r\n    /// @return dappTokenAddress New dApp token address\r\n    function getDappTokenAddress()constant returns(address dappTokenAddress)\r\n    {\r\n        GBM=GovBlocksMaster(GBMAddress);\r\n        dappTokenAddress=GBM.getDappTokenAddress(DappName);\r\n        return (dappTokenAddress);\r\n    }\r\n    // /// @dev Changes dApp description in GovBlocks master\r\n    // /// @param _gbUserName GovBlocks username\r\n    // /// @param _dappDescHash New dApp description hash\r\n    // function changeDappDescIn_GBM(bytes32 _gbUserName,string _dappDescHash) onlyOwner\r\n    // {\r\n    //   GBM=GovBlocksMaster(GBMAddress);\r\n    //   GBM.changeDappDescHash(_gbUserName,_dappDescHash);\r\n    // }\r\n}",
  "sourcePath": "D:\\RUCHITA\\GovBlocks-Protocol Access-Modifiers\\contracts\\Master.sol",
  "compiler": {
    "name": "solc",
    "version": "0.4.18+commit.9cf6e910.Emscripten.clang"
  },
  "schemaVersion": "1.0.1",
  "updatedAt": "2018-04-26T12:00:44.101Z"
}