{
  "contractName": "Master",
  "abi": [
    {
      "constant": false,
      "inputs": [],
      "name": "switchToRecentVersion",
      "outputs": [],
      "payable": false,
      "stateMutability": "nonpayable",
      "type": "function"
    },
    {
      "constant": false,
      "inputs": [
        {
          "name": "_length",
          "type": "uint256"
        }
      ],
      "name": "setVersionLength",
      "outputs": [],
      "payable": false,
      "stateMutability": "nonpayable",
      "type": "function"
    },
    {
      "constant": true,
      "inputs": [
        {
          "name": "",
          "type": "address"
        },
        {
          "name": "_masterAddress",
          "type": "address"
        }
      ],
      "name": "contracts_active",
      "outputs": [
        {
          "name": "",
          "type": "uint256"
        },
        {
          "name": "contractAddress",
          "type": "address"
        }
      ],
      "payable": false,
      "stateMutability": "view",
      "type": "function"
    },
    {
      "constant": true,
      "inputs": [
        {
          "name": "",
          "type": "uint256"
        },
        {
          "name": "",
          "type": "uint256"
        }
      ],
      "name": "allContractVersions",
      "outputs": [
        {
          "name": "name",
          "type": "bytes32"
        },
        {
          "name": "contractAddress",
          "type": "address"
        }
      ],
      "payable": false,
      "stateMutability": "view",
      "type": "function"
    },
    {
      "constant": true,
      "inputs": [
        {
          "name": "",
          "type": "uint256"
        },
        {
          "name": "",
          "type": "uint256"
        },
        {
          "name": "_contractAddresse",
          "type": "address"
        }
      ],
      "name": "owner",
      "outputs": [
        {
          "name": "",
          "type": "address"
        },
        {
          "name": "contractAddress",
          "type": "address"
        }
      ],
      "payable": false,
      "stateMutability": "view",
      "type": "function"
    },
    {
      "constant": false,
      "inputs": [
        {
          "name": "_tokenAddress",
          "type": "address"
        }
      ],
      "name": "changeGNTAddress",
      "outputs": [
        {
          "name": "",
          "type": "address"
        }
      ],
      "payable": false,
      "stateMutability": "nonpayable",
      "type": "function"
    },
    {
      "constant": false,
      "inputs": [
        {
          "name": "_contractAddresses",
          "type": "address[]"
        }
      ],
      "name": "addNewVersion",
      "outputs": [],
      "payable": false,
      "stateMutability": "nonpayable",
      "type": "function"
    },
    {
      "constant": false,
      "inputs": [
        {
          "name": "_masterAddress",
          "type": "address"
        }
      ],
      "name": "changeMasterAddress",
      "outputs": [],
      "payable": false,
      "stateMutability": "nonpayable",
      "type": "function"
    },
    {
      "constant": true,
      "inputs": [
        {
          "name": "_version",
          "type": "uint256"
        }
      ],
      "name": "versionLength",
      "outputs": [
        {
          "name": "",
          "type": "uint256"
        }
      ],
      "payable": false,
      "stateMutability": "view",
      "type": "function"
    },
    {
      "constant": false,
      "inputs": [
        {
          "name": "_version",
          "type": "uint256"
        }
      ],
      "name": "changeAddressInMaster",
      "outputs": [
        {
          "name": "",
          "type": "uint256"
        }
      ],
      "payable": false,
      "stateMutability": "nonpayable",
      "type": "function"
    },
    {
      "constant": false,
      "inputs": [
        {
          "name": "newOwner",
          "type": "address"
        }
      ],
      "name": "transferOwnership",
      "outputs": [
        {
          "name": "",
          "type": "uint256"
        }
      ],
      "payable": false,
      "stateMutability": "nonpayable",
      "type": "function"
    },
    {
      "inputs": [
        {
          "name": "_versionNo",
          "type": "uint256"
        },
        {
          "name": "_contractName",
          "type": "bytes32"
        },
        {
          "name": "_contractAddresse",
          "type": "address"
        }
      ],
      "payable": false,
      "stateMutability": "nonpayable",
      "type": "function",
      "constant": false,
      "name": "addContractDetails",
      "outputs": []
    },
    {
      "anonymous": false,
      "inputs": [
        {
          "indexed": true,
          "name": "newOwner",
          "type": "address"
        },
        {
          "indexed": true,
          "name": "newOwner",
          "type": "address"
        }
      ],
      "name": "transferOwnership",
      "type": "constructor",
      "payable": false,
      "stateMutability": "nonpayable",
      "constant": false,
      "outputs": []
    },
    {
      "anonymous": false,
      "inputs": [
        {
          "indexed": true,
          "name": "previousOwner",
          "type": "address"
        },
        {
          "indexed": true,
          "name": "newOwner",
          "type": "address"
        },
        {
          "name": "_contractAddresse",
          "type": "address"
        }
      ],
      "name": "OwnershipTransferred",
      "type": "event",
      "constant": false,
      "outputs": [],
      "payable": false,
      "stateMutability": "nonpayable"
    },
    {
      "inputs": [],
      "payable": false,
      "stateMutability": "nonpayable",
      "type": "constructor"
    },
    {
      "anonymous": false,
      "inputs": [
        {
          "indexed": true,
          "name": "previousOwner",
          "type": "address"
        },
        {
          "indexed": true,
          "name": "newOwner",
          "type": "address"
        }
      ],
      "name": "OwnershipTransferred",
      "type": "event"
    }
  ],
  "bytecode": "0x6060604052341561000f57600080fd5b336000806101000a81548173ffffffffffffffffffffffffffffffffffffffff021916908373ffffffffffffffffffffffffffffffffffffffff16021790555030600d60006101000a81548173ffffffffffffffffffffffffffffffffffffffff021916908373ffffffffffffffffffffffffffffffffffffffff160217905550600060046000600d60009054906101000a900473ffffffffffffffffffffffffffffffffffffffff1673ffffffffffffffffffffffffffffffffffffffff1673ffffffffffffffffffffffffffffffffffffffff168152602001908152602001600020819055506001600460003073ffffffffffffffffffffffffffffffffffffffff1673ffffffffffffffffffffffffffffffffffffffff168152602001908152602001600020819055506000600181905550612c4a806101536000396000f3006060604052600436106100ba576000357c0100000000000000000000000000000000000000000000000000000000900463ffffffff1680630d89247d146100bf57806316b2c8fc146100d457806367fdaf26146100f75780637396343a146101445780638da5cb5b146101bf5780639d54e9a814610214578063a97ea7941461024d578063d46655f4146102a7578063d57fe1af146102e0578063e18efeec14610309578063f2fde38b1461032c578063fd13747f14610365575b600080fd5b34156100ca57600080fd5b6100d26103b4565b005b34156100df57600080fd5b6100f5600480803590602001909190505061042e565b005b341561010257600080fd5b61012e600480803573ffffffffffffffffffffffffffffffffffffffff16906020019091905050610438565b6040518082815260200191505060405180910390f35b341561014f57600080fd5b61016e6004808035906020019091908035906020019091905050610450565b6040518083600019166000191681526020018273ffffffffffffffffffffffffffffffffffffffff1673ffffffffffffffffffffffffffffffffffffffff1681526020019250505060405180910390f35b34156101ca57600080fd5b6101d26104b0565b604051808273ffffffffffffffffffffffffffffffffffffffff1673ffffffffffffffffffffffffffffffffffffffff16815260200191505060405180910390f35b341561021f57600080fd5b61024b600480803573ffffffffffffffffffffffffffffffffffffffff169060200190919050506104d5565b005b341561025857600080fd5b6102a5600480803590602001908201803590602001908080602002602001604051908101604052809392919081815260200183836020028082843782019150505050505091905050610a2c565b005b34156102b257600080fd5b6102de600480803573ffffffffffffffffffffffffffffffffffffffff16906020019091905050610d46565b005b34156102eb57600080fd5b6102f36114d6565b6040518082815260200191505060405180910390f35b341561031457600080fd5b61032a60048080359060200190919050506114dc565b005b341561033757600080fd5b610363600480803573ffffffffffffffffffffffffffffffffffffffff16906020019091905050611a76565b005b341561037057600080fd5b6103b260048080359060200190919080356000191690602001909190803573ffffffffffffffffffffffffffffffffffffffff16906020019091905050611bcb565b005b60008060009054906101000a900473ffffffffffffffffffffffffffffffffffffffff1673ffffffffffffffffffffffffffffffffffffffff163373ffffffffffffffffffffffffffffffffffffffff1614151561041157600080fd5b600180540390506104224282611c93565b61042b816114dc565b50565b8060018190555050565b60046020528060005260406000206000915090505481565b60036020528160005260406000208181548110151561046b57fe5b9060005260206000209060020201600091509150508060000154908060010160009054906101000a900473ffffffffffffffffffffffffffffffffffffffff16905082565b6000809054906101000a900473ffffffffffffffffffffffffffffffffffffffff1681565b600560009054906101000a900473ffffffffffffffffffffffffffffffffffffffff16600f60006101000a81548173ffffffffffffffffffffffffffffffffffffffff021916908373ffffffffffffffffffffffffffffffffffffffff160217905550600f60009054906101000a900473ffffffffffffffffffffffffffffffffffffffff1673ffffffffffffffffffffffffffffffffffffffff1663dc828cc7600860009054906101000a900473ffffffffffffffffffffffffffffffffffffffff166040518263ffffffff167c0100000000000000000000000000000000000000000000000000000000028152600401808273ffffffffffffffffffffffffffffffffffffffff1673ffffffffffffffffffffffffffffffffffffffff168152602001915050600060405180830381600087803b151561061657600080fd5b6102c65a03f1151561062757600080fd5b505050600a60009054906101000a900473ffffffffffffffffffffffffffffffffffffffff16601460006101000a81548173ffffffffffffffffffffffffffffffffffffffff021916908373ffffffffffffffffffffffffffffffffffffffff160217905550601460009054906101000a900473ffffffffffffffffffffffffffffffffffffffff1673ffffffffffffffffffffffffffffffffffffffff1663dc828cc7600860009054906101000a900473ffffffffffffffffffffffffffffffffffffffff166040518263ffffffff167c0100000000000000000000000000000000000000000000000000000000028152600401808273ffffffffffffffffffffffffffffffffffffffff1673ffffffffffffffffffffffffffffffffffffffff168152602001915050600060405180830381600087803b151561076b57600080fd5b6102c65a03f1151561077c57600080fd5b505050600b60009054906101000a900473ffffffffffffffffffffffffffffffffffffffff16601560006101000a81548173ffffffffffffffffffffffffffffffffffffffff021916908373ffffffffffffffffffffffffffffffffffffffff160217905550601560009054906101000a900473ffffffffffffffffffffffffffffffffffffffff1673ffffffffffffffffffffffffffffffffffffffff1663dc828cc7600860009054906101000a900473ffffffffffffffffffffffffffffffffffffffff166040518263ffffffff167c0100000000000000000000000000000000000000000000000000000000028152600401808273ffffffffffffffffffffffffffffffffffffffff1673ffffffffffffffffffffffffffffffffffffffff168152602001915050600060405180830381600087803b15156108c057600080fd5b6102c65a03f115156108d157600080fd5b505050600c60009054906101000a900473ffffffffffffffffffffffffffffffffffffffff16601660006101000a81548173ffffffffffffffffffffffffffffffffffffffff021916908373ffffffffffffffffffffffffffffffffffffffff160217905550601660009054906101000a900473ffffffffffffffffffffffffffffffffffffffff1673ffffffffffffffffffffffffffffffffffffffff1663dc828cc7600860009054906101000a900473ffffffffffffffffffffffffffffffffffffffff166040518263ffffffff167c0100000000000000000000000000000000000000000000000000000000028152600401808273ffffffffffffffffffffffffffffffffffffffff1673ffffffffffffffffffffffffffffffffffffffff168152602001915050600060405180830381600087803b1515610a1557600080fd5b6102c65a03f11515610a2657600080fd5b50505050565b60008060009054906101000a900473ffffffffffffffffffffffffffffffffffffffff1673ffffffffffffffffffffffffffffffffffffffff163373ffffffffffffffffffffffffffffffffffffffff16141515610a8957600080fd5b6001549050610a9a6001820161042e565b610ae7817f4d61737465720000000000000000000000000000000000000000000000000000600d60009054906101000a900473ffffffffffffffffffffffffffffffffffffffff16611bcb565b610b2a817f476f7665726e616e636544617461000000000000000000000000000000000000846000815181101515610b1b57fe5b90602001906020020151611bcb565b610b6d817f4d656d626572526f6c6573000000000000000000000000000000000000000000846001815181101515610b5e57fe5b90602001906020020151611bcb565b610bb0817f50726f706f73616c43617465676f727900000000000000000000000000000000846002815181101515610ba157fe5b90602001906020020151611bcb565b610bf3817f4d696e7461626c65546f6b656e00000000000000000000000000000000000000846003815181101515610be457fe5b90602001906020020151611bcb565b610c36817f4261736963546f6b656e00000000000000000000000000000000000000000000846004815181101515610c2757fe5b90602001906020020151611bcb565b610c79817f53696d706c65566f74696e670000000000000000000000000000000000000000846005815181101515610c6a57fe5b90602001906020020151611bcb565b610cbc817f52616e6b4261736564566f74696e670000000000000000000000000000000000846006815181101515610cad57fe5b90602001906020020151611bcb565b610cff817f4665617475726557656967687465640000000000000000000000000000000000846007815181101515610cf057fe5b90602001906020020151611bcb565b610d42817f5374616e64617264566f74696e67547970650000000000000000000000000000846008815181101515610d3357fe5b90602001906020020151611bcb565b5050565b6000809054906101000a900473ffffffffffffffffffffffffffffffffffffffff1673ffffffffffffffffffffffffffffffffffffffff163373ffffffffffffffffffffffffffffffffffffffff16141515610da157600080fd5b600560009054906101000a900473ffffffffffffffffffffffffffffffffffffffff16600f60006101000a81548173ffffffffffffffffffffffffffffffffffffffff021916908373ffffffffffffffffffffffffffffffffffffffff160217905550600f60009054906101000a900473ffffffffffffffffffffffffffffffffffffffff1673ffffffffffffffffffffffffffffffffffffffff1663d46655f4826040518263ffffffff167c0100000000000000000000000000000000000000000000000000000000028152600401808273ffffffffffffffffffffffffffffffffffffffff1673ffffffffffffffffffffffffffffffffffffffff168152602001915050600060405180830381600087803b1515610ec057600080fd5b6102c65a03f11515610ed157600080fd5b505050600660009054906101000a900473ffffffffffffffffffffffffffffffffffffffff16601060006101000a81548173ffffffffffffffffffffffffffffffffffffffff021916908373ffffffffffffffffffffffffffffffffffffffff160217905550601060009054906101000a900473ffffffffffffffffffffffffffffffffffffffff1673ffffffffffffffffffffffffffffffffffffffff1663d46655f4826040518263ffffffff167c0100000000000000000000000000000000000000000000000000000000028152600401808273ffffffffffffffffffffffffffffffffffffffff1673ffffffffffffffffffffffffffffffffffffffff168152602001915050600060405180830381600087803b1515610ff357600080fd5b6102c65a03f1151561100457600080fd5b505050600760009054906101000a900473ffffffffffffffffffffffffffffffffffffffff16601160006101000a81548173ffffffffffffffffffffffffffffffffffffffff021916908373ffffffffffffffffffffffffffffffffffffffff160217905550601160009054906101000a900473ffffffffffffffffffffffffffffffffffffffff1673ffffffffffffffffffffffffffffffffffffffff1663d46655f4826040518263ffffffff167c0100000000000000000000000000000000000000000000000000000000028152600401808273ffffffffffffffffffffffffffffffffffffffff1673ffffffffffffffffffffffffffffffffffffffff168152602001915050600060405180830381600087803b151561112657600080fd5b6102c65a03f1151561113757600080fd5b505050600a60009054906101000a900473ffffffffffffffffffffffffffffffffffffffff16601460006101000a81548173ffffffffffffffffffffffffffffffffffffffff021916908373ffffffffffffffffffffffffffffffffffffffff160217905550601460009054906101000a900473ffffffffffffffffffffffffffffffffffffffff1673ffffffffffffffffffffffffffffffffffffffff1663d46655f4826040518263ffffffff167c0100000000000000000000000000000000000000000000000000000000028152600401808273ffffffffffffffffffffffffffffffffffffffff1673ffffffffffffffffffffffffffffffffffffffff168152602001915050600060405180830381600087803b151561125957600080fd5b6102c65a03f1151561126a57600080fd5b505050600b60009054906101000a900473ffffffffffffffffffffffffffffffffffffffff16601560006101000a81548173ffffffffffffffffffffffffffffffffffffffff021916908373ffffffffffffffffffffffffffffffffffffffff160217905550601560009054906101000a900473ffffffffffffffffffffffffffffffffffffffff1673ffffffffffffffffffffffffffffffffffffffff1663d46655f4826040518263ffffffff167c0100000000000000000000000000000000000000000000000000000000028152600401808273ffffffffffffffffffffffffffffffffffffffff1673ffffffffffffffffffffffffffffffffffffffff168152602001915050600060405180830381600087803b151561138c57600080fd5b6102c65a03f1151561139d57600080fd5b505050600c60009054906101000a900473ffffffffffffffffffffffffffffffffffffffff16601660006101000a81548173ffffffffffffffffffffffffffffffffffffffff021916908373ffffffffffffffffffffffffffffffffffffffff160217905550601660009054906101000a900473ffffffffffffffffffffffffffffffffffffffff1673ffffffffffffffffffffffffffffffffffffffff1663d46655f4826040518263ffffffff167c0100000000000000000000000000000000000000000000000000000000028152600401808273ffffffffffffffffffffffffffffffffffffffff1673ffffffffffffffffffffffffffffffffffffffff168152602001915050600060405180830381600087803b15156114bf57600080fd5b6102c65a03f115156114d057600080fd5b50505050565b60015481565b6000809054906101000a900473ffffffffffffffffffffffffffffffffffffffff1673ffffffffffffffffffffffffffffffffffffffff163373ffffffffffffffffffffffffffffffffffffffff1614151561153757600080fd5b61154081611cec565b60036000828152602001908152602001600020600181548110151561156157fe5b906000526020600020906002020160010160009054906101000a900473ffffffffffffffffffffffffffffffffffffffff16600560006101000a81548173ffffffffffffffffffffffffffffffffffffffff021916908373ffffffffffffffffffffffffffffffffffffffff1602179055506003600082815260200190815260200160002060028154811015156115f457fe5b906000526020600020906002020160010160009054906101000a900473ffffffffffffffffffffffffffffffffffffffff16600660006101000a81548173ffffffffffffffffffffffffffffffffffffffff021916908373ffffffffffffffffffffffffffffffffffffffff16021790555060036000828152602001908152602001600020600381548110151561168757fe5b906000526020600020906002020160010160009054906101000a900473ffffffffffffffffffffffffffffffffffffffff16600760006101000a81548173ffffffffffffffffffffffffffffffffffffffff021916908373ffffffffffffffffffffffffffffffffffffffff16021790555060036000828152602001908152602001600020600481548110151561171a57fe5b906000526020600020906002020160010160009054906101000a900473ffffffffffffffffffffffffffffffffffffffff16600860006101000a81548173ffffffffffffffffffffffffffffffffffffffff021916908373ffffffffffffffffffffffffffffffffffffffff1602179055506003600082815260200190815260200160002060058154811015156117ad57fe5b906000526020600020906002020160010160009054906101000a900473ffffffffffffffffffffffffffffffffffffffff16600960006101000a81548173ffffffffffffffffffffffffffffffffffffffff021916908373ffffffffffffffffffffffffffffffffffffffff16021790555060036000828152602001908152602001600020600681548110151561184057fe5b906000526020600020906002020160010160009054906101000a900473ffffffffffffffffffffffffffffffffffffffff16600a60006101000a81548173ffffffffffffffffffffffffffffffffffffffff021916908373ffffffffffffffffffffffffffffffffffffffff1602179055506003600082815260200190815260200160002060078154811015156118d357fe5b906000526020600020906002020160010160009054906101000a900473ffffffffffffffffffffffffffffffffffffffff16600b60006101000a81548173ffffffffffffffffffffffffffffffffffffffff021916908373ffffffffffffffffffffffffffffffffffffffff16021790555060036000828152602001908152602001600020600881548110151561196657fe5b906000526020600020906002020160010160009054906101000a900473ffffffffffffffffffffffffffffffffffffffff16600c60006101000a81548173ffffffffffffffffffffffffffffffffffffffff021916908373ffffffffffffffffffffffffffffffffffffffff1602179055506003600082815260200190815260200160002060098154811015156119f957fe5b906000526020600020906002020160010160009054906101000a900473ffffffffffffffffffffffffffffffffffffffff16600e60006101000a81548173ffffffffffffffffffffffffffffffffffffffff021916908373ffffffffffffffffffffffffffffffffffffffff160217905550611a73611d52565b50565b6000809054906101000a900473ffffffffffffffffffffffffffffffffffffffff1673ffffffffffffffffffffffffffffffffffffffff163373ffffffffffffffffffffffffffffffffffffffff16141515611ad157600080fd5b600073ffffffffffffffffffffffffffffffffffffffff168173ffffffffffffffffffffffffffffffffffffffff1614151515611b0d57600080fd5b8073ffffffffffffffffffffffffffffffffffffffff166000809054906101000a900473ffffffffffffffffffffffffffffffffffffffff1673ffffffffffffffffffffffffffffffffffffffff167f8be0079c531659141344cd1fd0a4f28419497f9722a3daafe3b4186f6b6457e060405160405180910390a3806000806101000a81548173ffffffffffffffffffffffffffffffffffffffff021916908373ffffffffffffffffffffffffffffffffffffffff16021790555050565b600360008481526020019081526020016000208054806001018281611bf09190612b3d565b916000526020600020906002020160006040805190810160405280866000191681526020018573ffffffffffffffffffffffffffffffffffffffff1681525090919091506000820151816000019060001916905560208201518160010160006101000a81548173ffffffffffffffffffffffffffffffffffffffff021916908373ffffffffffffffffffffffffffffffffffffffff160217905550505050505050565b60028054806001018281611ca79190612b6f565b91600052602060002090600202016000604080519081016040528086815260200185815250909190915060008201518160000155602082015181600101555050505050565b611cf78160016129f7565b611d028160026129f7565b611d0d8160036129f7565b611d188160046129f7565b611d238160056129f7565b611d2e8160066129f7565b611d398160076129f7565b611d448160086129f7565b611d4f8160096129f7565b50565b600560009054906101000a900473ffffffffffffffffffffffffffffffffffffffff16600f60006101000a81548173ffffffffffffffffffffffffffffffffffffffff021916908373ffffffffffffffffffffffffffffffffffffffff160217905550600f60009054906101000a900473ffffffffffffffffffffffffffffffffffffffff1673ffffffffffffffffffffffffffffffffffffffff1662edf46e600960009054906101000a900473ffffffffffffffffffffffffffffffffffffffff16600660009054906101000a900473ffffffffffffffffffffffffffffffffffffffff16600760009054906101000a900473ffffffffffffffffffffffffffffffffffffffff166040518463ffffffff167c0100000000000000000000000000000000000000000000000000000000028152600401808473ffffffffffffffffffffffffffffffffffffffff1673ffffffffffffffffffffffffffffffffffffffff1681526020018373ffffffffffffffffffffffffffffffffffffffff1673ffffffffffffffffffffffffffffffffffffffff1681526020018273ffffffffffffffffffffffffffffffffffffffff1673ffffffffffffffffffffffffffffffffffffffff1681526020019350505050600060405180830381600087803b1515611f3e57600080fd5b6102c65a03f11515611f4f57600080fd5b505050600a60009054906101000a900473ffffffffffffffffffffffffffffffffffffffff16601460006101000a81548173ffffffffffffffffffffffffffffffffffffffff021916908373ffffffffffffffffffffffffffffffffffffffff160217905550601460009054906101000a900473ffffffffffffffffffffffffffffffffffffffff1673ffffffffffffffffffffffffffffffffffffffff1663013b4441600e60009054906101000a900473ffffffffffffffffffffffffffffffffffffffff16600560009054906101000a900473ffffffffffffffffffffffffffffffffffffffff16600660009054906101000a900473ffffffffffffffffffffffffffffffffffffffff16600760009054906101000a900473ffffffffffffffffffffffffffffffffffffffff166040518563ffffffff167c0100000000000000000000000000000000000000000000000000000000028152600401808573ffffffffffffffffffffffffffffffffffffffff1673ffffffffffffffffffffffffffffffffffffffff1681526020018473ffffffffffffffffffffffffffffffffffffffff1673ffffffffffffffffffffffffffffffffffffffff1681526020018373ffffffffffffffffffffffffffffffffffffffff1673ffffffffffffffffffffffffffffffffffffffff1681526020018273ffffffffffffffffffffffffffffffffffffffff1673ffffffffffffffffffffffffffffffffffffffff168152602001945050505050600060405180830381600087803b151561219557600080fd5b6102c65a03f115156121a657600080fd5b505050600b60009054906101000a900473ffffffffffffffffffffffffffffffffffffffff16601560006101000a81548173ffffffffffffffffffffffffffffffffffffffff021916908373ffffffffffffffffffffffffffffffffffffffff160217905550601560009054906101000a900473ffffffffffffffffffffffffffffffffffffffff1673ffffffffffffffffffffffffffffffffffffffff1663013b4441600e60009054906101000a900473ffffffffffffffffffffffffffffffffffffffff16600560009054906101000a900473ffffffffffffffffffffffffffffffffffffffff16600660009054906101000a900473ffffffffffffffffffffffffffffffffffffffff16600760009054906101000a900473ffffffffffffffffffffffffffffffffffffffff166040518563ffffffff167c0100000000000000000000000000000000000000000000000000000000028152600401808573ffffffffffffffffffffffffffffffffffffffff1673ffffffffffffffffffffffffffffffffffffffff1681526020018473ffffffffffffffffffffffffffffffffffffffff1673ffffffffffffffffffffffffffffffffffffffff1681526020018373ffffffffffffffffffffffffffffffffffffffff1673ffffffffffffffffffffffffffffffffffffffff1681526020018273ffffffffffffffffffffffffffffffffffffffff1673ffffffffffffffffffffffffffffffffffffffff168152602001945050505050600060405180830381600087803b15156123ec57600080fd5b6102c65a03f115156123fd57600080fd5b505050600c60009054906101000a900473ffffffffffffffffffffffffffffffffffffffff16601660006101000a81548173ffffffffffffffffffffffffffffffffffffffff021916908373ffffffffffffffffffffffffffffffffffffffff160217905550601660009054906101000a900473ffffffffffffffffffffffffffffffffffffffff1673ffffffffffffffffffffffffffffffffffffffff1663013b4441600e60009054906101000a900473ffffffffffffffffffffffffffffffffffffffff16600560009054906101000a900473ffffffffffffffffffffffffffffffffffffffff16600660009054906101000a900473ffffffffffffffffffffffffffffffffffffffff16600760009054906101000a900473ffffffffffffffffffffffffffffffffffffffff166040518563ffffffff167c0100000000000000000000000000000000000000000000000000000000028152600401808573ffffffffffffffffffffffffffffffffffffffff1673ffffffffffffffffffffffffffffffffffffffff1681526020018473ffffffffffffffffffffffffffffffffffffffff1673ffffffffffffffffffffffffffffffffffffffff1681526020018373ffffffffffffffffffffffffffffffffffffffff1673ffffffffffffffffffffffffffffffffffffffff1681526020018273ffffffffffffffffffffffffffffffffffffffff1673ffffffffffffffffffffffffffffffffffffffff168152602001945050505050600060405180830381600087803b151561264357600080fd5b6102c65a03f1151561265457600080fd5b505050600e60009054906101000a900473ffffffffffffffffffffffffffffffffffffffff16601760006101000a81548173ffffffffffffffffffffffffffffffffffffffff021916908373ffffffffffffffffffffffffffffffffffffffff160217905550601760009054906101000a900473ffffffffffffffffffffffffffffffffffffffff1673ffffffffffffffffffffffffffffffffffffffff1662edf46e600560009054906101000a900473ffffffffffffffffffffffffffffffffffffffff16600660009054906101000a900473ffffffffffffffffffffffffffffffffffffffff16600760009054906101000a900473ffffffffffffffffffffffffffffffffffffffff166040518463ffffffff167c0100000000000000000000000000000000000000000000000000000000028152600401808473ffffffffffffffffffffffffffffffffffffffff1673ffffffffffffffffffffffffffffffffffffffff1681526020018373ffffffffffffffffffffffffffffffffffffffff1673ffffffffffffffffffffffffffffffffffffffff1681526020018273ffffffffffffffffffffffffffffffffffffffff1673ffffffffffffffffffffffffffffffffffffffff1681526020019350505050600060405180830381600087803b151561284357600080fd5b6102c65a03f1151561285457600080fd5b505050601760009054906101000a900473ffffffffffffffffffffffffffffffffffffffff1673ffffffffffffffffffffffffffffffffffffffff1663f41e8241600a60009054906101000a900473ffffffffffffffffffffffffffffffffffffffff16600b60009054906101000a900473ffffffffffffffffffffffffffffffffffffffff16600c60009054906101000a900473ffffffffffffffffffffffffffffffffffffffff166040518463ffffffff167c0100000000000000000000000000000000000000000000000000000000028152600401808473ffffffffffffffffffffffffffffffffffffffff1673ffffffffffffffffffffffffffffffffffffffff1681526020018373ffffffffffffffffffffffffffffffffffffffff1673ffffffffffffffffffffffffffffffffffffffff1681526020018273ffffffffffffffffffffffffffffffffffffffff1673ffffffffffffffffffffffffffffffffffffffff1681526020019350505050600060405180830381600087803b15156129e157600080fd5b6102c65a03f115156129f257600080fd5b505050565b60008090506000831115612a0c576001830390505b6000600460006003600085815260200190815260200160002085815481101515612a3257fe5b906000526020600020906002020160010160009054906101000a900473ffffffffffffffffffffffffffffffffffffffff1673ffffffffffffffffffffffffffffffffffffffff1673ffffffffffffffffffffffffffffffffffffffff168152602001908152602001600020819055506001600460006003600087815260200190815260200160002085815481101515612ac857fe5b906000526020600020906002020160010160009054906101000a900473ffffffffffffffffffffffffffffffffffffffff1673ffffffffffffffffffffffffffffffffffffffff1673ffffffffffffffffffffffffffffffffffffffff16815260200190815260200160002081905550505050565b815481835581811511612b6a57600202816002028360005260206000209182019101612b699190612ba1565b5b505050565b815481835581811511612b9c57600202816002028360005260206000209182019101612b9b9190612bef565b5b505050565b612bec91905b80821115612be8576000808201600090556001820160006101000a81549073ffffffffffffffffffffffffffffffffffffffff021916905550600201612ba7565b5090565b90565b612c1b91905b80821115612c1757600080820160009055600182016000905550600201612bf5565b5090565b905600a165627a7a723058207c3f09761b7d0f0b5eb19768672de95149c4474e5769d976dfd898dd70432b9d0029",
  "source": "/* Copyright (C) 2017 GovBlocks.io\r\n\r\n  This program is free software: you can redistribute it and/or modify\r\n    it under the terms of the GNU General Public License as published by\r\n    the Free Software Foundation, either version 3 of the License, or\r\n    (at your option) any later version.\r\n\r\n  This program is distributed in the hope that it will be useful,\r\n    but WITHOUT ANY WARRANTY; without even the implied warranty of\r\n    MERCHANTABILITY or FITNESS FOR A PARTICULAR PURPOSE.  See the\r\n    GNU General Public License for more details.\r\n\r\n  You should have received a copy of the GNU General Public License\r\n    along with this program.  If not, see http://www.gnu.org/licenses/ */\r\n    \r\npragma solidity ^0.4.8;\r\n\r\nimport \"./GovernanceData.sol\";\r\nimport \"./SimpleVoting.sol\";\r\nimport \"./RankBasedVoting.sol\";\r\nimport \"./FeatureWeighted.sol\";\r\nimport \"./MemberRoles.sol\";\r\nimport \"./ProposalCategory.sol\";\r\nimport \"./StandardVotingType.sol\";\r\nimport \"./zeppelin-solidity/contracts/token/MintableToken.sol\";\r\nimport \"./zeppelin-solidity/contracts/token/BasicToken.sol\";\r\n// import \"./MintableToken.sol\";\r\n// import \"./BasicToken.sol\";\r\n\r\ncontract Master is Ownable {\r\n\r\n    struct contractDetails{\r\n        bytes32 name;\r\n        address contractAddress;\r\n    }\r\n\r\n    struct changeVersion{\r\n        uint date_implement;\r\n        uint versionNo;\r\n    }\r\n\r\n    uint  public versionLength;\r\n    changeVersion[]  contractChangeDate;\r\n    mapping(uint=>contractDetails[]) public allContractVersions;\r\n    mapping(address=>uint) public contracts_active;\r\n    \r\n    address governanceDataAddress;\r\n    address memberRolesAddress;\r\n    address proposalCategoryAddress;\r\n    address mintableTokenAddress;\r\n    address basicTokenAddress;\r\n    address simpleVotingAddress;\r\n    address rankBasedVotingAddress;\r\n    address featureWeightedAddress;\r\n    address masterAddress;\r\n    address standardVotingTypeAddress;\r\n    GovernanceData GD;\r\n    MemberRoles MR;\r\n    ProposalCategory PC;\r\n    MintableToken MT;\r\n    BasicToken BT;\r\n    SimpleVoting SV;\r\n    RankBasedVoting RB;\r\n    FeatureWeighted FW;\r\n    StandardVotingType SVT;\r\n\r\n    /// @dev Constructor\r\n    function Master()\r\n    {\r\n        masterAddress=address(this);\r\n        contracts_active[masterAddress]=0;\r\n        contracts_active[address(this)]=1;\r\n        versionLength =0;\r\n    }\r\n   \r\n    /// @dev Creates a new version of contract addresses.\r\n    function addNewVersion(address[] _contractAddresses) onlyOwner\r\n    {\r\n        uint versionNo = versionLength;\r\n        setVersionLength(versionNo+1);\r\n        \r\n        addContractDetails(versionNo,\"Master\",masterAddress);\r\n        addContractDetails(versionNo,\"GovernanceData\",_contractAddresses[0]);\r\n        addContractDetails(versionNo,\"MemberRoles\",_contractAddresses[1]);\r\n        addContractDetails(versionNo,\"ProposalCategory\",_contractAddresses[2]);\r\n        addContractDetails(versionNo,\"MintableToken\",_contractAddresses[3]); \r\n        addContractDetails(versionNo,\"BasicToken\",_contractAddresses[4]); \r\n        addContractDetails(versionNo,\"SimpleVoting\",_contractAddresses[5]);\r\n        addContractDetails(versionNo,\"RankBasedVoting\",_contractAddresses[6]); \r\n        addContractDetails(versionNo,\"FeatureWeighted\",_contractAddresses[7]); \r\n        addContractDetails(versionNo,\"StandardVotingType\",_contractAddresses[8]); \r\n    }\r\n\r\n    /// @dev Adds Contract's name  and its ethereum address in a given version.\r\n    function addContractDetails(uint _versionNo,bytes32 _contractName,address _contractAddresse) \r\n    {\r\n        allContractVersions[_versionNo].push(contractDetails(_contractName,_contractAddresse));        \r\n    }\r\n\r\n    /// @dev Changes all reference contract addresses in master \r\n    function changeAddressInMaster(uint _version) onlyOwner\r\n    {\r\n        changeAllAddress(_version);\r\n        governanceDataAddress = allContractVersions[_version][1].contractAddress;\r\n        memberRolesAddress = allContractVersions[_version][2].contractAddress;\r\n        proposalCategoryAddress = allContractVersions[_version][3].contractAddress;\r\n        mintableTokenAddress = allContractVersions[_version][4].contractAddress;\r\n        basicTokenAddress = allContractVersions[_version][5].contractAddress;\r\n        simpleVotingAddress = allContractVersions[_version][6].contractAddress;\r\n        rankBasedVotingAddress = allContractVersions[_version][7].contractAddress;\r\n        featureWeightedAddress = allContractVersions[_version][8].contractAddress;\r\n        standardVotingTypeAddress = allContractVersions[_version][9].contractAddress;\r\n\r\n        changeOtherAddress();  \r\n    }\r\n\r\n    /// @dev Sets the older version contract address as inactive and the latest one as active.\r\n    function changeAllAddress(uint version) internal\r\n    {\r\n        addRemoveAddress(version,1);\r\n        addRemoveAddress(version,2);\r\n        addRemoveAddress(version,3);\r\n        addRemoveAddress(version,4);\r\n        addRemoveAddress(version,5);\r\n        addRemoveAddress(version,6);\r\n        addRemoveAddress(version,7);\r\n        addRemoveAddress(version,8);\r\n        addRemoveAddress(version,9);\r\n    }\r\n\r\n    /// @dev Deactivates address of a contract from last version.\r\n    function addRemoveAddress(uint _version,uint _index) internal\r\n    {\r\n        uint version_old=0;\r\n        if(_version>0)\r\n            version_old=_version-1;\r\n        contracts_active[allContractVersions[version_old][_index].contractAddress]=0;\r\n        contracts_active[allContractVersions[_version][_index].contractAddress]=1;\r\n    }\r\n\r\n    /// @dev Links all contracts to master.sol by passing address of Master contract to the functions of other contracts.\r\n    function changeMasterAddress(address _masterAddress) onlyOwner\r\n    {\r\n        GD=GovernanceData(governanceDataAddress);\r\n        GD.changeMasterAddress(_masterAddress);\r\n        \r\n        MR=MemberRoles(memberRolesAddress);\r\n        MR.changeMasterAddress(_masterAddress);\r\n\r\n        PC=ProposalCategory(proposalCategoryAddress);\r\n        PC.changeMasterAddress(_masterAddress);\r\n\r\n        SV=SimpleVoting(simpleVotingAddress);\r\n        SV.changeMasterAddress(_masterAddress);\r\n\r\n        RB=RankBasedVoting(rankBasedVotingAddress);\r\n        RB.changeMasterAddress(_masterAddress);\r\n\r\n        FW=FeatureWeighted(featureWeightedAddress);\r\n        FW.changeMasterAddress(_masterAddress);\r\n    }\r\n\r\n   /// @dev Link contracts to one another.\r\n   function changeOtherAddress() internal\r\n   {  \r\n        GD=GovernanceData(governanceDataAddress);\r\n        GD.changeAllContractsAddress(basicTokenAddress,memberRolesAddress,proposalCategoryAddress);\r\n\r\n        SV=SimpleVoting(simpleVotingAddress);\r\n        SV.changeAllContractsAddress(standardVotingTypeAddress,governanceDataAddress,memberRolesAddress,proposalCategoryAddress);\r\n\r\n        RB=RankBasedVoting(rankBasedVotingAddress);\r\n        RB.changeAllContractsAddress(standardVotingTypeAddress,governanceDataAddress,memberRolesAddress,proposalCategoryAddress);\r\n\r\n        FW=FeatureWeighted(featureWeightedAddress);\r\n        FW.changeAllContractsAddress(standardVotingTypeAddress,governanceDataAddress,memberRolesAddress,proposalCategoryAddress);\r\n\r\n        SVT=StandardVotingType(standardVotingTypeAddress);\r\n        SVT.changeAllContractsAddress(governanceDataAddress,memberRolesAddress,proposalCategoryAddress);\r\n        SVT.changeOtherContractAddress(simpleVotingAddress,rankBasedVotingAddress,featureWeightedAddress);\r\n   }\r\n\r\n    /// @dev Change GNT token address all contracts\r\n    function changeGNTAddress(address _tokenAddress)\r\n    {\r\n        GD=GovernanceData(governanceDataAddress);\r\n        GD.changeGNTtokenAddress(mintableTokenAddress);\r\n        \r\n        SV=SimpleVoting(simpleVotingAddress);\r\n        SV.changeGNTtokenAddress(mintableTokenAddress);\r\n\r\n        RB=RankBasedVoting(rankBasedVotingAddress);\r\n        RB.changeGNTtokenAddress(mintableTokenAddress);\r\n\r\n        FW=FeatureWeighted(featureWeightedAddress);\r\n        FW.changeGNTtokenAddress(mintableTokenAddress);\r\n    }\r\n\r\n    /// @dev Switch to the recent version of contracts. (Last one)\r\n    function switchToRecentVersion() onlyOwner\r\n    {\r\n        uint version = versionLength-1;\r\n        addInContractChangeDate(now,version);\r\n        changeAddressInMaster(version);\r\n    }\r\n\r\n    /// @dev Stores the date when version of contracts get switched.\r\n    function addInContractChangeDate(uint _date , uint _versionNo) internal\r\n    {\r\n        contractChangeDate.push(changeVersion(_date,_versionNo));\r\n    }\r\n  \r\n    /// @dev Sets the length of version.\r\n    function setVersionLength(uint _length) \r\n    {\r\n        versionLength = _length;\r\n    }\r\n\r\n}\r\n",
  "sourcePath": "D:\\2. GovBlocks Contracts\\GovBlocks Git-Master\\contracts\\Master.sol",
  "compiler": {
    "name": "solc",
    "version": "0.4.18+commit.9cf6e910.Emscripten.clang"
  },
  "schemaVersion": "1.0.1",
  "updatedAt": "2018-01-11T12:20:43.846Z"
}