{
  "contractName": "Master",
  "abi": [
    {
      "constant": false,
      "inputs": [],
      "name": "switchToRecentVersion",
      "outputs": [],
      "payable": false,
      "stateMutability": "nonpayable",
      "type": "function"
    },
    {
      "constant": false,
      "inputs": [
        {
          "name": "_length",
          "type": "uint256"
        }
      ],
      "name": "setVersionLength",
      "outputs": [],
      "payable": false,
      "stateMutability": "nonpayable",
      "type": "function"
    },
    {
      "constant": true,
      "inputs": [
        {
          "name": "",
          "type": "uint256"
        },
        {
          "name": "",
          "type": "uint256"
        }
      ],
      "name": "allContractVersions",
      "outputs": [
        {
          "name": "name",
          "type": "bytes16"
        },
        {
          "name": "contractAddress",
          "type": "address"
        }
      ],
      "payable": false,
      "stateMutability": "view",
      "type": "function"
    },
    {
      "constant": true,
      "inputs": [],
      "name": "owner",
      "outputs": [
        {
          "name": "",
          "type": "address"
        }
      ],
      "payable": false,
      "stateMutability": "view",
      "type": "function"
    },
    {
      "constant": false,
      "inputs": [
        {
          "name": "_versionNo",
          "type": "uint256"
        },
        {
          "name": "_contractName",
          "type": "bytes16"
        },
        {
          "name": "_contractAddresse",
          "type": "address"
        }
      ],
      "name": "addContractDetails",
      "outputs": [],
      "payable": false,
      "stateMutability": "nonpayable",
      "type": "function"
    },
    {
      "constant": false,
      "inputs": [
        {
          "name": "_contractAddresses",
          "type": "address[]"
        }
      ],
      "name": "addNewVersion",
      "outputs": [],
      "payable": false,
      "stateMutability": "nonpayable",
      "type": "function"
    },
    {
      "constant": false,
      "inputs": [
        {
          "name": "version",
          "type": "uint256"
        }
      ],
      "name": "changeOtherAddress",
      "outputs": [],
      "payable": false,
      "stateMutability": "nonpayable",
      "type": "function"
    },
    {
      "constant": false,
      "inputs": [
        {
          "name": "_masterAddress",
          "type": "address"
        }
      ],
      "name": "changeMasterAddress",
      "outputs": [],
      "payable": false,
      "stateMutability": "nonpayable",
      "type": "function"
    },
    {
      "constant": true,
      "inputs": [],
      "name": "versionLength",
      "outputs": [
        {
          "name": "",
          "type": "uint256"
        }
      ],
      "payable": false,
      "stateMutability": "view",
      "type": "function"
    },
    {
      "constant": false,
      "inputs": [
        {
          "name": "version",
          "type": "uint256"
        }
      ],
      "name": "changeAddressInMaster",
      "outputs": [],
      "payable": false,
      "stateMutability": "nonpayable",
      "type": "function"
    },
    {
      "constant": false,
      "inputs": [
        {
          "name": "newOwner",
          "type": "address"
        }
      ],
      "name": "transferOwnership",
      "outputs": [],
      "payable": false,
      "stateMutability": "nonpayable",
      "type": "function"
    },
    {
      "inputs": [],
      "payable": false,
      "stateMutability": "nonpayable",
      "type": "constructor"
    },
    {
      "anonymous": false,
      "inputs": [
        {
          "indexed": true,
          "name": "previousOwner",
          "type": "address"
        },
        {
          "indexed": true,
          "name": "newOwner",
          "type": "address"
        }
      ],
      "name": "OwnershipTransferred",
      "type": "event"
    }
  ],
  "bytecode": "0x6060604052341561000f57600080fd5b336000806101000a81548173ffffffffffffffffffffffffffffffffffffffff021916908373ffffffffffffffffffffffffffffffffffffffff16021790555030600d60006101000a81548173ffffffffffffffffffffffffffffffffffffffff021916908373ffffffffffffffffffffffffffffffffffffffff160217905550600060046000600d60009054906101000a900473ffffffffffffffffffffffffffffffffffffffff1673ffffffffffffffffffffffffffffffffffffffff1673ffffffffffffffffffffffffffffffffffffffff168152602001908152602001600020819055506001600460003073ffffffffffffffffffffffffffffffffffffffff1673ffffffffffffffffffffffffffffffffffffffff1681526020019081526020016000208190555060006001819055506122ed806101536000396000f3006060604052600436106100af576000357c0100000000000000000000000000000000000000000000000000000000900463ffffffff1680630d89247d146100b457806316b2c8fc146100c95780637396343a146100ec5780638da5cb5b146101855780639d49ffaf146101da578063a97ea79414610238578063c061fe1c14610292578063d46655f4146102b5578063d57fe1af146102ee578063e18efeec14610317578063f2fde38b1461033a575b600080fd5b34156100bf57600080fd5b6100c7610373565b005b34156100d457600080fd5b6100ea60048080359060200190919050506103f6565b005b34156100f757600080fd5b6101166004808035906020019091908035906020019091905050610400565b60405180836fffffffffffffffffffffffffffffffff19166fffffffffffffffffffffffffffffffff191681526020018273ffffffffffffffffffffffffffffffffffffffff1673ffffffffffffffffffffffffffffffffffffffff1681526020019250505060405180910390f35b341561019057600080fd5b61019861047d565b604051808273ffffffffffffffffffffffffffffffffffffffff1673ffffffffffffffffffffffffffffffffffffffff16815260200191505060405180910390f35b34156101e557600080fd5b61023660048080359060200190919080356fffffffffffffffffffffffffffffffff191690602001909190803573ffffffffffffffffffffffffffffffffffffffff169060200190919050506104a3565b005b341561024357600080fd5b6102906004808035906020019082018035906020019080806020026020016040519081016040528093929190818152602001838360200280828437820191505050505050919050506105ab565b005b341561029d57600080fd5b6102b36004808035906020019091905050610882565b005b34156102c057600080fd5b6102ec600480803573ffffffffffffffffffffffffffffffffffffffff169060200190919050506111e1565b005b34156102f957600080fd5b610301611971565b6040518082815260200191505060405180910390f35b341561032257600080fd5b6103386004808035906020019091905050611977565b005b341561034557600080fd5b610371600480803573ffffffffffffffffffffffffffffffffffffffff16906020019091905050611e76565b005b60008060009054906101000a900473ffffffffffffffffffffffffffffffffffffffff1673ffffffffffffffffffffffffffffffffffffffff163373ffffffffffffffffffffffffffffffffffffffff161415156103d057600080fd5b600180540390506103e14282611fcb565b6103ea81611977565b6103f381610882565b50565b8060018190555050565b60036020528160005260406000208181548110151561041b57fe5b9060005260206000209060020201600091509150508060000160009054906101000a900470010000000000000000000000000000000002908060010160009054906101000a900473ffffffffffffffffffffffffffffffffffffffff16905082565b601660009054906101000a900473ffffffffffffffffffffffffffffffffffffffff1681565b6003600084815260200190815260200160002080548060010182816104c891906121c5565b916000526020600020906002020160006040805190810160405280866fffffffffffffffffffffffffffffffff191681526020018573ffffffffffffffffffffffffffffffffffffffff16815250909190915060008201518160000160006101000a8154816fffffffffffffffffffffffffffffffff02191690837001000000000000000000000000000000009004021790555060208201518160010160006101000a81548173ffffffffffffffffffffffffffffffffffffffff021916908373ffffffffffffffffffffffffffffffffffffffff160217905550505050505050565b60008060009054906101000a900473ffffffffffffffffffffffffffffffffffffffff1673ffffffffffffffffffffffffffffffffffffffff163373ffffffffffffffffffffffffffffffffffffffff1614151561060857600080fd5b6001549050610619600182016103f6565b610666817f4d61737465727300000000000000000000000000000000000000000000000000600d60009054906101000a900473ffffffffffffffffffffffffffffffffffffffff166104a3565b6106a9817f476f7665726e616e63654461746100000000000000000000000000000000000084600081518110151561069a57fe5b906020019060200201516104a3565b6106ec817f4d656d626572526f6c65730000000000000000000000000000000000000000008460018151811015156106dd57fe5b906020019060200201516104a3565b61072f817f50726f706f73616c43617465676f72790000000000000000000000000000000084600281518110151561072057fe5b906020019060200201516104a3565b610772817f4d696e7461626c65546f6b656e0000000000000000000000000000000000000084600381518110151561076357fe5b906020019060200201516104a3565b6107b5817f4261736963546f6b656e000000000000000000000000000000000000000000008460048151811015156107a657fe5b906020019060200201516104a3565b6107f8817f53696d706c65566f74696e6700000000000000000000000000000000000000008460058151811015156107e957fe5b906020019060200201516104a3565b61083b817f52616e6b4261736564566f74696e67000000000000000000000000000000000084600681518110151561082c57fe5b906020019060200201516104a3565b61087e817f466561747572655765696768746564000000000000000000000000000000000084600781518110151561086f57fe5b906020019060200201516104a3565b5050565b600560009054906101000a900473ffffffffffffffffffffffffffffffffffffffff16600e60006101000a81548173ffffffffffffffffffffffffffffffffffffffff021916908373ffffffffffffffffffffffffffffffffffffffff160217905550600e60009054906101000a900473ffffffffffffffffffffffffffffffffffffffff1673ffffffffffffffffffffffffffffffffffffffff1663013b4441600860009054906101000a900473ffffffffffffffffffffffffffffffffffffffff16600960009054906101000a900473ffffffffffffffffffffffffffffffffffffffff16600660009054906101000a900473ffffffffffffffffffffffffffffffffffffffff16600760009054906101000a900473ffffffffffffffffffffffffffffffffffffffff166040518563ffffffff167c0100000000000000000000000000000000000000000000000000000000028152600401808573ffffffffffffffffffffffffffffffffffffffff1673ffffffffffffffffffffffffffffffffffffffff1681526020018473ffffffffffffffffffffffffffffffffffffffff1673ffffffffffffffffffffffffffffffffffffffff1681526020018373ffffffffffffffffffffffffffffffffffffffff1673ffffffffffffffffffffffffffffffffffffffff1681526020018273ffffffffffffffffffffffffffffffffffffffff1673ffffffffffffffffffffffffffffffffffffffff168152602001945050505050600060405180830381600087803b1515610ac557600080fd5b6102c65a03f11515610ad657600080fd5b505050600a60009054906101000a900473ffffffffffffffffffffffffffffffffffffffff16601360006101000a81548173ffffffffffffffffffffffffffffffffffffffff021916908373ffffffffffffffffffffffffffffffffffffffff160217905550601360009054906101000a900473ffffffffffffffffffffffffffffffffffffffff1673ffffffffffffffffffffffffffffffffffffffff1663013b4441600860009054906101000a900473ffffffffffffffffffffffffffffffffffffffff16600560009054906101000a900473ffffffffffffffffffffffffffffffffffffffff16600660009054906101000a900473ffffffffffffffffffffffffffffffffffffffff16600760009054906101000a900473ffffffffffffffffffffffffffffffffffffffff166040518563ffffffff167c0100000000000000000000000000000000000000000000000000000000028152600401808573ffffffffffffffffffffffffffffffffffffffff1673ffffffffffffffffffffffffffffffffffffffff1681526020018473ffffffffffffffffffffffffffffffffffffffff1673ffffffffffffffffffffffffffffffffffffffff1681526020018373ffffffffffffffffffffffffffffffffffffffff1673ffffffffffffffffffffffffffffffffffffffff1681526020018273ffffffffffffffffffffffffffffffffffffffff1673ffffffffffffffffffffffffffffffffffffffff168152602001945050505050600060405180830381600087803b1515610d1c57600080fd5b6102c65a03f11515610d2d57600080fd5b505050600b60009054906101000a900473ffffffffffffffffffffffffffffffffffffffff16601460006101000a81548173ffffffffffffffffffffffffffffffffffffffff021916908373ffffffffffffffffffffffffffffffffffffffff160217905550601460009054906101000a900473ffffffffffffffffffffffffffffffffffffffff1673ffffffffffffffffffffffffffffffffffffffff1663013b4441600860009054906101000a900473ffffffffffffffffffffffffffffffffffffffff16600560009054906101000a900473ffffffffffffffffffffffffffffffffffffffff16600660009054906101000a900473ffffffffffffffffffffffffffffffffffffffff16600760009054906101000a900473ffffffffffffffffffffffffffffffffffffffff166040518563ffffffff167c0100000000000000000000000000000000000000000000000000000000028152600401808573ffffffffffffffffffffffffffffffffffffffff1673ffffffffffffffffffffffffffffffffffffffff1681526020018473ffffffffffffffffffffffffffffffffffffffff1673ffffffffffffffffffffffffffffffffffffffff1681526020018373ffffffffffffffffffffffffffffffffffffffff1673ffffffffffffffffffffffffffffffffffffffff1681526020018273ffffffffffffffffffffffffffffffffffffffff1673ffffffffffffffffffffffffffffffffffffffff168152602001945050505050600060405180830381600087803b1515610f7357600080fd5b6102c65a03f11515610f8457600080fd5b505050600c60009054906101000a900473ffffffffffffffffffffffffffffffffffffffff16601560006101000a81548173ffffffffffffffffffffffffffffffffffffffff021916908373ffffffffffffffffffffffffffffffffffffffff160217905550601560009054906101000a900473ffffffffffffffffffffffffffffffffffffffff1673ffffffffffffffffffffffffffffffffffffffff1663013b4441600860009054906101000a900473ffffffffffffffffffffffffffffffffffffffff16600560009054906101000a900473ffffffffffffffffffffffffffffffffffffffff16600660009054906101000a900473ffffffffffffffffffffffffffffffffffffffff16600760009054906101000a900473ffffffffffffffffffffffffffffffffffffffff166040518563ffffffff167c0100000000000000000000000000000000000000000000000000000000028152600401808573ffffffffffffffffffffffffffffffffffffffff1673ffffffffffffffffffffffffffffffffffffffff1681526020018473ffffffffffffffffffffffffffffffffffffffff1673ffffffffffffffffffffffffffffffffffffffff1681526020018373ffffffffffffffffffffffffffffffffffffffff1673ffffffffffffffffffffffffffffffffffffffff1681526020018273ffffffffffffffffffffffffffffffffffffffff1673ffffffffffffffffffffffffffffffffffffffff168152602001945050505050600060405180830381600087803b15156111ca57600080fd5b6102c65a03f115156111db57600080fd5b50505050565b6000809054906101000a900473ffffffffffffffffffffffffffffffffffffffff1673ffffffffffffffffffffffffffffffffffffffff163373ffffffffffffffffffffffffffffffffffffffff1614151561123c57600080fd5b600560009054906101000a900473ffffffffffffffffffffffffffffffffffffffff16600e60006101000a81548173ffffffffffffffffffffffffffffffffffffffff021916908373ffffffffffffffffffffffffffffffffffffffff160217905550600e60009054906101000a900473ffffffffffffffffffffffffffffffffffffffff1673ffffffffffffffffffffffffffffffffffffffff1663d46655f4826040518263ffffffff167c0100000000000000000000000000000000000000000000000000000000028152600401808273ffffffffffffffffffffffffffffffffffffffff1673ffffffffffffffffffffffffffffffffffffffff168152602001915050600060405180830381600087803b151561135b57600080fd5b6102c65a03f1151561136c57600080fd5b505050600660009054906101000a900473ffffffffffffffffffffffffffffffffffffffff16600f60006101000a81548173ffffffffffffffffffffffffffffffffffffffff021916908373ffffffffffffffffffffffffffffffffffffffff160217905550600f60009054906101000a900473ffffffffffffffffffffffffffffffffffffffff1673ffffffffffffffffffffffffffffffffffffffff1663d46655f4826040518263ffffffff167c0100000000000000000000000000000000000000000000000000000000028152600401808273ffffffffffffffffffffffffffffffffffffffff1673ffffffffffffffffffffffffffffffffffffffff168152602001915050600060405180830381600087803b151561148e57600080fd5b6102c65a03f1151561149f57600080fd5b505050600760009054906101000a900473ffffffffffffffffffffffffffffffffffffffff16601060006101000a81548173ffffffffffffffffffffffffffffffffffffffff021916908373ffffffffffffffffffffffffffffffffffffffff160217905550601060009054906101000a900473ffffffffffffffffffffffffffffffffffffffff1673ffffffffffffffffffffffffffffffffffffffff1663d46655f4826040518263ffffffff167c0100000000000000000000000000000000000000000000000000000000028152600401808273ffffffffffffffffffffffffffffffffffffffff1673ffffffffffffffffffffffffffffffffffffffff168152602001915050600060405180830381600087803b15156115c157600080fd5b6102c65a03f115156115d257600080fd5b505050600a60009054906101000a900473ffffffffffffffffffffffffffffffffffffffff16601360006101000a81548173ffffffffffffffffffffffffffffffffffffffff021916908373ffffffffffffffffffffffffffffffffffffffff160217905550601360009054906101000a900473ffffffffffffffffffffffffffffffffffffffff1673ffffffffffffffffffffffffffffffffffffffff1663d46655f4826040518263ffffffff167c0100000000000000000000000000000000000000000000000000000000028152600401808273ffffffffffffffffffffffffffffffffffffffff1673ffffffffffffffffffffffffffffffffffffffff168152602001915050600060405180830381600087803b15156116f457600080fd5b6102c65a03f1151561170557600080fd5b505050600b60009054906101000a900473ffffffffffffffffffffffffffffffffffffffff16601460006101000a81548173ffffffffffffffffffffffffffffffffffffffff021916908373ffffffffffffffffffffffffffffffffffffffff160217905550601460009054906101000a900473ffffffffffffffffffffffffffffffffffffffff1673ffffffffffffffffffffffffffffffffffffffff1663d46655f4826040518263ffffffff167c0100000000000000000000000000000000000000000000000000000000028152600401808273ffffffffffffffffffffffffffffffffffffffff1673ffffffffffffffffffffffffffffffffffffffff168152602001915050600060405180830381600087803b151561182757600080fd5b6102c65a03f1151561183857600080fd5b505050600c60009054906101000a900473ffffffffffffffffffffffffffffffffffffffff16601560006101000a81548173ffffffffffffffffffffffffffffffffffffffff021916908373ffffffffffffffffffffffffffffffffffffffff160217905550601560009054906101000a900473ffffffffffffffffffffffffffffffffffffffff1673ffffffffffffffffffffffffffffffffffffffff1663d46655f4826040518263ffffffff167c0100000000000000000000000000000000000000000000000000000000028152600401808273ffffffffffffffffffffffffffffffffffffffff1673ffffffffffffffffffffffffffffffffffffffff168152602001915050600060405180830381600087803b151561195a57600080fd5b6102c65a03f1151561196b57600080fd5b50505050565b60015481565b6000809054906101000a900473ffffffffffffffffffffffffffffffffffffffff1673ffffffffffffffffffffffffffffffffffffffff163373ffffffffffffffffffffffffffffffffffffffff161415156119d257600080fd5b6119db81612024565b6003600082815260200190815260200160002060008154811015156119fc57fe5b906000526020600020906002020160010160009054906101000a900473ffffffffffffffffffffffffffffffffffffffff16600560006101000a81548173ffffffffffffffffffffffffffffffffffffffff021916908373ffffffffffffffffffffffffffffffffffffffff160217905550600360008281526020019081526020016000206001815481101515611a8f57fe5b906000526020600020906002020160010160009054906101000a900473ffffffffffffffffffffffffffffffffffffffff16600660006101000a81548173ffffffffffffffffffffffffffffffffffffffff021916908373ffffffffffffffffffffffffffffffffffffffff160217905550600360008281526020019081526020016000206002815481101515611b2257fe5b906000526020600020906002020160010160009054906101000a900473ffffffffffffffffffffffffffffffffffffffff16600760006101000a81548173ffffffffffffffffffffffffffffffffffffffff021916908373ffffffffffffffffffffffffffffffffffffffff160217905550600360008281526020019081526020016000206003815481101515611bb557fe5b906000526020600020906002020160010160009054906101000a900473ffffffffffffffffffffffffffffffffffffffff16600860006101000a81548173ffffffffffffffffffffffffffffffffffffffff021916908373ffffffffffffffffffffffffffffffffffffffff160217905550600360008281526020019081526020016000206004815481101515611c4857fe5b906000526020600020906002020160010160009054906101000a900473ffffffffffffffffffffffffffffffffffffffff16600960006101000a81548173ffffffffffffffffffffffffffffffffffffffff021916908373ffffffffffffffffffffffffffffffffffffffff160217905550600360008281526020019081526020016000206005815481101515611cdb57fe5b906000526020600020906002020160010160009054906101000a900473ffffffffffffffffffffffffffffffffffffffff16600a60006101000a81548173ffffffffffffffffffffffffffffffffffffffff021916908373ffffffffffffffffffffffffffffffffffffffff160217905550600360008281526020019081526020016000206006815481101515611d6e57fe5b906000526020600020906002020160010160009054906101000a900473ffffffffffffffffffffffffffffffffffffffff16600b60006101000a81548173ffffffffffffffffffffffffffffffffffffffff021916908373ffffffffffffffffffffffffffffffffffffffff160217905550600360008281526020019081526020016000206007815481101515611e0157fe5b906000526020600020906002020160010160009054906101000a900473ffffffffffffffffffffffffffffffffffffffff16600c60006101000a81548173ffffffffffffffffffffffffffffffffffffffff021916908373ffffffffffffffffffffffffffffffffffffffff16021790555050565b6000809054906101000a900473ffffffffffffffffffffffffffffffffffffffff1673ffffffffffffffffffffffffffffffffffffffff163373ffffffffffffffffffffffffffffffffffffffff16141515611ed157600080fd5b600073ffffffffffffffffffffffffffffffffffffffff168173ffffffffffffffffffffffffffffffffffffffff1614151515611f0d57600080fd5b8073ffffffffffffffffffffffffffffffffffffffff166000809054906101000a900473ffffffffffffffffffffffffffffffffffffffff1673ffffffffffffffffffffffffffffffffffffffff167f8be0079c531659141344cd1fd0a4f28419497f9722a3daafe3b4186f6b6457e060405160405180910390a3806000806101000a81548173ffffffffffffffffffffffffffffffffffffffff021916908373ffffffffffffffffffffffffffffffffffffffff16021790555050565b60028054806001018281611fdf91906121f7565b91600052602060002090600202016000604080519081016040528086815260200185815250909190915060008201518160000155602082015181600101555050505050565b61202f81600061207f565b61203a81600161207f565b61204581600261207f565b61205081600361207f565b61205b81600461207f565b61206681600561207f565b61207181600661207f565b61207c81600761207f565b50565b60008090506000831115612094576001830390505b60006004600060036000858152602001908152602001600020858154811015156120ba57fe5b906000526020600020906002020160010160009054906101000a900473ffffffffffffffffffffffffffffffffffffffff1673ffffffffffffffffffffffffffffffffffffffff1673ffffffffffffffffffffffffffffffffffffffff16815260200190815260200160002081905550600160046000600360008781526020019081526020016000208581548110151561215057fe5b906000526020600020906002020160010160009054906101000a900473ffffffffffffffffffffffffffffffffffffffff1673ffffffffffffffffffffffffffffffffffffffff1673ffffffffffffffffffffffffffffffffffffffff16815260200190815260200160002081905550505050565b8154818355818115116121f2576002028160020283600052602060002091820191016121f19190612229565b5b505050565b815481835581811511612224576002028160020283600052602060002091820191016122239190612292565b5b505050565b61228f91905b8082111561228b57600080820160006101000a8154906fffffffffffffffffffffffffffffffff02191690556001820160006101000a81549073ffffffffffffffffffffffffffffffffffffffff02191690555060020161222f565b5090565b90565b6122be91905b808211156122ba57600080820160009055600182016000905550600201612298565b5090565b905600a165627a7a7230582037747bdab85797dd20c6ef97eebf480b78a0aff3ec247a90b3ef03d5068133650029",
  "source": "/* Copyright (C) 2017 GovBlocks.io\r\n\r\n  This program is free software: you can redistribute it and/or modify\r\n    it under the terms of the GNU General Public License as published by\r\n    the Free Software Foundation, either version 3 of the License, or\r\n    (at your option) any later version.\r\n\r\n  This program is distributed in the hope that it will be useful,\r\n    but WITHOUT ANY WARRANTY; without even the implied warranty of\r\n    MERCHANTABILITY or FITNESS FOR A PARTICULAR PURPOSE.  See the\r\n    GNU General Public License for more details.\r\n\r\n  You should have received a copy of the GNU General Public License\r\n    along with this program.  If not, see http://www.gnu.org/licenses/ */\r\n    \r\npragma solidity ^0.4.8;\r\n\r\nimport \"./GovernanceData.sol\";\r\nimport \"./SimpleVoting.sol\";\r\nimport \"./RankBasedVoting.sol\";\r\nimport \"./FeatureWeighted.sol\";\r\nimport \"./MemberRoles.sol\";\r\nimport \"./ProposalCategory.sol\";\r\n// import \"./MintableToken.sol\";\r\n// import \"./BasicToken.sol\";\r\nimport \"./zeppelin-solidity/contracts/token/MintableToken.sol\";\r\nimport \"./zeppelin-solidity/contracts/token/BasicToken.sol\";\r\n\r\ncontract Master is Ownable {\r\n\r\n    struct contractDetails{\r\n        bytes16 name;\r\n        address contractAddress;\r\n    }\r\n\r\n    struct changeVersion{\r\n        uint date_implement;\r\n        uint versionNo;\r\n    }\r\n\r\n    uint  public versionLength;\r\n    changeVersion[]  contractChangeDate;\r\n    mapping(uint=>contractDetails[]) public allContractVersions;\r\n    mapping(address=>uint) contracts_active;\r\n    \r\n    address  governanceDataAddress;\r\n    address memberRolesAddress;\r\n    address proposalCategoryAddress;\r\n    address mintableTokenAddress;\r\n    address basicTokenAddress;\r\n    address  simpleVotingAddress;\r\n    address  rankBasedVotingAddress;\r\n    address  featureWeightedAddress;\r\n    address masterAddress;\r\n    GovernanceData GD;\r\n    MemberRoles MR;\r\n    ProposalCategory PC;\r\n    MintableToken MT;\r\n    BasicToken BT;\r\n    SimpleVoting SV;\r\n    RankBasedVoting RB;\r\n    FeatureWeighted FW;\r\n\r\n    address public owner;\r\n\r\n    /// @dev Constructor\r\n    function Master()\r\n    {\r\n        masterAddress=address(this);\r\n        contracts_active[masterAddress]=0;\r\n        contracts_active[address(this)]=1;\r\n        versionLength =0;\r\n    }\r\n   \r\n    /// @dev Creates a new version of contract addresses.\r\n    function addNewVersion(address[] _contractAddresses) onlyOwner\r\n    {\r\n        uint versionNo = versionLength;\r\n        setVersionLength(versionNo+1);\r\n        \r\n        addContractDetails(versionNo,\"Masters\",masterAddress);\r\n        addContractDetails(versionNo,\"GovernanceData\",_contractAddresses[0]);\r\n        addContractDetails(versionNo,\"MemberRoles\",_contractAddresses[1]);\r\n        addContractDetails(versionNo,\"ProposalCategory\",_contractAddresses[2]);\r\n        addContractDetails(versionNo,\"MintableToken\",_contractAddresses[3]); \r\n        addContractDetails(versionNo,\"BasicToken\",_contractAddresses[4]); \r\n        addContractDetails(versionNo,\"SimpleVoting\",_contractAddresses[5]);\r\n        addContractDetails(versionNo,\"RankBasedVoting\",_contractAddresses[6]); \r\n        addContractDetails(versionNo,\"FeatureWeighted\",_contractAddresses[7]);   \r\n    }\r\n\r\n    /// @dev Adds Contract's name  and its ethereum address in a given version.\r\n    function addContractDetails(uint _versionNo,bytes16 _contractName,address _contractAddresse) \r\n    {\r\n        allContractVersions[_versionNo].push(contractDetails(_contractName,_contractAddresse));        \r\n    }\r\n\r\n    /// @dev Changes all reference contract addresses in master \r\n    function changeAddressInMaster(uint version) onlyOwner\r\n    {\r\n        changeAllAddress(version);\r\n        governanceDataAddress = allContractVersions[version][0].contractAddress;\r\n        memberRolesAddress = allContractVersions[version][1].contractAddress;\r\n        proposalCategoryAddress = allContractVersions[version][2].contractAddress;\r\n        mintableTokenAddress = allContractVersions[version][3].contractAddress;\r\n        basicTokenAddress = allContractVersions[version][4].contractAddress;\r\n        simpleVotingAddress = allContractVersions[version][5].contractAddress;\r\n        rankBasedVotingAddress = allContractVersions[version][6].contractAddress;\r\n        featureWeightedAddress = allContractVersions[version][7].contractAddress;\r\n    }\r\n\r\n    /// @dev Sets the older version contract address as inactive and the latest one as active.\r\n    function changeAllAddress(uint version) internal\r\n    {\r\n        addRemoveAddress(version,0);\r\n        addRemoveAddress(version,1);\r\n        addRemoveAddress(version,2);\r\n        addRemoveAddress(version,3);\r\n        addRemoveAddress(version,4);\r\n        addRemoveAddress(version,5);\r\n        addRemoveAddress(version,6);\r\n        addRemoveAddress(version,7);\r\n    }\r\n\r\n    /// @dev Deactivates address of a contract from last version.\r\n    function addRemoveAddress(uint _version,uint _index) internal\r\n    {\r\n        uint version_old=0;\r\n        if(_version>0)\r\n            version_old=_version-1;\r\n        contracts_active[allContractVersions[version_old][_index].contractAddress]=0;\r\n        contracts_active[allContractVersions[_version][_index].contractAddress]=1;\r\n    }\r\n\r\n  \r\n    /// @dev Links all contracts to master.sol by passing address of Master contract to the functions of other contracts.\r\n    function changeMasterAddress(address _masterAddress) onlyOwner\r\n    {\r\n        \r\n        GD=GovernanceData(governanceDataAddress);\r\n        GD.changeMasterAddress(_masterAddress);\r\n        \r\n        MR=MemberRoles(memberRolesAddress);\r\n        MR.changeMasterAddress(_masterAddress);\r\n\r\n        PC=ProposalCategory(proposalCategoryAddress);\r\n        PC.changeMasterAddress(_masterAddress);\r\n\r\n        SV=SimpleVoting(simpleVotingAddress);\r\n        SV.changeMasterAddress(_masterAddress);\r\n\r\n        RB=RankBasedVoting(rankBasedVotingAddress);\r\n        RB.changeMasterAddress(_masterAddress);\r\n\r\n        FW=FeatureWeighted(featureWeightedAddress);\r\n        FW.changeMasterAddress(_masterAddress);\r\n    }\r\n\r\n   /// @dev Link contracts to one another.\r\n   function changeOtherAddress(uint version) \r\n   {   \r\n        GD=GovernanceData(governanceDataAddress);\r\n        GD.changeAllContractsAddress(mintableTokenAddress,basicTokenAddress,memberRolesAddress,proposalCategoryAddress);\r\n        \r\n        SV=SimpleVoting(simpleVotingAddress);\r\n        SV.changeAllContractsAddress(mintableTokenAddress,governanceDataAddress,memberRolesAddress,proposalCategoryAddress);\r\n\r\n        RB=RankBasedVoting(rankBasedVotingAddress);\r\n        RB.changeAllContractsAddress(mintableTokenAddress,governanceDataAddress,memberRolesAddress,proposalCategoryAddress);\r\n\r\n        FW=FeatureWeighted(featureWeightedAddress);\r\n        FW.changeAllContractsAddress(mintableTokenAddress,governanceDataAddress,memberRolesAddress,proposalCategoryAddress);\r\n   }\r\n\r\n    /// @dev Switch to the recent version of contracts. (Last one)\r\n    function switchToRecentVersion() onlyOwner\r\n    {\r\n        uint version = versionLength-1;\r\n        addInContractChangeDate(now,version);\r\n        changeAddressInMaster(version);\r\n        changeOtherAddress(version);\r\n    }\r\n\r\n    /// @dev Stores the date when version of contracts get switched.\r\n    function addInContractChangeDate(uint _date , uint _versionNo) internal\r\n    {\r\n        contractChangeDate.push(changeVersion(_date,_versionNo));\r\n    }\r\n  \r\n    /// @dev Sets the length of version.\r\n    function setVersionLength(uint _length) \r\n    {\r\n        versionLength = _length;\r\n    }\r\n}\r\n",
  "sourcePath": "D:\\2. GovBlocks Contracts\\GovBlocks Git-Master\\contracts\\Master.sol",
  "compiler": {
    "name": "solc",
    "version": "0.4.18+commit.9cf6e910.Emscripten.clang"
  },
  "schemaVersion": "1.0.1",
  "updatedAt": "2017-12-26T07:59:28.397Z"
}