{
  "contractName": "memberRoles",
  "abi": [
    {
      "constant": false,
      "inputs": [
        {
          "name": "_newRoleName",
          "type": "string"
        }
      ],
      "name": "addNewMemberRole",
      "outputs": [],
      "payable": false,
      "stateMutability": "nonpayable",
      "type": "function"
    },
    {
      "constant": true,
      "inputs": [
        {
          "name": "_memberRoleId",
          "type": "uint256"
        }
      ],
      "name": "getMemberRoleNameById",
      "outputs": [
        {
          "name": "memberRoleName",
          "type": "string"
        }
      ],
      "payable": false,
      "stateMutability": "view",
      "type": "function"
    },
    {
      "constant": false,
      "inputs": [
        {
          "name": "_roleId",
          "type": "uint256"
        }
      ],
      "name": "changeAuthorizedMemberId",
      "outputs": [
        {
          "name": "",
          "type": "uint256"
        }
      ],
      "payable": false,
      "stateMutability": "nonpayable",
      "type": "function"
    },
    {
      "constant": true,
      "inputs": [
        {
          "name": "_memberAddress",
          "type": "address"
        },
        {
          "name": "_memberRoleId",
          "type": "uint256"
        }
      ],
      "name": "owner",
      "outputs": [
        {
          "name": "",
          "type": "address"
        }
      ],
      "payable": false,
      "stateMutability": "view",
      "type": "function"
    },
    {
      "constant": true,
      "inputs": [
        {
          "name": "_memberAddress",
          "type": "address"
        },
        {
          "name": "_memberRoleId",
          "type": "uint256"
        }
      ],
      "name": "categorizeAuthRoleid",
      "outputs": [
        {
          "name": "",
          "type": "uint256"
        }
      ],
      "payable": false,
      "stateMutability": "view",
      "type": "function"
    },
    {
      "inputs": [
        {
          "name": "_memberAddress",
          "type": "address"
        }
      ],
      "payable": false,
      "stateMutability": "view",
      "type": "function",
      "constant": true,
      "name": "getAuthorizedMemberId",
      "outputs": [
        {
          "name": "roleId",
          "type": "uint256"
        }
      ]
    },
    {
      "constant": false,
      "inputs": [
        {
          "name": "_memberAddress",
          "type": "address"
        },
        {
          "name": "_memberRoleId",
          "type": "uint256"
        }
      ],
      "name": "assignMemberRole",
      "outputs": [
        {
          "name": "memberAddress",
          "type": "address"
        }
      ],
      "payable": false,
      "stateMutability": "nonpayable",
      "type": "function"
    },
    {
      "inputs": [
        {
          "name": "_memberAddress",
          "type": "address"
        }
      ],
      "payable": false,
      "stateMutability": "view",
      "type": "function",
      "constant": true,
      "name": "getMemberRoleIdByAddress",
      "outputs": [
        {
          "name": "memberRoleId",
          "type": "uint256"
        }
      ]
    },
    {
      "constant": true,
      "inputs": [
        {
          "name": "_memberRoleId",
          "type": "uint256"
        }
      ],
      "name": "getMemberAddressByRoleId",
      "outputs": [
        {
          "name": "memberAddress",
          "type": "address"
        }
      ],
      "payable": false,
      "stateMutability": "view",
      "type": "function"
    },
    {
      "constant": false,
      "inputs": [
        {
          "name": "newOwner",
          "type": "address"
        }
      ],
      "name": "transferOwnership",
      "outputs": [],
      "payable": false,
      "stateMutability": "nonpayable",
      "type": "function"
    },
    {
      "inputs": [],
      "payable": false,
      "stateMutability": "nonpayable",
      "type": "constructor"
    },
    {
      "anonymous": false,
      "inputs": [
        {
          "indexed": true,
          "name": "previousOwner",
          "type": "address"
        },
        {
          "indexed": true,
          "name": "newOwner",
          "type": "address"
        }
      ],
      "name": "OwnershipTransferred",
      "type": "event"
    }
  ],
  "bytecode": "0x606060405234156200001057600080fd5b336000806101000a81548173ffffffffffffffffffffffffffffffffffffffff021916908373ffffffffffffffffffffffffffffffffffffffff16021790555060018054806001018281620000669190620001bd565b916000526020600020900160006040805190810160405280600681526020017f4d656d626572000000000000000000000000000000000000000000000000000081525090919091509080519060200190620000c3929190620001ec565b505060018054806001018281620000db9190620001bd565b916000526020600020900160006040805190810160405280600e81526020017f41647669736f727920426f6172640000000000000000000000000000000000008152509091909150908051906020019062000138929190620001ec565b505060018054806001018281620001509190620001bd565b916000526020600020900160006040805190810160405280600681526020017f457870657274000000000000000000000000000000000000000000000000000081525090919091509080519060200190620001ad929190620001ec565b5050600160028190555062000318565b815481835581811511620001e757818360005260206000209182019101620001e6919062000273565b5b505050565b828054600181600116156101000203166002900490600052602060002090601f016020900481019282601f106200022f57805160ff191683800117855562000260565b8280016001018555821562000260579182015b828111156200025f57825182559160200191906001019062000242565b5b5090506200026f9190620002a4565b5090565b620002a191905b808211156200029d5760008181620002939190620002cc565b506001016200027a565b5090565b90565b620002c991905b80821115620002c5576000816000905550600101620002ab565b5090565b90565b50805460018160011615610100020316600290046000825580601f10620002f4575062000315565b601f016020900490600052602060002090810190620003149190620002a4565b5b50565b6109e280620003286000396000f3006060604052600436106100a4576000357c0100000000000000000000000000000000000000000000000000000000900463ffffffff16806304e4dce0146100a95780631ee10b3614610106578063455ddebd146101a25780638da5cb5b146101c55780639650cfb31461021a5780639914aa8c14610243578063b5a12c341461026c578063beae32ba146102ae578063eee29b14146102fb578063f2fde38b1461035e575b600080fd5b34156100b457600080fd5b610104600480803590602001908201803590602001908080601f01602080910402602001604051908101604052809392919081815260200183838082843782019150505050505091905050610397565b005b341561011157600080fd5b6101276004808035906020019091905050610431565b6040518080602001828103825283818151815260200191508051906020019080838360005b8381101561016757808201518184015260208101905061014c565b50505050905090810190601f1680156101945780820380516001836020036101000a031916815260200191505b509250505060405180910390f35b34156101ad57600080fd5b6101c360048080359060200190919050506104f3565b005b34156101d057600080fd5b6101d8610558565b604051808273ffffffffffffffffffffffffffffffffffffffff1673ffffffffffffffffffffffffffffffffffffffff16815260200191505060405180910390f35b341561022557600080fd5b61022d61057d565b6040518082815260200191505060405180910390f35b341561024e57600080fd5b610256610583565b6040518082815260200191505060405180910390f35b341561027757600080fd5b6102ac600480803573ffffffffffffffffffffffffffffffffffffffff1690602001909190803590602001909190505061058d565b005b34156102b957600080fd5b6102e5600480803573ffffffffffffffffffffffffffffffffffffffff16906020019091905050610682565b6040518082815260200191505060405180910390f35b341561030657600080fd5b61031c60048080359060200190919050506106cb565b604051808273ffffffffffffffffffffffffffffffffffffffff1673ffffffffffffffffffffffffffffffffffffffff16815260200191505060405180910390f35b341561036957600080fd5b610395600480803573ffffffffffffffffffffffffffffffffffffffff16906020019091905050610708565b005b6000809054906101000a900473ffffffffffffffffffffffffffffffffffffffff1673ffffffffffffffffffffffffffffffffffffffff163373ffffffffffffffffffffffffffffffffffffffff161415156103f257600080fd5b60018054806001018281610406919061085d565b91600052602060002090016000839091909150908051906020019061042c929190610889565b505050565b610439610909565b60018281548110151561044857fe5b90600052602060002090018054600181600116156101000203166002900480601f0160208091040260200160405190810160405280929190818152602001828054600181600116156101000203166002900480156104e75780601f106104bc576101008083540402835291602001916104e7565b820191906000526020600020905b8154815290600101906020018083116104ca57829003601f168201915b50505050509050919050565b6000809054906101000a900473ffffffffffffffffffffffffffffffffffffffff1673ffffffffffffffffffffffffffffffffffffffff163373ffffffffffffffffffffffffffffffffffffffff1614151561054e57600080fd5b8060028190555050565b6000809054906101000a900473ffffffffffffffffffffffffffffffffffffffff1681565b60025481565b6000600254905090565b6000809054906101000a900473ffffffffffffffffffffffffffffffffffffffff1673ffffffffffffffffffffffffffffffffffffffff163373ffffffffffffffffffffffffffffffffffffffff161415156105e857600080fd5b80600360008473ffffffffffffffffffffffffffffffffffffffff1673ffffffffffffffffffffffffffffffffffffffff16815260200190815260200160002081905550816004600083815260200190815260200160002060006101000a81548173ffffffffffffffffffffffffffffffffffffffff021916908373ffffffffffffffffffffffffffffffffffffffff1602179055505050565b6000600360008373ffffffffffffffffffffffffffffffffffffffff1673ffffffffffffffffffffffffffffffffffffffff168152602001908152602001600020549050919050565b60006004600083815260200190815260200160002060009054906101000a900473ffffffffffffffffffffffffffffffffffffffff169050919050565b6000809054906101000a900473ffffffffffffffffffffffffffffffffffffffff1673ffffffffffffffffffffffffffffffffffffffff163373ffffffffffffffffffffffffffffffffffffffff1614151561076357600080fd5b600073ffffffffffffffffffffffffffffffffffffffff168173ffffffffffffffffffffffffffffffffffffffff161415151561079f57600080fd5b8073ffffffffffffffffffffffffffffffffffffffff166000809054906101000a900473ffffffffffffffffffffffffffffffffffffffff1673ffffffffffffffffffffffffffffffffffffffff167f8be0079c531659141344cd1fd0a4f28419497f9722a3daafe3b4186f6b6457e060405160405180910390a3806000806101000a81548173ffffffffffffffffffffffffffffffffffffffff021916908373ffffffffffffffffffffffffffffffffffffffff16021790555050565b81548183558181151161088457818360005260206000209182019101610883919061091d565b5b505050565b828054600181600116156101000203166002900490600052602060002090601f016020900481019282601f106108ca57805160ff19168380011785556108f8565b828001600101855582156108f8579182015b828111156108f75782518255916020019190600101906108dc565b5b5090506109059190610949565b5090565b602060405190810160405280600081525090565b61094691905b808211156109425760008181610939919061096e565b50600101610923565b5090565b90565b61096b91905b8082111561096757600081600090555060010161094f565b5090565b90565b50805460018160011615610100020316600290046000825580601f1061099457506109b3565b601f0160209004906000526020600020908101906109b29190610949565b5b505600a165627a7a72305820b6268dcc006ee183ec2adbec63243325a8187255ecde8522d0ac6ba007d17a520029",
  "source": "/* Copyright (C) 2017 NexusMutual.io\r\n\r\n  This program is free software: you can redistribute it and/or modify\r\n    it under the terms of the GNU General Public License as published by\r\n    the Free Software Foundation, either version 3 of the License, or\r\n    (at your option) any later version.\r\n\r\n  This program is distributed in the hope that it will be useful,\r\n    but WITHOUT ANY WARRANTY; without even the implied warranty of\r\n    MERCHANTABILITY or FITNESS FOR A PARTICULAR PURPOSE.  See the\r\n    GNU General Public License for more details.\r\n\r\n  You should have received a copy of the GNU General Public License\r\n    along with this program.  If not, see http://www.gnu.org/licenses/ */\r\n\r\n\r\npragma solidity ^0.4.8;\r\n// import \"./Ownable.sol\";\r\nimport \"./zeppelin-solidity/contracts/ownership/Ownable.sol\";\r\n\r\ncontract  memberRoles is Ownable{\r\n\r\n  string[] memberRole;\r\n  uint public categorizeAuthRoleid;\r\n\r\n  mapping (address=>uint) memberAddressToMemberRole;\r\n  mapping (uint=>address) memberRoleToMemberAddress;\r\n\r\n  function memberRoles()\r\n  {\r\n    memberRole.push(\"Member\");\r\n    memberRole.push(\"Advisory Board\");\r\n    memberRole.push(\"Expert\");\r\n    categorizeAuthRoleid=1;\r\n  }\r\n\r\n  /// @dev Get the role id assigned to a member when giving memberAddress\r\n  function getMemberRoleIdByAddress(address _memberAddress) public constant returns(uint memberRoleId)\r\n  {\r\n     memberRoleId = memberAddressToMemberRole[_memberAddress];\r\n  }\r\n\r\n  /// @dev Get that member address assigned as a specific role when giving member role Id.\r\n  function getMemberAddressByRoleId(uint _memberRoleId) public constant returns(address memberAddress)\r\n  {\r\n      memberAddress = memberRoleToMemberAddress[_memberRoleId];\r\n  }\r\n\r\n  /// @dev Add new member role for governance.\r\n  function addNewMemberRole(string _newRoleName) onlyOwner\r\n  {\r\n      memberRole.push(_newRoleName);  \r\n  }\r\n  \r\n  /// @dev Get the role name whem giving role Id.\r\n  function getMemberRoleNameById(uint _memberRoleId) public constant returns(string memberRoleName)\r\n  {\r\n      memberRoleName = memberRole[_memberRoleId];\r\n  }\r\n  \r\n  /// @dev Assign role to a member when giving member address and role id\r\n  function assignMemberRole(address _memberAddress,uint _memberRoleId) onlyOwner\r\n  {\r\n      memberAddressToMemberRole[_memberAddress] = _memberRoleId;\r\n      memberRoleToMemberAddress[_memberRoleId] = _memberAddress;\r\n  }\r\n\r\n  /// @dev Get the role id which is authorized to categorize a proposal.\r\n  function getAuthorizedMemberId() public constant returns(uint roleId)\r\n  {\r\n       roleId = categorizeAuthRoleid;\r\n  }\r\n\r\n  /// @dev Change the role id that is authorized to categorize the proposal. (Only owner can do that)\r\n  function changeAuthorizedMemberId(uint _roleId) onlyOwner public\r\n  {\r\n     categorizeAuthRoleid = _roleId;\r\n  }\r\n\r\n\r\n}\r\n",
  "sourcePath": "D:\\2. GovBlocks Contracts\\GovBlocks Git-Master\\contracts\\memberRoles.sol",
  "compiler": {
    "name": "solc",
    "version": "0.4.18+commit.9cf6e910.Emscripten.clang"
  },
  "schemaVersion": "1.0.1",
  "updatedAt": "2017-11-29T10:08:40.568Z"
}