{
  "contractName": "MemberRoles",
  "abi": [
    {
      "constant": false,
      "inputs": [
        {
          "name": "_newRoleName",
          "type": "string"
        }
      ],
      "name": "addNewMemberRole",
      "outputs": [],
      "payable": false,
      "stateMutability": "nonpayable",
      "type": "function"
    },
    {
      "constant": true,
      "inputs": [
        {
          "name": "_memberRoleId",
          "type": "uint256"
        }
      ],
      "name": "getMemberRoleNameById",
      "outputs": [
        {
          "name": "memberRoleName",
          "type": "string"
        }
      ],
      "payable": false,
      "stateMutability": "view",
      "type": "function"
    },
    {
      "constant": false,
      "inputs": [
        {
          "name": "_roleId",
          "type": "uint256"
        }
      ],
      "name": "changeAuthorizedMemberId",
      "outputs": [
        {
          "name": "",
          "type": "uint256"
        }
      ],
      "payable": false,
      "stateMutability": "nonpayable",
      "type": "function"
    },
    {
      "constant": true,
      "inputs": [
        {
          "name": "_memberAddress",
          "type": "address"
        },
        {
          "name": "_memberRoleId",
          "type": "uint256"
        }
      ],
      "name": "owner",
      "outputs": [
        {
          "name": "",
          "type": "address"
        }
      ],
      "payable": false,
      "stateMutability": "view",
      "type": "function"
    },
    {
      "constant": true,
      "inputs": [
        {
          "name": "_memberAddress",
          "type": "address"
        },
        {
          "name": "_memberRoleId",
          "type": "uint256"
        }
      ],
      "name": "categorizeAuthRoleid",
      "outputs": [
        {
          "name": "",
          "type": "uint256"
        }
      ],
      "payable": false,
      "stateMutability": "view",
      "type": "function"
    },
    {
      "inputs": [
        {
          "name": "_memberAddress",
          "type": "address"
        }
      ],
      "payable": false,
      "stateMutability": "view",
      "type": "function",
      "constant": true,
      "name": "getAuthorizedMemberId",
      "outputs": [
        {
          "name": "roleId",
          "type": "uint256"
        }
      ]
    },
    {
      "constant": false,
      "inputs": [
        {
          "name": "_memberAddress",
          "type": "address"
        },
        {
          "name": "_memberRoleId",
          "type": "uint256"
        }
      ],
      "name": "assignMemberRole",
      "outputs": [
        {
          "name": "memberAddress",
          "type": "address"
        }
      ],
      "payable": false,
      "stateMutability": "nonpayable",
      "type": "function"
    },
    {
      "inputs": [
        {
          "name": "_memberAddress",
          "type": "address"
        }
      ],
      "payable": false,
      "stateMutability": "view",
      "type": "function",
      "constant": true,
      "name": "getMemberRoleIdByAddress",
      "outputs": [
        {
          "name": "memberRoleId",
          "type": "uint256"
        }
      ]
    },
    {
      "constant": true,
      "inputs": [
        {
          "name": "_masterContractAddress",
          "type": "address"
        }
      ],
      "name": "getTotalMemberRoles",
      "outputs": [
        {
          "name": "length",
          "type": "uint256"
        }
      ],
      "payable": false,
      "stateMutability": "view",
      "type": "function"
    },
    {
      "constant": true,
      "inputs": [
        {
          "name": "_memberRoleId",
          "type": "uint256"
        }
      ],
      "name": "getMemberAddressByRoleId",
      "outputs": [
        {
          "name": "memberAddress",
          "type": "address"
        }
      ],
      "payable": false,
      "stateMutability": "view",
      "type": "function"
    },
    {
      "inputs": [
        {
          "name": "newOwner",
          "type": "address"
        }
      ],
      "payable": false,
      "stateMutability": "nonpayable",
      "type": "function",
      "constant": false,
      "name": "transferOwnership",
      "outputs": [
        {
          "name": "memberAddress",
          "type": "address"
        }
      ]
    },
    {
      "anonymous": false,
      "inputs": [
        {
          "indexed": true,
          "name": "newOwner",
          "type": "address"
        },
        {
          "indexed": true,
          "name": "newOwner",
          "type": "address"
        }
      ],
      "name": "transferOwnership",
      "type": "constructor",
      "payable": false,
      "stateMutability": "nonpayable",
      "constant": false,
      "outputs": []
    },
    {
      "anonymous": false,
      "inputs": [
        {
          "indexed": true,
          "name": "previousOwner",
          "type": "address"
        },
        {
          "indexed": true,
          "name": "newOwner",
          "type": "address"
        }
      ],
      "name": "OwnershipTransferred",
      "type": "event",
      "payable": false,
      "stateMutability": "nonpayable"
    },
    {
      "anonymous": false,
      "inputs": [
        {
          "indexed": true,
          "name": "previousOwner",
          "type": "address"
        },
        {
          "indexed": true,
          "name": "newOwner",
          "type": "address"
        }
      ],
      "name": "OwnershipTransferred",
      "type": "event"
    }
  ],
  "bytecode": "0x606060405234156200001057600080fd5b336000806101000a81548173ffffffffffffffffffffffffffffffffffffffff021916908373ffffffffffffffffffffffffffffffffffffffff16021790555060018054806001018281620000669190620001bd565b916000526020600020900160006040805190810160405280600681526020017f4d656d626572000000000000000000000000000000000000000000000000000081525090919091509080519060200190620000c3929190620001ec565b505060018054806001018281620000db9190620001bd565b916000526020600020900160006040805190810160405280600e81526020017f41647669736f727920426f6172640000000000000000000000000000000000008152509091909150908051906020019062000138929190620001ec565b505060018054806001018281620001509190620001bd565b916000526020600020900160006040805190810160405280600681526020017f457870657274000000000000000000000000000000000000000000000000000081525090919091509080519060200190620001ad929190620001ec565b5050600160028190555062000318565b815481835581811511620001e757818360005260206000209182019101620001e6919062000273565b5b505050565b828054600181600116156101000203166002900490600052602060002090601f016020900481019282601f106200022f57805160ff191683800117855562000260565b8280016001018555821562000260579182015b828111156200025f57825182559160200191906001019062000242565b5b5090506200026f9190620002a4565b5090565b620002a191905b808211156200029d5760008181620002939190620002cc565b506001016200027a565b5090565b90565b620002c991905b80821115620002c5576000816000905550600101620002ab565b5090565b90565b50805460018160011615610100020316600290046000825580601f10620002f4575062000315565b601f016020900490600052602060002090810190620003149190620002a4565b5b50565b610a2380620003286000396000f3006060604052600436106100af576000357c0100000000000000000000000000000000000000000000000000000000900463ffffffff16806304e4dce0146100b45780631ee10b3614610111578063455ddebd146101ad5780638da5cb5b146101d05780639650cfb3146102255780639914aa8c1461024e578063b5a12c3414610277578063beae32ba146102b9578063ed4aef5214610306578063eee29b141461032f578063f2fde38b14610392575b600080fd5b34156100bf57600080fd5b61010f600480803590602001908201803590602001908080601f016020809104026020016040519081016040528093929190818152602001838380828437820191505050505050919050506103cb565b005b341561011c57600080fd5b6101326004808035906020019091905050610465565b6040518080602001828103825283818151815260200191508051906020019080838360005b83811015610172578082015181840152602081019050610157565b50505050905090810190601f16801561019f5780820380516001836020036101000a031916815260200191505b509250505060405180910390f35b34156101b857600080fd5b6101ce6004808035906020019091905050610527565b005b34156101db57600080fd5b6101e361058c565b604051808273ffffffffffffffffffffffffffffffffffffffff1673ffffffffffffffffffffffffffffffffffffffff16815260200191505060405180910390f35b341561023057600080fd5b6102386105b1565b6040518082815260200191505060405180910390f35b341561025957600080fd5b6102616105b7565b6040518082815260200191505060405180910390f35b341561028257600080fd5b6102b7600480803573ffffffffffffffffffffffffffffffffffffffff169060200190919080359060200190919050506105c1565b005b34156102c457600080fd5b6102f0600480803573ffffffffffffffffffffffffffffffffffffffff169060200190919050506106b6565b6040518082815260200191505060405180910390f35b341561031157600080fd5b6103196106ff565b6040518082815260200191505060405180910390f35b341561033a57600080fd5b610350600480803590602001909190505061070c565b604051808273ffffffffffffffffffffffffffffffffffffffff1673ffffffffffffffffffffffffffffffffffffffff16815260200191505060405180910390f35b341561039d57600080fd5b6103c9600480803573ffffffffffffffffffffffffffffffffffffffff16906020019091905050610749565b005b6000809054906101000a900473ffffffffffffffffffffffffffffffffffffffff1673ffffffffffffffffffffffffffffffffffffffff163373ffffffffffffffffffffffffffffffffffffffff1614151561042657600080fd5b6001805480600101828161043a919061089e565b9160005260206000209001600083909190915090805190602001906104609291906108ca565b505050565b61046d61094a565b60018281548110151561047c57fe5b90600052602060002090018054600181600116156101000203166002900480601f01602080910402602001604051908101604052809291908181526020018280546001816001161561010002031660029004801561051b5780601f106104f05761010080835404028352916020019161051b565b820191906000526020600020905b8154815290600101906020018083116104fe57829003601f168201915b50505050509050919050565b6000809054906101000a900473ffffffffffffffffffffffffffffffffffffffff1673ffffffffffffffffffffffffffffffffffffffff163373ffffffffffffffffffffffffffffffffffffffff1614151561058257600080fd5b8060028190555050565b6000809054906101000a900473ffffffffffffffffffffffffffffffffffffffff1681565b60025481565b6000600254905090565b6000809054906101000a900473ffffffffffffffffffffffffffffffffffffffff1673ffffffffffffffffffffffffffffffffffffffff163373ffffffffffffffffffffffffffffffffffffffff1614151561061c57600080fd5b80600360008473ffffffffffffffffffffffffffffffffffffffff1673ffffffffffffffffffffffffffffffffffffffff16815260200190815260200160002081905550816004600083815260200190815260200160002060006101000a81548173ffffffffffffffffffffffffffffffffffffffff021916908373ffffffffffffffffffffffffffffffffffffffff1602179055505050565b6000600360008373ffffffffffffffffffffffffffffffffffffffff1673ffffffffffffffffffffffffffffffffffffffff168152602001908152602001600020549050919050565b6000600180549050905090565b60006004600083815260200190815260200160002060009054906101000a900473ffffffffffffffffffffffffffffffffffffffff169050919050565b6000809054906101000a900473ffffffffffffffffffffffffffffffffffffffff1673ffffffffffffffffffffffffffffffffffffffff163373ffffffffffffffffffffffffffffffffffffffff161415156107a457600080fd5b600073ffffffffffffffffffffffffffffffffffffffff168173ffffffffffffffffffffffffffffffffffffffff16141515156107e057600080fd5b8073ffffffffffffffffffffffffffffffffffffffff166000809054906101000a900473ffffffffffffffffffffffffffffffffffffffff1673ffffffffffffffffffffffffffffffffffffffff167f8be0079c531659141344cd1fd0a4f28419497f9722a3daafe3b4186f6b6457e060405160405180910390a3806000806101000a81548173ffffffffffffffffffffffffffffffffffffffff021916908373ffffffffffffffffffffffffffffffffffffffff16021790555050565b8154818355818115116108c5578183600052602060002091820191016108c4919061095e565b5b505050565b828054600181600116156101000203166002900490600052602060002090601f016020900481019282601f1061090b57805160ff1916838001178555610939565b82800160010185558215610939579182015b8281111561093857825182559160200191906001019061091d565b5b509050610946919061098a565b5090565b602060405190810160405280600081525090565b61098791905b80821115610983576000818161097a91906109af565b50600101610964565b5090565b90565b6109ac91905b808211156109a8576000816000905550600101610990565b5090565b90565b50805460018160011615610100020316600290046000825580601f106109d557506109f4565b601f0160209004906000526020600020908101906109f3919061098a565b5b505600a165627a7a723058207900a160e9172427c9726cb278221d2a728e22dd877e6ee021b7eddda905e4340029",
  "source": "/* Copyright (C) 2017 NexusMutual.io\r\n\r\n  This program is free software: you can redistribute it and/or modify\r\n    it under the terms of the GNU General Public License as published by\r\n    the Free Software Foundation, either version 3 of the License, or\r\n    (at your option) any later version.\r\n\r\n  This program is distributed in the hope that it will be useful,\r\n    but WITHOUT ANY WARRANTY; without even the implied warranty of\r\n    MERCHANTABILITY or FITNESS FOR A PARTICULAR PURPOSE.  See the\r\n    GNU General Public License for more details.\r\n\r\n  You should have received a copy of the GNU General Public License\r\n    along with this program.  If not, see http://www.gnu.org/licenses/ */\r\n\r\n\r\npragma solidity ^0.4.8;\r\n// import \"./Ownable.sol\";\r\nimport \"./zeppelin-solidity/contracts/ownership/Ownable.sol\";\r\n\r\ncontract  MemberRoles is Ownable{\r\n\r\n  string[] memberRole;\r\n  uint public categorizeAuthRoleid;\r\n\r\n  mapping (address=>uint) memberAddressToMemberRole;\r\n  mapping (uint=>address) memberRoleToMemberAddress;\r\n\r\n  function MemberRoles()\r\n  {\r\n    memberRole.push(\"Member\");\r\n    memberRole.push(\"Advisory Board\");\r\n    memberRole.push(\"Expert\");\r\n    categorizeAuthRoleid=1;\r\n  }\r\n\r\n  /// @dev Get the role id assigned to a member when giving memberAddress\r\n  function getMemberRoleIdByAddress(address _memberAddress) public constant returns(uint memberRoleId)\r\n  {\r\n     memberRoleId = memberAddressToMemberRole[_memberAddress];\r\n  }\r\n\r\n  /// @dev Get that member address assigned as a specific role when giving member role Id.\r\n  function getMemberAddressByRoleId(uint _memberRoleId) public constant returns(address memberAddress)\r\n  {\r\n      memberAddress = memberRoleToMemberAddress[_memberRoleId];\r\n  }\r\n\r\n  /// @dev Add new member role for governance.\r\n  function addNewMemberRole(string _newRoleName) onlyOwner\r\n  {\r\n      memberRole.push(_newRoleName);  \r\n  }\r\n  \r\n  /// @dev Get the role name whem giving role Id.\r\n  function getMemberRoleNameById(uint _memberRoleId) public constant returns(string memberRoleName)\r\n  {\r\n      memberRoleName = memberRole[_memberRoleId];\r\n  }\r\n  \r\n  /// @dev Assign role to a member when giving member address and role id\r\n  function assignMemberRole(address _memberAddress,uint _memberRoleId) onlyOwner\r\n  {\r\n      memberAddressToMemberRole[_memberAddress] = _memberRoleId;\r\n      memberRoleToMemberAddress[_memberRoleId] = _memberAddress;\r\n  }\r\n\r\n  /// @dev Get the role id which is authorized to categorize a proposal.\r\n  function getAuthorizedMemberId() public constant returns(uint roleId)\r\n  {\r\n       roleId = categorizeAuthRoleid;\r\n  }\r\n\r\n  /// @dev Change the role id that is authorized to categorize the proposal. (Only owner can do that)\r\n  function changeAuthorizedMemberId(uint _roleId) onlyOwner public\r\n  {\r\n     categorizeAuthRoleid = _roleId;\r\n  }\r\n\r\n  /// @dev Get Total number of member Roles available.\r\n  function getTotalMemberRoles() constant returns(uint length)\r\n  {\r\n    return memberRole.length;\r\n  }\r\n\r\n\r\n}\r\n",
  "sourcePath": "D:\\2. GovBlocks\\GovBlocks Git-Master\\contracts\\MemberRoles.sol",
  "compiler": {
    "name": "solc",
    "version": "0.4.18+commit.9cf6e910.Emscripten.clang"
  },
  "schemaVersion": "1.0.1",
  "updatedAt": "2018-01-29T07:39:51.514Z"
}