{
  "contractName": "MemberRoles",
  "abi": [
    {
      "constant": false,
      "inputs": [
        {
          "name": "_newRoleName",
          "type": "string"
        }
      ],
      "name": "addNewMemberRole",
      "outputs": [],
      "payable": false,
      "stateMutability": "nonpayable",
      "type": "function"
    },
    {
      "constant": true,
      "inputs": [
        {
          "name": "_memberRoleId",
          "type": "uint256"
        }
      ],
      "name": "getMemberRoleNameById",
      "outputs": [
        {
          "name": "memberRoleName",
          "type": "string"
        }
      ],
      "payable": false,
      "stateMutability": "view",
      "type": "function"
    },
    {
      "constant": false,
      "inputs": [
        {
          "name": "_roleId",
          "type": "uint256"
        }
      ],
      "name": "changeAuthorizedMemberId",
      "outputs": [
        {
          "name": "",
          "type": "uint256"
        }
      ],
      "payable": false,
      "stateMutability": "nonpayable",
      "type": "function"
    },
    {
      "constant": true,
      "inputs": [
        {
          "name": "_memberAddress",
          "type": "address"
        },
        {
          "name": "_memberRoleId",
          "type": "uint256"
        }
      ],
      "name": "owner",
      "outputs": [
        {
          "name": "",
          "type": "address"
        }
      ],
      "payable": false,
      "stateMutability": "view",
      "type": "function"
    },
    {
      "constant": true,
      "inputs": [
        {
          "name": "_memberAddress",
          "type": "address"
        },
        {
          "name": "_memberRoleId",
          "type": "uint256"
        }
      ],
      "name": "categorizeAuthRoleid",
      "outputs": [
        {
          "name": "",
          "type": "uint256"
        }
      ],
      "payable": false,
      "stateMutability": "view",
      "type": "function"
    },
    {
      "inputs": [
        {
          "name": "_memberAddress",
          "type": "address"
        }
      ],
      "payable": false,
      "stateMutability": "view",
      "type": "function",
      "constant": true,
      "name": "getAuthorizedMemberId",
      "outputs": [
        {
          "name": "roleId",
          "type": "uint256"
        }
      ]
    },
    {
      "constant": false,
      "inputs": [
        {
          "name": "_memberAddress",
          "type": "address"
        },
        {
          "name": "_memberRoleId",
          "type": "uint256"
        }
      ],
      "name": "assignMemberRole",
      "outputs": [
        {
          "name": "memberAddress",
          "type": "address"
        }
      ],
      "payable": false,
      "stateMutability": "nonpayable",
      "type": "function"
    },
    {
      "inputs": [
        {
          "name": "_memberAddress",
          "type": "address"
        }
      ],
      "payable": false,
      "stateMutability": "view",
      "type": "function",
      "constant": true,
      "name": "getMemberRoleIdByAddress",
      "outputs": [
        {
          "name": "memberRoleId",
          "type": "uint256"
        }
      ]
    },
    {
      "constant": false,
      "inputs": [
        {
          "name": "_masterContractAddress",
          "type": "address"
        }
      ],
      "name": "changeMasterAddress",
      "outputs": [
        {
          "name": "length",
          "type": "uint256"
        }
      ],
      "payable": false,
      "stateMutability": "nonpayable",
      "type": "function"
    },
    {
      "constant": true,
      "inputs": [
        {
          "name": "_memberRoleId",
          "type": "uint256"
        }
      ],
      "name": "getTotalMemberRoles",
      "outputs": [
        {
          "name": "length",
          "type": "uint256"
        }
      ],
      "payable": false,
      "stateMutability": "view",
      "type": "function"
    },
    {
      "inputs": [
        {
          "name": "_memberRoleId",
          "type": "uint256"
        }
      ],
      "payable": false,
      "stateMutability": "view",
      "type": "function",
      "constant": true,
      "name": "getMemberAddressByRoleId",
      "outputs": [
        {
          "name": "memberAddress",
          "type": "address"
        }
      ]
    },
    {
      "anonymous": false,
      "inputs": [
        {
          "indexed": true,
          "name": "newOwner",
          "type": "address"
        },
        {
          "indexed": true,
          "name": "newOwner",
          "type": "address"
        }
      ],
      "name": "transferOwnership",
      "type": "function",
      "payable": false,
      "stateMutability": "nonpayable",
      "constant": false,
      "outputs": []
    },
    {
      "anonymous": false,
      "inputs": [
        {
          "indexed": true,
          "name": "previousOwner",
          "type": "address"
        },
        {
          "indexed": true,
          "name": "newOwner",
          "type": "address"
        }
      ],
      "name": "OwnershipTransferred",
      "type": "constructor",
      "payable": false,
      "stateMutability": "nonpayable"
    },
    {
      "anonymous": false,
      "inputs": [
        {
          "indexed": true,
          "name": "previousOwner",
          "type": "address"
        },
        {
          "indexed": true,
          "name": "newOwner",
          "type": "address"
        }
      ],
      "name": "OwnershipTransferred",
      "type": "event"
    }
  ],
  "bytecode": "0x606060405234156200001057600080fd5b336000806101000a81548173ffffffffffffffffffffffffffffffffffffffff021916908373ffffffffffffffffffffffffffffffffffffffff16021790555060018054806001018281620000669190620001bd565b916000526020600020900160006040805190810160405280600681526020017f4d656d626572000000000000000000000000000000000000000000000000000081525090919091509080519060200190620000c3929190620001ec565b505060018054806001018281620000db9190620001bd565b916000526020600020900160006040805190810160405280600e81526020017f41647669736f727920426f6172640000000000000000000000000000000000008152509091909150908051906020019062000138929190620001ec565b505060018054806001018281620001509190620001bd565b916000526020600020900160006040805190810160405280600681526020017f457870657274000000000000000000000000000000000000000000000000000081525090919091509080519060200190620001ad929190620001ec565b5050600160028190555062000318565b815481835581811511620001e757818360005260206000209182019101620001e6919062000273565b5b505050565b828054600181600116156101000203166002900490600052602060002090601f016020900481019282601f106200022f57805160ff191683800117855562000260565b8280016001018555821562000260579182015b828111156200025f57825182559160200191906001019062000242565b5b5090506200026f9190620002a4565b5090565b620002a191905b808211156200029d5760008181620002939190620002cc565b506001016200027a565b5090565b90565b620002c991905b80821115620002c5576000816000905550600101620002ab565b5090565b90565b50805460018160011615610100020316600290046000825580601f10620002f4575062000315565b601f016020900490600052602060002090810190620003149190620002a4565b5b50565b610aab80620003286000396000f3006060604052600436106100ba576000357c0100000000000000000000000000000000000000000000000000000000900463ffffffff16806304e4dce0146100bf5780631ee10b361461011c578063455ddebd146101b85780638da5cb5b146101db5780639650cfb3146102305780639914aa8c14610259578063b5a12c3414610282578063beae32ba146102c4578063d46655f414610311578063ed4aef521461034a578063eee29b1414610373578063f2fde38b146103d6575b600080fd5b34156100ca57600080fd5b61011a600480803590602001908201803590602001908080601f0160208091040260200160405190810160405280939291908181526020018383808284378201915050505050509190505061040f565b005b341561012757600080fd5b61013d60048080359060200190919050506104a9565b6040518080602001828103825283818151815260200191508051906020019080838360005b8381101561017d578082015181840152602081019050610162565b50505050905090810190601f1680156101aa5780820380516001836020036101000a031916815260200191505b509250505060405180910390f35b34156101c357600080fd5b6101d9600480803590602001909190505061056b565b005b34156101e657600080fd5b6101ee6105d0565b604051808273ffffffffffffffffffffffffffffffffffffffff1673ffffffffffffffffffffffffffffffffffffffff16815260200191505060405180910390f35b341561023b57600080fd5b6102436105f5565b6040518082815260200191505060405180910390f35b341561026457600080fd5b61026c6105fb565b6040518082815260200191505060405180910390f35b341561028d57600080fd5b6102c2600480803573ffffffffffffffffffffffffffffffffffffffff16906020019091908035906020019091905050610605565b005b34156102cf57600080fd5b6102fb600480803573ffffffffffffffffffffffffffffffffffffffff169060200190919050506106fa565b6040518082815260200191505060405180910390f35b341561031c57600080fd5b610348600480803573ffffffffffffffffffffffffffffffffffffffff16906020019091905050610743565b005b341561035557600080fd5b61035d610787565b6040518082815260200191505060405180910390f35b341561037e57600080fd5b6103946004808035906020019091905050610794565b604051808273ffffffffffffffffffffffffffffffffffffffff1673ffffffffffffffffffffffffffffffffffffffff16815260200191505060405180910390f35b34156103e157600080fd5b61040d600480803573ffffffffffffffffffffffffffffffffffffffff169060200190919050506107d1565b005b6000809054906101000a900473ffffffffffffffffffffffffffffffffffffffff1673ffffffffffffffffffffffffffffffffffffffff163373ffffffffffffffffffffffffffffffffffffffff1614151561046a57600080fd5b6001805480600101828161047e9190610926565b9160005260206000209001600083909190915090805190602001906104a4929190610952565b505050565b6104b16109d2565b6001828154811015156104c057fe5b90600052602060002090018054600181600116156101000203166002900480601f01602080910402602001604051908101604052809291908181526020018280546001816001161561010002031660029004801561055f5780601f106105345761010080835404028352916020019161055f565b820191906000526020600020905b81548152906001019060200180831161054257829003601f168201915b50505050509050919050565b6000809054906101000a900473ffffffffffffffffffffffffffffffffffffffff1673ffffffffffffffffffffffffffffffffffffffff163373ffffffffffffffffffffffffffffffffffffffff161415156105c657600080fd5b8060028190555050565b6000809054906101000a900473ffffffffffffffffffffffffffffffffffffffff1681565b60025481565b6000600254905090565b6000809054906101000a900473ffffffffffffffffffffffffffffffffffffffff1673ffffffffffffffffffffffffffffffffffffffff163373ffffffffffffffffffffffffffffffffffffffff1614151561066057600080fd5b80600460008473ffffffffffffffffffffffffffffffffffffffff1673ffffffffffffffffffffffffffffffffffffffff16815260200190815260200160002081905550816005600083815260200190815260200160002060006101000a81548173ffffffffffffffffffffffffffffffffffffffff021916908373ffffffffffffffffffffffffffffffffffffffff1602179055505050565b6000600460008373ffffffffffffffffffffffffffffffffffffffff1673ffffffffffffffffffffffffffffffffffffffff168152602001908152602001600020549050919050565b80600360006101000a81548173ffffffffffffffffffffffffffffffffffffffff021916908373ffffffffffffffffffffffffffffffffffffffff16021790555050565b6000600180549050905090565b60006005600083815260200190815260200160002060009054906101000a900473ffffffffffffffffffffffffffffffffffffffff169050919050565b6000809054906101000a900473ffffffffffffffffffffffffffffffffffffffff1673ffffffffffffffffffffffffffffffffffffffff163373ffffffffffffffffffffffffffffffffffffffff1614151561082c57600080fd5b600073ffffffffffffffffffffffffffffffffffffffff168173ffffffffffffffffffffffffffffffffffffffff161415151561086857600080fd5b8073ffffffffffffffffffffffffffffffffffffffff166000809054906101000a900473ffffffffffffffffffffffffffffffffffffffff1673ffffffffffffffffffffffffffffffffffffffff167f8be0079c531659141344cd1fd0a4f28419497f9722a3daafe3b4186f6b6457e060405160405180910390a3806000806101000a81548173ffffffffffffffffffffffffffffffffffffffff021916908373ffffffffffffffffffffffffffffffffffffffff16021790555050565b81548183558181151161094d5781836000526020600020918201910161094c91906109e6565b5b505050565b828054600181600116156101000203166002900490600052602060002090601f016020900481019282601f1061099357805160ff19168380011785556109c1565b828001600101855582156109c1579182015b828111156109c05782518255916020019190600101906109a5565b5b5090506109ce9190610a12565b5090565b602060405190810160405280600081525090565b610a0f91905b80821115610a0b5760008181610a029190610a37565b506001016109ec565b5090565b90565b610a3491905b80821115610a30576000816000905550600101610a18565b5090565b90565b50805460018160011615610100020316600290046000825580601f10610a5d5750610a7c565b601f016020900490600052602060002090810190610a7b9190610a12565b5b505600a165627a7a72305820b70bbb85476241d4e94da58bbc19955b5fa0dfc20fa60701c0365a21f4ddfe2d0029",
  "source": "/* Copyright (C) 2017 NexusMutual.io\r\n\r\n  This program is free software: you can redistribute it and/or modify\r\n    it under the terms of the GNU General Public License as published by\r\n    the Free Software Foundation, either version 3 of the License, or\r\n    (at your option) any later version.\r\n\r\n  This program is distributed in the hope that it will be useful,\r\n    but WITHOUT ANY WARRANTY; without even the implied warranty of\r\n    MERCHANTABILITY or FITNESS FOR A PARTICULAR PURPOSE.  See the\r\n    GNU General Public License for more details.\r\n\r\n  You should have received a copy of the GNU General Public License\r\n    along with this program.  If not, see http://www.gnu.org/licenses/ */\r\n\r\n\r\npragma solidity ^0.4.8;\r\n// import \"./Ownable.sol\";\r\nimport \"./zeppelin-solidity/contracts/ownership/Ownable.sol\";\r\n\r\ncontract  MemberRoles is Ownable{\r\n\r\n  string[] memberRole;\r\n  uint public categorizeAuthRoleid;\r\n  address masterAddress;\r\n\r\n  mapping (address=>uint) memberAddressToMemberRole;\r\n  mapping (uint=>address) memberRoleToMemberAddress;\r\n\r\n  function MemberRoles()\r\n  {\r\n    memberRole.push(\"Member\");\r\n    memberRole.push(\"Advisory Board\");\r\n    memberRole.push(\"Expert\");\r\n    categorizeAuthRoleid=1;\r\n  }\r\n\r\n  /// @dev Change master's contract address\r\n  function changeMasterAddress(address _masterContractAddress)\r\n  {\r\n      masterAddress = _masterContractAddress;\r\n  }\r\n\r\n  /// @dev Get the role id assigned to a member when giving memberAddress\r\n  function getMemberRoleIdByAddress(address _memberAddress) public constant returns(uint memberRoleId)\r\n  {\r\n     memberRoleId = memberAddressToMemberRole[_memberAddress];\r\n  }\r\n\r\n  /// @dev Get that member address assigned as a specific role when giving member role Id.\r\n  function getMemberAddressByRoleId(uint _memberRoleId) public constant returns(address memberAddress)\r\n  {\r\n      memberAddress = memberRoleToMemberAddress[_memberRoleId];\r\n  }\r\n\r\n  /// @dev Add new member role for governance.\r\n  function addNewMemberRole(string _newRoleName) onlyOwner\r\n  {\r\n      memberRole.push(_newRoleName);  \r\n  }\r\n  \r\n  /// @dev Get the role name whem giving role Id.\r\n  function getMemberRoleNameById(uint _memberRoleId) public constant returns(string memberRoleName)\r\n  {\r\n      memberRoleName = memberRole[_memberRoleId];\r\n  }\r\n  \r\n  /// @dev Assign role to a member when giving member address and role id\r\n  function assignMemberRole(address _memberAddress,uint _memberRoleId) onlyOwner\r\n  {\r\n      memberAddressToMemberRole[_memberAddress] = _memberRoleId;\r\n      memberRoleToMemberAddress[_memberRoleId] = _memberAddress;\r\n  }\r\n\r\n  /// @dev Get the role id which is authorized to categorize a proposal.\r\n  function getAuthorizedMemberId() public constant returns(uint roleId)\r\n  {\r\n       roleId = categorizeAuthRoleid;\r\n  }\r\n\r\n  /// @dev Change the role id that is authorized to categorize the proposal. (Only owner can do that)\r\n  function changeAuthorizedMemberId(uint _roleId) onlyOwner public\r\n  {\r\n     categorizeAuthRoleid = _roleId;\r\n  }\r\n\r\n  /// @dev Get Total number of member Roles available.\r\n  function getTotalMemberRoles() constant returns(uint length)\r\n  {\r\n    return memberRole.length;\r\n  }\r\n\r\n\r\n}\r\n",
  "sourcePath": "D:\\2. GovBlocks Contracts\\GovBlocks Git-Master\\contracts\\MemberRoles.sol",
  "compiler": {
    "name": "solc",
    "version": "0.4.18+commit.9cf6e910.Emscripten.clang"
  },
  "schemaVersion": "1.0.1",
  "updatedAt": "2018-01-11T12:22:15.564Z"
}