{
  "contractName": "memberRoles",
  "abi": [
    {
      "constant": true,
      "inputs": [
        {
          "name": "_memberAddress",
          "type": "address"
        }
      ],
      "name": "getRoleIdByAddress",
      "outputs": [
        {
          "name": "assignedRoles",
          "type": "uint32[]"
        }
      ],
      "payable": false,
      "stateMutability": "view",
      "type": "function"
    },
    {
      "constant": true,
      "inputs": [],
      "name": "getRolesAndMember",
      "outputs": [
        {
          "name": "roleName",
          "type": "bytes32[]"
        },
        {
          "name": "totalMembers",
          "type": "uint256[]"
        }
      ],
      "payable": false,
      "stateMutability": "view",
      "type": "function"
    },
    {
      "constant": false,
      "inputs": [
        {
          "name": "_GBMAddress",
          "type": "address"
        }
      ],
      "name": "MemberRolesInitiate",
      "outputs": [],
      "payable": false,
      "stateMutability": "nonpayable",
      "type": "function"
    },
    {
      "constant": true,
      "inputs": [
        {
          "name": "_memberRoleId",
          "type": "uint32"
        }
      ],
      "name": "getMemberAddressByRoleId",
      "outputs": [
        {
          "name": "roleId",
          "type": "uint32"
        },
        {
          "name": "allMemberAddress",
          "type": "address[]"
        }
      ],
      "payable": false,
      "stateMutability": "view",
      "type": "function"
    },
    {
      "constant": true,
      "inputs": [],
      "name": "constructorCheck",
      "outputs": [
        {
          "name": "",
          "type": "bool"
        }
      ],
      "payable": false,
      "stateMutability": "view",
      "type": "function"
    },
    {
      "constant": false,
      "inputs": [
        {
          "name": "_newRoleName",
          "type": "bytes32"
        },
        {
          "name": "_roleDescription",
          "type": "string"
        },
        {
          "name": "_canAddMembers",
          "type": "address"
        }
      ],
      "name": "addNewMemberRole",
      "outputs": [],
      "payable": false,
      "stateMutability": "nonpayable",
      "type": "function"
    },
    {
      "constant": true,
      "inputs": [
        {
          "name": "_memberRoleId",
          "type": "uint32"
        }
      ],
      "name": "getAllMemberLength",
      "outputs": [
        {
          "name": "",
          "type": "uint256"
        }
      ],
      "payable": false,
      "stateMutability": "view",
      "type": "function"
    },
    {
      "constant": false,
      "inputs": [
        {
          "name": "_memberRoleId",
          "type": "uint32"
        },
        {
          "name": "_newCanAddMember",
          "type": "address"
        }
      ],
      "name": "changeCanAddMember",
      "outputs": [],
      "payable": false,
      "stateMutability": "nonpayable",
      "type": "function"
    },
    {
      "constant": true,
      "inputs": [],
      "name": "getAuthorizedMemberId",
      "outputs": [
        {
          "name": "roleId",
          "type": "uint8"
        }
      ],
      "payable": false,
      "stateMutability": "view",
      "type": "function"
    },
    {
      "constant": true,
      "inputs": [
        {
          "name": "_memberAddress",
          "type": "address"
        },
        {
          "name": "_roleId",
          "type": "uint32"
        }
      ],
      "name": "checkRoleId_byAddress",
      "outputs": [
        {
          "name": "",
          "type": "bool"
        }
      ],
      "payable": false,
      "stateMutability": "view",
      "type": "function"
    },
    {
      "constant": false,
      "inputs": [
        {
          "name": "_GBMAddress",
          "type": "address"
        }
      ],
      "name": "changeGBMAddress",
      "outputs": [],
      "payable": false,
      "stateMutability": "nonpayable",
      "type": "function"
    },
    {
      "constant": true,
      "inputs": [
        {
          "name": "_memberRoleId",
          "type": "uint32"
        }
      ],
      "name": "getMemberRoleNameById",
      "outputs": [
        {
          "name": "roleId",
          "type": "uint32"
        },
        {
          "name": "memberRoleName",
          "type": "bytes32"
        }
      ],
      "payable": false,
      "stateMutability": "view",
      "type": "function"
    },
    {
      "constant": false,
      "inputs": [
        {
          "name": "_roleId",
          "type": "uint8"
        }
      ],
      "name": "changeAuthorizedMemberId",
      "outputs": [],
      "payable": false,
      "stateMutability": "nonpayable",
      "type": "function"
    },
    {
      "constant": false,
      "inputs": [
        {
          "name": "_masterContractAddress",
          "type": "address"
        }
      ],
      "name": "changeMasterAddress",
      "outputs": [],
      "payable": false,
      "stateMutability": "nonpayable",
      "type": "function"
    },
    {
      "constant": false,
      "inputs": [
        {
          "name": "_memberAddress",
          "type": "address"
        },
        {
          "name": "_memberRoleId",
          "type": "uint32"
        },
        {
          "name": "_typeOf",
          "type": "bool"
        }
      ],
      "name": "updateMemberRole",
      "outputs": [],
      "payable": false,
      "stateMutability": "nonpayable",
      "type": "function"
    },
    {
      "constant": true,
      "inputs": [],
      "name": "getTotalMemberRoles",
      "outputs": [
        {
          "name": "",
          "type": "uint256"
        }
      ],
      "payable": false,
      "stateMutability": "view",
      "type": "function"
    },
    {
      "anonymous": false,
      "inputs": [
        {
          "indexed": true,
          "name": "roleId",
          "type": "uint256"
        },
        {
          "indexed": false,
          "name": "roleName",
          "type": "bytes32"
        },
        {
          "indexed": false,
          "name": "roleDescription",
          "type": "string"
        }
      ],
      "name": "MemberRole",
      "type": "event"
    }
  ],
  "bytecode": "0x6060604052341561000f57600080fd5b611bdd8061001e6000396000f3006060604052600436106100e6576000357c0100000000000000000000000000000000000000000000000000000000900463ffffffff16806302316052146100eb578063128c6cbe146101795780631341bc041461022b5780634e797eb714610264578063525050e1146102f557806352b38c101461032257806353aaf8b4146103ab5780639530b753146103e85780639914aa8c14610430578063a719c0241461045f578063aef816e8146104bf578063b7d888e5146104f8578063cb3b3b3214610550578063d46655f414610576578063da86adb0146105af578063ed4aef5214610602575b600080fd5b34156100f657600080fd5b610122600480803573ffffffffffffffffffffffffffffffffffffffff1690602001909190505061062b565b6040518080602001828103825283818151815260200191508051906020019060200280838360005b8381101561016557808201518184015260208101905061014a565b505050509050019250505060405180910390f35b341561018457600080fd5b61018c61074a565b604051808060200180602001838103835285818151815260200191508051906020019060200280838360005b838110156101d35780820151818401526020810190506101b8565b50505050905001838103825284818151815260200191508051906020019060200280838360005b838110156102155780820151818401526020810190506101fa565b5050505090500194505050505060405180910390f35b341561023657600080fd5b610262600480803573ffffffffffffffffffffffffffffffffffffffff1690602001909190505061083b565b005b341561026f57600080fd5b61028b600480803563ffffffff169060200190919050506109aa565b604051808363ffffffff1663ffffffff16815260200180602001828103825283818151815260200191508051906020019060200280838360005b838110156102e05780820151818401526020810190506102c5565b50505050905001935050505060405180910390f35b341561030057600080fd5b610308610a6b565b604051808215151515815260200191505060405180910390f35b341561032d57600080fd5b6103a960048080356000191690602001909190803590602001908201803590602001908080601f0160208091040260200160405190810160405280939291908181526020018383808284378201915050505050509190803573ffffffffffffffffffffffffffffffffffffffff16906020019091905050610a7d565b005b34156103b657600080fd5b6103d2600480803563ffffffff16906020019091905050610c19565b6040518082815260200191505060405180910390f35b34156103f357600080fd5b61042e600480803563ffffffff1690602001909190803573ffffffffffffffffffffffffffffffffffffffff16906020019091905050610c48565b005b341561043b57600080fd5b610443610d17565b604051808260ff1660ff16815260200191505060405180910390f35b341561046a57600080fd5b6104a5600480803573ffffffffffffffffffffffffffffffffffffffff1690602001909190803563ffffffff16906020019091905050610d2e565b604051808215151515815260200191505060405180910390f35b34156104ca57600080fd5b6104f6600480803573ffffffffffffffffffffffffffffffffffffffff16906020019091905050610dbd565b005b341561050357600080fd5b61051f600480803563ffffffff16906020019091905050610ea5565b604051808363ffffffff1663ffffffff16815260200182600019166000191681526020019250505060405180910390f35b341561055b57600080fd5b610574600480803560ff16906020019091905050610ed3565b005b341561058157600080fd5b6105ad600480803573ffffffffffffffffffffffffffffffffffffffff16906020019091905050611046565b005b34156105ba57600080fd5b610600600480803573ffffffffffffffffffffffffffffffffffffffff1690602001909190803563ffffffff169060200190919080351515906020019091905050611267565b005b341561060d57600080fd5b610615611738565b6040518082815260200191505060405180910390f35b610633611abf565b600080600061064185611744565b9250600091508260ff166040518059106106585750595b90808252806020026020018201604052509350600090505b610678611738565b8160ff16101561073f5760011515600660008360ff1663ffffffff16815260200190815260200160002060010160008773ffffffffffffffffffffffffffffffffffffffff1673ffffffffffffffffffffffffffffffffffffffff16815260200190815260200160002060009054906101000a900460ff1615151415610732578060ff16848360ff1681518110151561070d57fe5b9060200190602002019063ffffffff16908163ffffffff168152505081806001019250505b8080600101915050610670565b839350505050919050565b610752611ad3565b61075a611ae7565b6000806000805490506040518059106107705750595b908082528060200260200182016040525093506000805490506040518059106107965750595b90808252806020026020018201604052509250600091505b6000805490508263ffffffff161015610835576107ca82610ea5565b90508091505080848363ffffffff168151811015156107e557fe5b90602001906020020190600019169081600019168152505061080682610c19565b838363ffffffff1681518110151561081a57fe5b906020019060200201818152505081806001019250506107ae565b50509091565b600015156001809054906101000a900460ff16151514151561085c57600080fd5b600080548060010182816108709190611afb565b9160005260206000209001600080909190915090600019169055506000805480600101828161089f9190611afb565b916000526020600020900160007f41647669736f727920426f61726400000000000000000000000000000000000090919091509060001916905550600080548060010182816108ee9190611afb565b916000526020600020900160007f546f6b656e20486f6c64657200000000000000000000000000000000000000009091909150906000191690555060018060006101000a81548160ff021916908360ff16021790555061094c6117f9565b80600360006101000a81548173ffffffffffffffffffffffffffffffffffffffff021916908373ffffffffffffffffffffffffffffffffffffffff16021790555060018060016101000a81548160ff02191690831515021790555050565b60006109b4611b27565b82915081600660008563ffffffff1663ffffffff16815260200190815260200160002060020180805480602002602001604051908101604052809291908181526020018280548015610a5b57602002820191906000526020600020905b8160009054906101000a900473ffffffffffffffffffffffffffffffffffffffff1673ffffffffffffffffffffffffffffffffffffffff1681526020019060010190808311610a11575b5050505050905091509150915091565b6001809054906101000a900460ff1681565b6000600360009054906101000a900473ffffffffffffffffffffffffffffffffffffffff1673ffffffffffffffffffffffffffffffffffffffff163373ffffffffffffffffffffffffffffffffffffffff16141515610adb57600080fd5b610ae3611738565b905060008054806001018281610af99190611afb565b916000526020600020900160008690919091509060001916905550816005600083815260200190815260200160002060006101000a81548173ffffffffffffffffffffffffffffffffffffffff021916908373ffffffffffffffffffffffffffffffffffffffff160217905550807fe2981862bbf692aa30ba39d4eca9c69e5dcebf3eae5fb93332940c23c1c4c3c5858560405180836000191660001916815260200180602001828103825283818151815260200191508051906020019080838360005b83811015610bd8578082015181840152602081019050610bbd565b50505050905090810190601f168015610c055780820380516001836020036101000a031916815260200191505b50935050505060405180910390a250505050565b6000600660008363ffffffff1663ffffffff168152602001908152602001600020600201805490509050919050565b600560008363ffffffff16815260200190815260200160002060009054906101000a900473ffffffffffffffffffffffffffffffffffffffff1673ffffffffffffffffffffffffffffffffffffffff163373ffffffffffffffffffffffffffffffffffffffff16141515610cbb57600080fd5b80600560008463ffffffff16815260200190815260200160002060006101000a81548173ffffffffffffffffffffffffffffffffffffffff021916908373ffffffffffffffffffffffffffffffffffffffff1602179055505050565b6000600160009054906101000a900460ff16905090565b600060011515600660008463ffffffff1663ffffffff16815260200190815260200160002060010160008573ffffffffffffffffffffffffffffffffffffffff1673ffffffffffffffffffffffffffffffffffffffff16815260200190815260200160002060009054906101000a900460ff1615151415610db25760019050610db7565b600090505b92915050565b600360009054906101000a900473ffffffffffffffffffffffffffffffffffffffff1673ffffffffffffffffffffffffffffffffffffffff163373ffffffffffffffffffffffffffffffffffffffff16141515610e1957600080fd5b6000600360009054906101000a900473ffffffffffffffffffffffffffffffffffffffff1673ffffffffffffffffffffffffffffffffffffffff1614151515610e6157600080fd5b80600360006101000a81548173ffffffffffffffffffffffffffffffffffffffff021916908373ffffffffffffffffffffffffffffffffffffffff16021790555050565b60008060008363ffffffff16815481101515610ebd57fe5b9060005260206000209001549050829150915091565b600260009054906101000a900473ffffffffffffffffffffffffffffffffffffffff16600160026101000a81548173ffffffffffffffffffffffffffffffffffffffff021916908373ffffffffffffffffffffffffffffffffffffffff16021790555060011515600160029054906101000a900473ffffffffffffffffffffffffffffffffffffffff1673ffffffffffffffffffffffffffffffffffffffff16632f54bf6e336000604051602001526040518263ffffffff167c0100000000000000000000000000000000000000000000000000000000028152600401808273ffffffffffffffffffffffffffffffffffffffff1673ffffffffffffffffffffffffffffffffffffffff168152602001915050602060405180830381600087803b1515610fff57600080fd5b6102c65a03f1151561101057600080fd5b50505060405180519050151514151561102857600080fd5b80600160006101000a81548160ff021916908360ff16021790555050565b6000600260009054906101000a900473ffffffffffffffffffffffffffffffffffffffff1673ffffffffffffffffffffffffffffffffffffffff1614156110cd5780600260006101000a81548173ffffffffffffffffffffffffffffffffffffffff021916908373ffffffffffffffffffffffffffffffffffffffff160217905550611264565b600260009054906101000a900473ffffffffffffffffffffffffffffffffffffffff16600160026101000a81548173ffffffffffffffffffffffffffffffffffffffff021916908373ffffffffffffffffffffffffffffffffffffffff16021790555060011515600160029054906101000a900473ffffffffffffffffffffffffffffffffffffffff1673ffffffffffffffffffffffffffffffffffffffff16638f16c41c336000604051602001526040518263ffffffff167c0100000000000000000000000000000000000000000000000000000000028152600401808273ffffffffffffffffffffffffffffffffffffffff1673ffffffffffffffffffffffffffffffffffffffff168152602001915050602060405180830381600087803b15156111f957600080fd5b6102c65a03f1151561120a57600080fd5b50505060405180519050151514151561122257600080fd5b80600260006101000a81548173ffffffffffffffffffffffffffffffffffffffff021916908373ffffffffffffffffffffffffffffffffffffffff1602179055505b50565b600360009054906101000a900473ffffffffffffffffffffffffffffffffffffffff1673ffffffffffffffffffffffffffffffffffffffff163373ffffffffffffffffffffffffffffffffffffffff1614806113275750600560008363ffffffff16815260200190815260200160002060009054906101000a900473ffffffffffffffffffffffffffffffffffffffff1673ffffffffffffffffffffffffffffffffffffffff163373ffffffffffffffffffffffffffffffffffffffff16145b151561133257600080fd5b60011515811515141561153b5760011515600660008463ffffffff1663ffffffff16815260200190815260200160002060010160008573ffffffffffffffffffffffffffffffffffffffff1673ffffffffffffffffffffffffffffffffffffffff16815260200190815260200160002060009054906101000a900460ff1615151415156113be57600080fd5b6113fb600660008463ffffffff1663ffffffff16815260200190815260200160002060000160009054906101000a900463ffffffff166001611a70565b600660008463ffffffff1663ffffffff16815260200190815260200160002060000160006101000a81548163ffffffff021916908363ffffffff1602179055506001600660008463ffffffff1663ffffffff16815260200190815260200160002060010160008573ffffffffffffffffffffffffffffffffffffffff1673ffffffffffffffffffffffffffffffffffffffff16815260200190815260200160002060006101000a81548160ff021916908315150217905550600660008363ffffffff1663ffffffff16815260200190815260200160002060020180548060010182816114e79190611b3b565b9160005260206000209001600085909190916101000a81548173ffffffffffffffffffffffffffffffffffffffff021916908373ffffffffffffffffffffffffffffffffffffffff16021790555050611733565b60001515600660008463ffffffff1663ffffffff16815260200190815260200160002060010160008573ffffffffffffffffffffffffffffffffffffffff1673ffffffffffffffffffffffffffffffffffffffff16815260200190815260200160002060009054906101000a900460ff1615151415156115ba57600080fd5b6115f7600660008463ffffffff1663ffffffff16815260200190815260200160002060000160009054906101000a900463ffffffff166001611a9a565b600660008463ffffffff1663ffffffff16815260200190815260200160002060000160006101000a81548163ffffffff021916908363ffffffff1602179055506000600660008463ffffffff1663ffffffff16815260200190815260200160002060010160008573ffffffffffffffffffffffffffffffffffffffff1673ffffffffffffffffffffffffffffffffffffffff16815260200190815260200160002060006101000a81548160ff021916908315150217905550600660008363ffffffff1663ffffffff16815260200190815260200160002060020180548060010182816116e39190611b3b565b9160005260206000209001600085909190916101000a81548173ffffffffffffffffffffffffffffffffffffffff021916908373ffffffffffffffffffffffffffffffffffffffff160217905550505b505050565b60008080549050905090565b6000806000611751611738565b9150600090505b818160ff1610156117ef5760011515600660008360ff1663ffffffff16815260200190815260200160002060010160008673ffffffffffffffffffffffffffffffffffffffff1673ffffffffffffffffffffffffffffffffffffffff16815260200190815260200160002060009054906101000a900460ff16151514156117e25782806001019350505b8080600101915050611758565b8292505050919050565b6000600260009054906101000a900473ffffffffffffffffffffffffffffffffffffffff16600160026101000a81548173ffffffffffffffffffffffffffffffffffffffff021916908373ffffffffffffffffffffffffffffffffffffffff160217905550600160029054906101000a900473ffffffffffffffffffffffffffffffffffffffff1673ffffffffffffffffffffffffffffffffffffffff16638da5cb5b6000604051602001526040518163ffffffff167c0100000000000000000000000000000000000000000000000000000000028152600401602060405180830381600087803b15156118ec57600080fd5b6102c65a03f115156118fd57600080fd5b50505060405180519050905061194160066000600163ffffffff16815260200190815260200160002060000160009054906101000a900463ffffffff166001611a70565b60066000600163ffffffff16815260200190815260200160002060000160006101000a81548163ffffffff021916908363ffffffff160217905550600160066000600163ffffffff16815260200190815260200160002060010160008373ffffffffffffffffffffffffffffffffffffffff1673ffffffffffffffffffffffffffffffffffffffff16815260200190815260200160002060006101000a81548160ff02191690831515021790555060066000600163ffffffff1681526020019081526020016000206002018054806001018281611a1e9190611b3b565b9160005260206000209001600083909190916101000a81548173ffffffffffffffffffffffffffffffffffffffff021916908373ffffffffffffffffffffffffffffffffffffffff1602179055505050565b60008082840190508363ffffffff168163ffffffff1610151515611a9057fe5b8091505092915050565b60008263ffffffff168263ffffffff1611151515611ab457fe5b818303905092915050565b602060405190810160405280600081525090565b602060405190810160405280600081525090565b602060405190810160405280600081525090565b815481835581811511611b2257818360005260206000209182019101611b219190611b67565b5b505050565b602060405190810160405280600081525090565b815481835581811511611b6257818360005260206000209182019101611b619190611b8c565b5b505050565b611b8991905b80821115611b85576000816000905550600101611b6d565b5090565b90565b611bae91905b80821115611baa576000816000905550600101611b92565b5090565b905600a165627a7a7230582006ed83e025950c882f9f9977663bc8e9bfdff236e298a65d53282bfa9bfe3d390029",
  "source": "/* Copyright (C) 2017 NexusMutual.io\r\n\r\n  This program is free software: you can redistribute it and/or modify\r\n    it under the terms of the GNU General Public License as published by\r\n    the Free Software Foundation, either version 3 of the License, or\r\n    (at your option) any later version.\r\n\r\n  This program is distributed in the hope that it will be useful,\r\n    but WITHOUT ANY WARRANTY; without even the implied warranty of\r\n    MERCHANTABILITY or FITNESS FOR A PARTICULAR PURPOSE.  See the\r\n    GNU General Public License for more details.\r\n\r\n  You should have received a copy of the GNU General Public License\r\n    along with this program.  If not, see http://www.gnu.org/licenses/ */\r\n\r\n\r\npragma solidity ^0.4.8;\r\nimport \"./Master.sol\";\r\nimport \"./BasicToken.sol\";\r\nimport \"./SafeMath.sol\";\r\n\r\ncontract  memberRoles\r\n{\r\n  event MemberRole(uint256 indexed roleId, bytes32 roleName, string roleDescription);\r\n  using SafeMath for uint;\r\n  bytes32[] memberRole;\r\n  uint8 authorizedAddress_toCategorize;\r\n  bool public constructorCheck;\r\n  Master MS; \r\n  address masterAddress;\r\n  address GBMAddress;\r\n  BasicToken BT;\r\n\r\n  struct memberRoleDetails\r\n  {\r\n    uint32 memberCounter;\r\n    mapping(address=>bool) memberActive;\r\n    address[] memberAddress;\r\n  }\r\n\r\n  mapping(uint=>address) authorizedAddress_againstRole;\r\n  mapping(uint32=>memberRoleDetails) memberRoleData;\r\n  // mapping (address=>uint[]) memberAddressToMemberRole;\r\n\r\n  /// @dev Initiates member roles\r\n  /// @param _GBMAddress GovBlocks master address\r\n  function MemberRolesInitiate(address _GBMAddress)\r\n  {\r\n    require(constructorCheck == false);\r\n        memberRole.push(\"\");\r\n        memberRole.push(\"Advisory Board\");\r\n        memberRole.push(\"Token Holder\");\r\n        authorizedAddress_toCategorize=1;\r\n        setOwnerRole();\r\n        GBMAddress = _GBMAddress;\r\n        constructorCheck = true;\r\n  }\r\n\r\n  modifier onlyInternal \r\n  {\r\n      MS=Master(masterAddress);\r\n      require(MS.isInternal(msg.sender) == true);\r\n      _; \r\n  }\r\n  \r\n  modifier onlyOwner \r\n  {\r\n      MS=Master(masterAddress);\r\n      require(MS.isOwner(msg.sender) == true);\r\n      _; \r\n  }\r\n  \r\n  modifier onlyGBM\r\n  {\r\n        require(msg.sender == GBMAddress);\r\n      _;\r\n  }\r\n  \r\n  /// @dev Changes GovBlocks master address\r\n  /// @param _GBMAddress New GovBlocks master address\r\n  function changeGBMAddress(address _GBMAddress) onlyGBM\r\n  {\r\n      require(GBMAddress != 0x00);\r\n      GBMAddress = _GBMAddress;\r\n  }\r\n\r\n  /// @dev Changes master's contract address\r\n  /// @param _masterContractAddress New master address\r\n  function changeMasterAddress(address _masterContractAddress) \r\n  {\r\n      if(masterAddress == 0x000)\r\n          masterAddress = _masterContractAddress;\r\n      else\r\n      {\r\n          MS=Master(masterAddress);\r\n          require(MS.isInternal(msg.sender) == true);\r\n              masterAddress = _masterContractAddress;\r\n      }\r\n  }\r\n\r\n  function setOwnerRole()internal\r\n  {\r\n      MS=Master(masterAddress);\r\n      address ownAddress = MS.owner();\r\n      memberRoleData[1].memberCounter =  SafeMath.add32(memberRoleData[1].memberCounter,1);\r\n      memberRoleData[1].memberActive[ownAddress] = true;\r\n      memberRoleData[1].memberAddress.push(ownAddress);\r\n  }\r\n\r\n  function getRoleIdLengthByAddress(address _memberAddress) internal constant  returns(uint8 count)\r\n  {\r\n      uint length = getTotalMemberRoles();\r\n      for(uint8 i=0; i<length; i++)\r\n      {\r\n         if(memberRoleData[i].memberActive[_memberAddress] == true)\r\n           count++;\r\n      }\r\n      return count;\r\n  }\r\n\r\n  function getRoleIdByAddress(address _memberAddress)constant returns(uint32[] assignedRoles)\r\n  {\r\n      uint8 length = getRoleIdLengthByAddress(_memberAddress);uint8 j=0;\r\n      assignedRoles = new uint32[](length);\r\n      for(uint8 i=0; i<getTotalMemberRoles(); i++)\r\n      {\r\n         if(memberRoleData[i].memberActive[_memberAddress] == true)\r\n           {\r\n              assignedRoles[j] = i;\r\n              j++;\r\n           }\r\n      }\r\n      return assignedRoles;\r\n  }\r\n\r\n  function checkRoleId_byAddress(address _memberAddress,uint32 _roleId)constant returns(bool)\r\n  {\r\n    if(memberRoleData[_roleId].memberActive[_memberAddress] == true)\r\n      return true;\r\n    else \r\n      return false;\r\n  }\r\n\r\n  /// @dev Updates member role\r\n  /// @param _memberAddress Member address\r\n  /// @param _memberRoleId Member role id\r\n  /// @param _typeOf Type of role id of the member\r\n  function updateMemberRole(address _memberAddress,uint32 _memberRoleId,bool _typeOf)\r\n  {\r\n      require(msg.sender == GBMAddress || msg.sender == authorizedAddress_againstRole[_memberRoleId]);\r\n      if(_typeOf == true)\r\n      {\r\n        require(memberRoleData[_memberRoleId].memberActive[_memberAddress] == true);\r\n        memberRoleData[_memberRoleId].memberCounter =  SafeMath.add32(memberRoleData[_memberRoleId].memberCounter,1);\r\n        memberRoleData[_memberRoleId].memberActive[_memberAddress] = true;\r\n        memberRoleData[_memberRoleId].memberAddress.push(_memberAddress);\r\n      }\r\n      else\r\n      {\r\n        require(memberRoleData[_memberRoleId].memberActive[_memberAddress] == false);\r\n        memberRoleData[_memberRoleId].memberCounter = SafeMath.sub32(memberRoleData[_memberRoleId].memberCounter,1);\r\n        memberRoleData[_memberRoleId].memberActive[_memberAddress] = false;\r\n        memberRoleData[_memberRoleId].memberAddress.push(_memberAddress);\r\n      }\r\n  }\r\n\r\n  /// @dev Changes member role id's changable member \r\n  /// @param _memberRoleId Member role id\r\n  /// @param _newCanAddMember New authorized address against role id. (Responsible to assign/remove any address from Role)\r\n  function changeCanAddMember(uint32 _memberRoleId, address _newCanAddMember)\r\n  {\r\n      require(msg.sender == authorizedAddress_againstRole[_memberRoleId]);\r\n      authorizedAddress_againstRole[_memberRoleId] = _newCanAddMember;\r\n  }\r\n\r\n  /// @dev Changes the role id of the member who is authorized to categorize the proposal\r\n  /// @param _roleId Role id of that member\r\n  function changeAuthorizedMemberId(uint8 _roleId) onlyOwner public\r\n  {\r\n     authorizedAddress_toCategorize = _roleId;\r\n  }\r\n\r\n  /// @dev Adds new member role\r\n  /// @param _newRoleName New role name\r\n  /// @param _roleDescription New description hash\r\n  /// @param _canAddMembers Authorized member against every role id\r\n  function addNewMemberRole(bytes32 _newRoleName,string _roleDescription, address _canAddMembers) \r\n  {\r\n      require(msg.sender == GBMAddress);\r\n      uint rolelength = getTotalMemberRoles();\r\n      memberRole.push(_newRoleName);  \r\n      authorizedAddress_againstRole[rolelength] = _canAddMembers;\r\n      MemberRole(rolelength, _newRoleName, _roleDescription);\r\n  }\r\n\r\n  /// @dev Gets the member addresses assigned by a specific role\r\n  /// @param _memberRoleId Member role id\r\n  /// @return roleId Role id\r\n  /// @return allMemberAddress Member addresses of specified role id\r\n  function getMemberAddressByRoleId(uint32 _memberRoleId) public constant returns(uint32 roleId,address[] allMemberAddress)\r\n  {\r\n      roleId = _memberRoleId;\r\n      return (roleId,memberRoleData[_memberRoleId].memberAddress);\r\n  }\r\n\r\n  /// @dev Gets all members' length\r\n  /// @param _memberRoleId Member role id\r\n  /// @return memberRoleData[_memberRoleId].memberAddress.length Member length\r\n  function getAllMemberLength(uint32 _memberRoleId) public constant returns(uint)\r\n  {\r\n    return memberRoleData[_memberRoleId].memberAddress.length;    \r\n  }\r\n\r\n  /// @dev Gets the role name when given role id\r\n  /// @param _memberRoleId Member role id\r\n  /// @return  roleId Role id\r\n  /// @return memberRoleName Member role name\r\n  function getMemberRoleNameById(uint32 _memberRoleId) public constant returns(uint32 roleId,bytes32 memberRoleName)\r\n  {\r\n      memberRoleName = memberRole[_memberRoleId];\r\n      roleId = _memberRoleId;\r\n  }\r\n  \r\n  /// @dev Gets roles and members\r\n  /// @return roleName Role name\r\n  /// @return totalMembers Total members\r\n  function getRolesAndMember()constant returns(bytes32[] roleName,uint[] totalMembers)\r\n  {\r\n      roleName=new bytes32[](memberRole.length);\r\n      totalMembers=new uint[](memberRole.length);\r\n      for(uint32 i=0; i < memberRole.length; i++)\r\n      {\r\n          bytes32 Name;\r\n          (,Name) = getMemberRoleNameById(i);\r\n          roleName[i]=Name;\r\n          totalMembers[i] = getAllMemberLength(i);\r\n      }\r\n  }\r\n\r\n  /// @dev Gets the role id which is authorized to categorize a proposal\r\n  /// @return roleId Role id of the authorized member\r\n  function getAuthorizedMemberId() public constant returns(uint8 roleId)\r\n  {\r\n       roleId = authorizedAddress_toCategorize;\r\n  }\r\n\r\n  /// @dev Gets total number of member roles available\r\n  /// @return length Total member roles' length\r\n  function getTotalMemberRoles() public constant returns(uint)\r\n  {\r\n    return memberRole.length;\r\n  }\r\n\r\n  // /// @dev Gets the role id assigned to a member when given member address\r\n  // /// @param _memberAddress Member address\r\n  // /// @return memberRoleId Role id of the member address\r\n  // function getMemberRoleIdByAddress(address _memberAddress) public constant returns(uint memberRoleId)\r\n  // {\r\n  //     MS=Master(masterAddress); \r\n  //     address tokenAddress;\r\n  //     tokenAddress=MS.getDappTokenAddress();\r\n  //     BT=BasicToken(tokenAddress);\r\n  //     memberRoleId = memberAddressToMemberRole[_memberAddress];\r\n      \r\n  //     if(memberRoleId >=1)\r\n  //         memberRoleId = memberAddressToMemberRole[_memberAddress];\r\n  //     else if(BT.balanceOf(_memberAddress) <= 0)\r\n  //         memberRoleId = memberAddressToMemberRole[_memberAddress];\r\n  //     else\r\n  //         memberRoleId = 2;\r\n  // }\r\n\r\n \r\n}",
  "sourcePath": "D:\\RUCHITA\\GovBlocks-Protocol Access-Modifiers\\contracts\\memberRoles.sol",
  "compiler": {
    "name": "solc",
    "version": "0.4.18+commit.9cf6e910.Emscripten.clang"
  },
  "schemaVersion": "1.0.1",
  "updatedAt": "2018-04-26T12:00:44.228Z"
}