{
  "contractName": "memberRoles",
  "abi": [
    {
      "constant": false,
      "inputs": [
        {
          "name": "_newRoleName",
          "type": "string"
        }
      ],
      "name": "addNewMemberRole",
      "outputs": [],
      "payable": false,
      "stateMutability": "nonpayable",
      "type": "function"
    },
    {
      "constant": true,
      "inputs": [
        {
          "name": "_memberRoleId",
          "type": "uint256"
        }
      ],
      "name": "getMemberRoleNameById",
      "outputs": [
        {
          "name": "memberRoleName",
          "type": "string"
        }
      ],
      "payable": false,
      "stateMutability": "view",
      "type": "function"
    },
    {
      "constant": true,
      "inputs": [
        {
          "name": "_memberAddress",
          "type": "address"
        }
      ],
      "name": "getMemberRoleByAddress",
      "outputs": [
        {
          "name": "memberRoleId",
          "type": "uint256"
        }
      ],
      "payable": false,
      "stateMutability": "view",
      "type": "function"
    },
    {
      "constant": false,
      "inputs": [
        {
          "name": "_memberAddress",
          "type": "address"
        },
        {
          "name": "_memberRoleId",
          "type": "uint256"
        }
      ],
      "name": "assignMemberRole",
      "outputs": [],
      "payable": false,
      "stateMutability": "nonpayable",
      "type": "function"
    },
    {
      "constant": true,
      "inputs": [
        {
          "name": "_memberRoleId",
          "type": "uint256"
        }
      ],
      "name": "getMemberAddressByRoleId",
      "outputs": [
        {
          "name": "memberAddress",
          "type": "address"
        }
      ],
      "payable": false,
      "stateMutability": "view",
      "type": "function"
    },
    {
      "inputs": [],
      "payable": false,
      "stateMutability": "nonpayable",
      "type": "constructor"
    }
  ],
  "bytecode": "0x6060604052341561000f57600080fd5b60008054806001018281610023919061016e565b916000526020600020900160006040805190810160405280600681526020017f4d656d62657200000000000000000000000000000000000000000000000000008152509091909150908051906020019061007e92919061019a565b505060008054806001018281610094919061016e565b916000526020600020900160006040805190810160405280600e81526020017f41647669736f727920426f617264000000000000000000000000000000000000815250909190915090805190602001906100ef92919061019a565b505060008054806001018281610105919061016e565b916000526020600020900160006040805190810160405280600681526020017f45787065727400000000000000000000000000000000000000000000000000008152509091909150908051906020019061016092919061019a565b5050600180819055506102b3565b81548183558181151161019557818360005260206000209182019101610194919061021a565b5b505050565b828054600181600116156101000203166002900490600052602060002090601f016020900481019282601f106101db57805160ff1916838001178555610209565b82800160010185558215610209579182015b828111156102085782518255916020019190600101906101ed565b5b5090506102169190610246565b5090565b61024391905b8082111561023f5760008181610236919061026b565b50600101610220565b5090565b90565b61026891905b8082111561026457600081600090555060010161024c565b5090565b90565b50805460018160011615610100020316600290046000825580601f1061029157506102b0565b601f0160209004906000526020600020908101906102af9190610246565b5b50565b610604806102c26000396000f30060606040526004361061006d576000357c0100000000000000000000000000000000000000000000000000000000900463ffffffff16806304e4dce0146100725780631ee10b36146100cf5780634698e2461461016b578063b5a12c34146101b8578063eee29b14146101fa575b600080fd5b341561007d57600080fd5b6100cd600480803590602001908201803590602001908080601f0160208091040260200160405190810160405280939291908181526020018383808284378201915050505050509190505061025d565b005b34156100da57600080fd5b6100f0600480803590602001909190505061029c565b6040518080602001828103825283818151815260200191508051906020019080838360005b83811015610130578082015181840152602081019050610115565b50505050905090810190601f16801561015d5780820380516001836020036101000a031916815260200191505b509250505060405180910390f35b341561017657600080fd5b6101a2600480803573ffffffffffffffffffffffffffffffffffffffff1690602001909190505061035e565b6040518082815260200191505060405180910390f35b34156101c357600080fd5b6101f8600480803573ffffffffffffffffffffffffffffffffffffffff169060200190919080359060200190919050506103a7565b005b341561020557600080fd5b61021b6004808035906020019091905050610442565b604051808273ffffffffffffffffffffffffffffffffffffffff1673ffffffffffffffffffffffffffffffffffffffff16815260200191505060405180910390f35b60008054806001018281610271919061047f565b9160005260206000209001600083909190915090805190602001906102979291906104ab565b505050565b6102a461052b565b6000828154811015156102b357fe5b90600052602060002090018054600181600116156101000203166002900480601f0160208091040260200160405190810160405280929190818152602001828054600181600116156101000203166002900480156103525780601f1061032757610100808354040283529160200191610352565b820191906000526020600020905b81548152906001019060200180831161033557829003601f168201915b50505050509050919050565b6000600260008373ffffffffffffffffffffffffffffffffffffffff1673ffffffffffffffffffffffffffffffffffffffff168152602001908152602001600020549050919050565b6001600260008473ffffffffffffffffffffffffffffffffffffffff1673ffffffffffffffffffffffffffffffffffffffff16815260200190815260200160002081905550816003600083815260200190815260200160002060006101000a81548173ffffffffffffffffffffffffffffffffffffffff021916908373ffffffffffffffffffffffffffffffffffffffff1602179055505050565b60006003600083815260200190815260200160002060009054906101000a900473ffffffffffffffffffffffffffffffffffffffff169050919050565b8154818355818115116104a6578183600052602060002091820191016104a5919061053f565b5b505050565b828054600181600116156101000203166002900490600052602060002090601f016020900481019282601f106104ec57805160ff191683800117855561051a565b8280016001018555821561051a579182015b828111156105195782518255916020019190600101906104fe565b5b509050610527919061056b565b5090565b602060405190810160405280600081525090565b61056891905b80821115610564576000818161055b9190610590565b50600101610545565b5090565b90565b61058d91905b80821115610589576000816000905550600101610571565b5090565b90565b50805460018160011615610100020316600290046000825580601f106105b657506105d5565b601f0160209004906000526020600020908101906105d4919061056b565b5b505600a165627a7a723058201ce3f1a8ebe78647904165ab9d8ec6074f6b8fd1e8f5781cf51181e1309565530029",
  "source": "/* Copyright (C) 2017 NexusMutual.io\r\n\r\n  This program is free software: you can redistribute it and/or modify\r\n    it under the terms of the GNU General Public License as published by\r\n    the Free Software Foundation, either version 3 of the License, or\r\n    (at your option) any later version.\r\n\r\n  This program is distributed in the hope that it will be useful,\r\n    but WITHOUT ANY WARRANTY; without even the implied warranty of\r\n    MERCHANTABILITY or FITNESS FOR A PARTICULAR PURPOSE.  See the\r\n    GNU General Public License for more details.\r\n\r\n  You should have received a copy of the GNU General Public License\r\n    along with this program.  If not, see http://www.gnu.org/licenses/ */\r\n\r\n\r\npragma solidity ^0.4.8;\r\n\r\ncontract  memberRoles{\r\n\r\n  string[] memberRole;\r\n  uint categorize_auth_roleid;\r\n\r\n  mapping (address=>uint) memberAddressToMemberRole;\r\n  mapping (uint=>address) memberRoleToMemberAddress;\r\n\r\n function memberRoles()\r\n {\r\n  memberRole.push(\"Member\");\r\n  memberRole.push(\"Advisory Board\");\r\n  memberRole.push(\"Expert\");\r\n  categorize_auth_roleid=1;\r\n }\r\n\r\n  function getMemberRoleByAddress(address _memberAddress) public constant returns(uint memberRoleId)\r\n  {\r\n     memberRoleId = memberAddressToMemberRole[_memberAddress];\r\n  }\r\n\r\n  function getMemberAddressByRoleId(uint _memberRoleId) public constant returns(address memberAddress)\r\n  {\r\n      memberAddress = memberRoleToMemberAddress[_memberRoleId];\r\n  }\r\n\r\n  function addNewMemberRole(string _newRoleName)\r\n  {\r\n      memberRole.push(_newRoleName);  \r\n  }\r\n  \r\n  function getMemberRoleNameById(uint _memberRoleId) public constant returns(string memberRoleName)\r\n  {\r\n      memberRoleName = memberRole[_memberRoleId];\r\n  }\r\n  \r\n  function assignMemberRole(address _memberAddress,uint _memberRoleId)\r\n  {\r\n      memberAddressToMemberRole[_memberAddress] = 1;\r\n      memberRoleToMemberAddress[_memberRoleId] = _memberAddress;\r\n  }\r\n\r\n\r\n\r\n}\r\n",
  "sourcePath": "D:\\2. GovBlocks Contracts\\GovBlocks Git-Master\\contracts\\memberRoles.sol",
  "compiler": {
    "name": "solc",
    "version": "0.4.18+commit.9cf6e910.Emscripten.clang"
  },
  "schemaVersion": "1.0.1",
  "updatedAt": "2017-11-23T06:05:59.545Z"
}