{
  "contractName": "memberRoles",
  "abi": [
    {
      "constant": false,
      "inputs": [
        {
          "name": "_newRoleName",
          "type": "string"
        }
      ],
      "name": "addNewMemberRole",
      "outputs": [],
      "payable": false,
      "stateMutability": "nonpayable",
      "type": "function"
    },
    {
      "constant": true,
      "inputs": [
        {
          "name": "_memberRoleId",
          "type": "uint256"
        }
      ],
      "name": "getMemberRoleNameById",
      "outputs": [
        {
          "name": "memberRoleName",
          "type": "string"
        }
      ],
      "payable": false,
      "stateMutability": "view",
      "type": "function"
    },
    {
      "constant": true,
      "inputs": [
        {
          "name": "_memberAddress",
          "type": "address"
        }
      ],
      "name": "categorize_auth_roleid",
      "outputs": [
        {
          "name": "",
          "type": "uint256"
        }
      ],
      "payable": false,
      "stateMutability": "view",
      "type": "function"
    },
    {
      "constant": true,
      "inputs": [
        {
          "name": "_memberAddress",
          "type": "address"
        },
        {
          "name": "_memberRoleId",
          "type": "uint256"
        }
      ],
      "name": "getAuthorizedMemberId",
      "outputs": [
        {
          "name": "roleId",
          "type": "uint256"
        }
      ],
      "payable": false,
      "stateMutability": "view",
      "type": "function"
    },
    {
      "constant": false,
      "inputs": [
        {
          "name": "_memberAddress",
          "type": "address"
        },
        {
          "name": "_memberRoleId",
          "type": "uint256"
        }
      ],
      "name": "assignMemberRole",
      "outputs": [
        {
          "name": "memberAddress",
          "type": "address"
        }
      ],
      "payable": false,
      "stateMutability": "nonpayable",
      "type": "function"
    },
    {
      "inputs": [
        {
          "name": "_memberAddress",
          "type": "address"
        }
      ],
      "payable": false,
      "stateMutability": "view",
      "type": "function",
      "constant": true,
      "name": "getMemberRoleIdByAddress",
      "outputs": [
        {
          "name": "memberRoleId",
          "type": "uint256"
        }
      ]
    },
    {
      "constant": true,
      "inputs": [
        {
          "name": "_memberRoleId",
          "type": "uint256"
        }
      ],
      "name": "getMemberAddressByRoleId",
      "outputs": [
        {
          "name": "memberAddress",
          "type": "address"
        }
      ],
      "payable": false,
      "stateMutability": "view",
      "type": "function"
    },
    {
      "inputs": [],
      "payable": false,
      "stateMutability": "nonpayable",
      "type": "constructor"
    }
  ],
  "bytecode": "0x6060604052341561000f57600080fd5b60008054806001018281610023919061016e565b916000526020600020900160006040805190810160405280600681526020017f4d656d62657200000000000000000000000000000000000000000000000000008152509091909150908051906020019061007e92919061019a565b505060008054806001018281610094919061016e565b916000526020600020900160006040805190810160405280600e81526020017f41647669736f727920426f617264000000000000000000000000000000000000815250909190915090805190602001906100ef92919061019a565b505060008054806001018281610105919061016e565b916000526020600020900160006040805190810160405280600681526020017f45787065727400000000000000000000000000000000000000000000000000008152509091909150908051906020019061016092919061019a565b5050600180819055506102b3565b81548183558181151161019557818360005260206000209182019101610194919061021a565b5b505050565b828054600181600116156101000203166002900490600052602060002090601f016020900481019282601f106101db57805160ff1916838001178555610209565b82800160010185558215610209579182015b828111156102085782518255916020019190600101906101ed565b5b5090506102169190610246565b5090565b61024391905b8082111561023f5760008181610236919061026b565b50600101610220565b5090565b90565b61026891905b8082111561026457600081600090555060010161024c565b5090565b90565b50805460018160011615610100020316600290046000825580601f1061029157506102b0565b601f0160209004906000526020600020908101906102af9190610246565b5b50565b61067c806102c26000396000f300606060405260043610610083576000357c0100000000000000000000000000000000000000000000000000000000900463ffffffff16806304e4dce0146100885780631ee10b36146100e557806358762e64146101815780639914aa8c146101aa578063b5a12c34146101d3578063beae32ba14610215578063eee29b1414610262575b600080fd5b341561009357600080fd5b6100e3600480803590602001908201803590602001908080601f016020809104026020016040519081016040528093929190818152602001838380828437820191505050505050919050506102c5565b005b34156100f057600080fd5b6101066004808035906020019091905050610304565b6040518080602001828103825283818151815260200191508051906020019080838360005b8381101561014657808201518184015260208101905061012b565b50505050905090810190601f1680156101735780820380516001836020036101000a031916815260200191505b509250505060405180910390f35b341561018c57600080fd5b6101946103c6565b6040518082815260200191505060405180910390f35b34156101b557600080fd5b6101bd6103cc565b6040518082815260200191505060405180910390f35b34156101de57600080fd5b610213600480803573ffffffffffffffffffffffffffffffffffffffff169060200190919080359060200190919050506103d6565b005b341561022057600080fd5b61024c600480803573ffffffffffffffffffffffffffffffffffffffff16906020019091905050610471565b6040518082815260200191505060405180910390f35b341561026d57600080fd5b61028360048080359060200190919050506104ba565b604051808273ffffffffffffffffffffffffffffffffffffffff1673ffffffffffffffffffffffffffffffffffffffff16815260200191505060405180910390f35b600080548060010182816102d991906104f7565b9160005260206000209001600083909190915090805190602001906102ff929190610523565b505050565b61030c6105a3565b60008281548110151561031b57fe5b90600052602060002090018054600181600116156101000203166002900480601f0160208091040260200160405190810160405280929190818152602001828054600181600116156101000203166002900480156103ba5780601f1061038f576101008083540402835291602001916103ba565b820191906000526020600020905b81548152906001019060200180831161039d57829003601f168201915b50505050509050919050565b60015481565b6000600154905090565b6001600260008473ffffffffffffffffffffffffffffffffffffffff1673ffffffffffffffffffffffffffffffffffffffff16815260200190815260200160002081905550816003600083815260200190815260200160002060006101000a81548173ffffffffffffffffffffffffffffffffffffffff021916908373ffffffffffffffffffffffffffffffffffffffff1602179055505050565b6000600260008373ffffffffffffffffffffffffffffffffffffffff1673ffffffffffffffffffffffffffffffffffffffff168152602001908152602001600020549050919050565b60006003600083815260200190815260200160002060009054906101000a900473ffffffffffffffffffffffffffffffffffffffff169050919050565b81548183558181151161051e5781836000526020600020918201910161051d91906105b7565b5b505050565b828054600181600116156101000203166002900490600052602060002090601f016020900481019282601f1061056457805160ff1916838001178555610592565b82800160010185558215610592579182015b82811115610591578251825591602001919060010190610576565b5b50905061059f91906105e3565b5090565b602060405190810160405280600081525090565b6105e091905b808211156105dc57600081816105d39190610608565b506001016105bd565b5090565b90565b61060591905b808211156106015760008160009055506001016105e9565b5090565b90565b50805460018160011615610100020316600290046000825580601f1061062e575061064d565b601f01602090049060005260206000209081019061064c91906105e3565b5b505600a165627a7a7230582087cc84a5b5b321fd200e5ca091406889868f1a40f92754791216d8b9f483cf7b0029",
  "source": "/* Copyright (C) 2017 NexusMutual.io\r\n\r\n  This program is free software: you can redistribute it and/or modify\r\n    it under the terms of the GNU General Public License as published by\r\n    the Free Software Foundation, either version 3 of the License, or\r\n    (at your option) any later version.\r\n\r\n  This program is distributed in the hope that it will be useful,\r\n    but WITHOUT ANY WARRANTY; without even the implied warranty of\r\n    MERCHANTABILITY or FITNESS FOR A PARTICULAR PURPOSE.  See the\r\n    GNU General Public License for more details.\r\n\r\n  You should have received a copy of the GNU General Public License\r\n    along with this program.  If not, see http://www.gnu.org/licenses/ */\r\n\r\n\r\npragma solidity ^0.4.8;\r\n\r\ncontract  memberRoles{\r\n\r\n  string[] memberRole;\r\n  uint public categorize_auth_roleid;\r\n\r\n  mapping (address=>uint) memberAddressToMemberRole;\r\n  mapping (uint=>address) memberRoleToMemberAddress;\r\n\r\n  function memberRoles()\r\n  {\r\n    memberRole.push(\"Member\");\r\n    memberRole.push(\"Advisory Board\");\r\n    memberRole.push(\"Expert\");\r\n    categorize_auth_roleid=1;\r\n  }\r\n\r\n  function getMemberRoleIdByAddress(address _memberAddress) public constant returns(uint memberRoleId)\r\n  {\r\n     memberRoleId = memberAddressToMemberRole[_memberAddress];\r\n  }\r\n\r\n  function getMemberAddressByRoleId(uint _memberRoleId) public constant returns(address memberAddress)\r\n  {\r\n      memberAddress = memberRoleToMemberAddress[_memberRoleId];\r\n  }\r\n\r\n  function addNewMemberRole(string _newRoleName)\r\n  {\r\n      memberRole.push(_newRoleName);  \r\n  }\r\n  \r\n  function getMemberRoleNameById(uint _memberRoleId) public constant returns(string memberRoleName)\r\n  {\r\n      memberRoleName = memberRole[_memberRoleId];\r\n  }\r\n  \r\n  function assignMemberRole(address _memberAddress,uint _memberRoleId)\r\n  {\r\n      memberAddressToMemberRole[_memberAddress] = 1;\r\n      memberRoleToMemberAddress[_memberRoleId] = _memberAddress;\r\n  }\r\n\r\n function getAuthorizedMemberId() public constant returns(uint roleId)\r\n {\r\n     roleId = categorize_auth_roleid;\r\n }\r\n \r\n\r\n\r\n}\r\n",
  "sourcePath": "D:\\2. GovBlocks Contracts\\GovBlocks Git-Master\\contracts\\memberRoles.sol",
  "compiler": {
    "name": "solc",
    "version": "0.4.18+commit.9cf6e910.Emscripten.clang"
  },
  "schemaVersion": "1.0.1",
  "updatedAt": "2017-11-23T07:01:16.152Z"
}