{
  "contractName": "memberRoles",
  "abi": [
    {
      "constant": true,
      "inputs": [],
      "name": "getRolesAndMember",
      "outputs": [
        {
          "name": "roleName",
          "type": "bytes32[]"
        },
        {
          "name": "totalMembers",
          "type": "uint256[]"
        }
      ],
      "payable": false,
      "stateMutability": "view",
      "type": "function"
    },
    {
      "constant": false,
      "inputs": [
        {
          "name": "_GBMAddress",
          "type": "address"
        }
      ],
      "name": "MemberRolesInitiate",
      "outputs": [],
      "payable": false,
      "stateMutability": "nonpayable",
      "type": "function"
    },
    {
      "constant": true,
      "inputs": [
        {
          "name": "_memberRoleId",
          "type": "uint256"
        }
      ],
      "name": "getMemberRoleNameById",
      "outputs": [
        {
          "name": "roleId",
          "type": "uint256"
        },
        {
          "name": "memberRoleName",
          "type": "bytes32"
        }
      ],
      "payable": false,
      "stateMutability": "view",
      "type": "function"
    },
    {
      "constant": true,
      "inputs": [
        {
          "name": "_memberRoleId",
          "type": "uint256"
        }
      ],
      "name": "getAllMemberLength",
      "outputs": [
        {
          "name": "",
          "type": "uint256"
        }
      ],
      "payable": false,
      "stateMutability": "view",
      "type": "function"
    },
    {
      "constant": false,
      "inputs": [
        {
          "name": "_roleId",
          "type": "uint256"
        }
      ],
      "name": "changeAuthorizedMemberId",
      "outputs": [],
      "payable": false,
      "stateMutability": "nonpayable",
      "type": "function"
    },
    {
      "constant": true,
      "inputs": [],
      "name": "constructorCheck",
      "outputs": [
        {
          "name": "",
          "type": "bool"
        }
      ],
      "payable": false,
      "stateMutability": "view",
      "type": "function"
    },
    {
      "constant": false,
      "inputs": [
        {
          "name": "_newRoleName",
          "type": "bytes32"
        },
        {
          "name": "_roleDescription",
          "type": "string"
        },
        {
          "name": "_canAddMembers",
          "type": "address"
        }
      ],
      "name": "addNewMemberRole",
      "outputs": [],
      "payable": false,
      "stateMutability": "nonpayable",
      "type": "function"
    },
    {
      "constant": false,
      "inputs": [
        {
          "name": "_memberAddress",
          "type": "address"
        },
        {
          "name": "_memberRoleId",
          "type": "uint256"
        },
        {
          "name": "_typeOf",
          "type": "uint8"
        }
      ],
      "name": "updateMemberRole",
      "outputs": [],
      "payable": false,
      "stateMutability": "nonpayable",
      "type": "function"
    },
    {
      "constant": true,
      "inputs": [],
      "name": "getAuthorizedMemberId",
      "outputs": [
        {
          "name": "roleId",
          "type": "uint256"
        }
      ],
      "payable": false,
      "stateMutability": "view",
      "type": "function"
    },
    {
      "constant": false,
      "inputs": [
        {
          "name": "_GBMAddress",
          "type": "address"
        }
      ],
      "name": "changeGBMAddress",
      "outputs": [],
      "payable": false,
      "stateMutability": "nonpayable",
      "type": "function"
    },
    {
      "constant": true,
      "inputs": [
        {
          "name": "_memberAddress",
          "type": "address"
        }
      ],
      "name": "getMemberRoleIdByAddress",
      "outputs": [
        {
          "name": "memberRoleId",
          "type": "uint256"
        }
      ],
      "payable": false,
      "stateMutability": "view",
      "type": "function"
    },
    {
      "constant": false,
      "inputs": [
        {
          "name": "_memberRoleId",
          "type": "uint256"
        },
        {
          "name": "_newCanAddMember",
          "type": "address"
        }
      ],
      "name": "changeCanAddMember",
      "outputs": [],
      "payable": false,
      "stateMutability": "nonpayable",
      "type": "function"
    },
    {
      "constant": false,
      "inputs": [
        {
          "name": "_masterContractAddress",
          "type": "address"
        }
      ],
      "name": "changeMasterAddress",
      "outputs": [],
      "payable": false,
      "stateMutability": "nonpayable",
      "type": "function"
    },
    {
      "constant": true,
      "inputs": [],
      "name": "getTotalMemberRoles",
      "outputs": [
        {
          "name": "length",
          "type": "uint256"
        }
      ],
      "payable": false,
      "stateMutability": "view",
      "type": "function"
    },
    {
      "constant": true,
      "inputs": [
        {
          "name": "_memberRoleId",
          "type": "uint256"
        }
      ],
      "name": "getMemberAddressByRoleId",
      "outputs": [
        {
          "name": "roleId",
          "type": "uint256"
        },
        {
          "name": "allMemberAddress",
          "type": "address[]"
        }
      ],
      "payable": false,
      "stateMutability": "view",
      "type": "function"
    },
    {
      "anonymous": false,
      "inputs": [
        {
          "indexed": true,
          "name": "roleId",
          "type": "uint256"
        },
        {
          "indexed": false,
          "name": "roleName",
          "type": "bytes32"
        },
        {
          "indexed": false,
          "name": "roleDescription",
          "type": "string"
        }
      ],
      "name": "MemberRole",
      "type": "event"
    }
  ],
  "bytecode": "0x6060604052341561000f57600080fd5b6118dc8061001e6000396000f3006060604052600436106100db576000357c0100000000000000000000000000000000000000000000000000000000900463ffffffff168063128c6cbe146100e05780631341bc04146101925780631ee10b36146101cb578063233fa5eb14610211578063455ddebd14610248578063525050e11461026b57806352b38c10146102985780639398f0b4146103215780639914aa8c1461036f578063aef816e814610398578063beae32ba146103d1578063c72b89bf1461041e578063d46655f414610460578063ed4aef5214610499578063eee29b14146104c2575b600080fd5b34156100eb57600080fd5b6100f3610541565b604051808060200180602001838103835285818151815260200191508051906020019060200280838360005b8381101561013a57808201518184015260208101905061011f565b50505050905001838103825284818151815260200191508051906020019060200280838360005b8381101561017c578082015181840152602081019050610161565b5050505090500194505050505060405180910390f35b341561019d57600080fd5b6101c9600480803573ffffffffffffffffffffffffffffffffffffffff16906020019091905050610620565b005b34156101d657600080fd5b6101ec6004808035906020019091905050610891565b6040518083815260200182600019166000191681526020019250505060405180910390f35b341561021c57600080fd5b61023260048080359060200190919050506108b9565b6040518082815260200191505060405180910390f35b341561025357600080fd5b61026960048080359060200190919050506108dc565b005b341561027657600080fd5b61027e610a3b565b604051808215151515815260200191505060405180910390f35b34156102a357600080fd5b61031f60048080356000191690602001909190803590602001908201803590602001908080601f0160208091040260200160405190810160405280939291908181526020018383808284378201915050505050509190803573ffffffffffffffffffffffffffffffffffffffff16906020019091905050610a4e565b005b341561032c57600080fd5b61036d600480803573ffffffffffffffffffffffffffffffffffffffff1690602001909190803590602001909190803560ff16906020019091905050610bea565b005b341561037a57600080fd5b61038261101a565b6040518082815260200191505060405180910390f35b34156103a357600080fd5b6103cf600480803573ffffffffffffffffffffffffffffffffffffffff16906020019091905050611024565b005b34156103dc57600080fd5b610408600480803573ffffffffffffffffffffffffffffffffffffffff1690602001909190505061110c565b6040518082815260200191505060405180910390f35b341561042957600080fd5b61045e600480803590602001909190803573ffffffffffffffffffffffffffffffffffffffff1690602001909190505061142d565b005b341561046b57600080fd5b610497600480803573ffffffffffffffffffffffffffffffffffffffff169060200190919050506114f0565b005b34156104a457600080fd5b6104ac611711565b6040518082815260200191505060405180910390f35b34156104cd57600080fd5b6104e3600480803590602001909190505061171d565b6040518083815260200180602001828103825283818151815260200191508051906020019060200280838360005b8381101561052c578082015181840152602081019050610511565b50505050905001935050505060405180910390f35b6105496117d2565b6105516117e6565b6000806000805490506040518059106105675750595b9080825280602002602001820160405250935060008054905060405180591061058d5750595b90808252806020026020018201604052509250600091505b60008054905082101561061a576105bb82610891565b9050809150508084838151811015156105d057fe5b9060200190602002019060001916908160001916815250506105f1826108b9565b83838151811015156105ff57fe5b906020019060200201818152505081806001019250506105a5565b50509091565b6000801515600260009054906101000a900460ff16151514151561064357600080fd5b6000805480600101828161065791906117fa565b9160005260206000209001600080909190915090600019169055506000805480600101828161068691906117fa565b916000526020600020900160007f41647669736f727920426f61726400000000000000000000000000000000000090919091509060001916905550600080548060010182816106d591906117fa565b916000526020600020900160007f546f6b656e20486f6c64657200000000000000000000000000000000000000009091909150906000191690555060018081905550600360009054906101000a900473ffffffffffffffffffffffffffffffffffffffff16600260016101000a81548173ffffffffffffffffffffffffffffffffffffffff021916908373ffffffffffffffffffffffffffffffffffffffff160217905550600260019054906101000a900473ffffffffffffffffffffffffffffffffffffffff1673ffffffffffffffffffffffffffffffffffffffff16638da5cb5b6000604051602001526040518163ffffffff167c0100000000000000000000000000000000000000000000000000000000028152600401602060405180830381600087803b151561080857600080fd5b6102c65a03f1151561081957600080fd5b50505060405180519050905061083181600180610bea565b81600460006101000a81548173ffffffffffffffffffffffffffffffffffffffff021916908373ffffffffffffffffffffffffffffffffffffffff1602179055506001600260006101000a81548160ff0219169083151502179055505050565b6000806000838154811015156108a357fe5b9060005260206000209001549050829150915091565b600060076000838152602001908152602001600020600201805490509050919050565b600360009054906101000a900473ffffffffffffffffffffffffffffffffffffffff16600260016101000a81548173ffffffffffffffffffffffffffffffffffffffff021916908373ffffffffffffffffffffffffffffffffffffffff16021790555060011515600260019054906101000a900473ffffffffffffffffffffffffffffffffffffffff1673ffffffffffffffffffffffffffffffffffffffff16632f54bf6e336000604051602001526040518263ffffffff167c0100000000000000000000000000000000000000000000000000000000028152600401808273ffffffffffffffffffffffffffffffffffffffff1673ffffffffffffffffffffffffffffffffffffffff168152602001915050602060405180830381600087803b1515610a0857600080fd5b6102c65a03f11515610a1957600080fd5b505050604051805190501515141515610a3157600080fd5b8060018190555050565b600260009054906101000a900460ff1681565b6000600460009054906101000a900473ffffffffffffffffffffffffffffffffffffffff1673ffffffffffffffffffffffffffffffffffffffff163373ffffffffffffffffffffffffffffffffffffffff16141515610aac57600080fd5b610ab4611711565b905060008054806001018281610aca91906117fa565b916000526020600020900160008690919091509060001916905550816006600083815260200190815260200160002060006101000a81548173ffffffffffffffffffffffffffffffffffffffff021916908373ffffffffffffffffffffffffffffffffffffffff160217905550807fe2981862bbf692aa30ba39d4eca9c69e5dcebf3eae5fb93332940c23c1c4c3c5858560405180836000191660001916815260200180602001828103825283818151815260200191508051906020019080838360005b83811015610ba9578082015181840152602081019050610b8e565b50505050905090810190601f168015610bd65780820380516001836020036101000a031916815260200191505b50935050505060405180910390a250505050565b600460009054906101000a900473ffffffffffffffffffffffffffffffffffffffff1673ffffffffffffffffffffffffffffffffffffffff163373ffffffffffffffffffffffffffffffffffffffff161480610ca457506006600083815260200190815260200160002060009054906101000a900473ffffffffffffffffffffffffffffffffffffffff1673ffffffffffffffffffffffffffffffffffffffff163373ffffffffffffffffffffffffffffffffffffffff16145b1515610caf57600080fd5b60018160ff161415610e6a5760006007600084815260200190815260200160002060010160008573ffffffffffffffffffffffffffffffffffffffff1673ffffffffffffffffffffffffffffffffffffffff16815260200190815260200160002054141515610d1d57600080fd5b6001600760008481526020019081526020016000206000015401600760008481526020019081526020016000206000018190555060016007600084815260200190815260200160002060010160008573ffffffffffffffffffffffffffffffffffffffff1673ffffffffffffffffffffffffffffffffffffffff1681526020019081526020016000208190555081600860008573ffffffffffffffffffffffffffffffffffffffff1673ffffffffffffffffffffffffffffffffffffffff16815260200190815260200160002081905550600760008381526020019081526020016000206002018054806001018281610e169190611826565b9160005260206000209001600085909190916101000a81548173ffffffffffffffffffffffffffffffffffffffff021916908373ffffffffffffffffffffffffffffffffffffffff16021790555050611015565b60006007600084815260200190815260200160002060010160008573ffffffffffffffffffffffffffffffffffffffff1673ffffffffffffffffffffffffffffffffffffffff16815260200190815260200160002054141515610ecc57600080fd5b6001600760008481526020019081526020016000206000015401600760008481526020019081526020016000206000018190555060016007600084815260200190815260200160002060010160008573ffffffffffffffffffffffffffffffffffffffff1673ffffffffffffffffffffffffffffffffffffffff1681526020019081526020016000208190555081600860008573ffffffffffffffffffffffffffffffffffffffff1673ffffffffffffffffffffffffffffffffffffffff16815260200190815260200160002081905550600760008381526020019081526020016000206002018054806001018281610fc59190611826565b9160005260206000209001600085909190916101000a81548173ffffffffffffffffffffffffffffffffffffffff021916908373ffffffffffffffffffffffffffffffffffffffff160217905550505b505050565b6000600154905090565b600460009054906101000a900473ffffffffffffffffffffffffffffffffffffffff1673ffffffffffffffffffffffffffffffffffffffff163373ffffffffffffffffffffffffffffffffffffffff1614151561108057600080fd5b6000600460009054906101000a900473ffffffffffffffffffffffffffffffffffffffff1673ffffffffffffffffffffffffffffffffffffffff16141515156110c857600080fd5b80600460006101000a81548173ffffffffffffffffffffffffffffffffffffffff021916908373ffffffffffffffffffffffffffffffffffffffff16021790555050565b600080600360009054906101000a900473ffffffffffffffffffffffffffffffffffffffff16600260016101000a81548173ffffffffffffffffffffffffffffffffffffffff021916908373ffffffffffffffffffffffffffffffffffffffff160217905550600260019054906101000a900473ffffffffffffffffffffffffffffffffffffffff1673ffffffffffffffffffffffffffffffffffffffff1663dd970aa16000604051602001526040518163ffffffff167c0100000000000000000000000000000000000000000000000000000000028152600401602060405180830381600087803b151561120057600080fd5b6102c65a03f1151561121157600080fd5b50505060405180519050905080600560006101000a81548173ffffffffffffffffffffffffffffffffffffffff021916908373ffffffffffffffffffffffffffffffffffffffff160217905550600860008473ffffffffffffffffffffffffffffffffffffffff1673ffffffffffffffffffffffffffffffffffffffff1681526020019081526020016000205491506001821015156112f157600860008473ffffffffffffffffffffffffffffffffffffffff1673ffffffffffffffffffffffffffffffffffffffff168152602001908152602001600020549150611427565b6000600560009054906101000a900473ffffffffffffffffffffffffffffffffffffffff1673ffffffffffffffffffffffffffffffffffffffff166370a08231856000604051602001526040518263ffffffff167c0100000000000000000000000000000000000000000000000000000000028152600401808273ffffffffffffffffffffffffffffffffffffffff1673ffffffffffffffffffffffffffffffffffffffff168152602001915050602060405180830381600087803b15156113b857600080fd5b6102c65a03f115156113c957600080fd5b5050506040518051905011151561142157600860008473ffffffffffffffffffffffffffffffffffffffff1673ffffffffffffffffffffffffffffffffffffffff168152602001908152602001600020549150611426565b600291505b5b50919050565b6006600083815260200190815260200160002060009054906101000a900473ffffffffffffffffffffffffffffffffffffffff1673ffffffffffffffffffffffffffffffffffffffff163373ffffffffffffffffffffffffffffffffffffffff1614151561149a57600080fd5b806006600084815260200190815260200160002060006101000a81548173ffffffffffffffffffffffffffffffffffffffff021916908373ffffffffffffffffffffffffffffffffffffffff1602179055505050565b6000600360009054906101000a900473ffffffffffffffffffffffffffffffffffffffff1673ffffffffffffffffffffffffffffffffffffffff1614156115775780600360006101000a81548173ffffffffffffffffffffffffffffffffffffffff021916908373ffffffffffffffffffffffffffffffffffffffff16021790555061170e565b600360009054906101000a900473ffffffffffffffffffffffffffffffffffffffff16600260016101000a81548173ffffffffffffffffffffffffffffffffffffffff021916908373ffffffffffffffffffffffffffffffffffffffff16021790555060011515600260019054906101000a900473ffffffffffffffffffffffffffffffffffffffff1673ffffffffffffffffffffffffffffffffffffffff16638f16c41c336000604051602001526040518263ffffffff167c0100000000000000000000000000000000000000000000000000000000028152600401808273ffffffffffffffffffffffffffffffffffffffff1673ffffffffffffffffffffffffffffffffffffffff168152602001915050602060405180830381600087803b15156116a357600080fd5b6102c65a03f115156116b457600080fd5b5050506040518051905015151415156116cc57600080fd5b80600360006101000a81548173ffffffffffffffffffffffffffffffffffffffff021916908373ffffffffffffffffffffffffffffffffffffffff1602179055505b50565b60008080549050905090565b6000611727611852565b8291508160076000858152602001908152602001600020600201808054806020026020016040519081016040528092919081815260200182805480156117c257602002820191906000526020600020905b8160009054906101000a900473ffffffffffffffffffffffffffffffffffffffff1673ffffffffffffffffffffffffffffffffffffffff1681526020019060010190808311611778575b5050505050905091509150915091565b602060405190810160405280600081525090565b602060405190810160405280600081525090565b815481835581811511611821578183600052602060002091820191016118209190611866565b5b505050565b81548183558181151161184d5781836000526020600020918201910161184c919061188b565b5b505050565b602060405190810160405280600081525090565b61188891905b8082111561188457600081600090555060010161186c565b5090565b90565b6118ad91905b808211156118a9576000816000905550600101611891565b5090565b905600a165627a7a72305820764311395517a0956c37f303d4b2d13f2d9de2a053eb9024fce27e27f0cdd5c20029",
  "source": "/* Copyright (C) 2017 NexusMutual.io\r\n\r\n  This program is free software: you can redistribute it and/or modify\r\n    it under the terms of the GNU General Public License as published by\r\n    the Free Software Foundation, either version 3 of the License, or\r\n    (at your option) any later version.\r\n\r\n  This program is distributed in the hope that it will be useful,\r\n    but WITHOUT ANY WARRANTY; without even the implied warranty of\r\n    MERCHANTABILITY or FITNESS FOR A PARTICULAR PURPOSE.  See the\r\n    GNU General Public License for more details.\r\n\r\n  You should have received a copy of the GNU General Public License\r\n    along with this program.  If not, see http://www.gnu.org/licenses/ */\r\n\r\n\r\npragma solidity ^0.4.8;\r\nimport \"./Master.sol\";\r\nimport \"./BasicToken.sol\";\r\n\r\ncontract  memberRoles\r\n{\r\n  event MemberRole(uint256 indexed roleId, bytes32 roleName, string roleDescription);\r\n    \r\n  bytes32[] memberRole;\r\n  uint categorizeAuthRoleid;\r\n  bool public constructorCheck;\r\n  Master MS; \r\n  address masterAddress;\r\n  address GBMAddress;\r\n  BasicToken BT;\r\n\r\n  struct memberRoleDetails\r\n  {\r\n    uint memberCounter;\r\n    mapping(address=>uint)  memberActive;\r\n    address[] memberAddress;\r\n  }\r\n\r\n  mapping(uint=>address) updateMemberRoles;\r\n  mapping(uint=>memberRoleDetails) memberRoleData;\r\n  mapping (address=>uint) memberAddressToMemberRole;\r\n\r\n  /// @dev Initiates member roles\r\n  /// @param _GBMAddress GovBlocks master address\r\n  function MemberRolesInitiate(address _GBMAddress)\r\n  {\r\n    require(constructorCheck == false);\r\n        memberRole.push(\"\");\r\n        memberRole.push(\"Advisory Board\");\r\n        memberRole.push(\"Token Holder\");\r\n        categorizeAuthRoleid=1;\r\n        MS=Master(masterAddress);\r\n        address ownAddress = MS.owner();\r\n        updateMemberRole(ownAddress,1,1);\r\n        GBMAddress = _GBMAddress;\r\n        constructorCheck = true;\r\n  }\r\n\r\n  modifier onlyInternal \r\n  {\r\n      MS=Master(masterAddress);\r\n      require(MS.isInternal(msg.sender) == true);\r\n      _; \r\n  }\r\n  \r\n  modifier onlyOwner \r\n  {\r\n      MS=Master(masterAddress);\r\n      require(MS.isOwner(msg.sender) == true);\r\n      _; \r\n  }\r\n  \r\n  modifier onlyGBM\r\n  {\r\n        require(msg.sender == GBMAddress);\r\n      _;\r\n  }\r\n  \r\n  /// @dev Changes GovBlocks master address\r\n  /// @param _GBMAddress New GovBlocks master address\r\n  function changeGBMAddress(address _GBMAddress) onlyGBM\r\n  {\r\n      require(GBMAddress != 0x00);\r\n      GBMAddress = _GBMAddress;\r\n  }\r\n\r\n  /// @dev Changes master's contract address\r\n  /// @param _masterContractAddress New master address\r\n  function changeMasterAddress(address _masterContractAddress) \r\n  {\r\n      if(masterAddress == 0x000)\r\n          masterAddress = _masterContractAddress;\r\n      else\r\n      {\r\n          MS=Master(masterAddress);\r\n          require(MS.isInternal(msg.sender) == true);\r\n              masterAddress = _masterContractAddress;\r\n      }\r\n  }\r\n\r\n  /// @dev Gets the role id assigned to a member when given member address\r\n  /// @param _memberAddress Member address\r\n  /// @return memberRoleId Role id of the member address\r\n  function getMemberRoleIdByAddress(address _memberAddress) public constant returns(uint memberRoleId)\r\n  {\r\n      MS=Master(masterAddress); \r\n      address tokenAddress;\r\n      tokenAddress=MS.getDappTokenAddress();\r\n      BT=BasicToken(tokenAddress);\r\n      memberRoleId = memberAddressToMemberRole[_memberAddress];\r\n      \r\n      if(memberRoleId >=1)\r\n          memberRoleId = memberAddressToMemberRole[_memberAddress];\r\n      else if(BT.balanceOf(_memberAddress) <= 0)\r\n          memberRoleId = memberAddressToMemberRole[_memberAddress];\r\n      else\r\n          memberRoleId = 2;\r\n  }\r\n\r\n  /// @dev Gets the member addresses assigned by a specific role\r\n  /// @param _memberRoleId Member role id\r\n  /// @return roleId Role id\r\n  /// @return allMemberAddress Member addresses of specified role id\r\n  function getMemberAddressByRoleId(uint _memberRoleId) public constant returns(uint roleId,address[] allMemberAddress)\r\n  {\r\n      roleId = _memberRoleId;\r\n      return (roleId,memberRoleData[_memberRoleId].memberAddress);\r\n  }\r\n\r\n  /// @dev Gets all members' length\r\n  /// @param _memberRoleId Member role id\r\n  /// @return memberRoleData[_memberRoleId].memberAddress.length Member length\r\n  function getAllMemberLength(uint _memberRoleId) public constant returns(uint)\r\n  {\r\n    return memberRoleData[_memberRoleId].memberAddress.length;    \r\n  }\r\n  \r\n  /// @dev Adds new member role\r\n  /// @param _newRoleName New role name\r\n  /// @param _roleDescription New description hash\r\n  /// @param _canAddMembers Authorized member against every role id\r\n  function addNewMemberRole(bytes32 _newRoleName,string _roleDescription, address _canAddMembers) \r\n  {\r\n      require(msg.sender == GBMAddress);\r\n      uint totalMembers = getTotalMemberRoles();\r\n      memberRole.push(_newRoleName);  \r\n      updateMemberRoles[totalMembers] = _canAddMembers;\r\n      MemberRole(totalMembers, _newRoleName, _roleDescription);\r\n  }\r\n  \r\n  /// @dev Changes member role id's changable member \r\n  /// @param _memberRoleId Member role id\r\n  /// @param _newCanAddMember New canAddMember address\r\n  function changeCanAddMember(uint _memberRoleId, address _newCanAddMember)\r\n  {\r\n      require(msg.sender == updateMemberRoles[_memberRoleId]);\r\n      updateMemberRoles[_memberRoleId] = _newCanAddMember;\r\n  }\r\n  \r\n  /// @dev Gets the role name when given role id\r\n  /// @param _memberRoleId Member role id\r\n  /// @return  roleId Role id\r\n  /// @return memberRoleName Member role name\r\n  function getMemberRoleNameById(uint _memberRoleId) public constant returns(uint roleId,bytes32 memberRoleName)\r\n  {\r\n      memberRoleName = memberRole[_memberRoleId];\r\n      roleId = _memberRoleId;\r\n  }\r\n  \r\n  /// @dev Gets roles and members\r\n  /// @return roleName Role name\r\n  /// @return totalMembers Total members\r\n  function getRolesAndMember()constant returns(bytes32[] roleName,uint[] totalMembers)\r\n  {\r\n      roleName=new bytes32[](memberRole.length);\r\n      totalMembers=new uint[](memberRole.length);\r\n      for(uint i=0; i < memberRole.length; i++)\r\n      {\r\n          bytes32 Name;\r\n          (,Name) = getMemberRoleNameById(i);\r\n          roleName[i]=Name;\r\n          totalMembers[i] = getAllMemberLength(i);\r\n      }\r\n  }\r\n\r\n  /// @dev Updates member role\r\n  /// @param _memberAddress Member address\r\n  /// @param _memberRoleId Member role id\r\n  /// @param _typeOf Type of role id of the member\r\n  function updateMemberRole(address _memberAddress,uint _memberRoleId,uint8 _typeOf)\r\n  {\r\n      require(msg.sender == GBMAddress || msg.sender == updateMemberRoles[_memberRoleId]);\r\n      if(_typeOf == 1)\r\n      {\r\n        require(memberRoleData[_memberRoleId].memberActive[_memberAddress] == 0);\r\n        memberRoleData[_memberRoleId].memberCounter = memberRoleData[_memberRoleId].memberCounter+1;\r\n        memberRoleData[_memberRoleId].memberActive[_memberAddress] = 1;\r\n        memberAddressToMemberRole[_memberAddress] = _memberRoleId;\r\n        memberRoleData[_memberRoleId].memberAddress.push(_memberAddress);\r\n      }\r\n      else\r\n      {\r\n        require(memberRoleData[_memberRoleId].memberActive[_memberAddress] == 0);\r\n        memberRoleData[_memberRoleId].memberCounter = memberRoleData[_memberRoleId].memberCounter+1;\r\n        memberRoleData[_memberRoleId].memberActive[_memberAddress] = 1;\r\n        memberAddressToMemberRole[_memberAddress] = _memberRoleId;\r\n        memberRoleData[_memberRoleId].memberAddress.push(_memberAddress);\r\n      }\r\n  }\r\n\r\n  /// @dev Gets the role id which is authorized to categorize a proposal\r\n  /// @return roleId Role id of the authorized member\r\n  function getAuthorizedMemberId() public constant returns(uint roleId)\r\n  {\r\n       roleId = categorizeAuthRoleid;\r\n  }\r\n\r\n  /// @dev Changes the role id of the member who is authorized to categorize the proposal\r\n  /// @param _roleId Role id of that member\r\n  function changeAuthorizedMemberId(uint _roleId) onlyOwner public\r\n  {\r\n     categorizeAuthRoleid = _roleId;\r\n  }\r\n\r\n  /// @dev Gets total number of member roles available\r\n  /// @return length Total member roles' length\r\n  function getTotalMemberRoles() public constant returns(uint length)\r\n  {\r\n    return memberRole.length;\r\n  }\r\n}",
  "sourcePath": "D:\\RUCHITA\\GovBlocks-Protocol Access-Modifiers\\contracts\\memberRoles.sol",
  "compiler": {
    "name": "solc",
    "version": "0.4.18+commit.9cf6e910.Emscripten.clang"
  },
  "schemaVersion": "1.0.1",
  "updatedAt": "2018-04-24T10:21:39.446Z"
}