{
  "contractName": "MemberRoles",
  "abi": [
    {
      "constant": false,
      "inputs": [
        {
          "name": "_memberAddress",
          "type": "address"
        },
        {
          "name": "_memberRoleId",
          "type": "uint256"
        }
      ],
      "name": "removeMember",
      "outputs": [],
      "payable": false,
      "stateMutability": "nonpayable",
      "type": "function"
    },
    {
      "constant": true,
      "inputs": [
        {
          "name": "_memberRoleId",
          "type": "uint256"
        }
      ],
      "name": "getMemberRoleNameById",
      "outputs": [
        {
          "name": "memberRoleName",
          "type": "bytes32"
        }
      ],
      "payable": false,
      "stateMutability": "view",
      "type": "function"
    },
    {
      "constant": false,
      "inputs": [
        {
          "name": "_roleId",
          "type": "uint256"
        }
      ],
      "name": "changeAuthorizedMemberId",
      "outputs": [
        {
          "name": "",
          "type": "uint256"
        }
      ],
      "payable": false,
      "stateMutability": "nonpayable",
      "type": "function"
    },
    {
      "constant": false,
      "inputs": [
        {
          "name": "_newRoleName",
          "type": "bytes32"
        },
        {
          "name": "_newDescHash",
          "type": "string"
        }
      ],
      "name": "addNewMemberRole",
      "outputs": [
        {
          "name": "",
          "type": "address"
        }
      ],
      "payable": false,
      "stateMutability": "nonpayable",
      "type": "function"
    },
    {
      "constant": true,
      "inputs": [
        {
          "name": "_memberAddress",
          "type": "address"
        },
        {
          "name": "_memberRoleId",
          "type": "uint256"
        }
      ],
      "name": "owner",
      "outputs": [
        {
          "name": "",
          "type": "address"
        }
      ],
      "payable": false,
      "stateMutability": "view",
      "type": "function"
    },
    {
      "inputs": [
        {
          "name": "_memberAddress",
          "type": "address"
        }
      ],
      "payable": false,
      "stateMutability": "view",
      "type": "function",
      "constant": true,
      "name": "categorizeAuthRoleid",
      "outputs": [
        {
          "name": "",
          "type": "uint256"
        }
      ]
    },
    {
      "constant": true,
      "inputs": [
        {
          "name": "_memberAddress",
          "type": "address"
        },
        {
          "name": "_memberRoleId",
          "type": "uint256"
        }
      ],
      "name": "getAuthorizedMemberId",
      "outputs": [
        {
          "name": "roleId",
          "type": "uint256"
        }
      ],
      "payable": false,
      "stateMutability": "view",
      "type": "function"
    },
    {
      "inputs": [
        {
          "name": "_memberAddress",
          "type": "address"
        },
        {
          "name": "_memberRoleId",
          "type": "uint256"
        }
      ],
      "payable": false,
      "stateMutability": "nonpayable",
      "type": "function",
      "constant": false,
      "name": "assignMemberRole",
      "outputs": [
        {
          "name": "memberRoleId",
          "type": "uint256"
        }
      ]
    },
    {
      "constant": true,
      "inputs": [
        {
          "name": "_masterContractAddress",
          "type": "address"
        }
      ],
      "name": "getRoleDescHash",
      "outputs": [
        {
          "name": "",
          "type": "string"
        }
      ],
      "payable": false,
      "stateMutability": "view",
      "type": "function"
    },
    {
      "constant": false,
      "inputs": [
        {
          "name": "_memberRoleId",
          "type": "uint256"
        }
      ],
      "name": "MemberRolesInitiate",
      "outputs": [
        {
          "name": "memberAddress",
          "type": "address"
        }
      ],
      "payable": false,
      "stateMutability": "nonpayable",
      "type": "function"
    },
    {
      "inputs": [
        {
          "name": "_memberAddress",
          "type": "address"
        }
      ],
      "payable": false,
      "stateMutability": "view",
      "type": "function",
      "constant": true,
      "name": "getMemberRoleIdByAddress",
      "outputs": [
        {
          "name": "memberRoleId",
          "type": "uint256"
        }
      ]
    },
    {
      "anonymous": false,
      "inputs": [
        {
          "indexed": true,
          "name": "newOwner",
          "type": "address"
        },
        {
          "indexed": true,
          "name": "newOwner",
          "type": "address"
        }
      ],
      "name": "getTotalMemberRoles",
      "type": "function",
      "payable": false,
      "stateMutability": "view",
      "constant": true,
      "outputs": [
        {
          "name": "length",
          "type": "uint256"
        }
      ]
    },
    {
      "anonymous": false,
      "inputs": [
        {
          "indexed": true,
          "name": "_memberRoleId",
          "type": "uint256"
        },
        {
          "indexed": true,
          "name": "newOwner",
          "type": "address"
        }
      ],
      "name": "getMemberAddressByRoleId",
      "type": "function",
      "payable": false,
      "stateMutability": "view",
      "constant": true,
      "outputs": [
        {
          "name": "allMemberAddress",
          "type": "address[]"
        }
      ]
    },
    {
      "anonymous": false,
      "inputs": [
        {
          "indexed": true,
          "name": "newOwner",
          "type": "address"
        },
        {
          "indexed": true,
          "name": "newOwner",
          "type": "address"
        }
      ],
      "name": "transferOwnership",
      "type": "function",
      "constant": false,
      "outputs": [],
      "payable": false,
      "stateMutability": "nonpayable"
    },
    {
      "anonymous": false,
      "inputs": [
        {
          "indexed": true,
          "name": "previousOwner",
          "type": "address"
        },
        {
          "indexed": true,
          "name": "newOwner",
          "type": "address"
        }
      ],
      "name": "OwnershipTransferred",
      "type": "event"
    }
  ],
  "bytecode": "0x6060604052336000806101000a81548173ffffffffffffffffffffffffffffffffffffffff021916908373ffffffffffffffffffffffffffffffffffffffff160217905550610e92806100536000396000f3006060604052600436106100d0576000357c0100000000000000000000000000000000000000000000000000000000900463ffffffff16806316f6f03e146100d55780631ee10b3614610117578063455ddebd146101565780634a2ef96e146101795780638da5cb5b146101e35780639650cfb3146102385780639914aa8c14610261578063b5a12c341461028a578063b5b9eba0146102cc578063bdf8197a1461035a578063beae32ba1461036f578063ed4aef52146103bc578063eee29b14146103e5578063f2fde38b1461045d575b600080fd5b34156100e057600080fd5b610115600480803573ffffffffffffffffffffffffffffffffffffffff16906020019091908035906020019091905050610496565b005b341561012257600080fd5b61013860048080359060200190919050506105ce565b60405180826000191660001916815260200191505060405180910390f35b341561016157600080fd5b61017760048080359060200190919050506105f2565b005b341561018457600080fd5b6101e160048080356000191690602001909190803590602001908201803590602001908080601f01602080910402602001604051908101604052809392919081815260200183838082843782019150505050505091905050610657565b005b34156101ee57600080fd5b6101f66106fc565b604051808273ffffffffffffffffffffffffffffffffffffffff1673ffffffffffffffffffffffffffffffffffffffff16815260200191505060405180910390f35b341561024357600080fd5b61024b610721565b6040518082815260200191505060405180910390f35b341561026c57600080fd5b610274610727565b6040518082815260200191505060405180910390f35b341561029557600080fd5b6102ca600480803573ffffffffffffffffffffffffffffffffffffffff16906020019091908035906020019091905050610731565b005b34156102d757600080fd5b6102df61093a565b6040518080602001828103825283818151815260200191508051906020019080838360005b8381101561031f578082015181840152602081019050610304565b50505050905090810190601f16801561034c5780820380516001836020036101000a031916815260200191505b509250505060405180910390f35b341561036557600080fd5b61036d6109e2565b005b341561037a57600080fd5b6103a6600480803573ffffffffffffffffffffffffffffffffffffffff16906020019091905050610ac7565b6040518082815260200191505060405180910390f35b34156103c757600080fd5b6103cf610b10565b6040518082815260200191505060405180910390f35b34156103f057600080fd5b6104066004808035906020019091905050610b1d565b6040518080602001828103825283818151815260200191508051906020019060200280838360005b8381101561044957808201518184015260208101905061042e565b505050509050019250505060405180910390f35b341561046857600080fd5b610494600480803573ffffffffffffffffffffffffffffffffffffffff16906020019091905050610bc7565b005b60016005600083815260200190815260200160002060010160008473ffffffffffffffffffffffffffffffffffffffff1673ffffffffffffffffffffffffffffffffffffffff168152602001908152602001600020541415156104f857600080fd5b6001600560008381526020019081526020016000206000015403600560008381526020019081526020016000206000018190555060006005600083815260200190815260200160002060010160008473ffffffffffffffffffffffffffffffffffffffff1673ffffffffffffffffffffffffffffffffffffffff168152602001908152602001600020819055506000600660008473ffffffffffffffffffffffffffffffffffffffff1673ffffffffffffffffffffffffffffffffffffffff168152602001908152602001600020819055505050565b60006001828154811015156105df57fe5b9060005260206000209001549050919050565b6000809054906101000a900473ffffffffffffffffffffffffffffffffffffffff1673ffffffffffffffffffffffffffffffffffffffff163373ffffffffffffffffffffffffffffffffffffffff1614151561064d57600080fd5b8060028190555050565b6000809054906101000a900473ffffffffffffffffffffffffffffffffffffffff1673ffffffffffffffffffffffffffffffffffffffff163373ffffffffffffffffffffffffffffffffffffffff161415156106b257600080fd5b600180548060010182816106c69190610d1c565b91600052602060002090016000849091909150906000191690555080600390805190602001906106f7929190610d48565b505050565b6000809054906101000a900473ffffffffffffffffffffffffffffffffffffffff1681565b60025481565b6000600254905090565b6000809054906101000a900473ffffffffffffffffffffffffffffffffffffffff1673ffffffffffffffffffffffffffffffffffffffff163373ffffffffffffffffffffffffffffffffffffffff1614151561078c57600080fd5b60006005600083815260200190815260200160002060010160008473ffffffffffffffffffffffffffffffffffffffff1673ffffffffffffffffffffffffffffffffffffffff168152602001908152602001600020541415156107ee57600080fd5b6001600560008381526020019081526020016000206000015401600560008381526020019081526020016000206000018190555060016005600083815260200190815260200160002060010160008473ffffffffffffffffffffffffffffffffffffffff1673ffffffffffffffffffffffffffffffffffffffff1681526020019081526020016000208190555080600660008473ffffffffffffffffffffffffffffffffffffffff1673ffffffffffffffffffffffffffffffffffffffff168152602001908152602001600020819055506005600082815260200190815260200160002060020180548060010182816108e79190610dc8565b9160005260206000209001600084909190916101000a81548173ffffffffffffffffffffffffffffffffffffffff021916908373ffffffffffffffffffffffffffffffffffffffff160217905550505050565b610942610df4565b60038054600181600116156101000203166002900480601f0160208091040260200160405190810160405280929190818152602001828054600181600116156101000203166002900480156109d85780601f106109ad576101008083540402835291602001916109d8565b820191906000526020600020905b8154815290600101906020018083116109bb57829003601f168201915b5050505050905090565b6000600460009054906101000a900460ff1660ff16141515610a0357600080fd5b60018054806001018281610a179190610d1c565b916000526020600020900160007f4d656d62657200000000000000000000000000000000000000000000000000009091909150906000191690555060018054806001018281610a669190610d1c565b916000526020600020900160007f41647669736f727920426f6172640000000000000000000000000000000000009091909150906000191690555060016002819055506001600460006101000a81548160ff021916908360ff160217905550565b6000600660008373ffffffffffffffffffffffffffffffffffffffff1673ffffffffffffffffffffffffffffffffffffffff168152602001908152602001600020549050919050565b6000600180549050905090565b610b25610e08565b60056000838152602001908152602001600020600201805480602002602001604051908101604052809291908181526020018280548015610bbb57602002820191906000526020600020905b8160009054906101000a900473ffffffffffffffffffffffffffffffffffffffff1673ffffffffffffffffffffffffffffffffffffffff1681526020019060010190808311610b71575b50505050509050919050565b6000809054906101000a900473ffffffffffffffffffffffffffffffffffffffff1673ffffffffffffffffffffffffffffffffffffffff163373ffffffffffffffffffffffffffffffffffffffff16141515610c2257600080fd5b600073ffffffffffffffffffffffffffffffffffffffff168173ffffffffffffffffffffffffffffffffffffffff1614151515610c5e57600080fd5b8073ffffffffffffffffffffffffffffffffffffffff166000809054906101000a900473ffffffffffffffffffffffffffffffffffffffff1673ffffffffffffffffffffffffffffffffffffffff167f8be0079c531659141344cd1fd0a4f28419497f9722a3daafe3b4186f6b6457e060405160405180910390a3806000806101000a81548173ffffffffffffffffffffffffffffffffffffffff021916908373ffffffffffffffffffffffffffffffffffffffff16021790555050565b815481835581811511610d4357818360005260206000209182019101610d429190610e1c565b5b505050565b828054600181600116156101000203166002900490600052602060002090601f016020900481019282601f10610d8957805160ff1916838001178555610db7565b82800160010185558215610db7579182015b82811115610db6578251825591602001919060010190610d9b565b5b509050610dc49190610e41565b5090565b815481835581811511610def57818360005260206000209182019101610dee9190610e41565b5b505050565b602060405190810160405280600081525090565b602060405190810160405280600081525090565b610e3e91905b80821115610e3a576000816000905550600101610e22565b5090565b90565b610e6391905b80821115610e5f576000816000905550600101610e47565b5090565b905600a165627a7a723058207756e3127a759670b6f86f21422196a41214287d7735c9230e855656c1df602f0029",
  "source": "/* Copyright (C) 2017 NexusMutual.io\r\n\r\n  This program is free software: you can redistribute it and/or modify\r\n    it under the terms of the GNU General Public License as published by\r\n    the Free Software Foundation, either version 3 of the License, or\r\n    (at your option) any later version.\r\n\r\n  This program is distributed in the hope that it will be useful,\r\n    but WITHOUT ANY WARRANTY; without even the implied warranty of\r\n    MERCHANTABILITY or FITNESS FOR A PARTICULAR PURPOSE.  See the\r\n    GNU General Public License for more details.\r\n\r\n  You should have received a copy of the GNU General Public License\r\n    along with this program.  If not, see http://www.gnu.org/licenses/ */\r\n\r\n\r\npragma solidity ^0.4.8;\r\n// import \"./Ownable.sol\";\r\nimport \"./zeppelin-solidity/contracts/ownership/Ownable.sol\";\r\n\r\ncontract  MemberRoles is Ownable{\r\n\r\n  bytes32[] memberRole;\r\n  uint public categorizeAuthRoleid;\r\n  string memberRoleDescHash;\r\n  uint8 constructorCheck;\r\n\r\n  struct memberRoleDetails\r\n  {\r\n    uint memberCounter;\r\n    mapping(address=>uint)  memberActive; // will set active to 1/0;\r\n    address[] memberAddress;\r\n  }\r\n\r\n  mapping(uint=>memberRoleDetails) memberRoleData;\r\n  mapping (address=>uint) memberAddressToMemberRole;\r\n\r\n  function MemberRolesInitiate()\r\n  {\r\n    require(constructorCheck == 0);\r\n        memberRole.push(\"Member\");\r\n        memberRole.push(\"Advisory Board\");\r\n        categorizeAuthRoleid=1;\r\n        constructorCheck =1;\r\n  }\r\n\r\n  function getRoleDescHash()constant returns(string)\r\n  {\r\n    return memberRoleDescHash;\r\n  }\r\n\r\n  /// @dev Get the role id assigned to a member when giving memberAddress\r\n  function getMemberRoleIdByAddress(address _memberAddress) public constant returns(uint memberRoleId)\r\n  {\r\n     memberRoleId = memberAddressToMemberRole[_memberAddress];\r\n  }\r\n\r\n  /// @dev Get that member address assigned as a specific role when giving member role Id.\r\n  function getMemberAddressByRoleId(uint _memberRoleId) public constant returns(address[] allMemberAddress)\r\n  {\r\n      return memberRoleData[_memberRoleId].memberAddress;\r\n  }\r\n\r\n  /// @dev Add new member role for governance.\r\n  function addNewMemberRole(bytes32 _newRoleName,string _newDescHash) onlyOwner\r\n  {\r\n      memberRole.push(_newRoleName);\r\n      memberRoleDescHash = _newDescHash;  \r\n  }\r\n  \r\n  /// @dev Get the role name whem giving role Id.\r\n  function getMemberRoleNameById(uint _memberRoleId) public constant returns(bytes32 memberRoleName)\r\n  {\r\n      memberRoleName = memberRole[_memberRoleId];\r\n  }\r\n  \r\n  /// @dev Assign role to a member when giving member address and role id\r\n  function assignMemberRole(address _memberAddress,uint _memberRoleId) onlyOwner\r\n  {\r\n      require(memberRoleData[_memberRoleId].memberActive[_memberAddress] == 0);\r\n      memberRoleData[_memberRoleId].memberCounter = memberRoleData[_memberRoleId].memberCounter+1;\r\n      memberRoleData[_memberRoleId].memberActive[_memberAddress] = 1;\r\n      memberAddressToMemberRole[_memberAddress] = _memberRoleId;\r\n      memberRoleData[_memberRoleId].memberAddress.push(_memberAddress);\r\n  }\r\n\r\n  function removeMember(address _memberAddress,uint _memberRoleId)\r\n  {\r\n      require(memberRoleData[_memberRoleId].memberActive[_memberAddress] == 1);\r\n      memberRoleData[_memberRoleId].memberCounter = memberRoleData[_memberRoleId].memberCounter-1;\r\n      memberRoleData[_memberRoleId].memberActive[_memberAddress] = 0;\r\n      memberAddressToMemberRole[_memberAddress] = 0;\r\n      // memberRoleData[_memberRoleId].memberAddress.push(_memberAddress);\r\n  }\r\n\r\n  /// @dev Get the role id which is authorized to categorize a proposal.\r\n  function getAuthorizedMemberId() public constant returns(uint roleId)\r\n  {\r\n       roleId = categorizeAuthRoleid;\r\n  }\r\n\r\n  /// @dev Change the role id that is authorized to categorize the proposal. (Only owner can do that)\r\n  function changeAuthorizedMemberId(uint _roleId) onlyOwner public\r\n  {\r\n     categorizeAuthRoleid = _roleId;\r\n  }\r\n\r\n  /// @dev Get Total number of member Roles available.\r\n  function getTotalMemberRoles() constant returns(uint length)\r\n  {\r\n    return memberRole.length;\r\n  }\r\n\r\n\r\n}\r\n",
  "sourcePath": "D:\\2. GovBlocks\\GovBlocks Git-Master\\contracts\\MemberRoles.sol",
  "compiler": {
    "name": "solc",
    "version": "0.4.18+commit.9cf6e910.Emscripten.clang"
  },
  "schemaVersion": "1.0.1",
  "updatedAt": "2018-01-31T14:11:48.182Z"
}