{
  "contractName": "Pool",
  "abi": [
    {
      "constant": false,
      "inputs": [
        {
          "name": "myid",
          "type": "bytes32"
        },
        {
          "name": "res",
          "type": "string"
        }
      ],
      "name": "__callback",
      "outputs": [],
      "payable": false,
      "stateMutability": "nonpayable",
      "type": "function"
    },
    {
      "constant": false,
      "inputs": [
        {
          "name": "_proposalId",
          "type": "uint256"
        },
        {
          "name": "_closingTime",
          "type": "uint256"
        }
      ],
      "name": "closeProposalOraclise",
      "outputs": [],
      "payable": false,
      "stateMutability": "nonpayable",
      "type": "function"
    },
    {
      "constant": false,
      "inputs": [
        {
          "name": "myid",
          "type": "bytes32"
        },
        {
          "name": "result",
          "type": "string"
        },
        {
          "name": "proof",
          "type": "bytes"
        }
      ],
      "name": "__callback",
      "outputs": [],
      "payable": false,
      "stateMutability": "nonpayable",
      "type": "function"
    },
    {
      "constant": true,
      "inputs": [
        {
          "name": "myid",
          "type": "bytes32"
        }
      ],
      "name": "getProposalIdOfApiId",
      "outputs": [
        {
          "name": "id1",
          "type": "uint256"
        }
      ],
      "payable": false,
      "stateMutability": "view",
      "type": "function"
    },
    {
      "constant": true,
      "inputs": [
        {
          "name": "",
          "type": "uint256"
        }
      ],
      "name": "allAPIcall",
      "outputs": [
        {
          "name": "",
          "type": "bytes32"
        }
      ],
      "payable": false,
      "stateMutability": "view",
      "type": "function"
    },
    {
      "constant": true,
      "inputs": [
        {
          "name": "",
          "type": "bytes32"
        }
      ],
      "name": "allAPIid",
      "outputs": [
        {
          "name": "type_of",
          "type": "bytes8"
        },
        {
          "name": "proposalId",
          "type": "uint256"
        },
        {
          "name": "dateAdd",
          "type": "uint64"
        },
        {
          "name": "dateUpd",
          "type": "uint64"
        }
      ],
      "payable": false,
      "stateMutability": "view",
      "type": "function"
    },
    {
      "constant": true,
      "inputs": [
        {
          "name": "x",
          "type": "bytes32"
        }
      ],
      "name": "bytes32ToString",
      "outputs": [
        {
          "name": "",
          "type": "string"
        }
      ],
      "payable": false,
      "stateMutability": "view",
      "type": "function"
    },
    {
      "constant": true,
      "inputs": [
        {
          "name": "_proposalId",
          "type": "uint256"
        }
      ],
      "name": "getMyIndexByProposalId",
      "outputs": [
        {
          "name": "myIndexId",
          "type": "uint256"
        }
      ],
      "payable": false,
      "stateMutability": "view",
      "type": "function"
    },
    {
      "constant": false,
      "inputs": [
        {
          "name": "_add",
          "type": "address"
        }
      ],
      "name": "changeMasterAddress",
      "outputs": [],
      "payable": false,
      "stateMutability": "nonpayable",
      "type": "function"
    },
    {
      "constant": true,
      "inputs": [
        {
          "name": "myid",
          "type": "bytes32"
        }
      ],
      "name": "getApiCallDetails",
      "outputs": [
        {
          "name": "_typeof",
          "type": "bytes8"
        },
        {
          "name": "id",
          "type": "uint256"
        },
        {
          "name": "dateAdd",
          "type": "uint64"
        },
        {
          "name": "dateUpd",
          "type": "uint64"
        }
      ],
      "payable": false,
      "stateMutability": "view",
      "type": "function"
    },
    {
      "constant": false,
      "inputs": [
        {
          "name": "amount",
          "type": "uint256"
        }
      ],
      "name": "transferBackEther",
      "outputs": [],
      "payable": false,
      "stateMutability": "nonpayable",
      "type": "function"
    },
    {
      "constant": true,
      "inputs": [
        {
          "name": "index",
          "type": "uint256"
        }
      ],
      "name": "getApiCall_Index",
      "outputs": [
        {
          "name": "myid",
          "type": "bytes32"
        }
      ],
      "payable": false,
      "stateMutability": "view",
      "type": "function"
    },
    {
      "constant": true,
      "inputs": [],
      "name": "getApilCall_length",
      "outputs": [
        {
          "name": "len",
          "type": "uint256"
        }
      ],
      "payable": false,
      "stateMutability": "view",
      "type": "function"
    },
    {
      "constant": true,
      "inputs": [
        {
          "name": "myid",
          "type": "bytes32"
        }
      ],
      "name": "getApiIdTypeOf",
      "outputs": [
        {
          "name": "_typeof",
          "type": "bytes16"
        }
      ],
      "payable": false,
      "stateMutability": "view",
      "type": "function"
    },
    {
      "payable": true,
      "stateMutability": "payable",
      "type": "fallback"
    },
    {
      "anonymous": false,
      "inputs": [
        {
          "indexed": true,
          "name": "proposalId",
          "type": "uint256"
        },
        {
          "indexed": false,
          "name": "closingTime",
          "type": "uint256"
        },
        {
          "indexed": false,
          "name": "URL",
          "type": "string"
        }
      ],
      "name": "closeProposal",
      "type": "event"
    },
    {
      "anonymous": false,
      "inputs": [
        {
          "indexed": true,
          "name": "sender",
          "type": "address"
        },
        {
          "indexed": false,
          "name": "msg",
          "type": "string"
        },
        {
          "indexed": false,
          "name": "myid",
          "type": "bytes32"
        }
      ],
      "name": "apiresult",
      "type": "event"
    }
  ],
  "bytecode": "0x6060604052341561000f57600080fd5b6130908061001e6000396000f3006060604052600436106100d0576000357c0100000000000000000000000000000000000000000000000000000000900463ffffffff16806327dc297e146100d257806336e7535f1461013c57806338bbfa5014610168578063518dfb22146102155780636b947f0c14610250578063756865ec1461028f5780639201de551461033d578063bc46a00c146103dd578063d46655f414610414578063d8e25da11461044d578063f6eed183146104fb578063fbdea6331461051e578063fcb361571461055d578063fd3e44d514610586575b005b34156100dd57600080fd5b61013a60048080356000191690602001909190803590602001908201803590602001908080601f016020809104026020016040519081016040528093929190818152602001838380828437820191505050505050919050506105e7565b005b341561014757600080fd5b61016660048080359060200190919080359060200190919050506107c4565b005b341561017357600080fd5b61021360048080356000191690602001909190803590602001908201803590602001908080601f0160208091040260200160405190810160405280939291908181526020018383808284378201915050505050509190803590602001908201803590602001908080601f01602080910402602001604051908101604052809392919081815260200183838082843782019150505050505091905050610da9565b005b341561022057600080fd5b61023a600480803560001916906020019091905050610dae565b6040518082815260200191505060405180910390f35b341561025b57600080fd5b6102716004808035906020019091905050610dd6565b60405180826000191660001916815260200191505060405180910390f35b341561029a57600080fd5b6102b4600480803560001916906020019091905050610dfa565b604051808577ffffffffffffffffffffffffffffffffffffffffffffffff191677ffffffffffffffffffffffffffffffffffffffffffffffff191681526020018481526020018367ffffffffffffffff1667ffffffffffffffff1681526020018267ffffffffffffffff1667ffffffffffffffff16815260200194505050505060405180910390f35b341561034857600080fd5b610362600480803560001916906020019091905050610e77565b6040518080602001828103825283818151815260200191508051906020019080838360005b838110156103a2578082015181840152602081019050610387565b50505050905090810190601f1680156103cf5780820380516001836020036101000a031916815260200191505b509250505060405180910390f35b34156103e857600080fd5b6103fe6004808035906020019091905050611064565b6040518082815260200191505060405180910390f35b341561041f57600080fd5b61044b600480803573ffffffffffffffffffffffffffffffffffffffff169060200190919050506110bb565b005b341561045857600080fd5b6104726004808035600019169060200190919050506112e0565b604051808577ffffffffffffffffffffffffffffffffffffffffffffffff191677ffffffffffffffffffffffffffffffffffffffffffffffff191681526020018481526020018367ffffffffffffffff1667ffffffffffffffff1681526020018267ffffffffffffffff1667ffffffffffffffff16815260200194505050505060405180910390f35b341561050657600080fd5b61051c60048080359060200190919050506113be565b005b341561052957600080fd5b61053f6004808035906020019091905050611555565b60405180826000191660001916815260200191505060405180910390f35b341561056857600080fd5b610570611579565b6040518082815260200191505060405180910390f35b341561059157600080fd5b6105ab600480803560001916906020019091905050611586565b60405180826fffffffffffffffffffffffffffffffff19166fffffffffffffffffffffffffffffffff1916815260200191505060405180910390f35b600760009054906101000a900473ffffffffffffffffffffffffffffffffffffffff16600860006101000a81548173ffffffffffffffffffffffffffffffffffffffff021916908373ffffffffffffffffffffffffffffffffffffffff1602179055506106526115ee565b73ffffffffffffffffffffffffffffffffffffffff163373ffffffffffffffffffffffffffffffffffffffff1614158015610771575060011515600860009054906101000a900473ffffffffffffffffffffffffffffffffffffffff1673ffffffffffffffffffffffffffffffffffffffff16632f54bf6e336000604051602001526040518263ffffffff167c0100000000000000000000000000000000000000000000000000000000028152600401808273ffffffffffffffffffffffffffffffffffffffff1673ffffffffffffffffffffffffffffffffffffffff168152602001915050602060405180830381600087803b151561075157600080fd5b6102c65a03f1151561076257600080fd5b50505060405180519050151514155b1561077b57600080fd5b4260056000846000191660001916815260200190815260200160002060020160086101000a81548167ffffffffffffffff021916908367ffffffffffffffff1602179055505050565b60008060006107d1611579565b9250600760009054906101000a900473ffffffffffffffffffffffffffffffffffffffff16600860006101000a81548173ffffffffffffffffffffffffffffffffffffffff021916908373ffffffffffffffffffffffffffffffffffffffff16021790555060008414156109d9576109d26040805190810160405280600381526020017f55524c00000000000000000000000000000000000000000000000000000000008152506109cd606060405190810160405280603181526020017f687474703a2f2f61312e676f76626c6f636b732e696f2f636c6f736550726f7081526020017f6f73616c566f74696e672e6a732f34322f000000000000000000000000000000815250610989600860009054906101000a900473ffffffffffffffffffffffffffffffffffffffff1673ffffffffffffffffffffffffffffffffffffffff166306ecf8846000604051602001526040518163ffffffff167c0100000000000000000000000000000000000000000000000000000000028152600401602060405180830381600087803b151561096957600080fd5b6102c65a03f1151561097a57600080fd5b50505060405180519050610e77565b6040805190810160405280600181526020017f2f000000000000000000000000000000000000000000000000000000000000008152506109c889611904565b611a56565b611a85565b9150610b70565b610b6d846040805190810160405280600381526020017f55524c0000000000000000000000000000000000000000000000000000000000815250610b68606060405190810160405280603181526020017f687474703a2f2f61312e676f76626c6f636b732e696f2f636c6f736550726f7081526020017f6f73616c566f74696e672e6a732f34322f000000000000000000000000000000815250610b24600860009054906101000a900473ffffffffffffffffffffffffffffffffffffffff1673ffffffffffffffffffffffffffffffffffffffff166306ecf8846000604051602001526040518163ffffffff167c0100000000000000000000000000000000000000000000000000000000028152600401602060405180830381600087803b1515610b0457600080fd5b6102c65a03f11515610b1557600080fd5b50505060405180519050610e77565b6040805190810160405280600181526020017f2f00000000000000000000000000000000000000000000000000000000000000815250610b638a611904565b611a56565b611fc7565b91505b8342019050847f936db1a41ad0aff3d6e531b43480c585b16f16f98b8efe3ede06ad04c1150e2f82610ced606060405190810160405280603181526020017f687474703a2f2f61312e676f76626c6f636b732e696f2f636c6f736550726f7081526020017f6f73616c566f74696e672e6a732f34322f000000000000000000000000000000815250610ca9600860009054906101000a900473ffffffffffffffffffffffffffffffffffffffff1673ffffffffffffffffffffffffffffffffffffffff166306ecf8846000604051602001526040518163ffffffff167c0100000000000000000000000000000000000000000000000000000000028152600401602060405180830381600087803b1515610c8957600080fd5b6102c65a03f11515610c9a57600080fd5b50505060405180519050610e77565b6040805190810160405280600181526020017f2f00000000000000000000000000000000000000000000000000000000000000815250610ce88a611904565b611a56565b6040518083815260200180602001828103825283818151815260200191508051906020019080838360005b83811015610d33578082015181840152602081019050610d18565b50505050905090810190601f168015610d605780820380516001836020036101000a031916815260200191505b50935050505060405180910390a2610d99827f50524f000000000000000000000000000000000000000000000000000000000087612509565b610da282612626565b5050505050565b505050565b6000600560008360001916600019168152602001908152602001600020600101549050919050565b600681815481101515610de557fe5b90600052602060002090016000915090505481565b60056020528060005260406000206000915090508060000160009054906101000a9004780100000000000000000000000000000000000000000000000002908060010154908060020160009054906101000a900467ffffffffffffffff16908060020160089054906101000a900467ffffffffffffffff16905084565b610e7f612f46565b610e87612f5a565b6000806000610e94612f5a565b6020604051805910610ea35750595b9080825280601f01601f1916602001820160405250945060009350600092505b6020831015610f81578260080260020a876001900402600102915060007f010000000000000000000000000000000000000000000000000000000000000002827effffffffffffffffffffffffffffffffffffffffffffffffffffffffffffff1916141515610f7457818585815181101515610f3b57fe5b9060200101907effffffffffffffffffffffffffffffffffffffffffffffffffffffffffffff1916908160001a90535083806001019450505b8280600101935050610ec3565b83604051805910610f8f5750595b9080825280601f01601f19166020018201604052509050600092505b83831015611057578483815181101515610fc157fe5b9060200101517f010000000000000000000000000000000000000000000000000000000000000090047f010000000000000000000000000000000000000000000000000000000000000002818481518110151561101a57fe5b9060200101907effffffffffffffffffffffffffffffffffffffffffffffffffffffffffffff1916908160001a9053508280600101935050610fab565b8095505050505050919050565b6000806000806000611074611579565b9350600092505b838310156110b25761108c83611555565b915061109782610dae565b9050808614156110a5578294505b828060010193505061107b565b50505050919050565b6000600760009054906101000a900473ffffffffffffffffffffffffffffffffffffffff1673ffffffffffffffffffffffffffffffffffffffff1614156111425780600760006101000a81548173ffffffffffffffffffffffffffffffffffffffff021916908373ffffffffffffffffffffffffffffffffffffffff1602179055506112dd565b600760009054906101000a900473ffffffffffffffffffffffffffffffffffffffff16600860006101000a81548173ffffffffffffffffffffffffffffffffffffffff021916908373ffffffffffffffffffffffffffffffffffffffff16021790555060011515600860009054906101000a900473ffffffffffffffffffffffffffffffffffffffff1673ffffffffffffffffffffffffffffffffffffffff16638f16c41c336000604051602001526040518263ffffffff167c0100000000000000000000000000000000000000000000000000000000028152600401808273ffffffffffffffffffffffffffffffffffffffff1673ffffffffffffffffffffffffffffffffffffffff168152602001915050602060405180830381600087803b151561126e57600080fd5b6102c65a03f1151561127f57600080fd5b50505060405180519050151514156112d75780600760006101000a81548173ffffffffffffffffffffffffffffffffffffffff021916908373ffffffffffffffffffffffffffffffffffffffff1602179055506112dc565b600080fd5b5b50565b60008060008060056000866000191660001916815260200190815260200160002060000160009054906101000a90047801000000000000000000000000000000000000000000000000026005600087600019166000191681526020019081526020016000206001015460056000886000191660001916815260200190815260200160002060020160009054906101000a900467ffffffffffffffff1660056000896000191660001916815260200190815260200160002060020160089054906101000a900467ffffffffffffffff1693509350935093509193509193565b600080600760009054906101000a900473ffffffffffffffffffffffffffffffffffffffff16600860006101000a81548173ffffffffffffffffffffffffffffffffffffffff021916908373ffffffffffffffffffffffffffffffffffffffff16021790555060011515600860009054906101000a900473ffffffffffffffffffffffffffffffffffffffff1673ffffffffffffffffffffffffffffffffffffffff16632f54bf6e336000604051602001526040518263ffffffff167c0100000000000000000000000000000000000000000000000000000000028152600401808273ffffffffffffffffffffffffffffffffffffffff1673ffffffffffffffffffffffffffffffffffffffff168152602001915050602060405180830381600087803b15156114ed57600080fd5b6102c65a03f115156114fe57600080fd5b50505060405180519050151514151561151657600080fd5b3391508173ffffffffffffffffffffffffffffffffffffffff166108fc849081150290604051600060405180830381858888f193505050509050505050565b600060068281548110151561156657fe5b9060005260206000209001549050919050565b6000600680549050905090565b600060056000836000191660001916815260200190815260200160002060000160009054906101000a900478010000000000000000000000000000000000000000000000000277ffffffffffffffffffffffffffffffffffffffffffffffff19169050919050565b6000806000809054906101000a900473ffffffffffffffffffffffffffffffffffffffff1673ffffffffffffffffffffffffffffffffffffffff16148061165e5750600061165c6000809054906101000a900473ffffffffffffffffffffffffffffffffffffffff16612658565b145b1561166f5761166d6000612663565b505b6000809054906101000a900473ffffffffffffffffffffffffffffffffffffffff1673ffffffffffffffffffffffffffffffffffffffff166338cc48316000604051602001526040518163ffffffff167c0100000000000000000000000000000000000000000000000000000000028152600401602060405180830381600087803b15156116fc57600080fd5b6102c65a03f1151561170d57600080fd5b5050506040518051905073ffffffffffffffffffffffffffffffffffffffff16600160009054906101000a900473ffffffffffffffffffffffffffffffffffffffff1673ffffffffffffffffffffffffffffffffffffffff16141515611856576000809054906101000a900473ffffffffffffffffffffffffffffffffffffffff1673ffffffffffffffffffffffffffffffffffffffff166338cc48316000604051602001526040518163ffffffff167c0100000000000000000000000000000000000000000000000000000000028152600401602060405180830381600087803b15156117fa57600080fd5b6102c65a03f1151561180b57600080fd5b50505060405180519050600160006101000a81548173ffffffffffffffffffffffffffffffffffffffff021916908373ffffffffffffffffffffffffffffffffffffffff1602179055505b600160009054906101000a900473ffffffffffffffffffffffffffffffffffffffff1673ffffffffffffffffffffffffffffffffffffffff1663c281d19e6000604051602001526040518163ffffffff167c0100000000000000000000000000000000000000000000000000000000028152600401602060405180830381600087803b15156118e457600080fd5b6102c65a03f115156118f557600080fd5b50505060405180519050905090565b61190c612f46565b600080611917612f5a565b60008086141561195e576040805190810160405280600181526020017f30000000000000000000000000000000000000000000000000000000000000008152509450611a4d565b8593505b600084141515611988578280600101935050600a8481151561198057fe5b049350611962565b826040518059106119965750595b9080825280601f01601f191660200182016040525091506001830390505b600086141515611a4957600a868115156119ca57fe5b066030017f010000000000000000000000000000000000000000000000000000000000000002828280600190039350815181101515611a0557fe5b9060200101907effffffffffffffffffffffffffffffffffffffffffffffffffffffffffffff1916908160001a905350600a86811515611a4157fe5b0495506119b4565b8194505b50505050919050565b611a5e612f46565b611a7b858585856020604051908101604052806000815250612af4565b9050949350505050565b60008060008060009054906101000a900473ffffffffffffffffffffffffffffffffffffffff1673ffffffffffffffffffffffffffffffffffffffff161480611af757506000611af56000809054906101000a900473ffffffffffffffffffffffffffffffffffffffff16612658565b145b15611b0857611b066000612663565b505b6000809054906101000a900473ffffffffffffffffffffffffffffffffffffffff1673ffffffffffffffffffffffffffffffffffffffff166338cc48316000604051602001526040518163ffffffff167c0100000000000000000000000000000000000000000000000000000000028152600401602060405180830381600087803b1515611b9557600080fd5b6102c65a03f11515611ba657600080fd5b5050506040518051905073ffffffffffffffffffffffffffffffffffffffff16600160009054906101000a900473ffffffffffffffffffffffffffffffffffffffff1673ffffffffffffffffffffffffffffffffffffffff16141515611cef576000809054906101000a900473ffffffffffffffffffffffffffffffffffffffff1673ffffffffffffffffffffffffffffffffffffffff166338cc48316000604051602001526040518163ffffffff167c0100000000000000000000000000000000000000000000000000000000028152600401602060405180830381600087803b1515611c9357600080fd5b6102c65a03f11515611ca457600080fd5b50505060405180519050600160006101000a81548173ffffffffffffffffffffffffffffffffffffffff021916908373ffffffffffffffffffffffffffffffffffffffff1602179055505b600160009054906101000a900473ffffffffffffffffffffffffffffffffffffffff1673ffffffffffffffffffffffffffffffffffffffff1663524f3889856000604051602001526040518263ffffffff167c01000000000000000000000000000000000000000000000000000000000281526004018080602001828103825283818151815260200191508051906020019080838360005b83811015611da2578082015181840152602081019050611d87565b50505050905090810190601f168015611dcf5780820380516001836020036101000a031916815260200191505b5092505050602060405180830381600087803b1515611ded57600080fd5b6102c65a03f11515611dfe57600080fd5b50505060405180519050905062030d403a02670de0b6b3a764000001811115611e2d5760006001029150611fc0565b600160009054906101000a900473ffffffffffffffffffffffffffffffffffffffff1673ffffffffffffffffffffffffffffffffffffffff1663adf59f9982600087876000604051602001526040518563ffffffff167c0100000000000000000000000000000000000000000000000000000000028152600401808481526020018060200180602001838103835285818151815260200191508051906020019080838360005b83811015611eee578082015181840152602081019050611ed3565b50505050905090810190601f168015611f1b5780820380516001836020036101000a031916815260200191505b50838103825284818151815260200191508051906020019080838360005b83811015611f54578082015181840152602081019050611f39565b50505050905090810190601f168015611f815780820380516001836020036101000a031916815260200191505b50955050505050506020604051808303818588803b1515611fa157600080fd5b6125ee5a03f11515611fb257600080fd5b505050506040518051905091505b5092915050565b60008060008060009054906101000a900473ffffffffffffffffffffffffffffffffffffffff1673ffffffffffffffffffffffffffffffffffffffff161480612039575060006120376000809054906101000a900473ffffffffffffffffffffffffffffffffffffffff16612658565b145b1561204a576120486000612663565b505b6000809054906101000a900473ffffffffffffffffffffffffffffffffffffffff1673ffffffffffffffffffffffffffffffffffffffff166338cc48316000604051602001526040518163ffffffff167c0100000000000000000000000000000000000000000000000000000000028152600401602060405180830381600087803b15156120d757600080fd5b6102c65a03f115156120e857600080fd5b5050506040518051905073ffffffffffffffffffffffffffffffffffffffff16600160009054906101000a900473ffffffffffffffffffffffffffffffffffffffff1673ffffffffffffffffffffffffffffffffffffffff16141515612231576000809054906101000a900473ffffffffffffffffffffffffffffffffffffffff1673ffffffffffffffffffffffffffffffffffffffff166338cc48316000604051602001526040518163ffffffff167c0100000000000000000000000000000000000000000000000000000000028152600401602060405180830381600087803b15156121d557600080fd5b6102c65a03f115156121e657600080fd5b50505060405180519050600160006101000a81548173ffffffffffffffffffffffffffffffffffffffff021916908373ffffffffffffffffffffffffffffffffffffffff1602179055505b600160009054906101000a900473ffffffffffffffffffffffffffffffffffffffff1673ffffffffffffffffffffffffffffffffffffffff1663524f3889856000604051602001526040518263ffffffff167c01000000000000000000000000000000000000000000000000000000000281526004018080602001828103825283818151815260200191508051906020019080838360005b838110156122e45780820151818401526020810190506122c9565b50505050905090810190601f1680156123115780820380516001836020036101000a031916815260200191505b5092505050602060405180830381600087803b151561232f57600080fd5b6102c65a03f1151561234057600080fd5b50505060405180519050905062030d403a02670de0b6b3a76400000181111561236f5760006001029150612501565b600160009054906101000a900473ffffffffffffffffffffffffffffffffffffffff1673ffffffffffffffffffffffffffffffffffffffff1663adf59f99828787876000604051602001526040518563ffffffff167c0100000000000000000000000000000000000000000000000000000000028152600401808481526020018060200180602001838103835285818151815260200191508051906020019080838360005b8381101561242f578082015181840152602081019050612414565b50505050905090810190601f16801561245c5780820380516001836020036101000a031916815260200191505b50838103825284818151815260200191508051906020019080838360005b8381101561249557808201518184015260208101905061247a565b50505050905090810190601f1680156124c25780820380516001836020036101000a031916815260200191505b50955050505050506020604051808303818588803b15156124e257600080fd5b6125ee5a03f115156124f357600080fd5b505050506040518051905091505b509392505050565b6080604051908101604052808377ffffffffffffffffffffffffffffffffffffffffffffffff191681526020018281526020014267ffffffffffffffff1681526020014267ffffffffffffffff1681525060056000856000191660001916815260200190815260200160002060008201518160000160006101000a81548167ffffffffffffffff02191690837801000000000000000000000000000000000000000000000000900402179055506020820151816001015560408201518160020160006101000a81548167ffffffffffffffff021916908367ffffffffffffffff16021790555060608201518160020160086101000a81548167ffffffffffffffff021916908367ffffffffffffffff160217905550905050505050565b6006805480600101828161263a9190612f6e565b91600052602060002090016000839091909150906000191690555050565b6000813b9050919050565b600080612683731d3b2638a7cc9f2cb3d298a3da7a90b67e5506ed612658565b111561272457731d3b2638a7cc9f2cb3d298a3da7a90b67e5506ed6000806101000a81548173ffffffffffffffffffffffffffffffffffffffff021916908373ffffffffffffffffffffffffffffffffffffffff16021790555061271b6040805190810160405280600b81526020017f6574685f6d61696e6e6574000000000000000000000000000000000000000000815250612f2c565b60019050612aef565b600061274373c03a2615d5efaf5f49f60b7bb6583eaec212fdf1612658565b11156127e45773c03a2615d5efaf5f49f60b7bb6583eaec212fdf16000806101000a81548173ffffffffffffffffffffffffffffffffffffffff021916908373ffffffffffffffffffffffffffffffffffffffff1602179055506127db6040805190810160405280600c81526020017f6574685f726f707374656e330000000000000000000000000000000000000000815250612f2c565b60019050612aef565b600061280373b7a07bcf2ba2f2703b24c0691b5278999c59ac7e612658565b11156128a45773b7a07bcf2ba2f2703b24c0691b5278999c59ac7e6000806101000a81548173ffffffffffffffffffffffffffffffffffffffff021916908373ffffffffffffffffffffffffffffffffffffffff16021790555061289b6040805190810160405280600981526020017f6574685f6b6f76616e0000000000000000000000000000000000000000000000815250612f2c565b60019050612aef565b60006128c373146500cfd35b22e4a392fe0adc06de1a1368ed48612658565b11156129645773146500cfd35b22e4a392fe0adc06de1a1368ed486000806101000a81548173ffffffffffffffffffffffffffffffffffffffff021916908373ffffffffffffffffffffffffffffffffffffffff16021790555061295b6040805190810160405280600b81526020017f6574685f72696e6b656279000000000000000000000000000000000000000000815250612f2c565b60019050612aef565b6000612983736f485c8bf6fc43ea212e93bbf8ce046c7f1cb475612658565b11156129e657736f485c8bf6fc43ea212e93bbf8ce046c7f1cb4756000806101000a81548173ffffffffffffffffffffffffffffffffffffffff021916908373ffffffffffffffffffffffffffffffffffffffff16021790555060019050612aef565b6000612a057320e12a1f859b3feae5fb2a0a32c18f5a65555bbf612658565b1115612a68577320e12a1f859b3feae5fb2a0a32c18f5a65555bbf6000806101000a81548173ffffffffffffffffffffffffffffffffffffffff021916908373ffffffffffffffffffffffffffffffffffffffff16021790555060019050612aef565b6000612a877351efaf4c8b3c9afbd5ab9f4bbc82784ab6ef8faa612658565b1115612aea577351efaf4c8b3c9afbd5ab9f4bbc82784ab6ef8faa6000806101000a81548173ffffffffffffffffffffffffffffffffffffffff021916908373ffffffffffffffffffffffffffffffffffffffff16021790555060019050612aef565b600090505b919050565b612afc612f46565b612b04612f5a565b612b0c612f5a565b612b14612f5a565b612b1c612f5a565b612b24612f5a565b612b2c612f46565b612b34612f5a565b6000808e98508d97508c96508b95508a94508451865188518a518c5101010101604051805910612b615750595b9080825280601f01601f1916602001820160405250935083925060009150600090505b8851811015612c37578881815181101515612b9b57fe5b9060200101517f010000000000000000000000000000000000000000000000000000000000000090047f0100000000000000000000000000000000000000000000000000000000000000028383806001019450815181101515612bfa57fe5b9060200101907effffffffffffffffffffffffffffffffffffffffffffffffffffffffffffff1916908160001a9053508080600101915050612b84565b600090505b8751811015612cef578781815181101515612c5357fe5b9060200101517f010000000000000000000000000000000000000000000000000000000000000090047f0100000000000000000000000000000000000000000000000000000000000000028383806001019450815181101515612cb257fe5b9060200101907effffffffffffffffffffffffffffffffffffffffffffffffffffffffffffff1916908160001a9053508080600101915050612c3c565b600090505b8651811015612da7578681815181101515612d0b57fe5b9060200101517f010000000000000000000000000000000000000000000000000000000000000090047f0100000000000000000000000000000000000000000000000000000000000000028383806001019450815181101515612d6a57fe5b9060200101907effffffffffffffffffffffffffffffffffffffffffffffffffffffffffffff1916908160001a9053508080600101915050612cf4565b600090505b8551811015612e5f578581815181101515612dc357fe5b9060200101517f010000000000000000000000000000000000000000000000000000000000000090047f0100000000000000000000000000000000000000000000000000000000000000028383806001019450815181101515612e2257fe5b9060200101907effffffffffffffffffffffffffffffffffffffffffffffffffffffffffffff1916908160001a9053508080600101915050612dac565b600090505b8451811015612f17578481815181101515612e7b57fe5b9060200101517f010000000000000000000000000000000000000000000000000000000000000090047f0100000000000000000000000000000000000000000000000000000000000000028383806001019450815181101515612eda57fe5b9060200101907effffffffffffffffffffffffffffffffffffffffffffffffffffffffffffff1916908160001a9053508080600101915050612e64565b82995050505050505050505095945050505050565b8060029080519060200190612f42929190612f9a565b5050565b602060405190810160405280600081525090565b602060405190810160405280600081525090565b815481835581811511612f9557818360005260206000209182019101612f94919061301a565b5b505050565b828054600181600116156101000203166002900490600052602060002090601f016020900481019282601f10612fdb57805160ff1916838001178555613009565b82800160010185558215613009579182015b82811115613008578251825591602001919060010190612fed565b5b509050613016919061303f565b5090565b61303c91905b80821115613038576000816000905550600101613020565b5090565b90565b61306191905b8082111561305d576000816000905550600101613045565b5090565b905600a165627a7a7230582013c3ddd99c1fd70459e052b4e1548773691964fff165e85011372801177dd71e0029",
  "source": "/* Copyright (C) 2017 GovBlocks.io\r\n\r\n  This program is free software: you can redistribute it and/or modify\r\n    it under the terms of the GNU General Public License as published by\r\n    the Free Software Foundation, either version 3 of the License, or\r\n    (at your option) any later version.\r\n\r\n  This program is distributed in the hope that it will be useful,\r\n    but WITHOUT ANY WARRANTY; without even the implied warranty of\r\n    MERCHANTABILITY or FITNESS FOR A PARTICULAR PURPOSE.  See the\r\n    GNU General Public License for more details.\r\n\r\n  You should have received a copy of the GNU General Public License\r\n    along with this program.  If not, see http://www.gnu.org/licenses/ */\r\n\r\npragma solidity ^0.4.8;\r\n\r\nimport \"./Master.sol\";\r\nimport \"./SafeMath.sol\";\r\n// import \"github.com/oraclize/ethereum-api/oraclizeAPI_0.4.sol\";\r\nimport \"./oraclizeAPI_0.4.sol\";\r\n\r\ncontract Pool is usingOraclize\r\n{\r\n    event closeProposal(uint256 indexed proposalId,uint256 closingTime,string URL);\r\n    event apiresult(address indexed sender,string msg,bytes32 myid);\r\n    using SafeMath for uint;\r\n\r\n    struct apiId\r\n    {\r\n        bytes8 type_of;\r\n        uint proposalId;\r\n        uint64 dateAdd;\r\n        uint64 dateUpd;\r\n    }\r\n\r\n    mapping(bytes32=>apiId) public allAPIid;\r\n    bytes32[] public allAPIcall;\r\n    address masterAddress;\r\n    Master MS;\r\n\r\n    function () payable {}\r\n\r\n    /// @dev Changes master address\r\n    /// @param _add New master address\r\n    function changeMasterAddress(address _add)\r\n    {\r\n        if(masterAddress == 0x000)\r\n            masterAddress = _add;\r\n        else\r\n        {\r\n            MS=Master(masterAddress);\r\n            if(MS.isInternal(msg.sender) == true)\r\n                masterAddress = _add;\r\n            else\r\n                throw;\r\n        }\r\n     \r\n    }\r\n\r\n    modifier onlyInternal {\r\n        MS=Master(masterAddress);\r\n        require(MS.isInternal(msg.sender) == true);\r\n        _; \r\n    }\r\n    \r\n    modifier onlyOwner {\r\n        MS=Master(masterAddress);\r\n        require(MS.isOwner(msg.sender) == true);\r\n        _; \r\n    }\r\n\r\n    /// @dev Closes proposal using oraclize\r\n    /// @param _proposalId Proposal id\r\n    /// @param _closingTime Closing time of proposal\r\n    function closeProposalOraclise(uint _proposalId , uint _closingTime) \r\n    {\r\n        uint index = getApilCall_length(); bytes32 myid2;\r\n        MS=Master(masterAddress);\r\n\r\n        if (_closingTime == 0)\r\n            myid2 = oraclize_query(\"URL\",strConcat(\"http://a1.govblocks.io/closeProposalVoting.js/42/\",bytes32ToString(MS.DappName()),\"/\",uint2str(index)));\r\n        else\r\n            myid2 = oraclize_query(_closingTime,\"URL\",strConcat(\"http://a1.govblocks.io/closeProposalVoting.js/42/\",bytes32ToString(MS.DappName()),\"/\",uint2str(index)));\r\n        \r\n        uint closeTime = now + _closingTime;\r\n        closeProposal(_proposalId,closeTime,strConcat(\"http://a1.govblocks.io/closeProposalVoting.js/42/\",bytes32ToString(MS.DappName()),\"/\",uint2str(index)));\r\n        saveApiDetails(myid2,\"PRO\",_proposalId);\r\n        addInAllApiCall(myid2);\r\n    }\r\n\r\n    /// @dev Saves api details\r\n    /// @param myid Proposal id\r\n    /// @param _typeof Type of proposal\r\n    /// @param id Api id\r\n    function saveApiDetails(bytes32 myid,bytes8 _typeof,uint id) internal\r\n    {\r\n        allAPIid[myid] = apiId(_typeof,id,uint64(now),uint64(now));\r\n    }\r\n\r\n    /// @dev Adds id in all api call\r\n    /// @param myid Proposal id\r\n    function addInAllApiCall(bytes32 myid) internal\r\n    {\r\n        allAPIcall.push(myid);\r\n    }\r\n\r\n    /// @dev Gets api call of index\r\n    /// @param index Index to call\r\n    /// @return myid Id with respect to index\r\n    function getApiCall_Index(uint index) constant returns(bytes32 myid)\r\n    {\r\n        myid = allAPIcall[index];\r\n    }\r\n\r\n    /// @dev Gets api calls' length\r\n    /// @return len Length of api calls\r\n    function getApilCall_length() constant returns(uint len)\r\n    {\r\n        return allAPIcall.length;\r\n    }\r\n\r\n    /// @dev Gets api call details of given id\r\n    /// @param myid Id of api\r\n    /// @return _typeof Type of proposal\r\n    /// @return id Id of api\r\n    /// @return dateAdd Date proposal was added \r\n    /// @return dateUpd Date proposal was updated\r\n    function getApiCallDetails(bytes32 myid)constant returns(bytes8 _typeof,uint id,uint64 dateAdd,uint64 dateUpd)\r\n    {\r\n        return(allAPIid[myid].type_of,allAPIid[myid].proposalId,allAPIid[myid].dateAdd,allAPIid[myid].dateUpd);\r\n    }\r\n\r\n    /// @dev Gets type of proposal wrt api id\r\n    /// @param myid Id of api\r\n    /// @return _typeof Type of proposal\r\n    function getApiIdTypeOf(bytes32 myid)constant returns(bytes16 _typeof)\r\n    {\r\n        _typeof=allAPIid[myid].type_of;\r\n    }\r\n\r\n    /// @dev Gets proposal id of api id\r\n    /// @param myid Api id\r\n    /// @return id1 Proposal id\r\n    function getProposalIdOfApiId(bytes32 myid)constant returns(uint id1)\r\n    {\r\n        id1 = allAPIid[myid].proposalId;\r\n    }\r\n    \r\n    /// @dev Callback function of Oraclize\r\n    /// @param myid Api id\r\n    /// @param res Result string\r\n    function __callback(bytes32 myid, string res) \r\n    {\r\n        MS=Master(masterAddress);\r\n        if(msg.sender != oraclize_cbAddress() && MS.isOwner(msg.sender)!= true) throw;\r\n        allAPIid[myid].dateUpd = uint64(now);\r\n    }\r\n    \r\n    /// @dev Transfers back ether\r\n    /// @param amount Amount to be transferred back\r\n    function transferBackEther(uint256 amount) onlyOwner\r\n    {\r\n        address _add=msg.sender;\r\n        bool succ = _add.send(amount);  \r\n    }\r\n\r\n    /// @dev Byte32 to string\r\n    /// @param x Byte32 to be converted to string\r\n    /// @return bytesStringTrimmed Resultant string \r\n   function bytes32ToString(bytes32 x) constant returns (string) {\r\n        bytes memory bytesString = new bytes(32);\r\n        uint charCount = 0;\r\n        for (uint j = 0; j < 32; j++) {\r\n            byte char = byte(bytes32(uint(x) * 2 ** (8 * j)));\r\n            if (char != 0) {\r\n                bytesString[charCount] = char;\r\n                charCount++;\r\n            }\r\n        }\r\n        bytes memory bytesStringTrimmed = new bytes(charCount);\r\n        for (j = 0; j < charCount; j++) {\r\n            bytesStringTrimmed[j] = bytesString[j];\r\n        }\r\n        return string(bytesStringTrimmed);\r\n    }\r\n\r\n    /// @dev Gets proposal index by proposal id\r\n    /// @param _proposalId Proposal id\r\n    /// @return myIndexId Proposal index of corresponding proposal id\r\n    function getMyIndexByProposalId(uint _proposalId) constant returns(uint myIndexId)\r\n    {\r\n        uint length = getApilCall_length();\r\n        for(uint i=0; i<length; i++)\r\n        {\r\n            bytes32 myid = getApiCall_Index(i);\r\n            uint propId = getProposalIdOfApiId(myid);\r\n            if(_proposalId == propId)\r\n                myIndexId = i;\r\n        }\r\n    }\r\n\r\n\r\n}",
  "sourcePath": "D:\\RUCHITA\\GovBlocks-Protocol Access-Modifiers\\contracts\\Pool.sol",
  "compiler": {
    "name": "solc",
    "version": "0.4.18+commit.9cf6e910.Emscripten.clang"
  },
  "schemaVersion": "1.0.1",
  "updatedAt": "2018-04-26T12:00:44.158Z"
}