{
  "contractName": "ProposalCategory",
  "abi": [
    {
      "constant": true,
      "inputs": [
        {
          "name": "_categoryId",
          "type": "uint256"
        },
        {
          "name": "_index",
          "type": "uint256"
        }
      ],
      "name": "getRoleMajorityVote",
      "outputs": [
        {
          "name": "majorityVote",
          "type": "uint256"
        }
      ],
      "payable": false,
      "stateMutability": "view",
      "type": "function"
    },
    {
      "constant": true,
      "inputs": [
        {
          "name": "_categoryId",
          "type": "uint256"
        }
      ],
      "name": "getRoleSequencLength",
      "outputs": [
        {
          "name": "roleLength",
          "type": "uint256"
        }
      ],
      "payable": false,
      "stateMutability": "view",
      "type": "function"
    },
    {
      "constant": false,
      "inputs": [
        {
          "name": "_categoryId",
          "type": "uint256"
        },
        {
          "name": "_functionName",
          "type": "string"
        },
        {
          "name": "_contractAt",
          "type": "address"
        },
        {
          "name": "_paramInt",
          "type": "uint8"
        },
        {
          "name": "_paramBytes32",
          "type": "uint8"
        },
        {
          "name": "_paramAddress",
          "type": "uint8"
        },
        {
          "name": "_memberRoleSequence",
          "type": "uint8[]"
        },
        {
          "name": "_memberRoleMajorityVote",
          "type": "uint256[]"
        }
      ],
      "name": "updateCategory",
      "outputs": [
        {
          "name": "",
          "type": "string"
        }
      ],
      "payable": false,
      "stateMutability": "nonpayable",
      "type": "function"
    },
    {
      "constant": false,
      "inputs": [
        {
          "name": "_uintParamName",
          "type": "bytes32[]"
        },
        {
          "name": "_bytesParamName",
          "type": "bytes32[]"
        },
        {
          "name": "_addressParamName",
          "type": "bytes32[]"
        },
        {
          "name": "_paramInt",
          "type": "uint8"
        },
        {
          "name": "_paramBytes32",
          "type": "uint8"
        },
        {
          "name": "_paramAddress",
          "type": "uint8"
        },
        {
          "name": "_memberRoleSequence",
          "type": "uint8[]"
        },
        {
          "name": "_memberRoleMajorityVote",
          "type": "uint256[]"
        }
      ],
      "name": "addNewCategory1",
      "outputs": [],
      "payable": false,
      "stateMutability": "nonpayable",
      "type": "function"
    },
    {
      "constant": false,
      "inputs": [
        {
          "name": "_categoryName",
          "type": "string"
        },
        {
          "name": "_functionName",
          "type": "string"
        },
        {
          "name": "_contractAt",
          "type": "address"
        },
        {
          "name": "_paramInt",
          "type": "uint8"
        },
        {
          "name": "_paramBytes32",
          "type": "uint8"
        },
        {
          "name": "_paramAddress",
          "type": "uint8"
        },
        {
          "name": "_memberRoleSequence",
          "type": "uint8[]"
        },
        {
          "name": "_memberRoleMajorityVote",
          "type": "uint256[]"
        },
        {
          "name": "_uintParamName",
          "type": "bytes32[]"
        },
        {
          "name": "_bytesParamName",
          "type": "bytes32[]"
        },
        {
          "name": "_addressParamName",
          "type": "bytes32[]"
        }
      ],
      "name": "addNewCategory",
      "outputs": [
        {
          "name": "roleId",
          "type": "uint256"
        }
      ],
      "payable": false,
      "stateMutability": "nonpayable",
      "type": "function"
    },
    {
      "constant": true,
      "inputs": [
        {
          "name": "_categoryId",
          "type": "uint256"
        },
        {
          "name": "_index",
          "type": "uint256"
        }
      ],
      "name": "getRoleSequencAtIndex",
      "outputs": [
        {
          "name": "roleId",
          "type": "uint256"
        },
        {
          "name": "functionName",
          "type": "string"
        },
        {
          "name": "contractAt",
          "type": "address"
        },
        {
          "name": "paramInt",
          "type": "uint8"
        },
        {
          "name": "paramBytes32",
          "type": "uint8"
        },
        {
          "name": "paramAddress",
          "type": "uint8"
        },
        {
          "name": "memberRoleSequence",
          "type": "uint8[]"
        },
        {
          "name": "memberRoleMajorityVote",
          "type": "uint256[]"
        }
      ],
      "payable": false,
      "stateMutability": "view",
      "type": "function"
    },
    {
      "constant": true,
      "inputs": [
        {
          "name": "_categoryId",
          "type": "uint256"
        },
        {
          "name": "_categoryId",
          "type": "uint256"
        }
      ],
      "name": "getCategoryDetails",
      "outputs": [
        {
          "name": "categoryName",
          "type": "string"
        },
        {
          "name": "functionName",
          "type": "string"
        },
        {
          "name": "contractAt",
          "type": "address"
        },
        {
          "name": "paramInt",
          "type": "uint8"
        },
        {
          "name": "paramBytes32",
          "type": "uint8"
        },
        {
          "name": "paramAddress",
          "type": "uint8"
        },
        {
          "name": "memberRoleSequence",
          "type": "uint8[]"
        },
        {
          "name": "memberRoleMajorityVote",
          "type": "uint256[]"
        }
      ],
      "payable": false,
      "stateMutability": "view",
      "type": "function"
    },
    {
      "constant": false,
      "inputs": [
        {
          "name": "_proposalId",
          "type": "uint256"
        },
        {
          "name": "_categoryId",
          "type": "uint256"
        }
      ],
      "name": "actionAfterProposalPass",
      "outputs": [
        {
          "name": "categoryName",
          "type": "string"
        },
        {
          "name": "functionName",
          "type": "string"
        },
        {
          "name": "contractAt",
          "type": "address"
        },
        {
          "name": "paramInt",
          "type": "uint8"
        },
        {
          "name": "paramBytes32",
          "type": "uint8"
        },
        {
          "name": "paramAddress",
          "type": "uint8"
        }
      ],
      "payable": false,
      "stateMutability": "nonpayable",
      "type": "function"
    },
    {
      "constant": true,
      "inputs": [
        {
          "name": "",
          "type": "uint256"
        }
      ],
      "name": "allCategory",
      "outputs": [
        {
          "name": "categoryName",
          "type": "string"
        },
        {
          "name": "functionName",
          "type": "string"
        },
        {
          "name": "contractAt",
          "type": "address"
        },
        {
          "name": "paramInt",
          "type": "uint8"
        },
        {
          "name": "paramBytes32",
          "type": "uint8"
        },
        {
          "name": "paramAddress",
          "type": "uint8"
        }
      ],
      "payable": false,
      "stateMutability": "view",
      "type": "function"
    },
    {
      "constant": true,
      "inputs": [],
      "name": "getCategoriesLength",
      "outputs": [
        {
          "name": "length",
          "type": "uint256"
        }
      ],
      "payable": false,
      "stateMutability": "view",
      "type": "function"
    }
  ],
  "bytecode": "0x6060604052341561000f57600080fd5b611b3e8061001e6000396000f3006060604052600436106100a4576000357c0100000000000000000000000000000000000000000000000000000000900463ffffffff16806302e929c8146100a957806318b0211b146100e95780631d10a973146101205780638466ca951461024957806393abb969146103235780639deeab2014610546578063b0a4aaee14610586578063db0c4f7914610778578063dff5f322146107a4578063f6d9615f14610940575b600080fd5b34156100b457600080fd5b6100d36004808035906020019091908035906020019091905050610969565b6040518082815260200191505060405180910390f35b34156100f457600080fd5b61010a60048080359060200190919050506109ab565b6040518082815260200191505060405180910390f35b341561012b57600080fd5b610247600480803590602001909190803590602001908201803590602001908080601f0160208091040260200160405190810160405280939291908181526020018383808284378201915050505050509190803573ffffffffffffffffffffffffffffffffffffffff1690602001909190803560ff1690602001909190803560ff1690602001909190803560ff1690602001909190803590602001908201803590602001908080602002602001604051908101604052809392919081815260200183836020028082843782019150505050505091908035906020019082018035906020019080806020026020016040519081016040528093929190818152602001838360200280828437820191505050505050919050506109d7565b005b341561025457600080fd5b6103216004808035906020019082018035906020019080806020026020016040519081016040528093929190818152602001838360200280828437820191505050505050919080359060200190820180359060200190808060200260200160405190810160405280939291908181526020018383602002808284378201915050505050509190803590602001908201803590602001908080602002602001604051908101604052809392919081815260200183836020028082843782019150505050505091905050610cb9565b005b341561032e57600080fd5b610544600480803590602001908201803590602001908080601f0160208091040260200160405190810160405280939291908181526020018383808284378201915050505050509190803590602001908201803590602001908080601f0160208091040260200160405190810160405280939291908181526020018383808284378201915050505050509190803573ffffffffffffffffffffffffffffffffffffffff1690602001909190803560ff1690602001909190803560ff1690602001909190803560ff169060200190919080359060200190820180359060200190808060200260200160405190810160405280939291908181526020018383602002808284378201915050505050509190803590602001908201803590602001908080602002602001604051908101604052809392919081815260200183836020028082843782019150505050505091908035906020019082018035906020019080806020026020016040519081016040528093929190818152602001838360200280828437820191505050505050919080359060200190820180359060200190808060200260200160405190810160405280939291908181526020018383602002808284378201915050505050509190803590602001908201803590602001908080602002602001604051908101604052809392919081815260200183836020028082843782019150505050505091905050610e3d565b005b341561055157600080fd5b6105706004808035906020019091908035906020019091905050611009565b6040518082815260200191505060405180910390f35b341561059157600080fd5b6105a76004808035906020019091905050611062565b6040518080602001806020018973ffffffffffffffffffffffffffffffffffffffff1673ffffffffffffffffffffffffffffffffffffffff1681526020018860ff1660ff1681526020018760ff1660ff1681526020018660ff1660ff168152602001806020018060200185810385528d818151815260200191508051906020019080838360005b8381101561064957808201518184015260208101905061062e565b50505050905090810190601f1680156106765780820380516001836020036101000a031916815260200191505b5085810384528c818151815260200191508051906020019080838360005b838110156106af578082015181840152602081019050610694565b50505050905090810190601f1680156106dc5780820380516001836020036101000a031916815260200191505b50858103835287818151815260200191508051906020019060200280838360005b838110156107185780820151818401526020810190506106fd565b50505050905001858103825286818151815260200191508051906020019060200280838360005b8381101561075a57808201518184015260208101905061073f565b505050509050019c5050505050505050505050505060405180910390f35b341561078357600080fd5b6107a260048080359060200190919080359060200190919050506113e4565b005b34156107af57600080fd5b6107c56004808035906020019091905050611525565b6040518080602001806020018773ffffffffffffffffffffffffffffffffffffffff1673ffffffffffffffffffffffffffffffffffffffff1681526020018660ff1660ff1681526020018560ff1660ff1681526020018460ff1660ff1681526020018381038352898181546001816001161561010002031660029004815260200191508054600181600116156101000203166002900480156108a85780601f1061087d576101008083540402835291602001916108a8565b820191906000526020600020905b81548152906001019060200180831161088b57829003601f168201915b505083810382528881815460018160011615610100020316600290048152602001915080546001816001161561010002031660029004801561092b5780601f106109005761010080835404028352916020019161092b565b820191906000526020600020905b81548152906001019060200180831161090e57829003601f168201915b50509850505050505050505060405180910390f35b341561094b57600080fd5b6109536115b5565b6040518082815260200191505060405180910390f35b6000808381548110151561097957fe5b90600052602060002090600502016004018281548110151561099757fe5b906000526020600020900154905092915050565b600080828154811015156109bb57fe5b9060005260206000209060050201600301805490509050919050565b6000815183511415156109e957600080fd5b8760008a8154811015156109f957fe5b90600052602060002090600502016001019080519060200190610a1d9291906115c1565b508660008a815481101515610a2e57fe5b906000526020600020906005020160020160006101000a81548173ffffffffffffffffffffffffffffffffffffffff021916908373ffffffffffffffffffffffffffffffffffffffff1602179055508560008a815481101515610a8d57fe5b906000526020600020906005020160020160146101000a81548160ff021916908360ff1602179055508460008a815481101515610ac657fe5b906000526020600020906005020160020160156101000a81548160ff021916908360ff1602179055508360008a815481101515610aff57fe5b906000526020600020906005020160020160166101000a81548160ff021916908360ff1602179055508251604051805910610b375750595b908082528060200260200182016040525060008a815481101515610b5757fe5b90600052602060002090600502016003019080519060200190610b7b929190611641565b508151604051805910610b8b5750595b908082528060200260200182016040525060008a815481101515610bab57fe5b90600052602060002090600502016004019080519060200190610bcf9291906116e8565b50600090505b8251811015610cae578281815181101515610bec57fe5b9060200190602002015160008a815481101515610c0557fe5b906000526020600020906005020160030182815481101515610c2357fe5b90600052602060002090602091828204019190066101000a81548160ff021916908360ff1602179055508181815181101515610c5b57fe5b9060200190602002015160008a815481101515610c7457fe5b906000526020600020906005020160040182815481101515610c9257fe5b9060005260206000209001819055508080600101915050610bd5565b505050505050505050565b60008090505b8351811015610d395760018054806001018281610cdc9190611735565b916000526020600020900160006020604051908101604052808886815181101515610d0357fe5b90602001906020020151600019168152509091909150600082015181600001906000191690555050508080600101915050610cbf565b600090505b8251811015610db85760028054806001018281610d5b9190611735565b916000526020600020900160006020604051908101604052808786815181101515610d8257fe5b90602001906020020151600019168152509091909150600082015181600001906000191690555050508080600101915050610d3e565b600090505b8151811015610e375760038054806001018281610dda9190611735565b916000526020600020900160006020604051908101604052808686815181101515610e0157fe5b90602001906020020151600019168152509091909150600082015181600001906000191690555050508080600101915050610dbd565b50505050565b83518551141515610e4d57600080fd5b610e58838383610cb9565b60008054806001018281610e6c9190611761565b91600052602060002090600502016000610100604051908101604052808f81526020018e81526020018d73ffffffffffffffffffffffffffffffffffffffff1681526020018c60ff1681526020018b60ff1681526020018a60ff1681526020018981526020018881525090919091506000820151816000019080519060200190610ef7929190611793565b506020820151816001019080519060200190610f14929190611793565b5060408201518160020160006101000a81548173ffffffffffffffffffffffffffffffffffffffff021916908373ffffffffffffffffffffffffffffffffffffffff16021790555060608201518160020160146101000a81548160ff021916908360ff16021790555060808201518160020160156101000a81548160ff021916908360ff16021790555060a08201518160020160166101000a81548160ff021916908360ff16021790555060c0820151816003019080519060200190610fdb929190611813565b5060e0820151816004019080519060200190610ff89291906118ba565b505050505050505050505050505050565b6000808381548110151561101957fe5b90600052602060002090600502016003018281548110151561103757fe5b90600052602060002090602091828204019190069054906101000a900460ff1660ff16905092915050565b61106a611907565b611072611907565b60008060008061108061191b565b61108861192f565b60008981548110151561109757fe5b90600052602060002090600502016000018054600181600116156101000203166002900480601f01602080910402602001604051908101604052809291908181526020018280546001816001161561010002031660029004801561113c5780601f106111115761010080835404028352916020019161113c565b820191906000526020600020905b81548152906001019060200180831161111f57829003601f168201915b5050505050975060008981548110151561115257fe5b90600052602060002090600502016001018054600181600116156101000203166002900480601f0160208091040260200160405190810160405280929190818152602001828054600181600116156101000203166002900480156111f75780601f106111cc576101008083540402835291602001916111f7565b820191906000526020600020905b8154815290600101906020018083116111da57829003601f168201915b5050505050965060008981548110151561120d57fe5b906000526020600020906005020160020160009054906101000a900473ffffffffffffffffffffffffffffffffffffffff16955060008981548110151561125057fe5b906000526020600020906005020160020160149054906101000a900460ff16945060008981548110151561128057fe5b906000526020600020906005020160020160159054906101000a900460ff1693506000898154811015156112b057fe5b906000526020600020906005020160020160169054906101000a900460ff1692506000898154811015156112e057fe5b906000526020600020906005020160030180548060200260200160405190810160405280929190818152602001828054801561136157602002820191906000526020600020906000905b82829054906101000a900460ff1660ff168152602001906001019060208260000104928301926001038202915080841161132a5790505b5050505050915060008981548110151561137757fe5b90600052602060002090600502016004018054806020026020016040519081016040528092919081815260200182805480156113d257602002820191906000526020600020905b8154815260200190600101908083116113be575b50505050509050919395975091939597565b60006113ef82611062565b909192939495965090919293949550909192935090919250909150905050809150508073ffffffffffffffffffffffffffffffffffffffff1660008381548110151561143757fe5b906000526020600020906005020160010160405180828054600181600116156101000203166002900480156114a35780601f106114815761010080835404028352918201916114a3565b820191906000526020600020905b81548152906001019060200180831161148f575b505091505060405180910390207c01000000000000000000000000000000000000000000000000000000009004846040518263ffffffff167c01000000000000000000000000000000000000000000000000000000000281526004018082815260200191505060006040518083038160008761646e5a03f19250505050505050565b60008181548110151561153457fe5b9060005260206000209060050201600091509050806000019080600101908060020160009054906101000a900473ffffffffffffffffffffffffffffffffffffffff16908060020160149054906101000a900460ff16908060020160159054906101000a900460ff16908060020160169054906101000a900460ff16905086565b60008080549050905090565b828054600181600116156101000203166002900490600052602060002090601f016020900481019282601f1061160257805160ff1916838001178555611630565b82800160010185558215611630579182015b8281111561162f578251825591602001919060010190611614565b5b50905061163d9190611943565b5090565b82805482825590600052602060002090601f016020900481019282156116d75791602002820160005b838211156116a857835183826101000a81548160ff021916908360ff160217905550926020019260010160208160000104928301926001030261166a565b80156116d55782816101000a81549060ff02191690556001016020816000010492830192600103026116a8565b505b5090506116e49190611968565b5090565b828054828255906000526020600020908101928215611724579160200282015b82811115611723578251825591602001919060010190611708565b5b5090506117319190611943565b5090565b81548183558181151161175c5781836000526020600020918201910161175b9190611998565b5b505050565b81548183558181151161178e5760050281600502836000526020600020918201910161178d91906119bf565b5b505050565b828054600181600116156101000203166002900490600052602060002090601f016020900481019282601f106117d457805160ff1916838001178555611802565b82800160010185558215611802579182015b828111156118015782518255916020019190600101906117e6565b5b50905061180f9190611943565b5090565b82805482825590600052602060002090601f016020900481019282156118a95791602002820160005b8382111561187a57835183826101000a81548160ff021916908360ff160217905550926020019260010160208160000104928301926001030261183c565b80156118a75782816101000a81549060ff021916905560010160208160000104928301926001030261187a565b505b5090506118b69190611968565b5090565b8280548282559060005260206000209081019282156118f6579160200282015b828111156118f55782518255916020019190600101906118da565b5b5090506119039190611943565b5090565b602060405190810160405280600081525090565b602060405190810160405280600081525090565b602060405190810160405280600081525090565b61196591905b80821115611961576000816000905550600101611949565b5090565b90565b61199591905b8082111561199157600081816101000a81549060ff02191690555060010161196e565b5090565b90565b6119bc91905b808211156119b8576000808201600090555060010161199e565b5090565b90565b611a7e91905b80821115611a7a57600080820160006119de9190611a81565b6001820160006119ee9190611a81565b6002820160006101000a81549073ffffffffffffffffffffffffffffffffffffffff02191690556002820160146101000a81549060ff02191690556002820160156101000a81549060ff02191690556002820160166101000a81549060ff0219169055600382016000611a619190611ac9565b600482016000611a719190611af1565b506005016119c5565b5090565b90565b50805460018160011615610100020316600290046000825580601f10611aa75750611ac6565b601f016020900490600052602060002090810190611ac59190611943565b5b50565b50805460008255601f016020900490600052602060002090810190611aee9190611943565b50565b5080546000825590600052602060002090810190611b0f9190611943565b505600a165627a7a723058203880600673a055d8e07b8c9fece3773d3c71dc4ce091a2a2becb1e658bd4928c0029",
  "source": "/* Copyright (C) 2017 GovBlocks.io\r\n\r\n  This program is free software: you can redistribute it and/or modify\r\n    it under the terms of the GNU General Public License as published by\r\n    the Free Software Foundation, either version 3 of the License, or\r\n    (at your option) any later version.\r\n\r\n  This program is distributed in the hope that it will be useful,\r\n    but WITHOUT ANY WARRANTY; without even the implied warranty of\r\n    MERCHANTABILITY or FITNESS FOR A PARTICULAR PURPOSE.  See the\r\n    GNU General Public License for more details.\r\n\r\n  You should have received a copy of the GNU General Public License\r\n    along with this program.  If not, see http://www.gnu.org/licenses/ */\r\npragma solidity ^0.4.8;\r\ncontract ProposalCategory\r\n{\r\n    struct category{\r\n        string categoryName;\r\n        string functionName;\r\n        address contractAt;\r\n        uint8 paramInt;\r\n        uint8 paramBytes32;\r\n        uint8 paramAddress;\r\n        uint8[] memberRoleSequence;\r\n        uint[] memberRoleMajorityVote;\r\n    }\r\n\r\n    struct categoryParams\r\n    {\r\n        bytes32 parameterName;\r\n    }\r\n\r\n    category[] public allCategory;\r\n\r\n    categoryParams[] uintParam;\r\n    categoryParams[] bytesParam;\r\n    categoryParams[] addressParam;\r\n\r\n    /// @dev Gets the total number of categories.\r\n    function getCategoriesLength() constant returns (uint length)\r\n    {\r\n        length = allCategory.length;\r\n    }\r\n\r\n    /// @dev Gets category details by category id.\r\n    function getCategoryDetails(uint _categoryId) public constant returns (string categoryName,string functionName,address contractAt,uint8 paramInt,uint8 paramBytes32,uint8 paramAddress,uint8[] memberRoleSequence,uint[] memberRoleMajorityVote)\r\n    {    \r\n        categoryName = allCategory[_categoryId].categoryName;\r\n        functionName = allCategory[_categoryId].functionName;\r\n        contractAt = allCategory[_categoryId].contractAt;\r\n        paramInt = allCategory[_categoryId].paramInt;\r\n        paramBytes32 = allCategory[_categoryId].paramBytes32;\r\n        paramAddress = allCategory[_categoryId].paramAddress;\r\n        memberRoleSequence = allCategory[_categoryId].memberRoleSequence;\r\n        memberRoleMajorityVote = allCategory[_categoryId].memberRoleMajorityVote;\r\n    } \r\n    \r\n    /// @dev Get majority vote value for each voting level.\r\n    function getRoleMajorityVote(uint _categoryId,uint _index) constant returns(uint majorityVote)\r\n    {\r\n        return allCategory[_categoryId].memberRoleMajorityVote[_index];\r\n    }\r\n    \r\n    /// @dev Get the length of voting levels against given proposal.\r\n    function getRoleSequencLength(uint _categoryId) constant returns(uint roleLength)\r\n    {\r\n        return allCategory[_categoryId].memberRoleSequence.length;\r\n    }\r\n    /// @dev Get the next Roleid to cast vote against proposal, according to the sequence defined.\r\n    function getRoleSequencAtIndex(uint _categoryId,uint _index) constant returns(uint roleId)\r\n    {\r\n        return allCategory[_categoryId].memberRoleSequence[_index];\r\n    }\r\n    /// @dev Adds a new category.\r\n    function addNewCategory(string _categoryName,string _functionName,address _contractAt,uint8 _paramInt,uint8 _paramBytes32,uint8 _paramAddress,uint8[] _memberRoleSequence,uint[] _memberRoleMajorityVote,bytes32[] _uintParamName,bytes32[] _bytesParamName,bytes32[] _addressParamName) public\r\n    {\r\n        require(_memberRoleSequence.length == _memberRoleMajorityVote.length);\r\n        addNewCategory1(_uintParamName,_bytesParamName,_addressParamName);\r\n        allCategory.push(category(_categoryName,_functionName,_contractAt,_paramInt,_paramBytes32,_paramAddress,_memberRoleSequence,_memberRoleMajorityVote));\r\n    }\r\n    /// @dev Added Parameter's name required for a category.\r\n    function addNewCategory1(bytes32[] _uintParamName,bytes32[] _bytesParamName,bytes32[] _addressParamName)\r\n    {\r\n        for(uint i=0; i<_uintParamName.length; i++)\r\n        {\r\n            uintParam.push(categoryParams(_uintParamName[i]));\r\n        }\r\n\r\n        for(i=0; i<_bytesParamName.length; i++)\r\n        {\r\n            bytesParam.push(categoryParams(_bytesParamName[i]));\r\n        }\r\n\r\n        for(i=0; i<_addressParamName.length; i++)\r\n        {\r\n            addressParam.push(categoryParams(_addressParamName[i]));\r\n        }\r\n\r\n    }\r\n    /// @dev Updates a category details\r\n    function updateCategory(uint _categoryId,string _functionName,address _contractAt,uint8 _paramInt,uint8 _paramBytes32,uint8 _paramAddress,uint8[] _memberRoleSequence,uint[] _memberRoleMajorityVote) public\r\n    {\r\n        require(_memberRoleSequence.length == _memberRoleMajorityVote.length);\r\n        allCategory[_categoryId].functionName = _functionName;\r\n        allCategory[_categoryId].contractAt = _contractAt;\r\n        allCategory[_categoryId].paramInt = _paramInt;\r\n        allCategory[_categoryId].paramBytes32 = _paramBytes32; \r\n        allCategory[_categoryId].paramAddress = _paramAddress;\r\n\r\n        allCategory[_categoryId].memberRoleSequence=new uint8[](_memberRoleSequence.length);\r\n        allCategory[_categoryId].memberRoleMajorityVote=new uint[](_memberRoleMajorityVote.length);\r\n\r\n        for(uint i=0; i<_memberRoleSequence.length; i++)\r\n        {\r\n            allCategory[_categoryId].memberRoleSequence[i] =_memberRoleSequence[i];\r\n            allCategory[_categoryId].memberRoleMajorityVote[i] = _memberRoleMajorityVote[i];\r\n        }\r\n    }\r\n    /// @dev function to be called after proposal pass\r\n    function actionAfterProposalPass(uint _proposalId,uint _categoryId) public\r\n    {\r\n        address contractAt;\r\n        (,,contractAt,,,,,) = getCategoryDetails(_categoryId);\r\n        contractAt.call(bytes4(sha3(allCategory[_categoryId].functionName)),_proposalId);\r\n    }\r\n\r\n}",
  "sourcePath": "D:\\2. GovBlocks Contracts\\GovBlocks Git-Master\\contracts\\ProposalCategory.sol",
  "compiler": {
    "name": "solc",
    "version": "0.4.18+commit.9cf6e910.Emscripten.clang"
  },
  "schemaVersion": "1.0.1",
  "updatedAt": "2017-12-15T11:07:04.301Z"
}