{
  "contractName": "ProposalCategory",
  "abi": [
    {
      "constant": true,
      "inputs": [
        {
          "name": "_categoryId",
          "type": "uint256"
        },
        {
          "name": "_index",
          "type": "uint256"
        }
      ],
      "name": "getRoleMajorityVote",
      "outputs": [
        {
          "name": "majorityVote",
          "type": "uint256"
        }
      ],
      "payable": false,
      "stateMutability": "view",
      "type": "function"
    },
    {
      "constant": true,
      "inputs": [
        {
          "name": "_categoryId",
          "type": "uint256"
        }
      ],
      "name": "getRoleSequencLength",
      "outputs": [
        {
          "name": "roleLength",
          "type": "uint256"
        }
      ],
      "payable": false,
      "stateMutability": "view",
      "type": "function"
    },
    {
      "constant": false,
      "inputs": [
        {
          "name": "_categoryId",
          "type": "uint256"
        },
        {
          "name": "_functionName",
          "type": "string"
        },
        {
          "name": "_contractAt",
          "type": "address"
        },
        {
          "name": "_paramInt",
          "type": "uint8"
        },
        {
          "name": "_paramBytes32",
          "type": "uint8"
        },
        {
          "name": "_paramAddress",
          "type": "uint8"
        },
        {
          "name": "_memberRoleSequence",
          "type": "uint8[]"
        },
        {
          "name": "_memberRoleMajorityVote",
          "type": "uint256[]"
        }
      ],
      "name": "updateCategory",
      "outputs": [
        {
          "name": "",
          "type": "string"
        }
      ],
      "payable": false,
      "stateMutability": "nonpayable",
      "type": "function"
    },
    {
      "constant": true,
      "inputs": [
        {
          "name": "_categoryId",
          "type": "uint8"
        },
        {
          "name": "_uintParamName",
          "type": "bytes32[]"
        },
        {
          "name": "_bytesParamName",
          "type": "bytes32[]"
        },
        {
          "name": "_addressParamName",
          "type": "bytes32[]"
        },
        {
          "name": "_paramBytes32",
          "type": "uint8"
        },
        {
          "name": "_paramAddress",
          "type": "uint8"
        },
        {
          "name": "_memberRoleSequence",
          "type": "uint8[]"
        },
        {
          "name": "_memberRoleMajorityVote",
          "type": "uint256[]"
        }
      ],
      "name": "getCategoryName",
      "outputs": [
        {
          "name": "",
          "type": "string"
        }
      ],
      "payable": false,
      "stateMutability": "view",
      "type": "function"
    },
    {
      "constant": true,
      "inputs": [
        {
          "name": "_categoryId",
          "type": "uint256"
        },
        {
          "name": "_index",
          "type": "uint256"
        },
        {
          "name": "_contractAt",
          "type": "address"
        },
        {
          "name": "_paramInt",
          "type": "uint8"
        },
        {
          "name": "_paramBytes32",
          "type": "uint8"
        },
        {
          "name": "_paramAddress",
          "type": "uint8"
        },
        {
          "name": "_memberRoleSequence",
          "type": "uint8[]"
        },
        {
          "name": "_memberRoleMajorityVote",
          "type": "uint256[]"
        },
        {
          "name": "_uintParamName",
          "type": "bytes32[]"
        },
        {
          "name": "_bytesParamName",
          "type": "bytes32[]"
        },
        {
          "name": "_addressParamName",
          "type": "bytes32[]"
        }
      ],
      "name": "getCategoryParamNameUint",
      "outputs": [
        {
          "name": "",
          "type": "bytes32"
        },
        {
          "name": "paramBytes",
          "type": "bytes32"
        },
        {
          "name": "paramAddress",
          "type": "bytes32"
        },
        {
          "name": "uintHash",
          "type": "string"
        },
        {
          "name": "bytesHash",
          "type": "string"
        },
        {
          "name": "addressHash",
          "type": "string"
        }
      ],
      "payable": false,
      "stateMutability": "view",
      "type": "function"
    },
    {
      "constant": false,
      "inputs": [
        {
          "name": "_categoryId",
          "type": "uint256"
        },
        {
          "name": "_uintParamName",
          "type": "bytes32[]"
        },
        {
          "name": "_bytesParamName",
          "type": "bytes32[]"
        },
        {
          "name": "_addressParamName",
          "type": "bytes32[]"
        },
        {
          "name": "_uintParameterDescHash",
          "type": "string"
        },
        {
          "name": "_bytesParameterDescHash",
          "type": "string"
        },
        {
          "name": "_addressParameterDescHash",
          "type": "string"
        },
        {
          "name": "_memberRoleMajorityVote",
          "type": "uint256[]"
        },
        {
          "name": "_uintParamName",
          "type": "bytes32[]"
        },
        {
          "name": "_bytesParamName",
          "type": "bytes32[]"
        },
        {
          "name": "_addressParamName",
          "type": "bytes32[]"
        }
      ],
      "name": "addCategoryParamsNameAndDesc",
      "outputs": [
        {
          "name": "",
          "type": "bytes32"
        },
        {
          "name": "functionName",
          "type": "string"
        },
        {
          "name": "contractAt",
          "type": "address"
        },
        {
          "name": "paramInt",
          "type": "uint8"
        },
        {
          "name": "paramBytes32",
          "type": "uint8"
        },
        {
          "name": "paramAddress",
          "type": "uint8"
        },
        {
          "name": "memberRoleSequence",
          "type": "uint8[]"
        },
        {
          "name": "memberRoleMajorityVote",
          "type": "uint256[]"
        }
      ],
      "payable": false,
      "stateMutability": "nonpayable",
      "type": "function"
    },
    {
      "constant": false,
      "inputs": [
        {
          "name": "_categoryId",
          "type": "uint256"
        },
        {
          "name": "_uintParamName",
          "type": "bytes32[]"
        },
        {
          "name": "_bytesParamName",
          "type": "bytes32[]"
        },
        {
          "name": "_addressParamName",
          "type": "bytes32[]"
        },
        {
          "name": "_uintParameterDescHash",
          "type": "string"
        },
        {
          "name": "_bytesParameterDescHash",
          "type": "string"
        },
        {
          "name": "_addressParameterDescHash",
          "type": "string"
        },
        {
          "name": "_memberRoleMajorityVote",
          "type": "uint256[]"
        }
      ],
      "name": "ProposalCategoryInitiate",
      "outputs": [
        {
          "name": "roleId",
          "type": "uint256"
        },
        {
          "name": "functionName",
          "type": "string"
        },
        {
          "name": "contractAt",
          "type": "address"
        },
        {
          "name": "paramInt",
          "type": "uint8"
        },
        {
          "name": "paramBytes32",
          "type": "uint8"
        },
        {
          "name": "paramAddress",
          "type": "uint8"
        },
        {
          "name": "memberRoleSequence",
          "type": "uint8[]"
        },
        {
          "name": "memberRoleMajorityVote",
          "type": "uint256[]"
        }
      ],
      "payable": false,
      "stateMutability": "nonpayable",
      "type": "function"
    },
    {
      "constant": true,
      "inputs": [
        {
          "name": "_categoryName",
          "type": "string"
        },
        {
          "name": "_functionName",
          "type": "string"
        },
        {
          "name": "_contractAt",
          "type": "address"
        },
        {
          "name": "_paramInt",
          "type": "uint8"
        },
        {
          "name": "_paramBytes32",
          "type": "uint8"
        },
        {
          "name": "_paramAddress",
          "type": "uint8"
        },
        {
          "name": "_memberRoleSequence",
          "type": "uint8[]"
        },
        {
          "name": "_memberRoleMajorityVote",
          "type": "uint256[]"
        }
      ],
      "name": "owner",
      "outputs": [
        {
          "name": "",
          "type": "address"
        },
        {
          "name": "functionName",
          "type": "string"
        },
        {
          "name": "contractAt",
          "type": "address"
        },
        {
          "name": "paramInt",
          "type": "uint8"
        },
        {
          "name": "paramBytes32",
          "type": "uint8"
        },
        {
          "name": "paramAddress",
          "type": "uint8"
        },
        {
          "name": "memberRoleSequence",
          "type": "uint8[]"
        },
        {
          "name": "memberRoleMajorityVote",
          "type": "uint256[]"
        }
      ],
      "payable": false,
      "stateMutability": "view",
      "type": "function"
    },
    {
      "constant": false,
      "inputs": [
        {
          "name": "_categoryName",
          "type": "string"
        },
        {
          "name": "_functionName",
          "type": "string"
        },
        {
          "name": "_contractAt",
          "type": "address"
        },
        {
          "name": "_paramInt",
          "type": "uint8"
        },
        {
          "name": "_paramBytes32",
          "type": "uint8"
        },
        {
          "name": "_paramAddress",
          "type": "uint8"
        },
        {
          "name": "_memberRoleSequence",
          "type": "uint8[]"
        },
        {
          "name": "_memberRoleMajorityVote",
          "type": "uint256[]"
        }
      ],
      "name": "addNewCategory",
      "outputs": [
        {
          "name": "roleId",
          "type": "uint256"
        },
        {
          "name": "functionName",
          "type": "string"
        },
        {
          "name": "contractAt",
          "type": "address"
        },
        {
          "name": "paramInt",
          "type": "uint8"
        },
        {
          "name": "paramBytes32",
          "type": "uint8"
        },
        {
          "name": "paramAddress",
          "type": "uint8"
        },
        {
          "name": "memberRoleSequence",
          "type": "uint8[]"
        },
        {
          "name": "memberRoleMajorityVote",
          "type": "uint256[]"
        }
      ],
      "payable": false,
      "stateMutability": "nonpayable",
      "type": "function"
    },
    {
      "constant": true,
      "inputs": [
        {
          "name": "_categoryId",
          "type": "uint256"
        },
        {
          "name": "_index",
          "type": "uint256"
        }
      ],
      "name": "getRoleSequencAtIndex",
      "outputs": [
        {
          "name": "roleId",
          "type": "uint256"
        },
        {
          "name": "functionName",
          "type": "string"
        },
        {
          "name": "contractAt",
          "type": "address"
        },
        {
          "name": "paramInt",
          "type": "uint8"
        },
        {
          "name": "paramBytes32",
          "type": "uint8"
        },
        {
          "name": "paramAddress",
          "type": "uint8"
        },
        {
          "name": "memberRoleSequence",
          "type": "uint8[]"
        },
        {
          "name": "memberRoleMajorityVote",
          "type": "uint256[]"
        }
      ],
      "payable": false,
      "stateMutability": "view",
      "type": "function"
    },
    {
      "constant": true,
      "inputs": [
        {
          "name": "_categoryId",
          "type": "uint256"
        },
        {
          "name": "_categoryId",
          "type": "uint256"
        }
      ],
      "name": "getCategoryDetails",
      "outputs": [
        {
          "name": "cateId",
          "type": "uint256"
        },
        {
          "name": "categoryName",
          "type": "string"
        },
        {
          "name": "functionName",
          "type": "string"
        },
        {
          "name": "contractAt",
          "type": "address"
        },
        {
          "name": "paramInt",
          "type": "uint8"
        },
        {
          "name": "paramBytes32",
          "type": "uint8"
        },
        {
          "name": "paramAddress",
          "type": "uint8"
        },
        {
          "name": "memberRoleSequence",
          "type": "uint8[]"
        },
        {
          "name": "memberRoleMajorityVote",
          "type": "uint256[]"
        }
      ],
      "payable": false,
      "stateMutability": "view",
      "type": "function"
    },
    {
      "constant": true,
      "inputs": [
        {
          "name": "_categoryId",
          "type": "uint256"
        },
        {
          "name": "_index",
          "type": "uint256"
        }
      ],
      "name": "getCategoryParamHashBytes",
      "outputs": [
        {
          "name": "",
          "type": "string"
        },
        {
          "name": "functionName",
          "type": "string"
        },
        {
          "name": "contractAt",
          "type": "address"
        },
        {
          "name": "paramInt",
          "type": "uint8"
        },
        {
          "name": "paramBytes32",
          "type": "uint8"
        },
        {
          "name": "paramAddress",
          "type": "uint8"
        }
      ],
      "payable": false,
      "stateMutability": "view",
      "type": "function"
    },
    {
      "constant": true,
      "inputs": [
        {
          "name": "_categoryId",
          "type": "uint256"
        },
        {
          "name": "_index",
          "type": "uint256"
        }
      ],
      "name": "getCategoryParamNameBytes",
      "outputs": [
        {
          "name": "",
          "type": "bytes32"
        },
        {
          "name": "functionName",
          "type": "string"
        },
        {
          "name": "contractAt",
          "type": "address"
        },
        {
          "name": "paramInt",
          "type": "uint8"
        },
        {
          "name": "paramBytes32",
          "type": "uint8"
        },
        {
          "name": "paramAddress",
          "type": "uint8"
        }
      ],
      "payable": false,
      "stateMutability": "view",
      "type": "function"
    },
    {
      "constant": false,
      "inputs": [
        {
          "name": "_proposalId",
          "type": "uint256"
        },
        {
          "name": "_categoryId",
          "type": "uint256"
        }
      ],
      "name": "actionAfterProposalPass",
      "outputs": [
        {
          "name": "",
          "type": "bytes32"
        }
      ],
      "payable": false,
      "stateMutability": "nonpayable",
      "type": "function"
    },
    {
      "constant": true,
      "inputs": [
        {
          "name": "_categoryId",
          "type": "uint256"
        },
        {
          "name": "_index",
          "type": "uint256"
        }
      ],
      "name": "getCategoryParamNameAddress",
      "outputs": [
        {
          "name": "",
          "type": "bytes32"
        },
        {
          "name": "functionName",
          "type": "string"
        },
        {
          "name": "contractAt",
          "type": "address"
        },
        {
          "name": "paramInt",
          "type": "uint8"
        },
        {
          "name": "paramBytes32",
          "type": "uint8"
        },
        {
          "name": "paramAddress",
          "type": "uint8"
        }
      ],
      "payable": false,
      "stateMutability": "view",
      "type": "function"
    },
    {
      "constant": true,
      "inputs": [
        {
          "name": "",
          "type": "uint256"
        },
        {
          "name": "_index",
          "type": "uint256"
        }
      ],
      "name": "allCategory",
      "outputs": [
        {
          "name": "categoryName",
          "type": "string"
        },
        {
          "name": "functionName",
          "type": "string"
        },
        {
          "name": "contractAt",
          "type": "address"
        },
        {
          "name": "paramInt",
          "type": "uint8"
        },
        {
          "name": "paramBytes32",
          "type": "uint8"
        },
        {
          "name": "paramAddress",
          "type": "uint8"
        }
      ],
      "payable": false,
      "stateMutability": "view",
      "type": "function"
    },
    {
      "constant": true,
      "inputs": [
        {
          "name": "_categoryId",
          "type": "uint256"
        }
      ],
      "name": "getCategoryParamHashUint",
      "outputs": [
        {
          "name": "",
          "type": "string"
        },
        {
          "name": "functionName",
          "type": "string"
        },
        {
          "name": "contractAt",
          "type": "address"
        },
        {
          "name": "paramInt",
          "type": "uint8"
        },
        {
          "name": "paramBytes32",
          "type": "uint8"
        },
        {
          "name": "paramAddress",
          "type": "uint8"
        }
      ],
      "payable": false,
      "stateMutability": "view",
      "type": "function"
    },
    {
      "constant": true,
      "inputs": [
        {
          "name": "_categoryId",
          "type": "uint256"
        }
      ],
      "name": "getCategoryParamHashAddress",
      "outputs": [
        {
          "name": "",
          "type": "string"
        }
      ],
      "payable": false,
      "stateMutability": "view",
      "type": "function"
    },
    {
      "constant": false,
      "inputs": [
        {
          "name": "newOwner",
          "type": "address"
        }
      ],
      "name": "transferOwnership",
      "outputs": [
        {
          "name": "",
          "type": "string"
        }
      ],
      "payable": false,
      "stateMutability": "nonpayable",
      "type": "function"
    },
    {
      "constant": true,
      "inputs": [
        {
          "name": "newOwner",
          "type": "address"
        }
      ],
      "name": "getCategoriesLength",
      "outputs": [
        {
          "name": "length",
          "type": "uint256"
        }
      ],
      "payable": false,
      "stateMutability": "view",
      "type": "function"
    },
    {
      "anonymous": false,
      "inputs": [
        {
          "indexed": true,
          "name": "previousOwner",
          "type": "address"
        },
        {
          "indexed": true,
          "name": "newOwner",
          "type": "address"
        }
      ],
      "name": "OwnershipTransferred",
      "type": "event",
      "constant": true,
      "outputs": [
        {
          "name": "length",
          "type": "uint256"
        }
      ],
      "payable": false,
      "stateMutability": "view"
    },
    {
      "anonymous": false,
      "inputs": [
        {
          "indexed": true,
          "name": "previousOwner",
          "type": "address"
        },
        {
          "indexed": true,
          "name": "newOwner",
          "type": "address"
        }
      ],
      "name": "OwnershipTransferred",
      "type": "event"
    }
  ],
  "bytecode": "0x6060604052336000806101000a81548173ffffffffffffffffffffffffffffffffffffffff021916908373ffffffffffffffffffffffffffffffffffffffff160217905550612913806100536000396000f300606060405260043610610112576000357c0100000000000000000000000000000000000000000000000000000000900463ffffffff16806302e929c81461011757806318b0211b146101575780631d10a9731461018e5780633f9a61e0146102b757806371365629146103565780637cb719ae1461039e5780638025ada71461054a5780638da5cb5b1461055f5780638ef87959146105b45780639deeab2014610717578063b0a4aaee14610757578063c150d22314610950578063d7fa79ac146109ec578063db0c4f7914610a34578063dfa4afc614610a60578063dff5f32214610aa8578063e4d9afdb14610c44578063e62ddb7214610ce0578063f2fde38b14610d7c578063f6d9615f14610db5575b600080fd5b341561012257600080fd5b6101416004808035906020019091908035906020019091905050610dde565b6040518082815260200191505060405180910390f35b341561016257600080fd5b6101786004808035906020019091905050610e21565b6040518082815260200191505060405180910390f35b341561019957600080fd5b6102b5600480803590602001909190803590602001908201803590602001908080601f0160208091040260200160405190810160405280939291908181526020018383808284378201915050505050509190803573ffffffffffffffffffffffffffffffffffffffff1690602001909190803560ff1690602001909190803560ff1690602001909190803560ff169060200190919080359060200190820180359060200190808060200260200160405190810160405280939291908181526020018383602002808284378201915050505050509190803590602001908201803590602001908080602002602001604051908101604052809392919081815260200183836020028082843782019150505050505091905050610e4e565b005b34156102c257600080fd5b6102db600480803560ff1690602001909190505061118b565b6040518080602001828103825283818151815260200191508051906020019080838360005b8381101561031b578082015181840152602081019050610300565b50505050905090810190601f1680156103485780820380516001836020036101000a031916815260200191505b509250505060405180910390f35b341561036157600080fd5b6103806004808035906020019091908035906020019091905050611256565b60405180826000191660001916815260200191505060405180910390f35b34156103a957600080fd5b610548600480803590602001909190803590602001908201803590602001908080602002602001604051908101604052809392919081815260200183836020028082843782019150505050505091908035906020019082018035906020019080806020026020016040519081016040528093929190818152602001838360200280828437820191505050505050919080359060200190820180359060200190808060200260200160405190810160405280939291908181526020018383602002808284378201915050505050509190803590602001908201803590602001908080601f0160208091040260200160405190810160405280939291908181526020018383808284378201915050505050509190803590602001908201803590602001908080601f0160208091040260200160405190810160405280939291908181526020018383808284378201915050505050509190803590602001908201803590602001908080601f01602080910402602001604051908101604052809392919081815260200183838082843782019150505050505091905050611299565b005b341561055557600080fd5b61055d61146e565b005b341561056a57600080fd5b6105726116a4565b604051808273ffffffffffffffffffffffffffffffffffffffff1673ffffffffffffffffffffffffffffffffffffffff16815260200191505060405180910390f35b34156105bf57600080fd5b610715600480803590602001908201803590602001908080601f0160208091040260200160405190810160405280939291908181526020018383808284378201915050505050509190803590602001908201803590602001908080601f0160208091040260200160405190810160405280939291908181526020018383808284378201915050505050509190803573ffffffffffffffffffffffffffffffffffffffff1690602001909190803560ff1690602001909190803560ff1690602001909190803560ff1690602001909190803590602001908201803590602001908080602002602001604051908101604052809392919081815260200183836020028082843782019150505050505091908035906020019082018035906020019080806020026020016040519081016040528093929190818152602001838360200280828437820191505050505050919050506116c9565b005b341561072257600080fd5b61074160048080359060200190919080359060200190919050506118e2565b6040518082815260200191505060405180910390f35b341561076257600080fd5b610778600480803590602001909190505061193c565b604051808a815260200180602001806020018973ffffffffffffffffffffffffffffffffffffffff1673ffffffffffffffffffffffffffffffffffffffff1681526020018860ff1660ff1681526020018760ff1660ff1681526020018660ff1660ff168152602001806020018060200185810385528d818151815260200191508051906020019080838360005b83811015610820578082015181840152602081019050610805565b50505050905090810190601f16801561084d5780820380516001836020036101000a031916815260200191505b5085810384528c818151815260200191508051906020019080838360005b8381101561088657808201518184015260208101905061086b565b50505050905090810190601f1680156108b35780820380516001836020036101000a031916815260200191505b50858103835287818151815260200191508051906020019060200280838360005b838110156108ef5780820151818401526020810190506108d4565b50505050905001858103825286818151815260200191508051906020019060200280838360005b83811015610931578082015181840152602081019050610916565b505050509050019d505050505050505050505050505060405180910390f35b341561095b57600080fd5b6109716004808035906020019091905050611cc5565b6040518080602001828103825283818151815260200191508051906020019080838360005b838110156109b1578082015181840152602081019050610996565b50505050905090810190601f1680156109de5780820380516001836020036101000a031916815260200191505b509250505060405180910390f35b34156109f757600080fd5b610a166004808035906020019091908035906020019091905050611d8d565b60405180826000191660001916815260200191505060405180910390f35b3415610a3f57600080fd5b610a5e6004808035906020019091908035906020019091905050611dd0565b005b3415610a6b57600080fd5b610a8a6004808035906020019091908035906020019091905050611f1a565b60405180826000191660001916815260200191505060405180910390f35b3415610ab357600080fd5b610ac96004808035906020019091905050611f5d565b6040518080602001806020018773ffffffffffffffffffffffffffffffffffffffff1673ffffffffffffffffffffffffffffffffffffffff1681526020018660ff1660ff1681526020018560ff1660ff1681526020018460ff1660ff168152602001838103835289818154600181600116156101000203166002900481526020019150805460018160011615610100020316600290048015610bac5780601f10610b8157610100808354040283529160200191610bac565b820191906000526020600020905b815481529060010190602001808311610b8f57829003601f168201915b5050838103825288818154600181600116156101000203166002900481526020019150805460018160011615610100020316600290048015610c2f5780601f10610c0457610100808354040283529160200191610c2f565b820191906000526020600020905b815481529060010190602001808311610c1257829003601f168201915b50509850505050505050505060405180910390f35b3415610c4f57600080fd5b610c656004808035906020019091905050611fed565b6040518080602001828103825283818151815260200191508051906020019080838360005b83811015610ca5578082015181840152602081019050610c8a565b50505050905090810190601f168015610cd25780820380516001836020036101000a031916815260200191505b509250505060405180910390f35b3415610ceb57600080fd5b610d0160048080359060200190919050506120b5565b6040518080602001828103825283818151815260200191508051906020019080838360005b83811015610d41578082015181840152602081019050610d26565b50505050905090810190601f168015610d6e5780820380516001836020036101000a031916815260200191505b509250505060405180910390f35b3415610d8757600080fd5b610db3600480803573ffffffffffffffffffffffffffffffffffffffff1690602001909190505061217d565b005b3415610dc057600080fd5b610dc86122d2565b6040518082815260200191505060405180910390f35b6000600183815481101515610def57fe5b906000526020600020906005020160040182815481101515610e0d57fe5b906000526020600020900154905092915050565b6000600182815481101515610e3257fe5b9060005260206000209060050201600301805490509050919050565b60008060009054906101000a900473ffffffffffffffffffffffffffffffffffffffff1673ffffffffffffffffffffffffffffffffffffffff163373ffffffffffffffffffffffffffffffffffffffff16141515610eab57600080fd5b81518351141515610ebb57600080fd5b8760018a815481101515610ecb57fe5b90600052602060002090600502016001019080519060200190610eef9291906122df565b508660018a815481101515610f0057fe5b906000526020600020906005020160020160006101000a81548173ffffffffffffffffffffffffffffffffffffffff021916908373ffffffffffffffffffffffffffffffffffffffff1602179055508560018a815481101515610f5f57fe5b906000526020600020906005020160020160146101000a81548160ff021916908360ff1602179055508460018a815481101515610f9857fe5b906000526020600020906005020160020160156101000a81548160ff021916908360ff1602179055508360018a815481101515610fd157fe5b906000526020600020906005020160020160166101000a81548160ff021916908360ff16021790555082516040518059106110095750595b908082528060200260200182016040525060018a81548110151561102957fe5b9060005260206000209060050201600301908051906020019061104d92919061235f565b50815160405180591061105d5750595b908082528060200260200182016040525060018a81548110151561107d57fe5b906000526020600020906005020160040190805190602001906110a1929190612406565b50600090505b82518110156111805782818151811015156110be57fe5b9060200190602002015160018a8154811015156110d757fe5b9060005260206000209060050201600301828154811015156110f557fe5b90600052602060002090602091828204019190066101000a81548160ff021916908360ff160217905550818181518110151561112d57fe5b9060200190602002015160018a81548110151561114657fe5b90600052602060002090600502016004018281548110151561116457fe5b90600052602060002090018190555080806001019150506110a7565b505050505050505050565b611193612453565b60018260ff168154811015156111a557fe5b90600052602060002090600502016000018054600181600116156101000203166002900480601f01602080910402602001604051908101604052809291908181526020018280546001816001161561010002031660029004801561124a5780601f1061121f5761010080835404028352916020019161124a565b820191906000526020600020905b81548152906001019060200180831161122d57829003601f168201915b50505050509050919050565b600060028381548110151561126757fe5b90600052602060002090600202016000018281548110151561128557fe5b906000526020600020900154905092915050565b6000809054906101000a900473ffffffffffffffffffffffffffffffffffffffff1673ffffffffffffffffffffffffffffffffffffffff163373ffffffffffffffffffffffffffffffffffffffff161415156112f457600080fd5b600280548060010182816113089190612467565b9160005260206000209060020201600060408051908101604052808a8152602001878152509091909150600082015181600001908051906020019061134e929190612499565b50602082015181600101908051906020019061136b9291906124ec565b50505050600380548060010182816113839190612467565b91600052602060002090600202016000604080519081016040528089815260200186815250909190915060008201518160000190805190602001906113c9929190612499565b5060208201518160010190805190602001906113e69291906124ec565b50505050600480548060010182816113fe9190612467565b9160005260206000209060020201600060408051908101604052808881526020018581525090919091506000820151816000019080519060200190611444929190612499565b5060208201518160010190805190602001906114619291906124ec565b5050505050505050505050565b600060028054905014801561148857506000600380549050145b801561149957506000600480549050145b15156114a457600080fd5b600280548060010182816114b89190612467565b91600052602060002090600202016000604080519081016040528060006040518059106114e25750595b9080825280602002602001820160405250815260200160206040519081016040528060008152508152509091909150600082015181600001908051906020019061152d929190612499565b50602082015181600101908051906020019061154a9291906124ec565b50505050600380548060010182816115629190612467565b916000526020600020906002020160006040805190810160405280600060405180591061158c5750595b908082528060200260200182016040525081526020016020604051908101604052806000815250815250909190915060008201518160000190805190602001906115d7929190612499565b5060208201518160010190805190602001906115f49291906124ec565b505050506004805480600101828161160c9190612467565b91600052602060002090600202016000604080519081016040528060006040518059106116365750595b90808252806020026020018201604052508152602001602060405190810160405280600081525081525090919091506000820151816000019080519060200190611681929190612499565b50602082015181600101908051906020019061169e9291906124ec565b50505050565b6000809054906101000a900473ffffffffffffffffffffffffffffffffffffffff1681565b6000809054906101000a900473ffffffffffffffffffffffffffffffffffffffff1673ffffffffffffffffffffffffffffffffffffffff163373ffffffffffffffffffffffffffffffffffffffff1614151561172457600080fd5b8051825114151561173457600080fd5b60018054806001018281611748919061256c565b91600052602060002090600502016000610100604051908101604052808c81526020018b81526020018a73ffffffffffffffffffffffffffffffffffffffff1681526020018960ff1681526020018860ff1681526020018760ff16815260200186815260200185815250909190915060008201518160000190805190602001906117d39291906124ec565b5060208201518160010190805190602001906117f09291906124ec565b5060408201518160020160006101000a81548173ffffffffffffffffffffffffffffffffffffffff021916908373ffffffffffffffffffffffffffffffffffffffff16021790555060608201518160020160146101000a81548160ff021916908360ff16021790555060808201518160020160156101000a81548160ff021916908360ff16021790555060a08201518160020160166101000a81548160ff021916908360ff16021790555060c08201518160030190805190602001906118b792919061259e565b5060e08201518160040190805190602001906118d4929190612645565b505050505050505050505050565b60006001838154811015156118f357fe5b90600052602060002090600502016003018281548110151561191157fe5b90600052602060002090602091828204019190069054906101000a900460ff1660ff16905092915050565b6000611946612453565b61194e612453565b60008060008061195c612692565b6119646126a6565b89985060018a81548110151561197657fe5b90600052602060002090600502016000018054600181600116156101000203166002900480601f016020809104026020016040519081016040528092919081815260200182805460018160011615610100020316600290048015611a1b5780601f106119f057610100808354040283529160200191611a1b565b820191906000526020600020905b8154815290600101906020018083116119fe57829003601f168201915b5050505050975060018a815481101515611a3157fe5b90600052602060002090600502016001018054600181600116156101000203166002900480601f016020809104026020016040519081016040528092919081815260200182805460018160011615610100020316600290048015611ad65780601f10611aab57610100808354040283529160200191611ad6565b820191906000526020600020905b815481529060010190602001808311611ab957829003601f168201915b5050505050965060018a815481101515611aec57fe5b906000526020600020906005020160020160009054906101000a900473ffffffffffffffffffffffffffffffffffffffff16955060018a815481101515611b2f57fe5b906000526020600020906005020160020160149054906101000a900460ff16945060018a815481101515611b5f57fe5b906000526020600020906005020160020160159054906101000a900460ff16935060018a815481101515611b8f57fe5b906000526020600020906005020160020160169054906101000a900460ff16925060018a815481101515611bbf57fe5b9060005260206000209060050201600301805480602002602001604051908101604052809291908181526020018280548015611c4057602002820191906000526020600020906000905b82829054906101000a900460ff1660ff1681526020019060010190602082600001049283019260010382029150808411611c095790505b5050505050915060018a815481101515611c5657fe5b9060005260206000209060050201600401805480602002602001604051908101604052809291908181526020018280548015611cb157602002820191906000526020600020905b815481526020019060010190808311611c9d575b505050505090509193959799909294969850565b611ccd612453565b600382815481101515611cdc57fe5b90600052602060002090600202016001018054600181600116156101000203166002900480601f016020809104026020016040519081016040528092919081815260200182805460018160011615610100020316600290048015611d815780601f10611d5657610100808354040283529160200191611d81565b820191906000526020600020905b815481529060010190602001808311611d6457829003601f168201915b50505050509050919050565b6000600383815481101515611d9e57fe5b906000526020600020906002020160000182815481101515611dbc57fe5b906000526020600020900154905092915050565b6000611ddb8261193c565b909192939495969750909192939495965090919293949550909192935090919250909150905050809150508073ffffffffffffffffffffffffffffffffffffffff16600183815481101515611e2c57fe5b90600052602060002090600502016001016040518082805460018160011615610100020316600290048015611e985780601f10611e76576101008083540402835291820191611e98565b820191906000526020600020905b815481529060010190602001808311611e84575b505091505060405180910390207c01000000000000000000000000000000000000000000000000000000009004846040518263ffffffff167c01000000000000000000000000000000000000000000000000000000000281526004018082815260200191505060006040518083038160008761646e5a03f19250505050505050565b6000600483815481101515611f2b57fe5b906000526020600020906002020160000182815481101515611f4957fe5b906000526020600020900154905092915050565b600181815481101515611f6c57fe5b9060005260206000209060050201600091509050806000019080600101908060020160009054906101000a900473ffffffffffffffffffffffffffffffffffffffff16908060020160149054906101000a900460ff16908060020160159054906101000a900460ff16908060020160169054906101000a900460ff16905086565b611ff5612453565b60028281548110151561200457fe5b90600052602060002090600202016001018054600181600116156101000203166002900480601f0160208091040260200160405190810160405280929190818152602001828054600181600116156101000203166002900480156120a95780601f1061207e576101008083540402835291602001916120a9565b820191906000526020600020905b81548152906001019060200180831161208c57829003601f168201915b50505050509050919050565b6120bd612453565b6004828154811015156120cc57fe5b90600052602060002090600202016001018054600181600116156101000203166002900480601f0160208091040260200160405190810160405280929190818152602001828054600181600116156101000203166002900480156121715780601f1061214657610100808354040283529160200191612171565b820191906000526020600020905b81548152906001019060200180831161215457829003601f168201915b50505050509050919050565b6000809054906101000a900473ffffffffffffffffffffffffffffffffffffffff1673ffffffffffffffffffffffffffffffffffffffff163373ffffffffffffffffffffffffffffffffffffffff161415156121d857600080fd5b600073ffffffffffffffffffffffffffffffffffffffff168173ffffffffffffffffffffffffffffffffffffffff161415151561221457600080fd5b8073ffffffffffffffffffffffffffffffffffffffff166000809054906101000a900473ffffffffffffffffffffffffffffffffffffffff1673ffffffffffffffffffffffffffffffffffffffff167f8be0079c531659141344cd1fd0a4f28419497f9722a3daafe3b4186f6b6457e060405160405180910390a3806000806101000a81548173ffffffffffffffffffffffffffffffffffffffff021916908373ffffffffffffffffffffffffffffffffffffffff16021790555050565b6000600180549050905090565b828054600181600116156101000203166002900490600052602060002090601f016020900481019282601f1061232057805160ff191683800117855561234e565b8280016001018555821561234e579182015b8281111561234d578251825591602001919060010190612332565b5b50905061235b91906126ba565b5090565b82805482825590600052602060002090601f016020900481019282156123f55791602002820160005b838211156123c657835183826101000a81548160ff021916908360ff1602179055509260200192600101602081600001049283019260010302612388565b80156123f35782816101000a81549060ff02191690556001016020816000010492830192600103026123c6565b505b50905061240291906126df565b5090565b828054828255906000526020600020908101928215612442579160200282015b82811115612441578251825591602001919060010190612426565b5b50905061244f91906126ba565b5090565b602060405190810160405280600081525090565b81548183558181151161249457600202816002028360005260206000209182019101612493919061270f565b5b505050565b8280548282559060005260206000209081019282156124db579160200282015b828111156124da5782518290600019169055916020019190600101906124b9565b5b5090506124e8919061274e565b5090565b828054600181600116156101000203166002900490600052602060002090601f016020900481019282601f1061252d57805160ff191683800117855561255b565b8280016001018555821561255b579182015b8281111561255a57825182559160200191906001019061253f565b5b50905061256891906126ba565b5090565b815481835581811511612599576005028160050283600052602060002091820191016125989190612773565b5b505050565b82805482825590600052602060002090601f016020900481019282156126345791602002820160005b8382111561260557835183826101000a81548160ff021916908360ff16021790555092602001926001016020816000010492830192600103026125c7565b80156126325782816101000a81549060ff0219169055600101602081600001049283019260010302612605565b505b50905061264191906126df565b5090565b828054828255906000526020600020908101928215612681579160200282015b82811115612680578251825591602001919060010190612665565b5b50905061268e91906126ba565b5090565b602060405190810160405280600081525090565b602060405190810160405280600081525090565b6126dc91905b808211156126d85760008160009055506001016126c0565b5090565b90565b61270c91905b8082111561270857600081816101000a81549060ff0219169055506001016126e5565b5090565b90565b61274b91905b80821115612747576000808201600061272e9190612835565b60018201600061273e9190612856565b50600201612715565b5090565b90565b61277091905b8082111561276c576000816000905550600101612754565b5090565b90565b61283291905b8082111561282e57600080820160006127929190612856565b6001820160006127a29190612856565b6002820160006101000a81549073ffffffffffffffffffffffffffffffffffffffff02191690556002820160146101000a81549060ff02191690556002820160156101000a81549060ff02191690556002820160166101000a81549060ff0219169055600382016000612815919061289e565b60048201600061282591906128c6565b50600501612779565b5090565b90565b5080546000825590600052602060002090810190612853919061274e565b50565b50805460018160011615610100020316600290046000825580601f1061287c575061289b565b601f01602090049060005260206000209081019061289a91906126ba565b5b50565b50805460008255601f0160209004906000526020600020908101906128c391906126ba565b50565b50805460008255906000526020600020908101906128e491906126ba565b505600a165627a7a72305820da75f0813a82f1ca6be64192ab2a1e5e3b4bb6f92e1a23886ff8390f0943bcaa0029",
  "source": "/* Copyright (C) 2017 GovBlocks.io\r\n\r\n  This program is free software: you can redistribute it and/or modify\r\n    it under the terms of the GNU General Public License as published by\r\n    the Free Software Foundation, either version 3 of the License, or\r\n    (at your option) any later version.\r\n\r\n  This program is distributed in the hope that it will be useful,\r\n    but WITHOUT ANY WARRANTY; without even the implied warranty of\r\n    MERCHANTABILITY or FITNESS FOR A PARTICULAR PURPOSE.  See the\r\n    GNU General Public License for more details.\r\n\r\n  You should have received a copy of the GNU General Public License\r\n    along with this program.  If not, see http://www.gnu.org/licenses/ */\r\npragma solidity ^0.4.8;\r\n// import \"./Ownable.sol\";\r\nimport \"./zeppelin-solidity/contracts/ownership/Ownable.sol\";\r\n\r\ncontract ProposalCategory is Ownable\r\n{\r\n    struct category{\r\n        string categoryName;\r\n        string functionName;\r\n        address contractAt;\r\n        uint8 paramInt;\r\n        uint8 paramBytes32;\r\n        uint8 paramAddress;\r\n        uint8[] memberRoleSequence;\r\n        uint[] memberRoleMajorityVote;\r\n    }\r\n\r\n    struct categoryParams\r\n    {\r\n        bytes32[] parameterName;\r\n        string parameterDescHash;\r\n    }\r\n\r\n    category[] public allCategory;\r\n\r\n    categoryParams[] uintParam;\r\n    categoryParams[] bytesParam;\r\n    categoryParams[] addressParam;\r\n\r\n    function ProposalCategoryInitiate()\r\n    {\r\n        require(uintParam.length == 0 && bytesParam.length == 0 && addressParam.length == 0);\r\n        uintParam.push(categoryParams(new bytes32[](0),\"\"));\r\n        bytesParam.push(categoryParams(new bytes32[](0),\"\"));\r\n        addressParam.push(categoryParams(new bytes32[](0),\"\"));\r\n    }\r\n\r\n    function getCategoryName(uint8 _categoryId)constant returns(string)\r\n    {\r\n        return allCategory[_categoryId].categoryName;\r\n    }\r\n\r\n    /// @dev Get the integer parameterName when given Category Id and parameterIndex\r\n    function getCategoryParamNameUint(uint _categoryId,uint _index)constant returns(bytes32)\r\n    {\r\n        return uintParam[_categoryId].parameterName[_index];\r\n    }\r\n\r\n    /// @dev Get the Bytes parameterName when given Category Id and parameterIndex\r\n    function getCategoryParamNameBytes(uint _categoryId,uint _index)constant returns(bytes32)\r\n    {\r\n        return bytesParam[_categoryId].parameterName[_index];\r\n    }\r\n\r\n    /// @dev Get the Address parameterName when given Category Id and parameterIndex\r\n    function getCategoryParamNameAddress(uint _categoryId,uint _index)constant returns(bytes32)\r\n    {\r\n        return addressParam[_categoryId].parameterName[_index];\r\n    }\r\n\r\n    /// @dev Get the Address parameterName when given Category Id and parameterIndex\r\n    function getCategoryParamHashUint(uint _categoryId)constant returns(string)\r\n    {\r\n        return uintParam[_categoryId].parameterDescHash;\r\n    }\r\n\r\n    /// @dev Get the Address parameterName when given Category Id and parameterIndex\r\n    function getCategoryParamHashBytes(uint _categoryId)constant returns(string)\r\n    {\r\n        return bytesParam[_categoryId].parameterDescHash;\r\n    }\r\n\r\n    /// @dev Get the Address parameterName when given Category Id and parameterIndex\r\n    function getCategoryParamHashAddress(uint _categoryId)constant returns(string)\r\n    {\r\n        return addressParam[_categoryId].parameterDescHash;\r\n    }\r\n\r\n    /// @dev Gets the total number of categories.\r\n    function getCategoriesLength() constant returns (uint length)\r\n    {\r\n        length = allCategory.length;\r\n    }\r\n\r\n    /// @dev Gets category details by category id.\r\n    function getCategoryDetails(uint _categoryId) public constant returns (uint cateId,string categoryName,string functionName,address contractAt,uint8 paramInt,uint8 paramBytes32,uint8 paramAddress,uint8[] memberRoleSequence,uint[] memberRoleMajorityVote)\r\n    {    \r\n        cateId = _categoryId;\r\n        categoryName = allCategory[_categoryId].categoryName;\r\n        functionName = allCategory[_categoryId].functionName;\r\n        contractAt = allCategory[_categoryId].contractAt;\r\n        paramInt = allCategory[_categoryId].paramInt;\r\n        paramBytes32 = allCategory[_categoryId].paramBytes32;\r\n        paramAddress = allCategory[_categoryId].paramAddress;\r\n        memberRoleSequence = allCategory[_categoryId].memberRoleSequence;\r\n        memberRoleMajorityVote = allCategory[_categoryId].memberRoleMajorityVote;\r\n    } \r\n    \r\n    /// @dev Get majority vote value for each voting level.\r\n    function getRoleMajorityVote(uint _categoryId,uint _index) constant returns(uint majorityVote)\r\n    {\r\n        return allCategory[_categoryId].memberRoleMajorityVote[_index];\r\n    }\r\n    \r\n    /// @dev Get the length of voting levels against given proposal.\r\n    function getRoleSequencLength(uint _categoryId) constant returns(uint roleLength)\r\n    {\r\n        return allCategory[_categoryId].memberRoleSequence.length;\r\n    }\r\n    /// @dev Get the next Roleid to cast vote against proposal, according to the sequence defined.\r\n    function getRoleSequencAtIndex(uint _categoryId,uint _index) constant returns(uint roleId)\r\n    {\r\n        return allCategory[_categoryId].memberRoleSequence[_index];\r\n    }\r\n    /// @dev Adds a new category and Category Function Parameter names..\r\n    function addNewCategory(string _categoryName,string _functionName,address _contractAt,uint8 _paramInt,uint8 _paramBytes32,uint8 _paramAddress,uint8[] _memberRoleSequence,uint[] _memberRoleMajorityVote) onlyOwner\r\n    {\r\n        require(_memberRoleSequence.length == _memberRoleMajorityVote.length);\r\n        allCategory.push(category(_categoryName,_functionName,_contractAt,_paramInt,_paramBytes32,_paramAddress,_memberRoleSequence,_memberRoleMajorityVote));\r\n    }\r\n    /// @dev Saving descriptions against various parameters required for category.\r\n    function addCategoryParamsNameAndDesc(uint _categoryId,bytes32[] _uintParamName,bytes32[] _bytesParamName,bytes32[] _addressParamName,string _uintParameterDescHash,string _bytesParameterDescHash,string _addressParameterDescHash) onlyOwner\r\n    {\r\n        uintParam.push(categoryParams(_uintParamName,_uintParameterDescHash));\r\n        bytesParam.push(categoryParams(_bytesParamName,_bytesParameterDescHash));\r\n        addressParam.push(categoryParams(_addressParamName,_addressParameterDescHash));\r\n    }\r\n\r\n    // /// @dev Change the category parameters name against category. // \r\n    // function changeCategoryParametersName(uint _categoryId,bytes32[] _uintParamName,bytes32[] _bytesParamName,bytes32[] _addressParamName) onlyOwner\r\n    // {   \r\n    //     uintParam[_categoryId].parameterName=new bytes32[](_uintParamName.length); \r\n    //     bytesParam[_categoryId].parameterName=new bytes32[](_bytesParamName.length); \r\n    //     addressParam[_categoryId].parameterName=new bytes32[](_addressParamName.length); \r\n        \r\n    //     for(uint i=0; i<_uintParamName.length; i++)\r\n    //     {\r\n    //         uintParam[_categoryId].parameterName[i]=_uintParamName[i]; \r\n    //     }\r\n            \r\n    //     for(i=0; i<_uintParamName.length; i++)\r\n    //     {\r\n    //         bytesParam[_categoryId].parameterName[i]=_bytesParamName[i];\r\n    //     }\r\n        \r\n    //     for(i=0; i<_uintParamName.length; i++)\r\n    //     {\r\n    //         addressParam[_categoryId].parameterName[i]=_addressParamName[i];\r\n    //     }\r\n    // }\r\n\r\n    /// @dev Updates a category details\r\n    function updateCategory(uint _categoryId,string _functionName,address _contractAt,uint8 _paramInt,uint8 _paramBytes32,uint8 _paramAddress,uint8[] _memberRoleSequence,uint[] _memberRoleMajorityVote) onlyOwner\r\n    {\r\n        require(_memberRoleSequence.length == _memberRoleMajorityVote.length);\r\n        allCategory[_categoryId].functionName = _functionName;\r\n        allCategory[_categoryId].contractAt = _contractAt;\r\n        allCategory[_categoryId].paramInt = _paramInt;\r\n        allCategory[_categoryId].paramBytes32 = _paramBytes32; \r\n        allCategory[_categoryId].paramAddress = _paramAddress;\r\n\r\n        allCategory[_categoryId].memberRoleSequence=new uint8[](_memberRoleSequence.length);\r\n        allCategory[_categoryId].memberRoleMajorityVote=new uint[](_memberRoleMajorityVote.length);\r\n\r\n        for(uint i=0; i<_memberRoleSequence.length; i++)\r\n        {\r\n            allCategory[_categoryId].memberRoleSequence[i] =_memberRoleSequence[i];\r\n            allCategory[_categoryId].memberRoleMajorityVote[i] = _memberRoleMajorityVote[i];\r\n        }\r\n    }\r\n    /// @dev function to be called after proposal pass\r\n    function actionAfterProposalPass(uint _proposalId,uint _categoryId) public\r\n    {\r\n        address contractAt;\r\n        (,,,contractAt,,,,,) = getCategoryDetails(_categoryId);\r\n        contractAt.call(bytes4(sha3(allCategory[_categoryId].functionName)),_proposalId);\r\n    }\r\n\r\n}",
  "sourcePath": "D:\\2. GovBlocks\\GovBlocks Git-Master\\contracts\\ProposalCategory.sol",
  "compiler": {
    "name": "solc",
    "version": "0.4.18+commit.9cf6e910.Emscripten.clang"
  },
  "schemaVersion": "1.0.1",
  "updatedAt": "2018-01-29T07:39:51.936Z"
}