{
  "contractName": "ProposalCategory",
  "abi": [
    {
      "constant": true,
      "inputs": [
        {
          "name": "_categoryId",
          "type": "uint256"
        },
        {
          "name": "_index",
          "type": "uint256"
        }
      ],
      "name": "getRoleMajorityVote",
      "outputs": [
        {
          "name": "majorityVote",
          "type": "uint256"
        }
      ],
      "payable": false,
      "stateMutability": "view",
      "type": "function"
    },
    {
      "constant": true,
      "inputs": [
        {
          "name": "_categoryId",
          "type": "uint256"
        }
      ],
      "name": "getRoleSequencLength",
      "outputs": [
        {
          "name": "roleLength",
          "type": "uint256"
        }
      ],
      "payable": false,
      "stateMutability": "view",
      "type": "function"
    },
    {
      "constant": true,
      "inputs": [
        {
          "name": "_categoryId",
          "type": "uint256"
        }
      ],
      "name": "getCategoryExecutionFunction",
      "outputs": [
        {
          "name": "",
          "type": "string"
        }
      ],
      "payable": false,
      "stateMutability": "view",
      "type": "function"
    },
    {
      "constant": false,
      "inputs": [
        {
          "name": "_categoryId",
          "type": "uint256"
        },
        {
          "name": "_functionName",
          "type": "string"
        },
        {
          "name": "_contractAt",
          "type": "address"
        },
        {
          "name": "_paramInt",
          "type": "uint8"
        },
        {
          "name": "_paramBytes32",
          "type": "uint8"
        },
        {
          "name": "_paramAddress",
          "type": "uint8"
        },
        {
          "name": "_memberRoleSequence",
          "type": "uint8[]"
        },
        {
          "name": "_memberRoleMajorityVote",
          "type": "uint256[]"
        }
      ],
      "name": "updateCategory",
      "outputs": [],
      "payable": false,
      "stateMutability": "nonpayable",
      "type": "function"
    },
    {
      "constant": false,
      "inputs": [
        {
          "name": "_categoryName",
          "type": "string"
        },
        {
          "name": "_functionName",
          "type": "string"
        },
        {
          "name": "_contractAt",
          "type": "address"
        },
        {
          "name": "_paramInt",
          "type": "uint8"
        },
        {
          "name": "_paramBytes32",
          "type": "uint8"
        },
        {
          "name": "_paramAddress",
          "type": "uint8"
        },
        {
          "name": "_memberRoleSequence",
          "type": "uint8[]"
        },
        {
          "name": "_memberRoleMajorityVote",
          "type": "uint256[]"
        }
      ],
      "name": "addNewCategory",
      "outputs": [],
      "payable": false,
      "stateMutability": "nonpayable",
      "type": "function"
    },
    {
      "constant": true,
      "inputs": [
        {
          "name": "_categoryId",
          "type": "uint256"
        },
        {
          "name": "_index",
          "type": "uint256"
        }
      ],
      "name": "getRoleSequencAtIndex",
      "outputs": [
        {
          "name": "roleId",
          "type": "uint256"
        }
      ],
      "payable": false,
      "stateMutability": "view",
      "type": "function"
    },
    {
      "constant": true,
      "inputs": [
        {
          "name": "_categoryId",
          "type": "uint256"
        }
      ],
      "name": "getCategoryDetails",
      "outputs": [
        {
          "name": "categoryName",
          "type": "string"
        },
        {
          "name": "functionName",
          "type": "string"
        },
        {
          "name": "contractAt",
          "type": "address"
        },
        {
          "name": "paramInt",
          "type": "uint8"
        },
        {
          "name": "paramBytes32",
          "type": "uint8"
        },
        {
          "name": "paramAddress",
          "type": "uint8"
        },
        {
          "name": "memberRoleSequence",
          "type": "uint8[]"
        },
        {
          "name": "memberRoleMajorityVote",
          "type": "uint256[]"
        }
      ],
      "payable": false,
      "stateMutability": "view",
      "type": "function"
    },
    {
      "constant": true,
      "inputs": [
        {
          "name": "",
          "type": "uint256"
        }
      ],
      "name": "allCategory",
      "outputs": [
        {
          "name": "categoryName",
          "type": "string"
        },
        {
          "name": "functionName",
          "type": "string"
        },
        {
          "name": "contractAt",
          "type": "address"
        },
        {
          "name": "paramInt",
          "type": "uint8"
        },
        {
          "name": "paramBytes32",
          "type": "uint8"
        },
        {
          "name": "paramAddress",
          "type": "uint8"
        }
      ],
      "payable": false,
      "stateMutability": "view",
      "type": "function"
    },
    {
      "constant": true,
      "inputs": [],
      "name": "getCategoriesLength",
      "outputs": [
        {
          "name": "length",
          "type": "uint256"
        }
      ],
      "payable": false,
      "stateMutability": "view",
      "type": "function"
    }
  ],
  "bytecode": "0x6060604052341561000f57600080fd5b6116898061001e6000396000f300606060405260043610610099576000357c0100000000000000000000000000000000000000000000000000000000900463ffffffff16806302e929c81461009e57806318b0211b146100de5780631aa6f616146101155780631d10a973146101b15780638ef87959146102da5780639deeab201461043d578063b0a4aaee1461047d578063dff5f3221461066f578063f6d9615f1461080b575b600080fd5b34156100a957600080fd5b6100c86004808035906020019091908035906020019091905050610834565b6040518082815260200191505060405180910390f35b34156100e957600080fd5b6100ff6004808035906020019091905050610876565b6040518082815260200191505060405180910390f35b341561012057600080fd5b61013660048080359060200190919050506108a2565b6040518080602001828103825283818151815260200191508051906020019080838360005b8381101561017657808201518184015260208101905061015b565b50505050905090810190601f1680156101a35780820380516001836020036101000a031916815260200191505b509250505060405180910390f35b34156101bc57600080fd5b6102d8600480803590602001909190803590602001908201803590602001908080601f0160208091040260200160405190810160405280939291908181526020018383808284378201915050505050509190803573ffffffffffffffffffffffffffffffffffffffff1690602001909190803560ff1690602001909190803560ff1690602001909190803560ff16906020019091908035906020019082018035906020019080806020026020016040519081016040528093929190818152602001838360200280828437820191505050505050919080359060200190820180359060200190808060200260200160405190810160405280939291908181526020018383602002808284378201915050505050509190505061096a565b005b34156102e557600080fd5b61043b600480803590602001908201803590602001908080601f0160208091040260200160405190810160405280939291908181526020018383808284378201915050505050509190803590602001908201803590602001908080601f0160208091040260200160405190810160405280939291908181526020018383808284378201915050505050509190803573ffffffffffffffffffffffffffffffffffffffff1690602001909190803560ff1690602001909190803560ff1690602001909190803560ff169060200190919080359060200190820180359060200190808060200260200160405190810160405280939291908181526020018383602002808284378201915050505050509190803590602001908201803590602001908080602002602001604051908101604052809392919081815260200183836020028082843782019150505050505091905050610bb8565b005b341561044857600080fd5b6104676004808035906020019091908035906020019091905050610d76565b6040518082815260200191505060405180910390f35b341561048857600080fd5b61049e6004808035906020019091905050610dcf565b6040518080602001806020018973ffffffffffffffffffffffffffffffffffffffff1673ffffffffffffffffffffffffffffffffffffffff1681526020018860ff1660ff1681526020018760ff1660ff1681526020018660ff1660ff168152602001806020018060200185810385528d818151815260200191508051906020019080838360005b83811015610540578082015181840152602081019050610525565b50505050905090810190601f16801561056d5780820380516001836020036101000a031916815260200191505b5085810384528c818151815260200191508051906020019080838360005b838110156105a657808201518184015260208101905061058b565b50505050905090810190601f1680156105d35780820380516001836020036101000a031916815260200191505b50858103835287818151815260200191508051906020019060200280838360005b8381101561060f5780820151818401526020810190506105f4565b50505050905001858103825286818151815260200191508051906020019060200280838360005b83811015610651578082015181840152602081019050610636565b505050509050019c5050505050505050505050505060405180910390f35b341561067a57600080fd5b6106906004808035906020019091905050611151565b6040518080602001806020018773ffffffffffffffffffffffffffffffffffffffff1673ffffffffffffffffffffffffffffffffffffffff1681526020018660ff1660ff1681526020018560ff1660ff1681526020018460ff1660ff1681526020018381038352898181546001816001161561010002031660029004815260200191508054600181600116156101000203166002900480156107735780601f1061074857610100808354040283529160200191610773565b820191906000526020600020905b81548152906001019060200180831161075657829003601f168201915b50508381038252888181546001816001161561010002031660029004815260200191508054600181600116156101000203166002900480156107f65780601f106107cb576101008083540402835291602001916107f6565b820191906000526020600020905b8154815290600101906020018083116107d957829003601f168201915b50509850505050505050505060405180910390f35b341561081657600080fd5b61081e6111e1565b6040518082815260200191505060405180910390f35b6000808381548110151561084457fe5b90600052602060002090600502016004018281548110151561086257fe5b906000526020600020900154905092915050565b6000808281548110151561088657fe5b9060005260206000209060050201600301805490509050919050565b6108aa6111ed565b6000828154811015156108b957fe5b90600052602060002090600502016001018054600181600116156101000203166002900480601f01602080910402602001604051908101604052809291908181526020018280546001816001161561010002031660029004801561095e5780601f106109335761010080835404028352916020019161095e565b820191906000526020600020905b81548152906001019060200180831161094157829003601f168201915b50505050509050919050565b60008151835114151561097c57600080fd5b8760008a81548110151561098c57fe5b906000526020600020906005020160010190805190602001906109b0929190611201565b508660008a8154811015156109c157fe5b906000526020600020906005020160020160006101000a81548173ffffffffffffffffffffffffffffffffffffffff021916908373ffffffffffffffffffffffffffffffffffffffff1602179055508560008a815481101515610a2057fe5b906000526020600020906005020160020160146101000a81548160ff021916908360ff1602179055508460008a815481101515610a5957fe5b906000526020600020906005020160020160156101000a81548160ff021916908360ff1602179055508360008a815481101515610a9257fe5b906000526020600020906005020160020160166101000a81548160ff021916908360ff160217905550600090505b8251811015610bad57600089815481101515610ad857fe5b90600052602060002090600502016003018054806001018281610afb9190611281565b91600052602060002090602091828204019190068584815181101515610b1d57fe5b90602001906020020151909190916101000a81548160ff021916908360ff16021790555050600089815481101515610b5157fe5b90600052602060002090600502016004018054806001018281610b7491906112bb565b916000526020600020900160008484815181101515610b8f57fe5b90602001906020020151909190915055508080600101915050610ac0565b505050505050505050565b80518251141515610bc857600080fd5b60008054806001018281610bdc91906112e7565b91600052602060002090600502016000610100604051908101604052808c81526020018b81526020018a73ffffffffffffffffffffffffffffffffffffffff1681526020018960ff1681526020018860ff1681526020018760ff1681526020018681526020018581525090919091506000820151816000019080519060200190610c67929190611319565b506020820151816001019080519060200190610c84929190611319565b5060408201518160020160006101000a81548173ffffffffffffffffffffffffffffffffffffffff021916908373ffffffffffffffffffffffffffffffffffffffff16021790555060608201518160020160146101000a81548160ff021916908360ff16021790555060808201518160020160156101000a81548160ff021916908360ff16021790555060a08201518160020160166101000a81548160ff021916908360ff16021790555060c0820151816003019080519060200190610d4b929190611399565b5060e0820151816004019080519060200190610d68929190611440565b505050505050505050505050565b60008083815481101515610d8657fe5b906000526020600020906005020160030182815481101515610da457fe5b90600052602060002090602091828204019190069054906101000a900460ff1660ff16905092915050565b610dd76111ed565b610ddf6111ed565b600080600080610ded61148d565b610df56114a1565b600089815481101515610e0457fe5b90600052602060002090600502016000018054600181600116156101000203166002900480601f016020809104026020016040519081016040528092919081815260200182805460018160011615610100020316600290048015610ea95780601f10610e7e57610100808354040283529160200191610ea9565b820191906000526020600020905b815481529060010190602001808311610e8c57829003601f168201915b50505050509750600089815481101515610ebf57fe5b90600052602060002090600502016001018054600181600116156101000203166002900480601f016020809104026020016040519081016040528092919081815260200182805460018160011615610100020316600290048015610f645780601f10610f3957610100808354040283529160200191610f64565b820191906000526020600020905b815481529060010190602001808311610f4757829003601f168201915b50505050509650600089815481101515610f7a57fe5b906000526020600020906005020160020160009054906101000a900473ffffffffffffffffffffffffffffffffffffffff169550600089815481101515610fbd57fe5b906000526020600020906005020160020160149054906101000a900460ff169450600089815481101515610fed57fe5b906000526020600020906005020160020160159054906101000a900460ff16935060008981548110151561101d57fe5b906000526020600020906005020160020160169054906101000a900460ff16925060008981548110151561104d57fe5b90600052602060002090600502016003018054806020026020016040519081016040528092919081815260200182805480156110ce57602002820191906000526020600020906000905b82829054906101000a900460ff1660ff16815260200190600101906020826000010492830192600103820291508084116110975790505b505050505091506000898154811015156110e457fe5b906000526020600020906005020160040180548060200260200160405190810160405280929190818152602001828054801561113f57602002820191906000526020600020905b81548152602001906001019080831161112b575b50505050509050919395975091939597565b60008181548110151561116057fe5b9060005260206000209060050201600091509050806000019080600101908060020160009054906101000a900473ffffffffffffffffffffffffffffffffffffffff16908060020160149054906101000a900460ff16908060020160159054906101000a900460ff16908060020160169054906101000a900460ff16905086565b60008080549050905090565b602060405190810160405280600081525090565b828054600181600116156101000203166002900490600052602060002090601f016020900481019282601f1061124257805160ff1916838001178555611270565b82800160010185558215611270579182015b8281111561126f578251825591602001919060010190611254565b5b50905061127d91906114b5565b5090565b8154818355818115116112b657601f016020900481601f016020900483600052602060002091820191016112b591906114b5565b5b505050565b8154818355818115116112e2578183600052602060002091820191016112e191906114b5565b5b505050565b8154818355818115116113145760050281600502836000526020600020918201910161131391906114da565b5b505050565b828054600181600116156101000203166002900490600052602060002090601f016020900481019282601f1061135a57805160ff1916838001178555611388565b82800160010185558215611388579182015b8281111561138757825182559160200191906001019061136c565b5b50905061139591906114b5565b5090565b82805482825590600052602060002090601f0160209004810192821561142f5791602002820160005b8382111561140057835183826101000a81548160ff021916908360ff16021790555092602001926001016020816000010492830192600103026113c2565b801561142d5782816101000a81549060ff0219169055600101602081600001049283019260010302611400565b505b50905061143c919061159c565b5090565b82805482825590600052602060002090810192821561147c579160200282015b8281111561147b578251825591602001919060010190611460565b5b50905061148991906114b5565b5090565b602060405190810160405280600081525090565b602060405190810160405280600081525090565b6114d791905b808211156114d35760008160009055506001016114bb565b5090565b90565b61159991905b8082111561159557600080820160006114f991906115cc565b60018201600061150991906115cc565b6002820160006101000a81549073ffffffffffffffffffffffffffffffffffffffff02191690556002820160146101000a81549060ff02191690556002820160156101000a81549060ff02191690556002820160166101000a81549060ff021916905560038201600061157c9190611614565b60048201600061158c919061163c565b506005016114e0565b5090565b90565b6115c991905b808211156115c557600081816101000a81549060ff0219169055506001016115a2565b5090565b90565b50805460018160011615610100020316600290046000825580601f106115f25750611611565b601f01602090049060005260206000209081019061161091906114b5565b5b50565b50805460008255601f01602090049060005260206000209081019061163991906114b5565b50565b508054600082559060005260206000209081019061165a91906114b5565b505600a165627a7a723058201aa40c859910ccf5a01506c6ac5a2c5c1314676f846a000be68b8f46cda074590029",
  "source": "/* Copyright (C) 2017 GovBlocks.io\r\n\r\n  This program is free software: you can redistribute it and/or modify\r\n    it under the terms of the GNU General Public License as published by\r\n    the Free Software Foundation, either version 3 of the License, or\r\n    (at your option) any later version.\r\n\r\n  This program is distributed in the hope that it will be useful,\r\n    but WITHOUT ANY WARRANTY; without even the implied warranty of\r\n    MERCHANTABILITY or FITNESS FOR A PARTICULAR PURPOSE.  See the\r\n    GNU General Public License for more details.\r\n\r\n  You should have received a copy of the GNU General Public License\r\n    along with this program.  If not, see http://www.gnu.org/licenses/ */\r\n    pragma solidity ^0.4.8;\r\n    contract ProposalCategory\r\n    {\r\n        struct category{\r\n        string categoryName;\r\n        string functionName;\r\n        address contractAt;\r\n        uint8 paramInt;\r\n        uint8 paramBytes32;\r\n        uint8 paramAddress;\r\n        uint8[] memberRoleSequence;\r\n        uint[] memberRoleMajorityVote;\r\n    }\r\n    category[] public allCategory;\r\n    \r\n      /// @dev Gets the total number of categories.\r\n    function getCategoriesLength() constant returns (uint length)\r\n    {\r\n        length = allCategory.length;\r\n    }\r\n\r\n    /// @dev Gets category details by category id.\r\n    function getCategoryDetails(uint _categoryId) public constant returns (string categoryName,string functionName,address contractAt,uint8 paramInt,uint8 paramBytes32,uint8 paramAddress,uint8[] memberRoleSequence,uint[] memberRoleMajorityVote)\r\n    {    \r\n        categoryName = allCategory[_categoryId].categoryName;\r\n        functionName = allCategory[_categoryId].functionName;\r\n        contractAt = allCategory[_categoryId].contractAt;\r\n        paramInt = allCategory[_categoryId].paramInt;\r\n        paramBytes32 = allCategory[_categoryId].paramBytes32;\r\n        paramAddress = allCategory[_categoryId].paramAddress;\r\n        memberRoleSequence = allCategory[_categoryId].memberRoleSequence;\r\n        memberRoleMajorityVote = allCategory[_categoryId].memberRoleMajorityVote;\r\n    } \r\n    \r\n    function getRoleMajorityVote(uint _categoryId,uint _index) constant returns(uint majorityVote)\r\n    {\r\n        return allCategory[_categoryId].memberRoleMajorityVote[_index];\r\n        \r\n    }\r\n    \r\n    function getRoleSequencLength(uint _categoryId) constant returns(uint roleLength)\r\n    {\r\n        return allCategory[_categoryId].memberRoleSequence.length;\r\n        \r\n    }\r\n    function getRoleSequencAtIndex(uint _categoryId,uint _index) constant returns(uint roleId)\r\n    {\r\n        return allCategory[_categoryId].memberRoleSequence[_index];\r\n        \r\n    }\r\n    function getCategoryExecutionFunction(uint _categoryId) constant returns(string )\r\n    {\r\n        return allCategory[_categoryId].functionName;\r\n    }\r\n\r\n    /// @dev Adds a new category.\r\n    function addNewCategory(string _categoryName,string _functionName,address _contractAt,uint8 _paramInt,uint8 _paramBytes32,uint8 _paramAddress,uint8[] _memberRoleSequence,uint[] _memberRoleMajorityVote) public\r\n    {\r\n        require(_memberRoleSequence.length == _memberRoleMajorityVote.length);\r\n        allCategory.push(category(_categoryName,_functionName,_contractAt,_paramInt,_paramBytes32,_paramAddress,_memberRoleSequence,_memberRoleMajorityVote));\r\n    }\r\n\r\n    /// @dev Updates a category details\r\n    function updateCategory(uint _categoryId,string _functionName,address _contractAt,uint8 _paramInt,uint8 _paramBytes32,uint8 _paramAddress,uint8[] _memberRoleSequence,uint[] _memberRoleMajorityVote) public\r\n    {\r\n        require(_memberRoleSequence.length == _memberRoleMajorityVote.length);\r\n        allCategory[_categoryId].functionName = _functionName;\r\n        allCategory[_categoryId].contractAt = _contractAt;\r\n        allCategory[_categoryId].paramInt = _paramInt;\r\n        allCategory[_categoryId].paramBytes32 = _paramBytes32; \r\n        allCategory[_categoryId].paramAddress = _paramAddress;\r\n\r\n        for(uint i=0; i<_memberRoleSequence.length; i++)\r\n        {\r\n            allCategory[_categoryId].memberRoleSequence.push(_memberRoleSequence[i]);\r\n            allCategory[_categoryId].memberRoleMajorityVote.push(_memberRoleMajorityVote[i]);\r\n        }\r\n        \r\n    }\r\n    }",
  "sourcePath": "D:\\2. GovBlocks Contracts\\GovBlocks Git-Master\\contracts\\ProposalCategory.sol",
  "compiler": {
    "name": "solc",
    "version": "0.4.18+commit.9cf6e910.Emscripten.clang"
  },
  "schemaVersion": "1.0.1",
  "updatedAt": "2017-11-28T09:25:41.347Z"
}