{
  "contractName": "ProposalCategory",
  "abi": [
    {
      "constant": true,
      "inputs": [
        {
          "name": "_categoryId",
          "type": "uint256"
        },
        {
          "name": "_index",
          "type": "uint256"
        }
      ],
      "name": "getRoleMajorityVote",
      "outputs": [
        {
          "name": "majorityVote",
          "type": "uint256"
        }
      ],
      "payable": false,
      "stateMutability": "view",
      "type": "function"
    },
    {
      "constant": true,
      "inputs": [
        {
          "name": "_categoryId",
          "type": "uint256"
        }
      ],
      "name": "getRoleSequencLength",
      "outputs": [
        {
          "name": "roleLength",
          "type": "uint256"
        }
      ],
      "payable": false,
      "stateMutability": "view",
      "type": "function"
    },
    {
      "constant": true,
      "inputs": [
        {
          "name": "_categoryId",
          "type": "uint256"
        }
      ],
      "name": "getCategoryExecutionFunction",
      "outputs": [
        {
          "name": "",
          "type": "bytes32"
        }
      ],
      "payable": false,
      "stateMutability": "view",
      "type": "function"
    },
    {
      "constant": false,
      "inputs": [
        {
          "name": "_categoryId",
          "type": "uint256"
        },
        {
          "name": "_functionName",
          "type": "string"
        },
        {
          "name": "_contractAt",
          "type": "address"
        },
        {
          "name": "_paramInt",
          "type": "uint8"
        },
        {
          "name": "_paramBytes32",
          "type": "uint8"
        },
        {
          "name": "_paramAddress",
          "type": "uint8"
        },
        {
          "name": "_memberRoleSequence",
          "type": "uint8[]"
        },
        {
          "name": "_memberRoleMajorityVote",
          "type": "uint256[]"
        }
      ],
      "name": "updateCategory",
      "outputs": [],
      "payable": false,
      "stateMutability": "nonpayable",
      "type": "function"
    },
    {
      "constant": false,
      "inputs": [
        {
          "name": "_categoryName",
          "type": "string"
        },
        {
          "name": "_functionName",
          "type": "string"
        },
        {
          "name": "_contractAt",
          "type": "address"
        },
        {
          "name": "_paramInt",
          "type": "uint8"
        },
        {
          "name": "_paramBytes32",
          "type": "uint8"
        },
        {
          "name": "_paramAddress",
          "type": "uint8"
        },
        {
          "name": "_memberRoleSequence",
          "type": "uint8[]"
        },
        {
          "name": "_memberRoleMajorityVote",
          "type": "uint256[]"
        }
      ],
      "name": "addNewCategory",
      "outputs": [],
      "payable": false,
      "stateMutability": "nonpayable",
      "type": "function"
    },
    {
      "constant": true,
      "inputs": [
        {
          "name": "_categoryId",
          "type": "uint256"
        },
        {
          "name": "_index",
          "type": "uint256"
        }
      ],
      "name": "getRoleSequencAtIndex",
      "outputs": [
        {
          "name": "roleId",
          "type": "uint256"
        }
      ],
      "payable": false,
      "stateMutability": "view",
      "type": "function"
    },
    {
      "constant": true,
      "inputs": [
        {
          "name": "_categoryId",
          "type": "uint256"
        }
      ],
      "name": "getCategoryDetails",
      "outputs": [
        {
          "name": "categoryName",
          "type": "string"
        },
        {
          "name": "functionName",
          "type": "string"
        },
        {
          "name": "contractAt",
          "type": "address"
        },
        {
          "name": "paramInt",
          "type": "uint8"
        },
        {
          "name": "paramBytes32",
          "type": "uint8"
        },
        {
          "name": "paramAddress",
          "type": "uint8"
        },
        {
          "name": "memberRoleSequence",
          "type": "uint8[]"
        },
        {
          "name": "memberRoleMajorityVote",
          "type": "uint256[]"
        }
      ],
      "payable": false,
      "stateMutability": "view",
      "type": "function"
    },
    {
      "constant": false,
      "inputs": [
        {
          "name": "source",
          "type": "string"
        }
      ],
      "name": "stringToBytes32",
      "outputs": [
        {
          "name": "result",
          "type": "bytes32"
        },
        {
          "name": "functionName",
          "type": "string"
        },
        {
          "name": "contractAt",
          "type": "address"
        },
        {
          "name": "paramInt",
          "type": "uint8"
        },
        {
          "name": "paramBytes32",
          "type": "uint8"
        },
        {
          "name": "paramAddress",
          "type": "uint8"
        }
      ],
      "payable": false,
      "stateMutability": "nonpayable",
      "type": "function"
    },
    {
      "constant": true,
      "inputs": [
        {
          "name": "",
          "type": "uint256"
        }
      ],
      "name": "allCategory",
      "outputs": [
        {
          "name": "categoryName",
          "type": "string"
        },
        {
          "name": "functionName",
          "type": "string"
        },
        {
          "name": "contractAt",
          "type": "address"
        },
        {
          "name": "paramInt",
          "type": "uint8"
        },
        {
          "name": "paramBytes32",
          "type": "uint8"
        },
        {
          "name": "paramAddress",
          "type": "uint8"
        }
      ],
      "payable": false,
      "stateMutability": "view",
      "type": "function"
    },
    {
      "constant": true,
      "inputs": [],
      "name": "getCategoriesLength",
      "outputs": [
        {
          "name": "length",
          "type": "uint256"
        }
      ],
      "payable": false,
      "stateMutability": "view",
      "type": "function"
    }
  ],
  "bytecode": "0x6060604052341561000f57600080fd5b6116fc8061001e6000396000f3006060604052600436106100a4576000357c0100000000000000000000000000000000000000000000000000000000900463ffffffff16806302e929c8146100a957806318b0211b146100e95780631aa6f616146101205780631d10a9731461015f5780638ef87959146102885780639deeab20146103eb578063b0a4aaee1461042b578063cfb519281461061d578063dff5f32214610696578063f6d9615f14610832575b600080fd5b34156100b457600080fd5b6100d3600480803590602001909190803590602001909190505061085b565b6040518082815260200191505060405180910390f35b34156100f457600080fd5b61010a600480803590602001909190505061089d565b6040518082815260200191505060405180910390f35b341561012b57600080fd5b61014160048080359060200190919050506108c9565b60405180826000191660001916815260200191505060405180910390f35b341561016a57600080fd5b610286600480803590602001909190803590602001908201803590602001908080601f0160208091040260200160405190810160405280939291908181526020018383808284378201915050505050509190803573ffffffffffffffffffffffffffffffffffffffff1690602001909190803560ff1690602001909190803560ff1690602001909190803560ff169060200190919080359060200190820180359060200190808060200260200160405190810160405280939291908181526020018383602002808284378201915050505050509190803590602001908201803590602001908080602002602001604051908101604052809392919081815260200183836020028082843782019150505050505091905050610998565b005b341561029357600080fd5b6103e9600480803590602001908201803590602001908080601f0160208091040260200160405190810160405280939291908181526020018383808284378201915050505050509190803590602001908201803590602001908080601f0160208091040260200160405190810160405280939291908181526020018383808284378201915050505050509190803573ffffffffffffffffffffffffffffffffffffffff1690602001909190803560ff1690602001909190803560ff1690602001909190803560ff169060200190919080359060200190820180359060200190808060200260200160405190810160405280939291908181526020018383602002808284378201915050505050509190803590602001908201803590602001908080602002602001604051908101604052809392919081815260200183836020028082843782019150505050505091905050610be6565b005b34156103f657600080fd5b6104156004808035906020019091908035906020019091905050610da4565b6040518082815260200191505060405180910390f35b341561043657600080fd5b61044c6004808035906020019091905050610dfd565b6040518080602001806020018973ffffffffffffffffffffffffffffffffffffffff1673ffffffffffffffffffffffffffffffffffffffff1681526020018860ff1660ff1681526020018760ff1660ff1681526020018660ff1660ff168152602001806020018060200185810385528d818151815260200191508051906020019080838360005b838110156104ee5780820151818401526020810190506104d3565b50505050905090810190601f16801561051b5780820380516001836020036101000a031916815260200191505b5085810384528c818151815260200191508051906020019080838360005b83811015610554578082015181840152602081019050610539565b50505050905090810190601f1680156105815780820380516001836020036101000a031916815260200191505b50858103835287818151815260200191508051906020019060200280838360005b838110156105bd5780820151818401526020810190506105a2565b50505050905001858103825286818151815260200191508051906020019060200280838360005b838110156105ff5780820151818401526020810190506105e4565b505050509050019c5050505050505050505050505060405180910390f35b341561062857600080fd5b610678600480803590602001908201803590602001908080601f0160208091040260200160405190810160405280939291908181526020018383808284378201915050505050509190505061117f565b60405180826000191660001916815260200191505060405180910390f35b34156106a157600080fd5b6106b760048080359060200190919050506111b0565b6040518080602001806020018773ffffffffffffffffffffffffffffffffffffffff1673ffffffffffffffffffffffffffffffffffffffff1681526020018660ff1660ff1681526020018560ff1660ff1681526020018460ff1660ff16815260200183810383528981815460018160011615610100020316600290048152602001915080546001816001161561010002031660029004801561079a5780601f1061076f5761010080835404028352916020019161079a565b820191906000526020600020905b81548152906001019060200180831161077d57829003601f168201915b505083810382528881815460018160011615610100020316600290048152602001915080546001816001161561010002031660029004801561081d5780601f106107f25761010080835404028352916020019161081d565b820191906000526020600020905b81548152906001019060200180831161080057829003601f168201915b50509850505050505050505060405180910390f35b341561083d57600080fd5b610845611240565b6040518082815260200191505060405180910390f35b6000808381548110151561086b57fe5b90600052602060002090600502016004018281548110151561088957fe5b906000526020600020900154905092915050565b600080828154811015156108ad57fe5b9060005260206000209060050201600301805490509050919050565b6000806000838154811015156108db57fe5b90600052602060002090600502016001019050610990818054600181600116156101000203166002900480601f0160208091040260200160405190810160405280929190818152602001828054600181600116156101000203166002900480156109865780601f1061095b57610100808354040283529160200191610986565b820191906000526020600020905b81548152906001019060200180831161096957829003601f168201915b505050505061117f565b915050919050565b6000815183511415156109aa57600080fd5b8760008a8154811015156109ba57fe5b906000526020600020906005020160010190805190602001906109de92919061124c565b508660008a8154811015156109ef57fe5b906000526020600020906005020160020160006101000a81548173ffffffffffffffffffffffffffffffffffffffff021916908373ffffffffffffffffffffffffffffffffffffffff1602179055508560008a815481101515610a4e57fe5b906000526020600020906005020160020160146101000a81548160ff021916908360ff1602179055508460008a815481101515610a8757fe5b906000526020600020906005020160020160156101000a81548160ff021916908360ff1602179055508360008a815481101515610ac057fe5b906000526020600020906005020160020160166101000a81548160ff021916908360ff160217905550600090505b8251811015610bdb57600089815481101515610b0657fe5b90600052602060002090600502016003018054806001018281610b2991906112cc565b91600052602060002090602091828204019190068584815181101515610b4b57fe5b90602001906020020151909190916101000a81548160ff021916908360ff16021790555050600089815481101515610b7f57fe5b90600052602060002090600502016004018054806001018281610ba29190611306565b916000526020600020900160008484815181101515610bbd57fe5b90602001906020020151909190915055508080600101915050610aee565b505050505050505050565b80518251141515610bf657600080fd5b60008054806001018281610c0a9190611332565b91600052602060002090600502016000610100604051908101604052808c81526020018b81526020018a73ffffffffffffffffffffffffffffffffffffffff1681526020018960ff1681526020018860ff1681526020018760ff1681526020018681526020018581525090919091506000820151816000019080519060200190610c95929190611364565b506020820151816001019080519060200190610cb2929190611364565b5060408201518160020160006101000a81548173ffffffffffffffffffffffffffffffffffffffff021916908373ffffffffffffffffffffffffffffffffffffffff16021790555060608201518160020160146101000a81548160ff021916908360ff16021790555060808201518160020160156101000a81548160ff021916908360ff16021790555060a08201518160020160166101000a81548160ff021916908360ff16021790555060c0820151816003019080519060200190610d799291906113e4565b5060e0820151816004019080519060200190610d9692919061148b565b505050505050505050505050565b60008083815481101515610db457fe5b906000526020600020906005020160030182815481101515610dd257fe5b90600052602060002090602091828204019190069054906101000a900460ff1660ff16905092915050565b610e056114d8565b610e0d6114d8565b600080600080610e1b6114ec565b610e23611500565b600089815481101515610e3257fe5b90600052602060002090600502016000018054600181600116156101000203166002900480601f016020809104026020016040519081016040528092919081815260200182805460018160011615610100020316600290048015610ed75780601f10610eac57610100808354040283529160200191610ed7565b820191906000526020600020905b815481529060010190602001808311610eba57829003601f168201915b50505050509750600089815481101515610eed57fe5b90600052602060002090600502016001018054600181600116156101000203166002900480601f016020809104026020016040519081016040528092919081815260200182805460018160011615610100020316600290048015610f925780601f10610f6757610100808354040283529160200191610f92565b820191906000526020600020905b815481529060010190602001808311610f7557829003601f168201915b50505050509650600089815481101515610fa857fe5b906000526020600020906005020160020160009054906101000a900473ffffffffffffffffffffffffffffffffffffffff169550600089815481101515610feb57fe5b906000526020600020906005020160020160149054906101000a900460ff16945060008981548110151561101b57fe5b906000526020600020906005020160020160159054906101000a900460ff16935060008981548110151561104b57fe5b906000526020600020906005020160020160169054906101000a900460ff16925060008981548110151561107b57fe5b90600052602060002090600502016003018054806020026020016040519081016040528092919081815260200182805480156110fc57602002820191906000526020600020906000905b82829054906101000a900460ff1660ff16815260200190600101906020826000010492830192600103820291508084116110c55790505b5050505050915060008981548110151561111257fe5b906000526020600020906005020160040180548060200260200160405190810160405280929190818152602001828054801561116d57602002820191906000526020600020905b815481526020019060010190808311611159575b50505050509050919395975091939597565b6000611189611514565b8290506000815114156111a257600060010291506111aa565b602083015191505b50919050565b6000818154811015156111bf57fe5b9060005260206000209060050201600091509050806000019080600101908060020160009054906101000a900473ffffffffffffffffffffffffffffffffffffffff16908060020160149054906101000a900460ff16908060020160159054906101000a900460ff16908060020160169054906101000a900460ff16905086565b60008080549050905090565b828054600181600116156101000203166002900490600052602060002090601f016020900481019282601f1061128d57805160ff19168380011785556112bb565b828001600101855582156112bb579182015b828111156112ba57825182559160200191906001019061129f565b5b5090506112c89190611528565b5090565b81548183558181151161130157601f016020900481601f016020900483600052602060002091820191016113009190611528565b5b505050565b81548183558181151161132d5781836000526020600020918201910161132c9190611528565b5b505050565b81548183558181151161135f5760050281600502836000526020600020918201910161135e919061154d565b5b505050565b828054600181600116156101000203166002900490600052602060002090601f016020900481019282601f106113a557805160ff19168380011785556113d3565b828001600101855582156113d3579182015b828111156113d25782518255916020019190600101906113b7565b5b5090506113e09190611528565b5090565b82805482825590600052602060002090601f0160209004810192821561147a5791602002820160005b8382111561144b57835183826101000a81548160ff021916908360ff160217905550926020019260010160208160000104928301926001030261140d565b80156114785782816101000a81549060ff021916905560010160208160000104928301926001030261144b565b505b509050611487919061160f565b5090565b8280548282559060005260206000209081019282156114c7579160200282015b828111156114c65782518255916020019190600101906114ab565b5b5090506114d49190611528565b5090565b602060405190810160405280600081525090565b602060405190810160405280600081525090565b602060405190810160405280600081525090565b602060405190810160405280600081525090565b61154a91905b8082111561154657600081600090555060010161152e565b5090565b90565b61160c91905b80821115611608576000808201600061156c919061163f565b60018201600061157c919061163f565b6002820160006101000a81549073ffffffffffffffffffffffffffffffffffffffff02191690556002820160146101000a81549060ff02191690556002820160156101000a81549060ff02191690556002820160166101000a81549060ff02191690556003820160006115ef9190611687565b6004820160006115ff91906116af565b50600501611553565b5090565b90565b61163c91905b8082111561163857600081816101000a81549060ff021916905550600101611615565b5090565b90565b50805460018160011615610100020316600290046000825580601f106116655750611684565b601f0160209004906000526020600020908101906116839190611528565b5b50565b50805460008255601f0160209004906000526020600020908101906116ac9190611528565b50565b50805460008255906000526020600020908101906116cd9190611528565b505600a165627a7a7230582009cfe70d4da36a83274b3b52814fb3e7b704931dcac77f1aaa1d9c2bf6bdac080029",
  "source": "/* Copyright (C) 2017 GovBlocks.io\r\n\r\n  This program is free software: you can redistribute it and/or modify\r\n    it under the terms of the GNU General Public License as published by\r\n    the Free Software Foundation, either version 3 of the License, or\r\n    (at your option) any later version.\r\n\r\n  This program is distributed in the hope that it will be useful,\r\n    but WITHOUT ANY WARRANTY; without even the implied warranty of\r\n    MERCHANTABILITY or FITNESS FOR A PARTICULAR PURPOSE.  See the\r\n    GNU General Public License for more details.\r\n\r\n  You should have received a copy of the GNU General Public License\r\n    along with this program.  If not, see http://www.gnu.org/licenses/ */\r\npragma solidity ^0.4.8;\r\ncontract ProposalCategory\r\n{\r\n        struct category{\r\n        string categoryName;\r\n        string functionName;\r\n        address contractAt;\r\n        uint8 paramInt;\r\n        uint8 paramBytes32;\r\n        uint8 paramAddress;\r\n        uint8[] memberRoleSequence;\r\n        uint[] memberRoleMajorityVote;\r\n    }\r\n    category[] public allCategory;\r\n    \r\n      /// @dev Gets the total number of categories.\r\n    function getCategoriesLength() constant returns (uint length)\r\n    {\r\n        length = allCategory.length;\r\n    }\r\n\r\n    /// @dev Gets category details by category id.\r\n    function getCategoryDetails(uint _categoryId) public constant returns (string categoryName,string functionName,address contractAt,uint8 paramInt,uint8 paramBytes32,uint8 paramAddress,uint8[] memberRoleSequence,uint[] memberRoleMajorityVote)\r\n    {    \r\n        categoryName = allCategory[_categoryId].categoryName;\r\n        functionName = allCategory[_categoryId].functionName;\r\n        contractAt = allCategory[_categoryId].contractAt;\r\n        paramInt = allCategory[_categoryId].paramInt;\r\n        paramBytes32 = allCategory[_categoryId].paramBytes32;\r\n        paramAddress = allCategory[_categoryId].paramAddress;\r\n        memberRoleSequence = allCategory[_categoryId].memberRoleSequence;\r\n        memberRoleMajorityVote = allCategory[_categoryId].memberRoleMajorityVote;\r\n    } \r\n    \r\n    /// @dev Get majority vote value for each voting level.\r\n    function getRoleMajorityVote(uint _categoryId,uint _index) constant returns(uint majorityVote)\r\n    {\r\n        return allCategory[_categoryId].memberRoleMajorityVote[_index];\r\n    }\r\n    \r\n    /// @dev Get the length of voting levels against given proposal.\r\n    function getRoleSequencLength(uint _categoryId) constant returns(uint roleLength)\r\n    {\r\n        return allCategory[_categoryId].memberRoleSequence.length;\r\n    }\r\n    /// @dev Get the next Roleid to cast vote against proposal, according to the sequence defined.\r\n    function getRoleSequencAtIndex(uint _categoryId,uint _index) constant returns(uint roleId)\r\n    {\r\n        return allCategory[_categoryId].memberRoleSequence[_index];\r\n    }\r\n    /// @dev Get the function name to call after proposal pass.\r\n    function getCategoryExecutionFunction(uint _categoryId) constant returns(bytes32)\r\n    {\r\n        string FuncName = allCategory[_categoryId].functionName;\r\n        return stringToBytes32(FuncName);\r\n        \r\n    }\r\n    /// @dev Convert string to bytes\r\n    function stringToBytes32(string memory source) returns (bytes32 result) \r\n    {\r\n        bytes memory tempEmptyStringTest = bytes(source);\r\n        if (tempEmptyStringTest.length == 0) \r\n        {\r\n            return 0x0;\r\n        }\r\n    \r\n        assembly {\r\n            result := mload(add(source, 32))\r\n         }\r\n    }\r\n\r\n    /// @dev Adds a new category.\r\n    function addNewCategory(string _categoryName,string _functionName,address _contractAt,uint8 _paramInt,uint8 _paramBytes32,uint8 _paramAddress,uint8[] _memberRoleSequence,uint[] _memberRoleMajorityVote) public\r\n    {\r\n        require(_memberRoleSequence.length == _memberRoleMajorityVote.length);\r\n        allCategory.push(category(_categoryName,_functionName,_contractAt,_paramInt,_paramBytes32,_paramAddress,_memberRoleSequence,_memberRoleMajorityVote));\r\n    }\r\n\r\n    /// @dev Updates a category details\r\n    function updateCategory(uint _categoryId,string _functionName,address _contractAt,uint8 _paramInt,uint8 _paramBytes32,uint8 _paramAddress,uint8[] _memberRoleSequence,uint[] _memberRoleMajorityVote) public\r\n    {\r\n        require(_memberRoleSequence.length == _memberRoleMajorityVote.length);\r\n        allCategory[_categoryId].functionName = _functionName;\r\n        allCategory[_categoryId].contractAt = _contractAt;\r\n        allCategory[_categoryId].paramInt = _paramInt;\r\n        allCategory[_categoryId].paramBytes32 = _paramBytes32; \r\n        allCategory[_categoryId].paramAddress = _paramAddress;\r\n\r\n        for(uint i=0; i<_memberRoleSequence.length; i++)\r\n        {\r\n            allCategory[_categoryId].memberRoleSequence.push(_memberRoleSequence[i]);\r\n            allCategory[_categoryId].memberRoleMajorityVote.push(_memberRoleMajorityVote[i]);\r\n        }\r\n        \r\n    }\r\n}",
  "sourcePath": "D:\\2. GovBlocks Contracts\\GovBlocks Git-Master\\contracts\\ProposalCategory.sol",
  "compiler": {
    "name": "solc",
    "version": "0.4.18+commit.9cf6e910.Emscripten.clang"
  },
  "schemaVersion": "1.0.1",
  "updatedAt": "2017-11-29T06:09:44.143Z"
}