{
  "contractName": "ProposalCategory",
  "abi": [
    {
      "constant": true,
      "inputs": [
        {
          "name": "_categoryId",
          "type": "uint256"
        },
        {
          "name": "_index",
          "type": "uint256"
        }
      ],
      "name": "getRoleMajorityVote",
      "outputs": [
        {
          "name": "majorityVote",
          "type": "uint256"
        }
      ],
      "payable": false,
      "stateMutability": "view",
      "type": "function"
    },
    {
      "constant": true,
      "inputs": [
        {
          "name": "_categoryId",
          "type": "uint256"
        }
      ],
      "name": "getRoleSequencLength",
      "outputs": [
        {
          "name": "roleLength",
          "type": "uint256"
        }
      ],
      "payable": false,
      "stateMutability": "view",
      "type": "function"
    },
    {
      "constant": false,
      "inputs": [
        {
          "name": "_categoryId",
          "type": "uint256"
        },
        {
          "name": "_functionName",
          "type": "string"
        },
        {
          "name": "_contractAt",
          "type": "address"
        },
        {
          "name": "_paramInt",
          "type": "uint8"
        },
        {
          "name": "_paramBytes32",
          "type": "uint8"
        },
        {
          "name": "_paramAddress",
          "type": "uint8"
        },
        {
          "name": "_memberRoleSequence",
          "type": "uint8[]"
        },
        {
          "name": "_memberRoleMajorityVote",
          "type": "uint256[]"
        }
      ],
      "name": "updateCategory",
      "outputs": [
        {
          "name": "",
          "type": "string"
        }
      ],
      "payable": false,
      "stateMutability": "nonpayable",
      "type": "function"
    },
    {
      "constant": true,
      "inputs": [
        {
          "name": "_categoryId",
          "type": "uint256"
        },
        {
          "name": "_index",
          "type": "uint256"
        },
        {
          "name": "_addressParamName",
          "type": "bytes32[]"
        },
        {
          "name": "_paramInt",
          "type": "uint8"
        },
        {
          "name": "_paramBytes32",
          "type": "uint8"
        },
        {
          "name": "_paramAddress",
          "type": "uint8"
        },
        {
          "name": "_memberRoleSequence",
          "type": "uint8[]"
        },
        {
          "name": "_memberRoleMajorityVote",
          "type": "uint256[]"
        }
      ],
      "name": "getCategoryParamNameUint",
      "outputs": [
        {
          "name": "",
          "type": "bytes32"
        }
      ],
      "payable": false,
      "stateMutability": "view",
      "type": "function"
    },
    {
      "constant": false,
      "inputs": [
        {
          "name": "_uintParamName",
          "type": "bytes32[]"
        },
        {
          "name": "_bytesParamName",
          "type": "bytes32[]"
        },
        {
          "name": "_addressParamName",
          "type": "bytes32[]"
        },
        {
          "name": "_paramInt",
          "type": "uint8"
        },
        {
          "name": "_paramBytes32",
          "type": "uint8"
        },
        {
          "name": "_paramAddress",
          "type": "uint8"
        },
        {
          "name": "_memberRoleSequence",
          "type": "uint8[]"
        },
        {
          "name": "_memberRoleMajorityVote",
          "type": "uint256[]"
        },
        {
          "name": "_uintParamName",
          "type": "bytes32[]"
        },
        {
          "name": "_bytesParamName",
          "type": "bytes32[]"
        },
        {
          "name": "_addressParamName",
          "type": "bytes32[]"
        }
      ],
      "name": "addNewCategory1",
      "outputs": [
        {
          "name": "roleId",
          "type": "uint256"
        }
      ],
      "payable": false,
      "stateMutability": "nonpayable",
      "type": "function"
    },
    {
      "constant": false,
      "inputs": [
        {
          "name": "_categoryName",
          "type": "string"
        },
        {
          "name": "_functionName",
          "type": "string"
        },
        {
          "name": "_contractAt",
          "type": "address"
        },
        {
          "name": "_paramInt",
          "type": "uint8"
        },
        {
          "name": "_paramBytes32",
          "type": "uint8"
        },
        {
          "name": "_paramAddress",
          "type": "uint8"
        },
        {
          "name": "_memberRoleSequence",
          "type": "uint8[]"
        },
        {
          "name": "_memberRoleMajorityVote",
          "type": "uint256[]"
        },
        {
          "name": "_uintParamName",
          "type": "bytes32[]"
        },
        {
          "name": "_bytesParamName",
          "type": "bytes32[]"
        },
        {
          "name": "_addressParamName",
          "type": "bytes32[]"
        }
      ],
      "name": "addNewCategory",
      "outputs": [
        {
          "name": "roleId",
          "type": "uint256"
        },
        {
          "name": "functionName",
          "type": "string"
        },
        {
          "name": "contractAt",
          "type": "address"
        },
        {
          "name": "paramInt",
          "type": "uint8"
        },
        {
          "name": "paramBytes32",
          "type": "uint8"
        },
        {
          "name": "paramAddress",
          "type": "uint8"
        },
        {
          "name": "memberRoleSequence",
          "type": "uint8[]"
        },
        {
          "name": "memberRoleMajorityVote",
          "type": "uint256[]"
        }
      ],
      "payable": false,
      "stateMutability": "nonpayable",
      "type": "function"
    },
    {
      "constant": true,
      "inputs": [
        {
          "name": "_categoryId",
          "type": "uint256"
        },
        {
          "name": "_index",
          "type": "uint256"
        }
      ],
      "name": "getRoleSequencAtIndex",
      "outputs": [
        {
          "name": "roleId",
          "type": "uint256"
        },
        {
          "name": "functionName",
          "type": "string"
        },
        {
          "name": "contractAt",
          "type": "address"
        },
        {
          "name": "paramInt",
          "type": "uint8"
        },
        {
          "name": "paramBytes32",
          "type": "uint8"
        },
        {
          "name": "paramAddress",
          "type": "uint8"
        },
        {
          "name": "memberRoleSequence",
          "type": "uint8[]"
        },
        {
          "name": "memberRoleMajorityVote",
          "type": "uint256[]"
        }
      ],
      "payable": false,
      "stateMutability": "view",
      "type": "function"
    },
    {
      "constant": true,
      "inputs": [
        {
          "name": "_categoryId",
          "type": "uint256"
        },
        {
          "name": "_uintParamName",
          "type": "bytes32[]"
        },
        {
          "name": "_bytesParamName",
          "type": "bytes32[]"
        },
        {
          "name": "_addressParamName",
          "type": "bytes32[]"
        }
      ],
      "name": "getCategoryDetails",
      "outputs": [
        {
          "name": "categoryName",
          "type": "string"
        },
        {
          "name": "functionName",
          "type": "string"
        },
        {
          "name": "contractAt",
          "type": "address"
        },
        {
          "name": "paramInt",
          "type": "uint8"
        },
        {
          "name": "paramBytes32",
          "type": "uint8"
        },
        {
          "name": "paramAddress",
          "type": "uint8"
        },
        {
          "name": "memberRoleSequence",
          "type": "uint8[]"
        },
        {
          "name": "memberRoleMajorityVote",
          "type": "uint256[]"
        }
      ],
      "payable": false,
      "stateMutability": "view",
      "type": "function"
    },
    {
      "constant": true,
      "inputs": [
        {
          "name": "_categoryId",
          "type": "uint256"
        },
        {
          "name": "_index",
          "type": "uint256"
        }
      ],
      "name": "getCategoryParamNameBytes",
      "outputs": [
        {
          "name": "",
          "type": "bytes32"
        },
        {
          "name": "functionName",
          "type": "string"
        },
        {
          "name": "contractAt",
          "type": "address"
        },
        {
          "name": "paramInt",
          "type": "uint8"
        },
        {
          "name": "paramBytes32",
          "type": "uint8"
        },
        {
          "name": "paramAddress",
          "type": "uint8"
        }
      ],
      "payable": false,
      "stateMutability": "view",
      "type": "function"
    },
    {
      "constant": false,
      "inputs": [
        {
          "name": "_proposalId",
          "type": "uint256"
        },
        {
          "name": "_categoryId",
          "type": "uint256"
        }
      ],
      "name": "actionAfterProposalPass",
      "outputs": [
        {
          "name": "length",
          "type": "uint256"
        }
      ],
      "payable": false,
      "stateMutability": "nonpayable",
      "type": "function"
    },
    {
      "constant": true,
      "inputs": [
        {
          "name": "_categoryId",
          "type": "uint256"
        },
        {
          "name": "_index",
          "type": "uint256"
        }
      ],
      "name": "getCategoryParamNameAddress",
      "outputs": [
        {
          "name": "",
          "type": "bytes32"
        }
      ],
      "payable": false,
      "stateMutability": "view",
      "type": "function"
    },
    {
      "constant": true,
      "inputs": [
        {
          "name": "",
          "type": "uint256"
        }
      ],
      "name": "allCategory",
      "outputs": [
        {
          "name": "categoryName",
          "type": "string"
        },
        {
          "name": "functionName",
          "type": "string"
        },
        {
          "name": "contractAt",
          "type": "address"
        },
        {
          "name": "paramInt",
          "type": "uint8"
        },
        {
          "name": "paramBytes32",
          "type": "uint8"
        },
        {
          "name": "paramAddress",
          "type": "uint8"
        }
      ],
      "payable": false,
      "stateMutability": "view",
      "type": "function"
    },
    {
      "constant": true,
      "inputs": [],
      "name": "getCategoriesLength",
      "outputs": [
        {
          "name": "length",
          "type": "uint256"
        }
      ],
      "payable": false,
      "stateMutability": "view",
      "type": "function"
    }
  ],
  "bytecode": "0x6060604052341561000f57600080fd5b611ded8061001e6000396000f3006060604052600436106100c5576000357c0100000000000000000000000000000000000000000000000000000000900463ffffffff16806302e929c8146100ca57806318b0211b1461010a5780631d10a97314610141578063713656291461026a5780638466ca95146102b257806393abb9691461038c5780639deeab20146105af578063b0a4aaee146105ef578063d7fa79ac146107e1578063db0c4f7914610829578063dfa4afc614610855578063dff5f3221461089d578063f6d9615f14610a39575b600080fd5b34156100d557600080fd5b6100f46004808035906020019091908035906020019091905050610a62565b6040518082815260200191505060405180910390f35b341561011557600080fd5b61012b6004808035906020019091905050610aa4565b6040518082815260200191505060405180910390f35b341561014c57600080fd5b610268600480803590602001909190803590602001908201803590602001908080601f0160208091040260200160405190810160405280939291908181526020018383808284378201915050505050509190803573ffffffffffffffffffffffffffffffffffffffff1690602001909190803560ff1690602001909190803560ff1690602001909190803560ff169060200190919080359060200190820180359060200190808060200260200160405190810160405280939291908181526020018383602002808284378201915050505050509190803590602001908201803590602001908080602002602001604051908101604052809392919081815260200183836020028082843782019150505050505091905050610ad0565b005b341561027557600080fd5b6102946004808035906020019091908035906020019091905050610db2565b60405180826000191660001916815260200191505060405180910390f35b34156102bd57600080fd5b61038a6004808035906020019082018035906020019080806020026020016040519081016040528093929190818152602001838360200280828437820191505050505050919080359060200190820180359060200190808060200260200160405190810160405280939291908181526020018383602002808284378201915050505050509190803590602001908201803590602001908080602002602001604051908101604052809392919081815260200183836020028082843782019150505050505091905050610df2565b005b341561039757600080fd5b6105ad600480803590602001908201803590602001908080601f0160208091040260200160405190810160405280939291908181526020018383808284378201915050505050509190803590602001908201803590602001908080601f0160208091040260200160405190810160405280939291908181526020018383808284378201915050505050509190803573ffffffffffffffffffffffffffffffffffffffff1690602001909190803560ff1690602001909190803560ff1690602001909190803560ff169060200190919080359060200190820180359060200190808060200260200160405190810160405280939291908181526020018383602002808284378201915050505050509190803590602001908201803590602001908080602002602001604051908101604052809392919081815260200183836020028082843782019150505050505091908035906020019082018035906020019080806020026020016040519081016040528093929190818152602001838360200280828437820191505050505050919080359060200190820180359060200190808060200260200160405190810160405280939291908181526020018383602002808284378201915050505050509190803590602001908201803590602001908080602002602001604051908101604052809392919081815260200183836020028082843782019150505050505091905050611047565b005b34156105ba57600080fd5b6105d96004808035906020019091908035906020019091905050611213565b6040518082815260200191505060405180910390f35b34156105fa57600080fd5b610610600480803590602001909190505061126c565b6040518080602001806020018973ffffffffffffffffffffffffffffffffffffffff1673ffffffffffffffffffffffffffffffffffffffff1681526020018860ff1660ff1681526020018760ff1660ff1681526020018660ff1660ff168152602001806020018060200185810385528d818151815260200191508051906020019080838360005b838110156106b2578082015181840152602081019050610697565b50505050905090810190601f1680156106df5780820380516001836020036101000a031916815260200191505b5085810384528c818151815260200191508051906020019080838360005b838110156107185780820151818401526020810190506106fd565b50505050905090810190601f1680156107455780820380516001836020036101000a031916815260200191505b50858103835287818151815260200191508051906020019060200280838360005b83811015610781578082015181840152602081019050610766565b50505050905001858103825286818151815260200191508051906020019060200280838360005b838110156107c35780820151818401526020810190506107a8565b505050509050019c5050505050505050505050505060405180910390f35b34156107ec57600080fd5b61080b60048080359060200190919080359060200190919050506115ee565b60405180826000191660001916815260200191505060405180910390f35b341561083457600080fd5b610853600480803590602001909190803590602001909190505061162e565b005b341561086057600080fd5b61087f600480803590602001909190803590602001909190505061176f565b60405180826000191660001916815260200191505060405180910390f35b34156108a857600080fd5b6108be60048080359060200190919050506117af565b6040518080602001806020018773ffffffffffffffffffffffffffffffffffffffff1673ffffffffffffffffffffffffffffffffffffffff1681526020018660ff1660ff1681526020018560ff1660ff1681526020018460ff1660ff1681526020018381038352898181546001816001161561010002031660029004815260200191508054600181600116156101000203166002900480156109a15780601f10610976576101008083540402835291602001916109a1565b820191906000526020600020905b81548152906001019060200180831161098457829003601f168201915b5050838103825288818154600181600116156101000203166002900481526020019150805460018160011615610100020316600290048015610a245780601f106109f957610100808354040283529160200191610a24565b820191906000526020600020905b815481529060010190602001808311610a0757829003601f168201915b50509850505050505050505060405180910390f35b3415610a4457600080fd5b610a4c61183f565b6040518082815260200191505060405180910390f35b60008083815481101515610a7257fe5b906000526020600020906005020160040182815481101515610a9057fe5b906000526020600020900154905092915050565b60008082815481101515610ab457fe5b9060005260206000209060050201600301805490509050919050565b600081518351141515610ae257600080fd5b8760008a815481101515610af257fe5b90600052602060002090600502016001019080519060200190610b1692919061184b565b508660008a815481101515610b2757fe5b906000526020600020906005020160020160006101000a81548173ffffffffffffffffffffffffffffffffffffffff021916908373ffffffffffffffffffffffffffffffffffffffff1602179055508560008a815481101515610b8657fe5b906000526020600020906005020160020160146101000a81548160ff021916908360ff1602179055508460008a815481101515610bbf57fe5b906000526020600020906005020160020160156101000a81548160ff021916908360ff1602179055508360008a815481101515610bf857fe5b906000526020600020906005020160020160166101000a81548160ff021916908360ff1602179055508251604051805910610c305750595b908082528060200260200182016040525060008a815481101515610c5057fe5b90600052602060002090600502016003019080519060200190610c749291906118cb565b508151604051805910610c845750595b908082528060200260200182016040525060008a815481101515610ca457fe5b90600052602060002090600502016004019080519060200190610cc8929190611972565b50600090505b8251811015610da7578281815181101515610ce557fe5b9060200190602002015160008a815481101515610cfe57fe5b906000526020600020906005020160030182815481101515610d1c57fe5b90600052602060002090602091828204019190066101000a81548160ff021916908360ff1602179055508181815181101515610d5457fe5b9060200190602002015160008a815481101515610d6d57fe5b906000526020600020906005020160040182815481101515610d8b57fe5b9060005260206000209001819055508080600101915050610cce565b505050505050505050565b6000600183815481101515610dc357fe5b906000526020600020900160000182815481101515610dde57fe5b906000526020600020900154905092915050565b60008060008054905091508451604051805910610e0c5750595b9080825280602002602001820160405250600183815481101515610e2c57fe5b90600052602060002090016000019080519060200190610e4d9291906119bf565b508351604051805910610e5d5750595b9080825280602002602001820160405250600283815481101515610e7d57fe5b90600052602060002090016000019080519060200190610e9e9291906119bf565b508251604051805910610eae5750595b9080825280602002602001820160405250600383815481101515610ece57fe5b90600052602060002090016000019080519060200190610eef9291906119bf565b50600090505b8451811015610f60578481815181101515610f0c57fe5b90602001906020020151600183815481101515610f2557fe5b906000526020600020900160000182815481101515610f4057fe5b906000526020600020900181600019169055508080600101915050610ef5565b600090505b8351811015610fd0578381815181101515610f7c57fe5b90602001906020020151600283815481101515610f9557fe5b906000526020600020900160000182815481101515610fb057fe5b906000526020600020900181600019169055508080600101915050610f65565b600090505b8251811015611040578281815181101515610fec57fe5b9060200190602002015160038381548110151561100557fe5b90600052602060002090016000018281548110151561102057fe5b906000526020600020900181600019169055508080600101915050610fd5565b5050505050565b8351855114151561105757600080fd5b6000805480600101828161106b9190611a12565b91600052602060002090600502016000610100604051908101604052808f81526020018e81526020018d73ffffffffffffffffffffffffffffffffffffffff1681526020018c60ff1681526020018b60ff1681526020018a60ff16815260200189815260200188815250909190915060008201518160000190805190602001906110f6929190611a44565b506020820151816001019080519060200190611113929190611a44565b5060408201518160020160006101000a81548173ffffffffffffffffffffffffffffffffffffffff021916908373ffffffffffffffffffffffffffffffffffffffff16021790555060608201518160020160146101000a81548160ff021916908360ff16021790555060808201518160020160156101000a81548160ff021916908360ff16021790555060a08201518160020160166101000a81548160ff021916908360ff16021790555060c08201518160030190805190602001906111da929190611ac4565b5060e08201518160040190805190602001906111f7929190611b6b565b50505050611206838383610df2565b5050505050505050505050565b6000808381548110151561122357fe5b90600052602060002090600502016003018281548110151561124157fe5b90600052602060002090602091828204019190069054906101000a900460ff1660ff16905092915050565b611274611bb8565b61127c611bb8565b60008060008061128a611bcc565b611292611be0565b6000898154811015156112a157fe5b90600052602060002090600502016000018054600181600116156101000203166002900480601f0160208091040260200160405190810160405280929190818152602001828054600181600116156101000203166002900480156113465780601f1061131b57610100808354040283529160200191611346565b820191906000526020600020905b81548152906001019060200180831161132957829003601f168201915b5050505050975060008981548110151561135c57fe5b90600052602060002090600502016001018054600181600116156101000203166002900480601f0160208091040260200160405190810160405280929190818152602001828054600181600116156101000203166002900480156114015780601f106113d657610100808354040283529160200191611401565b820191906000526020600020905b8154815290600101906020018083116113e457829003601f168201915b5050505050965060008981548110151561141757fe5b906000526020600020906005020160020160009054906101000a900473ffffffffffffffffffffffffffffffffffffffff16955060008981548110151561145a57fe5b906000526020600020906005020160020160149054906101000a900460ff16945060008981548110151561148a57fe5b906000526020600020906005020160020160159054906101000a900460ff1693506000898154811015156114ba57fe5b906000526020600020906005020160020160169054906101000a900460ff1692506000898154811015156114ea57fe5b906000526020600020906005020160030180548060200260200160405190810160405280929190818152602001828054801561156b57602002820191906000526020600020906000905b82829054906101000a900460ff1660ff16815260200190600101906020826000010492830192600103820291508084116115345790505b5050505050915060008981548110151561158157fe5b90600052602060002090600502016004018054806020026020016040519081016040528092919081815260200182805480156115dc57602002820191906000526020600020905b8154815260200190600101908083116115c8575b50505050509050919395975091939597565b60006002838154811015156115ff57fe5b90600052602060002090016000018281548110151561161a57fe5b906000526020600020900154905092915050565b60006116398261126c565b909192939495965090919293949550909192935090919250909150905050809150508073ffffffffffffffffffffffffffffffffffffffff1660008381548110151561168157fe5b906000526020600020906005020160010160405180828054600181600116156101000203166002900480156116ed5780601f106116cb5761010080835404028352918201916116ed565b820191906000526020600020905b8154815290600101906020018083116116d9575b505091505060405180910390207c01000000000000000000000000000000000000000000000000000000009004846040518263ffffffff167c01000000000000000000000000000000000000000000000000000000000281526004018082815260200191505060006040518083038160008761646e5a03f19250505050505050565b600060038381548110151561178057fe5b90600052602060002090016000018281548110151561179b57fe5b906000526020600020900154905092915050565b6000818154811015156117be57fe5b9060005260206000209060050201600091509050806000019080600101908060020160009054906101000a900473ffffffffffffffffffffffffffffffffffffffff16908060020160149054906101000a900460ff16908060020160159054906101000a900460ff16908060020160169054906101000a900460ff16905086565b60008080549050905090565b828054600181600116156101000203166002900490600052602060002090601f016020900481019282601f1061188c57805160ff19168380011785556118ba565b828001600101855582156118ba579182015b828111156118b957825182559160200191906001019061189e565b5b5090506118c79190611bf4565b5090565b82805482825590600052602060002090601f016020900481019282156119615791602002820160005b8382111561193257835183826101000a81548160ff021916908360ff16021790555092602001926001016020816000010492830192600103026118f4565b801561195f5782816101000a81549060ff0219169055600101602081600001049283019260010302611932565b505b50905061196e9190611c19565b5090565b8280548282559060005260206000209081019282156119ae579160200282015b828111156119ad578251825591602001919060010190611992565b5b5090506119bb9190611bf4565b5090565b828054828255906000526020600020908101928215611a01579160200282015b82811115611a005782518290600019169055916020019190600101906119df565b5b509050611a0e9190611c49565b5090565b815481835581811511611a3f57600502816005028360005260206000209182019101611a3e9190611c6e565b5b505050565b828054600181600116156101000203166002900490600052602060002090601f016020900481019282601f10611a8557805160ff1916838001178555611ab3565b82800160010185558215611ab3579182015b82811115611ab2578251825591602001919060010190611a97565b5b509050611ac09190611bf4565b5090565b82805482825590600052602060002090601f01602090048101928215611b5a5791602002820160005b83821115611b2b57835183826101000a81548160ff021916908360ff1602179055509260200192600101602081600001049283019260010302611aed565b8015611b585782816101000a81549060ff0219169055600101602081600001049283019260010302611b2b565b505b509050611b679190611c19565b5090565b828054828255906000526020600020908101928215611ba7579160200282015b82811115611ba6578251825591602001919060010190611b8b565b5b509050611bb49190611bf4565b5090565b602060405190810160405280600081525090565b602060405190810160405280600081525090565b602060405190810160405280600081525090565b611c1691905b80821115611c12576000816000905550600101611bfa565b5090565b90565b611c4691905b80821115611c4257600081816101000a81549060ff021916905550600101611c1f565b5090565b90565b611c6b91905b80821115611c67576000816000905550600101611c4f565b5090565b90565b611d2d91905b80821115611d295760008082016000611c8d9190611d30565b600182016000611c9d9190611d30565b6002820160006101000a81549073ffffffffffffffffffffffffffffffffffffffff02191690556002820160146101000a81549060ff02191690556002820160156101000a81549060ff02191690556002820160166101000a81549060ff0219169055600382016000611d109190611d78565b600482016000611d209190611da0565b50600501611c74565b5090565b90565b50805460018160011615610100020316600290046000825580601f10611d565750611d75565b601f016020900490600052602060002090810190611d749190611bf4565b5b50565b50805460008255601f016020900490600052602060002090810190611d9d9190611bf4565b50565b5080546000825590600052602060002090810190611dbe9190611bf4565b505600a165627a7a72305820f863c6fd8ee5c2aa9c2b5ea5e0518f15db226a30b5e323a700ad3960ce7a8b260029",
  "source": "/* Copyright (C) 2017 GovBlocks.io\r\n\r\n  This program is free software: you can redistribute it and/or modify\r\n    it under the terms of the GNU General Public License as published by\r\n    the Free Software Foundation, either version 3 of the License, or\r\n    (at your option) any later version.\r\n\r\n  This program is distributed in the hope that it will be useful,\r\n    but WITHOUT ANY WARRANTY; without even the implied warranty of\r\n    MERCHANTABILITY or FITNESS FOR A PARTICULAR PURPOSE.  See the\r\n    GNU General Public License for more details.\r\n\r\n  You should have received a copy of the GNU General Public License\r\n    along with this program.  If not, see http://www.gnu.org/licenses/ */\r\npragma solidity ^0.4.8;\r\ncontract ProposalCategory\r\n{\r\n    struct category{\r\n        string categoryName;\r\n        string functionName;\r\n        address contractAt;\r\n        uint8 paramInt;\r\n        uint8 paramBytes32;\r\n        uint8 paramAddress;\r\n        uint8[] memberRoleSequence;\r\n        uint[] memberRoleMajorityVote;\r\n    }\r\n\r\n    struct categoryParams\r\n    {\r\n        bytes32[] parameterName;\r\n    }\r\n\r\n    category[] public allCategory;\r\n\r\n    categoryParams[] uintParam;\r\n    categoryParams[] bytesParam;\r\n    categoryParams[] addressParam;\r\n\r\n    function getCategoryParamNameUint(uint _categoryId,uint _index)constant returns(bytes32)\r\n    {\r\n        return uintParam[_categoryId].parameterName[_index];\r\n    }\r\n\r\n    function getCategoryParamNameBytes(uint _categoryId,uint _index)constant returns(bytes32)\r\n    {\r\n        return bytesParam[_categoryId].parameterName[_index];\r\n    }\r\n\r\n    function getCategoryParamNameAddress(uint _categoryId,uint _index)constant returns(bytes32)\r\n    {\r\n        return addressParam[_categoryId].parameterName[_index];\r\n    }\r\n\r\n    /// @dev Gets the total number of categories.\r\n    function getCategoriesLength() constant returns (uint length)\r\n    {\r\n        length = allCategory.length;\r\n    }\r\n\r\n    /// @dev Gets category details by category id.\r\n    function getCategoryDetails(uint _categoryId) public constant returns (string categoryName,string functionName,address contractAt,uint8 paramInt,uint8 paramBytes32,uint8 paramAddress,uint8[] memberRoleSequence,uint[] memberRoleMajorityVote)\r\n    {    \r\n        categoryName = allCategory[_categoryId].categoryName;\r\n        functionName = allCategory[_categoryId].functionName;\r\n        contractAt = allCategory[_categoryId].contractAt;\r\n        paramInt = allCategory[_categoryId].paramInt;\r\n        paramBytes32 = allCategory[_categoryId].paramBytes32;\r\n        paramAddress = allCategory[_categoryId].paramAddress;\r\n        memberRoleSequence = allCategory[_categoryId].memberRoleSequence;\r\n        memberRoleMajorityVote = allCategory[_categoryId].memberRoleMajorityVote;\r\n    } \r\n    \r\n    /// @dev Get majority vote value for each voting level.\r\n    function getRoleMajorityVote(uint _categoryId,uint _index) constant returns(uint majorityVote)\r\n    {\r\n        return allCategory[_categoryId].memberRoleMajorityVote[_index];\r\n    }\r\n    \r\n    /// @dev Get the length of voting levels against given proposal.\r\n    function getRoleSequencLength(uint _categoryId) constant returns(uint roleLength)\r\n    {\r\n        return allCategory[_categoryId].memberRoleSequence.length;\r\n    }\r\n    /// @dev Get the next Roleid to cast vote against proposal, according to the sequence defined.\r\n    function getRoleSequencAtIndex(uint _categoryId,uint _index) constant returns(uint roleId)\r\n    {\r\n        return allCategory[_categoryId].memberRoleSequence[_index];\r\n    }\r\n    /// @dev Adds a new category.\r\n    function addNewCategory(string _categoryName,string _functionName,address _contractAt,uint8 _paramInt,uint8 _paramBytes32,uint8 _paramAddress,uint8[] _memberRoleSequence,uint[] _memberRoleMajorityVote,bytes32[] _uintParamName,bytes32[] _bytesParamName,bytes32[] _addressParamName) public\r\n    {\r\n        require(_memberRoleSequence.length == _memberRoleMajorityVote.length);\r\n        allCategory.push(category(_categoryName,_functionName,_contractAt,_paramInt,_paramBytes32,_paramAddress,_memberRoleSequence,_memberRoleMajorityVote));\r\n        addNewCategory1(_uintParamName,_bytesParamName,_addressParamName);\r\n    }\r\n\r\n    /// @dev Added Parameter's name required for a category.\r\n    function addNewCategory1(bytes32[] _uintParamName,bytes32[] _bytesParamName,bytes32[] _addressParamName)\r\n    {\r\n        uint _categoryId = allCategory.length;\r\n        uintParam[_categoryId].parameterName=new bytes32[](_uintParamName.length); \r\n        bytesParam[_categoryId].parameterName=new bytes32[](_bytesParamName.length);\r\n        addressParam[_categoryId].parameterName=new bytes32[](_addressParamName.length);\r\n        \r\n        for(uint i=0; i<_uintParamName.length; i++)\r\n        {\r\n            uintParam[_categoryId].parameterName[i] = _uintParamName[i];\r\n        }\r\n\r\n        for(i=0; i<_bytesParamName.length; i++)\r\n        {\r\n            bytesParam[_categoryId].parameterName[i] = _bytesParamName[i];\r\n        }\r\n\r\n        for(i=0; i<_addressParamName.length; i++)\r\n        {\r\n            addressParam[_categoryId].parameterName[i] = _addressParamName[i];\r\n        }\r\n    }\r\n    \r\n    /// @dev Updates a category details\r\n    function updateCategory(uint _categoryId,string _functionName,address _contractAt,uint8 _paramInt,uint8 _paramBytes32,uint8 _paramAddress,uint8[] _memberRoleSequence,uint[] _memberRoleMajorityVote) public\r\n    {\r\n        require(_memberRoleSequence.length == _memberRoleMajorityVote.length);\r\n        allCategory[_categoryId].functionName = _functionName;\r\n        allCategory[_categoryId].contractAt = _contractAt;\r\n        allCategory[_categoryId].paramInt = _paramInt;\r\n        allCategory[_categoryId].paramBytes32 = _paramBytes32; \r\n        allCategory[_categoryId].paramAddress = _paramAddress;\r\n\r\n        allCategory[_categoryId].memberRoleSequence=new uint8[](_memberRoleSequence.length);\r\n        allCategory[_categoryId].memberRoleMajorityVote=new uint[](_memberRoleMajorityVote.length);\r\n\r\n        for(uint i=0; i<_memberRoleSequence.length; i++)\r\n        {\r\n            allCategory[_categoryId].memberRoleSequence[i] =_memberRoleSequence[i];\r\n            allCategory[_categoryId].memberRoleMajorityVote[i] = _memberRoleMajorityVote[i];\r\n        }\r\n    }\r\n    /// @dev function to be called after proposal pass\r\n    function actionAfterProposalPass(uint _proposalId,uint _categoryId) public\r\n    {\r\n        address contractAt;\r\n        (,,contractAt,,,,,) = getCategoryDetails(_categoryId);\r\n        contractAt.call(bytes4(sha3(allCategory[_categoryId].functionName)),_proposalId);\r\n    }\r\n\r\n}",
  "sourcePath": "D:\\2. GovBlocks Contracts\\GovBlocks Git-Master\\contracts\\ProposalCategory.sol",
  "compiler": {
    "name": "solc",
    "version": "0.4.18+commit.9cf6e910.Emscripten.clang"
  },
  "schemaVersion": "1.0.1",
  "updatedAt": "2017-12-18T07:10:32.081Z"
}