{
  "contractName": "ProposalCategory",
  "abi": [
    {
      "constant": true,
      "inputs": [
        {
          "name": "_categoryId",
          "type": "uint256"
        },
        {
          "name": "_index",
          "type": "uint256"
        }
      ],
      "name": "getClosingTimeByIndex",
      "outputs": [
        {
          "name": "closeTime",
          "type": "uint256"
        }
      ],
      "payable": false,
      "stateMutability": "view",
      "type": "function"
    },
    {
      "constant": true,
      "inputs": [
        {
          "name": "_categoryId",
          "type": "uint256"
        },
        {
          "name": "_index",
          "type": "uint256"
        }
      ],
      "name": "getRoleMajorityVote",
      "outputs": [
        {
          "name": "majorityVote",
          "type": "uint256"
        }
      ],
      "payable": false,
      "stateMutability": "view",
      "type": "function"
    },
    {
      "constant": true,
      "inputs": [
        {
          "name": "_categoryId",
          "type": "uint256"
        },
        {
          "name": "_functionName",
          "type": "string"
        },
        {
          "name": "_contractAt",
          "type": "address"
        },
        {
          "name": "_paramInt",
          "type": "uint8"
        },
        {
          "name": "_paramBytes32",
          "type": "uint8"
        },
        {
          "name": "_paramAddress",
          "type": "uint8"
        },
        {
          "name": "_memberRoleSequence",
          "type": "uint8[]"
        },
        {
          "name": "_memberRoleMajorityVote",
          "type": "uint256[]"
        }
      ],
      "name": "getClosingTimeLength",
      "outputs": [
        {
          "name": "closingTimeLength",
          "type": "uint256"
        }
      ],
      "payable": false,
      "stateMutability": "view",
      "type": "function"
    },
    {
      "constant": true,
      "inputs": [
        {
          "name": "_categoryId",
          "type": "uint256"
        },
        {
          "name": "_uintParamName",
          "type": "bytes32[]"
        },
        {
          "name": "_bytesParamName",
          "type": "bytes32[]"
        },
        {
          "name": "_addressParamName",
          "type": "bytes32[]"
        },
        {
          "name": "_paramBytes32",
          "type": "uint8"
        },
        {
          "name": "_paramAddress",
          "type": "uint8"
        },
        {
          "name": "_memberRoleSequence",
          "type": "uint8[]"
        },
        {
          "name": "_memberRoleMajorityVote",
          "type": "uint256[]"
        }
      ],
      "name": "getRoleSequencLength",
      "outputs": [
        {
          "name": "roleLength",
          "type": "uint256"
        }
      ],
      "payable": false,
      "stateMutability": "view",
      "type": "function"
    },
    {
      "constant": true,
      "inputs": [
        {
          "name": "_categoryId",
          "type": "uint256"
        },
        {
          "name": "_index",
          "type": "uint256"
        },
        {
          "name": "_contractAt",
          "type": "address"
        },
        {
          "name": "_paramInt",
          "type": "uint8"
        },
        {
          "name": "_paramBytes32",
          "type": "uint8"
        },
        {
          "name": "_paramAddress",
          "type": "uint8"
        },
        {
          "name": "_memberRoleSequence",
          "type": "uint8[]"
        },
        {
          "name": "_memberRoleMajorityVote",
          "type": "uint256[]"
        },
        {
          "name": "_uintParamName",
          "type": "bytes32[]"
        },
        {
          "name": "_bytesParamName",
          "type": "bytes32[]"
        },
        {
          "name": "_addressParamName",
          "type": "bytes32[]"
        }
      ],
      "name": "getRoleMajorityVotelength",
      "outputs": [
        {
          "name": "majorityVoteLength",
          "type": "uint256"
        },
        {
          "name": "paramBytes",
          "type": "bytes32"
        },
        {
          "name": "paramAddress",
          "type": "bytes32"
        },
        {
          "name": "uintHash",
          "type": "string"
        },
        {
          "name": "bytesHash",
          "type": "string"
        },
        {
          "name": "addressHash",
          "type": "string"
        }
      ],
      "payable": false,
      "stateMutability": "view",
      "type": "function"
    },
    {
      "constant": true,
      "inputs": [
        {
          "name": "_categoryId",
          "type": "uint8"
        },
        {
          "name": "_uintParamName",
          "type": "bytes32[]"
        },
        {
          "name": "_bytesParamName",
          "type": "bytes32[]"
        },
        {
          "name": "_addressParamName",
          "type": "bytes32[]"
        },
        {
          "name": "_uintParameterDescHash",
          "type": "string"
        },
        {
          "name": "_bytesParameterDescHash",
          "type": "string"
        },
        {
          "name": "_addressParameterDescHash",
          "type": "string"
        },
        {
          "name": "_memberRoleMajorityVote",
          "type": "uint256[]"
        },
        {
          "name": "_uintParamName",
          "type": "bytes32[]"
        },
        {
          "name": "_bytesParamName",
          "type": "bytes32[]"
        },
        {
          "name": "_addressParamName",
          "type": "bytes32[]"
        }
      ],
      "name": "getCategoryName",
      "outputs": [
        {
          "name": "",
          "type": "string"
        },
        {
          "name": "functionName",
          "type": "string"
        },
        {
          "name": "contractAt",
          "type": "address"
        },
        {
          "name": "paramInt",
          "type": "uint8"
        },
        {
          "name": "paramBytes32",
          "type": "uint8"
        },
        {
          "name": "paramAddress",
          "type": "uint8"
        },
        {
          "name": "memberRoleSequence",
          "type": "uint8[]"
        },
        {
          "name": "memberRoleMajorityVote",
          "type": "uint256[]"
        }
      ],
      "payable": false,
      "stateMutability": "view",
      "type": "function"
    },
    {
      "constant": true,
      "inputs": [
        {
          "name": "_categoryId",
          "type": "uint256"
        },
        {
          "name": "_uintParamName",
          "type": "bytes32[]"
        },
        {
          "name": "_bytesParamName",
          "type": "bytes32[]"
        },
        {
          "name": "_addressParamName",
          "type": "bytes32[]"
        },
        {
          "name": "_uintParameterDescHash",
          "type": "string"
        },
        {
          "name": "_bytesParameterDescHash",
          "type": "string"
        },
        {
          "name": "_addressParameterDescHash",
          "type": "string"
        },
        {
          "name": "_memberRoleMajorityVote",
          "type": "uint256[]"
        }
      ],
      "name": "getCatgoryData2",
      "outputs": [
        {
          "name": "intParameter",
          "type": "bytes32[]"
        },
        {
          "name": "bytesParameter",
          "type": "bytes32[]"
        },
        {
          "name": "addressParameter",
          "type": "bytes32[]"
        },
        {
          "name": "intDesc",
          "type": "string"
        },
        {
          "name": "bytesDesc",
          "type": "string"
        },
        {
          "name": "addressDesc",
          "type": "string"
        },
        {
          "name": "memberRoleSequence",
          "type": "uint8[]"
        },
        {
          "name": "memberRoleMajorityVote",
          "type": "uint256[]"
        }
      ],
      "payable": false,
      "stateMutability": "view",
      "type": "function"
    },
    {
      "constant": true,
      "inputs": [
        {
          "name": "_categoryId",
          "type": "uint256"
        },
        {
          "name": "_functionName",
          "type": "string"
        },
        {
          "name": "_contractAt",
          "type": "address"
        },
        {
          "name": "_paramInt",
          "type": "uint8"
        },
        {
          "name": "_paramBytes32",
          "type": "uint8"
        },
        {
          "name": "_paramAddress",
          "type": "uint8"
        },
        {
          "name": "_memberRoleSequence",
          "type": "uint8[]"
        },
        {
          "name": "_memberRoleMajorityVote",
          "type": "uint256[]"
        }
      ],
      "name": "getCategoryData1",
      "outputs": [
        {
          "name": "roleName",
          "type": "bytes32[]"
        },
        {
          "name": "majorityVote",
          "type": "uint256[]"
        },
        {
          "name": "closingTime",
          "type": "uint24[]"
        },
        {
          "name": "categoryName",
          "type": "string"
        },
        {
          "name": "functionValue",
          "type": "bool"
        },
        {
          "name": "paramAddress",
          "type": "uint8"
        },
        {
          "name": "memberRoleSequence",
          "type": "uint8[]"
        },
        {
          "name": "memberRoleMajorityVote",
          "type": "uint256[]"
        }
      ],
      "payable": false,
      "stateMutability": "view",
      "type": "function"
    },
    {
      "constant": true,
      "inputs": [
        {
          "name": "_categoryId",
          "type": "uint256"
        },
        {
          "name": "_functionName",
          "type": "string"
        },
        {
          "name": "_contractAt",
          "type": "address"
        },
        {
          "name": "_paramInt",
          "type": "uint8"
        },
        {
          "name": "_paramBytes32",
          "type": "uint8"
        },
        {
          "name": "_paramAddress",
          "type": "uint8"
        },
        {
          "name": "_memberRoleSequence",
          "type": "uint8[]"
        },
        {
          "name": "_memberRoleMajorityVote",
          "type": "uint256[]"
        }
      ],
      "name": "getMaxStake",
      "outputs": [
        {
          "name": "",
          "type": "uint8"
        },
        {
          "name": "functionName",
          "type": "string"
        },
        {
          "name": "contractAt",
          "type": "address"
        },
        {
          "name": "paramInt",
          "type": "uint8"
        },
        {
          "name": "paramBytes32",
          "type": "uint8"
        },
        {
          "name": "paramAddress",
          "type": "uint8"
        },
        {
          "name": "memberRoleSequence",
          "type": "uint8[]"
        },
        {
          "name": "memberRoleMajorityVote",
          "type": "uint256[]"
        }
      ],
      "payable": false,
      "stateMutability": "view",
      "type": "function"
    },
    {
      "constant": true,
      "inputs": [
        {
          "name": "_categoryId",
          "type": "uint256"
        },
        {
          "name": "_index",
          "type": "uint256"
        }
      ],
      "name": "getCategoryParamNameUint",
      "outputs": [
        {
          "name": "",
          "type": "bytes32"
        },
        {
          "name": "functionName",
          "type": "string"
        },
        {
          "name": "contractAt",
          "type": "address"
        },
        {
          "name": "paramInt",
          "type": "uint8"
        },
        {
          "name": "paramBytes32",
          "type": "uint8"
        },
        {
          "name": "paramAddress",
          "type": "uint8"
        },
        {
          "name": "memberRoleSequence",
          "type": "uint8[]"
        },
        {
          "name": "memberRoleMajorityVote",
          "type": "uint256[]"
        }
      ],
      "payable": false,
      "stateMutability": "view",
      "type": "function"
    },
    {
      "constant": true,
      "inputs": [
        {
          "name": "_categoryId",
          "type": "uint256"
        },
        {
          "name": "_categoryId",
          "type": "uint256"
        }
      ],
      "name": "getMinStake",
      "outputs": [
        {
          "name": "",
          "type": "uint8"
        },
        {
          "name": "categoryName",
          "type": "string"
        },
        {
          "name": "functionName",
          "type": "string"
        },
        {
          "name": "contractAt",
          "type": "address"
        },
        {
          "name": "paramInt",
          "type": "uint8"
        },
        {
          "name": "paramBytes32",
          "type": "uint8"
        },
        {
          "name": "paramAddress",
          "type": "uint8"
        },
        {
          "name": "memberRoleSequence",
          "type": "uint8[]"
        },
        {
          "name": "memberRoleMajorityVote",
          "type": "uint256[]"
        }
      ],
      "payable": false,
      "stateMutability": "view",
      "type": "function"
    },
    {
      "constant": false,
      "inputs": [
        {
          "name": "_categoryId",
          "type": "uint256"
        },
        {
          "name": "_uintParamName",
          "type": "bytes32[]"
        },
        {
          "name": "_bytesParamName",
          "type": "bytes32[]"
        },
        {
          "name": "_addressParamName",
          "type": "bytes32[]"
        },
        {
          "name": "_uintParameterDescHash",
          "type": "string"
        },
        {
          "name": "_bytesParameterDescHash",
          "type": "string"
        },
        {
          "name": "_addressParameterDescHash",
          "type": "string"
        }
      ],
      "name": "addCategoryParamsNameAndDesc",
      "outputs": [
        {
          "name": "",
          "type": "string"
        },
        {
          "name": "functionName",
          "type": "string"
        },
        {
          "name": "contractAt",
          "type": "address"
        },
        {
          "name": "paramInt",
          "type": "uint8"
        },
        {
          "name": "paramBytes32",
          "type": "uint8"
        },
        {
          "name": "paramAddress",
          "type": "uint8"
        }
      ],
      "payable": false,
      "stateMutability": "nonpayable",
      "type": "function"
    },
    {
      "constant": false,
      "inputs": [
        {
          "name": "_categoryId",
          "type": "uint256"
        },
        {
          "name": "_index",
          "type": "uint256"
        }
      ],
      "name": "ProposalCategoryInitiate",
      "outputs": [
        {
          "name": "",
          "type": "bytes32"
        },
        {
          "name": "functionName",
          "type": "string"
        },
        {
          "name": "contractAt",
          "type": "address"
        },
        {
          "name": "paramInt",
          "type": "uint8"
        },
        {
          "name": "paramBytes32",
          "type": "uint8"
        },
        {
          "name": "paramAddress",
          "type": "uint8"
        }
      ],
      "payable": false,
      "stateMutability": "nonpayable",
      "type": "function"
    },
    {
      "constant": true,
      "inputs": [
        {
          "name": "_proposalId",
          "type": "uint256"
        },
        {
          "name": "_categoryId",
          "type": "uint256"
        }
      ],
      "name": "owner",
      "outputs": [
        {
          "name": "",
          "type": "address"
        }
      ],
      "payable": false,
      "stateMutability": "view",
      "type": "function"
    },
    {
      "constant": true,
      "inputs": [
        {
          "name": "_categoryId",
          "type": "uint256"
        },
        {
          "name": "_index",
          "type": "uint256"
        }
      ],
      "name": "getRoleSequencAtIndex",
      "outputs": [
        {
          "name": "roleId",
          "type": "uint256"
        },
        {
          "name": "functionName",
          "type": "string"
        },
        {
          "name": "contractAt",
          "type": "address"
        },
        {
          "name": "paramInt",
          "type": "uint8"
        },
        {
          "name": "paramBytes32",
          "type": "uint8"
        },
        {
          "name": "paramAddress",
          "type": "uint8"
        }
      ],
      "payable": false,
      "stateMutability": "view",
      "type": "function"
    },
    {
      "constant": true,
      "inputs": [
        {
          "name": "_categoryId",
          "type": "uint256"
        },
        {
          "name": "_index",
          "type": "uint256"
        }
      ],
      "name": "getCategoryDetails",
      "outputs": [
        {
          "name": "cateId",
          "type": "uint256"
        },
        {
          "name": "categoryName",
          "type": "string"
        },
        {
          "name": "functionName",
          "type": "string"
        },
        {
          "name": "contractAt",
          "type": "address"
        },
        {
          "name": "paramInt",
          "type": "uint8"
        },
        {
          "name": "paramBytes32",
          "type": "uint8"
        },
        {
          "name": "paramAddress",
          "type": "uint8"
        },
        {
          "name": "memberRoleSequence",
          "type": "uint8[]"
        },
        {
          "name": "memberRoleMajorityVote",
          "type": "uint256[]"
        }
      ],
      "payable": false,
      "stateMutability": "view",
      "type": "function"
    },
    {
      "constant": false,
      "inputs": [
        {
          "name": "_categoryName",
          "type": "string"
        },
        {
          "name": "_functionName",
          "type": "string"
        },
        {
          "name": "_contractAt",
          "type": "address"
        },
        {
          "name": "_paramInt",
          "type": "uint8"
        },
        {
          "name": "_paramBytes32",
          "type": "uint8"
        },
        {
          "name": "_paramAddress",
          "type": "uint8"
        },
        {
          "name": "_memberRoleSequence",
          "type": "uint8[]"
        },
        {
          "name": "_memberRoleMajorityVote",
          "type": "uint256[]"
        },
        {
          "name": "_closingTime",
          "type": "uint24[]"
        },
        {
          "name": "_minStake",
          "type": "uint8"
        },
        {
          "name": "_maxStake",
          "type": "uint8"
        }
      ],
      "name": "addNewCategory",
      "outputs": [
        {
          "name": "",
          "type": "string"
        },
        {
          "name": "functionName",
          "type": "string"
        },
        {
          "name": "contractAt",
          "type": "address"
        },
        {
          "name": "paramInt",
          "type": "uint8"
        },
        {
          "name": "paramBytes32",
          "type": "uint8"
        },
        {
          "name": "paramAddress",
          "type": "uint8"
        }
      ],
      "payable": false,
      "stateMutability": "nonpayable",
      "type": "function"
    },
    {
      "constant": true,
      "inputs": [
        {
          "name": "_categoryId",
          "type": "uint256"
        }
      ],
      "name": "getCategoryParamHashBytes",
      "outputs": [
        {
          "name": "",
          "type": "string"
        }
      ],
      "payable": false,
      "stateMutability": "view",
      "type": "function"
    },
    {
      "constant": false,
      "inputs": [
        {
          "name": "_MRContractAddress",
          "type": "address"
        }
      ],
      "name": "changeAllContractsAddress",
      "outputs": [
        {
          "name": "",
          "type": "string"
        }
      ],
      "payable": false,
      "stateMutability": "nonpayable",
      "type": "function"
    },
    {
      "constant": true,
      "inputs": [
        {
          "name": "_categoryId",
          "type": "uint256"
        },
        {
          "name": "_index",
          "type": "uint256"
        }
      ],
      "name": "getCategoryParamNameBytes",
      "outputs": [
        {
          "name": "",
          "type": "bytes32"
        }
      ],
      "payable": false,
      "stateMutability": "view",
      "type": "function"
    },
    {
      "anonymous": false,
      "inputs": [
        {
          "indexed": true,
          "name": "_proposalId",
          "type": "uint256"
        },
        {
          "indexed": true,
          "name": "_categoryId",
          "type": "uint256"
        }
      ],
      "name": "actionAfterProposalPass",
      "type": "function",
      "constant": false,
      "outputs": [
        {
          "name": "length",
          "type": "uint256"
        }
      ],
      "payable": false,
      "stateMutability": "nonpayable"
    },
    {
      "anonymous": false,
      "inputs": [
        {
          "indexed": true,
          "name": "_categoryId",
          "type": "uint256"
        },
        {
          "indexed": true,
          "name": "_index",
          "type": "uint256"
        }
      ],
      "name": "getCategoryParamNameAddress",
      "type": "function",
      "constant": true,
      "outputs": [
        {
          "name": "",
          "type": "bytes32"
        }
      ],
      "payable": false,
      "stateMutability": "view"
    },
    {
      "constant": true,
      "inputs": [
        {
          "name": "",
          "type": "uint256"
        }
      ],
      "name": "allCategory",
      "outputs": [
        {
          "name": "categoryName",
          "type": "string"
        },
        {
          "name": "functionName",
          "type": "string"
        },
        {
          "name": "contractAt",
          "type": "address"
        },
        {
          "name": "paramInt",
          "type": "uint8"
        },
        {
          "name": "paramBytes32",
          "type": "uint8"
        },
        {
          "name": "paramAddress",
          "type": "uint8"
        },
        {
          "name": "minStake",
          "type": "uint8"
        },
        {
          "name": "maxStake",
          "type": "uint8"
        }
      ],
      "payable": false,
      "stateMutability": "view",
      "type": "function"
    },
    {
      "constant": true,
      "inputs": [
        {
          "name": "_categoryId",
          "type": "uint256"
        }
      ],
      "name": "getCategoryParamHashUint",
      "outputs": [
        {
          "name": "",
          "type": "string"
        }
      ],
      "payable": false,
      "stateMutability": "view",
      "type": "function"
    },
    {
      "constant": true,
      "inputs": [
        {
          "name": "_categoryId",
          "type": "uint256"
        }
      ],
      "name": "getCategoryParamHashAddress",
      "outputs": [
        {
          "name": "",
          "type": "string"
        }
      ],
      "payable": false,
      "stateMutability": "view",
      "type": "function"
    },
    {
      "constant": false,
      "inputs": [
        {
          "name": "newOwner",
          "type": "address"
        }
      ],
      "name": "transferOwnership",
      "outputs": [],
      "payable": false,
      "stateMutability": "nonpayable",
      "type": "function"
    },
    {
      "constant": true,
      "inputs": [],
      "name": "getCategoriesLength",
      "outputs": [
        {
          "name": "length",
          "type": "uint256"
        }
      ],
      "payable": false,
      "stateMutability": "view",
      "type": "function"
    },
    {
      "constant": false,
      "inputs": [
        {
          "name": "_categoryId",
          "type": "uint256"
        },
        {
          "name": "_functionName",
          "type": "string"
        },
        {
          "name": "_contractAt",
          "type": "address"
        },
        {
          "name": "_paramInt",
          "type": "uint8"
        },
        {
          "name": "_paramBytes32",
          "type": "uint8"
        },
        {
          "name": "_paramAddress",
          "type": "uint8"
        },
        {
          "name": "_memberRoleSequence",
          "type": "uint8[]"
        },
        {
          "name": "_memberRoleMajorityVote",
          "type": "uint256[]"
        },
        {
          "name": "_closingTime",
          "type": "uint24[]"
        },
        {
          "name": "_minStake",
          "type": "uint8"
        },
        {
          "name": "_maxStake",
          "type": "uint8"
        }
      ],
      "name": "updateCategory",
      "outputs": [],
      "payable": false,
      "stateMutability": "nonpayable",
      "type": "function"
    },
    {
      "anonymous": false,
      "inputs": [
        {
          "indexed": true,
          "name": "previousOwner",
          "type": "address"
        },
        {
          "indexed": true,
          "name": "newOwner",
          "type": "address"
        }
      ],
      "name": "OwnershipTransferred",
      "type": "event"
    }
  ],
  "bytecode": "0x6060604052336000806101000a81548173ffffffffffffffffffffffffffffffffffffffff021916908373ffffffffffffffffffffffffffffffffffffffff16021790555061431f806100536000396000f30060606040526004361061016a576000357c0100000000000000000000000000000000000000000000000000000000900463ffffffff16806302685f611461016f57806302e929c8146101af5780630c55ecd8146101ef57806318b0211b1461022657806325be5de31461025d5780633f9a61e01461029457806350e83e9014610333578063523df7bd1461057f57806354dacca7146106fe578063713656291461073b57806373f231e7146107835780637cb719ae146107c05780638025ada71461096c5780638da5cb5b146109815780639deeab20146109d6578063b0a4aaee14610a16578063be0bdb5714610c0f578063c150d22314610dca578063d6b1086114610e66578063d7fa79ac14610e9f578063db0c4f7914610ee7578063dfa4afc614610f13578063dff5f32214610f5b578063e4d9afdb14611111578063e62ddb72146111ad578063f2fde38b14611249578063f6d9615f14611282578063fd1c9bde146112ab575b600080fd5b341561017a57600080fd5b610199600480803590602001909190803590602001909190505061142c565b6040518082815260200191505060405180910390f35b34156101ba57600080fd5b6101d9600480803590602001909190803590602001909190505061148d565b6040518082815260200191505060405180910390f35b34156101fa57600080fd5b61021060048080359060200190919050506114d0565b6040518082815260200191505060405180910390f35b341561023157600080fd5b61024760048080359060200190919050506114fd565b6040518082815260200191505060405180910390f35b341561026857600080fd5b61027e600480803590602001909190505061152a565b6040518082815260200191505060405180910390f35b341561029f57600080fd5b6102b8600480803560ff16906020019091905050611557565b6040518080602001828103825283818151815260200191508051906020019080838360005b838110156102f85780820151818401526020810190506102dd565b50505050905090810190601f1680156103255780820380516001836020036101000a031916815260200191505b509250505060405180910390f35b341561033e57600080fd5b6103546004808035906020019091905050611622565b6040518080602001806020018060200180602001806020018060200187810387528d818151815260200191508051906020019060200280838360005b838110156103ab578082015181840152602081019050610390565b5050505090500187810386528c818151815260200191508051906020019060200280838360005b838110156103ed5780820151818401526020810190506103d2565b5050505090500187810385528b818151815260200191508051906020019060200280838360005b8381101561042f578082015181840152602081019050610414565b5050505090500187810384528a818151815260200191508051906020019080838360005b8381101561046e578082015181840152602081019050610453565b50505050905090810190601f16801561049b5780820380516001836020036101000a031916815260200191505b50878103835289818151815260200191508051906020019080838360005b838110156104d45780820151818401526020810190506104b9565b50505050905090810190601f1680156105015780820380516001836020036101000a031916815260200191505b50878103825288818151815260200191508051906020019080838360005b8381101561053a57808201518184015260208101905061051f565b50505050905090810190601f1680156105675780820380516001836020036101000a031916815260200191505b509c5050505050505050505050505060405180910390f35b341561058a57600080fd5b6105a060048080359060200190919050506119fd565b60405180806020018060200180602001806020018615151515815260200185810385528a818151815260200191508051906020019060200280838360005b838110156105f95780820151818401526020810190506105de565b50505050905001858103845289818151815260200191508051906020019060200280838360005b8381101561063b578082015181840152602081019050610620565b50505050905001858103835288818151815260200191508051906020019060200280838360005b8381101561067d578082015181840152602081019050610662565b50505050905001858103825287818151815260200191508051906020019080838360005b838110156106bc5780820151818401526020810190506106a1565b50505050905090810190601f1680156106e95780820380516001836020036101000a031916815260200191505b50995050505050505050505060405180910390f35b341561070957600080fd5b61071f6004808035906020019091905050611e6c565b604051808260ff1660ff16815260200191505060405180910390f35b341561074657600080fd5b6107656004808035906020019091908035906020019091905050611ea3565b60405180826000191660001916815260200191505060405180910390f35b341561078e57600080fd5b6107a46004808035906020019091905050611ee6565b604051808260ff1660ff16815260200191505060405180910390f35b34156107cb57600080fd5b61096a600480803590602001909190803590602001908201803590602001908080602002602001604051908101604052809392919081815260200183836020028082843782019150505050505091908035906020019082018035906020019080806020026020016040519081016040528093929190818152602001838360200280828437820191505050505050919080359060200190820180359060200190808060200260200160405190810160405280939291908181526020018383602002808284378201915050505050509190803590602001908201803590602001908080601f0160208091040260200160405190810160405280939291908181526020018383808284378201915050505050509190803590602001908201803590602001908080601f0160208091040260200160405190810160405280939291908181526020018383808284378201915050505050509190803590602001908201803590602001908080601f01602080910402602001604051908101604052809392919081815260200183838082843782019150505050505091905050611f1d565b005b341561097757600080fd5b61097f6120f2565b005b341561098c57600080fd5b61099461236c565b604051808273ffffffffffffffffffffffffffffffffffffffff1673ffffffffffffffffffffffffffffffffffffffff16815260200191505060405180910390f35b34156109e157600080fd5b610a006004808035906020019091908035906020019091905050612391565b6040518082815260200191505060405180910390f35b3415610a2157600080fd5b610a3760048080359060200190919050506123eb565b604051808a815260200180602001806020018973ffffffffffffffffffffffffffffffffffffffff1673ffffffffffffffffffffffffffffffffffffffff1681526020018860ff1660ff1681526020018760ff1660ff1681526020018660ff1660ff168152602001806020018060200185810385528d818151815260200191508051906020019080838360005b83811015610adf578082015181840152602081019050610ac4565b50505050905090810190601f168015610b0c5780820380516001836020036101000a031916815260200191505b5085810384528c818151815260200191508051906020019080838360005b83811015610b45578082015181840152602081019050610b2a565b50505050905090810190601f168015610b725780820380516001836020036101000a031916815260200191505b50858103835287818151815260200191508051906020019060200280838360005b83811015610bae578082015181840152602081019050610b93565b50505050905001858103825286818151815260200191508051906020019060200280838360005b83811015610bf0578082015181840152602081019050610bd5565b505050509050019d505050505050505050505050505060405180910390f35b3415610c1a57600080fd5b610dc8600480803590602001908201803590602001908080601f0160208091040260200160405190810160405280939291908181526020018383808284378201915050505050509190803590602001908201803590602001908080601f0160208091040260200160405190810160405280939291908181526020018383808284378201915050505050509190803573ffffffffffffffffffffffffffffffffffffffff1690602001909190803560ff1690602001909190803560ff1690602001909190803560ff1690602001909190803590602001908201803590602001908080602002602001604051908101604052809392919081815260200183836020028082843782019150505050505091908035906020019082018035906020019080806020026020016040519081016040528093929190818152602001838360200280828437820191505050505050919080359060200190820180359060200190808060200260200160405190810160405280939291908181526020018383602002808284378201915050505050509190803560ff1690602001909190803560ff16906020019091905050612774565b005b3415610dd557600080fd5b610deb6004808035906020019091905050612a17565b6040518080602001828103825283818151815260200191508051906020019080838360005b83811015610e2b578082015181840152602081019050610e10565b50505050905090810190601f168015610e585780820380516001836020036101000a031916815260200191505b509250505060405180910390f35b3415610e7157600080fd5b610e9d600480803573ffffffffffffffffffffffffffffffffffffffff16906020019091905050612adf565b005b3415610eaa57600080fd5b610ec96004808035906020019091908035906020019091905050612b23565b60405180826000191660001916815260200191505060405180910390f35b3415610ef257600080fd5b610f116004808035906020019091908035906020019091905050612b66565b005b3415610f1e57600080fd5b610f3d6004808035906020019091908035906020019091905050612cb0565b60405180826000191660001916815260200191505060405180910390f35b3415610f6657600080fd5b610f7c6004808035906020019091905050612cf3565b6040518080602001806020018973ffffffffffffffffffffffffffffffffffffffff1673ffffffffffffffffffffffffffffffffffffffff1681526020018860ff1660ff1681526020018760ff1660ff1681526020018660ff1660ff1681526020018560ff1660ff1681526020018460ff1660ff16815260200183810383528b8181546001816001161561010002031660029004815260200191508054600181600116156101000203166002900480156110775780601f1061104c57610100808354040283529160200191611077565b820191906000526020600020905b81548152906001019060200180831161105a57829003601f168201915b505083810382528a8181546001816001161561010002031660029004815260200191508054600181600116156101000203166002900480156110fa5780601f106110cf576101008083540402835291602001916110fa565b820191906000526020600020905b8154815290600101906020018083116110dd57829003601f168201915b50509a505050505050505050505060405180910390f35b341561111c57600080fd5b6111326004808035906020019091905050612da9565b6040518080602001828103825283818151815260200191508051906020019080838360005b83811015611172578082015181840152602081019050611157565b50505050905090810190601f16801561119f5780820380516001836020036101000a031916815260200191505b509250505060405180910390f35b34156111b857600080fd5b6111ce6004808035906020019091905050612e71565b6040518080602001828103825283818151815260200191508051906020019080838360005b8381101561120e5780820151818401526020810190506111f3565b50505050905090810190601f16801561123b5780820380516001836020036101000a031916815260200191505b509250505060405180910390f35b341561125457600080fd5b611280600480803573ffffffffffffffffffffffffffffffffffffffff16906020019091905050612f39565b005b341561128d57600080fd5b61129561308e565b6040518082815260200191505060405180910390f35b34156112b657600080fd5b61142a600480803590602001909190803590602001908201803590602001908080601f0160208091040260200160405190810160405280939291908181526020018383808284378201915050505050509190803573ffffffffffffffffffffffffffffffffffffffff1690602001909190803560ff1690602001909190803560ff1690602001909190803560ff1690602001909190803590602001908201803590602001908080602002602001604051908101604052809392919081815260200183836020028082843782019150505050505091908035906020019082018035906020019080806020026020016040519081016040528093929190818152602001838360200280828437820191505050505050919080359060200190820180359060200190808060200260200160405190810160405280939291908181526020018383602002808284378201915050505050509190803560ff1690602001909190803560ff1690602001909190505061309b565b005b600060018381548110151561143d57fe5b90600052602060002090600702016005018281548110151561145b57fe5b90600052602060002090600a91828204019190066003029054906101000a900462ffffff1662ffffff16905092915050565b600060018381548110151561149e57fe5b9060005260206000209060070201600401828154811015156114bc57fe5b906000526020600020900154905092915050565b60006001828154811015156114e157fe5b9060005260206000209060070201600501805490509050919050565b600060018281548110151561150e57fe5b9060005260206000209060070201600301805490509050919050565b600060018281548110151561153b57fe5b9060005260206000209060070201600401805490509050919050565b61155f613ad7565b60018260ff1681548110151561157157fe5b90600052602060002090600702016000018054600181600116156101000203166002900480601f0160208091040260200160405190810160405280929190818152602001828054600181600116156101000203166002900480156116165780601f106115eb57610100808354040283529160200191611616565b820191906000526020600020905b8154815290600101906020018083116115f957829003601f168201915b50505050509050919050565b61162a613aeb565b611632613aeb565b61163a613aeb565b611642613ad7565b61164a613ad7565b611652613ad7565b60028781548110151561166157fe5b906000526020600020906002020160000160038881548110151561168157fe5b90600052602060002090600202016000016004898154811015156116a157fe5b906000526020600020906002020160000160028a8154811015156116c157fe5b906000526020600020906002020160010160038b8154811015156116e157fe5b906000526020600020906002020160010160048c81548110151561170157fe5b90600052602060002090600202016001018580548060200260200160405190810160405280929190818152602001828054801561176157602002820191906000526020600020905b81546000191681526020019060010190808311611749575b50505050509550848054806020026020016040519081016040528092919081815260200182805480156117b757602002820191906000526020600020905b8154600019168152602001906001019080831161179f575b505050505094508380548060200260200160405190810160405280929190818152602001828054801561180d57602002820191906000526020600020905b815460001916815260200190600101908083116117f5575b50505050509350828054600181600116156101000203166002900480601f0160208091040260200160405190810160405280929190818152602001828054600181600116156101000203166002900480156118a95780601f1061187e576101008083540402835291602001916118a9565b820191906000526020600020905b81548152906001019060200180831161188c57829003601f168201915b50505050509250818054600181600116156101000203166002900480601f0160208091040260200160405190810160405280929190818152602001828054600181600116156101000203166002900480156119455780601f1061191a57610100808354040283529160200191611945565b820191906000526020600020905b81548152906001019060200180831161192857829003601f168201915b50505050509150808054600181600116156101000203166002900480601f0160208091040260200160405190810160405280929190818152602001828054600181600116156101000203166002900480156119e15780601f106119b6576101008083540402835291602001916119e1565b820191906000526020600020905b8154815290600101906020018083116119c457829003601f168201915b5050505050905095509550955095509550955091939550919395565b611a05613aeb565b611a0d613aff565b611a15613b13565b611a1d613ad7565b600080600660009054906101000a900473ffffffffffffffffffffffffffffffffffffffff16600560006101000a81548173ffffffffffffffffffffffffffffffffffffffff021916908373ffffffffffffffffffffffffffffffffffffffff160217905550600187815481101515611a9257fe5b906000526020600020906007020160030180549050604051805910611ab45750595b90808252806020026020018201604052509550600090505b600187815481101515611adb57fe5b9060005260206000209060070201600301805490508160ff161015611c3657600560009054906101000a900473ffffffffffffffffffffffffffffffffffffffff1673ffffffffffffffffffffffffffffffffffffffff16631ee10b36600189815481101515611b4757fe5b90600052602060002090600702016003018360ff16815481101515611b6857fe5b90600052602060002090602091828204019190069054906101000a900460ff166000604051602001526040518263ffffffff167c0100000000000000000000000000000000000000000000000000000000028152600401808260ff168152602001915050602060405180830381600087803b1515611be557600080fd5b6102c65a03f11515611bf657600080fd5b50505060405180519050868260ff16815181101515611c1157fe5b9060200190602002019060001916908160001916815250508080600101915050611acc565b600187815481101515611c4557fe5b9060005260206000209060070201600401805480602002602001604051908101604052809291908181526020018280548015611ca057602002820191906000526020600020905b815481526020019060010190808311611c8c575b50505050509450600187815481101515611cb657fe5b9060005260206000209060070201600501805480602002602001604051908101604052809291908181526020018280548015611d3b57602002820191906000526020600020906000905b82829054906101000a900462ffffff1662ffffff1681526020019060030190602082600201049283019260010382029150808411611d005790505b50505050509350600187815481101515611d5157fe5b90600052602060002090600702016000018054600181600116156101000203166002900480601f016020809104026020016040519081016040528092919081815260200182805460018160011615610100020316600290048015611df65780601f10611dcb57610100808354040283529160200191611df6565b820191906000526020600020905b815481529060010190602001808311611dd957829003601f168201915b505050505092506000600188815481101515611e0e57fe5b906000526020600020906007020160020160009054906101000a900473ffffffffffffffffffffffffffffffffffffffff1673ffffffffffffffffffffffffffffffffffffffff16141515611e6257600191505b5091939590929450565b6000600182815481101515611e7d57fe5b906000526020600020906007020160060160019054906101000a900460ff169050919050565b6000600283815481101515611eb457fe5b906000526020600020906002020160000182815481101515611ed257fe5b906000526020600020900154905092915050565b6000600182815481101515611ef757fe5b906000526020600020906007020160060160009054906101000a900460ff169050919050565b6000809054906101000a900473ffffffffffffffffffffffffffffffffffffffff1673ffffffffffffffffffffffffffffffffffffffff163373ffffffffffffffffffffffffffffffffffffffff16141515611f7857600080fd5b60028054806001018281611f8c9190613b27565b9160005260206000209060020201600060408051908101604052808a81526020018781525090919091506000820151816000019080519060200190611fd2929190613b59565b506020820151816001019080519060200190611fef929190613bac565b50505050600380548060010182816120079190613b27565b916000526020600020906002020160006040805190810160405280898152602001868152509091909150600082015181600001908051906020019061204d929190613b59565b50602082015181600101908051906020019061206a929190613bac565b50505050600480548060010182816120829190613b27565b91600052602060002090600202016000604080519081016040528088815260200185815250909190915060008201518160000190805190602001906120c8929190613b59565b5060208201518160010190805190602001906120e5929190613bac565b5050505050505050505050565b60008060149054906101000a900460ff1660ff1614151561211257600080fd5b600060028054905014801561212c57506000600380549050145b801561213d57506000600480549050145b151561214857600080fd5b6002805480600101828161215c9190613b27565b91600052602060002090600202016000604080519081016040528060006040518059106121865750595b908082528060200260200182016040525081526020016020604051908101604052806000815250815250909190915060008201518160000190805190602001906121d1929190613b59565b5060208201518160010190805190602001906121ee929190613bac565b50505050600380548060010182816122069190613b27565b91600052602060002090600202016000604080519081016040528060006040518059106122305750595b9080825280602002602001820160405250815260200160206040519081016040528060008152508152509091909150600082015181600001908051906020019061227b929190613b59565b506020820151816001019080519060200190612298929190613bac565b50505050600480548060010182816122b09190613b27565b91600052602060002090600202016000604080519081016040528060006040518059106122da5750595b90808252806020026020018201604052508152602001602060405190810160405280600081525081525090919091506000820151816000019080519060200190612325929190613b59565b506020820151816001019080519060200190612342929190613bac565b5050505061234e613524565b6001600060146101000a81548160ff021916908360ff160217905550565b6000809054906101000a900473ffffffffffffffffffffffffffffffffffffffff1681565b60006001838154811015156123a257fe5b9060005260206000209060070201600301828154811015156123c057fe5b90600052602060002090602091828204019190069054906101000a900460ff1660ff16905092915050565b60006123f5613ad7565b6123fd613ad7565b60008060008061240b613c2c565b612413613aff565b89985060018a81548110151561242557fe5b90600052602060002090600702016000018054600181600116156101000203166002900480601f0160208091040260200160405190810160405280929190818152602001828054600181600116156101000203166002900480156124ca5780601f1061249f576101008083540402835291602001916124ca565b820191906000526020600020905b8154815290600101906020018083116124ad57829003601f168201915b5050505050975060018a8154811015156124e057fe5b90600052602060002090600702016001018054600181600116156101000203166002900480601f0160208091040260200160405190810160405280929190818152602001828054600181600116156101000203166002900480156125855780601f1061255a57610100808354040283529160200191612585565b820191906000526020600020905b81548152906001019060200180831161256857829003601f168201915b5050505050965060018a81548110151561259b57fe5b906000526020600020906007020160020160009054906101000a900473ffffffffffffffffffffffffffffffffffffffff16955060018a8154811015156125de57fe5b906000526020600020906007020160020160149054906101000a900460ff16945060018a81548110151561260e57fe5b906000526020600020906007020160020160159054906101000a900460ff16935060018a81548110151561263e57fe5b906000526020600020906007020160020160169054906101000a900460ff16925060018a81548110151561266e57fe5b90600052602060002090600702016003018054806020026020016040519081016040528092919081815260200182805480156126ef57602002820191906000526020600020906000905b82829054906101000a900460ff1660ff16815260200190600101906020826000010492830192600103820291508084116126b85790505b5050505050915060018a81548110151561270557fe5b906000526020600020906007020160040180548060200260200160405190810160405280929190818152602001828054801561276057602002820191906000526020600020905b81548152602001906001019080831161274c575b505050505090509193959799909294969850565b6000809054906101000a900473ffffffffffffffffffffffffffffffffffffffff1673ffffffffffffffffffffffffffffffffffffffff163373ffffffffffffffffffffffffffffffffffffffff161415156127cf57600080fd5b835185511480156127e1575082518551145b15156127ec57600080fd5b600180548060010182816128009190613c40565b91600052602060002090600702016000610160604051908101604052808f81526020018e81526020018d73ffffffffffffffffffffffffffffffffffffffff1681526020018c60ff1681526020018b60ff1681526020018a60ff1681526020018981526020018881526020018781526020018660ff1681526020018560ff16815250909190915060008201518160000190805190602001906128a3929190613bac565b5060208201518160010190805190602001906128c0929190613bac565b5060408201518160020160006101000a81548173ffffffffffffffffffffffffffffffffffffffff021916908373ffffffffffffffffffffffffffffffffffffffff16021790555060608201518160020160146101000a81548160ff021916908360ff16021790555060808201518160020160156101000a81548160ff021916908360ff16021790555060a08201518160020160166101000a81548160ff021916908360ff16021790555060c0820151816003019080519060200190612987929190613c72565b5060e08201518160040190805190602001906129a4929190613d19565b506101008201518160050190805190602001906129c2929190613d66565b506101208201518160060160006101000a81548160ff021916908360ff1602179055506101408201518160060160016101000a81548160ff021916908360ff1602179055505050505050505050505050505050565b612a1f613ad7565b600382815481101515612a2e57fe5b90600052602060002090600202016001018054600181600116156101000203166002900480601f016020809104026020016040519081016040528092919081815260200182805460018160011615610100020316600290048015612ad35780601f10612aa857610100808354040283529160200191612ad3565b820191906000526020600020905b815481529060010190602001808311612ab657829003601f168201915b50505050509050919050565b80600660006101000a81548173ffffffffffffffffffffffffffffffffffffffff021916908373ffffffffffffffffffffffffffffffffffffffff16021790555050565b6000600383815481101515612b3457fe5b906000526020600020906002020160000182815481101515612b5257fe5b906000526020600020900154905092915050565b6000612b71826123eb565b909192939495969750909192939495965090919293949550909192935090919250909150905050809150508073ffffffffffffffffffffffffffffffffffffffff16600183815481101515612bc257fe5b90600052602060002090600702016001016040518082805460018160011615610100020316600290048015612c2e5780601f10612c0c576101008083540402835291820191612c2e565b820191906000526020600020905b815481529060010190602001808311612c1a575b505091505060405180910390207c01000000000000000000000000000000000000000000000000000000009004846040518263ffffffff167c01000000000000000000000000000000000000000000000000000000000281526004018082815260200191505060006040518083038160008761646e5a03f19250505050505050565b6000600483815481101515612cc157fe5b906000526020600020906002020160000182815481101515612cdf57fe5b906000526020600020900154905092915050565b600181815481101515612d0257fe5b9060005260206000209060070201600091509050806000019080600101908060020160009054906101000a900473ffffffffffffffffffffffffffffffffffffffff16908060020160149054906101000a900460ff16908060020160159054906101000a900460ff16908060020160169054906101000a900460ff16908060060160009054906101000a900460ff16908060060160019054906101000a900460ff16905088565b612db1613ad7565b600282815481101515612dc057fe5b90600052602060002090600202016001018054600181600116156101000203166002900480601f016020809104026020016040519081016040528092919081815260200182805460018160011615610100020316600290048015612e655780601f10612e3a57610100808354040283529160200191612e65565b820191906000526020600020905b815481529060010190602001808311612e4857829003601f168201915b50505050509050919050565b612e79613ad7565b600482815481101515612e8857fe5b90600052602060002090600202016001018054600181600116156101000203166002900480601f016020809104026020016040519081016040528092919081815260200182805460018160011615610100020316600290048015612f2d5780601f10612f0257610100808354040283529160200191612f2d565b820191906000526020600020905b815481529060010190602001808311612f1057829003601f168201915b50505050509050919050565b6000809054906101000a900473ffffffffffffffffffffffffffffffffffffffff1673ffffffffffffffffffffffffffffffffffffffff163373ffffffffffffffffffffffffffffffffffffffff16141515612f9457600080fd5b600073ffffffffffffffffffffffffffffffffffffffff168173ffffffffffffffffffffffffffffffffffffffff1614151515612fd057600080fd5b8073ffffffffffffffffffffffffffffffffffffffff166000809054906101000a900473ffffffffffffffffffffffffffffffffffffffff1673ffffffffffffffffffffffffffffffffffffffff167f8be0079c531659141344cd1fd0a4f28419497f9722a3daafe3b4186f6b6457e060405160405180910390a3806000806101000a81548173ffffffffffffffffffffffffffffffffffffffff021916908373ffffffffffffffffffffffffffffffffffffffff16021790555050565b6000600180549050905090565b60008060009054906101000a900473ffffffffffffffffffffffffffffffffffffffff1673ffffffffffffffffffffffffffffffffffffffff163373ffffffffffffffffffffffffffffffffffffffff161415156130f857600080fd5b8451865114801561310a575083518651145b151561311557600080fd5b8a60018d81548110151561312557fe5b90600052602060002090600702016001019080519060200190613149929190613e13565b508960018d81548110151561315a57fe5b906000526020600020906007020160020160006101000a81548173ffffffffffffffffffffffffffffffffffffffff021916908373ffffffffffffffffffffffffffffffffffffffff1602179055508860018d8154811015156131b957fe5b906000526020600020906007020160020160146101000a81548160ff021916908360ff1602179055508760018d8154811015156131f257fe5b906000526020600020906007020160020160156101000a81548160ff021916908360ff1602179055508660018d81548110151561322b57fe5b906000526020600020906007020160020160166101000a81548160ff021916908360ff1602179055508260018d81548110151561326457fe5b906000526020600020906007020160060160006101000a81548160ff021916908360ff1602179055508160018d81548110151561329d57fe5b906000526020600020906007020160060160016101000a81548160ff021916908360ff16021790555085516040518059106132d55750595b908082528060200260200182016040525060018d8154811015156132f557fe5b90600052602060002090600702016003019080519060200190613319929190613e93565b5084516040518059106133295750595b908082528060200260200182016040525060018d81548110151561334957fe5b9060005260206000209060070201600401908051906020019061336d929190613f3a565b50835160405180591061337d5750595b908082528060200260200182016040525060018d81548110151561339d57fe5b906000526020600020906007020160050190805190602001906133c1929190613f87565b50600090505b85518110156135165785818151811015156133de57fe5b9060200190602002015160018d8154811015156133f757fe5b90600052602060002090600702016003018281548110151561341557fe5b90600052602060002090602091828204019190066101000a81548160ff021916908360ff160217905550848181518110151561344d57fe5b9060200190602002015160018d81548110151561346657fe5b90600052602060002090600702016004018281548110151561348457fe5b90600052602060002090018190555083818151811015156134a157fe5b9060200190602002015160018d8154811015156134ba57fe5b9060005260206000209060070201600501828154811015156134d857fe5b90600052602060002090600a91828204019190066003026101000a81548162ffffff021916908362ffffff16021790555080806001019150506133c7565b505050505050505050505050565b600180548060010182816135389190613c40565b91600052602060002090600702016000610160604051908101604052806040805190810160405280600d81526020017f556e63617465676f72697a656400000000000000000000000000000000000000815250815260200160206040519081016040528060008152508152602001600073ffffffffffffffffffffffffffffffffffffffff168152602001600060ff168152602001600060ff168152602001600060ff16815260200160006040518059106135f05750595b9080825280602002602001820160405250815260200160006040518059106136155750595b90808252806020026020018201604052508152602001600060405180591061363a5750595b90808252806020026020018201604052508152602001600060ff168152602001600060ff1681525090919091506000820151816000019080519060200190613683929190613bac565b5060208201518160010190805190602001906136a0929190613bac565b5060408201518160020160006101000a81548173ffffffffffffffffffffffffffffffffffffffff021916908373ffffffffffffffffffffffffffffffffffffffff16021790555060608201518160020160146101000a81548160ff021916908360ff16021790555060808201518160020160156101000a81548160ff021916908360ff16021790555060a08201518160020160166101000a81548160ff021916908360ff16021790555060c0820151816003019080519060200190613767929190613c72565b5060e0820151816004019080519060200190613784929190613d19565b506101008201518160050190805190602001906137a2929190613d66565b506101208201518160060160006101000a81548160ff021916908360ff1602179055506101408201518160060160016101000a81548160ff021916908360ff160217905550505050600180548060010182816137fe9190613c40565b91600052602060002090600702016000610160604051908101604052806040805190810160405280601381526020017f416464206e6577206d656d62657220726f6c650000000000000000000000000081525081526020016040805190810160405280601981526020017f6164644e65774d656d626572526f6c65286279746573333229000000000000008152508152602001600073ffffffffffffffffffffffffffffffffffffffff168152602001600060ff168152602001600160ff168152602001600060ff16815260200160006040518059106138db5750595b9080825280602002602001820160405250815260200160006040518059106139005750595b9080825280602002602001820160405250815260200160006040518059106139255750595b90808252806020026020018201604052508152602001600060ff168152602001600a60ff168152509091909150600082015181600001908051906020019061396e929190613bac565b50602082015181600101908051906020019061398b929190613bac565b5060408201518160020160006101000a81548173ffffffffffffffffffffffffffffffffffffffff021916908373ffffffffffffffffffffffffffffffffffffffff16021790555060608201518160020160146101000a81548160ff021916908360ff16021790555060808201518160020160156101000a81548160ff021916908360ff16021790555060a08201518160020160166101000a81548160ff021916908360ff16021790555060c0820151816003019080519060200190613a52929190613c72565b5060e0820151816004019080519060200190613a6f929190613d19565b50610100820151816005019080519060200190613a8d929190613d66565b506101208201518160060160006101000a81548160ff021916908360ff1602179055506101408201518160060160016101000a81548160ff021916908360ff160217905550505050565b602060405190810160405280600081525090565b602060405190810160405280600081525090565b602060405190810160405280600081525090565b602060405190810160405280600081525090565b815481835581811511613b5457600202816002028360005260206000209182019101613b539190614034565b5b505050565b828054828255906000526020600020908101928215613b9b579160200282015b82811115613b9a578251829060001916905591602001919060010190613b79565b5b509050613ba89190614073565b5090565b828054600181600116156101000203166002900490600052602060002090601f016020900481019282601f10613bed57805160ff1916838001178555613c1b565b82800160010185558215613c1b579182015b82811115613c1a578251825591602001919060010190613bff565b5b509050613c289190614098565b5090565b602060405190810160405280600081525090565b815481835581811511613c6d57600702816007028360005260206000209182019101613c6c91906140bd565b5b505050565b82805482825590600052602060002090601f01602090048101928215613d085791602002820160005b83821115613cd957835183826101000a81548160ff021916908360ff1602179055509260200192600101602081600001049283019260010302613c9b565b8015613d065782816101000a81549060ff0219169055600101602081600001049283019260010302613cd9565b505b509050613d1591906141b7565b5090565b828054828255906000526020600020908101928215613d55579160200282015b82811115613d54578251825591602001919060010190613d39565b5b509050613d629190614098565b5090565b82805482825590600052602060002090600901600a90048101928215613e025791602002820160005b83821115613dd157835183826101000a81548162ffffff021916908362ffffff1602179055509260200192600301602081600201049283019260010302613d8f565b8015613e005782816101000a81549062ffffff0219169055600301602081600201049283019260010302613dd1565b505b509050613e0f91906141e7565b5090565b828054600181600116156101000203166002900490600052602060002090601f016020900481019282601f10613e5457805160ff1916838001178555613e82565b82800160010185558215613e82579182015b82811115613e81578251825591602001919060010190613e66565b5b509050613e8f9190614098565b5090565b82805482825590600052602060002090601f01602090048101928215613f295791602002820160005b83821115613efa57835183826101000a81548160ff021916908360ff1602179055509260200192600101602081600001049283019260010302613ebc565b8015613f275782816101000a81549060ff0219169055600101602081600001049283019260010302613efa565b505b509050613f3691906141b7565b5090565b828054828255906000526020600020908101928215613f76579160200282015b82811115613f75578251825591602001919060010190613f5a565b5b509050613f839190614098565b5090565b82805482825590600052602060002090600901600a900481019282156140235791602002820160005b83821115613ff257835183826101000a81548162ffffff021916908362ffffff1602179055509260200192600301602081600201049283019260010302613fb0565b80156140215782816101000a81549062ffffff0219169055600301602081600201049283019260010302613ff2565b505b50905061403091906141e7565b5090565b61407091905b8082111561406c57600080820160006140539190614219565b600182016000614063919061423a565b5060020161403a565b5090565b90565b61409591905b80821115614091576000816000905550600101614079565b5090565b90565b6140ba91905b808211156140b657600081600090555060010161409e565b5090565b90565b6141b491905b808211156141b057600080820160006140dc919061423a565b6001820160006140ec919061423a565b6002820160006101000a81549073ffffffffffffffffffffffffffffffffffffffff02191690556002820160146101000a81549060ff02191690556002820160156101000a81549060ff02191690556002820160166101000a81549060ff021916905560038201600061415f9190614282565b60048201600061416f91906142aa565b60058201600061417f91906142cb565b6006820160006101000a81549060ff02191690556006820160016101000a81549060ff0219169055506007016140c3565b5090565b90565b6141e491905b808211156141e057600081816101000a81549060ff0219169055506001016141bd565b5090565b90565b61421691905b8082111561421257600081816101000a81549062ffffff0219169055506001016141ed565b5090565b90565b50805460008255906000526020600020908101906142379190614073565b50565b50805460018160011615610100020316600290046000825580601f10614260575061427f565b601f01602090049060005260206000209081019061427e9190614098565b5b50565b50805460008255601f0160209004906000526020600020908101906142a79190614098565b50565b50805460008255906000526020600020908101906142c89190614098565b50565b50805460008255600901600a9004906000526020600020908101906142f09190614098565b505600a165627a7a723058205be8247c11b417168855e2d231c5e618ac2eae576690c16c07697df6dda6608d0029",
  "source": "/* Copyright (C) 2017 GovBlocks.io\r\n\r\n  This program is free software: you can redistribute it and/or modify\r\n    it under the terms of the GNU General Public License as published by\r\n    the Free Software Foundation, either version 3 of the License, or\r\n    (at your option) any later version.\r\n\r\n  This program is distributed in the hope that it will be useful,\r\n    but WITHOUT ANY WARRANTY; without even the implied warranty of\r\n    MERCHANTABILITY or FITNESS FOR A PARTICULAR PURPOSE.  See the\r\n    GNU General Public License for more details.\r\n\r\n  You should have received a copy of the GNU General Public License\r\n    along with this program.  If not, see http://www.gnu.org/licenses/ */\r\npragma solidity ^0.4.8;\r\n// import \"./Ownable.sol\";\r\nimport \"./MemberRoles.sol\";\r\nimport \"./zeppelin-solidity/contracts/ownership/Ownable.sol\";\r\n\r\ncontract ProposalCategory is Ownable\r\n{\r\n    uint8 constructorCheck;\r\n    struct category{\r\n        string categoryName;\r\n        string functionName;\r\n        address contractAt;\r\n        uint8 paramInt;\r\n        uint8 paramBytes32;\r\n        uint8 paramAddress;\r\n        uint8[] memberRoleSequence;\r\n        uint[] memberRoleMajorityVote;\r\n        uint24[] closingTime;\r\n        uint8 minStake;\r\n        uint8 maxStake;\r\n    }\r\n\r\n    struct categoryParams\r\n    {\r\n        bytes32[] parameterName;\r\n        string parameterDescHash;\r\n    }\r\n\r\n    category[] public allCategory;\r\n\r\n    categoryParams[] uintParam;\r\n    categoryParams[] bytesParam;\r\n    categoryParams[] addressParam;\r\n    MemberRoles MR;\r\n    address MRAddress;\r\n\r\n    function changeAllContractsAddress(address _MRContractAddress)\r\n    {\r\n        MRAddress = _MRContractAddress;\r\n    }\r\n\r\n    function ProposalCategoryInitiate()\r\n    {\r\n        require(constructorCheck == 0);\r\n        require(uintParam.length == 0 && bytesParam.length == 0 && addressParam.length == 0);\r\n        uintParam.push(categoryParams(new bytes32[](0),\"\"));\r\n        bytesParam.push(categoryParams(new bytes32[](0),\"\"));\r\n        addressParam.push(categoryParams(new bytes32[](0),\"\"));\r\n        addCategory();\r\n        constructorCheck =1;\r\n    }\r\n\r\n    function addCategory() internal\r\n    {\r\n        allCategory.push(category(\"Uncategorized\",\"\",0x00,0,0,0,new uint8[](0),new uint[](0),new uint24[](0),0,0));\r\n        allCategory.push(category(\"Add new member role\",\"addNewMemberRole(bytes32)\",0x00,0,1,0,new uint8[](0),new uint[](0),new uint24[](0),0,10));\r\n    }\r\n\r\n    function getCategoryData1(uint _categoryId) constant returns(bytes32[] roleName,uint[] majorityVote,uint24[] closingTime,string categoryName,bool functionValue)\r\n    {\r\n        MR=MemberRoles(MRAddress);\r\n        roleName=new bytes32[]( allCategory[_categoryId].memberRoleSequence.length);\r\n        for(uint8 i=0; i < allCategory[_categoryId].memberRoleSequence.length; i++)\r\n        {\r\n            roleName[i] = MR.getMemberRoleNameById(allCategory[_categoryId].memberRoleSequence[i]);\r\n        }\r\n        \r\n        majorityVote = allCategory[_categoryId].memberRoleMajorityVote;\r\n        closingTime =  allCategory[_categoryId].closingTime;\r\n        categoryName = allCategory[_categoryId].categoryName;\r\n        if(allCategory[_categoryId].contractAt != 0x00)\r\n          functionValue = true;\r\n          \r\n    }\r\n    \r\n    function getMinStake(uint _categoryId)constant returns(uint8)\r\n    {\r\n        return allCategory[_categoryId].minStake;\r\n    }\r\n\r\n    function getMaxStake(uint _categoryId) constant returns(uint8)\r\n    {\r\n        return allCategory[_categoryId].maxStake;\r\n    }\r\n\r\n    function getCategoryName(uint8 _categoryId)constant returns(string)\r\n    {\r\n        return allCategory[_categoryId].categoryName;\r\n    }\r\n    \r\n    /// @dev Get the integer parameterName when given Category Id and parameterIndex\r\n    function getCategoryParamNameUint(uint _categoryId,uint _index)constant returns(bytes32)\r\n    {\r\n        return uintParam[_categoryId].parameterName[_index];\r\n    }\r\n\r\n    /// @dev Get the Bytes parameterName when given Category Id and parameterIndex\r\n    function getCategoryParamNameBytes(uint _categoryId,uint _index)constant returns(bytes32)\r\n    {\r\n        return bytesParam[_categoryId].parameterName[_index];\r\n    }\r\n\r\n    /// @dev Get the Address parameterName when given Category Id and parameterIndex\r\n    function getCategoryParamNameAddress(uint _categoryId,uint _index)constant returns(bytes32)\r\n    {\r\n        return addressParam[_categoryId].parameterName[_index];\r\n    }\r\n\r\n    /// @dev Get the Address parameterName when given Category Id and parameterIndex\r\n    function getCategoryParamHashUint(uint _categoryId)constant returns(string)\r\n    {\r\n        return uintParam[_categoryId].parameterDescHash;\r\n    }\r\n\r\n    /// @dev Get the Address parameterName when given Category Id and parameterIndex\r\n    function getCategoryParamHashBytes(uint _categoryId)constant returns(string)\r\n    {\r\n        return bytesParam[_categoryId].parameterDescHash;\r\n    }\r\n\r\n    /// @dev Get the Address parameterName when given Category Id and parameterIndex\r\n    function getCategoryParamHashAddress(uint _categoryId)constant returns(string)\r\n    {\r\n        return addressParam[_categoryId].parameterDescHash;\r\n    }\r\n\r\n    /// @dev Gets the total number of categories.\r\n    function getCategoriesLength() constant returns (uint length)\r\n    {\r\n        length = allCategory.length;\r\n    }\r\n\r\n    /// @dev Gets category details by category id.\r\n    function getCategoryDetails(uint _categoryId) public constant returns (uint cateId,string categoryName,string functionName,address contractAt,uint8 paramInt,uint8 paramBytes32,uint8 paramAddress,uint8[] memberRoleSequence,uint[] memberRoleMajorityVote)\r\n    {    \r\n        cateId = _categoryId;\r\n        categoryName = allCategory[_categoryId].categoryName;\r\n        functionName = allCategory[_categoryId].functionName;\r\n        contractAt = allCategory[_categoryId].contractAt;\r\n        paramInt = allCategory[_categoryId].paramInt;\r\n        paramBytes32 = allCategory[_categoryId].paramBytes32;\r\n        paramAddress = allCategory[_categoryId].paramAddress;\r\n        memberRoleSequence = allCategory[_categoryId].memberRoleSequence;\r\n        memberRoleMajorityVote = allCategory[_categoryId].memberRoleMajorityVote;\r\n    } \r\n    \r\n    /// @dev Get majority vote value for each voting level.\r\n    function getRoleMajorityVote(uint _categoryId,uint _index) constant returns(uint majorityVote)\r\n    {\r\n        return allCategory[_categoryId].memberRoleMajorityVote[_index];\r\n    }\r\n    \r\n    function getRoleMajorityVotelength(uint _categoryId) constant returns(uint majorityVoteLength)\r\n    {\r\n        return allCategory[_categoryId].memberRoleMajorityVote.length;\r\n    }\r\n\r\n    function getClosingTimeLength(uint _categoryId) constant returns(uint closingTimeLength)\r\n    {\r\n        return allCategory[_categoryId].closingTime.length;\r\n    }\r\n\r\n    function getClosingTimeByIndex(uint _categoryId,uint _index) constant returns(uint closeTime)\r\n    {\r\n        return allCategory[_categoryId].closingTime[_index];\r\n    }\r\n\r\n    /// @dev Get the length of voting levels against given proposal.\r\n    function getRoleSequencLength(uint _categoryId) constant returns(uint roleLength)\r\n    {\r\n        return allCategory[_categoryId].memberRoleSequence.length;\r\n    }\r\n    /// @dev Get the next Roleid to cast vote against proposal, according to the sequence defined.\r\n    function getRoleSequencAtIndex(uint _categoryId,uint _index) constant returns(uint roleId)\r\n    {\r\n        return allCategory[_categoryId].memberRoleSequence[_index];\r\n    }\r\n    /// @dev Adds a new category and Category Function Parameter names..\r\n    function addNewCategory(string _categoryName,string _functionName,address _contractAt,uint8 _paramInt,uint8 _paramBytes32,uint8 _paramAddress,uint8[] _memberRoleSequence,uint[] _memberRoleMajorityVote,uint24[] _closingTime,uint8 _minStake,uint8 _maxStake) onlyOwner\r\n    {\r\n        require(_memberRoleSequence.length == _memberRoleMajorityVote.length && _memberRoleSequence.length == _closingTime.length);\r\n        allCategory.push(category(_categoryName,_functionName,_contractAt,_paramInt,_paramBytes32,_paramAddress,_memberRoleSequence,_memberRoleMajorityVote,_closingTime,_minStake,_maxStake));\r\n    }\r\n    /// @dev Saving descriptions against various parameters required for category.\r\n    function addCategoryParamsNameAndDesc(uint _categoryId,bytes32[] _uintParamName,bytes32[] _bytesParamName,bytes32[] _addressParamName,string _uintParameterDescHash,string _bytesParameterDescHash,string _addressParameterDescHash) onlyOwner\r\n    {\r\n        uintParam.push(categoryParams(_uintParamName,_uintParameterDescHash));\r\n        bytesParam.push(categoryParams(_bytesParamName,_bytesParameterDescHash));\r\n        addressParam.push(categoryParams(_addressParamName,_addressParameterDescHash));\r\n    }\r\n\r\n    /// @dev Updates a category details\r\n    function updateCategory(uint _categoryId,string _functionName,address _contractAt,uint8 _paramInt,uint8 _paramBytes32,uint8 _paramAddress,uint8[] _memberRoleSequence,uint[] _memberRoleMajorityVote,uint24[] _closingTime,uint8 _minStake,uint8 _maxStake) onlyOwner\r\n    {\r\n        require(_memberRoleSequence.length == _memberRoleMajorityVote.length && _memberRoleSequence.length == _closingTime.length);\r\n        allCategory[_categoryId].functionName = _functionName;\r\n        allCategory[_categoryId].contractAt = _contractAt;\r\n        allCategory[_categoryId].paramInt = _paramInt;\r\n        allCategory[_categoryId].paramBytes32 = _paramBytes32; \r\n        allCategory[_categoryId].paramAddress = _paramAddress;\r\n        allCategory[_categoryId].minStake = _minStake;\r\n        allCategory[_categoryId].maxStake = _maxStake;\r\n\r\n        allCategory[_categoryId].memberRoleSequence=new uint8[](_memberRoleSequence.length);\r\n        allCategory[_categoryId].memberRoleMajorityVote=new uint[](_memberRoleMajorityVote.length);\r\n        allCategory[_categoryId].closingTime = new uint24[](_closingTime.length);\r\n\r\n        for(uint i=0; i<_memberRoleSequence.length; i++)\r\n        {\r\n            allCategory[_categoryId].memberRoleSequence[i] =_memberRoleSequence[i];\r\n            allCategory[_categoryId].memberRoleMajorityVote[i] = _memberRoleMajorityVote[i];\r\n            allCategory[_categoryId].closingTime[i] = _closingTime[i];\r\n        }\r\n    }\r\n\r\n    /// @dev function to be called after proposal pass\r\n    function actionAfterProposalPass(uint _proposalId,uint _categoryId) public\r\n    {\r\n        address contractAt;\r\n        (,,,contractAt,,,,,) = getCategoryDetails(_categoryId);\r\n        contractAt.call(bytes4(sha3(allCategory[_categoryId].functionName)),_proposalId);\r\n    }\r\n\r\n    // /// @dev Change the category parameters name against category. // \r\n    // function changeCategoryParametersName(uint _categoryId,bytes32[] _uintParamName,bytes32[] _bytesParamName,bytes32[] _addressParamName) onlyOwner\r\n    // {   \r\n    //     uintParam[_categoryId].parameterName=new bytes32[](_uintParamName.length); \r\n    //     bytesParam[_categoryId].parameterName=new bytes32[](_bytesParamName.length); \r\n    //     addressParam[_categoryId].parameterName=new bytes32[](_addressParamName.length); \r\n        \r\n    //     for(uint i=0; i<_uintParamName.length; i++)\r\n    //     {\r\n    //         uintParam[_categoryId].parameterName[i]=_uintParamName[i]; \r\n    //     }\r\n            \r\n    //     for(i=0; i<_uintParamName.length; i++)\r\n    //     {\r\n    //         bytesParam[_categoryId].parameterName[i]=_bytesParamName[i];\r\n    //     }\r\n        \r\n    //     for(i=0; i<_uintParamName.length; i++)\r\n    //     {\r\n    //         addressParam[_categoryId].parameterName[i]=_addressParamName[i];\r\n    //     }\r\n    // }\r\n\r\n    function getCatgoryData2(uint _categoryId) constant returns(bytes32[] intParameter,bytes32[] bytesParameter,bytes32[] addressParameter,string intDesc, string bytesDesc, string addressDesc)\r\n    {\r\n        return (uintParam[_categoryId].parameterName,bytesParam[_categoryId].parameterName,addressParam[_categoryId].parameterName,uintParam[_categoryId].parameterDescHash,bytesParam[_categoryId].parameterDescHash,addressParam[_categoryId].parameterDescHash);\r\n    }\r\n\r\n}",
  "sourcePath": "D:\\2. GovBlocks\\GovBlocks Git-Master\\contracts\\ProposalCategory.sol",
  "compiler": {
    "name": "solc",
    "version": "0.4.18+commit.9cf6e910.Emscripten.clang"
  },
  "schemaVersion": "1.0.1",
  "updatedAt": "2018-01-31T14:11:49.682Z"
}