{
  "contractName": "ProposalCategory",
  "abi": [
    {
      "constant": true,
      "inputs": [
        {
          "name": "_categoryId",
          "type": "uint256"
        },
        {
          "name": "_index",
          "type": "uint256"
        }
      ],
      "name": "getRoleMajorityVote",
      "outputs": [
        {
          "name": "majorityVote",
          "type": "uint256"
        }
      ],
      "payable": false,
      "stateMutability": "view",
      "type": "function"
    },
    {
      "constant": true,
      "inputs": [
        {
          "name": "_categoryId",
          "type": "uint256"
        }
      ],
      "name": "getRoleSequencLength",
      "outputs": [
        {
          "name": "roleLength",
          "type": "uint256"
        }
      ],
      "payable": false,
      "stateMutability": "view",
      "type": "function"
    },
    {
      "constant": false,
      "inputs": [
        {
          "name": "_categoryId",
          "type": "uint256"
        },
        {
          "name": "_functionName",
          "type": "string"
        },
        {
          "name": "_contractAt",
          "type": "address"
        },
        {
          "name": "_paramInt",
          "type": "uint8"
        },
        {
          "name": "_paramBytes32",
          "type": "uint8"
        },
        {
          "name": "_paramAddress",
          "type": "uint8"
        },
        {
          "name": "_memberRoleSequence",
          "type": "uint8[]"
        },
        {
          "name": "_memberRoleMajorityVote",
          "type": "uint256[]"
        }
      ],
      "name": "updateCategory",
      "outputs": [
        {
          "name": "",
          "type": "string"
        }
      ],
      "payable": false,
      "stateMutability": "nonpayable",
      "type": "function"
    },
    {
      "constant": false,
      "inputs": [
        {
          "name": "_categoryId",
          "type": "uint256"
        },
        {
          "name": "_uintParamName",
          "type": "bytes32[]"
        },
        {
          "name": "_bytesParamName",
          "type": "bytes32[]"
        },
        {
          "name": "_addressParamName",
          "type": "bytes32[]"
        },
        {
          "name": "_paramBytes32",
          "type": "uint8"
        },
        {
          "name": "_paramAddress",
          "type": "uint8"
        },
        {
          "name": "_memberRoleSequence",
          "type": "uint8[]"
        },
        {
          "name": "_memberRoleMajorityVote",
          "type": "uint256[]"
        }
      ],
      "name": "changeCategoryParameters",
      "outputs": [
        {
          "name": "",
          "type": "bytes32"
        }
      ],
      "payable": false,
      "stateMutability": "nonpayable",
      "type": "function"
    },
    {
      "constant": true,
      "inputs": [
        {
          "name": "_categoryId",
          "type": "uint256"
        },
        {
          "name": "_index",
          "type": "uint256"
        },
        {
          "name": "_contractAt",
          "type": "address"
        },
        {
          "name": "_paramInt",
          "type": "uint8"
        },
        {
          "name": "_paramBytes32",
          "type": "uint8"
        },
        {
          "name": "_paramAddress",
          "type": "uint8"
        },
        {
          "name": "_memberRoleSequence",
          "type": "uint8[]"
        },
        {
          "name": "_memberRoleMajorityVote",
          "type": "uint256[]"
        },
        {
          "name": "_uintParamName",
          "type": "bytes32[]"
        },
        {
          "name": "_bytesParamName",
          "type": "bytes32[]"
        },
        {
          "name": "_addressParamName",
          "type": "bytes32[]"
        }
      ],
      "name": "getCategoryParamNameUint",
      "outputs": [
        {
          "name": "",
          "type": "bytes32"
        }
      ],
      "payable": false,
      "stateMutability": "view",
      "type": "function"
    },
    {
      "constant": false,
      "inputs": [
        {
          "name": "_categoryName",
          "type": "string"
        },
        {
          "name": "_functionName",
          "type": "string"
        },
        {
          "name": "_contractAt",
          "type": "address"
        },
        {
          "name": "_paramInt",
          "type": "uint8"
        },
        {
          "name": "_paramBytes32",
          "type": "uint8"
        },
        {
          "name": "_paramAddress",
          "type": "uint8"
        },
        {
          "name": "_memberRoleSequence",
          "type": "uint8[]"
        },
        {
          "name": "_memberRoleMajorityVote",
          "type": "uint256[]"
        },
        {
          "name": "_uintParamName",
          "type": "bytes32[]"
        },
        {
          "name": "_bytesParamName",
          "type": "bytes32[]"
        },
        {
          "name": "_addressParamName",
          "type": "bytes32[]"
        }
      ],
      "name": "addNewCategory",
      "outputs": [
        {
          "name": "roleId",
          "type": "uint256"
        },
        {
          "name": "functionName",
          "type": "string"
        },
        {
          "name": "contractAt",
          "type": "address"
        },
        {
          "name": "paramInt",
          "type": "uint8"
        },
        {
          "name": "paramBytes32",
          "type": "uint8"
        },
        {
          "name": "paramAddress",
          "type": "uint8"
        },
        {
          "name": "memberRoleSequence",
          "type": "uint8[]"
        },
        {
          "name": "memberRoleMajorityVote",
          "type": "uint256[]"
        }
      ],
      "payable": false,
      "stateMutability": "nonpayable",
      "type": "function"
    },
    {
      "constant": true,
      "inputs": [
        {
          "name": "_categoryId",
          "type": "uint256"
        },
        {
          "name": "_index",
          "type": "uint256"
        }
      ],
      "name": "getRoleSequencAtIndex",
      "outputs": [
        {
          "name": "roleId",
          "type": "uint256"
        },
        {
          "name": "functionName",
          "type": "string"
        },
        {
          "name": "contractAt",
          "type": "address"
        },
        {
          "name": "paramInt",
          "type": "uint8"
        },
        {
          "name": "paramBytes32",
          "type": "uint8"
        },
        {
          "name": "paramAddress",
          "type": "uint8"
        },
        {
          "name": "memberRoleSequence",
          "type": "uint8[]"
        },
        {
          "name": "memberRoleMajorityVote",
          "type": "uint256[]"
        }
      ],
      "payable": false,
      "stateMutability": "view",
      "type": "function"
    },
    {
      "constant": true,
      "inputs": [
        {
          "name": "_categoryId",
          "type": "uint256"
        },
        {
          "name": "_index",
          "type": "uint256"
        },
        {
          "name": "_bytesParamName",
          "type": "bytes32[]"
        },
        {
          "name": "_addressParamName",
          "type": "bytes32[]"
        }
      ],
      "name": "getCategoryDetails",
      "outputs": [
        {
          "name": "categoryName",
          "type": "string"
        },
        {
          "name": "functionName",
          "type": "string"
        },
        {
          "name": "contractAt",
          "type": "address"
        },
        {
          "name": "paramInt",
          "type": "uint8"
        },
        {
          "name": "paramBytes32",
          "type": "uint8"
        },
        {
          "name": "paramAddress",
          "type": "uint8"
        },
        {
          "name": "memberRoleSequence",
          "type": "uint8[]"
        },
        {
          "name": "memberRoleMajorityVote",
          "type": "uint256[]"
        }
      ],
      "payable": false,
      "stateMutability": "view",
      "type": "function"
    },
    {
      "constant": true,
      "inputs": [
        {
          "name": "_categoryId",
          "type": "uint256"
        },
        {
          "name": "_index",
          "type": "uint256"
        }
      ],
      "name": "getCategoryParamNameBytes",
      "outputs": [
        {
          "name": "",
          "type": "bytes32"
        },
        {
          "name": "functionName",
          "type": "string"
        },
        {
          "name": "contractAt",
          "type": "address"
        },
        {
          "name": "paramInt",
          "type": "uint8"
        },
        {
          "name": "paramBytes32",
          "type": "uint8"
        },
        {
          "name": "paramAddress",
          "type": "uint8"
        }
      ],
      "payable": false,
      "stateMutability": "view",
      "type": "function"
    },
    {
      "constant": false,
      "inputs": [
        {
          "name": "_proposalId",
          "type": "uint256"
        },
        {
          "name": "_categoryId",
          "type": "uint256"
        }
      ],
      "name": "actionAfterProposalPass",
      "outputs": [
        {
          "name": "",
          "type": "bytes32"
        }
      ],
      "payable": false,
      "stateMutability": "nonpayable",
      "type": "function"
    },
    {
      "constant": true,
      "inputs": [
        {
          "name": "_categoryId",
          "type": "uint256"
        },
        {
          "name": "_index",
          "type": "uint256"
        }
      ],
      "name": "getCategoryParamNameAddress",
      "outputs": [
        {
          "name": "",
          "type": "bytes32"
        },
        {
          "name": "functionName",
          "type": "string"
        },
        {
          "name": "contractAt",
          "type": "address"
        },
        {
          "name": "paramInt",
          "type": "uint8"
        },
        {
          "name": "paramBytes32",
          "type": "uint8"
        },
        {
          "name": "paramAddress",
          "type": "uint8"
        }
      ],
      "payable": false,
      "stateMutability": "view",
      "type": "function"
    },
    {
      "constant": true,
      "inputs": [
        {
          "name": "",
          "type": "uint256"
        }
      ],
      "name": "allCategory",
      "outputs": [
        {
          "name": "categoryName",
          "type": "string"
        },
        {
          "name": "functionName",
          "type": "string"
        },
        {
          "name": "contractAt",
          "type": "address"
        },
        {
          "name": "paramInt",
          "type": "uint8"
        },
        {
          "name": "paramBytes32",
          "type": "uint8"
        },
        {
          "name": "paramAddress",
          "type": "uint8"
        }
      ],
      "payable": false,
      "stateMutability": "view",
      "type": "function"
    },
    {
      "constant": true,
      "inputs": [],
      "name": "getCategoriesLength",
      "outputs": [
        {
          "name": "length",
          "type": "uint256"
        }
      ],
      "payable": false,
      "stateMutability": "view",
      "type": "function"
    }
  ],
  "bytecode": "0x6060604052341561000f57600080fd5b611fb38061001e6000396000f3006060604052600436106100c5576000357c0100000000000000000000000000000000000000000000000000000000900463ffffffff16806302e929c8146100ca57806318b0211b1461010a5780631d10a9731461014157806363876e671461026a578063713656291461034d57806393abb969146103955780639deeab20146105b8578063b0a4aaee146105f8578063d7fa79ac146107ea578063db0c4f7914610832578063dfa4afc61461085e578063dff5f322146108a6578063f6d9615f14610a42575b600080fd5b34156100d557600080fd5b6100f46004808035906020019091908035906020019091905050610a6b565b6040518082815260200191505060405180910390f35b341561011557600080fd5b61012b6004808035906020019091905050610aad565b6040518082815260200191505060405180910390f35b341561014c57600080fd5b610268600480803590602001909190803590602001908201803590602001908080601f0160208091040260200160405190810160405280939291908181526020018383808284378201915050505050509190803573ffffffffffffffffffffffffffffffffffffffff1690602001909190803560ff1690602001909190803560ff1690602001909190803560ff169060200190919080359060200190820180359060200190808060200260200160405190810160405280939291908181526020018383602002808284378201915050505050509190803590602001908201803590602001908080602002602001604051908101604052809392919081815260200183836020028082843782019150505050505091905050610ad9565b005b341561027557600080fd5b61034b6004808035906020019091908035906020019082018035906020019080806020026020016040519081016040528093929190818152602001838360200280828437820191505050505050919080359060200190820180359060200190808060200260200160405190810160405280939291908181526020018383602002808284378201915050505050509190803590602001908201803590602001908080602002602001604051908101604052809392919081815260200183836020028082843782019150505050505091905050610dbb565b005b341561035857600080fd5b6103776004808035906020019091908035906020019091905050611007565b60405180826000191660001916815260200191505060405180910390f35b34156103a057600080fd5b6105b6600480803590602001908201803590602001908080601f0160208091040260200160405190810160405280939291908181526020018383808284378201915050505050509190803590602001908201803590602001908080601f0160208091040260200160405190810160405280939291908181526020018383808284378201915050505050509190803573ffffffffffffffffffffffffffffffffffffffff1690602001909190803560ff1690602001909190803560ff1690602001909190803560ff169060200190919080359060200190820180359060200190808060200260200160405190810160405280939291908181526020018383602002808284378201915050505050509190803590602001908201803590602001908080602002602001604051908101604052809392919081815260200183836020028082843782019150505050505091908035906020019082018035906020019080806020026020016040519081016040528093929190818152602001838360200280828437820191505050505050919080359060200190820180359060200190808060200260200160405190810160405280939291908181526020018383602002808284378201915050505050509190803590602001908201803590602001908080602002602001604051908101604052809392919081815260200183836020028082843782019150505050505091905050611047565b005b34156105c357600080fd5b6105e2600480803590602001909190803590602001909190505061130a565b6040518082815260200191505060405180910390f35b341561060357600080fd5b6106196004808035906020019091905050611363565b6040518080602001806020018973ffffffffffffffffffffffffffffffffffffffff1673ffffffffffffffffffffffffffffffffffffffff1681526020018860ff1660ff1681526020018760ff1660ff1681526020018660ff1660ff168152602001806020018060200185810385528d818151815260200191508051906020019080838360005b838110156106bb5780820151818401526020810190506106a0565b50505050905090810190601f1680156106e85780820380516001836020036101000a031916815260200191505b5085810384528c818151815260200191508051906020019080838360005b83811015610721578082015181840152602081019050610706565b50505050905090810190601f16801561074e5780820380516001836020036101000a031916815260200191505b50858103835287818151815260200191508051906020019060200280838360005b8381101561078a57808201518184015260208101905061076f565b50505050905001858103825286818151815260200191508051906020019060200280838360005b838110156107cc5780820151818401526020810190506107b1565b505050509050019c5050505050505050505050505060405180910390f35b34156107f557600080fd5b61081460048080359060200190919080359060200190919050506116e5565b60405180826000191660001916815260200191505060405180910390f35b341561083d57600080fd5b61085c6004808035906020019091908035906020019091905050611725565b005b341561086957600080fd5b6108886004808035906020019091908035906020019091905050611866565b60405180826000191660001916815260200191505060405180910390f35b34156108b157600080fd5b6108c760048080359060200190919050506118a6565b6040518080602001806020018773ffffffffffffffffffffffffffffffffffffffff1673ffffffffffffffffffffffffffffffffffffffff1681526020018660ff1660ff1681526020018560ff1660ff1681526020018460ff1660ff1681526020018381038352898181546001816001161561010002031660029004815260200191508054600181600116156101000203166002900480156109aa5780601f1061097f576101008083540402835291602001916109aa565b820191906000526020600020905b81548152906001019060200180831161098d57829003601f168201915b5050838103825288818154600181600116156101000203166002900481526020019150805460018160011615610100020316600290048015610a2d5780601f10610a0257610100808354040283529160200191610a2d565b820191906000526020600020905b815481529060010190602001808311610a1057829003601f168201915b50509850505050505050505060405180910390f35b3415610a4d57600080fd5b610a55611936565b6040518082815260200191505060405180910390f35b60008083815481101515610a7b57fe5b906000526020600020906005020160040182815481101515610a9957fe5b906000526020600020900154905092915050565b60008082815481101515610abd57fe5b9060005260206000209060050201600301805490509050919050565b600081518351141515610aeb57600080fd5b8760008a815481101515610afb57fe5b90600052602060002090600502016001019080519060200190610b1f929190611942565b508660008a815481101515610b3057fe5b906000526020600020906005020160020160006101000a81548173ffffffffffffffffffffffffffffffffffffffff021916908373ffffffffffffffffffffffffffffffffffffffff1602179055508560008a815481101515610b8f57fe5b906000526020600020906005020160020160146101000a81548160ff021916908360ff1602179055508460008a815481101515610bc857fe5b906000526020600020906005020160020160156101000a81548160ff021916908360ff1602179055508360008a815481101515610c0157fe5b906000526020600020906005020160020160166101000a81548160ff021916908360ff1602179055508251604051805910610c395750595b908082528060200260200182016040525060008a815481101515610c5957fe5b90600052602060002090600502016003019080519060200190610c7d9291906119c2565b508151604051805910610c8d5750595b908082528060200260200182016040525060008a815481101515610cad57fe5b90600052602060002090600502016004019080519060200190610cd1929190611a69565b50600090505b8251811015610db0578281815181101515610cee57fe5b9060200190602002015160008a815481101515610d0757fe5b906000526020600020906005020160030182815481101515610d2557fe5b90600052602060002090602091828204019190066101000a81548160ff021916908360ff1602179055508181815181101515610d5d57fe5b9060200190602002015160008a815481101515610d7657fe5b906000526020600020906005020160040182815481101515610d9457fe5b9060005260206000209001819055508080600101915050610cd7565b505050505050505050565b60008351604051805910610dcc5750595b9080825280602002602001820160405250600186815481101515610dec57fe5b90600052602060002090016000019080519060200190610e0d929190611ab6565b508251604051805910610e1d5750595b9080825280602002602001820160405250600286815481101515610e3d57fe5b90600052602060002090016000019080519060200190610e5e929190611ab6565b508151604051805910610e6e5750595b9080825280602002602001820160405250600386815481101515610e8e57fe5b90600052602060002090016000019080519060200190610eaf929190611ab6565b50600090505b8351811015610f20578381815181101515610ecc57fe5b90602001906020020151600186815481101515610ee557fe5b906000526020600020900160000182815481101515610f0057fe5b906000526020600020900181600019169055508080600101915050610eb5565b600090505b8351811015610f90578281815181101515610f3c57fe5b90602001906020020151600286815481101515610f5557fe5b906000526020600020900160000182815481101515610f7057fe5b906000526020600020900181600019169055508080600101915050610f25565b600090505b8351811015611000578181815181101515610fac57fe5b90602001906020020151600386815481101515610fc557fe5b906000526020600020900160000182815481101515610fe057fe5b906000526020600020900181600019169055508080600101915050610f95565b5050505050565b600060018381548110151561101857fe5b90600052602060002090016000018281548110151561103357fe5b906000526020600020900154905092915050565b8351855114151561105757600080fd5b6000805480600101828161106b9190611b09565b91600052602060002090600502016000610100604051908101604052808f81526020018e81526020018d73ffffffffffffffffffffffffffffffffffffffff1681526020018c60ff1681526020018b60ff1681526020018a60ff16815260200189815260200188815250909190915060008201518160000190805190602001906110f6929190611b3b565b506020820151816001019080519060200190611113929190611b3b565b5060408201518160020160006101000a81548173ffffffffffffffffffffffffffffffffffffffff021916908373ffffffffffffffffffffffffffffffffffffffff16021790555060608201518160020160146101000a81548160ff021916908360ff16021790555060808201518160020160156101000a81548160ff021916908360ff16021790555060a08201518160020160166101000a81548160ff021916908360ff16021790555060c08201518160030190805190602001906111da929190611bbb565b5060e08201518160040190805190602001906111f7929190611c62565b505050506001805480600101828161120f9190611caf565b91600052602060002090016000602060405190810160405280878152509091909150600082015181600001908051906020019061124d929190611cdb565b50505050600280548060010182816112659190611caf565b9160005260206000209001600060206040519081016040528086815250909190915060008201518160000190805190602001906112a3929190611cdb565b50505050600380548060010182816112bb9190611caf565b9160005260206000209001600060206040519081016040528085815250909190915060008201518160000190805190602001906112f9929190611cdb565b505050505050505050505050505050565b6000808381548110151561131a57fe5b90600052602060002090600502016003018281548110151561133857fe5b90600052602060002090602091828204019190069054906101000a900460ff1660ff16905092915050565b61136b611d2e565b611373611d2e565b600080600080611381611d42565b611389611d56565b60008981548110151561139857fe5b90600052602060002090600502016000018054600181600116156101000203166002900480601f01602080910402602001604051908101604052809291908181526020018280546001816001161561010002031660029004801561143d5780601f106114125761010080835404028352916020019161143d565b820191906000526020600020905b81548152906001019060200180831161142057829003601f168201915b5050505050975060008981548110151561145357fe5b90600052602060002090600502016001018054600181600116156101000203166002900480601f0160208091040260200160405190810160405280929190818152602001828054600181600116156101000203166002900480156114f85780601f106114cd576101008083540402835291602001916114f8565b820191906000526020600020905b8154815290600101906020018083116114db57829003601f168201915b5050505050965060008981548110151561150e57fe5b906000526020600020906005020160020160009054906101000a900473ffffffffffffffffffffffffffffffffffffffff16955060008981548110151561155157fe5b906000526020600020906005020160020160149054906101000a900460ff16945060008981548110151561158157fe5b906000526020600020906005020160020160159054906101000a900460ff1693506000898154811015156115b157fe5b906000526020600020906005020160020160169054906101000a900460ff1692506000898154811015156115e157fe5b906000526020600020906005020160030180548060200260200160405190810160405280929190818152602001828054801561166257602002820191906000526020600020906000905b82829054906101000a900460ff1660ff168152602001906001019060208260000104928301926001038202915080841161162b5790505b5050505050915060008981548110151561167857fe5b90600052602060002090600502016004018054806020026020016040519081016040528092919081815260200182805480156116d357602002820191906000526020600020905b8154815260200190600101908083116116bf575b50505050509050919395975091939597565b60006002838154811015156116f657fe5b90600052602060002090016000018281548110151561171157fe5b906000526020600020900154905092915050565b600061173082611363565b909192939495965090919293949550909192935090919250909150905050809150508073ffffffffffffffffffffffffffffffffffffffff1660008381548110151561177857fe5b906000526020600020906005020160010160405180828054600181600116156101000203166002900480156117e45780601f106117c25761010080835404028352918201916117e4565b820191906000526020600020905b8154815290600101906020018083116117d0575b505091505060405180910390207c01000000000000000000000000000000000000000000000000000000009004846040518263ffffffff167c01000000000000000000000000000000000000000000000000000000000281526004018082815260200191505060006040518083038160008761646e5a03f19250505050505050565b600060038381548110151561187757fe5b90600052602060002090016000018281548110151561189257fe5b906000526020600020900154905092915050565b6000818154811015156118b557fe5b9060005260206000209060050201600091509050806000019080600101908060020160009054906101000a900473ffffffffffffffffffffffffffffffffffffffff16908060020160149054906101000a900460ff16908060020160159054906101000a900460ff16908060020160169054906101000a900460ff16905086565b60008080549050905090565b828054600181600116156101000203166002900490600052602060002090601f016020900481019282601f1061198357805160ff19168380011785556119b1565b828001600101855582156119b1579182015b828111156119b0578251825591602001919060010190611995565b5b5090506119be9190611d6a565b5090565b82805482825590600052602060002090601f01602090048101928215611a585791602002820160005b83821115611a2957835183826101000a81548160ff021916908360ff16021790555092602001926001016020816000010492830192600103026119eb565b8015611a565782816101000a81549060ff0219169055600101602081600001049283019260010302611a29565b505b509050611a659190611d8f565b5090565b828054828255906000526020600020908101928215611aa5579160200282015b82811115611aa4578251825591602001919060010190611a89565b5b509050611ab29190611d6a565b5090565b828054828255906000526020600020908101928215611af8579160200282015b82811115611af7578251829060001916905591602001919060010190611ad6565b5b509050611b059190611dbf565b5090565b815481835581811511611b3657600502816005028360005260206000209182019101611b359190611de4565b5b505050565b828054600181600116156101000203166002900490600052602060002090601f016020900481019282601f10611b7c57805160ff1916838001178555611baa565b82800160010185558215611baa579182015b82811115611ba9578251825591602001919060010190611b8e565b5b509050611bb79190611d6a565b5090565b82805482825590600052602060002090601f01602090048101928215611c515791602002820160005b83821115611c2257835183826101000a81548160ff021916908360ff1602179055509260200192600101602081600001049283019260010302611be4565b8015611c4f5782816101000a81549060ff0219169055600101602081600001049283019260010302611c22565b505b509050611c5e9190611d8f565b5090565b828054828255906000526020600020908101928215611c9e579160200282015b82811115611c9d578251825591602001919060010190611c82565b5b509050611cab9190611d6a565b5090565b815481835581811511611cd657818360005260206000209182019101611cd59190611ea6565b5b505050565b828054828255906000526020600020908101928215611d1d579160200282015b82811115611d1c578251829060001916905591602001919060010190611cfb565b5b509050611d2a9190611dbf565b5090565b602060405190810160405280600081525090565b602060405190810160405280600081525090565b602060405190810160405280600081525090565b611d8c91905b80821115611d88576000816000905550600101611d70565b5090565b90565b611dbc91905b80821115611db857600081816101000a81549060ff021916905550600101611d95565b5090565b90565b611de191905b80821115611ddd576000816000905550600101611dc5565b5090565b90565b611ea391905b80821115611e9f5760008082016000611e039190611ed5565b600182016000611e139190611ed5565b6002820160006101000a81549073ffffffffffffffffffffffffffffffffffffffff02191690556002820160146101000a81549060ff02191690556002820160156101000a81549060ff02191690556002820160166101000a81549060ff0219169055600382016000611e869190611f1d565b600482016000611e969190611f45565b50600501611dea565b5090565b90565b611ed291905b80821115611ece5760008082016000611ec59190611f66565b50600101611eac565b5090565b90565b50805460018160011615610100020316600290046000825580601f10611efb5750611f1a565b601f016020900490600052602060002090810190611f199190611d6a565b5b50565b50805460008255601f016020900490600052602060002090810190611f429190611d6a565b50565b5080546000825590600052602060002090810190611f639190611d6a565b50565b5080546000825590600052602060002090810190611f849190611dbf565b505600a165627a7a72305820083781fab6a865b149472c80a5134d2d4bf60fad9905fa56d62d98c3bc8cdc680029",
  "source": "/* Copyright (C) 2017 GovBlocks.io\r\n\r\n  This program is free software: you can redistribute it and/or modify\r\n    it under the terms of the GNU General Public License as published by\r\n    the Free Software Foundation, either version 3 of the License, or\r\n    (at your option) any later version.\r\n\r\n  This program is distributed in the hope that it will be useful,\r\n    but WITHOUT ANY WARRANTY; without even the implied warranty of\r\n    MERCHANTABILITY or FITNESS FOR A PARTICULAR PURPOSE.  See the\r\n    GNU General Public License for more details.\r\n\r\n  You should have received a copy of the GNU General Public License\r\n    along with this program.  If not, see http://www.gnu.org/licenses/ */\r\npragma solidity ^0.4.8;\r\ncontract ProposalCategory\r\n{\r\n    struct category{\r\n        string categoryName;\r\n        string functionName;\r\n        address contractAt;\r\n        uint8 paramInt;\r\n        uint8 paramBytes32;\r\n        uint8 paramAddress;\r\n        uint8[] memberRoleSequence;\r\n        uint[] memberRoleMajorityVote;\r\n    }\r\n\r\n    struct categoryParams\r\n    {\r\n        bytes32[] parameterName;\r\n    }\r\n\r\n    category[] public allCategory;\r\n\r\n    categoryParams[] uintParam;\r\n    categoryParams[] bytesParam;\r\n    categoryParams[] addressParam;\r\n\r\n    /// @dev Get the integer parameterName when given Category Id and parameterIndex\r\n    function getCategoryParamNameUint(uint _categoryId,uint _index)constant returns(bytes32)\r\n    {\r\n        return uintParam[_categoryId].parameterName[_index];\r\n    }\r\n\r\n    /// @dev Get the Bytes parameterName when given Category Id and parameterIndex\r\n    function getCategoryParamNameBytes(uint _categoryId,uint _index)constant returns(bytes32)\r\n    {\r\n        return bytesParam[_categoryId].parameterName[_index];\r\n    }\r\n\r\n    /// @dev Get the Address parameterName when given Category Id and parameterIndex\r\n    function getCategoryParamNameAddress(uint _categoryId,uint _index)constant returns(bytes32)\r\n    {\r\n        return addressParam[_categoryId].parameterName[_index];\r\n    }\r\n\r\n    /// @dev Gets the total number of categories.\r\n    function getCategoriesLength() constant returns (uint length)\r\n    {\r\n        length = allCategory.length;\r\n    }\r\n\r\n    /// @dev Gets category details by category id.\r\n    function getCategoryDetails(uint _categoryId) public constant returns (string categoryName,string functionName,address contractAt,uint8 paramInt,uint8 paramBytes32,uint8 paramAddress,uint8[] memberRoleSequence,uint[] memberRoleMajorityVote)\r\n    {    \r\n        categoryName = allCategory[_categoryId].categoryName;\r\n        functionName = allCategory[_categoryId].functionName;\r\n        contractAt = allCategory[_categoryId].contractAt;\r\n        paramInt = allCategory[_categoryId].paramInt;\r\n        paramBytes32 = allCategory[_categoryId].paramBytes32;\r\n        paramAddress = allCategory[_categoryId].paramAddress;\r\n        memberRoleSequence = allCategory[_categoryId].memberRoleSequence;\r\n        memberRoleMajorityVote = allCategory[_categoryId].memberRoleMajorityVote;\r\n    } \r\n    \r\n    /// @dev Get majority vote value for each voting level.\r\n    function getRoleMajorityVote(uint _categoryId,uint _index) constant returns(uint majorityVote)\r\n    {\r\n        return allCategory[_categoryId].memberRoleMajorityVote[_index];\r\n    }\r\n    \r\n    /// @dev Get the length of voting levels against given proposal.\r\n    function getRoleSequencLength(uint _categoryId) constant returns(uint roleLength)\r\n    {\r\n        return allCategory[_categoryId].memberRoleSequence.length;\r\n    }\r\n    /// @dev Get the next Roleid to cast vote against proposal, according to the sequence defined.\r\n    function getRoleSequencAtIndex(uint _categoryId,uint _index) constant returns(uint roleId)\r\n    {\r\n        return allCategory[_categoryId].memberRoleSequence[_index];\r\n    }\r\n    /// @dev Adds a new category and Category Function Parameter names..\r\n    function addNewCategory(string _categoryName,string _functionName,address _contractAt,uint8 _paramInt,uint8 _paramBytes32,uint8 _paramAddress,uint8[] _memberRoleSequence,uint[] _memberRoleMajorityVote,bytes32[] _uintParamName,bytes32[] _bytesParamName,bytes32[] _addressParamName) public\r\n    {\r\n        require(_memberRoleSequence.length == _memberRoleMajorityVote.length);\r\n        allCategory.push(category(_categoryName,_functionName,_contractAt,_paramInt,_paramBytes32,_paramAddress,_memberRoleSequence,_memberRoleMajorityVote));\r\n        \r\n        uintParam.push(categoryParams(_uintParamName));\r\n        bytesParam.push(categoryParams(_bytesParamName));\r\n        addressParam.push(categoryParams(_addressParamName));\r\n    }\r\n\r\n    function changeCategoryParameters(uint _categoryId,bytes32[] _uintParamName,bytes32[] _bytesParamName,bytes32[] _addressParamName)\r\n    {   \r\n        uintParam[_categoryId].parameterName=new bytes32[](_uintParamName.length); \r\n        bytesParam[_categoryId].parameterName=new bytes32[](_bytesParamName.length); \r\n        addressParam[_categoryId].parameterName=new bytes32[](_addressParamName.length); \r\n        \r\n        for(uint i=0; i<_uintParamName.length; i++)\r\n        {\r\n            uintParam[_categoryId].parameterName[i]=_uintParamName[i]; \r\n        }\r\n            \r\n        for(i=0; i<_uintParamName.length; i++)\r\n        {\r\n            bytesParam[_categoryId].parameterName[i]=_bytesParamName[i];\r\n        }\r\n        \r\n        for(i=0; i<_uintParamName.length; i++)\r\n        {\r\n            addressParam[_categoryId].parameterName[i]=_addressParamName[i];\r\n        }\r\n    }\r\n\r\n    /// @dev Updates a category details\r\n    function updateCategory(uint _categoryId,string _functionName,address _contractAt,uint8 _paramInt,uint8 _paramBytes32,uint8 _paramAddress,uint8[] _memberRoleSequence,uint[] _memberRoleMajorityVote) public\r\n    {\r\n        require(_memberRoleSequence.length == _memberRoleMajorityVote.length);\r\n        allCategory[_categoryId].functionName = _functionName;\r\n        allCategory[_categoryId].contractAt = _contractAt;\r\n        allCategory[_categoryId].paramInt = _paramInt;\r\n        allCategory[_categoryId].paramBytes32 = _paramBytes32; \r\n        allCategory[_categoryId].paramAddress = _paramAddress;\r\n\r\n        allCategory[_categoryId].memberRoleSequence=new uint8[](_memberRoleSequence.length);\r\n        allCategory[_categoryId].memberRoleMajorityVote=new uint[](_memberRoleMajorityVote.length);\r\n\r\n        for(uint i=0; i<_memberRoleSequence.length; i++)\r\n        {\r\n            allCategory[_categoryId].memberRoleSequence[i] =_memberRoleSequence[i];\r\n            allCategory[_categoryId].memberRoleMajorityVote[i] = _memberRoleMajorityVote[i];\r\n        }\r\n    }\r\n    /// @dev function to be called after proposal pass\r\n    function actionAfterProposalPass(uint _proposalId,uint _categoryId) public\r\n    {\r\n        address contractAt;\r\n        (,,contractAt,,,,,) = getCategoryDetails(_categoryId);\r\n        contractAt.call(bytes4(sha3(allCategory[_categoryId].functionName)),_proposalId);\r\n    }\r\n\r\n}",
  "sourcePath": "D:\\2. GovBlocks Contracts\\GovBlocks Git-Master\\contracts\\ProposalCategory.sol",
  "compiler": {
    "name": "solc",
    "version": "0.4.18+commit.9cf6e910.Emscripten.clang"
  },
  "schemaVersion": "1.0.1",
  "updatedAt": "2017-12-20T10:17:36.037Z"
}