{
  "contractName": "ProposalCategory",
  "abi": [
    {
      "constant": true,
      "inputs": [
        {
          "name": "_categoryId",
          "type": "uint256"
        },
        {
          "name": "_index",
          "type": "uint256"
        }
      ],
      "name": "getRoleMajorityVote",
      "outputs": [
        {
          "name": "majorityVote",
          "type": "uint256"
        }
      ],
      "payable": false,
      "stateMutability": "view",
      "type": "function"
    },
    {
      "constant": true,
      "inputs": [
        {
          "name": "_categoryId",
          "type": "uint256"
        }
      ],
      "name": "getRoleSequencLength",
      "outputs": [
        {
          "name": "roleLength",
          "type": "uint256"
        }
      ],
      "payable": false,
      "stateMutability": "view",
      "type": "function"
    },
    {
      "constant": false,
      "inputs": [
        {
          "name": "_categoryId",
          "type": "uint256"
        },
        {
          "name": "_functionName",
          "type": "string"
        },
        {
          "name": "_contractAt",
          "type": "address"
        },
        {
          "name": "_paramInt",
          "type": "uint8"
        },
        {
          "name": "_paramBytes32",
          "type": "uint8"
        },
        {
          "name": "_paramAddress",
          "type": "uint8"
        },
        {
          "name": "_memberRoleSequence",
          "type": "uint8[]"
        },
        {
          "name": "_memberRoleMajorityVote",
          "type": "uint256[]"
        }
      ],
      "name": "updateCategory",
      "outputs": [
        {
          "name": "",
          "type": "string"
        }
      ],
      "payable": false,
      "stateMutability": "nonpayable",
      "type": "function"
    },
    {
      "constant": false,
      "inputs": [
        {
          "name": "_categoryName",
          "type": "string"
        },
        {
          "name": "_functionName",
          "type": "string"
        },
        {
          "name": "_contractAt",
          "type": "address"
        },
        {
          "name": "_paramInt",
          "type": "uint8"
        },
        {
          "name": "_paramBytes32",
          "type": "uint8"
        },
        {
          "name": "_paramAddress",
          "type": "uint8"
        },
        {
          "name": "_memberRoleSequence",
          "type": "uint8[]"
        },
        {
          "name": "_memberRoleMajorityVote",
          "type": "uint256[]"
        }
      ],
      "name": "addNewCategory",
      "outputs": [],
      "payable": false,
      "stateMutability": "nonpayable",
      "type": "function"
    },
    {
      "constant": true,
      "inputs": [
        {
          "name": "_categoryId",
          "type": "uint256"
        },
        {
          "name": "_index",
          "type": "uint256"
        },
        {
          "name": "_contractAt",
          "type": "address"
        },
        {
          "name": "_paramInt",
          "type": "uint8"
        },
        {
          "name": "_paramBytes32",
          "type": "uint8"
        },
        {
          "name": "_paramAddress",
          "type": "uint8"
        },
        {
          "name": "_memberRoleSequence",
          "type": "uint8[]"
        },
        {
          "name": "_memberRoleMajorityVote",
          "type": "uint256[]"
        }
      ],
      "name": "getRoleSequencAtIndex",
      "outputs": [
        {
          "name": "roleId",
          "type": "uint256"
        }
      ],
      "payable": false,
      "stateMutability": "view",
      "type": "function"
    },
    {
      "constant": true,
      "inputs": [
        {
          "name": "_categoryId",
          "type": "uint256"
        },
        {
          "name": "_index",
          "type": "uint256"
        }
      ],
      "name": "getCategoryDetails",
      "outputs": [
        {
          "name": "categoryName",
          "type": "string"
        },
        {
          "name": "functionName",
          "type": "string"
        },
        {
          "name": "contractAt",
          "type": "address"
        },
        {
          "name": "paramInt",
          "type": "uint8"
        },
        {
          "name": "paramBytes32",
          "type": "uint8"
        },
        {
          "name": "paramAddress",
          "type": "uint8"
        },
        {
          "name": "memberRoleSequence",
          "type": "uint8[]"
        },
        {
          "name": "memberRoleMajorityVote",
          "type": "uint256[]"
        }
      ],
      "payable": false,
      "stateMutability": "view",
      "type": "function"
    },
    {
      "constant": false,
      "inputs": [
        {
          "name": "_proposalId",
          "type": "uint256"
        },
        {
          "name": "_categoryId",
          "type": "uint256"
        }
      ],
      "name": "actionAfterProposalPass",
      "outputs": [
        {
          "name": "",
          "type": "bool"
        },
        {
          "name": "functionName",
          "type": "string"
        },
        {
          "name": "contractAt",
          "type": "address"
        },
        {
          "name": "paramInt",
          "type": "uint8"
        },
        {
          "name": "paramBytes32",
          "type": "uint8"
        },
        {
          "name": "paramAddress",
          "type": "uint8"
        },
        {
          "name": "memberRoleSequence",
          "type": "uint8[]"
        },
        {
          "name": "memberRoleMajorityVote",
          "type": "uint256[]"
        }
      ],
      "payable": false,
      "stateMutability": "nonpayable",
      "type": "function"
    },
    {
      "constant": true,
      "inputs": [
        {
          "name": "",
          "type": "uint256"
        },
        {
          "name": "_categoryId",
          "type": "uint256"
        }
      ],
      "name": "allCategory",
      "outputs": [
        {
          "name": "categoryName",
          "type": "string"
        },
        {
          "name": "functionName",
          "type": "string"
        },
        {
          "name": "contractAt",
          "type": "address"
        },
        {
          "name": "paramInt",
          "type": "uint8"
        },
        {
          "name": "paramBytes32",
          "type": "uint8"
        },
        {
          "name": "paramAddress",
          "type": "uint8"
        }
      ],
      "payable": false,
      "stateMutability": "view",
      "type": "function"
    },
    {
      "constant": true,
      "inputs": [
        {
          "name": "",
          "type": "uint256"
        }
      ],
      "name": "getCategoriesLength",
      "outputs": [
        {
          "name": "length",
          "type": "uint256"
        },
        {
          "name": "functionName",
          "type": "string"
        },
        {
          "name": "contractAt",
          "type": "address"
        },
        {
          "name": "paramInt",
          "type": "uint8"
        },
        {
          "name": "paramBytes32",
          "type": "uint8"
        },
        {
          "name": "paramAddress",
          "type": "uint8"
        }
      ],
      "payable": false,
      "stateMutability": "view",
      "type": "function"
    },
    {
      "constant": true,
      "inputs": [],
      "name": "getCategoriesLength",
      "outputs": [
        {
          "name": "length",
          "type": "uint256"
        }
      ],
      "payable": false,
      "stateMutability": "view",
      "type": "function"
    }
  ],
  "bytecode": "0x6060604052341561000f57600080fd5b6116ad8061001e6000396000f300606060405260043610610099576000357c0100000000000000000000000000000000000000000000000000000000900463ffffffff16806302e929c81461009e57806318b0211b146100de5780631d10a973146101155780638ef879591461023e5780639deeab20146103a1578063b0a4aaee146103e1578063db0c4f79146105d3578063dff5f32214610617578063f6d9615f146107b3575b600080fd5b34156100a957600080fd5b6100c860048080359060200190919080359060200190919050506107dc565b6040518082815260200191505060405180910390f35b34156100e957600080fd5b6100ff600480803590602001909190505061081e565b6040518082815260200191505060405180910390f35b341561012057600080fd5b61023c600480803590602001909190803590602001908201803590602001908080601f0160208091040260200160405190810160405280939291908181526020018383808284378201915050505050509190803573ffffffffffffffffffffffffffffffffffffffff1690602001909190803560ff1690602001909190803560ff1690602001909190803560ff16906020019091908035906020019082018035906020019080806020026020016040519081016040528093929190818152602001838360200280828437820191505050505050919080359060200190820180359060200190808060200260200160405190810160405280939291908181526020018383602002808284378201915050505050509190505061084a565b005b341561024957600080fd5b61039f600480803590602001908201803590602001908080601f0160208091040260200160405190810160405280939291908181526020018383808284378201915050505050509190803590602001908201803590602001908080601f0160208091040260200160405190810160405280939291908181526020018383808284378201915050505050509190803573ffffffffffffffffffffffffffffffffffffffff1690602001909190803560ff1690602001909190803560ff1690602001909190803560ff169060200190919080359060200190820180359060200190808060200260200160405190810160405280939291908181526020018383602002808284378201915050505050509190803590602001908201803590602001908080602002602001604051908101604052809392919081815260200183836020028082843782019150505050505091905050610a98565b005b34156103ac57600080fd5b6103cb6004808035906020019091908035906020019091905050610c56565b6040518082815260200191505060405180910390f35b34156103ec57600080fd5b6104026004808035906020019091905050610caf565b6040518080602001806020018973ffffffffffffffffffffffffffffffffffffffff1673ffffffffffffffffffffffffffffffffffffffff1681526020018860ff1660ff1681526020018760ff1660ff1681526020018660ff1660ff168152602001806020018060200185810385528d818151815260200191508051906020019080838360005b838110156104a4578082015181840152602081019050610489565b50505050905090810190601f1680156104d15780820380516001836020036101000a031916815260200191505b5085810384528c818151815260200191508051906020019080838360005b8381101561050a5780820151818401526020810190506104ef565b50505050905090810190601f1680156105375780820380516001836020036101000a031916815260200191505b50858103835287818151815260200191508051906020019060200280838360005b83811015610573578082015181840152602081019050610558565b50505050905001858103825286818151815260200191508051906020019060200280838360005b838110156105b557808201518184015260208101905061059a565b505050509050019c5050505050505050505050505060405180910390f35b34156105de57600080fd5b6105fd6004808035906020019091908035906020019091905050611031565b604051808215151515815260200191505060405180910390f35b341561062257600080fd5b6106386004808035906020019091905050611175565b6040518080602001806020018773ffffffffffffffffffffffffffffffffffffffff1673ffffffffffffffffffffffffffffffffffffffff1681526020018660ff1660ff1681526020018560ff1660ff1681526020018460ff1660ff16815260200183810383528981815460018160011615610100020316600290048152602001915080546001816001161561010002031660029004801561071b5780601f106106f05761010080835404028352916020019161071b565b820191906000526020600020905b8154815290600101906020018083116106fe57829003601f168201915b505083810382528881815460018160011615610100020316600290048152602001915080546001816001161561010002031660029004801561079e5780601f106107735761010080835404028352916020019161079e565b820191906000526020600020905b81548152906001019060200180831161078157829003601f168201915b50509850505050505050505060405180910390f35b34156107be57600080fd5b6107c6611205565b6040518082815260200191505060405180910390f35b600080838154811015156107ec57fe5b90600052602060002090600502016004018281548110151561080a57fe5b906000526020600020900154905092915050565b6000808281548110151561082e57fe5b9060005260206000209060050201600301805490509050919050565b60008151835114151561085c57600080fd5b8760008a81548110151561086c57fe5b90600052602060002090600502016001019080519060200190610890929190611211565b508660008a8154811015156108a157fe5b906000526020600020906005020160020160006101000a81548173ffffffffffffffffffffffffffffffffffffffff021916908373ffffffffffffffffffffffffffffffffffffffff1602179055508560008a81548110151561090057fe5b906000526020600020906005020160020160146101000a81548160ff021916908360ff1602179055508460008a81548110151561093957fe5b906000526020600020906005020160020160156101000a81548160ff021916908360ff1602179055508360008a81548110151561097257fe5b906000526020600020906005020160020160166101000a81548160ff021916908360ff160217905550600090505b8251811015610a8d576000898154811015156109b857fe5b906000526020600020906005020160030180548060010182816109db9190611291565b916000526020600020906020918282040191900685848151811015156109fd57fe5b90602001906020020151909190916101000a81548160ff021916908360ff16021790555050600089815481101515610a3157fe5b90600052602060002090600502016004018054806001018281610a5491906112cb565b916000526020600020900160008484815181101515610a6f57fe5b906020019060200201519091909150555080806001019150506109a0565b505050505050505050565b80518251141515610aa857600080fd5b60008054806001018281610abc91906112f7565b91600052602060002090600502016000610100604051908101604052808c81526020018b81526020018a73ffffffffffffffffffffffffffffffffffffffff1681526020018960ff1681526020018860ff1681526020018760ff1681526020018681526020018581525090919091506000820151816000019080519060200190610b47929190611329565b506020820151816001019080519060200190610b64929190611329565b5060408201518160020160006101000a81548173ffffffffffffffffffffffffffffffffffffffff021916908373ffffffffffffffffffffffffffffffffffffffff16021790555060608201518160020160146101000a81548160ff021916908360ff16021790555060808201518160020160156101000a81548160ff021916908360ff16021790555060a08201518160020160166101000a81548160ff021916908360ff16021790555060c0820151816003019080519060200190610c2b9291906113a9565b5060e0820151816004019080519060200190610c48929190611450565b505050505050505050505050565b60008083815481101515610c6657fe5b906000526020600020906005020160030182815481101515610c8457fe5b90600052602060002090602091828204019190069054906101000a900460ff1660ff16905092915050565b610cb761149d565b610cbf61149d565b600080600080610ccd6114b1565b610cd56114c5565b600089815481101515610ce457fe5b90600052602060002090600502016000018054600181600116156101000203166002900480601f016020809104026020016040519081016040528092919081815260200182805460018160011615610100020316600290048015610d895780601f10610d5e57610100808354040283529160200191610d89565b820191906000526020600020905b815481529060010190602001808311610d6c57829003601f168201915b50505050509750600089815481101515610d9f57fe5b90600052602060002090600502016001018054600181600116156101000203166002900480601f016020809104026020016040519081016040528092919081815260200182805460018160011615610100020316600290048015610e445780601f10610e1957610100808354040283529160200191610e44565b820191906000526020600020905b815481529060010190602001808311610e2757829003601f168201915b50505050509650600089815481101515610e5a57fe5b906000526020600020906005020160020160009054906101000a900473ffffffffffffffffffffffffffffffffffffffff169550600089815481101515610e9d57fe5b906000526020600020906005020160020160149054906101000a900460ff169450600089815481101515610ecd57fe5b906000526020600020906005020160020160159054906101000a900460ff169350600089815481101515610efd57fe5b906000526020600020906005020160020160169054906101000a900460ff169250600089815481101515610f2d57fe5b9060005260206000209060050201600301805480602002602001604051908101604052809291908181526020018280548015610fae57602002820191906000526020600020906000905b82829054906101000a900460ff1660ff1681526020019060010190602082600001049283019260010382029150808411610f775790505b50505050509150600089815481101515610fc457fe5b906000526020600020906005020160040180548060200260200160405190810160405280929190818152602001828054801561101f57602002820191906000526020600020905b81548152602001906001019080831161100b575b50505050509050919395975091939597565b60008061103d83610caf565b909192939495965090919293949550909192935090919250909150905050809150508073ffffffffffffffffffffffffffffffffffffffff1660008481548110151561108557fe5b906000526020600020906005020160010160405180828054600181600116156101000203166002900480156110f15780601f106110cf5761010080835404028352918201916110f1565b820191906000526020600020905b8154815290600101906020018083116110dd575b505091505060405180910390207c01000000000000000000000000000000000000000000000000000000009004856040518263ffffffff167c01000000000000000000000000000000000000000000000000000000000281526004018082815260200191505060006040518083038160008761646e5a03f192505050505092915050565b60008181548110151561118457fe5b9060005260206000209060050201600091509050806000019080600101908060020160009054906101000a900473ffffffffffffffffffffffffffffffffffffffff16908060020160149054906101000a900460ff16908060020160159054906101000a900460ff16908060020160169054906101000a900460ff16905086565b60008080549050905090565b828054600181600116156101000203166002900490600052602060002090601f016020900481019282601f1061125257805160ff1916838001178555611280565b82800160010185558215611280579182015b8281111561127f578251825591602001919060010190611264565b5b50905061128d91906114d9565b5090565b8154818355818115116112c657601f016020900481601f016020900483600052602060002091820191016112c591906114d9565b5b505050565b8154818355818115116112f2578183600052602060002091820191016112f191906114d9565b5b505050565b8154818355818115116113245760050281600502836000526020600020918201910161132391906114fe565b5b505050565b828054600181600116156101000203166002900490600052602060002090601f016020900481019282601f1061136a57805160ff1916838001178555611398565b82800160010185558215611398579182015b8281111561139757825182559160200191906001019061137c565b5b5090506113a591906114d9565b5090565b82805482825590600052602060002090601f0160209004810192821561143f5791602002820160005b8382111561141057835183826101000a81548160ff021916908360ff16021790555092602001926001016020816000010492830192600103026113d2565b801561143d5782816101000a81549060ff0219169055600101602081600001049283019260010302611410565b505b50905061144c91906115c0565b5090565b82805482825590600052602060002090810192821561148c579160200282015b8281111561148b578251825591602001919060010190611470565b5b50905061149991906114d9565b5090565b602060405190810160405280600081525090565b602060405190810160405280600081525090565b602060405190810160405280600081525090565b6114fb91905b808211156114f75760008160009055506001016114df565b5090565b90565b6115bd91905b808211156115b9576000808201600061151d91906115f0565b60018201600061152d91906115f0565b6002820160006101000a81549073ffffffffffffffffffffffffffffffffffffffff02191690556002820160146101000a81549060ff02191690556002820160156101000a81549060ff02191690556002820160166101000a81549060ff02191690556003820160006115a09190611638565b6004820160006115b09190611660565b50600501611504565b5090565b90565b6115ed91905b808211156115e957600081816101000a81549060ff0219169055506001016115c6565b5090565b90565b50805460018160011615610100020316600290046000825580601f106116165750611635565b601f01602090049060005260206000209081019061163491906114d9565b5b50565b50805460008255601f01602090049060005260206000209081019061165d91906114d9565b50565b508054600082559060005260206000209081019061167e91906114d9565b505600a165627a7a72305820abba83f05e5db939c55a98b8044c5019cf90a71509b5b9cca19604da4797e8940029",
  "source": "/* Copyright (C) 2017 GovBlocks.io\r\n\r\n  This program is free software: you can redistribute it and/or modify\r\n    it under the terms of the GNU General Public License as published by\r\n    the Free Software Foundation, either version 3 of the License, or\r\n    (at your option) any later version.\r\n\r\n  This program is distributed in the hope that it will be useful,\r\n    but WITHOUT ANY WARRANTY; without even the implied warranty of\r\n    MERCHANTABILITY or FITNESS FOR A PARTICULAR PURPOSE.  See the\r\n    GNU General Public License for more details.\r\n\r\n  You should have received a copy of the GNU General Public License\r\n    along with this program.  If not, see http://www.gnu.org/licenses/ */\r\n    pragma solidity ^0.4.8;\r\ncontract ProposalCategory\r\n{\r\n        struct category{\r\n        string categoryName;\r\n        string functionName;\r\n        address contractAt;\r\n        uint8 paramInt;\r\n        uint8 paramBytes32;\r\n        uint8 paramAddress;\r\n        uint8[] memberRoleSequence;\r\n        uint[] memberRoleMajorityVote;\r\n    }\r\n    category[] public allCategory;\r\n    \r\n      /// @dev Gets the total number of categories.\r\n    function getCategoriesLength() constant returns (uint length)\r\n    {\r\n        length = allCategory.length;\r\n    }\r\n\r\n    /// @dev Gets category details by category id.\r\n    function getCategoryDetails(uint _categoryId) public constant returns (string categoryName,string functionName,address contractAt,uint8 paramInt,uint8 paramBytes32,uint8 paramAddress,uint8[] memberRoleSequence,uint[] memberRoleMajorityVote)\r\n    {    \r\n        categoryName = allCategory[_categoryId].categoryName;\r\n        functionName = allCategory[_categoryId].functionName;\r\n        contractAt = allCategory[_categoryId].contractAt;\r\n        paramInt = allCategory[_categoryId].paramInt;\r\n        paramBytes32 = allCategory[_categoryId].paramBytes32;\r\n        paramAddress = allCategory[_categoryId].paramAddress;\r\n        memberRoleSequence = allCategory[_categoryId].memberRoleSequence;\r\n        memberRoleMajorityVote = allCategory[_categoryId].memberRoleMajorityVote;\r\n    } \r\n    \r\n    /// @dev Get majority vote value for each voting level.\r\n    function getRoleMajorityVote(uint _categoryId,uint _index) constant returns(uint majorityVote)\r\n    {\r\n        return allCategory[_categoryId].memberRoleMajorityVote[_index];\r\n    }\r\n    \r\n    /// @dev Get the length of voting levels against given proposal.\r\n    function getRoleSequencLength(uint _categoryId) constant returns(uint roleLength)\r\n    {\r\n        return allCategory[_categoryId].memberRoleSequence.length;\r\n    }\r\n    /// @dev Get the next Roleid to cast vote against proposal, according to the sequence defined.\r\n    function getRoleSequencAtIndex(uint _categoryId,uint _index) constant returns(uint roleId)\r\n    {\r\n        return allCategory[_categoryId].memberRoleSequence[_index];\r\n    }\r\n    /// @dev Adds a new category.\r\n    function addNewCategory(string _categoryName,string _functionName,address _contractAt,uint8 _paramInt,uint8 _paramBytes32,uint8 _paramAddress,uint8[] _memberRoleSequence,uint[] _memberRoleMajorityVote) public\r\n    {\r\n        require(_memberRoleSequence.length == _memberRoleMajorityVote.length);\r\n        allCategory.push(category(_categoryName,_functionName,_contractAt,_paramInt,_paramBytes32,_paramAddress,_memberRoleSequence,_memberRoleMajorityVote));\r\n    }\r\n    /// @dev Updates a category details\r\n    function updateCategory(uint _categoryId,string _functionName,address _contractAt,uint8 _paramInt,uint8 _paramBytes32,uint8 _paramAddress,uint8[] _memberRoleSequence,uint[] _memberRoleMajorityVote) public\r\n    {\r\n        require(_memberRoleSequence.length == _memberRoleMajorityVote.length);\r\n        allCategory[_categoryId].functionName = _functionName;\r\n        allCategory[_categoryId].contractAt = _contractAt;\r\n        allCategory[_categoryId].paramInt = _paramInt;\r\n        allCategory[_categoryId].paramBytes32 = _paramBytes32; \r\n        allCategory[_categoryId].paramAddress = _paramAddress;\r\n\r\n        for(uint i=0; i<_memberRoleSequence.length; i++)\r\n        {\r\n            allCategory[_categoryId].memberRoleSequence.push(_memberRoleSequence[i]);\r\n            allCategory[_categoryId].memberRoleMajorityVote.push(_memberRoleMajorityVote[i]);\r\n        }\r\n    }\r\n    /// @dev function to be called after proposal pass\r\n    function actionAfterProposalPass(uint _proposalId,uint _categoryId) public returns(bool)\r\n    {\r\n        address contractAt;\r\n        (,,contractAt,,,,,) = getCategoryDetails(_categoryId);\r\n        contractAt.call(bytes4(sha3(allCategory[_categoryId].functionName)),_proposalId);\r\n    }\r\n\r\n}",
  "sourcePath": "D:\\2. GovBlocks Contracts\\GovBlocks Git-Master\\contracts\\ProposalCategory.sol",
  "compiler": {
    "name": "solc",
    "version": "0.4.18+commit.9cf6e910.Emscripten.clang"
  },
  "schemaVersion": "1.0.1",
  "updatedAt": "2017-12-14T05:52:52.357Z"
}