{
  "contractName": "ProposalCategory",
  "abi": [
    {
      "constant": true,
      "inputs": [
        {
          "name": "_categoryId",
          "type": "uint256"
        },
        {
          "name": "_index",
          "type": "uint256"
        }
      ],
      "name": "getRoleMajorityVote",
      "outputs": [
        {
          "name": "majorityVote",
          "type": "uint256"
        }
      ],
      "payable": false,
      "stateMutability": "view",
      "type": "function"
    },
    {
      "constant": true,
      "inputs": [
        {
          "name": "_categoryId",
          "type": "uint256"
        }
      ],
      "name": "getRoleSequencLength",
      "outputs": [
        {
          "name": "roleLength",
          "type": "uint256"
        }
      ],
      "payable": false,
      "stateMutability": "view",
      "type": "function"
    },
    {
      "constant": false,
      "inputs": [
        {
          "name": "_categoryId",
          "type": "uint256"
        },
        {
          "name": "_functionName",
          "type": "string"
        },
        {
          "name": "_contractAt",
          "type": "address"
        },
        {
          "name": "_paramInt",
          "type": "uint8"
        },
        {
          "name": "_paramBytes32",
          "type": "uint8"
        },
        {
          "name": "_paramAddress",
          "type": "uint8"
        },
        {
          "name": "_memberRoleSequence",
          "type": "uint8[]"
        },
        {
          "name": "_memberRoleMajorityVote",
          "type": "uint256[]"
        }
      ],
      "name": "updateCategory",
      "outputs": [
        {
          "name": "",
          "type": "string"
        }
      ],
      "payable": false,
      "stateMutability": "nonpayable",
      "type": "function"
    },
    {
      "constant": false,
      "inputs": [
        {
          "name": "_categoryId",
          "type": "uint256"
        },
        {
          "name": "_uintParamName",
          "type": "bytes32[]"
        },
        {
          "name": "_bytesParamName",
          "type": "bytes32[]"
        },
        {
          "name": "_addressParamName",
          "type": "bytes32[]"
        },
        {
          "name": "_paramBytes32",
          "type": "uint8"
        },
        {
          "name": "_paramAddress",
          "type": "uint8"
        },
        {
          "name": "_memberRoleSequence",
          "type": "uint8[]"
        },
        {
          "name": "_memberRoleMajorityVote",
          "type": "uint256[]"
        }
      ],
      "name": "changeCategoryParametersName",
      "outputs": [
        {
          "name": "",
          "type": "bytes32"
        }
      ],
      "payable": false,
      "stateMutability": "nonpayable",
      "type": "function"
    },
    {
      "constant": true,
      "inputs": [
        {
          "name": "_categoryId",
          "type": "uint256"
        },
        {
          "name": "_index",
          "type": "uint256"
        },
        {
          "name": "_contractAt",
          "type": "address"
        },
        {
          "name": "_paramInt",
          "type": "uint8"
        },
        {
          "name": "_paramBytes32",
          "type": "uint8"
        },
        {
          "name": "_paramAddress",
          "type": "uint8"
        },
        {
          "name": "_memberRoleSequence",
          "type": "uint8[]"
        },
        {
          "name": "_memberRoleMajorityVote",
          "type": "uint256[]"
        },
        {
          "name": "_uintParamName",
          "type": "bytes32[]"
        },
        {
          "name": "_bytesParamName",
          "type": "bytes32[]"
        },
        {
          "name": "_addressParamName",
          "type": "bytes32[]"
        }
      ],
      "name": "getCategoryParameterDetails",
      "outputs": [
        {
          "name": "paramInt",
          "type": "bytes32"
        },
        {
          "name": "paramBytes",
          "type": "bytes32"
        },
        {
          "name": "paramAddress",
          "type": "bytes32"
        },
        {
          "name": "uintHash",
          "type": "string"
        },
        {
          "name": "bytesHash",
          "type": "string"
        },
        {
          "name": "addressHash",
          "type": "string"
        }
      ],
      "payable": false,
      "stateMutability": "view",
      "type": "function"
    },
    {
      "constant": true,
      "inputs": [
        {
          "name": "_categoryId",
          "type": "uint256"
        },
        {
          "name": "_index",
          "type": "uint256"
        },
        {
          "name": "_bytesParamName",
          "type": "bytes32[]"
        },
        {
          "name": "_addressParamName",
          "type": "bytes32[]"
        },
        {
          "name": "_uintParameterDescHash",
          "type": "string"
        },
        {
          "name": "_bytesParameterDescHash",
          "type": "string"
        },
        {
          "name": "_addressParameterDescHash",
          "type": "string"
        },
        {
          "name": "_memberRoleMajorityVote",
          "type": "uint256[]"
        },
        {
          "name": "_uintParamName",
          "type": "bytes32[]"
        },
        {
          "name": "_bytesParamName",
          "type": "bytes32[]"
        },
        {
          "name": "_addressParamName",
          "type": "bytes32[]"
        }
      ],
      "name": "getCategoryParamNameUint",
      "outputs": [
        {
          "name": "",
          "type": "bytes32"
        },
        {
          "name": "functionName",
          "type": "string"
        },
        {
          "name": "contractAt",
          "type": "address"
        },
        {
          "name": "paramInt",
          "type": "uint8"
        },
        {
          "name": "paramBytes32",
          "type": "uint8"
        },
        {
          "name": "paramAddress",
          "type": "uint8"
        },
        {
          "name": "memberRoleSequence",
          "type": "uint8[]"
        },
        {
          "name": "memberRoleMajorityVote",
          "type": "uint256[]"
        }
      ],
      "payable": false,
      "stateMutability": "view",
      "type": "function"
    },
    {
      "constant": false,
      "inputs": [
        {
          "name": "_categoryId",
          "type": "uint256"
        },
        {
          "name": "_uintParamName",
          "type": "bytes32[]"
        },
        {
          "name": "_bytesParamName",
          "type": "bytes32[]"
        },
        {
          "name": "_addressParamName",
          "type": "bytes32[]"
        },
        {
          "name": "_uintParameterDescHash",
          "type": "string"
        },
        {
          "name": "_bytesParameterDescHash",
          "type": "string"
        },
        {
          "name": "_addressParameterDescHash",
          "type": "string"
        },
        {
          "name": "_memberRoleMajorityVote",
          "type": "uint256[]"
        }
      ],
      "name": "addCategoryParamsNameAndDesc",
      "outputs": [
        {
          "name": "roleId",
          "type": "uint256"
        },
        {
          "name": "functionName",
          "type": "string"
        },
        {
          "name": "contractAt",
          "type": "address"
        },
        {
          "name": "paramInt",
          "type": "uint8"
        },
        {
          "name": "paramBytes32",
          "type": "uint8"
        },
        {
          "name": "paramAddress",
          "type": "uint8"
        },
        {
          "name": "memberRoleSequence",
          "type": "uint8[]"
        },
        {
          "name": "memberRoleMajorityVote",
          "type": "uint256[]"
        }
      ],
      "payable": false,
      "stateMutability": "nonpayable",
      "type": "function"
    },
    {
      "constant": true,
      "inputs": [
        {
          "name": "_categoryName",
          "type": "string"
        },
        {
          "name": "_functionName",
          "type": "string"
        },
        {
          "name": "_contractAt",
          "type": "address"
        },
        {
          "name": "_paramInt",
          "type": "uint8"
        },
        {
          "name": "_paramBytes32",
          "type": "uint8"
        },
        {
          "name": "_paramAddress",
          "type": "uint8"
        },
        {
          "name": "_memberRoleSequence",
          "type": "uint8[]"
        },
        {
          "name": "_memberRoleMajorityVote",
          "type": "uint256[]"
        }
      ],
      "name": "owner",
      "outputs": [
        {
          "name": "",
          "type": "address"
        },
        {
          "name": "functionName",
          "type": "string"
        },
        {
          "name": "contractAt",
          "type": "address"
        },
        {
          "name": "paramInt",
          "type": "uint8"
        },
        {
          "name": "paramBytes32",
          "type": "uint8"
        },
        {
          "name": "paramAddress",
          "type": "uint8"
        },
        {
          "name": "memberRoleSequence",
          "type": "uint8[]"
        },
        {
          "name": "memberRoleMajorityVote",
          "type": "uint256[]"
        }
      ],
      "payable": false,
      "stateMutability": "view",
      "type": "function"
    },
    {
      "constant": false,
      "inputs": [
        {
          "name": "_categoryName",
          "type": "string"
        },
        {
          "name": "_functionName",
          "type": "string"
        },
        {
          "name": "_contractAt",
          "type": "address"
        },
        {
          "name": "_paramInt",
          "type": "uint8"
        },
        {
          "name": "_paramBytes32",
          "type": "uint8"
        },
        {
          "name": "_paramAddress",
          "type": "uint8"
        },
        {
          "name": "_memberRoleSequence",
          "type": "uint8[]"
        },
        {
          "name": "_memberRoleMajorityVote",
          "type": "uint256[]"
        }
      ],
      "name": "addNewCategory",
      "outputs": [
        {
          "name": "roleId",
          "type": "uint256"
        },
        {
          "name": "functionName",
          "type": "string"
        },
        {
          "name": "contractAt",
          "type": "address"
        },
        {
          "name": "paramInt",
          "type": "uint8"
        },
        {
          "name": "paramBytes32",
          "type": "uint8"
        },
        {
          "name": "paramAddress",
          "type": "uint8"
        },
        {
          "name": "memberRoleSequence",
          "type": "uint8[]"
        },
        {
          "name": "memberRoleMajorityVote",
          "type": "uint256[]"
        }
      ],
      "payable": false,
      "stateMutability": "nonpayable",
      "type": "function"
    },
    {
      "constant": true,
      "inputs": [
        {
          "name": "_categoryId",
          "type": "uint256"
        },
        {
          "name": "_index",
          "type": "uint256"
        }
      ],
      "name": "getRoleSequencAtIndex",
      "outputs": [
        {
          "name": "roleId",
          "type": "uint256"
        },
        {
          "name": "functionName",
          "type": "string"
        },
        {
          "name": "contractAt",
          "type": "address"
        },
        {
          "name": "paramInt",
          "type": "uint8"
        },
        {
          "name": "paramBytes32",
          "type": "uint8"
        },
        {
          "name": "paramAddress",
          "type": "uint8"
        },
        {
          "name": "memberRoleSequence",
          "type": "uint8[]"
        },
        {
          "name": "memberRoleMajorityVote",
          "type": "uint256[]"
        }
      ],
      "payable": false,
      "stateMutability": "view",
      "type": "function"
    },
    {
      "constant": true,
      "inputs": [
        {
          "name": "_categoryId",
          "type": "uint256"
        },
        {
          "name": "_categoryId",
          "type": "uint256"
        }
      ],
      "name": "getCategoryDetails",
      "outputs": [
        {
          "name": "categoryName",
          "type": "string"
        },
        {
          "name": "functionName",
          "type": "string"
        },
        {
          "name": "contractAt",
          "type": "address"
        },
        {
          "name": "paramInt",
          "type": "uint8"
        },
        {
          "name": "paramBytes32",
          "type": "uint8"
        },
        {
          "name": "paramAddress",
          "type": "uint8"
        },
        {
          "name": "memberRoleSequence",
          "type": "uint8[]"
        },
        {
          "name": "memberRoleMajorityVote",
          "type": "uint256[]"
        }
      ],
      "payable": false,
      "stateMutability": "view",
      "type": "function"
    },
    {
      "constant": true,
      "inputs": [
        {
          "name": "_categoryId",
          "type": "uint256"
        },
        {
          "name": "_index",
          "type": "uint256"
        }
      ],
      "name": "getCategoryParamHashBytes",
      "outputs": [
        {
          "name": "",
          "type": "string"
        },
        {
          "name": "functionName",
          "type": "string"
        },
        {
          "name": "contractAt",
          "type": "address"
        },
        {
          "name": "paramInt",
          "type": "uint8"
        },
        {
          "name": "paramBytes32",
          "type": "uint8"
        },
        {
          "name": "paramAddress",
          "type": "uint8"
        }
      ],
      "payable": false,
      "stateMutability": "view",
      "type": "function"
    },
    {
      "constant": true,
      "inputs": [
        {
          "name": "_categoryId",
          "type": "uint256"
        },
        {
          "name": "_index",
          "type": "uint256"
        }
      ],
      "name": "getCategoryParamNameBytes",
      "outputs": [
        {
          "name": "",
          "type": "bytes32"
        },
        {
          "name": "functionName",
          "type": "string"
        },
        {
          "name": "contractAt",
          "type": "address"
        },
        {
          "name": "paramInt",
          "type": "uint8"
        },
        {
          "name": "paramBytes32",
          "type": "uint8"
        },
        {
          "name": "paramAddress",
          "type": "uint8"
        }
      ],
      "payable": false,
      "stateMutability": "view",
      "type": "function"
    },
    {
      "constant": false,
      "inputs": [
        {
          "name": "_proposalId",
          "type": "uint256"
        },
        {
          "name": "_categoryId",
          "type": "uint256"
        }
      ],
      "name": "actionAfterProposalPass",
      "outputs": [
        {
          "name": "",
          "type": "bytes32"
        }
      ],
      "payable": false,
      "stateMutability": "nonpayable",
      "type": "function"
    },
    {
      "constant": true,
      "inputs": [
        {
          "name": "_categoryId",
          "type": "uint256"
        },
        {
          "name": "_index",
          "type": "uint256"
        }
      ],
      "name": "getCategoryParamNameAddress",
      "outputs": [
        {
          "name": "",
          "type": "bytes32"
        },
        {
          "name": "functionName",
          "type": "string"
        },
        {
          "name": "contractAt",
          "type": "address"
        },
        {
          "name": "paramInt",
          "type": "uint8"
        },
        {
          "name": "paramBytes32",
          "type": "uint8"
        },
        {
          "name": "paramAddress",
          "type": "uint8"
        }
      ],
      "payable": false,
      "stateMutability": "view",
      "type": "function"
    },
    {
      "constant": true,
      "inputs": [
        {
          "name": "",
          "type": "uint256"
        }
      ],
      "name": "allCategory",
      "outputs": [
        {
          "name": "categoryName",
          "type": "string"
        },
        {
          "name": "functionName",
          "type": "string"
        },
        {
          "name": "contractAt",
          "type": "address"
        },
        {
          "name": "paramInt",
          "type": "uint8"
        },
        {
          "name": "paramBytes32",
          "type": "uint8"
        },
        {
          "name": "paramAddress",
          "type": "uint8"
        }
      ],
      "payable": false,
      "stateMutability": "view",
      "type": "function"
    },
    {
      "constant": true,
      "inputs": [
        {
          "name": "_categoryId",
          "type": "uint256"
        }
      ],
      "name": "getCategoryParamHashUint",
      "outputs": [
        {
          "name": "",
          "type": "string"
        }
      ],
      "payable": false,
      "stateMutability": "view",
      "type": "function"
    },
    {
      "constant": true,
      "inputs": [
        {
          "name": "_categoryId",
          "type": "uint256"
        }
      ],
      "name": "getCategoryParamHashAddress",
      "outputs": [
        {
          "name": "",
          "type": "string"
        }
      ],
      "payable": false,
      "stateMutability": "view",
      "type": "function"
    },
    {
      "constant": false,
      "inputs": [
        {
          "name": "newOwner",
          "type": "address"
        }
      ],
      "name": "transferOwnership",
      "outputs": [],
      "payable": false,
      "stateMutability": "nonpayable",
      "type": "function"
    },
    {
      "constant": true,
      "inputs": [],
      "name": "getCategoriesLength",
      "outputs": [
        {
          "name": "length",
          "type": "uint256"
        }
      ],
      "payable": false,
      "stateMutability": "view",
      "type": "function"
    },
    {
      "anonymous": false,
      "inputs": [
        {
          "indexed": true,
          "name": "previousOwner",
          "type": "address"
        },
        {
          "indexed": true,
          "name": "newOwner",
          "type": "address"
        }
      ],
      "name": "OwnershipTransferred",
      "type": "event"
    }
  ],
  "bytecode": "0x6060604052336000806101000a81548173ffffffffffffffffffffffffffffffffffffffff021916908373ffffffffffffffffffffffffffffffffffffffff160217905550612de9806100536000396000f300606060405260043610610112576000357c0100000000000000000000000000000000000000000000000000000000900463ffffffff16806302e929c81461011757806318b0211b146101575780631d10a9731461018e57806355d68b52146102b75780636a045c7c1461039a57806371365629146105445780637cb719ae1461058c5780638da5cb5b146107385780638ef879591461078d5780639deeab20146108f0578063b0a4aaee14610930578063c150d22314610b22578063d7fa79ac14610bbe578063db0c4f7914610c06578063dfa4afc614610c32578063dff5f32214610c7a578063e4d9afdb14610e16578063e62ddb7214610eb2578063f2fde38b14610f4e578063f6d9615f14610f87575b600080fd5b341561012257600080fd5b6101416004808035906020019091908035906020019091905050610fb0565b6040518082815260200191505060405180910390f35b341561016257600080fd5b6101786004808035906020019091905050610ff3565b6040518082815260200191505060405180910390f35b341561019957600080fd5b6102b5600480803590602001909190803590602001908201803590602001908080601f0160208091040260200160405190810160405280939291908181526020018383808284378201915050505050509190803573ffffffffffffffffffffffffffffffffffffffff1690602001909190803560ff1690602001909190803560ff1690602001909190803560ff169060200190919080359060200190820180359060200190808060200260200160405190810160405280939291908181526020018383602002808284378201915050505050509190803590602001908201803590602001908080602002602001604051908101604052809392919081815260200183836020028082843782019150505050505091905050611020565b005b34156102c257600080fd5b610398600480803590602001909190803590602001908201803590602001908080602002602001604051908101604052809392919081815260200183836020028082843782019150505050505091908035906020019082018035906020019080806020026020016040519081016040528093929190818152602001838360200280828437820191505050505050919080359060200190820180359060200190808060200260200160405190810160405280939291908181526020018383602002808284378201915050505050509190505061135d565b005b34156103a557600080fd5b6103c46004808035906020019091908035906020019091905050611616565b60405180876000191660001916815260200186600019166000191681526020018560001916600019168152602001806020018060200180602001848103845287818151815260200191508051906020019080838360005b8381101561043657808201518184015260208101905061041b565b50505050905090810190601f1680156104635780820380516001836020036101000a031916815260200191505b50848103835286818151815260200191508051906020019080838360005b8381101561049c578082015181840152602081019050610481565b50505050905090810190601f1680156104c95780820380516001836020036101000a031916815260200191505b50848103825285818151815260200191508051906020019080838360005b838110156105025780820151818401526020810190506104e7565b50505050905090810190601f16801561052f5780820380516001836020036101000a031916815260200191505b50995050505050505050505060405180910390f35b341561054f57600080fd5b61056e600480803590602001909190803590602001909190505061191f565b60405180826000191660001916815260200191505060405180910390f35b341561059757600080fd5b610736600480803590602001909190803590602001908201803590602001908080602002602001604051908101604052809392919081815260200183836020028082843782019150505050505091908035906020019082018035906020019080806020026020016040519081016040528093929190818152602001838360200280828437820191505050505050919080359060200190820180359060200190808060200260200160405190810160405280939291908181526020018383602002808284378201915050505050509190803590602001908201803590602001908080601f0160208091040260200160405190810160405280939291908181526020018383808284378201915050505050509190803590602001908201803590602001908080601f0160208091040260200160405190810160405280939291908181526020018383808284378201915050505050509190803590602001908201803590602001908080601f01602080910402602001604051908101604052809392919081815260200183838082843782019150505050505091905050611962565b005b341561074357600080fd5b61074b611b37565b604051808273ffffffffffffffffffffffffffffffffffffffff1673ffffffffffffffffffffffffffffffffffffffff16815260200191505060405180910390f35b341561079857600080fd5b6108ee600480803590602001908201803590602001908080601f0160208091040260200160405190810160405280939291908181526020018383808284378201915050505050509190803590602001908201803590602001908080601f0160208091040260200160405190810160405280939291908181526020018383808284378201915050505050509190803573ffffffffffffffffffffffffffffffffffffffff1690602001909190803560ff1690602001909190803560ff1690602001909190803560ff169060200190919080359060200190820180359060200190808060200260200160405190810160405280939291908181526020018383602002808284378201915050505050509190803590602001908201803590602001908080602002602001604051908101604052809392919081815260200183836020028082843782019150505050505091905050611b5c565b005b34156108fb57600080fd5b61091a6004808035906020019091908035906020019091905050611d75565b6040518082815260200191505060405180910390f35b341561093b57600080fd5b6109516004808035906020019091905050611dcf565b6040518080602001806020018973ffffffffffffffffffffffffffffffffffffffff1673ffffffffffffffffffffffffffffffffffffffff1681526020018860ff1660ff1681526020018760ff1660ff1681526020018660ff1660ff168152602001806020018060200185810385528d818151815260200191508051906020019080838360005b838110156109f35780820151818401526020810190506109d8565b50505050905090810190601f168015610a205780820380516001836020036101000a031916815260200191505b5085810384528c818151815260200191508051906020019080838360005b83811015610a59578082015181840152602081019050610a3e565b50505050905090810190601f168015610a865780820380516001836020036101000a031916815260200191505b50858103835287818151815260200191508051906020019060200280838360005b83811015610ac2578082015181840152602081019050610aa7565b50505050905001858103825286818151815260200191508051906020019060200280838360005b83811015610b04578082015181840152602081019050610ae9565b505050509050019c5050505050505050505050505060405180910390f35b3415610b2d57600080fd5b610b436004808035906020019091905050612151565b6040518080602001828103825283818151815260200191508051906020019080838360005b83811015610b83578082015181840152602081019050610b68565b50505050905090810190601f168015610bb05780820380516001836020036101000a031916815260200191505b509250505060405180910390f35b3415610bc957600080fd5b610be86004808035906020019091908035906020019091905050612219565b60405180826000191660001916815260200191505060405180910390f35b3415610c1157600080fd5b610c30600480803590602001909190803590602001909190505061225c565b005b3415610c3d57600080fd5b610c5c600480803590602001909190803590602001909190505061239d565b60405180826000191660001916815260200191505060405180910390f35b3415610c8557600080fd5b610c9b60048080359060200190919050506123e0565b6040518080602001806020018773ffffffffffffffffffffffffffffffffffffffff1673ffffffffffffffffffffffffffffffffffffffff1681526020018660ff1660ff1681526020018560ff1660ff1681526020018460ff1660ff168152602001838103835289818154600181600116156101000203166002900481526020019150805460018160011615610100020316600290048015610d7e5780601f10610d5357610100808354040283529160200191610d7e565b820191906000526020600020905b815481529060010190602001808311610d6157829003601f168201915b5050838103825288818154600181600116156101000203166002900481526020019150805460018160011615610100020316600290048015610e015780601f10610dd657610100808354040283529160200191610e01565b820191906000526020600020905b815481529060010190602001808311610de457829003601f168201915b50509850505050505050505060405180910390f35b3415610e2157600080fd5b610e376004808035906020019091905050612470565b6040518080602001828103825283818151815260200191508051906020019080838360005b83811015610e77578082015181840152602081019050610e5c565b50505050905090810190601f168015610ea45780820380516001836020036101000a031916815260200191505b509250505060405180910390f35b3415610ebd57600080fd5b610ed36004808035906020019091905050612538565b6040518080602001828103825283818151815260200191508051906020019080838360005b83811015610f13578082015181840152602081019050610ef8565b50505050905090810190601f168015610f405780820380516001836020036101000a031916815260200191505b509250505060405180910390f35b3415610f5957600080fd5b610f85600480803573ffffffffffffffffffffffffffffffffffffffff16906020019091905050612600565b005b3415610f9257600080fd5b610f9a612755565b6040518082815260200191505060405180910390f35b6000600183815481101515610fc157fe5b906000526020600020906005020160040182815481101515610fdf57fe5b906000526020600020900154905092915050565b600060018281548110151561100457fe5b9060005260206000209060050201600301805490509050919050565b60008060009054906101000a900473ffffffffffffffffffffffffffffffffffffffff1673ffffffffffffffffffffffffffffffffffffffff163373ffffffffffffffffffffffffffffffffffffffff1614151561107d57600080fd5b8151835114151561108d57600080fd5b8760018a81548110151561109d57fe5b906000526020600020906005020160010190805190602001906110c1929190612762565b508660018a8154811015156110d257fe5b906000526020600020906005020160020160006101000a81548173ffffffffffffffffffffffffffffffffffffffff021916908373ffffffffffffffffffffffffffffffffffffffff1602179055508560018a81548110151561113157fe5b906000526020600020906005020160020160146101000a81548160ff021916908360ff1602179055508460018a81548110151561116a57fe5b906000526020600020906005020160020160156101000a81548160ff021916908360ff1602179055508360018a8154811015156111a357fe5b906000526020600020906005020160020160166101000a81548160ff021916908360ff16021790555082516040518059106111db5750595b908082528060200260200182016040525060018a8154811015156111fb57fe5b9060005260206000209060050201600301908051906020019061121f9291906127e2565b50815160405180591061122f5750595b908082528060200260200182016040525060018a81548110151561124f57fe5b90600052602060002090600502016004019080519060200190611273929190612889565b50600090505b825181101561135257828181518110151561129057fe5b9060200190602002015160018a8154811015156112a957fe5b9060005260206000209060050201600301828154811015156112c757fe5b90600052602060002090602091828204019190066101000a81548160ff021916908360ff16021790555081818151811015156112ff57fe5b9060200190602002015160018a81548110151561131857fe5b90600052602060002090600502016004018281548110151561133657fe5b9060005260206000209001819055508080600101915050611279565b505050505050505050565b60008060009054906101000a900473ffffffffffffffffffffffffffffffffffffffff1673ffffffffffffffffffffffffffffffffffffffff163373ffffffffffffffffffffffffffffffffffffffff161415156113ba57600080fd5b83516040518059106113c95750595b90808252806020026020018201604052506002868154811015156113e957fe5b9060005260206000209060020201600001908051906020019061140d9291906128d6565b50825160405180591061141d5750595b908082528060200260200182016040525060038681548110151561143d57fe5b906000526020600020906002020160000190805190602001906114619291906128d6565b5081516040518059106114715750595b908082528060200260200182016040525060048681548110151561149157fe5b906000526020600020906002020160000190805190602001906114b59291906128d6565b50600090505b83518110156115295783818151811015156114d257fe5b906020019060200201516002868154811015156114eb57fe5b90600052602060002090600202016000018281548110151561150957fe5b9060005260206000209001816000191690555080806001019150506114bb565b600090505b835181101561159c57828181518110151561154557fe5b9060200190602002015160038681548110151561155e57fe5b90600052602060002090600202016000018281548110151561157c57fe5b90600052602060002090018160001916905550808060010191505061152e565b600090505b835181101561160f5781818151811015156115b857fe5b906020019060200201516004868154811015156115d157fe5b9060005260206000209060020201600001828154811015156115ef57fe5b9060005260206000209001816000191690555080806001019150506115a1565b5050505050565b6000806000611623612929565b61162b612929565b611633612929565b60028881548110151561164257fe5b90600052602060002090600202016000018781548110151561166057fe5b906000526020600020900154955060038881548110151561167d57fe5b90600052602060002090600202016000018781548110151561169b57fe5b90600052602060002090015494506004888154811015156116b857fe5b9060005260206000209060020201600001878154811015156116d657fe5b90600052602060002090015493506002888154811015156116f357fe5b90600052602060002090600202016001018054600181600116156101000203166002900480601f0160208091040260200160405190810160405280929190818152602001828054600181600116156101000203166002900480156117985780601f1061176d57610100808354040283529160200191611798565b820191906000526020600020905b81548152906001019060200180831161177b57829003601f168201915b505050505092506003888154811015156117ae57fe5b90600052602060002090600202016001018054600181600116156101000203166002900480601f0160208091040260200160405190810160405280929190818152602001828054600181600116156101000203166002900480156118535780601f1061182857610100808354040283529160200191611853565b820191906000526020600020905b81548152906001019060200180831161183657829003601f168201915b5050505050915060048881548110151561186957fe5b90600052602060002090600202016001018054600181600116156101000203166002900480601f01602080910402602001604051908101604052809291908181526020018280546001816001161561010002031660029004801561190e5780601f106118e35761010080835404028352916020019161190e565b820191906000526020600020905b8154815290600101906020018083116118f157829003601f168201915b505050505090509295509295509295565b600060028381548110151561193057fe5b90600052602060002090600202016000018281548110151561194e57fe5b906000526020600020900154905092915050565b6000809054906101000a900473ffffffffffffffffffffffffffffffffffffffff1673ffffffffffffffffffffffffffffffffffffffff163373ffffffffffffffffffffffffffffffffffffffff161415156119bd57600080fd5b600280548060010182816119d1919061293d565b9160005260206000209060020201600060408051908101604052808a81526020018781525090919091506000820151816000019080519060200190611a1792919061296f565b506020820151816001019080519060200190611a349291906129c2565b5050505060038054806001018281611a4c919061293d565b9160005260206000209060020201600060408051908101604052808981526020018681525090919091506000820151816000019080519060200190611a9292919061296f565b506020820151816001019080519060200190611aaf9291906129c2565b5050505060048054806001018281611ac7919061293d565b9160005260206000209060020201600060408051908101604052808881526020018581525090919091506000820151816000019080519060200190611b0d92919061296f565b506020820151816001019080519060200190611b2a9291906129c2565b5050505050505050505050565b6000809054906101000a900473ffffffffffffffffffffffffffffffffffffffff1681565b6000809054906101000a900473ffffffffffffffffffffffffffffffffffffffff1673ffffffffffffffffffffffffffffffffffffffff163373ffffffffffffffffffffffffffffffffffffffff16141515611bb757600080fd5b80518251141515611bc757600080fd5b60018054806001018281611bdb9190612a42565b91600052602060002090600502016000610100604051908101604052808c81526020018b81526020018a73ffffffffffffffffffffffffffffffffffffffff1681526020018960ff1681526020018860ff1681526020018760ff1681526020018681526020018581525090919091506000820151816000019080519060200190611c669291906129c2565b506020820151816001019080519060200190611c839291906129c2565b5060408201518160020160006101000a81548173ffffffffffffffffffffffffffffffffffffffff021916908373ffffffffffffffffffffffffffffffffffffffff16021790555060608201518160020160146101000a81548160ff021916908360ff16021790555060808201518160020160156101000a81548160ff021916908360ff16021790555060a08201518160020160166101000a81548160ff021916908360ff16021790555060c0820151816003019080519060200190611d4a929190612a74565b5060e0820151816004019080519060200190611d67929190612b1b565b505050505050505050505050565b6000600183815481101515611d8657fe5b906000526020600020906005020160030182815481101515611da457fe5b90600052602060002090602091828204019190069054906101000a900460ff1660ff16905092915050565b611dd7612929565b611ddf612929565b600080600080611ded612b68565b611df5612b7c565b600189815481101515611e0457fe5b90600052602060002090600502016000018054600181600116156101000203166002900480601f016020809104026020016040519081016040528092919081815260200182805460018160011615610100020316600290048015611ea95780601f10611e7e57610100808354040283529160200191611ea9565b820191906000526020600020905b815481529060010190602001808311611e8c57829003601f168201915b50505050509750600189815481101515611ebf57fe5b90600052602060002090600502016001018054600181600116156101000203166002900480601f016020809104026020016040519081016040528092919081815260200182805460018160011615610100020316600290048015611f645780601f10611f3957610100808354040283529160200191611f64565b820191906000526020600020905b815481529060010190602001808311611f4757829003601f168201915b50505050509650600189815481101515611f7a57fe5b906000526020600020906005020160020160009054906101000a900473ffffffffffffffffffffffffffffffffffffffff169550600189815481101515611fbd57fe5b906000526020600020906005020160020160149054906101000a900460ff169450600189815481101515611fed57fe5b906000526020600020906005020160020160159054906101000a900460ff16935060018981548110151561201d57fe5b906000526020600020906005020160020160169054906101000a900460ff16925060018981548110151561204d57fe5b90600052602060002090600502016003018054806020026020016040519081016040528092919081815260200182805480156120ce57602002820191906000526020600020906000905b82829054906101000a900460ff1660ff16815260200190600101906020826000010492830192600103820291508084116120975790505b505050505091506001898154811015156120e457fe5b906000526020600020906005020160040180548060200260200160405190810160405280929190818152602001828054801561213f57602002820191906000526020600020905b81548152602001906001019080831161212b575b50505050509050919395975091939597565b612159612929565b60038281548110151561216857fe5b90600052602060002090600202016001018054600181600116156101000203166002900480601f01602080910402602001604051908101604052809291908181526020018280546001816001161561010002031660029004801561220d5780601f106121e25761010080835404028352916020019161220d565b820191906000526020600020905b8154815290600101906020018083116121f057829003601f168201915b50505050509050919050565b600060038381548110151561222a57fe5b90600052602060002090600202016000018281548110151561224857fe5b906000526020600020900154905092915050565b600061226782611dcf565b909192939495965090919293949550909192935090919250909150905050809150508073ffffffffffffffffffffffffffffffffffffffff166001838154811015156122af57fe5b9060005260206000209060050201600101604051808280546001816001161561010002031660029004801561231b5780601f106122f957610100808354040283529182019161231b565b820191906000526020600020905b815481529060010190602001808311612307575b505091505060405180910390207c01000000000000000000000000000000000000000000000000000000009004846040518263ffffffff167c01000000000000000000000000000000000000000000000000000000000281526004018082815260200191505060006040518083038160008761646e5a03f19250505050505050565b60006004838154811015156123ae57fe5b9060005260206000209060020201600001828154811015156123cc57fe5b906000526020600020900154905092915050565b6001818154811015156123ef57fe5b9060005260206000209060050201600091509050806000019080600101908060020160009054906101000a900473ffffffffffffffffffffffffffffffffffffffff16908060020160149054906101000a900460ff16908060020160159054906101000a900460ff16908060020160169054906101000a900460ff16905086565b612478612929565b60028281548110151561248757fe5b90600052602060002090600202016001018054600181600116156101000203166002900480601f01602080910402602001604051908101604052809291908181526020018280546001816001161561010002031660029004801561252c5780601f106125015761010080835404028352916020019161252c565b820191906000526020600020905b81548152906001019060200180831161250f57829003601f168201915b50505050509050919050565b612540612929565b60048281548110151561254f57fe5b90600052602060002090600202016001018054600181600116156101000203166002900480601f0160208091040260200160405190810160405280929190818152602001828054600181600116156101000203166002900480156125f45780601f106125c9576101008083540402835291602001916125f4565b820191906000526020600020905b8154815290600101906020018083116125d757829003601f168201915b50505050509050919050565b6000809054906101000a900473ffffffffffffffffffffffffffffffffffffffff1673ffffffffffffffffffffffffffffffffffffffff163373ffffffffffffffffffffffffffffffffffffffff1614151561265b57600080fd5b600073ffffffffffffffffffffffffffffffffffffffff168173ffffffffffffffffffffffffffffffffffffffff161415151561269757600080fd5b8073ffffffffffffffffffffffffffffffffffffffff166000809054906101000a900473ffffffffffffffffffffffffffffffffffffffff1673ffffffffffffffffffffffffffffffffffffffff167f8be0079c531659141344cd1fd0a4f28419497f9722a3daafe3b4186f6b6457e060405160405180910390a3806000806101000a81548173ffffffffffffffffffffffffffffffffffffffff021916908373ffffffffffffffffffffffffffffffffffffffff16021790555050565b6000600180549050905090565b828054600181600116156101000203166002900490600052602060002090601f016020900481019282601f106127a357805160ff19168380011785556127d1565b828001600101855582156127d1579182015b828111156127d05782518255916020019190600101906127b5565b5b5090506127de9190612b90565b5090565b82805482825590600052602060002090601f016020900481019282156128785791602002820160005b8382111561284957835183826101000a81548160ff021916908360ff160217905550926020019260010160208160000104928301926001030261280b565b80156128765782816101000a81549060ff0219169055600101602081600001049283019260010302612849565b505b5090506128859190612bb5565b5090565b8280548282559060005260206000209081019282156128c5579160200282015b828111156128c45782518255916020019190600101906128a9565b5b5090506128d29190612b90565b5090565b828054828255906000526020600020908101928215612918579160200282015b828111156129175782518290600019169055916020019190600101906128f6565b5b5090506129259190612be5565b5090565b602060405190810160405280600081525090565b81548183558181151161296a576002028160020283600052602060002091820191016129699190612c0a565b5b505050565b8280548282559060005260206000209081019282156129b1579160200282015b828111156129b057825182906000191690559160200191906001019061298f565b5b5090506129be9190612be5565b5090565b828054600181600116156101000203166002900490600052602060002090601f016020900481019282601f10612a0357805160ff1916838001178555612a31565b82800160010185558215612a31579182015b82811115612a30578251825591602001919060010190612a15565b5b509050612a3e9190612b90565b5090565b815481835581811511612a6f57600502816005028360005260206000209182019101612a6e9190612c49565b5b505050565b82805482825590600052602060002090601f01602090048101928215612b0a5791602002820160005b83821115612adb57835183826101000a81548160ff021916908360ff1602179055509260200192600101602081600001049283019260010302612a9d565b8015612b085782816101000a81549060ff0219169055600101602081600001049283019260010302612adb565b505b509050612b179190612bb5565b5090565b828054828255906000526020600020908101928215612b57579160200282015b82811115612b56578251825591602001919060010190612b3b565b5b509050612b649190612b90565b5090565b602060405190810160405280600081525090565b602060405190810160405280600081525090565b612bb291905b80821115612bae576000816000905550600101612b96565b5090565b90565b612be291905b80821115612bde57600081816101000a81549060ff021916905550600101612bbb565b5090565b90565b612c0791905b80821115612c03576000816000905550600101612beb565b5090565b90565b612c4691905b80821115612c425760008082016000612c299190612d0b565b600182016000612c399190612d2c565b50600201612c10565b5090565b90565b612d0891905b80821115612d045760008082016000612c689190612d2c565b600182016000612c789190612d2c565b6002820160006101000a81549073ffffffffffffffffffffffffffffffffffffffff02191690556002820160146101000a81549060ff02191690556002820160156101000a81549060ff02191690556002820160166101000a81549060ff0219169055600382016000612ceb9190612d74565b600482016000612cfb9190612d9c565b50600501612c4f565b5090565b90565b5080546000825590600052602060002090810190612d299190612be5565b50565b50805460018160011615610100020316600290046000825580601f10612d525750612d71565b601f016020900490600052602060002090810190612d709190612b90565b5b50565b50805460008255601f016020900490600052602060002090810190612d999190612b90565b50565b5080546000825590600052602060002090810190612dba9190612b90565b505600a165627a7a72305820c3323740a76e70e5d53a1d09b61886bc265123283320cf80bf2b11db83d2bbb20029",
  "source": "/* Copyright (C) 2017 GovBlocks.io\r\n\r\n  This program is free software: you can redistribute it and/or modify\r\n    it under the terms of the GNU General Public License as published by\r\n    the Free Software Foundation, either version 3 of the License, or\r\n    (at your option) any later version.\r\n\r\n  This program is distributed in the hope that it will be useful,\r\n    but WITHOUT ANY WARRANTY; without even the implied warranty of\r\n    MERCHANTABILITY or FITNESS FOR A PARTICULAR PURPOSE.  See the\r\n    GNU General Public License for more details.\r\n\r\n  You should have received a copy of the GNU General Public License\r\n    along with this program.  If not, see http://www.gnu.org/licenses/ */\r\npragma solidity ^0.4.8;\r\n// import \"./Ownable.sol\";\r\nimport \"./zeppelin-solidity/contracts/ownership/Ownable.sol\";\r\n\r\ncontract ProposalCategory is Ownable\r\n{\r\n    struct category{\r\n        string categoryName;\r\n        string functionName;\r\n        address contractAt;\r\n        uint8 paramInt;\r\n        uint8 paramBytes32;\r\n        uint8 paramAddress;\r\n        uint8[] memberRoleSequence;\r\n        uint[] memberRoleMajorityVote;\r\n    }\r\n\r\n    struct categoryParams\r\n    {\r\n        bytes32[] parameterName;\r\n        string parameterDescHash;\r\n    }\r\n\r\n    category[] public allCategory;\r\n\r\n    categoryParams[] uintParam;\r\n    categoryParams[] bytesParam;\r\n    categoryParams[] addressParam;\r\n\r\n    /// @dev Get the integer parameterName when given Category Id and parameterIndex\r\n    function getCategoryParamNameUint(uint _categoryId,uint _index)constant returns(bytes32)\r\n    {\r\n        return uintParam[_categoryId].parameterName[_index];\r\n    }\r\n\r\n    /// @dev Get the Bytes parameterName when given Category Id and parameterIndex\r\n    function getCategoryParamNameBytes(uint _categoryId,uint _index)constant returns(bytes32)\r\n    {\r\n        return bytesParam[_categoryId].parameterName[_index];\r\n    }\r\n\r\n    /// @dev Get the Address parameterName when given Category Id and parameterIndex\r\n    function getCategoryParamNameAddress(uint _categoryId,uint _index)constant returns(bytes32)\r\n    {\r\n        return addressParam[_categoryId].parameterName[_index];\r\n    }\r\n\r\n    /// @dev Get the Address parameterName when given Category Id and parameterIndex\r\n    function getCategoryParamHashUint(uint _categoryId)constant returns(string)\r\n    {\r\n        return uintParam[_categoryId].parameterDescHash;\r\n    }\r\n\r\n    /// @dev Get the Address parameterName when given Category Id and parameterIndex\r\n    function getCategoryParamHashBytes(uint _categoryId)constant returns(string)\r\n    {\r\n        return bytesParam[_categoryId].parameterDescHash;\r\n    }\r\n\r\n    /// @dev Get the Address parameterName when given Category Id and parameterIndex\r\n    function getCategoryParamHashAddress(uint _categoryId)constant returns(string)\r\n    {\r\n        return addressParam[_categoryId].parameterDescHash;\r\n    }\r\n\r\n    /// @dev Get category parameter details when giving category id and Index.\r\n    function getCategoryParameterDetails(uint _categoryId,uint _index) constant returns(bytes32 paramInt,bytes32 paramBytes,bytes32 paramAddress, string uintHash,string bytesHash,string addressHash)\r\n    {\r\n        paramInt = uintParam[_categoryId].parameterName[_index];\r\n        paramBytes = bytesParam[_categoryId].parameterName[_index];\r\n        paramAddress = addressParam[_categoryId].parameterName[_index];\r\n        uintHash = uintParam[_categoryId].parameterDescHash;\r\n        bytesHash = bytesParam[_categoryId].parameterDescHash;\r\n        addressHash = addressParam[_categoryId].parameterDescHash;\r\n    }\r\n\r\n    /// @dev Gets the total number of categories.\r\n    function getCategoriesLength() constant returns (uint length)\r\n    {\r\n        length = allCategory.length;\r\n    }\r\n\r\n    /// @dev Gets category details by category id.\r\n    function getCategoryDetails(uint _categoryId) public constant returns (string categoryName,string functionName,address contractAt,uint8 paramInt,uint8 paramBytes32,uint8 paramAddress,uint8[] memberRoleSequence,uint[] memberRoleMajorityVote)\r\n    {    \r\n        categoryName = allCategory[_categoryId].categoryName;\r\n        functionName = allCategory[_categoryId].functionName;\r\n        contractAt = allCategory[_categoryId].contractAt;\r\n        paramInt = allCategory[_categoryId].paramInt;\r\n        paramBytes32 = allCategory[_categoryId].paramBytes32;\r\n        paramAddress = allCategory[_categoryId].paramAddress;\r\n        memberRoleSequence = allCategory[_categoryId].memberRoleSequence;\r\n        memberRoleMajorityVote = allCategory[_categoryId].memberRoleMajorityVote;\r\n    } \r\n    \r\n    /// @dev Get majority vote value for each voting level.\r\n    function getRoleMajorityVote(uint _categoryId,uint _index) constant returns(uint majorityVote)\r\n    {\r\n        return allCategory[_categoryId].memberRoleMajorityVote[_index];\r\n    }\r\n    \r\n    /// @dev Get the length of voting levels against given proposal.\r\n    function getRoleSequencLength(uint _categoryId) constant returns(uint roleLength)\r\n    {\r\n        return allCategory[_categoryId].memberRoleSequence.length;\r\n    }\r\n    /// @dev Get the next Roleid to cast vote against proposal, according to the sequence defined.\r\n    function getRoleSequencAtIndex(uint _categoryId,uint _index) constant returns(uint roleId)\r\n    {\r\n        return allCategory[_categoryId].memberRoleSequence[_index];\r\n    }\r\n    /// @dev Adds a new category and Category Function Parameter names..\r\n    function addNewCategory(string _categoryName,string _functionName,address _contractAt,uint8 _paramInt,uint8 _paramBytes32,uint8 _paramAddress,uint8[] _memberRoleSequence,uint[] _memberRoleMajorityVote) onlyOwner\r\n    {\r\n        require(_memberRoleSequence.length == _memberRoleMajorityVote.length);\r\n        allCategory.push(category(_categoryName,_functionName,_contractAt,_paramInt,_paramBytes32,_paramAddress,_memberRoleSequence,_memberRoleMajorityVote));\r\n    }\r\n    /// @dev Saving descriptions against various parameters required for category.\r\n    function addCategoryParamsNameAndDesc(uint _categoryId,bytes32[] _uintParamName,bytes32[] _bytesParamName,bytes32[] _addressParamName,string _uintParameterDescHash,string _bytesParameterDescHash,string _addressParameterDescHash) onlyOwner\r\n    {\r\n        uintParam.push(categoryParams(_uintParamName,_uintParameterDescHash));\r\n        bytesParam.push(categoryParams(_bytesParamName,_bytesParameterDescHash));\r\n        addressParam.push(categoryParams(_addressParamName,_addressParameterDescHash));\r\n    }\r\n    /// @dev Change the category parameters name against category.\r\n    function changeCategoryParametersName(uint _categoryId,bytes32[] _uintParamName,bytes32[] _bytesParamName,bytes32[] _addressParamName) onlyOwner\r\n    {   \r\n        uintParam[_categoryId].parameterName=new bytes32[](_uintParamName.length); \r\n        bytesParam[_categoryId].parameterName=new bytes32[](_bytesParamName.length); \r\n        addressParam[_categoryId].parameterName=new bytes32[](_addressParamName.length); \r\n        \r\n        for(uint i=0; i<_uintParamName.length; i++)\r\n        {\r\n            uintParam[_categoryId].parameterName[i]=_uintParamName[i]; \r\n        }\r\n            \r\n        for(i=0; i<_uintParamName.length; i++)\r\n        {\r\n            bytesParam[_categoryId].parameterName[i]=_bytesParamName[i];\r\n        }\r\n        \r\n        for(i=0; i<_uintParamName.length; i++)\r\n        {\r\n            addressParam[_categoryId].parameterName[i]=_addressParamName[i];\r\n        }\r\n    }\r\n\r\n    /// @dev Updates a category details\r\n    function updateCategory(uint _categoryId,string _functionName,address _contractAt,uint8 _paramInt,uint8 _paramBytes32,uint8 _paramAddress,uint8[] _memberRoleSequence,uint[] _memberRoleMajorityVote) onlyOwner\r\n    {\r\n        require(_memberRoleSequence.length == _memberRoleMajorityVote.length);\r\n        allCategory[_categoryId].functionName = _functionName;\r\n        allCategory[_categoryId].contractAt = _contractAt;\r\n        allCategory[_categoryId].paramInt = _paramInt;\r\n        allCategory[_categoryId].paramBytes32 = _paramBytes32; \r\n        allCategory[_categoryId].paramAddress = _paramAddress;\r\n\r\n        allCategory[_categoryId].memberRoleSequence=new uint8[](_memberRoleSequence.length);\r\n        allCategory[_categoryId].memberRoleMajorityVote=new uint[](_memberRoleMajorityVote.length);\r\n\r\n        for(uint i=0; i<_memberRoleSequence.length; i++)\r\n        {\r\n            allCategory[_categoryId].memberRoleSequence[i] =_memberRoleSequence[i];\r\n            allCategory[_categoryId].memberRoleMajorityVote[i] = _memberRoleMajorityVote[i];\r\n        }\r\n    }\r\n    /// @dev function to be called after proposal pass\r\n    function actionAfterProposalPass(uint _proposalId,uint _categoryId) public\r\n    {\r\n        address contractAt;\r\n        (,,contractAt,,,,,) = getCategoryDetails(_categoryId);\r\n        contractAt.call(bytes4(sha3(allCategory[_categoryId].functionName)),_proposalId);\r\n    }\r\n\r\n}",
  "sourcePath": "D:\\2. GovBlocks Contracts\\GovBlocks Git-Master\\contracts\\ProposalCategory.sol",
  "compiler": {
    "name": "solc",
    "version": "0.4.18+commit.9cf6e910.Emscripten.clang"
  },
  "schemaVersion": "1.0.1",
  "updatedAt": "2017-12-22T09:56:46.518Z"
}