{
  "contractName": "ProposalCategory",
  "abi": [
    {
      "constant": true,
      "inputs": [
        {
          "name": "_categoryId",
          "type": "uint256"
        },
        {
          "name": "_index",
          "type": "uint256"
        }
      ],
      "name": "getRoleMajorityVote",
      "outputs": [
        {
          "name": "majorityVote",
          "type": "uint256"
        }
      ],
      "payable": false,
      "stateMutability": "view",
      "type": "function"
    },
    {
      "constant": true,
      "inputs": [
        {
          "name": "_categoryId",
          "type": "uint256"
        }
      ],
      "name": "getRoleSequencLength",
      "outputs": [
        {
          "name": "roleLength",
          "type": "uint256"
        }
      ],
      "payable": false,
      "stateMutability": "view",
      "type": "function"
    },
    {
      "constant": false,
      "inputs": [
        {
          "name": "_categoryId",
          "type": "uint256"
        },
        {
          "name": "_functionName",
          "type": "string"
        },
        {
          "name": "_contractAt",
          "type": "address"
        },
        {
          "name": "_paramInt",
          "type": "uint8"
        },
        {
          "name": "_paramBytes32",
          "type": "uint8"
        },
        {
          "name": "_paramAddress",
          "type": "uint8"
        },
        {
          "name": "_memberRoleSequence",
          "type": "uint8[]"
        },
        {
          "name": "_memberRoleMajorityVote",
          "type": "uint256[]"
        }
      ],
      "name": "updateCategory",
      "outputs": [
        {
          "name": "",
          "type": "string"
        }
      ],
      "payable": false,
      "stateMutability": "nonpayable",
      "type": "function"
    },
    {
      "constant": false,
      "inputs": [
        {
          "name": "_categoryId",
          "type": "uint256"
        },
        {
          "name": "_uintParamName",
          "type": "bytes32[]"
        },
        {
          "name": "_bytesParamName",
          "type": "bytes32[]"
        },
        {
          "name": "_addressParamName",
          "type": "bytes32[]"
        },
        {
          "name": "_paramBytes32",
          "type": "uint8"
        },
        {
          "name": "_paramAddress",
          "type": "uint8"
        },
        {
          "name": "_memberRoleSequence",
          "type": "uint8[]"
        },
        {
          "name": "_memberRoleMajorityVote",
          "type": "uint256[]"
        }
      ],
      "name": "changeCategoryParametersName",
      "outputs": [
        {
          "name": "",
          "type": "bytes32"
        }
      ],
      "payable": false,
      "stateMutability": "nonpayable",
      "type": "function"
    },
    {
      "constant": true,
      "inputs": [
        {
          "name": "_categoryId",
          "type": "uint256"
        },
        {
          "name": "_index",
          "type": "uint256"
        },
        {
          "name": "_contractAt",
          "type": "address"
        },
        {
          "name": "_paramInt",
          "type": "uint8"
        },
        {
          "name": "_paramBytes32",
          "type": "uint8"
        },
        {
          "name": "_paramAddress",
          "type": "uint8"
        },
        {
          "name": "_memberRoleSequence",
          "type": "uint8[]"
        },
        {
          "name": "_memberRoleMajorityVote",
          "type": "uint256[]"
        },
        {
          "name": "_uintParamName",
          "type": "bytes32[]"
        },
        {
          "name": "_bytesParamName",
          "type": "bytes32[]"
        },
        {
          "name": "_addressParamName",
          "type": "bytes32[]"
        }
      ],
      "name": "getCategoryParamNameUint",
      "outputs": [
        {
          "name": "",
          "type": "bytes32"
        }
      ],
      "payable": false,
      "stateMutability": "view",
      "type": "function"
    },
    {
      "constant": false,
      "inputs": [
        {
          "name": "_categoryId",
          "type": "uint256"
        },
        {
          "name": "_uintParamName",
          "type": "bytes32[]"
        },
        {
          "name": "_bytesParamName",
          "type": "bytes32[]"
        },
        {
          "name": "_addressParamName",
          "type": "bytes32[]"
        },
        {
          "name": "_uintParameterDescHash",
          "type": "string"
        },
        {
          "name": "_bytesParameterDescHash",
          "type": "string"
        },
        {
          "name": "_addressParameterDescHash",
          "type": "string"
        },
        {
          "name": "_memberRoleMajorityVote",
          "type": "uint256[]"
        },
        {
          "name": "_uintParamName",
          "type": "bytes32[]"
        },
        {
          "name": "_bytesParamName",
          "type": "bytes32[]"
        },
        {
          "name": "_addressParamName",
          "type": "bytes32[]"
        }
      ],
      "name": "addCategoryParamsNameAndDesc",
      "outputs": [
        {
          "name": "roleId",
          "type": "uint256"
        },
        {
          "name": "functionName",
          "type": "string"
        },
        {
          "name": "contractAt",
          "type": "address"
        },
        {
          "name": "paramInt",
          "type": "uint8"
        },
        {
          "name": "paramBytes32",
          "type": "uint8"
        },
        {
          "name": "paramAddress",
          "type": "uint8"
        },
        {
          "name": "memberRoleSequence",
          "type": "uint8[]"
        },
        {
          "name": "memberRoleMajorityVote",
          "type": "uint256[]"
        }
      ],
      "payable": false,
      "stateMutability": "nonpayable",
      "type": "function"
    },
    {
      "constant": false,
      "inputs": [
        {
          "name": "_categoryName",
          "type": "string"
        },
        {
          "name": "_functionName",
          "type": "string"
        },
        {
          "name": "_contractAt",
          "type": "address"
        },
        {
          "name": "_paramInt",
          "type": "uint8"
        },
        {
          "name": "_paramBytes32",
          "type": "uint8"
        },
        {
          "name": "_paramAddress",
          "type": "uint8"
        },
        {
          "name": "_memberRoleSequence",
          "type": "uint8[]"
        },
        {
          "name": "_memberRoleMajorityVote",
          "type": "uint256[]"
        }
      ],
      "name": "addNewCategory",
      "outputs": [
        {
          "name": "roleId",
          "type": "uint256"
        },
        {
          "name": "functionName",
          "type": "string"
        },
        {
          "name": "contractAt",
          "type": "address"
        },
        {
          "name": "paramInt",
          "type": "uint8"
        },
        {
          "name": "paramBytes32",
          "type": "uint8"
        },
        {
          "name": "paramAddress",
          "type": "uint8"
        },
        {
          "name": "memberRoleSequence",
          "type": "uint8[]"
        },
        {
          "name": "memberRoleMajorityVote",
          "type": "uint256[]"
        }
      ],
      "payable": false,
      "stateMutability": "nonpayable",
      "type": "function"
    },
    {
      "constant": true,
      "inputs": [
        {
          "name": "_categoryId",
          "type": "uint256"
        },
        {
          "name": "_index",
          "type": "uint256"
        },
        {
          "name": "_bytesParamName",
          "type": "bytes32[]"
        },
        {
          "name": "_addressParamName",
          "type": "bytes32[]"
        }
      ],
      "name": "getRoleSequencAtIndex",
      "outputs": [
        {
          "name": "roleId",
          "type": "uint256"
        },
        {
          "name": "functionName",
          "type": "string"
        },
        {
          "name": "contractAt",
          "type": "address"
        },
        {
          "name": "paramInt",
          "type": "uint8"
        },
        {
          "name": "paramBytes32",
          "type": "uint8"
        },
        {
          "name": "paramAddress",
          "type": "uint8"
        },
        {
          "name": "memberRoleSequence",
          "type": "uint8[]"
        },
        {
          "name": "memberRoleMajorityVote",
          "type": "uint256[]"
        }
      ],
      "payable": false,
      "stateMutability": "view",
      "type": "function"
    },
    {
      "constant": true,
      "inputs": [
        {
          "name": "_categoryId",
          "type": "uint256"
        },
        {
          "name": "_index",
          "type": "uint256"
        }
      ],
      "name": "getCategoryDetails",
      "outputs": [
        {
          "name": "categoryName",
          "type": "string"
        },
        {
          "name": "functionName",
          "type": "string"
        },
        {
          "name": "contractAt",
          "type": "address"
        },
        {
          "name": "paramInt",
          "type": "uint8"
        },
        {
          "name": "paramBytes32",
          "type": "uint8"
        },
        {
          "name": "paramAddress",
          "type": "uint8"
        },
        {
          "name": "memberRoleSequence",
          "type": "uint8[]"
        },
        {
          "name": "memberRoleMajorityVote",
          "type": "uint256[]"
        }
      ],
      "payable": false,
      "stateMutability": "view",
      "type": "function"
    },
    {
      "constant": true,
      "inputs": [
        {
          "name": "_categoryId",
          "type": "uint256"
        },
        {
          "name": "_index",
          "type": "uint256"
        }
      ],
      "name": "getCategoryParamNameBytes",
      "outputs": [
        {
          "name": "",
          "type": "bytes32"
        }
      ],
      "payable": false,
      "stateMutability": "view",
      "type": "function"
    },
    {
      "constant": false,
      "inputs": [
        {
          "name": "_proposalId",
          "type": "uint256"
        },
        {
          "name": "_categoryId",
          "type": "uint256"
        }
      ],
      "name": "actionAfterProposalPass",
      "outputs": [
        {
          "name": "",
          "type": "bytes32"
        },
        {
          "name": "functionName",
          "type": "string"
        },
        {
          "name": "contractAt",
          "type": "address"
        },
        {
          "name": "paramInt",
          "type": "uint8"
        },
        {
          "name": "paramBytes32",
          "type": "uint8"
        },
        {
          "name": "paramAddress",
          "type": "uint8"
        }
      ],
      "payable": false,
      "stateMutability": "nonpayable",
      "type": "function"
    },
    {
      "constant": true,
      "inputs": [
        {
          "name": "_categoryId",
          "type": "uint256"
        },
        {
          "name": "_index",
          "type": "uint256"
        }
      ],
      "name": "getCategoryParamNameAddress",
      "outputs": [
        {
          "name": "",
          "type": "bytes32"
        },
        {
          "name": "functionName",
          "type": "string"
        },
        {
          "name": "contractAt",
          "type": "address"
        },
        {
          "name": "paramInt",
          "type": "uint8"
        },
        {
          "name": "paramBytes32",
          "type": "uint8"
        },
        {
          "name": "paramAddress",
          "type": "uint8"
        }
      ],
      "payable": false,
      "stateMutability": "view",
      "type": "function"
    },
    {
      "constant": true,
      "inputs": [
        {
          "name": "",
          "type": "uint256"
        }
      ],
      "name": "allCategory",
      "outputs": [
        {
          "name": "categoryName",
          "type": "string"
        },
        {
          "name": "functionName",
          "type": "string"
        },
        {
          "name": "contractAt",
          "type": "address"
        },
        {
          "name": "paramInt",
          "type": "uint8"
        },
        {
          "name": "paramBytes32",
          "type": "uint8"
        },
        {
          "name": "paramAddress",
          "type": "uint8"
        }
      ],
      "payable": false,
      "stateMutability": "view",
      "type": "function"
    },
    {
      "constant": true,
      "inputs": [],
      "name": "getCategoriesLength",
      "outputs": [
        {
          "name": "length",
          "type": "uint256"
        }
      ],
      "payable": false,
      "stateMutability": "view",
      "type": "function"
    }
  ],
  "bytecode": "0x6060604052341561000f57600080fd5b6121508061001e6000396000f3006060604052600436106100d0576000357c0100000000000000000000000000000000000000000000000000000000900463ffffffff16806302e929c8146100d557806318b0211b146101155780631d10a9731461014c57806355d68b521461027557806371365629146103585780637cb719ae146103a05780638ef879591461054c5780639deeab20146106af578063b0a4aaee146106ef578063d7fa79ac146108e1578063db0c4f7914610929578063dfa4afc614610955578063dff5f3221461099d578063f6d9615f14610b39575b600080fd5b34156100e057600080fd5b6100ff6004808035906020019091908035906020019091905050610b62565b6040518082815260200191505060405180910390f35b341561012057600080fd5b6101366004808035906020019091905050610ba4565b6040518082815260200191505060405180910390f35b341561015757600080fd5b610273600480803590602001909190803590602001908201803590602001908080601f0160208091040260200160405190810160405280939291908181526020018383808284378201915050505050509190803573ffffffffffffffffffffffffffffffffffffffff1690602001909190803560ff1690602001909190803560ff1690602001909190803560ff169060200190919080359060200190820180359060200190808060200260200160405190810160405280939291908181526020018383602002808284378201915050505050509190803590602001908201803590602001908080602002602001604051908101604052809392919081815260200183836020028082843782019150505050505091905050610bd0565b005b341561028057600080fd5b6103566004808035906020019091908035906020019082018035906020019080806020026020016040519081016040528093929190818152602001838360200280828437820191505050505050919080359060200190820180359060200190808060200260200160405190810160405280939291908181526020018383602002808284378201915050505050509190803590602001908201803590602001908080602002602001604051908101604052809392919081815260200183836020028082843782019150505050505091905050610eb2565b005b341561036357600080fd5b6103826004808035906020019091908035906020019091905050611110565b60405180826000191660001916815260200191505060405180910390f35b34156103ab57600080fd5b61054a600480803590602001909190803590602001908201803590602001908080602002602001604051908101604052809392919081815260200183836020028082843782019150505050505091908035906020019082018035906020019080806020026020016040519081016040528093929190818152602001838360200280828437820191505050505050919080359060200190820180359060200190808060200260200160405190810160405280939291908181526020018383602002808284378201915050505050509190803590602001908201803590602001908080601f0160208091040260200160405190810160405280939291908181526020018383808284378201915050505050509190803590602001908201803590602001908080601f0160208091040260200160405190810160405280939291908181526020018383808284378201915050505050509190803590602001908201803590602001908080601f01602080910402602001604051908101604052809392919081815260200183838082843782019150505050505091905050611153565b005b341561055757600080fd5b6106ad600480803590602001908201803590602001908080601f0160208091040260200160405190810160405280939291908181526020018383808284378201915050505050509190803590602001908201803590602001908080601f0160208091040260200160405190810160405280939291908181526020018383808284378201915050505050509190803573ffffffffffffffffffffffffffffffffffffffff1690602001909190803560ff1690602001909190803560ff1690602001909190803560ff1690602001909190803590602001908201803590602001908080602002602001604051908101604052809392919081815260200183836020028082843782019150505050505091908035906020019082018035906020019080806020026020016040519081016040528093929190818152602001838360200280828437820191505050505050919050506112cd565b005b34156106ba57600080fd5b6106d9600480803590602001909190803590602001909190505061148b565b6040518082815260200191505060405180910390f35b34156106fa57600080fd5b61071060048080359060200190919050506114e4565b6040518080602001806020018973ffffffffffffffffffffffffffffffffffffffff1673ffffffffffffffffffffffffffffffffffffffff1681526020018860ff1660ff1681526020018760ff1660ff1681526020018660ff1660ff168152602001806020018060200185810385528d818151815260200191508051906020019080838360005b838110156107b2578082015181840152602081019050610797565b50505050905090810190601f1680156107df5780820380516001836020036101000a031916815260200191505b5085810384528c818151815260200191508051906020019080838360005b838110156108185780820151818401526020810190506107fd565b50505050905090810190601f1680156108455780820380516001836020036101000a031916815260200191505b50858103835287818151815260200191508051906020019060200280838360005b83811015610881578082015181840152602081019050610866565b50505050905001858103825286818151815260200191508051906020019060200280838360005b838110156108c35780820151818401526020810190506108a8565b505050509050019c5050505050505050505050505060405180910390f35b34156108ec57600080fd5b61090b6004808035906020019091908035906020019091905050611866565b60405180826000191660001916815260200191505060405180910390f35b341561093457600080fd5b61095360048080359060200190919080359060200190919050506118a9565b005b341561096057600080fd5b61097f60048080359060200190919080359060200190919050506119ea565b60405180826000191660001916815260200191505060405180910390f35b34156109a857600080fd5b6109be6004808035906020019091905050611a2d565b6040518080602001806020018773ffffffffffffffffffffffffffffffffffffffff1673ffffffffffffffffffffffffffffffffffffffff1681526020018660ff1660ff1681526020018560ff1660ff1681526020018460ff1660ff168152602001838103835289818154600181600116156101000203166002900481526020019150805460018160011615610100020316600290048015610aa15780601f10610a7657610100808354040283529160200191610aa1565b820191906000526020600020905b815481529060010190602001808311610a8457829003601f168201915b5050838103825288818154600181600116156101000203166002900481526020019150805460018160011615610100020316600290048015610b245780601f10610af957610100808354040283529160200191610b24565b820191906000526020600020905b815481529060010190602001808311610b0757829003601f168201915b50509850505050505050505060405180910390f35b3415610b4457600080fd5b610b4c611abd565b6040518082815260200191505060405180910390f35b60008083815481101515610b7257fe5b906000526020600020906005020160040182815481101515610b9057fe5b906000526020600020900154905092915050565b60008082815481101515610bb457fe5b9060005260206000209060050201600301805490509050919050565b600081518351141515610be257600080fd5b8760008a815481101515610bf257fe5b90600052602060002090600502016001019080519060200190610c16929190611ac9565b508660008a815481101515610c2757fe5b906000526020600020906005020160020160006101000a81548173ffffffffffffffffffffffffffffffffffffffff021916908373ffffffffffffffffffffffffffffffffffffffff1602179055508560008a815481101515610c8657fe5b906000526020600020906005020160020160146101000a81548160ff021916908360ff1602179055508460008a815481101515610cbf57fe5b906000526020600020906005020160020160156101000a81548160ff021916908360ff1602179055508360008a815481101515610cf857fe5b906000526020600020906005020160020160166101000a81548160ff021916908360ff1602179055508251604051805910610d305750595b908082528060200260200182016040525060008a815481101515610d5057fe5b90600052602060002090600502016003019080519060200190610d74929190611b49565b508151604051805910610d845750595b908082528060200260200182016040525060008a815481101515610da457fe5b90600052602060002090600502016004019080519060200190610dc8929190611bf0565b50600090505b8251811015610ea7578281815181101515610de557fe5b9060200190602002015160008a815481101515610dfe57fe5b906000526020600020906005020160030182815481101515610e1c57fe5b90600052602060002090602091828204019190066101000a81548160ff021916908360ff1602179055508181815181101515610e5457fe5b9060200190602002015160008a815481101515610e6d57fe5b906000526020600020906005020160040182815481101515610e8b57fe5b9060005260206000209001819055508080600101915050610dce565b505050505050505050565b60008351604051805910610ec35750595b9080825280602002602001820160405250600186815481101515610ee357fe5b90600052602060002090600202016000019080519060200190610f07929190611c3d565b508251604051805910610f175750595b9080825280602002602001820160405250600286815481101515610f3757fe5b90600052602060002090600202016000019080519060200190610f5b929190611c3d565b508151604051805910610f6b5750595b9080825280602002602001820160405250600386815481101515610f8b57fe5b90600052602060002090600202016000019080519060200190610faf929190611c3d565b50600090505b8351811015611023578381815181101515610fcc57fe5b90602001906020020151600186815481101515610fe557fe5b90600052602060002090600202016000018281548110151561100357fe5b906000526020600020900181600019169055508080600101915050610fb5565b600090505b835181101561109657828181518110151561103f57fe5b9060200190602002015160028681548110151561105857fe5b90600052602060002090600202016000018281548110151561107657fe5b906000526020600020900181600019169055508080600101915050611028565b600090505b83518110156111095781818151811015156110b257fe5b906020019060200201516003868154811015156110cb57fe5b9060005260206000209060020201600001828154811015156110e957fe5b90600052602060002090018160001916905550808060010191505061109b565b5050505050565b600060018381548110151561112157fe5b90600052602060002090600202016000018281548110151561113f57fe5b906000526020600020900154905092915050565b600180548060010182816111679190611c90565b9160005260206000209060020201600060408051908101604052808a815260200187815250909190915060008201518160000190805190602001906111ad929190611cc2565b5060208201518160010190805190602001906111ca929190611d15565b50505050600280548060010182816111e29190611c90565b9160005260206000209060020201600060408051908101604052808981526020018681525090919091506000820151816000019080519060200190611228929190611cc2565b506020820151816001019080519060200190611245929190611d15565b505050506003805480600101828161125d9190611c90565b91600052602060002090600202016000604080519081016040528088815260200185815250909190915060008201518160000190805190602001906112a3929190611cc2565b5060208201518160010190805190602001906112c0929190611d15565b5050505050505050505050565b805182511415156112dd57600080fd5b600080548060010182816112f19190611d95565b91600052602060002090600502016000610100604051908101604052808c81526020018b81526020018a73ffffffffffffffffffffffffffffffffffffffff1681526020018960ff1681526020018860ff1681526020018760ff168152602001868152602001858152509091909150600082015181600001908051906020019061137c929190611d15565b506020820151816001019080519060200190611399929190611d15565b5060408201518160020160006101000a81548173ffffffffffffffffffffffffffffffffffffffff021916908373ffffffffffffffffffffffffffffffffffffffff16021790555060608201518160020160146101000a81548160ff021916908360ff16021790555060808201518160020160156101000a81548160ff021916908360ff16021790555060a08201518160020160166101000a81548160ff021916908360ff16021790555060c0820151816003019080519060200190611460929190611dc7565b5060e082015181600401908051906020019061147d929190611e6e565b505050505050505050505050565b6000808381548110151561149b57fe5b9060005260206000209060050201600301828154811015156114b957fe5b90600052602060002090602091828204019190069054906101000a900460ff1660ff16905092915050565b6114ec611ebb565b6114f4611ebb565b600080600080611502611ecf565b61150a611ee3565b60008981548110151561151957fe5b90600052602060002090600502016000018054600181600116156101000203166002900480601f0160208091040260200160405190810160405280929190818152602001828054600181600116156101000203166002900480156115be5780601f10611593576101008083540402835291602001916115be565b820191906000526020600020905b8154815290600101906020018083116115a157829003601f168201915b505050505097506000898154811015156115d457fe5b90600052602060002090600502016001018054600181600116156101000203166002900480601f0160208091040260200160405190810160405280929190818152602001828054600181600116156101000203166002900480156116795780601f1061164e57610100808354040283529160200191611679565b820191906000526020600020905b81548152906001019060200180831161165c57829003601f168201915b5050505050965060008981548110151561168f57fe5b906000526020600020906005020160020160009054906101000a900473ffffffffffffffffffffffffffffffffffffffff1695506000898154811015156116d257fe5b906000526020600020906005020160020160149054906101000a900460ff16945060008981548110151561170257fe5b906000526020600020906005020160020160159054906101000a900460ff16935060008981548110151561173257fe5b906000526020600020906005020160020160169054906101000a900460ff16925060008981548110151561176257fe5b90600052602060002090600502016003018054806020026020016040519081016040528092919081815260200182805480156117e357602002820191906000526020600020906000905b82829054906101000a900460ff1660ff16815260200190600101906020826000010492830192600103820291508084116117ac5790505b505050505091506000898154811015156117f957fe5b906000526020600020906005020160040180548060200260200160405190810160405280929190818152602001828054801561185457602002820191906000526020600020905b815481526020019060010190808311611840575b50505050509050919395975091939597565b600060028381548110151561187757fe5b90600052602060002090600202016000018281548110151561189557fe5b906000526020600020900154905092915050565b60006118b4826114e4565b909192939495965090919293949550909192935090919250909150905050809150508073ffffffffffffffffffffffffffffffffffffffff166000838154811015156118fc57fe5b906000526020600020906005020160010160405180828054600181600116156101000203166002900480156119685780601f10611946576101008083540402835291820191611968565b820191906000526020600020905b815481529060010190602001808311611954575b505091505060405180910390207c01000000000000000000000000000000000000000000000000000000009004846040518263ffffffff167c01000000000000000000000000000000000000000000000000000000000281526004018082815260200191505060006040518083038160008761646e5a03f19250505050505050565b60006003838154811015156119fb57fe5b906000526020600020906002020160000182815481101515611a1957fe5b906000526020600020900154905092915050565b600081815481101515611a3c57fe5b9060005260206000209060050201600091509050806000019080600101908060020160009054906101000a900473ffffffffffffffffffffffffffffffffffffffff16908060020160149054906101000a900460ff16908060020160159054906101000a900460ff16908060020160169054906101000a900460ff16905086565b60008080549050905090565b828054600181600116156101000203166002900490600052602060002090601f016020900481019282601f10611b0a57805160ff1916838001178555611b38565b82800160010185558215611b38579182015b82811115611b37578251825591602001919060010190611b1c565b5b509050611b459190611ef7565b5090565b82805482825590600052602060002090601f01602090048101928215611bdf5791602002820160005b83821115611bb057835183826101000a81548160ff021916908360ff1602179055509260200192600101602081600001049283019260010302611b72565b8015611bdd5782816101000a81549060ff0219169055600101602081600001049283019260010302611bb0565b505b509050611bec9190611f1c565b5090565b828054828255906000526020600020908101928215611c2c579160200282015b82811115611c2b578251825591602001919060010190611c10565b5b509050611c399190611ef7565b5090565b828054828255906000526020600020908101928215611c7f579160200282015b82811115611c7e578251829060001916905591602001919060010190611c5d565b5b509050611c8c9190611f4c565b5090565b815481835581811511611cbd57600202816002028360005260206000209182019101611cbc9190611f71565b5b505050565b828054828255906000526020600020908101928215611d04579160200282015b82811115611d03578251829060001916905591602001919060010190611ce2565b5b509050611d119190611f4c565b5090565b828054600181600116156101000203166002900490600052602060002090601f016020900481019282601f10611d5657805160ff1916838001178555611d84565b82800160010185558215611d84579182015b82811115611d83578251825591602001919060010190611d68565b5b509050611d919190611ef7565b5090565b815481835581811511611dc257600502816005028360005260206000209182019101611dc19190611fb0565b5b505050565b82805482825590600052602060002090601f01602090048101928215611e5d5791602002820160005b83821115611e2e57835183826101000a81548160ff021916908360ff1602179055509260200192600101602081600001049283019260010302611df0565b8015611e5b5782816101000a81549060ff0219169055600101602081600001049283019260010302611e2e565b505b509050611e6a9190611f1c565b5090565b828054828255906000526020600020908101928215611eaa579160200282015b82811115611ea9578251825591602001919060010190611e8e565b5b509050611eb79190611ef7565b5090565b602060405190810160405280600081525090565b602060405190810160405280600081525090565b602060405190810160405280600081525090565b611f1991905b80821115611f15576000816000905550600101611efd565b5090565b90565b611f4991905b80821115611f4557600081816101000a81549060ff021916905550600101611f22565b5090565b90565b611f6e91905b80821115611f6a576000816000905550600101611f52565b5090565b90565b611fad91905b80821115611fa95760008082016000611f909190612072565b600182016000611fa09190612093565b50600201611f77565b5090565b90565b61206f91905b8082111561206b5760008082016000611fcf9190612093565b600182016000611fdf9190612093565b6002820160006101000a81549073ffffffffffffffffffffffffffffffffffffffff02191690556002820160146101000a81549060ff02191690556002820160156101000a81549060ff02191690556002820160166101000a81549060ff021916905560038201600061205291906120db565b6004820160006120629190612103565b50600501611fb6565b5090565b90565b50805460008255906000526020600020908101906120909190611f4c565b50565b50805460018160011615610100020316600290046000825580601f106120b957506120d8565b601f0160209004906000526020600020908101906120d79190611ef7565b5b50565b50805460008255601f0160209004906000526020600020908101906121009190611ef7565b50565b50805460008255906000526020600020908101906121219190611ef7565b505600a165627a7a7230582026f248b8109e93b5a53d70cdef54af780ca50173e489b49bc18a372bd4be38a10029",
  "source": "/* Copyright (C) 2017 GovBlocks.io\r\n\r\n  This program is free software: you can redistribute it and/or modify\r\n    it under the terms of the GNU General Public License as published by\r\n    the Free Software Foundation, either version 3 of the License, or\r\n    (at your option) any later version.\r\n\r\n  This program is distributed in the hope that it will be useful,\r\n    but WITHOUT ANY WARRANTY; without even the implied warranty of\r\n    MERCHANTABILITY or FITNESS FOR A PARTICULAR PURPOSE.  See the\r\n    GNU General Public License for more details.\r\n\r\n  You should have received a copy of the GNU General Public License\r\n    along with this program.  If not, see http://www.gnu.org/licenses/ */\r\npragma solidity ^0.4.8;\r\ncontract ProposalCategory\r\n{\r\n    struct category{\r\n        string categoryName;\r\n        string functionName;\r\n        address contractAt;\r\n        uint8 paramInt;\r\n        uint8 paramBytes32;\r\n        uint8 paramAddress;\r\n        uint8[] memberRoleSequence;\r\n        uint[] memberRoleMajorityVote;\r\n    }\r\n\r\n    struct categoryParams\r\n    {\r\n        bytes32[] parameterName;\r\n        string parameterDescHash;\r\n    }\r\n\r\n    category[] public allCategory;\r\n\r\n    categoryParams[] uintParam;\r\n    categoryParams[] bytesParam;\r\n    categoryParams[] addressParam;\r\n\r\n    /// @dev Get the integer parameterName when given Category Id and parameterIndex\r\n    function getCategoryParamNameUint(uint _categoryId,uint _index)constant returns(bytes32)\r\n    {\r\n        return uintParam[_categoryId].parameterName[_index];\r\n    }\r\n\r\n    /// @dev Get the Bytes parameterName when given Category Id and parameterIndex\r\n    function getCategoryParamNameBytes(uint _categoryId,uint _index)constant returns(bytes32)\r\n    {\r\n        return bytesParam[_categoryId].parameterName[_index];\r\n    }\r\n\r\n    /// @dev Get the Address parameterName when given Category Id and parameterIndex\r\n    function getCategoryParamNameAddress(uint _categoryId,uint _index)constant returns(bytes32)\r\n    {\r\n        return addressParam[_categoryId].parameterName[_index];\r\n    }\r\n    \r\n    /// @dev Gets the total number of categories.\r\n    function getCategoriesLength() constant returns (uint length)\r\n    {\r\n        length = allCategory.length;\r\n    }\r\n\r\n    /// @dev Gets category details by category id.\r\n    function getCategoryDetails(uint _categoryId) public constant returns (string categoryName,string functionName,address contractAt,uint8 paramInt,uint8 paramBytes32,uint8 paramAddress,uint8[] memberRoleSequence,uint[] memberRoleMajorityVote)\r\n    {    \r\n        categoryName = allCategory[_categoryId].categoryName;\r\n        functionName = allCategory[_categoryId].functionName;\r\n        contractAt = allCategory[_categoryId].contractAt;\r\n        paramInt = allCategory[_categoryId].paramInt;\r\n        paramBytes32 = allCategory[_categoryId].paramBytes32;\r\n        paramAddress = allCategory[_categoryId].paramAddress;\r\n        memberRoleSequence = allCategory[_categoryId].memberRoleSequence;\r\n        memberRoleMajorityVote = allCategory[_categoryId].memberRoleMajorityVote;\r\n    } \r\n    \r\n    /// @dev Get majority vote value for each voting level.\r\n    function getRoleMajorityVote(uint _categoryId,uint _index) constant returns(uint majorityVote)\r\n    {\r\n        return allCategory[_categoryId].memberRoleMajorityVote[_index];\r\n    }\r\n    \r\n    /// @dev Get the length of voting levels against given proposal.\r\n    function getRoleSequencLength(uint _categoryId) constant returns(uint roleLength)\r\n    {\r\n        return allCategory[_categoryId].memberRoleSequence.length;\r\n    }\r\n    /// @dev Get the next Roleid to cast vote against proposal, according to the sequence defined.\r\n    function getRoleSequencAtIndex(uint _categoryId,uint _index) constant returns(uint roleId)\r\n    {\r\n        return allCategory[_categoryId].memberRoleSequence[_index];\r\n    }\r\n    /// @dev Adds a new category and Category Function Parameter names..\r\n    function addNewCategory(string _categoryName,string _functionName,address _contractAt,uint8 _paramInt,uint8 _paramBytes32,uint8 _paramAddress,uint8[] _memberRoleSequence,uint[] _memberRoleMajorityVote) public\r\n    {\r\n        require(_memberRoleSequence.length == _memberRoleMajorityVote.length);\r\n        allCategory.push(category(_categoryName,_functionName,_contractAt,_paramInt,_paramBytes32,_paramAddress,_memberRoleSequence,_memberRoleMajorityVote));\r\n    }\r\n    /// @dev Saving descriptions against various parameters required for category.\r\n    function addCategoryParamsNameAndDesc(uint _categoryId,bytes32[] _uintParamName,bytes32[] _bytesParamName,bytes32[] _addressParamName,string _uintParameterDescHash,string _bytesParameterDescHash,string _addressParameterDescHash)\r\n    {\r\n        uintParam.push(categoryParams(_uintParamName,_uintParameterDescHash));\r\n        bytesParam.push(categoryParams(_bytesParamName,_bytesParameterDescHash));\r\n        addressParam.push(categoryParams(_addressParamName,_addressParameterDescHash));\r\n    }\r\n    /// @dev Change the category parameters name against category.\r\n    function changeCategoryParametersName(uint _categoryId,bytes32[] _uintParamName,bytes32[] _bytesParamName,bytes32[] _addressParamName)\r\n    {   \r\n        uintParam[_categoryId].parameterName=new bytes32[](_uintParamName.length); \r\n        bytesParam[_categoryId].parameterName=new bytes32[](_bytesParamName.length); \r\n        addressParam[_categoryId].parameterName=new bytes32[](_addressParamName.length); \r\n        \r\n        for(uint i=0; i<_uintParamName.length; i++)\r\n        {\r\n            uintParam[_categoryId].parameterName[i]=_uintParamName[i]; \r\n        }\r\n            \r\n        for(i=0; i<_uintParamName.length; i++)\r\n        {\r\n            bytesParam[_categoryId].parameterName[i]=_bytesParamName[i];\r\n        }\r\n        \r\n        for(i=0; i<_uintParamName.length; i++)\r\n        {\r\n            addressParam[_categoryId].parameterName[i]=_addressParamName[i];\r\n        }\r\n    }\r\n\r\n    /// @dev Updates a category details\r\n    function updateCategory(uint _categoryId,string _functionName,address _contractAt,uint8 _paramInt,uint8 _paramBytes32,uint8 _paramAddress,uint8[] _memberRoleSequence,uint[] _memberRoleMajorityVote) public\r\n    {\r\n        require(_memberRoleSequence.length == _memberRoleMajorityVote.length);\r\n        allCategory[_categoryId].functionName = _functionName;\r\n        allCategory[_categoryId].contractAt = _contractAt;\r\n        allCategory[_categoryId].paramInt = _paramInt;\r\n        allCategory[_categoryId].paramBytes32 = _paramBytes32; \r\n        allCategory[_categoryId].paramAddress = _paramAddress;\r\n\r\n        allCategory[_categoryId].memberRoleSequence=new uint8[](_memberRoleSequence.length);\r\n        allCategory[_categoryId].memberRoleMajorityVote=new uint[](_memberRoleMajorityVote.length);\r\n\r\n        for(uint i=0; i<_memberRoleSequence.length; i++)\r\n        {\r\n            allCategory[_categoryId].memberRoleSequence[i] =_memberRoleSequence[i];\r\n            allCategory[_categoryId].memberRoleMajorityVote[i] = _memberRoleMajorityVote[i];\r\n        }\r\n    }\r\n    /// @dev function to be called after proposal pass\r\n    function actionAfterProposalPass(uint _proposalId,uint _categoryId) public\r\n    {\r\n        address contractAt;\r\n        (,,contractAt,,,,,) = getCategoryDetails(_categoryId);\r\n        contractAt.call(bytes4(sha3(allCategory[_categoryId].functionName)),_proposalId);\r\n    }\r\n\r\n}",
  "sourcePath": "D:\\2. GovBlocks Contracts\\GovBlocks Git-Master\\contracts\\ProposalCategory.sol",
  "compiler": {
    "name": "solc",
    "version": "0.4.18+commit.9cf6e910.Emscripten.clang"
  },
  "schemaVersion": "1.0.1",
  "updatedAt": "2017-12-20T10:42:08.178Z"
}