{
  "contractName": "ProposalCategory",
  "abi": [
    {
      "constant": true,
      "inputs": [
        {
          "name": "_categoryId",
          "type": "uint256"
        }
      ],
      "name": "getClosingTimeLength",
      "outputs": [
        {
          "name": "index",
          "type": "uint256"
        },
        {
          "name": "closingTimeLength",
          "type": "uint256"
        }
      ],
      "payable": false,
      "stateMutability": "view",
      "type": "function"
    },
    {
      "constant": true,
      "inputs": [
        {
          "name": "_categoryId",
          "type": "uint256"
        }
      ],
      "name": "getRewardPercProposal",
      "outputs": [
        {
          "name": "",
          "type": "uint256"
        }
      ],
      "payable": false,
      "stateMutability": "view",
      "type": "function"
    },
    {
      "constant": true,
      "inputs": [
        {
          "name": "_categoryId",
          "type": "uint256"
        }
      ],
      "name": "getRoleSequencLength",
      "outputs": [
        {
          "name": "roleLength",
          "type": "uint256"
        }
      ],
      "payable": false,
      "stateMutability": "view",
      "type": "function"
    },
    {
      "constant": false,
      "inputs": [
        {
          "name": "_categoryId",
          "type": "uint256"
        },
        {
          "name": "_roleName",
          "type": "uint8[]"
        }
      ],
      "name": "changeRoleNameById",
      "outputs": [],
      "payable": false,
      "stateMutability": "nonpayable",
      "type": "function"
    },
    {
      "constant": true,
      "inputs": [
        {
          "name": "_categoryId",
          "type": "uint256"
        }
      ],
      "name": "getRewardPercSolution",
      "outputs": [
        {
          "name": "",
          "type": "uint256"
        }
      ],
      "payable": false,
      "stateMutability": "view",
      "type": "function"
    },
    {
      "constant": true,
      "inputs": [
        {
          "name": "_categoryId",
          "type": "uint256"
        },
        {
          "name": "_index",
          "type": "uint256"
        }
      ],
      "name": "getClosingTimeAtIndex",
      "outputs": [
        {
          "name": "closeTime",
          "type": "uint256"
        }
      ],
      "payable": false,
      "stateMutability": "view",
      "type": "function"
    },
    {
      "constant": false,
      "inputs": [
        {
          "name": "_categoryId",
          "type": "uint256"
        },
        {
          "name": "_roleName",
          "type": "uint8[]"
        },
        {
          "name": "_majorityVote",
          "type": "uint256[]"
        },
        {
          "name": "_closingTime",
          "type": "uint24[]"
        },
        {
          "name": "_minStake",
          "type": "uint8"
        },
        {
          "name": "_maxStake",
          "type": "uint8"
        },
        {
          "name": "_defaultIncentive",
          "type": "uint256"
        }
      ],
      "name": "updateCategoryDetails",
      "outputs": [],
      "payable": false,
      "stateMutability": "nonpayable",
      "type": "function"
    },
    {
      "constant": true,
      "inputs": [
        {
          "name": "_categoryId",
          "type": "uint256"
        }
      ],
      "name": "getRoleMajorityVotelength",
      "outputs": [
        {
          "name": "index",
          "type": "uint256"
        },
        {
          "name": "majorityVoteLength",
          "type": "uint256"
        }
      ],
      "payable": false,
      "stateMutability": "view",
      "type": "function"
    },
    {
      "constant": true,
      "inputs": [
        {
          "name": "_categoryId",
          "type": "uint256"
        }
      ],
      "name": "getCloseTimeLength",
      "outputs": [
        {
          "name": "",
          "type": "uint256"
        }
      ],
      "payable": false,
      "stateMutability": "view",
      "type": "function"
    },
    {
      "constant": false,
      "inputs": [
        {
          "name": "_categoryData",
          "type": "string"
        },
        {
          "name": "_memberRoleSequence",
          "type": "uint8[]"
        },
        {
          "name": "_memberRoleMajorityVote",
          "type": "uint256[]"
        },
        {
          "name": "_closingTime",
          "type": "uint256[]"
        },
        {
          "name": "_minStake",
          "type": "uint8"
        },
        {
          "name": "_maxStake",
          "type": "uint8"
        },
        {
          "name": "_defaultIncentive",
          "type": "uint8"
        }
      ],
      "name": "addNewCategory",
      "outputs": [],
      "payable": false,
      "stateMutability": "nonpayable",
      "type": "function"
    },
    {
      "constant": true,
      "inputs": [
        {
          "name": "_categoryId",
          "type": "uint256"
        }
      ],
      "name": "getCategoryData1",
      "outputs": [
        {
          "name": "",
          "type": "string"
        }
      ],
      "payable": false,
      "stateMutability": "view",
      "type": "function"
    },
    {
      "constant": true,
      "inputs": [],
      "name": "constructorCheck",
      "outputs": [
        {
          "name": "",
          "type": "bool"
        }
      ],
      "payable": false,
      "stateMutability": "view",
      "type": "function"
    },
    {
      "constant": true,
      "inputs": [
        {
          "name": "_categoryId",
          "type": "uint256"
        }
      ],
      "name": "getMaxStake",
      "outputs": [
        {
          "name": "",
          "type": "uint8"
        }
      ],
      "payable": false,
      "stateMutability": "view",
      "type": "function"
    },
    {
      "constant": false,
      "inputs": [
        {
          "name": "contractName",
          "type": "bytes4"
        },
        {
          "name": "contractAddress",
          "type": "address"
        }
      ],
      "name": "changeAddress",
      "outputs": [],
      "payable": false,
      "stateMutability": "nonpayable",
      "type": "function"
    },
    {
      "constant": true,
      "inputs": [
        {
          "name": "_proposalId",
          "type": "uint256"
        },
        {
          "name": "_categoryId",
          "type": "uint256"
        },
        {
          "name": "_index",
          "type": "uint256"
        }
      ],
      "name": "getRemainingClosingTime",
      "outputs": [
        {
          "name": "totalTime",
          "type": "uint256"
        }
      ],
      "payable": false,
      "stateMutability": "view",
      "type": "function"
    },
    {
      "constant": false,
      "inputs": [
        {
          "name": "_categoryId",
          "type": "uint256"
        },
        {
          "name": "_majorityVote",
          "type": "uint256[]"
        }
      ],
      "name": "changeMajorityVoteById",
      "outputs": [],
      "payable": false,
      "stateMutability": "nonpayable",
      "type": "function"
    },
    {
      "constant": false,
      "inputs": [
        {
          "name": "_categoryId",
          "type": "uint256"
        },
        {
          "name": "_maxStake",
          "type": "uint8"
        }
      ],
      "name": "changeMaxStakeById",
      "outputs": [],
      "payable": false,
      "stateMutability": "nonpayable",
      "type": "function"
    },
    {
      "constant": true,
      "inputs": [
        {
          "name": "_categoryId",
          "type": "uint256"
        }
      ],
      "name": "getMinStake",
      "outputs": [
        {
          "name": "",
          "type": "uint8"
        }
      ],
      "payable": false,
      "stateMutability": "view",
      "type": "function"
    },
    {
      "constant": false,
      "inputs": [
        {
          "name": "_categoryId",
          "type": "uint256"
        },
        {
          "name": "_categoryData",
          "type": "string"
        }
      ],
      "name": "updateCategory",
      "outputs": [],
      "payable": false,
      "stateMutability": "nonpayable",
      "type": "function"
    },
    {
      "constant": true,
      "inputs": [
        {
          "name": "_categoryId",
          "type": "uint256"
        }
      ],
      "name": "getCatIncentive",
      "outputs": [
        {
          "name": "incentive",
          "type": "uint256"
        }
      ],
      "payable": false,
      "stateMutability": "view",
      "type": "function"
    },
    {
      "constant": false,
      "inputs": [
        {
          "name": "_categoryId",
          "type": "uint256"
        },
        {
          "name": "_minStake",
          "type": "uint8"
        }
      ],
      "name": "changeMinStakeById",
      "outputs": [],
      "payable": false,
      "stateMutability": "nonpayable",
      "type": "function"
    },
    {
      "constant": true,
      "inputs": [
        {
          "name": "_categoryId",
          "type": "uint256"
        },
        {
          "name": "_index",
          "type": "uint256"
        }
      ],
      "name": "getRoleSequencAtIndex",
      "outputs": [
        {
          "name": "roleId",
          "type": "uint32"
        }
      ],
      "payable": false,
      "stateMutability": "view",
      "type": "function"
    },
    {
      "constant": false,
      "inputs": [
        {
          "name": "_categoryId",
          "type": "uint256"
        },
        {
          "name": "_majorityVote",
          "type": "uint256"
        }
      ],
      "name": "setMajorityVote",
      "outputs": [],
      "payable": false,
      "stateMutability": "nonpayable",
      "type": "function"
    },
    {
      "constant": false,
      "inputs": [
        {
          "name": "_GBMAddress",
          "type": "address"
        }
      ],
      "name": "changeGBMAddress",
      "outputs": [],
      "payable": false,
      "stateMutability": "nonpayable",
      "type": "function"
    },
    {
      "constant": true,
      "inputs": [
        {
          "name": "_categoryId",
          "type": "uint256"
        }
      ],
      "name": "getCategoryDetails",
      "outputs": [
        {
          "name": "cateId",
          "type": "uint256"
        },
        {
          "name": "memberRoleSequence",
          "type": "uint8[]"
        },
        {
          "name": "memberRoleMajorityVote",
          "type": "uint256[]"
        },
        {
          "name": "closingTime",
          "type": "uint256[]"
        },
        {
          "name": "minStake",
          "type": "uint256"
        },
        {
          "name": "maxStake",
          "type": "uint256"
        },
        {
          "name": "incentive",
          "type": "uint256"
        }
      ],
      "payable": false,
      "stateMutability": "view",
      "type": "function"
    },
    {
      "constant": false,
      "inputs": [
        {
          "name": "_GBMAddress",
          "type": "address"
        }
      ],
      "name": "ProposalCategoryInitiate",
      "outputs": [],
      "payable": false,
      "stateMutability": "nonpayable",
      "type": "function"
    },
    {
      "constant": true,
      "inputs": [
        {
          "name": "_categoryId",
          "type": "uint256"
        }
      ],
      "name": "getCategoryIncentive",
      "outputs": [
        {
          "name": "category",
          "type": "uint256"
        },
        {
          "name": "incentive",
          "type": "uint256"
        }
      ],
      "payable": false,
      "stateMutability": "view",
      "type": "function"
    },
    {
      "constant": false,
      "inputs": [
        {
          "name": "_categoryId",
          "type": "uint256"
        },
        {
          "name": "_roleSequence",
          "type": "uint8"
        }
      ],
      "name": "setRoleSequence",
      "outputs": [],
      "payable": false,
      "stateMutability": "nonpayable",
      "type": "function"
    },
    {
      "constant": false,
      "inputs": [
        {
          "name": "_categoryId",
          "type": "uint256"
        },
        {
          "name": "_incentive",
          "type": "uint256"
        }
      ],
      "name": "changeIncentiveById",
      "outputs": [],
      "payable": false,
      "stateMutability": "nonpayable",
      "type": "function"
    },
    {
      "constant": false,
      "inputs": [
        {
          "name": "_categoryId",
          "type": "uint256"
        },
        {
          "name": "_value",
          "type": "uint256"
        }
      ],
      "name": "changeRewardPercVote",
      "outputs": [],
      "payable": false,
      "stateMutability": "nonpayable",
      "type": "function"
    },
    {
      "constant": true,
      "inputs": [
        {
          "name": "_categoryId",
          "type": "uint256"
        }
      ],
      "name": "getRewardPercVote",
      "outputs": [
        {
          "name": "",
          "type": "uint256"
        }
      ],
      "payable": false,
      "stateMutability": "view",
      "type": "function"
    },
    {
      "constant": false,
      "inputs": [
        {
          "name": "_categoryId",
          "type": "uint256"
        },
        {
          "name": "_time",
          "type": "uint24"
        }
      ],
      "name": "setClosingTime",
      "outputs": [],
      "payable": false,
      "stateMutability": "nonpayable",
      "type": "function"
    },
    {
      "constant": false,
      "inputs": [
        {
          "name": "_masterContractAddress",
          "type": "address"
        }
      ],
      "name": "changeMasterAddress",
      "outputs": [],
      "payable": false,
      "stateMutability": "nonpayable",
      "type": "function"
    },
    {
      "constant": false,
      "inputs": [
        {
          "name": "_categoryId",
          "type": "uint256"
        },
        {
          "name": "_closingTime",
          "type": "uint24[]"
        }
      ],
      "name": "changeClosingTimeById",
      "outputs": [],
      "payable": false,
      "stateMutability": "nonpayable",
      "type": "function"
    },
    {
      "constant": true,
      "inputs": [
        {
          "name": "",
          "type": "uint256"
        }
      ],
      "name": "allCategory",
      "outputs": [
        {
          "name": "categoryDescHash",
          "type": "string"
        },
        {
          "name": "minStake",
          "type": "uint8"
        },
        {
          "name": "maxStake",
          "type": "uint8"
        },
        {
          "name": "defaultIncentive",
          "type": "uint256"
        },
        {
          "name": "rewardPercProposal",
          "type": "uint256"
        },
        {
          "name": "rewardPercOption",
          "type": "uint256"
        },
        {
          "name": "rewardPercVote",
          "type": "uint256"
        }
      ],
      "payable": false,
      "stateMutability": "view",
      "type": "function"
    },
    {
      "constant": false,
      "inputs": [
        {
          "name": "_categoryId",
          "type": "uint256"
        },
        {
          "name": "_value",
          "type": "uint256"
        }
      ],
      "name": "changeRewardPercProposal",
      "outputs": [],
      "payable": false,
      "stateMutability": "nonpayable",
      "type": "function"
    },
    {
      "constant": true,
      "inputs": [
        {
          "name": "_categoryId",
          "type": "uint256"
        },
        {
          "name": "_index",
          "type": "uint256"
        }
      ],
      "name": "getRoleMajorityVoteAtIndex",
      "outputs": [
        {
          "name": "majorityVote",
          "type": "uint256"
        }
      ],
      "payable": false,
      "stateMutability": "view",
      "type": "function"
    },
    {
      "constant": true,
      "inputs": [
        {
          "name": "_categoryId",
          "type": "uint256"
        }
      ],
      "name": "getCategoryData2",
      "outputs": [
        {
          "name": "category",
          "type": "uint256"
        },
        {
          "name": "roleName",
          "type": "bytes32[]"
        },
        {
          "name": "majorityVote",
          "type": "uint256[]"
        },
        {
          "name": "closingTime",
          "type": "uint256[]"
        }
      ],
      "payable": false,
      "stateMutability": "view",
      "type": "function"
    },
    {
      "constant": true,
      "inputs": [
        {
          "name": "_categoryId",
          "type": "uint256"
        },
        {
          "name": "_currVotingIndex",
          "type": "uint256"
        }
      ],
      "name": "getCategoryData3",
      "outputs": [
        {
          "name": "roleSequence",
          "type": "uint8"
        },
        {
          "name": "majorityVote",
          "type": "uint256"
        },
        {
          "name": "closingTime",
          "type": "uint256"
        }
      ],
      "payable": false,
      "stateMutability": "view",
      "type": "function"
    },
    {
      "constant": true,
      "inputs": [],
      "name": "getCategoryLength",
      "outputs": [
        {
          "name": "",
          "type": "uint256"
        }
      ],
      "payable": false,
      "stateMutability": "view",
      "type": "function"
    },
    {
      "constant": false,
      "inputs": [
        {
          "name": "_categoryId",
          "type": "uint256"
        },
        {
          "name": "_value",
          "type": "uint256"
        }
      ],
      "name": "changeRewardPercOption",
      "outputs": [],
      "payable": false,
      "stateMutability": "nonpayable",
      "type": "function"
    }
  ],
  "bytecode": "0x6060604052341561000f57600080fd5b6130568061001e6000396000f3006060604052600436106101f9576000357c0100000000000000000000000000000000000000000000000000000000900463ffffffff1680630c55ecd8146101fe5780630ffdf9311461023c57806318b0211b1461027357806318c5973b146102aa578063199f48ae1461030d5780631a10a615146103445780631bceb7dd1461038457806325be5de314610488578063300778cb146104c6578063369cbe5f146104fd578063523df7bd1461063e578063525050e1146106da57806354dacca71461070757806367bf5d0c14610744578063683b3557146107a55780636ed1ba42146107ee57806371f415601461085157806373f231e71461088057806378697e5b146108bd5780637a4a20c5146109235780637b63e9c31461095a5780639deeab2014610989578063a85edb05146109d5578063aef816e814610a01578063b0a4aaee14610a3a578063b3f4ccb114610b5e578063c285c09214610b97578063c5f6264b14610bd5578063c96a3f3614610c04578063cc5687c714610c30578063ce5f9a3814610c5c578063d43e76e314610c93578063d46655f414610cc4578063df38f60714610cfd578063dff5f32214610d60578063e645423414610e4f578063ea5e0a0514610e7b578063ed6bda6c14610ebb578063f28395d614610fca578063f2d6f9f81461101e578063f861b54f14611047575b600080fd5b341561020957600080fd5b61021f6004808035906020019091905050611073565b604051808381526020018281526020019250505060405180910390f35b341561024757600080fd5b61025d60048080359060200190919050506110a4565b6040518082815260200191505060405180910390f35b341561027e57600080fd5b61029460048080359060200190919050506110ce565b6040518082815260200191505060405180910390f35b34156102b557600080fd5b61030b6004808035906020019091908035906020019082018035906020019080806020026020016040519081016040528093929190818152602001838360200280828437820191505050505050919050506110fb565b005b341561031857600080fd5b61032e60048080359060200190919050506111e0565b6040518082815260200191505060405180910390f35b341561034f57600080fd5b61036e600480803590602001909190803590602001909190505061120a565b6040518082815260200191505060405180910390f35b341561038f57600080fd5b610486600480803590602001909190803590602001908201803590602001908080602002602001604051908101604052809392919081815260200183836020028082843782019150505050505091908035906020019082018035906020019080806020026020016040519081016040528093929190818152602001838360200280828437820191505050505050919080359060200190820180359060200190808060200260200160405190810160405280939291908181526020018383602002808284378201915050505050509190803560ff1690602001909190803560ff1690602001909190803590602001909190505061124d565b005b341561049357600080fd5b6104a96004808035906020019091905050611540565b604051808381526020018281526020019250505060405180910390f35b34156104d157600080fd5b6104e76004808035906020019091905050611571565b6040518082815260200191505060405180910390f35b341561050857600080fd5b61063c600480803590602001908201803590602001908080601f0160208091040260200160405190810160405280939291908181526020018383808284378201915050505050509190803590602001908201803590602001908080602002602001604051908101604052809392919081815260200183836020028082843782019150505050505091908035906020019082018035906020019080806020026020016040519081016040528093929190818152602001838360200280828437820191505050505050919080359060200190820180359060200190808060200260200160405190810160405280939291908181526020018383602002808284378201915050505050509190803560ff1690602001909190803560ff1690602001909190803560ff1690602001909190505061159e565b005b341561064957600080fd5b61065f600480803590602001909190505061177f565b6040518080602001828103825283818151815260200191508051906020019080838360005b8381101561069f578082015181840152602081019050610684565b50505050905090810190601f1680156106cc5780820380516001836020036101000a031916815260200191505b509250505060405180910390f35b34156106e557600080fd5b6106ed611847565b604051808215151515815260200191505060405180910390f35b341561071257600080fd5b6107286004808035906020019091905050611859565b604051808260ff1660ff16815260200191505060405180910390f35b341561074f57600080fd5b6107a360048080357bffffffffffffffffffffffffffffffffffffffffffffffffffffffff191690602001909190803573ffffffffffffffffffffffffffffffffffffffff16906020019091905050611890565b005b34156107b057600080fd5b6107d860048080359060200190919080359060200190919080359060200190919050506119ab565b6040518082815260200191505060405180910390f35b34156107f957600080fd5b61084f600480803590602001909190803590602001908201803590602001908080602002602001604051908101604052809392919081815260200183836020028082843782019150505050505091905050611b4f565b005b341561085c57600080fd5b61087e600480803590602001909190803560ff16906020019091905050611c19565b005b341561088b57600080fd5b6108a16004808035906020019091905050611c56565b604051808260ff1660ff16815260200191505060405180910390f35b34156108c857600080fd5b610921600480803590602001909190803590602001908201803590602001908080601f01602080910402602001604051908101604052809392919081815260200183838082843782019150505050505091905050611c8d565b005b341561092e57600080fd5b6109446004808035906020019091905050611d22565b6040518082815260200191505060405180910390f35b341561096557600080fd5b610987600480803590602001909190803560ff16906020019091905050611d4c565b005b341561099457600080fd5b6109b36004808035906020019091908035906020019091905050611d89565b604051808263ffffffff1663ffffffff16815260200191505060405180910390f35b34156109e057600080fd5b6109ff6004808035906020019091908035906020019091905050611de3565b005b3415610a0c57600080fd5b610a38600480803573ffffffffffffffffffffffffffffffffffffffff16906020019091905050611e2e565b005b3415610a4557600080fd5b610a5b6004808035906020019091905050611ece565b6040518088815260200180602001806020018060200187815260200186815260200185815260200184810384528a818151815260200191508051906020019060200280838360005b83811015610abe578082015181840152602081019050610aa3565b50505050905001848103835289818151815260200191508051906020019060200280838360005b83811015610b00578082015181840152602081019050610ae5565b50505050905001848103825288818151815260200191508051906020019060200280838360005b83811015610b42578082015181840152602081019050610b27565b505050509050019a505050505050505050505060405180910390f35b3415610b6957600080fd5b610b95600480803573ffffffffffffffffffffffffffffffffffffffff169060200190919050506120fd565b005b3415610ba257600080fd5b610bb8600480803590602001909190505061217c565b604051808381526020018281526020019250505060405180910390f35b3415610be057600080fd5b610c02600480803590602001909190803560ff169060200190919050506121aa565b005b3415610c0f57600080fd5b610c2e6004808035906020019091908035906020019091905050612210565b005b3415610c3b57600080fd5b610c5a6004808035906020019091908035906020019091905050612239565b005b3415610c6757600080fd5b610c7d6004808035906020019091905050612262565b6040518082815260200191505060405180910390f35b3415610c9e57600080fd5b610cc2600480803590602001909190803562ffffff1690602001909190505061228c565b005b3415610ccf57600080fd5b610cfb600480803573ffffffffffffffffffffffffffffffffffffffff169060200190919050506122dc565b005b3415610d0857600080fd5b610d5e6004808035906020019091908035906020019082018035906020019080806020026020016040519081016040528093929190818152602001838360200280828437820191505050505050919050506124fd565b005b3415610d6b57600080fd5b610d8160048080359060200190919050506125cc565b60405180806020018860ff1660ff1681526020018760ff1660ff168152602001868152602001858152602001848152602001838152602001828103825289818154600181600116156101000203166002900481526020019150805460018160011615610100020316600290048015610e3a5780601f10610e0f57610100808354040283529160200191610e3a565b820191906000526020600020905b815481529060010190602001808311610e1d57829003601f168201915b50509850505050505050505060405180910390f35b3415610e5a57600080fd5b610e796004808035906020019091908035906020019091905050612636565b005b3415610e8657600080fd5b610ea5600480803590602001909190803590602001909190505061265f565b6040518082815260200191505060405180910390f35b3415610ec657600080fd5b610edc60048080359060200190919050506126a2565b60405180858152602001806020018060200180602001848103845287818151815260200191508051906020019060200280838360005b83811015610f2d578082015181840152602081019050610f12565b50505050905001848103835286818151815260200191508051906020019060200280838360005b83811015610f6f578082015181840152602081019050610f54565b50505050905001848103825285818151815260200191508051906020019060200280838360005b83811015610fb1578082015181840152602081019050610f96565b5050505090500197505050505050505060405180910390f35b3415610fd557600080fd5b610ff46004808035906020019091908035906020019091905050612972565b604051808460ff1660ff168152602001838152602001828152602001935050505060405180910390f35b341561102957600080fd5b611031612a43565b6040518082815260200191505060405180910390f35b341561105257600080fd5b6110716004808035906020019091908035906020019091905050612a50565b005b60008082915060018381548110151561108857fe5b9060005260206000209060090201600301805490509050915091565b60006001828154811015156110b557fe5b9060005260206000209060090201600601549050919050565b60006001828154811015156110df57fe5b9060005260206000209060090201600101805490509050919050565b6000815160405180591061110c5750595b908082528060200260200182016040525060018481548110151561112c57fe5b90600052602060002090600902016001019080519060200190611150929190612a79565b50600090505b81518110156111db57818181518110151561116d57fe5b9060200190602002015160018481548110151561118657fe5b9060005260206000209060090201600101828154811015156111a457fe5b90600052602060002090602091828204019190066101000a81548160ff021916908360ff1602179055508080600101915050611156565b505050565b60006001828154811015156111f157fe5b9060005260206000209060090201600701549050919050565b600060018381548110151561121b57fe5b90600052602060002090600902016003018281548110151561123957fe5b906000526020600020900154905092915050565b600085518751148015611261575084518751145b151561126c57600080fd5b8360018981548110151561127c57fe5b906000526020600020906009020160040160006101000a81548160ff021916908360ff160217905550826001898154811015156112b557fe5b906000526020600020906009020160040160016101000a81548160ff021916908360ff160217905550816001898154811015156112ee57fe5b90600052602060002090600902016005018190555086516040518059106113125750595b908082528060200260200182016040525060018981548110151561133257fe5b90600052602060002090600902016001019080519060200190611356929190612a79565b5085516040518059106113665750595b908082528060200260200182016040525060018981548110151561138657fe5b906000526020600020906009020160020190805190602001906113aa929190612b20565b5084516040518059106113ba5750595b90808252806020026020018201604052506001898154811015156113da57fe5b906000526020600020906009020160030190805190602001906113fe929190612b6d565b50600090505b865181101561153657868181518110151561141b57fe5b9060200190602002015160018981548110151561143457fe5b90600052602060002090600902016001018281548110151561145257fe5b90600052602060002090602091828204019190066101000a81548160ff021916908360ff160217905550858181518110151561148a57fe5b906020019060200201516001898154811015156114a357fe5b9060005260206000209060090201600201828154811015156114c157fe5b90600052602060002090018190555084818151811015156114de57fe5b9060200190602002015162ffffff166001898154811015156114fc57fe5b90600052602060002090600902016003018281548110151561151a57fe5b9060005260206000209001819055508080600101915050611404565b5050505050505050565b60008082915060018381548110151561155557fe5b9060005260206000209060090201600201805490509050915091565b600060018281548110151561158257fe5b9060005260206000209060090201600301805490509050919050565b600660009054906101000a900473ffffffffffffffffffffffffffffffffffffffff1673ffffffffffffffffffffffffffffffffffffffff163373ffffffffffffffffffffffffffffffffffffffff161415156115fa57600080fd5b8451865114801561160c575083518651145b151561161757600080fd5b6001805480600101828161162b9190612bc1565b91600052602060002090600902016000610140604051908101604052808b81526020018a81526020018981526020018881526020018760ff1681526020018660ff1681526020018560ff16815260200160008152602001600081526020016000815250909190915060008201518160000190805190602001906116af929190612bf3565b5060208201518160010190805190602001906116cc929190612c73565b5060408201518160020190805190602001906116e9929190612d1a565b506060820151816003019080519060200190611706929190612d1a565b5060808201518160040160006101000a81548160ff021916908360ff16021790555060a08201518160040160016101000a81548160ff021916908360ff16021790555060c0820151816005015560e082015181600601556101008201518160070155610120820151816008015550505050505050505050565b611787612d67565b60018281548110151561179657fe5b90600052602060002090600902016000018054600181600116156101000203166002900480601f01602080910402602001604051908101604052809291908181526020018280546001816001161561010002031660029004801561183b5780601f106118105761010080835404028352916020019161183b565b820191906000526020600020905b81548152906001019060200180831161181e57829003601f168201915b50505050509050919050565b6000809054906101000a900460ff1681565b600060018281548110151561186a57fe5b906000526020600020906009020160040160019054906101000a900460ff169050919050565b7f4d52000000000000000000000000000000000000000000000000000000000000827bffffffffffffffffffffffffffffffffffffffffffffffffffffffff1916141561191d5780600360006101000a81548173ffffffffffffffffffffffffffffffffffffffff021916908373ffffffffffffffffffffffffffffffffffffffff1602179055506119a7565b7f4744000000000000000000000000000000000000000000000000000000000000827bffffffffffffffffffffffffffffffffffffffffffffffffffffffff191614156119a65780600460006101000a81548173ffffffffffffffffffffffffffffffffffffffff021916908373ffffffffffffffffffffffffffffffffffffffff1602179055505b5b5050565b60008060008090505b6119bd85611571565b8110156119df576119ce858561120a565b8201915080806001019150506119b4565b42600460009054906101000a900473ffffffffffffffffffffffffffffffffffffffff1673ffffffffffffffffffffffffffffffffffffffff1663e3726e80886000604051602001526040518263ffffffff167c010000000000000000000000000000000000000000000000000000000002815260040180828152602001915050602060405180830381600087803b1515611a7957600080fd5b6102c65a03f11515611a8a57600080fd5b50505060405180519050600460009054906101000a900473ffffffffffffffffffffffffffffffffffffffff1673ffffffffffffffffffffffffffffffffffffffff166339bb96076000604051602001526040518163ffffffff167c0100000000000000000000000000000000000000000000000000000000028152600401602060405180830381600087803b1515611b2257600080fd5b6102c65a03f11515611b3357600080fd5b5050506040518051905084010103925082925050509392505050565b60008151604051805910611b605750595b9080825280602002602001820160405250600184815481101515611b8057fe5b90600052602060002090600902016002019080519060200190611ba4929190612b20565b50600090505b8151811015611c14578181815181101515611bc157fe5b90602001906020020151600184815481101515611bda57fe5b906000526020600020906009020160020182815481101515611bf857fe5b9060005260206000209001819055508080600101915050611baa565b505050565b80600183815481101515611c2957fe5b906000526020600020906009020160040160016101000a81548160ff021916908360ff1602179055505050565b6000600182815481101515611c6757fe5b906000526020600020906009020160040160009054906101000a900460ff169050919050565b600660009054906101000a900473ffffffffffffffffffffffffffffffffffffffff1673ffffffffffffffffffffffffffffffffffffffff163373ffffffffffffffffffffffffffffffffffffffff16141515611ce957600080fd5b80600183815481101515611cf957fe5b90600052602060002090600902016000019080519060200190611d1d929190612d7b565b505050565b6000600182815481101515611d3357fe5b9060005260206000209060090201600501549050919050565b80600183815481101515611d5c57fe5b906000526020600020906009020160040160006101000a81548160ff021916908360ff1602179055505050565b6000600183815481101515611d9a57fe5b906000526020600020906009020160010182815481101515611db857fe5b90600052602060002090602091828204019190069054906101000a900460ff1660ff16905092915050565b600182815481101515611df257fe5b90600052602060002090600902016002018054806001018281611e159190612dfb565b9160005260206000209001600083909190915055505050565b600660009054906101000a900473ffffffffffffffffffffffffffffffffffffffff1673ffffffffffffffffffffffffffffffffffffffff163373ffffffffffffffffffffffffffffffffffffffff16141515611e8a57600080fd5b80600660006101000a81548173ffffffffffffffffffffffffffffffffffffffff021916908373ffffffffffffffffffffffffffffffffffffffff16021790555050565b6000611ed8612e27565b611ee0612e3b565b611ee8612e3b565b6000806000879650600188815481101515611eff57fe5b9060005260206000209060090201600101805480602002602001604051908101604052809291908181526020018280548015611f8057602002820191906000526020600020906000905b82829054906101000a900460ff1660ff1681526020019060010190602082600001049283019260010382029150808411611f495790505b50505050509550600188815481101515611f9657fe5b9060005260206000209060090201600201805480602002602001604051908101604052809291908181526020018280548015611ff157602002820191906000526020600020905b815481526020019060010190808311611fdd575b5050505050945060018881548110151561200757fe5b906000526020600020906009020160030180548060200260200160405190810160405280929190818152602001828054801561206257602002820191906000526020600020905b81548152602001906001019080831161204e575b5050505050935060018881548110151561207857fe5b906000526020600020906009020160040160009054906101000a900460ff1660ff1692506001888154811015156120ab57fe5b906000526020600020906009020160040160019054906101000a900460ff1660ff1691506001888154811015156120de57fe5b9060005260206000209060090201600501549050919395979092949650565b600015156000809054906101000a900460ff16151514151561211e57600080fd5b80600660006101000a81548173ffffffffffffffffffffffffffffffffffffffff021916908373ffffffffffffffffffffffffffffffffffffffff16021790555060016000806101000a81548160ff02191690831515021790555050565b60008082915060018381548110151561219157fe5b9060005260206000209060090201600501549050915091565b6001828154811015156121b957fe5b906000526020600020906009020160010180548060010182816121dc9190612e4f565b916000526020600020906020918282040191900683909190916101000a81548160ff021916908360ff160217905550505050565b8060018381548110151561222057fe5b9060005260206000209060090201600501819055505050565b8060018381548110151561224957fe5b9060005260206000209060090201600801819055505050565b600060018281548110151561227357fe5b9060005260206000209060090201600801549050919050565b60018281548110151561229b57fe5b906000526020600020906009020160030180548060010182816122be9190612dfb565b916000526020600020900160008362ffffff16909190915055505050565b6000600560009054906101000a900473ffffffffffffffffffffffffffffffffffffffff1673ffffffffffffffffffffffffffffffffffffffff1614156123635780600560006101000a81548173ffffffffffffffffffffffffffffffffffffffff021916908373ffffffffffffffffffffffffffffffffffffffff1602179055506124fa565b600560009054906101000a900473ffffffffffffffffffffffffffffffffffffffff16600260006101000a81548173ffffffffffffffffffffffffffffffffffffffff021916908373ffffffffffffffffffffffffffffffffffffffff16021790555060011515600260009054906101000a900473ffffffffffffffffffffffffffffffffffffffff1673ffffffffffffffffffffffffffffffffffffffff16638f16c41c336000604051602001526040518263ffffffff167c0100000000000000000000000000000000000000000000000000000000028152600401808273ffffffffffffffffffffffffffffffffffffffff1673ffffffffffffffffffffffffffffffffffffffff168152602001915050602060405180830381600087803b151561248f57600080fd5b6102c65a03f115156124a057600080fd5b5050506040518051905015151415156124b857600080fd5b80600560006101000a81548173ffffffffffffffffffffffffffffffffffffffff021916908373ffffffffffffffffffffffffffffffffffffffff1602179055505b50565b6000815160405180591061250e5750595b908082528060200260200182016040525060018481548110151561252e57fe5b90600052602060002090600902016003019080519060200190612552929190612b6d565b50600090505b81518110156125c757818181518110151561256f57fe5b9060200190602002015162ffffff1660018481548110151561258d57fe5b9060005260206000209060090201600301828154811015156125ab57fe5b9060005260206000209001819055508080600101915050612558565b505050565b6001818154811015156125db57fe5b906000526020600020906009020160009150905080600001908060040160009054906101000a900460ff16908060040160019054906101000a900460ff16908060050154908060060154908060070154908060080154905087565b8060018381548110151561264657fe5b9060005260206000209060090201600601819055505050565b600060018381548110151561267057fe5b90600052602060002090600902016002018281548110151561268e57fe5b906000526020600020900154905092915050565b60006126ac612e89565b6126b4612e3b565b6126bc612e3b565b6000808695506001878154811015156126d157fe5b9060005260206000209060090201600101805490506040518059106126f35750595b90808252806020026020018201604052509450600091505b60018781548110151561271a57fe5b9060005260206000209060090201600101805490508260ff16101561288757600360009054906101000a900473ffffffffffffffffffffffffffffffffffffffff1673ffffffffffffffffffffffffffffffffffffffff1663b7d888e560018981548110151561278657fe5b90600052602060002090600902016001018460ff168154811015156127a757fe5b90600052602060002090602091828204019190069054906101000a900460ff166000604051604001526040518263ffffffff167c0100000000000000000000000000000000000000000000000000000000028152600401808260ff1663ffffffff1681526020019150506040805180830381600087803b151561282957600080fd5b6102c65a03f1151561283a57600080fd5b5050506040518051906020018051905090508091505080858360ff1681518110151561286257fe5b906020019060200201906000191690816000191681525050818060010192505061270b565b60018781548110151561289657fe5b90600052602060002090600902016002018054806020026020016040519081016040528092919081815260200182805480156128f157602002820191906000526020600020905b8154815260200190600101908083116128dd575b5050505050935060018781548110151561290757fe5b906000526020600020906009020160030180548060200260200160405190810160405280929190818152602001828054801561296257602002820191906000526020600020905b81548152602001906001019080831161294e575b5050505050925050509193509193565b600080600060018581548110151561298657fe5b9060005260206000209060090201600101848154811015156129a457fe5b90600052602060002090602091828204019190069054906101000a900460ff166001868154811015156129d357fe5b9060005260206000209060090201600201858154811015156129f157fe5b906000526020600020900154600187815481101515612a0c57fe5b906000526020600020906009020160030186815481101515612a2a57fe5b9060005260206000209001549250925092509250925092565b6000600180549050905090565b80600183815481101515612a6057fe5b9060005260206000209060090201600701819055505050565b82805482825590600052602060002090601f01602090048101928215612b0f5791602002820160005b83821115612ae057835183826101000a81548160ff021916908360ff1602179055509260200192600101602081600001049283019260010302612aa2565b8015612b0d5782816101000a81549060ff0219169055600101602081600001049283019260010302612ae0565b505b509050612b1c9190612e9d565b5090565b828054828255906000526020600020908101928215612b5c579160200282015b82811115612b5b578251825591602001919060010190612b40565b5b509050612b699190612ecd565b5090565b828054828255906000526020600020908101928215612bb0579160200282015b82811115612baf578251829062ffffff16905591602001919060010190612b8d565b5b509050612bbd9190612ecd565b5090565b815481835581811511612bee57600902816009028360005260206000209182019101612bed9190612ef2565b5b505050565b828054600181600116156101000203166002900490600052602060002090601f016020900481019282601f10612c3457805160ff1916838001178555612c62565b82800160010185558215612c62579182015b82811115612c61578251825591602001919060010190612c46565b5b509050612c6f9190612ecd565b5090565b82805482825590600052602060002090601f01602090048101928215612d095791602002820160005b83821115612cda57835183826101000a81548160ff021916908360ff1602179055509260200192600101602081600001049283019260010302612c9c565b8015612d075782816101000a81549060ff0219169055600101602081600001049283019260010302612cda565b505b509050612d169190612e9d565b5090565b828054828255906000526020600020908101928215612d56579160200282015b82811115612d55578251825591602001919060010190612d3a565b5b509050612d639190612ecd565b5090565b602060405190810160405280600081525090565b828054600181600116156101000203166002900490600052602060002090601f016020900481019282601f10612dbc57805160ff1916838001178555612dea565b82800160010185558215612dea579182015b82811115612de9578251825591602001919060010190612dce565b5b509050612df79190612ecd565b5090565b815481835581811511612e2257818360005260206000209182019101612e219190612ecd565b5b505050565b602060405190810160405280600081525090565b602060405190810160405280600081525090565b815481835581811511612e8457601f016020900481601f01602090048360005260206000209182019101612e839190612ecd565b5b505050565b602060405190810160405280600081525090565b612eca91905b80821115612ec657600081816101000a81549060ff021916905550600101612ea3565b5090565b90565b612eef91905b80821115612eeb576000816000905550600101612ed3565b5090565b90565b612f9691905b80821115612f925760008082016000612f119190612f99565b600182016000612f219190612fe1565b600282016000612f319190613009565b600382016000612f419190613009565b6004820160006101000a81549060ff02191690556004820160016101000a81549060ff0219169055600582016000905560068201600090556007820160009055600882016000905550600901612ef8565b5090565b90565b50805460018160011615610100020316600290046000825580601f10612fbf5750612fde565b601f016020900490600052602060002090810190612fdd9190612ecd565b5b50565b50805460008255601f0160209004906000526020600020908101906130069190612ecd565b50565b50805460008255906000526020600020908101906130279190612ecd565b505600a165627a7a72305820e3cb5df8a12ed18ad015b45536bd1614d3683824df2232aed212a9be384ccd700029",
  "source": "/* Copyright (C) 2017 GovBlocks.io\r\n\r\n  This program is free software: you can redistribute it and/or modify\r\n    it under the terms of the GNU General Public License as published by\r\n    the Free Software Foundation, either version 3 of the License, or\r\n    (at your option) any later version.\r\n\r\n  This program is distributed in the hope that it will be useful,\r\n    but WITHOUT ANY WARRANTY; without even the implied warranty of\r\n    MERCHANTABILITY or FITNESS FOR A PARTICULAR PURPOSE.  See the\r\n    GNU General Public License for more details.\r\n\r\n  You should have received a copy of the GNU General Public License\r\n    along with this program.  If not, see http://www.gnu.org/licenses/ */\r\npragma solidity ^0.4.8;\r\nimport \"./Master.sol\";\r\nimport \"./governanceData.sol\";\r\nimport \"./memberRoles.sol\";\r\n\r\ncontract ProposalCategory\r\n{\r\n    bool public constructorCheck;\r\n    struct category\r\n    {\r\n        string categoryDescHash;\r\n        uint8[] memberRoleSequence;\r\n        uint[] memberRoleMajorityVote;\r\n        uint[] closingTime;\r\n        uint8 minStake;\r\n        uint8 maxStake;\r\n        uint defaultIncentive;\r\n        uint rewardPercProposal;\r\n        uint rewardPercOption;\r\n        uint rewardPercVote;\r\n    }\r\n\r\n    category[] public allCategory;\r\n    Master MS;  \r\n    memberRoles MR;\r\n    governanceData GD;\r\n    address masterAddress;\r\n    address GBMAddress;\r\n\r\n    modifier onlyInternal {\r\n        MS=Master(masterAddress);\r\n        require(MS.isInternal(msg.sender) == true);\r\n        _; \r\n    }\r\n    \r\n     modifier onlyOwner {\r\n        MS=Master(masterAddress);\r\n        require(MS.isOwner(msg.sender) == true);\r\n        _; \r\n    }\r\n    \r\n    modifier onlyGBM\r\n    {\r\n        require(msg.sender == GBMAddress);\r\n        _;\r\n    }\r\n\r\n    modifier onlyMaster {\r\n        require(msg.sender == masterAddress);\r\n        _; \r\n    }\r\n\r\n    /// @dev Changes GovBlocks master address\r\n    /// @param _GBMAddress New GovBlocks master address\r\n    function changeGBMAddress(address _GBMAddress) onlyGBM\r\n    {\r\n        GBMAddress = _GBMAddress;\r\n    }\r\n    \r\n    /// @dev Changes master's contract address\r\n    /// @param _masterContractAddress New master contract address\r\n    function changeMasterAddress(address _masterContractAddress) \r\n    {\r\n        if(masterAddress == 0x000)\r\n            masterAddress = _masterContractAddress;\r\n        else\r\n        {\r\n            MS=Master(masterAddress);\r\n            require(MS.isInternal(msg.sender) == true);\r\n                masterAddress = _masterContractAddress;\r\n        }\r\n    }\r\n\r\n    // /// @dev Changes all contracts' addresses\r\n   // /// @param _MRAddress New member roles contract address\r\n    // function changeAllContractsAddress(address _MRAddress) onlyInternal\r\n    // {\r\n    //     MRAddress= _MRAddress;\r\n    // }\r\n\r\n    function changeAddress(bytes4 contractName, address contractAddress){\r\n        if(contractName == 'MR'){\r\n            MR = memberRoles(contractAddress);\r\n        }\r\n        else if(contractName == 'GD'){\r\n            GD = governanceData(contractAddress);\r\n        }\r\n    }\r\n\r\n    /// @dev Initiates proposal category\r\n    /// @param _GBMAddress New GovBlocks master address\r\n    function ProposalCategoryInitiate(address _GBMAddress)\r\n    {\r\n        require(constructorCheck == false);\r\n        GBMAddress = _GBMAddress;\r\n        // addNewCategory(\"QmcEP2ELejTFsaLCeiukMNS9HSg6mxitFubHEuuLDSLbYt\");\r\n        // addNewCategory(\"QmeX5jkkSFPrsehqsit7zMWmTXB6pTeSHscE3HRiA1R9t5\");\r\n        // addNewCategory(\"Qmb2RQ4t6b7BEevbMqF4jjjZxEbp5bspHAX8ZdL8s7t8N8\");\r\n        // addNewCategory(\"QmeYFNJvVH6nkk2fFjnzgxQm9szxV3ocpFnKE2wBWaVhDN\");\r\n        // addNewCategory(\"QmcAiWumEJaF6jLg14eaLU9WgdKLSy8bzPLNHMCSUZxU9a\");\r\n        // addNewCategory(\"QmWTbFV1TW3Pw79tCwuJUwNyXKZVkxzkW1xW4sL9CYzUmA\");\r\n        // addNewCategory(\"QmWjCR7sMyxHa3MwExSYkEZNdiugUvqukz2wkiVqFvEVu8\");\r\n        constructorCheck = true;\r\n    }\r\n\r\n    /// @dev Adds new category\r\n    /// @param _categoryData Category data\r\n    /// @param _memberRoleSequence Member role sequence\r\n    /// @param _memberRoleMajorityVote Majority of votes of a particular member role\r\n    /// @param _closingTime Closing time of category\r\n    /// @param _minStake Minimum stake\r\n    /// @param _maxStake Maximum stake\r\n    /// @param _defaultIncentive Default incentive\r\n    function addNewCategory(string _categoryData,uint8[] _memberRoleSequence,uint[] _memberRoleMajorityVote,uint[] _closingTime,uint8 _minStake,uint8 _maxStake,uint8 _defaultIncentive) \r\n    {\r\n        require(msg.sender == GBMAddress);\r\n        require(_memberRoleSequence.length == _memberRoleMajorityVote.length && _memberRoleSequence.length == _closingTime.length);\r\n        allCategory.push(category(_categoryData,_memberRoleSequence,_memberRoleMajorityVote,_closingTime,_minStake,_maxStake,_defaultIncentive,0,0,0));    \r\n    }\r\n\r\n    /// @dev Updates category\r\n    /// @param _categoryId Category id\r\n    /// @param _categoryData Category data\r\n    function updateCategory(uint _categoryId,string _categoryData) \r\n    {\r\n        require(msg.sender == GBMAddress);\r\n            allCategory[_categoryId].categoryDescHash = _categoryData;\r\n    }\r\n\r\n    /// @dev Sets closing time for the category\r\n    /// @param _categoryId Category id\r\n    /// @param _time Closing time\r\n    function setClosingTime(uint _categoryId,uint24 _time)\r\n    {\r\n        allCategory[_categoryId].closingTime.push(_time);\r\n    }\r\n\r\n    /// @dev Sets role sequence for categoryId=_categoryId and role sequence=_roleSequence\r\n    function setRoleSequence(uint _categoryId,uint8 _roleSequence)\r\n    {\r\n        allCategory[_categoryId].memberRoleSequence.push(_roleSequence);\r\n    }\r\n\r\n    /// @dev Sets majority vote for category id=_categoryId and majority value=_majorityVote\r\n    function setMajorityVote(uint _categoryId,uint _majorityVote)\r\n    {\r\n        allCategory[_categoryId].memberRoleMajorityVote.push(_majorityVote);\r\n    }\r\n\r\n    /// @dev Updates category details\r\n    /// @param _categoryId Category id\r\n    /// @param _roleName Role name\r\n    /// @param _majorityVote Majority of votes\r\n    /// @param _closingTime Closing time\r\n    /// @param _minStake Minimum stake\r\n    /// @param _maxStake Maximum stake\r\n    /// @param _defaultIncentive Default incentive\r\n    function updateCategoryDetails(uint _categoryId,uint8[] _roleName,uint[] _majorityVote,uint24[] _closingTime,uint8 _minStake,uint8 _maxStake, uint _defaultIncentive)\r\n    {\r\n        require(_roleName.length == _majorityVote.length && _roleName.length == _closingTime.length);\r\n        allCategory[_categoryId].minStake = _minStake;\r\n        allCategory[_categoryId].maxStake = _maxStake;\r\n        allCategory[_categoryId].defaultIncentive = _defaultIncentive;\r\n\r\n        allCategory[_categoryId].memberRoleSequence=new uint8[](_roleName.length);\r\n        allCategory[_categoryId].memberRoleMajorityVote=new uint[](_majorityVote.length);\r\n        allCategory[_categoryId].closingTime = new uint24[](_closingTime.length);\r\n\r\n        for(uint i=0; i<_roleName.length; i++)\r\n        {\r\n            allCategory[_categoryId].memberRoleSequence[i] =_roleName[i];\r\n            allCategory[_categoryId].memberRoleMajorityVote[i] = _majorityVote[i];\r\n            allCategory[_categoryId].closingTime[i] = _closingTime[i];\r\n        }\r\n    }\r\n\r\n    /// @dev Changes role name by category id\r\n    /// @param _categoryId Category id\r\n    /// @param _roleName Role name \r\n    function changeRoleNameById(uint _categoryId,uint8[] _roleName)\r\n    {\r\n        allCategory[_categoryId].memberRoleSequence=new uint8[](_roleName.length);\r\n        for(uint i=0; i<_roleName.length; i++)\r\n        {\r\n            allCategory[_categoryId].memberRoleSequence[i] = _roleName[i];\r\n        }\r\n    }\r\n\r\n    /// @dev Changes majority of vote of a category by id\r\n    /// @param _categoryId Category id\r\n    /// @param _majorityVote Majority of votes\r\n    function changeMajorityVoteById(uint _categoryId,uint[] _majorityVote)\r\n    {\r\n        allCategory[_categoryId].memberRoleMajorityVote=new uint[](_majorityVote.length);\r\n        for(uint i=0; i<_majorityVote.length; i++)\r\n        {\r\n            allCategory[_categoryId].memberRoleMajorityVote[i] = _majorityVote[i];\r\n        }\r\n    }    \r\n\r\n    /// @dev Changes closing time by cateory id\r\n    /// @param _categoryId Category id\r\n    /// @param _closingTime Closing time\r\n    function changeClosingTimeById(uint _categoryId,uint24[] _closingTime)\r\n    {\r\n        allCategory[_categoryId].closingTime=new uint24[](_closingTime.length);\r\n        for(uint i=0; i<_closingTime.length; i++)\r\n        {\r\n            allCategory[_categoryId].closingTime[i] = _closingTime[i];\r\n        }\r\n    }\r\n\r\n    /// @dev Changes minimum stake by id\r\n    /// @param _categoryId Category id\r\n    /// @param _minStake Minimum stake\r\n    function changeMinStakeById(uint _categoryId,uint8 _minStake)\r\n    {\r\n        allCategory[_categoryId].minStake = _minStake;\r\n    }\r\n\r\n    /// @dev Changes maximum stake by category id\r\n    function changeMaxStakeById(uint _categoryId,uint8 _maxStake)\r\n    {\r\n        allCategory[_categoryId].maxStake = _maxStake;\r\n    }\r\n    \r\n    /// @dev Changes incentive by category id\r\n    function changeIncentiveById(uint _categoryId,uint _incentive)\r\n    {\r\n        allCategory[_categoryId].defaultIncentive = _incentive;\r\n    }\r\n\r\n    /// @dev Changes reward percentage proposal by category id\r\n    /// @param _categoryId Category id\r\n    /// @param _value Reward percentage value\r\n    function changeRewardPercProposal(uint _categoryId,uint _value)\r\n    {\r\n        allCategory[_categoryId].rewardPercProposal = _value;\r\n    }\r\n\r\n    /// @dev Changes reward percentage option by category id\r\n    /// @param _categoryId Category id\r\n    /// @param _value Reward percentage value\r\n    function changeRewardPercOption(uint _categoryId,uint _value)\r\n    {\r\n        allCategory[_categoryId].rewardPercOption = _value;    \r\n    }\r\n\r\n    /// @dev Changes reward percentage vote by category id\r\n    /// @param _categoryId Category id\r\n    /// @param _value \r\n    function changeRewardPercVote(uint _categoryId,uint _value)\r\n    {\r\n        allCategory[_categoryId].rewardPercVote = _value;\r\n    }\r\n\r\n    /// @dev Gets remaining closing time\r\n    /// @param _proposalId Proposal id\r\n    /// @param _categoryId Category id\r\n    /// @param _index Index of categories\r\n    /// @return totalTime Total time remaining before closing\r\n    function getRemainingClosingTime(uint _proposalId,uint _categoryId,uint _index) constant returns (uint totalTime)\r\n    {      \r\n        uint pClosingTime;\r\n        for(uint i=0; i<getCloseTimeLength(_categoryId); i++)\r\n        {\r\n            pClosingTime = pClosingTime + getClosingTimeAtIndex(_categoryId,_index);\r\n        }\r\n    // date Add in events ASK HERE\r\n        totalTime = (pClosingTime+GD.tokenHoldingTime()+GD.getProposalDateUpd(_proposalId))-now; \r\n        return totalTime;\r\n    }\r\n\r\n    /// @dev Gets reward percentage proposal by category id\r\n    function getRewardPercProposal(uint _categoryId)constant returns(uint)\r\n    {\r\n        return allCategory[_categoryId].rewardPercProposal;\r\n    }\r\n\r\n    /// @dev Gets reward percentage option by category id\r\n    function getRewardPercSolution(uint _categoryId)constant returns(uint)\r\n    {\r\n        return allCategory[_categoryId].rewardPercOption;\r\n    }\r\n\r\n    /// @dev Gets reward percentage vote by category id    \r\n    function getRewardPercVote(uint _categoryId)constant returns(uint)\r\n    {\r\n        return allCategory[_categoryId].rewardPercVote;\r\n    }\r\n\r\n    /// @dev Gets category data for category id\r\n    /// @param category Category id  \r\n    /// @param roleName Role name\r\n    /// @param majorityVote Majority vote  \r\n    /// @param closingTime Closing time of category  \r\n    function getCategoryData2(uint _categoryId) constant returns(uint category,bytes32[] roleName,uint[] majorityVote,uint[] closingTime)\r\n    {\r\n        // MR=memberRoles(MRAddress);\r\n        category = _categoryId;\r\n        roleName=new bytes32[]( allCategory[_categoryId].memberRoleSequence.length);\r\n        for(uint8 i=0; i < allCategory[_categoryId].memberRoleSequence.length; i++)\r\n        {\r\n            bytes32 name;\r\n            (,name) = MR.getMemberRoleNameById(allCategory[_categoryId].memberRoleSequence[i]);\r\n            roleName[i] = name;\r\n        }\r\n        \r\n        majorityVote = allCategory[_categoryId].memberRoleMajorityVote;\r\n        closingTime =  allCategory[_categoryId].closingTime;\r\n    }\r\n\r\n    /// @dev Gets category details\r\n    /// @param closingTime Closing time of category\r\n    /// @return cateId Category id\r\n    /// @return memberRoleSequence Member role sequence for voting\r\n    /// @return cateId Category id\r\n    function getCategoryDetails(uint _categoryId) public constant returns (uint cateId,uint8[] memberRoleSequence,uint[] memberRoleMajorityVote,uint[] closingTime,uint minStake,uint maxStake,uint incentive)\r\n    {    \r\n        cateId = _categoryId;\r\n        memberRoleSequence = allCategory[_categoryId].memberRoleSequence;\r\n        memberRoleMajorityVote = allCategory[_categoryId].memberRoleMajorityVote;\r\n        closingTime = allCategory[_categoryId].closingTime;\r\n        minStake = allCategory[_categoryId].minStake;\r\n        maxStake = allCategory[_categoryId].maxStake;\r\n        incentive = allCategory[_categoryId].defaultIncentive; \r\n    } \r\n\r\n    /// @dev Gets minimum stake for category id\r\n    function getMinStake(uint _categoryId)constant returns(uint8) \r\n    {\r\n        return allCategory[_categoryId].minStake;\r\n    }\r\n\r\n    /// @dev Gets maximum stake for category id\r\n    function getMaxStake(uint _categoryId) constant returns(uint8)\r\n    {\r\n        return allCategory[_categoryId].maxStake;\r\n    }\r\n\r\n    /// @dev Gets member role's majority vote length\r\n    /// @param _categoryId Category id\r\n    /// @return index Category index\r\n    /// @return majorityVoteLength Majority vote length\r\n    function getRoleMajorityVotelength(uint _categoryId) constant returns(uint index,uint majorityVoteLength)\r\n    {\r\n        index = _categoryId;\r\n        majorityVoteLength= allCategory[_categoryId].memberRoleMajorityVote.length;\r\n    }\r\n\r\n    /// @dev Gets closing time length\r\n    /// @param _categoryId Category id\r\n    /// @return index Category index\r\n    /// @return closingTimeLength Closing time length\r\n    function getClosingTimeLength(uint _categoryId) constant returns(uint index,uint closingTimeLength)\r\n    {\r\n        index = _categoryId;\r\n        closingTimeLength = allCategory[_categoryId].closingTime.length;\r\n    }\r\n\r\n    /// @dev Gets closing time length by category id\r\n    function getCloseTimeLength(uint _categoryId)constant returns(uint)\r\n    {\r\n        return allCategory[_categoryId].closingTime.length;\r\n    }\r\n\r\n    /// @dev Gets role sequence length by category id\r\n    function getRoleSequencLength(uint _categoryId) constant returns(uint roleLength)\r\n    {\r\n        roleLength = allCategory[_categoryId].memberRoleSequence.length;\r\n    }\r\n\r\n    /// @dev Gets closing time of index= _index by category id\r\n    function getClosingTimeAtIndex(uint _categoryId,uint _index) constant returns(uint closeTime)\r\n    {\r\n        return allCategory[_categoryId].closingTime[_index];\r\n    }\r\n\r\n    /// @dev Gets role sequence of index= _index by category id  \r\n    function getRoleSequencAtIndex(uint _categoryId,uint _index) constant returns(uint32 roleId)\r\n    {\r\n        return allCategory[_categoryId].memberRoleSequence[_index];\r\n    }\r\n\r\n    /// @dev Gets majority of votes at index= _index by category id\r\n    function getRoleMajorityVoteAtIndex(uint _categoryId,uint _index) constant returns(uint majorityVote)\r\n    {\r\n        return allCategory[_categoryId].memberRoleMajorityVote[_index];\r\n    }\r\n \r\n    /// @dev Gets category incentive at index= _index by category id\r\n    function getCatIncentive(uint _categoryId)constant returns(uint incentive)\r\n    {\r\n        incentive = allCategory[_categoryId].defaultIncentive;\r\n    }\r\n\r\n    /// @dev Gets category id and incentive at index= _index by category id\r\n    function getCategoryIncentive(uint _categoryId)constant returns(uint category,uint incentive)\r\n    {\r\n        category = _categoryId;\r\n        incentive = allCategory[_categoryId].defaultIncentive;\r\n    }\r\n\r\n    /// @dev Gets category length\r\n    /// @return allCategory.length Category length\r\n    function getCategoryLength()constant returns(uint)\r\n    {\r\n        return allCategory.length;\r\n    }\r\n\r\n    /// @dev Gets category data of a given category id\r\n    /// @param _categoryId Category id\r\n    /// @return allCategory[_categoryId].categoryDescHash Hash of description of category id '_categoryId'\r\n    function getCategoryData1(uint _categoryId) constant returns(string)\r\n    {\r\n        return allCategory[_categoryId].categoryDescHash;\r\n    }\r\n\r\n    /// @dev Gets Category data depending upon current voting index in Voting sequence.\r\n    /// @param _categoryId Category id\r\n    /// @param _currVotingIndex Current voting index in voting seqeunce.\r\n    /// @return Next member role to vote with its closing time and majority vote.\r\n    function getCategoryData3(uint _categoryId,uint _currVotingIndex)constant returns(uint8 roleSequence,uint majorityVote,uint closingTime)\r\n    {\r\n        return (allCategory[_categoryId].memberRoleSequence[_currVotingIndex],allCategory[_categoryId].memberRoleMajorityVote[_currVotingIndex],allCategory[_categoryId].closingTime[_currVotingIndex]);\r\n    }\r\n}",
  "sourcePath": "D:\\RUCHITA\\GovBlocks-Protocol Access-Modifiers\\contracts\\ProposalCategory.sol",
  "compiler": {
    "name": "solc",
    "version": "0.4.18+commit.9cf6e910.Emscripten.clang"
  },
  "schemaVersion": "1.0.1",
  "updatedAt": "2018-04-26T12:00:44.181Z"
}