{
  "contractName": "ProposalCategory",
  "abi": [
    {
      "constant": true,
      "inputs": [
        {
          "name": "_categoryId",
          "type": "uint256"
        },
        {
          "name": "_index",
          "type": "uint256"
        }
      ],
      "name": "getRoleMajorityVote",
      "outputs": [
        {
          "name": "majorityVote",
          "type": "uint256"
        }
      ],
      "payable": false,
      "stateMutability": "view",
      "type": "function"
    },
    {
      "constant": true,
      "inputs": [
        {
          "name": "_categoryId",
          "type": "uint256"
        }
      ],
      "name": "getRoleSequencLength",
      "outputs": [
        {
          "name": "roleLength",
          "type": "uint256"
        }
      ],
      "payable": false,
      "stateMutability": "view",
      "type": "function"
    },
    {
      "constant": false,
      "inputs": [
        {
          "name": "_categoryId",
          "type": "uint256"
        },
        {
          "name": "_functionName",
          "type": "string"
        },
        {
          "name": "_contractAt",
          "type": "address"
        },
        {
          "name": "_paramInt",
          "type": "uint8"
        },
        {
          "name": "_paramBytes32",
          "type": "uint8"
        },
        {
          "name": "_paramAddress",
          "type": "uint8"
        },
        {
          "name": "_memberRoleSequence",
          "type": "uint8[]"
        },
        {
          "name": "_memberRoleMajorityVote",
          "type": "uint256[]"
        }
      ],
      "name": "updateCategory",
      "outputs": [
        {
          "name": "",
          "type": "string"
        }
      ],
      "payable": false,
      "stateMutability": "nonpayable",
      "type": "function"
    },
    {
      "constant": false,
      "inputs": [
        {
          "name": "_categoryId",
          "type": "uint256"
        },
        {
          "name": "_uintParamName",
          "type": "bytes32[]"
        },
        {
          "name": "_bytesParamName",
          "type": "bytes32[]"
        },
        {
          "name": "_addressParamName",
          "type": "bytes32[]"
        },
        {
          "name": "_paramBytes32",
          "type": "uint8"
        },
        {
          "name": "_paramAddress",
          "type": "uint8"
        },
        {
          "name": "_memberRoleSequence",
          "type": "uint8[]"
        },
        {
          "name": "_memberRoleMajorityVote",
          "type": "uint256[]"
        }
      ],
      "name": "changeCategoryParametersName",
      "outputs": [
        {
          "name": "",
          "type": "bytes32"
        }
      ],
      "payable": false,
      "stateMutability": "nonpayable",
      "type": "function"
    },
    {
      "constant": true,
      "inputs": [
        {
          "name": "_categoryId",
          "type": "uint256"
        },
        {
          "name": "_index",
          "type": "uint256"
        },
        {
          "name": "_contractAt",
          "type": "address"
        },
        {
          "name": "_paramInt",
          "type": "uint8"
        },
        {
          "name": "_paramBytes32",
          "type": "uint8"
        },
        {
          "name": "_paramAddress",
          "type": "uint8"
        },
        {
          "name": "_memberRoleSequence",
          "type": "uint8[]"
        },
        {
          "name": "_memberRoleMajorityVote",
          "type": "uint256[]"
        },
        {
          "name": "_uintParamName",
          "type": "bytes32[]"
        },
        {
          "name": "_bytesParamName",
          "type": "bytes32[]"
        },
        {
          "name": "_addressParamName",
          "type": "bytes32[]"
        }
      ],
      "name": "getCategoryParameterDetails",
      "outputs": [
        {
          "name": "paramInt",
          "type": "bytes32"
        },
        {
          "name": "paramBytes",
          "type": "bytes32"
        },
        {
          "name": "paramAddress",
          "type": "bytes32"
        },
        {
          "name": "uintHash",
          "type": "string"
        },
        {
          "name": "bytesHash",
          "type": "string"
        },
        {
          "name": "addressHash",
          "type": "string"
        }
      ],
      "payable": false,
      "stateMutability": "view",
      "type": "function"
    },
    {
      "constant": true,
      "inputs": [
        {
          "name": "_categoryId",
          "type": "uint256"
        },
        {
          "name": "_index",
          "type": "uint256"
        },
        {
          "name": "_bytesParamName",
          "type": "bytes32[]"
        },
        {
          "name": "_addressParamName",
          "type": "bytes32[]"
        },
        {
          "name": "_uintParameterDescHash",
          "type": "string"
        },
        {
          "name": "_bytesParameterDescHash",
          "type": "string"
        },
        {
          "name": "_addressParameterDescHash",
          "type": "string"
        },
        {
          "name": "_memberRoleMajorityVote",
          "type": "uint256[]"
        },
        {
          "name": "_uintParamName",
          "type": "bytes32[]"
        },
        {
          "name": "_bytesParamName",
          "type": "bytes32[]"
        },
        {
          "name": "_addressParamName",
          "type": "bytes32[]"
        }
      ],
      "name": "getCategoryParamNameUint",
      "outputs": [
        {
          "name": "",
          "type": "bytes32"
        },
        {
          "name": "functionName",
          "type": "string"
        },
        {
          "name": "contractAt",
          "type": "address"
        },
        {
          "name": "paramInt",
          "type": "uint8"
        },
        {
          "name": "paramBytes32",
          "type": "uint8"
        },
        {
          "name": "paramAddress",
          "type": "uint8"
        },
        {
          "name": "memberRoleSequence",
          "type": "uint8[]"
        },
        {
          "name": "memberRoleMajorityVote",
          "type": "uint256[]"
        }
      ],
      "payable": false,
      "stateMutability": "view",
      "type": "function"
    },
    {
      "constant": false,
      "inputs": [
        {
          "name": "_categoryId",
          "type": "uint256"
        },
        {
          "name": "_uintParamName",
          "type": "bytes32[]"
        },
        {
          "name": "_bytesParamName",
          "type": "bytes32[]"
        },
        {
          "name": "_addressParamName",
          "type": "bytes32[]"
        },
        {
          "name": "_uintParameterDescHash",
          "type": "string"
        },
        {
          "name": "_bytesParameterDescHash",
          "type": "string"
        },
        {
          "name": "_addressParameterDescHash",
          "type": "string"
        },
        {
          "name": "_memberRoleMajorityVote",
          "type": "uint256[]"
        }
      ],
      "name": "addCategoryParamsNameAndDesc",
      "outputs": [
        {
          "name": "roleId",
          "type": "uint256"
        },
        {
          "name": "functionName",
          "type": "string"
        },
        {
          "name": "contractAt",
          "type": "address"
        },
        {
          "name": "paramInt",
          "type": "uint8"
        },
        {
          "name": "paramBytes32",
          "type": "uint8"
        },
        {
          "name": "paramAddress",
          "type": "uint8"
        },
        {
          "name": "memberRoleSequence",
          "type": "uint8[]"
        },
        {
          "name": "memberRoleMajorityVote",
          "type": "uint256[]"
        }
      ],
      "payable": false,
      "stateMutability": "nonpayable",
      "type": "function"
    },
    {
      "constant": false,
      "inputs": [
        {
          "name": "_categoryName",
          "type": "string"
        },
        {
          "name": "_functionName",
          "type": "string"
        },
        {
          "name": "_contractAt",
          "type": "address"
        },
        {
          "name": "_paramInt",
          "type": "uint8"
        },
        {
          "name": "_paramBytes32",
          "type": "uint8"
        },
        {
          "name": "_paramAddress",
          "type": "uint8"
        },
        {
          "name": "_memberRoleSequence",
          "type": "uint8[]"
        },
        {
          "name": "_memberRoleMajorityVote",
          "type": "uint256[]"
        }
      ],
      "name": "addNewCategory",
      "outputs": [
        {
          "name": "roleId",
          "type": "uint256"
        },
        {
          "name": "functionName",
          "type": "string"
        },
        {
          "name": "contractAt",
          "type": "address"
        },
        {
          "name": "paramInt",
          "type": "uint8"
        },
        {
          "name": "paramBytes32",
          "type": "uint8"
        },
        {
          "name": "paramAddress",
          "type": "uint8"
        },
        {
          "name": "memberRoleSequence",
          "type": "uint8[]"
        },
        {
          "name": "memberRoleMajorityVote",
          "type": "uint256[]"
        }
      ],
      "payable": false,
      "stateMutability": "nonpayable",
      "type": "function"
    },
    {
      "constant": true,
      "inputs": [
        {
          "name": "_categoryId",
          "type": "uint256"
        },
        {
          "name": "_index",
          "type": "uint256"
        }
      ],
      "name": "getRoleSequencAtIndex",
      "outputs": [
        {
          "name": "roleId",
          "type": "uint256"
        },
        {
          "name": "functionName",
          "type": "string"
        },
        {
          "name": "contractAt",
          "type": "address"
        },
        {
          "name": "paramInt",
          "type": "uint8"
        },
        {
          "name": "paramBytes32",
          "type": "uint8"
        },
        {
          "name": "paramAddress",
          "type": "uint8"
        },
        {
          "name": "memberRoleSequence",
          "type": "uint8[]"
        },
        {
          "name": "memberRoleMajorityVote",
          "type": "uint256[]"
        }
      ],
      "payable": false,
      "stateMutability": "view",
      "type": "function"
    },
    {
      "constant": true,
      "inputs": [
        {
          "name": "_categoryId",
          "type": "uint256"
        },
        {
          "name": "_index",
          "type": "uint256"
        }
      ],
      "name": "getCategoryDetails",
      "outputs": [
        {
          "name": "categoryName",
          "type": "string"
        },
        {
          "name": "functionName",
          "type": "string"
        },
        {
          "name": "contractAt",
          "type": "address"
        },
        {
          "name": "paramInt",
          "type": "uint8"
        },
        {
          "name": "paramBytes32",
          "type": "uint8"
        },
        {
          "name": "paramAddress",
          "type": "uint8"
        },
        {
          "name": "memberRoleSequence",
          "type": "uint8[]"
        },
        {
          "name": "memberRoleMajorityVote",
          "type": "uint256[]"
        }
      ],
      "payable": false,
      "stateMutability": "view",
      "type": "function"
    },
    {
      "constant": true,
      "inputs": [
        {
          "name": "_categoryId",
          "type": "uint256"
        },
        {
          "name": "_categoryId",
          "type": "uint256"
        }
      ],
      "name": "getCategoryParamHashBytes",
      "outputs": [
        {
          "name": "",
          "type": "string"
        },
        {
          "name": "functionName",
          "type": "string"
        },
        {
          "name": "contractAt",
          "type": "address"
        },
        {
          "name": "paramInt",
          "type": "uint8"
        },
        {
          "name": "paramBytes32",
          "type": "uint8"
        },
        {
          "name": "paramAddress",
          "type": "uint8"
        }
      ],
      "payable": false,
      "stateMutability": "view",
      "type": "function"
    },
    {
      "constant": true,
      "inputs": [
        {
          "name": "_categoryId",
          "type": "uint256"
        },
        {
          "name": "_index",
          "type": "uint256"
        }
      ],
      "name": "getCategoryParamNameBytes",
      "outputs": [
        {
          "name": "",
          "type": "bytes32"
        },
        {
          "name": "functionName",
          "type": "string"
        },
        {
          "name": "contractAt",
          "type": "address"
        },
        {
          "name": "paramInt",
          "type": "uint8"
        },
        {
          "name": "paramBytes32",
          "type": "uint8"
        },
        {
          "name": "paramAddress",
          "type": "uint8"
        }
      ],
      "payable": false,
      "stateMutability": "view",
      "type": "function"
    },
    {
      "constant": false,
      "inputs": [
        {
          "name": "_proposalId",
          "type": "uint256"
        },
        {
          "name": "_categoryId",
          "type": "uint256"
        }
      ],
      "name": "actionAfterProposalPass",
      "outputs": [
        {
          "name": "categoryName",
          "type": "string"
        },
        {
          "name": "functionName",
          "type": "string"
        },
        {
          "name": "contractAt",
          "type": "address"
        },
        {
          "name": "paramInt",
          "type": "uint8"
        },
        {
          "name": "paramBytes32",
          "type": "uint8"
        },
        {
          "name": "paramAddress",
          "type": "uint8"
        }
      ],
      "payable": false,
      "stateMutability": "nonpayable",
      "type": "function"
    },
    {
      "constant": true,
      "inputs": [
        {
          "name": "_categoryId",
          "type": "uint256"
        },
        {
          "name": "_index",
          "type": "uint256"
        }
      ],
      "name": "getCategoryParamNameAddress",
      "outputs": [
        {
          "name": "",
          "type": "bytes32"
        }
      ],
      "payable": false,
      "stateMutability": "view",
      "type": "function"
    },
    {
      "constant": true,
      "inputs": [
        {
          "name": "",
          "type": "uint256"
        }
      ],
      "name": "allCategory",
      "outputs": [
        {
          "name": "categoryName",
          "type": "string"
        },
        {
          "name": "functionName",
          "type": "string"
        },
        {
          "name": "contractAt",
          "type": "address"
        },
        {
          "name": "paramInt",
          "type": "uint8"
        },
        {
          "name": "paramBytes32",
          "type": "uint8"
        },
        {
          "name": "paramAddress",
          "type": "uint8"
        }
      ],
      "payable": false,
      "stateMutability": "view",
      "type": "function"
    },
    {
      "constant": true,
      "inputs": [
        {
          "name": "_categoryId",
          "type": "uint256"
        }
      ],
      "name": "getCategoryParamHashUint",
      "outputs": [
        {
          "name": "",
          "type": "string"
        }
      ],
      "payable": false,
      "stateMutability": "view",
      "type": "function"
    },
    {
      "constant": true,
      "inputs": [
        {
          "name": "_categoryId",
          "type": "uint256"
        }
      ],
      "name": "getCategoryParamHashAddress",
      "outputs": [
        {
          "name": "",
          "type": "string"
        }
      ],
      "payable": false,
      "stateMutability": "view",
      "type": "function"
    },
    {
      "constant": true,
      "inputs": [],
      "name": "getCategoriesLength",
      "outputs": [
        {
          "name": "length",
          "type": "uint256"
        }
      ],
      "payable": false,
      "stateMutability": "view",
      "type": "function"
    }
  ],
  "bytecode": "0x6060604052341561000f57600080fd5b612a5b8061001e6000396000f3006060604052600436106100fc576000357c0100000000000000000000000000000000000000000000000000000000900463ffffffff16806302e929c81461010157806318b0211b146101415780631d10a9731461017857806355d68b52146102a15780636a045c7c14610384578063713656291461052e5780637cb719ae146105765780638ef87959146107225780639deeab2014610885578063b0a4aaee146108c5578063c150d22314610ab7578063d7fa79ac14610b53578063db0c4f7914610b9b578063dfa4afc614610bc7578063dff5f32214610c0f578063e4d9afdb14610dab578063e62ddb7214610e47578063f6d9615f14610ee3575b600080fd5b341561010c57600080fd5b61012b6004808035906020019091908035906020019091905050610f0c565b6040518082815260200191505060405180910390f35b341561014c57600080fd5b6101626004808035906020019091905050610f4e565b6040518082815260200191505060405180910390f35b341561018357600080fd5b61029f600480803590602001909190803590602001908201803590602001908080601f0160208091040260200160405190810160405280939291908181526020018383808284378201915050505050509190803573ffffffffffffffffffffffffffffffffffffffff1690602001909190803560ff1690602001909190803560ff1690602001909190803560ff169060200190919080359060200190820180359060200190808060200260200160405190810160405280939291908181526020018383602002808284378201915050505050509190803590602001908201803590602001908080602002602001604051908101604052809392919081815260200183836020028082843782019150505050505091905050610f7a565b005b34156102ac57600080fd5b610382600480803590602001909190803590602001908201803590602001908080602002602001604051908101604052809392919081815260200183836020028082843782019150505050505091908035906020019082018035906020019080806020026020016040519081016040528093929190818152602001838360200280828437820191505050505050919080359060200190820180359060200190808060200260200160405190810160405280939291908181526020018383602002808284378201915050505050509190505061125c565b005b341561038f57600080fd5b6103ae60048080359060200190919080359060200190919050506114ba565b60405180876000191660001916815260200186600019166000191681526020018560001916600019168152602001806020018060200180602001848103845287818151815260200191508051906020019080838360005b83811015610420578082015181840152602081019050610405565b50505050905090810190601f16801561044d5780820380516001836020036101000a031916815260200191505b50848103835286818151815260200191508051906020019080838360005b8381101561048657808201518184015260208101905061046b565b50505050905090810190601f1680156104b35780820380516001836020036101000a031916815260200191505b50848103825285818151815260200191508051906020019080838360005b838110156104ec5780820151818401526020810190506104d1565b50505050905090810190601f1680156105195780820380516001836020036101000a031916815260200191505b50995050505050505050505060405180910390f35b341561053957600080fd5b61055860048080359060200190919080359060200190919050506117c3565b60405180826000191660001916815260200191505060405180910390f35b341561058157600080fd5b610720600480803590602001909190803590602001908201803590602001908080602002602001604051908101604052809392919081815260200183836020028082843782019150505050505091908035906020019082018035906020019080806020026020016040519081016040528093929190818152602001838360200280828437820191505050505050919080359060200190820180359060200190808060200260200160405190810160405280939291908181526020018383602002808284378201915050505050509190803590602001908201803590602001908080601f0160208091040260200160405190810160405280939291908181526020018383808284378201915050505050509190803590602001908201803590602001908080601f0160208091040260200160405190810160405280939291908181526020018383808284378201915050505050509190803590602001908201803590602001908080601f01602080910402602001604051908101604052809392919081815260200183838082843782019150505050505091905050611806565b005b341561072d57600080fd5b610883600480803590602001908201803590602001908080601f0160208091040260200160405190810160405280939291908181526020018383808284378201915050505050509190803590602001908201803590602001908080601f0160208091040260200160405190810160405280939291908181526020018383808284378201915050505050509190803573ffffffffffffffffffffffffffffffffffffffff1690602001909190803560ff1690602001909190803560ff1690602001909190803560ff169060200190919080359060200190820180359060200190808060200260200160405190810160405280939291908181526020018383602002808284378201915050505050509190803590602001908201803590602001908080602002602001604051908101604052809392919081815260200183836020028082843782019150505050505091905050611980565b005b341561089057600080fd5b6108af6004808035906020019091908035906020019091905050611b3e565b6040518082815260200191505060405180910390f35b34156108d057600080fd5b6108e66004808035906020019091905050611b97565b6040518080602001806020018973ffffffffffffffffffffffffffffffffffffffff1673ffffffffffffffffffffffffffffffffffffffff1681526020018860ff1660ff1681526020018760ff1660ff1681526020018660ff1660ff168152602001806020018060200185810385528d818151815260200191508051906020019080838360005b8381101561098857808201518184015260208101905061096d565b50505050905090810190601f1680156109b55780820380516001836020036101000a031916815260200191505b5085810384528c818151815260200191508051906020019080838360005b838110156109ee5780820151818401526020810190506109d3565b50505050905090810190601f168015610a1b5780820380516001836020036101000a031916815260200191505b50858103835287818151815260200191508051906020019060200280838360005b83811015610a57578082015181840152602081019050610a3c565b50505050905001858103825286818151815260200191508051906020019060200280838360005b83811015610a99578082015181840152602081019050610a7e565b505050509050019c5050505050505050505050505060405180910390f35b3415610ac257600080fd5b610ad86004808035906020019091905050611f19565b6040518080602001828103825283818151815260200191508051906020019080838360005b83811015610b18578082015181840152602081019050610afd565b50505050905090810190601f168015610b455780820380516001836020036101000a031916815260200191505b509250505060405180910390f35b3415610b5e57600080fd5b610b7d6004808035906020019091908035906020019091905050611fe1565b60405180826000191660001916815260200191505060405180910390f35b3415610ba657600080fd5b610bc56004808035906020019091908035906020019091905050612024565b005b3415610bd257600080fd5b610bf16004808035906020019091908035906020019091905050612165565b60405180826000191660001916815260200191505060405180910390f35b3415610c1a57600080fd5b610c3060048080359060200190919050506121a8565b6040518080602001806020018773ffffffffffffffffffffffffffffffffffffffff1673ffffffffffffffffffffffffffffffffffffffff1681526020018660ff1660ff1681526020018560ff1660ff1681526020018460ff1660ff168152602001838103835289818154600181600116156101000203166002900481526020019150805460018160011615610100020316600290048015610d135780601f10610ce857610100808354040283529160200191610d13565b820191906000526020600020905b815481529060010190602001808311610cf657829003601f168201915b5050838103825288818154600181600116156101000203166002900481526020019150805460018160011615610100020316600290048015610d965780601f10610d6b57610100808354040283529160200191610d96565b820191906000526020600020905b815481529060010190602001808311610d7957829003601f168201915b50509850505050505050505060405180910390f35b3415610db657600080fd5b610dcc6004808035906020019091905050612238565b6040518080602001828103825283818151815260200191508051906020019080838360005b83811015610e0c578082015181840152602081019050610df1565b50505050905090810190601f168015610e395780820380516001836020036101000a031916815260200191505b509250505060405180910390f35b3415610e5257600080fd5b610e686004808035906020019091905050612300565b6040518080602001828103825283818151815260200191508051906020019080838360005b83811015610ea8578082015181840152602081019050610e8d565b50505050905090810190601f168015610ed55780820380516001836020036101000a031916815260200191505b509250505060405180910390f35b3415610eee57600080fd5b610ef66123c8565b6040518082815260200191505060405180910390f35b60008083815481101515610f1c57fe5b906000526020600020906005020160040182815481101515610f3a57fe5b906000526020600020900154905092915050565b60008082815481101515610f5e57fe5b9060005260206000209060050201600301805490509050919050565b600081518351141515610f8c57600080fd5b8760008a815481101515610f9c57fe5b90600052602060002090600502016001019080519060200190610fc09291906123d4565b508660008a815481101515610fd157fe5b906000526020600020906005020160020160006101000a81548173ffffffffffffffffffffffffffffffffffffffff021916908373ffffffffffffffffffffffffffffffffffffffff1602179055508560008a81548110151561103057fe5b906000526020600020906005020160020160146101000a81548160ff021916908360ff1602179055508460008a81548110151561106957fe5b906000526020600020906005020160020160156101000a81548160ff021916908360ff1602179055508360008a8154811015156110a257fe5b906000526020600020906005020160020160166101000a81548160ff021916908360ff16021790555082516040518059106110da5750595b908082528060200260200182016040525060008a8154811015156110fa57fe5b9060005260206000209060050201600301908051906020019061111e929190612454565b50815160405180591061112e5750595b908082528060200260200182016040525060008a81548110151561114e57fe5b906000526020600020906005020160040190805190602001906111729291906124fb565b50600090505b825181101561125157828181518110151561118f57fe5b9060200190602002015160008a8154811015156111a857fe5b9060005260206000209060050201600301828154811015156111c657fe5b90600052602060002090602091828204019190066101000a81548160ff021916908360ff16021790555081818151811015156111fe57fe5b9060200190602002015160008a81548110151561121757fe5b90600052602060002090600502016004018281548110151561123557fe5b9060005260206000209001819055508080600101915050611178565b505050505050505050565b6000835160405180591061126d5750595b908082528060200260200182016040525060018681548110151561128d57fe5b906000526020600020906002020160000190805190602001906112b1929190612548565b5082516040518059106112c15750595b90808252806020026020018201604052506002868154811015156112e157fe5b90600052602060002090600202016000019080519060200190611305929190612548565b5081516040518059106113155750595b908082528060200260200182016040525060038681548110151561133557fe5b90600052602060002090600202016000019080519060200190611359929190612548565b50600090505b83518110156113cd57838181518110151561137657fe5b9060200190602002015160018681548110151561138f57fe5b9060005260206000209060020201600001828154811015156113ad57fe5b90600052602060002090018160001916905550808060010191505061135f565b600090505b83518110156114405782818151811015156113e957fe5b9060200190602002015160028681548110151561140257fe5b90600052602060002090600202016000018281548110151561142057fe5b9060005260206000209001816000191690555080806001019150506113d2565b600090505b83518110156114b357818181518110151561145c57fe5b9060200190602002015160038681548110151561147557fe5b90600052602060002090600202016000018281548110151561149357fe5b906000526020600020900181600019169055508080600101915050611445565b5050505050565b60008060006114c761259b565b6114cf61259b565b6114d761259b565b6001888154811015156114e657fe5b90600052602060002090600202016000018781548110151561150457fe5b906000526020600020900154955060028881548110151561152157fe5b90600052602060002090600202016000018781548110151561153f57fe5b906000526020600020900154945060038881548110151561155c57fe5b90600052602060002090600202016000018781548110151561157a57fe5b906000526020600020900154935060018881548110151561159757fe5b90600052602060002090600202016001018054600181600116156101000203166002900480601f01602080910402602001604051908101604052809291908181526020018280546001816001161561010002031660029004801561163c5780601f106116115761010080835404028352916020019161163c565b820191906000526020600020905b81548152906001019060200180831161161f57829003601f168201915b5050505050925060028881548110151561165257fe5b90600052602060002090600202016001018054600181600116156101000203166002900480601f0160208091040260200160405190810160405280929190818152602001828054600181600116156101000203166002900480156116f75780601f106116cc576101008083540402835291602001916116f7565b820191906000526020600020905b8154815290600101906020018083116116da57829003601f168201915b5050505050915060038881548110151561170d57fe5b90600052602060002090600202016001018054600181600116156101000203166002900480601f0160208091040260200160405190810160405280929190818152602001828054600181600116156101000203166002900480156117b25780601f10611787576101008083540402835291602001916117b2565b820191906000526020600020905b81548152906001019060200180831161179557829003601f168201915b505050505090509295509295509295565b60006001838154811015156117d457fe5b9060005260206000209060020201600001828154811015156117f257fe5b906000526020600020900154905092915050565b6001805480600101828161181a91906125af565b9160005260206000209060020201600060408051908101604052808a815260200187815250909190915060008201518160000190805190602001906118609291906125e1565b50602082015181600101908051906020019061187d929190612634565b505050506002805480600101828161189591906125af565b91600052602060002090600202016000604080519081016040528089815260200186815250909190915060008201518160000190805190602001906118db9291906125e1565b5060208201518160010190805190602001906118f8929190612634565b505050506003805480600101828161191091906125af565b91600052602060002090600202016000604080519081016040528088815260200185815250909190915060008201518160000190805190602001906119569291906125e1565b506020820151816001019080519060200190611973929190612634565b5050505050505050505050565b8051825114151561199057600080fd5b600080548060010182816119a491906126b4565b91600052602060002090600502016000610100604051908101604052808c81526020018b81526020018a73ffffffffffffffffffffffffffffffffffffffff1681526020018960ff1681526020018860ff1681526020018760ff1681526020018681526020018581525090919091506000820151816000019080519060200190611a2f929190612634565b506020820151816001019080519060200190611a4c929190612634565b5060408201518160020160006101000a81548173ffffffffffffffffffffffffffffffffffffffff021916908373ffffffffffffffffffffffffffffffffffffffff16021790555060608201518160020160146101000a81548160ff021916908360ff16021790555060808201518160020160156101000a81548160ff021916908360ff16021790555060a08201518160020160166101000a81548160ff021916908360ff16021790555060c0820151816003019080519060200190611b139291906126e6565b5060e0820151816004019080519060200190611b3092919061278d565b505050505050505050505050565b60008083815481101515611b4e57fe5b906000526020600020906005020160030182815481101515611b6c57fe5b90600052602060002090602091828204019190069054906101000a900460ff1660ff16905092915050565b611b9f61259b565b611ba761259b565b600080600080611bb56127da565b611bbd6127ee565b600089815481101515611bcc57fe5b90600052602060002090600502016000018054600181600116156101000203166002900480601f016020809104026020016040519081016040528092919081815260200182805460018160011615610100020316600290048015611c715780601f10611c4657610100808354040283529160200191611c71565b820191906000526020600020905b815481529060010190602001808311611c5457829003601f168201915b50505050509750600089815481101515611c8757fe5b90600052602060002090600502016001018054600181600116156101000203166002900480601f016020809104026020016040519081016040528092919081815260200182805460018160011615610100020316600290048015611d2c5780601f10611d0157610100808354040283529160200191611d2c565b820191906000526020600020905b815481529060010190602001808311611d0f57829003601f168201915b50505050509650600089815481101515611d4257fe5b906000526020600020906005020160020160009054906101000a900473ffffffffffffffffffffffffffffffffffffffff169550600089815481101515611d8557fe5b906000526020600020906005020160020160149054906101000a900460ff169450600089815481101515611db557fe5b906000526020600020906005020160020160159054906101000a900460ff169350600089815481101515611de557fe5b906000526020600020906005020160020160169054906101000a900460ff169250600089815481101515611e1557fe5b9060005260206000209060050201600301805480602002602001604051908101604052809291908181526020018280548015611e9657602002820191906000526020600020906000905b82829054906101000a900460ff1660ff1681526020019060010190602082600001049283019260010382029150808411611e5f5790505b50505050509150600089815481101515611eac57fe5b9060005260206000209060050201600401805480602002602001604051908101604052809291908181526020018280548015611f0757602002820191906000526020600020905b815481526020019060010190808311611ef3575b50505050509050919395975091939597565b611f2161259b565b600282815481101515611f3057fe5b90600052602060002090600202016001018054600181600116156101000203166002900480601f016020809104026020016040519081016040528092919081815260200182805460018160011615610100020316600290048015611fd55780601f10611faa57610100808354040283529160200191611fd5565b820191906000526020600020905b815481529060010190602001808311611fb857829003601f168201915b50505050509050919050565b6000600283815481101515611ff257fe5b90600052602060002090600202016000018281548110151561201057fe5b906000526020600020900154905092915050565b600061202f82611b97565b909192939495965090919293949550909192935090919250909150905050809150508073ffffffffffffffffffffffffffffffffffffffff1660008381548110151561207757fe5b906000526020600020906005020160010160405180828054600181600116156101000203166002900480156120e35780601f106120c15761010080835404028352918201916120e3565b820191906000526020600020905b8154815290600101906020018083116120cf575b505091505060405180910390207c01000000000000000000000000000000000000000000000000000000009004846040518263ffffffff167c01000000000000000000000000000000000000000000000000000000000281526004018082815260200191505060006040518083038160008761646e5a03f19250505050505050565b600060038381548110151561217657fe5b90600052602060002090600202016000018281548110151561219457fe5b906000526020600020900154905092915050565b6000818154811015156121b757fe5b9060005260206000209060050201600091509050806000019080600101908060020160009054906101000a900473ffffffffffffffffffffffffffffffffffffffff16908060020160149054906101000a900460ff16908060020160159054906101000a900460ff16908060020160169054906101000a900460ff16905086565b61224061259b565b60018281548110151561224f57fe5b90600052602060002090600202016001018054600181600116156101000203166002900480601f0160208091040260200160405190810160405280929190818152602001828054600181600116156101000203166002900480156122f45780601f106122c9576101008083540402835291602001916122f4565b820191906000526020600020905b8154815290600101906020018083116122d757829003601f168201915b50505050509050919050565b61230861259b565b60038281548110151561231757fe5b90600052602060002090600202016001018054600181600116156101000203166002900480601f0160208091040260200160405190810160405280929190818152602001828054600181600116156101000203166002900480156123bc5780601f10612391576101008083540402835291602001916123bc565b820191906000526020600020905b81548152906001019060200180831161239f57829003601f168201915b50505050509050919050565b60008080549050905090565b828054600181600116156101000203166002900490600052602060002090601f016020900481019282601f1061241557805160ff1916838001178555612443565b82800160010185558215612443579182015b82811115612442578251825591602001919060010190612427565b5b5090506124509190612802565b5090565b82805482825590600052602060002090601f016020900481019282156124ea5791602002820160005b838211156124bb57835183826101000a81548160ff021916908360ff160217905550926020019260010160208160000104928301926001030261247d565b80156124e85782816101000a81549060ff02191690556001016020816000010492830192600103026124bb565b505b5090506124f79190612827565b5090565b828054828255906000526020600020908101928215612537579160200282015b8281111561253657825182559160200191906001019061251b565b5b5090506125449190612802565b5090565b82805482825590600052602060002090810192821561258a579160200282015b82811115612589578251829060001916905591602001919060010190612568565b5b5090506125979190612857565b5090565b602060405190810160405280600081525090565b8154818355818115116125dc576002028160020283600052602060002091820191016125db919061287c565b5b505050565b828054828255906000526020600020908101928215612623579160200282015b82811115612622578251829060001916905591602001919060010190612601565b5b5090506126309190612857565b5090565b828054600181600116156101000203166002900490600052602060002090601f016020900481019282601f1061267557805160ff19168380011785556126a3565b828001600101855582156126a3579182015b828111156126a2578251825591602001919060010190612687565b5b5090506126b09190612802565b5090565b8154818355818115116126e1576005028160050283600052602060002091820191016126e091906128bb565b5b505050565b82805482825590600052602060002090601f0160209004810192821561277c5791602002820160005b8382111561274d57835183826101000a81548160ff021916908360ff160217905550926020019260010160208160000104928301926001030261270f565b801561277a5782816101000a81549060ff021916905560010160208160000104928301926001030261274d565b505b5090506127899190612827565b5090565b8280548282559060005260206000209081019282156127c9579160200282015b828111156127c85782518255916020019190600101906127ad565b5b5090506127d69190612802565b5090565b602060405190810160405280600081525090565b602060405190810160405280600081525090565b61282491905b80821115612820576000816000905550600101612808565b5090565b90565b61285491905b8082111561285057600081816101000a81549060ff02191690555060010161282d565b5090565b90565b61287991905b8082111561287557600081600090555060010161285d565b5090565b90565b6128b891905b808211156128b4576000808201600061289b919061297d565b6001820160006128ab919061299e565b50600201612882565b5090565b90565b61297a91905b8082111561297657600080820160006128da919061299e565b6001820160006128ea919061299e565b6002820160006101000a81549073ffffffffffffffffffffffffffffffffffffffff02191690556002820160146101000a81549060ff02191690556002820160156101000a81549060ff02191690556002820160166101000a81549060ff021916905560038201600061295d91906129e6565b60048201600061296d9190612a0e565b506005016128c1565b5090565b90565b508054600082559060005260206000209081019061299b9190612857565b50565b50805460018160011615610100020316600290046000825580601f106129c457506129e3565b601f0160209004906000526020600020908101906129e29190612802565b5b50565b50805460008255601f016020900490600052602060002090810190612a0b9190612802565b50565b5080546000825590600052602060002090810190612a2c9190612802565b505600a165627a7a72305820b69a39dfe91114d406cb56ba0cb7a9cb589fe7258876f340e6c21ae925335d5d0029",
  "source": "/* Copyright (C) 2017 GovBlocks.io\r\n\r\n  This program is free software: you can redistribute it and/or modify\r\n    it under the terms of the GNU General Public License as published by\r\n    the Free Software Foundation, either version 3 of the License, or\r\n    (at your option) any later version.\r\n\r\n  This program is distributed in the hope that it will be useful,\r\n    but WITHOUT ANY WARRANTY; without even the implied warranty of\r\n    MERCHANTABILITY or FITNESS FOR A PARTICULAR PURPOSE.  See the\r\n    GNU General Public License for more details.\r\n\r\n  You should have received a copy of the GNU General Public License\r\n    along with this program.  If not, see http://www.gnu.org/licenses/ */\r\npragma solidity ^0.4.8;\r\ncontract ProposalCategory\r\n{\r\n    struct category{\r\n        string categoryName;\r\n        string functionName;\r\n        address contractAt;\r\n        uint8 paramInt;\r\n        uint8 paramBytes32;\r\n        uint8 paramAddress;\r\n        uint8[] memberRoleSequence;\r\n        uint[] memberRoleMajorityVote;\r\n    }\r\n\r\n    struct categoryParams\r\n    {\r\n        bytes32[] parameterName;\r\n        string parameterDescHash;\r\n    }\r\n\r\n    category[] public allCategory;\r\n\r\n    categoryParams[] uintParam;\r\n    categoryParams[] bytesParam;\r\n    categoryParams[] addressParam;\r\n\r\n    /// @dev Get the integer parameterName when given Category Id and parameterIndex\r\n    function getCategoryParamNameUint(uint _categoryId,uint _index)constant returns(bytes32)\r\n    {\r\n        return uintParam[_categoryId].parameterName[_index];\r\n    }\r\n\r\n    /// @dev Get the Bytes parameterName when given Category Id and parameterIndex\r\n    function getCategoryParamNameBytes(uint _categoryId,uint _index)constant returns(bytes32)\r\n    {\r\n        return bytesParam[_categoryId].parameterName[_index];\r\n    }\r\n\r\n    /// @dev Get the Address parameterName when given Category Id and parameterIndex\r\n    function getCategoryParamNameAddress(uint _categoryId,uint _index)constant returns(bytes32)\r\n    {\r\n        return addressParam[_categoryId].parameterName[_index];\r\n    }\r\n\r\n    /// @dev Get the Address parameterName when given Category Id and parameterIndex\r\n    function getCategoryParamHashUint(uint _categoryId)constant returns(string)\r\n    {\r\n        return uintParam[_categoryId].parameterDescHash;\r\n    }\r\n\r\n    /// @dev Get the Address parameterName when given Category Id and parameterIndex\r\n    function getCategoryParamHashBytes(uint _categoryId)constant returns(string)\r\n    {\r\n        return bytesParam[_categoryId].parameterDescHash;\r\n    }\r\n\r\n    /// @dev Get the Address parameterName when given Category Id and parameterIndex\r\n    function getCategoryParamHashAddress(uint _categoryId)constant returns(string)\r\n    {\r\n        return addressParam[_categoryId].parameterDescHash;\r\n    }\r\n\r\n    /// @dev Get category parameter details when giving category id and Index.\r\n    function getCategoryParameterDetails(uint _categoryId,uint _index) constant returns(bytes32 paramInt,bytes32 paramBytes,bytes32 paramAddress, string uintHash,string bytesHash,string addressHash)\r\n    {\r\n        paramInt = uintParam[_categoryId].parameterName[_index];\r\n        paramBytes = bytesParam[_categoryId].parameterName[_index];\r\n        paramAddress = addressParam[_categoryId].parameterName[_index];\r\n        uintHash = uintParam[_categoryId].parameterDescHash;\r\n        bytesHash = bytesParam[_categoryId].parameterDescHash;\r\n        addressHash = addressParam[_categoryId].parameterDescHash;\r\n    }\r\n\r\n    /// @dev Gets the total number of categories.\r\n    function getCategoriesLength() constant returns (uint length)\r\n    {\r\n        length = allCategory.length;\r\n    }\r\n\r\n    /// @dev Gets category details by category id.\r\n    function getCategoryDetails(uint _categoryId) public constant returns (string categoryName,string functionName,address contractAt,uint8 paramInt,uint8 paramBytes32,uint8 paramAddress,uint8[] memberRoleSequence,uint[] memberRoleMajorityVote)\r\n    {    \r\n        categoryName = allCategory[_categoryId].categoryName;\r\n        functionName = allCategory[_categoryId].functionName;\r\n        contractAt = allCategory[_categoryId].contractAt;\r\n        paramInt = allCategory[_categoryId].paramInt;\r\n        paramBytes32 = allCategory[_categoryId].paramBytes32;\r\n        paramAddress = allCategory[_categoryId].paramAddress;\r\n        memberRoleSequence = allCategory[_categoryId].memberRoleSequence;\r\n        memberRoleMajorityVote = allCategory[_categoryId].memberRoleMajorityVote;\r\n    } \r\n    \r\n    /// @dev Get majority vote value for each voting level.\r\n    function getRoleMajorityVote(uint _categoryId,uint _index) constant returns(uint majorityVote)\r\n    {\r\n        return allCategory[_categoryId].memberRoleMajorityVote[_index];\r\n    }\r\n    \r\n    /// @dev Get the length of voting levels against given proposal.\r\n    function getRoleSequencLength(uint _categoryId) constant returns(uint roleLength)\r\n    {\r\n        return allCategory[_categoryId].memberRoleSequence.length;\r\n    }\r\n    /// @dev Get the next Roleid to cast vote against proposal, according to the sequence defined.\r\n    function getRoleSequencAtIndex(uint _categoryId,uint _index) constant returns(uint roleId)\r\n    {\r\n        return allCategory[_categoryId].memberRoleSequence[_index];\r\n    }\r\n    /// @dev Adds a new category and Category Function Parameter names..\r\n    function addNewCategory(string _categoryName,string _functionName,address _contractAt,uint8 _paramInt,uint8 _paramBytes32,uint8 _paramAddress,uint8[] _memberRoleSequence,uint[] _memberRoleMajorityVote) public\r\n    {\r\n        require(_memberRoleSequence.length == _memberRoleMajorityVote.length);\r\n        allCategory.push(category(_categoryName,_functionName,_contractAt,_paramInt,_paramBytes32,_paramAddress,_memberRoleSequence,_memberRoleMajorityVote));\r\n    }\r\n    /// @dev Saving descriptions against various parameters required for category.\r\n    function addCategoryParamsNameAndDesc(uint _categoryId,bytes32[] _uintParamName,bytes32[] _bytesParamName,bytes32[] _addressParamName,string _uintParameterDescHash,string _bytesParameterDescHash,string _addressParameterDescHash)\r\n    {\r\n        uintParam.push(categoryParams(_uintParamName,_uintParameterDescHash));\r\n        bytesParam.push(categoryParams(_bytesParamName,_bytesParameterDescHash));\r\n        addressParam.push(categoryParams(_addressParamName,_addressParameterDescHash));\r\n    }\r\n    /// @dev Change the category parameters name against category.\r\n    function changeCategoryParametersName(uint _categoryId,bytes32[] _uintParamName,bytes32[] _bytesParamName,bytes32[] _addressParamName)\r\n    {   \r\n        uintParam[_categoryId].parameterName=new bytes32[](_uintParamName.length); \r\n        bytesParam[_categoryId].parameterName=new bytes32[](_bytesParamName.length); \r\n        addressParam[_categoryId].parameterName=new bytes32[](_addressParamName.length); \r\n        \r\n        for(uint i=0; i<_uintParamName.length; i++)\r\n        {\r\n            uintParam[_categoryId].parameterName[i]=_uintParamName[i]; \r\n        }\r\n            \r\n        for(i=0; i<_uintParamName.length; i++)\r\n        {\r\n            bytesParam[_categoryId].parameterName[i]=_bytesParamName[i];\r\n        }\r\n        \r\n        for(i=0; i<_uintParamName.length; i++)\r\n        {\r\n            addressParam[_categoryId].parameterName[i]=_addressParamName[i];\r\n        }\r\n    }\r\n\r\n    /// @dev Updates a category details\r\n    function updateCategory(uint _categoryId,string _functionName,address _contractAt,uint8 _paramInt,uint8 _paramBytes32,uint8 _paramAddress,uint8[] _memberRoleSequence,uint[] _memberRoleMajorityVote) public\r\n    {\r\n        require(_memberRoleSequence.length == _memberRoleMajorityVote.length);\r\n        allCategory[_categoryId].functionName = _functionName;\r\n        allCategory[_categoryId].contractAt = _contractAt;\r\n        allCategory[_categoryId].paramInt = _paramInt;\r\n        allCategory[_categoryId].paramBytes32 = _paramBytes32; \r\n        allCategory[_categoryId].paramAddress = _paramAddress;\r\n\r\n        allCategory[_categoryId].memberRoleSequence=new uint8[](_memberRoleSequence.length);\r\n        allCategory[_categoryId].memberRoleMajorityVote=new uint[](_memberRoleMajorityVote.length);\r\n\r\n        for(uint i=0; i<_memberRoleSequence.length; i++)\r\n        {\r\n            allCategory[_categoryId].memberRoleSequence[i] =_memberRoleSequence[i];\r\n            allCategory[_categoryId].memberRoleMajorityVote[i] = _memberRoleMajorityVote[i];\r\n        }\r\n    }\r\n    /// @dev function to be called after proposal pass\r\n    function actionAfterProposalPass(uint _proposalId,uint _categoryId) public\r\n    {\r\n        address contractAt;\r\n        (,,contractAt,,,,,) = getCategoryDetails(_categoryId);\r\n        contractAt.call(bytes4(sha3(allCategory[_categoryId].functionName)),_proposalId);\r\n    }\r\n\r\n}",
  "sourcePath": "D:\\2. GovBlocks Contracts\\GovBlocks Git-Master\\contracts\\ProposalCategory.sol",
  "compiler": {
    "name": "solc",
    "version": "0.4.18+commit.9cf6e910.Emscripten.clang"
  },
  "schemaVersion": "1.0.1",
  "updatedAt": "2017-12-20T10:55:02.153Z"
}