{
  "contractName": "RankBasedVoting",
  "abi": [
    {
      "constant": false,
      "inputs": [
        {
          "name": "_GDcontractAddress",
          "type": "address"
        },
        {
          "name": "_MRcontractAddress",
          "type": "address"
        },
        {
          "name": "_PCcontractAddress",
          "type": "address"
        }
      ],
      "name": "changeAllContractsAddress",
      "outputs": [],
      "payable": false,
      "stateMutability": "nonpayable",
      "type": "function"
    },
    {
      "constant": false,
      "inputs": [
        {
          "name": "_proposalId",
          "type": "uint256"
        },
        {
          "name": "_paramInt",
          "type": "uint256[]"
        },
        {
          "name": "_paramBytes32",
          "type": "bytes32[]"
        },
        {
          "name": "_paramAddress",
          "type": "address[]"
        },
        {
          "name": "_GNTPayableTokenAmount",
          "type": "uint256"
        }
      ],
      "name": "addVerdictOption",
      "outputs": [],
      "payable": false,
      "stateMutability": "nonpayable",
      "type": "function"
    },
    {
      "constant": false,
      "inputs": [
        {
          "name": "_proposalId",
          "type": "uint256"
        }
      ],
      "name": "giveReward_afterFinalDecision",
      "outputs": [
        {
          "name": "",
          "type": "uint256"
        }
      ],
      "payable": false,
      "stateMutability": "nonpayable",
      "type": "function"
    },
    {
      "constant": true,
      "inputs": [
        {
          "name": "_proposalId",
          "type": "uint256"
        },
        {
          "name": "_verdictChosen",
          "type": "uint256[]"
        },
        {
          "name": "_sum",
          "type": "uint256"
        }
      ],
      "name": "totalVotes",
      "outputs": [
        {
          "name": "",
          "type": "uint256"
        }
      ],
      "payable": false,
      "stateMutability": "view",
      "type": "function"
    },
    {
      "constant": false,
      "inputs": [
        {
          "name": "_proposalId",
          "type": "uint256"
        },
        {
          "name": "_verdictChosen",
          "type": "uint256[]"
        },
        {
          "name": "_sum",
          "type": "uint256"
        }
      ],
      "name": "changeMemberVote",
      "outputs": [
        {
          "name": "voteId",
          "type": "uint256[]"
        }
      ],
      "payable": false,
      "stateMutability": "nonpayable",
      "type": "function"
    },
    {
      "constant": true,
      "inputs": [
        {
          "name": "_proposalId",
          "type": "uint256"
        },
        {
          "name": "_roleId",
          "type": "uint256"
        }
      ],
      "name": "getProposalRoleVoteArray",
      "outputs": [
        {
          "name": "voteId",
          "type": "uint256[]"
        }
      ],
      "payable": false,
      "stateMutability": "view",
      "type": "function"
    },
    {
      "constant": false,
      "inputs": [
        {
          "name": "_proposalId",
          "type": "uint256"
        },
        {
          "name": "_verdictChosen",
          "type": "uint256[]"
        }
      ],
      "name": "increaseTotalVotes",
      "outputs": [
        {
          "name": "_totalVotes",
          "type": "uint256"
        }
      ],
      "payable": false,
      "stateMutability": "nonpayable",
      "type": "function"
    },
    {
      "constant": false,
      "inputs": [
        {
          "name": "_proposalId",
          "type": "uint256"
        },
        {
          "name": "_verdictChosen",
          "type": "uint256[]"
        }
      ],
      "name": "proposalVoting",
      "outputs": [
        {
          "name": "length",
          "type": "uint256"
        }
      ],
      "payable": false,
      "stateMutability": "nonpayable",
      "type": "function"
    },
    {
      "constant": true,
      "inputs": [
        {
          "name": "_proposalId",
          "type": "uint256"
        },
        {
          "name": "_roleId",
          "type": "uint256"
        },
        {
          "name": "_optionIndex",
          "type": "uint256"
        }
      ],
      "name": "getProposalRoleVoteLength",
      "outputs": [
        {
          "name": "length",
          "type": "uint256"
        },
        {
          "name": "totalToken",
          "type": "uint256"
        }
      ],
      "payable": false,
      "stateMutability": "view",
      "type": "function"
    },
    {
      "constant": true,
      "inputs": [
        {
          "name": "_proposalId",
          "type": "uint256"
        },
        {
          "name": "_roleId",
          "type": "uint256"
        },
        {
          "name": "_optionIndex",
          "type": "uint256"
        },
        {
          "name": "_paramAddress",
          "type": "address[]"
        }
      ],
      "name": "getProposalVoteAndTokenCountByRoleId",
      "outputs": [
        {
          "name": "totalVotes",
          "type": "uint256"
        },
        {
          "name": "totalToken",
          "type": "uint256"
        }
      ],
      "payable": false,
      "stateMutability": "view",
      "type": "function"
    },
    {
      "constant": true,
      "inputs": [
        {
          "name": "_voteid",
          "type": "uint256"
        },
        {
          "name": "_paramInt",
          "type": "uint256[]"
        },
        {
          "name": "_paramBytes32",
          "type": "bytes32[]"
        },
        {
          "name": "_paramAddress",
          "type": "address[]"
        }
      ],
      "name": "getVoteDetailByid",
      "outputs": [
        {
          "name": "voter",
          "type": "address"
        },
        {
          "name": "proposalId",
          "type": "uint256"
        },
        {
          "name": "verdictChosen",
          "type": "uint256[]"
        },
        {
          "name": "dateSubmit",
          "type": "uint256"
        },
        {
          "name": "voterTokens",
          "type": "uint256"
        }
      ],
      "payable": false,
      "stateMutability": "view",
      "type": "function"
    },
    {
      "constant": true,
      "inputs": [
        {
          "name": "_voteid",
          "type": "uint256"
        },
        {
          "name": "_roleId",
          "type": "uint256"
        },
        {
          "name": "_voteArrayIndex",
          "type": "uint256"
        }
      ],
      "name": "getTotalVotes",
      "outputs": [
        {
          "name": "votesTotal",
          "type": "uint256"
        },
        {
          "name": "proposalId",
          "type": "uint256"
        },
        {
          "name": "verdictChosen",
          "type": "uint256[]"
        },
        {
          "name": "dateSubmit",
          "type": "uint256"
        },
        {
          "name": "voterTokens",
          "type": "uint256"
        }
      ],
      "payable": false,
      "stateMutability": "view",
      "type": "function"
    },
    {
      "constant": true,
      "inputs": [
        {
          "name": "_proposalId",
          "type": "uint256"
        },
        {
          "name": "_roleId",
          "type": "uint256"
        },
        {
          "name": "_voteArrayIndex",
          "type": "uint256"
        }
      ],
      "name": "getProposalRoleVote",
      "outputs": [
        {
          "name": "voteId",
          "type": "uint256"
        }
      ],
      "payable": false,
      "stateMutability": "view",
      "type": "function"
    },
    {
      "constant": false,
      "inputs": [
        {
          "name": "_proposalId",
          "type": "uint256"
        },
        {
          "name": "_roleId",
          "type": "uint256"
        },
        {
          "name": "_voteArrayIndex",
          "type": "uint256"
        }
      ],
      "name": "closeProposalVote",
      "outputs": [
        {
          "name": "voteId",
          "type": "uint256"
        },
        {
          "name": "proposalId",
          "type": "uint256"
        },
        {
          "name": "dateSubmit",
          "type": "uint256"
        },
        {
          "name": "voterTokens",
          "type": "uint256"
        }
      ],
      "payable": false,
      "stateMutability": "nonpayable",
      "type": "function"
    },
    {
      "constant": false,
      "inputs": [
        {
          "name": "_proposalId",
          "type": "uint256"
        },
        {
          "name": "_verdictChosen",
          "type": "uint256[]"
        }
      ],
      "name": "addInTotalVotes",
      "outputs": [],
      "payable": false,
      "stateMutability": "nonpayable",
      "type": "function"
    },
    {
      "constant": true,
      "inputs": [
        {
          "name": "_voteid",
          "type": "uint256"
        },
        {
          "name": "_verdictChosen",
          "type": "uint256[]"
        }
      ],
      "name": "getAllVoteValueAgainstOption",
      "outputs": [
        {
          "name": "val",
          "type": "uint256[]"
        }
      ],
      "payable": false,
      "stateMutability": "nonpayable",
      "type": "constructor"
    },
    {
      "constant": true,
      "inputs": [
        {
          "name": "_voteid",
          "type": "uint256"
        }
      ],
      "name": "getAllVoteValueAgainstOption",
      "outputs": [
        {
          "name": "val",
          "type": "uint256[]"
        }
      ],
      "payable": false,
      "stateMutability": "nonpayable",
      "type": "constructor"
    },
    {
      "inputs": [],
      "payable": false,
      "stateMutability": "nonpayable",
      "type": "constructor"
    }
  ],
  "bytecode": "0x606060405234156200001057600080fd5b6000600380548060010182816200002891906200015d565b9160005260206000209060050201600060a060405190810160405280600073ffffffffffffffffffffffffffffffffffffffff1681526020016000815260200185805480602002602001604051908101604052809291908181526020018280548015620000b557602002820191906000526020600020905b815481526020019060010190808311620000a0575b505050505081526020014281526020016000815250909190915060008201518160000160006101000a81548173ffffffffffffffffffffffffffffffffffffffff021916908373ffffffffffffffffffffffffffffffffffffffff1602179055506020820151816001015560408201518160020190805190602001906200013e92919062000192565b50606082015181600301556080820151816004015550505050620002a2565b8154818355818115116200018d576005028160050283600052602060002091820191016200018c9190620001e4565b5b505050565b828054828255906000526020600020908101928215620001d1579160200282015b82811115620001d0578251825591602001919060010190620001b3565b5b509050620001e0919062000257565b5090565b6200025491905b808211156200025057600080820160006101000a81549073ffffffffffffffffffffffffffffffffffffffff021916905560018201600090556002820160006200023691906200027f565b6003820160009055600482016000905550600501620001eb565b5090565b90565b6200027c91905b80821115620002785760008160009055506001016200025e565b5090565b90565b50805460008255906000526020600020908101906200029f919062000257565b50565b6140b080620002b26000396000f3006060604052600436106100da576000357c0100000000000000000000000000000000000000000000000000000000900463ffffffff168062edf46e146100df57806307a88848146101565780630a256ae1146102425780630d15fd771461026557806317a1ef7a1461028e5780631f2f0f1a146102fa57806328c09cb31461037b57806332a2da8d146103a45780633ae2f7d4146104075780634a261ce31461044757806366cf51de146104975780639a0e7d6614610557578063c3647eb914610580578063c46994ce146105c9578063d7e31d95146105ec575b600080fd5b34156100ea57600080fd5b610154600480803573ffffffffffffffffffffffffffffffffffffffff1690602001909190803573ffffffffffffffffffffffffffffffffffffffff1690602001909190803573ffffffffffffffffffffffffffffffffffffffff1690602001909190505061064f565b005b341561016157600080fd5b6102406004808035906020019091908035906020019082018035906020019080806020026020016040519081016040528093929190818152602001838360200280828437820191505050505050919080359060200190820180359060200190808060200260200160405190810160405280939291908181526020018383602002808284378201915050505050509190803590602001908201803590602001908080602002602001604051908101604052809392919081815260200183836020028082843782019150505050505091908035906020019091905050610717565b005b341561024d57600080fd5b610263600480803590602001909190505061120b565b005b341561027057600080fd5b610278611768565b6040518082815260200191505060405180910390f35b341561029957600080fd5b6102f860048080359060200190919080359060200190820180359060200190808060200260200160405190810160405280939291908181526020018383602002808284378201915050505050509190803590602001909190505061176e565b005b341561030557600080fd5b6103246004808035906020019091908035906020019091905050611f2b565b6040518080602001828103825283818151815260200191508051906020019060200280838360005b8381101561036757808201518184015260208101905061034c565b505050509050019250505060405180910390f35b341561038657600080fd5b61038e611fae565b6040518082815260200191505060405180910390f35b34156103af57600080fd5b610405600480803590602001909190803590602001908201803590602001908080602002602001604051908101604052809392919081815260200183836020028082843782019150505050505091905050611fc9565b005b341561041257600080fd5b6104316004808035906020019091908035906020019091905050612add565b6040518082815260200191505060405180910390f35b341561045257600080fd5b61047a6004808035906020019091908035906020019091908035906020019091905050612b0f565b604051808381526020018281526020019250505060405180910390f35b34156104a257600080fd5b6104b86004808035906020019091905050612b7d565b604051808673ffffffffffffffffffffffffffffffffffffffff1673ffffffffffffffffffffffffffffffffffffffff16815260200185815260200180602001848152602001838152602001828103825285818151815260200191508051906020019060200280838360005b8381101561053f578082015181840152602081019050610524565b50505050905001965050505050505060405180910390f35b341561056257600080fd5b61056a612cb4565b6040518082815260200191505060405180910390f35b341561058b57600080fd5b6105b36004808035906020019091908035906020019091908035906020019091905050612cc1565b6040518082815260200191505060405180910390f35b34156105d457600080fd5b6105ea6004808035906020019091905050612d09565b005b34156105f757600080fd5b61064d600480803590602001909190803590602001908201803590602001908080602002602001604051908101604052809392919081815260200183836020028082843782019150505050505091905050613c5f565b005b82600560006101000a81548173ffffffffffffffffffffffffffffffffffffffff021916908373ffffffffffffffffffffffffffffffffffffffff16021790555081600660006101000a81548173ffffffffffffffffffffffffffffffffffffffff021916908373ffffffffffffffffffffffffffffffffffffffff16021790555080600760006101000a81548173ffffffffffffffffffffffffffffffffffffffff021916908373ffffffffffffffffffffffffffffffffffffffff160217905550505050565b600080600080600080600080600560009054906101000a900473ffffffffffffffffffffffffffffffffffffffff16600a60006101000a81548173ffffffffffffffffffffffffffffffffffffffff021916908373ffffffffffffffffffffffffffffffffffffffff160217905550600660009054906101000a900473ffffffffffffffffffffffffffffffffffffffff16600860006101000a81548173ffffffffffffffffffffffffffffffffffffffff021916908373ffffffffffffffffffffffffffffffffffffffff160217905550600760009054906101000a900473ffffffffffffffffffffffffffffffffffffffff16600960006101000a81548173ffffffffffffffffffffffffffffffffffffffff021916908373ffffffffffffffffffffffffffffffffffffffff160217905550600a60009054906101000a900473ffffffffffffffffffffffffffffffffffffffff1673ffffffffffffffffffffffffffffffffffffffff16639d828cdc8a6040518263ffffffff167c010000000000000000000000000000000000000000000000000000000002815260040180828152602001915050600060405180830381600087803b15156108dc57600080fd5b6102c65a03f115156108ed57600080fd5b505050600a60009054906101000a900473ffffffffffffffffffffffffffffffffffffffff1673ffffffffffffffffffffffffffffffffffffffff1663ec9ccfff8e600060405160a001526040518263ffffffff167c01000000000000000000000000000000000000000000000000000000000281526004018082815260200191505060a060405180830381600087803b151561098957600080fd5b6102c65a03f1151561099a57600080fd5b50505060405180519060200180519060200180519060200180519060200180519050905050809850819a50829950505050600a60009054906101000a900473ffffffffffffffffffffffffffffffffffffffff1673ffffffffffffffffffffffffffffffffffffffff166334a3210a8e6000604051608001526040518263ffffffff167c010000000000000000000000000000000000000000000000000000000002815260040180828152602001915050608060405180830381600087803b1515610a6457600080fd5b6102c65a03f11515610a7557600080fd5b5050506040518051906020018051906020018051906020018051905090919250909150905080955050600088148015610b6157506002600a60009054906101000a900473ffffffffffffffffffffffffffffffffffffffff1673ffffffffffffffffffffffffffffffffffffffff1663401853b78f6000604051602001526040518263ffffffff167c010000000000000000000000000000000000000000000000000000000002815260040180828152602001915050602060405180830381600087803b1515610b4457600080fd5b6102c65a03f11515610b5557600080fd5b50505060405180519050145b1515610b6c57600080fd5b6000600a60009054906101000a900473ffffffffffffffffffffffffffffffffffffffff1673ffffffffffffffffffffffffffffffffffffffff166335c42dbb336000604051602001526040518263ffffffff167c0100000000000000000000000000000000000000000000000000000000028152600401808273ffffffffffffffffffffffffffffffffffffffff1673ffffffffffffffffffffffffffffffffffffffff168152602001915050602060405180830381600087803b1515610c3357600080fd5b6102c65a03f11515610c4457600080fd5b5050506040518051905014151515610c5b57600080fd5b600a60009054906101000a900473ffffffffffffffffffffffffffffffffffffffff1673ffffffffffffffffffffffffffffffffffffffff1663ec9ccfff8e600060405160a001526040518263ffffffff167c01000000000000000000000000000000000000000000000000000000000281526004018082815260200191505060a060405180830381600087803b1515610cf457600080fd5b6102c65a03f11515610d0557600080fd5b505050604051805190602001805190602001805190602001805190602001805190509091925090915090505080945050600960009054906101000a900473ffffffffffffffffffffffffffffffffffffffff1673ffffffffffffffffffffffffffffffffffffffff16639deeab20858a6000604051602001526040518363ffffffff167c01000000000000000000000000000000000000000000000000000000000281526004018083815260200182815260200192505050602060405180830381600087803b1515610dd657600080fd5b6102c65a03f11515610de757600080fd5b50505060405180519050600860009054906101000a900473ffffffffffffffffffffffffffffffffffffffff1673ffffffffffffffffffffffffffffffffffffffff1663beae32ba336000604051602001526040518263ffffffff167c0100000000000000000000000000000000000000000000000000000000028152600401808273ffffffffffffffffffffffffffffffffffffffff1673ffffffffffffffffffffffffffffffffffffffff168152602001915050602060405180830381600087803b1515610eb657600080fd5b6102c65a03f11515610ec757600080fd5b50505060405180519050148015610f2e57506000600260003373ffffffffffffffffffffffffffffffffffffffff1673ffffffffffffffffffffffffffffffffffffffff16815260200190815260200160002060008f815260200190815260200160002054145b1515610f3957600080fd5b600960009054906101000a900473ffffffffffffffffffffffffffffffffffffffff1673ffffffffffffffffffffffffffffffffffffffff1663b0a4aaee85600060405161010001526040518263ffffffff167c01000000000000000000000000000000000000000000000000000000000281526004018082815260200191505061010060405180830381600087803b1515610fd457600080fd5b6102c65a03f11515610fe557600080fd5b505050604051805190602001805190602001805190602001805190602001805190602001805190602001805190602001805190509091929394959650909192939495509091929394509050508093508194508295505050508b518360ff1614801561105357508a518260ff16145b8015611062575089518160ff16145b156111fc57611072856001613e37565b9450600a60009054906101000a900473ffffffffffffffffffffffffffffffffffffffff1673ffffffffffffffffffffffffffffffffffffffff1663da77c3818e8e8e8e8a6040518663ffffffff167c010000000000000000000000000000000000000000000000000000000002815260040180868152602001806020018060200180602001858152602001848103845288818151815260200191508051906020019060200280838360005b8381101561113957808201518184015260208101905061111e565b50505050905001848103835287818151815260200191508051906020019060200280838360005b8381101561117b578082015181840152602081019050611160565b50505050905001848103825286818151815260200191508051906020019060200280838360005b838110156111bd5780820151818401526020810190506111a2565b5050505090500198505050505050505050600060405180830381600087803b15156111e757600080fd5b6102c65a03f115156111f857600080fd5b5050505b50505050505050505050505050565b6000806000806000806000806000806000600760009054906101000a900473ffffffffffffffffffffffffffffffffffffffff16600960006101000a81548173ffffffffffffffffffffffffffffffffffffffff021916908373ffffffffffffffffffffffffffffffffffffffff160217905550600560009054906101000a900473ffffffffffffffffffffffffffffffffffffffff16600a60006101000a81548173ffffffffffffffffffffffffffffffffffffffff021916908373ffffffffffffffffffffffffffffffffffffffff160217905550600a60009054906101000a900473ffffffffffffffffffffffffffffffffffffffff1673ffffffffffffffffffffffffffffffffffffffff1663ec9ccfff8d600060405160a001526040518263ffffffff167c01000000000000000000000000000000000000000000000000000000000281526004018082815260200191505060a060405180830381600087803b151561137b57600080fd5b6102c65a03f1151561138c57600080fd5b5050506040518051906020018051906020018051906020018051906020018051905050809650819750829850839c5050505050600091505b600960009054906101000a900473ffffffffffffffffffffffffffffffffffffffff1673ffffffffffffffffffffffffffffffffffffffff166318b0211b8a6000604051602001526040518263ffffffff167c010000000000000000000000000000000000000000000000000000000002815260040180828152602001915050602060405180830381600087803b151561145d57600080fd5b6102c65a03f1151561146e57600080fd5b5050506040518051905082101561175a57600960009054906101000a900473ffffffffffffffffffffffffffffffffffffffff1673ffffffffffffffffffffffffffffffffffffffff16639deeab208a846000604051602001526040518363ffffffff167c01000000000000000000000000000000000000000000000000000000000281526004018083815260200182815260200192505050602060405180830381600087803b151561152057600080fd5b6102c65a03f1151561153157600080fd5b505050604051805190509750600a60009054906101000a900473ffffffffffffffffffffffffffffffffffffffff1673ffffffffffffffffffffffffffffffffffffffff1663e7d6bf288d846000604051602001526040518363ffffffff167c01000000000000000000000000000000000000000000000000000000000281526004018083815260200182815260200192505050602060405180830381600087803b15156115de57600080fd5b6102c65a03f115156115ef57600080fd5b505050604051805190509650600090505b61160a8c89612add565b81101561174d5761161c8c8983612cc1565b955060038681548110151561162d57fe5b90600052602060002090600502016002019950828a600081548110151561165057fe5b90600052602060002090015414151561166857600080fd5b600a60009054906101000a900473ffffffffffffffffffffffffffffffffffffffff1673ffffffffffffffffffffffffffffffffffffffff166307dbff7b8c896040518363ffffffff167c0100000000000000000000000000000000000000000000000000000000028152600401808373ffffffffffffffffffffffffffffffffffffffff1673ffffffffffffffffffffffffffffffffffffffff16815260200182815260200192505050600060405180830381600087803b151561172c57600080fd5b6102c65a03f1151561173d57600080fd5b5050508080600101915050611600565b81806001019250506113c4565b505050505050505050505050565b60045481565b6000806000806000806000806000600660009054906101000a900473ffffffffffffffffffffffffffffffffffffffff16600860006101000a81548173ffffffffffffffffffffffffffffffffffffffff021916908373ffffffffffffffffffffffffffffffffffffffff160217905550600560009054906101000a900473ffffffffffffffffffffffffffffffffffffffff16600a60006101000a81548173ffffffffffffffffffffffffffffffffffffffff021916908373ffffffffffffffffffffffffffffffffffffffff160217905550600860009054906101000a900473ffffffffffffffffffffffffffffffffffffffff1673ffffffffffffffffffffffffffffffffffffffff1663beae32ba336000604051602001526040518263ffffffff167c0100000000000000000000000000000000000000000000000000000000028152600401808273ffffffffffffffffffffffffffffffffffffffff1673ffffffffffffffffffffffffffffffffffffffff168152602001915050602060405180830381600087803b151561190757600080fd5b6102c65a03f1151561191857600080fd5b505050604051805190509850600260003373ffffffffffffffffffffffffffffffffffffffff1673ffffffffffffffffffffffffffffffffffffffff16815260200190815260200160002060008d8152602001908152602001600020549750600b600089815260200190815260200160002054965060038881548110151561199c57fe5b90600052602060002090600502016002019550600a60009054906101000a900473ffffffffffffffffffffffffffffffffffffffff1673ffffffffffffffffffffffffffffffffffffffff166334a3210a8d6000604051608001526040518263ffffffff167c010000000000000000000000000000000000000000000000000000000002815260040180828152602001915050608060405180830381600087803b1515611a4857600080fd5b6102c65a03f11515611a5957600080fd5b5050506040518051906020018051906020018051906020018051905090919250909150905080955050600a60009054906101000a900473ffffffffffffffffffffffffffffffffffffffff1673ffffffffffffffffffffffffffffffffffffffff1663ec9ccfff8d600060405160a001526040518263ffffffff167c01000000000000000000000000000000000000000000000000000000000281526004018082815260200191505060a060405180830381600087803b1515611b1b57600080fd5b6102c65a03f11515611b2c57600080fd5b505050604051805190602001805190602001805190602001805190602001805190509091929350909150905050809450506000841415611d7157600092505b8580549050831015611b9957611b8a82611b858986613e55565b613e37565b91508280600101935050611b6b565b600092505b8580549050831015611c8457611bc7611bc1611bba8986613e55565b6064613e6e565b83613ea9565b9050611c236000808e815260200190815260200160002060000160008b815260200190815260200160002060008886815481101515611c0257fe5b90600052602060002090015481526020019081526020016000205482613e55565b6000808e815260200190815260200160002060000160008b815260200190815260200160002060008886815481101515611c5957fe5b9060005260206000209001548152602001908152602001600020819055508280600101935050611b9e565b600092505b8a51831015611d6c57611caf611ca9611ca28786613e55565b6064613e6e565b8b613ea9565b9050611d0b6000808e815260200190815260200160002060000160008b815260200190815260200160002060008886815481101515611cea57fe5b90600052602060002090015481526020019081526020016000205482613e37565b6000808e815260200190815260200160002060000160008b815260200190815260200160002060008886815481101515611d4157fe5b9060005260206000209001548152602001908152602001600020819055508280600101935050611c89565b611ed0565b611dcd6000808e815260200190815260200160002060000160008b81526020019081526020016000206000886000815481101515611dab57fe5b9060005260206000209001548152602001908152602001600020546001613e55565b6000808e815260200190815260200160002060000160008b81526020019081526020016000206000886000815481101515611e0457fe5b906000526020600020900154815260200190815260200160002081905550611e7c6000808e815260200190815260200160002060000160008b815260200190815260200160002060008d6000815181101515611e5c57fe5b906020019060200201518152602001908152602001600020546001613e37565b6000808e815260200190815260200160002060000160008b815260200190815260200160002060008d6000815181101515611eb357fe5b906020019060200201518152602001908152602001600020819055505b8a600389815481101515611ee057fe5b90600052602060002090600502016002019080519060200190611f04929190613ec4565b5084600b60008a815260200190815260200160002081905550505050505050505050505050565b611f33613f11565b600160008481526020019081526020016000206000838152602001908152602001600020805480602002602001604051908101604052809291908181526020018280548015611fa157602002820191906000526020600020905b815481526020019060010190808311611f8d575b5050505050905092915050565b6000611fbd6004546001613e37565b90508060048190555090565b6000806000806000806000806000600560009054906101000a900473ffffffffffffffffffffffffffffffffffffffff16600a60006101000a81548173ffffffffffffffffffffffffffffffffffffffff021916908373ffffffffffffffffffffffffffffffffffffffff160217905550600660009054906101000a900473ffffffffffffffffffffffffffffffffffffffff16600860006101000a81548173ffffffffffffffffffffffffffffffffffffffff021916908373ffffffffffffffffffffffffffffffffffffffff160217905550600760009054906101000a900473ffffffffffffffffffffffffffffffffffffffff16600960006101000a81548173ffffffffffffffffffffffffffffffffffffffff021916908373ffffffffffffffffffffffffffffffffffffffff160217905550600a60009054906101000a900473ffffffffffffffffffffffffffffffffffffffff1673ffffffffffffffffffffffffffffffffffffffff1663ec9ccfff8c600060405160a001526040518263ffffffff167c01000000000000000000000000000000000000000000000000000000000281526004018082815260200191505060a060405180830381600087803b151561219957600080fd5b6102c65a03f115156121aa57600080fd5b50505060405180519060200180519060200180519060200180519060200180519050905050809850819a50829950505050600a60009054906101000a900473ffffffffffffffffffffffffffffffffffffffff1673ffffffffffffffffffffffffffffffffffffffff166334a3210a8c6000604051608001526040518263ffffffff167c010000000000000000000000000000000000000000000000000000000002815260040180828152602001915050608060405180830381600087803b151561227457600080fd5b6102c65a03f1151561228557600080fd5b50505060405180519060200180519060200180519060200180519050909192509091509050809550506000600a60009054906101000a900473ffffffffffffffffffffffffffffffffffffffff1673ffffffffffffffffffffffffffffffffffffffff166335c42dbb336000604051602001526040518263ffffffff167c0100000000000000000000000000000000000000000000000000000000028152600401808273ffffffffffffffffffffffffffffffffffffffff1673ffffffffffffffffffffffffffffffffffffffff168152602001915050602060405180830381600087803b151561237557600080fd5b6102c65a03f1151561238657600080fd5b505050604051805190501415801561245157506002600a60009054906101000a900473ffffffffffffffffffffffffffffffffffffffff1673ffffffffffffffffffffffffffffffffffffffff1663401853b78d6000604051602001526040518263ffffffff167c010000000000000000000000000000000000000000000000000000000002815260040180828152602001915050602060405180830381600087803b151561243457600080fd5b6102c65a03f1151561244557600080fd5b50505060405180519050145b801561245e5750848a5111155b151561246957600080fd5b60008814156124cc57600093505b89518410156124c757848a8581518110151561248f57fe5b906020019060200201511015156124a557600080fd5b6124b8836124b38787613e55565b613e37565b92508380600101945050612477565b612516565b858a60008151811015156124dc57fe5b90602001906020020151148061250a575060008a60008151811015156124fe57fe5b90602001906020020151145b151561251557600080fd5b5b600860009054906101000a900473ffffffffffffffffffffffffffffffffffffffff1673ffffffffffffffffffffffffffffffffffffffff1663beae32ba336000604051602001526040518263ffffffff167c0100000000000000000000000000000000000000000000000000000000028152600401808273ffffffffffffffffffffffffffffffffffffffff1673ffffffffffffffffffffffffffffffffffffffff168152602001915050602060405180830381600087803b15156125db57600080fd5b6102c65a03f115156125ec57600080fd5b505050604051805190509150600960009054906101000a900473ffffffffffffffffffffffffffffffffffffffff1673ffffffffffffffffffffffffffffffffffffffff16639deeab20888a6000604051602001526040518363ffffffff167c01000000000000000000000000000000000000000000000000000000000281526004018083815260200182815260200192505050602060405180830381600087803b151561269957600080fd5b6102c65a03f115156126aa57600080fd5b50505060405180519050821415156126c157600080fd5b6000600260003373ffffffffffffffffffffffffffffffffffffffff1673ffffffffffffffffffffffffffffffffffffffff16815260200190815260200160002060008d8152602001908152602001600020541415612ac457612722612cb4565b905061272e8b8b613c5f565b600088141561282057600093505b895184101561281b5761276261275c6127558787613e55565b6064613e6e565b84613ea9565b98506127bc6000808d8152602001908152602001600020600001600084815260200190815260200160002060008c8781518110151561279d57fe5b906020019060200201518152602001908152602001600020548a613e37565b6000808d8152602001908152602001600020600001600084815260200190815260200160002060008c878151811015156127f257fe5b90602001906020020151815260200190815260200160002081905550838060010194505061273c565b6128ce565b61287a6000808d8152602001908152602001600020600001600084815260200190815260200160002060008c600081518110151561285a57fe5b906020019060200201518152602001908152602001600020546001613e37565b6000808d8152602001908152602001600020600001600084815260200190815260200160002060008c60008151811015156128b157fe5b906020019060200201518152602001908152602001600020819055505b6129dd6000808d8152602001908152602001600020600101600084815260200190815260200160002054600a60009054906101000a900473ffffffffffffffffffffffffffffffffffffffff1673ffffffffffffffffffffffffffffffffffffffff166335c42dbb336000604051602001526040518263ffffffff167c0100000000000000000000000000000000000000000000000000000000028152600401808273ffffffffffffffffffffffffffffffffffffffff1673ffffffffffffffffffffffffffffffffffffffff168152602001915050602060405180830381600087803b15156129bd57600080fd5b6102c65a03f115156129ce57600080fd5b50505060405180519050613e37565b6000808d815260200190815260200160002060010160008481526020019081526020016000208190555080600260003373ffffffffffffffffffffffffffffffffffffffff1673ffffffffffffffffffffffffffffffffffffffff16815260200190815260200160002060008d815260200190815260200160002081905550600160008c815260200190815260200160002060008381526020019081526020016000208054806001018281612a929190613f25565b91600052602060002090016000839091909150555084600b600083815260200190815260200160002081905550612ad0565b612acf8b8b8561176e565b5b5050505050505050505050565b600060016000848152602001908152602001600020600083815260200190815260200160002080549050905092915050565b600080600080868152602001908152602001600020600001600085815260200190815260200160002060008481526020019081526020016000205491506000808681526020019081526020016000206001016000858152602001908152602001600020549050935093915050565b600080612b88613f11565b600080600386815481101515612b9a57fe5b906000526020600020906005020160000160009054906101000a900473ffffffffffffffffffffffffffffffffffffffff16600387815481101515612bdb57fe5b906000526020600020906005020160010154600388815481101515612bfc57fe5b9060005260206000209060050201600201600389815481101515612c1c57fe5b90600052602060002090600502016003015460038a815481101515612c3d57fe5b90600052602060002090600502016004015482805480602002602001604051908101604052809291908181526020018280548015612c9a57602002820191906000526020600020905b815481526020019060010190808311612c86575b505050505092509450945094509450945091939590929450565b6000600380549050905090565b600060016000858152602001908152602001600020600084815260200190815260200160002082815481101515612cf457fe5b90600052602060002090015490509392505050565b6000806000806000806000806000806000600560009054906101000a900473ffffffffffffffffffffffffffffffffffffffff16600a60006101000a81548173ffffffffffffffffffffffffffffffffffffffff021916908373ffffffffffffffffffffffffffffffffffffffff160217905550600660009054906101000a900473ffffffffffffffffffffffffffffffffffffffff16600860006101000a81548173ffffffffffffffffffffffffffffffffffffffff021916908373ffffffffffffffffffffffffffffffffffffffff160217905550600760009054906101000a900473ffffffffffffffffffffffffffffffffffffffff16600960006101000a81548173ffffffffffffffffffffffffffffffffffffffff021916908373ffffffffffffffffffffffffffffffffffffffff160217905550600a60009054906101000a900473ffffffffffffffffffffffffffffffffffffffff1673ffffffffffffffffffffffffffffffffffffffff1663f65ad7508d600060405160e001526040518263ffffffff167c01000000000000000000000000000000000000000000000000000000000281526004018082815260200191505060e060405180830381600087803b1515612edc57600080fd5b6102c65a03f11515612eed57600080fd5b50505060405180519060200180519060200180519060200180519060200180519060200180519060200180519050909192939495509091929394509091929350909192509091509050809b5050600a60009054906101000a900473ffffffffffffffffffffffffffffffffffffffff1673ffffffffffffffffffffffffffffffffffffffff1663ec9ccfff8d600060405160a001526040518263ffffffff167c01000000000000000000000000000000000000000000000000000000000281526004018082815260200191505060a060405180830381600087803b1515612fd357600080fd5b6102c65a03f11515612fe457600080fd5b50505060405180519060200180519060200180519060200180519060200180519050905050809a50819c50829b50505050600a60009054906101000a900473ffffffffffffffffffffffffffffffffffffffff1673ffffffffffffffffffffffffffffffffffffffff166334a3210a8d6000604051608001526040518263ffffffff167c010000000000000000000000000000000000000000000000000000000002815260040180828152602001915050608060405180830381600087803b15156130ae57600080fd5b6102c65a03f115156130bf57600080fd5b50505060405180519060200180519060200180519060200180519050909192509091509050809750506001600a60009054906101000a900473ffffffffffffffffffffffffffffffffffffffff1673ffffffffffffffffffffffffffffffffffffffff166340b2723b8e6000604051602001526040518263ffffffff167c010000000000000000000000000000000000000000000000000000000002815260040180828152602001915050602060405180830381600087803b151561318357600080fd5b6102c65a03f1151561319457600080fd5b5050506040518051905060ff161415156131ad57600080fd5b600860009054906101000a900473ffffffffffffffffffffffffffffffffffffffff1673ffffffffffffffffffffffffffffffffffffffff1663beae32ba336000604051602001526040518263ffffffff167c0100000000000000000000000000000000000000000000000000000000028152600401808273ffffffffffffffffffffffffffffffffffffffff1673ffffffffffffffffffffffffffffffffffffffff168152602001915050602060405180830381600087803b151561327257600080fd5b6102c65a03f1151561328357600080fd5b50505060405180519050915060009550600090505b8681101561336a576132e1856000808f81526020019081526020016000206000016000858152602001908152602001600020600084815260200190815260200160002054613e37565b94506000808d815260200190815260200160002060000160008381526020019081526020016000206000828152602001908152602001600020546000808e81526020019081526020016000206000016000848152602001908152602001600020600088815260200190815260200160002054101561335d578095505b8080600101915050613298565b6000808d815260200190815260200160002060000160008381526020019081526020016000206000878152602001908152602001600020549350600960009054906101000a900473ffffffffffffffffffffffffffffffffffffffff1673ffffffffffffffffffffffffffffffffffffffff166302e929c88a8c6000604051602001526040518363ffffffff167c01000000000000000000000000000000000000000000000000000000000281526004018083815260200182815260200192505050602060405180830381600087803b151561344557600080fd5b6102c65a03f1151561345657600080fd5b50505060405180519050925082613477613471866064613e6e565b87613ea9565b101515613a4e576134898a6001613e37565b9950600086111561384657600960009054906101000a900473ffffffffffffffffffffffffffffffffffffffff1673ffffffffffffffffffffffffffffffffffffffff166318b0211b8a6000604051602001526040518263ffffffff167c010000000000000000000000000000000000000000000000000000000002815260040180828152602001915050602060405180830381600087803b151561352d57600080fd5b6102c65a03f1151561353e57600080fd5b505050604051805190508a101561361157600a60009054906101000a900473ffffffffffffffffffffffffffffffffffffffff1673ffffffffffffffffffffffffffffffffffffffff16631f15d5e28d8c8960006040518563ffffffff167c010000000000000000000000000000000000000000000000000000000002815260040180858152602001848152602001838152602001828152602001945050505050600060405180830381600087803b15156135f857600080fd5b6102c65a03f1151561360957600080fd5b505050613841565b600a60009054906101000a900473ffffffffffffffffffffffffffffffffffffffff1673ffffffffffffffffffffffffffffffffffffffff16631f15d5e28d8c898a6040518563ffffffff167c010000000000000000000000000000000000000000000000000000000002815260040180858152602001848152602001838152602001828152602001945050505050600060405180830381600087803b15156136b957600080fd5b6102c65a03f115156136ca57600080fd5b505050600a60009054906101000a900473ffffffffffffffffffffffffffffffffffffffff1673ffffffffffffffffffffffffffffffffffffffff1663c12da3ae8d60036040518363ffffffff167c01000000000000000000000000000000000000000000000000000000000281526004018083815260200182815260200192505050600060405180830381600087803b151561376657600080fd5b6102c65a03f1151561377757600080fd5b505050600960009054906101000a900473ffffffffffffffffffffffffffffffffffffffff1673ffffffffffffffffffffffffffffffffffffffff1663db0c4f798d8b6000604051602001526040518363ffffffff167c01000000000000000000000000000000000000000000000000000000000281526004018083815260200182815260200192505050602060405180830381600087803b151561381b57600080fd5b6102c65a03f1151561382c57600080fd5b50505060405180519050506138408c61120b565b5b613a49565b600a60009054906101000a900473ffffffffffffffffffffffffffffffffffffffff1673ffffffffffffffffffffffffffffffffffffffff16631f15d5e28d8c898a6040518563ffffffff167c010000000000000000000000000000000000000000000000000000000002815260040180858152602001848152602001838152602001828152602001945050505050600060405180830381600087803b15156138ee57600080fd5b6102c65a03f115156138ff57600080fd5b505050600a60009054906101000a900473ffffffffffffffffffffffffffffffffffffffff1673ffffffffffffffffffffffffffffffffffffffff1663c12da3ae8d60046040518363ffffffff167c01000000000000000000000000000000000000000000000000000000000281526004018083815260200182815260200192505050600060405180830381600087803b151561399b57600080fd5b6102c65a03f115156139ac57600080fd5b505050600a60009054906101000a900473ffffffffffffffffffffffffffffffffffffffff1673ffffffffffffffffffffffffffffffffffffffff1663e7030a676040518163ffffffff167c0100000000000000000000000000000000000000000000000000000000028152600401600060405180830381600087803b1515613a3457600080fd5b6102c65a03f11515613a4557600080fd5b5050505b613c51565b600a60009054906101000a900473ffffffffffffffffffffffffffffffffffffffff1673ffffffffffffffffffffffffffffffffffffffff16631f15d5e28d8c898a6040518563ffffffff167c010000000000000000000000000000000000000000000000000000000002815260040180858152602001848152602001838152602001828152602001945050505050600060405180830381600087803b1515613af657600080fd5b6102c65a03f11515613b0757600080fd5b505050600a60009054906101000a900473ffffffffffffffffffffffffffffffffffffffff1673ffffffffffffffffffffffffffffffffffffffff1663c12da3ae8d60056040518363ffffffff167c01000000000000000000000000000000000000000000000000000000000281526004018083815260200182815260200192505050600060405180830381600087803b1515613ba357600080fd5b6102c65a03f11515613bb457600080fd5b505050600a60009054906101000a900473ffffffffffffffffffffffffffffffffffffffff1673ffffffffffffffffffffffffffffffffffffffff1663e7030a676040518163ffffffff167c0100000000000000000000000000000000000000000000000000000000028152600401600060405180830381600087803b1515613c3c57600080fd5b6102c65a03f11515613c4d57600080fd5b5050505b505050505050505050505050565b613c67611fae565b5060038054806001018281613c7c9190613f51565b9160005260206000209060050201600060a0604051908101604052803373ffffffffffffffffffffffffffffffffffffffff168152602001868152602001858152602001428152602001600a60009054906101000a900473ffffffffffffffffffffffffffffffffffffffff1673ffffffffffffffffffffffffffffffffffffffff166335c42dbb336000604051602001526040518263ffffffff167c0100000000000000000000000000000000000000000000000000000000028152600401808273ffffffffffffffffffffffffffffffffffffffff1673ffffffffffffffffffffffffffffffffffffffff168152602001915050602060405180830381600087803b1515613d8b57600080fd5b6102c65a03f11515613d9c57600080fd5b50505060405180519050815250909190915060008201518160000160006101000a81548173ffffffffffffffffffffffffffffffffffffffff021916908373ffffffffffffffffffffffffffffffffffffffff160217905550602082015181600101556040820151816002019080519060200190613e1b929190613f83565b5060608201518160030155608082015181600401555050505050565b6000808284019050838110151515613e4b57fe5b8091505092915050565b6000828211151515613e6357fe5b818303905092915050565b6000806000841415613e835760009150613ea2565b8284029050828482811515613e9457fe5b04141515613e9e57fe5b8091505b5092915050565b6000808284811515613eb757fe5b0490508091505092915050565b828054828255906000526020600020908101928215613f00579160200282015b82811115613eff578251825591602001919060010190613ee4565b5b509050613f0d9190613fd0565b5090565b602060405190810160405280600081525090565b815481835581811511613f4c57818360005260206000209182019101613f4b9190613fd0565b5b505050565b815481835581811511613f7e57600502816005028360005260206000209182019101613f7d9190613ff5565b5b505050565b828054828255906000526020600020908101928215613fbf579160200282015b82811115613fbe578251825591602001919060010190613fa3565b5b509050613fcc9190613fd0565b5090565b613ff291905b80821115613fee576000816000905550600101613fd6565b5090565b90565b61406091905b8082111561405c57600080820160006101000a81549073ffffffffffffffffffffffffffffffffffffffff021916905560018201600090556002820160006140439190614063565b6003820160009055600482016000905550600501613ffb565b5090565b90565b50805460008255906000526020600020908101906140819190613fd0565b505600a165627a7a72305820a1cb39cddc9b5a6778ca02a377538d59bfa10a289825930fb1fc3db10ff8e1f70029",
  "source": "/* Copyright (C) 2017 GovBlocks.io\r\n\r\n  This program is free software: you can redistribute it and/or modify\r\n    it under the terms of the GNU General Public License as published by\r\n    the Free Software Foundation, either version 3 of the License, or\r\n    (at your option) any later version.\r\n\r\n  This program is distributed in the hope that it will be useful,\r\n    but WITHOUT ANY WARRANTY; without even the implied warranty of\r\n    MERCHANTABILITY or FITNESS FOR A PARTICULAR PURPOSE.  See the\r\n    GNU General Public License for more details.\r\n\r\n  You should have received a copy of the GNU General Public License\r\n    along with this program.  If not, see http://www.gnu.org/licenses/ */\r\n\r\n\r\npragma solidity ^0.4.8;\r\nimport \"./VotingType.sol\";\r\nimport \"./MemberRoles.sol\";\r\nimport \"./ProposalCategory.sol\";\r\nimport \"./GovernanceData.sol\";\r\nimport \"./zeppelin-solidity/contracts/math/SafeMath.sol\";\r\n// import \"./SafeMath.sol\";\r\n\r\ncontract RankBasedVoting is VotingType\r\n{\r\n    using SafeMath for uint;\r\n    address GDAddress;\r\n    address MRAddress;\r\n    address PCAddress;\r\n    MemberRoles MR;\r\n    ProposalCategory PC;\r\n    GovernanceData  GD;\r\n    mapping (uint=>uint) verdictOptionsByVoteId;\r\n    \r\n        \r\n    function RankBasedVoting()\r\n    {\r\n        uint[] option;\r\n        allVotes.push(proposalVote(0x00,0,option,now,0));\r\n    }\r\n\r\n    function changeAllContractsAddress(address _GDcontractAddress, address _MRcontractAddress, address _PCcontractAddress) public\r\n    {\r\n        GDAddress = _GDcontractAddress;\r\n        MRAddress = _MRcontractAddress;\r\n        PCAddress = _PCcontractAddress;\r\n    }\r\n\r\n    function getTotalVotes()  constant returns (uint votesTotal)\r\n    {\r\n        return(allVotes.length);\r\n    }\r\n\r\n    function increaseTotalVotes() returns (uint _totalVotes)\r\n    {\r\n        _totalVotes = SafeMath.add(totalVotes,1);  \r\n        totalVotes=_totalVotes;\r\n    } \r\n\r\n    function getVoteDetailByid(uint _voteid) public constant returns(address voter,uint proposalId,uint[] verdictChosen,uint dateSubmit,uint voterTokens)\r\n    {\r\n        return(allVotes[_voteid].voter,allVotes[_voteid].proposalId,allVotes[_voteid].verdictChosen,allVotes[_voteid].dateSubmit,allVotes[_voteid].voterTokens);\r\n    }\r\n\r\n    function getProposalRoleVoteLength(uint _proposalId,uint _roleId) public constant returns(uint length)\r\n    {\r\n         length = ProposalRoleVote[_proposalId][_roleId].length;\r\n    }\r\n\r\n    /// @dev Get Vote id of a _roleId against given proposal.\r\n    function getProposalRoleVote(uint _proposalId,uint _roleId,uint _voteArrayIndex) public constant returns(uint voteId) \r\n    {\r\n        voteId = ProposalRoleVote[_proposalId][_roleId][_voteArrayIndex];\r\n    }\r\n\r\n    /// @dev Get the vote count for options of proposal when giving Proposal id and Option index.\r\n    function getProposalVoteAndTokenCountByRoleId(uint _proposalId,uint _roleId,uint _optionIndex) constant returns(uint totalVotes,uint totalToken)\r\n    {\r\n        totalVotes = allProposalVoteAndTokenCount[_proposalId].totalVoteCount[_roleId][_optionIndex];\r\n        totalToken = allProposalVoteAndTokenCount[_proposalId].totalTokenCount[_roleId];\r\n    }\r\n\r\n    /// @dev Get Vote id of a _roleId against given proposal.\r\n    function getProposalRoleVoteArray(uint _proposalId,uint _roleId) public constant returns(uint[] voteId) \r\n    {\r\n        return ProposalRoleVote[_proposalId][_roleId];\r\n    }\r\n\r\n    function addVerdictOption(uint _proposalId,uint[] _paramInt,bytes32[] _paramBytes32,address[] _paramAddress,uint _GNTPayableTokenAmount)\r\n    {\r\n        GD=GovernanceData(GDAddress);\r\n        MR=MemberRoles(MRAddress);\r\n        PC=ProposalCategory(PCAddress);\r\n        GD.payableGNTTokens(_GNTPayableTokenAmount);\r\n\r\n        uint currentVotingId; uint category; uint intermediateVerdict;\r\n        (category,currentVotingId,intermediateVerdict,,) = GD.getProposalDetailsById2(_proposalId);\r\n        uint verdictOptions;\r\n        (,,,verdictOptions) = GD.getProposalCategoryParams(_proposalId);\r\n        require( currentVotingId == 0 && GD.getProposalStatus(_proposalId) == 2);\r\n        require(GD.getBalanceOfMember(msg.sender) != 0);\r\n        uint _categoryId;\r\n        (_categoryId,,,,) = GD.getProposalDetailsById2(_proposalId); \r\n        require(MR.getMemberRoleIdByAddress(msg.sender) == PC.getRoleSequencAtIndex(_categoryId,currentVotingId) && AddressProposalVote[msg.sender][_proposalId] == 0 );\r\n        \r\n        uint8 paramInt; uint8 paramBytes32; uint8 paramAddress;\r\n        (,,,paramInt,paramBytes32,paramAddress,,) = PC.getCategoryDetails(_categoryId);\r\n\r\n        if(paramInt == _paramInt.length && paramBytes32 == _paramBytes32.length && paramAddress == _paramAddress.length)\r\n        {\r\n            verdictOptions = SafeMath.add(verdictOptions,1);\r\n            GD.setProposalCategoryParams(_proposalId,_paramInt,_paramBytes32,_paramAddress,verdictOptions);  \r\n        } \r\n    }\r\n\r\n    function proposalVoting(uint _proposalId,uint[] _verdictChosen)\r\n    {    \r\n        GD=GovernanceData(GDAddress);\r\n        MR=MemberRoles(MRAddress);\r\n        PC=ProposalCategory(PCAddress);\r\n        uint voteValue;\r\n        uint currentVotingId; uint category; uint intermediateVerdict;\r\n        (category,currentVotingId,intermediateVerdict,,) = GD.getProposalDetailsById2(_proposalId);\r\n        uint verdictOptions;\r\n        (,,,verdictOptions) = GD.getProposalCategoryParams(_proposalId);\r\n\r\n        require(GD.getBalanceOfMember(msg.sender) != 0 && GD.getProposalStatus(_proposalId) == 2 && _verdictChosen.length <= verdictOptions);\r\n\r\n        if(currentVotingId == 0)\r\n        {\r\n            for(uint i=0; i<_verdictChosen.length; i++)\r\n            {\r\n                require(_verdictChosen[i] < verdictOptions);\r\n                uint sum = SafeMath.add(sum,(SafeMath.sub(verdictOptions ,i)));\r\n            }\r\n        }   \r\n        else\r\n            require(_verdictChosen[0]==intermediateVerdict || _verdictChosen[0]==0);\r\n\r\n        uint roleId = MR.getMemberRoleIdByAddress(msg.sender);\r\n        require(roleId == PC.getRoleSequencAtIndex(category,currentVotingId));\r\n\r\n        if(AddressProposalVote[msg.sender][_proposalId] == 0)\r\n        {\r\n            uint votelength = getTotalVotes();\r\n            addInTotalVotes(_proposalId,_verdictChosen);\r\n            if(currentVotingId == 0)\r\n            {\r\n                for(i=0; i<_verdictChosen.length; i++)\r\n                {\r\n                    voteValue = SafeMath.div(SafeMath.mul(SafeMath.sub(verdictOptions,i),100),sum);\r\n                    allProposalVoteAndTokenCount[_proposalId].totalVoteCount[roleId][_verdictChosen[i]] = SafeMath.add(allProposalVoteAndTokenCount[_proposalId].totalVoteCount[roleId][_verdictChosen[i]],voteValue);\r\n                }\r\n\r\n            } \r\n            else\r\n            {\r\n                allProposalVoteAndTokenCount[_proposalId].totalVoteCount[roleId][_verdictChosen[0]] = SafeMath.add(allProposalVoteAndTokenCount[_proposalId].totalVoteCount[roleId][_verdictChosen[0]],1);\r\n            }\r\n            \r\n            allProposalVoteAndTokenCount[_proposalId].totalTokenCount[roleId] = SafeMath.add(allProposalVoteAndTokenCount[_proposalId].totalTokenCount[roleId],GD.getBalanceOfMember(msg.sender));\r\n            AddressProposalVote[msg.sender][_proposalId] = votelength;\r\n            ProposalRoleVote[_proposalId][roleId].push(votelength);\r\n            verdictOptionsByVoteId[votelength] = verdictOptions; /// new\r\n        }\r\n        else \r\n            changeMemberVote(_proposalId,_verdictChosen,sum);\r\n    }\r\n\r\n    function addInTotalVotes(uint _proposalId,uint[] _verdictChosen)\r\n    {\r\n        increaseTotalVotes();\r\n        allVotes.push(proposalVote(msg.sender,_proposalId,_verdictChosen,now,GD.getBalanceOfMember(msg.sender)));\r\n    }\r\n\r\n    function changeMemberVote(uint _proposalId,uint[] _verdictChosen,uint _sum)  \r\n    {\r\n        MR=MemberRoles(MRAddress);\r\n        GD=GovernanceData(GDAddress);\r\n        uint roleId = MR.getMemberRoleIdByAddress(msg.sender);\r\n        uint voteId = AddressProposalVote[msg.sender][_proposalId];\r\n        uint previousVerdictOptions = verdictOptionsByVoteId[voteId];\r\n        uint[] verdictChosen = allVotes[voteId].verdictChosen;\r\n\r\n        uint verdictOptions; \r\n        (,,,verdictOptions) = GD.getProposalCategoryParams(_proposalId);\r\n        uint currentVotingId;\r\n        (,currentVotingId,,,) = GD.getProposalDetailsById2(_proposalId);\r\n\r\n        if(currentVotingId == 0)\r\n        {\r\n            for(uint i=0; i<verdictChosen.length; i++)\r\n            {\r\n                uint sum = SafeMath.add(sum,(SafeMath.sub(previousVerdictOptions,i)));\r\n            }\r\n\r\n            for(i=0; i<verdictChosen.length; i++)\r\n            {\r\n                uint voteValue = SafeMath.div(SafeMath.mul(SafeMath.sub(previousVerdictOptions,i),100),sum);\r\n                allProposalVoteAndTokenCount[_proposalId].totalVoteCount[roleId][verdictChosen[i]] = SafeMath.sub(allProposalVoteAndTokenCount[_proposalId].totalVoteCount[roleId][verdictChosen[i]],voteValue);\r\n            }\r\n\r\n            for(i=0; i<_verdictChosen.length; i++)\r\n            {\r\n                voteValue = SafeMath.div(SafeMath.mul((SafeMath.sub(verdictOptions,i)),100),_sum); \r\n                allProposalVoteAndTokenCount[_proposalId].totalVoteCount[roleId][verdictChosen[i]] = SafeMath.add(allProposalVoteAndTokenCount[_proposalId].totalVoteCount[roleId][verdictChosen[i]],voteValue);\r\n            }\r\n        }\r\n        else\r\n        {\r\n            allProposalVoteAndTokenCount[_proposalId].totalVoteCount[roleId][verdictChosen[0]] = SafeMath.sub(allProposalVoteAndTokenCount[_proposalId].totalVoteCount[roleId][verdictChosen[0]],1);\r\n            allProposalVoteAndTokenCount[_proposalId].totalVoteCount[roleId][_verdictChosen[0]] = SafeMath.add(allProposalVoteAndTokenCount[_proposalId].totalVoteCount[roleId][_verdictChosen[0]],1);\r\n        }\r\n        allVotes[voteId].verdictChosen = _verdictChosen;\r\n        verdictOptionsByVoteId[voteId] = verdictOptions;\r\n    }\r\n\r\n    function closeProposalVote(uint _proposalId)\r\n    {\r\n        GD=GovernanceData(GDAddress);\r\n        MR=MemberRoles(MRAddress);\r\n        PC=ProposalCategory(PCAddress);\r\n    \r\n        uint propStatus;\r\n        (,,,,,,propStatus) = GD.getProposalDetailsById1(_proposalId);\r\n        uint currentVotingId; uint category; uint intermediateVerdict;\r\n        (category,currentVotingId,intermediateVerdict,,) = GD.getProposalDetailsById2(_proposalId);\r\n        uint verdictOptions;\r\n        (,,,verdictOptions) = GD.getProposalCategoryParams(_proposalId);\r\n    \r\n        require(GD.checkProposalVoteClosing(_proposalId)==1);\r\n        uint max; uint totalVotes; uint verdictVal; uint majorityVote;\r\n        uint roleId = MR.getMemberRoleIdByAddress(msg.sender);\r\n\r\n        max=0;  \r\n        for(uint i = 0; i < verdictOptions; i++)\r\n        {\r\n            totalVotes = SafeMath.add(totalVotes,allProposalVoteAndTokenCount[_proposalId].totalVoteCount[roleId][i]); \r\n            if(allProposalVoteAndTokenCount[_proposalId].totalVoteCount[roleId][max] < allProposalVoteAndTokenCount[_proposalId].totalVoteCount[roleId][i])\r\n            {  \r\n                max = i; \r\n            }\r\n        }\r\n        verdictVal = allProposalVoteAndTokenCount[_proposalId].totalVoteCount[roleId][max];\r\n        majorityVote= PC.getRoleMajorityVote(category,currentVotingId);\r\n       \r\n        if(SafeMath.div(SafeMath.mul(verdictVal,100),totalVotes)>=majorityVote)\r\n        {   \r\n            currentVotingId = SafeMath.add(currentVotingId,1);\r\n            if(max > 0 )\r\n            {\r\n                if(currentVotingId < PC.getRoleSequencLength(category))\r\n                {\r\n                    GD.updateProposalDetails(_proposalId,currentVotingId,max,0);\r\n                } \r\n                else\r\n                {\r\n                    GD.updateProposalDetails(_proposalId,currentVotingId,max,max);\r\n                    GD.changeProposalStatus(_proposalId,3);\r\n                    PC.actionAfterProposalPass(_proposalId ,category);\r\n                    giveReward_afterFinalDecision(_proposalId);\r\n                }\r\n            }\r\n            else\r\n            {\r\n                GD.updateProposalDetails(_proposalId,currentVotingId,max,max);\r\n                GD.changeProposalStatus(_proposalId,4);\r\n                GD.changePendingProposalStart();\r\n            }      \r\n        } \r\n        else\r\n        {\r\n            GD.updateProposalDetails(_proposalId,currentVotingId,max,max);\r\n            GD.changeProposalStatus(_proposalId,5);\r\n            GD.changePendingProposalStart();\r\n        } \r\n    }\r\n     \r\n    function giveReward_afterFinalDecision(uint _proposalId) public \r\n    {\r\n        address voter; uint[] verdict;uint category;uint roleId; uint reward;uint voteid;\r\n        PC=ProposalCategory(PCAddress); \r\n        GD=GovernanceData(GDAddress);\r\n        uint currentVotingId;uint intermediateVerdict;uint finalVerdict;\r\n        (category,currentVotingId,intermediateVerdict,finalVerdict,) = GD.getProposalDetailsById2(_proposalId);\r\n\r\n        for(uint index=0; index<PC.getRoleSequencLength(category); index++)\r\n        {\r\n            roleId = PC.getRoleSequencAtIndex(category,index);\r\n            reward = GD.getProposalRewardAndComplexity(_proposalId,index);\r\n            for(uint i=0; i<getProposalRoleVoteLength(_proposalId,roleId); i++)\r\n            {\r\n                voteid = getProposalRoleVote(_proposalId,roleId,i);\r\n                verdict = allVotes[voteid].verdictChosen;\r\n                require(verdict[0] == finalVerdict);\r\n                GD.transferTokenAfterFinalReward(voter,reward);  \r\n            }\r\n        }    \r\n    }\r\n}\r\n",
  "sourcePath": "D:\\2. GovBlocks Contracts\\GovBlocks Git-Master\\contracts\\RankBasedVoting.sol",
  "compiler": {
    "name": "solc",
    "version": "0.4.18+commit.9cf6e910.Emscripten.clang"
  },
  "schemaVersion": "1.0.1",
  "updatedAt": "2017-12-06T06:03:30.395Z"
}