{
  "contractName": "RankBasedVoting",
  "abi": [
    {
      "constant": false,
      "inputs": [
        {
          "name": "_GDcontractAddress",
          "type": "address"
        },
        {
          "name": "_MRcontractAddress",
          "type": "address"
        },
        {
          "name": "_PCcontractAddress",
          "type": "address"
        }
      ],
      "name": "changeAllContractsAddress",
      "outputs": [],
      "payable": false,
      "stateMutability": "nonpayable",
      "type": "function"
    },
    {
      "constant": false,
      "inputs": [
        {
          "name": "_proposalId",
          "type": "uint256"
        },
        {
          "name": "_paramInt",
          "type": "uint256[]"
        },
        {
          "name": "_paramBytes32",
          "type": "bytes32[]"
        },
        {
          "name": "_paramAddress",
          "type": "address[]"
        },
        {
          "name": "_GNTPayableTokenAmount",
          "type": "uint256"
        }
      ],
      "name": "addVerdictOption",
      "outputs": [],
      "payable": false,
      "stateMutability": "nonpayable",
      "type": "function"
    },
    {
      "constant": false,
      "inputs": [
        {
          "name": "_proposalId",
          "type": "uint256"
        }
      ],
      "name": "giveReward_afterFinalDecision",
      "outputs": [
        {
          "name": "",
          "type": "uint256"
        }
      ],
      "payable": false,
      "stateMutability": "nonpayable",
      "type": "function"
    },
    {
      "constant": true,
      "inputs": [
        {
          "name": "_proposalId",
          "type": "uint256"
        },
        {
          "name": "_verdictChosen",
          "type": "uint256[]"
        },
        {
          "name": "_sum",
          "type": "uint256"
        }
      ],
      "name": "totalVotes",
      "outputs": [
        {
          "name": "",
          "type": "uint256"
        }
      ],
      "payable": false,
      "stateMutability": "view",
      "type": "function"
    },
    {
      "constant": false,
      "inputs": [
        {
          "name": "_proposalId",
          "type": "uint256"
        },
        {
          "name": "_verdictChosen",
          "type": "uint256[]"
        },
        {
          "name": "_sum",
          "type": "uint256"
        }
      ],
      "name": "changeMemberVote",
      "outputs": [
        {
          "name": "voteId",
          "type": "uint256[]"
        }
      ],
      "payable": false,
      "stateMutability": "nonpayable",
      "type": "function"
    },
    {
      "constant": true,
      "inputs": [
        {
          "name": "_proposalId",
          "type": "uint256"
        },
        {
          "name": "_roleId",
          "type": "uint256"
        }
      ],
      "name": "getProposalRoleVoteArray",
      "outputs": [
        {
          "name": "voteId",
          "type": "uint256[]"
        }
      ],
      "payable": false,
      "stateMutability": "view",
      "type": "function"
    },
    {
      "constant": false,
      "inputs": [
        {
          "name": "_proposalId",
          "type": "uint256"
        },
        {
          "name": "_verdictChosen",
          "type": "uint256[]"
        }
      ],
      "name": "increaseTotalVotes",
      "outputs": [
        {
          "name": "_totalVotes",
          "type": "uint256"
        }
      ],
      "payable": false,
      "stateMutability": "nonpayable",
      "type": "function"
    },
    {
      "constant": false,
      "inputs": [
        {
          "name": "_proposalId",
          "type": "uint256"
        },
        {
          "name": "_verdictChosen",
          "type": "uint256[]"
        }
      ],
      "name": "proposalVoting",
      "outputs": [
        {
          "name": "length",
          "type": "uint256"
        }
      ],
      "payable": false,
      "stateMutability": "nonpayable",
      "type": "function"
    },
    {
      "constant": true,
      "inputs": [
        {
          "name": "_proposalId",
          "type": "uint256"
        },
        {
          "name": "_roleId",
          "type": "uint256"
        },
        {
          "name": "_optionIndex",
          "type": "uint256"
        }
      ],
      "name": "getProposalRoleVoteLength",
      "outputs": [
        {
          "name": "length",
          "type": "uint256"
        },
        {
          "name": "totalToken",
          "type": "uint256"
        }
      ],
      "payable": false,
      "stateMutability": "view",
      "type": "function"
    },
    {
      "constant": true,
      "inputs": [
        {
          "name": "_proposalId",
          "type": "uint256"
        },
        {
          "name": "_roleId",
          "type": "uint256"
        },
        {
          "name": "_optionIndex",
          "type": "uint256"
        },
        {
          "name": "_paramAddress",
          "type": "address[]"
        }
      ],
      "name": "getProposalVoteAndTokenCountByRoleId",
      "outputs": [
        {
          "name": "totalVotes",
          "type": "uint256"
        },
        {
          "name": "totalToken",
          "type": "uint256"
        }
      ],
      "payable": false,
      "stateMutability": "view",
      "type": "function"
    },
    {
      "constant": true,
      "inputs": [
        {
          "name": "_voteid",
          "type": "uint256"
        },
        {
          "name": "_paramInt",
          "type": "uint256[]"
        },
        {
          "name": "_paramBytes32",
          "type": "bytes32[]"
        },
        {
          "name": "_paramAddress",
          "type": "address[]"
        }
      ],
      "name": "getVoteDetailByid",
      "outputs": [
        {
          "name": "voter",
          "type": "address"
        },
        {
          "name": "proposalId",
          "type": "uint256"
        },
        {
          "name": "verdictChosen",
          "type": "uint256[]"
        },
        {
          "name": "dateSubmit",
          "type": "uint256"
        },
        {
          "name": "voterTokens",
          "type": "uint256"
        }
      ],
      "payable": false,
      "stateMutability": "view",
      "type": "function"
    },
    {
      "constant": true,
      "inputs": [
        {
          "name": "_voteid",
          "type": "uint256"
        },
        {
          "name": "_roleId",
          "type": "uint256"
        },
        {
          "name": "_voteArrayIndex",
          "type": "uint256"
        }
      ],
      "name": "getTotalVotes",
      "outputs": [
        {
          "name": "votesTotal",
          "type": "uint256"
        },
        {
          "name": "proposalId",
          "type": "uint256"
        },
        {
          "name": "verdictChosen",
          "type": "uint256[]"
        },
        {
          "name": "dateSubmit",
          "type": "uint256"
        },
        {
          "name": "voterTokens",
          "type": "uint256"
        }
      ],
      "payable": false,
      "stateMutability": "view",
      "type": "function"
    },
    {
      "constant": true,
      "inputs": [
        {
          "name": "_proposalId",
          "type": "uint256"
        },
        {
          "name": "_roleId",
          "type": "uint256"
        },
        {
          "name": "_voteArrayIndex",
          "type": "uint256"
        }
      ],
      "name": "getProposalRoleVote",
      "outputs": [
        {
          "name": "voteId",
          "type": "uint256"
        }
      ],
      "payable": false,
      "stateMutability": "view",
      "type": "function"
    },
    {
      "constant": false,
      "inputs": [
        {
          "name": "_proposalId",
          "type": "uint256"
        },
        {
          "name": "_roleId",
          "type": "uint256"
        },
        {
          "name": "_voteArrayIndex",
          "type": "uint256"
        }
      ],
      "name": "closeProposalVote",
      "outputs": [
        {
          "name": "voteId",
          "type": "uint256"
        },
        {
          "name": "proposalId",
          "type": "uint256"
        },
        {
          "name": "dateSubmit",
          "type": "uint256"
        },
        {
          "name": "voterTokens",
          "type": "uint256"
        }
      ],
      "payable": false,
      "stateMutability": "nonpayable",
      "type": "function"
    },
    {
      "constant": false,
      "inputs": [
        {
          "name": "_proposalId",
          "type": "uint256"
        },
        {
          "name": "_verdictChosen",
          "type": "uint256[]"
        }
      ],
      "name": "addInTotalVotes",
      "outputs": [],
      "payable": false,
      "stateMutability": "nonpayable",
      "type": "function"
    },
    {
      "constant": true,
      "inputs": [
        {
          "name": "_voteid",
          "type": "uint256"
        },
        {
          "name": "_verdictChosen",
          "type": "uint256[]"
        }
      ],
      "name": "getAllVoteValueAgainstOption",
      "outputs": [
        {
          "name": "val",
          "type": "uint256[]"
        }
      ],
      "payable": false,
      "stateMutability": "view",
      "type": "function"
    },
    {
      "constant": true,
      "inputs": [
        {
          "name": "_voteid",
          "type": "uint256"
        }
      ],
      "name": "getAllVoteValueAgainstOption",
      "outputs": [
        {
          "name": "val",
          "type": "uint256[]"
        }
      ],
      "payable": false,
      "stateMutability": "nonpayable",
      "type": "constructor"
    },
    {
      "inputs": [],
      "payable": false,
      "stateMutability": "nonpayable",
      "type": "constructor"
    }
  ],
  "bytecode": "0x606060405234156200001057600080fd5b6000600380548060010182816200002891906200015d565b9160005260206000209060050201600060a060405190810160405280600073ffffffffffffffffffffffffffffffffffffffff1681526020016000815260200185805480602002602001604051908101604052809291908181526020018280548015620000b557602002820191906000526020600020905b815481526020019060010190808311620000a0575b505050505081526020014281526020016000815250909190915060008201518160000160006101000a81548173ffffffffffffffffffffffffffffffffffffffff021916908373ffffffffffffffffffffffffffffffffffffffff1602179055506020820151816001015560408201518160020190805190602001906200013e92919062000192565b50606082015181600301556080820151816004015550505050620002a2565b8154818355818115116200018d576005028160050283600052602060002091820191016200018c9190620001e4565b5b505050565b828054828255906000526020600020908101928215620001d1579160200282015b82811115620001d0578251825591602001919060010190620001b3565b5b509050620001e0919062000257565b5090565b6200025491905b808211156200025057600080820160006101000a81549073ffffffffffffffffffffffffffffffffffffffff021916905560018201600090556002820160006200023691906200027f565b6003820160009055600482016000905550600501620001eb565b5090565b90565b6200027c91905b80821115620002785760008160009055506001016200025e565b5090565b90565b50805460008255906000526020600020908101906200029f919062000257565b50565b61415580620002b26000396000f3006060604052600436106100e5576000357c0100000000000000000000000000000000000000000000000000000000900463ffffffff168062edf46e146100ea57806307a88848146101615780630a256ae11461024d5780630d15fd771461027057806317a1ef7a146102995780631f2f0f1a1461030557806328c09cb31461038657806332a2da8d146103af5780633ae2f7d4146104125780634a261ce31461045257806366cf51de146104a25780639a0e7d6614610562578063c3647eb91461058b578063c46994ce146105d4578063d7e31d95146105f7578063de52dd981461065a575b600080fd5b34156100f557600080fd5b61015f600480803573ffffffffffffffffffffffffffffffffffffffff1690602001909190803573ffffffffffffffffffffffffffffffffffffffff1690602001909190803573ffffffffffffffffffffffffffffffffffffffff169060200190919050506106d2565b005b341561016c57600080fd5b61024b600480803590602001909190803590602001908201803590602001908080602002602001604051908101604052809392919081815260200183836020028082843782019150505050505091908035906020019082018035906020019080806020026020016040519081016040528093929190818152602001838360200280828437820191505050505050919080359060200190820180359060200190808060200260200160405190810160405280939291908181526020018383602002808284378201915050505050509190803590602001909190505061079a565b005b341561025857600080fd5b61026e600480803590602001909190505061128e565b005b341561027b57600080fd5b6102836117eb565b6040518082815260200191505060405180910390f35b34156102a457600080fd5b6103036004808035906020019091908035906020019082018035906020019080806020026020016040519081016040528093929190818152602001838360200280828437820191505050505050919080359060200190919050506117f1565b005b341561031057600080fd5b61032f6004808035906020019091908035906020019091905050611f3d565b6040518080602001828103825283818151815260200191508051906020019060200280838360005b83811015610372578082015181840152602081019050610357565b505050509050019250505060405180910390f35b341561039157600080fd5b610399611fc0565b6040518082815260200191505060405180910390f35b34156103ba57600080fd5b610410600480803590602001909190803590602001908201803590602001908080602002602001604051908101604052809392919081815260200183836020028082843782019150505050505091905050611fdb565b005b341561041d57600080fd5b61043c6004808035906020019091908035906020019091905050612b11565b6040518082815260200191505060405180910390f35b341561045d57600080fd5b6104856004808035906020019091908035906020019091908035906020019091905050612b43565b604051808381526020018281526020019250505060405180910390f35b34156104ad57600080fd5b6104c36004808035906020019091905050612bb1565b604051808673ffffffffffffffffffffffffffffffffffffffff1673ffffffffffffffffffffffffffffffffffffffff16815260200185815260200180602001848152602001838152602001828103825285818151815260200191508051906020019060200280838360005b8381101561054a57808201518184015260208101905061052f565b50505050905001965050505050505060405180910390f35b341561056d57600080fd5b610575612ce8565b6040518082815260200191505060405180910390f35b341561059657600080fd5b6105be6004808035906020019091908035906020019091908035906020019091905050612cf5565b6040518082815260200191505060405180910390f35b34156105df57600080fd5b6105f56004808035906020019091905050612d3d565b005b341561060257600080fd5b610658600480803590602001909190803590602001908201803590602001908080602002602001604051908101604052809392919081815260200183836020028082843782019150505050505091905050613c93565b005b341561066557600080fd5b61067b6004808035906020019091905050613e6b565b6040518080602001828103825283818151815260200191508051906020019060200280838360005b838110156106be5780820151818401526020810190506106a3565b505050509050019250505060405180910390f35b82600560006101000a81548173ffffffffffffffffffffffffffffffffffffffff021916908373ffffffffffffffffffffffffffffffffffffffff16021790555081600660006101000a81548173ffffffffffffffffffffffffffffffffffffffff021916908373ffffffffffffffffffffffffffffffffffffffff16021790555080600760006101000a81548173ffffffffffffffffffffffffffffffffffffffff021916908373ffffffffffffffffffffffffffffffffffffffff160217905550505050565b600080600080600080600080600560009054906101000a900473ffffffffffffffffffffffffffffffffffffffff16600a60006101000a81548173ffffffffffffffffffffffffffffffffffffffff021916908373ffffffffffffffffffffffffffffffffffffffff160217905550600660009054906101000a900473ffffffffffffffffffffffffffffffffffffffff16600860006101000a81548173ffffffffffffffffffffffffffffffffffffffff021916908373ffffffffffffffffffffffffffffffffffffffff160217905550600760009054906101000a900473ffffffffffffffffffffffffffffffffffffffff16600960006101000a81548173ffffffffffffffffffffffffffffffffffffffff021916908373ffffffffffffffffffffffffffffffffffffffff160217905550600a60009054906101000a900473ffffffffffffffffffffffffffffffffffffffff1673ffffffffffffffffffffffffffffffffffffffff16639d828cdc8a6040518263ffffffff167c010000000000000000000000000000000000000000000000000000000002815260040180828152602001915050600060405180830381600087803b151561095f57600080fd5b6102c65a03f1151561097057600080fd5b505050600a60009054906101000a900473ffffffffffffffffffffffffffffffffffffffff1673ffffffffffffffffffffffffffffffffffffffff1663ec9ccfff8e600060405160a001526040518263ffffffff167c01000000000000000000000000000000000000000000000000000000000281526004018082815260200191505060a060405180830381600087803b1515610a0c57600080fd5b6102c65a03f11515610a1d57600080fd5b50505060405180519060200180519060200180519060200180519060200180519050905050809850819a50829950505050600a60009054906101000a900473ffffffffffffffffffffffffffffffffffffffff1673ffffffffffffffffffffffffffffffffffffffff166334a3210a8e6000604051608001526040518263ffffffff167c010000000000000000000000000000000000000000000000000000000002815260040180828152602001915050608060405180830381600087803b1515610ae757600080fd5b6102c65a03f11515610af857600080fd5b5050506040518051906020018051906020018051906020018051905090919250909150905080955050600088148015610be457506002600a60009054906101000a900473ffffffffffffffffffffffffffffffffffffffff1673ffffffffffffffffffffffffffffffffffffffff1663401853b78f6000604051602001526040518263ffffffff167c010000000000000000000000000000000000000000000000000000000002815260040180828152602001915050602060405180830381600087803b1515610bc757600080fd5b6102c65a03f11515610bd857600080fd5b50505060405180519050145b1515610bef57600080fd5b6000600a60009054906101000a900473ffffffffffffffffffffffffffffffffffffffff1673ffffffffffffffffffffffffffffffffffffffff166335c42dbb336000604051602001526040518263ffffffff167c0100000000000000000000000000000000000000000000000000000000028152600401808273ffffffffffffffffffffffffffffffffffffffff1673ffffffffffffffffffffffffffffffffffffffff168152602001915050602060405180830381600087803b1515610cb657600080fd5b6102c65a03f11515610cc757600080fd5b5050506040518051905014151515610cde57600080fd5b600a60009054906101000a900473ffffffffffffffffffffffffffffffffffffffff1673ffffffffffffffffffffffffffffffffffffffff1663ec9ccfff8e600060405160a001526040518263ffffffff167c01000000000000000000000000000000000000000000000000000000000281526004018082815260200191505060a060405180830381600087803b1515610d7757600080fd5b6102c65a03f11515610d8857600080fd5b505050604051805190602001805190602001805190602001805190602001805190509091925090915090505080945050600960009054906101000a900473ffffffffffffffffffffffffffffffffffffffff1673ffffffffffffffffffffffffffffffffffffffff16639deeab20858a6000604051602001526040518363ffffffff167c01000000000000000000000000000000000000000000000000000000000281526004018083815260200182815260200192505050602060405180830381600087803b1515610e5957600080fd5b6102c65a03f11515610e6a57600080fd5b50505060405180519050600860009054906101000a900473ffffffffffffffffffffffffffffffffffffffff1673ffffffffffffffffffffffffffffffffffffffff1663beae32ba336000604051602001526040518263ffffffff167c0100000000000000000000000000000000000000000000000000000000028152600401808273ffffffffffffffffffffffffffffffffffffffff1673ffffffffffffffffffffffffffffffffffffffff168152602001915050602060405180830381600087803b1515610f3957600080fd5b6102c65a03f11515610f4a57600080fd5b50505060405180519050148015610fb157506000600260003373ffffffffffffffffffffffffffffffffffffffff1673ffffffffffffffffffffffffffffffffffffffff16815260200190815260200160002060008f815260200190815260200160002054145b1515610fbc57600080fd5b600960009054906101000a900473ffffffffffffffffffffffffffffffffffffffff1673ffffffffffffffffffffffffffffffffffffffff1663b0a4aaee85600060405161010001526040518263ffffffff167c01000000000000000000000000000000000000000000000000000000000281526004018082815260200191505061010060405180830381600087803b151561105757600080fd5b6102c65a03f1151561106857600080fd5b505050604051805190602001805190602001805190602001805190602001805190602001805190602001805190602001805190509091929394959650909192939495509091929394509050508093508194508295505050508b518360ff161480156110d657508a518260ff16145b80156110e5575089518160ff16145b1561127f576110f5856001613edc565b9450600a60009054906101000a900473ffffffffffffffffffffffffffffffffffffffff1673ffffffffffffffffffffffffffffffffffffffff1663da77c3818e8e8e8e8a6040518663ffffffff167c010000000000000000000000000000000000000000000000000000000002815260040180868152602001806020018060200180602001858152602001848103845288818151815260200191508051906020019060200280838360005b838110156111bc5780820151818401526020810190506111a1565b50505050905001848103835287818151815260200191508051906020019060200280838360005b838110156111fe5780820151818401526020810190506111e3565b50505050905001848103825286818151815260200191508051906020019060200280838360005b83811015611240578082015181840152602081019050611225565b5050505090500198505050505050505050600060405180830381600087803b151561126a57600080fd5b6102c65a03f1151561127b57600080fd5b5050505b50505050505050505050505050565b6000806000806000806000806000806000600760009054906101000a900473ffffffffffffffffffffffffffffffffffffffff16600960006101000a81548173ffffffffffffffffffffffffffffffffffffffff021916908373ffffffffffffffffffffffffffffffffffffffff160217905550600560009054906101000a900473ffffffffffffffffffffffffffffffffffffffff16600a60006101000a81548173ffffffffffffffffffffffffffffffffffffffff021916908373ffffffffffffffffffffffffffffffffffffffff160217905550600a60009054906101000a900473ffffffffffffffffffffffffffffffffffffffff1673ffffffffffffffffffffffffffffffffffffffff1663ec9ccfff8d600060405160a001526040518263ffffffff167c01000000000000000000000000000000000000000000000000000000000281526004018082815260200191505060a060405180830381600087803b15156113fe57600080fd5b6102c65a03f1151561140f57600080fd5b5050506040518051906020018051906020018051906020018051906020018051905050809650819750829850839c5050505050600091505b600960009054906101000a900473ffffffffffffffffffffffffffffffffffffffff1673ffffffffffffffffffffffffffffffffffffffff166318b0211b8a6000604051602001526040518263ffffffff167c010000000000000000000000000000000000000000000000000000000002815260040180828152602001915050602060405180830381600087803b15156114e057600080fd5b6102c65a03f115156114f157600080fd5b505050604051805190508210156117dd57600960009054906101000a900473ffffffffffffffffffffffffffffffffffffffff1673ffffffffffffffffffffffffffffffffffffffff16639deeab208a846000604051602001526040518363ffffffff167c01000000000000000000000000000000000000000000000000000000000281526004018083815260200182815260200192505050602060405180830381600087803b15156115a357600080fd5b6102c65a03f115156115b457600080fd5b505050604051805190509750600a60009054906101000a900473ffffffffffffffffffffffffffffffffffffffff1673ffffffffffffffffffffffffffffffffffffffff1663e7d6bf288d846000604051602001526040518363ffffffff167c01000000000000000000000000000000000000000000000000000000000281526004018083815260200182815260200192505050602060405180830381600087803b151561166157600080fd5b6102c65a03f1151561167257600080fd5b505050604051805190509650600090505b61168d8c89612b11565b8110156117d05761169f8c8983612cf5565b95506003868154811015156116b057fe5b90600052602060002090600502016002019950828a60008154811015156116d357fe5b9060005260206000209001541415156116eb57600080fd5b600a60009054906101000a900473ffffffffffffffffffffffffffffffffffffffff1673ffffffffffffffffffffffffffffffffffffffff166307dbff7b8c896040518363ffffffff167c0100000000000000000000000000000000000000000000000000000000028152600401808373ffffffffffffffffffffffffffffffffffffffff1673ffffffffffffffffffffffffffffffffffffffff16815260200182815260200192505050600060405180830381600087803b15156117af57600080fd5b6102c65a03f115156117c057600080fd5b5050508080600101915050611683565b8180600101925050611447565b505050505050505050505050565b60045481565b600080600080600080600080600660009054906101000a900473ffffffffffffffffffffffffffffffffffffffff16600860006101000a81548173ffffffffffffffffffffffffffffffffffffffff021916908373ffffffffffffffffffffffffffffffffffffffff160217905550600560009054906101000a900473ffffffffffffffffffffffffffffffffffffffff16600a60006101000a81548173ffffffffffffffffffffffffffffffffffffffff021916908373ffffffffffffffffffffffffffffffffffffffff160217905550600860009054906101000a900473ffffffffffffffffffffffffffffffffffffffff1673ffffffffffffffffffffffffffffffffffffffff1663beae32ba336000604051602001526040518263ffffffff167c0100000000000000000000000000000000000000000000000000000000028152600401808273ffffffffffffffffffffffffffffffffffffffff1673ffffffffffffffffffffffffffffffffffffffff168152602001915050602060405180830381600087803b151561198857600080fd5b6102c65a03f1151561199957600080fd5b505050604051805190509750600260003373ffffffffffffffffffffffffffffffffffffffff1673ffffffffffffffffffffffffffffffffffffffff16815260200190815260200160002060008c8152602001908152602001600020549650600387815481101515611a0757fe5b90600052602060002090600502016002019550600a60009054906101000a900473ffffffffffffffffffffffffffffffffffffffff1673ffffffffffffffffffffffffffffffffffffffff166334a3210a8c6000604051608001526040518263ffffffff167c010000000000000000000000000000000000000000000000000000000002815260040180828152602001915050608060405180830381600087803b1515611ab357600080fd5b6102c65a03f11515611ac457600080fd5b5050506040518051906020018051906020018051906020018051905090919250909150905080955050600a60009054906101000a900473ffffffffffffffffffffffffffffffffffffffff1673ffffffffffffffffffffffffffffffffffffffff1663ec9ccfff8c600060405160a001526040518263ffffffff167c01000000000000000000000000000000000000000000000000000000000281526004018082815260200191505060a060405180830381600087803b1515611b8657600080fd5b6102c65a03f11515611b9757600080fd5b505050604051805190602001805190602001805190602001805190602001805190509091929350909150905050809350506000831415611d9c57600091505b600b600088815260200190815260200160002080549050821015611cc7578582815481101515611c0257fe5b9060005260206000209001549350600b600088815260200190815260200160002082815481101515611c3057fe5b9060005260206000209001549050611c7f6000808d815260200190815260200160002060000160008a815260200190815260200160002060008681526020019081526020016000205482613efa565b6000808d815260200190815260200160002060000160008a81526020019081526020016000206000868152602001908152602001600020819055508180600101925050611bd6565b600091505b8951821015611d97578982815181101515611ce357fe5b906020019060200201519350611d0c611d06611cff8785613efa565b6064613f13565b8a613f4e565b9050611d4f6000808d815260200190815260200160002060000160008a815260200190815260200160002060008681526020019081526020016000205482613edc565b6000808d815260200190815260200160002060000160008a81526020019081526020016000206000868152602001908152602001600020819055508180600101925050611ccc565b611efb565b611df86000808d815260200190815260200160002060000160008a81526020019081526020016000206000886000815481101515611dd657fe5b9060005260206000209001548152602001908152602001600020546001613efa565b6000808d815260200190815260200160002060000160008a81526020019081526020016000206000886000815481101515611e2f57fe5b906000526020600020900154815260200190815260200160002081905550611ea76000808d815260200190815260200160002060000160008a815260200190815260200160002060008c6000815181101515611e8757fe5b906020019060200201518152602001908152602001600020546001613edc565b6000808d815260200190815260200160002060000160008a815260200190815260200160002060008c6000815181101515611ede57fe5b906020019060200201518152602001908152602001600020819055505b89600388815481101515611f0b57fe5b90600052602060002090600502016002019080519060200190611f2f929190613f69565b505050505050505050505050565b611f45613fb6565b600160008481526020019081526020016000206000838152602001908152602001600020805480602002602001604051908101604052809291908181526020018280548015611fb357602002820191906000526020600020905b815481526020019060010190808311611f9f575b5050505050905092915050565b6000611fcf6004546001613edc565b90508060048190555090565b6000806000806000806000806000600560009054906101000a900473ffffffffffffffffffffffffffffffffffffffff16600a60006101000a81548173ffffffffffffffffffffffffffffffffffffffff021916908373ffffffffffffffffffffffffffffffffffffffff160217905550600660009054906101000a900473ffffffffffffffffffffffffffffffffffffffff16600860006101000a81548173ffffffffffffffffffffffffffffffffffffffff021916908373ffffffffffffffffffffffffffffffffffffffff160217905550600760009054906101000a900473ffffffffffffffffffffffffffffffffffffffff16600960006101000a81548173ffffffffffffffffffffffffffffffffffffffff021916908373ffffffffffffffffffffffffffffffffffffffff160217905550600a60009054906101000a900473ffffffffffffffffffffffffffffffffffffffff1673ffffffffffffffffffffffffffffffffffffffff1663ec9ccfff8c600060405160a001526040518263ffffffff167c01000000000000000000000000000000000000000000000000000000000281526004018082815260200191505060a060405180830381600087803b15156121ab57600080fd5b6102c65a03f115156121bc57600080fd5b50505060405180519060200180519060200180519060200180519060200180519050905050809850819a50829950505050600a60009054906101000a900473ffffffffffffffffffffffffffffffffffffffff1673ffffffffffffffffffffffffffffffffffffffff166334a3210a8c6000604051608001526040518263ffffffff167c010000000000000000000000000000000000000000000000000000000002815260040180828152602001915050608060405180830381600087803b151561228657600080fd5b6102c65a03f1151561229757600080fd5b50505060405180519060200180519060200180519060200180519050909192509091509050809550506000600a60009054906101000a900473ffffffffffffffffffffffffffffffffffffffff1673ffffffffffffffffffffffffffffffffffffffff166335c42dbb336000604051602001526040518263ffffffff167c0100000000000000000000000000000000000000000000000000000000028152600401808273ffffffffffffffffffffffffffffffffffffffff1673ffffffffffffffffffffffffffffffffffffffff168152602001915050602060405180830381600087803b151561238757600080fd5b6102c65a03f1151561239857600080fd5b505050604051805190501415801561246357506002600a60009054906101000a900473ffffffffffffffffffffffffffffffffffffffff1673ffffffffffffffffffffffffffffffffffffffff1663401853b78d6000604051602001526040518263ffffffff167c010000000000000000000000000000000000000000000000000000000002815260040180828152602001915050602060405180830381600087803b151561244657600080fd5b6102c65a03f1151561245757600080fd5b50505060405180519050145b80156124705750848a5111155b151561247b57600080fd5b60008814156124de57600093505b89518410156124d957848a858151811015156124a157fe5b906020019060200201511015156124b757600080fd5b6124ca836124c58787613efa565b613edc565b92508380600101945050612489565b612528565b858a60008151811015156124ee57fe5b90602001906020020151148061251c575060008a600081518110151561251057fe5b90602001906020020151145b151561252757600080fd5b5b600860009054906101000a900473ffffffffffffffffffffffffffffffffffffffff1673ffffffffffffffffffffffffffffffffffffffff1663beae32ba336000604051602001526040518263ffffffff167c0100000000000000000000000000000000000000000000000000000000028152600401808273ffffffffffffffffffffffffffffffffffffffff1673ffffffffffffffffffffffffffffffffffffffff168152602001915050602060405180830381600087803b15156125ed57600080fd5b6102c65a03f115156125fe57600080fd5b505050604051805190509150600960009054906101000a900473ffffffffffffffffffffffffffffffffffffffff1673ffffffffffffffffffffffffffffffffffffffff16639deeab20888a6000604051602001526040518363ffffffff167c01000000000000000000000000000000000000000000000000000000000281526004018083815260200182815260200192505050602060405180830381600087803b15156126ab57600080fd5b6102c65a03f115156126bc57600080fd5b50505060405180519050821415156126d357600080fd5b6000600260003373ffffffffffffffffffffffffffffffffffffffff1673ffffffffffffffffffffffffffffffffffffffff16815260200190815260200160002060008d8152602001908152602001600020541415612af857612734612ce8565b90506127408b8b613c93565b600088141561286c57600093505b89518410156128675761277461276e6127678787613efa565b6064613f13565b84613f4e565b9850600b6000828152602001908152602001600020805480600101828161279b9190613fca565b916000526020600020900160008b909190915055506128086000808d8152602001908152602001600020600001600084815260200190815260200160002060008c878151811015156127e957fe5b906020019060200201518152602001908152602001600020548a613edc565b6000808d8152602001908152602001600020600001600084815260200190815260200160002060008c8781518110151561283e57fe5b90602001906020020151815260200190815260200160002081905550838060010194505061274e565b61291a565b6128c66000808d8152602001908152602001600020600001600084815260200190815260200160002060008c60008151811015156128a657fe5b906020019060200201518152602001908152602001600020546001613edc565b6000808d8152602001908152602001600020600001600084815260200190815260200160002060008c60008151811015156128fd57fe5b906020019060200201518152602001908152602001600020819055505b612a296000808d8152602001908152602001600020600101600084815260200190815260200160002054600a60009054906101000a900473ffffffffffffffffffffffffffffffffffffffff1673ffffffffffffffffffffffffffffffffffffffff166335c42dbb336000604051602001526040518263ffffffff167c0100000000000000000000000000000000000000000000000000000000028152600401808273ffffffffffffffffffffffffffffffffffffffff1673ffffffffffffffffffffffffffffffffffffffff168152602001915050602060405180830381600087803b1515612a0957600080fd5b6102c65a03f11515612a1a57600080fd5b50505060405180519050613edc565b6000808d815260200190815260200160002060010160008481526020019081526020016000208190555080600260003373ffffffffffffffffffffffffffffffffffffffff1673ffffffffffffffffffffffffffffffffffffffff16815260200190815260200160002060008d815260200190815260200160002081905550600160008c815260200190815260200160002060008381526020019081526020016000208054806001018281612ade9190613fca565b916000526020600020900160008390919091505550612b04565b612b038b8b856117f1565b5b5050505050505050505050565b600060016000848152602001908152602001600020600083815260200190815260200160002080549050905092915050565b600080600080868152602001908152602001600020600001600085815260200190815260200160002060008481526020019081526020016000205491506000808681526020019081526020016000206001016000858152602001908152602001600020549050935093915050565b600080612bbc613fb6565b600080600386815481101515612bce57fe5b906000526020600020906005020160000160009054906101000a900473ffffffffffffffffffffffffffffffffffffffff16600387815481101515612c0f57fe5b906000526020600020906005020160010154600388815481101515612c3057fe5b9060005260206000209060050201600201600389815481101515612c5057fe5b90600052602060002090600502016003015460038a815481101515612c7157fe5b90600052602060002090600502016004015482805480602002602001604051908101604052809291908181526020018280548015612cce57602002820191906000526020600020905b815481526020019060010190808311612cba575b505050505092509450945094509450945091939590929450565b6000600380549050905090565b600060016000858152602001908152602001600020600084815260200190815260200160002082815481101515612d2857fe5b90600052602060002090015490509392505050565b6000806000806000806000806000806000600560009054906101000a900473ffffffffffffffffffffffffffffffffffffffff16600a60006101000a81548173ffffffffffffffffffffffffffffffffffffffff021916908373ffffffffffffffffffffffffffffffffffffffff160217905550600660009054906101000a900473ffffffffffffffffffffffffffffffffffffffff16600860006101000a81548173ffffffffffffffffffffffffffffffffffffffff021916908373ffffffffffffffffffffffffffffffffffffffff160217905550600760009054906101000a900473ffffffffffffffffffffffffffffffffffffffff16600960006101000a81548173ffffffffffffffffffffffffffffffffffffffff021916908373ffffffffffffffffffffffffffffffffffffffff160217905550600a60009054906101000a900473ffffffffffffffffffffffffffffffffffffffff1673ffffffffffffffffffffffffffffffffffffffff1663f65ad7508d600060405160e001526040518263ffffffff167c01000000000000000000000000000000000000000000000000000000000281526004018082815260200191505060e060405180830381600087803b1515612f1057600080fd5b6102c65a03f11515612f2157600080fd5b50505060405180519060200180519060200180519060200180519060200180519060200180519060200180519050909192939495509091929394509091929350909192509091509050809b5050600a60009054906101000a900473ffffffffffffffffffffffffffffffffffffffff1673ffffffffffffffffffffffffffffffffffffffff1663ec9ccfff8d600060405160a001526040518263ffffffff167c01000000000000000000000000000000000000000000000000000000000281526004018082815260200191505060a060405180830381600087803b151561300757600080fd5b6102c65a03f1151561301857600080fd5b50505060405180519060200180519060200180519060200180519060200180519050905050809a50819c50829b50505050600a60009054906101000a900473ffffffffffffffffffffffffffffffffffffffff1673ffffffffffffffffffffffffffffffffffffffff166334a3210a8d6000604051608001526040518263ffffffff167c010000000000000000000000000000000000000000000000000000000002815260040180828152602001915050608060405180830381600087803b15156130e257600080fd5b6102c65a03f115156130f357600080fd5b50505060405180519060200180519060200180519060200180519050909192509091509050809750506001600a60009054906101000a900473ffffffffffffffffffffffffffffffffffffffff1673ffffffffffffffffffffffffffffffffffffffff166340b2723b8e6000604051602001526040518263ffffffff167c010000000000000000000000000000000000000000000000000000000002815260040180828152602001915050602060405180830381600087803b15156131b757600080fd5b6102c65a03f115156131c857600080fd5b5050506040518051905060ff161415156131e157600080fd5b600860009054906101000a900473ffffffffffffffffffffffffffffffffffffffff1673ffffffffffffffffffffffffffffffffffffffff1663beae32ba336000604051602001526040518263ffffffff167c0100000000000000000000000000000000000000000000000000000000028152600401808273ffffffffffffffffffffffffffffffffffffffff1673ffffffffffffffffffffffffffffffffffffffff168152602001915050602060405180830381600087803b15156132a657600080fd5b6102c65a03f115156132b757600080fd5b50505060405180519050915060009550600090505b8681101561339e57613315856000808f81526020019081526020016000206000016000858152602001908152602001600020600084815260200190815260200160002054613edc565b94506000808d815260200190815260200160002060000160008381526020019081526020016000206000828152602001908152602001600020546000808e815260200190815260200160002060000160008481526020019081526020016000206000888152602001908152602001600020541015613391578095505b80806001019150506132cc565b6000808d815260200190815260200160002060000160008381526020019081526020016000206000878152602001908152602001600020549350600960009054906101000a900473ffffffffffffffffffffffffffffffffffffffff1673ffffffffffffffffffffffffffffffffffffffff166302e929c88a8c6000604051602001526040518363ffffffff167c01000000000000000000000000000000000000000000000000000000000281526004018083815260200182815260200192505050602060405180830381600087803b151561347957600080fd5b6102c65a03f1151561348a57600080fd5b505050604051805190509250826134ab6134a5866064613f13565b87613f4e565b101515613a82576134bd8a6001613edc565b9950600086111561387a57600960009054906101000a900473ffffffffffffffffffffffffffffffffffffffff1673ffffffffffffffffffffffffffffffffffffffff166318b0211b8a6000604051602001526040518263ffffffff167c010000000000000000000000000000000000000000000000000000000002815260040180828152602001915050602060405180830381600087803b151561356157600080fd5b6102c65a03f1151561357257600080fd5b505050604051805190508a101561364557600a60009054906101000a900473ffffffffffffffffffffffffffffffffffffffff1673ffffffffffffffffffffffffffffffffffffffff16631f15d5e28d8c8960006040518563ffffffff167c010000000000000000000000000000000000000000000000000000000002815260040180858152602001848152602001838152602001828152602001945050505050600060405180830381600087803b151561362c57600080fd5b6102c65a03f1151561363d57600080fd5b505050613875565b600a60009054906101000a900473ffffffffffffffffffffffffffffffffffffffff1673ffffffffffffffffffffffffffffffffffffffff16631f15d5e28d8c898a6040518563ffffffff167c010000000000000000000000000000000000000000000000000000000002815260040180858152602001848152602001838152602001828152602001945050505050600060405180830381600087803b15156136ed57600080fd5b6102c65a03f115156136fe57600080fd5b505050600a60009054906101000a900473ffffffffffffffffffffffffffffffffffffffff1673ffffffffffffffffffffffffffffffffffffffff1663c12da3ae8d60036040518363ffffffff167c01000000000000000000000000000000000000000000000000000000000281526004018083815260200182815260200192505050600060405180830381600087803b151561379a57600080fd5b6102c65a03f115156137ab57600080fd5b505050600960009054906101000a900473ffffffffffffffffffffffffffffffffffffffff1673ffffffffffffffffffffffffffffffffffffffff1663db0c4f798d8b6000604051602001526040518363ffffffff167c01000000000000000000000000000000000000000000000000000000000281526004018083815260200182815260200192505050602060405180830381600087803b151561384f57600080fd5b6102c65a03f1151561386057600080fd5b50505060405180519050506138748c61128e565b5b613a7d565b600a60009054906101000a900473ffffffffffffffffffffffffffffffffffffffff1673ffffffffffffffffffffffffffffffffffffffff16631f15d5e28d8c898a6040518563ffffffff167c010000000000000000000000000000000000000000000000000000000002815260040180858152602001848152602001838152602001828152602001945050505050600060405180830381600087803b151561392257600080fd5b6102c65a03f1151561393357600080fd5b505050600a60009054906101000a900473ffffffffffffffffffffffffffffffffffffffff1673ffffffffffffffffffffffffffffffffffffffff1663c12da3ae8d60046040518363ffffffff167c01000000000000000000000000000000000000000000000000000000000281526004018083815260200182815260200192505050600060405180830381600087803b15156139cf57600080fd5b6102c65a03f115156139e057600080fd5b505050600a60009054906101000a900473ffffffffffffffffffffffffffffffffffffffff1673ffffffffffffffffffffffffffffffffffffffff1663e7030a676040518163ffffffff167c0100000000000000000000000000000000000000000000000000000000028152600401600060405180830381600087803b1515613a6857600080fd5b6102c65a03f11515613a7957600080fd5b5050505b613c85565b600a60009054906101000a900473ffffffffffffffffffffffffffffffffffffffff1673ffffffffffffffffffffffffffffffffffffffff16631f15d5e28d8c898a6040518563ffffffff167c010000000000000000000000000000000000000000000000000000000002815260040180858152602001848152602001838152602001828152602001945050505050600060405180830381600087803b1515613b2a57600080fd5b6102c65a03f11515613b3b57600080fd5b505050600a60009054906101000a900473ffffffffffffffffffffffffffffffffffffffff1673ffffffffffffffffffffffffffffffffffffffff1663c12da3ae8d60056040518363ffffffff167c01000000000000000000000000000000000000000000000000000000000281526004018083815260200182815260200192505050600060405180830381600087803b1515613bd757600080fd5b6102c65a03f11515613be857600080fd5b505050600a60009054906101000a900473ffffffffffffffffffffffffffffffffffffffff1673ffffffffffffffffffffffffffffffffffffffff1663e7030a676040518163ffffffff167c0100000000000000000000000000000000000000000000000000000000028152600401600060405180830381600087803b1515613c7057600080fd5b6102c65a03f11515613c8157600080fd5b5050505b505050505050505050505050565b613c9b611fc0565b5060038054806001018281613cb09190613ff6565b9160005260206000209060050201600060a0604051908101604052803373ffffffffffffffffffffffffffffffffffffffff168152602001868152602001858152602001428152602001600a60009054906101000a900473ffffffffffffffffffffffffffffffffffffffff1673ffffffffffffffffffffffffffffffffffffffff166335c42dbb336000604051602001526040518263ffffffff167c0100000000000000000000000000000000000000000000000000000000028152600401808273ffffffffffffffffffffffffffffffffffffffff1673ffffffffffffffffffffffffffffffffffffffff168152602001915050602060405180830381600087803b1515613dbf57600080fd5b6102c65a03f11515613dd057600080fd5b50505060405180519050815250909190915060008201518160000160006101000a81548173ffffffffffffffffffffffffffffffffffffffff021916908373ffffffffffffffffffffffffffffffffffffffff160217905550602082015181600101556040820151816002019080519060200190613e4f929190614028565b5060608201518160030155608082015181600401555050505050565b613e73613fb6565b600b6000838152602001908152602001600020805480602002602001604051908101604052809291908181526020018280548015613ed057602002820191906000526020600020905b815481526020019060010190808311613ebc575b50505050509050919050565b6000808284019050838110151515613ef057fe5b8091505092915050565b6000828211151515613f0857fe5b818303905092915050565b6000806000841415613f285760009150613f47565b8284029050828482811515613f3957fe5b04141515613f4357fe5b8091505b5092915050565b6000808284811515613f5c57fe5b0490508091505092915050565b828054828255906000526020600020908101928215613fa5579160200282015b82811115613fa4578251825591602001919060010190613f89565b5b509050613fb29190614075565b5090565b602060405190810160405280600081525090565b815481835581811511613ff157818360005260206000209182019101613ff09190614075565b5b505050565b81548183558181151161402357600502816005028360005260206000209182019101614022919061409a565b5b505050565b828054828255906000526020600020908101928215614064579160200282015b82811115614063578251825591602001919060010190614048565b5b5090506140719190614075565b5090565b61409791905b8082111561409357600081600090555060010161407b565b5090565b90565b61410591905b8082111561410157600080820160006101000a81549073ffffffffffffffffffffffffffffffffffffffff021916905560018201600090556002820160006140e89190614108565b60038201600090556004820160009055506005016140a0565b5090565b90565b50805460008255906000526020600020908101906141269190614075565b505600a165627a7a72305820c0150f776eb0bdcca9a8dc00e4e08d60f8ce88b425287641e407483de39032420029",
  "source": "/* Copyright (C) 2017 GovBlocks.io\r\n\r\n  This program is free software: you can redistribute it and/or modify\r\n    it under the terms of the GNU General Public License as published by\r\n    the Free Software Foundation, either version 3 of the License, or\r\n    (at your option) any later version.\r\n\r\n  This program is distributed in the hope that it will be useful,\r\n    but WITHOUT ANY WARRANTY; without even the implied warranty of\r\n    MERCHANTABILITY or FITNESS FOR A PARTICULAR PURPOSE.  See the\r\n    GNU General Public License for more details.\r\n\r\n  You should have received a copy of the GNU General Public License\r\n    along with this program.  If not, see http://www.gnu.org/licenses/ */\r\n\r\n\r\npragma solidity ^0.4.8;\r\nimport \"./VotingType.sol\";\r\nimport \"./MemberRoles.sol\";\r\nimport \"./ProposalCategory.sol\";\r\nimport \"./GovernanceData.sol\";\r\nimport \"./zeppelin-solidity/contracts/math/SafeMath.sol\";\r\n// import \"./SafeMath.sol\";\r\n\r\ncontract RankBasedVoting is VotingType\r\n{\r\n    using SafeMath for uint;\r\n    address GDAddress;\r\n    address MRAddress;\r\n    address PCAddress;\r\n    MemberRoles MR;\r\n    ProposalCategory PC;\r\n    GovernanceData GD;\r\n    mapping(uint=>uint[]) allVoteValueAgainstOption;\r\n        \r\n    function RankBasedVoting()\r\n    {\r\n        uint[] option;\r\n        allVotes.push(proposalVote(0x00,0,option,now,0));\r\n    }\r\n\r\n    function changeAllContractsAddress(address _GDcontractAddress, address _MRcontractAddress, address _PCcontractAddress) public\r\n    {\r\n        GDAddress = _GDcontractAddress;\r\n        MRAddress = _MRcontractAddress;\r\n        PCAddress = _PCcontractAddress;\r\n    }\r\n\r\n    function getTotalVotes()  constant returns (uint votesTotal)\r\n    {\r\n        return(allVotes.length);\r\n    }\r\n\r\n    function increaseTotalVotes() returns (uint _totalVotes)\r\n    {\r\n        _totalVotes = SafeMath.add(totalVotes,1);  \r\n        totalVotes=_totalVotes;\r\n    } \r\n\r\n    function getVoteDetailByid(uint _voteid) public constant returns(address voter,uint proposalId,uint[] verdictChosen,uint dateSubmit,uint voterTokens)\r\n    {\r\n        return(allVotes[_voteid].voter,allVotes[_voteid].proposalId,allVotes[_voteid].verdictChosen,allVotes[_voteid].dateSubmit,allVotes[_voteid].voterTokens);\r\n    }\r\n\r\n    function getProposalRoleVoteLength(uint _proposalId,uint _roleId) public constant returns(uint length)\r\n    {\r\n         length = ProposalRoleVote[_proposalId][_roleId].length;\r\n    }\r\n\r\n    /// @dev Get Vote id of a _roleId against given proposal.\r\n    function getProposalRoleVote(uint _proposalId,uint _roleId,uint _voteArrayIndex) public constant returns(uint voteId) \r\n    {\r\n        voteId = ProposalRoleVote[_proposalId][_roleId][_voteArrayIndex];\r\n    }\r\n\r\n    /// @dev Get the vote count for options of proposal when giving Proposal id and Option index.\r\n    function getProposalVoteAndTokenCountByRoleId(uint _proposalId,uint _roleId,uint _optionIndex) constant returns(uint totalVotes,uint totalToken)\r\n    {\r\n        totalVotes = allProposalVoteAndTokenCount[_proposalId].totalVoteCount[_roleId][_optionIndex];\r\n        totalToken = allProposalVoteAndTokenCount[_proposalId].totalTokenCount[_roleId];\r\n    }\r\n\r\n    /// @dev Get Vote id of a _roleId against given proposal.\r\n    function getProposalRoleVoteArray(uint _proposalId,uint _roleId) public constant returns(uint[] voteId) \r\n    {\r\n        return ProposalRoleVote[_proposalId][_roleId];\r\n    }\r\n\r\n    function addVerdictOption(uint _proposalId,uint[] _paramInt,bytes32[] _paramBytes32,address[] _paramAddress,uint _GNTPayableTokenAmount)\r\n    {\r\n        GD=GovernanceData(GDAddress);\r\n        MR=MemberRoles(MRAddress);\r\n        PC=ProposalCategory(PCAddress);\r\n        GD.payableGNTTokens(_GNTPayableTokenAmount);\r\n\r\n        uint currentVotingId; uint category; uint intermediateVerdict;\r\n        (category,currentVotingId,intermediateVerdict,,) = GD.getProposalDetailsById2(_proposalId);\r\n        uint verdictOptions;\r\n        (,,,verdictOptions) = GD.getProposalCategoryParams(_proposalId);\r\n        require( currentVotingId == 0 && GD.getProposalStatus(_proposalId) == 2);\r\n        require(GD.getBalanceOfMember(msg.sender) != 0);\r\n        uint _categoryId;\r\n        (_categoryId,,,,) = GD.getProposalDetailsById2(_proposalId); \r\n        require(MR.getMemberRoleIdByAddress(msg.sender) == PC.getRoleSequencAtIndex(_categoryId,currentVotingId) && AddressProposalVote[msg.sender][_proposalId] == 0 );\r\n        \r\n        uint8 paramInt; uint8 paramBytes32; uint8 paramAddress;\r\n        (,,,paramInt,paramBytes32,paramAddress,,) = PC.getCategoryDetails(_categoryId);\r\n\r\n        if(paramInt == _paramInt.length && paramBytes32 == _paramBytes32.length && paramAddress == _paramAddress.length)\r\n        {\r\n            verdictOptions = SafeMath.add(verdictOptions,1);\r\n            GD.setProposalCategoryParams(_proposalId,_paramInt,_paramBytes32,_paramAddress,verdictOptions);  \r\n        } \r\n    }\r\n\r\n    function proposalVoting(uint _proposalId,uint[] _verdictChosen)\r\n    {    \r\n        GD=GovernanceData(GDAddress);\r\n        MR=MemberRoles(MRAddress);\r\n        PC=ProposalCategory(PCAddress);\r\n        uint voteValue;\r\n        uint currentVotingId; uint category; uint intermediateVerdict;\r\n        (category,currentVotingId,intermediateVerdict,,) = GD.getProposalDetailsById2(_proposalId);\r\n        uint verdictOptions;\r\n        (,,,verdictOptions) = GD.getProposalCategoryParams(_proposalId);\r\n\r\n        require(GD.getBalanceOfMember(msg.sender) != 0 && GD.getProposalStatus(_proposalId) == 2 && _verdictChosen.length <= verdictOptions);\r\n\r\n        if(currentVotingId == 0)\r\n        {\r\n            for(uint i=0; i<_verdictChosen.length; i++)\r\n            {\r\n                require(_verdictChosen[i] < verdictOptions);\r\n                uint sum = SafeMath.add(sum,(SafeMath.sub(verdictOptions ,i)));\r\n            }\r\n        }   \r\n        else\r\n            require(_verdictChosen[0]==intermediateVerdict || _verdictChosen[0]==0);\r\n\r\n        uint roleId = MR.getMemberRoleIdByAddress(msg.sender);\r\n        require(roleId == PC.getRoleSequencAtIndex(category,currentVotingId));\r\n\r\n        if(AddressProposalVote[msg.sender][_proposalId] == 0)\r\n        {\r\n            uint votelength = getTotalVotes();\r\n            addInTotalVotes(_proposalId,_verdictChosen);\r\n            if(currentVotingId == 0)\r\n            {\r\n                for(i=0; i<_verdictChosen.length; i++)\r\n                {\r\n                    voteValue = SafeMath.div(SafeMath.mul(SafeMath.sub(verdictOptions,i),100),sum);\r\n                    allVoteValueAgainstOption[votelength].push(voteValue);\r\n                    allProposalVoteAndTokenCount[_proposalId].totalVoteCount[roleId][_verdictChosen[i]] = SafeMath.add(allProposalVoteAndTokenCount[_proposalId].totalVoteCount[roleId][_verdictChosen[i]],voteValue);\r\n                }\r\n\r\n            } \r\n            else\r\n            {\r\n                allProposalVoteAndTokenCount[_proposalId].totalVoteCount[roleId][_verdictChosen[0]] = SafeMath.add(allProposalVoteAndTokenCount[_proposalId].totalVoteCount[roleId][_verdictChosen[0]],1);\r\n            }\r\n            \r\n            allProposalVoteAndTokenCount[_proposalId].totalTokenCount[roleId] = SafeMath.add(allProposalVoteAndTokenCount[_proposalId].totalTokenCount[roleId],GD.getBalanceOfMember(msg.sender));\r\n            AddressProposalVote[msg.sender][_proposalId] = votelength;\r\n            ProposalRoleVote[_proposalId][roleId].push(votelength);\r\n        }\r\n        else \r\n            changeMemberVote(_proposalId,_verdictChosen,sum);\r\n    }\r\n\r\n    function addInTotalVotes(uint _proposalId,uint[] _verdictChosen)\r\n    {\r\n        increaseTotalVotes();\r\n        allVotes.push(proposalVote(msg.sender,_proposalId,_verdictChosen,now,GD.getBalanceOfMember(msg.sender)));\r\n    }\r\n    \r\n    function getAllVoteValueAgainstOption(uint _voteid) public constant returns(uint[] val)\r\n    {\r\n        return allVoteValueAgainstOption[_voteid];\r\n    }\r\n\r\n\r\n    function changeMemberVote(uint _proposalId,uint[] _verdictChosen,uint _sum)  \r\n    {\r\n        MR=MemberRoles(MRAddress);\r\n        GD=GovernanceData(GDAddress);\r\n        uint roleId = MR.getMemberRoleIdByAddress(msg.sender);\r\n        uint voteId = AddressProposalVote[msg.sender][_proposalId];\r\n        uint[] verdictChosen = allVotes[voteId].verdictChosen;\r\n        uint verdictOptions; uint verdict;\r\n        (,,,verdictOptions) = GD.getProposalCategoryParams(_proposalId);\r\n        uint currentVotingId;\r\n        (,currentVotingId,,,) = GD.getProposalDetailsById2(_proposalId);\r\n\r\n        if(currentVotingId == 0)\r\n        {\r\n            for(uint i=0; i<allVoteValueAgainstOption[voteId].length; i++)\r\n            {\r\n                verdict = verdictChosen[i];\r\n                uint voteValue = allVoteValueAgainstOption[voteId][i];\r\n                allProposalVoteAndTokenCount[_proposalId].totalVoteCount[roleId][verdict] = SafeMath.sub(allProposalVoteAndTokenCount[_proposalId].totalVoteCount[roleId][verdict],voteValue);\r\n            }\r\n\r\n            for(i=0; i<_verdictChosen.length; i++)\r\n            {\r\n                verdict = _verdictChosen[i];\r\n                voteValue = SafeMath.div(SafeMath.mul((SafeMath.sub(verdictOptions,i)),100),_sum); \r\n                allProposalVoteAndTokenCount[_proposalId].totalVoteCount[roleId][verdict] = SafeMath.add(allProposalVoteAndTokenCount[_proposalId].totalVoteCount[roleId][verdict],voteValue);\r\n            }\r\n        }\r\n        else\r\n        {\r\n            allProposalVoteAndTokenCount[_proposalId].totalVoteCount[roleId][verdictChosen[0]] = SafeMath.sub(allProposalVoteAndTokenCount[_proposalId].totalVoteCount[roleId][verdictChosen[0]],1);\r\n            allProposalVoteAndTokenCount[_proposalId].totalVoteCount[roleId][_verdictChosen[0]] = SafeMath.add(allProposalVoteAndTokenCount[_proposalId].totalVoteCount[roleId][_verdictChosen[0]],1);\r\n        }\r\n        allVotes[voteId].verdictChosen = _verdictChosen;\r\n    }\r\n\r\n    function closeProposalVote(uint _proposalId)\r\n    {\r\n        GD=GovernanceData(GDAddress);\r\n        MR=MemberRoles(MRAddress);\r\n        PC=ProposalCategory(PCAddress);\r\n    \r\n        uint propStatus;\r\n        (,,,,,,propStatus) = GD.getProposalDetailsById1(_proposalId);\r\n        uint currentVotingId; uint category; uint intermediateVerdict;\r\n        (category,currentVotingId,intermediateVerdict,,) = GD.getProposalDetailsById2(_proposalId);\r\n        uint verdictOptions;\r\n        (,,,verdictOptions) = GD.getProposalCategoryParams(_proposalId);\r\n    \r\n        require(GD.checkProposalVoteClosing(_proposalId)==1);\r\n        uint max; uint totalVotes; uint verdictVal; uint majorityVote;\r\n        uint roleId = MR.getMemberRoleIdByAddress(msg.sender);\r\n\r\n        max=0;  \r\n        for(uint i = 0; i < verdictOptions; i++)\r\n        {\r\n            totalVotes = SafeMath.add(totalVotes,allProposalVoteAndTokenCount[_proposalId].totalVoteCount[roleId][i]); \r\n            if(allProposalVoteAndTokenCount[_proposalId].totalVoteCount[roleId][max] < allProposalVoteAndTokenCount[_proposalId].totalVoteCount[roleId][i])\r\n            {  \r\n                max = i; \r\n            }\r\n        }\r\n        verdictVal = allProposalVoteAndTokenCount[_proposalId].totalVoteCount[roleId][max];\r\n        majorityVote= PC.getRoleMajorityVote(category,currentVotingId);\r\n       \r\n        if(SafeMath.div(SafeMath.mul(verdictVal,100),totalVotes)>=majorityVote)\r\n        {   \r\n            currentVotingId = SafeMath.add(currentVotingId,1);\r\n            if(max > 0 )\r\n            {\r\n                if(currentVotingId < PC.getRoleSequencLength(category))\r\n                {\r\n                    GD.updateProposalDetails(_proposalId,currentVotingId,max,0);\r\n                } \r\n                else\r\n                {\r\n                    GD.updateProposalDetails(_proposalId,currentVotingId,max,max);\r\n                    GD.changeProposalStatus(_proposalId,3);\r\n                    PC.actionAfterProposalPass(_proposalId ,category);\r\n                    giveReward_afterFinalDecision(_proposalId);\r\n                }\r\n            }\r\n            else\r\n            {\r\n                GD.updateProposalDetails(_proposalId,currentVotingId,max,max);\r\n                GD.changeProposalStatus(_proposalId,4);\r\n                GD.changePendingProposalStart();\r\n            }      \r\n        } \r\n        else\r\n        {\r\n            GD.updateProposalDetails(_proposalId,currentVotingId,max,max);\r\n            GD.changeProposalStatus(_proposalId,5);\r\n            GD.changePendingProposalStart();\r\n        } \r\n    }\r\n     \r\n    function giveReward_afterFinalDecision(uint _proposalId) public \r\n    {\r\n        address voter; uint[] verdict;uint category;uint roleId; uint reward;uint voteid;\r\n        PC=ProposalCategory(PCAddress); \r\n        GD=GovernanceData(GDAddress);\r\n        uint currentVotingId;uint intermediateVerdict;uint finalVerdict;\r\n        (category,currentVotingId,intermediateVerdict,finalVerdict,) = GD.getProposalDetailsById2(_proposalId);\r\n\r\n        for(uint index=0; index<PC.getRoleSequencLength(category); index++)\r\n        {\r\n            roleId = PC.getRoleSequencAtIndex(category,index);\r\n            reward = GD.getProposalRewardAndComplexity(_proposalId,index);\r\n            for(uint i=0; i<getProposalRoleVoteLength(_proposalId,roleId); i++)\r\n            {\r\n                voteid = getProposalRoleVote(_proposalId,roleId,i);\r\n                verdict = allVotes[voteid].verdictChosen;\r\n                require(verdict[0] == finalVerdict);\r\n                GD.transferTokenAfterFinalReward(voter,reward);  \r\n            }\r\n        }    \r\n    }\r\n}\r\n",
  "sourcePath": "D:\\2. GovBlocks Contracts\\GovBlocks Git-Master\\contracts\\RankBasedVoting.sol",
  "compiler": {
    "name": "solc",
    "version": "0.4.18+commit.9cf6e910.Emscripten.clang"
  },
  "schemaVersion": "1.0.1",
  "updatedAt": "2017-12-05T13:22:26.939Z"
}