{
  "contractName": "SimpleVoting",
  "abi": [
    {
      "constant": false,
      "inputs": [
        {
          "name": "_GDcontractAddress",
          "type": "address"
        },
        {
          "name": "_MRcontractAddress",
          "type": "address"
        },
        {
          "name": "_PCcontractAddress",
          "type": "address"
        }
      ],
      "name": "changeAllContractsAddress",
      "outputs": [],
      "payable": false,
      "stateMutability": "nonpayable",
      "type": "function"
    },
    {
      "constant": false,
      "inputs": [
        {
          "name": "_proposalId",
          "type": "uint256"
        },
        {
          "name": "_paramInt",
          "type": "uint256[]"
        },
        {
          "name": "_paramBytes32",
          "type": "bytes32[]"
        },
        {
          "name": "_paramAddress",
          "type": "address[]"
        },
        {
          "name": "_GNTPayableTokenAmount",
          "type": "uint256"
        }
      ],
      "name": "addVerdictOption",
      "outputs": [
        {
          "name": "",
          "type": "uint256"
        }
      ],
      "payable": false,
      "stateMutability": "nonpayable",
      "type": "function"
    },
    {
      "constant": false,
      "inputs": [
        {
          "name": "_proposalId",
          "type": "uint256"
        },
        {
          "name": "_roleId",
          "type": "uint256"
        }
      ],
      "name": "giveReward_afterFinalDecision",
      "outputs": [
        {
          "name": "",
          "type": "uint256"
        }
      ],
      "payable": false,
      "stateMutability": "nonpayable",
      "type": "function"
    },
    {
      "constant": true,
      "inputs": [
        {
          "name": "_proposalId",
          "type": "uint256"
        },
        {
          "name": "_roleId",
          "type": "uint256"
        }
      ],
      "name": "totalVotes",
      "outputs": [
        {
          "name": "",
          "type": "uint256"
        }
      ],
      "payable": false,
      "stateMutability": "view",
      "type": "function"
    },
    {
      "constant": true,
      "inputs": [
        {
          "name": "_proposalId",
          "type": "uint256"
        },
        {
          "name": "_roleId",
          "type": "uint256"
        }
      ],
      "name": "getProposalRoleVoteArray",
      "outputs": [
        {
          "name": "voteId",
          "type": "uint256[]"
        }
      ],
      "payable": false,
      "stateMutability": "view",
      "type": "function"
    },
    {
      "constant": false,
      "inputs": [
        {
          "name": "_proposalId",
          "type": "uint256"
        },
        {
          "name": "_verdictChosen",
          "type": "uint256[]"
        }
      ],
      "name": "increaseTotalVotes",
      "outputs": [
        {
          "name": "_totalVotes",
          "type": "uint256"
        }
      ],
      "payable": false,
      "stateMutability": "nonpayable",
      "type": "function"
    },
    {
      "constant": false,
      "inputs": [
        {
          "name": "_proposalId",
          "type": "uint256"
        },
        {
          "name": "_verdictChosen",
          "type": "uint256[]"
        },
        {
          "name": "_optionIndex",
          "type": "uint256"
        }
      ],
      "name": "proposalVoting",
      "outputs": [
        {
          "name": "length",
          "type": "uint256"
        },
        {
          "name": "totalToken",
          "type": "uint256"
        }
      ],
      "payable": false,
      "stateMutability": "nonpayable",
      "type": "function"
    },
    {
      "constant": true,
      "inputs": [
        {
          "name": "_proposalId",
          "type": "uint256"
        },
        {
          "name": "_roleId",
          "type": "uint256"
        },
        {
          "name": "_optionIndex",
          "type": "uint256"
        },
        {
          "name": "_paramAddress",
          "type": "address[]"
        }
      ],
      "name": "getProposalRoleVoteLength",
      "outputs": [
        {
          "name": "length",
          "type": "uint256"
        },
        {
          "name": "totalToken",
          "type": "uint256"
        }
      ],
      "payable": false,
      "stateMutability": "view",
      "type": "function"
    },
    {
      "constant": false,
      "inputs": [
        {
          "name": "_proposalId",
          "type": "uint256"
        },
        {
          "name": "_verdictChosen",
          "type": "uint256[]"
        },
        {
          "name": "_optionIndex",
          "type": "uint256"
        },
        {
          "name": "_paramAddress",
          "type": "address[]"
        }
      ],
      "name": "changeMemberVote",
      "outputs": [
        {
          "name": "totalVotes",
          "type": "uint256"
        },
        {
          "name": "totalToken",
          "type": "uint256"
        },
        {
          "name": "verdictChosen",
          "type": "uint256[]"
        },
        {
          "name": "dateSubmit",
          "type": "uint256"
        },
        {
          "name": "voterTokens",
          "type": "uint256"
        }
      ],
      "payable": false,
      "stateMutability": "nonpayable",
      "type": "function"
    },
    {
      "constant": true,
      "inputs": [
        {
          "name": "_proposalId",
          "type": "uint256"
        },
        {
          "name": "_roleId",
          "type": "uint256"
        },
        {
          "name": "_optionIndex",
          "type": "uint256"
        },
        {
          "name": "_paramAddress",
          "type": "address[]"
        }
      ],
      "name": "getProposalVoteAndTokenCountByRoleId",
      "outputs": [
        {
          "name": "totalVotes",
          "type": "uint256"
        },
        {
          "name": "totalToken",
          "type": "uint256"
        },
        {
          "name": "verdictChosen",
          "type": "uint256[]"
        },
        {
          "name": "dateSubmit",
          "type": "uint256"
        },
        {
          "name": "voterTokens",
          "type": "uint256"
        }
      ],
      "payable": false,
      "stateMutability": "view",
      "type": "function"
    },
    {
      "constant": true,
      "inputs": [
        {
          "name": "_voteid",
          "type": "uint256"
        },
        {
          "name": "_verdictChosen",
          "type": "uint256"
        }
      ],
      "name": "getVoteDetailByid",
      "outputs": [
        {
          "name": "voter",
          "type": "address"
        },
        {
          "name": "proposalId",
          "type": "uint256"
        },
        {
          "name": "verdictChosen",
          "type": "uint256[]"
        },
        {
          "name": "dateSubmit",
          "type": "uint256"
        },
        {
          "name": "voterTokens",
          "type": "uint256"
        }
      ],
      "payable": false,
      "stateMutability": "view",
      "type": "function"
    },
    {
      "constant": true,
      "inputs": [
        {
          "name": "_proposalId",
          "type": "uint256"
        },
        {
          "name": "_roleId",
          "type": "uint256"
        },
        {
          "name": "_voteArrayIndex",
          "type": "uint256"
        }
      ],
      "name": "getTotalVotes",
      "outputs": [
        {
          "name": "votesTotal",
          "type": "uint256"
        }
      ],
      "payable": false,
      "stateMutability": "view",
      "type": "function"
    },
    {
      "constant": true,
      "inputs": [
        {
          "name": "_proposalId",
          "type": "uint256"
        },
        {
          "name": "_roleId",
          "type": "uint256"
        },
        {
          "name": "_voteArrayIndex",
          "type": "uint256"
        }
      ],
      "name": "getProposalRoleVote",
      "outputs": [
        {
          "name": "voteId",
          "type": "uint256"
        }
      ],
      "payable": false,
      "stateMutability": "view",
      "type": "function"
    },
    {
      "constant": false,
      "inputs": [
        {
          "name": "_proposalId",
          "type": "uint256"
        }
      ],
      "name": "closeProposalVote",
      "outputs": [
        {
          "name": "voter",
          "type": "address"
        },
        {
          "name": "proposalId",
          "type": "uint256"
        },
        {
          "name": "dateSubmit",
          "type": "uint256"
        },
        {
          "name": "voterTokens",
          "type": "uint256"
        }
      ],
      "payable": false,
      "stateMutability": "nonpayable",
      "type": "function"
    },
    {
      "inputs": [],
      "payable": false,
      "stateMutability": "nonpayable",
      "type": "constructor"
    }
  ],
  "bytecode": "0x606060405234156200001057600080fd5b6000600380548060010182816200002891906200015d565b9160005260206000209060050201600060a060405190810160405280600073ffffffffffffffffffffffffffffffffffffffff1681526020016000815260200185805480602002602001604051908101604052809291908181526020018280548015620000b557602002820191906000526020600020905b815481526020019060010190808311620000a0575b505050505081526020014281526020016000815250909190915060008201518160000160006101000a81548173ffffffffffffffffffffffffffffffffffffffff021916908373ffffffffffffffffffffffffffffffffffffffff1602179055506020820151816001015560408201518160020190805190602001906200013e92919062000192565b50606082015181600301556080820151816004015550505050620002a2565b8154818355818115116200018d576005028160050283600052602060002091820191016200018c9190620001e4565b5b505050565b828054828255906000526020600020908101928215620001d1579160200282015b82811115620001d0578251825591602001919060010190620001b3565b5b509050620001e0919062000257565b5090565b6200025491905b808211156200025057600080820160006101000a81549073ffffffffffffffffffffffffffffffffffffffff021916905560018201600090556002820160006200023691906200027f565b6003820160009055600482016000905550600501620001eb565b5090565b90565b6200027c91905b80821115620002785760008160009055506001016200025e565b5090565b90565b50805460008255906000526020600020908101906200029f919062000257565b50565b61391d80620002b26000396000f3006060604052600436106100cf576000357c0100000000000000000000000000000000000000000000000000000000900463ffffffff168062edf46e146100d457806307a888481461014b5780630a256ae1146102375780630d15fd771461025a5780631f2f0f1a1461028357806328c09cb31461030457806332a2da8d1461032d5780633ae2f7d4146103905780633e4af1c9146103d05780634a261ce31461043357806366cf51de146104835780639a0e7d6614610543578063c3647eb91461056c578063c46994ce146105b5575b600080fd5b34156100df57600080fd5b610149600480803573ffffffffffffffffffffffffffffffffffffffff1690602001909190803573ffffffffffffffffffffffffffffffffffffffff1690602001909190803573ffffffffffffffffffffffffffffffffffffffff169060200190919050506105d8565b005b341561015657600080fd5b61023560048080359060200190919080359060200190820180359060200190808060200260200160405190810160405280939291908181526020018383602002808284378201915050505050509190803590602001908201803590602001908080602002602001604051908101604052809392919081815260200183836020028082843782019150505050505091908035906020019082018035906020019080806020026020016040519081016040528093929190818152602001838360200280828437820191505050505050919080359060200190919050506106a0565b005b341561024257600080fd5b61025860048080359060200190919050506110fb565b005b341561026557600080fd5b61026d61165d565b6040518082815260200191505060405180910390f35b341561028e57600080fd5b6102ad6004808035906020019091908035906020019091905050611663565b6040518080602001828103825283818151815260200191508051906020019060200280838360005b838110156102f05780820151818401526020810190506102d5565b505050509050019250505060405180910390f35b341561030f57600080fd5b6103176116e6565b6040518082815260200191505060405180910390f35b341561033857600080fd5b61038e600480803590602001909190803590602001908201803590602001908080602002602001604051908101604052809392919081815260200183836020028082843782019150505050505091905050611701565b005b341561039b57600080fd5b6103ba600480803590602001909190803590602001909190505061220a565b6040518082815260200191505060405180910390f35b34156103db57600080fd5b61043160048080359060200190919080359060200190820180359060200190808060200260200160405190810160405280939291908181526020018383602002808284378201915050505050509190505061223c565b005b341561043e57600080fd5b61046660048080359060200190919080359060200190919080359060200190919050506125a1565b604051808381526020018281526020019250505060405180910390f35b341561048e57600080fd5b6104a4600480803590602001909190505061260f565b604051808673ffffffffffffffffffffffffffffffffffffffff1673ffffffffffffffffffffffffffffffffffffffff16815260200185815260200180602001848152602001838152602001828103825285818151815260200191508051906020019060200280838360005b8381101561052b578082015181840152602081019050610510565b50505050905001965050505050505060405180910390f35b341561054e57600080fd5b610556612746565b6040518082815260200191505060405180910390f35b341561057757600080fd5b61059f6004808035906020019091908035906020019091908035906020019091905050612753565b6040518082815260200191505060405180910390f35b34156105c057600080fd5b6105d6600480803590602001909190505061279b565b005b82600560006101000a81548173ffffffffffffffffffffffffffffffffffffffff021916908373ffffffffffffffffffffffffffffffffffffffff16021790555081600660006101000a81548173ffffffffffffffffffffffffffffffffffffffff021916908373ffffffffffffffffffffffffffffffffffffffff16021790555080600760006101000a81548173ffffffffffffffffffffffffffffffffffffffff021916908373ffffffffffffffffffffffffffffffffffffffff160217905550505050565b6000806000806000806000600560009054906101000a900473ffffffffffffffffffffffffffffffffffffffff16600a60006101000a81548173ffffffffffffffffffffffffffffffffffffffff021916908373ffffffffffffffffffffffffffffffffffffffff160217905550600660009054906101000a900473ffffffffffffffffffffffffffffffffffffffff16600860006101000a81548173ffffffffffffffffffffffffffffffffffffffff021916908373ffffffffffffffffffffffffffffffffffffffff160217905550600760009054906101000a900473ffffffffffffffffffffffffffffffffffffffff16600960006101000a81548173ffffffffffffffffffffffffffffffffffffffff021916908373ffffffffffffffffffffffffffffffffffffffff160217905550600a60009054906101000a900473ffffffffffffffffffffffffffffffffffffffff1673ffffffffffffffffffffffffffffffffffffffff16639d828cdc896040518263ffffffff167c010000000000000000000000000000000000000000000000000000000002815260040180828152602001915050600060405180830381600087803b151561086457600080fd5b6102c65a03f1151561087557600080fd5b505050600a60009054906101000a900473ffffffffffffffffffffffffffffffffffffffff1673ffffffffffffffffffffffffffffffffffffffff1663f65ad7508d600060405160e001526040518263ffffffff167c01000000000000000000000000000000000000000000000000000000000281526004018082815260200191505060e060405180830381600087803b151561091157600080fd5b6102c65a03f1151561092257600080fd5b5050506040518051906020018051906020018051906020018051906020018051906020018051906020018051905090919293949550909192939450909192935090919250909150905080975050600a60009054906101000a900473ffffffffffffffffffffffffffffffffffffffff1673ffffffffffffffffffffffffffffffffffffffff1663ec9ccfff8d600060405160a001526040518263ffffffff167c01000000000000000000000000000000000000000000000000000000000281526004018082815260200191505060a060405180830381600087803b1515610a0857600080fd5b6102c65a03f11515610a1957600080fd5b505050604051805190602001805190602001805190602001805190602001805190509091509050508097508196505050600a60009054906101000a900473ffffffffffffffffffffffffffffffffffffffff1673ffffffffffffffffffffffffffffffffffffffff166334a3210a8d6000604051608001526040518263ffffffff167c010000000000000000000000000000000000000000000000000000000002815260040180828152602001915050608060405180830381600087803b1515610ae257600080fd5b6102c65a03f11515610af357600080fd5b50505060405180519060200180519060200180519060200180519050909192509091509050809450506000600260003373ffffffffffffffffffffffffffffffffffffffff1673ffffffffffffffffffffffffffffffffffffffff16815260200190815260200160002060008e815260200190815260200160002054141515610b7b57600080fd5b6000600a60009054906101000a900473ffffffffffffffffffffffffffffffffffffffff1673ffffffffffffffffffffffffffffffffffffffff166335c42dbb336000604051602001526040518263ffffffff167c0100000000000000000000000000000000000000000000000000000000028152600401808273ffffffffffffffffffffffffffffffffffffffff1673ffffffffffffffffffffffffffffffffffffffff168152602001915050602060405180830381600087803b1515610c4257600080fd5b6102c65a03f11515610c5357600080fd5b5050506040518051905014158015610c6b5750600287145b8015610c775750600086145b1515610c8257600080fd5b600960009054906101000a900473ffffffffffffffffffffffffffffffffffffffff1673ffffffffffffffffffffffffffffffffffffffff16639deeab2086886000604051602001526040518363ffffffff167c01000000000000000000000000000000000000000000000000000000000281526004018083815260200182815260200192505050602060405180830381600087803b1515610d2357600080fd5b6102c65a03f11515610d3457600080fd5b50505060405180519050600860009054906101000a900473ffffffffffffffffffffffffffffffffffffffff1673ffffffffffffffffffffffffffffffffffffffff1663beae32ba336000604051602001526040518263ffffffff167c0100000000000000000000000000000000000000000000000000000000028152600401808273ffffffffffffffffffffffffffffffffffffffff1673ffffffffffffffffffffffffffffffffffffffff168152602001915050602060405180830381600087803b1515610e0357600080fd5b6102c65a03f11515610e1457600080fd5b50505060405180519050141515610e2a57600080fd5b600960009054906101000a900473ffffffffffffffffffffffffffffffffffffffff1673ffffffffffffffffffffffffffffffffffffffff1663b0a4aaee86600060405161010001526040518263ffffffff167c01000000000000000000000000000000000000000000000000000000000281526004018082815260200191505061010060405180830381600087803b1515610ec557600080fd5b6102c65a03f11515610ed657600080fd5b505050604051805190602001805190602001805190602001805190602001805190602001805190602001805190602001805190509091929394959650909192939495509091929394509050508093508194508295505050508a518360ff16148015610f44575089518260ff16145b8015610f53575088518160ff16145b156110ed57610f638460016136f1565b9350600a60009054906101000a900473ffffffffffffffffffffffffffffffffffffffff1673ffffffffffffffffffffffffffffffffffffffff1663da77c3818d8d8d8d896040518663ffffffff167c010000000000000000000000000000000000000000000000000000000002815260040180868152602001806020018060200180602001858152602001848103845288818151815260200191508051906020019060200280838360005b8381101561102a57808201518184015260208101905061100f565b50505050905001848103835287818151815260200191508051906020019060200280838360005b8381101561106c578082015181840152602081019050611051565b50505050905001848103825286818151815260200191508051906020019060200280838360005b838110156110ae578082015181840152602081019050611093565b5050505090500198505050505050505050600060405180830381600087803b15156110d857600080fd5b6102c65a03f115156110e957600080fd5b5050505b505050505050505050505050565b600080600080600080600080600080600080600760009054906101000a900473ffffffffffffffffffffffffffffffffffffffff16600960006101000a81548173ffffffffffffffffffffffffffffffffffffffff021916908373ffffffffffffffffffffffffffffffffffffffff160217905550600560009054906101000a900473ffffffffffffffffffffffffffffffffffffffff16600a60006101000a81548173ffffffffffffffffffffffffffffffffffffffff021916908373ffffffffffffffffffffffffffffffffffffffff160217905550600a60009054906101000a900473ffffffffffffffffffffffffffffffffffffffff1673ffffffffffffffffffffffffffffffffffffffff1663ec9ccfff8e600060405160a001526040518263ffffffff167c01000000000000000000000000000000000000000000000000000000000281526004018082815260200191505060a060405180830381600087803b151561126c57600080fd5b6102c65a03f1151561127d57600080fd5b5050506040518051906020018051906020018051906020018051906020018051905050809750819850829950839d5050505050600092505b600960009054906101000a900473ffffffffffffffffffffffffffffffffffffffff1673ffffffffffffffffffffffffffffffffffffffff166318b0211b8b6000604051602001526040518263ffffffff167c010000000000000000000000000000000000000000000000000000000002815260040180828152602001915050602060405180830381600087803b151561134e57600080fd5b6102c65a03f1151561135f57600080fd5b5050506040518051905083101561164e57600960009054906101000a900473ffffffffffffffffffffffffffffffffffffffff1673ffffffffffffffffffffffffffffffffffffffff16639deeab208b856000604051602001526040518363ffffffff167c01000000000000000000000000000000000000000000000000000000000281526004018083815260200182815260200192505050602060405180830381600087803b151561141157600080fd5b6102c65a03f1151561142257600080fd5b505050604051805190509850600a60009054906101000a900473ffffffffffffffffffffffffffffffffffffffff1673ffffffffffffffffffffffffffffffffffffffff1663e7d6bf288e856000604051602001526040518363ffffffff167c01000000000000000000000000000000000000000000000000000000000281526004018083815260200182815260200192505050602060405180830381600087803b15156114cf57600080fd5b6102c65a03f115156114e057600080fd5b505050604051805190509750600091505b6114fb8d8a61220a565b8210156116415761150d8d8a84612753565b965060038781548110151561151e57fe5b90600052602060002090600502016002019a508a600081548110151561154057fe5b9060005260206000209001549050838114151561155c57600080fd5b600a60009054906101000a900473ffffffffffffffffffffffffffffffffffffffff1673ffffffffffffffffffffffffffffffffffffffff166307dbff7b8d8a6040518363ffffffff167c0100000000000000000000000000000000000000000000000000000000028152600401808373ffffffffffffffffffffffffffffffffffffffff1673ffffffffffffffffffffffffffffffffffffffff16815260200182815260200192505050600060405180830381600087803b151561162057600080fd5b6102c65a03f1151561163157600080fd5b50505081806001019250506114f1565b82806001019350506112b5565b50505050505050505050505050565b60045481565b61166b61377e565b6001600084815260200190815260200160002060008381526020019081526020016000208054806020026020016040519081016040528092919081815260200182805480156116d957602002820191906000526020600020905b8154815260200190600101908083116116c5575b5050505050905092915050565b60006116f560045460016136f1565b90508060048190555090565b600080600080600080600080600560009054906101000a900473ffffffffffffffffffffffffffffffffffffffff16600a60006101000a81548173ffffffffffffffffffffffffffffffffffffffff021916908373ffffffffffffffffffffffffffffffffffffffff160217905550600660009054906101000a900473ffffffffffffffffffffffffffffffffffffffff16600860006101000a81548173ffffffffffffffffffffffffffffffffffffffff021916908373ffffffffffffffffffffffffffffffffffffffff160217905550600760009054906101000a900473ffffffffffffffffffffffffffffffffffffffff16600960006101000a81548173ffffffffffffffffffffffffffffffffffffffff021916908373ffffffffffffffffffffffffffffffffffffffff160217905550600a60009054906101000a900473ffffffffffffffffffffffffffffffffffffffff1673ffffffffffffffffffffffffffffffffffffffff1663f65ad7508b600060405160e001526040518263ffffffff167c01000000000000000000000000000000000000000000000000000000000281526004018082815260200191505060e060405180830381600087803b15156118cf57600080fd5b6102c65a03f115156118e057600080fd5b5050506040518051906020018051906020018051906020018051906020018051906020018051906020018051905090919293949550909192939450909192935090919250909150905080985050600a60009054906101000a900473ffffffffffffffffffffffffffffffffffffffff1673ffffffffffffffffffffffffffffffffffffffff1663ec9ccfff8b600060405160a001526040518263ffffffff167c01000000000000000000000000000000000000000000000000000000000281526004018082815260200191505060a060405180830381600087803b15156119c657600080fd5b6102c65a03f115156119d757600080fd5b50505060405180519060200180519060200180519060200180519060200180519050905050809750819950829850505050600a60009054906101000a900473ffffffffffffffffffffffffffffffffffffffff1673ffffffffffffffffffffffffffffffffffffffff166334a3210a8b6000604051608001526040518263ffffffff167c010000000000000000000000000000000000000000000000000000000002815260040180828152602001915050608060405180830381600087803b1515611aa157600080fd5b6102c65a03f11515611ab257600080fd5b50505060405180519060200180519060200180519060200180519050909192509091509050809450506000600a60009054906101000a900473ffffffffffffffffffffffffffffffffffffffff1673ffffffffffffffffffffffffffffffffffffffff166335c42dbb336000604051602001526040518263ffffffff167c0100000000000000000000000000000000000000000000000000000000028152600401808273ffffffffffffffffffffffffffffffffffffffff1673ffffffffffffffffffffffffffffffffffffffff168152602001915050602060405180830381600087803b1515611ba257600080fd5b6102c65a03f11515611bb357600080fd5b5050506040518051905014158015611bcb5750600288145b8015611bd8575060018951145b1515611be357600080fd5b6000871415611c185783896000815181101515611bfc57fe5b9060200190602002015111151515611c1357600080fd5b611c62565b84896000815181101515611c2857fe5b906020019060200201511480611c5657506000896000815181101515611c4a57fe5b90602001906020020151145b1515611c6157600080fd5b5b600860009054906101000a900473ffffffffffffffffffffffffffffffffffffffff1673ffffffffffffffffffffffffffffffffffffffff1663beae32ba336000604051602001526040518263ffffffff167c0100000000000000000000000000000000000000000000000000000000028152600401808273ffffffffffffffffffffffffffffffffffffffff1673ffffffffffffffffffffffffffffffffffffffff168152602001915050602060405180830381600087803b1515611d2757600080fd5b6102c65a03f11515611d3857600080fd5b505050604051805190509250600960009054906101000a900473ffffffffffffffffffffffffffffffffffffffff1673ffffffffffffffffffffffffffffffffffffffff16639deeab2087896000604051602001526040518363ffffffff167c01000000000000000000000000000000000000000000000000000000000281526004018083815260200182815260200192505050602060405180830381600087803b1515611de557600080fd5b6102c65a03f11515611df657600080fd5b5050506040518051905083141515611e0d57600080fd5b6000600260003373ffffffffffffffffffffffffffffffffffffffff1673ffffffffffffffffffffffffffffffffffffffff16815260200190815260200160002060008c81526020019081526020016000205414156121f357611e6e612746565b9150611e786116e6565b50600a60009054906101000a900473ffffffffffffffffffffffffffffffffffffffff1673ffffffffffffffffffffffffffffffffffffffff166335c42dbb336000604051602001526040518263ffffffff167c0100000000000000000000000000000000000000000000000000000000028152600401808273ffffffffffffffffffffffffffffffffffffffff1673ffffffffffffffffffffffffffffffffffffffff168152602001915050602060405180830381600087803b1515611f3e57600080fd5b6102c65a03f11515611f4f57600080fd5b50505060405180519050905060038054806001018281611f6f9190613792565b9160005260206000209060050201600060a0604051908101604052803373ffffffffffffffffffffffffffffffffffffffff1681526020018e81526020018d815260200142815260200185815250909190915060008201518160000160006101000a81548173ffffffffffffffffffffffffffffffffffffffff021916908373ffffffffffffffffffffffffffffffffffffffff16021790555060208201518160010155604082015181600201908051906020019061202f9291906137c4565b5060608201518160030155608082015181600401555050506120a16000808c8152602001908152602001600020600001600085815260200190815260200160002060008b600081518110151561208157fe5b9060200190602002015181526020019081526020016000205460016136f1565b6000808c8152602001908152602001600020600001600085815260200190815260200160002060008b60008151811015156120d857fe5b906020019060200201518152602001908152602001600020819055506121246000808c8152602001908152602001600020600101600085815260200190815260200160002054826136f1565b6000808c815260200190815260200160002060010160008581526020019081526020016000208190555081600260003373ffffffffffffffffffffffffffffffffffffffff1673ffffffffffffffffffffffffffffffffffffffff16815260200190815260200160002060008c815260200190815260200160002081905550600160008b8152602001908152602001600020600084815260200190815260200160002080548060010182816121d99190613811565b9160005260206000209001600084909190915055506121fe565b6121fd8a8a61223c565b5b50505050505050505050565b600060016000848152602001908152602001600020600083815260200190815260200160002080549050905092915050565b600080600080600660009054906101000a900473ffffffffffffffffffffffffffffffffffffffff16600860006101000a81548173ffffffffffffffffffffffffffffffffffffffff021916908373ffffffffffffffffffffffffffffffffffffffff160217905550600860009054906101000a900473ffffffffffffffffffffffffffffffffffffffff1673ffffffffffffffffffffffffffffffffffffffff1663beae32ba336000604051602001526040518263ffffffff167c0100000000000000000000000000000000000000000000000000000000028152600401808273ffffffffffffffffffffffffffffffffffffffff1673ffffffffffffffffffffffffffffffffffffffff168152602001915050602060405180830381600087803b151561236a57600080fd5b6102c65a03f1151561237b57600080fd5b505050604051805190509350600260003373ffffffffffffffffffffffffffffffffffffffff1673ffffffffffffffffffffffffffffffffffffffff16815260200190815260200160002060008781526020019081526020016000205492506003838154811015156123e957fe5b9060005260206000209060050201600201915081600081548110151561240b57fe5b906000526020600020900154905061245b6000808881526020019081526020016000206000016000868152602001908152602001600020600083815260200190815260200160002054600161370f565b60008088815260200190815260200160002060000160008681526020019081526020016000206000838152602001908152602001600020819055506124f0600080888152602001908152602001600020600001600086815260200190815260200160002060008760008151811015156124d057fe5b9060200190602002015181526020019081526020016000205460016136f1565b6000808881526020019081526020016000206000016000868152602001908152602001600020600087600081518110151561252757fe5b9060200190602002015181526020019081526020016000208190555084600081518110151561255257fe5b9060200190602002015160038481548110151561256b57fe5b9060005260206000209060050201600201600081548110151561258a57fe5b906000526020600020900181905550505050505050565b600080600080868152602001908152602001600020600001600085815260200190815260200160002060008481526020019081526020016000205491506000808681526020019081526020016000206001016000858152602001908152602001600020549050935093915050565b60008061261a61377e565b60008060038681548110151561262c57fe5b906000526020600020906005020160000160009054906101000a900473ffffffffffffffffffffffffffffffffffffffff1660038781548110151561266d57fe5b90600052602060002090600502016001015460038881548110151561268e57fe5b90600052602060002090600502016002016003898154811015156126ae57fe5b90600052602060002090600502016003015460038a8154811015156126cf57fe5b9060005260206000209060050201600401548280548060200260200160405190810160405280929190818152602001828054801561272c57602002820191906000526020600020905b815481526020019060010190808311612718575b505050505092509450945094509450945091939590929450565b6000600380549050905090565b60006001600085815260200190815260200160002060008481526020019081526020016000208281548110151561278657fe5b90600052602060002090015490509392505050565b6000806000806000806000806000806000600560009054906101000a900473ffffffffffffffffffffffffffffffffffffffff16600a60006101000a81548173ffffffffffffffffffffffffffffffffffffffff021916908373ffffffffffffffffffffffffffffffffffffffff160217905550600660009054906101000a900473ffffffffffffffffffffffffffffffffffffffff16600860006101000a81548173ffffffffffffffffffffffffffffffffffffffff021916908373ffffffffffffffffffffffffffffffffffffffff160217905550600760009054906101000a900473ffffffffffffffffffffffffffffffffffffffff16600960006101000a81548173ffffffffffffffffffffffffffffffffffffffff021916908373ffffffffffffffffffffffffffffffffffffffff160217905550600a60009054906101000a900473ffffffffffffffffffffffffffffffffffffffff1673ffffffffffffffffffffffffffffffffffffffff1663f65ad7508d600060405160e001526040518263ffffffff167c01000000000000000000000000000000000000000000000000000000000281526004018082815260200191505060e060405180830381600087803b151561296e57600080fd5b6102c65a03f1151561297f57600080fd5b50505060405180519060200180519060200180519060200180519060200180519060200180519060200180519050909192939495509091929394509091929350909192509091509050809b5050600a60009054906101000a900473ffffffffffffffffffffffffffffffffffffffff1673ffffffffffffffffffffffffffffffffffffffff1663ec9ccfff8d600060405160a001526040518263ffffffff167c01000000000000000000000000000000000000000000000000000000000281526004018082815260200191505060a060405180830381600087803b1515612a6557600080fd5b6102c65a03f11515612a7657600080fd5b50505060405180519060200180519060200180519060200180519060200180519050905050809a50819c50829b50505050600a60009054906101000a900473ffffffffffffffffffffffffffffffffffffffff1673ffffffffffffffffffffffffffffffffffffffff166334a3210a8d6000604051608001526040518263ffffffff167c010000000000000000000000000000000000000000000000000000000002815260040180828152602001915050608060405180830381600087803b1515612b4057600080fd5b6102c65a03f11515612b5157600080fd5b50505060405180519060200180519060200180519060200180519050909192509091509050809750506001600a60009054906101000a900473ffffffffffffffffffffffffffffffffffffffff1673ffffffffffffffffffffffffffffffffffffffff166340b2723b8e6000604051602001526040518263ffffffff167c010000000000000000000000000000000000000000000000000000000002815260040180828152602001915050602060405180830381600087803b1515612c1557600080fd5b6102c65a03f11515612c2657600080fd5b5050506040518051905060ff16141515612c3f57600080fd5b600860009054906101000a900473ffffffffffffffffffffffffffffffffffffffff1673ffffffffffffffffffffffffffffffffffffffff1663beae32ba336000604051602001526040518263ffffffff167c0100000000000000000000000000000000000000000000000000000000028152600401808273ffffffffffffffffffffffffffffffffffffffff1673ffffffffffffffffffffffffffffffffffffffff168152602001915050602060405180830381600087803b1515612d0457600080fd5b6102c65a03f11515612d1557600080fd5b50505060405180519050915060009550600090505b86811015612dfc57612d73856000808f815260200190815260200160002060000160008581526020019081526020016000206000848152602001908152602001600020546136f1565b94506000808d815260200190815260200160002060000160008381526020019081526020016000206000828152602001908152602001600020546000808e815260200190815260200160002060000160008481526020019081526020016000206000888152602001908152602001600020541015612def578095505b8080600101915050612d2a565b6000808d815260200190815260200160002060000160008381526020019081526020016000206000878152602001908152602001600020549350600960009054906101000a900473ffffffffffffffffffffffffffffffffffffffff1673ffffffffffffffffffffffffffffffffffffffff166302e929c88a8c6000604051602001526040518363ffffffff167c01000000000000000000000000000000000000000000000000000000000281526004018083815260200182815260200192505050602060405180830381600087803b1515612ed757600080fd5b6102c65a03f11515612ee857600080fd5b50505060405180519050925082612f09612f03866064613728565b87613763565b1015156134e057612f1b8a60016136f1565b995060008611156132d857600960009054906101000a900473ffffffffffffffffffffffffffffffffffffffff1673ffffffffffffffffffffffffffffffffffffffff166318b0211b8a6000604051602001526040518263ffffffff167c010000000000000000000000000000000000000000000000000000000002815260040180828152602001915050602060405180830381600087803b1515612fbf57600080fd5b6102c65a03f11515612fd057600080fd5b505050604051805190508a10156130a357600a60009054906101000a900473ffffffffffffffffffffffffffffffffffffffff1673ffffffffffffffffffffffffffffffffffffffff16631f15d5e28d8c8960006040518563ffffffff167c010000000000000000000000000000000000000000000000000000000002815260040180858152602001848152602001838152602001828152602001945050505050600060405180830381600087803b151561308a57600080fd5b6102c65a03f1151561309b57600080fd5b5050506132d3565b600a60009054906101000a900473ffffffffffffffffffffffffffffffffffffffff1673ffffffffffffffffffffffffffffffffffffffff16631f15d5e28d8c898a6040518563ffffffff167c010000000000000000000000000000000000000000000000000000000002815260040180858152602001848152602001838152602001828152602001945050505050600060405180830381600087803b151561314b57600080fd5b6102c65a03f1151561315c57600080fd5b505050600a60009054906101000a900473ffffffffffffffffffffffffffffffffffffffff1673ffffffffffffffffffffffffffffffffffffffff1663c12da3ae8d60036040518363ffffffff167c01000000000000000000000000000000000000000000000000000000000281526004018083815260200182815260200192505050600060405180830381600087803b15156131f857600080fd5b6102c65a03f1151561320957600080fd5b505050600960009054906101000a900473ffffffffffffffffffffffffffffffffffffffff1673ffffffffffffffffffffffffffffffffffffffff1663db0c4f798d8b6000604051602001526040518363ffffffff167c01000000000000000000000000000000000000000000000000000000000281526004018083815260200182815260200192505050602060405180830381600087803b15156132ad57600080fd5b6102c65a03f115156132be57600080fd5b50505060405180519050506132d28c6110fb565b5b6134db565b600a60009054906101000a900473ffffffffffffffffffffffffffffffffffffffff1673ffffffffffffffffffffffffffffffffffffffff16631f15d5e28d8c898a6040518563ffffffff167c010000000000000000000000000000000000000000000000000000000002815260040180858152602001848152602001838152602001828152602001945050505050600060405180830381600087803b151561338057600080fd5b6102c65a03f1151561339157600080fd5b505050600a60009054906101000a900473ffffffffffffffffffffffffffffffffffffffff1673ffffffffffffffffffffffffffffffffffffffff1663c12da3ae8d60046040518363ffffffff167c01000000000000000000000000000000000000000000000000000000000281526004018083815260200182815260200192505050600060405180830381600087803b151561342d57600080fd5b6102c65a03f1151561343e57600080fd5b505050600a60009054906101000a900473ffffffffffffffffffffffffffffffffffffffff1673ffffffffffffffffffffffffffffffffffffffff1663e7030a676040518163ffffffff167c0100000000000000000000000000000000000000000000000000000000028152600401600060405180830381600087803b15156134c657600080fd5b6102c65a03f115156134d757600080fd5b5050505b6136e3565b600a60009054906101000a900473ffffffffffffffffffffffffffffffffffffffff1673ffffffffffffffffffffffffffffffffffffffff16631f15d5e28d8c898a6040518563ffffffff167c010000000000000000000000000000000000000000000000000000000002815260040180858152602001848152602001838152602001828152602001945050505050600060405180830381600087803b151561358857600080fd5b6102c65a03f1151561359957600080fd5b505050600a60009054906101000a900473ffffffffffffffffffffffffffffffffffffffff1673ffffffffffffffffffffffffffffffffffffffff1663c12da3ae8d60056040518363ffffffff167c01000000000000000000000000000000000000000000000000000000000281526004018083815260200182815260200192505050600060405180830381600087803b151561363557600080fd5b6102c65a03f1151561364657600080fd5b505050600a60009054906101000a900473ffffffffffffffffffffffffffffffffffffffff1673ffffffffffffffffffffffffffffffffffffffff1663e7030a676040518163ffffffff167c0100000000000000000000000000000000000000000000000000000000028152600401600060405180830381600087803b15156136ce57600080fd5b6102c65a03f115156136df57600080fd5b5050505b505050505050505050505050565b600080828401905083811015151561370557fe5b8091505092915050565b600082821115151561371d57fe5b818303905092915050565b600080600084141561373d576000915061375c565b828402905082848281151561374e57fe5b0414151561375857fe5b8091505b5092915050565b600080828481151561377157fe5b0490508091505092915050565b602060405190810160405280600081525090565b8154818355818115116137bf576005028160050283600052602060002091820191016137be919061383d565b5b505050565b828054828255906000526020600020908101928215613800579160200282015b828111156137ff5782518255916020019190600101906137e4565b5b50905061380d91906138ab565b5090565b8154818355818115116138385781836000526020600020918201910161383791906138ab565b5b505050565b6138a891905b808211156138a457600080820160006101000a81549073ffffffffffffffffffffffffffffffffffffffff0219169055600182016000905560028201600061388b91906138d0565b6003820160009055600482016000905550600501613843565b5090565b90565b6138cd91905b808211156138c95760008160009055506001016138b1565b5090565b90565b50805460008255906000526020600020908101906138ee91906138ab565b505600a165627a7a723058209953e26c6ea431e77952c6bfc8f1d644eff9f715659b76a23c2646185c3702070029",
  "source": "/* Copyright (C) 2017 GovBlocks.io\r\n\r\n  This program is free software: you can redistribute it and/or modify\r\n    it under the terms of the GNU General Public License as published by\r\n    the Free Software Foundation, either version 3 of the License, or\r\n    (at your option) any later version.\r\n\r\n  This program is distributed in the hope that it will be useful,\r\n    but WITHOUT ANY WARRANTY; without even the implied warranty of\r\n    MERCHANTABILITY or FITNESS FOR A PARTICULAR PURPOSE.  See the\r\n    GNU General Public License for more details.\r\n\r\n  You should have received a copy of the GNU General Public License\r\n    along with this program.  If not, see http://www.gnu.org/licenses/ */\r\n\r\n\r\npragma solidity ^0.4.8;\r\n\r\nimport \"./VotingType.sol\";\r\nimport \"./MemberRoles.sol\";\r\nimport \"./ProposalCategory.sol\";\r\nimport \"./GovernanceData.sol\";\r\nimport \"./zeppelin-solidity/contracts/math/SafeMath.sol\";\r\n// import \"./SafeMath.sol\";\r\n\r\ncontract SimpleVoting is VotingType\r\n{\r\n\r\n    using SafeMath for uint;\r\n    address GDAddress;\r\n    address MRAddress;\r\n    address PCAddress;\r\n    MemberRoles MR;\r\n    ProposalCategory PC;\r\n    GovernanceData GD;\r\n\r\n    function SimpleVoting()\r\n    {\r\n        uint[] verdictOption;\r\n        allVotes.push(proposalVote(0x00,0,verdictOption,now,0));\r\n    }\r\n\r\n    function changeAllContractsAddress(address _GDcontractAddress, address _MRcontractAddress, address _PCcontractAddress) public\r\n    {\r\n        GDAddress = _GDcontractAddress;\r\n        MRAddress = _MRcontractAddress;\r\n        PCAddress = _PCcontractAddress;\r\n    }\r\n\r\n    function getTotalVotes() constant returns (uint votesTotal)\r\n    {\r\n        return(allVotes.length);\r\n    }\r\n\r\n    function increaseTotalVotes() returns (uint _totalVotes)\r\n    {\r\n        _totalVotes = SafeMath.add(totalVotes,1);  \r\n        totalVotes=_totalVotes;\r\n    } \r\n\r\n    function getVoteDetailByid(uint _voteid) public constant returns(address voter,uint proposalId,uint[] verdictChosen,uint dateSubmit,uint voterTokens)\r\n    {\r\n        return(allVotes[_voteid].voter,allVotes[_voteid].proposalId,allVotes[_voteid].verdictChosen,allVotes[_voteid].dateSubmit,allVotes[_voteid].voterTokens);\r\n    }\r\n\r\n    function getProposalRoleVoteLength(uint _proposalId,uint _roleId) public constant returns(uint length)\r\n    {\r\n         length = ProposalRoleVote[_proposalId][_roleId].length;\r\n    }\r\n\r\n    /// @dev Get Vote id of a _roleId against given proposal.\r\n    function getProposalRoleVote(uint _proposalId,uint _roleId,uint _voteArrayIndex) public constant returns(uint voteId) \r\n    {\r\n        voteId = ProposalRoleVote[_proposalId][_roleId][_voteArrayIndex];\r\n    }\r\n\r\n    /// @dev Get the vote count for options of proposal when giving Proposal id and Option index.\r\n    function getProposalVoteAndTokenCountByRoleId(uint _proposalId,uint _roleId,uint _optionIndex) constant returns(uint totalVotes,uint totalToken)\r\n    {\r\n        totalVotes = allProposalVoteAndTokenCount[_proposalId].totalVoteCount[_roleId][_optionIndex];\r\n        totalToken = allProposalVoteAndTokenCount[_proposalId].totalTokenCount[_roleId];\r\n    }\r\n\r\n    /// @dev Get Vote id of a _roleId against given proposal.\r\n    function getProposalRoleVoteArray(uint _proposalId,uint _roleId) public constant returns(uint[] voteId) \r\n    {\r\n        return ProposalRoleVote[_proposalId][_roleId];\r\n    }\r\n\r\n    function addVerdictOption(uint _proposalId,uint[] _paramInt,bytes32[] _paramBytes32,address[] _paramAddress,uint _GNTPayableTokenAmount)\r\n    {\r\n        GD=GovernanceData(GDAddress);\r\n        MR=MemberRoles(MRAddress);\r\n        PC=ProposalCategory(PCAddress);\r\n        GD.payableGNTTokens(_GNTPayableTokenAmount);\r\n        \r\n        uint propStatus;\r\n        (,,,,,,propStatus) = GD.getProposalDetailsById1(_proposalId);\r\n        uint currentVotingId; uint category;\r\n        (category,currentVotingId,,,) = GD.getProposalDetailsById2(_proposalId);\r\n        uint verdictOptions;\r\n        (,,,verdictOptions) = GD.getProposalCategoryParams(_proposalId);\r\n\r\n        require(AddressProposalVote[msg.sender][_proposalId] == 0 );\r\n        require(GD.getBalanceOfMember(msg.sender) != 0 && propStatus == 2 && currentVotingId == 0);\r\n        require(MR.getMemberRoleIdByAddress(msg.sender) == PC.getRoleSequencAtIndex(category,currentVotingId));\r\n        \r\n        uint8 paramInt; uint8 paramBytes32; uint8 paramAddress;\r\n        (,,,paramInt,paramBytes32,paramAddress,,) = PC.getCategoryDetails(category);\r\n\r\n        if(paramInt == _paramInt.length && paramBytes32 == _paramBytes32.length && paramAddress == _paramAddress.length)\r\n        {\r\n            verdictOptions = SafeMath.add(verdictOptions,1);\r\n            GD.setProposalCategoryParams(_proposalId,_paramInt,_paramBytes32,_paramAddress,verdictOptions);   \r\n        } \r\n    }\r\n\r\n\r\n    function proposalVoting(uint _proposalId,uint[] _verdictChosen)\r\n    {\r\n        GD=GovernanceData(GDAddress);\r\n        MR=MemberRoles(MRAddress);\r\n        PC=ProposalCategory(PCAddress);\r\n        uint propStatus;\r\n        (,,,,,,propStatus) = GD.getProposalDetailsById1(_proposalId);\r\n        uint currentVotingId; uint category; uint intermediateVerdict;\r\n        (category,currentVotingId,intermediateVerdict,,) = GD.getProposalDetailsById2(_proposalId);\r\n        uint verdictOptions;\r\n        (,,,verdictOptions) = GD.getProposalCategoryParams(_proposalId);\r\n        require(GD.getBalanceOfMember(msg.sender) != 0 && propStatus == 2 && _verdictChosen.length == 1);\r\n\r\n        if(currentVotingId == 0)\r\n            require(_verdictChosen[0] <= verdictOptions);\r\n        else\r\n            require(_verdictChosen[0]==intermediateVerdict || _verdictChosen[0]==0);\r\n        uint roleId = MR.getMemberRoleIdByAddress(msg.sender);\r\n        require(roleId == PC.getRoleSequencAtIndex(category,currentVotingId));\r\n\r\n        if(AddressProposalVote[msg.sender][_proposalId] == 0)\r\n        {\r\n            uint votelength = getTotalVotes();\r\n            increaseTotalVotes();\r\n            uint _voterTokens = GD.getBalanceOfMember(msg.sender);\r\n            allVotes.push(proposalVote(msg.sender,_proposalId,_verdictChosen,now,_voterTokens));\r\n            allProposalVoteAndTokenCount[_proposalId].totalVoteCount[roleId][_verdictChosen[0]] = SafeMath.add(allProposalVoteAndTokenCount[_proposalId].totalVoteCount[roleId][_verdictChosen[0]],1);\r\n            allProposalVoteAndTokenCount[_proposalId].totalTokenCount[roleId] = SafeMath.add(allProposalVoteAndTokenCount[_proposalId].totalTokenCount[roleId],_voterTokens);\r\n            AddressProposalVote[msg.sender][_proposalId] = votelength;\r\n            ProposalRoleVote[_proposalId][roleId].push(votelength);\r\n        }\r\n        else \r\n            changeMemberVote(_proposalId,_verdictChosen);\r\n    }\r\n\r\n    function changeMemberVote(uint _proposalId,uint[] _verdictChosen) \r\n    {\r\n        MR=MemberRoles(MRAddress); \r\n        uint roleId = MR.getMemberRoleIdByAddress(msg.sender);\r\n        uint voteId = AddressProposalVote[msg.sender][_proposalId];\r\n        uint[] verdictChosen = allVotes[voteId].verdictChosen;\r\n        uint verdict = verdictChosen[0];\r\n        \r\n        allProposalVoteAndTokenCount[_proposalId].totalVoteCount[roleId][verdict] = SafeMath.sub(allProposalVoteAndTokenCount[_proposalId].totalVoteCount[roleId][verdict],1);\r\n        allProposalVoteAndTokenCount[_proposalId].totalVoteCount[roleId][_verdictChosen[0]] = SafeMath.add(allProposalVoteAndTokenCount[_proposalId].totalVoteCount[roleId][_verdictChosen[0]],1);\r\n        allVotes[voteId].verdictChosen[0] = _verdictChosen[0];\r\n    }\r\n\r\n    function closeProposalVote(uint _proposalId)\r\n    {\r\n        GD=GovernanceData(GDAddress);\r\n        MR=MemberRoles(MRAddress);\r\n        PC=ProposalCategory(PCAddress);\r\n    \r\n        uint propStatus;\r\n        (,,,,,,propStatus) = GD.getProposalDetailsById1(_proposalId);\r\n        uint currentVotingId; uint category; uint intermediateVerdict;\r\n        (category,currentVotingId,intermediateVerdict,,) = GD.getProposalDetailsById2(_proposalId);\r\n        uint verdictOptions;\r\n        (,,,verdictOptions) = GD.getProposalCategoryParams(_proposalId);\r\n    \r\n        require(GD.checkProposalVoteClosing(_proposalId)==1);\r\n        uint max; uint totalVotes; uint verdictVal; uint majorityVote;\r\n        uint roleId = MR.getMemberRoleIdByAddress(msg.sender);\r\n\r\n        max=0;  \r\n        for(uint i = 0; i < verdictOptions; i++)\r\n        {\r\n            totalVotes = SafeMath.add(totalVotes,allProposalVoteAndTokenCount[_proposalId].totalVoteCount[roleId][i]); \r\n            if(allProposalVoteAndTokenCount[_proposalId].totalVoteCount[roleId][max] < allProposalVoteAndTokenCount[_proposalId].totalVoteCount[roleId][i])\r\n            {  \r\n                max = i; \r\n            }\r\n        }\r\n        verdictVal = allProposalVoteAndTokenCount[_proposalId].totalVoteCount[roleId][max];\r\n        majorityVote= PC.getRoleMajorityVote(category,currentVotingId);\r\n       \r\n        if(SafeMath.div(SafeMath.mul(verdictVal,100),totalVotes)>=majorityVote)\r\n        {   \r\n            currentVotingId = SafeMath.add(currentVotingId,1);\r\n            if(max > 0 )\r\n            {\r\n                if(currentVotingId < PC.getRoleSequencLength(category))\r\n                {\r\n                    GD.updateProposalDetails(_proposalId,currentVotingId,max,0);\r\n                } \r\n                else\r\n                {\r\n                    GD.updateProposalDetails(_proposalId,currentVotingId,max,max);\r\n                    GD.changeProposalStatus(_proposalId,3);\r\n                    PC.actionAfterProposalPass(_proposalId ,category);\r\n                    giveReward_afterFinalDecision(_proposalId);\r\n                }\r\n            }\r\n            else\r\n            {\r\n                GD.updateProposalDetails(_proposalId,currentVotingId,max,max);\r\n                GD.changeProposalStatus(_proposalId,4);\r\n                GD.changePendingProposalStart();\r\n            }      \r\n        } \r\n        else\r\n        {\r\n            GD.updateProposalDetails(_proposalId,currentVotingId,max,max);\r\n            GD.changeProposalStatus(_proposalId,5);\r\n            GD.changePendingProposalStart();\r\n        } \r\n    }\r\n     \r\n    function giveReward_afterFinalDecision(uint _proposalId) public \r\n    {\r\n        address voter; uint[] verdictChosen;uint category; uint roleId; uint reward;uint voteid;\r\n        PC=ProposalCategory(PCAddress); \r\n        GD=GovernanceData(GDAddress);\r\n        uint currentVotingId;uint intermediateVerdict;uint finalVerdict;\r\n        (category,currentVotingId,intermediateVerdict,finalVerdict,) = GD.getProposalDetailsById2(_proposalId);\r\n\r\n        for(uint index=0; index<PC.getRoleSequencLength(category); index++)\r\n        {\r\n            roleId = PC.getRoleSequencAtIndex(category,index);\r\n            reward = GD.getProposalRewardAndComplexity(_proposalId,index);\r\n            for(uint i=0; i<getProposalRoleVoteLength(_proposalId,roleId); i++)\r\n            {\r\n                voteid = getProposalRoleVote(_proposalId,roleId,i);\r\n                verdictChosen = allVotes[voteid].verdictChosen;\r\n                uint verdict = verdictChosen[0];\r\n                require(verdict == finalVerdict);\r\n                GD.transferTokenAfterFinalReward(voter,reward);  \r\n            }\r\n        }    \r\n    }\r\n\r\n}\r\n",
  "sourcePath": "D:\\2. GovBlocks Contracts\\GovBlocks Git-Master\\contracts\\SimpleVoting.sol",
  "compiler": {
    "name": "solc",
    "version": "0.4.18+commit.9cf6e910.Emscripten.clang"
  },
  "schemaVersion": "1.0.1",
  "updatedAt": "2017-12-05T13:23:18.698Z"
}