{
  "contractName": "SimpleVoting",
  "abi": [
    {
      "constant": false,
      "inputs": [
        {
          "name": "_GNTcontractAddress",
          "type": "address"
        },
        {
          "name": "_GDcontractAddress",
          "type": "address"
        },
        {
          "name": "_MRcontractAddress",
          "type": "address"
        },
        {
          "name": "_PCcontractAddress",
          "type": "address"
        }
      ],
      "name": "changeAllContractsAddress",
      "outputs": [],
      "payable": false,
      "stateMutability": "nonpayable",
      "type": "function"
    },
    {
      "constant": false,
      "inputs": [
        {
          "name": "_proposalId",
          "type": "uint256"
        },
        {
          "name": "_paramInt",
          "type": "uint256[]"
        },
        {
          "name": "_paramBytes32",
          "type": "bytes32[]"
        },
        {
          "name": "_paramAddress",
          "type": "address[]"
        },
        {
          "name": "_GNTPayableTokenAmount",
          "type": "uint256"
        }
      ],
      "name": "addVerdictOption",
      "outputs": [
        {
          "name": "",
          "type": "uint256"
        }
      ],
      "payable": false,
      "stateMutability": "nonpayable",
      "type": "function"
    },
    {
      "constant": false,
      "inputs": [
        {
          "name": "_proposalId",
          "type": "uint256"
        },
        {
          "name": "_roleId",
          "type": "uint256"
        }
      ],
      "name": "giveReward_afterFinalDecision",
      "outputs": [
        {
          "name": "",
          "type": "uint256"
        }
      ],
      "payable": false,
      "stateMutability": "nonpayable",
      "type": "function"
    },
    {
      "constant": true,
      "inputs": [
        {
          "name": "_proposalId",
          "type": "uint256"
        },
        {
          "name": "_roleId",
          "type": "uint256"
        }
      ],
      "name": "GNTStakValue",
      "outputs": [
        {
          "name": "",
          "type": "uint256"
        }
      ],
      "payable": false,
      "stateMutability": "view",
      "type": "function"
    },
    {
      "constant": true,
      "inputs": [
        {
          "name": "_proposalId",
          "type": "uint256"
        },
        {
          "name": "_roleId",
          "type": "uint256"
        }
      ],
      "name": "totalVotes",
      "outputs": [
        {
          "name": "",
          "type": "uint256"
        }
      ],
      "payable": false,
      "stateMutability": "view",
      "type": "function"
    },
    {
      "constant": true,
      "inputs": [
        {
          "name": "_proposalId",
          "type": "uint256"
        },
        {
          "name": "_roleId",
          "type": "uint256"
        }
      ],
      "name": "getProposalRoleVoteArray",
      "outputs": [
        {
          "name": "voteId",
          "type": "uint256[]"
        }
      ],
      "payable": false,
      "stateMutability": "view",
      "type": "function"
    },
    {
      "constant": false,
      "inputs": [
        {
          "name": "_proposalId",
          "type": "uint256"
        },
        {
          "name": "_verdictChosen",
          "type": "uint256[]"
        },
        {
          "name": "_optionIndex",
          "type": "uint256"
        }
      ],
      "name": "increaseTotalVotes",
      "outputs": [
        {
          "name": "_totalVotes",
          "type": "uint256"
        },
        {
          "name": "totalToken",
          "type": "uint256"
        }
      ],
      "payable": false,
      "stateMutability": "nonpayable",
      "type": "function"
    },
    {
      "constant": false,
      "inputs": [
        {
          "name": "_proposalId",
          "type": "uint256"
        },
        {
          "name": "_verdictChosen",
          "type": "uint256[]"
        },
        {
          "name": "_optionIndex",
          "type": "uint256"
        },
        {
          "name": "_paramAddress",
          "type": "address[]"
        }
      ],
      "name": "proposalVoting",
      "outputs": [
        {
          "name": "length",
          "type": "uint256"
        },
        {
          "name": "totalToken",
          "type": "uint256"
        }
      ],
      "payable": false,
      "stateMutability": "nonpayable",
      "type": "function"
    },
    {
      "constant": true,
      "inputs": [
        {
          "name": "_proposalId",
          "type": "uint256"
        },
        {
          "name": "_roleId",
          "type": "uint256"
        },
        {
          "name": "_optionIndex",
          "type": "uint256"
        },
        {
          "name": "_paramAddress",
          "type": "address[]"
        }
      ],
      "name": "getProposalRoleVoteLength",
      "outputs": [
        {
          "name": "length",
          "type": "uint256"
        },
        {
          "name": "totalToken",
          "type": "uint256"
        },
        {
          "name": "verdictChosen",
          "type": "uint256[]"
        },
        {
          "name": "dateSubmit",
          "type": "uint256"
        },
        {
          "name": "voterTokens",
          "type": "uint256"
        }
      ],
      "payable": false,
      "stateMutability": "view",
      "type": "function"
    },
    {
      "constant": false,
      "inputs": [
        {
          "name": "_proposalId",
          "type": "uint256"
        },
        {
          "name": "_verdictChosen",
          "type": "uint256[]"
        },
        {
          "name": "_optionIndex",
          "type": "uint256"
        },
        {
          "name": "_paramAddress",
          "type": "address[]"
        }
      ],
      "name": "changeMemberVote",
      "outputs": [
        {
          "name": "totalVotes",
          "type": "uint256"
        },
        {
          "name": "totalToken",
          "type": "uint256"
        },
        {
          "name": "verdictChosen",
          "type": "uint256[]"
        },
        {
          "name": "dateSubmit",
          "type": "uint256"
        },
        {
          "name": "voterTokens",
          "type": "uint256"
        }
      ],
      "payable": false,
      "stateMutability": "nonpayable",
      "type": "function"
    },
    {
      "constant": true,
      "inputs": [
        {
          "name": "_proposalId",
          "type": "uint256"
        },
        {
          "name": "_roleId",
          "type": "uint256"
        },
        {
          "name": "_optionIndex",
          "type": "uint256"
        }
      ],
      "name": "getProposalVoteAndTokenCountByRoleId",
      "outputs": [
        {
          "name": "totalVotes",
          "type": "uint256"
        },
        {
          "name": "totalToken",
          "type": "uint256"
        },
        {
          "name": "verdictChosen",
          "type": "uint256[]"
        },
        {
          "name": "dateSubmit",
          "type": "uint256"
        },
        {
          "name": "voterTokens",
          "type": "uint256"
        }
      ],
      "payable": false,
      "stateMutability": "view",
      "type": "function"
    },
    {
      "constant": true,
      "inputs": [
        {
          "name": "_voteid",
          "type": "uint256"
        },
        {
          "name": "_roleId",
          "type": "uint256"
        },
        {
          "name": "_voteArrayIndex",
          "type": "uint256"
        }
      ],
      "name": "getVoteDetailByid",
      "outputs": [
        {
          "name": "voter",
          "type": "address"
        },
        {
          "name": "proposalId",
          "type": "uint256"
        },
        {
          "name": "verdictChosen",
          "type": "uint256[]"
        },
        {
          "name": "dateSubmit",
          "type": "uint256"
        },
        {
          "name": "voterTokens",
          "type": "uint256"
        }
      ],
      "payable": false,
      "stateMutability": "view",
      "type": "function"
    },
    {
      "constant": false,
      "inputs": [
        {
          "name": "_TokenAmount",
          "type": "uint256"
        },
        {
          "name": "_roleId",
          "type": "uint256"
        },
        {
          "name": "_voteArrayIndex",
          "type": "uint256"
        }
      ],
      "name": "payableGNTTokensSimpleVoting",
      "outputs": [
        {
          "name": "voteId",
          "type": "uint256"
        }
      ],
      "payable": false,
      "stateMutability": "nonpayable",
      "type": "function"
    },
    {
      "constant": true,
      "inputs": [
        {
          "name": "_proposalId",
          "type": "uint256"
        }
      ],
      "name": "getTotalVotes",
      "outputs": [
        {
          "name": "votesTotal",
          "type": "uint256"
        },
        {
          "name": "proposalId",
          "type": "uint256"
        },
        {
          "name": "dateSubmit",
          "type": "uint256"
        },
        {
          "name": "voterTokens",
          "type": "uint256"
        }
      ],
      "payable": false,
      "stateMutability": "view",
      "type": "function"
    },
    {
      "inputs": [
        {
          "name": "_proposalId",
          "type": "uint256"
        },
        {
          "name": "_memberStake",
          "type": "uint256"
        },
        {
          "name": "_voteArrayIndex",
          "type": "uint256"
        }
      ],
      "payable": false,
      "stateMutability": "nonpayable",
      "type": "function",
      "constant": false,
      "name": "setMemberVerdictValue",
      "outputs": [
        {
          "name": "finalVerdictValue",
          "type": "uint256"
        }
      ]
    },
    {
      "constant": true,
      "inputs": [
        {
          "name": "_proposalId",
          "type": "uint256"
        },
        {
          "name": "_roleId",
          "type": "uint256"
        },
        {
          "name": "_voteArrayIndex",
          "type": "uint256"
        }
      ],
      "name": "getProposalRoleVote",
      "outputs": [
        {
          "name": "voteId",
          "type": "uint256"
        }
      ],
      "payable": false,
      "stateMutability": "view",
      "type": "function"
    },
    {
      "inputs": [
        {
          "name": "_proposalId",
          "type": "uint256"
        }
      ],
      "payable": false,
      "stateMutability": "nonpayable",
      "type": "function",
      "constant": false,
      "name": "closeProposalVote",
      "outputs": []
    },
    {
      "inputs": [],
      "payable": false,
      "stateMutability": "nonpayable",
      "type": "constructor"
    }
  ],
  "bytecode": "0x606060405234156200001057600080fd5b60006003805480600101828162000028919062000165565b9160005260206000209060050201600060a060405190810160405280600073ffffffffffffffffffffffffffffffffffffffff1681526020016000815260200185805480602002602001604051908101604052809291908181526020018280548015620000b557602002820191906000526020600020905b815481526020019060010190808311620000a0575b505050505081526020014281526020016000815250909190915060008201518160000160006101000a81548173ffffffffffffffffffffffffffffffffffffffff021916908373ffffffffffffffffffffffffffffffffffffffff1602179055506020820151816001015560408201518160020190805190602001906200013e9291906200019a565b5060608201518160030155608082015181600401555050506032600d8190555050620002aa565b8154818355818115116200019557600502816005028360005260206000209182019101620001949190620001ec565b5b505050565b828054828255906000526020600020908101928215620001d9579160200282015b82811115620001d8578251825591602001919060010190620001bb565b5b509050620001e891906200025f565b5090565b6200025c91905b808211156200025857600080820160006101000a81549073ffffffffffffffffffffffffffffffffffffffff021916905560018201600090556002820160006200023e919062000287565b6003820160009055600482016000905550600501620001f3565b5090565b90565b6200028491905b808211156200028057600081600090555060010162000266565b5090565b90565b5080546000825590600052602060002090810190620002a791906200025f565b50565b6140d480620002ba6000396000f3006060604052600436106100f1576000357c0100000000000000000000000000000000000000000000000000000000900463ffffffff168063013b4441146100f657806307a888481461018c5780630a256ae1146102785780630c0976ec1461029b5780630d15fd77146102c45780631f2f0f1a146102ed57806328c09cb31461036e57806332a2da8d146103975780633ae2f7d4146103fa5780633e4af1c91461043a5780634a261ce31461049d57806366cf51de146104ed57806392a16779146105ad5780639a0e7d66146105d0578063a05cfcf9146105f9578063c3647eb914610639578063c46994ce14610682575b600080fd5b341561010157600080fd5b61018a600480803573ffffffffffffffffffffffffffffffffffffffff1690602001909190803573ffffffffffffffffffffffffffffffffffffffff1690602001909190803573ffffffffffffffffffffffffffffffffffffffff1690602001909190803573ffffffffffffffffffffffffffffffffffffffff169060200190919050506106a5565b005b341561019757600080fd5b61027660048080359060200190919080359060200190820180359060200190808060200260200160405190810160405280939291908181526020018383602002808284378201915050505050509190803590602001908201803590602001908080602002602001604051908101604052809392919081815260200183836020028082843782019150505050505091908035906020019082018035906020019080806020026020016040519081016040528093929190818152602001838360200280828437820191505050505050919080359060200190919050506107af565b005b341561028357600080fd5b610299600480803590602001909190505061125d565b005b34156102a657600080fd5b6102ae6117bf565b6040518082815260200191505060405180910390f35b34156102cf57600080fd5b6102d76117c5565b6040518082815260200191505060405180910390f35b34156102f857600080fd5b61031760048080359060200190919080359060200190919050506117cb565b6040518080602001828103825283818151815260200191508051906020019060200280838360005b8381101561035a57808201518184015260208101905061033f565b505050509050019250505060405180910390f35b341561037957600080fd5b61038161184e565b6040518082815260200191505060405180910390f35b34156103a257600080fd5b6103f8600480803590602001909190803590602001908201803590602001908080602002602001604051908101604052809392919081815260200183836020028082843782019150505050505091905050611869565b005b341561040557600080fd5b6104246004808035906020019091908035906020019091905050612372565b6040518082815260200191505060405180910390f35b341561044557600080fd5b61049b6004808035906020019091908035906020019082018035906020019080806020026020016040519081016040528093929190818152602001838360200280828437820191505050505050919050506123a4565b005b34156104a857600080fd5b6104d06004808035906020019091908035906020019091908035906020019091905050612709565b604051808381526020018281526020019250505060405180910390f35b34156104f857600080fd5b61050e6004808035906020019091905050612777565b604051808673ffffffffffffffffffffffffffffffffffffffff1673ffffffffffffffffffffffffffffffffffffffff16815260200185815260200180602001848152602001838152602001828103825285818151815260200191508051906020019060200280838360005b8381101561059557808201518184015260208101905061057a565b50505050905001965050505050505060405180910390f35b34156105b857600080fd5b6105ce60048080359060200190919050506128ae565b005b34156105db57600080fd5b6105e3612a64565b6040518082815260200191505060405180910390f35b341561060457600080fd5b6106236004808035906020019091908035906020019091905050612a71565b6040518082815260200191505060405180910390f35b341561064457600080fd5b61066c6004808035906020019091908035906020019091908035906020019091905050612ef0565b6040518082815260200191505060405180910390f35b341561068d57600080fd5b6106a36004808035906020019091905050612f38565b005b83600860006101000a81548173ffffffffffffffffffffffffffffffffffffffff021916908373ffffffffffffffffffffffffffffffffffffffff16021790555082600560006101000a81548173ffffffffffffffffffffffffffffffffffffffff021916908373ffffffffffffffffffffffffffffffffffffffff16021790555081600660006101000a81548173ffffffffffffffffffffffffffffffffffffffff021916908373ffffffffffffffffffffffffffffffffffffffff16021790555080600760006101000a81548173ffffffffffffffffffffffffffffffffffffffff021916908373ffffffffffffffffffffffffffffffffffffffff16021790555050505050565b600080600080600080600080600560009054906101000a900473ffffffffffffffffffffffffffffffffffffffff16600b60006101000a81548173ffffffffffffffffffffffffffffffffffffffff021916908373ffffffffffffffffffffffffffffffffffffffff160217905550600660009054906101000a900473ffffffffffffffffffffffffffffffffffffffff16600960006101000a81548173ffffffffffffffffffffffffffffffffffffffff021916908373ffffffffffffffffffffffffffffffffffffffff160217905550600760009054906101000a900473ffffffffffffffffffffffffffffffffffffffff16600a60006101000a81548173ffffffffffffffffffffffffffffffffffffffff021916908373ffffffffffffffffffffffffffffffffffffffff160217905550600b60009054906101000a900473ffffffffffffffffffffffffffffffffffffffff1673ffffffffffffffffffffffffffffffffffffffff1663f65ad7508e600060405160e001526040518263ffffffff167c01000000000000000000000000000000000000000000000000000000000281526004018082815260200191505060e060405180830381600087803b151561097d57600080fd5b6102c65a03f1151561098e57600080fd5b5050506040518051906020018051906020018051906020018051906020018051906020018051906020018051905090919293949550909192939450909192935090919250909150905080985050600b60009054906101000a900473ffffffffffffffffffffffffffffffffffffffff1673ffffffffffffffffffffffffffffffffffffffff1663ec9ccfff8e600060405160a001526040518263ffffffff167c01000000000000000000000000000000000000000000000000000000000281526004018082815260200191505060a060405180830381600087803b1515610a7457600080fd5b6102c65a03f11515610a8557600080fd5b505050604051805190602001805190602001805190602001805190602001805190509091509050508098508197505050600b60009054906101000a900473ffffffffffffffffffffffffffffffffffffffff1673ffffffffffffffffffffffffffffffffffffffff166334a3210a8e6000604051608001526040518263ffffffff167c010000000000000000000000000000000000000000000000000000000002815260040180828152602001915050608060405180830381600087803b1515610b4e57600080fd5b6102c65a03f11515610b5f57600080fd5b50505060405180519060200180519060200180519060200180519050909192509091509050809550506000600260003373ffffffffffffffffffffffffffffffffffffffff1673ffffffffffffffffffffffffffffffffffffffff16815260200190815260200160002060008f815260200190815260200160002054141515610be757600080fd5b6000600b60009054906101000a900473ffffffffffffffffffffffffffffffffffffffff1673ffffffffffffffffffffffffffffffffffffffff166335c42dbb336000604051602001526040518263ffffffff167c0100000000000000000000000000000000000000000000000000000000028152600401808273ffffffffffffffffffffffffffffffffffffffff1673ffffffffffffffffffffffffffffffffffffffff168152602001915050602060405180830381600087803b1515610cae57600080fd5b6102c65a03f11515610cbf57600080fd5b5050506040518051905014158015610cd75750600288145b8015610ce35750600087145b1515610cee57600080fd5b600a60009054906101000a900473ffffffffffffffffffffffffffffffffffffffff1673ffffffffffffffffffffffffffffffffffffffff16639deeab2087896000604051602001526040518363ffffffff167c01000000000000000000000000000000000000000000000000000000000281526004018083815260200182815260200192505050602060405180830381600087803b1515610d8f57600080fd5b6102c65a03f11515610da057600080fd5b50505060405180519050600960009054906101000a900473ffffffffffffffffffffffffffffffffffffffff1673ffffffffffffffffffffffffffffffffffffffff1663beae32ba336000604051602001526040518263ffffffff167c0100000000000000000000000000000000000000000000000000000000028152600401808273ffffffffffffffffffffffffffffffffffffffff1673ffffffffffffffffffffffffffffffffffffffff168152602001915050602060405180830381600087803b1515610e6f57600080fd5b6102c65a03f11515610e8057600080fd5b50505060405180519050141515610e9657600080fd5b610e9f896128ae565b600a60009054906101000a900473ffffffffffffffffffffffffffffffffffffffff1673ffffffffffffffffffffffffffffffffffffffff1663b0a4aaee87600060405161010001526040518263ffffffff167c01000000000000000000000000000000000000000000000000000000000281526004018082815260200191505061010060405180830381600087803b1515610f3a57600080fd5b6102c65a03f11515610f4b57600080fd5b505050604051805190602001805190602001805190602001805190602001805190602001805190602001805190602001805190509091929394959650909192939495509091929394509050508094508195508296505050508b518460ff16148015610fb957508a518360ff16145b8015610fc8575089518260ff16145b1561124e57610fd78d8a612a71565b9050600b60009054906101000a900473ffffffffffffffffffffffffffffffffffffffff1673ffffffffffffffffffffffffffffffffffffffff1663ac1414c68e33846040518463ffffffff167c0100000000000000000000000000000000000000000000000000000000028152600401808481526020018373ffffffffffffffffffffffffffffffffffffffff1673ffffffffffffffffffffffffffffffffffffffff1681526020018281526020019350505050600060405180830381600087803b15156110a557600080fd5b6102c65a03f115156110b657600080fd5b5050506110c4856001613e8e565b9450600b60009054906101000a900473ffffffffffffffffffffffffffffffffffffffff1673ffffffffffffffffffffffffffffffffffffffff1663da77c3818e8e8e8e8a6040518663ffffffff167c010000000000000000000000000000000000000000000000000000000002815260040180868152602001806020018060200180602001858152602001848103845288818151815260200191508051906020019060200280838360005b8381101561118b578082015181840152602081019050611170565b50505050905001848103835287818151815260200191508051906020019060200280838360005b838110156111cd5780820151818401526020810190506111b2565b50505050905001848103825286818151815260200191508051906020019060200280838360005b8381101561120f5780820151818401526020810190506111f4565b5050505090500198505050505050505050600060405180830381600087803b151561123957600080fd5b6102c65a03f1151561124a57600080fd5b5050505b50505050505050505050505050565b600080600080600080600080600080600080600760009054906101000a900473ffffffffffffffffffffffffffffffffffffffff16600a60006101000a81548173ffffffffffffffffffffffffffffffffffffffff021916908373ffffffffffffffffffffffffffffffffffffffff160217905550600560009054906101000a900473ffffffffffffffffffffffffffffffffffffffff16600b60006101000a81548173ffffffffffffffffffffffffffffffffffffffff021916908373ffffffffffffffffffffffffffffffffffffffff160217905550600b60009054906101000a900473ffffffffffffffffffffffffffffffffffffffff1673ffffffffffffffffffffffffffffffffffffffff1663ec9ccfff8e600060405160a001526040518263ffffffff167c01000000000000000000000000000000000000000000000000000000000281526004018082815260200191505060a060405180830381600087803b15156113ce57600080fd5b6102c65a03f115156113df57600080fd5b5050506040518051906020018051906020018051906020018051906020018051905050809750819850829950839d5050505050600092505b600a60009054906101000a900473ffffffffffffffffffffffffffffffffffffffff1673ffffffffffffffffffffffffffffffffffffffff166318b0211b8b6000604051602001526040518263ffffffff167c010000000000000000000000000000000000000000000000000000000002815260040180828152602001915050602060405180830381600087803b15156114b057600080fd5b6102c65a03f115156114c157600080fd5b505050604051805190508310156117b057600a60009054906101000a900473ffffffffffffffffffffffffffffffffffffffff1673ffffffffffffffffffffffffffffffffffffffff16639deeab208b856000604051602001526040518363ffffffff167c01000000000000000000000000000000000000000000000000000000000281526004018083815260200182815260200192505050602060405180830381600087803b151561157357600080fd5b6102c65a03f1151561158457600080fd5b505050604051805190509850600b60009054906101000a900473ffffffffffffffffffffffffffffffffffffffff1673ffffffffffffffffffffffffffffffffffffffff1663e7d6bf288e856000604051602001526040518363ffffffff167c01000000000000000000000000000000000000000000000000000000000281526004018083815260200182815260200192505050602060405180830381600087803b151561163157600080fd5b6102c65a03f1151561164257600080fd5b505050604051805190509750600091505b61165d8d8a612372565b8210156117a35761166f8d8a84612ef0565b965060038781548110151561168057fe5b90600052602060002090600502016002019a508a60008154811015156116a257fe5b906000526020600020900154905083811415156116be57600080fd5b600b60009054906101000a900473ffffffffffffffffffffffffffffffffffffffff1673ffffffffffffffffffffffffffffffffffffffff166307dbff7b8d8a6040518363ffffffff167c0100000000000000000000000000000000000000000000000000000000028152600401808373ffffffffffffffffffffffffffffffffffffffff1673ffffffffffffffffffffffffffffffffffffffff16815260200182815260200192505050600060405180830381600087803b151561178257600080fd5b6102c65a03f1151561179357600080fd5b5050508180600101925050611653565b8280600101935050611417565b50505050505050505050505050565b600d5481565b60045481565b6117d3613f35565b60016000848152602001908152602001600020600083815260200190815260200160002080548060200260200160405190810160405280929190818152602001828054801561184157602002820191906000526020600020905b81548152602001906001019080831161182d575b5050505050905092915050565b600061185d6004546001613e8e565b90508060048190555090565b600080600080600080600080600560009054906101000a900473ffffffffffffffffffffffffffffffffffffffff16600b60006101000a81548173ffffffffffffffffffffffffffffffffffffffff021916908373ffffffffffffffffffffffffffffffffffffffff160217905550600660009054906101000a900473ffffffffffffffffffffffffffffffffffffffff16600960006101000a81548173ffffffffffffffffffffffffffffffffffffffff021916908373ffffffffffffffffffffffffffffffffffffffff160217905550600760009054906101000a900473ffffffffffffffffffffffffffffffffffffffff16600a60006101000a81548173ffffffffffffffffffffffffffffffffffffffff021916908373ffffffffffffffffffffffffffffffffffffffff160217905550600b60009054906101000a900473ffffffffffffffffffffffffffffffffffffffff1673ffffffffffffffffffffffffffffffffffffffff1663f65ad7508b600060405160e001526040518263ffffffff167c01000000000000000000000000000000000000000000000000000000000281526004018082815260200191505060e060405180830381600087803b1515611a3757600080fd5b6102c65a03f11515611a4857600080fd5b5050506040518051906020018051906020018051906020018051906020018051906020018051906020018051905090919293949550909192939450909192935090919250909150905080985050600b60009054906101000a900473ffffffffffffffffffffffffffffffffffffffff1673ffffffffffffffffffffffffffffffffffffffff1663ec9ccfff8b600060405160a001526040518263ffffffff167c01000000000000000000000000000000000000000000000000000000000281526004018082815260200191505060a060405180830381600087803b1515611b2e57600080fd5b6102c65a03f11515611b3f57600080fd5b50505060405180519060200180519060200180519060200180519060200180519050905050809750819950829850505050600b60009054906101000a900473ffffffffffffffffffffffffffffffffffffffff1673ffffffffffffffffffffffffffffffffffffffff166334a3210a8b6000604051608001526040518263ffffffff167c010000000000000000000000000000000000000000000000000000000002815260040180828152602001915050608060405180830381600087803b1515611c0957600080fd5b6102c65a03f11515611c1a57600080fd5b50505060405180519060200180519060200180519060200180519050909192509091509050809450506000600b60009054906101000a900473ffffffffffffffffffffffffffffffffffffffff1673ffffffffffffffffffffffffffffffffffffffff166335c42dbb336000604051602001526040518263ffffffff167c0100000000000000000000000000000000000000000000000000000000028152600401808273ffffffffffffffffffffffffffffffffffffffff1673ffffffffffffffffffffffffffffffffffffffff168152602001915050602060405180830381600087803b1515611d0a57600080fd5b6102c65a03f11515611d1b57600080fd5b5050506040518051905014158015611d335750600288145b8015611d40575060018951145b1515611d4b57600080fd5b6000871415611d805783896000815181101515611d6457fe5b9060200190602002015111151515611d7b57600080fd5b611dca565b84896000815181101515611d9057fe5b906020019060200201511480611dbe57506000896000815181101515611db257fe5b90602001906020020151145b1515611dc957600080fd5b5b600960009054906101000a900473ffffffffffffffffffffffffffffffffffffffff1673ffffffffffffffffffffffffffffffffffffffff1663beae32ba336000604051602001526040518263ffffffff167c0100000000000000000000000000000000000000000000000000000000028152600401808273ffffffffffffffffffffffffffffffffffffffff1673ffffffffffffffffffffffffffffffffffffffff168152602001915050602060405180830381600087803b1515611e8f57600080fd5b6102c65a03f11515611ea057600080fd5b505050604051805190509250600a60009054906101000a900473ffffffffffffffffffffffffffffffffffffffff1673ffffffffffffffffffffffffffffffffffffffff16639deeab2087896000604051602001526040518363ffffffff167c01000000000000000000000000000000000000000000000000000000000281526004018083815260200182815260200192505050602060405180830381600087803b1515611f4d57600080fd5b6102c65a03f11515611f5e57600080fd5b5050506040518051905083141515611f7557600080fd5b6000600260003373ffffffffffffffffffffffffffffffffffffffff1673ffffffffffffffffffffffffffffffffffffffff16815260200190815260200160002060008c815260200190815260200160002054141561235b57611fd6612a64565b9150611fe061184e565b50600b60009054906101000a900473ffffffffffffffffffffffffffffffffffffffff1673ffffffffffffffffffffffffffffffffffffffff166335c42dbb336000604051602001526040518263ffffffff167c0100000000000000000000000000000000000000000000000000000000028152600401808273ffffffffffffffffffffffffffffffffffffffff1673ffffffffffffffffffffffffffffffffffffffff168152602001915050602060405180830381600087803b15156120a657600080fd5b6102c65a03f115156120b757600080fd5b505050604051805190509050600380548060010182816120d79190613f49565b9160005260206000209060050201600060a0604051908101604052803373ffffffffffffffffffffffffffffffffffffffff1681526020018e81526020018d815260200142815260200185815250909190915060008201518160000160006101000a81548173ffffffffffffffffffffffffffffffffffffffff021916908373ffffffffffffffffffffffffffffffffffffffff160217905550602082015181600101556040820151816002019080519060200190612197929190613f7b565b5060608201518160030155608082015181600401555050506122096000808c8152602001908152602001600020600001600085815260200190815260200160002060008b60008151811015156121e957fe5b906020019060200201518152602001908152602001600020546001613e8e565b6000808c8152602001908152602001600020600001600085815260200190815260200160002060008b600081518110151561224057fe5b9060200190602002015181526020019081526020016000208190555061228c6000808c815260200190815260200160002060010160008581526020019081526020016000205482613e8e565b6000808c815260200190815260200160002060010160008581526020019081526020016000208190555081600260003373ffffffffffffffffffffffffffffffffffffffff1673ffffffffffffffffffffffffffffffffffffffff16815260200190815260200160002060008c815260200190815260200160002081905550600160008b8152602001908152602001600020600084815260200190815260200160002080548060010182816123419190613fc8565b916000526020600020900160008490919091505550612366565b6123658a8a6123a4565b5b50505050505050505050565b600060016000848152602001908152602001600020600083815260200190815260200160002080549050905092915050565b600080600080600660009054906101000a900473ffffffffffffffffffffffffffffffffffffffff16600960006101000a81548173ffffffffffffffffffffffffffffffffffffffff021916908373ffffffffffffffffffffffffffffffffffffffff160217905550600960009054906101000a900473ffffffffffffffffffffffffffffffffffffffff1673ffffffffffffffffffffffffffffffffffffffff1663beae32ba336000604051602001526040518263ffffffff167c0100000000000000000000000000000000000000000000000000000000028152600401808273ffffffffffffffffffffffffffffffffffffffff1673ffffffffffffffffffffffffffffffffffffffff168152602001915050602060405180830381600087803b15156124d257600080fd5b6102c65a03f115156124e357600080fd5b505050604051805190509350600260003373ffffffffffffffffffffffffffffffffffffffff1673ffffffffffffffffffffffffffffffffffffffff168152602001908152602001600020600087815260200190815260200160002054925060038381548110151561255157fe5b9060005260206000209060050201600201915081600081548110151561257357fe5b90600052602060002090015490506125c360008088815260200190815260200160002060000160008681526020019081526020016000206000838152602001908152602001600020546001613eac565b60008088815260200190815260200160002060000160008681526020019081526020016000206000838152602001908152602001600020819055506126586000808881526020019081526020016000206000016000868152602001908152602001600020600087600081518110151561263857fe5b906020019060200201518152602001908152602001600020546001613e8e565b6000808881526020019081526020016000206000016000868152602001908152602001600020600087600081518110151561268f57fe5b906020019060200201518152602001908152602001600020819055508460008151811015156126ba57fe5b906020019060200201516003848154811015156126d357fe5b906000526020600020906005020160020160008154811015156126f257fe5b906000526020600020900181905550505050505050565b600080600080868152602001908152602001600020600001600085815260200190815260200160002060008481526020019081526020016000205491506000808681526020019081526020016000206001016000858152602001908152602001600020549050935093915050565b600080612782613f35565b60008060038681548110151561279457fe5b906000526020600020906005020160000160009054906101000a900473ffffffffffffffffffffffffffffffffffffffff166003878154811015156127d557fe5b9060005260206000209060050201600101546003888154811015156127f657fe5b906000526020600020906005020160020160038981548110151561281657fe5b90600052602060002090600502016003015460038a81548110151561283757fe5b9060005260206000209060050201600401548280548060200260200160405190810160405280929190818152602001828054801561289457602002820191906000526020600020905b815481526020019060010190808311612880575b505050505092509450945094509450945091939590929450565b600860009054906101000a900473ffffffffffffffffffffffffffffffffffffffff16600c60006101000a81548173ffffffffffffffffffffffffffffffffffffffff021916908373ffffffffffffffffffffffffffffffffffffffff160217905550600d54811015151561292257600080fd5b600c60009054906101000a900473ffffffffffffffffffffffffffffffffffffffff1673ffffffffffffffffffffffffffffffffffffffff166323b872dd33600860009054906101000a900473ffffffffffffffffffffffffffffffffffffffff16846000604051602001526040518463ffffffff167c0100000000000000000000000000000000000000000000000000000000028152600401808473ffffffffffffffffffffffffffffffffffffffff1673ffffffffffffffffffffffffffffffffffffffff1681526020018373ffffffffffffffffffffffffffffffffffffffff1673ffffffffffffffffffffffffffffffffffffffff1681526020018281526020019350505050602060405180830381600087803b1515612a4557600080fd5b6102c65a03f11515612a5657600080fd5b505050604051805190505050565b6000600380549050905090565b600080600080600560009054906101000a900473ffffffffffffffffffffffffffffffffffffffff16600b60006101000a81548173ffffffffffffffffffffffffffffffffffffffff021916908373ffffffffffffffffffffffffffffffffffffffff160217905550612bc4600b60009054906101000a900473ffffffffffffffffffffffffffffffffffffffff1673ffffffffffffffffffffffffffffffffffffffff16631b3b74f1336000604051602001526040518263ffffffff167c0100000000000000000000000000000000000000000000000000000000028152600401808273ffffffffffffffffffffffffffffffffffffffff1673ffffffffffffffffffffffffffffffffffffffff168152602001915050602060405180830381600087803b1515612ba257600080fd5b6102c65a03f11515612bb357600080fd5b505050604051805190506001613ec5565b9250612d6b612cbd612cb6600b60009054906101000a900473ffffffffffffffffffffffffffffffffffffffff1673ffffffffffffffffffffffffffffffffffffffff166335c42dbb336000604051602001526040518263ffffffff167c0100000000000000000000000000000000000000000000000000000000028152600401808273ffffffffffffffffffffffffffffffffffffffff1673ffffffffffffffffffffffffffffffffffffffff168152602001915050602060405180830381600087803b1515612c9457600080fd5b6102c65a03f11515612ca557600080fd5b505050604051805190506064613edf565b6064613edf565b600b60009054906101000a900473ffffffffffffffffffffffffffffffffffffffff1673ffffffffffffffffffffffffffffffffffffffff1663a5d8ba896000604051602001526040518163ffffffff167c0100000000000000000000000000000000000000000000000000000000028152600401602060405180830381600087803b1515612d4b57600080fd5b6102c65a03f11515612d5c57600080fd5b50505060405180519050613f1a565b9150612e1f82600b60009054906101000a900473ffffffffffffffffffffffffffffffffffffffff1673ffffffffffffffffffffffffffffffffffffffff166311aadbfb6000604051602001526040518163ffffffff167c0100000000000000000000000000000000000000000000000000000000028152600401602060405180830381600087803b1515612dff57600080fd5b6102c65a03f11515612e1057600080fd5b50505060405180519050613ec5565b9050612ee5612ed6600b60009054906101000a900473ffffffffffffffffffffffffffffffffffffffff1673ffffffffffffffffffffffffffffffffffffffff1663ad3208466000604051602001526040518163ffffffff167c0100000000000000000000000000000000000000000000000000000000028152600401602060405180830381600087803b1515612eb557600080fd5b6102c65a03f11515612ec657600080fd5b5050506040518051905085613edf565b612ee08784613edf565b613edf565b935050505092915050565b600060016000858152602001908152602001600020600084815260200190815260200160002082815481101515612f2357fe5b90600052602060002090015490509392505050565b6000806000806000806000806000806000600560009054906101000a900473ffffffffffffffffffffffffffffffffffffffff16600b60006101000a81548173ffffffffffffffffffffffffffffffffffffffff021916908373ffffffffffffffffffffffffffffffffffffffff160217905550600660009054906101000a900473ffffffffffffffffffffffffffffffffffffffff16600960006101000a81548173ffffffffffffffffffffffffffffffffffffffff021916908373ffffffffffffffffffffffffffffffffffffffff160217905550600760009054906101000a900473ffffffffffffffffffffffffffffffffffffffff16600a60006101000a81548173ffffffffffffffffffffffffffffffffffffffff021916908373ffffffffffffffffffffffffffffffffffffffff160217905550600b60009054906101000a900473ffffffffffffffffffffffffffffffffffffffff1673ffffffffffffffffffffffffffffffffffffffff1663f65ad7508d600060405160e001526040518263ffffffff167c01000000000000000000000000000000000000000000000000000000000281526004018082815260200191505060e060405180830381600087803b151561310b57600080fd5b6102c65a03f1151561311c57600080fd5b50505060405180519060200180519060200180519060200180519060200180519060200180519060200180519050909192939495509091929394509091929350909192509091509050809b5050600b60009054906101000a900473ffffffffffffffffffffffffffffffffffffffff1673ffffffffffffffffffffffffffffffffffffffff1663ec9ccfff8d600060405160a001526040518263ffffffff167c01000000000000000000000000000000000000000000000000000000000281526004018082815260200191505060a060405180830381600087803b151561320257600080fd5b6102c65a03f1151561321357600080fd5b50505060405180519060200180519060200180519060200180519060200180519050905050809a50819c50829b50505050600b60009054906101000a900473ffffffffffffffffffffffffffffffffffffffff1673ffffffffffffffffffffffffffffffffffffffff166334a3210a8d6000604051608001526040518263ffffffff167c010000000000000000000000000000000000000000000000000000000002815260040180828152602001915050608060405180830381600087803b15156132dd57600080fd5b6102c65a03f115156132ee57600080fd5b50505060405180519060200180519060200180519060200180519050909192509091509050809750506001600b60009054906101000a900473ffffffffffffffffffffffffffffffffffffffff1673ffffffffffffffffffffffffffffffffffffffff166340b2723b8e6000604051602001526040518263ffffffff167c010000000000000000000000000000000000000000000000000000000002815260040180828152602001915050602060405180830381600087803b15156133b257600080fd5b6102c65a03f115156133c357600080fd5b5050506040518051905060ff161415156133dc57600080fd5b600960009054906101000a900473ffffffffffffffffffffffffffffffffffffffff1673ffffffffffffffffffffffffffffffffffffffff1663beae32ba336000604051602001526040518263ffffffff167c0100000000000000000000000000000000000000000000000000000000028152600401808273ffffffffffffffffffffffffffffffffffffffff1673ffffffffffffffffffffffffffffffffffffffff168152602001915050602060405180830381600087803b15156134a157600080fd5b6102c65a03f115156134b257600080fd5b50505060405180519050915060009550600090505b8681101561359957613510856000808f81526020019081526020016000206000016000858152602001908152602001600020600084815260200190815260200160002054613e8e565b94506000808d815260200190815260200160002060000160008381526020019081526020016000206000828152602001908152602001600020546000808e81526020019081526020016000206000016000848152602001908152602001600020600088815260200190815260200160002054101561358c578095505b80806001019150506134c7565b6000808d815260200190815260200160002060000160008381526020019081526020016000206000878152602001908152602001600020549350600a60009054906101000a900473ffffffffffffffffffffffffffffffffffffffff1673ffffffffffffffffffffffffffffffffffffffff166302e929c88a8c6000604051602001526040518363ffffffff167c01000000000000000000000000000000000000000000000000000000000281526004018083815260200182815260200192505050602060405180830381600087803b151561367457600080fd5b6102c65a03f1151561368557600080fd5b505050604051805190509250826136a66136a0866064613edf565b87613f1a565b101515613c7d576136b88a6001613e8e565b99506000861115613a7557600a60009054906101000a900473ffffffffffffffffffffffffffffffffffffffff1673ffffffffffffffffffffffffffffffffffffffff166318b0211b8a6000604051602001526040518263ffffffff167c010000000000000000000000000000000000000000000000000000000002815260040180828152602001915050602060405180830381600087803b151561375c57600080fd5b6102c65a03f1151561376d57600080fd5b505050604051805190508a101561384057600b60009054906101000a900473ffffffffffffffffffffffffffffffffffffffff1673ffffffffffffffffffffffffffffffffffffffff16631f15d5e28d8c8960006040518563ffffffff167c010000000000000000000000000000000000000000000000000000000002815260040180858152602001848152602001838152602001828152602001945050505050600060405180830381600087803b151561382757600080fd5b6102c65a03f1151561383857600080fd5b505050613a70565b600b60009054906101000a900473ffffffffffffffffffffffffffffffffffffffff1673ffffffffffffffffffffffffffffffffffffffff16631f15d5e28d8c898a6040518563ffffffff167c010000000000000000000000000000000000000000000000000000000002815260040180858152602001848152602001838152602001828152602001945050505050600060405180830381600087803b15156138e857600080fd5b6102c65a03f115156138f957600080fd5b505050600b60009054906101000a900473ffffffffffffffffffffffffffffffffffffffff1673ffffffffffffffffffffffffffffffffffffffff1663c12da3ae8d60036040518363ffffffff167c01000000000000000000000000000000000000000000000000000000000281526004018083815260200182815260200192505050600060405180830381600087803b151561399557600080fd5b6102c65a03f115156139a657600080fd5b505050600a60009054906101000a900473ffffffffffffffffffffffffffffffffffffffff1673ffffffffffffffffffffffffffffffffffffffff1663db0c4f798d8b6000604051602001526040518363ffffffff167c01000000000000000000000000000000000000000000000000000000000281526004018083815260200182815260200192505050602060405180830381600087803b1515613a4a57600080fd5b6102c65a03f11515613a5b57600080fd5b5050506040518051905050613a6f8c61125d565b5b613c78565b600b60009054906101000a900473ffffffffffffffffffffffffffffffffffffffff1673ffffffffffffffffffffffffffffffffffffffff16631f15d5e28d8c898a6040518563ffffffff167c010000000000000000000000000000000000000000000000000000000002815260040180858152602001848152602001838152602001828152602001945050505050600060405180830381600087803b1515613b1d57600080fd5b6102c65a03f11515613b2e57600080fd5b505050600b60009054906101000a900473ffffffffffffffffffffffffffffffffffffffff1673ffffffffffffffffffffffffffffffffffffffff1663c12da3ae8d60046040518363ffffffff167c01000000000000000000000000000000000000000000000000000000000281526004018083815260200182815260200192505050600060405180830381600087803b1515613bca57600080fd5b6102c65a03f11515613bdb57600080fd5b505050600b60009054906101000a900473ffffffffffffffffffffffffffffffffffffffff1673ffffffffffffffffffffffffffffffffffffffff1663e7030a676040518163ffffffff167c0100000000000000000000000000000000000000000000000000000000028152600401600060405180830381600087803b1515613c6357600080fd5b6102c65a03f11515613c7457600080fd5b5050505b613e80565b600b60009054906101000a900473ffffffffffffffffffffffffffffffffffffffff1673ffffffffffffffffffffffffffffffffffffffff16631f15d5e28d8c898a6040518563ffffffff167c010000000000000000000000000000000000000000000000000000000002815260040180858152602001848152602001838152602001828152602001945050505050600060405180830381600087803b1515613d2557600080fd5b6102c65a03f11515613d3657600080fd5b505050600b60009054906101000a900473ffffffffffffffffffffffffffffffffffffffff1673ffffffffffffffffffffffffffffffffffffffff1663c12da3ae8d60056040518363ffffffff167c01000000000000000000000000000000000000000000000000000000000281526004018083815260200182815260200192505050600060405180830381600087803b1515613dd257600080fd5b6102c65a03f11515613de357600080fd5b505050600b60009054906101000a900473ffffffffffffffffffffffffffffffffffffffff1673ffffffffffffffffffffffffffffffffffffffff1663e7030a676040518163ffffffff167c0100000000000000000000000000000000000000000000000000000000028152600401600060405180830381600087803b1515613e6b57600080fd5b6102c65a03f11515613e7c57600080fd5b5050505b505050505050505050505050565b6000808284019050838110151515613ea257fe5b8091505092915050565b6000828211151515613eba57fe5b818303905092915050565b600081831015613ed55781613ed7565b825b905092915050565b6000806000841415613ef45760009150613f13565b8284029050828482811515613f0557fe5b04141515613f0f57fe5b8091505b5092915050565b6000808284811515613f2857fe5b0490508091505092915050565b602060405190810160405280600081525090565b815481835581811511613f7657600502816005028360005260206000209182019101613f759190613ff4565b5b505050565b828054828255906000526020600020908101928215613fb7579160200282015b82811115613fb6578251825591602001919060010190613f9b565b5b509050613fc49190614062565b5090565b815481835581811511613fef57818360005260206000209182019101613fee9190614062565b5b505050565b61405f91905b8082111561405b57600080820160006101000a81549073ffffffffffffffffffffffffffffffffffffffff021916905560018201600090556002820160006140429190614087565b6003820160009055600482016000905550600501613ffa565b5090565b90565b61408491905b80821115614080576000816000905550600101614068565b5090565b90565b50805460008255906000526020600020908101906140a59190614062565b505600a165627a7a723058202b99d995af14e46d3ca047942fd12823c1bac2e7f56f0feca34abd7ea7c82c250029",
  "source": "/* Copyright (C) 2017 GovBlocks.io\r\n\r\n  This program is free software: you can redistribute it and/or modify\r\n    it under the terms of the GNU General Public License as published by\r\n    the Free Software Foundation, either version 3 of the License, or\r\n    (at your option) any later version.\r\n\r\n  This program is distributed in the hope that it will be useful,\r\n    but WITHOUT ANY WARRANTY; without even the implied warranty of\r\n    MERCHANTABILITY or FITNESS FOR A PARTICULAR PURPOSE.  See the\r\n    GNU General Public License for more details.\r\n\r\n  You should have received a copy of the GNU General Public License\r\n    along with this program.  If not, see http://www.gnu.org/licenses/ */\r\n\r\n\r\npragma solidity ^0.4.8;\r\n\r\nimport \"./VotingType.sol\";\r\nimport \"./GovernanceData.sol\";\r\n\r\ncontract SimpleVoting is VotingType\r\n{\r\n\r\n    using SafeMath for uint;\r\n    using Math for uint;\r\n    address GDAddress;\r\n    address MRAddress;\r\n    address PCAddress;\r\n    address GNTAddress;\r\n    MemberRoles MR;\r\n    ProposalCategory PC;\r\n    GovernanceData GD;\r\n    MintableToken MT;\r\n    uint public GNTStakValue;\r\n\r\n    function SimpleVoting()\r\n    {\r\n        uint[] verdictOption;\r\n        allVotes.push(proposalVote(0x00,0,verdictOption,now,0));\r\n        GNTStakValue=50;\r\n    }\r\n    \r\n    /// @dev Some amount to be paid while using GovBlocks contract service - Approve the contract to spend money on behalf of msg.sender\r\n    function payableGNTTokensSimpleVoting(uint _TokenAmount) public\r\n    {\r\n        MT=MintableToken(GNTAddress);\r\n        require(_TokenAmount >= GNTStakValue);\r\n        MT.transferFrom(msg.sender,GNTAddress,_TokenAmount);\r\n    }\r\n\r\n    function changeAllContractsAddress(address _GNTcontractAddress,address _GDcontractAddress, address _MRcontractAddress, address _PCcontractAddress) public\r\n    {\r\n        GNTAddress = _GNTcontractAddress;\r\n        GDAddress = _GDcontractAddress;\r\n        MRAddress = _MRcontractAddress;\r\n        PCAddress = _PCcontractAddress;\r\n    }\r\n\r\n    function getTotalVotes() constant returns (uint votesTotal)\r\n    {\r\n        return(allVotes.length);\r\n    }\r\n\r\n    function increaseTotalVotes() returns (uint _totalVotes)\r\n    {\r\n        _totalVotes = SafeMath.add(totalVotes,1);  \r\n        totalVotes=_totalVotes;\r\n    } \r\n\r\n    function getVoteDetailByid(uint _voteid) public constant returns(address voter,uint proposalId,uint[] verdictChosen,uint dateSubmit,uint voterTokens)\r\n    {\r\n        return(allVotes[_voteid].voter,allVotes[_voteid].proposalId,allVotes[_voteid].verdictChosen,allVotes[_voteid].dateSubmit,allVotes[_voteid].voterTokens);\r\n    }\r\n\r\n    function getProposalRoleVoteLength(uint _proposalId,uint _roleId) public constant returns(uint length)\r\n    {\r\n         length = ProposalRoleVote[_proposalId][_roleId].length;\r\n    }\r\n\r\n    /// @dev Get Vote id of a _roleId against given proposal.\r\n    function getProposalRoleVote(uint _proposalId,uint _roleId,uint _voteArrayIndex) public constant returns(uint voteId) \r\n    {\r\n        voteId = ProposalRoleVote[_proposalId][_roleId][_voteArrayIndex];\r\n    }\r\n\r\n    /// @dev Get the vote count for options of proposal when giving Proposal id and Option index.\r\n    function getProposalVoteAndTokenCountByRoleId(uint _proposalId,uint _roleId,uint _optionIndex) constant returns(uint totalVotes,uint totalToken)\r\n    {\r\n        totalVotes = allProposalVoteAndTokenCount[_proposalId].totalVoteCount[_roleId][_optionIndex];\r\n        totalToken = allProposalVoteAndTokenCount[_proposalId].totalTokenCount[_roleId];\r\n    }\r\n\r\n    /// @dev Get Vote id of a _roleId against given proposal.\r\n    function getProposalRoleVoteArray(uint _proposalId,uint _roleId) public constant returns(uint[] voteId) \r\n    {\r\n        return ProposalRoleVote[_proposalId][_roleId];\r\n    }\r\n\r\n    function setMemberVerdictValue(uint _proposalId,uint _memberStake) public returns (uint finalVerdictValue)\r\n    {\r\n        GD=GovernanceData(GDAddress);\r\n        uint memberLevel = Math.max256(GD.getMemberReputation(msg.sender),1);\r\n        uint tokensHeld = SafeMath.div((SafeMath.mul(SafeMath.mul(GD.getBalanceOfMember(msg.sender),100),100)),GD.getTotalTokenInSupply());\r\n        uint maxValue= Math.max256(tokensHeld,GD.membershipScalingFactor());\r\n\r\n        finalVerdictValue = SafeMath.mul(SafeMath.mul(GD.globalRiskFactor(),memberLevel),SafeMath.mul(_memberStake,maxValue));\r\n    }\r\n\r\n    function addVerdictOption(uint _proposalId,uint[] _paramInt,bytes32[] _paramBytes32,address[] _paramAddress,uint _GNTPayableTokenAmount)\r\n    {\r\n        GD=GovernanceData(GDAddress);\r\n        MR=MemberRoles(MRAddress);\r\n        PC=ProposalCategory(PCAddress);\r\n        \r\n        uint propStatus;\r\n        (,,,,,,propStatus) = GD.getProposalDetailsById1(_proposalId);\r\n        uint currentVotingId; uint category;\r\n        (category,currentVotingId,,,) = GD.getProposalDetailsById2(_proposalId);\r\n        uint verdictOptions;\r\n        (,,,verdictOptions) = GD.getProposalCategoryParams(_proposalId);\r\n\r\n        require(AddressProposalVote[msg.sender][_proposalId] == 0 );\r\n        require(GD.getBalanceOfMember(msg.sender) != 0 && propStatus == 2 && currentVotingId == 0);\r\n        require(MR.getMemberRoleIdByAddress(msg.sender) == PC.getRoleSequencAtIndex(category,currentVotingId));\r\n        payableGNTTokensSimpleVoting(_GNTPayableTokenAmount);\r\n        \r\n        uint8 paramInt; uint8 paramBytes32; uint8 paramAddress;\r\n        (,,,paramInt,paramBytes32,paramAddress,,) = PC.getCategoryDetails(category);\r\n\r\n        if(paramInt == _paramInt.length && paramBytes32 == _paramBytes32.length && paramAddress == _paramAddress.length)\r\n        {\r\n            uint stakValue = setMemberVerdictValue(_proposalId,_GNTPayableTokenAmount);\r\n            GD.setProposalVerdictAddressAndStakValue(_proposalId,msg.sender,stakValue);\r\n            verdictOptions = SafeMath.add(verdictOptions,1); \r\n            GD.setProposalCategoryParams(_proposalId,_paramInt,_paramBytes32,_paramAddress,verdictOptions);   \r\n        } \r\n    }\r\n\r\n    function proposalVoting(uint _proposalId,uint[] _verdictChosen)\r\n    {\r\n        GD=GovernanceData(GDAddress);\r\n        MR=MemberRoles(MRAddress);\r\n        PC=ProposalCategory(PCAddress);\r\n        uint propStatus;\r\n        (,,,,,,propStatus) = GD.getProposalDetailsById1(_proposalId);\r\n        uint currentVotingId; uint category; uint intermediateVerdict;\r\n        (category,currentVotingId,intermediateVerdict,,) = GD.getProposalDetailsById2(_proposalId);\r\n        uint verdictOptions;\r\n        (,,,verdictOptions) = GD.getProposalCategoryParams(_proposalId);\r\n        require(GD.getBalanceOfMember(msg.sender) != 0 && propStatus == 2 && _verdictChosen.length == 1);\r\n\r\n        if(currentVotingId == 0)\r\n            require(_verdictChosen[0] <= verdictOptions);\r\n        else\r\n            require(_verdictChosen[0]==intermediateVerdict || _verdictChosen[0]==0);\r\n        uint roleId = MR.getMemberRoleIdByAddress(msg.sender);\r\n        require(roleId == PC.getRoleSequencAtIndex(category,currentVotingId));\r\n\r\n        if(AddressProposalVote[msg.sender][_proposalId] == 0)\r\n        {\r\n            uint votelength = getTotalVotes();\r\n            increaseTotalVotes();\r\n            uint _voterTokens = GD.getBalanceOfMember(msg.sender);\r\n            allVotes.push(proposalVote(msg.sender,_proposalId,_verdictChosen,now,_voterTokens));\r\n            allProposalVoteAndTokenCount[_proposalId].totalVoteCount[roleId][_verdictChosen[0]] = SafeMath.add(allProposalVoteAndTokenCount[_proposalId].totalVoteCount[roleId][_verdictChosen[0]],1);\r\n            allProposalVoteAndTokenCount[_proposalId].totalTokenCount[roleId] = SafeMath.add(allProposalVoteAndTokenCount[_proposalId].totalTokenCount[roleId],_voterTokens);\r\n            AddressProposalVote[msg.sender][_proposalId] = votelength;\r\n            ProposalRoleVote[_proposalId][roleId].push(votelength);\r\n        }\r\n        else \r\n            changeMemberVote(_proposalId,_verdictChosen);\r\n    }\r\n\r\n    function changeMemberVote(uint _proposalId,uint[] _verdictChosen) \r\n    {\r\n        MR=MemberRoles(MRAddress); \r\n        uint roleId = MR.getMemberRoleIdByAddress(msg.sender);\r\n        uint voteId = AddressProposalVote[msg.sender][_proposalId];\r\n        uint[] verdictChosen = allVotes[voteId].verdictChosen;\r\n        uint verdict = verdictChosen[0];\r\n        \r\n        allProposalVoteAndTokenCount[_proposalId].totalVoteCount[roleId][verdict] = SafeMath.sub(allProposalVoteAndTokenCount[_proposalId].totalVoteCount[roleId][verdict],1);\r\n        allProposalVoteAndTokenCount[_proposalId].totalVoteCount[roleId][_verdictChosen[0]] = SafeMath.add(allProposalVoteAndTokenCount[_proposalId].totalVoteCount[roleId][_verdictChosen[0]],1);\r\n        allVotes[voteId].verdictChosen[0] = _verdictChosen[0];\r\n    }\r\n\r\n    function closeProposalVote(uint _proposalId)\r\n    {\r\n        GD=GovernanceData(GDAddress);\r\n        MR=MemberRoles(MRAddress);\r\n        PC=ProposalCategory(PCAddress);\r\n    \r\n        uint propStatus;\r\n        (,,,,,,propStatus) = GD.getProposalDetailsById1(_proposalId);\r\n        uint currentVotingId; uint category; uint intermediateVerdict;\r\n        (category,currentVotingId,intermediateVerdict,,) = GD.getProposalDetailsById2(_proposalId);\r\n        uint verdictOptions;\r\n        (,,,verdictOptions) = GD.getProposalCategoryParams(_proposalId);\r\n    \r\n        require(GD.checkProposalVoteClosing(_proposalId)==1);\r\n        uint max; uint totalVotes; uint verdictVal; uint majorityVote;\r\n        uint roleId = MR.getMemberRoleIdByAddress(msg.sender);\r\n\r\n        max=0;  \r\n        for(uint i = 0; i < verdictOptions; i++)\r\n        {\r\n            totalVotes = SafeMath.add(totalVotes,allProposalVoteAndTokenCount[_proposalId].totalVoteCount[roleId][i]); \r\n            if(allProposalVoteAndTokenCount[_proposalId].totalVoteCount[roleId][max] < allProposalVoteAndTokenCount[_proposalId].totalVoteCount[roleId][i])\r\n            {  \r\n                max = i; \r\n            }\r\n        }\r\n        verdictVal = allProposalVoteAndTokenCount[_proposalId].totalVoteCount[roleId][max];\r\n        majorityVote= PC.getRoleMajorityVote(category,currentVotingId);\r\n       \r\n        if(SafeMath.div(SafeMath.mul(verdictVal,100),totalVotes)>=majorityVote)\r\n        {   \r\n            currentVotingId = SafeMath.add(currentVotingId,1);\r\n            if(max > 0 )\r\n            {\r\n                if(currentVotingId < PC.getRoleSequencLength(category))\r\n                {\r\n                    GD.updateProposalDetails(_proposalId,currentVotingId,max,0);\r\n                } \r\n                else\r\n                {\r\n                    GD.updateProposalDetails(_proposalId,currentVotingId,max,max);\r\n                    GD.changeProposalStatus(_proposalId,3);\r\n                    PC.actionAfterProposalPass(_proposalId ,category);\r\n                    giveReward_afterFinalDecision(_proposalId);\r\n                }\r\n            }\r\n            else\r\n            {\r\n                GD.updateProposalDetails(_proposalId,currentVotingId,max,max);\r\n                GD.changeProposalStatus(_proposalId,4);\r\n                GD.changePendingProposalStart();\r\n            }      \r\n        } \r\n        else\r\n        {\r\n            GD.updateProposalDetails(_proposalId,currentVotingId,max,max);\r\n            GD.changeProposalStatus(_proposalId,5);\r\n            GD.changePendingProposalStart();\r\n        } \r\n    }\r\n     \r\n    function giveReward_afterFinalDecision(uint _proposalId) public \r\n    {\r\n        address voter; uint[] verdictChosen;uint category; uint roleId; uint reward;uint voteid;\r\n        PC=ProposalCategory(PCAddress); \r\n        GD=GovernanceData(GDAddress);\r\n        uint currentVotingId;uint intermediateVerdict;uint finalVerdict;\r\n        (category,currentVotingId,intermediateVerdict,finalVerdict,) = GD.getProposalDetailsById2(_proposalId);\r\n\r\n        for(uint index=0; index<PC.getRoleSequencLength(category); index++)\r\n        {\r\n            roleId = PC.getRoleSequencAtIndex(category,index);\r\n            reward = GD.getProposalRewardAndComplexity(_proposalId,index);\r\n            for(uint i=0; i<getProposalRoleVoteLength(_proposalId,roleId); i++)\r\n            {\r\n                voteid = getProposalRoleVote(_proposalId,roleId,i);\r\n                verdictChosen = allVotes[voteid].verdictChosen;\r\n                uint verdict = verdictChosen[0];\r\n                require(verdict == finalVerdict);\r\n                GD.transferTokenAfterFinalReward(voter,reward);  \r\n            }\r\n        }    \r\n    }\r\n\r\n}\r\n",
  "sourcePath": "D:\\2. GovBlocks Contracts\\GovBlocks Git-Master\\contracts\\SimpleVoting.sol",
  "compiler": {
    "name": "solc",
    "version": "0.4.18+commit.9cf6e910.Emscripten.clang"
  },
  "schemaVersion": "1.0.1",
  "updatedAt": "2017-12-08T05:00:11.642Z"
}