{
  "contractName": "simpleVoting",
  "abi": [
    {
      "constant": false,
      "inputs": [
        {
          "name": "_proposalId",
          "type": "uint256"
        }
      ],
      "name": "giveReward_afterFinalDecision",
      "outputs": [],
      "payable": false,
      "stateMutability": "nonpayable",
      "type": "function"
    },
    {
      "constant": false,
      "inputs": [
        {
          "name": "_proposalId",
          "type": "uint256"
        },
        {
          "name": "_solutionChosen",
          "type": "uint256[]"
        },
        {
          "name": "_v",
          "type": "uint8"
        },
        {
          "name": "_r",
          "type": "bytes32"
        },
        {
          "name": "_s",
          "type": "bytes32"
        }
      ],
      "name": "proposalVoting_inEther",
      "outputs": [],
      "payable": true,
      "stateMutability": "payable",
      "type": "function"
    },
    {
      "constant": false,
      "inputs": [],
      "name": "SimpleVotingInitiate",
      "outputs": [],
      "payable": false,
      "stateMutability": "nonpayable",
      "type": "function"
    },
    {
      "constant": false,
      "inputs": [
        {
          "name": "_proposalId",
          "type": "uint256"
        },
        {
          "name": "_solutionHash",
          "type": "string"
        },
        {
          "name": "_v",
          "type": "uint8"
        },
        {
          "name": "_r",
          "type": "bytes32"
        },
        {
          "name": "_s",
          "type": "bytes32"
        }
      ],
      "name": "addSolution_inEther",
      "outputs": [],
      "payable": true,
      "stateMutability": "payable",
      "type": "function"
    },
    {
      "constant": true,
      "inputs": [],
      "name": "constructorCheck",
      "outputs": [
        {
          "name": "",
          "type": "bool"
        }
      ],
      "payable": false,
      "stateMutability": "view",
      "type": "function"
    },
    {
      "constant": false,
      "inputs": [
        {
          "name": "contractName",
          "type": "bytes4"
        },
        {
          "name": "contractAddress",
          "type": "address"
        }
      ],
      "name": "changeAddress",
      "outputs": [],
      "payable": false,
      "stateMutability": "nonpayable",
      "type": "function"
    },
    {
      "constant": false,
      "inputs": [
        {
          "name": "_proposalId",
          "type": "uint256"
        },
        {
          "name": "_solutionChosen",
          "type": "uint256[]"
        },
        {
          "name": "_voteStake",
          "type": "uint256"
        },
        {
          "name": "_v",
          "type": "uint8"
        },
        {
          "name": "_r",
          "type": "bytes32"
        },
        {
          "name": "_s",
          "type": "bytes32"
        }
      ],
      "name": "proposalVoting",
      "outputs": [],
      "payable": false,
      "stateMutability": "nonpayable",
      "type": "function"
    },
    {
      "constant": false,
      "inputs": [
        {
          "name": "_proposalId",
          "type": "uint256"
        },
        {
          "name": "_memberAddress",
          "type": "address"
        },
        {
          "name": "_solutionStake",
          "type": "uint256"
        },
        {
          "name": "_solutionHash",
          "type": "string"
        },
        {
          "name": "_dateAdd",
          "type": "uint256"
        },
        {
          "name": "_v",
          "type": "uint8"
        },
        {
          "name": "_r",
          "type": "bytes32"
        },
        {
          "name": "_s",
          "type": "bytes32"
        }
      ],
      "name": "addSolution",
      "outputs": [],
      "payable": false,
      "stateMutability": "nonpayable",
      "type": "function"
    },
    {
      "constant": false,
      "inputs": [
        {
          "name": "_proposalId",
          "type": "uint256"
        },
        {
          "name": "_solutionStake",
          "type": "uint256"
        },
        {
          "name": "_solutionHash",
          "type": "string"
        },
        {
          "name": "_v",
          "type": "uint8"
        },
        {
          "name": "_r",
          "type": "bytes32"
        },
        {
          "name": "_s",
          "type": "bytes32"
        }
      ],
      "name": "initiateAddSolution",
      "outputs": [],
      "payable": false,
      "stateMutability": "nonpayable",
      "type": "function"
    },
    {
      "constant": false,
      "inputs": [
        {
          "name": "_proposalId",
          "type": "uint256"
        }
      ],
      "name": "closeProposalVote",
      "outputs": [],
      "payable": false,
      "stateMutability": "nonpayable",
      "type": "function"
    },
    {
      "constant": true,
      "inputs": [],
      "name": "masterAddress",
      "outputs": [
        {
          "name": "",
          "type": "address"
        }
      ],
      "payable": false,
      "stateMutability": "view",
      "type": "function"
    },
    {
      "constant": false,
      "inputs": [
        {
          "name": "_masterContractAddress",
          "type": "address"
        }
      ],
      "name": "changeMasterAddress",
      "outputs": [],
      "payable": false,
      "stateMutability": "nonpayable",
      "type": "function"
    },
    {
      "constant": false,
      "inputs": [
        {
          "name": "_GBTSAddress",
          "type": "address"
        }
      ],
      "name": "changeGBTSAddress",
      "outputs": [],
      "payable": false,
      "stateMutability": "nonpayable",
      "type": "function"
    },
    {
      "constant": true,
      "inputs": [],
      "name": "votingTypeName",
      "outputs": [
        {
          "name": "",
          "type": "string"
        }
      ],
      "payable": false,
      "stateMutability": "view",
      "type": "function"
    }
  ],
  "bytecode": "0x6060604052341561000f57600080fd5b6147178061001e6000396000f3006060604052600436106100d0576000357c0100000000000000000000000000000000000000000000000000000000900463ffffffff1680630a256ae1146100d5578063185d4afc146100f857806336cd1066146101765780633fb39b361461018b578063525050e11461020c57806367bf5d0c1461023957806374393ad31461029a5780638e4ee41a1461032c5780638eae2db8146103e9578063c46994ce1461047e578063d365a08e146104a1578063d46655f4146104f6578063eecedcb01461052f578063f8eb64b214610568575b600080fd5b34156100e057600080fd5b6100f660048080359060200190919050506105f6565b005b61017460048080359060200190919080359060200190820180359060200190808060200260200160405190810160405280939291908181526020018383602002808284378201915050505050509190803560ff169060200190919080356000191690602001909190803560001916906020019091905050611471565b005b341561018157600080fd5b610189611535565b005b61020a600480803590602001909190803590602001908201803590602001908080601f0160208091040260200160405190810160405280939291908181526020018383808284378201915050505050509190803560ff1690602001909190803560001916906020019091908035600019169060200190919050506115c0565b005b341561021757600080fd5b61021f611684565b604051808215151515815260200191505060405180910390f35b341561024457600080fd5b61029860048080357bffffffffffffffffffffffffffffffffffffffffffffffffffffffff191690602001909190803573ffffffffffffffffffffffffffffffffffffffff16906020019091905050611697565b005b34156102a557600080fd5b61032a60048080359060200190919080359060200190820180359060200190808060200260200160405190810160405280939291908181526020018383602002808284378201915050505050509190803590602001909190803560ff169060200190919080356000191690602001909190803560001916906020019091905050611ab1565b005b341561033757600080fd5b6103e7600480803590602001909190803573ffffffffffffffffffffffffffffffffffffffff1690602001909190803590602001909190803590602001908201803590602001908080601f0160208091040260200160405190810160405280939291908181526020018383808284378201915050505050509190803590602001909190803560ff169060200190919080356000191690602001909190803560001916906020019091905050612402565b005b34156103f457600080fd5b61047c600480803590602001909190803590602001909190803590602001908201803590602001908080601f0160208091040260200160405190810160405280939291908181526020018383808284378201915050505050509190803560ff16906020019091908035600019169060200190919080356000191690602001909190505061297d565b005b341561048957600080fd5b61049f6004808035906020019091905050612995565b005b34156104ac57600080fd5b6104b4612a3c565b604051808273ffffffffffffffffffffffffffffffffffffffff1673ffffffffffffffffffffffffffffffffffffffff16815260200191505060405180910390f35b341561050157600080fd5b61052d600480803573ffffffffffffffffffffffffffffffffffffffff16906020019091905050612a62565b005b341561053a57600080fd5b610566600480803573ffffffffffffffffffffffffffffffffffffffff16906020019091905050612c83565b005b341561057357600080fd5b61057b612d23565b6040518080602001828103825283818151815260200191508051906020019080838360005b838110156105bb5780820151818401526020810190506105a0565b50505050905090810190601f1680156105e85780820380516001836020036101000a031916815260200191505b509250505060405180910390f35b600080600080600080600080600860009054906101000a900473ffffffffffffffffffffffffffffffffffffffff16600760006101000a81548173ffffffffffffffffffffffffffffffffffffffff021916908373ffffffffffffffffffffffffffffffffffffffff16021790555060011515600760009054906101000a900473ffffffffffffffffffffffffffffffffffffffff1673ffffffffffffffffffffffffffffffffffffffff16638f16c41c336000604051602001526040518263ffffffff167c0100000000000000000000000000000000000000000000000000000000028152600401808273ffffffffffffffffffffffffffffffffffffffff1673ffffffffffffffffffffffffffffffffffffffff168152602001915050602060405180830381600087803b151561072e57600080fd5b6102c65a03f1151561073f57600080fd5b50505060405180519050151514151561075757600080fd5b600260009054906101000a900473ffffffffffffffffffffffffffffffffffffffff1673ffffffffffffffffffffffffffffffffffffffff166322d3f8bc8a6000604051602001526040518263ffffffff167c010000000000000000000000000000000000000000000000000000000002815260040180828152602001915050602060405180830381600087803b15156107f057600080fd5b6102c65a03f1151561080157600080fd5b5050506040518051905095506000600260009054906101000a900473ffffffffffffffffffffffffffffffffffffffff1673ffffffffffffffffffffffffffffffffffffffff166322d3f8bc8b6000604051602001526040518263ffffffff167c010000000000000000000000000000000000000000000000000000000002815260040180828152602001915050602060405180830381600087803b15156108a857600080fd5b6102c65a03f115156108b957600080fd5b505050604051805190501015610a9857610a9587600260009054906101000a900473ffffffffffffffffffffffffffffffffffffffff1673ffffffffffffffffffffffffffffffffffffffff16638aae7599600260009054906101000a900473ffffffffffffffffffffffffffffffffffffffff1673ffffffffffffffffffffffffffffffffffffffff166317826ac48e6000604051602001526040518263ffffffff167c010000000000000000000000000000000000000000000000000000000002815260040180828152602001915050602060405180830381600087803b15156109a457600080fd5b6102c65a03f115156109b557600080fd5b505050604051805190508d6000604051602001526040518363ffffffff167c0100000000000000000000000000000000000000000000000000000000028152600401808373ffffffffffffffffffffffffffffffffffffffff1673ffffffffffffffffffffffffffffffffffffffff168152602001828152602001807f500000000000000000000000000000000000000000000000000000000000000081525060200192505050602060405180830381600087803b1515610a7557600080fd5b6102c65a03f11515610a8657600080fd5b50505060405180519050612dc1565b96505b600093505b600260009054906101000a900473ffffffffffffffffffffffffffffffffffffffff1673ffffffffffffffffffffffffffffffffffffffff1663f351df058a6000604051602001526040518263ffffffff167c010000000000000000000000000000000000000000000000000000000002815260040180828152602001915050602060405180830381600087803b1515610b3657600080fd5b6102c65a03f11515610b4757600080fd5b50505060405180519050841015610d45578584141515610d3857610d3587600260009054906101000a900473ffffffffffffffffffffffffffffffffffffffff1673ffffffffffffffffffffffffffffffffffffffff16638aae7599600260009054906101000a900473ffffffffffffffffffffffffffffffffffffffff1673ffffffffffffffffffffffffffffffffffffffff1663bfe8826d8e8a6000604051602001526040518363ffffffff167c01000000000000000000000000000000000000000000000000000000000281526004018083815260200182815260200192505050602060405180830381600087803b1515610c4457600080fd5b6102c65a03f11515610c5557600080fd5b505050604051805190508d6000604051602001526040518363ffffffff167c0100000000000000000000000000000000000000000000000000000000028152600401808373ffffffffffffffffffffffffffffffffffffffff1673ffffffffffffffffffffffffffffffffffffffff168152602001828152602001807f530000000000000000000000000000000000000000000000000000000000000081525060200192505050602060405180830381600087803b1515610d1557600080fd5b6102c65a03f11515610d2657600080fd5b50505060405180519050612dc1565b96505b8380600101945050610a9d565b600360009054906101000a900473ffffffffffffffffffffffffffffffffffffffff1673ffffffffffffffffffffffffffffffffffffffff1663ed4aef526000604051602001526040518163ffffffff167c0100000000000000000000000000000000000000000000000000000000028152600401602060405180830381600087803b1515610dd357600080fd5b6102c65a03f11515610de457600080fd5b505050604051805190509450600093505b848410156112fa57600260009054906101000a900473ffffffffffffffffffffffffffffffffffffffff1673ffffffffffffffffffffffffffffffffffffffff1663296569cf8a866000604051602001526040518363ffffffff167c01000000000000000000000000000000000000000000000000000000000281526004018083815260200182815260200192505050602060405180830381600087803b1515610e9e57600080fd5b6102c65a03f11515610eaf57600080fd5b505050604051805190509250600091505b828210156112ed57600260009054906101000a900473ffffffffffffffffffffffffffffffffffffffff1673ffffffffffffffffffffffffffffffffffffffff166318ff42528a84600080604051602001526040518463ffffffff167c0100000000000000000000000000000000000000000000000000000000028152600401808481526020018381526020018281526020019350505050602060405180830381600087803b1515610f7157600080fd5b6102c65a03f11515610f8257600080fd5b50505060405180519050905085600260009054906101000a900473ffffffffffffffffffffffffffffffffffffffff1673ffffffffffffffffffffffffffffffffffffffff1663b068892183600080604051602001526040518363ffffffff167c01000000000000000000000000000000000000000000000000000000000281526004018083815260200182815260200192505050602060405180830381600087803b151561103057600080fd5b6102c65a03f1151561104157600080fd5b505050604051805190501415156112e05761121e87600260009054906101000a900473ffffffffffffffffffffffffffffffffffffffff1673ffffffffffffffffffffffffffffffffffffffff16638aae7599600260009054906101000a900473ffffffffffffffffffffffffffffffffffffffff1673ffffffffffffffffffffffffffffffffffffffff1663d83b2c05866000604051602001526040518263ffffffff167c010000000000000000000000000000000000000000000000000000000002815260040180828152602001915050602060405180830381600087803b151561112d57600080fd5b6102c65a03f1151561113e57600080fd5b505050604051805190508d6000604051602001526040518363ffffffff167c0100000000000000000000000000000000000000000000000000000000028152600401808373ffffffffffffffffffffffffffffffffffffffff1673ffffffffffffffffffffffffffffffffffffffff168152602001828152602001807f560000000000000000000000000000000000000000000000000000000000000081525060200192505050602060405180830381600087803b15156111fe57600080fd5b6102c65a03f1151561120f57600080fd5b50505060405180519050612dc1565b96506112dd88600260009054906101000a900473ffffffffffffffffffffffffffffffffffffffff1673ffffffffffffffffffffffffffffffffffffffff16633ee9363b846000604051602001526040518263ffffffff167c010000000000000000000000000000000000000000000000000000000002815260040180828152602001915050602060405180830381600087803b15156112bd57600080fd5b6102c65a03f115156112ce57600080fd5b50505060405180519050612dc1565b97505b8180600101925050610ec0565b8380600101945050610df5565b600260009054906101000a900473ffffffffffffffffffffffffffffffffffffffff1673ffffffffffffffffffffffffffffffffffffffff166352301a5e8a6000604051602001526040518263ffffffff167c010000000000000000000000000000000000000000000000000000000002815260040180828152602001915050602060405180830381600087803b151561139357600080fd5b6102c65a03f115156113a457600080fd5b5050506040518051905087019650600460009054906101000a900473ffffffffffffffffffffffffffffffffffffffff1673ffffffffffffffffffffffffffffffffffffffff16639f7320898a898b6040518463ffffffff167c0100000000000000000000000000000000000000000000000000000000028152600401808481526020018381526020018281526020019350505050600060405180830381600087803b151561145257600080fd5b6102c65a03f1151561146357600080fd5b505050505050505050505050565b6000600160009054906101000a900473ffffffffffffffffffffffffffffffffffffffff1673ffffffffffffffffffffffffffffffffffffffff1663a4821719346000604051602001526040518263ffffffff167c01000000000000000000000000000000000000000000000000000000000281526004016020604051808303818588803b151561150157600080fd5b6125ee5a03f1151561151257600080fd5b5050505060405180519050905061152d868683878787611ab1565b505050505050565b60001515600760149054906101000a900460ff16151514151561155757600080fd5b6040805190810160405280600d81526020017f53696d706c6520566f74696e6700000000000000000000000000000000000000815250600090805190602001906115a2929190614646565b506001600760146101000a81548160ff021916908315150217905550565b6000600160009054906101000a900473ffffffffffffffffffffffffffffffffffffffff1673ffffffffffffffffffffffffffffffffffffffff1663a4821719346000604051602001526040518263ffffffff167c01000000000000000000000000000000000000000000000000000000000281526004016020604051808303818588803b151561165057600080fd5b6125ee5a03f1151561166157600080fd5b5050505060405180519050905061167c86828787878761297d565b505050505050565b600760149054906101000a900460ff1681565b600860009054906101000a900473ffffffffffffffffffffffffffffffffffffffff16600760006101000a81548173ffffffffffffffffffffffffffffffffffffffff021916908373ffffffffffffffffffffffffffffffffffffffff16021790555060011515600760009054906101000a900473ffffffffffffffffffffffffffffffffffffffff1673ffffffffffffffffffffffffffffffffffffffff16638f16c41c336000604051602001526040518263ffffffff167c0100000000000000000000000000000000000000000000000000000000028152600401808273ffffffffffffffffffffffffffffffffffffffff1673ffffffffffffffffffffffffffffffffffffffff168152602001915050602060405180830381600087803b15156117c357600080fd5b6102c65a03f115156117d457600080fd5b5050506040518051905015151415156117ec57600080fd5b7f4744000000000000000000000000000000000000000000000000000000000000827bffffffffffffffffffffffffffffffffffffffffffffffffffffffff191614156118795780600260006101000a81548173ffffffffffffffffffffffffffffffffffffffff021916908373ffffffffffffffffffffffffffffffffffffffff160217905550611aad565b7f4d52000000000000000000000000000000000000000000000000000000000000827bffffffffffffffffffffffffffffffffffffffffffffffffffffffff191614156119065780600360006101000a81548173ffffffffffffffffffffffffffffffffffffffff021916908373ffffffffffffffffffffffffffffffffffffffff160217905550611aac565b7f5043000000000000000000000000000000000000000000000000000000000000827bffffffffffffffffffffffffffffffffffffffffffffffffffffffff191614156119935780600560006101000a81548173ffffffffffffffffffffffffffffffffffffffff021916908373ffffffffffffffffffffffffffffffffffffffff160217905550611aab565b7f5654000000000000000000000000000000000000000000000000000000000000827bffffffffffffffffffffffffffffffffffffffffffffffffffffffff19161415611a205780600660006101000a81548173ffffffffffffffffffffffffffffffffffffffff021916908373ffffffffffffffffffffffffffffffffffffffff160217905550611aaa565b7f4756000000000000000000000000000000000000000000000000000000000000827bffffffffffffffffffffffffffffffffffffffffffffffffffffffff19161415611aa95780600460006101000a81548173ffffffffffffffffffffffffffffffffffffffff021916908373ffffffffffffffffffffffffffffffffffffffff1602179055505b5b5b5b5b5050565b6000806000806000806000600260009054906101000a900473ffffffffffffffffffffffffffffffffffffffff1673ffffffffffffffffffffffffffffffffffffffff1663ec9ccfff8e600060405160e001526040518263ffffffff167c01000000000000000000000000000000000000000000000000000000000281526004018082815260200191505060e060405180830381600087803b1515611b5557600080fd5b6102c65a03f11515611b6657600080fd5b50505060405180519060200180519060200180519060200180519060200180519060200180519060200180519050909192939495508560ff1695508460ff1694508360ff169350909150905050809650819750829550505050600560009054906101000a900473ffffffffffffffffffffffffffffffffffffffff1673ffffffffffffffffffffffffffffffffffffffff1663f28395d684876000604051606001526040518363ffffffff167c01000000000000000000000000000000000000000000000000000000000281526004018083815260200182815260200192505050606060405180830381600087803b1515611c6057600080fd5b6102c65a03f11515611c7157600080fd5b5050506040518051906020018051906020018051905090508097508198505050600260009054906101000a900473ffffffffffffffffffffffffffffffffffffffff1673ffffffffffffffffffffffffffffffffffffffff1663e3726e808e6000604051602001526040518263ffffffff167c010000000000000000000000000000000000000000000000000000000002815260040180828152602001915050602060405180830381600087803b1515611d2a57600080fd5b6102c65a03f11515611d3b57600080fd5b50505060405180519050915042611d528388612dc1565b10158015611e5f5750600260009054906101000a900473ffffffffffffffffffffffffffffffffffffffff1673ffffffffffffffffffffffffffffffffffffffff1663bfe8826d8e8e6000815181101515611da957fe5b906020019060200201516000604051602001526040518363ffffffff167c01000000000000000000000000000000000000000000000000000000000281526004018083815260200182815260200192505050602060405180830381600087803b1515611e1457600080fd5b6102c65a03f11515611e2557600080fd5b5050506040518051905073ffffffffffffffffffffffffffffffffffffffff163373ffffffffffffffffffffffffffffffffffffffff1614155b1515611e6a57600080fd5b60011515600360009054906101000a900473ffffffffffffffffffffffffffffffffffffffff1673ffffffffffffffffffffffffffffffffffffffff1663a719c024338a6000604051602001526040518363ffffffff167c0100000000000000000000000000000000000000000000000000000000028152600401808373ffffffffffffffffffffffffffffffffffffffff1673ffffffffffffffffffffffffffffffffffffffff1681526020018260ff1663ffffffff16815260200192505050602060405180830381600087803b1515611f4457600080fd5b6102c65a03f11515611f5557600080fd5b50505060405180519050151514801561204e57506000600160009054906101000a900473ffffffffffffffffffffffffffffffffffffffff1673ffffffffffffffffffffffffffffffffffffffff166370a08231336000604051602001526040518263ffffffff167c0100000000000000000000000000000000000000000000000000000000028152600401808273ffffffffffffffffffffffffffffffffffffffff1673ffffffffffffffffffffffffffffffffffffffff168152602001915050602060405180830381600087803b151561203057600080fd5b6102c65a03f1151561204157600080fd5b5050506040518051905014155b801561210c575060028060009054906101000a900473ffffffffffffffffffffffffffffffffffffffff1673ffffffffffffffffffffffffffffffffffffffff1663401853b78f6000604051602001526040518263ffffffff167c010000000000000000000000000000000000000000000000000000000002815260040180828152602001915050602060405180830381600087803b15156120ef57600080fd5b6102c65a03f1151561210057600080fd5b50505060405180519050145b8015612119575060018c51145b151561212457600080fd5b600560009054906101000a900473ffffffffffffffffffffffffffffffffffffffff1673ffffffffffffffffffffffffffffffffffffffff166354dacca7846000604051602001526040518263ffffffff167c010000000000000000000000000000000000000000000000000000000002815260040180828152602001915050602060405180830381600087803b15156121bd57600080fd5b6102c65a03f115156121ce57600080fd5b5050506040518051905060ff168b111580156122a05750600560009054906101000a900473ffffffffffffffffffffffffffffffffffffffff1673ffffffffffffffffffffffffffffffffffffffff166373f231e7846000604051602001526040518263ffffffff167c010000000000000000000000000000000000000000000000000000000002815260040180828152602001915050602060405180830381600087803b151561227e57600080fd5b6102c65a03f1151561228f57600080fd5b5050506040518051905060ff168b10155b15156122ab57600080fd5b600085141561239357600260009054906101000a900473ffffffffffffffffffffffffffffffffffffffff1673ffffffffffffffffffffffffffffffffffffffff1663f351df058e6000604051602001526040518263ffffffff167c010000000000000000000000000000000000000000000000000000000002815260040180828152602001915050602060405180830381600087803b151561234d57600080fd5b6102c65a03f1151561235e57600080fd5b505050604051805190508c600081518110151561237757fe5b906020019060200201511115151561238e57600080fd5b6123dd565b838c60008151811015156123a357fe5b9060200190602002015114806123d1575060008c60008151811015156123c557fe5b90602001906020020151145b15156123dc57600080fd5b5b8660ff1690506123f38d8d338e858f8f8f612ddf565b50505050505050505050505050565b600860009054906101000a900473ffffffffffffffffffffffffffffffffffffffff16600760006101000a81548173ffffffffffffffffffffffffffffffffffffffff021916908373ffffffffffffffffffffffffffffffffffffffff16021790555060011515600760009054906101000a900473ffffffffffffffffffffffffffffffffffffffff1673ffffffffffffffffffffffffffffffffffffffff16638f16c41c336000604051602001526040518263ffffffff167c0100000000000000000000000000000000000000000000000000000000028152600401808273ffffffffffffffffffffffffffffffffffffffff1673ffffffffffffffffffffffffffffffffffffffff168152602001915050602060405180830381600087803b151561252e57600080fd5b6102c65a03f1151561253f57600080fd5b505050604051805190501515148061258257508673ffffffffffffffffffffffffffffffffffffffff163373ffffffffffffffffffffffffffffffffffffffff16145b151561258d57600080fd5b600560009054906101000a900473ffffffffffffffffffffffffffffffffffffffff1673ffffffffffffffffffffffffffffffffffffffff166354dacca7600260009054906101000a900473ffffffffffffffffffffffffffffffffffffffff1673ffffffffffffffffffffffffffffffffffffffff16637fd6e5108b6000604051602001526040518263ffffffff167c010000000000000000000000000000000000000000000000000000000002815260040180828152602001915050602060405180830381600087803b151561266457600080fd5b6102c65a03f1151561267557600080fd5b505050604051805190506000604051602001526040518263ffffffff167c0100000000000000000000000000000000000000000000000000000000028152600401808260ff168152602001915050602060405180830381600087803b15156126dc57600080fd5b6102c65a03f115156126ed57600080fd5b5050506040518051905060ff1686111580156128755750600560009054906101000a900473ffffffffffffffffffffffffffffffffffffffff1673ffffffffffffffffffffffffffffffffffffffff166373f231e7600260009054906101000a900473ffffffffffffffffffffffffffffffffffffffff1673ffffffffffffffffffffffffffffffffffffffff16637fd6e5108b6000604051602001526040518263ffffffff167c010000000000000000000000000000000000000000000000000000000002815260040180828152602001915050602060405180830381600087803b15156127db57600080fd5b6102c65a03f115156127ec57600080fd5b505050604051805190506000604051602001526040518263ffffffff167c0100000000000000000000000000000000000000000000000000000000028152600401808260ff168152602001915050602060405180830381600087803b151561285357600080fd5b6102c65a03f1151561286457600080fd5b5050506040518051905060ff168610155b151561288057600080fd5b61288f888787878787876133cb565b61289b88888787613b59565b600260009054906101000a900473ffffffffffffffffffffffffffffffffffffffff1673ffffffffffffffffffffffffffffffffffffffff1663d5a3ff4289896040518363ffffffff167c0100000000000000000000000000000000000000000000000000000000028152600401808381526020018273ffffffffffffffffffffffffffffffffffffffff1673ffffffffffffffffffffffffffffffffffffffff16815260200192505050600060405180830381600087803b151561295f57600080fd5b6102c65a03f1151561297057600080fd5b5050505050505050505050565b61298d8633878742888888612402565b505050505050565b600660009054906101000a900473ffffffffffffffffffffffffffffffffffffffff1673ffffffffffffffffffffffffffffffffffffffff166315d40870826040518263ffffffff167c010000000000000000000000000000000000000000000000000000000002815260040180828152602001915050600060405180830381600087803b1515612a2557600080fd5b6102c65a03f11515612a3657600080fd5b50505050565b600860009054906101000a900473ffffffffffffffffffffffffffffffffffffffff1681565b6000600860009054906101000a900473ffffffffffffffffffffffffffffffffffffffff1673ffffffffffffffffffffffffffffffffffffffff161415612ae95780600860006101000a81548173ffffffffffffffffffffffffffffffffffffffff021916908373ffffffffffffffffffffffffffffffffffffffff160217905550612c80565b600860009054906101000a900473ffffffffffffffffffffffffffffffffffffffff16600760006101000a81548173ffffffffffffffffffffffffffffffffffffffff021916908373ffffffffffffffffffffffffffffffffffffffff16021790555060011515600760009054906101000a900473ffffffffffffffffffffffffffffffffffffffff1673ffffffffffffffffffffffffffffffffffffffff16638f16c41c336000604051602001526040518263ffffffff167c0100000000000000000000000000000000000000000000000000000000028152600401808273ffffffffffffffffffffffffffffffffffffffff1673ffffffffffffffffffffffffffffffffffffffff168152602001915050602060405180830381600087803b1515612c1557600080fd5b6102c65a03f11515612c2657600080fd5b505050604051805190501515141515612c3e57600080fd5b80600860006101000a81548173ffffffffffffffffffffffffffffffffffffffff021916908373ffffffffffffffffffffffffffffffffffffffff1602179055505b50565b600860009054906101000a900473ffffffffffffffffffffffffffffffffffffffff1673ffffffffffffffffffffffffffffffffffffffff163373ffffffffffffffffffffffffffffffffffffffff16141515612cdf57600080fd5b80600160006101000a81548173ffffffffffffffffffffffffffffffffffffffff021916908373ffffffffffffffffffffffffffffffffffffffff16021790555050565b60008054600181600116156101000203166002900480601f016020809104026020016040519081016040528092919081815260200182805460018160011615610100020316600290048015612db95780601f10612d8e57610100808354040283529160200191612db9565b820191906000526020600020905b815481529060010190602001808311612d9c57829003601f168201915b505050505081565b6000808284019050838110151515612dd557fe5b8091505092915050565b6000806000600260009054906101000a900473ffffffffffffffffffffffffffffffffffffffff1673ffffffffffffffffffffffffffffffffffffffff1663eef83a4b8a8d6000604051602001526040518363ffffffff167c0100000000000000000000000000000000000000000000000000000000028152600401808373ffffffffffffffffffffffffffffffffffffffff1673ffffffffffffffffffffffffffffffffffffffff16815260200182815260200192505050602060405180830381600087803b1515612eb157600080fd5b6102c65a03f11515612ec257600080fd5b5050506040518051905014156133bf57600260009054906101000a900473ffffffffffffffffffffffffffffffffffffffff1673ffffffffffffffffffffffffffffffffffffffff166379098c646000604051602001526040518163ffffffff167c0100000000000000000000000000000000000000000000000000000000028152600401602060405180830381600087803b1515612f6057600080fd5b6102c65a03f11515612f7157600080fd5b505050604051805190509150600660009054906101000a900473ffffffffffffffffffffffffffffffffffffffff1673ffffffffffffffffffffffffffffffffffffffff1663ceeb6f1b898c8a6000604051602001526040518463ffffffff167c0100000000000000000000000000000000000000000000000000000000028152600401808473ffffffffffffffffffffffffffffffffffffffff1673ffffffffffffffffffffffffffffffffffffffff1681526020018381526020018281526020019350505050602060405180830381600087803b151561305257600080fd5b6102c65a03f1151561306357600080fd5b505050604051805190509050600260009054906101000a900473ffffffffffffffffffffffffffffffffffffffff1673ffffffffffffffffffffffffffffffffffffffff166361a0c020898c856040518463ffffffff167c0100000000000000000000000000000000000000000000000000000000028152600401808473ffffffffffffffffffffffffffffffffffffffff1673ffffffffffffffffffffffffffffffffffffffff1681526020018381526020018281526020019350505050600060405180830381600087803b151561313b57600080fd5b6102c65a03f1151561314c57600080fd5b505050600260009054906101000a900473ffffffffffffffffffffffffffffffffffffffff1673ffffffffffffffffffffffffffffffffffffffff1663027397d08b88856040518463ffffffff167c0100000000000000000000000000000000000000000000000000000000028152600401808481526020018363ffffffff1681526020018281526020019350505050600060405180830381600087803b15156131f557600080fd5b6102c65a03f1151561320657600080fd5b505050600460009054906101000a900473ffffffffffffffffffffffffffffffffffffffff1673ffffffffffffffffffffffffffffffffffffffff1663c32ff29e8b886040518363ffffffff167c0100000000000000000000000000000000000000000000000000000000028152600401808381526020018263ffffffff1663ffffffff16815260200192505050600060405180830381600087803b15156132ad57600080fd5b6102c65a03f115156132be57600080fd5b505050600260009054906101000a900473ffffffffffffffffffffffffffffffffffffffff1673ffffffffffffffffffffffffffffffffffffffff1663033a2473898c428b876040518663ffffffff167c0100000000000000000000000000000000000000000000000000000000028152600401808673ffffffffffffffffffffffffffffffffffffffff1673ffffffffffffffffffffffffffffffffffffffff16815260200185815260200184815260200183815260200182815260200195505050505050600060405180830381600087803b151561339d57600080fd5b6102c65a03f115156133ae57600080fd5b5050506133be878b878787613ff6565b5b50505050505050505050565b60008060008089141515613b4d57600560009054906101000a900473ffffffffffffffffffffffffffffffffffffffff1673ffffffffffffffffffffffffffffffffffffffff1663683b35578b600260009054906101000a900473ffffffffffffffffffffffffffffffffffffffff1673ffffffffffffffffffffffffffffffffffffffff16637fd6e5108e6000604051602001526040518263ffffffff167c010000000000000000000000000000000000000000000000000000000002815260040180828152602001915050602060405180830381600087803b15156134b157600080fd5b6102c65a03f115156134c257600080fd5b50505060405180519050600260009054906101000a900473ffffffffffffffffffffffffffffffffffffffff1673ffffffffffffffffffffffffffffffffffffffff16632cd739438f6000604051602001526040518263ffffffff167c010000000000000000000000000000000000000000000000000000000002815260040180828152602001915050602060405180830381600087803b151561356557600080fd5b6102c65a03f1151561357657600080fd5b505050604051805190506000604051602001526040518463ffffffff167c0100000000000000000000000000000000000000000000000000000000028152600401808481526020018360ff1681526020018260ff1681526020019350505050602060405180830381600087803b15156135ee57600080fd5b6102c65a03f115156135ff57600080fd5b5050506040518051905092506064600260009054906101000a900473ffffffffffffffffffffffffffffffffffffffff1673ffffffffffffffffffffffffffffffffffffffff1663b22cec806000604051602001526040518163ffffffff167c0100000000000000000000000000000000000000000000000000000000028152600401602060405180830381600087803b151561369b57600080fd5b6102c65a03f115156136ac57600080fd5b505050604051805190508a028115156136c157fe5b049150600260009054906101000a900473ffffffffffffffffffffffffffffffffffffffff1673ffffffffffffffffffffffffffffffffffffffff16638aae7599338c6000604051602001526040518363ffffffff167c0100000000000000000000000000000000000000000000000000000000028152600401808373ffffffffffffffffffffffffffffffffffffffff1673ffffffffffffffffffffffffffffffffffffffff168152602001828152602001807f530000000000000000000000000000000000000000000000000000000000000081525060200192505050602060405180830381600087803b15156137b957600080fd5b6102c65a03f115156137ca57600080fd5b5050506040518051905082019050600260009054906101000a900473ffffffffffffffffffffffffffffffffffffffff1673ffffffffffffffffffffffffffffffffffffffff1663f33ac992338c846040518463ffffffff167c0100000000000000000000000000000000000000000000000000000000028152600401808473ffffffffffffffffffffffffffffffffffffffff1673ffffffffffffffffffffffffffffffffffffffff168152602001838152602001807f53000000000000000000000000000000000000000000000000000000000000008152506020018281526020019350505050600060405180830381600087803b15156138cc57600080fd5b6102c65a03f115156138dd57600080fd5b505050600160009054906101000a900473ffffffffffffffffffffffffffffffffffffffff1673ffffffffffffffffffffffffffffffffffffffff16638d760326336139298c8561462d565b868a8a8a6040518763ffffffff167c0100000000000000000000000000000000000000000000000000000000028152600401808773ffffffffffffffffffffffffffffffffffffffff1673ffffffffffffffffffffffffffffffffffffffff1681526020018681526020018581526020018460ff1660ff168152602001836000191660001916815260200182600019166000191681526020019650505050505050600060405180830381600087803b15156139e357600080fd5b6102c65a03f115156139f457600080fd5b505050600260009054906101000a900473ffffffffffffffffffffffffffffffffffffffff1673ffffffffffffffffffffffffffffffffffffffff1663c20254328b338b8b8e6040518663ffffffff167c0100000000000000000000000000000000000000000000000000000000028152600401808681526020018573ffffffffffffffffffffffffffffffffffffffff1673ffffffffffffffffffffffffffffffffffffffff16815260200180602001848152602001838152602001828103825285818151815260200191508051906020019080838360005b83811015613ae9578082015181840152602081019050613ace565b50505050905090810190601f168015613b165780820380516001836020036101000a031916815260200191505b509650505050505050600060405180830381600087803b1515613b3857600080fd5b6102c65a03f11515613b4957600080fd5b5050505b50505050505050505050565b6000806000600260009054906101000a900473ffffffffffffffffffffffffffffffffffffffff1673ffffffffffffffffffffffffffffffffffffffff1663ec9ccfff88600060405160e001526040518263ffffffff167c01000000000000000000000000000000000000000000000000000000000281526004018082815260200191505060e060405180830381600087803b1515613bf757600080fd5b6102c65a03f11515613c0857600080fd5b50505060405180519060200180519060200180519060200180519060200180519060200180519060200180519050909192939495509091929394508460ff1694509091925090915090505080935050600090505b600260009054906101000a900473ffffffffffffffffffffffffffffffffffffffff1673ffffffffffffffffffffffffffffffffffffffff1663f351df05886000604051602001526040518263ffffffff167c010000000000000000000000000000000000000000000000000000000002815260040180828152602001915050602060405180830381600087803b1515613cf557600080fd5b6102c65a03f11515613d0657600080fd5b50505060405180519050811015613e21578573ffffffffffffffffffffffffffffffffffffffff16600260009054906101000a900473ffffffffffffffffffffffffffffffffffffffff1673ffffffffffffffffffffffffffffffffffffffff1663bfe8826d89846000604051602001526040518363ffffffff167c01000000000000000000000000000000000000000000000000000000000281526004018083815260200182815260200192505050602060405180830381600087803b1515613dcf57600080fd5b6102c65a03f11515613de057600080fd5b5050506040518051905073ffffffffffffffffffffffffffffffffffffffff161415613e0f5760019150613e14565b600091505b8080600101915050613c5c565b600082148015613e315750600083145b8015613eef575060028060009054906101000a900473ffffffffffffffffffffffffffffffffffffffff1673ffffffffffffffffffffffffffffffffffffffff1663401853b7896000604051602001526040518263ffffffff167c010000000000000000000000000000000000000000000000000000000002815260040180828152602001915050602060405180830381600087803b1515613ed257600080fd5b6102c65a03f11515613ee357600080fd5b50505060405180519050145b8015613fe257506000600260009054906101000a900473ffffffffffffffffffffffffffffffffffffffff1673ffffffffffffffffffffffffffffffffffffffff1663eef83a4b888a6000604051602001526040518363ffffffff167c0100000000000000000000000000000000000000000000000000000000028152600401808373ffffffffffffffffffffffffffffffffffffffff1673ffffffffffffffffffffffffffffffffffffffff16815260200182815260200192505050602060405180830381600087803b1515613fc557600080fd5b6102c65a03f11515613fd657600080fd5b50505060405180519050145b1515613fed57600080fd5b50505050505050565b6000806000808814151561462357600560009054906101000a900473ffffffffffffffffffffffffffffffffffffffff1673ffffffffffffffffffffffffffffffffffffffff1663683b355788600260009054906101000a900473ffffffffffffffffffffffffffffffffffffffff1673ffffffffffffffffffffffffffffffffffffffff16637fd6e5108b6000604051602001526040518263ffffffff167c010000000000000000000000000000000000000000000000000000000002815260040180828152602001915050602060405180830381600087803b15156140dc57600080fd5b6102c65a03f115156140ed57600080fd5b50505060405180519050600260009054906101000a900473ffffffffffffffffffffffffffffffffffffffff1673ffffffffffffffffffffffffffffffffffffffff16632cd739438c6000604051602001526040518263ffffffff167c010000000000000000000000000000000000000000000000000000000002815260040180828152602001915050602060405180830381600087803b151561419057600080fd5b6102c65a03f115156141a157600080fd5b505050604051805190506000604051602001526040518463ffffffff167c0100000000000000000000000000000000000000000000000000000000028152600401808481526020018360ff1681526020018260ff1681526020019350505050602060405180830381600087803b151561421957600080fd5b6102c65a03f1151561422a57600080fd5b5050506040518051905092506064600260009054906101000a900473ffffffffffffffffffffffffffffffffffffffff1673ffffffffffffffffffffffffffffffffffffffff16637b283a916000604051602001526040518163ffffffff167c0100000000000000000000000000000000000000000000000000000000028152600401602060405180830381600087803b15156142c657600080fd5b6102c65a03f115156142d757600080fd5b5050506040518051905089028115156142ec57fe5b049150600260009054906101000a900473ffffffffffffffffffffffffffffffffffffffff1673ffffffffffffffffffffffffffffffffffffffff16638aae759933896000604051602001526040518363ffffffff167c0100000000000000000000000000000000000000000000000000000000028152600401808373ffffffffffffffffffffffffffffffffffffffff1673ffffffffffffffffffffffffffffffffffffffff168152602001828152602001807f560000000000000000000000000000000000000000000000000000000000000081525060200192505050602060405180830381600087803b15156143e457600080fd5b6102c65a03f115156143f557600080fd5b5050506040518051905082019050600260009054906101000a900473ffffffffffffffffffffffffffffffffffffffff1673ffffffffffffffffffffffffffffffffffffffff1663f33ac9923389846040518463ffffffff167c0100000000000000000000000000000000000000000000000000000000028152600401808473ffffffffffffffffffffffffffffffffffffffff1673ffffffffffffffffffffffffffffffffffffffff168152602001838152602001807f56000000000000000000000000000000000000000000000000000000000000008152506020018281526020019350505050600060405180830381600087803b15156144f757600080fd5b6102c65a03f1151561450857600080fd5b505050600160009054906101000a900473ffffffffffffffffffffffffffffffffffffffff1673ffffffffffffffffffffffffffffffffffffffff16638d760326336145548b8561462d565b868a8a8a6040518763ffffffff167c0100000000000000000000000000000000000000000000000000000000028152600401808773ffffffffffffffffffffffffffffffffffffffff1673ffffffffffffffffffffffffffffffffffffffff1681526020018681526020018581526020018460ff1660ff168152602001836000191660001916815260200182600019166000191681526020019650505050505050600060405180830381600087803b151561460e57600080fd5b6102c65a03f1151561461f57600080fd5b5050505b5050505050505050565b600082821115151561463b57fe5b818303905092915050565b828054600181600116156101000203166002900490600052602060002090601f016020900481019282601f1061468757805160ff19168380011785556146b5565b828001600101855582156146b5579182015b828111156146b4578251825591602001919060010190614699565b5b5090506146c291906146c6565b5090565b6146e891905b808211156146e45760008160009055506001016146cc565b5090565b905600a165627a7a72305820d5f6f281c06c58a138c4632e318617a5f55e3a9dd43153cf8721de71705436280029",
  "source": "    /* Copyright (C) 2017 GovBlocks.io\r\n\r\n  This program is free software: you can redistribute it and/or modify\r\n    it under the terms of the GNU General Public License as published by\r\n    the Free Software Foundation, either version 3 of the License, or\r\n    (at your option) any later version.\r\n\r\n  This program is distributed in the hope that it will be useful,\r\n    but WITHOUT ANY WARRANTY; without even the implied warranty of\r\n    MERCHANTABILITY or FITNESS FOR A PARTICULAR PURPOSE.  See the\r\n    GNU General Public License for more details.\r\n\r\n  You should have received a copy of the GNU General Public License\r\n    along with this program.  If not, see http://www.gnu.org/licenses/ */\r\n\r\n\r\npragma solidity ^0.4.8;\r\n\r\nimport \"./VotingType.sol\";\r\nimport \"./Master.sol\";\r\nimport \"./StandardVotingType.sol\";\r\nimport \"./governanceData.sol\";\r\nimport \"./Governance.sol\";\r\nimport \"./memberRoles.sol\";\r\nimport \"./GBTStandardToken.sol\";\r\nimport \"./ProposalCategory.sol\";\r\n\r\ncontract simpleVoting is VotingType\r\n{\r\n    using SafeMath for uint;\r\n    using Math for uint;\r\n    // address GDAddress;\r\n    // address MRAddress;\r\n    // address PCAddress;\r\n    // address GBTAddress;\r\n    // address G1Address;\r\n    // address SVTAddress;\r\n    // address GBTSAddress;\r\n    GBTStandardToken GBTS;\r\n    governanceData GD;\r\n    memberRoles MR;\r\n    Governance GOV;\r\n    ProposalCategory PC;\r\n    StandardVotingType SVT;\r\n    Master MS;\r\n    bool public constructorCheck;\r\n    address public masterAddress;\r\n\r\n    modifier onlyInternal {\r\n        MS=Master(masterAddress);\r\n        require(MS.isInternal(msg.sender) == true);\r\n        _; \r\n    }\r\n\r\n    modifier onlyMaster {    \r\n        require(msg.sender == masterAddress);\r\n        _; \r\n    }\r\n\r\n    /// @dev Initiates simple voting contract\r\n    function SimpleVotingInitiate()\r\n    {\r\n        require(constructorCheck == false);\r\n        votingTypeName = \"Simple Voting\";\r\n        constructorCheck=true;\r\n    }\r\n    \r\n    /// @dev Changes master address\r\n    /// @param _masterContractAddress New master contract address\r\n    function changeMasterAddress(address _masterContractAddress)\r\n    {\r\n        if(masterAddress == 0x000)\r\n            masterAddress = _masterContractAddress;\r\n        else\r\n        {\r\n            MS=Master(masterAddress);\r\n            require(MS.isInternal(msg.sender) == true);\r\n                masterAddress = _masterContractAddress;\r\n        }\r\n    }\r\n    \r\n \r\n    // function changeAllContractsAddress(address _StandardVotingAddress,address _GDcontractAddress, address _MRcontractAddress, address _PCcontractAddress,address _G1ContractAddress) onlyInternal\r\n    // {\r\n    //     SVTAddress = _StandardVotingAddress;\r\n    //     GDAddress = _GDcontractAddress;\r\n    //     MRAddress = _MRcontractAddress;\r\n    //     PCAddress = _PCcontractAddress;\r\n    //     G1Address = _G1ContractAddress;\r\n    // }\r\n\r\n    /// @dev Changes Global objects of the contracts || Uses latest version\r\n    /// @param contractName Contract name \r\n    /// @param contractAddress Contract addresses\r\n    function changeAddress(bytes4 contractName, address contractAddress) onlyInternal\r\n    {\r\n        if(contractName == 'GD'){\r\n            GD = governanceData(contractAddress);\r\n        } else if(contractName == 'MR'){\r\n            MR = memberRoles(contractAddress);\r\n        } else if(contractName == 'PC'){\r\n            PC = ProposalCategory(contractAddress);\r\n        } else if(contractName == 'VT'){\r\n            SVT = StandardVotingType(contractAddress);\r\n        } else if(contractName == 'GV'){\r\n            GOV = Governance(contractAddress);\r\n        }\r\n    }\r\n\r\n    /// @dev Changes GBT controller address\r\n    /// @param _GBTSAddress New GBT controller address\r\n    function changeGBTSAddress(address _GBTSAddress) onlyMaster\r\n    {\r\n        GBTS = GBTStandardToken(_GBTSAddress);\r\n    }\r\n\r\n   /// @dev Initiates add solution (Stake in ether)\r\n   /// @param _proposalId Proposal id\r\n   /// @param _solutionHash Solution hash\r\n   function addSolution_inEther(uint _proposalId,string _solutionHash,uint8 _v,bytes32 _r,bytes32 _s) payable\r\n   {\r\n      uint tokenAmount = GBTS.buyToken.value(msg.value)();\r\n      initiateAddSolution(_proposalId,tokenAmount,_solutionHash, _v, _r, _s);\r\n   }\r\n\r\n    /// @dev Initiates add solution \r\n    /// @param _proposalId Proposal id\r\n    /// @param _memberAddress Member address\r\n    /// @param _solutionStake Solution stake\r\n    /// @param _solutionHash Solution hash\r\n    /// @param _dateAdd Date when the solution was added\r\n    function addSolution(uint _proposalId,address _memberAddress,uint _solutionStake,string _solutionHash,uint _dateAdd,uint8 _v,bytes32 _r,bytes32 _s) public\r\n    {\r\n        // SVT=StandardVotingType(SVTAddress);\r\n        MS=Master(masterAddress);\r\n        require(MS.isInternal(msg.sender) == true || msg.sender == _memberAddress);\r\n        require(_solutionStake <= PC.getMaxStake(GD.getProposalCategory(_proposalId)) && _solutionStake >= PC.getMinStake(GD.getProposalCategory(_proposalId)));\r\n        receiveSolutionStakeSV(_proposalId,_solutionStake,_solutionHash,_dateAdd,_v,_r,_s);\r\n        addSolution1(_proposalId,_memberAddress,_solutionHash,_dateAdd);\r\n        GD.setSolutionAdded(_proposalId,_memberAddress);\r\n    }\r\n\r\n    /// @dev Adds solution against proposal.\r\n    /// @param _proposalId Proposal id\r\n    /// @param _memberAddress Member address\r\n    /// @param _solutionHash Solution hash\r\n    /// @param _dateAdd Date proposal was added\r\n    function addSolution1(uint _proposalId,address _memberAddress,string _solutionHash,uint _dateAdd) internal\r\n    {\r\n        // GBTS=GBTStandardToken(GBTSAddress);\r\n        uint currentVotingId;uint check;\r\n        (,,currentVotingId,,,,) = GD.getProposalDetailsById2(_proposalId);\r\n        for(uint i=0; i<GD.getTotalSolutions(_proposalId); i++)\r\n        {\r\n            if(GD.getSolutionAddedByProposalId(_proposalId,i) == _memberAddress)\r\n                check = 1;\r\n            else \r\n                check = 0;\r\n        }\r\n        require(check == 0 && currentVotingId == 0 && GD.getProposalStatus(_proposalId) == 2 && GD.getVoteId_againstMember(_memberAddress,_proposalId) == 0);\r\n    }\r\n\r\n    /// @dev Adds solution\r\n    /// @param _proposalId Proposal id\r\n    /// @param _solutionStake Stake put by the member when providing a solution\r\n    /// @param _solutionHash Solution hash\r\n    function initiateAddSolution(uint _proposalId,uint _solutionStake,string _solutionHash,uint8 _v,bytes32 _r,bytes32 _s) public\r\n    {\r\n        addSolution(_proposalId,msg.sender,_solutionStake, _solutionHash,now,_v,_r,_s); \r\n    }\r\n\r\n    /// @dev Receives solution stake against solution in simple voting\r\n    /// @param _proposalId Proposal id\r\n    /// @param _solutionStake Solution stake\r\n    /// @param _solutionHash Solution hash\r\n    /// @param _dateAdd Date when solution was added\r\n    function receiveSolutionStakeSV(uint _proposalId,uint _solutionStake,string _solutionHash,uint _dateAdd,uint8 _v,bytes32 _r,bytes32 _s) internal\r\n    {\r\n        // GD=governanceData(GDAddress);\r\n        // PC=ProposalCategory(PCAddress);\r\n        if(_solutionStake != 0)\r\n        {\r\n            uint remainingTime = PC.getRemainingClosingTime(_proposalId,GD.getProposalCategory(_proposalId),GD.getProposalCurrentVotingId(_proposalId));\r\n            uint depositAmount = ((_solutionStake*GD.depositPercSolution())/100);\r\n            uint finalAmount = depositAmount + GD.getDepositedTokens(msg.sender,_proposalId,'S');\r\n            GD.setDepositTokens(msg.sender,_proposalId,'S',finalAmount);\r\n            GBTS.lockToken(msg.sender,SafeMath.sub(_solutionStake,finalAmount),remainingTime,_v,_r,_s);  \r\n            GD.callSolutionEvent(_proposalId,msg.sender,_solutionHash,_dateAdd,_solutionStake);    \r\n        }\r\n    }\r\n\r\n   /// @dev Creates proposal for voting (Stake in ether)\r\n   /// @param _proposalId Proposal id\r\n   /// @param _solutionChosen solution chosen while voting\r\n   function proposalVoting_inEther(uint _proposalId,uint[] _solutionChosen,uint8 _v,bytes32 _r,bytes32 _s) payable\r\n   {\r\n       uint tokenAmount = GBTS.buyToken.value(msg.value)();\r\n       proposalVoting(_proposalId, _solutionChosen, tokenAmount,_v,_r,_s);\r\n   }\r\n\r\n\r\n    /// @dev Creates proposal for voting\r\n    /// @param _proposalId Proposal id\r\n    /// @param _solutionChosen solution chosen while voting\r\n    /// @param _voteStake Amount payable in GBT tokens\r\n    function proposalVoting(uint _proposalId,uint[] _solutionChosen,uint _voteStake,uint8 _v,bytes32 _r,bytes32 _s) public\r\n    {\r\n        // GD=governanceData(GDAddress);\r\n        // MR=memberRoles(MRAddress);\r\n        // GBTS=GBTStandardToken(GBTSAddress);\r\n        uint8 _mrSequence;uint _closingTime; uint currentVotingId;uint intermediateVerdict;uint category;\r\n        (,category,currentVotingId,intermediateVerdict,,,) = GD.getProposalDetailsById2(_proposalId);\r\n        (_mrSequence,,_closingTime) = PC.getCategoryData3(category,currentVotingId);\r\n        uint _proposalDateUpd = GD.getProposalDateUpd(_proposalId);\r\n        \r\n        // uint roleId = MR.getMemberRoleIdByAddress(msg.sender);\r\n\r\n        require(SafeMath.add(_proposalDateUpd,_closingTime) >= now && msg.sender != GD.getSolutionAddedByProposalId(_proposalId,_solutionChosen[0]));\r\n        require(MR.checkRoleId_byAddress(msg.sender,_mrSequence) == true && GBTS.balanceOf(msg.sender) != 0 && GD.getProposalStatus(_proposalId) == 2 && _solutionChosen.length == 1);\r\n        require(_voteStake <= PC.getMaxStake(category) && _voteStake >= PC.getMinStake(category));\r\n        if(currentVotingId == 0)\r\n            require(_solutionChosen[0] <= GD.getTotalSolutions(_proposalId));\r\n        else\r\n            require(_solutionChosen[0]==intermediateVerdict || _solutionChosen[0]==0);\r\n        uint32 roleId = _mrSequence;  \r\n        castVote(_proposalId,_solutionChosen,msg.sender,_voteStake,roleId,_v,_r,_s);    \r\n    }\r\n\r\n    /// @dev Castes vote\r\n    /// @param _proposalId Proposal id\r\n    /// @param _solutionChosen solution chosen\r\n    /// @param _memberAddress Member address\r\n    /// @param _voteStake Vote stake\r\n    /// @param _roleId Role id\r\n    function castVote(uint _proposalId,uint[] _solutionChosen,address _memberAddress,uint _voteStake,uint32 _roleId,uint8 _v,bytes32 _r,bytes32 _s) internal\r\n    {\r\n        // GD=governanceData(GDAddress);\r\n        // SVT=StandardVotingType(SVTAddress);\r\n        // GOV=Governance(G1Address);\r\n        if(GD.getVoteId_againstMember(_memberAddress,_proposalId) == 0)\r\n        {\r\n            uint voteId = GD.allVotesTotal();\r\n            uint finalVoteValue = SVT.setVoteValue_givenByMember(_memberAddress,_proposalId,_voteStake);\r\n            GD.setVoteId_againstMember(_memberAddress,_proposalId,voteId);\r\n            GD.setVoteId_againstProposalRole(_proposalId,_roleId,voteId);\r\n            GOV.checkRoleVoteClosing(_proposalId,_roleId);\r\n            GD.callVoteEvent(_memberAddress,_proposalId,now,_voteStake,voteId);\r\n            receiveVoteStakeSV(_voteStake,_proposalId,_v,_r,_s);\r\n        }\r\n        // else \r\n            // changeMemberVote(_proposalId,_solutionChosen,_memberAddress,_GBTPayableTokenAmount);\r\n    }\r\n    \r\n    /// @dev Receives vote stake against solution in simple voting\r\n    /// @param _memberStake Member stake\r\n    /// @param _proposalId Proposal id\r\n     function receiveVoteStakeSV(uint _memberStake,uint _proposalId,uint8 _v,bytes32 _r,bytes32 _s) internal\r\n    {\r\n        if(_memberStake != 0)\r\n        {\r\n            uint remainingTime = PC.getRemainingClosingTime(_proposalId,GD.getProposalCategory(_proposalId),GD.getProposalCurrentVotingId(_proposalId));\r\n            uint depositAmount = ((_memberStake*GD.depositPercVote())/100);\r\n            uint finalAmount = depositAmount + GD.getDepositedTokens(msg.sender,_proposalId,'V');\r\n            GD.setDepositTokens(msg.sender,_proposalId,'V',finalAmount);\r\n            GBTS.lockToken(msg.sender,SafeMath.sub(_memberStake,finalAmount),remainingTime,_v,_r,_s);\r\n        }\r\n    }\r\n\r\n    /// @dev Closes proposal for voting\r\n    /// @param _proposalId Proposal id\r\n    function closeProposalVote(uint _proposalId) public\r\n    {\r\n        SVT.closeProposalVoteSVT(_proposalId);\r\n    }\r\n\r\n    /// @dev Gives rewards to respective members after final decision\r\n    /// @param _proposalId Proposal id\r\n    function giveReward_afterFinalDecision(uint _proposalId) onlyInternal\r\n    {   \r\n        uint totalVoteValue;uint totalReward; uint finalVerdict = GD.getProposalFinalVerdict(_proposalId);\r\n        if(GD.getProposalFinalVerdict(_proposalId) < 0)\r\n            totalReward = SafeMath.add(totalReward,GD.getDepositedTokens(GD.getProposalOwner(_proposalId),_proposalId,'P'));\r\n\r\n        for(i=0; i<GD.getTotalSolutions(_proposalId); i++)\r\n        {\r\n            if(i!= finalVerdict)         \r\n                totalReward = SafeMath.add(totalReward,GD.getDepositedTokens(GD.getSolutionAddedByProposalId(_proposalId,i),_proposalId,'S'));\r\n        }\r\n\r\n        uint mrLength = MR.getTotalMemberRoles();\r\n        for(uint i=0; i<mrLength; i++) \r\n        {\r\n            uint mrVoteLength = GD.getAllVoteIdsLength_byProposalRole(_proposalId,i);\r\n            for(uint j =0; j<mrVoteLength; j++)\r\n            {\r\n                uint voteId = GD.getVoteId_againstProposalRole(_proposalId,j,0);\r\n                if(GD.getSolutionByVoteIdAndIndex(voteId,0) != finalVerdict)\r\n                {\r\n                    totalReward = SafeMath.add(totalReward,GD.getDepositedTokens(GD.getVoterAddress(voteId),_proposalId,'V'));\r\n                    totalVoteValue = SafeMath.add(totalVoteValue,GD.getVoteValue(voteId));\r\n                } \r\n            }\r\n        }\r\n\r\n        totalReward = totalReward + GD.getProposalIncentive(_proposalId); \r\n        GOV.setProposalDetails(_proposalId,totalReward,totalVoteValue);         \r\n    } \r\n\r\n    // function changeMemberVote(uint _proposalId,uint[] _solutionChosen,address _memberAddress,uint _GBTPayableTokenAmount) internal\r\n    // {\r\n    //     MR=memberRoles(MRAddress);\r\n    //     GOV=Governance(G1Address);\r\n    //     GD=governanceData(GDAddress);\r\n    //     SVT=StandardVotingType(SVTAddress);\r\n\r\n    //     uint roleId = MR.getMemberRoleIdByAddress(_memberAddress);\r\n    //     uint voteId = GD.getVoteId_againstMember(_memberAddress,_proposalId);\r\n    //     uint voteVal = GD.getVoteValue(voteId);\r\n        \r\n    //     GD.editProposalVoteCount(_proposalId,roleId,GD.getOptionById(voteId,0),voteVal);\r\n    //     GD.setProposalVoteCount(_proposalId,roleId,_optionChosen[0],voteVal);\r\n    //     GD.setOptionChosen(voteId,_optionChosen[0]);\r\n\r\n        \r\n    // }\r\n    \r\n}\r\n\r\n",
  "sourcePath": "D:\\RUCHITA\\GovBlocks-Protocol Access-Modifiers\\contracts\\simpleVoting.sol",
  "compiler": {
    "name": "solc",
    "version": "0.4.18+commit.9cf6e910.Emscripten.clang"
  },
  "schemaVersion": "1.0.1",
  "updatedAt": "2018-04-26T12:00:44.360Z"
}