{
  "contractName": "simpleVoting",
  "abi": [
    {
      "constant": false,
      "inputs": [
        {
          "name": "_GDcontractAddress",
          "type": "address"
        },
        {
          "name": "_MRcontractAddress",
          "type": "address"
        },
        {
          "name": "_PCcontractAddress",
          "type": "address"
        }
      ],
      "name": "changeAllContractsAddress",
      "outputs": [],
      "payable": false,
      "stateMutability": "nonpayable",
      "type": "function"
    },
    {
      "constant": false,
      "inputs": [
        {
          "name": "_proposalId",
          "type": "uint256"
        }
      ],
      "name": "giveReward_afterFinalDecision",
      "outputs": [
        {
          "name": "",
          "type": "uint256"
        }
      ],
      "payable": false,
      "stateMutability": "nonpayable",
      "type": "function"
    },
    {
      "constant": true,
      "inputs": [
        {
          "name": "_proposalId",
          "type": "uint256"
        },
        {
          "name": "_roleId",
          "type": "uint256"
        }
      ],
      "name": "totalVotes",
      "outputs": [
        {
          "name": "",
          "type": "uint256"
        }
      ],
      "payable": false,
      "stateMutability": "view",
      "type": "function"
    },
    {
      "constant": true,
      "inputs": [
        {
          "name": "_proposalId",
          "type": "uint256"
        },
        {
          "name": "_roleId",
          "type": "uint256"
        }
      ],
      "name": "getProposalRoleVoteArray",
      "outputs": [
        {
          "name": "voteId",
          "type": "uint256[]"
        }
      ],
      "payable": false,
      "stateMutability": "view",
      "type": "function"
    },
    {
      "constant": false,
      "inputs": [
        {
          "name": "_proposalId",
          "type": "uint256"
        },
        {
          "name": "_verdictChosen",
          "type": "uint256[]"
        }
      ],
      "name": "increaseTotalVotes",
      "outputs": [
        {
          "name": "_totalVotes",
          "type": "uint256"
        }
      ],
      "payable": false,
      "stateMutability": "nonpayable",
      "type": "function"
    },
    {
      "constant": false,
      "inputs": [
        {
          "name": "_proposalId",
          "type": "uint256"
        },
        {
          "name": "_verdictChosen",
          "type": "uint256[]"
        }
      ],
      "name": "proposalVoting",
      "outputs": [
        {
          "name": "length",
          "type": "uint256"
        }
      ],
      "payable": false,
      "stateMutability": "nonpayable",
      "type": "function"
    },
    {
      "constant": true,
      "inputs": [
        {
          "name": "_proposalId",
          "type": "uint256"
        },
        {
          "name": "_roleId",
          "type": "uint256"
        },
        {
          "name": "_optionIndex",
          "type": "uint256"
        }
      ],
      "name": "getProposalRoleVoteLength",
      "outputs": [
        {
          "name": "length",
          "type": "uint256"
        },
        {
          "name": "totalToken",
          "type": "uint256"
        }
      ],
      "payable": false,
      "stateMutability": "view",
      "type": "function"
    },
    {
      "constant": false,
      "inputs": [
        {
          "name": "_proposalId",
          "type": "uint256"
        },
        {
          "name": "_verdictChosen",
          "type": "uint256[]"
        },
        {
          "name": "_optionIndex",
          "type": "uint256"
        },
        {
          "name": "_paramAddress",
          "type": "address[]"
        }
      ],
      "name": "changeMemberVote",
      "outputs": [
        {
          "name": "totalVotes",
          "type": "uint256"
        },
        {
          "name": "totalToken",
          "type": "uint256"
        }
      ],
      "payable": false,
      "stateMutability": "nonpayable",
      "type": "function"
    },
    {
      "constant": true,
      "inputs": [
        {
          "name": "_proposalId",
          "type": "uint256"
        },
        {
          "name": "_roleId",
          "type": "uint256"
        },
        {
          "name": "_optionIndex",
          "type": "uint256"
        },
        {
          "name": "_paramAddress",
          "type": "address[]"
        }
      ],
      "name": "getProposalVoteAndTokenCountByRoleId",
      "outputs": [
        {
          "name": "totalVotes",
          "type": "uint256"
        },
        {
          "name": "totalToken",
          "type": "uint256"
        },
        {
          "name": "verdictChosen",
          "type": "uint256[]"
        },
        {
          "name": "dateSubmit",
          "type": "uint256"
        },
        {
          "name": "voterTokens",
          "type": "uint256"
        }
      ],
      "payable": false,
      "stateMutability": "view",
      "type": "function"
    },
    {
      "constant": false,
      "inputs": [
        {
          "name": "_proposalId",
          "type": "uint256"
        },
        {
          "name": "_paramInt",
          "type": "uint256[]"
        },
        {
          "name": "_paramBytes32",
          "type": "bytes32[]"
        },
        {
          "name": "_paramAddress",
          "type": "address[]"
        }
      ],
      "name": "addVerdictOption",
      "outputs": [
        {
          "name": "voter",
          "type": "address"
        },
        {
          "name": "proposalId",
          "type": "uint256"
        },
        {
          "name": "verdictChosen",
          "type": "uint256[]"
        },
        {
          "name": "dateSubmit",
          "type": "uint256"
        },
        {
          "name": "voterTokens",
          "type": "uint256"
        }
      ],
      "payable": false,
      "stateMutability": "nonpayable",
      "type": "function"
    },
    {
      "constant": true,
      "inputs": [
        {
          "name": "_voteid",
          "type": "uint256"
        },
        {
          "name": "_verdictChosen",
          "type": "uint256"
        }
      ],
      "name": "getVoteDetailByid",
      "outputs": [
        {
          "name": "voter",
          "type": "address"
        },
        {
          "name": "proposalId",
          "type": "uint256"
        },
        {
          "name": "verdictChosen",
          "type": "uint256[]"
        },
        {
          "name": "dateSubmit",
          "type": "uint256"
        },
        {
          "name": "voterTokens",
          "type": "uint256"
        }
      ],
      "payable": false,
      "stateMutability": "view",
      "type": "function"
    },
    {
      "constant": true,
      "inputs": [
        {
          "name": "_proposalId",
          "type": "uint256"
        },
        {
          "name": "_roleId",
          "type": "uint256"
        },
        {
          "name": "_voteArrayIndex",
          "type": "uint256"
        }
      ],
      "name": "getTotalVotes",
      "outputs": [
        {
          "name": "votesTotal",
          "type": "uint256"
        }
      ],
      "payable": false,
      "stateMutability": "view",
      "type": "function"
    },
    {
      "constant": true,
      "inputs": [
        {
          "name": "_proposalId",
          "type": "uint256"
        },
        {
          "name": "_roleId",
          "type": "uint256"
        },
        {
          "name": "_voteArrayIndex",
          "type": "uint256"
        }
      ],
      "name": "getProposalRoleVote",
      "outputs": [
        {
          "name": "voteId",
          "type": "uint256"
        }
      ],
      "payable": false,
      "stateMutability": "view",
      "type": "function"
    },
    {
      "constant": false,
      "inputs": [
        {
          "name": "_proposalId",
          "type": "uint256"
        }
      ],
      "name": "closeProposalVote",
      "outputs": [
        {
          "name": "voter",
          "type": "address"
        },
        {
          "name": "proposalId",
          "type": "uint256"
        },
        {
          "name": "dateSubmit",
          "type": "uint256"
        },
        {
          "name": "voterTokens",
          "type": "uint256"
        }
      ],
      "payable": false,
      "stateMutability": "nonpayable",
      "type": "function"
    },
    {
      "inputs": [],
      "payable": false,
      "stateMutability": "nonpayable",
      "type": "constructor"
    }
  ],
  "bytecode": "0x606060405234156200001057600080fd5b6000600380548060010182816200002891906200015d565b9160005260206000209060050201600060a060405190810160405280600073ffffffffffffffffffffffffffffffffffffffff1681526020016000815260200185805480602002602001604051908101604052809291908181526020018280548015620000b557602002820191906000526020600020905b815481526020019060010190808311620000a0575b505050505081526020014281526020016000815250909190915060008201518160000160006101000a81548173ffffffffffffffffffffffffffffffffffffffff021916908373ffffffffffffffffffffffffffffffffffffffff1602179055506020820151816001015560408201518160020190805190602001906200013e92919062000192565b50606082015181600301556080820151816004015550505050620002a2565b8154818355818115116200018d576005028160050283600052602060002091820191016200018c9190620001e4565b5b505050565b828054828255906000526020600020908101928215620001d1579160200282015b82811115620001d0578251825591602001919060010190620001b3565b5b509050620001e0919062000257565b5090565b6200025491905b808211156200025057600080820160006101000a81549073ffffffffffffffffffffffffffffffffffffffff021916905560018201600090556002820160006200023691906200027f565b6003820160009055600482016000905550600501620001eb565b5090565b90565b6200027c91905b80821115620002785760008160009055506001016200025e565b5090565b90565b50805460008255906000526020600020908101906200029f919062000257565b50565b6137ac80620002b26000396000f3006060604052600436106100cf576000357c0100000000000000000000000000000000000000000000000000000000900463ffffffff168062edf46e146100d45780630a256ae11461014b5780630d15fd771461016e5780631f2f0f1a1461019757806328c09cb31461021857806332a2da8d146102415780633ae2f7d4146102a45780633e4af1c9146102e45780634a261ce31461034757806355089a741461039757806366cf51de1461047a5780639a0e7d661461053a578063c3647eb914610563578063c46994ce146105ac575b600080fd5b34156100df57600080fd5b610149600480803573ffffffffffffffffffffffffffffffffffffffff1690602001909190803573ffffffffffffffffffffffffffffffffffffffff1690602001909190803573ffffffffffffffffffffffffffffffffffffffff169060200190919050506105cf565b005b341561015657600080fd5b61016c6004808035906020019091905050610697565b005b341561017957600080fd5b610181610bf9565b6040518082815260200191505060405180910390f35b34156101a257600080fd5b6101c16004808035906020019091908035906020019091905050610bff565b6040518080602001828103825283818151815260200191508051906020019060200280838360005b838110156102045780820151818401526020810190506101e9565b505050509050019250505060405180910390f35b341561022357600080fd5b61022b610c82565b6040518082815260200191505060405180910390f35b341561024c57600080fd5b6102a2600480803590602001909190803590602001908201803590602001908080602002602001604051908101604052809392919081815260200183836020028082843782019150505050505091905050610c9d565b005b34156102af57600080fd5b6102ce60048080359060200190919080359060200190919050506117a6565b6040518082815260200191505060405180910390f35b34156102ef57600080fd5b6103456004808035906020019091908035906020019082018035906020019080806020026020016040519081016040528093929190818152602001838360200280828437820191505050505050919050506117d8565b005b341561035257600080fd5b61037a6004808035906020019091908035906020019091908035906020019091905050611b3d565b604051808381526020018281526020019250505060405180910390f35b34156103a257600080fd5b6104786004808035906020019091908035906020019082018035906020019080806020026020016040519081016040528093929190818152602001838360200280828437820191505050505050919080359060200190820180359060200190808060200260200160405190810160405280939291908181526020018383602002808284378201915050505050509190803590602001908201803590602001908080602002602001604051908101604052809392919081815260200183836020028082843782019150505050505091905050611bab565b005b341561048557600080fd5b61049b600480803590602001909190505061249e565b604051808673ffffffffffffffffffffffffffffffffffffffff1673ffffffffffffffffffffffffffffffffffffffff16815260200185815260200180602001848152602001838152602001828103825285818151815260200191508051906020019060200280838360005b83811015610522578082015181840152602081019050610507565b50505050905001965050505050505060405180910390f35b341561054557600080fd5b61054d6125d5565b6040518082815260200191505060405180910390f35b341561056e57600080fd5b61059660048080359060200190919080359060200190919080359060200190919050506125e2565b6040518082815260200191505060405180910390f35b34156105b757600080fd5b6105cd600480803590602001909190505061262a565b005b82600560006101000a81548173ffffffffffffffffffffffffffffffffffffffff021916908373ffffffffffffffffffffffffffffffffffffffff16021790555081600660006101000a81548173ffffffffffffffffffffffffffffffffffffffff021916908373ffffffffffffffffffffffffffffffffffffffff16021790555080600760006101000a81548173ffffffffffffffffffffffffffffffffffffffff021916908373ffffffffffffffffffffffffffffffffffffffff160217905550505050565b600080600080600080600080600080600080600760009054906101000a900473ffffffffffffffffffffffffffffffffffffffff16600960006101000a81548173ffffffffffffffffffffffffffffffffffffffff021916908373ffffffffffffffffffffffffffffffffffffffff160217905550600560009054906101000a900473ffffffffffffffffffffffffffffffffffffffff16600a60006101000a81548173ffffffffffffffffffffffffffffffffffffffff021916908373ffffffffffffffffffffffffffffffffffffffff160217905550600a60009054906101000a900473ffffffffffffffffffffffffffffffffffffffff1673ffffffffffffffffffffffffffffffffffffffff1663ec9ccfff8e600060405160a001526040518263ffffffff167c01000000000000000000000000000000000000000000000000000000000281526004018082815260200191505060a060405180830381600087803b151561080857600080fd5b6102c65a03f1151561081957600080fd5b5050506040518051906020018051906020018051906020018051906020018051905050809750819850829950839d5050505050600092505b600960009054906101000a900473ffffffffffffffffffffffffffffffffffffffff1673ffffffffffffffffffffffffffffffffffffffff166318b0211b8b6000604051602001526040518263ffffffff167c010000000000000000000000000000000000000000000000000000000002815260040180828152602001915050602060405180830381600087803b15156108ea57600080fd5b6102c65a03f115156108fb57600080fd5b50505060405180519050831015610bea57600960009054906101000a900473ffffffffffffffffffffffffffffffffffffffff1673ffffffffffffffffffffffffffffffffffffffff16639deeab208b856000604051602001526040518363ffffffff167c01000000000000000000000000000000000000000000000000000000000281526004018083815260200182815260200192505050602060405180830381600087803b15156109ad57600080fd5b6102c65a03f115156109be57600080fd5b505050604051805190509850600a60009054906101000a900473ffffffffffffffffffffffffffffffffffffffff1673ffffffffffffffffffffffffffffffffffffffff1663e7d6bf288e856000604051602001526040518363ffffffff167c01000000000000000000000000000000000000000000000000000000000281526004018083815260200182815260200192505050602060405180830381600087803b1515610a6b57600080fd5b6102c65a03f11515610a7c57600080fd5b505050604051805190509750600091505b610a978d8a6117a6565b821015610bdd57610aa98d8a846125e2565b9650600387815481101515610aba57fe5b90600052602060002090600502016002019a508a6000815481101515610adc57fe5b90600052602060002090015490508381141515610af857600080fd5b600a60009054906101000a900473ffffffffffffffffffffffffffffffffffffffff1673ffffffffffffffffffffffffffffffffffffffff166307dbff7b8d8a6040518363ffffffff167c0100000000000000000000000000000000000000000000000000000000028152600401808373ffffffffffffffffffffffffffffffffffffffff1673ffffffffffffffffffffffffffffffffffffffff16815260200182815260200192505050600060405180830381600087803b1515610bbc57600080fd5b6102c65a03f11515610bcd57600080fd5b5050508180600101925050610a8d565b8280600101935050610851565b50505050505050505050505050565b60045481565b610c0761360d565b600160008481526020019081526020016000206000838152602001908152602001600020805480602002602001604051908101604052809291908181526020018280548015610c7557602002820191906000526020600020905b815481526020019060010190808311610c61575b5050505050905092915050565b6000610c916004546001613580565b90508060048190555090565b600080600080600080600080600560009054906101000a900473ffffffffffffffffffffffffffffffffffffffff16600a60006101000a81548173ffffffffffffffffffffffffffffffffffffffff021916908373ffffffffffffffffffffffffffffffffffffffff160217905550600660009054906101000a900473ffffffffffffffffffffffffffffffffffffffff16600860006101000a81548173ffffffffffffffffffffffffffffffffffffffff021916908373ffffffffffffffffffffffffffffffffffffffff160217905550600760009054906101000a900473ffffffffffffffffffffffffffffffffffffffff16600960006101000a81548173ffffffffffffffffffffffffffffffffffffffff021916908373ffffffffffffffffffffffffffffffffffffffff160217905550600a60009054906101000a900473ffffffffffffffffffffffffffffffffffffffff1673ffffffffffffffffffffffffffffffffffffffff1663f65ad7508b600060405160e001526040518263ffffffff167c01000000000000000000000000000000000000000000000000000000000281526004018082815260200191505060e060405180830381600087803b1515610e6b57600080fd5b6102c65a03f11515610e7c57600080fd5b5050506040518051906020018051906020018051906020018051906020018051906020018051906020018051905090919293949550909192939450909192935090919250909150905080985050600a60009054906101000a900473ffffffffffffffffffffffffffffffffffffffff1673ffffffffffffffffffffffffffffffffffffffff1663ec9ccfff8b600060405160a001526040518263ffffffff167c01000000000000000000000000000000000000000000000000000000000281526004018082815260200191505060a060405180830381600087803b1515610f6257600080fd5b6102c65a03f11515610f7357600080fd5b50505060405180519060200180519060200180519060200180519060200180519050905050809750819950829850505050600a60009054906101000a900473ffffffffffffffffffffffffffffffffffffffff1673ffffffffffffffffffffffffffffffffffffffff166334a3210a8b6000604051608001526040518263ffffffff167c010000000000000000000000000000000000000000000000000000000002815260040180828152602001915050608060405180830381600087803b151561103d57600080fd5b6102c65a03f1151561104e57600080fd5b50505060405180519060200180519060200180519060200180519050909192509091509050809450506000600a60009054906101000a900473ffffffffffffffffffffffffffffffffffffffff1673ffffffffffffffffffffffffffffffffffffffff166335c42dbb336000604051602001526040518263ffffffff167c0100000000000000000000000000000000000000000000000000000000028152600401808273ffffffffffffffffffffffffffffffffffffffff1673ffffffffffffffffffffffffffffffffffffffff168152602001915050602060405180830381600087803b151561113e57600080fd5b6102c65a03f1151561114f57600080fd5b50505060405180519050141580156111675750600288145b8015611174575060018951145b151561117f57600080fd5b60008714156111b4578389600081518110151561119857fe5b90602001906020020151111515156111af57600080fd5b6111fe565b848960008151811015156111c457fe5b9060200190602002015114806111f2575060008960008151811015156111e657fe5b90602001906020020151145b15156111fd57600080fd5b5b600860009054906101000a900473ffffffffffffffffffffffffffffffffffffffff1673ffffffffffffffffffffffffffffffffffffffff1663beae32ba336000604051602001526040518263ffffffff167c0100000000000000000000000000000000000000000000000000000000028152600401808273ffffffffffffffffffffffffffffffffffffffff1673ffffffffffffffffffffffffffffffffffffffff168152602001915050602060405180830381600087803b15156112c357600080fd5b6102c65a03f115156112d457600080fd5b505050604051805190509250600960009054906101000a900473ffffffffffffffffffffffffffffffffffffffff1673ffffffffffffffffffffffffffffffffffffffff16639deeab2087896000604051602001526040518363ffffffff167c01000000000000000000000000000000000000000000000000000000000281526004018083815260200182815260200192505050602060405180830381600087803b151561138157600080fd5b6102c65a03f1151561139257600080fd5b50505060405180519050831415156113a957600080fd5b6000600260003373ffffffffffffffffffffffffffffffffffffffff1673ffffffffffffffffffffffffffffffffffffffff16815260200190815260200160002060008c815260200190815260200160002054141561178f5761140a6125d5565b9150611414610c82565b50600a60009054906101000a900473ffffffffffffffffffffffffffffffffffffffff1673ffffffffffffffffffffffffffffffffffffffff166335c42dbb336000604051602001526040518263ffffffff167c0100000000000000000000000000000000000000000000000000000000028152600401808273ffffffffffffffffffffffffffffffffffffffff1673ffffffffffffffffffffffffffffffffffffffff168152602001915050602060405180830381600087803b15156114da57600080fd5b6102c65a03f115156114eb57600080fd5b5050506040518051905090506003805480600101828161150b9190613621565b9160005260206000209060050201600060a0604051908101604052803373ffffffffffffffffffffffffffffffffffffffff1681526020018e81526020018d815260200142815260200185815250909190915060008201518160000160006101000a81548173ffffffffffffffffffffffffffffffffffffffff021916908373ffffffffffffffffffffffffffffffffffffffff1602179055506020820151816001015560408201518160020190805190602001906115cb929190613653565b50606082015181600301556080820151816004015550505061163d6000808c8152602001908152602001600020600001600085815260200190815260200160002060008b600081518110151561161d57fe5b906020019060200201518152602001908152602001600020546001613580565b6000808c8152602001908152602001600020600001600085815260200190815260200160002060008b600081518110151561167457fe5b906020019060200201518152602001908152602001600020819055506116c06000808c815260200190815260200160002060010160008581526020019081526020016000205482613580565b6000808c815260200190815260200160002060010160008581526020019081526020016000208190555081600260003373ffffffffffffffffffffffffffffffffffffffff1673ffffffffffffffffffffffffffffffffffffffff16815260200190815260200160002060008c815260200190815260200160002081905550600160008b81526020019081526020016000206000848152602001908152602001600020805480600101828161177591906136a0565b91600052602060002090016000849091909150555061179a565b6117998a8a6117d8565b5b50505050505050505050565b600060016000848152602001908152602001600020600083815260200190815260200160002080549050905092915050565b600080600080600660009054906101000a900473ffffffffffffffffffffffffffffffffffffffff16600860006101000a81548173ffffffffffffffffffffffffffffffffffffffff021916908373ffffffffffffffffffffffffffffffffffffffff160217905550600860009054906101000a900473ffffffffffffffffffffffffffffffffffffffff1673ffffffffffffffffffffffffffffffffffffffff1663beae32ba336000604051602001526040518263ffffffff167c0100000000000000000000000000000000000000000000000000000000028152600401808273ffffffffffffffffffffffffffffffffffffffff1673ffffffffffffffffffffffffffffffffffffffff168152602001915050602060405180830381600087803b151561190657600080fd5b6102c65a03f1151561191757600080fd5b505050604051805190509350600260003373ffffffffffffffffffffffffffffffffffffffff1673ffffffffffffffffffffffffffffffffffffffff168152602001908152602001600020600087815260200190815260200160002054925060038381548110151561198557fe5b906000526020600020906005020160020191508160008154811015156119a757fe5b90600052602060002090015490506119f76000808881526020019081526020016000206000016000868152602001908152602001600020600083815260200190815260200160002054600161359e565b6000808881526020019081526020016000206000016000868152602001908152602001600020600083815260200190815260200160002081905550611a8c60008088815260200190815260200160002060000160008681526020019081526020016000206000876000815181101515611a6c57fe5b906020019060200201518152602001908152602001600020546001613580565b60008088815260200190815260200160002060000160008681526020019081526020016000206000876000815181101515611ac357fe5b90602001906020020151815260200190815260200160002081905550846000815181101515611aee57fe5b90602001906020020151600384815481101515611b0757fe5b90600052602060002090600502016002016000815481101515611b2657fe5b906000526020600020900181905550505050505050565b600080600080868152602001908152602001600020600001600085815260200190815260200160002060008481526020019081526020016000205491506000808681526020019081526020016000206001016000858152602001908152602001600020549050935093915050565b6000806000806000806000806000600560009054906101000a900473ffffffffffffffffffffffffffffffffffffffff16600a60006101000a81548173ffffffffffffffffffffffffffffffffffffffff021916908373ffffffffffffffffffffffffffffffffffffffff160217905550600660009054906101000a900473ffffffffffffffffffffffffffffffffffffffff16600860006101000a81548173ffffffffffffffffffffffffffffffffffffffff021916908373ffffffffffffffffffffffffffffffffffffffff160217905550600760009054906101000a900473ffffffffffffffffffffffffffffffffffffffff16600960006101000a81548173ffffffffffffffffffffffffffffffffffffffff021916908373ffffffffffffffffffffffffffffffffffffffff160217905550600a60009054906101000a900473ffffffffffffffffffffffffffffffffffffffff1673ffffffffffffffffffffffffffffffffffffffff1663f65ad7508e600060405160e001526040518263ffffffff167c01000000000000000000000000000000000000000000000000000000000281526004018082815260200191505060e060405180830381600087803b1515611d7b57600080fd5b6102c65a03f11515611d8c57600080fd5b5050506040518051906020018051906020018051906020018051906020018051906020018051906020018051905090919293949550909192939450909192935090919250909150905080995050600a60009054906101000a900473ffffffffffffffffffffffffffffffffffffffff1673ffffffffffffffffffffffffffffffffffffffff1663ec9ccfff8e600060405160a001526040518263ffffffff167c01000000000000000000000000000000000000000000000000000000000281526004018082815260200191505060a060405180830381600087803b1515611e7257600080fd5b6102c65a03f11515611e8357600080fd5b50505060405180519060200180519060200180519060200180519060200180519050905050809850819a50829950505050600a60009054906101000a900473ffffffffffffffffffffffffffffffffffffffff1673ffffffffffffffffffffffffffffffffffffffff166334a3210a8e6000604051608001526040518263ffffffff167c010000000000000000000000000000000000000000000000000000000002815260040180828152602001915050608060405180830381600087803b1515611f4d57600080fd5b6102c65a03f11515611f5e57600080fd5b5050506040518051906020018051906020018051906020018051905090919250909150905080955050600860009054906101000a900473ffffffffffffffffffffffffffffffffffffffff1673ffffffffffffffffffffffffffffffffffffffff1663beae32ba336000604051602001526040518263ffffffff167c0100000000000000000000000000000000000000000000000000000000028152600401808273ffffffffffffffffffffffffffffffffffffffff1673ffffffffffffffffffffffffffffffffffffffff168152602001915050602060405180830381600087803b151561204c57600080fd5b6102c65a03f1151561205d57600080fd5b50505060405180519050935060003373ffffffffffffffffffffffffffffffffffffffff16141580156120905750600289145b801561209c5750600088145b15156120a757600080fd5b600960009054906101000a900473ffffffffffffffffffffffffffffffffffffffff1673ffffffffffffffffffffffffffffffffffffffff16639deeab20888a6000604051602001526040518363ffffffff167c01000000000000000000000000000000000000000000000000000000000281526004018083815260200182815260200192505050602060405180830381600087803b151561214857600080fd5b6102c65a03f1151561215957600080fd5b50505060405180519050841480156121c157506000600260003373ffffffffffffffffffffffffffffffffffffffff1673ffffffffffffffffffffffffffffffffffffffff16815260200190815260200160002060008f815260200190815260200160002054145b15156121cc57600080fd5b600960009054906101000a900473ffffffffffffffffffffffffffffffffffffffff1673ffffffffffffffffffffffffffffffffffffffff1663b0a4aaee88600060405161010001526040518263ffffffff167c01000000000000000000000000000000000000000000000000000000000281526004018082815260200191505061010060405180830381600087803b151561226757600080fd5b6102c65a03f1151561227857600080fd5b505050604051805190602001805190602001805190602001805190602001805190602001805190602001805190602001805190509091929394959650909192939495509091929394509050508093508194508295505050508b518360ff161480156122e657508a518260ff16145b80156122f5575089518160ff16145b1561248f57612305856001613580565b9450600a60009054906101000a900473ffffffffffffffffffffffffffffffffffffffff1673ffffffffffffffffffffffffffffffffffffffff1663da77c3818e8e8e8e8a6040518663ffffffff167c010000000000000000000000000000000000000000000000000000000002815260040180868152602001806020018060200180602001858152602001848103845288818151815260200191508051906020019060200280838360005b838110156123cc5780820151818401526020810190506123b1565b50505050905001848103835287818151815260200191508051906020019060200280838360005b8381101561240e5780820151818401526020810190506123f3565b50505050905001848103825286818151815260200191508051906020019060200280838360005b83811015612450578082015181840152602081019050612435565b5050505090500198505050505050505050600060405180830381600087803b151561247a57600080fd5b6102c65a03f1151561248b57600080fd5b5050505b50505050505050505050505050565b6000806124a961360d565b6000806003868154811015156124bb57fe5b906000526020600020906005020160000160009054906101000a900473ffffffffffffffffffffffffffffffffffffffff166003878154811015156124fc57fe5b90600052602060002090600502016001015460038881548110151561251d57fe5b906000526020600020906005020160020160038981548110151561253d57fe5b90600052602060002090600502016003015460038a81548110151561255e57fe5b906000526020600020906005020160040154828054806020026020016040519081016040528092919081815260200182805480156125bb57602002820191906000526020600020905b8154815260200190600101908083116125a7575b505050505092509450945094509450945091939590929450565b6000600380549050905090565b60006001600085815260200190815260200160002060008481526020019081526020016000208281548110151561261557fe5b90600052602060002090015490509392505050565b6000806000806000806000806000806000600560009054906101000a900473ffffffffffffffffffffffffffffffffffffffff16600a60006101000a81548173ffffffffffffffffffffffffffffffffffffffff021916908373ffffffffffffffffffffffffffffffffffffffff160217905550600660009054906101000a900473ffffffffffffffffffffffffffffffffffffffff16600860006101000a81548173ffffffffffffffffffffffffffffffffffffffff021916908373ffffffffffffffffffffffffffffffffffffffff160217905550600760009054906101000a900473ffffffffffffffffffffffffffffffffffffffff16600960006101000a81548173ffffffffffffffffffffffffffffffffffffffff021916908373ffffffffffffffffffffffffffffffffffffffff160217905550600a60009054906101000a900473ffffffffffffffffffffffffffffffffffffffff1673ffffffffffffffffffffffffffffffffffffffff1663f65ad7508d600060405160e001526040518263ffffffff167c01000000000000000000000000000000000000000000000000000000000281526004018082815260200191505060e060405180830381600087803b15156127fd57600080fd5b6102c65a03f1151561280e57600080fd5b50505060405180519060200180519060200180519060200180519060200180519060200180519060200180519050909192939495509091929394509091929350909192509091509050809b5050600a60009054906101000a900473ffffffffffffffffffffffffffffffffffffffff1673ffffffffffffffffffffffffffffffffffffffff1663ec9ccfff8d600060405160a001526040518263ffffffff167c01000000000000000000000000000000000000000000000000000000000281526004018082815260200191505060a060405180830381600087803b15156128f457600080fd5b6102c65a03f1151561290557600080fd5b50505060405180519060200180519060200180519060200180519060200180519050905050809a50819c50829b50505050600a60009054906101000a900473ffffffffffffffffffffffffffffffffffffffff1673ffffffffffffffffffffffffffffffffffffffff166334a3210a8d6000604051608001526040518263ffffffff167c010000000000000000000000000000000000000000000000000000000002815260040180828152602001915050608060405180830381600087803b15156129cf57600080fd5b6102c65a03f115156129e057600080fd5b50505060405180519060200180519060200180519060200180519050909192509091509050809750506001600a60009054906101000a900473ffffffffffffffffffffffffffffffffffffffff1673ffffffffffffffffffffffffffffffffffffffff166340b2723b8e6000604051602001526040518263ffffffff167c010000000000000000000000000000000000000000000000000000000002815260040180828152602001915050602060405180830381600087803b1515612aa457600080fd5b6102c65a03f11515612ab557600080fd5b5050506040518051905060ff16141515612ace57600080fd5b600860009054906101000a900473ffffffffffffffffffffffffffffffffffffffff1673ffffffffffffffffffffffffffffffffffffffff1663beae32ba336000604051602001526040518263ffffffff167c0100000000000000000000000000000000000000000000000000000000028152600401808273ffffffffffffffffffffffffffffffffffffffff1673ffffffffffffffffffffffffffffffffffffffff168152602001915050602060405180830381600087803b1515612b9357600080fd5b6102c65a03f11515612ba457600080fd5b50505060405180519050915060009550600090505b86811015612c8b57612c02856000808f81526020019081526020016000206000016000858152602001908152602001600020600084815260200190815260200160002054613580565b94506000808d815260200190815260200160002060000160008381526020019081526020016000206000828152602001908152602001600020546000808e815260200190815260200160002060000160008481526020019081526020016000206000888152602001908152602001600020541015612c7e578095505b8080600101915050612bb9565b6000808d815260200190815260200160002060000160008381526020019081526020016000206000878152602001908152602001600020549350600960009054906101000a900473ffffffffffffffffffffffffffffffffffffffff1673ffffffffffffffffffffffffffffffffffffffff166302e929c88a8c6000604051602001526040518363ffffffff167c01000000000000000000000000000000000000000000000000000000000281526004018083815260200182815260200192505050602060405180830381600087803b1515612d6657600080fd5b6102c65a03f11515612d7757600080fd5b50505060405180519050925082612d98612d928660646135b7565b876135f2565b10151561336f57612daa8a6001613580565b9950600086111561316757600960009054906101000a900473ffffffffffffffffffffffffffffffffffffffff1673ffffffffffffffffffffffffffffffffffffffff166318b0211b8a6000604051602001526040518263ffffffff167c010000000000000000000000000000000000000000000000000000000002815260040180828152602001915050602060405180830381600087803b1515612e4e57600080fd5b6102c65a03f11515612e5f57600080fd5b505050604051805190508a1015612f3257600a60009054906101000a900473ffffffffffffffffffffffffffffffffffffffff1673ffffffffffffffffffffffffffffffffffffffff16631f15d5e28d8c8960006040518563ffffffff167c010000000000000000000000000000000000000000000000000000000002815260040180858152602001848152602001838152602001828152602001945050505050600060405180830381600087803b1515612f1957600080fd5b6102c65a03f11515612f2a57600080fd5b505050613162565b600a60009054906101000a900473ffffffffffffffffffffffffffffffffffffffff1673ffffffffffffffffffffffffffffffffffffffff16631f15d5e28d8c898a6040518563ffffffff167c010000000000000000000000000000000000000000000000000000000002815260040180858152602001848152602001838152602001828152602001945050505050600060405180830381600087803b1515612fda57600080fd5b6102c65a03f11515612feb57600080fd5b505050600a60009054906101000a900473ffffffffffffffffffffffffffffffffffffffff1673ffffffffffffffffffffffffffffffffffffffff1663c12da3ae8d60036040518363ffffffff167c01000000000000000000000000000000000000000000000000000000000281526004018083815260200182815260200192505050600060405180830381600087803b151561308757600080fd5b6102c65a03f1151561309857600080fd5b505050600960009054906101000a900473ffffffffffffffffffffffffffffffffffffffff1673ffffffffffffffffffffffffffffffffffffffff1663db0c4f798d8b6000604051602001526040518363ffffffff167c01000000000000000000000000000000000000000000000000000000000281526004018083815260200182815260200192505050602060405180830381600087803b151561313c57600080fd5b6102c65a03f1151561314d57600080fd5b50505060405180519050506131618c610697565b5b61336a565b600a60009054906101000a900473ffffffffffffffffffffffffffffffffffffffff1673ffffffffffffffffffffffffffffffffffffffff16631f15d5e28d8c898a6040518563ffffffff167c010000000000000000000000000000000000000000000000000000000002815260040180858152602001848152602001838152602001828152602001945050505050600060405180830381600087803b151561320f57600080fd5b6102c65a03f1151561322057600080fd5b505050600a60009054906101000a900473ffffffffffffffffffffffffffffffffffffffff1673ffffffffffffffffffffffffffffffffffffffff1663c12da3ae8d60046040518363ffffffff167c01000000000000000000000000000000000000000000000000000000000281526004018083815260200182815260200192505050600060405180830381600087803b15156132bc57600080fd5b6102c65a03f115156132cd57600080fd5b505050600a60009054906101000a900473ffffffffffffffffffffffffffffffffffffffff1673ffffffffffffffffffffffffffffffffffffffff1663e7030a676040518163ffffffff167c0100000000000000000000000000000000000000000000000000000000028152600401600060405180830381600087803b151561335557600080fd5b6102c65a03f1151561336657600080fd5b5050505b613572565b600a60009054906101000a900473ffffffffffffffffffffffffffffffffffffffff1673ffffffffffffffffffffffffffffffffffffffff16631f15d5e28d8c898a6040518563ffffffff167c010000000000000000000000000000000000000000000000000000000002815260040180858152602001848152602001838152602001828152602001945050505050600060405180830381600087803b151561341757600080fd5b6102c65a03f1151561342857600080fd5b505050600a60009054906101000a900473ffffffffffffffffffffffffffffffffffffffff1673ffffffffffffffffffffffffffffffffffffffff1663c12da3ae8d60056040518363ffffffff167c01000000000000000000000000000000000000000000000000000000000281526004018083815260200182815260200192505050600060405180830381600087803b15156134c457600080fd5b6102c65a03f115156134d557600080fd5b505050600a60009054906101000a900473ffffffffffffffffffffffffffffffffffffffff1673ffffffffffffffffffffffffffffffffffffffff1663e7030a676040518163ffffffff167c0100000000000000000000000000000000000000000000000000000000028152600401600060405180830381600087803b151561355d57600080fd5b6102c65a03f1151561356e57600080fd5b5050505b505050505050505050505050565b600080828401905083811015151561359457fe5b8091505092915050565b60008282111515156135ac57fe5b818303905092915050565b60008060008414156135cc57600091506135eb565b82840290508284828115156135dd57fe5b041415156135e757fe5b8091505b5092915050565b600080828481151561360057fe5b0490508091505092915050565b602060405190810160405280600081525090565b81548183558181151161364e5760050281600502836000526020600020918201910161364d91906136cc565b5b505050565b82805482825590600052602060002090810192821561368f579160200282015b8281111561368e578251825591602001919060010190613673565b5b50905061369c919061373a565b5090565b8154818355818115116136c7578183600052602060002091820191016136c6919061373a565b5b505050565b61373791905b8082111561373357600080820160006101000a81549073ffffffffffffffffffffffffffffffffffffffff0219169055600182016000905560028201600061371a919061375f565b60038201600090556004820160009055506005016136d2565b5090565b90565b61375c91905b80821115613758576000816000905550600101613740565b5090565b90565b508054600082559060005260206000209081019061377d919061373a565b505600a165627a7a7230582096bd97bdffc9ae502d268991af6b07356a7d7f5f890bfedb8a0e38d606312fd10029",
  "source": "/* Copyright (C) 2017 GovBlocks.io\r\n\r\n  This program is free software: you can redistribute it and/or modify\r\n    it under the terms of the GNU General Public License as published by\r\n    the Free Software Foundation, either version 3 of the License, or\r\n    (at your option) any later version.\r\n\r\n  This program is distributed in the hope that it will be useful,\r\n    but WITHOUT ANY WARRANTY; without even the implied warranty of\r\n    MERCHANTABILITY or FITNESS FOR A PARTICULAR PURPOSE.  See the\r\n    GNU General Public License for more details.\r\n\r\n  You should have received a copy of the GNU General Public License\r\n    along with this program.  If not, see http://www.gnu.org/licenses/ */\r\n\r\n\r\npragma solidity ^0.4.8;\r\n\r\nimport \"./VotingType.sol\";\r\nimport \"./memberRoles.sol\";\r\nimport \"./ProposalCategory.sol\";\r\nimport \"./governanceData.sol\";\r\nimport \"./zeppelin-solidity/contracts/math/SafeMath.sol\";\r\n// import \"./SafeMath.sol\";\r\n\r\ncontract simpleVoting is VotingType\r\n{\r\n\r\n    using SafeMath for uint;\r\n    address GDAddress;\r\n    address MRAddress;\r\n    address PCAddress;\r\n    memberRoles MR;\r\n    ProposalCategory PC;\r\n    governanceData GD;\r\n\r\n    function simpleVoting()\r\n    {\r\n        uint[] verdictOption;\r\n        allVotes.push(proposalVote(0x00,0,verdictOption,now,0));\r\n    }\r\n\r\n    function changeAllContractsAddress(address _GDcontractAddress, address _MRcontractAddress, address _PCcontractAddress) public\r\n    {\r\n        GDAddress = _GDcontractAddress;\r\n        MRAddress = _MRcontractAddress;\r\n        PCAddress = _PCcontractAddress;\r\n    }\r\n\r\n    function getTotalVotes() constant returns (uint votesTotal)\r\n    {\r\n        return(allVotes.length);\r\n    }\r\n\r\n    function increaseTotalVotes() returns (uint _totalVotes)\r\n    {\r\n        _totalVotes = SafeMath.add(totalVotes,1);  \r\n        totalVotes=_totalVotes;\r\n    } \r\n\r\n    function getVoteDetailByid(uint _voteid) public constant returns(address voter,uint proposalId,uint[] verdictChosen,uint dateSubmit,uint voterTokens)\r\n    {\r\n        return(allVotes[_voteid].voter,allVotes[_voteid].proposalId,allVotes[_voteid].verdictChosen,allVotes[_voteid].dateSubmit,allVotes[_voteid].voterTokens);\r\n    }\r\n\r\n    function getProposalRoleVoteLength(uint _proposalId,uint _roleId) public constant returns(uint length)\r\n    {\r\n         length = ProposalRoleVote[_proposalId][_roleId].length;\r\n    }\r\n\r\n    /// @dev Get Vote id of a _roleId against given proposal.\r\n    function getProposalRoleVote(uint _proposalId,uint _roleId,uint _voteArrayIndex) public constant returns(uint voteId) \r\n    {\r\n        voteId = ProposalRoleVote[_proposalId][_roleId][_voteArrayIndex];\r\n    }\r\n\r\n    /// @dev Get the vote count for options of proposal when giving Proposal id and Option index.\r\n    function getProposalVoteAndTokenCountByRoleId(uint _proposalId,uint _roleId,uint _optionIndex) constant returns(uint totalVotes,uint totalToken)\r\n    {\r\n        totalVotes = allProposalVoteAndTokenCount[_proposalId].totalVoteCount[_roleId][_optionIndex];\r\n        totalToken = allProposalVoteAndTokenCount[_proposalId].totalTokenCount[_roleId];\r\n    }\r\n\r\n    /// @dev Get Vote id of a _roleId against given proposal.\r\n    function getProposalRoleVoteArray(uint _proposalId,uint _roleId) public constant returns(uint[] voteId) \r\n    {\r\n        return ProposalRoleVote[_proposalId][_roleId];\r\n    }\r\n\r\n    function addVerdictOption(uint _proposalId,uint[] _paramInt,bytes32[] _paramBytes32,address[] _paramAddress)\r\n    {\r\n        GD=governanceData(GDAddress);\r\n        MR=memberRoles(MRAddress);\r\n        PC=ProposalCategory(PCAddress);\r\n        \r\n        uint propStatus;\r\n        (,,,,,,propStatus) = GD.getProposalDetailsById1(_proposalId);\r\n        uint currentVotingId; uint category; uint intermediateVerdict;\r\n        (category,currentVotingId,intermediateVerdict,,) = GD.getProposalDetailsById2(_proposalId);\r\n        uint verdictOptions;\r\n        (,,,verdictOptions) = GD.getProposalCategoryParams(_proposalId);\r\n        uint roleId = MR.getMemberRoleIdByAddress(msg.sender);\r\n        \r\n        require((msg.sender) != 0 && propStatus == 2 && currentVotingId == 0);\r\n        require(roleId == PC.getRoleSequencAtIndex(category,currentVotingId) && AddressProposalVote[msg.sender][_proposalId] == 0 );\r\n        \r\n        uint8 paramInt; uint8 paramBytes32; uint8 paramAddress;\r\n        (,,,paramInt,paramBytes32,paramAddress,,) = PC.getCategoryDetails(category);\r\n\r\n        if(paramInt == _paramInt.length && paramBytes32 == _paramBytes32.length && paramAddress == _paramAddress.length)\r\n        {\r\n            verdictOptions = SafeMath.add(verdictOptions,1);\r\n            GD.setProposalCategoryParams(_proposalId,_paramInt,_paramBytes32,_paramAddress,verdictOptions);   \r\n        } \r\n    }\r\n\r\n\r\n    function proposalVoting(uint _proposalId,uint[] _verdictChosen)\r\n    {\r\n        GD=governanceData(GDAddress);\r\n        MR=memberRoles(MRAddress);\r\n        PC=ProposalCategory(PCAddress);\r\n        uint propStatus;\r\n        (,,,,,,propStatus) = GD.getProposalDetailsById1(_proposalId);\r\n        uint currentVotingId; uint category; uint intermediateVerdict;\r\n        (category,currentVotingId,intermediateVerdict,,) = GD.getProposalDetailsById2(_proposalId);\r\n        uint verdictOptions;\r\n        (,,,verdictOptions) = GD.getProposalCategoryParams(_proposalId);\r\n        require(GD.getBalanceOfMember(msg.sender) != 0 && propStatus == 2 && _verdictChosen.length == 1);\r\n\r\n        if(currentVotingId == 0)\r\n            require(_verdictChosen[0] <= verdictOptions);\r\n        else\r\n            require(_verdictChosen[0]==intermediateVerdict || _verdictChosen[0]==0);\r\n        uint roleId = MR.getMemberRoleIdByAddress(msg.sender);\r\n        require(roleId == PC.getRoleSequencAtIndex(category,currentVotingId));\r\n\r\n        if(AddressProposalVote[msg.sender][_proposalId] == 0)\r\n        {\r\n            uint votelength = getTotalVotes();\r\n            increaseTotalVotes();\r\n            uint _voterTokens = GD.getBalanceOfMember(msg.sender);\r\n            allVotes.push(proposalVote(msg.sender,_proposalId,_verdictChosen,now,_voterTokens));\r\n            allProposalVoteAndTokenCount[_proposalId].totalVoteCount[roleId][_verdictChosen[0]] = SafeMath.add(allProposalVoteAndTokenCount[_proposalId].totalVoteCount[roleId][_verdictChosen[0]],1);\r\n            allProposalVoteAndTokenCount[_proposalId].totalTokenCount[roleId] = SafeMath.add(allProposalVoteAndTokenCount[_proposalId].totalTokenCount[roleId],_voterTokens);\r\n            AddressProposalVote[msg.sender][_proposalId] = votelength;\r\n            ProposalRoleVote[_proposalId][roleId].push(votelength);\r\n        }\r\n        else \r\n            changeMemberVote(_proposalId,_verdictChosen);\r\n    }\r\n\r\n    function changeMemberVote(uint _proposalId,uint[] _verdictChosen) \r\n    {\r\n        MR=memberRoles(MRAddress); \r\n        uint roleId = MR.getMemberRoleIdByAddress(msg.sender);\r\n        uint voteId = AddressProposalVote[msg.sender][_proposalId];\r\n        uint[] verdictChosen = allVotes[voteId].verdictChosen;\r\n        uint verdict = verdictChosen[0];\r\n        \r\n        allProposalVoteAndTokenCount[_proposalId].totalVoteCount[roleId][verdict] = SafeMath.sub(allProposalVoteAndTokenCount[_proposalId].totalVoteCount[roleId][verdict],1);\r\n        allProposalVoteAndTokenCount[_proposalId].totalVoteCount[roleId][_verdictChosen[0]] = SafeMath.add(allProposalVoteAndTokenCount[_proposalId].totalVoteCount[roleId][_verdictChosen[0]],1);\r\n        allVotes[voteId].verdictChosen[0] = _verdictChosen[0];\r\n    }\r\n\r\n    function closeProposalVote(uint _proposalId)\r\n    {\r\n        GD=governanceData(GDAddress);\r\n        MR=memberRoles(MRAddress);\r\n        PC=ProposalCategory(PCAddress);\r\n    \r\n        uint propStatus;\r\n        (,,,,,,propStatus) = GD.getProposalDetailsById1(_proposalId);\r\n        uint currentVotingId; uint category; uint intermediateVerdict;\r\n        (category,currentVotingId,intermediateVerdict,,) = GD.getProposalDetailsById2(_proposalId);\r\n        uint verdictOptions;\r\n        (,,,verdictOptions) = GD.getProposalCategoryParams(_proposalId);\r\n    \r\n        require(GD.checkProposalVoteClosing(_proposalId)==1);\r\n        uint max; uint totalVotes; uint verdictVal; uint majorityVote;\r\n        uint roleId = MR.getMemberRoleIdByAddress(msg.sender);\r\n\r\n        max=0;  \r\n        for(uint i = 0; i < verdictOptions; i++)\r\n        {\r\n            totalVotes = SafeMath.add(totalVotes,allProposalVoteAndTokenCount[_proposalId].totalVoteCount[roleId][i]); \r\n            if(allProposalVoteAndTokenCount[_proposalId].totalVoteCount[roleId][max] < allProposalVoteAndTokenCount[_proposalId].totalVoteCount[roleId][i])\r\n            {  \r\n                max = i; \r\n            }\r\n        }\r\n        verdictVal = allProposalVoteAndTokenCount[_proposalId].totalVoteCount[roleId][max];\r\n        majorityVote= PC.getRoleMajorityVote(category,currentVotingId);\r\n       \r\n        if(SafeMath.div(SafeMath.mul(verdictVal,100),totalVotes)>=majorityVote)\r\n        {   \r\n            currentVotingId = SafeMath.add(currentVotingId,1);\r\n            if(max > 0 )\r\n            {\r\n                if(currentVotingId < PC.getRoleSequencLength(category))\r\n                {\r\n                    GD.updateProposalDetails(_proposalId,currentVotingId,max,0);\r\n                } \r\n                else\r\n                {\r\n                    GD.updateProposalDetails(_proposalId,currentVotingId,max,max);\r\n                    GD.changeProposalStatus(_proposalId,3);\r\n                    PC.actionAfterProposalPass(_proposalId ,category);\r\n                    giveReward_afterFinalDecision(_proposalId);\r\n                }\r\n            }\r\n            else\r\n            {\r\n                GD.updateProposalDetails(_proposalId,currentVotingId,max,max);\r\n                GD.changeProposalStatus(_proposalId,4);\r\n                GD.changePendingProposalStart();\r\n            }      \r\n        } \r\n        else\r\n        {\r\n            GD.updateProposalDetails(_proposalId,currentVotingId,max,max);\r\n            GD.changeProposalStatus(_proposalId,5);\r\n            GD.changePendingProposalStart();\r\n        } \r\n    }\r\n     \r\n    function giveReward_afterFinalDecision(uint _proposalId) public \r\n    {\r\n        address voter; uint[] verdictChosen;uint category; uint roleId; uint reward;uint voteid;\r\n        PC=ProposalCategory(PCAddress); \r\n        GD=governanceData(GDAddress);\r\n        uint currentVotingId;uint intermediateVerdict;uint finalVerdict;\r\n        (category,currentVotingId,intermediateVerdict,finalVerdict,) = GD.getProposalDetailsById2(_proposalId);\r\n\r\n        for(uint index=0; index<PC.getRoleSequencLength(category); index++)\r\n        {\r\n            roleId = PC.getRoleSequencAtIndex(category,index);\r\n            reward = GD.getProposalRewardAndComplexity(_proposalId,index);\r\n            for(uint i=0; i<getProposalRoleVoteLength(_proposalId,roleId); i++)\r\n            {\r\n                voteid = getProposalRoleVote(_proposalId,roleId,i);\r\n                verdictChosen = allVotes[voteid].verdictChosen;\r\n                uint verdict = verdictChosen[0];\r\n                require(verdict == finalVerdict);\r\n                GD.transferTokenAfterFinalReward(voter,reward);  \r\n            }\r\n        }    \r\n    }\r\n\r\n}\r\n",
  "sourcePath": "D:\\2. GovBlocks Contracts\\GovBlocks Git-Master\\contracts\\simpleVoting.sol",
  "compiler": {
    "name": "solc",
    "version": "0.4.18+commit.9cf6e910.Emscripten.clang"
  },
  "schemaVersion": "1.0.1",
  "updatedAt": "2017-12-02T10:22:06.231Z"
}