{
  "contractName": "StandardVotingType",
  "abi": [
    {
      "constant": false,
      "inputs": [
        {
          "name": "_GDcontractAddress",
          "type": "address"
        },
        {
          "name": "_MRcontractAddress",
          "type": "address"
        },
        {
          "name": "_PCcontractAddress",
          "type": "address"
        }
      ],
      "name": "changeAllContractsAddress",
      "outputs": [],
      "payable": false,
      "stateMutability": "nonpayable",
      "type": "function"
    },
    {
      "constant": false,
      "inputs": [
        {
          "name": "_VTaddress",
          "type": "address"
        },
        {
          "name": "_proposalId",
          "type": "uint256"
        },
        {
          "name": "_paramInt",
          "type": "uint256[]"
        },
        {
          "name": "_paramBytes32",
          "type": "bytes32[]"
        },
        {
          "name": "_paramAddress",
          "type": "address[]"
        },
        {
          "name": "_GBTPayableTokenAmount",
          "type": "uint256"
        }
      ],
      "name": "addVerdictOptionSVT",
      "outputs": [],
      "payable": false,
      "stateMutability": "nonpayable",
      "type": "function"
    },
    {
      "constant": false,
      "inputs": [
        {
          "name": "GBTAddress",
          "type": "address"
        },
        {
          "name": "_proposalId",
          "type": "uint256"
        },
        {
          "name": "_memberStake",
          "type": "uint256"
        }
      ],
      "name": "setVoteValue_givenByMember",
      "outputs": [
        {
          "name": "finalVoteValue",
          "type": "uint256"
        }
      ],
      "payable": false,
      "stateMutability": "nonpayable",
      "type": "function"
    },
    {
      "constant": false,
      "inputs": [
        {
          "name": "_VTaddress",
          "type": "address"
        },
        {
          "name": "_votingType",
          "type": "uint256"
        },
        {
          "name": "_proposalId",
          "type": "uint256"
        }
      ],
      "name": "closeProposalVoteSVT",
      "outputs": [],
      "payable": false,
      "stateMutability": "nonpayable",
      "type": "function"
    },
    {
      "constant": false,
      "inputs": [
        {
          "name": "_SVaddress",
          "type": "address"
        },
        {
          "name": "_RBaddress",
          "type": "address"
        },
        {
          "name": "_FWaddress",
          "type": "address"
        }
      ],
      "name": "changeOtherContractAddress",
      "outputs": [],
      "payable": false,
      "stateMutability": "nonpayable",
      "type": "function"
    }
  ],
  "bytecode": "0x6060604052341561000f57600080fd5b612f578061001e6000396000f30060606040526004361061006c576000357c0100000000000000000000000000000000000000000000000000000000900463ffffffff168062edf46e1461007157806354dfd4fa146100e8578063ceeb6f1b146101f3578063d9aa6f1914610252578063f41e82411461029d575b600080fd5b341561007c57600080fd5b6100e6600480803573ffffffffffffffffffffffffffffffffffffffff1690602001909190803573ffffffffffffffffffffffffffffffffffffffff1690602001909190803573ffffffffffffffffffffffffffffffffffffffff16906020019091905050610314565b005b34156100f357600080fd5b6101f1600480803573ffffffffffffffffffffffffffffffffffffffff169060200190919080359060200190919080359060200190820180359060200190808060200260200160405190810160405280939291908181526020018383602002808284378201915050505050509190803590602001908201803590602001908080602002602001604051908101604052809392919081815260200183836020028082843782019150505050505091908035906020019082018035906020019080806020026020016040519081016040528093929190818152602001838360200280828437820191505050505050919080359060200190919050506103dc565b005b34156101fe57600080fd5b61023c600480803573ffffffffffffffffffffffffffffffffffffffff16906020019091908035906020019091908035906020019091905050610f4f565b6040518082815260200191505060405180910390f35b341561025d57600080fd5b61029b600480803573ffffffffffffffffffffffffffffffffffffffff16906020019091908035906020019091908035906020019091905050611529565b005b34156102a857600080fd5b610312600480803573ffffffffffffffffffffffffffffffffffffffff1690602001909190803573ffffffffffffffffffffffffffffffffffffffff1690602001909190803573ffffffffffffffffffffffffffffffffffffffff16906020019091905050612978565b005b82600360006101000a81548173ffffffffffffffffffffffffffffffffffffffff021916908373ffffffffffffffffffffffffffffffffffffffff16021790555081600460006101000a81548173ffffffffffffffffffffffffffffffffffffffff021916908373ffffffffffffffffffffffffffffffffffffffff16021790555080600560006101000a81548173ffffffffffffffffffffffffffffffffffffffff021916908373ffffffffffffffffffffffffffffffffffffffff160217905550505050565b60008060008060008060008c600f60006101000a81548173ffffffffffffffffffffffffffffffffffffffff021916908373ffffffffffffffffffffffffffffffffffffffff160217905550600360009054906101000a900473ffffffffffffffffffffffffffffffffffffffff16600960006101000a81548173ffffffffffffffffffffffffffffffffffffffff021916908373ffffffffffffffffffffffffffffffffffffffff160217905550600460009054906101000a900473ffffffffffffffffffffffffffffffffffffffff16600760006101000a81548173ffffffffffffffffffffffffffffffffffffffff021916908373ffffffffffffffffffffffffffffffffffffffff160217905550600560009054906101000a900473ffffffffffffffffffffffffffffffffffffffff16600860006101000a81548173ffffffffffffffffffffffffffffffffffffffff021916908373ffffffffffffffffffffffffffffffffffffffff160217905550600960009054906101000a900473ffffffffffffffffffffffffffffffffffffffff1673ffffffffffffffffffffffffffffffffffffffff166334a3210a8d6000604051608001526040518263ffffffff167c010000000000000000000000000000000000000000000000000000000002815260040180828152602001915050608060405180830381600087803b15156105ea57600080fd5b6102c65a03f115156105fb57600080fd5b5050506040518051906020018051906020018051906020018051905090919250909150905080975050600960009054906101000a900473ffffffffffffffffffffffffffffffffffffffff1673ffffffffffffffffffffffffffffffffffffffff1663ec9ccfff8d600060405160a001526040518263ffffffff167c01000000000000000000000000000000000000000000000000000000000281526004018082815260200191505060a060405180830381600087803b15156106bd57600080fd5b6102c65a03f115156106ce57600080fd5b505050604051805190602001805190602001805190602001805190602001805190508460ff1694508360ff16935090915090505080965081975050506000851480156107cd57506002600960009054906101000a900473ffffffffffffffffffffffffffffffffffffffff1673ffffffffffffffffffffffffffffffffffffffff1663401853b78e6000604051602001526040518263ffffffff167c010000000000000000000000000000000000000000000000000000000002815260040180828152602001915050602060405180830381600087803b15156107b057600080fd5b6102c65a03f115156107c157600080fd5b50505060405180519050145b80156108b957506000600960009054906101000a900473ffffffffffffffffffffffffffffffffffffffff1673ffffffffffffffffffffffffffffffffffffffff166335c42dbb336000604051602001526040518263ffffffff167c0100000000000000000000000000000000000000000000000000000000028152600401808273ffffffffffffffffffffffffffffffffffffffff1673ffffffffffffffffffffffffffffffffffffffff168152602001915050602060405180830381600087803b151561089b57600080fd5b6102c65a03f115156108ac57600080fd5b5050506040518051905014155b15156108c457600080fd5b600860009054906101000a900473ffffffffffffffffffffffffffffffffffffffff1673ffffffffffffffffffffffffffffffffffffffff16639deeab2087876000604051602001526040518363ffffffff167c01000000000000000000000000000000000000000000000000000000000281526004018083815260200182815260200192505050602060405180830381600087803b151561096557600080fd5b6102c65a03f1151561097657600080fd5b50505060405180519050600760009054906101000a900473ffffffffffffffffffffffffffffffffffffffff1673ffffffffffffffffffffffffffffffffffffffff1663beae32ba336000604051602001526040518263ffffffff167c0100000000000000000000000000000000000000000000000000000000028152600401808273ffffffffffffffffffffffffffffffffffffffff1673ffffffffffffffffffffffffffffffffffffffff168152602001915050602060405180830381600087803b1515610a4557600080fd5b6102c65a03f11515610a5657600080fd5b50505060405180519050148015610b5457506000600f60009054906101000a900473ffffffffffffffffffffffffffffffffffffffff1673ffffffffffffffffffffffffffffffffffffffff1663eef83a4b338f6000604051602001526040518363ffffffff167c0100000000000000000000000000000000000000000000000000000000028152600401808373ffffffffffffffffffffffffffffffffffffffff1673ffffffffffffffffffffffffffffffffffffffff16815260200182815260200192505050602060405180830381600087803b1515610b3757600080fd5b6102c65a03f11515610b4857600080fd5b50505060405180519050145b1515610b5f57600080fd5b600860009054906101000a900473ffffffffffffffffffffffffffffffffffffffff1673ffffffffffffffffffffffffffffffffffffffff1663b0a4aaee87600060405161010001526040518263ffffffff167c01000000000000000000000000000000000000000000000000000000000281526004018082815260200191505061010060405180830381600087803b1515610bfa57600080fd5b6102c65a03f11515610c0b57600080fd5b505050604051805190602001805190602001805190602001805190602001805190602001805190602001805190602001805190509091929394959650909192939495509091929394509050508094508195508296505050508a518460ff16148015610c79575089518360ff16145b8015610c88575088518260ff16145b15610f4057610cba600960009054906101000a900473ffffffffffffffffffffffffffffffffffffffff168d8a612a3f565b9050600960009054906101000a900473ffffffffffffffffffffffffffffffffffffffff1673ffffffffffffffffffffffffffffffffffffffff1663b7cc057e8d338b856040518563ffffffff167c0100000000000000000000000000000000000000000000000000000000028152600401808581526020018473ffffffffffffffffffffffffffffffffffffffff1673ffffffffffffffffffffffffffffffffffffffff168152602001838152602001828152602001945050505050600060405180830381600087803b1515610d9057600080fd5b6102c65a03f11515610da157600080fd5b505050600187019650600960009054906101000a900473ffffffffffffffffffffffffffffffffffffffff1673ffffffffffffffffffffffffffffffffffffffff166347dc106e878e8e8e8e8d6040518763ffffffff167c0100000000000000000000000000000000000000000000000000000000028152600401808781526020018681526020018060200180602001806020018560ff1660ff168152602001848103845288818151815260200191508051906020019060200280838360005b83811015610e7c578082015181840152602081019050610e61565b50505050905001848103835287818151815260200191508051906020019060200280838360005b83811015610ebe578082015181840152602081019050610ea3565b50505050905001848103825286818151815260200191508051906020019060200280838360005b83811015610f00578082015181840152602081019050610ee5565b505050509050019950505050505050505050600060405180830381600087803b1515610f2b57600080fd5b6102c65a03f11515610f3c57600080fd5b5050505b50505050505050505050505050565b6000806000600360009054906101000a900473ffffffffffffffffffffffffffffffffffffffff16600960006101000a81548173ffffffffffffffffffffffffffffffffffffffff021916908373ffffffffffffffffffffffffffffffffffffffff16021790555085600a60006101000a81548173ffffffffffffffffffffffffffffffffffffffff021916908373ffffffffffffffffffffffffffffffffffffffff16021790555060008414151561112057600a60009054906101000a900473ffffffffffffffffffffffffffffffffffffffff1673ffffffffffffffffffffffffffffffffffffffff166323b872dd3388876000604051602001526040518463ffffffff167c0100000000000000000000000000000000000000000000000000000000028152600401808473ffffffffffffffffffffffffffffffffffffffff1673ffffffffffffffffffffffffffffffffffffffff1681526020018373ffffffffffffffffffffffffffffffffffffffff1673ffffffffffffffffffffffffffffffffffffffff1681526020018281526020019350505050602060405180830381600087803b151561110357600080fd5b6102c65a03f1151561111457600080fd5b50505060405180519050505b6112c5611217611210600960009054906101000a900473ffffffffffffffffffffffffffffffffffffffff1673ffffffffffffffffffffffffffffffffffffffff166335c42dbb336000604051602001526040518263ffffffff167c0100000000000000000000000000000000000000000000000000000000028152600401808273ffffffffffffffffffffffffffffffffffffffff1673ffffffffffffffffffffffffffffffffffffffff168152602001915050602060405180830381600087803b15156111ee57600080fd5b6102c65a03f115156111ff57600080fd5b505050604051805190506064612e9d565b6064612e9d565b600960009054906101000a900473ffffffffffffffffffffffffffffffffffffffff1673ffffffffffffffffffffffffffffffffffffffff1663a5d8ba896000604051602001526040518163ffffffff167c0100000000000000000000000000000000000000000000000000000000028152600401602060405180830381600087803b15156112a557600080fd5b6102c65a03f115156112b657600080fd5b50505060405180519050612ed8565b915061143361137c85600960009054906101000a900473ffffffffffffffffffffffffffffffffffffffff1673ffffffffffffffffffffffffffffffffffffffff166393e4a4f56000604051602001526040518163ffffffff167c0100000000000000000000000000000000000000000000000000000000028152600401602060405180830381600087803b151561135c57600080fd5b6102c65a03f1151561136d57600080fd5b50505060405180519050612ef3565b61142e84600960009054906101000a900473ffffffffffffffffffffffffffffffffffffffff1673ffffffffffffffffffffffffffffffffffffffff166311aadbfb6000604051602001526040518163ffffffff167c0100000000000000000000000000000000000000000000000000000000028152600401602060405180830381600087803b151561140e57600080fd5b6102c65a03f1151561141f57600080fd5b50505060405180519050612ef3565b612e9d565b905061151e600960009054906101000a900473ffffffffffffffffffffffffffffffffffffffff1673ffffffffffffffffffffffffffffffffffffffff16631b3b74f1336000604051602001526040518263ffffffff167c0100000000000000000000000000000000000000000000000000000000028152600401808273ffffffffffffffffffffffffffffffffffffffff1673ffffffffffffffffffffffffffffffffffffffff168152602001915050602060405180830381600087803b15156114fd57600080fd5b6102c65a03f1151561150e57600080fd5b5050506040518051905082612e9d565b925050509392505050565b6000806000806000806000806000600360009054906101000a900473ffffffffffffffffffffffffffffffffffffffff16600960006101000a81548173ffffffffffffffffffffffffffffffffffffffff021916908373ffffffffffffffffffffffffffffffffffffffff160217905550600460009054906101000a900473ffffffffffffffffffffffffffffffffffffffff16600760006101000a81548173ffffffffffffffffffffffffffffffffffffffff021916908373ffffffffffffffffffffffffffffffffffffffff160217905550600560009054906101000a900473ffffffffffffffffffffffffffffffffffffffff16600860006101000a81548173ffffffffffffffffffffffffffffffffffffffff021916908373ffffffffffffffffffffffffffffffffffffffff1602179055506000809054906101000a900473ffffffffffffffffffffffffffffffffffffffff16600c60006101000a81548173ffffffffffffffffffffffffffffffffffffffff021916908373ffffffffffffffffffffffffffffffffffffffff160217905550600160009054906101000a900473ffffffffffffffffffffffffffffffffffffffff16600d60006101000a81548173ffffffffffffffffffffffffffffffffffffffff021916908373ffffffffffffffffffffffffffffffffffffffff160217905550600260009054906101000a900473ffffffffffffffffffffffffffffffffffffffff16600e60006101000a81548173ffffffffffffffffffffffffffffffffffffffff021916908373ffffffffffffffffffffffffffffffffffffffff1602179055508b600f60006101000a81548173ffffffffffffffffffffffffffffffffffffffff021916908373ffffffffffffffffffffffffffffffffffffffff160217905550600960009054906101000a900473ffffffffffffffffffffffffffffffffffffffff1673ffffffffffffffffffffffffffffffffffffffff1663ec9ccfff8b600060405160a001526040518263ffffffff167c01000000000000000000000000000000000000000000000000000000000281526004018082815260200191505060a060405180830381600087803b151561186257600080fd5b6102c65a03f1151561187357600080fd5b50505060405180519060200180519060200180519060200180519060200180519050909150905050809a508199505050600960009054906101000a900473ffffffffffffffffffffffffffffffffffffffff1673ffffffffffffffffffffffffffffffffffffffff166334a3210a8b6000604051608001526040518263ffffffff167c010000000000000000000000000000000000000000000000000000000002815260040180828152602001915050608060405180830381600087803b151561193c57600080fd5b6102c65a03f1151561194d57600080fd5b50505060405180519060200180519060200180519060200180519050909192509091509050809750506001600960009054906101000a900473ffffffffffffffffffffffffffffffffffffffff1673ffffffffffffffffffffffffffffffffffffffff166340b2723b8c6000604051602001526040518263ffffffff167c010000000000000000000000000000000000000000000000000000000002815260040180828152602001915050602060405180830381600087803b1515611a1157600080fd5b6102c65a03f11515611a2257600080fd5b5050506040518051905060ff16141515611a3b57600080fd5b600760009054906101000a900473ffffffffffffffffffffffffffffffffffffffff1673ffffffffffffffffffffffffffffffffffffffff1663beae32ba336000604051602001526040518263ffffffff167c0100000000000000000000000000000000000000000000000000000000028152600401808273ffffffffffffffffffffffffffffffffffffffff1673ffffffffffffffffffffffffffffffffffffffff168152602001915050602060405180830381600087803b1515611b0057600080fd5b6102c65a03f11515611b1157600080fd5b50505060405180519050915060009550600090505b8660ff168160ff161015611dab57611c0485600f60009054906101000a900473ffffffffffffffffffffffffffffffffffffffff1673ffffffffffffffffffffffffffffffffffffffff1663a17d5b0a8d86866000604051602001526040518463ffffffff167c0100000000000000000000000000000000000000000000000000000000028152600401808481526020018381526020018260ff1681526020019350505050602060405180830381600087803b1515611be457600080fd5b6102c65a03f11515611bf557600080fd5b50505060405180519050612f0d565b9450600f60009054906101000a900473ffffffffffffffffffffffffffffffffffffffff1673ffffffffffffffffffffffffffffffffffffffff1663a17d5b0a8b84846000604051602001526040518463ffffffff167c0100000000000000000000000000000000000000000000000000000000028152600401808481526020018381526020018260ff1681526020019350505050602060405180830381600087803b1515611cb257600080fd5b6102c65a03f11515611cc357600080fd5b50505060405180519050600f60009054906101000a900473ffffffffffffffffffffffffffffffffffffffff1673ffffffffffffffffffffffffffffffffffffffff1663a17d5b0a8c858a6000604051602001526040518463ffffffff167c0100000000000000000000000000000000000000000000000000000000028152600401808481526020018381526020018260ff1681526020019350505050602060405180830381600087803b1515611d7957600080fd5b6102c65a03f11515611d8a57600080fd5b505050604051805190501015611d9e578095505b8080600101915050611b26565b600f60009054906101000a900473ffffffffffffffffffffffffffffffffffffffff1673ffffffffffffffffffffffffffffffffffffffff1663a17d5b0a8b84896000604051602001526040518463ffffffff167c0100000000000000000000000000000000000000000000000000000000028152600401808481526020018381526020018260ff1681526020019350505050602060405180830381600087803b1515611e5757600080fd5b6102c65a03f11515611e6857600080fd5b505050604051805190509350600860009054906101000a900473ffffffffffffffffffffffffffffffffffffffff1673ffffffffffffffffffffffffffffffffffffffff166302e929c8898b6000604051602001526040518363ffffffff167c0100000000000000000000000000000000000000000000000000000000028152600401808360ff1681526020018260ff16815260200192505050602060405180830381600087803b1515611f1b57600080fd5b6102c65a03f11515611f2c57600080fd5b50505060405180519050925082611f4d611f47866064612e9d565b87612ed8565b1015156127525760018901985060008660ff16111561253557600860009054906101000a900473ffffffffffffffffffffffffffffffffffffffff1673ffffffffffffffffffffffffffffffffffffffff166318b0211b896000604051602001526040518263ffffffff167c0100000000000000000000000000000000000000000000000000000000028152600401808260ff168152602001915050602060405180830381600087803b151561200257600080fd5b6102c65a03f1151561201357600080fd5b505050604051805190508960ff1610156120f857600960009054906101000a900473ffffffffffffffffffffffffffffffffffffffff1673ffffffffffffffffffffffffffffffffffffffff1663cd25becd8b8b8960006040518563ffffffff167c0100000000000000000000000000000000000000000000000000000000028152600401808581526020018460ff1660ff1681526020018360ff1660ff1681526020018260ff168152602001945050505050600060405180830381600087803b15156120df57600080fd5b6102c65a03f115156120f057600080fd5b505050612530565b600960009054906101000a900473ffffffffffffffffffffffffffffffffffffffff1673ffffffffffffffffffffffffffffffffffffffff1663cd25becd8b8b898a6040518563ffffffff167c0100000000000000000000000000000000000000000000000000000000028152600401808581526020018460ff1660ff1681526020018360ff1660ff1681526020018260ff1660ff168152602001945050505050600060405180830381600087803b15156121b257600080fd5b6102c65a03f115156121c357600080fd5b505050600960009054906101000a900473ffffffffffffffffffffffffffffffffffffffff1673ffffffffffffffffffffffffffffffffffffffff1663707b85278b60036040518363ffffffff167c0100000000000000000000000000000000000000000000000000000000028152600401808381526020018260ff16815260200192505050600060405180830381600087803b151561226257600080fd5b6102c65a03f1151561227357600080fd5b505050600860009054906101000a900473ffffffffffffffffffffffffffffffffffffffff1673ffffffffffffffffffffffffffffffffffffffff1663db0c4f798b8a6040518363ffffffff167c0100000000000000000000000000000000000000000000000000000000028152600401808381526020018260ff16815260200192505050600060405180830381600087803b151561231157600080fd5b6102c65a03f1151561232257600080fd5b50505060008b14156123d757600c60009054906101000a900473ffffffffffffffffffffffffffffffffffffffff1673ffffffffffffffffffffffffffffffffffffffff16630a256ae18b6040518263ffffffff167c010000000000000000000000000000000000000000000000000000000002815260040180828152602001915050600060405180830381600087803b15156123be57600080fd5b6102c65a03f115156123cf57600080fd5b50505061252f565b60018b141561248957600d60009054906101000a900473ffffffffffffffffffffffffffffffffffffffff1673ffffffffffffffffffffffffffffffffffffffff16630a256ae18b6040518263ffffffff167c010000000000000000000000000000000000000000000000000000000002815260040180828152602001915050600060405180830381600087803b151561247057600080fd5b6102c65a03f1151561248157600080fd5b50505061252e565b600e60009054906101000a900473ffffffffffffffffffffffffffffffffffffffff1673ffffffffffffffffffffffffffffffffffffffff16630a256ae18b6040518263ffffffff167c010000000000000000000000000000000000000000000000000000000002815260040180828152602001915050600060405180830381600087803b151561251957600080fd5b6102c65a03f1151561252a57600080fd5b5050505b5b5b61274d565b600960009054906101000a900473ffffffffffffffffffffffffffffffffffffffff1673ffffffffffffffffffffffffffffffffffffffff1663cd25becd8b8b898a6040518563ffffffff167c0100000000000000000000000000000000000000000000000000000000028152600401808581526020018460ff1660ff1681526020018360ff1660ff1681526020018260ff1660ff168152602001945050505050600060405180830381600087803b15156125ef57600080fd5b6102c65a03f1151561260057600080fd5b505050600960009054906101000a900473ffffffffffffffffffffffffffffffffffffffff1673ffffffffffffffffffffffffffffffffffffffff1663707b85278b60046040518363ffffffff167c0100000000000000000000000000000000000000000000000000000000028152600401808381526020018260ff16815260200192505050600060405180830381600087803b151561269f57600080fd5b6102c65a03f115156126b057600080fd5b505050600960009054906101000a900473ffffffffffffffffffffffffffffffffffffffff1673ffffffffffffffffffffffffffffffffffffffff1663e7030a676040518163ffffffff167c0100000000000000000000000000000000000000000000000000000000028152600401600060405180830381600087803b151561273857600080fd5b6102c65a03f1151561274957600080fd5b5050505b61296a565b600960009054906101000a900473ffffffffffffffffffffffffffffffffffffffff1673ffffffffffffffffffffffffffffffffffffffff1663cd25becd8b8b898a6040518563ffffffff167c0100000000000000000000000000000000000000000000000000000000028152600401808581526020018460ff1660ff1681526020018360ff1660ff1681526020018260ff1660ff168152602001945050505050600060405180830381600087803b151561280c57600080fd5b6102c65a03f1151561281d57600080fd5b505050600960009054906101000a900473ffffffffffffffffffffffffffffffffffffffff1673ffffffffffffffffffffffffffffffffffffffff1663707b85278b60056040518363ffffffff167c0100000000000000000000000000000000000000000000000000000000028152600401808381526020018260ff16815260200192505050600060405180830381600087803b15156128bc57600080fd5b6102c65a03f115156128cd57600080fd5b505050600960009054906101000a900473ffffffffffffffffffffffffffffffffffffffff1673ffffffffffffffffffffffffffffffffffffffff1663e7030a676040518163ffffffff167c0100000000000000000000000000000000000000000000000000000000028152600401600060405180830381600087803b151561295557600080fd5b6102c65a03f1151561296657600080fd5b5050505b505050505050505050505050565b826000806101000a81548173ffffffffffffffffffffffffffffffffffffffff021916908373ffffffffffffffffffffffffffffffffffffffff16021790555081600160006101000a81548173ffffffffffffffffffffffffffffffffffffffff021916908373ffffffffffffffffffffffffffffffffffffffff16021790555080600260006101000a81548173ffffffffffffffffffffffffffffffffffffffff021916908373ffffffffffffffffffffffffffffffffffffffff160217905550505050565b60008060008086600960006101000a81548173ffffffffffffffffffffffffffffffffffffffff021916908373ffffffffffffffffffffffffffffffffffffffff160217905550612b70600960009054906101000a900473ffffffffffffffffffffffffffffffffffffffff1673ffffffffffffffffffffffffffffffffffffffff16631b3b74f1336000604051602001526040518263ffffffff167c0100000000000000000000000000000000000000000000000000000000028152600401808273ffffffffffffffffffffffffffffffffffffffff1673ffffffffffffffffffffffffffffffffffffffff168152602001915050602060405180830381600087803b1515612b4e57600080fd5b6102c65a03f11515612b5f57600080fd5b505050604051805190506001612ef3565b9250612d17612c69612c62600960009054906101000a900473ffffffffffffffffffffffffffffffffffffffff1673ffffffffffffffffffffffffffffffffffffffff166335c42dbb336000604051602001526040518263ffffffff167c0100000000000000000000000000000000000000000000000000000000028152600401808273ffffffffffffffffffffffffffffffffffffffff1673ffffffffffffffffffffffffffffffffffffffff168152602001915050602060405180830381600087803b1515612c4057600080fd5b6102c65a03f11515612c5157600080fd5b505050604051805190506064612e9d565b6064612e9d565b600960009054906101000a900473ffffffffffffffffffffffffffffffffffffffff1673ffffffffffffffffffffffffffffffffffffffff1663a5d8ba896000604051602001526040518163ffffffff167c0100000000000000000000000000000000000000000000000000000000028152600401602060405180830381600087803b1515612cf757600080fd5b6102c65a03f11515612d0857600080fd5b50505060405180519050612ed8565b9150612dcb82600960009054906101000a900473ffffffffffffffffffffffffffffffffffffffff1673ffffffffffffffffffffffffffffffffffffffff166311aadbfb6000604051602001526040518163ffffffff167c0100000000000000000000000000000000000000000000000000000000028152600401602060405180830381600087803b1515612dab57600080fd5b6102c65a03f11515612dbc57600080fd5b50505060405180519050612ef3565b9050612e91612e82600960009054906101000a900473ffffffffffffffffffffffffffffffffffffffff1673ffffffffffffffffffffffffffffffffffffffff1663ad3208466000604051602001526040518163ffffffff167c0100000000000000000000000000000000000000000000000000000000028152600401602060405180830381600087803b1515612e6157600080fd5b6102c65a03f11515612e7257600080fd5b5050506040518051905085612e9d565b612e8c8784612e9d565b612e9d565b93505050509392505050565b6000806000841415612eb25760009150612ed1565b8284029050828482811515612ec357fe5b04141515612ecd57fe5b8091505b5092915050565b6000808284811515612ee657fe5b0490508091505092915050565b600081831015612f035781612f05565b825b905092915050565b6000808284019050838110151515612f2157fe5b80915050929150505600a165627a7a72305820aaee675dcee8c8bef19fe062bf04cab235eca4ba2794cd6cbefc5c23de9493aa0029",
  "source": "/* Copyright (C) 2017 GovBlocks.io\r\n\r\n  This program is free software: you can redistribute it and/or modify\r\n    it under the terms of the GNU General Public License as published by\r\n    the Free Software Foundation, either version 3 of the License, or\r\n    (at your option) any later version.\r\n\r\n  This program is distributed in the hope that it will be useful,\r\n    but WITHOUT ANY WARRANTY; without even the implied warranty of\r\n    MERCHANTABILITY or FITNESS FOR A PARTICULAR PURPOSE.  See the\r\n    GNU General Public License for more details.\r\n\r\n  You should have received a copy of the GNU General Public License\r\n    along with this program.  If not, see http://www.gnu.org/licenses/ */\r\n\r\n/**\r\n * @title Standard votingType interface for All Types of voting That contains All Common functions required for voting type.\r\n */\r\n\r\npragma solidity ^0.4.8;\r\nimport \"./SimpleVoting.sol\";\r\nimport \"./RankBasedVoting.sol\";\r\nimport \"./FeatureWeighted.sol\";\r\nimport \"./GovernanceData.sol\";\r\nimport \"./VotingType.sol\";\r\n\r\ncontract StandardVotingType\r\n{\r\n    address SVAddress;\r\n    address RBAddress;\r\n    address FWAddress;\r\n    address GDAddress;\r\n    address MRAddress;\r\n    address PCAddress;\r\n    address VTAddress;\r\n    MemberRoles MR;\r\n    ProposalCategory PC;\r\n    GovernanceData  GD;\r\n    MintableToken MT;\r\n    StandardVotingType SVT;\r\n    SimpleVoting SV;\r\n    RankBasedVoting RB;\r\n    FeatureWeighted FW;\r\n    VotingType VT;\r\n\r\n    function changeOtherContractAddress(address _SVaddress,address _RBaddress,address _FWaddress)\r\n    {\r\n        SVAddress = _SVaddress;\r\n        RBAddress = _RBaddress;\r\n        FWAddress = _FWaddress;\r\n    }\r\n    \r\n    function changeAllContractsAddress(address _GDcontractAddress, address _MRcontractAddress, address _PCcontractAddress) public\r\n    {\r\n        GDAddress = _GDcontractAddress;\r\n        MRAddress = _MRcontractAddress;\r\n        PCAddress = _PCcontractAddress;\r\n    }\r\n    \r\n    function setOptionValue_givenByMemberSVT(address GDAddress,uint _proposalId,uint _memberStake) internal returns (uint finalOptionValue)\r\n    {\r\n        GD=GovernanceData(GDAddress);\r\n        uint memberLevel = Math.max256(GD.getMemberReputation(msg.sender),1);\r\n        uint tokensHeld = SafeMath.div((SafeMath.mul(SafeMath.mul(GD.getBalanceOfMember(msg.sender),100),100)),GD.getTotalTokenInSupply());\r\n        uint maxValue= Math.max256(tokensHeld,GD.membershipScalingFactor());\r\n\r\n        finalOptionValue = SafeMath.mul(SafeMath.mul(GD.globalRiskFactor(),memberLevel),SafeMath.mul(_memberStake,maxValue));\r\n    }\r\n\r\n    function setVoteValue_givenByMember(address GBTAddress,uint _proposalId,uint _memberStake) public returns (uint finalVoteValue)\r\n    {\r\n        GD=GovernanceData(GDAddress);\r\n        MT=MintableToken(GBTAddress);\r\n        \r\n        if(_memberStake != 0)\r\n            MT.transferFrom(msg.sender,GBTAddress,_memberStake);\r\n\r\n        uint tokensHeld = SafeMath.div((SafeMath.mul(SafeMath.mul(GD.getBalanceOfMember(msg.sender),100),100)),GD.getTotalTokenInSupply());\r\n        uint value= SafeMath.mul(Math.max256(_memberStake,GD.scalingWeight()),Math.max256(tokensHeld,GD.membershipScalingFactor()));\r\n        finalVoteValue = SafeMath.mul(GD.getMemberReputation(msg.sender),value);\r\n    }  \r\n\r\n    function addVerdictOptionSVT(address _VTaddress,uint _proposalId,uint[] _paramInt,bytes32[] _paramBytes32,address[] _paramAddress,uint _GBTPayableTokenAmount)\r\n    {\r\n        VT=VotingType(_VTaddress);\r\n        GD=GovernanceData(GDAddress);\r\n        MR=MemberRoles(MRAddress);\r\n        PC=ProposalCategory(PCAddress);\r\n        \r\n        uint8 verdictOptions;\r\n        (,,,verdictOptions) = GD.getProposalCategoryParams(_proposalId);\r\n        uint _categoryId;uint currentVotingId;\r\n        (_categoryId,currentVotingId,,,) = GD.getProposalDetailsById2(_proposalId);\r\n\r\n        require(currentVotingId == 0 && GD.getProposalStatus(_proposalId) == 2 && GD.getBalanceOfMember(msg.sender) != 0);\r\n        require(MR.getMemberRoleIdByAddress(msg.sender) == PC.getRoleSequencAtIndex(_categoryId,currentVotingId) && VT.getVoteId_againstMember(msg.sender,_proposalId) == 0 );\r\n        \r\n        uint8 paramInt; uint8 paramBytes32; uint8 paramAddress;\r\n        (,,,paramInt,paramBytes32,paramAddress,,) = PC.getCategoryDetails(_categoryId);\r\n\r\n        if(paramInt == _paramInt.length && paramBytes32 == _paramBytes32.length && paramAddress == _paramAddress.length)\r\n        {\r\n            uint optionValue = setOptionValue_givenByMemberSVT(GD,_proposalId,_GBTPayableTokenAmount);\r\n            GD.setProposalVerdictAddressAndStakeValue(_proposalId,msg.sender,_GBTPayableTokenAmount,optionValue);\r\n            verdictOptions = verdictOptions+1;\r\n            GD.setProposalCategoryParams(_categoryId,_proposalId,_paramInt,_paramBytes32,_paramAddress,verdictOptions);\r\n        } \r\n    }\r\n\r\n    function closeProposalVoteSVT(address _VTaddress,uint _votingType,uint _proposalId)\r\n    {\r\n        GD=GovernanceData(GDAddress);\r\n        MR=MemberRoles(MRAddress);\r\n        PC=ProposalCategory(PCAddress);\r\n        SV=SimpleVoting(SVAddress);\r\n        RB=RankBasedVoting(RBAddress);\r\n        FW=FeatureWeighted(FWAddress);\r\n        VT=VotingType(_VTaddress);\r\n        \r\n        uint8 currentVotingId; uint8 category;\r\n        (category,currentVotingId,,,) = GD.getProposalDetailsById2(_proposalId);\r\n        uint8 verdictOptions;\r\n        (,,,verdictOptions) = GD.getProposalCategoryParams(_proposalId);\r\n    \r\n        require(GD.checkProposalVoteClosing(_proposalId)==1);\r\n        uint8 max; uint totalVotes; uint verdictVal; uint majorityVote;\r\n        uint roleId = MR.getMemberRoleIdByAddress(msg.sender);\r\n\r\n        max=0;  \r\n        for(uint8 i = 0; i < verdictOptions; i++)\r\n        {\r\n            totalVotes = SafeMath.add(totalVotes,VT.getVotesbyOption_againstProposal(_proposalId,roleId,i)); \r\n            if(VT.getVotesbyOption_againstProposal(_proposalId,roleId,max) < VT.getVotesbyOption_againstProposal(_proposalId,roleId,i))\r\n            {  \r\n                max = i; \r\n            }\r\n        }\r\n        verdictVal = VT.getVotesbyOption_againstProposal(_proposalId,roleId,max);\r\n        majorityVote= PC.getRoleMajorityVote(category,currentVotingId);\r\n       \r\n        if(SafeMath.div(SafeMath.mul(verdictVal,100),totalVotes)>=majorityVote)\r\n        {   \r\n            currentVotingId = currentVotingId+1;\r\n            if(max > 0 )\r\n            {\r\n                if(currentVotingId < PC.getRoleSequencLength(category))\r\n                {\r\n                    GD.updateProposalDetails(_proposalId,currentVotingId,max,0);\r\n                } \r\n                else\r\n                {\r\n                    GD.updateProposalDetails(_proposalId,currentVotingId,max,max);\r\n                    GD.changeProposalStatus(_proposalId,3);\r\n                    PC.actionAfterProposalPass(_proposalId ,category);\r\n                    if(_votingType == 0)\r\n                    {\r\n                        SV.giveReward_afterFinalDecision(_proposalId);\r\n                    }\r\n                    else if(_votingType == 1)\r\n                    {\r\n                        RB.giveReward_afterFinalDecision(_proposalId);\r\n                    } \r\n                    else\r\n                    {\r\n                        FW.giveReward_afterFinalDecision(_proposalId);\r\n                    }\r\n                }\r\n            }\r\n            else\r\n            {\r\n                GD.updateProposalDetails(_proposalId,currentVotingId,max,max);\r\n                GD.changeProposalStatus(_proposalId,4);\r\n                GD.changePendingProposalStart();\r\n            }      \r\n        } \r\n        else\r\n        {\r\n            GD.updateProposalDetails(_proposalId,currentVotingId,max,max);\r\n            GD.changeProposalStatus(_proposalId,5);\r\n            GD.changePendingProposalStart();\r\n        } \r\n    }\r\n}\r\n\r\n\r\n\r\n\r\n\r\n\r\n",
  "sourcePath": "D:\\2. GovBlocks Contracts\\GovBlocks Git-Master\\contracts\\StandardVotingType.sol",
  "compiler": {
    "name": "solc",
    "version": "0.4.18+commit.9cf6e910.Emscripten.clang"
  },
  "schemaVersion": "1.0.1",
  "updatedAt": "2018-01-12T07:00:38.905Z"
}