{
  "contractName": "StandardVotingType",
  "abi": [
    {
      "constant": false,
      "inputs": [
        {
          "name": "_proposalId",
          "type": "uint256"
        }
      ],
      "name": "closeProposalVoteSVT",
      "outputs": [],
      "payable": false,
      "stateMutability": "nonpayable",
      "type": "function"
    },
    {
      "constant": false,
      "inputs": [
        {
          "name": "contractName",
          "type": "bytes4"
        },
        {
          "name": "contractAddress",
          "type": "address"
        }
      ],
      "name": "changeAddress",
      "outputs": [],
      "payable": false,
      "stateMutability": "nonpayable",
      "type": "function"
    },
    {
      "constant": false,
      "inputs": [
        {
          "name": "_memberAddress",
          "type": "address"
        },
        {
          "name": "_proposalId",
          "type": "uint256"
        },
        {
          "name": "_memberStake",
          "type": "uint256"
        }
      ],
      "name": "setVoteValue_givenByMember",
      "outputs": [
        {
          "name": "finalVoteValue",
          "type": "uint256"
        }
      ],
      "payable": false,
      "stateMutability": "nonpayable",
      "type": "function"
    },
    {
      "constant": true,
      "inputs": [],
      "name": "masterAddress",
      "outputs": [
        {
          "name": "",
          "type": "address"
        }
      ],
      "payable": false,
      "stateMutability": "view",
      "type": "function"
    },
    {
      "constant": false,
      "inputs": [
        {
          "name": "_masterContractAddress",
          "type": "address"
        }
      ],
      "name": "changeMasterAddress",
      "outputs": [],
      "payable": false,
      "stateMutability": "nonpayable",
      "type": "function"
    },
    {
      "constant": false,
      "inputs": [
        {
          "name": "_GBTSAddress",
          "type": "address"
        }
      ],
      "name": "changeGBTSAddress",
      "outputs": [],
      "payable": false,
      "stateMutability": "nonpayable",
      "type": "function"
    }
  ],
  "bytecode": "0x6060604052341561000f57600080fd5b6136a58061001e6000396000f300606060405260043610610078576000357c0100000000000000000000000000000000000000000000000000000000900463ffffffff16806315d408701461007d57806367bf5d0c146100a0578063ceeb6f1b14610101578063d365a08e14610160578063d46655f4146101b5578063eecedcb0146101ee575b600080fd5b341561008857600080fd5b61009e6004808035906020019091905050610227565b005b34156100ab57600080fd5b6100ff60048080357bffffffffffffffffffffffffffffffffffffffffffffffffffffffff191690602001909190803573ffffffffffffffffffffffffffffffffffffffff16906020019091905050611223565b005b341561010c57600080fd5b61014a600480803573ffffffffffffffffffffffffffffffffffffffff1690602001909190803590602001909190803590602001909190505061163c565b6040518082815260200191505060405180910390f35b341561016b57600080fd5b610173611ba4565b604051808273ffffffffffffffffffffffffffffffffffffffff1673ffffffffffffffffffffffffffffffffffffffff16815260200191505060405180910390f35b34156101c057600080fd5b6101ec600480803573ffffffffffffffffffffffffffffffffffffffff16906020019091905050611bc9565b005b34156101f957600080fd5b610225600480803573ffffffffffffffffffffffffffffffffffffffff16906020019091905050611de6565b005b600080600080610235613665565b6000806000806000806000809054906101000a900473ffffffffffffffffffffffffffffffffffffffff16600460006101000a81548173ffffffffffffffffffffffffffffffffffffffff021916908373ffffffffffffffffffffffffffffffffffffffff16021790555060011515600460009054906101000a900473ffffffffffffffffffffffffffffffffffffffff1673ffffffffffffffffffffffffffffffffffffffff16638f16c41c336000604051602001526040518263ffffffff167c0100000000000000000000000000000000000000000000000000000000028152600401808273ffffffffffffffffffffffffffffffffffffffff1673ffffffffffffffffffffffffffffffffffffffff168152602001915050602060405180830381600087803b151561036957600080fd5b6102c65a03f1151561037a57600080fd5b50505060405180519050151514151561039257600080fd5b600960009054906101000a900473ffffffffffffffffffffffffffffffffffffffff1673ffffffffffffffffffffffffffffffffffffffff166373114d468d6000604051602001526040518263ffffffff167c010000000000000000000000000000000000000000000000000000000002815260040180828152602001915050602060405180830381600087803b151561042b57600080fd5b6102c65a03f1151561043c57600080fd5b50505060405180519050600a60006101000a81548173ffffffffffffffffffffffffffffffffffffffff021916908373ffffffffffffffffffffffffffffffffffffffff16021790555060009a50600960009054906101000a900473ffffffffffffffffffffffffffffffffffffffff1673ffffffffffffffffffffffffffffffffffffffff16637fd6e5108d6000604051602001526040518263ffffffff167c010000000000000000000000000000000000000000000000000000000002815260040180828152602001915050602060405180830381600087803b151561052357600080fd5b6102c65a03f1151561053457600080fd5b505050604051805190509950600960009054906101000a900473ffffffffffffffffffffffffffffffffffffffff1673ffffffffffffffffffffffffffffffffffffffff16632cd739438d6000604051602001526040518263ffffffff167c010000000000000000000000000000000000000000000000000000000002815260040180828152602001915050602060405180830381600087803b15156105d957600080fd5b6102c65a03f115156105ea57600080fd5b505050604051805190509850600860009054906101000a900473ffffffffffffffffffffffffffffffffffffffff1673ffffffffffffffffffffffffffffffffffffffff16639deeab208b8b6000604051602001526040518363ffffffff167c0100000000000000000000000000000000000000000000000000000000028152600401808360ff1681526020018260ff16815260200192505050602060405180830381600087803b151561069d57600080fd5b6102c65a03f115156106ae57600080fd5b5050506040518051905097506001600660009054906101000a900473ffffffffffffffffffffffffffffffffffffffff1673ffffffffffffffffffffffffffffffffffffffff16634c33e67b8e8b6000604051602001526040518363ffffffff167c0100000000000000000000000000000000000000000000000000000000028152600401808381526020018263ffffffff1663ffffffff16815260200192505050602060405180830381600087803b151561076957600080fd5b6102c65a03f1151561077a57600080fd5b5050506040518051905060ff1614151561079357600080fd5b600960009054906101000a900473ffffffffffffffffffffffffffffffffffffffff1673ffffffffffffffffffffffffffffffffffffffff1663f351df058d6000604051602001526040518263ffffffff167c010000000000000000000000000000000000000000000000000000000002815260040180828152602001915050602060405180830381600087803b151561082c57600080fd5b6102c65a03f1151561083d57600080fd5b505050604051805190506040518059106108545750595b90808252806020026020018201604052509650600095505b600960009054906101000a900473ffffffffffffffffffffffffffffffffffffffff1673ffffffffffffffffffffffffffffffffffffffff1663296569cf8d8a6000604051602001526040518363ffffffff167c0100000000000000000000000000000000000000000000000000000000028152600401808381526020018263ffffffff16815260200192505050602060405180830381600087803b151561091357600080fd5b6102c65a03f1151561092457600080fd5b505050604051805190508660ff161015610bc357600960009054906101000a900473ffffffffffffffffffffffffffffffffffffffff1673ffffffffffffffffffffffffffffffffffffffff166318ff42528d8a896000604051602001526040518463ffffffff167c0100000000000000000000000000000000000000000000000000000000028152600401808481526020018363ffffffff1681526020018260ff1681526020019350505050602060405180830381600087803b15156109ea57600080fd5b6102c65a03f115156109fb57600080fd5b505050604051805190509450600960009054906101000a900473ffffffffffffffffffffffffffffffffffffffff1673ffffffffffffffffffffffffffffffffffffffff1663b068892186600080604051602001526040518363ffffffff167c01000000000000000000000000000000000000000000000000000000000281526004018083815260200182815260200192505050602060405180830381600087803b1515610aa857600080fd5b6102c65a03f11515610ab957600080fd5b505050604051805190509350600960009054906101000a900473ffffffffffffffffffffffffffffffffffffffff1673ffffffffffffffffffffffffffffffffffffffff16633ee9363b866000604051602001526040518263ffffffff167c010000000000000000000000000000000000000000000000000000000002815260040180828152602001915050602060405180830381600087803b1515610b5e57600080fd5b6102c65a03f11515610b6f57600080fd5b505050604051805190509250828b019a50828785815181101515610b8f57fe5b90602001906020020151018785815181101515610ba857fe5b9060200190602002018181525050858060010196505061086c565b60009150600095505b86518660ff161015610c2557868660ff16815181101515610be957fe5b90602001906020020151878360ff16815181101515610c0457fe5b906020019060200201511015610c18578591505b8580600101965050610bcc565b60011515610c338d8a611e85565b15151415610c6757610c62878360ff16815181101515610c4f57fe5b906020019060200201518c8c8f8661275c565b611215565b600960009054906101000a900473ffffffffffffffffffffffffffffffffffffffff1673ffffffffffffffffffffffffffffffffffffffff1663e1bd42748d6000604051602001526040518263ffffffff167c010000000000000000000000000000000000000000000000000000000002815260040180828152602001915050602060405180830381600087803b1515610d0057600080fd5b6102c65a03f11515610d1157600080fd5b505050604051805190509050600660009054906101000a900473ffffffffffffffffffffffffffffffffffffffff1673ffffffffffffffffffffffffffffffffffffffff1663cd25becd8d8b85856040518563ffffffff167c0100000000000000000000000000000000000000000000000000000000028152600401808581526020018460ff1660ff1681526020018360ff1660ff1681526020018260ff1660ff168152602001945050505050600060405180830381600087803b1515610dd757600080fd5b6102c65a03f11515610de857600080fd5b505050600860009054906101000a900473ffffffffffffffffffffffffffffffffffffffff1673ffffffffffffffffffffffffffffffffffffffff166318b0211b600960009054906101000a900473ffffffffffffffffffffffffffffffffffffffff1673ffffffffffffffffffffffffffffffffffffffff16637fd6e5108f6000604051602001526040518263ffffffff167c010000000000000000000000000000000000000000000000000000000002815260040180828152602001915050602060405180830381600087803b1515610ec257600080fd5b6102c65a03f11515610ed357600080fd5b505050604051805190506000604051602001526040518263ffffffff167c0100000000000000000000000000000000000000000000000000000000028152600401808260ff168152602001915050602060405180830381600087803b1515610f3a57600080fd5b6102c65a03f11515610f4b57600080fd5b505050604051805190506001600960009054906101000a900473ffffffffffffffffffffffffffffffffffffffff1673ffffffffffffffffffffffffffffffffffffffff16632cd739438f6000604051602001526040518263ffffffff167c010000000000000000000000000000000000000000000000000000000002815260040180828152602001915050602060405180830381600087803b1515610ff057600080fd5b6102c65a03f1151561100157600080fd5b505050604051805190500160ff1610156110ca57600960009054906101000a900473ffffffffffffffffffffffffffffffffffffffff1673ffffffffffffffffffffffffffffffffffffffff1663707b85278d60076040518363ffffffff167c0100000000000000000000000000000000000000000000000000000000028152600401808381526020018260ff16815260200192505050600060405180830381600087803b15156110b157600080fd5b6102c65a03f115156110c257600080fd5b50505061117b565b600960009054906101000a900473ffffffffffffffffffffffffffffffffffffffff1673ffffffffffffffffffffffffffffffffffffffff1663707b85278d60066040518363ffffffff167c0100000000000000000000000000000000000000000000000000000000028152600401808381526020018260ff16815260200192505050600060405180830381600087803b151561116657600080fd5b6102c65a03f1151561117757600080fd5b5050505b600660009054906101000a900473ffffffffffffffffffffffffffffffffffffffff1673ffffffffffffffffffffffffffffffffffffffff1663e7030a676040518163ffffffff167c0100000000000000000000000000000000000000000000000000000000028152600401600060405180830381600087803b151561120057600080fd5b6102c65a03f1151561121157600080fd5b5050505b505050505050505050505050565b6000809054906101000a900473ffffffffffffffffffffffffffffffffffffffff16600460006101000a81548173ffffffffffffffffffffffffffffffffffffffff021916908373ffffffffffffffffffffffffffffffffffffffff16021790555060011515600460009054906101000a900473ffffffffffffffffffffffffffffffffffffffff1673ffffffffffffffffffffffffffffffffffffffff16638f16c41c336000604051602001526040518263ffffffff167c0100000000000000000000000000000000000000000000000000000000028152600401808273ffffffffffffffffffffffffffffffffffffffff1673ffffffffffffffffffffffffffffffffffffffff168152602001915050602060405180830381600087803b151561134e57600080fd5b6102c65a03f1151561135f57600080fd5b50505060405180519050151514151561137757600080fd5b7f4744000000000000000000000000000000000000000000000000000000000000827bffffffffffffffffffffffffffffffffffffffffffffffffffffffff191614156114045780600960006101000a81548173ffffffffffffffffffffffffffffffffffffffff021916908373ffffffffffffffffffffffffffffffffffffffff160217905550611638565b7f4d52000000000000000000000000000000000000000000000000000000000000827bffffffffffffffffffffffffffffffffffffffffffffffffffffffff191614156114915780600760006101000a81548173ffffffffffffffffffffffffffffffffffffffff021916908373ffffffffffffffffffffffffffffffffffffffff160217905550611637565b7f5043000000000000000000000000000000000000000000000000000000000000827bffffffffffffffffffffffffffffffffffffffffffffffffffffffff1916141561151e5780600860006101000a81548173ffffffffffffffffffffffffffffffffffffffff021916908373ffffffffffffffffffffffffffffffffffffffff160217905550611636565b7f4756000000000000000000000000000000000000000000000000000000000000827bffffffffffffffffffffffffffffffffffffffffffffffffffffffff191614156115ab5780600660006101000a81548173ffffffffffffffffffffffffffffffffffffffff021916908373ffffffffffffffffffffffffffffffffffffffff160217905550611635565b7f504c000000000000000000000000000000000000000000000000000000000000827bffffffffffffffffffffffffffffffffffffffffffffffffffffffff191614156116345780600560006101000a81548173ffffffffffffffffffffffffffffffffffffffff021916908373ffffffffffffffffffffffffffffffffffffffff1602179055505b5b5b5b5b5050565b60008060008060009054906101000a900473ffffffffffffffffffffffffffffffffffffffff16600460006101000a81548173ffffffffffffffffffffffffffffffffffffffff021916908373ffffffffffffffffffffffffffffffffffffffff16021790555060011515600460009054906101000a900473ffffffffffffffffffffffffffffffffffffffff1673ffffffffffffffffffffffffffffffffffffffff16638f16c41c336000604051602001526040518263ffffffff167c0100000000000000000000000000000000000000000000000000000000028152600401808273ffffffffffffffffffffffffffffffffffffffff1673ffffffffffffffffffffffffffffffffffffffff168152602001915050602060405180830381600087803b151561176c57600080fd5b6102c65a03f1151561177d57600080fd5b50505060405180519050151514151561179557600080fd5b61193a61188c611885600360009054906101000a900473ffffffffffffffffffffffffffffffffffffffff1673ffffffffffffffffffffffffffffffffffffffff166370a082318a6000604051602001526040518263ffffffff167c0100000000000000000000000000000000000000000000000000000000028152600401808273ffffffffffffffffffffffffffffffffffffffff1673ffffffffffffffffffffffffffffffffffffffff168152602001915050602060405180830381600087803b151561186357600080fd5b6102c65a03f1151561187457600080fd5b5050506040518051905060646135f5565b60646135f5565b600360009054906101000a900473ffffffffffffffffffffffffffffffffffffffff1673ffffffffffffffffffffffffffffffffffffffff166318160ddd6000604051602001526040518163ffffffff167c0100000000000000000000000000000000000000000000000000000000028152600401602060405180830381600087803b151561191a57600080fd5b6102c65a03f1151561192b57600080fd5b50505060405180519050613630565b9150611aa86119f185600960009054906101000a900473ffffffffffffffffffffffffffffffffffffffff1673ffffffffffffffffffffffffffffffffffffffff166393e4a4f56000604051602001526040518163ffffffff167c0100000000000000000000000000000000000000000000000000000000028152600401602060405180830381600087803b15156119d157600080fd5b6102c65a03f115156119e257600080fd5b5050506040518051905061364b565b611aa384600960009054906101000a900473ffffffffffffffffffffffffffffffffffffffff1673ffffffffffffffffffffffffffffffffffffffff166311aadbfb6000604051602001526040518163ffffffff167c0100000000000000000000000000000000000000000000000000000000028152600401602060405180830381600087803b1515611a8357600080fd5b6102c65a03f11515611a9457600080fd5b5050506040518051905061364b565b6135f5565b9050611b99600960009054906101000a900473ffffffffffffffffffffffffffffffffffffffff1673ffffffffffffffffffffffffffffffffffffffff16631b3b74f1886000604051602001526040518263ffffffff167c0100000000000000000000000000000000000000000000000000000000028152600401808273ffffffffffffffffffffffffffffffffffffffff1673ffffffffffffffffffffffffffffffffffffffff168152602001915050602060405180830381600087803b1515611b7257600080fd5b6102c65a03f11515611b8357600080fd5b5050506040518051905063ffffffff16826135f5565b925050509392505050565b6000809054906101000a900473ffffffffffffffffffffffffffffffffffffffff1681565b60008060009054906101000a900473ffffffffffffffffffffffffffffffffffffffff1673ffffffffffffffffffffffffffffffffffffffff161415611c4e57806000806101000a81548173ffffffffffffffffffffffffffffffffffffffff021916908373ffffffffffffffffffffffffffffffffffffffff160217905550611de3565b6000809054906101000a900473ffffffffffffffffffffffffffffffffffffffff16600460006101000a81548173ffffffffffffffffffffffffffffffffffffffff021916908373ffffffffffffffffffffffffffffffffffffffff16021790555060011515600460009054906101000a900473ffffffffffffffffffffffffffffffffffffffff1673ffffffffffffffffffffffffffffffffffffffff16638f16c41c336000604051602001526040518263ffffffff167c0100000000000000000000000000000000000000000000000000000000028152600401808273ffffffffffffffffffffffffffffffffffffffff1673ffffffffffffffffffffffffffffffffffffffff168152602001915050602060405180830381600087803b1515611d7957600080fd5b6102c65a03f11515611d8a57600080fd5b505050604051805190501515141515611da257600080fd5b806000806101000a81548173ffffffffffffffffffffffffffffffffffffffff021916908373ffffffffffffffffffffffffffffffffffffffff1602179055505b50565b6000809054906101000a900473ffffffffffffffffffffffffffffffffffffffff1673ffffffffffffffffffffffffffffffffffffffff163373ffffffffffffffffffffffffffffffffffffffff16141515611e4157600080fd5b80600360006101000a81548173ffffffffffffffffffffffffffffffffffffffff021916908373ffffffffffffffffffffffffffffffffffffffff16021790555050565b600080600080600080600060028863ffffffff16141561250457600160009054906101000a900473ffffffffffffffffffffffffffffffffffffffff1673ffffffffffffffffffffffffffffffffffffffff1663597336e8600460009054906101000a900473ffffffffffffffffffffffffffffffffffffffff1673ffffffffffffffffffffffffffffffffffffffff166306ecf8846000604051602001526040518163ffffffff167c0100000000000000000000000000000000000000000000000000000000028152600401602060405180830381600087803b1515611f6b57600080fd5b6102c65a03f11515611f7c57600080fd5b505050604051805190506000604051602001526040518263ffffffff167c0100000000000000000000000000000000000000000000000000000000028152600401808260001916600019168152602001915050602060405180830381600087803b1515611fe857600080fd5b6102c65a03f11515611ff957600080fd5b50505060405180519050945084600260006101000a81548173ffffffffffffffffffffffffffffffffffffffff021916908373ffffffffffffffffffffffffffffffffffffffff160217905550600092505b600960009054906101000a900473ffffffffffffffffffffffffffffffffffffffff1673ffffffffffffffffffffffffffffffffffffffff1663296569cf8a8a6000604051602001526040518363ffffffff167c0100000000000000000000000000000000000000000000000000000000028152600401808381526020018263ffffffff16815260200192505050602060405180830381600087803b15156120f257600080fd5b6102c65a03f1151561210357600080fd5b505050604051805190508360ff16101561238d57600960009054906101000a900473ffffffffffffffffffffffffffffffffffffffff1673ffffffffffffffffffffffffffffffffffffffff166318ff42528a8a866000604051602001526040518463ffffffff167c0100000000000000000000000000000000000000000000000000000000028152600401808481526020018363ffffffff1681526020018260ff1681526020019350505050602060405180830381600087803b15156121c957600080fd5b6102c65a03f115156121da57600080fd5b505050604051805190509150600960009054906101000a900473ffffffffffffffffffffffffffffffffffffffff1673ffffffffffffffffffffffffffffffffffffffff1663d83b2c05836000604051602001526040518263ffffffff167c010000000000000000000000000000000000000000000000000000000002815260040180828152602001915050602060405180830381600087803b151561227f57600080fd5b6102c65a03f1151561229057600080fd5b505050604051805190509050600260009054906101000a900473ffffffffffffffffffffffffffffffffffffffff1673ffffffffffffffffffffffffffffffffffffffff166370a08231826000604051602001526040518263ffffffff167c0100000000000000000000000000000000000000000000000000000000028152600401808273ffffffffffffffffffffffffffffffffffffffff1673ffffffffffffffffffffffffffffffffffffffff168152602001915050602060405180830381600087803b151561236157600080fd5b6102c65a03f1151561237257600080fd5b5050506040518051905084019350828060010193505061204b565b600260009054906101000a900473ffffffffffffffffffffffffffffffffffffffff1673ffffffffffffffffffffffffffffffffffffffff166318160ddd6000604051602001526040518163ffffffff167c0100000000000000000000000000000000000000000000000000000000028152600401602060405180830381600087803b151561241b57600080fd5b6102c65a03f1151561242c57600080fd5b505050604051805190506064850281151561244357fe5b049550600960009054906101000a900473ffffffffffffffffffffffffffffffffffffffff1673ffffffffffffffffffffffffffffffffffffffff16634fa76ec96000604051602001526040518163ffffffff167c0100000000000000000000000000000000000000000000000000000000028152600401602060405180830381600087803b15156124d457600080fd5b6102c65a03f115156124e557600080fd5b505050604051805190508611156124ff5760019650612750565b61274f565b600760009054906101000a900473ffffffffffffffffffffffffffffffffffffffff1673ffffffffffffffffffffffffffffffffffffffff166353aaf8b4896000604051602001526040518263ffffffff167c0100000000000000000000000000000000000000000000000000000000028152600401808263ffffffff1663ffffffff168152602001915050602060405180830381600087803b15156125a957600080fd5b6102c65a03f115156125ba57600080fd5b505050604051805190506064600960009054906101000a900473ffffffffffffffffffffffffffffffffffffffff1673ffffffffffffffffffffffffffffffffffffffff1663296569cf8c8c6000604051602001526040518363ffffffff167c0100000000000000000000000000000000000000000000000000000000028152600401808381526020018263ffffffff16815260200192505050602060405180830381600087803b151561266d57600080fd5b6102c65a03f1151561267e57600080fd5b505050604051805190500281151561269257fe5b049550600960009054906101000a900473ffffffffffffffffffffffffffffffffffffffff1673ffffffffffffffffffffffffffffffffffffffff16634fa76ec96000604051602001526040518163ffffffff167c0100000000000000000000000000000000000000000000000000000000028152600401602060405180830381600087803b151561272357600080fd5b6102c65a03f1151561273457600080fd5b5050506040518051905086111561274e5760019650612750565b5b5b50505050505092915050565b6000806000600960009054906101000a900473ffffffffffffffffffffffffffffffffffffffff1673ffffffffffffffffffffffffffffffffffffffff16632cd73943866000604051602001526040518263ffffffff167c010000000000000000000000000000000000000000000000000000000002815260040180828152602001915050602060405180830381600087803b15156127fa57600080fd5b6102c65a03f1151561280b57600080fd5b505050604051805190509050600860009054906101000a900473ffffffffffffffffffffffffffffffffffffffff1673ffffffffffffffffffffffffffffffffffffffff1663f28395d687836000604051606001526040518363ffffffff167c0100000000000000000000000000000000000000000000000000000000028152600401808360ff1681526020018260ff16815260200192505050606060405180830381600087803b15156128be57600080fd5b6102c65a03f115156128cf57600080fd5b505050604051805190602001805190602001805190509091508093508194505050816129056128ff8a60646135f5565b89613630565b1015156133205760008460ff16111561305f57600181019050600860009054906101000a900473ffffffffffffffffffffffffffffffffffffffff1673ffffffffffffffffffffffffffffffffffffffff166318b0211b600960009054906101000a900473ffffffffffffffffffffffffffffffffffffffff1673ffffffffffffffffffffffffffffffffffffffff16637fd6e510886000604051602001526040518263ffffffff167c010000000000000000000000000000000000000000000000000000000002815260040180828152602001915050602060405180830381600087803b15156129f557600080fd5b6102c65a03f11515612a0657600080fd5b505050604051805190506000604051602001526040518263ffffffff167c0100000000000000000000000000000000000000000000000000000000028152600401808260ff168152602001915050602060405180830381600087803b1515612a6d57600080fd5b6102c65a03f11515612a7e57600080fd5b505050604051805190508160ff161015612e3757600660009054906101000a900473ffffffffffffffffffffffffffffffffffffffff1673ffffffffffffffffffffffffffffffffffffffff1663cd25becd86838760006040518563ffffffff167c0100000000000000000000000000000000000000000000000000000000028152600401808581526020018460ff1660ff1681526020018360ff1660ff1681526020018260ff168152602001945050505050600060405180830381600087803b1515612b4a57600080fd5b6102c65a03f11515612b5b57600080fd5b505050600560009054906101000a900473ffffffffffffffffffffffffffffffffffffffff1673ffffffffffffffffffffffffffffffffffffffff166336e7535f86856040518363ffffffff167c01000000000000000000000000000000000000000000000000000000000281526004018083815260200182815260200192505050600060405180830381600087803b1515612bf657600080fd5b6102c65a03f11515612c0757600080fd5b505050600960009054906101000a900473ffffffffffffffffffffffffffffffffffffffff1673ffffffffffffffffffffffffffffffffffffffff16635d3bb56a86600960009054906101000a900473ffffffffffffffffffffffffffffffffffffffff1673ffffffffffffffffffffffffffffffffffffffff1663e3726e80896000604051602001526040518263ffffffff167c010000000000000000000000000000000000000000000000000000000002815260040180828152602001915050602060405180830381600087803b1515612ce257600080fd5b6102c65a03f11515612cf357600080fd5b50505060405180519050600860009054906101000a900473ffffffffffffffffffffffffffffffffffffffff1673ffffffffffffffffffffffffffffffffffffffff16631a10a6158b876000604051602001526040518363ffffffff167c0100000000000000000000000000000000000000000000000000000000028152600401808360ff1681526020018260ff16815260200192505050602060405180830381600087803b1515612da457600080fd5b6102c65a03f11515612db557600080fd5b505050604051805190506040518463ffffffff167c0100000000000000000000000000000000000000000000000000000000028152600401808481526020018381526020018281526020019350505050600060405180830381600087803b1515612e1e57600080fd5b6102c65a03f11515612e2f57600080fd5b50505061305a565b600660009054906101000a900473ffffffffffffffffffffffffffffffffffffffff1673ffffffffffffffffffffffffffffffffffffffff1663cd25becd868387886040518563ffffffff167c0100000000000000000000000000000000000000000000000000000000028152600401808581526020018460ff1660ff1681526020018360ff1660ff1681526020018260ff1660ff168152602001945050505050600060405180830381600087803b1515612ef157600080fd5b6102c65a03f11515612f0257600080fd5b505050600960009054906101000a900473ffffffffffffffffffffffffffffffffffffffff1673ffffffffffffffffffffffffffffffffffffffff1663707b85278660036040518363ffffffff167c0100000000000000000000000000000000000000000000000000000000028152600401808381526020018260ff16815260200192505050600060405180830381600087803b1515612fa157600080fd5b6102c65a03f11515612fb257600080fd5b505050600a60009054906101000a900473ffffffffffffffffffffffffffffffffffffffff1673ffffffffffffffffffffffffffffffffffffffff16630a256ae1866040518263ffffffff167c010000000000000000000000000000000000000000000000000000000002815260040180828152602001915050600060405180830381600087803b151561304557600080fd5b6102c65a03f1151561305657600080fd5b5050505b61331b565b600660009054906101000a900473ffffffffffffffffffffffffffffffffffffffff1673ffffffffffffffffffffffffffffffffffffffff1663cd25becd868387886040518563ffffffff167c0100000000000000000000000000000000000000000000000000000000028152600401808581526020018460ff1660ff1681526020018360ff1660ff1681526020018260ff1660ff168152602001945050505050600060405180830381600087803b151561311957600080fd5b6102c65a03f1151561312a57600080fd5b505050600960009054906101000a900473ffffffffffffffffffffffffffffffffffffffff1673ffffffffffffffffffffffffffffffffffffffff1663707b85278660046040518363ffffffff167c0100000000000000000000000000000000000000000000000000000000028152600401808381526020018260ff16815260200192505050600060405180830381600087803b15156131c957600080fd5b6102c65a03f115156131da57600080fd5b505050600a60009054906101000a900473ffffffffffffffffffffffffffffffffffffffff1673ffffffffffffffffffffffffffffffffffffffff16630a256ae1866040518263ffffffff167c010000000000000000000000000000000000000000000000000000000002815260040180828152602001915050600060405180830381600087803b151561326d57600080fd5b6102c65a03f1151561327e57600080fd5b505050600660009054906101000a900473ffffffffffffffffffffffffffffffffffffffff1673ffffffffffffffffffffffffffffffffffffffff1663e7030a676040518163ffffffff167c0100000000000000000000000000000000000000000000000000000000028152600401600060405180830381600087803b151561330657600080fd5b6102c65a03f1151561331757600080fd5b5050505b6135eb565b600660009054906101000a900473ffffffffffffffffffffffffffffffffffffffff1673ffffffffffffffffffffffffffffffffffffffff1663cd25becd868387600960009054906101000a900473ffffffffffffffffffffffffffffffffffffffff1673ffffffffffffffffffffffffffffffffffffffff1663e1bd42748b6000604051602001526040518263ffffffff167c010000000000000000000000000000000000000000000000000000000002815260040180828152602001915050602060405180830381600087803b15156133fa57600080fd5b6102c65a03f1151561340b57600080fd5b505050604051805190506040518563ffffffff167c0100000000000000000000000000000000000000000000000000000000028152600401808581526020018460ff1660ff1681526020018360ff1660ff1681526020018260ff1660ff168152602001945050505050600060405180830381600087803b151561348d57600080fd5b6102c65a03f1151561349e57600080fd5b505050600960009054906101000a900473ffffffffffffffffffffffffffffffffffffffff1673ffffffffffffffffffffffffffffffffffffffff1663707b85278660056040518363ffffffff167c0100000000000000000000000000000000000000000000000000000000028152600401808381526020018260ff16815260200192505050600060405180830381600087803b151561353d57600080fd5b6102c65a03f1151561354e57600080fd5b505050600660009054906101000a900473ffffffffffffffffffffffffffffffffffffffff1673ffffffffffffffffffffffffffffffffffffffff1663e7030a676040518163ffffffff167c0100000000000000000000000000000000000000000000000000000000028152600401600060405180830381600087803b15156135d657600080fd5b6102c65a03f115156135e757600080fd5b5050505b5050505050505050565b600080600084141561360a5760009150613629565b828402905082848281151561361b57fe5b0414151561362557fe5b8091505b5092915050565b600080828481151561363e57fe5b0490508091505092915050565b60008183101561365b578161365d565b825b905092915050565b6020604051908101604052806000815250905600a165627a7a72305820fa002b82dd545cb6125c11b637d5c41604b932f31dc4691cf7872defe056ca390029",
  "source": "/* Copyright (C) 2017 GovBlocks.io\r\n\r\n  This program is free software: you can redistribute it and/or modify\r\n    it under the terms of the GNU General Public License as published by\r\n    the Free Software Foundation, either version 3 of the License, or\r\n    (at your option) any later version.\r\n\r\n  This program is distributed in the hope that it will be useful,\r\n    but WITHOUT ANY WARRANTY; without even the implied warranty of\r\n    MERCHANTABILITY or FITNESS FOR A PARTICULAR PURPOSE.  See the\r\n    GNU General Public License for more details.\r\n\r\n  You should have received a copy of the GNU General Public License\r\n    along with this program.  If not, see http://www.gnu.org/licenses/ */\r\n\r\n/**\r\n * @title votingType interface for All Types of voting.\r\n */\r\n\r\npragma solidity ^0.4.8;\r\n\r\nimport \"./ProposalCategory.sol\";\r\nimport \"./governanceData.sol\";\r\nimport \"./VotingType.sol\";\r\nimport \"./Pool.sol\";\r\nimport \"./Master.sol\";\r\nimport \"./Governance.sol\";\r\nimport \"./memberRoles.sol\";\r\nimport \"./GBTStandardToken.sol\";\r\nimport \"./BasicToken.sol\";\r\nimport \"./GovBlocksMaster.sol\";\r\n\r\n\r\ncontract StandardVotingType\r\n{\r\n    address public masterAddress;\r\n    GovBlocksMaster GBM;\r\n    BasicToken BT;\r\n    GBTStandardToken GBTS;\r\n    Master MS;\r\n    Pool P1;\r\n    Governance GOV;\r\n    memberRoles MR;\r\n    ProposalCategory PC;\r\n    governanceData  GD;\r\n    VotingType VT;\r\n\r\n    modifier onlyInternal {\r\n        MS=Master(masterAddress);\r\n        require(MS.isInternal(msg.sender) == true);\r\n        _; \r\n    }\r\n\r\n    /// @dev Changes master's contract address\r\n    /// @param _masterContractAddress New master contract address\r\n    function changeMasterAddress(address _masterContractAddress)\r\n    {\r\n        if(masterAddress == 0x000)\r\n            masterAddress = _masterContractAddress;\r\n        else\r\n        {\r\n            MS=Master(masterAddress);\r\n            require(MS.isInternal(msg.sender) == true);\r\n                masterAddress = _masterContractAddress;\r\n        }\r\n    }\r\n\r\n    modifier onlyMaster\r\n    {\r\n        require(msg.sender == masterAddress);\r\n        _;\r\n    }\r\n    \r\n    // function changeOtherContractAddress(bytes4 _contractName) onlyInternal \r\n    // {\r\n    //     SVAddress = _SVaddress;\r\n    //     RBAddress = _RBaddress;\r\n    //     FWAddress = _FWaddress;\r\n    // }\r\n\r\n    // function changeAllContractsAddress(address _GDcontractAddress, address _MRcontractAddress, address _PCcontractAddress,address _governanceContractAddress,address _poolContractAddress) onlyInternal \r\n    // {\r\n    //     GDAddress = _GDcontractAddress;\r\n    //     MRAddress = _MRcontractAddress;\r\n    //     PCAddress = _PCcontractAddress;\r\n    //     G1Address = _governanceContractAddress;\r\n    //     P1Address = _poolContractAddress;\r\n    // }\r\n\r\n    /// @dev Changes Global objects of the contracts || Uses latest version\r\n    /// @param contractName Contract name \r\n    /// @param contractAddress Contract addresses\r\n    function changeAddress(bytes4 contractName, address contractAddress) onlyInternal\r\n    {\r\n        if(contractName == 'GD'){\r\n            GD = governanceData(contractAddress);\r\n        } else if(contractName == 'MR'){\r\n            MR = memberRoles(contractAddress);\r\n        } else if(contractName == 'PC'){\r\n            PC = ProposalCategory(contractAddress);\r\n        } else if(contractName == 'GV'){\r\n            GOV = Governance(contractAddress);\r\n        } else if(contractName == 'PL'){\r\n            P1 = Pool(contractAddress);\r\n        }\r\n    }\r\n\r\n    /// @dev Changes GBT standard token address\r\n    /// @param _GBTSAddress GBT standard token address\r\n    function changeGBTSAddress(address _GBTSAddress) onlyMaster\r\n    {\r\n        GBTS = GBTStandardToken(_GBTSAddress);\r\n    }\r\n\r\n    /// @dev Sets vote value given by member\r\n    /// @param _memberAddress Member address\r\n    /// @param _proposalId Proposal id\r\n    /// @param _memberStake Member stake\r\n    /// @return finalVoteValue Final vote value\r\n    function setVoteValue_givenByMember(address _memberAddress,uint _proposalId,uint _memberStake) onlyInternal returns (uint finalVoteValue)\r\n    {\r\n        uint tokensHeld = SafeMath.div((SafeMath.mul(SafeMath.mul(GBTS.balanceOf(_memberAddress),100),100)),GBTS.totalSupply());\r\n        uint value= SafeMath.mul(Math.max256(_memberStake,GD.scalingWeight()),Math.max256(tokensHeld,GD.membershipScalingFactor()));\r\n        finalVoteValue = SafeMath.mul(GD.getMemberReputation(_memberAddress),value);\r\n    }  \r\n    \r\n    /// @dev Closes Proposal Voting after All voting layers done with voting or Time out happens.\r\n    /// @param _proposalId Proposal id\r\n    function closeProposalVoteSVT(uint _proposalId) onlyInternal\r\n    {   \r\n        VT=VotingType(GD.getProposalVotingType(_proposalId)); \r\n        uint totalVoteValue=0; uint8 category = GD.getProposalCategory(_proposalId);\r\n        uint8 currentVotingId =GD.getProposalCurrentVotingId(_proposalId);\r\n        uint32 _mrSequenceId = PC.getRoleSequencAtIndex(category,currentVotingId);\r\n        require(GOV.checkProposalVoteClosing(_proposalId,_mrSequenceId)==1); //1\r\n        \r\n        uint[] memory finalVoteValue = new uint[](GD.getTotalSolutions(_proposalId)); \r\n        for(uint8 i=0; i<GD.getAllVoteIdsLength_byProposalRole(_proposalId,_mrSequenceId); i++)\r\n        {\r\n            uint voteId = GD.getVoteId_againstProposalRole(_proposalId,_mrSequenceId,i);\r\n            uint solutionChosen = GD.getSolutionByVoteIdAndIndex(voteId,0);\r\n            uint voteValue = GD.getVoteValue(voteId);\r\n            totalVoteValue = totalVoteValue + voteValue;\r\n            finalVoteValue[solutionChosen] = finalVoteValue[solutionChosen] + voteValue;\r\n        }\r\n\r\n        uint8 max=0;  \r\n        for(i = 0; i < finalVoteValue.length; i++)\r\n        {\r\n            if(finalVoteValue[max] < finalVoteValue[i])\r\n            {  \r\n                max = i; \r\n            }\r\n        }\r\n        \r\n        if(checkForThreshold(_proposalId,_mrSequenceId) == true)\r\n        {\r\n            closeProposalVoteSVT1(finalVoteValue[max],totalVoteValue,category,_proposalId,max);\r\n        }   \r\n        else\r\n        {\r\n            uint8 interVerdict = GD.getProposalIntermediateVerdict(_proposalId);\r\n\r\n            GOV.updateProposalDetails(_proposalId,currentVotingId,max,interVerdict);\r\n            if(GD.getProposalCurrentVotingId(_proposalId)+1 < PC.getRoleSequencLength(GD.getProposalCategory(_proposalId)))\r\n                GD.changeProposalStatus(_proposalId,7);\r\n            else\r\n                GD.changeProposalStatus(_proposalId,6);\r\n            GOV.changePendingProposalStart();\r\n        }\r\n    }\r\n\r\n    function closeProposalVoteSVT1(uint maxVoteValue,uint totalVoteValue,uint8 category,uint _proposalId,uint8 max) internal\r\n    {\r\n        uint _closingTime;uint _majorityVote;uint8 currentVotingId = GD.getProposalCurrentVotingId(_proposalId);\r\n        (,_closingTime,_majorityVote) = PC.getCategoryData3(category,currentVotingId);\r\n          if(SafeMath.div(SafeMath.mul(maxVoteValue,100),totalVoteValue)>=_majorityVote)\r\n            {\r\n                if(max > 0)\r\n                {\r\n                    currentVotingId = currentVotingId+1;\r\n                    if(currentVotingId < PC.getRoleSequencLength(GD.getProposalCategory(_proposalId)))\r\n                    {\r\n                        GOV.updateProposalDetails(_proposalId,currentVotingId,max,0);\r\n                        P1.closeProposalOraclise(_proposalId,_closingTime); \r\n                        GD.callOraclizeCallEvent(_proposalId,GD.getProposalDateUpd(_proposalId),PC.getClosingTimeAtIndex(category,currentVotingId));\r\n                    } \r\n                    else\r\n                    {\r\n                        GOV.updateProposalDetails(_proposalId,currentVotingId,max,max);\r\n                        GD.changeProposalStatus(_proposalId,3);\r\n                        VT.giveReward_afterFinalDecision(_proposalId);\r\n                    }\r\n                }\r\n                else\r\n                {\r\n                    GOV.updateProposalDetails(_proposalId,currentVotingId,max,max);\r\n                    GD.changeProposalStatus(_proposalId,4);\r\n                    VT.giveReward_afterFinalDecision(_proposalId);\r\n                    GOV.changePendingProposalStart();\r\n                } \r\n            }\r\n            else\r\n            {\r\n                GOV.updateProposalDetails(_proposalId,currentVotingId,max,GD.getProposalIntermediateVerdict(_proposalId));\r\n                GD.changeProposalStatus(_proposalId,5);\r\n                GOV.changePendingProposalStart();\r\n            }    \r\n        \r\n    }\r\n            \r\n    function checkForThreshold(uint _proposalId,uint32 _mrSequenceId) internal constant returns(bool)\r\n    {\r\n        uint thresHoldValue;\r\n        if(_mrSequenceId == 2)\r\n        {\r\n            address dAppTokenAddress = GBM.getDappTokenAddress(MS.DappName());\r\n            BT=BasicToken(dAppTokenAddress);\r\n            uint totalTokens;\r\n\r\n            for(uint8 i=0; i<GD.getAllVoteIdsLength_byProposalRole(_proposalId,_mrSequenceId); i++)\r\n            {\r\n                uint voteId = GD.getVoteId_againstProposalRole(_proposalId,_mrSequenceId,i);\r\n                address voterAddress =GD.getVoterAddress(voteId);\r\n                totalTokens = totalTokens + BT.balanceOf(voterAddress);\r\n            }\r\n           \r\n            thresHoldValue = totalTokens*100/BT.totalSupply();\r\n            if(thresHoldValue > GD.quorumPercentage())\r\n                return true;\r\n        }\r\n        else\r\n        {\r\n            thresHoldValue = (GD.getAllVoteIdsLength_byProposalRole(_proposalId,_mrSequenceId)*100)/MR.getAllMemberLength(_mrSequenceId);\r\n            if(thresHoldValue >GD.quorumPercentage())\r\n                return true;\r\n        }\r\n    }\r\n\r\n\r\n    // function checkForSolution(uint _proposalId,address _memberAddress) internal constant returns(uint check)\r\n    // {\r\n    //     for(uint i=0; i<GD.getTotalSolutions(_proposalId); i++)\r\n    //     {\r\n    //         if(GD.getSolutionAddedByProposalId(_memberAddress,i) == _memberAddress)\r\n    //             check = 1;\r\n    //         else \r\n    //             check = 0;\r\n    //     }\r\n    // }\r\n\r\n    // function addSolutionSVT(uint _proposalId,address _memberAddress,string _solutionHash,uint _dateAdd) onlyInternal\r\n    // {\r\n    //     GBTS=GBTStandardToken(GBTSAddress);\r\n    //     require(checkForSolution(_proposalId,_memberAddress) == 0);\r\n\r\n    //     uint currentVotingId;\r\n    //     (,,currentVotingId,,,) = GD.getProposalDetailsById2(_proposalId);\r\n    //     require(currentVotingId == 0 && GD.getProposalStatus(_proposalId) == 2 && GBTS.balanceOf(_memberAddress) != 0 && GD.getVoteId_againstMember(_memberAddress,_proposalId) == 0);\r\n    // }\r\n\r\n}\r\n\r\n\r\n\r\n\r\n\r\n",
  "sourcePath": "D:\\RUCHITA\\GovBlocks-Protocol Access-Modifiers\\contracts\\StandardVotingType.sol",
  "compiler": {
    "name": "solc",
    "version": "0.4.18+commit.9cf6e910.Emscripten.clang"
  },
  "schemaVersion": "1.0.1",
  "updatedAt": "2018-04-26T12:00:44.200Z"
}