{
  "contractName": "StandardVotingType",
  "abi": [
    {
      "constant": false,
      "inputs": [
        {
          "name": "_proposalId",
          "type": "uint256"
        }
      ],
      "name": "closeProposalVoteSVT",
      "outputs": [],
      "payable": false,
      "stateMutability": "nonpayable",
      "type": "function"
    },
    {
      "constant": false,
      "inputs": [
        {
          "name": "contractName",
          "type": "bytes4"
        },
        {
          "name": "contractAddress",
          "type": "address"
        }
      ],
      "name": "changeAddress",
      "outputs": [],
      "payable": false,
      "stateMutability": "nonpayable",
      "type": "function"
    },
    {
      "constant": false,
      "inputs": [
        {
          "name": "_memberAddress",
          "type": "address"
        },
        {
          "name": "_proposalId",
          "type": "uint256"
        },
        {
          "name": "_memberStake",
          "type": "uint256"
        }
      ],
      "name": "setVoteValue_givenByMember",
      "outputs": [
        {
          "name": "finalVoteValue",
          "type": "uint256"
        }
      ],
      "payable": false,
      "stateMutability": "nonpayable",
      "type": "function"
    },
    {
      "constant": true,
      "inputs": [],
      "name": "masterAddress",
      "outputs": [
        {
          "name": "",
          "type": "address"
        }
      ],
      "payable": false,
      "stateMutability": "view",
      "type": "function"
    },
    {
      "constant": false,
      "inputs": [
        {
          "name": "_masterContractAddress",
          "type": "address"
        }
      ],
      "name": "changeMasterAddress",
      "outputs": [],
      "payable": false,
      "stateMutability": "nonpayable",
      "type": "function"
    },
    {
      "constant": false,
      "inputs": [
        {
          "name": "_GBTSAddress",
          "type": "address"
        }
      ],
      "name": "changeGBTSAddress",
      "outputs": [],
      "payable": false,
      "stateMutability": "nonpayable",
      "type": "function"
    }
  ],
  "bytecode": "0x6060604052341561000f57600080fd5b6135438061001e6000396000f300606060405260043610610078576000357c0100000000000000000000000000000000000000000000000000000000900463ffffffff16806315d408701461007d57806367bf5d0c146100a0578063ceeb6f1b14610101578063d365a08e14610160578063d46655f4146101b5578063eecedcb0146101ee575b600080fd5b341561008857600080fd5b61009e6004808035906020019091905050610227565b005b34156100ab57600080fd5b6100ff60048080357bffffffffffffffffffffffffffffffffffffffffffffffffffffffff191690602001909190803573ffffffffffffffffffffffffffffffffffffffff169060200190919050506111a9565b005b341561010c57600080fd5b61014a600480803573ffffffffffffffffffffffffffffffffffffffff16906020019091908035906020019091908035906020019091905050611560565b6040518082815260200191505060405180910390f35b341561016b57600080fd5b610173611a66565b604051808273ffffffffffffffffffffffffffffffffffffffff1673ffffffffffffffffffffffffffffffffffffffff16815260200191505060405180910390f35b34156101c057600080fd5b6101ec600480803573ffffffffffffffffffffffffffffffffffffffff16906020019091905050611a8b565b005b34156101f957600080fd5b610225600480803573ffffffffffffffffffffffffffffffffffffffff16906020019091905050611ca8565b005b600080600080610235613503565b60008060008060008060011515600460009054906101000a900473ffffffffffffffffffffffffffffffffffffffff1673ffffffffffffffffffffffffffffffffffffffff16638f16c41c336000604051602001526040518263ffffffff167c0100000000000000000000000000000000000000000000000000000000028152600401808273ffffffffffffffffffffffffffffffffffffffff1673ffffffffffffffffffffffffffffffffffffffff168152602001915050602060405180830381600087803b151561030757600080fd5b6102c65a03f1151561031857600080fd5b50505060405180519050151514151561033057600080fd5b600960009054906101000a900473ffffffffffffffffffffffffffffffffffffffff1673ffffffffffffffffffffffffffffffffffffffff166373114d468d6000604051602001526040518263ffffffff167c010000000000000000000000000000000000000000000000000000000002815260040180828152602001915050602060405180830381600087803b15156103c957600080fd5b6102c65a03f115156103da57600080fd5b50505060405180519050600a60006101000a81548173ffffffffffffffffffffffffffffffffffffffff021916908373ffffffffffffffffffffffffffffffffffffffff16021790555060009a50600960009054906101000a900473ffffffffffffffffffffffffffffffffffffffff1673ffffffffffffffffffffffffffffffffffffffff16637fd6e5108d6000604051602001526040518263ffffffff167c010000000000000000000000000000000000000000000000000000000002815260040180828152602001915050602060405180830381600087803b15156104c157600080fd5b6102c65a03f115156104d257600080fd5b505050604051805190509950600960009054906101000a900473ffffffffffffffffffffffffffffffffffffffff1673ffffffffffffffffffffffffffffffffffffffff16632cd739438d6000604051602001526040518263ffffffff167c010000000000000000000000000000000000000000000000000000000002815260040180828152602001915050602060405180830381600087803b151561057757600080fd5b6102c65a03f1151561058857600080fd5b505050604051805190509850600860009054906101000a900473ffffffffffffffffffffffffffffffffffffffff1673ffffffffffffffffffffffffffffffffffffffff16639deeab208b8b6000604051602001526040518363ffffffff167c0100000000000000000000000000000000000000000000000000000000028152600401808360ff1681526020018260ff16815260200192505050602060405180830381600087803b151561063b57600080fd5b6102c65a03f1151561064c57600080fd5b5050506040518051905097506001600660009054906101000a900473ffffffffffffffffffffffffffffffffffffffff1673ffffffffffffffffffffffffffffffffffffffff1663e5975e758e8b6000604051602001526040518363ffffffff167c01000000000000000000000000000000000000000000000000000000000281526004018083815260200182815260200192505050602060405180830381600087803b15156106fb57600080fd5b6102c65a03f1151561070c57600080fd5b5050506040518051905060ff1614151561072557600080fd5b600960009054906101000a900473ffffffffffffffffffffffffffffffffffffffff1673ffffffffffffffffffffffffffffffffffffffff1663f351df058d6000604051602001526040518263ffffffff167c010000000000000000000000000000000000000000000000000000000002815260040180828152602001915050602060405180830381600087803b15156107be57600080fd5b6102c65a03f115156107cf57600080fd5b505050604051805190506040518059106107e65750595b90808252806020026020018201604052509650600095505b600960009054906101000a900473ffffffffffffffffffffffffffffffffffffffff1673ffffffffffffffffffffffffffffffffffffffff1663296569cf8d8a6000604051602001526040518363ffffffff167c01000000000000000000000000000000000000000000000000000000000281526004018083815260200182815260200192505050602060405180830381600087803b151561089f57600080fd5b6102c65a03f115156108b057600080fd5b505050604051805190508660ff161015610b4957600960009054906101000a900473ffffffffffffffffffffffffffffffffffffffff1673ffffffffffffffffffffffffffffffffffffffff166318ff42528d8a896000604051602001526040518463ffffffff167c0100000000000000000000000000000000000000000000000000000000028152600401808481526020018381526020018260ff1681526020019350505050602060405180830381600087803b151561097057600080fd5b6102c65a03f1151561098157600080fd5b505050604051805190509450600960009054906101000a900473ffffffffffffffffffffffffffffffffffffffff1673ffffffffffffffffffffffffffffffffffffffff1663b068892186600080604051602001526040518363ffffffff167c01000000000000000000000000000000000000000000000000000000000281526004018083815260200182815260200192505050602060405180830381600087803b1515610a2e57600080fd5b6102c65a03f11515610a3f57600080fd5b505050604051805190509350600960009054906101000a900473ffffffffffffffffffffffffffffffffffffffff1673ffffffffffffffffffffffffffffffffffffffff16633ee9363b866000604051602001526040518263ffffffff167c010000000000000000000000000000000000000000000000000000000002815260040180828152602001915050602060405180830381600087803b1515610ae457600080fd5b6102c65a03f11515610af557600080fd5b505050604051805190509250828b019a50828785815181101515610b1557fe5b90602001906020020151018785815181101515610b2e57fe5b906020019060200201818152505085806001019650506107fe565b60009150600095505b86518660ff161015610bab57868660ff16815181101515610b6f57fe5b90602001906020020151878360ff16815181101515610b8a57fe5b906020019060200201511015610b9e578591505b8580600101965050610b52565b60011515610bb98d8a611d47565b15151415610bed57610be8878360ff16815181101515610bd557fe5b906020019060200201518c8c8f866125fa565b61119b565b600960009054906101000a900473ffffffffffffffffffffffffffffffffffffffff1673ffffffffffffffffffffffffffffffffffffffff1663e1bd42748d6000604051602001526040518263ffffffff167c010000000000000000000000000000000000000000000000000000000002815260040180828152602001915050602060405180830381600087803b1515610c8657600080fd5b6102c65a03f11515610c9757600080fd5b505050604051805190509050600660009054906101000a900473ffffffffffffffffffffffffffffffffffffffff1673ffffffffffffffffffffffffffffffffffffffff1663cd25becd8d8b85856040518563ffffffff167c0100000000000000000000000000000000000000000000000000000000028152600401808581526020018460ff1660ff1681526020018360ff1660ff1681526020018260ff1660ff168152602001945050505050600060405180830381600087803b1515610d5d57600080fd5b6102c65a03f11515610d6e57600080fd5b505050600860009054906101000a900473ffffffffffffffffffffffffffffffffffffffff1673ffffffffffffffffffffffffffffffffffffffff166318b0211b600960009054906101000a900473ffffffffffffffffffffffffffffffffffffffff1673ffffffffffffffffffffffffffffffffffffffff16637fd6e5108f6000604051602001526040518263ffffffff167c010000000000000000000000000000000000000000000000000000000002815260040180828152602001915050602060405180830381600087803b1515610e4857600080fd5b6102c65a03f11515610e5957600080fd5b505050604051805190506000604051602001526040518263ffffffff167c0100000000000000000000000000000000000000000000000000000000028152600401808260ff168152602001915050602060405180830381600087803b1515610ec057600080fd5b6102c65a03f11515610ed157600080fd5b505050604051805190506001600960009054906101000a900473ffffffffffffffffffffffffffffffffffffffff1673ffffffffffffffffffffffffffffffffffffffff16632cd739438f6000604051602001526040518263ffffffff167c010000000000000000000000000000000000000000000000000000000002815260040180828152602001915050602060405180830381600087803b1515610f7657600080fd5b6102c65a03f11515610f8757600080fd5b505050604051805190500160ff16101561105057600960009054906101000a900473ffffffffffffffffffffffffffffffffffffffff1673ffffffffffffffffffffffffffffffffffffffff1663707b85278d60076040518363ffffffff167c0100000000000000000000000000000000000000000000000000000000028152600401808381526020018260ff16815260200192505050600060405180830381600087803b151561103757600080fd5b6102c65a03f1151561104857600080fd5b505050611101565b600960009054906101000a900473ffffffffffffffffffffffffffffffffffffffff1673ffffffffffffffffffffffffffffffffffffffff1663707b85278d60066040518363ffffffff167c0100000000000000000000000000000000000000000000000000000000028152600401808381526020018260ff16815260200192505050600060405180830381600087803b15156110ec57600080fd5b6102c65a03f115156110fd57600080fd5b5050505b600660009054906101000a900473ffffffffffffffffffffffffffffffffffffffff1673ffffffffffffffffffffffffffffffffffffffff1663e7030a676040518163ffffffff167c0100000000000000000000000000000000000000000000000000000000028152600401600060405180830381600087803b151561118657600080fd5b6102c65a03f1151561119757600080fd5b5050505b505050505050505050505050565b60011515600460009054906101000a900473ffffffffffffffffffffffffffffffffffffffff1673ffffffffffffffffffffffffffffffffffffffff16638f16c41c336000604051602001526040518263ffffffff167c0100000000000000000000000000000000000000000000000000000000028152600401808273ffffffffffffffffffffffffffffffffffffffff1673ffffffffffffffffffffffffffffffffffffffff168152602001915050602060405180830381600087803b151561127257600080fd5b6102c65a03f1151561128357600080fd5b50505060405180519050151514151561129b57600080fd5b7f4744000000000000000000000000000000000000000000000000000000000000827bffffffffffffffffffffffffffffffffffffffffffffffffffffffff191614156113285780600960006101000a81548173ffffffffffffffffffffffffffffffffffffffff021916908373ffffffffffffffffffffffffffffffffffffffff16021790555061155c565b7f4d52000000000000000000000000000000000000000000000000000000000000827bffffffffffffffffffffffffffffffffffffffffffffffffffffffff191614156113b55780600760006101000a81548173ffffffffffffffffffffffffffffffffffffffff021916908373ffffffffffffffffffffffffffffffffffffffff16021790555061155b565b7f5043000000000000000000000000000000000000000000000000000000000000827bffffffffffffffffffffffffffffffffffffffffffffffffffffffff191614156114425780600860006101000a81548173ffffffffffffffffffffffffffffffffffffffff021916908373ffffffffffffffffffffffffffffffffffffffff16021790555061155a565b7f474f560000000000000000000000000000000000000000000000000000000000827bffffffffffffffffffffffffffffffffffffffffffffffffffffffff191614156114cf5780600660006101000a81548173ffffffffffffffffffffffffffffffffffffffff021916908373ffffffffffffffffffffffffffffffffffffffff160217905550611559565b7f504c000000000000000000000000000000000000000000000000000000000000827bffffffffffffffffffffffffffffffffffffffffffffffffffffffff191614156115585780600560006101000a81548173ffffffffffffffffffffffffffffffffffffffff021916908373ffffffffffffffffffffffffffffffffffffffff1602179055505b5b5b5b5b5050565b600080600060011515600460009054906101000a900473ffffffffffffffffffffffffffffffffffffffff1673ffffffffffffffffffffffffffffffffffffffff16638f16c41c336000604051602001526040518263ffffffff167c0100000000000000000000000000000000000000000000000000000000028152600401808273ffffffffffffffffffffffffffffffffffffffff1673ffffffffffffffffffffffffffffffffffffffff168152602001915050602060405180830381600087803b151561162e57600080fd5b6102c65a03f1151561163f57600080fd5b50505060405180519050151514151561165757600080fd5b6117fc61174e611747600360009054906101000a900473ffffffffffffffffffffffffffffffffffffffff1673ffffffffffffffffffffffffffffffffffffffff166370a082318a6000604051602001526040518263ffffffff167c0100000000000000000000000000000000000000000000000000000000028152600401808273ffffffffffffffffffffffffffffffffffffffff1673ffffffffffffffffffffffffffffffffffffffff168152602001915050602060405180830381600087803b151561172557600080fd5b6102c65a03f1151561173657600080fd5b505050604051805190506064613493565b6064613493565b600360009054906101000a900473ffffffffffffffffffffffffffffffffffffffff1673ffffffffffffffffffffffffffffffffffffffff166318160ddd6000604051602001526040518163ffffffff167c0100000000000000000000000000000000000000000000000000000000028152600401602060405180830381600087803b15156117dc57600080fd5b6102c65a03f115156117ed57600080fd5b505050604051805190506134ce565b915061196a6118b385600960009054906101000a900473ffffffffffffffffffffffffffffffffffffffff1673ffffffffffffffffffffffffffffffffffffffff166393e4a4f56000604051602001526040518163ffffffff167c0100000000000000000000000000000000000000000000000000000000028152600401602060405180830381600087803b151561189357600080fd5b6102c65a03f115156118a457600080fd5b505050604051805190506134e9565b61196584600960009054906101000a900473ffffffffffffffffffffffffffffffffffffffff1673ffffffffffffffffffffffffffffffffffffffff166311aadbfb6000604051602001526040518163ffffffff167c0100000000000000000000000000000000000000000000000000000000028152600401602060405180830381600087803b151561194557600080fd5b6102c65a03f1151561195657600080fd5b505050604051805190506134e9565b613493565b9050611a5b600960009054906101000a900473ffffffffffffffffffffffffffffffffffffffff1673ffffffffffffffffffffffffffffffffffffffff16631b3b74f1886000604051602001526040518263ffffffff167c0100000000000000000000000000000000000000000000000000000000028152600401808273ffffffffffffffffffffffffffffffffffffffff1673ffffffffffffffffffffffffffffffffffffffff168152602001915050602060405180830381600087803b1515611a3457600080fd5b6102c65a03f11515611a4557600080fd5b5050506040518051905063ffffffff1682613493565b925050509392505050565b6000809054906101000a900473ffffffffffffffffffffffffffffffffffffffff1681565b60008060009054906101000a900473ffffffffffffffffffffffffffffffffffffffff1673ffffffffffffffffffffffffffffffffffffffff161415611b1057806000806101000a81548173ffffffffffffffffffffffffffffffffffffffff021916908373ffffffffffffffffffffffffffffffffffffffff160217905550611ca5565b6000809054906101000a900473ffffffffffffffffffffffffffffffffffffffff16600460006101000a81548173ffffffffffffffffffffffffffffffffffffffff021916908373ffffffffffffffffffffffffffffffffffffffff16021790555060011515600460009054906101000a900473ffffffffffffffffffffffffffffffffffffffff1673ffffffffffffffffffffffffffffffffffffffff16638f16c41c336000604051602001526040518263ffffffff167c0100000000000000000000000000000000000000000000000000000000028152600401808273ffffffffffffffffffffffffffffffffffffffff1673ffffffffffffffffffffffffffffffffffffffff168152602001915050602060405180830381600087803b1515611c3b57600080fd5b6102c65a03f11515611c4c57600080fd5b505050604051805190501515141515611c6457600080fd5b806000806101000a81548173ffffffffffffffffffffffffffffffffffffffff021916908373ffffffffffffffffffffffffffffffffffffffff1602179055505b50565b6000809054906101000a900473ffffffffffffffffffffffffffffffffffffffff1673ffffffffffffffffffffffffffffffffffffffff163373ffffffffffffffffffffffffffffffffffffffff16141515611d0357600080fd5b80600360006101000a81548173ffffffffffffffffffffffffffffffffffffffff021916908373ffffffffffffffffffffffffffffffffffffffff16021790555050565b600080600080600080600060028814156123b457600160009054906101000a900473ffffffffffffffffffffffffffffffffffffffff1673ffffffffffffffffffffffffffffffffffffffff1663597336e8600460009054906101000a900473ffffffffffffffffffffffffffffffffffffffff1673ffffffffffffffffffffffffffffffffffffffff166306ecf8846000604051602001526040518163ffffffff167c0100000000000000000000000000000000000000000000000000000000028152600401602060405180830381600087803b1515611e2757600080fd5b6102c65a03f11515611e3857600080fd5b505050604051805190506000604051602001526040518263ffffffff167c0100000000000000000000000000000000000000000000000000000000028152600401808260001916600019168152602001915050602060405180830381600087803b1515611ea457600080fd5b6102c65a03f11515611eb557600080fd5b50505060405180519050945084600260006101000a81548173ffffffffffffffffffffffffffffffffffffffff021916908373ffffffffffffffffffffffffffffffffffffffff160217905550600092505b600960009054906101000a900473ffffffffffffffffffffffffffffffffffffffff1673ffffffffffffffffffffffffffffffffffffffff1663296569cf8a8a6000604051602001526040518363ffffffff167c01000000000000000000000000000000000000000000000000000000000281526004018083815260200182815260200192505050602060405180830381600087803b1515611fa857600080fd5b6102c65a03f11515611fb957600080fd5b505050604051805190508360ff16101561223d57600960009054906101000a900473ffffffffffffffffffffffffffffffffffffffff1673ffffffffffffffffffffffffffffffffffffffff166318ff42528a8a866000604051602001526040518463ffffffff167c0100000000000000000000000000000000000000000000000000000000028152600401808481526020018381526020018260ff1681526020019350505050602060405180830381600087803b151561207957600080fd5b6102c65a03f1151561208a57600080fd5b505050604051805190509150600960009054906101000a900473ffffffffffffffffffffffffffffffffffffffff1673ffffffffffffffffffffffffffffffffffffffff1663d83b2c05836000604051602001526040518263ffffffff167c010000000000000000000000000000000000000000000000000000000002815260040180828152602001915050602060405180830381600087803b151561212f57600080fd5b6102c65a03f1151561214057600080fd5b505050604051805190509050600260009054906101000a900473ffffffffffffffffffffffffffffffffffffffff1673ffffffffffffffffffffffffffffffffffffffff166370a08231826000604051602001526040518263ffffffff167c0100000000000000000000000000000000000000000000000000000000028152600401808273ffffffffffffffffffffffffffffffffffffffff1673ffffffffffffffffffffffffffffffffffffffff168152602001915050602060405180830381600087803b151561221157600080fd5b6102c65a03f1151561222257600080fd5b50505060405180519050840193508280600101935050611f07565b600260009054906101000a900473ffffffffffffffffffffffffffffffffffffffff1673ffffffffffffffffffffffffffffffffffffffff166318160ddd6000604051602001526040518163ffffffff167c0100000000000000000000000000000000000000000000000000000000028152600401602060405180830381600087803b15156122cb57600080fd5b6102c65a03f115156122dc57600080fd5b50505060405180519050606485028115156122f357fe5b049550600960009054906101000a900473ffffffffffffffffffffffffffffffffffffffff1673ffffffffffffffffffffffffffffffffffffffff16634fa76ec96000604051602001526040518163ffffffff167c0100000000000000000000000000000000000000000000000000000000028152600401602060405180830381600087803b151561238457600080fd5b6102c65a03f1151561239557600080fd5b505050604051805190508611156123af57600196506125ee565b6125ed565b600760009054906101000a900473ffffffffffffffffffffffffffffffffffffffff1673ffffffffffffffffffffffffffffffffffffffff1663233fa5eb896000604051602001526040518263ffffffff167c010000000000000000000000000000000000000000000000000000000002815260040180828152602001915050602060405180830381600087803b151561244d57600080fd5b6102c65a03f1151561245e57600080fd5b505050604051805190506064600960009054906101000a900473ffffffffffffffffffffffffffffffffffffffff1673ffffffffffffffffffffffffffffffffffffffff1663296569cf8c8c6000604051602001526040518363ffffffff167c01000000000000000000000000000000000000000000000000000000000281526004018083815260200182815260200192505050602060405180830381600087803b151561250b57600080fd5b6102c65a03f1151561251c57600080fd5b505050604051805190500281151561253057fe5b049550600960009054906101000a900473ffffffffffffffffffffffffffffffffffffffff1673ffffffffffffffffffffffffffffffffffffffff16634fa76ec96000604051602001526040518163ffffffff167c0100000000000000000000000000000000000000000000000000000000028152600401602060405180830381600087803b15156125c157600080fd5b6102c65a03f115156125d257600080fd5b505050604051805190508611156125ec57600196506125ee565b5b5b50505050505092915050565b6000806000600960009054906101000a900473ffffffffffffffffffffffffffffffffffffffff1673ffffffffffffffffffffffffffffffffffffffff16632cd73943866000604051602001526040518263ffffffff167c010000000000000000000000000000000000000000000000000000000002815260040180828152602001915050602060405180830381600087803b151561269857600080fd5b6102c65a03f115156126a957600080fd5b505050604051805190509050600860009054906101000a900473ffffffffffffffffffffffffffffffffffffffff1673ffffffffffffffffffffffffffffffffffffffff1663f28395d687836000604051606001526040518363ffffffff167c0100000000000000000000000000000000000000000000000000000000028152600401808360ff1681526020018260ff16815260200192505050606060405180830381600087803b151561275c57600080fd5b6102c65a03f1151561276d57600080fd5b505050604051805190602001805190602001805190509091508093508194505050816127a361279d8a6064613493565b896134ce565b1015156131be5760008460ff161115612efd57600181019050600860009054906101000a900473ffffffffffffffffffffffffffffffffffffffff1673ffffffffffffffffffffffffffffffffffffffff166318b0211b600960009054906101000a900473ffffffffffffffffffffffffffffffffffffffff1673ffffffffffffffffffffffffffffffffffffffff16637fd6e510886000604051602001526040518263ffffffff167c010000000000000000000000000000000000000000000000000000000002815260040180828152602001915050602060405180830381600087803b151561289357600080fd5b6102c65a03f115156128a457600080fd5b505050604051805190506000604051602001526040518263ffffffff167c0100000000000000000000000000000000000000000000000000000000028152600401808260ff168152602001915050602060405180830381600087803b151561290b57600080fd5b6102c65a03f1151561291c57600080fd5b505050604051805190508160ff161015612cd557600660009054906101000a900473ffffffffffffffffffffffffffffffffffffffff1673ffffffffffffffffffffffffffffffffffffffff1663cd25becd86838760006040518563ffffffff167c0100000000000000000000000000000000000000000000000000000000028152600401808581526020018460ff1660ff1681526020018360ff1660ff1681526020018260ff168152602001945050505050600060405180830381600087803b15156129e857600080fd5b6102c65a03f115156129f957600080fd5b505050600560009054906101000a900473ffffffffffffffffffffffffffffffffffffffff1673ffffffffffffffffffffffffffffffffffffffff166336e7535f86856040518363ffffffff167c01000000000000000000000000000000000000000000000000000000000281526004018083815260200182815260200192505050600060405180830381600087803b1515612a9457600080fd5b6102c65a03f11515612aa557600080fd5b505050600960009054906101000a900473ffffffffffffffffffffffffffffffffffffffff1673ffffffffffffffffffffffffffffffffffffffff16635d3bb56a86600960009054906101000a900473ffffffffffffffffffffffffffffffffffffffff1673ffffffffffffffffffffffffffffffffffffffff1663e3726e80896000604051602001526040518263ffffffff167c010000000000000000000000000000000000000000000000000000000002815260040180828152602001915050602060405180830381600087803b1515612b8057600080fd5b6102c65a03f11515612b9157600080fd5b50505060405180519050600860009054906101000a900473ffffffffffffffffffffffffffffffffffffffff1673ffffffffffffffffffffffffffffffffffffffff16631a10a6158b876000604051602001526040518363ffffffff167c0100000000000000000000000000000000000000000000000000000000028152600401808360ff1681526020018260ff16815260200192505050602060405180830381600087803b1515612c4257600080fd5b6102c65a03f11515612c5357600080fd5b505050604051805190506040518463ffffffff167c0100000000000000000000000000000000000000000000000000000000028152600401808481526020018381526020018281526020019350505050600060405180830381600087803b1515612cbc57600080fd5b6102c65a03f11515612ccd57600080fd5b505050612ef8565b600660009054906101000a900473ffffffffffffffffffffffffffffffffffffffff1673ffffffffffffffffffffffffffffffffffffffff1663cd25becd868387886040518563ffffffff167c0100000000000000000000000000000000000000000000000000000000028152600401808581526020018460ff1660ff1681526020018360ff1660ff1681526020018260ff1660ff168152602001945050505050600060405180830381600087803b1515612d8f57600080fd5b6102c65a03f11515612da057600080fd5b505050600960009054906101000a900473ffffffffffffffffffffffffffffffffffffffff1673ffffffffffffffffffffffffffffffffffffffff1663707b85278660036040518363ffffffff167c0100000000000000000000000000000000000000000000000000000000028152600401808381526020018260ff16815260200192505050600060405180830381600087803b1515612e3f57600080fd5b6102c65a03f11515612e5057600080fd5b505050600a60009054906101000a900473ffffffffffffffffffffffffffffffffffffffff1673ffffffffffffffffffffffffffffffffffffffff16630a256ae1866040518263ffffffff167c010000000000000000000000000000000000000000000000000000000002815260040180828152602001915050600060405180830381600087803b1515612ee357600080fd5b6102c65a03f11515612ef457600080fd5b5050505b6131b9565b600660009054906101000a900473ffffffffffffffffffffffffffffffffffffffff1673ffffffffffffffffffffffffffffffffffffffff1663cd25becd868387886040518563ffffffff167c0100000000000000000000000000000000000000000000000000000000028152600401808581526020018460ff1660ff1681526020018360ff1660ff1681526020018260ff1660ff168152602001945050505050600060405180830381600087803b1515612fb757600080fd5b6102c65a03f11515612fc857600080fd5b505050600960009054906101000a900473ffffffffffffffffffffffffffffffffffffffff1673ffffffffffffffffffffffffffffffffffffffff1663707b85278660046040518363ffffffff167c0100000000000000000000000000000000000000000000000000000000028152600401808381526020018260ff16815260200192505050600060405180830381600087803b151561306757600080fd5b6102c65a03f1151561307857600080fd5b505050600a60009054906101000a900473ffffffffffffffffffffffffffffffffffffffff1673ffffffffffffffffffffffffffffffffffffffff16630a256ae1866040518263ffffffff167c010000000000000000000000000000000000000000000000000000000002815260040180828152602001915050600060405180830381600087803b151561310b57600080fd5b6102c65a03f1151561311c57600080fd5b505050600660009054906101000a900473ffffffffffffffffffffffffffffffffffffffff1673ffffffffffffffffffffffffffffffffffffffff1663e7030a676040518163ffffffff167c0100000000000000000000000000000000000000000000000000000000028152600401600060405180830381600087803b15156131a457600080fd5b6102c65a03f115156131b557600080fd5b5050505b613489565b600660009054906101000a900473ffffffffffffffffffffffffffffffffffffffff1673ffffffffffffffffffffffffffffffffffffffff1663cd25becd868387600960009054906101000a900473ffffffffffffffffffffffffffffffffffffffff1673ffffffffffffffffffffffffffffffffffffffff1663e1bd42748b6000604051602001526040518263ffffffff167c010000000000000000000000000000000000000000000000000000000002815260040180828152602001915050602060405180830381600087803b151561329857600080fd5b6102c65a03f115156132a957600080fd5b505050604051805190506040518563ffffffff167c0100000000000000000000000000000000000000000000000000000000028152600401808581526020018460ff1660ff1681526020018360ff1660ff1681526020018260ff1660ff168152602001945050505050600060405180830381600087803b151561332b57600080fd5b6102c65a03f1151561333c57600080fd5b505050600960009054906101000a900473ffffffffffffffffffffffffffffffffffffffff1673ffffffffffffffffffffffffffffffffffffffff1663707b85278660056040518363ffffffff167c0100000000000000000000000000000000000000000000000000000000028152600401808381526020018260ff16815260200192505050600060405180830381600087803b15156133db57600080fd5b6102c65a03f115156133ec57600080fd5b505050600660009054906101000a900473ffffffffffffffffffffffffffffffffffffffff1673ffffffffffffffffffffffffffffffffffffffff1663e7030a676040518163ffffffff167c0100000000000000000000000000000000000000000000000000000000028152600401600060405180830381600087803b151561347457600080fd5b6102c65a03f1151561348557600080fd5b5050505b5050505050505050565b60008060008414156134a857600091506134c7565b82840290508284828115156134b957fe5b041415156134c357fe5b8091505b5092915050565b60008082848115156134dc57fe5b0490508091505092915050565b6000818310156134f957816134fb565b825b905092915050565b6020604051908101604052806000815250905600a165627a7a7230582007b405b7cf5a952e5aef98bed352d439c5d0cac6ce4a0847b5efe3e9950033bf0029",
  "source": "/* Copyright (C) 2017 GovBlocks.io\r\n\r\n  This program is free software: you can redistribute it and/or modify\r\n    it under the terms of the GNU General Public License as published by\r\n    the Free Software Foundation, either version 3 of the License, or\r\n    (at your option) any later version.\r\n\r\n  This program is distributed in the hope that it will be useful,\r\n    but WITHOUT ANY WARRANTY; without even the implied warranty of\r\n    MERCHANTABILITY or FITNESS FOR A PARTICULAR PURPOSE.  See the\r\n    GNU General Public License for more details.\r\n\r\n  You should have received a copy of the GNU General Public License\r\n    along with this program.  If not, see http://www.gnu.org/licenses/ */\r\n\r\n/**\r\n * @title votingType interface for All Types of voting.\r\n */\r\n\r\npragma solidity ^0.4.8;\r\n\r\nimport \"./ProposalCategory.sol\";\r\nimport \"./governanceData.sol\";\r\nimport \"./VotingType.sol\";\r\nimport \"./Pool.sol\";\r\nimport \"./Master.sol\";\r\nimport \"./Governance.sol\";\r\nimport \"./memberRoles.sol\";\r\nimport \"./GBTStandardToken.sol\";\r\nimport \"./BasicToken.sol\";\r\nimport \"./GovBlocksMaster.sol\";\r\n\r\n\r\ncontract StandardVotingType\r\n{\r\n    address public masterAddress;\r\n    GovBlocksMaster GBM;\r\n    BasicToken BT;\r\n    GBTStandardToken GBTS;\r\n    Master MS;\r\n    Pool P1;\r\n    Governance GOV;\r\n    memberRoles MR;\r\n    ProposalCategory PC;\r\n    governanceData  GD;\r\n    VotingType VT;\r\n\r\n    modifier onlyInternal {\r\n        require(MS.isInternal(msg.sender) == true);\r\n        _; \r\n    }\r\n\r\n    /// @dev Changes master's contract address\r\n    /// @param _masterContractAddress New master contract address\r\n    function changeMasterAddress(address _masterContractAddress)\r\n    {\r\n        if(masterAddress == 0x000)\r\n            masterAddress = _masterContractAddress;\r\n        else\r\n        {\r\n            MS=Master(masterAddress);\r\n            require(MS.isInternal(msg.sender) == true);\r\n                masterAddress = _masterContractAddress;\r\n        }\r\n    }\r\n\r\n    modifier onlyMaster\r\n    {\r\n        require(msg.sender == masterAddress);\r\n        _;\r\n    }\r\n    \r\n    // function changeOtherContractAddress(bytes4 _contractName) onlyInternal \r\n    // {\r\n    //     SVAddress = _SVaddress;\r\n    //     RBAddress = _RBaddress;\r\n    //     FWAddress = _FWaddress;\r\n    // }\r\n\r\n    // function changeAllContractsAddress(address _GDcontractAddress, address _MRcontractAddress, address _PCcontractAddress,address _governanceContractAddress,address _poolContractAddress) onlyInternal \r\n    // {\r\n    //     GDAddress = _GDcontractAddress;\r\n    //     MRAddress = _MRcontractAddress;\r\n    //     PCAddress = _PCcontractAddress;\r\n    //     G1Address = _governanceContractAddress;\r\n    //     P1Address = _poolContractAddress;\r\n    // }\r\n\r\n    /// @dev Changes Global objects of the contracts || Uses latest version\r\n    /// @param contractName Contract name \r\n    /// @param contractAddress Contract addresses\r\n    function changeAddress(bytes4 contractName, address contractAddress) onlyInternal\r\n    {\r\n        if(contractName == 'GD'){\r\n            GD = governanceData(contractAddress);\r\n        } else if(contractName == 'MR'){\r\n            MR = memberRoles(contractAddress);\r\n        } else if(contractName == 'PC'){\r\n            PC = ProposalCategory(contractAddress);\r\n        } else if(contractName == 'GOV'){\r\n            GOV = Governance(contractAddress);\r\n        } else if(contractName == 'PL'){\r\n            P1 = Pool(contractAddress);\r\n        }\r\n    }\r\n\r\n    /// @dev Changes GBT standard token address\r\n    /// @param _GBTSAddress GBT standard token address\r\n    function changeGBTSAddress(address _GBTSAddress) onlyMaster\r\n    {\r\n        GBTS = GBTStandardToken(_GBTSAddress);\r\n    }\r\n\r\n    /// @dev Sets vote value given by member\r\n    /// @param _memberAddress Member address\r\n    /// @param _proposalId Proposal id\r\n    /// @param _memberStake Member stake\r\n    /// @return finalVoteValue Final vote value\r\n    function setVoteValue_givenByMember(address _memberAddress,uint _proposalId,uint _memberStake) onlyInternal returns (uint finalVoteValue)\r\n    {\r\n        uint tokensHeld = SafeMath.div((SafeMath.mul(SafeMath.mul(GBTS.balanceOf(_memberAddress),100),100)),GBTS.totalSupply());\r\n        uint value= SafeMath.mul(Math.max256(_memberStake,GD.scalingWeight()),Math.max256(tokensHeld,GD.membershipScalingFactor()));\r\n        finalVoteValue = SafeMath.mul(GD.getMemberReputation(_memberAddress),value);\r\n    }  \r\n    \r\n    /// @dev Closes Proposal Voting after All voting layers done with voting or Time out happens.\r\n    /// @param _proposalId Proposal id\r\n    function closeProposalVoteSVT(uint _proposalId) onlyInternal\r\n    {   \r\n        VT=VotingType(GD.getProposalVotingType(_proposalId)); \r\n        uint totalVoteValue=0; uint8 category = GD.getProposalCategory(_proposalId);\r\n        uint8 currentVotingId =GD.getProposalCurrentVotingId(_proposalId);\r\n        uint _mrSequenceId = PC.getRoleSequencAtIndex(category,currentVotingId);\r\n        require(GOV.checkProposalVoteClosing(_proposalId,_mrSequenceId)==1); //1\r\n        \r\n        uint[] memory finalVoteValue = new uint[](GD.getTotalSolutions(_proposalId)); \r\n        for(uint8 i=0; i<GD.getAllVoteIdsLength_byProposalRole(_proposalId,_mrSequenceId); i++)\r\n        {\r\n            uint voteId = GD.getVoteId_againstProposalRole(_proposalId,_mrSequenceId,i);\r\n            uint solutionChosen = GD.getSolutionByVoteIdAndIndex(voteId,0);\r\n            uint voteValue = GD.getVoteValue(voteId);\r\n            totalVoteValue = totalVoteValue + voteValue;\r\n            finalVoteValue[solutionChosen] = finalVoteValue[solutionChosen] + voteValue;\r\n        }\r\n\r\n        uint8 max=0;  \r\n        for(i = 0; i < finalVoteValue.length; i++)\r\n        {\r\n            if(finalVoteValue[max] < finalVoteValue[i])\r\n            {  \r\n                max = i; \r\n            }\r\n        }\r\n        \r\n        if(checkForThreshold(_proposalId,_mrSequenceId) == true)\r\n        {\r\n            closeProposalVoteSVT1(finalVoteValue[max],totalVoteValue,category,_proposalId,max);\r\n        }   \r\n        else\r\n        {\r\n            uint8 interVerdict = GD.getProposalIntermediateVerdict(_proposalId);\r\n\r\n            GOV.updateProposalDetails(_proposalId,currentVotingId,max,interVerdict);\r\n            if(GD.getProposalCurrentVotingId(_proposalId)+1 < PC.getRoleSequencLength(GD.getProposalCategory(_proposalId)))\r\n                GD.changeProposalStatus(_proposalId,7);\r\n            else\r\n                GD.changeProposalStatus(_proposalId,6);\r\n            GOV.changePendingProposalStart();\r\n        }\r\n    }\r\n\r\n    function closeProposalVoteSVT1(uint maxVoteValue,uint totalVoteValue,uint8 category,uint _proposalId,uint8 max) internal\r\n    {\r\n        uint _closingTime;uint _majorityVote;uint8 currentVotingId = GD.getProposalCurrentVotingId(_proposalId);\r\n        (,_closingTime,_majorityVote) = PC.getCategoryData3(category,currentVotingId);\r\n          if(SafeMath.div(SafeMath.mul(maxVoteValue,100),totalVoteValue)>=_majorityVote)\r\n            {\r\n                if(max > 0)\r\n                {\r\n                    currentVotingId = currentVotingId+1;\r\n                    if(currentVotingId < PC.getRoleSequencLength(GD.getProposalCategory(_proposalId)))\r\n                    {\r\n                        GOV.updateProposalDetails(_proposalId,currentVotingId,max,0);\r\n                        P1.closeProposalOraclise(_proposalId,_closingTime); \r\n                        GD.callOraclizeCallEvent(_proposalId,GD.getProposalDateUpd(_proposalId),PC.getClosingTimeAtIndex(category,currentVotingId));\r\n                    } \r\n                    else\r\n                    {\r\n                        GOV.updateProposalDetails(_proposalId,currentVotingId,max,max);\r\n                        GD.changeProposalStatus(_proposalId,3);\r\n                        VT.giveReward_afterFinalDecision(_proposalId);\r\n                    }\r\n                }\r\n                else\r\n                {\r\n                    GOV.updateProposalDetails(_proposalId,currentVotingId,max,max);\r\n                    GD.changeProposalStatus(_proposalId,4);\r\n                    VT.giveReward_afterFinalDecision(_proposalId);\r\n                    GOV.changePendingProposalStart();\r\n                } \r\n            }\r\n            else\r\n            {\r\n                GOV.updateProposalDetails(_proposalId,currentVotingId,max,GD.getProposalIntermediateVerdict(_proposalId));\r\n                GD.changeProposalStatus(_proposalId,5);\r\n                GOV.changePendingProposalStart();\r\n            }    \r\n        \r\n    }\r\n            \r\n    function checkForThreshold(uint _proposalId,uint _mrSequenceId) internal constant returns(bool)\r\n    {\r\n        uint thresHoldValue;\r\n        if(_mrSequenceId == 2)\r\n        {\r\n            address dAppTokenAddress = GBM.getDappTokenAddress(MS.DappName());\r\n            BT=BasicToken(dAppTokenAddress);\r\n            uint totalTokens;\r\n\r\n            for(uint8 i=0; i<GD.getAllVoteIdsLength_byProposalRole(_proposalId,_mrSequenceId); i++)\r\n            {\r\n                uint voteId = GD.getVoteId_againstProposalRole(_proposalId,_mrSequenceId,i);\r\n                address voterAddress =GD.getVoterAddress(voteId);\r\n                totalTokens = totalTokens + BT.balanceOf(voterAddress);\r\n            }\r\n           \r\n            thresHoldValue = totalTokens*100/BT.totalSupply();\r\n            if(thresHoldValue > GD.quorumPercentage())\r\n                return true;\r\n        }\r\n        else\r\n        {\r\n            thresHoldValue = (GD.getAllVoteIdsLength_byProposalRole(_proposalId,_mrSequenceId)*100)/MR.getAllMemberLength(_mrSequenceId);\r\n            if(thresHoldValue >GD.quorumPercentage())\r\n                return true;\r\n        }\r\n    }\r\n\r\n\r\n    // function checkForSolution(uint _proposalId,address _memberAddress) internal constant returns(uint check)\r\n    // {\r\n    //     for(uint i=0; i<GD.getTotalSolutions(_proposalId); i++)\r\n    //     {\r\n    //         if(GD.getSolutionAddedByProposalId(_memberAddress,i) == _memberAddress)\r\n    //             check = 1;\r\n    //         else \r\n    //             check = 0;\r\n    //     }\r\n    // }\r\n\r\n    // function addSolutionSVT(uint _proposalId,address _memberAddress,string _solutionHash,uint _dateAdd) onlyInternal\r\n    // {\r\n    //     GBTS=GBTStandardToken(GBTSAddress);\r\n    //     require(checkForSolution(_proposalId,_memberAddress) == 0);\r\n\r\n    //     uint currentVotingId;\r\n    //     (,,currentVotingId,,,) = GD.getProposalDetailsById2(_proposalId);\r\n    //     require(currentVotingId == 0 && GD.getProposalStatus(_proposalId) == 2 && GBTS.balanceOf(_memberAddress) != 0 && GD.getVoteId_againstMember(_memberAddress,_proposalId) == 0);\r\n    // }\r\n\r\n}\r\n\r\n\r\n\r\n\r\n\r\n",
  "sourcePath": "D:\\RUCHITA\\GovBlocks-Protocol Access-Modifiers\\contracts\\StandardVotingType.sol",
  "compiler": {
    "name": "solc",
    "version": "0.4.18+commit.9cf6e910.Emscripten.clang"
  },
  "schemaVersion": "1.0.1",
  "updatedAt": "2018-04-24T10:21:39.063Z"
}