{
  "contractName": "testData",
  "abi": [
    {
      "constant": false,
      "inputs": [
        {
          "name": "_id",
          "type": "uint256"
        },
        {
          "name": "_categoryId",
          "type": "uint256"
        },
        {
          "name": "_paramInt",
          "type": "uint256[]"
        },
        {
          "name": "_paramBytes32",
          "type": "bytes32[]"
        },
        {
          "name": "_paramAddress",
          "type": "address[]"
        }
      ],
      "name": "categorizeProposal",
      "outputs": [],
      "payable": false,
      "stateMutability": "nonpayable",
      "type": "function"
    },
    {
      "constant": true,
      "inputs": [
        {
          "name": "",
          "type": "address"
        }
      ],
      "name": "advisoryBoardMembers",
      "outputs": [
        {
          "name": "",
          "type": "uint8"
        }
      ],
      "payable": false,
      "stateMutability": "view",
      "type": "function"
    },
    {
      "constant": true,
      "inputs": [
        {
          "name": "",
          "type": "uint256"
        }
      ],
      "name": "status",
      "outputs": [
        {
          "name": "",
          "type": "string"
        }
      ],
      "payable": false,
      "stateMutability": "view",
      "type": "function"
    },
    {
      "constant": false,
      "inputs": [],
      "name": "addStatus",
      "outputs": [],
      "payable": false,
      "stateMutability": "nonpayable",
      "type": "function"
    },
    {
      "constant": true,
      "inputs": [
        {
          "name": "_id",
          "type": "uint256"
        }
      ],
      "name": "isProposalCategorised",
      "outputs": [
        {
          "name": "check",
          "type": "uint256"
        }
      ],
      "payable": false,
      "stateMutability": "view",
      "type": "function"
    },
    {
      "constant": false,
      "inputs": [
        {
          "name": "_categoryId",
          "type": "uint256"
        },
        {
          "name": "_categoryName",
          "type": "string"
        },
        {
          "name": "_memberVoteRequired",
          "type": "uint64"
        },
        {
          "name": "_majorityVote",
          "type": "uint16"
        },
        {
          "name": "_functionName",
          "type": "string"
        },
        {
          "name": "_contractAt",
          "type": "address"
        },
        {
          "name": "_paramInt",
          "type": "uint8"
        },
        {
          "name": "_paramBytes32",
          "type": "uint8"
        },
        {
          "name": "_paramAddress",
          "type": "uint8"
        }
      ],
      "name": "updateCategory",
      "outputs": [],
      "payable": false,
      "stateMutability": "nonpayable",
      "type": "function"
    },
    {
      "constant": false,
      "inputs": [
        {
          "name": "_categoryName",
          "type": "string"
        },
        {
          "name": "_memberVoteRequired",
          "type": "uint8"
        },
        {
          "name": "_majorityVote",
          "type": "uint8"
        },
        {
          "name": "_functionName",
          "type": "string"
        },
        {
          "name": "_contractAt",
          "type": "address"
        },
        {
          "name": "_paramInt",
          "type": "uint8"
        },
        {
          "name": "_paramBytes32",
          "type": "uint8"
        },
        {
          "name": "_paramAddress",
          "type": "uint8"
        }
      ],
      "name": "addNewCategory",
      "outputs": [],
      "payable": false,
      "stateMutability": "nonpayable",
      "type": "function"
    },
    {
      "constant": false,
      "inputs": [
        {
          "name": "_id",
          "type": "uint256"
        },
        {
          "name": "_status",
          "type": "uint256"
        }
      ],
      "name": "updateProposalStatus",
      "outputs": [],
      "payable": false,
      "stateMutability": "nonpayable",
      "type": "function"
    },
    {
      "constant": false,
      "inputs": [
        {
          "name": "_shortDesc",
          "type": "string"
        },
        {
          "name": "_longDesc",
          "type": "string"
        }
      ],
      "name": "addNewProposal",
      "outputs": [],
      "payable": false,
      "stateMutability": "nonpayable",
      "type": "function"
    },
    {
      "constant": true,
      "inputs": [
        {
          "name": "_categoryId",
          "type": "uint256"
        }
      ],
      "name": "getCategoryDetails",
      "outputs": [
        {
          "name": "categoryName",
          "type": "string"
        },
        {
          "name": "memberVoteRequired",
          "type": "uint64"
        },
        {
          "name": "majorityVote",
          "type": "uint16"
        },
        {
          "name": "functionName",
          "type": "string"
        },
        {
          "name": "contractAt",
          "type": "address"
        },
        {
          "name": "paramInt",
          "type": "uint16"
        },
        {
          "name": "paramBytes32",
          "type": "uint16"
        },
        {
          "name": "paramAddress",
          "type": "uint16"
        }
      ],
      "payable": false,
      "stateMutability": "view",
      "type": "function"
    },
    {
      "constant": false,
      "inputs": [
        {
          "name": "_id",
          "type": "uint256"
        },
        {
          "name": "_shortDesc",
          "type": "string"
        },
        {
          "name": "_longDesc",
          "type": "string"
        }
      ],
      "name": "editProposal",
      "outputs": [],
      "payable": false,
      "stateMutability": "nonpayable",
      "type": "function"
    },
    {
      "constant": true,
      "inputs": [
        {
          "name": "_id",
          "type": "uint256"
        },
        {
          "name": "_versionNum",
          "type": "uint256"
        }
      ],
      "name": "getProposalDetailsByIdAndVersion",
      "outputs": [
        {
          "name": "versionNum",
          "type": "uint256"
        },
        {
          "name": "shortDesc",
          "type": "string"
        },
        {
          "name": "longDesc",
          "type": "string"
        },
        {
          "name": "date_add",
          "type": "uint256"
        }
      ],
      "payable": false,
      "stateMutability": "view",
      "type": "function"
    },
    {
      "constant": true,
      "inputs": [
        {
          "name": "_id",
          "type": "uint256"
        }
      ],
      "name": "getProposalDetailsById",
      "outputs": [
        {
          "name": "owner",
          "type": "address"
        },
        {
          "name": "shortDesc",
          "type": "string"
        },
        {
          "name": "longDesc",
          "type": "string"
        },
        {
          "name": "date_add",
          "type": "uint256"
        },
        {
          "name": "date_upd",
          "type": "uint256"
        },
        {
          "name": "versionNum",
          "type": "uint256"
        },
        {
          "name": "status",
          "type": "uint256"
        }
      ],
      "payable": false,
      "stateMutability": "view",
      "type": "function"
    },
    {
      "constant": true,
      "inputs": [
        {
          "name": "",
          "type": "uint256"
        }
      ],
      "name": "allCategory",
      "outputs": [
        {
          "name": "categoryName",
          "type": "string"
        },
        {
          "name": "memberVoteRequired",
          "type": "uint8"
        },
        {
          "name": "majorityVote",
          "type": "uint8"
        },
        {
          "name": "functionName",
          "type": "string"
        },
        {
          "name": "contractAt",
          "type": "address"
        },
        {
          "name": "paramInt",
          "type": "uint8"
        },
        {
          "name": "paramBytes32",
          "type": "uint8"
        },
        {
          "name": "paramAddress",
          "type": "uint8"
        }
      ],
      "payable": false,
      "stateMutability": "view",
      "type": "function"
    },
    {
      "constant": false,
      "inputs": [
        {
          "name": "_id",
          "type": "uint256"
        },
        {
          "name": "_status",
          "type": "uint256"
        }
      ],
      "name": "pushInProposalStatus",
      "outputs": [],
      "payable": false,
      "stateMutability": "nonpayable",
      "type": "function"
    }
  ],
  "bytecode": "0x6060604052341561000f57600080fd5b612c078061001e6000396000f3006060604052600436106100db576000357c0100000000000000000000000000000000000000000000000000000000900463ffffffff168063235b13d1146100e057806323a670e3146101cc57806342d21ef71461021f5780634d94fabb146102bb578063612261b8146102d05780636b8b2c6a1461030757806371cc52c414610413578063921ac0411461050e57806399cb86f81461053a578063b0a4aaee146105da578063bc34c5441461076c578063cac86e9614610815578063d3bff2f714610934578063dff5f32214610a8b578063fbea9a8014610c41575b600080fd5b34156100eb57600080fd5b6101ca6004808035906020019091908035906020019091908035906020019082018035906020019080806020026020016040519081016040528093929190818152602001838360200280828437820191505050505050919080359060200190820180359060200190808060200260200160405190810160405280939291908181526020018383602002808284378201915050505050509190803590602001908201803590602001908080602002602001604051908101604052809392919081815260200183836020028082843782019150505050505091905050610c6d565b005b34156101d757600080fd5b610203600480803573ffffffffffffffffffffffffffffffffffffffff16906020019091905050610e4b565b604051808260ff1660ff16815260200191505060405180910390f35b341561022a57600080fd5b6102406004808035906020019091905050610e6b565b6040518080602001828103825283818151815260200191508051906020019080838360005b83811015610280578082015181840152602081019050610265565b50505050905090810190601f1680156102ad5780820380516001836020036101000a031916815260200191505b509250505060405180910390f35b34156102c657600080fd5b6102ce610f27565b005b34156102db57600080fd5b6102f16004808035906020019091905050611480565b6040518082815260200191505060405180910390f35b341561031257600080fd5b610411600480803590602001909190803590602001908201803590602001908080601f0160208091040260200160405190810160405280939291908181526020018383808284378201915050505050509190803567ffffffffffffffff1690602001909190803561ffff1690602001909190803590602001908201803590602001908080601f0160208091040260200160405190810160405280939291908181526020018383808284378201915050505050509190803573ffffffffffffffffffffffffffffffffffffffff1690602001909190803560ff1690602001909190803560ff1690602001909190803560ff169060200190919050506114aa565b005b341561041e57600080fd5b61050c600480803590602001908201803590602001908080601f0160208091040260200160405190810160405280939291908181526020018383808284378201915050505050509190803560ff1690602001909190803560ff1690602001909190803590602001908201803590602001908080601f0160208091040260200160405190810160405280939291908181526020018383808284378201915050505050509190803573ffffffffffffffffffffffffffffffffffffffff1690602001909190803560ff1690602001909190803560ff1690602001909190803560ff16906020019091905050611629565b005b341561051957600080fd5b61053860048080359060200190919080359060200190919050506117e5565b005b341561054557600080fd5b6105d8600480803590602001908201803590602001908080601f0160208091040260200160405190810160405280939291908181526020018383808284378201915050505050509190803590602001908201803590602001908080601f01602080910402602001604051908101604052809392919081815260200183838082843782019150505050505091905050611833565b005b34156105e557600080fd5b6105fb600480803590602001909190505061196a565b60405180806020018967ffffffffffffffff1667ffffffffffffffff1681526020018861ffff1661ffff168152602001806020018773ffffffffffffffffffffffffffffffffffffffff1673ffffffffffffffffffffffffffffffffffffffff1681526020018661ffff1661ffff1681526020018561ffff1661ffff1681526020018461ffff1661ffff16815260200183810383528b818151815260200191508051906020019080838360005b838110156106c35780820151818401526020810190506106a8565b50505050905090810190601f1680156106f05780820380516001836020036101000a031916815260200191505b50838103825288818151815260200191508051906020019080838360005b8381101561072957808201518184015260208101905061070e565b50505050905090810190601f1680156107565780820380516001836020036101000a031916815260200191505b509a505050505050505050505060405180910390f35b341561077757600080fd5b610813600480803590602001909190803590602001908201803590602001908080601f0160208091040260200160405190810160405280939291908181526020018383808284378201915050505050509190803590602001908201803590602001908080601f01602080910402602001604051908101604052809392919081815260200183838082843782019150505050505091905050611c46565b005b341561082057600080fd5b61083f6004808035906020019091908035906020019091905050611cd9565b604051808581526020018060200180602001848152602001838103835286818151815260200191508051906020019080838360005b8381101561088f578082015181840152602081019050610874565b50505050905090810190601f1680156108bc5780820380516001836020036101000a031916815260200191505b50838103825285818151815260200191508051906020019080838360005b838110156108f55780820151818401526020810190506108da565b50505050905090810190601f1680156109225780820380516001836020036101000a031916815260200191505b50965050505050505060405180910390f35b341561093f57600080fd5b6109556004808035906020019091905050611efc565b604051808873ffffffffffffffffffffffffffffffffffffffff1673ffffffffffffffffffffffffffffffffffffffff1681526020018060200180602001878152602001868152602001858152602001848152602001838103835289818151815260200191508051906020019080838360005b838110156109e35780820151818401526020810190506109c8565b50505050905090810190601f168015610a105780820380516001836020036101000a031916815260200191505b50838103825288818151815260200191508051906020019080838360005b83811015610a49578082015181840152602081019050610a2e565b50505050905090810190601f168015610a765780820380516001836020036101000a031916815260200191505b50995050505050505050505060405180910390f35b3415610a9657600080fd5b610aac600480803590602001909190505061216a565b60405180806020018960ff1660ff1681526020018860ff1660ff168152602001806020018773ffffffffffffffffffffffffffffffffffffffff1673ffffffffffffffffffffffffffffffffffffffff1681526020018660ff1660ff1681526020018560ff1660ff1681526020018460ff1660ff16815260200183810383528b818154600181600116156101000203166002900481526020019150805460018160011615610100020316600290048015610ba75780601f10610b7c57610100808354040283529160200191610ba7565b820191906000526020600020905b815481529060010190602001808311610b8a57829003601f168201915b5050838103825288818154600181600116156101000203166002900481526020019150805460018160011615610100020316600290048015610c2a5780601f10610bff57610100808354040283529160200191610c2a565b820191906000526020600020905b815481529060010190602001808311610c0d57829003601f168201915b50509a505050505050505050505060405180910390f35b3415610c4c57600080fd5b610c6b6004808035906020019091908035906020019091905050612220565b005b60008060006001600660003373ffffffffffffffffffffffffffffffffffffffff1673ffffffffffffffffffffffffffffffffffffffff16815260200190815260200160002060009054906101000a900460ff1660ff16141515610cd057600080fd5b610cd98761196a565b90919293949596509091929394955090919293945090919293509091925080935081945082955050505085518361ffff16148015610d1b575084518261ffff16145b8015610d2b575083518161ffff16145b15610e415786600389815481101515610d4057fe5b9060005260206000209060080201600701819055506080604051908101604052803373ffffffffffffffffffffffffffffffffffffffff168152602001878152602001868152602001858152506000808a815260200190815260200160002060008201518160000160006101000a81548173ffffffffffffffffffffffffffffffffffffffff021916908373ffffffffffffffffffffffffffffffffffffffff1602179055506020820151816001019080519060200190610e029291906125d2565b506040820151816002019080519060200190610e1f92919061261f565b506060820151816003019080519060200190610e3c929190612672565b509050505b5050505050505050565b60066020528060005260406000206000915054906101000a900460ff1681565b600281815481101515610e7a57fe5b90600052602060002090016000915090508054600181600116156101000203166002900480601f016020809104026020016040519081016040528092919081815260200182805460018160011615610100020316600290048015610f1f5780601f10610ef457610100808354040283529160200191610f1f565b820191906000526020600020905b815481529060010190602001808311610f0257829003601f168201915b505050505081565b60028054806001018281610f3b91906126fc565b91600052602060002090016000606060405190810160405280602881526020017f447261667420666f722064697363757373696f6e2c206d756c7469706c65207681526020017f657273696f6e732e00000000000000000000000000000000000000000000000081525090919091509080519060200190610fbd929190612728565b505060028054806001018281610fd391906126fc565b916000526020600020900160006040805190810160405280601b81526020017f50656e64696e672d41647669736f727920426f61726420566f746500000000008152509091909150908051906020019061102e929190612728565b50506002805480600101828161104491906126fc565b91600052602060002090016000606060405190810160405280603981526020017f50656e64696e672d41647669736f727920426f61726420566f7465204163636581526020017f707465642c2070656e64696e67204d656d62657220566f746500000000000000815250909190915090805190602001906110c6929190612728565b5050600280548060010182816110dc91906126fc565b91600052602060002090016000606060405190810160405280602281526020017f46696e616c2d41647669736f727920426f61726420566f7465204465636c696e81526020017f65640000000000000000000000000000000000000000000000000000000000008152509091909150908051906020019061115e929190612728565b50506002805480600101828161117491906126fc565b91600052602060002090016000606060405190810160405280603c81526020017f46696e616c2d41647669736f727920426f61726420566f74652041636365707481526020017f65642c204d656d62657220566f7465206e6f7420726571756972656400000000815250909190915090805190602001906111f6929190612728565b50506002805480600101828161120c91906126fc565b91600052602060002090016000606060405190810160405280603881526020017f46696e616c2d41647669736f727920426f61726420566f74652041636365707481526020017f65642c204d656d62657220566f746520416363657074656400000000000000008152509091909150908051906020019061128e929190612728565b5050600280548060010182816112a491906126fc565b91600052602060002090016000606060405190810160405280603881526020017f46696e616c2d41647669736f727920426f61726420566f74652041636365707481526020017f65642c204d656d62657220566f7465204465636c696e6564000000000000000081525090919091509080519060200190611326929190612728565b50506002805480600101828161133c91906126fc565b91600052602060002090016000608060405190810160405280604381526020017f46696e616c2d41647669736f727920426f61726420566f74652041636365707481526020017f65642c204d656d62657220566f74652051756f72756d206e6f7420416368696581526020017f7665640000000000000000000000000000000000000000000000000000000000815250909190915090805190602001906113e4929190612728565b5050600280548060010182816113fa91906126fc565b91600052602060002090016000606060405190810160405280602581526020017f50726f706f73616c2041636365707465642c20496e73756666696369656e742081526020017f46756e64730000000000000000000000000000000000000000000000000000008152509091909150908051906020019061147c929190612728565b5050565b600060038281548110151561149157fe5b9060005260206000209060080201600701549050919050565b8760018a8154811015156114ba57fe5b906000526020600020906004020160000190805190602001906114de929190612728565b508460018a8154811015156114ef57fe5b90600052602060002090600402016002019080519060200190611513929190612728565b508360018a81548110151561152457fe5b906000526020600020906004020160030160006101000a81548173ffffffffffffffffffffffffffffffffffffffff021916908373ffffffffffffffffffffffffffffffffffffffff1602179055508260018a81548110151561158357fe5b906000526020600020906004020160030160146101000a81548160ff021916908360ff1602179055508160018a8154811015156115bc57fe5b906000526020600020906004020160030160156101000a81548160ff021916908360ff1602179055508060018a8154811015156115f557fe5b906000526020600020906004020160030160166101000a81548160ff021916908360ff160217905550505050505050505050565b6001805480600101828161163d91906127a8565b91600052602060002090600402016000610100604051908101604052808c81526020018b60ff1681526020018a60ff1681526020018981526020018873ffffffffffffffffffffffffffffffffffffffff1681526020018760ff1681526020018660ff1681526020018560ff16815250909190915060008201518160000190805190602001906116ce9291906127da565b5060208201518160010160006101000a81548160ff021916908360ff16021790555060408201518160010160016101000a81548160ff021916908360ff160217905550606082015181600201908051906020019061172d9291906127da565b5060808201518160030160006101000a81548173ffffffffffffffffffffffffffffffffffffffff021916908373ffffffffffffffffffffffffffffffffffffffff16021790555060a08201518160030160146101000a81548160ff021916908360ff16021790555060c08201518160030160156101000a81548160ff021916908360ff16021790555060e08201518160030160166101000a81548160ff021916908360ff1602179055505050505050505050505050565b806003838154811015156117f557fe5b9060005260206000209060080201600601819055504260038381548110151561181a57fe5b9060005260206000209060080201600401819055505050565b60038054806001018281611847919061285a565b91600052602060002090600802016000610100604051908101604052803373ffffffffffffffffffffffffffffffffffffffff16815260200186815260200185815260200142815260200142815260200160008152602001600081526020016000815250909190915060008201518160000160006101000a81548173ffffffffffffffffffffffffffffffffffffffff021916908373ffffffffffffffffffffffffffffffffffffffff16021790555060208201518160010190805190602001906119139291906127da565b5060408201518160020190805190602001906119309291906127da565b50606082015181600301556080820151816004015560a0820151816005015560c0820151816006015560e082015181600701555050505050565b61197261288c565b60008061197d61288c565b60008060008060018981548110151561199257fe5b90600052602060002090600402016000018054600181600116156101000203166002900480601f016020809104026020016040519081016040528092919081815260200182805460018160011615610100020316600290048015611a375780601f10611a0c57610100808354040283529160200191611a37565b820191906000526020600020905b815481529060010190602001808311611a1a57829003601f168201915b50505050509750600189815481101515611a4d57fe5b906000526020600020906004020160010160009054906101000a900460ff1660ff169650600189815481101515611a8057fe5b906000526020600020906004020160010160019054906101000a900460ff1660ff169550600189815481101515611ab357fe5b90600052602060002090600402016002018054600181600116156101000203166002900480601f016020809104026020016040519081016040528092919081815260200182805460018160011615610100020316600290048015611b585780601f10611b2d57610100808354040283529160200191611b58565b820191906000526020600020905b815481529060010190602001808311611b3b57829003601f168201915b50505050509450600189815481101515611b6e57fe5b906000526020600020906004020160030160009054906101000a900473ffffffffffffffffffffffffffffffffffffffff169350600189815481101515611bb157fe5b906000526020600020906004020160030160149054906101000a900460ff1660ff169250600189815481101515611be457fe5b906000526020600020906004020160030160159054906101000a900460ff1660ff169150600189815481101515611c1757fe5b906000526020600020906004020160030160169054906101000a900460ff1660ff169050919395975091939597565b600383815481101515611c5557fe5b906000526020600020906008020160000160009054906101000a900473ffffffffffffffffffffffffffffffffffffffff1673ffffffffffffffffffffffffffffffffffffffff163373ffffffffffffffffffffffffffffffffffffffff16141515611cc057600080fd5b611cc98361228a565b611cd48383836124ea565b505050565b6000611ce361288c565b611ceb61288c565b60006004600087815260200190815260200160002085815481101515611d0d57fe5b9060005260206000209060040201600001546004600088815260200190815260200160002086815481101515611d3f57fe5b90600052602060002090600402016001016004600089815260200190815260200160002087815481101515611d7057fe5b9060005260206000209060040201600201600460008a815260200190815260200160002088815481101515611da157fe5b906000526020600020906004020160030154828054600181600116156101000203166002900480601f016020809104026020016040519081016040528092919081815260200182805460018160011615610100020316600290048015611e485780601f10611e1d57610100808354040283529160200191611e48565b820191906000526020600020905b815481529060010190602001808311611e2b57829003601f168201915b50505050509250818054600181600116156101000203166002900480601f016020809104026020016040519081016040528092919081815260200182805460018160011615610100020316600290048015611ee45780601f10611eb957610100808354040283529160200191611ee4565b820191906000526020600020905b815481529060010190602001808311611ec757829003601f168201915b50505050509150935093509350935092959194509250565b6000611f0661288c565b611f0e61288c565b600080600080600388815481101515611f2357fe5b906000526020600020906008020160000160009054906101000a900473ffffffffffffffffffffffffffffffffffffffff16600389815481101515611f6457fe5b906000526020600020906008020160010160038a815481101515611f8457fe5b906000526020600020906008020160020160038b815481101515611fa457fe5b90600052602060002090600802016003015460038c815481101515611fc557fe5b90600052602060002090600802016004015460038d815481101515611fe657fe5b90600052602060002090600802016005015460038e81548110151561200757fe5b906000526020600020906008020160060154858054600181600116156101000203166002900480601f0160208091040260200160405190810160405280929190818152602001828054600181600116156101000203166002900480156120ae5780601f10612083576101008083540402835291602001916120ae565b820191906000526020600020905b81548152906001019060200180831161209157829003601f168201915b50505050509550848054600181600116156101000203166002900480601f01602080910402602001604051908101604052809291908181526020018280546001816001161561010002031660029004801561214a5780601f1061211f5761010080835404028352916020019161214a565b820191906000526020600020905b81548152906001019060200180831161212d57829003601f168201915b505050505094509650965096509650965096509650919395979092949650565b60018181548110151561217957fe5b906000526020600020906004020160009150905080600001908060010160009054906101000a900460ff16908060010160019054906101000a900460ff169080600201908060030160009054906101000a900473ffffffffffffffffffffffffffffffffffffffff16908060030160149054906101000a900460ff16908060030160159054906101000a900460ff16908060030160169054906101000a900460ff16905088565b60056000838152602001908152602001600020805480600101828161224591906128a0565b91600052602060002090600202016000604080519081016040528085815260200142815250909190915060008201518160000155602082015181600101555050505050565b6004600082815260200190815260200160002080548060010182816122af91906128d2565b916000526020600020906004020160006080604051908101604052806003868154811015156122da57fe5b906000526020600020906008020160050154815260200160038681548110151561230057fe5b90600052602060002090600802016001018054600181600116156101000203166002900480601f0160208091040260200160405190810160405280929190818152602001828054600181600116156101000203166002900480156123a55780601f1061237a576101008083540402835291602001916123a5565b820191906000526020600020905b81548152906001019060200180831161238857829003601f168201915b505050505081526020016003868154811015156123be57fe5b90600052602060002090600802016002018054600181600116156101000203166002900480601f0160208091040260200160405190810160405280929190818152602001828054600181600116156101000203166002900480156124635780601f1061243857610100808354040283529160200191612463565b820191906000526020600020905b81548152906001019060200180831161244657829003601f168201915b5050505050815260200160038681548110151561247c57fe5b90600052602060002090600802016003015481525090919091506000820151816000015560208201518160010190805190602001906124bc9291906127da565b5060408201518160020190805190602001906124d99291906127da565b506060820151816003015550505050565b816003848154811015156124fa57fe5b9060005260206000209060080201600101908051906020019061251e929190612728565b508060038481548110151561252f57fe5b90600052602060002090600802016002019080519060200190612553929190612728565b504260038481548110151561256457fe5b9060005260206000209060080201600401819055504260038481548110151561258957fe5b90600052602060002090600802016003018190555060016003848154811015156125af57fe5b906000526020600020906008020160050160008282540192505081905550505050565b82805482825590600052602060002090810192821561260e579160200282015b8281111561260d5782518255916020019190600101906125f2565b5b50905061261b9190612904565b5090565b828054828255906000526020600020908101928215612661579160200282015b8281111561266057825182906000191690559160200191906001019061263f565b5b50905061266e9190612929565b5090565b8280548282559060005260206000209081019282156126eb579160200282015b828111156126ea5782518260006101000a81548173ffffffffffffffffffffffffffffffffffffffff021916908373ffffffffffffffffffffffffffffffffffffffff16021790555091602001919060010190612692565b5b5090506126f8919061294e565b5090565b815481835581811511612723578183600052602060002091820191016127229190612991565b5b505050565b828054600181600116156101000203166002900490600052602060002090601f016020900481019282601f1061276957805160ff1916838001178555612797565b82800160010185558215612797579182015b8281111561279657825182559160200191906001019061277b565b5b5090506127a49190612904565b5090565b8154818355818115116127d5576004028160040283600052602060002091820191016127d491906129bd565b5b505050565b828054600181600116156101000203166002900490600052602060002090601f016020900481019282601f1061281b57805160ff1916838001178555612849565b82800160010185558215612849579182015b8281111561284857825182559160200191906001019061282d565b5b5090506128569190612904565b5090565b815481835581811511612887576008028160080283600052602060002091820191016128869190612a87565b5b505050565b602060405190810160405280600081525090565b8154818355818115116128cd576002028160020283600052602060002091820191016128cc9190612b15565b5b505050565b8154818355818115116128ff576004028160040283600052602060002091820191016128fe9190612b44565b5b505050565b61292691905b8082111561292257600081600090555060010161290a565b5090565b90565b61294b91905b8082111561294757600081600090555060010161292f565b5090565b90565b61298e91905b8082111561298a57600081816101000a81549073ffffffffffffffffffffffffffffffffffffffff021916905550600101612954565b5090565b90565b6129ba91905b808211156129b657600081816129ad9190612b93565b50600101612997565b5090565b90565b612a8491905b80821115612a8057600080820160006129dc9190612b93565b6001820160006101000a81549060ff02191690556001820160016101000a81549060ff0219169055600282016000612a149190612b93565b6003820160006101000a81549073ffffffffffffffffffffffffffffffffffffffff02191690556003820160146101000a81549060ff02191690556003820160156101000a81549060ff02191690556003820160166101000a81549060ff0219169055506004016129c3565b5090565b90565b612b1291905b80821115612b0e57600080820160006101000a81549073ffffffffffffffffffffffffffffffffffffffff0219169055600182016000612acd9190612b93565b600282016000612add9190612b93565b6003820160009055600482016000905560058201600090556006820160009055600782016000905550600801612a8d565b5090565b90565b612b4191905b80821115612b3d57600080820160009055600182016000905550600201612b1b565b5090565b90565b612b9091905b80821115612b8c57600080820160009055600182016000612b6b9190612b93565b600282016000612b7b9190612b93565b600382016000905550600401612b4a565b5090565b90565b50805460018160011615610100020316600290046000825580601f10612bb95750612bd8565b601f016020900490600052602060002090810190612bd79190612904565b5b505600a165627a7a72305820ce4f1553bb8804a08f8228a32094e019702090a169acf569ded3f63e98aca4150029",
  "source": "/* Copyright (C) 2017 NexusMutual.io\r\n\r\n  This program is free software: you can redistribute it and/or modify\r\n    it under the terms of the GNU General Public License as published by\r\n    the Free Software Foundation, either version 3 of the License, or\r\n    (at your option) any later version.\r\n\r\n  This program is distributed in the hope that it will be useful,\r\n    but WITHOUT ANY WARRANTY; without even the implied warranty of\r\n    MERCHANTABILITY or FITNESS FOR A PARTICULAR PURPOSE.  See the\r\n    GNU General Public License for more details.\r\n\r\n  You should have received a copy of the GNU General Public License\r\n    along with this program.  If not, see http://www.gnu.org/licenses/ */\r\n\r\n\r\npragma solidity ^0.4.8;\r\n\r\ncontract testData {\r\n\r\n    struct proposal{\r\n        address owner;\r\n        string shortDesc;\r\n        string longDesc;\r\n        uint date_add;\r\n        uint date_upd;\r\n        uint versionNum;\r\n        uint status;  \r\n        uint category;\r\n    }\r\n    struct proposalCategory{\r\n        address categorizedBy;\r\n        uint[] paramInt;\r\n        bytes32[] paramBytes32;\r\n        address[] paramAddress;\r\n    }\r\n    struct proposalVersionData{\r\n        uint versionNum;\r\n        string shortDesc;\r\n        string longDesc;\r\n        uint date_add;\r\n    }\r\n    struct Status{\r\n        uint movedTo;\r\n        uint date;\r\n    }\r\n    struct category\r\n    {\r\n        string categoryName;\r\n        uint8 memberVoteRequired;\r\n        uint8 majorityVote;\r\n        string functionName;\r\n        address contractAt;\r\n        uint8 paramInt;\r\n        uint8 paramBytes32;\r\n        uint8 paramAddress;      \r\n    }\r\n\r\n    mapping(uint=>proposalCategory) allProposalCategory;\r\n    category[] public allCategory;\r\n    string[] public status;\r\n    proposal[] allProposal;\r\n    mapping(uint=>proposalVersionData[]) proposalVersions;\r\n    mapping (uint=>Status[]) proposalStatus;\r\n    mapping (address=>uint8) public advisoryBoardMembers;\r\n\r\n    /// @dev Proposal.. and version..\r\n    /// @dev Creates a new proposal \r\n    function addNewProposal(string _shortDesc,string _longDesc) public\r\n    {\r\n        allProposal.push(proposal(msg.sender,_shortDesc,_longDesc,now,now,0,0,0));\r\n\r\n    }\r\n\r\n    /// @dev Fetch details of proposal by giving proposal Id\r\n    function getProposalDetailsById(uint _id) public constant returns (address owner,string shortDesc,string longDesc,uint date_add,uint date_upd,uint versionNum,uint status)\r\n    {\r\n        return (allProposal[_id].owner,allProposal[_id].shortDesc,allProposal[_id].longDesc,allProposal[_id].date_add,allProposal[_id].date_upd,allProposal[_id].versionNum,allProposal[_id].status);\r\n    }\r\n      \r\n    /// @dev Edits a proposal and Only owner of a proposal can edit it.\r\n    function editProposal(uint _id , string _shortDesc, string _longDesc) public\r\n    {\r\n        require(msg.sender == allProposal[_id].owner);\r\n        {\r\n            storeProposalVersion(_id);\r\n            updateProposal(_id,_shortDesc,_longDesc);\r\n        }\r\n    }\r\n\r\n    /// @dev Stores the information of a given version number of a given proposal. Maintains the record of all the versions of a proposal.\r\n    function storeProposalVersion(uint _id) private \r\n    {\r\n       \r\n        proposalVersions[_id].push(proposalVersionData(allProposal[_id].versionNum,allProposal[_id].shortDesc,allProposal[_id].longDesc,allProposal[_id].date_add));            \r\n    }\r\n\r\n    /// @dev Edits the details of an existing proposal and creates new version.\r\n    function updateProposal(uint _id,string _shortDesc,string _longDesc) private\r\n    {\r\n        allProposal[_id].shortDesc = _shortDesc;\r\n        allProposal[_id].longDesc = _longDesc;\r\n        allProposal[_id].date_upd = now;\r\n        allProposal[_id].date_add = now;\r\n        allProposal[_id].versionNum += 1;\r\n    }\r\n\r\n    /// @dev Gets version details of a given proposal id.\r\n    function getProposalDetailsByIdAndVersion(uint _id,uint _versionNum) public constant returns( uint versionNum,string shortDesc,string longDesc,uint date_add)\r\n    {\r\n       return (proposalVersions[_id][_versionNum].versionNum,proposalVersions[_id][_versionNum].shortDesc,proposalVersions[_id][_versionNum].longDesc,proposalVersions[_id][_versionNum].date_add);\r\n    }\r\n    /// @dev Status..\r\n    /// @dev Changes the status of a given proposal.\r\n    function changeProposalStatus(uint _id,uint _status) internal\r\n    {\r\n        \r\n        pushInProposalStatus(_id,_status);\r\n        updateProposalStatus(_id,_status);\r\n        \r\n\r\n    }\r\n\r\n    /// @dev Adds status names in array - Not generic right now\r\n    function addStatus() public\r\n    {   \r\n        status.push(\"Draft for discussion, multiple versions.\");\r\n        status.push(\"Pending-Advisory Board Vote\");\r\n        status.push(\"Pending-Advisory Board Vote Accepted, pending Member Vote\");\r\n        status.push(\"Final-Advisory Board Vote Declined\");\r\n        status.push(\"Final-Advisory Board Vote Accepted, Member Vote not required\");\r\n        status.push(\"Final-Advisory Board Vote Accepted, Member Vote Accepted\");\r\n        status.push(\"Final-Advisory Board Vote Accepted, Member Vote Declined\");\r\n        status.push(\"Final-Advisory Board Vote Accepted, Member Vote Quorum not Achieved\");\r\n        status.push(\"Proposal Accepted, Insufficient Funds\");\r\n    }\r\n   \r\n\r\n    /// @dev Updates  status of an existing proposal.\r\n    function updateProposalStatus(uint _id ,uint _status) public\r\n    {\r\n        allProposal[_id].status = _status;\r\n         allProposal[_id].date_upd =now;\r\n    }\r\n\r\n    /// @dev Stores the status information of a given proposal.\r\n    function pushInProposalStatus(uint _id , uint _status) public\r\n    {\r\n        proposalStatus[_id].push(Status(_status,now));\r\n    }\r\n    /// @dev category..\r\n    /// @dev Adds a new category.\r\n    function addNewCategory(string _categoryName,uint8 _memberVoteRequired,uint8 _majorityVote,string _functionName,address _contractAt,uint8 _paramInt,uint8 _paramBytes32,uint8 _paramAddress) public\r\n    {\r\n        allCategory.push(category(_categoryName,_memberVoteRequired,_majorityVote,_functionName,_contractAt,_paramInt,_paramBytes32,_paramAddress));\r\n    }\r\n\r\n    /// @dev Gets category details by category id.\r\n    function getCategoryDetails(uint _categoryId) public constant returns (string categoryName,uint64 memberVoteRequired,uint16 majorityVote,string functionName,address contractAt,uint16 paramInt,uint16 paramBytes32,uint16 paramAddress)\r\n    {    \r\n        categoryName = allCategory[_categoryId].categoryName;\r\n        memberVoteRequired = allCategory[_categoryId].memberVoteRequired;\r\n        majorityVote = allCategory[_categoryId].majorityVote;\r\n        functionName = allCategory[_categoryId].functionName;\r\n        contractAt = allCategory[_categoryId].contractAt;\r\n        paramInt = allCategory[_categoryId].paramInt;\r\n        paramBytes32 = allCategory[_categoryId].paramBytes32;\r\n        paramAddress = allCategory[_categoryId].paramAddress;\r\n    } \r\n\r\n    function updateCategory(uint _categoryId,string _categoryName,uint64 _memberVoteRequired,uint16 _majorityVote,string _functionName,address _contractAt,uint8 _paramInt,uint8 _paramBytes32,uint8 _paramAddress)\r\n    {\r\n        allCategory[_categoryId].categoryName = _categoryName;\r\n        allCategory[_categoryId].functionName = _functionName;\r\n        allCategory[_categoryId].contractAt = _contractAt;\r\n        allCategory[_categoryId].paramInt = _paramInt;\r\n        allCategory[_categoryId].paramBytes32 = _paramBytes32; \r\n        allCategory[_categoryId].paramAddress = _paramAddress; \r\n    }\r\n\r\n    function categorizeProposal(uint _id , uint _categoryId,uint[] _paramInt,bytes32[] _paramBytes32,address[] _paramAddress)\r\n    {\r\n         require(advisoryBoardMembers[msg.sender]==1);\r\n        \r\n                uint16 paramInt; uint16 paramBytes32; uint16 paramAddress;\r\n                (,,,,,paramInt,paramBytes32,paramAddress) = getCategoryDetails(_categoryId);\r\n                if(paramInt == _paramInt.length && paramBytes32 == _paramBytes32.length && paramAddress == _paramAddress.length)\r\n                {\r\n                    allProposal[_id].category = _categoryId;\r\n                    allProposalCategory[_id]=proposalCategory(msg.sender,_paramInt,_paramBytes32,_paramAddress);\r\n                }\r\n      \r\n    }\r\n\r\n\r\n    function isProposalCategorised(uint _id) public constant returns(uint check)\r\n    {   \r\n        check=allProposal[_id].category;\r\n    }\r\n\r\n \r\n\r\n}  \r\n\r\n\r\n",
  "sourcePath": "D:\\GovBlocks\\CGP\\contracts\\governanceData.sol",
  "compiler": {
    "name": "solc",
    "version": "0.4.18+commit.9cf6e910.Emscripten.clang"
  },
  "schemaVersion": "1.0.1",
  "updatedAt": "2017-11-04T13:09:55.849Z"
}